{
	"dutchAuction/DutchAuction2.sol": {
		"DutchAuction": {
			"abi": [
				{
					"inputs": [
						{
							"internalType": "uint256",
							"name": "_startingPrice",
							"type": "uint256"
						},
						{
							"internalType": "uint256",
							"name": "_discountRate",
							"type": "uint256"
						},
						{
							"internalType": "address",
							"name": "_nft",
							"type": "address"
						},
						{
							"internalType": "uint256",
							"name": "_nftId",
							"type": "uint256"
						}
					],
					"stateMutability": "nonpayable",
					"type": "constructor"
				},
				{
					"inputs": [],
					"name": "buy",
					"outputs": [],
					"stateMutability": "payable",
					"type": "function"
				},
				{
					"inputs": [],
					"name": "discountRate",
					"outputs": [
						{
							"internalType": "uint256",
							"name": "",
							"type": "uint256"
						}
					],
					"stateMutability": "view",
					"type": "function"
				},
				{
					"inputs": [],
					"name": "expiresAt",
					"outputs": [
						{
							"internalType": "uint256",
							"name": "",
							"type": "uint256"
						}
					],
					"stateMutability": "view",
					"type": "function"
				},
				{
					"inputs": [],
					"name": "getPrice",
					"outputs": [
						{
							"internalType": "uint256",
							"name": "",
							"type": "uint256"
						}
					],
					"stateMutability": "view",
					"type": "function"
				},
				{
					"inputs": [],
					"name": "nft",
					"outputs": [
						{
							"internalType": "contract IERC721",
							"name": "",
							"type": "address"
						}
					],
					"stateMutability": "view",
					"type": "function"
				},
				{
					"inputs": [],
					"name": "nftId",
					"outputs": [
						{
							"internalType": "uint256",
							"name": "",
							"type": "uint256"
						}
					],
					"stateMutability": "view",
					"type": "function"
				},
				{
					"inputs": [],
					"name": "seller",
					"outputs": [
						{
							"internalType": "address",
							"name": "",
							"type": "address"
						}
					],
					"stateMutability": "view",
					"type": "function"
				},
				{
					"inputs": [],
					"name": "startAt",
					"outputs": [
						{
							"internalType": "uint256",
							"name": "",
							"type": "uint256"
						}
					],
					"stateMutability": "view",
					"type": "function"
				},
				{
					"inputs": [],
					"name": "startingPrice",
					"outputs": [
						{
							"internalType": "uint256",
							"name": "",
							"type": "uint256"
						}
					],
					"stateMutability": "view",
					"type": "function"
				}
			],
			"devdoc": {
				"kind": "dev",
				"methods": {},
				"version": 1
			},
			"evm": {
				"assembly": "    /* \"dutchAuction/DutchAuction2.sol\":198:1666  contract DutchAuction {... */\n  mstore(0x40, 0x0160)\n    /* \"dutchAuction/DutchAuction2.sol\":539:1061  constructor(... */\n  callvalue\n  dup1\n  iszero\n  tag_1\n  jumpi\n  0x00\n  dup1\n  revert\ntag_1:\n  pop\n  mload(0x40)\n  sub(codesize, bytecodeSize)\n  dup1\n  bytecodeSize\n  dup4\n  codecopy\n  dup2\n  add\n  0x40\n  dup2\n  swap1\n  mstore\n  tag_2\n  swap2\n  tag_3\n  jump\t// in\ntag_2:\n    /* \"dutchAuction/DutchAuction2.sol\":690:700  msg.sender */\n  caller\n    /* \"dutchAuction/DutchAuction2.sol\":673:701  seller = payable(msg.sender) */\n  0xc0\n  mstore\n    /* \"dutchAuction/DutchAuction2.sol\":712:742  startingPrice = _startingPrice */\n  0xe0\n  dup5\n  swap1\n  mstore\n    /* \"dutchAuction/DutchAuction2.sol\":753:781  discountRate = _discountRate */\n  0x0140\n  dup4\n  swap1\n  mstore\n    /* \"dutchAuction/DutchAuction2.sol\":802:817  block.timestamp */\n  timestamp\n    /* \"dutchAuction/DutchAuction2.sol\":792:817  startAt = block.timestamp */\n  0x0100\n  dup2\n  swap1\n  mstore\n    /* \"dutchAuction/DutchAuction2.sol\":840:866  block.timestamp + DURATION */\n  tag_6\n  swap1\n    /* \"dutchAuction/DutchAuction2.sol\":260:266  7 days */\n  0x093a80\n  swap1\n    /* \"dutchAuction/DutchAuction2.sol\":840:866  block.timestamp + DURATION */\n  tag_7\n  jump\t// in\ntag_6:\n    /* \"dutchAuction/DutchAuction2.sol\":828:866  expiresAt = block.timestamp + DURATION */\n  0x0120\n  mstore\n    /* \"dutchAuction/DutchAuction2.sol\":919:943  _discountRate * DURATION */\n  tag_8\n    /* \"dutchAuction/DutchAuction2.sol\":260:266  7 days */\n  0x093a80\n    /* \"dutchAuction/DutchAuction2.sol\":919:932  _discountRate */\n  dup5\n    /* \"dutchAuction/DutchAuction2.sol\":919:943  _discountRate * DURATION */\n  tag_9\n  jump\t// in\ntag_8:\n    /* \"dutchAuction/DutchAuction2.sol\":901:915  _startingPrice */\n  dup5\n    /* \"dutchAuction/DutchAuction2.sol\":901:943  _startingPrice >= _discountRate * DURATION */\n  lt\n  iszero\n    /* \"dutchAuction/DutchAuction2.sol\":879:996  require(... */\n  tag_10\n  jumpi\n  mload(0x40)\n  shl(0xe5, 0x461bcd)\n  dup2\n  mstore\n    /* \"#utility.yul\":1130:1132   */\n  0x20\n    /* \"dutchAuction/DutchAuction2.sol\":879:996  require(... */\n  0x04\n  dup3\n  add\n    /* \"#utility.yul\":1112:1133   */\n  mstore\n    /* \"#utility.yul\":1169:1171   */\n  0x19\n    /* \"#utility.yul\":1149:1167   */\n  0x24\n  dup3\n  add\n    /* \"#utility.yul\":1142:1172   */\n  mstore\n    /* \"#utility.yul\":1208:1235   */\n  0x7374617274696e67207072696365203c20646973636f756e7400000000000000\n    /* \"#utility.yul\":1188:1206   */\n  0x44\n  dup3\n  add\n    /* \"#utility.yul\":1181:1236   */\n  mstore\n    /* \"#utility.yul\":1253:1271   */\n  0x64\n  add\n    /* \"dutchAuction/DutchAuction2.sol\":879:996  require(... */\n  mload(0x40)\n  dup1\n  swap2\n  sub\n  swap1\n  revert\ntag_10:\n  sub(shl(0xa0, 0x01), 0x01)\n    /* \"dutchAuction/DutchAuction2.sol\":1009:1028  nft = IERC721(_nft) */\n  swap1\n  swap2\n  and\n  0x80\n  mstore\n    /* \"dutchAuction/DutchAuction2.sol\":1039:1053  nftId = _nftId */\n  0xa0\n  mstore\n  pop\n    /* \"dutchAuction/DutchAuction2.sol\":198:1666  contract DutchAuction {... */\n  tag_15\n  swap1\n  pop\n  jump\n    /* \"#utility.yul\":14:488   */\ntag_3:\n    /* \"#utility.yul\":111:117   */\n  0x00\n    /* \"#utility.yul\":119:125   */\n  dup1\n    /* \"#utility.yul\":127:133   */\n  0x00\n    /* \"#utility.yul\":135:141   */\n  dup1\n    /* \"#utility.yul\":188:191   */\n  0x80\n    /* \"#utility.yul\":176:185   */\n  dup6\n    /* \"#utility.yul\":167:174   */\n  dup8\n    /* \"#utility.yul\":163:186   */\n  sub\n    /* \"#utility.yul\":159:192   */\n  slt\n    /* \"#utility.yul\":156:209   */\n  iszero\n  tag_17\n  jumpi\n    /* \"#utility.yul\":205:206   */\n  0x00\n    /* \"#utility.yul\":202:203   */\n  dup1\n    /* \"#utility.yul\":195:207   */\n  revert\n    /* \"#utility.yul\":156:209   */\ntag_17:\n    /* \"#utility.yul\":228:244   */\n  dup5\n  mload\n    /* \"#utility.yul\":284:286   */\n  0x20\n    /* \"#utility.yul\":269:287   */\n  dup7\n  add\n    /* \"#utility.yul\":263:288   */\n  mload\n    /* \"#utility.yul\":331:333   */\n  0x40\n    /* \"#utility.yul\":316:334   */\n  dup8\n  add\n    /* \"#utility.yul\":310:335   */\n  mload\n    /* \"#utility.yul\":228:244   */\n  swap2\n  swap6\n  pop\n    /* \"#utility.yul\":263:288   */\n  swap4\n  pop\n  sub(shl(0xa0, 0x01), 0x01)\n    /* \"#utility.yul\":364:395   */\n  dup2\n  and\n    /* \"#utility.yul\":354:396   */\n  dup2\n  eq\n    /* \"#utility.yul\":344:414   */\n  tag_18\n  jumpi\n    /* \"#utility.yul\":410:411   */\n  0x00\n    /* \"#utility.yul\":407:408   */\n  dup1\n    /* \"#utility.yul\":400:412   */\n  revert\n    /* \"#utility.yul\":344:414   */\ntag_18:\n    /* \"#utility.yul\":478:480   */\n  0x60\n    /* \"#utility.yul\":463:481   */\n  swap6\n  swap1\n  swap6\n  add\n    /* \"#utility.yul\":457:482   */\n  mload\n    /* \"#utility.yul\":14:488   */\n  swap4\n  swap7\n  swap3\n  swap6\n  pop\n  pop\n  pop\n  jump\t// out\n    /* \"#utility.yul\":493:620   */\ntag_14:\n    /* \"#utility.yul\":554:564   */\n  0x4e487b71\n    /* \"#utility.yul\":549:552   */\n  0xe0\n    /* \"#utility.yul\":545:565   */\n  shl\n    /* \"#utility.yul\":542:543   */\n  0x00\n    /* \"#utility.yul\":535:566   */\n  mstore\n    /* \"#utility.yul\":585:589   */\n  0x11\n    /* \"#utility.yul\":582:583   */\n  0x04\n    /* \"#utility.yul\":575:590   */\n  mstore\n    /* \"#utility.yul\":609:613   */\n  0x24\n    /* \"#utility.yul\":606:607   */\n  0x00\n    /* \"#utility.yul\":599:614   */\n  revert\n    /* \"#utility.yul\":625:750   */\ntag_7:\n    /* \"#utility.yul\":690:699   */\n  dup1\n  dup3\n  add\n    /* \"#utility.yul\":711:721   */\n  dup1\n  dup3\n  gt\n    /* \"#utility.yul\":708:744   */\n  iszero\n  tag_22\n  jumpi\n    /* \"#utility.yul\":724:742   */\n  tag_22\n  tag_14\n  jump\t// in\ntag_22:\n    /* \"#utility.yul\":625:750   */\n  swap3\n  swap2\n  pop\n  pop\n  jump\t// out\n    /* \"#utility.yul\":755:923   */\ntag_9:\n    /* \"#utility.yul\":828:837   */\n  dup1\n  dup3\n  mul\n    /* \"#utility.yul\":859:868   */\n  dup2\n  iszero\n    /* \"#utility.yul\":876:891   */\n  dup3\n  dup3\n  div\n    /* \"#utility.yul\":870:892   */\n  dup5\n  eq\n    /* \"#utility.yul\":856:893   */\n  or\n    /* \"#utility.yul\":846:917   */\n  tag_22\n  jumpi\n    /* \"#utility.yul\":897:915   */\n  tag_22\n  tag_14\n  jump\t// in\n    /* \"#utility.yul\":928:1277   */\ntag_15:\n    /* \"dutchAuction/DutchAuction2.sol\":198:1666  contract DutchAuction {... */\n  mload(0x80)\n  mload(0xa0)\n  mload(0xc0)\n  mload(0xe0)\n  mload(0x0100)\n  mload(0x0120)\n  mload(0x0140)\n  codecopy(0x00, dataOffset(sub_0), dataSize(sub_0))\n  0x00\n  assignImmutable(\"0x7749cc8014201da2069c21d93ba99c584b6f62d393fde534ed47eac227e31561\")\n  0x00\n  assignImmutable(\"0x58a280f74f57bf051c40f060139dc747e015be52f68c57e2c4ab2e4bd4146f43\")\n  0x00\n  assignImmutable(\"0x81e080ffc23e8b8d44dd829bc823229e92b893eb1d8f624419d3f5682eb97fc3\")\n  0x00\n  assignImmutable(\"0x1572b593c53d839d80004aa4b8c51211864104f06ace9e22be9c4365b50655ea\")\n  0x00\n  assignImmutable(\"0xf4c2b5de886427473655d4c904c743576dc2d53249b7535d96c06cc97ae7216b\")\n  0x00\n  assignImmutable(\"0x939eb54753ed0cc7e2272bfb34cbe098308c93936ed54d79078f76ade0b2e789\")\n  0x00\n  assignImmutable(\"0x8e8fab5f003314da8d1873ea7720e8d9f47650136d916064d1edb8a11d682624\")\n  return(0x00, dataSize(sub_0))\nstop\n\nsub_0: assembly {\n        /* \"dutchAuction/DutchAuction2.sol\":198:1666  contract DutchAuction {... */\n      mstore(0x40, 0x80)\n      jumpi(tag_1, lt(calldatasize, 0x04))\n      shr(0xe0, calldataload(0x00))\n      dup1\n      0xa6f2ae3a\n      gt\n      tag_11\n      jumpi\n      dup1\n      0xa6f2ae3a\n      eq\n      tag_6\n      jumpi\n      dup1\n      0xc6bc5182\n      eq\n      tag_7\n      jumpi\n      dup1\n      0xc7446565\n      eq\n      tag_8\n      jumpi\n      dup1\n      0xd6fbf202\n      eq\n      tag_9\n      jumpi\n      dup1\n      0xe6c0e6d5\n      eq\n      tag_10\n      jumpi\n      0x00\n      dup1\n      revert\n    tag_11:\n      dup1\n      0x08551a53\n      eq\n      tag_2\n      jumpi\n      dup1\n      0x47ccca02\n      eq\n      tag_3\n      jumpi\n      dup1\n      0x8622a689\n      eq\n      tag_4\n      jumpi\n      dup1\n      0x98d5fdca\n      eq\n      tag_5\n      jumpi\n    tag_1:\n      0x00\n      dup1\n      revert\n        /* \"dutchAuction/DutchAuction2.sol\":342:373  address public immutable seller */\n    tag_2:\n      callvalue\n      dup1\n      iszero\n      tag_12\n      jumpi\n      0x00\n      dup1\n      revert\n    tag_12:\n      pop\n      tag_13\n      immutable(\"0xf4c2b5de886427473655d4c904c743576dc2d53249b7535d96c06cc97ae7216b\")\n      dup2\n      jump\n    tag_13:\n      mload(0x40)\n      sub(shl(0xa0, 0x01), 0x01)\n        /* \"#utility.yul\":178:210   */\n      swap1\n      swap2\n      and\n        /* \"#utility.yul\":160:211   */\n      dup2\n      mstore\n        /* \"#utility.yul\":148:150   */\n      0x20\n        /* \"#utility.yul\":133:151   */\n      add\n        /* \"dutchAuction/DutchAuction2.sol\":342:373  address public immutable seller */\n    tag_15:\n      mload(0x40)\n      dup1\n      swap2\n      sub\n      swap1\n      return\n        /* \"dutchAuction/DutchAuction2.sol\":273:301  IERC721 public immutable nft */\n    tag_3:\n      callvalue\n      dup1\n      iszero\n      tag_17\n      jumpi\n      0x00\n      dup1\n      revert\n    tag_17:\n      pop\n      tag_13\n      immutable(\"0x8e8fab5f003314da8d1873ea7720e8d9f47650136d916064d1edb8a11d682624\")\n      dup2\n      jump\n        /* \"dutchAuction/DutchAuction2.sol\":458:489  uint public immutable expiresAt */\n    tag_4:\n      callvalue\n      dup1\n      iszero\n      tag_22\n      jumpi\n      0x00\n      dup1\n      revert\n    tag_22:\n      pop\n      tag_23\n      immutable(\"0x58a280f74f57bf051c40f060139dc747e015be52f68c57e2c4ab2e4bd4146f43\")\n      dup2\n      jump\n    tag_23:\n      mload(0x40)\n        /* \"#utility.yul\":590:615   */\n      swap1\n      dup2\n      mstore\n        /* \"#utility.yul\":578:580   */\n      0x20\n        /* \"#utility.yul\":563:581   */\n      add\n        /* \"dutchAuction/DutchAuction2.sol\":458:489  uint public immutable expiresAt */\n      tag_15\n        /* \"#utility.yul\":444:621   */\n      jump\n        /* \"dutchAuction/DutchAuction2.sol\":1069:1274  function getPrice() public view returns (uint) {... */\n    tag_5:\n      callvalue\n      dup1\n      iszero\n      tag_27\n      jumpi\n      0x00\n      dup1\n      revert\n    tag_27:\n      pop\n      tag_23\n      tag_29\n      jump\t// in\n        /* \"dutchAuction/DutchAuction2.sol\":1282:1663  function buy() external payable {... */\n    tag_6:\n      tag_31\n      tag_32\n      jump\t// in\n    tag_31:\n      stop\n        /* \"dutchAuction/DutchAuction2.sol\":308:335  uint public immutable nftId */\n    tag_7:\n      callvalue\n      dup1\n      iszero\n      tag_33\n      jumpi\n      0x00\n      dup1\n      revert\n    tag_33:\n      pop\n      tag_23\n      immutable(\"0x939eb54753ed0cc7e2272bfb34cbe098308c93936ed54d79078f76ade0b2e789\")\n      dup2\n      jump\n        /* \"dutchAuction/DutchAuction2.sol\":422:451  uint public immutable startAt */\n    tag_8:\n      callvalue\n      dup1\n      iszero\n      tag_37\n      jumpi\n      0x00\n      dup1\n      revert\n    tag_37:\n      pop\n      tag_23\n      immutable(\"0x81e080ffc23e8b8d44dd829bc823229e92b893eb1d8f624419d3f5682eb97fc3\")\n      dup2\n      jump\n        /* \"dutchAuction/DutchAuction2.sol\":380:415  uint public immutable startingPrice */\n    tag_9:\n      callvalue\n      dup1\n      iszero\n      tag_41\n      jumpi\n      0x00\n      dup1\n      revert\n    tag_41:\n      pop\n      tag_23\n      immutable(\"0x1572b593c53d839d80004aa4b8c51211864104f06ace9e22be9c4365b50655ea\")\n      dup2\n      jump\n        /* \"dutchAuction/DutchAuction2.sol\":496:530  uint public immutable discountRate */\n    tag_10:\n      callvalue\n      dup1\n      iszero\n      tag_45\n      jumpi\n      0x00\n      dup1\n      revert\n    tag_45:\n      pop\n      tag_23\n      immutable(\"0x7749cc8014201da2069c21d93ba99c584b6f62d393fde534ed47eac227e31561\")\n      dup2\n      jump\n        /* \"dutchAuction/DutchAuction2.sol\":1069:1274  function getPrice() public view returns (uint) {... */\n    tag_29:\n        /* \"dutchAuction/DutchAuction2.sol\":1110:1114  uint */\n      0x00\n      dup1\n        /* \"dutchAuction/DutchAuction2.sol\":1146:1171  block.timestamp - startAt */\n      tag_50\n        /* \"dutchAuction/DutchAuction2.sol\":1164:1171  startAt */\n      immutable(\"0x81e080ffc23e8b8d44dd829bc823229e92b893eb1d8f624419d3f5682eb97fc3\")\n        /* \"dutchAuction/DutchAuction2.sol\":1146:1161  block.timestamp */\n      timestamp\n        /* \"dutchAuction/DutchAuction2.sol\":1146:1171  block.timestamp - startAt */\n      tag_51\n      jump\t// in\n    tag_50:\n        /* \"dutchAuction/DutchAuction2.sol\":1127:1171  uint timeElapsed = block.timestamp - startAt */\n      swap1\n      pop\n        /* \"dutchAuction/DutchAuction2.sol\":1182:1195  uint discount */\n      0x00\n        /* \"dutchAuction/DutchAuction2.sol\":1198:1224  discountRate * timeElapsed */\n      tag_52\n        /* \"dutchAuction/DutchAuction2.sol\":1127:1171  uint timeElapsed = block.timestamp - startAt */\n      dup3\n        /* \"dutchAuction/DutchAuction2.sol\":1198:1210  discountRate */\n      immutable(\"0x7749cc8014201da2069c21d93ba99c584b6f62d393fde534ed47eac227e31561\")\n        /* \"dutchAuction/DutchAuction2.sol\":1198:1224  discountRate * timeElapsed */\n      tag_53\n      jump\t// in\n    tag_52:\n        /* \"dutchAuction/DutchAuction2.sol\":1182:1224  uint discount = discountRate * timeElapsed */\n      swap1\n      pop\n        /* \"dutchAuction/DutchAuction2.sol\":1242:1266  startingPrice - discount */\n      tag_54\n        /* \"dutchAuction/DutchAuction2.sol\":1182:1224  uint discount = discountRate * timeElapsed */\n      dup2\n        /* \"dutchAuction/DutchAuction2.sol\":1242:1255  startingPrice */\n      immutable(\"0x1572b593c53d839d80004aa4b8c51211864104f06ace9e22be9c4365b50655ea\")\n        /* \"dutchAuction/DutchAuction2.sol\":1242:1266  startingPrice - discount */\n      tag_51\n      jump\t// in\n    tag_54:\n        /* \"dutchAuction/DutchAuction2.sol\":1235:1266  return startingPrice - discount */\n      swap3\n      pop\n      pop\n      pop\n        /* \"dutchAuction/DutchAuction2.sol\":1069:1274  function getPrice() public view returns (uint) {... */\n      swap1\n      jump\t// out\n        /* \"dutchAuction/DutchAuction2.sol\":1282:1663  function buy() external payable {... */\n    tag_32:\n        /* \"dutchAuction/DutchAuction2.sol\":1351:1360  expiresAt */\n      immutable(\"0x58a280f74f57bf051c40f060139dc747e015be52f68c57e2c4ab2e4bd4146f43\")\n        /* \"dutchAuction/DutchAuction2.sol\":1333:1348  block.timestamp */\n      timestamp\n        /* \"dutchAuction/DutchAuction2.sol\":1333:1360  block.timestamp < expiresAt */\n      lt\n        /* \"dutchAuction/DutchAuction2.sol\":1325:1379  require(block.timestamp < expiresAt, \"aution expired\") */\n      tag_56\n      jumpi\n      mload(0x40)\n      shl(0xe5, 0x461bcd)\n      dup2\n      mstore\n        /* \"#utility.yul\":1266:1268   */\n      0x20\n        /* \"dutchAuction/DutchAuction2.sol\":1325:1379  require(block.timestamp < expiresAt, \"aution expired\") */\n      0x04\n      dup3\n      add\n        /* \"#utility.yul\":1248:1269   */\n      mstore\n        /* \"#utility.yul\":1305:1307   */\n      0x0e\n        /* \"#utility.yul\":1285:1303   */\n      0x24\n      dup3\n      add\n        /* \"#utility.yul\":1278:1308   */\n      mstore\n      shl(0x92, 0x185d5d1a5bdb88195e1c1a5c9959)\n        /* \"#utility.yul\":1324:1342   */\n      0x44\n      dup3\n      add\n        /* \"#utility.yul\":1317:1361   */\n      mstore\n        /* \"#utility.yul\":1378:1396   */\n      0x64\n      add\n        /* \"dutchAuction/DutchAuction2.sol\":1325:1379  require(block.timestamp < expiresAt, \"aution expired\") */\n    tag_57:\n      mload(0x40)\n      dup1\n      swap2\n      sub\n      swap1\n      revert\n    tag_56:\n        /* \"dutchAuction/DutchAuction2.sol\":1390:1400  uint price */\n      0x00\n        /* \"dutchAuction/DutchAuction2.sol\":1403:1413  getPrice() */\n      tag_59\n        /* \"dutchAuction/DutchAuction2.sol\":1403:1411  getPrice */\n      tag_29\n        /* \"dutchAuction/DutchAuction2.sol\":1403:1413  getPrice() */\n      jump\t// in\n    tag_59:\n        /* \"dutchAuction/DutchAuction2.sol\":1390:1413  uint price = getPrice() */\n      swap1\n      pop\n        /* \"dutchAuction/DutchAuction2.sol\":1445:1450  price */\n      dup1\n        /* \"dutchAuction/DutchAuction2.sol\":1432:1441  msg.value */\n      callvalue\n        /* \"dutchAuction/DutchAuction2.sol\":1432:1450  msg.value >= price */\n      lt\n      iszero\n        /* \"dutchAuction/DutchAuction2.sol\":1424:1466  require(msg.value >= price, \"ETH < price\") */\n      tag_60\n      jumpi\n      mload(0x40)\n      shl(0xe5, 0x461bcd)\n      dup2\n      mstore\n        /* \"#utility.yul\":1609:1611   */\n      0x20\n        /* \"dutchAuction/DutchAuction2.sol\":1424:1466  require(msg.value >= price, \"ETH < price\") */\n      0x04\n      dup3\n      add\n        /* \"#utility.yul\":1591:1612   */\n      mstore\n        /* \"#utility.yul\":1648:1650   */\n      0x0b\n        /* \"#utility.yul\":1628:1646   */\n      0x24\n      dup3\n      add\n        /* \"#utility.yul\":1621:1651   */\n      mstore\n      shl(0xa8, 0x455448203c207072696365)\n        /* \"#utility.yul\":1667:1685   */\n      0x44\n      dup3\n      add\n        /* \"#utility.yul\":1660:1701   */\n      mstore\n        /* \"#utility.yul\":1718:1736   */\n      0x64\n      add\n        /* \"dutchAuction/DutchAuction2.sol\":1424:1466  require(msg.value >= price, \"ETH < price\") */\n      tag_57\n        /* \"#utility.yul\":1407:1742   */\n      jump\n        /* \"dutchAuction/DutchAuction2.sol\":1424:1466  require(msg.value >= price, \"ETH < price\") */\n    tag_60:\n        /* \"dutchAuction/DutchAuction2.sol\":1479:1522  nft.transferFrom(seller, msg.sender, nftId) */\n      mload(0x40)\n      shl(0xe0, 0x23b872dd)\n      dup2\n      mstore\n      sub(shl(0xa0, 0x01), 0x01)\n        /* \"dutchAuction/DutchAuction2.sol\":1496:1502  seller */\n      immutable(\"0xf4c2b5de886427473655d4c904c743576dc2d53249b7535d96c06cc97ae7216b\")\n        /* \"#utility.yul\":2005:2020   */\n      dup2\n      and\n        /* \"dutchAuction/DutchAuction2.sol\":1479:1522  nft.transferFrom(seller, msg.sender, nftId) */\n      0x04\n      dup4\n      add\n        /* \"#utility.yul\":1987:2021   */\n      mstore\n        /* \"dutchAuction/DutchAuction2.sol\":1504:1514  msg.sender */\n      caller\n        /* \"#utility.yul\":2037:2055   */\n      0x24\n      dup4\n      add\n        /* \"#utility.yul\":2030:2073   */\n      mstore\n        /* \"dutchAuction/DutchAuction2.sol\":1516:1521  nftId */\n      immutable(\"0x939eb54753ed0cc7e2272bfb34cbe098308c93936ed54d79078f76ade0b2e789\")\n        /* \"#utility.yul\":2089:2107   */\n      0x44\n      dup4\n      add\n        /* \"#utility.yul\":2082:2116   */\n      mstore\n        /* \"dutchAuction/DutchAuction2.sol\":1479:1482  nft */\n      immutable(\"0x8e8fab5f003314da8d1873ea7720e8d9f47650136d916064d1edb8a11d682624\")\n        /* \"dutchAuction/DutchAuction2.sol\":1479:1495  nft.transferFrom */\n      and\n      swap1\n      0x23b872dd\n      swap1\n        /* \"#utility.yul\":1922:1940   */\n      0x64\n      add\n        /* \"dutchAuction/DutchAuction2.sol\":1479:1522  nft.transferFrom(seller, msg.sender, nftId) */\n      0x00\n      mload(0x40)\n      dup1\n      dup4\n      sub\n      dup2\n      0x00\n      dup8\n      dup1\n      extcodesize\n      iszero\n      dup1\n      iszero\n      tag_65\n      jumpi\n      0x00\n      dup1\n      revert\n    tag_65:\n      pop\n      gas\n      call\n      iszero\n      dup1\n      iszero\n      tag_67\n      jumpi\n      returndatasize\n      0x00\n      dup1\n      returndatacopy\n      revert(0x00, returndatasize)\n    tag_67:\n      pop\n      pop\n      pop\n      pop\n        /* \"dutchAuction/DutchAuction2.sol\":1535:1546  uint refund */\n      0x00\n        /* \"dutchAuction/DutchAuction2.sol\":1561:1566  price */\n      dup2\n        /* \"dutchAuction/DutchAuction2.sol\":1549:1558  msg.value */\n      callvalue\n        /* \"dutchAuction/DutchAuction2.sol\":1549:1566  msg.value - price */\n      tag_68\n      swap2\n      swap1\n      tag_51\n      jump\t// in\n    tag_68:\n        /* \"dutchAuction/DutchAuction2.sol\":1535:1566  uint refund = msg.value - price */\n      swap1\n      pop\n        /* \"dutchAuction/DutchAuction2.sol\":1581:1591  refund > 0 */\n      dup1\n      iszero\n        /* \"dutchAuction/DutchAuction2.sol\":1577:1656  if (refund > 0) {... */\n      tag_69\n      jumpi\n        /* \"dutchAuction/DutchAuction2.sol\":1608:1644  payable(msg.sender).transfer(refund) */\n      mload(0x40)\n        /* \"dutchAuction/DutchAuction2.sol\":1616:1626  msg.sender */\n      caller\n      swap1\n        /* \"dutchAuction/DutchAuction2.sol\":1608:1644  payable(msg.sender).transfer(refund) */\n      dup3\n      iszero\n      0x08fc\n      mul\n      swap1\n        /* \"dutchAuction/DutchAuction2.sol\":1637:1643  refund */\n      dup4\n      swap1\n        /* \"dutchAuction/DutchAuction2.sol\":1608:1644  payable(msg.sender).transfer(refund) */\n      0x00\n      dup2\n      dup2\n      dup2\n        /* \"dutchAuction/DutchAuction2.sol\":1637:1643  refund */\n      dup6\n        /* \"dutchAuction/DutchAuction2.sol\":1616:1626  msg.sender */\n      dup9\n        /* \"dutchAuction/DutchAuction2.sol\":1608:1644  payable(msg.sender).transfer(refund) */\n      dup9\n      call\n      swap4\n      pop\n      pop\n      pop\n      pop\n      iszero\n      dup1\n      iszero\n      tag_71\n      jumpi\n      returndatasize\n      0x00\n      dup1\n      returndatacopy\n      revert(0x00, returndatasize)\n    tag_71:\n      pop\n        /* \"dutchAuction/DutchAuction2.sol\":1577:1656  if (refund > 0) {... */\n    tag_69:\n        /* \"dutchAuction/DutchAuction2.sol\":1314:1663  {... */\n      pop\n      pop\n        /* \"dutchAuction/DutchAuction2.sol\":1282:1663  function buy() external payable {... */\n      jump\t// out\n        /* \"#utility.yul\":626:753   */\n    tag_72:\n        /* \"#utility.yul\":687:697   */\n      0x4e487b71\n        /* \"#utility.yul\":682:685   */\n      0xe0\n        /* \"#utility.yul\":678:698   */\n      shl\n        /* \"#utility.yul\":675:676   */\n      0x00\n        /* \"#utility.yul\":668:699   */\n      mstore\n        /* \"#utility.yul\":718:722   */\n      0x11\n        /* \"#utility.yul\":715:716   */\n      0x04\n        /* \"#utility.yul\":708:723   */\n      mstore\n        /* \"#utility.yul\":742:746   */\n      0x24\n        /* \"#utility.yul\":739:740   */\n      0x00\n        /* \"#utility.yul\":732:747   */\n      revert\n        /* \"#utility.yul\":758:886   */\n    tag_51:\n        /* \"#utility.yul\":825:834   */\n      dup2\n      dup2\n      sub\n        /* \"#utility.yul\":846:857   */\n      dup2\n      dup2\n      gt\n        /* \"#utility.yul\":843:880   */\n      iszero\n      tag_80\n      jumpi\n        /* \"#utility.yul\":860:878   */\n      tag_80\n      tag_72\n      jump\t// in\n    tag_80:\n        /* \"#utility.yul\":758:886   */\n      swap3\n      swap2\n      pop\n      pop\n      jump\t// out\n        /* \"#utility.yul\":891:1059   */\n    tag_53:\n        /* \"#utility.yul\":964:973   */\n      dup1\n      dup3\n      mul\n        /* \"#utility.yul\":995:1004   */\n      dup2\n      iszero\n        /* \"#utility.yul\":1012:1027   */\n      dup3\n      dup3\n      div\n        /* \"#utility.yul\":1006:1028   */\n      dup5\n      eq\n        /* \"#utility.yul\":992:1029   */\n      or\n        /* \"#utility.yul\":982:1053   */\n      tag_80\n      jumpi\n        /* \"#utility.yul\":1033:1051   */\n      tag_80\n      tag_72\n      jump\t// in\n\n    auxdata: 0xa264697066735822122091f6cc9b25f7f0272c4459f5006300f06b464408d9cb1ca597b2aeff4108298c64736f6c63430008170033\n}\n",
				"bytecode": {
					"linkReferences": {},
					"object": "610160604052348015610010575f80fd5b506040516106cd3803806106cd83398101604081905261002f916100d0565b3360c05260e0849052610140839052426101008190526100539062093a809061012c565b6101205261006462093a8084610145565b8410156100b75760405162461bcd60e51b815260206004820152601960248201527f7374617274696e67207072696365203c20646973636f756e7400000000000000604482015260640160405180910390fd5b6001600160a01b0390911660805260a0525061015c9050565b5f805f80608085870312156100e3575f80fd5b84516020860151604087015191955093506001600160a01b0381168114610108575f80fd5b6060959095015193969295505050565b634e487b7160e01b5f52601160045260245ffd5b8082018082111561013f5761013f610118565b92915050565b808202811582820484141761013f5761013f610118565b60805160a05160c05160e0516101005161012051610140516104f16101dc5f395f8181610214015261026b01525f818161011c01526102c401525f81816101ae015261023d01525f81816101e1015261029701525f81816099015261038701525f818161017b01526103b501525f818160e901526103db01526104f15ff3fe608060405260043610610084575f3560e01c8063a6f2ae3a11610057578063a6f2ae3a14610160578063c6bc51821461016a578063c74465651461019d578063d6fbf202146101d0578063e6c0e6d514610203575f80fd5b806308551a531461008857806347ccca02146100d85780638622a6891461010b57806398d5fdca1461014c575b5f80fd5b348015610093575f80fd5b506100bb7f000000000000000000000000000000000000000000000000000000000000000081565b6040516001600160a01b0390911681526020015b60405180910390f35b3480156100e3575f80fd5b506100bb7f000000000000000000000000000000000000000000000000000000000000000081565b348015610116575f80fd5b5061013e7f000000000000000000000000000000000000000000000000000000000000000081565b6040519081526020016100cf565b348015610157575f80fd5b5061013e610236565b6101686102c2565b005b348015610175575f80fd5b5061013e7f000000000000000000000000000000000000000000000000000000000000000081565b3480156101a8575f80fd5b5061013e7f000000000000000000000000000000000000000000000000000000000000000081565b3480156101db575f80fd5b5061013e7f000000000000000000000000000000000000000000000000000000000000000081565b34801561020e575f80fd5b5061013e7f000000000000000000000000000000000000000000000000000000000000000081565b5f806102627f00000000000000000000000000000000000000000000000000000000000000004261048b565b90505f61028f827f00000000000000000000000000000000000000000000000000000000000000006104a4565b90506102bb817f000000000000000000000000000000000000000000000000000000000000000061048b565b9250505090565b7f000000000000000000000000000000000000000000000000000000000000000042106103275760405162461bcd60e51b815260206004820152600e60248201526d185d5d1a5bdb88195e1c1a5c995960921b60448201526064015b60405180910390fd5b5f610330610236565b9050803410156103705760405162461bcd60e51b815260206004820152600b60248201526a455448203c20707269636560a81b604482015260640161031e565b6040516323b872dd60e01b81526001600160a01b037f0000000000000000000000000000000000000000000000000000000000000000811660048301523360248301527f000000000000000000000000000000000000000000000000000000000000000060448301527f000000000000000000000000000000000000000000000000000000000000000016906323b872dd906064015f604051808303815f87803b15801561041c575f80fd5b505af115801561042e573d5f803e3d5ffd5b505050505f813461043f919061048b565b9050801561047357604051339082156108fc029083905f818181858888f19350505050158015610471573d5f803e3d5ffd5b505b5050565b634e487b7160e01b5f52601160045260245ffd5b8181038181111561049e5761049e610477565b92915050565b808202811582820484141761049e5761049e61047756fea264697066735822122091f6cc9b25f7f0272c4459f5006300f06b464408d9cb1ca597b2aeff4108298c64736f6c63430008170033",
					"opcodes": "PUSH2 0x160 PUSH1 0x40 MSTORE CALLVALUE DUP1 ISZERO PUSH2 0x10 JUMPI PUSH0 DUP1 REVERT JUMPDEST POP PUSH1 0x40 MLOAD PUSH2 0x6CD CODESIZE SUB DUP1 PUSH2 0x6CD DUP4 CODECOPY DUP2 ADD PUSH1 0x40 DUP2 SWAP1 MSTORE PUSH2 0x2F SWAP2 PUSH2 0xD0 JUMP JUMPDEST CALLER PUSH1 0xC0 MSTORE PUSH1 0xE0 DUP5 SWAP1 MSTORE PUSH2 0x140 DUP4 SWAP1 MSTORE TIMESTAMP PUSH2 0x100 DUP2 SWAP1 MSTORE PUSH2 0x53 SWAP1 PUSH3 0x93A80 SWAP1 PUSH2 0x12C JUMP JUMPDEST PUSH2 0x120 MSTORE PUSH2 0x64 PUSH3 0x93A80 DUP5 PUSH2 0x145 JUMP JUMPDEST DUP5 LT ISZERO PUSH2 0xB7 JUMPI PUSH1 0x40 MLOAD PUSH3 0x461BCD PUSH1 0xE5 SHL DUP2 MSTORE PUSH1 0x20 PUSH1 0x4 DUP3 ADD MSTORE PUSH1 0x19 PUSH1 0x24 DUP3 ADD MSTORE PUSH32 0x7374617274696E67207072696365203C20646973636F756E7400000000000000 PUSH1 0x44 DUP3 ADD MSTORE PUSH1 0x64 ADD PUSH1 0x40 MLOAD DUP1 SWAP2 SUB SWAP1 REVERT JUMPDEST PUSH1 0x1 PUSH1 0x1 PUSH1 0xA0 SHL SUB SWAP1 SWAP2 AND PUSH1 0x80 MSTORE PUSH1 0xA0 MSTORE POP PUSH2 0x15C SWAP1 POP JUMP JUMPDEST PUSH0 DUP1 PUSH0 DUP1 PUSH1 0x80 DUP6 DUP8 SUB SLT ISZERO PUSH2 0xE3 JUMPI PUSH0 DUP1 REVERT JUMPDEST DUP5 MLOAD PUSH1 0x20 DUP7 ADD MLOAD PUSH1 0x40 DUP8 ADD MLOAD SWAP2 SWAP6 POP SWAP4 POP PUSH1 0x1 PUSH1 0x1 PUSH1 0xA0 SHL SUB DUP2 AND DUP2 EQ PUSH2 0x108 JUMPI PUSH0 DUP1 REVERT JUMPDEST PUSH1 0x60 SWAP6 SWAP1 SWAP6 ADD MLOAD SWAP4 SWAP7 SWAP3 SWAP6 POP POP POP JUMP JUMPDEST PUSH4 0x4E487B71 PUSH1 0xE0 SHL PUSH0 MSTORE PUSH1 0x11 PUSH1 0x4 MSTORE PUSH1 0x24 PUSH0 REVERT JUMPDEST DUP1 DUP3 ADD DUP1 DUP3 GT ISZERO PUSH2 0x13F JUMPI PUSH2 0x13F PUSH2 0x118 JUMP JUMPDEST SWAP3 SWAP2 POP POP JUMP JUMPDEST DUP1 DUP3 MUL DUP2 ISZERO DUP3 DUP3 DIV DUP5 EQ OR PUSH2 0x13F JUMPI PUSH2 0x13F PUSH2 0x118 JUMP JUMPDEST PUSH1 0x80 MLOAD PUSH1 0xA0 MLOAD PUSH1 0xC0 MLOAD PUSH1 0xE0 MLOAD PUSH2 0x100 MLOAD PUSH2 0x120 MLOAD PUSH2 0x140 MLOAD PUSH2 0x4F1 PUSH2 0x1DC PUSH0 CODECOPY PUSH0 DUP2 DUP2 PUSH2 0x214 ADD MSTORE PUSH2 0x26B ADD MSTORE PUSH0 DUP2 DUP2 PUSH2 0x11C ADD MSTORE PUSH2 0x2C4 ADD MSTORE PUSH0 DUP2 DUP2 PUSH2 0x1AE ADD MSTORE PUSH2 0x23D ADD MSTORE PUSH0 DUP2 DUP2 PUSH2 0x1E1 ADD MSTORE PUSH2 0x297 ADD MSTORE PUSH0 DUP2 DUP2 PUSH1 0x99 ADD MSTORE PUSH2 0x387 ADD MSTORE PUSH0 DUP2 DUP2 PUSH2 0x17B ADD MSTORE PUSH2 0x3B5 ADD MSTORE PUSH0 DUP2 DUP2 PUSH1 0xE9 ADD MSTORE PUSH2 0x3DB ADD MSTORE PUSH2 0x4F1 PUSH0 RETURN INVALID PUSH1 0x80 PUSH1 0x40 MSTORE PUSH1 0x4 CALLDATASIZE LT PUSH2 0x84 JUMPI PUSH0 CALLDATALOAD PUSH1 0xE0 SHR DUP1 PUSH4 0xA6F2AE3A GT PUSH2 0x57 JUMPI DUP1 PUSH4 0xA6F2AE3A EQ PUSH2 0x160 JUMPI DUP1 PUSH4 0xC6BC5182 EQ PUSH2 0x16A JUMPI DUP1 PUSH4 0xC7446565 EQ PUSH2 0x19D JUMPI DUP1 PUSH4 0xD6FBF202 EQ PUSH2 0x1D0 JUMPI DUP1 PUSH4 0xE6C0E6D5 EQ PUSH2 0x203 JUMPI PUSH0 DUP1 REVERT JUMPDEST DUP1 PUSH4 0x8551A53 EQ PUSH2 0x88 JUMPI DUP1 PUSH4 0x47CCCA02 EQ PUSH2 0xD8 JUMPI DUP1 PUSH4 0x8622A689 EQ PUSH2 0x10B JUMPI DUP1 PUSH4 0x98D5FDCA EQ PUSH2 0x14C JUMPI JUMPDEST PUSH0 DUP1 REVERT JUMPDEST CALLVALUE DUP1 ISZERO PUSH2 0x93 JUMPI PUSH0 DUP1 REVERT JUMPDEST POP PUSH2 0xBB PUSH32 0x0 DUP2 JUMP JUMPDEST PUSH1 0x40 MLOAD PUSH1 0x1 PUSH1 0x1 PUSH1 0xA0 SHL SUB SWAP1 SWAP2 AND DUP2 MSTORE PUSH1 0x20 ADD JUMPDEST PUSH1 0x40 MLOAD DUP1 SWAP2 SUB SWAP1 RETURN JUMPDEST CALLVALUE DUP1 ISZERO PUSH2 0xE3 JUMPI PUSH0 DUP1 REVERT JUMPDEST POP PUSH2 0xBB PUSH32 0x0 DUP2 JUMP JUMPDEST CALLVALUE DUP1 ISZERO PUSH2 0x116 JUMPI PUSH0 DUP1 REVERT JUMPDEST POP PUSH2 0x13E PUSH32 0x0 DUP2 JUMP JUMPDEST PUSH1 0x40 MLOAD SWAP1 DUP2 MSTORE PUSH1 0x20 ADD PUSH2 0xCF JUMP JUMPDEST CALLVALUE DUP1 ISZERO PUSH2 0x157 JUMPI PUSH0 DUP1 REVERT JUMPDEST POP PUSH2 0x13E PUSH2 0x236 JUMP JUMPDEST PUSH2 0x168 PUSH2 0x2C2 JUMP JUMPDEST STOP JUMPDEST CALLVALUE DUP1 ISZERO PUSH2 0x175 JUMPI PUSH0 DUP1 REVERT JUMPDEST POP PUSH2 0x13E PUSH32 0x0 DUP2 JUMP JUMPDEST CALLVALUE DUP1 ISZERO PUSH2 0x1A8 JUMPI PUSH0 DUP1 REVERT JUMPDEST POP PUSH2 0x13E PUSH32 0x0 DUP2 JUMP JUMPDEST CALLVALUE DUP1 ISZERO PUSH2 0x1DB JUMPI PUSH0 DUP1 REVERT JUMPDEST POP PUSH2 0x13E PUSH32 0x0 DUP2 JUMP JUMPDEST CALLVALUE DUP1 ISZERO PUSH2 0x20E JUMPI PUSH0 DUP1 REVERT JUMPDEST POP PUSH2 0x13E PUSH32 0x0 DUP2 JUMP JUMPDEST PUSH0 DUP1 PUSH2 0x262 PUSH32 0x0 TIMESTAMP PUSH2 0x48B JUMP JUMPDEST SWAP1 POP PUSH0 PUSH2 0x28F DUP3 PUSH32 0x0 PUSH2 0x4A4 JUMP JUMPDEST SWAP1 POP PUSH2 0x2BB DUP2 PUSH32 0x0 PUSH2 0x48B JUMP JUMPDEST SWAP3 POP POP POP SWAP1 JUMP JUMPDEST PUSH32 0x0 TIMESTAMP LT PUSH2 0x327 JUMPI PUSH1 0x40 MLOAD PUSH3 0x461BCD PUSH1 0xE5 SHL DUP2 MSTORE PUSH1 0x20 PUSH1 0x4 DUP3 ADD MSTORE PUSH1 0xE PUSH1 0x24 DUP3 ADD MSTORE PUSH14 0x185D5D1A5BDB88195E1C1A5C9959 PUSH1 0x92 SHL PUSH1 0x44 DUP3 ADD MSTORE PUSH1 0x64 ADD JUMPDEST PUSH1 0x40 MLOAD DUP1 SWAP2 SUB SWAP1 REVERT JUMPDEST PUSH0 PUSH2 0x330 PUSH2 0x236 JUMP JUMPDEST SWAP1 POP DUP1 CALLVALUE LT ISZERO PUSH2 0x370 JUMPI PUSH1 0x40 MLOAD PUSH3 0x461BCD PUSH1 0xE5 SHL DUP2 MSTORE PUSH1 0x20 PUSH1 0x4 DUP3 ADD MSTORE PUSH1 0xB PUSH1 0x24 DUP3 ADD MSTORE PUSH11 0x455448203C207072696365 PUSH1 0xA8 SHL PUSH1 0x44 DUP3 ADD MSTORE PUSH1 0x64 ADD PUSH2 0x31E JUMP JUMPDEST PUSH1 0x40 MLOAD PUSH4 0x23B872DD PUSH1 0xE0 SHL DUP2 MSTORE PUSH1 0x1 PUSH1 0x1 PUSH1 0xA0 SHL SUB PUSH32 0x0 DUP2 AND PUSH1 0x4 DUP4 ADD MSTORE CALLER PUSH1 0x24 DUP4 ADD MSTORE PUSH32 0x0 PUSH1 0x44 DUP4 ADD MSTORE PUSH32 0x0 AND SWAP1 PUSH4 0x23B872DD SWAP1 PUSH1 0x64 ADD PUSH0 PUSH1 0x40 MLOAD DUP1 DUP4 SUB DUP2 PUSH0 DUP8 DUP1 EXTCODESIZE ISZERO DUP1 ISZERO PUSH2 0x41C JUMPI PUSH0 DUP1 REVERT JUMPDEST POP GAS CALL ISZERO DUP1 ISZERO PUSH2 0x42E JUMPI RETURNDATASIZE PUSH0 DUP1 RETURNDATACOPY RETURNDATASIZE PUSH0 REVERT JUMPDEST POP POP POP POP PUSH0 DUP2 CALLVALUE PUSH2 0x43F SWAP2 SWAP1 PUSH2 0x48B JUMP JUMPDEST SWAP1 POP DUP1 ISZERO PUSH2 0x473 JUMPI PUSH1 0x40 MLOAD CALLER SWAP1 DUP3 ISZERO PUSH2 0x8FC MUL SWAP1 DUP4 SWAP1 PUSH0 DUP2 DUP2 DUP2 DUP6 DUP9 DUP9 CALL SWAP4 POP POP POP POP ISZERO DUP1 ISZERO PUSH2 0x471 JUMPI RETURNDATASIZE PUSH0 DUP1 RETURNDATACOPY RETURNDATASIZE PUSH0 REVERT JUMPDEST POP JUMPDEST POP POP JUMP JUMPDEST PUSH4 0x4E487B71 PUSH1 0xE0 SHL PUSH0 MSTORE PUSH1 0x11 PUSH1 0x4 MSTORE PUSH1 0x24 PUSH0 REVERT JUMPDEST DUP2 DUP2 SUB DUP2 DUP2 GT ISZERO PUSH2 0x49E JUMPI PUSH2 0x49E PUSH2 0x477 JUMP JUMPDEST SWAP3 SWAP2 POP POP JUMP JUMPDEST DUP1 DUP3 MUL DUP2 ISZERO DUP3 DUP3 DIV DUP5 EQ OR PUSH2 0x49E JUMPI PUSH2 0x49E PUSH2 0x477 JUMP INVALID LOG2 PUSH5 0x6970667358 0x22 SLT KECCAK256 SWAP2 0xF6 0xCC SWAP12 0x25 0xF7 CREATE 0x27 0x2C PREVRANDAO MSIZE CREATE2 STOP PUSH4 0xF06B46 PREVRANDAO ADDMOD 0xD9 0xCB SHR 0xA5 SWAP8 0xB2 0xAE SELFDESTRUCT COINBASE ADDMOD 0x29 DUP13 PUSH5 0x736F6C6343 STOP ADDMOD OR STOP CALLER "
				},
				"gasEstimates": {
					"creation": {
						"codeDepositCost": "253000",
						"executionCost": "infinite",
						"totalCost": "infinite"
					},
					"external": {
						"buy()": "infinite",
						"discountRate()": "infinite",
						"expiresAt()": "infinite",
						"getPrice()": "infinite",
						"nft()": "infinite",
						"nftId()": "infinite",
						"seller()": "infinite",
						"startAt()": "infinite",
						"startingPrice()": "infinite"
					}
				},
				"methodIdentifiers": {
					"buy()": "a6f2ae3a",
					"discountRate()": "e6c0e6d5",
					"expiresAt()": "8622a689",
					"getPrice()": "98d5fdca",
					"nft()": "47ccca02",
					"nftId()": "c6bc5182",
					"seller()": "08551a53",
					"startAt()": "c7446565",
					"startingPrice()": "d6fbf202"
				}
			},
			"storageLayout": {
				"storage": [],
				"types": null
			},
			"userdoc": {
				"kind": "user",
				"methods": {},
				"version": 1
			}
		}
	}
}