{
	"New.sol": {
		"AccountFactory": {
			"abi": [
				{
					"inputs": [
						{
							"internalType": "uint256",
							"name": "",
							"type": "uint256"
						}
					],
					"name": "accounts",
					"outputs": [
						{
							"internalType": "contract Account",
							"name": "",
							"type": "address"
						}
					],
					"stateMutability": "view",
					"type": "function"
				},
				{
					"inputs": [
						{
							"internalType": "address",
							"name": "_owner",
							"type": "address"
						}
					],
					"name": "createAccount",
					"outputs": [],
					"stateMutability": "payable",
					"type": "function"
				}
			],
			"devdoc": {
				"kind": "dev",
				"methods": {},
				"version": 1
			},
			"evm": {
				"assembly": "    /* \"New.sol\":238:610  contract AccountFactory{... */\n  mstore(0x40, 0x80)\n  callvalue\n  dup1\n  iszero\n  tag_1\n  jumpi\n  revert(0x00, 0x00)\ntag_1:\n  pop\n  dataSize(sub_0)\n  dup1\n  dataOffset(sub_0)\n  0x00\n  codecopy\n  0x00\n  return\nstop\n\nsub_0: assembly {\n        /* \"New.sol\":238:610  contract AccountFactory{... */\n      mstore(0x40, 0x80)\n      jumpi(tag_1, lt(calldatasize, 0x04))\n      shr(0xe0, calldataload(0x00))\n      dup1\n      0x9859387b\n      eq\n      tag_2\n      jumpi\n      dup1\n      0xf2a40db8\n      eq\n      tag_3\n      jumpi\n    tag_1:\n      revert(0x00, 0x00)\n        /* \"New.sol\":304:607  function createAccount(address _owner) external payable {... */\n    tag_2:\n      tag_4\n      tag_5\n      calldatasize\n      0x04\n      tag_6\n      jump\t// in\n    tag_5:\n      tag_7\n      jump\t// in\n    tag_4:\n      stop\n        /* \"New.sol\":270:295  Account[] public accounts */\n    tag_3:\n      callvalue\n      dup1\n      iszero\n      tag_8\n      jumpi\n      revert(0x00, 0x00)\n    tag_8:\n      pop\n      tag_9\n      tag_10\n      calldatasize\n      0x04\n      tag_11\n      jump\t// in\n    tag_10:\n      tag_12\n      jump\t// in\n    tag_9:\n      mload(0x40)\n      sub(shl(0xa0, 0x01), 0x01)\n        /* \"#utility.yul\":668:700   */\n      swap1\n      swap2\n      and\n        /* \"#utility.yul\":650:701   */\n      dup2\n      mstore\n        /* \"#utility.yul\":638:640   */\n      0x20\n        /* \"#utility.yul\":623:641   */\n      add\n        /* \"New.sol\":270:295  Account[] public accounts */\n      mload(0x40)\n      dup1\n      swap2\n      sub\n      swap1\n      return\n        /* \"New.sol\":304:607  function createAccount(address _owner) external payable {... */\n    tag_7:\n        /* \"New.sol\":519:534  Account account */\n      0x00\n        /* \"New.sol\":554:557  111 */\n      0x6f\n        /* \"New.sol\":559:565  _owner */\n      dup3\n        /* \"New.sol\":536:566  new Account{value:111}(_owner) */\n      mload(0x40)\n      tag_16\n      swap1\n      tag_17\n      jump\t// in\n    tag_16:\n      sub(shl(0xa0, 0x01), 0x01)\n        /* \"#utility.yul\":668:700   */\n      swap1\n      swap2\n      and\n        /* \"#utility.yul\":650:701   */\n      dup2\n      mstore\n        /* \"#utility.yul\":638:640   */\n      0x20\n        /* \"#utility.yul\":623:641   */\n      add\n        /* \"New.sol\":536:566  new Account{value:111}(_owner) */\n      mload(0x40)\n      dup1\n      swap2\n      sub\n      swap1\n      dup3\n      create\n      swap1\n      pop\n      dup1\n      iszero\n      dup1\n      iszero\n      tag_20\n      jumpi\n      returndatacopy(0x00, 0x00, returndatasize)\n      revert(0x00, returndatasize)\n    tag_20:\n      pop\n        /* \"New.sol\":577:585  accounts */\n      0x00\n        /* \"New.sol\":577:599  accounts.push(account) */\n      dup1\n      sload\n      0x01\n      dup2\n      add\n      dup3\n      sstore\n      swap1\n      dup1\n      mstore\n      0x290decd9548b62a8d60345a988386fc84ba6bc95484008f6362f93160ef3e563\n      add\n      dup1\n      sload\n      not(sub(shl(0xa0, 0x01), 0x01))\n      and\n      sub(shl(0xa0, 0x01), 0x01)\n      swap3\n      swap1\n      swap3\n      and\n      swap2\n      swap1\n      swap2\n      or\n      swap1\n      sstore\n      pop\n      pop\n        /* \"New.sol\":304:607  function createAccount(address _owner) external payable {... */\n      jump\t// out\n        /* \"New.sol\":270:295  Account[] public accounts */\n    tag_12:\n      0x00\n      dup2\n      dup2\n      sload\n      dup2\n      lt\n      tag_22\n      jumpi\n      0x00\n      dup1\n      revert\n    tag_22:\n      0x00\n      swap2\n      dup3\n      mstore\n      0x20\n      swap1\n      swap2\n      keccak256\n      add\n      sload\n      sub(shl(0xa0, 0x01), 0x01)\n      and\n      swap1\n      pop\n      dup2\n      jump\t// out\n    tag_17:\n      dataSize(sub_0)\n      dup1\n      dataOffset(sub_0)\n      dup4\n      codecopy\n      add\n      swap1\n      jump\t// out\n        /* \"#utility.yul\":14:300   */\n    tag_6:\n        /* \"#utility.yul\":73:79   */\n      0x00\n        /* \"#utility.yul\":126:128   */\n      0x20\n        /* \"#utility.yul\":114:123   */\n      dup3\n        /* \"#utility.yul\":105:112   */\n      dup5\n        /* \"#utility.yul\":101:124   */\n      sub\n        /* \"#utility.yul\":97:129   */\n      slt\n        /* \"#utility.yul\":94:146   */\n      iszero\n      tag_26\n      jumpi\n        /* \"#utility.yul\":142:143   */\n      0x00\n        /* \"#utility.yul\":139:140   */\n      0x00\n        /* \"#utility.yul\":132:144   */\n      revert\n        /* \"#utility.yul\":94:146   */\n    tag_26:\n        /* \"#utility.yul\":168:191   */\n      dup2\n      calldataload\n      sub(shl(0xa0, 0x01), 0x01)\n        /* \"#utility.yul\":220:251   */\n      dup2\n      and\n        /* \"#utility.yul\":210:252   */\n      dup2\n      eq\n        /* \"#utility.yul\":200:270   */\n      tag_27\n      jumpi\n        /* \"#utility.yul\":266:267   */\n      0x00\n        /* \"#utility.yul\":263:264   */\n      0x00\n        /* \"#utility.yul\":256:268   */\n      revert\n        /* \"#utility.yul\":200:270   */\n    tag_27:\n        /* \"#utility.yul\":289:294   */\n      swap4\n        /* \"#utility.yul\":14:300   */\n      swap3\n      pop\n      pop\n      pop\n      jump\t// out\n        /* \"#utility.yul\":305:485   */\n    tag_11:\n        /* \"#utility.yul\":364:370   */\n      0x00\n        /* \"#utility.yul\":417:419   */\n      0x20\n        /* \"#utility.yul\":405:414   */\n      dup3\n        /* \"#utility.yul\":396:403   */\n      dup5\n        /* \"#utility.yul\":392:415   */\n      sub\n        /* \"#utility.yul\":388:420   */\n      slt\n        /* \"#utility.yul\":385:437   */\n      iszero\n      tag_29\n      jumpi\n        /* \"#utility.yul\":433:434   */\n      0x00\n        /* \"#utility.yul\":430:431   */\n      0x00\n        /* \"#utility.yul\":423:435   */\n      revert\n        /* \"#utility.yul\":385:437   */\n    tag_29:\n      pop\n        /* \"#utility.yul\":456:479   */\n      calldataload\n      swap2\n        /* \"#utility.yul\":305:485   */\n      swap1\n      pop\n      jump\t// out\n    stop\n\n    sub_0: assembly {\n            /* \"New.sol\":60:234  contract Account{... */\n          mstore(0x40, 0x80)\n            /* \"New.sol\":138:231  constructor(address _owner) payable {... */\n          mload(0x40)\n          sub(codesize, bytecodeSize)\n          dup1\n          bytecodeSize\n          dup4\n          codecopy\n          dup2\n          add\n          0x40\n          dup2\n          swap1\n          mstore\n          tag_1\n          swap2\n          tag_2\n          jump\t// in\n        tag_1:\n            /* \"New.sol\":185:189  bank */\n          0x00\n            /* \"New.sol\":185:200  bank=msg.sender */\n          dup1\n          sload\n            /* \"New.sol\":190:200  msg.sender */\n          caller\n          not(sub(shl(0xa0, 0x01), 0x01))\n            /* \"New.sol\":185:200  bank=msg.sender */\n          swap2\n          dup3\n          and\n          or\n          swap1\n          swap2\n          sstore\n          0x01\n            /* \"New.sol\":211:223  owner=_owner */\n          dup1\n          sload\n          swap1\n          swap2\n          and\n          sub(shl(0xa0, 0x01), 0x01)\n          swap3\n          swap1\n          swap3\n          and\n          swap2\n          swap1\n          swap2\n          or\n          swap1\n          sstore\n            /* \"New.sol\":60:234  contract Account{... */\n          jump(tag_6)\n            /* \"#utility.yul\":14:304   */\n        tag_2:\n            /* \"#utility.yul\":84:90   */\n          0x00\n            /* \"#utility.yul\":137:139   */\n          0x20\n            /* \"#utility.yul\":125:134   */\n          dup3\n            /* \"#utility.yul\":116:123   */\n          dup5\n            /* \"#utility.yul\":112:135   */\n          sub\n            /* \"#utility.yul\":108:140   */\n          slt\n            /* \"#utility.yul\":105:157   */\n          iszero\n          tag_8\n          jumpi\n            /* \"#utility.yul\":153:154   */\n          0x00\n            /* \"#utility.yul\":150:151   */\n          0x00\n            /* \"#utility.yul\":143:155   */\n          revert\n            /* \"#utility.yul\":105:157   */\n        tag_8:\n            /* \"#utility.yul\":179:195   */\n          dup2\n          mload\n          sub(shl(0xa0, 0x01), 0x01)\n            /* \"#utility.yul\":224:255   */\n          dup2\n          and\n            /* \"#utility.yul\":214:256   */\n          dup2\n          eq\n            /* \"#utility.yul\":204:274   */\n          tag_9\n          jumpi\n            /* \"#utility.yul\":270:271   */\n          0x00\n            /* \"#utility.yul\":267:268   */\n          0x00\n            /* \"#utility.yul\":260:272   */\n          revert\n            /* \"#utility.yul\":204:274   */\n        tag_9:\n            /* \"#utility.yul\":293:298   */\n          swap4\n            /* \"#utility.yul\":14:304   */\n          swap3\n          pop\n          pop\n          pop\n          jump\t// out\n        tag_6:\n            /* \"New.sol\":60:234  contract Account{... */\n          dataSize(sub_0)\n          dup1\n          dataOffset(sub_0)\n          0x00\n          codecopy\n          0x00\n          return\n        stop\n\n        sub_0: assembly {\n                /* \"New.sol\":60:234  contract Account{... */\n              mstore(0x40, 0x80)\n              callvalue\n              dup1\n              iszero\n              tag_1\n              jumpi\n              revert(0x00, 0x00)\n            tag_1:\n              pop\n              jumpi(tag_2, lt(calldatasize, 0x04))\n              shr(0xe0, calldataload(0x00))\n              dup1\n              0x76cdb03b\n              eq\n              tag_3\n              jumpi\n              dup1\n              0x8da5cb5b\n              eq\n              tag_4\n              jumpi\n            tag_2:\n              revert(0x00, 0x00)\n                /* \"New.sol\":83:102  address public bank */\n            tag_3:\n              sload(0x00)\n              tag_5\n              swap1\n              sub(shl(0xa0, 0x01), 0x01)\n              and\n              dup2\n              jump\n            tag_5:\n              mload(0x40)\n              sub(shl(0xa0, 0x01), 0x01)\n                /* \"#utility.yul\":178:210   */\n              swap1\n              swap2\n              and\n                /* \"#utility.yul\":160:211   */\n              dup2\n              mstore\n                /* \"#utility.yul\":148:150   */\n              0x20\n                /* \"#utility.yul\":133:151   */\n              add\n                /* \"New.sol\":83:102  address public bank */\n              mload(0x40)\n              dup1\n              swap2\n              sub\n              swap1\n              return\n                /* \"New.sol\":109:129  address public owner */\n            tag_4:\n              sload(0x01)\n              tag_5\n              swap1\n              sub(shl(0xa0, 0x01), 0x01)\n              and\n              dup2\n              jump\n\n            auxdata: 0xa264697066735822122089fafc56e212fd62cc0f28f789a4567709546dc301395896a50667e7d7824ca764736f6c634300081d0033\n        }\n    }\n\n    auxdata: 0xa26469706673582212201350f5a8168b0d8e98ec14714fd8cdbf59773d1d19b89befe2c0d6dc84bda02264736f6c634300081d0033\n}\n",
				"bytecode": {
					"linkReferences": {},
					"object": "6080604052348015600e575f5ffd5b506102e78061001c5f395ff3fe608060405260043610610028575f3560e01c80639859387b1461002c578063f2a40db814610041575b5f5ffd5b61003f61003a36600461013c565b61007c565b005b34801561004c575f5ffd5b5061006061005b366004610169565b610108565b6040516001600160a01b03909116815260200160405180910390f35b5f606f8260405161008c9061012f565b6001600160a01b0390911681526020016040518091039082f09050801580156100b7573d5f5f3e3d5ffd5b505f80546001810182559080527f290decd9548b62a8d60345a988386fc84ba6bc95484008f6362f93160ef3e5630180546001600160a01b0319166001600160a01b03929092169190911790555050565b5f8181548110610116575f80fd5b5f918252602090912001546001600160a01b0316905081565b6101318061018183390190565b5f6020828403121561014c575f5ffd5b81356001600160a01b0381168114610162575f5ffd5b9392505050565b5f60208284031215610179575f5ffd5b503591905056fe60806040526040516101313803806101318339810160408190526020916051565b5f8054336001600160a01b031991821617909155600180549091166001600160a01b0392909216919091179055607c565b5f602082840312156060575f5ffd5b81516001600160a01b03811681146075575f5ffd5b9392505050565b60a9806100885f395ff3fe6080604052348015600e575f5ffd5b50600436106030575f3560e01c806376cdb03b1460345780638da5cb5b146061575b5f5ffd5b5f546045906001600160a01b031681565b6040516001600160a01b03909116815260200160405180910390f35b6001546045906001600160a01b03168156fea264697066735822122089fafc56e212fd62cc0f28f789a4567709546dc301395896a50667e7d7824ca764736f6c634300081d0033a26469706673582212201350f5a8168b0d8e98ec14714fd8cdbf59773d1d19b89befe2c0d6dc84bda02264736f6c634300081d0033",
					"opcodes": "PUSH1 0x80 PUSH1 0x40 MSTORE CALLVALUE DUP1 ISZERO PUSH1 0xE JUMPI PUSH0 PUSH0 REVERT JUMPDEST POP PUSH2 0x2E7 DUP1 PUSH2 0x1C PUSH0 CODECOPY PUSH0 RETURN INVALID PUSH1 0x80 PUSH1 0x40 MSTORE PUSH1 0x4 CALLDATASIZE LT PUSH2 0x28 JUMPI PUSH0 CALLDATALOAD PUSH1 0xE0 SHR DUP1 PUSH4 0x9859387B EQ PUSH2 0x2C JUMPI DUP1 PUSH4 0xF2A40DB8 EQ PUSH2 0x41 JUMPI JUMPDEST PUSH0 PUSH0 REVERT JUMPDEST PUSH2 0x3F PUSH2 0x3A CALLDATASIZE PUSH1 0x4 PUSH2 0x13C JUMP JUMPDEST PUSH2 0x7C JUMP JUMPDEST STOP JUMPDEST CALLVALUE DUP1 ISZERO PUSH2 0x4C JUMPI PUSH0 PUSH0 REVERT JUMPDEST POP PUSH2 0x60 PUSH2 0x5B CALLDATASIZE PUSH1 0x4 PUSH2 0x169 JUMP JUMPDEST PUSH2 0x108 JUMP JUMPDEST PUSH1 0x40 MLOAD PUSH1 0x1 PUSH1 0x1 PUSH1 0xA0 SHL SUB SWAP1 SWAP2 AND DUP2 MSTORE PUSH1 0x20 ADD PUSH1 0x40 MLOAD DUP1 SWAP2 SUB SWAP1 RETURN JUMPDEST PUSH0 PUSH1 0x6F DUP3 PUSH1 0x40 MLOAD PUSH2 0x8C SWAP1 PUSH2 0x12F JUMP JUMPDEST PUSH1 0x1 PUSH1 0x1 PUSH1 0xA0 SHL SUB SWAP1 SWAP2 AND DUP2 MSTORE PUSH1 0x20 ADD PUSH1 0x40 MLOAD DUP1 SWAP2 SUB SWAP1 DUP3 CREATE SWAP1 POP DUP1 ISZERO DUP1 ISZERO PUSH2 0xB7 JUMPI RETURNDATASIZE PUSH0 PUSH0 RETURNDATACOPY RETURNDATASIZE PUSH0 REVERT JUMPDEST POP PUSH0 DUP1 SLOAD PUSH1 0x1 DUP2 ADD DUP3 SSTORE SWAP1 DUP1 MSTORE PUSH32 0x290DECD9548B62A8D60345A988386FC84BA6BC95484008F6362F93160EF3E563 ADD DUP1 SLOAD PUSH1 0x1 PUSH1 0x1 PUSH1 0xA0 SHL SUB NOT AND PUSH1 0x1 PUSH1 0x1 PUSH1 0xA0 SHL SUB SWAP3 SWAP1 SWAP3 AND SWAP2 SWAP1 SWAP2 OR SWAP1 SSTORE POP POP JUMP JUMPDEST PUSH0 DUP2 DUP2 SLOAD DUP2 LT PUSH2 0x116 JUMPI PUSH0 DUP1 REVERT JUMPDEST PUSH0 SWAP2 DUP3 MSTORE PUSH1 0x20 SWAP1 SWAP2 KECCAK256 ADD SLOAD PUSH1 0x1 PUSH1 0x1 PUSH1 0xA0 SHL SUB AND SWAP1 POP DUP2 JUMP JUMPDEST PUSH2 0x131 DUP1 PUSH2 0x181 DUP4 CODECOPY ADD SWAP1 JUMP JUMPDEST PUSH0 PUSH1 0x20 DUP3 DUP5 SUB SLT ISZERO PUSH2 0x14C JUMPI PUSH0 PUSH0 REVERT JUMPDEST DUP2 CALLDATALOAD PUSH1 0x1 PUSH1 0x1 PUSH1 0xA0 SHL SUB DUP2 AND DUP2 EQ PUSH2 0x162 JUMPI PUSH0 PUSH0 REVERT JUMPDEST SWAP4 SWAP3 POP POP POP JUMP JUMPDEST PUSH0 PUSH1 0x20 DUP3 DUP5 SUB SLT ISZERO PUSH2 0x179 JUMPI PUSH0 PUSH0 REVERT JUMPDEST POP CALLDATALOAD SWAP2 SWAP1 POP JUMP INVALID PUSH1 0x80 PUSH1 0x40 MSTORE PUSH1 0x40 MLOAD PUSH2 0x131 CODESIZE SUB DUP1 PUSH2 0x131 DUP4 CODECOPY DUP2 ADD PUSH1 0x40 DUP2 SWAP1 MSTORE PUSH1 0x20 SWAP2 PUSH1 0x51 JUMP JUMPDEST PUSH0 DUP1 SLOAD CALLER PUSH1 0x1 PUSH1 0x1 PUSH1 0xA0 SHL SUB NOT SWAP2 DUP3 AND OR SWAP1 SWAP2 SSTORE PUSH1 0x1 DUP1 SLOAD SWAP1 SWAP2 AND PUSH1 0x1 PUSH1 0x1 PUSH1 0xA0 SHL SUB SWAP3 SWAP1 SWAP3 AND SWAP2 SWAP1 SWAP2 OR SWAP1 SSTORE PUSH1 0x7C JUMP JUMPDEST PUSH0 PUSH1 0x20 DUP3 DUP5 SUB SLT ISZERO PUSH1 0x60 JUMPI PUSH0 PUSH0 REVERT JUMPDEST DUP2 MLOAD PUSH1 0x1 PUSH1 0x1 PUSH1 0xA0 SHL SUB DUP2 AND DUP2 EQ PUSH1 0x75 JUMPI PUSH0 PUSH0 REVERT JUMPDEST SWAP4 SWAP3 POP POP POP JUMP JUMPDEST PUSH1 0xA9 DUP1 PUSH2 0x88 PUSH0 CODECOPY PUSH0 RETURN INVALID PUSH1 0x80 PUSH1 0x40 MSTORE CALLVALUE DUP1 ISZERO PUSH1 0xE JUMPI PUSH0 PUSH0 REVERT JUMPDEST POP PUSH1 0x4 CALLDATASIZE LT PUSH1 0x30 JUMPI PUSH0 CALLDATALOAD PUSH1 0xE0 SHR DUP1 PUSH4 0x76CDB03B EQ PUSH1 0x34 JUMPI DUP1 PUSH4 0x8DA5CB5B EQ PUSH1 0x61 JUMPI JUMPDEST PUSH0 PUSH0 REVERT JUMPDEST PUSH0 SLOAD PUSH1 0x45 SWAP1 PUSH1 0x1 PUSH1 0x1 PUSH1 0xA0 SHL SUB AND DUP2 JUMP JUMPDEST PUSH1 0x40 MLOAD PUSH1 0x1 PUSH1 0x1 PUSH1 0xA0 SHL SUB SWAP1 SWAP2 AND DUP2 MSTORE PUSH1 0x20 ADD PUSH1 0x40 MLOAD DUP1 SWAP2 SUB SWAP1 RETURN JUMPDEST PUSH1 0x1 SLOAD PUSH1 0x45 SWAP1 PUSH1 0x1 PUSH1 0x1 PUSH1 0xA0 SHL SUB AND DUP2 JUMP INVALID LOG2 PUSH5 0x6970667358 0x22 SLT KECCAK256 DUP10 STATICCALL 0xFC JUMP 0xE2 SLT REVERT PUSH3 0xCC0F28 0xF7 DUP10 LOG4 JUMP PUSH24 0x9546DC301395896A50667E7D7824CA764736F6C63430008 SAR STOP CALLER LOG2 PUSH5 0x6970667358 0x22 SLT KECCAK256 SGT POP CREATE2 0xA8 AND DUP12 0xD DUP15 SWAP9 EOFCREATE 0x14 PUSH18 0x4FD8CDBF59773D1D19B89BEFE2C0D6DC84BD LOG0 0x22 PUSH5 0x736F6C6343 STOP ADDMOD SAR STOP CALLER "
				},
				"gasEstimates": {
					"creation": {
						"codeDepositCost": "148600",
						"executionCost": "194",
						"totalCost": "148794"
					},
					"external": {
						"accounts(uint256)": "4598",
						"createAccount(address)": "infinite"
					}
				},
				"methodIdentifiers": {
					"accounts(uint256)": "f2a40db8",
					"createAccount(address)": "9859387b"
				}
			},
			"storageLayout": {
				"storage": [
					{
						"astId": 25,
						"contract": "New.sol:AccountFactory",
						"label": "accounts",
						"offset": 0,
						"slot": "0",
						"type": "t_array(t_contract(Account)21)dyn_storage"
					}
				],
				"types": {
					"t_array(t_contract(Account)21)dyn_storage": {
						"base": "t_contract(Account)21",
						"encoding": "dynamic_array",
						"label": "contract Account[]",
						"numberOfBytes": "32"
					},
					"t_contract(Account)21": {
						"encoding": "inplace",
						"label": "contract Account",
						"numberOfBytes": "20"
					}
				}
			},
			"userdoc": {
				"kind": "user",
				"methods": {},
				"version": 1
			}
		}
	}
}