{
	"New.sol": {
		"Account": {
			"abi": [
				{
					"inputs": [
						{
							"internalType": "address",
							"name": "_owner",
							"type": "address"
						}
					],
					"stateMutability": "payable",
					"type": "constructor"
				},
				{
					"inputs": [],
					"name": "bank",
					"outputs": [
						{
							"internalType": "address",
							"name": "",
							"type": "address"
						}
					],
					"stateMutability": "view",
					"type": "function"
				},
				{
					"inputs": [],
					"name": "owner",
					"outputs": [
						{
							"internalType": "address",
							"name": "",
							"type": "address"
						}
					],
					"stateMutability": "view",
					"type": "function"
				}
			],
			"devdoc": {
				"kind": "dev",
				"methods": {},
				"version": 1
			},
			"evm": {
				"assembly": "    /* \"New.sol\":60:234  contract Account{... */\n  mstore(0x40, 0x80)\n    /* \"New.sol\":138:231  constructor(address _owner) payable {... */\n  mload(0x40)\n  sub(codesize, bytecodeSize)\n  dup1\n  bytecodeSize\n  dup4\n  codecopy\n  dup2\n  add\n  0x40\n  dup2\n  swap1\n  mstore\n  tag_1\n  swap2\n  tag_2\n  jump\t// in\ntag_1:\n    /* \"New.sol\":185:189  bank */\n  0x00\n    /* \"New.sol\":185:200  bank=msg.sender */\n  dup1\n  sload\n    /* \"New.sol\":190:200  msg.sender */\n  caller\n  not(sub(shl(0xa0, 0x01), 0x01))\n    /* \"New.sol\":185:200  bank=msg.sender */\n  swap2\n  dup3\n  and\n  or\n  swap1\n  swap2\n  sstore\n  0x01\n    /* \"New.sol\":211:223  owner=_owner */\n  dup1\n  sload\n  swap1\n  swap2\n  and\n  sub(shl(0xa0, 0x01), 0x01)\n  swap3\n  swap1\n  swap3\n  and\n  swap2\n  swap1\n  swap2\n  or\n  swap1\n  sstore\n    /* \"New.sol\":60:234  contract Account{... */\n  jump(tag_6)\n    /* \"#utility.yul\":14:304   */\ntag_2:\n    /* \"#utility.yul\":84:90   */\n  0x00\n    /* \"#utility.yul\":137:139   */\n  0x20\n    /* \"#utility.yul\":125:134   */\n  dup3\n    /* \"#utility.yul\":116:123   */\n  dup5\n    /* \"#utility.yul\":112:135   */\n  sub\n    /* \"#utility.yul\":108:140   */\n  slt\n    /* \"#utility.yul\":105:157   */\n  iszero\n  tag_8\n  jumpi\n    /* \"#utility.yul\":153:154   */\n  0x00\n    /* \"#utility.yul\":150:151   */\n  0x00\n    /* \"#utility.yul\":143:155   */\n  revert\n    /* \"#utility.yul\":105:157   */\ntag_8:\n    /* \"#utility.yul\":179:195   */\n  dup2\n  mload\n  sub(shl(0xa0, 0x01), 0x01)\n    /* \"#utility.yul\":224:255   */\n  dup2\n  and\n    /* \"#utility.yul\":214:256   */\n  dup2\n  eq\n    /* \"#utility.yul\":204:274   */\n  tag_9\n  jumpi\n    /* \"#utility.yul\":270:271   */\n  0x00\n    /* \"#utility.yul\":267:268   */\n  0x00\n    /* \"#utility.yul\":260:272   */\n  revert\n    /* \"#utility.yul\":204:274   */\ntag_9:\n    /* \"#utility.yul\":293:298   */\n  swap4\n    /* \"#utility.yul\":14:304   */\n  swap3\n  pop\n  pop\n  pop\n  jump\t// out\ntag_6:\n    /* \"New.sol\":60:234  contract Account{... */\n  dataSize(sub_0)\n  dup1\n  dataOffset(sub_0)\n  0x00\n  codecopy\n  0x00\n  return\nstop\n\nsub_0: assembly {\n        /* \"New.sol\":60:234  contract Account{... */\n      mstore(0x40, 0x80)\n      callvalue\n      dup1\n      iszero\n      tag_1\n      jumpi\n      revert(0x00, 0x00)\n    tag_1:\n      pop\n      jumpi(tag_2, lt(calldatasize, 0x04))\n      shr(0xe0, calldataload(0x00))\n      dup1\n      0x76cdb03b\n      eq\n      tag_3\n      jumpi\n      dup1\n      0x8da5cb5b\n      eq\n      tag_4\n      jumpi\n    tag_2:\n      revert(0x00, 0x00)\n        /* \"New.sol\":83:102  address public bank */\n    tag_3:\n      sload(0x00)\n      tag_5\n      swap1\n      sub(shl(0xa0, 0x01), 0x01)\n      and\n      dup2\n      jump\n    tag_5:\n      mload(0x40)\n      sub(shl(0xa0, 0x01), 0x01)\n        /* \"#utility.yul\":178:210   */\n      swap1\n      swap2\n      and\n        /* \"#utility.yul\":160:211   */\n      dup2\n      mstore\n        /* \"#utility.yul\":148:150   */\n      0x20\n        /* \"#utility.yul\":133:151   */\n      add\n        /* \"New.sol\":83:102  address public bank */\n      mload(0x40)\n      dup1\n      swap2\n      sub\n      swap1\n      return\n        /* \"New.sol\":109:129  address public owner */\n    tag_4:\n      sload(0x01)\n      tag_5\n      swap1\n      sub(shl(0xa0, 0x01), 0x01)\n      and\n      dup2\n      jump\n\n    auxdata: 0xa264697066735822122089fafc56e212fd62cc0f28f789a4567709546dc301395896a50667e7d7824ca764736f6c634300081d0033\n}\n",
				"bytecode": {
					"linkReferences": {},
					"object": "60806040526040516101313803806101318339810160408190526020916051565b5f8054336001600160a01b031991821617909155600180549091166001600160a01b0392909216919091179055607c565b5f602082840312156060575f5ffd5b81516001600160a01b03811681146075575f5ffd5b9392505050565b60a9806100885f395ff3fe6080604052348015600e575f5ffd5b50600436106030575f3560e01c806376cdb03b1460345780638da5cb5b146061575b5f5ffd5b5f546045906001600160a01b031681565b6040516001600160a01b03909116815260200160405180910390f35b6001546045906001600160a01b03168156fea264697066735822122089fafc56e212fd62cc0f28f789a4567709546dc301395896a50667e7d7824ca764736f6c634300081d0033",
					"opcodes": "PUSH1 0x80 PUSH1 0x40 MSTORE PUSH1 0x40 MLOAD PUSH2 0x131 CODESIZE SUB DUP1 PUSH2 0x131 DUP4 CODECOPY DUP2 ADD PUSH1 0x40 DUP2 SWAP1 MSTORE PUSH1 0x20 SWAP2 PUSH1 0x51 JUMP JUMPDEST PUSH0 DUP1 SLOAD CALLER PUSH1 0x1 PUSH1 0x1 PUSH1 0xA0 SHL SUB NOT SWAP2 DUP3 AND OR SWAP1 SWAP2 SSTORE PUSH1 0x1 DUP1 SLOAD SWAP1 SWAP2 AND PUSH1 0x1 PUSH1 0x1 PUSH1 0xA0 SHL SUB SWAP3 SWAP1 SWAP3 AND SWAP2 SWAP1 SWAP2 OR SWAP1 SSTORE PUSH1 0x7C JUMP JUMPDEST PUSH0 PUSH1 0x20 DUP3 DUP5 SUB SLT ISZERO PUSH1 0x60 JUMPI PUSH0 PUSH0 REVERT JUMPDEST DUP2 MLOAD PUSH1 0x1 PUSH1 0x1 PUSH1 0xA0 SHL SUB DUP2 AND DUP2 EQ PUSH1 0x75 JUMPI PUSH0 PUSH0 REVERT JUMPDEST SWAP4 SWAP3 POP POP POP JUMP JUMPDEST PUSH1 0xA9 DUP1 PUSH2 0x88 PUSH0 CODECOPY PUSH0 RETURN INVALID PUSH1 0x80 PUSH1 0x40 MSTORE CALLVALUE DUP1 ISZERO PUSH1 0xE JUMPI PUSH0 PUSH0 REVERT JUMPDEST POP PUSH1 0x4 CALLDATASIZE LT PUSH1 0x30 JUMPI PUSH0 CALLDATALOAD PUSH1 0xE0 SHR DUP1 PUSH4 0x76CDB03B EQ PUSH1 0x34 JUMPI DUP1 PUSH4 0x8DA5CB5B EQ PUSH1 0x61 JUMPI JUMPDEST PUSH0 PUSH0 REVERT JUMPDEST PUSH0 SLOAD PUSH1 0x45 SWAP1 PUSH1 0x1 PUSH1 0x1 PUSH1 0xA0 SHL SUB AND DUP2 JUMP JUMPDEST PUSH1 0x40 MLOAD PUSH1 0x1 PUSH1 0x1 PUSH1 0xA0 SHL SUB SWAP1 SWAP2 AND DUP2 MSTORE PUSH1 0x20 ADD PUSH1 0x40 MLOAD DUP1 SWAP2 SUB SWAP1 RETURN JUMPDEST PUSH1 0x1 SLOAD PUSH1 0x45 SWAP1 PUSH1 0x1 PUSH1 0x1 PUSH1 0xA0 SHL SUB AND DUP2 JUMP INVALID LOG2 PUSH5 0x6970667358 0x22 SLT KECCAK256 DUP10 STATICCALL 0xFC JUMP 0xE2 SLT REVERT PUSH3 0xCC0F28 0xF7 DUP10 LOG4 JUMP PUSH24 0x9546DC301395896A50667E7D7824CA764736F6C63430008 SAR STOP CALLER "
				},
				"gasEstimates": {
					"creation": {
						"codeDepositCost": "33800",
						"executionCost": "infinite",
						"totalCost": "infinite"
					},
					"external": {
						"bank()": "2301",
						"owner()": "2324"
					}
				},
				"methodIdentifiers": {
					"bank()": "76cdb03b",
					"owner()": "8da5cb5b"
				}
			},
			"storageLayout": {
				"storage": [
					{
						"astId": 3,
						"contract": "New.sol:Account",
						"label": "bank",
						"offset": 0,
						"slot": "0",
						"type": "t_address"
					},
					{
						"astId": 5,
						"contract": "New.sol:Account",
						"label": "owner",
						"offset": 0,
						"slot": "1",
						"type": "t_address"
					}
				],
				"types": {
					"t_address": {
						"encoding": "inplace",
						"label": "address",
						"numberOfBytes": "20"
					}
				}
			},
			"userdoc": {
				"kind": "user",
				"methods": {},
				"version": 1
			}
		}
	}
}