{
	"FunctionModifier.sol": {
		"FunctionModifier": {
			"abi": [
				{
					"inputs": [],
					"name": "count",
					"outputs": [
						{
							"internalType": "uint256",
							"name": "",
							"type": "uint256"
						}
					],
					"stateMutability": "view",
					"type": "function"
				},
				{
					"inputs": [],
					"name": "dec",
					"outputs": [],
					"stateMutability": "nonpayable",
					"type": "function"
				},
				{
					"inputs": [],
					"name": "inc",
					"outputs": [],
					"stateMutability": "nonpayable",
					"type": "function"
				},
				{
					"inputs": [],
					"name": "paused",
					"outputs": [
						{
							"internalType": "bool",
							"name": "",
							"type": "bool"
						}
					],
					"stateMutability": "view",
					"type": "function"
				},
				{
					"inputs": [
						{
							"internalType": "bool",
							"name": "_paused",
							"type": "bool"
						}
					],
					"name": "setPause",
					"outputs": [],
					"stateMutability": "nonpayable",
					"type": "function"
				}
			],
			"devdoc": {
				"kind": "dev",
				"methods": {},
				"version": 1
			},
			"evm": {
				"assembly": "    /* \"FunctionModifier.sol\":60:502  contract FunctionModifier {... */\n  mstore(0x40, 0x80)\n  callvalue\n  dup1\n  iszero\n  tag_1\n  jumpi\n  revert(0x00, 0x00)\ntag_1:\n  pop\n  dataSize(sub_0)\n  dup1\n  dataOffset(sub_0)\n  0x00\n  codecopy\n  0x00\n  return\nstop\n\nsub_0: assembly {\n        /* \"FunctionModifier.sol\":60:502  contract FunctionModifier {... */\n      mstore(0x40, 0x80)\n      callvalue\n      dup1\n      iszero\n      tag_1\n      jumpi\n      revert(0x00, 0x00)\n    tag_1:\n      pop\n      jumpi(tag_2, lt(calldatasize, 0x04))\n      shr(0xe0, calldataload(0x00))\n      dup1\n      0x06661abd\n      eq\n      tag_3\n      jumpi\n      dup1\n      0x371303c0\n      eq\n      tag_4\n      jumpi\n      dup1\n      0x5c975abb\n      eq\n      tag_5\n      jumpi\n      dup1\n      0xb3bcfa82\n      eq\n      tag_6\n      jumpi\n      dup1\n      0xbedb86fb\n      eq\n      tag_7\n      jumpi\n    tag_2:\n      revert(0x00, 0x00)\n        /* \"FunctionModifier.sol\":118:135  uint public count */\n    tag_3:\n      tag_8\n      sload(0x01)\n      dup2\n      jump\n    tag_8:\n      mload(0x40)\n        /* \"#utility.yul\":160:185   */\n      swap1\n      dup2\n      mstore\n        /* \"#utility.yul\":148:150   */\n      0x20\n        /* \"#utility.yul\":133:151   */\n      add\n        /* \"FunctionModifier.sol\":118:135  uint public count */\n    tag_10:\n      mload(0x40)\n      dup1\n      swap2\n      sub\n      swap1\n      return\n        /* \"FunctionModifier.sol\":365:428  function inc()external whenNotPaused{... */\n    tag_4:\n      tag_12\n      tag_13\n      jump\t// in\n    tag_12:\n      stop\n        /* \"FunctionModifier.sol\":93:111  bool public paused */\n    tag_5:\n      sload(0x00)\n      tag_14\n      swap1\n      0xff\n      and\n      dup2\n      jump\n    tag_14:\n      mload(0x40)\n        /* \"#utility.yul\":361:375   */\n      swap1\n      iszero\n        /* \"#utility.yul\":354:376   */\n      iszero\n        /* \"#utility.yul\":336:377   */\n      dup2\n      mstore\n        /* \"#utility.yul\":324:326   */\n      0x20\n        /* \"#utility.yul\":309:327   */\n      add\n        /* \"FunctionModifier.sol\":93:111  bool public paused */\n      tag_10\n        /* \"#utility.yul\":196:383   */\n      jump\n        /* \"FunctionModifier.sol\":436:499  function dec()external whenNotPaused{... */\n    tag_6:\n      tag_12\n      tag_19\n      jump\t// in\n        /* \"FunctionModifier.sol\":144:217  function setPause(bool _paused)external {... */\n    tag_7:\n      tag_12\n      tag_21\n      calldatasize\n      0x04\n      tag_22\n      jump\t// in\n    tag_21:\n        /* \"FunctionModifier.sol\":195:201  paused */\n      0x00\n        /* \"FunctionModifier.sol\":195:209  paused=_paused */\n      dup1\n      sload\n      not(0xff)\n      and\n      swap2\n      iszero\n      iszero\n      swap2\n      swap1\n      swap2\n      or\n      swap1\n      sstore\n        /* \"FunctionModifier.sol\":144:217  function setPause(bool _paused)external {... */\n      jump\n        /* \"FunctionModifier.sol\":365:428  function inc()external whenNotPaused{... */\n    tag_13:\n        /* \"FunctionModifier.sol\":286:292  paused */\n      and(0xff, sload(0x00))\n        /* \"FunctionModifier.sol\":285:292  !paused */\n      iszero\n        /* \"FunctionModifier.sol\":277:301  require(!paused,\"Pause\") */\n      tag_25\n      jumpi\n      mload(0x40)\n      shl(0xe5, 0x461bcd)\n      dup2\n      mstore\n        /* \"#utility.yul\":868:870   */\n      0x20\n        /* \"FunctionModifier.sol\":277:301  require(!paused,\"Pause\") */\n      0x04\n      dup3\n      add\n        /* \"#utility.yul\":850:871   */\n      mstore\n        /* \"#utility.yul\":907:908   */\n      0x05\n        /* \"#utility.yul\":887:905   */\n      0x24\n      dup3\n      add\n        /* \"#utility.yul\":880:909   */\n      mstore\n      shl(0xd8, 0x5061757365)\n        /* \"#utility.yul\":925:943   */\n      0x44\n      dup3\n      add\n        /* \"#utility.yul\":918:953   */\n      mstore\n        /* \"#utility.yul\":970:988   */\n      0x64\n      add\n        /* \"FunctionModifier.sol\":277:301  require(!paused,\"Pause\") */\n    tag_26:\n      mload(0x40)\n      dup1\n      swap2\n      sub\n      swap1\n      revert\n    tag_25:\n        /* \"FunctionModifier.sol\":419:420  1 */\n      0x01\n        /* \"FunctionModifier.sol\":412:417  count */\n      dup1\n      0x00\n        /* \"FunctionModifier.sol\":412:420  count+=1 */\n      dup3\n      dup3\n      sload\n      tag_29\n      swap2\n      swap1\n      tag_30\n      jump\t// in\n    tag_29:\n      swap1\n      swap2\n      sstore\n      pop\n      pop\n        /* \"FunctionModifier.sol\":365:428  function inc()external whenNotPaused{... */\n      jump\t// out\n        /* \"FunctionModifier.sol\":436:499  function dec()external whenNotPaused{... */\n    tag_19:\n        /* \"FunctionModifier.sol\":286:292  paused */\n      and(0xff, sload(0x00))\n        /* \"FunctionModifier.sol\":285:292  !paused */\n      iszero\n        /* \"FunctionModifier.sol\":277:301  require(!paused,\"Pause\") */\n      tag_32\n      jumpi\n      mload(0x40)\n      shl(0xe5, 0x461bcd)\n      dup2\n      mstore\n        /* \"#utility.yul\":868:870   */\n      0x20\n        /* \"FunctionModifier.sol\":277:301  require(!paused,\"Pause\") */\n      0x04\n      dup3\n      add\n        /* \"#utility.yul\":850:871   */\n      mstore\n        /* \"#utility.yul\":907:908   */\n      0x05\n        /* \"#utility.yul\":887:905   */\n      0x24\n      dup3\n      add\n        /* \"#utility.yul\":880:909   */\n      mstore\n      shl(0xd8, 0x5061757365)\n        /* \"#utility.yul\":925:943   */\n      0x44\n      dup3\n      add\n        /* \"#utility.yul\":918:953   */\n      mstore\n        /* \"#utility.yul\":970:988   */\n      0x64\n      add\n        /* \"FunctionModifier.sol\":277:301  require(!paused,\"Pause\") */\n      tag_26\n        /* \"#utility.yul\":666:994   */\n      jump\n        /* \"FunctionModifier.sol\":277:301  require(!paused,\"Pause\") */\n    tag_32:\n        /* \"FunctionModifier.sol\":490:491  1 */\n      0x01\n        /* \"FunctionModifier.sol\":483:488  count */\n      dup1\n      0x00\n        /* \"FunctionModifier.sol\":483:491  count-=1 */\n      dup3\n      dup3\n      sload\n      tag_29\n      swap2\n      swap1\n      tag_36\n      jump\t// in\n        /* \"#utility.yul\":388:661   */\n    tag_22:\n        /* \"#utility.yul\":444:450   */\n      0x00\n        /* \"#utility.yul\":497:499   */\n      0x20\n        /* \"#utility.yul\":485:494   */\n      dup3\n        /* \"#utility.yul\":476:483   */\n      dup5\n        /* \"#utility.yul\":472:495   */\n      sub\n        /* \"#utility.yul\":468:500   */\n      slt\n        /* \"#utility.yul\":465:517   */\n      iszero\n      tag_43\n      jumpi\n        /* \"#utility.yul\":513:514   */\n      0x00\n        /* \"#utility.yul\":510:511   */\n      0x00\n        /* \"#utility.yul\":503:515   */\n      revert\n        /* \"#utility.yul\":465:517   */\n    tag_43:\n        /* \"#utility.yul\":552:561   */\n      dup2\n        /* \"#utility.yul\":539:562   */\n      calldataload\n        /* \"#utility.yul\":605:610   */\n      dup1\n        /* \"#utility.yul\":598:611   */\n      iszero\n        /* \"#utility.yul\":591:612   */\n      iszero\n        /* \"#utility.yul\":584:589   */\n      dup2\n        /* \"#utility.yul\":581:613   */\n      eq\n        /* \"#utility.yul\":571:631   */\n      tag_44\n      jumpi\n        /* \"#utility.yul\":627:628   */\n      0x00\n        /* \"#utility.yul\":624:625   */\n      0x00\n        /* \"#utility.yul\":617:629   */\n      revert\n        /* \"#utility.yul\":571:631   */\n    tag_44:\n        /* \"#utility.yul\":650:655   */\n      swap4\n        /* \"#utility.yul\":388:661   */\n      swap3\n      pop\n      pop\n      pop\n      jump\t// out\n        /* \"#utility.yul\":999:1126   */\n    tag_38:\n        /* \"#utility.yul\":1060:1070   */\n      0x4e487b71\n        /* \"#utility.yul\":1055:1058   */\n      0xe0\n        /* \"#utility.yul\":1051:1071   */\n      shl\n        /* \"#utility.yul\":1048:1049   */\n      0x00\n        /* \"#utility.yul\":1041:1072   */\n      mstore\n        /* \"#utility.yul\":1091:1095   */\n      0x11\n        /* \"#utility.yul\":1088:1089   */\n      0x04\n        /* \"#utility.yul\":1081:1096   */\n      mstore\n        /* \"#utility.yul\":1115:1119   */\n      0x24\n        /* \"#utility.yul\":1112:1113   */\n      0x00\n        /* \"#utility.yul\":1105:1120   */\n      revert\n        /* \"#utility.yul\":1131:1256   */\n    tag_30:\n        /* \"#utility.yul\":1196:1205   */\n      dup1\n      dup3\n      add\n        /* \"#utility.yul\":1217:1227   */\n      dup1\n      dup3\n      gt\n        /* \"#utility.yul\":1214:1250   */\n      iszero\n      tag_49\n      jumpi\n        /* \"#utility.yul\":1230:1248   */\n      tag_49\n      tag_38\n      jump\t// in\n    tag_49:\n        /* \"#utility.yul\":1131:1256   */\n      swap3\n      swap2\n      pop\n      pop\n      jump\t// out\n        /* \"#utility.yul\":1261:1389   */\n    tag_36:\n        /* \"#utility.yul\":1328:1337   */\n      dup2\n      dup2\n      sub\n        /* \"#utility.yul\":1349:1360   */\n      dup2\n      dup2\n      gt\n        /* \"#utility.yul\":1346:1383   */\n      iszero\n      tag_49\n      jumpi\n        /* \"#utility.yul\":1363:1381   */\n      tag_49\n      tag_38\n      jump\t// in\n\n    auxdata: 0xa2646970667358221220511104505bf3d848b86dc090dcae2e1d2f807c47bec08d49da5a94d8656f51e564736f6c634300081d0033\n}\n",
				"bytecode": {
					"linkReferences": {},
					"object": "6080604052348015600e575f5ffd5b506102018061001c5f395ff3fe608060405234801561000f575f5ffd5b5060043610610055575f3560e01c806306661abd14610059578063371303c0146100755780635c975abb1461007f578063b3bcfa821461009b578063bedb86fb146100a3575b5f5ffd5b61006260015481565b6040519081526020015b60405180910390f35b61007d6100c3565b005b5f5461008b9060ff1681565b604051901515815260200161006c565b61007d61011a565b61007d6100b1366004610165565b5f805460ff1916911515919091179055565b5f5460ff16156101025760405162461bcd60e51b8152602060048201526005602482015264506175736560d81b60448201526064015b60405180910390fd5b6001805f828254610113919061019f565b9091555050565b5f5460ff16156101545760405162461bcd60e51b8152602060048201526005602482015264506175736560d81b60448201526064016100f9565b6001805f82825461011391906101b8565b5f60208284031215610175575f5ffd5b81358015158114610184575f5ffd5b9392505050565b634e487b7160e01b5f52601160045260245ffd5b808201808211156101b2576101b261018b565b92915050565b818103818111156101b2576101b261018b56fea2646970667358221220511104505bf3d848b86dc090dcae2e1d2f807c47bec08d49da5a94d8656f51e564736f6c634300081d0033",
					"opcodes": "PUSH1 0x80 PUSH1 0x40 MSTORE CALLVALUE DUP1 ISZERO PUSH1 0xE JUMPI PUSH0 PUSH0 REVERT JUMPDEST POP PUSH2 0x201 DUP1 PUSH2 0x1C PUSH0 CODECOPY PUSH0 RETURN INVALID PUSH1 0x80 PUSH1 0x40 MSTORE CALLVALUE DUP1 ISZERO PUSH2 0xF JUMPI PUSH0 PUSH0 REVERT JUMPDEST POP PUSH1 0x4 CALLDATASIZE LT PUSH2 0x55 JUMPI PUSH0 CALLDATALOAD PUSH1 0xE0 SHR DUP1 PUSH4 0x6661ABD EQ PUSH2 0x59 JUMPI DUP1 PUSH4 0x371303C0 EQ PUSH2 0x75 JUMPI DUP1 PUSH4 0x5C975ABB EQ PUSH2 0x7F JUMPI DUP1 PUSH4 0xB3BCFA82 EQ PUSH2 0x9B JUMPI DUP1 PUSH4 0xBEDB86FB EQ PUSH2 0xA3 JUMPI JUMPDEST PUSH0 PUSH0 REVERT JUMPDEST PUSH2 0x62 PUSH1 0x1 SLOAD DUP2 JUMP JUMPDEST PUSH1 0x40 MLOAD SWAP1 DUP2 MSTORE PUSH1 0x20 ADD JUMPDEST PUSH1 0x40 MLOAD DUP1 SWAP2 SUB SWAP1 RETURN JUMPDEST PUSH2 0x7D PUSH2 0xC3 JUMP JUMPDEST STOP JUMPDEST PUSH0 SLOAD PUSH2 0x8B SWAP1 PUSH1 0xFF AND DUP2 JUMP JUMPDEST PUSH1 0x40 MLOAD SWAP1 ISZERO ISZERO DUP2 MSTORE PUSH1 0x20 ADD PUSH2 0x6C JUMP JUMPDEST PUSH2 0x7D PUSH2 0x11A JUMP JUMPDEST PUSH2 0x7D PUSH2 0xB1 CALLDATASIZE PUSH1 0x4 PUSH2 0x165 JUMP JUMPDEST PUSH0 DUP1 SLOAD PUSH1 0xFF NOT AND SWAP2 ISZERO ISZERO SWAP2 SWAP1 SWAP2 OR SWAP1 SSTORE JUMP JUMPDEST PUSH0 SLOAD PUSH1 0xFF AND ISZERO PUSH2 0x102 JUMPI PUSH1 0x40 MLOAD PUSH3 0x461BCD PUSH1 0xE5 SHL DUP2 MSTORE PUSH1 0x20 PUSH1 0x4 DUP3 ADD MSTORE PUSH1 0x5 PUSH1 0x24 DUP3 ADD MSTORE PUSH5 0x5061757365 PUSH1 0xD8 SHL PUSH1 0x44 DUP3 ADD MSTORE PUSH1 0x64 ADD JUMPDEST PUSH1 0x40 MLOAD DUP1 SWAP2 SUB SWAP1 REVERT JUMPDEST PUSH1 0x1 DUP1 PUSH0 DUP3 DUP3 SLOAD PUSH2 0x113 SWAP2 SWAP1 PUSH2 0x19F JUMP JUMPDEST SWAP1 SWAP2 SSTORE POP POP JUMP JUMPDEST PUSH0 SLOAD PUSH1 0xFF AND ISZERO PUSH2 0x154 JUMPI PUSH1 0x40 MLOAD PUSH3 0x461BCD PUSH1 0xE5 SHL DUP2 MSTORE PUSH1 0x20 PUSH1 0x4 DUP3 ADD MSTORE PUSH1 0x5 PUSH1 0x24 DUP3 ADD MSTORE PUSH5 0x5061757365 PUSH1 0xD8 SHL PUSH1 0x44 DUP3 ADD MSTORE PUSH1 0x64 ADD PUSH2 0xF9 JUMP JUMPDEST PUSH1 0x1 DUP1 PUSH0 DUP3 DUP3 SLOAD PUSH2 0x113 SWAP2 SWAP1 PUSH2 0x1B8 JUMP JUMPDEST PUSH0 PUSH1 0x20 DUP3 DUP5 SUB SLT ISZERO PUSH2 0x175 JUMPI PUSH0 PUSH0 REVERT JUMPDEST DUP2 CALLDATALOAD DUP1 ISZERO ISZERO DUP2 EQ PUSH2 0x184 JUMPI PUSH0 PUSH0 REVERT JUMPDEST SWAP4 SWAP3 POP POP POP JUMP JUMPDEST PUSH4 0x4E487B71 PUSH1 0xE0 SHL PUSH0 MSTORE PUSH1 0x11 PUSH1 0x4 MSTORE PUSH1 0x24 PUSH0 REVERT JUMPDEST DUP1 DUP3 ADD DUP1 DUP3 GT ISZERO PUSH2 0x1B2 JUMPI PUSH2 0x1B2 PUSH2 0x18B JUMP JUMPDEST SWAP3 SWAP2 POP POP JUMP JUMPDEST DUP2 DUP2 SUB DUP2 DUP2 GT ISZERO PUSH2 0x1B2 JUMPI PUSH2 0x1B2 PUSH2 0x18B JUMP INVALID LOG2 PUSH5 0x6970667358 0x22 SLT KECCAK256 MLOAD GT DIV POP JUMPDEST RETURN 0xD8 BASEFEE 0xB8 PUSH14 0xC090DCAE2E1D2F807C47BEC08D49 0xDA GAS SWAP5 0xD8 PUSH6 0x6F51E564736F PUSH13 0x634300081D0033000000000000 "
				},
				"gasEstimates": {
					"creation": {
						"codeDepositCost": "102600",
						"executionCost": "151",
						"totalCost": "102751"
					},
					"external": {
						"count()": "2261",
						"dec()": "26611",
						"inc()": "26567",
						"paused()": "2330",
						"setPause(bool)": "24545"
					}
				},
				"methodIdentifiers": {
					"count()": "06661abd",
					"dec()": "b3bcfa82",
					"inc()": "371303c0",
					"paused()": "5c975abb",
					"setPause(bool)": "bedb86fb"
				}
			},
			"storageLayout": {
				"storage": [
					{
						"astId": 3,
						"contract": "FunctionModifier.sol:FunctionModifier",
						"label": "paused",
						"offset": 0,
						"slot": "0",
						"type": "t_bool"
					},
					{
						"astId": 5,
						"contract": "FunctionModifier.sol:FunctionModifier",
						"label": "count",
						"offset": 0,
						"slot": "1",
						"type": "t_uint256"
					}
				],
				"types": {
					"t_bool": {
						"encoding": "inplace",
						"label": "bool",
						"numberOfBytes": "1"
					},
					"t_uint256": {
						"encoding": "inplace",
						"label": "uint256",
						"numberOfBytes": "32"
					}
				}
			},
			"userdoc": {
				"kind": "user",
				"methods": {},
				"version": 1
			}
		}
	}
}