{
	"IfElse.sol": {
		"IfElse": {
			"abi": [
				{
					"inputs": [
						{
							"internalType": "uint256",
							"name": "x",
							"type": "uint256"
						}
					],
					"name": "example",
					"outputs": [
						{
							"internalType": "uint256",
							"name": "",
							"type": "uint256"
						}
					],
					"stateMutability": "pure",
					"type": "function"
				},
				{
					"inputs": [
						{
							"internalType": "uint256",
							"name": "x",
							"type": "uint256"
						}
					],
					"name": "tenary",
					"outputs": [
						{
							"internalType": "uint256",
							"name": "",
							"type": "uint256"
						}
					],
					"stateMutability": "pure",
					"type": "function"
				}
			],
			"devdoc": {
				"kind": "dev",
				"methods": {},
				"version": 1
			},
			"evm": {
				"assembly": "    /* \"IfElse.sol\":60:392  contract IfElse{... */\n  mstore(0x40, 0x80)\n  callvalue\n  dup1\n  iszero\n  tag_1\n  jumpi\n  revert(0x00, 0x00)\ntag_1:\n  pop\n  dataSize(sub_0)\n  dup1\n  dataOffset(sub_0)\n  0x00\n  codecopy\n  0x00\n  return\nstop\n\nsub_0: assembly {\n        /* \"IfElse.sol\":60:392  contract IfElse{... */\n      mstore(0x40, 0x80)\n      callvalue\n      dup1\n      iszero\n      tag_1\n      jumpi\n      revert(0x00, 0x00)\n    tag_1:\n      pop\n      jumpi(tag_2, lt(calldatasize, 0x04))\n      shr(0xe0, calldataload(0x00))\n      dup1\n      0x477e4a02\n      eq\n      tag_3\n      jumpi\n      dup1\n      0x67b58887\n      eq\n      tag_4\n      jumpi\n    tag_2:\n      revert(0x00, 0x00)\n        /* \"IfElse.sol\":84:288  function example(uint x) external pure returns(uint) {... */\n    tag_3:\n      tag_5\n      tag_6\n      calldatasize\n      0x04\n      tag_7\n      jump\t// in\n    tag_6:\n      tag_8\n      jump\t// in\n    tag_5:\n      mload(0x40)\n        /* \"#utility.yul\":345:370   */\n      swap1\n      dup2\n      mstore\n        /* \"#utility.yul\":333:335   */\n      0x20\n        /* \"#utility.yul\":318:336   */\n      add\n        /* \"IfElse.sol\":84:288  function example(uint x) external pure returns(uint) {... */\n      mload(0x40)\n      dup1\n      swap2\n      sub\n      swap1\n      return\n        /* \"IfElse.sol\":294:387  function tenary(uint x) external pure returns(uint) {... */\n    tag_4:\n      tag_5\n      tag_12\n      calldatasize\n      0x04\n      tag_7\n      jump\t// in\n    tag_12:\n      tag_13\n      jump\t// in\n        /* \"IfElse.sol\":84:288  function example(uint x) external pure returns(uint) {... */\n    tag_8:\n        /* \"IfElse.sol\":131:135  uint */\n      0x00\n        /* \"IfElse.sol\":155:157  10 */\n      0x0a\n        /* \"IfElse.sol\":151:152  x */\n      dup3\n        /* \"IfElse.sol\":151:157  x < 10 */\n      lt\n        /* \"IfElse.sol\":148:281  if(x < 10){... */\n      iszero\n      tag_16\n      jumpi\n      pop\n        /* \"IfElse.sol\":180:181  1 */\n      0x01\n      swap2\n        /* \"IfElse.sol\":84:288  function example(uint x) external pure returns(uint) {... */\n      swap1\n      pop\n      jump\t// out\n        /* \"IfElse.sol\":148:281  if(x < 10){... */\n    tag_16:\n        /* \"IfElse.sol\":203:205  20 */\n      0x14\n        /* \"IfElse.sol\":201:202  x */\n      dup3\n        /* \"IfElse.sol\":201:205  x<20 */\n      lt\n        /* \"IfElse.sol\":198:281  if(x<20){... */\n      iszero\n      tag_18\n      jumpi\n      pop\n        /* \"IfElse.sol\":228:229  2 */\n      0x02\n      swap2\n        /* \"IfElse.sol\":84:288  function example(uint x) external pure returns(uint) {... */\n      swap1\n      pop\n      jump\t// out\n        /* \"IfElse.sol\":198:281  if(x<20){... */\n    tag_18:\n      pop\n        /* \"IfElse.sol\":268:269  3 */\n      0x03\n      swap2\n        /* \"IfElse.sol\":84:288  function example(uint x) external pure returns(uint) {... */\n      swap1\n      pop\n      jump\t// out\n        /* \"IfElse.sol\":294:387  function tenary(uint x) external pure returns(uint) {... */\n    tag_13:\n        /* \"IfElse.sol\":340:344  uint */\n      0x00\n        /* \"IfElse.sol\":366:368  10 */\n      0x0a\n        /* \"IfElse.sol\":364:365  x */\n      dup3\n        /* \"IfElse.sol\":364:368  x<10 */\n      lt\n        /* \"IfElse.sol\":364:379  x<10?1:x<20?2:3 */\n      tag_21\n      jumpi\n        /* \"IfElse.sol\":373:375  20 */\n      0x14\n        /* \"IfElse.sol\":371:372  x */\n      dup3\n        /* \"IfElse.sol\":371:375  x<20 */\n      lt\n        /* \"IfElse.sol\":371:379  x<20?2:3 */\n      tag_22\n      jumpi\n        /* \"IfElse.sol\":378:379  3 */\n      0x03\n        /* \"IfElse.sol\":364:379  x<10?1:x<20?2:3 */\n      jump(tag_24)\n        /* \"IfElse.sol\":371:379  x<20?2:3 */\n    tag_22:\n        /* \"IfElse.sol\":376:377  2 */\n      0x02\n        /* \"IfElse.sol\":364:379  x<10?1:x<20?2:3 */\n      jump(tag_24)\n    tag_21:\n        /* \"IfElse.sol\":369:370  1 */\n      0x01\n        /* \"IfElse.sol\":364:379  x<10?1:x<20?2:3 */\n    tag_24:\n        /* \"IfElse.sol\":357:379  return x<10?1:x<20?2:3 */\n      0xff\n      and\n      swap3\n        /* \"IfElse.sol\":294:387  function tenary(uint x) external pure returns(uint) {... */\n      swap2\n      pop\n      pop\n      jump\t// out\n        /* \"#utility.yul\":14:194   */\n    tag_7:\n        /* \"#utility.yul\":73:79   */\n      0x00\n        /* \"#utility.yul\":126:128   */\n      0x20\n        /* \"#utility.yul\":114:123   */\n      dup3\n        /* \"#utility.yul\":105:112   */\n      dup5\n        /* \"#utility.yul\":101:124   */\n      sub\n        /* \"#utility.yul\":97:129   */\n      slt\n        /* \"#utility.yul\":94:146   */\n      iszero\n      tag_27\n      jumpi\n        /* \"#utility.yul\":142:143   */\n      0x00\n        /* \"#utility.yul\":139:140   */\n      0x00\n        /* \"#utility.yul\":132:144   */\n      revert\n        /* \"#utility.yul\":94:146   */\n    tag_27:\n      pop\n        /* \"#utility.yul\":165:188   */\n      calldataload\n      swap2\n        /* \"#utility.yul\":14:194   */\n      swap1\n      pop\n      jump\t// out\n\n    auxdata: 0xa2646970667358221220148c97689fc738e124803ed26083244a4e3d09776502382b5996da1a36d715f064736f6c634300081d0033\n}\n",
				"bytecode": {
					"linkReferences": {},
					"object": "6080604052348015600e575f5ffd5b506101008061001c5f395ff3fe6080604052348015600e575f5ffd5b50600436106030575f3560e01c8063477e4a0214603457806367b58887146055575b5f5ffd5b6043603f36600460b4565b6064565b60405190815260200160405180910390f35b6043606036600460b4565b608d565b5f600a821015607557506001919050565b6014821015608557506002919050565b506003919050565b5f600a821060a8576014821060a257600360ab565b600260ab565b60015b60ff1692915050565b5f6020828403121560c3575f5ffd5b503591905056fea2646970667358221220148c97689fc738e124803ed26083244a4e3d09776502382b5996da1a36d715f064736f6c634300081d0033",
					"opcodes": "PUSH1 0x80 PUSH1 0x40 MSTORE CALLVALUE DUP1 ISZERO PUSH1 0xE JUMPI PUSH0 PUSH0 REVERT JUMPDEST POP PUSH2 0x100 DUP1 PUSH2 0x1C PUSH0 CODECOPY PUSH0 RETURN INVALID PUSH1 0x80 PUSH1 0x40 MSTORE CALLVALUE DUP1 ISZERO PUSH1 0xE JUMPI PUSH0 PUSH0 REVERT JUMPDEST POP PUSH1 0x4 CALLDATASIZE LT PUSH1 0x30 JUMPI PUSH0 CALLDATALOAD PUSH1 0xE0 SHR DUP1 PUSH4 0x477E4A02 EQ PUSH1 0x34 JUMPI DUP1 PUSH4 0x67B58887 EQ PUSH1 0x55 JUMPI JUMPDEST PUSH0 PUSH0 REVERT JUMPDEST PUSH1 0x43 PUSH1 0x3F CALLDATASIZE PUSH1 0x4 PUSH1 0xB4 JUMP JUMPDEST PUSH1 0x64 JUMP JUMPDEST PUSH1 0x40 MLOAD SWAP1 DUP2 MSTORE PUSH1 0x20 ADD PUSH1 0x40 MLOAD DUP1 SWAP2 SUB SWAP1 RETURN JUMPDEST PUSH1 0x43 PUSH1 0x60 CALLDATASIZE PUSH1 0x4 PUSH1 0xB4 JUMP JUMPDEST PUSH1 0x8D JUMP JUMPDEST PUSH0 PUSH1 0xA DUP3 LT ISZERO PUSH1 0x75 JUMPI POP PUSH1 0x1 SWAP2 SWAP1 POP JUMP JUMPDEST PUSH1 0x14 DUP3 LT ISZERO PUSH1 0x85 JUMPI POP PUSH1 0x2 SWAP2 SWAP1 POP JUMP JUMPDEST POP PUSH1 0x3 SWAP2 SWAP1 POP JUMP JUMPDEST PUSH0 PUSH1 0xA DUP3 LT PUSH1 0xA8 JUMPI PUSH1 0x14 DUP3 LT PUSH1 0xA2 JUMPI PUSH1 0x3 PUSH1 0xAB JUMP JUMPDEST PUSH1 0x2 PUSH1 0xAB JUMP JUMPDEST PUSH1 0x1 JUMPDEST PUSH1 0xFF AND SWAP3 SWAP2 POP POP JUMP JUMPDEST PUSH0 PUSH1 0x20 DUP3 DUP5 SUB SLT ISZERO PUSH1 0xC3 JUMPI PUSH0 PUSH0 REVERT JUMPDEST POP CALLDATALOAD SWAP2 SWAP1 POP JUMP INVALID LOG2 PUSH5 0x6970667358 0x22 SLT KECCAK256 EQ DUP13 SWAP8 PUSH9 0x9FC738E124803ED260 DUP4 0x24 BLOBBASEFEE 0x4E RETURNDATASIZE MULMOD PUSH24 0x6502382B5996DA1A36D715F064736F6C634300081D003300 "
				},
				"gasEstimates": {
					"creation": {
						"codeDepositCost": "51200",
						"executionCost": "97",
						"totalCost": "51297"
					},
					"external": {
						"example(uint256)": "309",
						"tenary(uint256)": "342"
					}
				},
				"methodIdentifiers": {
					"example(uint256)": "477e4a02",
					"tenary(uint256)": "67b58887"
				}
			},
			"storageLayout": {
				"storage": [],
				"types": null
			},
			"userdoc": {
				"kind": "user",
				"methods": {},
				"version": 1
			}
		}
	}
}