{
	"CallerOtherContract.sol": {
		"Caller": {
			"abi": [
				{
					"inputs": [
						{
							"internalType": "address",
							"name": "_test",
							"type": "address"
						}
					],
					"name": "getX",
					"outputs": [
						{
							"internalType": "uint256",
							"name": "",
							"type": "uint256"
						}
					],
					"stateMutability": "view",
					"type": "function"
				},
				{
					"inputs": [
						{
							"internalType": "address",
							"name": "_test",
							"type": "address"
						}
					],
					"name": "getXandValue",
					"outputs": [
						{
							"internalType": "uint256",
							"name": "",
							"type": "uint256"
						},
						{
							"internalType": "uint256",
							"name": "",
							"type": "uint256"
						}
					],
					"stateMutability": "view",
					"type": "function"
				},
				{
					"inputs": [
						{
							"internalType": "contract TestContract",
							"name": "_test",
							"type": "address"
						},
						{
							"internalType": "uint256",
							"name": "_x",
							"type": "uint256"
						}
					],
					"name": "setX",
					"outputs": [],
					"stateMutability": "nonpayable",
					"type": "function"
				},
				{
					"inputs": [
						{
							"internalType": "contract TestContract",
							"name": "_test",
							"type": "address"
						},
						{
							"internalType": "uint256",
							"name": "_x",
							"type": "uint256"
						}
					],
					"name": "setXAndSendEther",
					"outputs": [],
					"stateMutability": "payable",
					"type": "function"
				}
			],
			"devdoc": {
				"kind": "dev",
				"methods": {},
				"version": 1
			},
			"evm": {
				"assembly": "    /* \"CallerOtherContract.sol\":58:658  contract Caller{... */\n  mstore(0x40, 0x80)\n  callvalue\n  dup1\n  iszero\n  tag_1\n  jumpi\n  0x00\n  dup1\n  revert\ntag_1:\n  pop\n  dataSize(sub_0)\n  dup1\n  dataOffset(sub_0)\n  0x00\n  codecopy\n  0x00\n  return\nstop\n\nsub_0: assembly {\n        /* \"CallerOtherContract.sol\":58:658  contract Caller{... */\n      mstore(0x40, 0x80)\n      jumpi(tag_1, lt(calldatasize, 0x04))\n      shr(0xe0, calldataload(0x00))\n      dup1\n      0x27a9f474\n      eq\n      tag_2\n      jumpi\n      dup1\n      0x37e2621b\n      eq\n      tag_3\n      jumpi\n      dup1\n      0x4a2ad99f\n      eq\n      tag_4\n      jumpi\n      dup1\n      0x7c94c8ca\n      eq\n      tag_5\n      jumpi\n    tag_1:\n      0x00\n      dup1\n      revert\n        /* \"CallerOtherContract.sol\":343:475  function setXAndSendEther(TestContract _test,uint _x) external payable{... */\n    tag_2:\n      tag_6\n      tag_7\n      calldatasize\n      0x04\n      tag_8\n      jump\t// in\n    tag_7:\n      tag_9\n      jump\t// in\n    tag_6:\n      stop\n        /* \"CallerOtherContract.sol\":483:653  function getXandValue(address _test) external view returns(uint,uint){... */\n    tag_3:\n      callvalue\n      dup1\n      iszero\n      tag_10\n      jumpi\n      0x00\n      dup1\n      revert\n    tag_10:\n      pop\n      tag_11\n      tag_12\n      calldatasize\n      0x04\n      tag_13\n      jump\t// in\n    tag_12:\n      tag_14\n      jump\t// in\n    tag_11:\n      0x40\n      dup1\n      mload\n        /* \"#utility.yul\":958:983   */\n      swap3\n      dup4\n      mstore\n        /* \"#utility.yul\":1014:1016   */\n      0x20\n        /* \"#utility.yul\":999:1017   */\n      dup4\n      add\n        /* \"#utility.yul\":992:1026   */\n      swap2\n      swap1\n      swap2\n      mstore\n        /* \"#utility.yul\":931:949   */\n      add\n        /* \"CallerOtherContract.sol\":483:653  function getXandValue(address _test) external view returns(uint,uint){... */\n    tag_15:\n      mload(0x40)\n      dup1\n      swap2\n      sub\n      swap1\n      return\n        /* \"CallerOtherContract.sol\":80:164  function setX(TestContract _test,uint _x) external {... */\n    tag_4:\n      callvalue\n      dup1\n      iszero\n      tag_17\n      jumpi\n      0x00\n      dup1\n      revert\n    tag_17:\n      pop\n      tag_6\n      tag_19\n      calldatasize\n      0x04\n      tag_8\n      jump\t// in\n    tag_19:\n      tag_20\n      jump\t// in\n        /* \"CallerOtherContract.sol\":170:335  function getX(address _test) external view returns(uint){... */\n    tag_5:\n      callvalue\n      dup1\n      iszero\n      tag_21\n      jumpi\n      0x00\n      dup1\n      revert\n    tag_21:\n      pop\n      tag_22\n      tag_23\n      calldatasize\n      0x04\n      tag_13\n      jump\t// in\n    tag_23:\n      tag_24\n      jump\t// in\n    tag_22:\n      mload(0x40)\n        /* \"#utility.yul\":1183:1208   */\n      swap1\n      dup2\n      mstore\n        /* \"#utility.yul\":1171:1173   */\n      0x20\n        /* \"#utility.yul\":1156:1174   */\n      add\n        /* \"CallerOtherContract.sol\":170:335  function getX(address _test) external view returns(uint){... */\n      tag_15\n        /* \"#utility.yul\":1037:1214   */\n      jump\n        /* \"CallerOtherContract.sol\":343:475  function setXAndSendEther(TestContract _test,uint _x) external payable{... */\n    tag_9:\n        /* \"CallerOtherContract.sol\":424:467  _test.setXandSendEther{value:msg.value}(_x) */\n      mload(0x40)\n      shl(0xe1, 0x66e1183b)\n      dup2\n      mstore\n      0x04\n      dup2\n      add\n        /* \"#utility.yul\":1183:1208   */\n      dup3\n      swap1\n      mstore\n      sub(shl(0xa0, 0x01), 0x01)\n        /* \"CallerOtherContract.sol\":424:446  _test.setXandSendEther */\n      dup4\n      and\n      swap1\n      0xcdc23076\n      swap1\n        /* \"CallerOtherContract.sol\":453:462  msg.value */\n      callvalue\n      swap1\n        /* \"#utility.yul\":1156:1174   */\n      0x24\n      add\n        /* \"CallerOtherContract.sol\":424:467  _test.setXandSendEther{value:msg.value}(_x) */\n      0x40\n      dup1\n      mload\n      dup1\n      dup4\n      sub\n      dup2\n      dup6\n      dup9\n      gas\n      call\n      iszero\n      dup1\n      iszero\n      tag_30\n      jumpi\n      returndatasize\n      0x00\n      dup1\n      returndatacopy\n      revert(0x00, returndatasize)\n    tag_30:\n      pop\n      pop\n      pop\n      pop\n      pop\n      mload(0x40)\n      returndatasize\n      not(0x1f)\n      0x1f\n      dup3\n      add\n      and\n      dup3\n      add\n      dup1\n      0x40\n      mstore\n      pop\n      dup2\n      add\n      swap1\n      tag_31\n      swap2\n      swap1\n      tag_32\n      jump\t// in\n    tag_31:\n      pop\n      pop\n        /* \"CallerOtherContract.sol\":343:475  function setXAndSendEther(TestContract _test,uint _x) external payable{... */\n      pop\n      pop\n      jump\t// out\n        /* \"CallerOtherContract.sol\":483:653  function getXandValue(address _test) external view returns(uint,uint){... */\n    tag_14:\n        /* \"CallerOtherContract.sol\":542:546  uint */\n      0x00\n        /* \"CallerOtherContract.sol\":547:551  uint */\n      dup1\n        /* \"CallerOtherContract.sol\":564:570  uint x */\n      0x00\n        /* \"CallerOtherContract.sol\":571:581  uint value */\n      dup1\n        /* \"CallerOtherContract.sol\":597:602  _test */\n      dup5\n      sub(shl(0xa0, 0x01), 0x01)\n        /* \"CallerOtherContract.sol\":584:616  TestContract(_test).getXandValue */\n      and\n      0xd6c7a3be\n        /* \"CallerOtherContract.sol\":584:618  TestContract(_test).getXandValue() */\n      mload(0x40)\n      dup2\n      0xffffffff\n      and\n      0xe0\n      shl\n      dup2\n      mstore\n      0x04\n      add\n      0x40\n      dup1\n      mload\n      dup1\n      dup4\n      sub\n      dup2\n      dup7\n      gas\n      staticcall\n      iszero\n      dup1\n      iszero\n      tag_35\n      jumpi\n      returndatasize\n      0x00\n      dup1\n      returndatacopy\n      revert(0x00, returndatasize)\n    tag_35:\n      pop\n      pop\n      pop\n      pop\n      mload(0x40)\n      returndatasize\n      not(0x1f)\n      0x1f\n      dup3\n      add\n      and\n      dup3\n      add\n      dup1\n      0x40\n      mstore\n      pop\n      dup2\n      add\n      swap1\n      tag_36\n      swap2\n      swap1\n      tag_32\n      jump\t// in\n    tag_36:\n        /* \"CallerOtherContract.sol\":563:618  (uint x,uint value)= TestContract(_test).getXandValue() */\n      swap1\n      swap7\n      swap1\n      swap6\n      pop\n        /* \"CallerOtherContract.sol\":483:653  function getXandValue(address _test) external view returns(uint,uint){... */\n      swap4\n      pop\n      pop\n      pop\n      pop\n      jump\t// out\n        /* \"CallerOtherContract.sol\":80:164  function setX(TestContract _test,uint _x) external {... */\n    tag_20:\n        /* \"CallerOtherContract.sol\":142:156  _test.setX(_x) */\n      mload(0x40)\n      shl(0xe1, 0x200c6cd5)\n      dup2\n      mstore\n      0x04\n      dup2\n      add\n        /* \"#utility.yul\":1183:1208   */\n      dup3\n      swap1\n      mstore\n      sub(shl(0xa0, 0x01), 0x01)\n        /* \"CallerOtherContract.sol\":142:152  _test.setX */\n      dup4\n      and\n      swap1\n      0x4018d9aa\n      swap1\n        /* \"#utility.yul\":1156:1174   */\n      0x24\n      add\n        /* \"CallerOtherContract.sol\":142:156  _test.setX(_x) */\n      0x20\n      mload(0x40)\n      dup1\n      dup4\n      sub\n      dup2\n      0x00\n      dup8\n      gas\n      call\n      iszero\n      dup1\n      iszero\n      tag_40\n      jumpi\n      returndatasize\n      0x00\n      dup1\n      returndatacopy\n      revert(0x00, returndatasize)\n    tag_40:\n      pop\n      pop\n      pop\n      pop\n      mload(0x40)\n      returndatasize\n      not(0x1f)\n      0x1f\n      dup3\n      add\n      and\n      dup3\n      add\n      dup1\n      0x40\n      mstore\n      pop\n      dup2\n      add\n      swap1\n      tag_41\n      swap2\n      swap1\n      tag_42\n      jump\t// in\n    tag_41:\n      pop\n        /* \"CallerOtherContract.sol\":80:164  function setX(TestContract _test,uint _x) external {... */\n      pop\n      pop\n      jump\t// out\n        /* \"CallerOtherContract.sol\":170:335  function getX(address _test) external view returns(uint){... */\n    tag_24:\n        /* \"CallerOtherContract.sol\":221:225  uint */\n      0x00\n        /* \"CallerOtherContract.sol\":274:280  uint x */\n      dup1\n        /* \"CallerOtherContract.sol\":295:300  _test */\n      dup3\n      sub(shl(0xa0, 0x01), 0x01)\n        /* \"CallerOtherContract.sol\":282:306  TestContract(_test).getX */\n      and\n      0x5197c7aa\n        /* \"CallerOtherContract.sol\":282:308  TestContract(_test).getX() */\n      mload(0x40)\n      dup2\n      0xffffffff\n      and\n      0xe0\n      shl\n      dup2\n      mstore\n      0x04\n      add\n      0x20\n      mload(0x40)\n      dup1\n      dup4\n      sub\n      dup2\n      dup7\n      gas\n      staticcall\n      iszero\n      dup1\n      iszero\n      tag_45\n      jumpi\n      returndatasize\n      0x00\n      dup1\n      returndatacopy\n      revert(0x00, returndatasize)\n    tag_45:\n      pop\n      pop\n      pop\n      pop\n      mload(0x40)\n      returndatasize\n      not(0x1f)\n      0x1f\n      dup3\n      add\n      and\n      dup3\n      add\n      dup1\n      0x40\n      mstore\n      pop\n      dup2\n      add\n      swap1\n      tag_46\n      swap2\n      swap1\n      tag_42\n      jump\t// in\n    tag_46:\n        /* \"CallerOtherContract.sol\":274:308  uint x= TestContract(_test).getX() */\n      swap4\n        /* \"CallerOtherContract.sol\":170:335  function getX(address _test) external view returns(uint){... */\n      swap3\n      pop\n      pop\n      pop\n      jump\t// out\n        /* \"#utility.yul\":14:159   */\n    tag_47:\n      sub(shl(0xa0, 0x01), 0x01)\n        /* \"#utility.yul\":103:134   */\n      dup2\n      and\n        /* \"#utility.yul\":93:135   */\n      dup2\n      eq\n        /* \"#utility.yul\":83:153   */\n      tag_50\n      jumpi\n        /* \"#utility.yul\":149:150   */\n      0x00\n        /* \"#utility.yul\":146:147   */\n      dup1\n        /* \"#utility.yul\":139:151   */\n      revert\n        /* \"#utility.yul\":83:153   */\n    tag_50:\n        /* \"#utility.yul\":14:159   */\n      pop\n      jump\t// out\n        /* \"#utility.yul\":164:513   */\n    tag_8:\n        /* \"#utility.yul\":252:258   */\n      0x00\n        /* \"#utility.yul\":260:266   */\n      dup1\n        /* \"#utility.yul\":313:315   */\n      0x40\n        /* \"#utility.yul\":301:310   */\n      dup4\n        /* \"#utility.yul\":292:299   */\n      dup6\n        /* \"#utility.yul\":288:311   */\n      sub\n        /* \"#utility.yul\":284:316   */\n      slt\n        /* \"#utility.yul\":281:333   */\n      iszero\n      tag_52\n      jumpi\n        /* \"#utility.yul\":329:330   */\n      0x00\n        /* \"#utility.yul\":326:327   */\n      dup1\n        /* \"#utility.yul\":319:331   */\n      revert\n        /* \"#utility.yul\":281:333   */\n    tag_52:\n        /* \"#utility.yul\":368:377   */\n      dup3\n        /* \"#utility.yul\":355:378   */\n      calldataload\n        /* \"#utility.yul\":387:432   */\n      tag_53\n        /* \"#utility.yul\":426:431   */\n      dup2\n        /* \"#utility.yul\":387:432   */\n      tag_47\n      jump\t// in\n    tag_53:\n        /* \"#utility.yul\":451:456   */\n      swap5\n        /* \"#utility.yul\":503:505   */\n      0x20\n        /* \"#utility.yul\":488:506   */\n      swap4\n      swap1\n      swap4\n      add\n        /* \"#utility.yul\":475:507   */\n      calldataload\n      swap4\n      pop\n      pop\n      pop\n        /* \"#utility.yul\":164:513   */\n      jump\t// out\n        /* \"#utility.yul\":518:779   */\n    tag_13:\n        /* \"#utility.yul\":577:583   */\n      0x00\n        /* \"#utility.yul\":630:632   */\n      0x20\n        /* \"#utility.yul\":618:627   */\n      dup3\n        /* \"#utility.yul\":609:616   */\n      dup5\n        /* \"#utility.yul\":605:628   */\n      sub\n        /* \"#utility.yul\":601:633   */\n      slt\n        /* \"#utility.yul\":598:650   */\n      iszero\n      tag_55\n      jumpi\n        /* \"#utility.yul\":646:647   */\n      0x00\n        /* \"#utility.yul\":643:644   */\n      dup1\n        /* \"#utility.yul\":636:648   */\n      revert\n        /* \"#utility.yul\":598:650   */\n    tag_55:\n        /* \"#utility.yul\":685:694   */\n      dup2\n        /* \"#utility.yul\":672:695   */\n      calldataload\n        /* \"#utility.yul\":704:749   */\n      tag_46\n        /* \"#utility.yul\":743:748   */\n      dup2\n        /* \"#utility.yul\":704:749   */\n      tag_47\n      jump\t// in\n        /* \"#utility.yul\":1219:1562   */\n    tag_32:\n        /* \"#utility.yul\":1298:1304   */\n      0x00\n        /* \"#utility.yul\":1306:1312   */\n      dup1\n        /* \"#utility.yul\":1359:1361   */\n      0x40\n        /* \"#utility.yul\":1347:1356   */\n      dup4\n        /* \"#utility.yul\":1338:1345   */\n      dup6\n        /* \"#utility.yul\":1334:1357   */\n      sub\n        /* \"#utility.yul\":1330:1362   */\n      slt\n        /* \"#utility.yul\":1327:1379   */\n      iszero\n      tag_60\n      jumpi\n        /* \"#utility.yul\":1375:1376   */\n      0x00\n        /* \"#utility.yul\":1372:1373   */\n      dup1\n        /* \"#utility.yul\":1365:1377   */\n      revert\n        /* \"#utility.yul\":1327:1379   */\n    tag_60:\n      pop\n      pop\n        /* \"#utility.yul\":1420:1436   */\n      dup1\n      mload\n        /* \"#utility.yul\":1526:1528   */\n      0x20\n        /* \"#utility.yul\":1511:1529   */\n      swap1\n      swap2\n      add\n        /* \"#utility.yul\":1505:1530   */\n      mload\n        /* \"#utility.yul\":1420:1436   */\n      swap1\n      swap3\n        /* \"#utility.yul\":1505:1530   */\n      swap1\n      swap2\n      pop\n        /* \"#utility.yul\":1219:1562   */\n      jump\t// out\n        /* \"#utility.yul\":1567:1797   */\n    tag_42:\n        /* \"#utility.yul\":1637:1643   */\n      0x00\n        /* \"#utility.yul\":1690:1692   */\n      0x20\n        /* \"#utility.yul\":1678:1687   */\n      dup3\n        /* \"#utility.yul\":1669:1676   */\n      dup5\n        /* \"#utility.yul\":1665:1688   */\n      sub\n        /* \"#utility.yul\":1661:1693   */\n      slt\n        /* \"#utility.yul\":1658:1710   */\n      iszero\n      tag_62\n      jumpi\n        /* \"#utility.yul\":1706:1707   */\n      0x00\n        /* \"#utility.yul\":1703:1704   */\n      dup1\n        /* \"#utility.yul\":1696:1708   */\n      revert\n        /* \"#utility.yul\":1658:1710   */\n    tag_62:\n      pop\n        /* \"#utility.yul\":1751:1767   */\n      mload\n      swap2\n        /* \"#utility.yul\":1567:1797   */\n      swap1\n      pop\n      jump\t// out\n\n    auxdata: 0xa26469706673582212205ff20f6d9e1744764a545297eb7d2776f01121e7422eb22fdb5b46ec998cbea964736f6c634300081a0033\n}\n",
				"bytecode": {
					"linkReferences": {},
					"object": "6080604052348015600e575f80fd5b5061035c8061001c5f395ff3fe60806040526004361061003e575f3560e01c806327a9f4741461004257806337e2621b146100575780634a2ad99f146100905780637c94c8ca146100af575b5f80fd5b6100556100503660046102a8565b6100dc565b005b348015610062575f80fd5b506100766100713660046102d2565b61014c565b604080519283526020830191909152015b60405180910390f35b34801561009b575f80fd5b506100556100aa3660046102a8565b6101bb565b3480156100ba575f80fd5b506100ce6100c93660046102d2565b610228565b604051908152602001610087565b6040516366e1183b60e11b8152600481018290526001600160a01b0383169063cdc23076903490602401604080518083038185885af1158015610121573d5f803e3d5ffd5b50505050506040513d601f19601f8201168201806040525081019061014691906102ed565b50505050565b5f805f80846001600160a01b031663d6c7a3be6040518163ffffffff1660e01b81526004016040805180830381865afa15801561018b573d5f803e3d5ffd5b505050506040513d601f19601f820116820180604052508101906101af91906102ed565b90969095509350505050565b60405163200c6cd560e11b8152600481018290526001600160a01b03831690634018d9aa906024016020604051808303815f875af11580156101ff573d5f803e3d5ffd5b505050506040513d601f19601f82011682018060405250810190610223919061030f565b505050565b5f80826001600160a01b0316635197c7aa6040518163ffffffff1660e01b8152600401602060405180830381865afa158015610266573d5f803e3d5ffd5b505050506040513d601f19601f8201168201806040525081019061028a919061030f565b9392505050565b6001600160a01b03811681146102a5575f80fd5b50565b5f80604083850312156102b9575f80fd5b82356102c481610291565b946020939093013593505050565b5f602082840312156102e2575f80fd5b813561028a81610291565b5f80604083850312156102fe575f80fd5b505080516020909101519092909150565b5f6020828403121561031f575f80fd5b505191905056fea26469706673582212205ff20f6d9e1744764a545297eb7d2776f01121e7422eb22fdb5b46ec998cbea964736f6c634300081a0033",
					"opcodes": "PUSH1 0x80 PUSH1 0x40 MSTORE CALLVALUE DUP1 ISZERO PUSH1 0xE JUMPI PUSH0 DUP1 REVERT JUMPDEST POP PUSH2 0x35C DUP1 PUSH2 0x1C PUSH0 CODECOPY PUSH0 RETURN INVALID PUSH1 0x80 PUSH1 0x40 MSTORE PUSH1 0x4 CALLDATASIZE LT PUSH2 0x3E JUMPI PUSH0 CALLDATALOAD PUSH1 0xE0 SHR DUP1 PUSH4 0x27A9F474 EQ PUSH2 0x42 JUMPI DUP1 PUSH4 0x37E2621B EQ PUSH2 0x57 JUMPI DUP1 PUSH4 0x4A2AD99F EQ PUSH2 0x90 JUMPI DUP1 PUSH4 0x7C94C8CA EQ PUSH2 0xAF JUMPI JUMPDEST PUSH0 DUP1 REVERT JUMPDEST PUSH2 0x55 PUSH2 0x50 CALLDATASIZE PUSH1 0x4 PUSH2 0x2A8 JUMP JUMPDEST PUSH2 0xDC JUMP JUMPDEST STOP JUMPDEST CALLVALUE DUP1 ISZERO PUSH2 0x62 JUMPI PUSH0 DUP1 REVERT JUMPDEST POP PUSH2 0x76 PUSH2 0x71 CALLDATASIZE PUSH1 0x4 PUSH2 0x2D2 JUMP JUMPDEST PUSH2 0x14C JUMP JUMPDEST PUSH1 0x40 DUP1 MLOAD SWAP3 DUP4 MSTORE PUSH1 0x20 DUP4 ADD SWAP2 SWAP1 SWAP2 MSTORE ADD JUMPDEST PUSH1 0x40 MLOAD DUP1 SWAP2 SUB SWAP1 RETURN JUMPDEST CALLVALUE DUP1 ISZERO PUSH2 0x9B JUMPI PUSH0 DUP1 REVERT JUMPDEST POP PUSH2 0x55 PUSH2 0xAA CALLDATASIZE PUSH1 0x4 PUSH2 0x2A8 JUMP JUMPDEST PUSH2 0x1BB JUMP JUMPDEST CALLVALUE DUP1 ISZERO PUSH2 0xBA JUMPI PUSH0 DUP1 REVERT JUMPDEST POP PUSH2 0xCE PUSH2 0xC9 CALLDATASIZE PUSH1 0x4 PUSH2 0x2D2 JUMP JUMPDEST PUSH2 0x228 JUMP JUMPDEST PUSH1 0x40 MLOAD SWAP1 DUP2 MSTORE PUSH1 0x20 ADD PUSH2 0x87 JUMP JUMPDEST PUSH1 0x40 MLOAD PUSH4 0x66E1183B PUSH1 0xE1 SHL DUP2 MSTORE PUSH1 0x4 DUP2 ADD DUP3 SWAP1 MSTORE PUSH1 0x1 PUSH1 0x1 PUSH1 0xA0 SHL SUB DUP4 AND SWAP1 PUSH4 0xCDC23076 SWAP1 CALLVALUE SWAP1 PUSH1 0x24 ADD PUSH1 0x40 DUP1 MLOAD DUP1 DUP4 SUB DUP2 DUP6 DUP9 GAS CALL ISZERO DUP1 ISZERO PUSH2 0x121 JUMPI RETURNDATASIZE PUSH0 DUP1 RETURNDATACOPY RETURNDATASIZE PUSH0 REVERT JUMPDEST POP POP POP POP POP PUSH1 0x40 MLOAD RETURNDATASIZE PUSH1 0x1F NOT PUSH1 0x1F DUP3 ADD AND DUP3 ADD DUP1 PUSH1 0x40 MSTORE POP DUP2 ADD SWAP1 PUSH2 0x146 SWAP2 SWAP1 PUSH2 0x2ED JUMP JUMPDEST POP POP POP POP JUMP JUMPDEST PUSH0 DUP1 PUSH0 DUP1 DUP5 PUSH1 0x1 PUSH1 0x1 PUSH1 0xA0 SHL SUB AND PUSH4 0xD6C7A3BE PUSH1 0x40 MLOAD DUP2 PUSH4 0xFFFFFFFF AND PUSH1 0xE0 SHL DUP2 MSTORE PUSH1 0x4 ADD PUSH1 0x40 DUP1 MLOAD DUP1 DUP4 SUB DUP2 DUP7 GAS STATICCALL ISZERO DUP1 ISZERO PUSH2 0x18B JUMPI RETURNDATASIZE PUSH0 DUP1 RETURNDATACOPY RETURNDATASIZE PUSH0 REVERT JUMPDEST POP POP POP POP PUSH1 0x40 MLOAD RETURNDATASIZE PUSH1 0x1F NOT PUSH1 0x1F DUP3 ADD AND DUP3 ADD DUP1 PUSH1 0x40 MSTORE POP DUP2 ADD SWAP1 PUSH2 0x1AF SWAP2 SWAP1 PUSH2 0x2ED JUMP JUMPDEST SWAP1 SWAP7 SWAP1 SWAP6 POP SWAP4 POP POP POP POP JUMP JUMPDEST PUSH1 0x40 MLOAD PUSH4 0x200C6CD5 PUSH1 0xE1 SHL DUP2 MSTORE PUSH1 0x4 DUP2 ADD DUP3 SWAP1 MSTORE PUSH1 0x1 PUSH1 0x1 PUSH1 0xA0 SHL SUB DUP4 AND SWAP1 PUSH4 0x4018D9AA SWAP1 PUSH1 0x24 ADD PUSH1 0x20 PUSH1 0x40 MLOAD DUP1 DUP4 SUB DUP2 PUSH0 DUP8 GAS CALL ISZERO DUP1 ISZERO PUSH2 0x1FF JUMPI RETURNDATASIZE PUSH0 DUP1 RETURNDATACOPY RETURNDATASIZE PUSH0 REVERT JUMPDEST POP POP POP POP PUSH1 0x40 MLOAD RETURNDATASIZE PUSH1 0x1F NOT PUSH1 0x1F DUP3 ADD AND DUP3 ADD DUP1 PUSH1 0x40 MSTORE POP DUP2 ADD SWAP1 PUSH2 0x223 SWAP2 SWAP1 PUSH2 0x30F JUMP JUMPDEST POP POP POP JUMP JUMPDEST PUSH0 DUP1 DUP3 PUSH1 0x1 PUSH1 0x1 PUSH1 0xA0 SHL SUB AND PUSH4 0x5197C7AA PUSH1 0x40 MLOAD DUP2 PUSH4 0xFFFFFFFF AND PUSH1 0xE0 SHL DUP2 MSTORE PUSH1 0x4 ADD PUSH1 0x20 PUSH1 0x40 MLOAD DUP1 DUP4 SUB DUP2 DUP7 GAS STATICCALL ISZERO DUP1 ISZERO PUSH2 0x266 JUMPI RETURNDATASIZE PUSH0 DUP1 RETURNDATACOPY RETURNDATASIZE PUSH0 REVERT JUMPDEST POP POP POP POP PUSH1 0x40 MLOAD RETURNDATASIZE PUSH1 0x1F NOT PUSH1 0x1F DUP3 ADD AND DUP3 ADD DUP1 PUSH1 0x40 MSTORE POP DUP2 ADD SWAP1 PUSH2 0x28A SWAP2 SWAP1 PUSH2 0x30F JUMP JUMPDEST SWAP4 SWAP3 POP POP POP JUMP JUMPDEST PUSH1 0x1 PUSH1 0x1 PUSH1 0xA0 SHL SUB DUP2 AND DUP2 EQ PUSH2 0x2A5 JUMPI PUSH0 DUP1 REVERT JUMPDEST POP JUMP JUMPDEST PUSH0 DUP1 PUSH1 0x40 DUP4 DUP6 SUB SLT ISZERO PUSH2 0x2B9 JUMPI PUSH0 DUP1 REVERT JUMPDEST DUP3 CALLDATALOAD PUSH2 0x2C4 DUP2 PUSH2 0x291 JUMP JUMPDEST SWAP5 PUSH1 0x20 SWAP4 SWAP1 SWAP4 ADD CALLDATALOAD SWAP4 POP POP POP JUMP JUMPDEST PUSH0 PUSH1 0x20 DUP3 DUP5 SUB SLT ISZERO PUSH2 0x2E2 JUMPI PUSH0 DUP1 REVERT JUMPDEST DUP2 CALLDATALOAD PUSH2 0x28A DUP2 PUSH2 0x291 JUMP JUMPDEST PUSH0 DUP1 PUSH1 0x40 DUP4 DUP6 SUB SLT ISZERO PUSH2 0x2FE JUMPI PUSH0 DUP1 REVERT JUMPDEST POP POP DUP1 MLOAD PUSH1 0x20 SWAP1 SWAP2 ADD MLOAD SWAP1 SWAP3 SWAP1 SWAP2 POP JUMP JUMPDEST PUSH0 PUSH1 0x20 DUP3 DUP5 SUB SLT ISZERO PUSH2 0x31F JUMPI PUSH0 DUP1 REVERT JUMPDEST POP MLOAD SWAP2 SWAP1 POP JUMP INVALID LOG2 PUSH5 0x6970667358 0x22 SLT KECCAK256 PUSH0 CALLCODE 0xF PUSH14 0x9E1744764A545297EB7D2776F011 0x21 0xE7 TIMESTAMP 0x2E 0xB2 0x2F 0xDB JUMPDEST CHAINID 0xEC SWAP10 DUP13 0xBE 0xA9 PUSH5 0x736F6C6343 STOP ADDMOD BYTE STOP CALLER "
				},
				"gasEstimates": {
					"creation": {
						"codeDepositCost": "172000",
						"executionCost": "212",
						"totalCost": "172212"
					},
					"external": {
						"getX(address)": "infinite",
						"getXandValue(address)": "infinite",
						"setX(address,uint256)": "infinite",
						"setXAndSendEther(address,uint256)": "infinite"
					}
				},
				"methodIdentifiers": {
					"getX(address)": "7c94c8ca",
					"getXandValue(address)": "37e2621b",
					"setX(address,uint256)": "4a2ad99f",
					"setXAndSendEther(address,uint256)": "27a9f474"
				}
			},
			"storageLayout": {
				"storage": [],
				"types": null
			},
			"userdoc": {
				"kind": "user",
				"methods": {},
				"version": 1
			}
		}
	}
}