{
	"Library.sol": {
		"TestArray": {
			"abi": [
				{
					"inputs": [
						{
							"internalType": "uint256",
							"name": "",
							"type": "uint256"
						}
					],
					"name": "arr",
					"outputs": [
						{
							"internalType": "uint256",
							"name": "",
							"type": "uint256"
						}
					],
					"stateMutability": "view",
					"type": "function"
				},
				{
					"inputs": [
						{
							"internalType": "uint256",
							"name": "index",
							"type": "uint256"
						}
					],
					"name": "testFind",
					"outputs": [
						{
							"internalType": "uint256",
							"name": "i",
							"type": "uint256"
						}
					],
					"stateMutability": "view",
					"type": "function"
				},
				{
					"inputs": [
						{
							"internalType": "uint256",
							"name": "index",
							"type": "uint256"
						}
					],
					"name": "testFind2",
					"outputs": [
						{
							"internalType": "uint256",
							"name": "i",
							"type": "uint256"
						}
					],
					"stateMutability": "view",
					"type": "function"
				}
			],
			"devdoc": {
				"kind": "dev",
				"methods": {},
				"version": 1
			},
			"evm": {
				"assembly": "    /* \"Library.sol\":911:936  uint[] public arr=[3,2,1] */\n  0xe0\n    /* \"Library.sol\":822:1172  contract TestArray{... */\n  0x40\n    /* \"Library.sol\":911:936  uint[] public arr=[3,2,1] */\n  mstore\n    /* \"Library.sol\":930:931  3 */\n  0x03\n    /* \"Library.sol\":822:1172  contract TestArray{... */\n  0x80\n    /* \"Library.sol\":911:936  uint[] public arr=[3,2,1] */\n  dup2\n  dup2\n  mstore\n    /* \"Library.sol\":932:933  2 */\n  0x02\n    /* \"Library.sol\":911:936  uint[] public arr=[3,2,1] */\n  0xa0\n  mstore\n    /* \"Library.sol\":934:935  1 */\n  0x01\n    /* \"Library.sol\":911:936  uint[] public arr=[3,2,1] */\n  0xc0\n  mstore\n  tag_1\n  swap2\n  0x00\n  swap2\n    /* \"Library.sol\":822:1172  contract TestArray{... */\n  swap1\n    /* \"Library.sol\":911:936  uint[] public arr=[3,2,1] */\n  tag_2\n  jump\t// in\ntag_1:\n  pop\n    /* \"Library.sol\":822:1172  contract TestArray{... */\n  callvalue\n  dup1\n  iszero\n  tag_3\n  jumpi\n  0x00\n  dup1\n  revert\ntag_3:\n  pop\n  jump(tag_4)\ntag_2:\n  dup3\n  dup1\n  sload\n  dup3\n  dup3\n  sstore\n  swap1\n  0x00\n  mstore\n  keccak256(0x00, 0x20)\n  swap1\n  dup2\n  add\n  swap3\n  dup3\n  iszero\n  tag_7\n  jumpi\n  swap2\n  0x20\n  mul\n  dup3\n  add\ntag_6:\n  dup3\n  dup2\n  gt\n  iszero\n  tag_7\n  jumpi\n  dup3\n  mload\n  dup3\n  swap1\n  0xff\n  and\n  swap1\n  sstore\n  swap2\n  0x20\n  add\n  swap2\n  swap1\n  0x01\n  add\n  swap1\n  jump(tag_6)\ntag_7:\n  pop\n  tag_8\n  swap3\n  swap2\n  pop\n  tag_9\n  jump\t// in\ntag_8:\n  pop\n  swap1\n  jump\t// out\ntag_9:\ntag_10:\n  dup1\n  dup3\n  gt\n  iszero\n  tag_8\n  jumpi\n  0x00\n  dup2\n  sstore\n  0x01\n  add\n  jump(tag_10)\ntag_4:\n  dataSize(sub_0)\n  dup1\n  dataOffset(sub_0)\n  0x00\n  codecopy\n  0x00\n  return\nstop\n\nsub_0: assembly {\n        /* \"Library.sol\":822:1172  contract TestArray{... */\n      mstore(0x40, 0x80)\n      callvalue\n      dup1\n      iszero\n      tag_1\n      jumpi\n      0x00\n      dup1\n      revert\n    tag_1:\n      pop\n      jumpi(tag_2, lt(calldatasize, 0x04))\n      shr(0xe0, calldataload(0x00))\n      dup1\n      0x1ae1420c\n      eq\n      tag_3\n      jumpi\n      dup1\n      0x71e5ee5f\n      eq\n      tag_4\n      jumpi\n      dup1\n      0x82ef9531\n      eq\n      tag_5\n      jumpi\n    tag_2:\n      0x00\n      dup1\n      revert\n        /* \"Library.sol\":945:1059  function testFind(uint index) external view returns(uint i){... */\n    tag_3:\n      tag_6\n      tag_7\n      calldatasize\n      0x04\n      tag_8\n      jump\t// in\n    tag_7:\n      tag_9\n      jump\t// in\n    tag_6:\n      mload(0x40)\n        /* \"#utility.yul\":345:370   */\n      swap1\n      dup2\n      mstore\n        /* \"#utility.yul\":333:335   */\n      0x20\n        /* \"#utility.yul\":318:336   */\n      add\n        /* \"Library.sol\":945:1059  function testFind(uint index) external view returns(uint i){... */\n      mload(0x40)\n      dup1\n      swap2\n      sub\n      swap1\n      return\n        /* \"Library.sol\":911:936  uint[] public arr=[3,2,1] */\n    tag_4:\n      tag_6\n      tag_13\n      calldatasize\n      0x04\n      tag_8\n      jump\t// in\n    tag_13:\n      tag_14\n      jump\t// in\n        /* \"Library.sol\":1067:1169  function testFind2(uint index) external view returns(uint i){... */\n    tag_5:\n      tag_6\n      tag_17\n      calldatasize\n      0x04\n      tag_8\n      jump\t// in\n    tag_17:\n      tag_18\n      jump\t// in\n        /* \"Library.sol\":945:1059  function testFind(uint index) external view returns(uint i){... */\n    tag_9:\n        /* \"Library.sol\":997:1003  uint i */\n      0x00\n        /* \"Library.sol\":1023:1051  ArrayLibrary.find(arr,index) */\n      tag_21\n        /* \"Library.sol\":1041:1044  arr */\n      0x00\n        /* \"Library.sol\":1045:1050  index */\n      dup4\n        /* \"Library.sol\":1023:1040  ArrayLibrary.find */\n      tag_22\n        /* \"Library.sol\":1023:1051  ArrayLibrary.find(arr,index) */\n      jump\t// in\n    tag_21:\n        /* \"Library.sol\":1015:1051  return  ArrayLibrary.find(arr,index) */\n      swap3\n        /* \"Library.sol\":945:1059  function testFind(uint index) external view returns(uint i){... */\n      swap2\n      pop\n      pop\n      jump\t// out\n        /* \"Library.sol\":911:936  uint[] public arr=[3,2,1] */\n    tag_14:\n      0x00\n      dup2\n      dup2\n      sload\n      dup2\n      lt\n      tag_23\n      jumpi\n      0x00\n      dup1\n      revert\n    tag_23:\n      0x00\n      swap2\n      dup3\n      mstore\n      0x20\n      swap1\n      swap2\n      keccak256\n      add\n      sload\n      swap1\n      pop\n      dup2\n      jump\t// out\n        /* \"Library.sol\":1067:1169  function testFind2(uint index) external view returns(uint i){... */\n    tag_18:\n        /* \"Library.sol\":1120:1126  uint i */\n      0x00\n        /* \"Library.sol\":1146:1161  arr.find(index) */\n      tag_21\n        /* \"Library.sol\":1120:1126  uint i */\n      dup2\n        /* \"Library.sol\":1155:1160  index */\n      dup4\n        /* \"Library.sol\":581:815  function find(uint[] storage arr,uint x) internal view returns (uint){... */\n    tag_22:\n        /* \"Library.sol\":645:649  uint */\n      0x00\n      dup1\n        /* \"Library.sol\":661:778  for (uint i = 0;i<arr.length;i++) {... */\n    tag_28:\n        /* \"Library.sol\":679:689  arr.length */\n      dup4\n      sload\n        /* \"Library.sol\":677:689  i<arr.length */\n      dup2\n      lt\n        /* \"Library.sol\":661:778  for (uint i = 0;i<arr.length;i++) {... */\n      iszero\n      tag_29\n      jumpi\n        /* \"Library.sol\":722:723  x */\n      dup3\n        /* \"Library.sol\":714:717  arr */\n      dup5\n        /* \"Library.sol\":718:719  i */\n      dup3\n        /* \"Library.sol\":714:720  arr[i] */\n      dup2\n      sload\n      dup2\n      lt\n      tag_32\n      jumpi\n      tag_32\n      tag_33\n      jump\t// in\n    tag_32:\n      swap1\n      0x00\n      mstore\n      keccak256(0x00, 0x20)\n      add\n      sload\n        /* \"Library.sol\":714:723  arr[i]==x */\n      sub\n        /* \"Library.sol\":710:767  if (arr[i]==x){... */\n      tag_35\n      jumpi\n        /* \"Library.sol\":750:751  i */\n      swap1\n      pop\n        /* \"Library.sol\":743:751  return i */\n      jump(tag_21)\n        /* \"Library.sol\":710:767  if (arr[i]==x){... */\n    tag_35:\n        /* \"Library.sol\":690:693  i++ */\n      0x01\n      add\n        /* \"Library.sol\":661:778  for (uint i = 0;i<arr.length;i++) {... */\n      jump(tag_28)\n    tag_29:\n      pop\n        /* \"Library.sol\":788:807  revert(\"not found\") */\n      mload(0x40)\n      shl(0xe5, 0x461bcd)\n      dup2\n      mstore\n        /* \"#utility.yul\":715:717   */\n      0x20\n        /* \"Library.sol\":788:807  revert(\"not found\") */\n      0x04\n      dup3\n      add\n        /* \"#utility.yul\":697:718   */\n      mstore\n        /* \"#utility.yul\":754:755   */\n      0x09\n        /* \"#utility.yul\":734:752   */\n      0x24\n      dup3\n      add\n        /* \"#utility.yul\":727:756   */\n      mstore\n      shl(0xba, 0x1b9bdd08199bdd5b99)\n        /* \"#utility.yul\":772:790   */\n      0x44\n      dup3\n      add\n        /* \"#utility.yul\":765:804   */\n      mstore\n        /* \"#utility.yul\":821:839   */\n      0x64\n      add\n        /* \"Library.sol\":788:807  revert(\"not found\") */\n      mload(0x40)\n      dup1\n      swap2\n      sub\n      swap1\n      revert\n        /* \"#utility.yul\":14:194   */\n    tag_8:\n        /* \"#utility.yul\":73:79   */\n      0x00\n        /* \"#utility.yul\":126:128   */\n      0x20\n        /* \"#utility.yul\":114:123   */\n      dup3\n        /* \"#utility.yul\":105:112   */\n      dup5\n        /* \"#utility.yul\":101:124   */\n      sub\n        /* \"#utility.yul\":97:129   */\n      slt\n        /* \"#utility.yul\":94:146   */\n      iszero\n      tag_40\n      jumpi\n        /* \"#utility.yul\":142:143   */\n      0x00\n        /* \"#utility.yul\":139:140   */\n      dup1\n        /* \"#utility.yul\":132:144   */\n      revert\n        /* \"#utility.yul\":94:146   */\n    tag_40:\n      pop\n        /* \"#utility.yul\":165:188   */\n      calldataload\n      swap2\n        /* \"#utility.yul\":14:194   */\n      swap1\n      pop\n      jump\t// out\n        /* \"#utility.yul\":381:508   */\n    tag_33:\n        /* \"#utility.yul\":442:452   */\n      0x4e487b71\n        /* \"#utility.yul\":437:440   */\n      0xe0\n        /* \"#utility.yul\":433:453   */\n      shl\n        /* \"#utility.yul\":430:431   */\n      0x00\n        /* \"#utility.yul\":423:454   */\n      mstore\n        /* \"#utility.yul\":473:477   */\n      0x32\n        /* \"#utility.yul\":470:471   */\n      0x04\n        /* \"#utility.yul\":463:478   */\n      mstore\n        /* \"#utility.yul\":497:501   */\n      0x24\n        /* \"#utility.yul\":494:495   */\n      0x00\n        /* \"#utility.yul\":487:502   */\n      revert\n\n    auxdata: 0xa26469706673582212206048ede0d483e5a652f8901af2289f4c4d67017e1c9f1752887fdb2e5d66272764736f6c634300081a0033\n}\n",
				"bytecode": {
					"linkReferences": {},
					"object": "60e060405260036080818152600260a052600160c052601f915f9190602f565b50348015602a575f80fd5b50608a565b828054828255905f5260205f20908101928215606a579160200282015b82811115606a578251829060ff16905591602001919060010190604c565b5060749291506078565b5090565b5b808211156074575f81556001016079565b61019a806100975f395ff3fe608060405234801561000f575f80fd5b506004361061003f575f3560e01c80631ae1420c1461004357806371e5ee5f1461006857806382ef95311461007b575b5f80fd5b610056610051366004610139565b61008e565b60405190815260200160405180910390f35b610056610076366004610139565b61009f565b610056610089366004610139565b6100bd565b5f6100995f836100c4565b92915050565b5f81815481106100ad575f80fd5b5f91825260209091200154905081565b5f61009981835b5f805b835481101561010057828482815481106100e3576100e3610150565b905f5260205f200154036100f8579050610099565b6001016100c7565b5060405162461bcd60e51b81526020600482015260096024820152681b9bdd08199bdd5b9960ba1b604482015260640160405180910390fd5b5f60208284031215610149575f80fd5b5035919050565b634e487b7160e01b5f52603260045260245ffdfea26469706673582212206048ede0d483e5a652f8901af2289f4c4d67017e1c9f1752887fdb2e5d66272764736f6c634300081a0033",
					"opcodes": "PUSH1 0xE0 PUSH1 0x40 MSTORE PUSH1 0x3 PUSH1 0x80 DUP2 DUP2 MSTORE PUSH1 0x2 PUSH1 0xA0 MSTORE PUSH1 0x1 PUSH1 0xC0 MSTORE PUSH1 0x1F SWAP2 PUSH0 SWAP2 SWAP1 PUSH1 0x2F JUMP JUMPDEST POP CALLVALUE DUP1 ISZERO PUSH1 0x2A JUMPI PUSH0 DUP1 REVERT JUMPDEST POP PUSH1 0x8A JUMP JUMPDEST DUP3 DUP1 SLOAD DUP3 DUP3 SSTORE SWAP1 PUSH0 MSTORE PUSH1 0x20 PUSH0 KECCAK256 SWAP1 DUP2 ADD SWAP3 DUP3 ISZERO PUSH1 0x6A JUMPI SWAP2 PUSH1 0x20 MUL DUP3 ADD JUMPDEST DUP3 DUP2 GT ISZERO PUSH1 0x6A JUMPI DUP3 MLOAD DUP3 SWAP1 PUSH1 0xFF AND SWAP1 SSTORE SWAP2 PUSH1 0x20 ADD SWAP2 SWAP1 PUSH1 0x1 ADD SWAP1 PUSH1 0x4C JUMP JUMPDEST POP PUSH1 0x74 SWAP3 SWAP2 POP PUSH1 0x78 JUMP JUMPDEST POP SWAP1 JUMP JUMPDEST JUMPDEST DUP1 DUP3 GT ISZERO PUSH1 0x74 JUMPI PUSH0 DUP2 SSTORE PUSH1 0x1 ADD PUSH1 0x79 JUMP JUMPDEST PUSH2 0x19A DUP1 PUSH2 0x97 PUSH0 CODECOPY PUSH0 RETURN INVALID PUSH1 0x80 PUSH1 0x40 MSTORE CALLVALUE DUP1 ISZERO PUSH2 0xF JUMPI PUSH0 DUP1 REVERT JUMPDEST POP PUSH1 0x4 CALLDATASIZE LT PUSH2 0x3F JUMPI PUSH0 CALLDATALOAD PUSH1 0xE0 SHR DUP1 PUSH4 0x1AE1420C EQ PUSH2 0x43 JUMPI DUP1 PUSH4 0x71E5EE5F EQ PUSH2 0x68 JUMPI DUP1 PUSH4 0x82EF9531 EQ PUSH2 0x7B JUMPI JUMPDEST PUSH0 DUP1 REVERT JUMPDEST PUSH2 0x56 PUSH2 0x51 CALLDATASIZE PUSH1 0x4 PUSH2 0x139 JUMP JUMPDEST PUSH2 0x8E JUMP JUMPDEST PUSH1 0x40 MLOAD SWAP1 DUP2 MSTORE PUSH1 0x20 ADD PUSH1 0x40 MLOAD DUP1 SWAP2 SUB SWAP1 RETURN JUMPDEST PUSH2 0x56 PUSH2 0x76 CALLDATASIZE PUSH1 0x4 PUSH2 0x139 JUMP JUMPDEST PUSH2 0x9F JUMP JUMPDEST PUSH2 0x56 PUSH2 0x89 CALLDATASIZE PUSH1 0x4 PUSH2 0x139 JUMP JUMPDEST PUSH2 0xBD JUMP JUMPDEST PUSH0 PUSH2 0x99 PUSH0 DUP4 PUSH2 0xC4 JUMP JUMPDEST SWAP3 SWAP2 POP POP JUMP JUMPDEST PUSH0 DUP2 DUP2 SLOAD DUP2 LT PUSH2 0xAD JUMPI PUSH0 DUP1 REVERT JUMPDEST PUSH0 SWAP2 DUP3 MSTORE PUSH1 0x20 SWAP1 SWAP2 KECCAK256 ADD SLOAD SWAP1 POP DUP2 JUMP JUMPDEST PUSH0 PUSH2 0x99 DUP2 DUP4 JUMPDEST PUSH0 DUP1 JUMPDEST DUP4 SLOAD DUP2 LT ISZERO PUSH2 0x100 JUMPI DUP3 DUP5 DUP3 DUP2 SLOAD DUP2 LT PUSH2 0xE3 JUMPI PUSH2 0xE3 PUSH2 0x150 JUMP JUMPDEST SWAP1 PUSH0 MSTORE PUSH1 0x20 PUSH0 KECCAK256 ADD SLOAD SUB PUSH2 0xF8 JUMPI SWAP1 POP PUSH2 0x99 JUMP JUMPDEST PUSH1 0x1 ADD PUSH2 0xC7 JUMP JUMPDEST POP PUSH1 0x40 MLOAD PUSH3 0x461BCD PUSH1 0xE5 SHL DUP2 MSTORE PUSH1 0x20 PUSH1 0x4 DUP3 ADD MSTORE PUSH1 0x9 PUSH1 0x24 DUP3 ADD MSTORE PUSH9 0x1B9BDD08199BDD5B99 PUSH1 0xBA SHL PUSH1 0x44 DUP3 ADD MSTORE PUSH1 0x64 ADD PUSH1 0x40 MLOAD DUP1 SWAP2 SUB SWAP1 REVERT JUMPDEST PUSH0 PUSH1 0x20 DUP3 DUP5 SUB SLT ISZERO PUSH2 0x149 JUMPI PUSH0 DUP1 REVERT JUMPDEST POP CALLDATALOAD SWAP2 SWAP1 POP JUMP JUMPDEST PUSH4 0x4E487B71 PUSH1 0xE0 SHL PUSH0 MSTORE PUSH1 0x32 PUSH1 0x4 MSTORE PUSH1 0x24 PUSH0 REVERT INVALID LOG2 PUSH5 0x6970667358 0x22 SLT KECCAK256 PUSH1 0x48 0xED 0xE0 0xD4 DUP4 0xE5 0xA6 MSTORE 0xF8 SWAP1 BYTE CALLCODE 0x28 SWAP16 0x4C 0x4D PUSH8 0x17E1C9F1752887F 0xDB 0x2E TSTORE PUSH7 0x272764736F6C63 NUMBER STOP ADDMOD BYTE STOP CALLER "
				},
				"gasEstimates": {
					"creation": {
						"codeDepositCost": "82000",
						"executionCost": "infinite",
						"totalCost": "infinite"
					},
					"external": {
						"arr(uint256)": "4559",
						"testFind(uint256)": "infinite",
						"testFind2(uint256)": "infinite"
					}
				},
				"methodIdentifiers": {
					"arr(uint256)": "71e5ee5f",
					"testFind(uint256)": "1ae1420c",
					"testFind2(uint256)": "82ef9531"
				}
			},
			"storageLayout": {
				"storage": [
					{
						"astId": 85,
						"contract": "Library.sol:TestArray",
						"label": "arr",
						"offset": 0,
						"slot": "0",
						"type": "t_array(t_uint256)dyn_storage"
					}
				],
				"types": {
					"t_array(t_uint256)dyn_storage": {
						"base": "t_uint256",
						"encoding": "dynamic_array",
						"label": "uint256[]",
						"numberOfBytes": "32"
					},
					"t_uint256": {
						"encoding": "inplace",
						"label": "uint256",
						"numberOfBytes": "32"
					}
				}
			},
			"userdoc": {
				"kind": "user",
				"methods": {},
				"version": 1
			}
		}
	}
}