{
	"Library.sol": {
		"Test": {
			"abi": [
				{
					"inputs": [
						{
							"internalType": "uint256",
							"name": "x",
							"type": "uint256"
						},
						{
							"internalType": "uint256",
							"name": "y",
							"type": "uint256"
						}
					],
					"name": "testMax",
					"outputs": [
						{
							"internalType": "uint256",
							"name": "",
							"type": "uint256"
						}
					],
					"stateMutability": "pure",
					"type": "function"
				}
			],
			"devdoc": {
				"kind": "dev",
				"methods": {},
				"version": 1
			},
			"evm": {
				"assembly": "    /* \"Library.sol\":326:454  contract Test{... */\n  mstore(0x40, 0x80)\n  callvalue\n  dup1\n  iszero\n  tag_1\n  jumpi\n  0x00\n  dup1\n  revert\ntag_1:\n  pop\n  dataSize(sub_0)\n  dup1\n  dataOffset(sub_0)\n  0x00\n  codecopy\n  0x00\n  return\nstop\n\nsub_0: assembly {\n        /* \"Library.sol\":326:454  contract Test{... */\n      mstore(0x40, 0x80)\n      callvalue\n      dup1\n      iszero\n      tag_1\n      jumpi\n      0x00\n      dup1\n      revert\n    tag_1:\n      pop\n      jumpi(tag_2, lt(calldatasize, 0x04))\n      shr(0xe0, calldataload(0x00))\n      dup1\n      0x834db421\n      eq\n      tag_3\n      jumpi\n    tag_2:\n      0x00\n      dup1\n      revert\n        /* \"Library.sol\":348:449  function testMax(uint x,uint y) external pure returns (uint) { ... */\n    tag_3:\n      tag_4\n      tag_5\n      calldatasize\n      0x04\n      tag_6\n      jump\t// in\n    tag_5:\n      tag_7\n      jump\t// in\n    tag_4:\n      mload(0x40)\n        /* \"#utility.yul\":511:536   */\n      swap1\n      dup2\n      mstore\n        /* \"#utility.yul\":499:501   */\n      0x20\n        /* \"#utility.yul\":484:502   */\n      add\n        /* \"Library.sol\":348:449  function testMax(uint x,uint y) external pure returns (uint) { ... */\n      mload(0x40)\n      dup1\n      swap2\n      sub\n      swap1\n      return\n    tag_7:\n        /* \"Library.sol\":403:407  uint */\n      0x00\n        /* \"Library.sol\":428:441  Math.max(x,y) */\n      tag_11\n        /* \"Library.sol\":437:438  x */\n      dup4\n        /* \"Library.sol\":439:440  y */\n      dup4\n        /* \"Library.sol\":428:436  Math.max */\n      tag_12\n        /* \"Library.sol\":428:441  Math.max(x,y) */\n      jump\t// in\n    tag_11:\n        /* \"Library.sol\":421:441  return Math.max(x,y) */\n      swap4\n        /* \"Library.sol\":348:449  function testMax(uint x,uint y) external pure returns (uint) { ... */\n      swap3\n      pop\n      pop\n      pop\n      jump\t// out\n        /* \"Library.sol\":223:319  function max(uint x,uint y) internal pure returns (uint){... */\n    tag_12:\n        /* \"Library.sol\":274:278  uint */\n      0x00\n        /* \"Library.sol\":302:303  y */\n      dup2\n        /* \"Library.sol\":297:298  x */\n      dup4\n        /* \"Library.sol\":297:303  x >= y */\n      lt\n      iszero\n        /* \"Library.sol\":297:311  x >= y ? x : y */\n      tag_14\n      jumpi\n        /* \"Library.sol\":310:311  y */\n      dup2\n        /* \"Library.sol\":297:311  x >= y ? x : y */\n      jump(tag_11)\n    tag_14:\n      pop\n        /* \"Library.sol\":306:307  x */\n      swap1\n      swap2\n        /* \"Library.sol\":223:319  function max(uint x,uint y) internal pure returns (uint){... */\n      swap1\n      pop\n      jump\t// out\n        /* \"#utility.yul\":14:360   */\n    tag_6:\n        /* \"#utility.yul\":82:88   */\n      0x00\n        /* \"#utility.yul\":90:96   */\n      dup1\n        /* \"#utility.yul\":143:145   */\n      0x40\n        /* \"#utility.yul\":131:140   */\n      dup4\n        /* \"#utility.yul\":122:129   */\n      dup6\n        /* \"#utility.yul\":118:141   */\n      sub\n        /* \"#utility.yul\":114:146   */\n      slt\n        /* \"#utility.yul\":111:163   */\n      iszero\n      tag_18\n      jumpi\n        /* \"#utility.yul\":159:160   */\n      0x00\n        /* \"#utility.yul\":156:157   */\n      dup1\n        /* \"#utility.yul\":149:161   */\n      revert\n        /* \"#utility.yul\":111:163   */\n    tag_18:\n      pop\n      pop\n        /* \"#utility.yul\":204:227   */\n      dup1\n      calldataload\n      swap3\n        /* \"#utility.yul\":324:326   */\n      0x20\n        /* \"#utility.yul\":309:327   */\n      swap1\n      swap2\n      add\n        /* \"#utility.yul\":296:328   */\n      calldataload\n      swap2\n      pop\n        /* \"#utility.yul\":14:360   */\n      jump\t// out\n\n    auxdata: 0xa2646970667358221220448ea57ba9d729aed1c43ecab06cd529ca6a5335cbb65d01585e3b43acda4c2d64736f6c634300081a0033\n}\n",
				"bytecode": {
					"linkReferences": {},
					"object": "6080604052348015600e575f80fd5b5060c480601a5f395ff3fe6080604052348015600e575f80fd5b50600436106026575f3560e01c8063834db42114602a575b5f80fd5b60396035366004606f565b604b565b60405190815260200160405180910390f35b5f60548383605b565b9392505050565b5f81831015606857816054565b5090919050565b5f8060408385031215607f575f80fd5b5050803592602090910135915056fea2646970667358221220448ea57ba9d729aed1c43ecab06cd529ca6a5335cbb65d01585e3b43acda4c2d64736f6c634300081a0033",
					"opcodes": "PUSH1 0x80 PUSH1 0x40 MSTORE CALLVALUE DUP1 ISZERO PUSH1 0xE JUMPI PUSH0 DUP1 REVERT JUMPDEST POP PUSH1 0xC4 DUP1 PUSH1 0x1A PUSH0 CODECOPY PUSH0 RETURN INVALID PUSH1 0x80 PUSH1 0x40 MSTORE CALLVALUE DUP1 ISZERO PUSH1 0xE JUMPI PUSH0 DUP1 REVERT JUMPDEST POP PUSH1 0x4 CALLDATASIZE LT PUSH1 0x26 JUMPI PUSH0 CALLDATALOAD PUSH1 0xE0 SHR DUP1 PUSH4 0x834DB421 EQ PUSH1 0x2A JUMPI JUMPDEST PUSH0 DUP1 REVERT JUMPDEST PUSH1 0x39 PUSH1 0x35 CALLDATASIZE PUSH1 0x4 PUSH1 0x6F JUMP JUMPDEST PUSH1 0x4B JUMP JUMPDEST PUSH1 0x40 MLOAD SWAP1 DUP2 MSTORE PUSH1 0x20 ADD PUSH1 0x40 MLOAD DUP1 SWAP2 SUB SWAP1 RETURN JUMPDEST PUSH0 PUSH1 0x54 DUP4 DUP4 PUSH1 0x5B JUMP JUMPDEST SWAP4 SWAP3 POP POP POP JUMP JUMPDEST PUSH0 DUP2 DUP4 LT ISZERO PUSH1 0x68 JUMPI DUP2 PUSH1 0x54 JUMP JUMPDEST POP SWAP1 SWAP2 SWAP1 POP JUMP JUMPDEST PUSH0 DUP1 PUSH1 0x40 DUP4 DUP6 SUB SLT ISZERO PUSH1 0x7F JUMPI PUSH0 DUP1 REVERT JUMPDEST POP POP DUP1 CALLDATALOAD SWAP3 PUSH1 0x20 SWAP1 SWAP2 ADD CALLDATALOAD SWAP2 POP JUMP INVALID LOG2 PUSH5 0x6970667358 0x22 SLT KECCAK256 PREVRANDAO DUP15 0xA5 PUSH28 0xA9D729AED1C43ECAB06CD529CA6A5335CBB65D01585E3B43ACDA4C2D PUSH5 0x736F6C6343 STOP ADDMOD BYTE STOP CALLER "
				},
				"gasEstimates": {
					"creation": {
						"codeDepositCost": "39200",
						"executionCost": "91",
						"totalCost": "39291"
					},
					"external": {
						"testMax(uint256,uint256)": "350"
					}
				},
				"methodIdentifiers": {
					"testMax(uint256,uint256)": "834db421"
				}
			},
			"storageLayout": {
				"storage": [],
				"types": null
			},
			"userdoc": {
				"kind": "user",
				"methods": {},
				"version": 1
			}
		}
	}
}