{
	"Event.sol": {
		"Event": {
			"abi": [
				{
					"anonymous": false,
					"inputs": [
						{
							"indexed": true,
							"internalType": "address",
							"name": "sender",
							"type": "address"
						},
						{
							"indexed": false,
							"internalType": "uint256",
							"name": "val",
							"type": "uint256"
						}
					],
					"name": "IndexedLog",
					"type": "event"
				},
				{
					"anonymous": false,
					"inputs": [
						{
							"indexed": false,
							"internalType": "string",
							"name": "message",
							"type": "string"
						},
						{
							"indexed": false,
							"internalType": "uint256",
							"name": "val",
							"type": "uint256"
						}
					],
					"name": "Log",
					"type": "event"
				},
				{
					"anonymous": false,
					"inputs": [
						{
							"indexed": true,
							"internalType": "address",
							"name": "_from",
							"type": "address"
						},
						{
							"indexed": true,
							"internalType": "address",
							"name": "_to",
							"type": "address"
						},
						{
							"indexed": false,
							"internalType": "string",
							"name": "messge",
							"type": "string"
						}
					],
					"name": "Message",
					"type": "event"
				},
				{
					"inputs": [],
					"name": "example",
					"outputs": [],
					"stateMutability": "nonpayable",
					"type": "function"
				},
				{
					"inputs": [
						{
							"internalType": "address",
							"name": "_to",
							"type": "address"
						},
						{
							"internalType": "string",
							"name": "m",
							"type": "string"
						}
					],
					"name": "sendMessage",
					"outputs": [],
					"stateMutability": "nonpayable",
					"type": "function"
				}
			],
			"devdoc": {
				"kind": "dev",
				"methods": {},
				"version": 1
			},
			"evm": {
				"assembly": "    /* \"Event.sol\":200:682  contract Event {... */\n  mstore(0x40, 0x80)\n  callvalue\n  dup1\n  iszero\n  tag_1\n  jumpi\n  revert(0x00, 0x00)\ntag_1:\n  pop\n  dataSize(sub_0)\n  dup1\n  dataOffset(sub_0)\n  0x00\n  codecopy\n  0x00\n  return\nstop\n\nsub_0: assembly {\n        /* \"Event.sol\":200:682  contract Event {... */\n      mstore(0x40, 0x80)\n      callvalue\n      dup1\n      iszero\n      tag_1\n      jumpi\n      revert(0x00, 0x00)\n    tag_1:\n      pop\n      jumpi(tag_2, lt(calldatasize, 0x04))\n      shr(0xe0, calldataload(0x00))\n      dup1\n      0x54353f2f\n      eq\n      tag_3\n      jumpi\n      dup1\n      0xde6f24bb\n      eq\n      tag_4\n      jumpi\n    tag_2:\n      revert(0x00, 0x00)\n        /* \"Event.sol\":360:476  function example() external {... */\n    tag_3:\n      tag_5\n      tag_6\n      jump\t// in\n    tag_5:\n      stop\n        /* \"Event.sol\":563:675  function sendMessage(address _to,string calldata m) external {... */\n    tag_4:\n      tag_5\n      tag_8\n      calldatasize\n      0x04\n      tag_9\n      jump\t// in\n    tag_8:\n      tag_10\n      jump\t// in\n        /* \"Event.sol\":360:476  function example() external {... */\n    tag_6:\n        /* \"Event.sol\":404:424  Log(\"message\", 1234) */\n      0x40\n      dup1\n      mload\n        /* \"#utility.yul\":1003:1024   */\n      dup2\n      dup2\n      mstore\n        /* \"#utility.yul\":1060:1061   */\n      0x07\n        /* \"#utility.yul\":1040:1058   */\n      dup2\n      dup4\n      add\n        /* \"#utility.yul\":1033:1062   */\n      mstore\n      shl(0xc8, 0x6d657373616765)\n        /* \"#utility.yul\":1093:1095   */\n      0x60\n        /* \"#utility.yul\":1078:1096   */\n      dup3\n      add\n        /* \"#utility.yul\":1071:1108   */\n      mstore\n        /* \"Event.sol\":419:423  1234 */\n      0x04d2\n        /* \"#utility.yul\":1175:1179   */\n      0x20\n        /* \"#utility.yul\":1160:1180   */\n      dup3\n      add\n        /* \"#utility.yul\":1153:1189   */\n      mstore\n        /* \"Event.sol\":404:424  Log(\"message\", 1234) */\n      swap1\n      mload\n      0xdd970dd9b5bfe707922155b058a407655cb18288b807e2216442bca8ad83d6b5\n      swap2\n      dup2\n      swap1\n      sub\n        /* \"#utility.yul\":1140:1143   */\n      0x80\n        /* \"Event.sol\":404:424  Log(\"message\", 1234) */\n      add\n      swap1\n      log1\n        /* \"Event.sol\":440:468  IndexedLog(msg.sender, 5678) */\n      mload(0x40)\n        /* \"Event.sol\":463:467  5678 */\n      0x162e\n        /* \"#utility.yul\":1357:1382   */\n      dup2\n      mstore\n        /* \"Event.sol\":451:461  msg.sender */\n      caller\n      swap1\n        /* \"Event.sol\":440:468  IndexedLog(msg.sender, 5678) */\n      0x919a4e0615aef45fd56105241973bd25f287f1040399e7c9f97fa2ca1c2b5174\n      swap1\n        /* \"#utility.yul\":1345:1347   */\n      0x20\n        /* \"#utility.yul\":1330:1348   */\n      add\n        /* \"Event.sol\":440:468  IndexedLog(msg.sender, 5678) */\n      mload(0x40)\n      dup1\n      swap2\n      sub\n      swap1\n      log2\n        /* \"Event.sol\":360:476  function example() external {... */\n      jump\t// out\n        /* \"Event.sol\":563:675  function sendMessage(address _to,string calldata m) external {... */\n    tag_10:\n        /* \"Event.sol\":660:663  _to */\n      dup3\n      sub(shl(0xa0, 0x01), 0x01)\n        /* \"Event.sol\":640:667  Message(msg.sender, _to, m) */\n      and\n        /* \"Event.sol\":648:658  msg.sender */\n      caller\n      sub(shl(0xa0, 0x01), 0x01)\n        /* \"Event.sol\":640:667  Message(msg.sender, _to, m) */\n      and\n      0xb3dbe9e9894ca2c11cb6c80bd0b0bccb9f5b41d612dbeeda0d5474de40b874fe\n        /* \"Event.sol\":665:666  m */\n      dup5\n      dup5\n        /* \"Event.sol\":640:667  Message(msg.sender, _to, m) */\n      mload(0x40)\n      tag_17\n      swap3\n      swap2\n      swap1\n      tag_18\n      jump\t// in\n    tag_17:\n      mload(0x40)\n      dup1\n      swap2\n      sub\n      swap1\n      log3\n        /* \"Event.sol\":563:675  function sendMessage(address _to,string calldata m) external {... */\n      pop\n      pop\n      pop\n      jump\t// out\n        /* \"#utility.yul\":14:775   */\n    tag_9:\n        /* \"#utility.yul\":94:100   */\n      0x00\n        /* \"#utility.yul\":102:108   */\n      0x00\n        /* \"#utility.yul\":110:116   */\n      0x00\n        /* \"#utility.yul\":163:165   */\n      0x40\n        /* \"#utility.yul\":151:160   */\n      dup5\n        /* \"#utility.yul\":142:149   */\n      dup7\n        /* \"#utility.yul\":138:161   */\n      sub\n        /* \"#utility.yul\":134:166   */\n      slt\n        /* \"#utility.yul\":131:183   */\n      iszero\n      tag_21\n      jumpi\n        /* \"#utility.yul\":179:180   */\n      0x00\n        /* \"#utility.yul\":176:177   */\n      0x00\n        /* \"#utility.yul\":169:181   */\n      revert\n        /* \"#utility.yul\":131:183   */\n    tag_21:\n        /* \"#utility.yul\":205:228   */\n      dup4\n      calldataload\n      sub(shl(0xa0, 0x01), 0x01)\n        /* \"#utility.yul\":257:288   */\n      dup2\n      and\n        /* \"#utility.yul\":247:289   */\n      dup2\n      eq\n        /* \"#utility.yul\":237:307   */\n      tag_22\n      jumpi\n        /* \"#utility.yul\":303:304   */\n      0x00\n        /* \"#utility.yul\":300:301   */\n      0x00\n        /* \"#utility.yul\":293:305   */\n      revert\n        /* \"#utility.yul\":237:307   */\n    tag_22:\n        /* \"#utility.yul\":326:331   */\n      swap3\n      pop\n        /* \"#utility.yul\":382:384   */\n      0x20\n        /* \"#utility.yul\":367:385   */\n      dup5\n      add\n        /* \"#utility.yul\":354:386   */\n      calldataload\n        /* \"#utility.yul\":409:427   */\n      0xffffffffffffffff\n        /* \"#utility.yul\":398:428   */\n      dup2\n      gt\n        /* \"#utility.yul\":395:445   */\n      iszero\n      tag_23\n      jumpi\n        /* \"#utility.yul\":441:442   */\n      0x00\n        /* \"#utility.yul\":438:439   */\n      0x00\n        /* \"#utility.yul\":431:443   */\n      revert\n        /* \"#utility.yul\":395:445   */\n    tag_23:\n        /* \"#utility.yul\":464:486   */\n      dup5\n      add\n        /* \"#utility.yul\":517:521   */\n      0x1f\n        /* \"#utility.yul\":509:522   */\n      dup2\n      add\n        /* \"#utility.yul\":505:532   */\n      dup7\n      sgt\n        /* \"#utility.yul\":495:550   */\n      tag_24\n      jumpi\n        /* \"#utility.yul\":546:547   */\n      0x00\n        /* \"#utility.yul\":543:544   */\n      0x00\n        /* \"#utility.yul\":536:548   */\n      revert\n        /* \"#utility.yul\":495:550   */\n    tag_24:\n        /* \"#utility.yul\":586:588   */\n      dup1\n        /* \"#utility.yul\":573:589   */\n      calldataload\n        /* \"#utility.yul\":612:630   */\n      0xffffffffffffffff\n        /* \"#utility.yul\":604:610   */\n      dup2\n        /* \"#utility.yul\":601:631   */\n      gt\n        /* \"#utility.yul\":598:648   */\n      iszero\n      tag_25\n      jumpi\n        /* \"#utility.yul\":644:645   */\n      0x00\n        /* \"#utility.yul\":641:642   */\n      0x00\n        /* \"#utility.yul\":634:646   */\n      revert\n        /* \"#utility.yul\":598:648   */\n    tag_25:\n        /* \"#utility.yul\":689:696   */\n      dup7\n        /* \"#utility.yul\":684:686   */\n      0x20\n        /* \"#utility.yul\":675:681   */\n      dup3\n        /* \"#utility.yul\":671:673   */\n      dup5\n        /* \"#utility.yul\":667:682   */\n      add\n        /* \"#utility.yul\":663:687   */\n      add\n        /* \"#utility.yul\":660:697   */\n      gt\n        /* \"#utility.yul\":657:714   */\n      iszero\n      tag_26\n      jumpi\n        /* \"#utility.yul\":710:711   */\n      0x00\n        /* \"#utility.yul\":707:708   */\n      0x00\n        /* \"#utility.yul\":700:712   */\n      revert\n        /* \"#utility.yul\":657:714   */\n    tag_26:\n        /* \"#utility.yul\":14:775   */\n      swap4\n      swap7\n        /* \"#utility.yul\":741:743   */\n      0x20\n        /* \"#utility.yul\":733:744   */\n      swap2\n      swap1\n      swap2\n      add\n      swap6\n      pop\n        /* \"#utility.yul\":763:769   */\n      swap3\n      swap4\n      pop\n      pop\n      pop\n        /* \"#utility.yul\":14:775   */\n      jump\t// out\n        /* \"#utility.yul\":1393:1783   */\n    tag_18:\n        /* \"#utility.yul\":1552:1554   */\n      0x20\n        /* \"#utility.yul\":1541:1550   */\n      dup2\n        /* \"#utility.yul\":1534:1555   */\n      mstore\n        /* \"#utility.yul\":1591:1597   */\n      dup2\n        /* \"#utility.yul\":1586:1588   */\n      0x20\n        /* \"#utility.yul\":1575:1584   */\n      dup3\n        /* \"#utility.yul\":1571:1589   */\n      add\n        /* \"#utility.yul\":1564:1598   */\n      mstore\n        /* \"#utility.yul\":1648:1654   */\n      dup2\n        /* \"#utility.yul\":1640:1646   */\n      dup4\n        /* \"#utility.yul\":1635:1637   */\n      0x40\n        /* \"#utility.yul\":1624:1633   */\n      dup4\n        /* \"#utility.yul\":1620:1638   */\n      add\n        /* \"#utility.yul\":1607:1655   */\n      calldatacopy\n        /* \"#utility.yul\":1704:1705   */\n      0x00\n        /* \"#utility.yul\":1675:1697   */\n      dup2\n      dup4\n      add\n        /* \"#utility.yul\":1699:1701   */\n      0x40\n        /* \"#utility.yul\":1671:1702   */\n      swap1\n      dup2\n      add\n        /* \"#utility.yul\":1664:1706   */\n      swap2\n      swap1\n      swap2\n      mstore\n        /* \"#utility.yul\":1767:1769   */\n      0x1f\n        /* \"#utility.yul\":1746:1761   */\n      swap1\n      swap3\n      add\n      not(0x1f)\n        /* \"#utility.yul\":1742:1771   */\n      and\n        /* \"#utility.yul\":1727:1772   */\n      add\n        /* \"#utility.yul\":1723:1777   */\n      add\n      swap2\n        /* \"#utility.yul\":1393:1783   */\n      swap1\n      pop\n      jump\t// out\n\n    auxdata: 0xa26469706673582212201c8b9466eac100150401da3eb4bf154d90be8940d506b24c8aea28dc1286682764736f6c634300081d0033\n}\n",
				"bytecode": {
					"linkReferences": {},
					"object": "6080604052348015600e575f5ffd5b506102208061001c5f395ff3fe608060405234801561000f575f5ffd5b5060043610610034575f3560e01c806354353f2f14610038578063de6f24bb14610042575b5f5ffd5b610040610055565b005b610040610050366004610131565b6100df565b60408051818152600781830152666d65737361676560c81b60608201526104d2602082015290517fdd970dd9b5bfe707922155b058a407655cb18288b807e2216442bca8ad83d6b59181900360800190a160405161162e815233907f919a4e0615aef45fd56105241973bd25f287f1040399e7c9f97fa2ca1c2b51749060200160405180910390a2565b826001600160a01b0316336001600160a01b03167fb3dbe9e9894ca2c11cb6c80bd0b0bccb9f5b41d612dbeeda0d5474de40b874fe84846040516101249291906101bc565b60405180910390a3505050565b5f5f5f60408486031215610143575f5ffd5b83356001600160a01b0381168114610159575f5ffd5b9250602084013567ffffffffffffffff811115610174575f5ffd5b8401601f81018613610184575f5ffd5b803567ffffffffffffffff81111561019a575f5ffd5b8660208284010111156101ab575f5ffd5b939660209190910195509293505050565b60208152816020820152818360408301375f818301604090810191909152601f909201601f1916010191905056fea26469706673582212201c8b9466eac100150401da3eb4bf154d90be8940d506b24c8aea28dc1286682764736f6c634300081d0033",
					"opcodes": "PUSH1 0x80 PUSH1 0x40 MSTORE CALLVALUE DUP1 ISZERO PUSH1 0xE JUMPI PUSH0 PUSH0 REVERT JUMPDEST POP PUSH2 0x220 DUP1 PUSH2 0x1C PUSH0 CODECOPY PUSH0 RETURN INVALID PUSH1 0x80 PUSH1 0x40 MSTORE CALLVALUE DUP1 ISZERO PUSH2 0xF JUMPI PUSH0 PUSH0 REVERT JUMPDEST POP PUSH1 0x4 CALLDATASIZE LT PUSH2 0x34 JUMPI PUSH0 CALLDATALOAD PUSH1 0xE0 SHR DUP1 PUSH4 0x54353F2F EQ PUSH2 0x38 JUMPI DUP1 PUSH4 0xDE6F24BB EQ PUSH2 0x42 JUMPI JUMPDEST PUSH0 PUSH0 REVERT JUMPDEST PUSH2 0x40 PUSH2 0x55 JUMP JUMPDEST STOP JUMPDEST PUSH2 0x40 PUSH2 0x50 CALLDATASIZE PUSH1 0x4 PUSH2 0x131 JUMP JUMPDEST PUSH2 0xDF JUMP JUMPDEST PUSH1 0x40 DUP1 MLOAD DUP2 DUP2 MSTORE PUSH1 0x7 DUP2 DUP4 ADD MSTORE PUSH7 0x6D657373616765 PUSH1 0xC8 SHL PUSH1 0x60 DUP3 ADD MSTORE PUSH2 0x4D2 PUSH1 0x20 DUP3 ADD MSTORE SWAP1 MLOAD PUSH32 0xDD970DD9B5BFE707922155B058A407655CB18288B807E2216442BCA8AD83D6B5 SWAP2 DUP2 SWAP1 SUB PUSH1 0x80 ADD SWAP1 LOG1 PUSH1 0x40 MLOAD PUSH2 0x162E DUP2 MSTORE CALLER SWAP1 PUSH32 0x919A4E0615AEF45FD56105241973BD25F287F1040399E7C9F97FA2CA1C2B5174 SWAP1 PUSH1 0x20 ADD PUSH1 0x40 MLOAD DUP1 SWAP2 SUB SWAP1 LOG2 JUMP JUMPDEST DUP3 PUSH1 0x1 PUSH1 0x1 PUSH1 0xA0 SHL SUB AND CALLER PUSH1 0x1 PUSH1 0x1 PUSH1 0xA0 SHL SUB AND PUSH32 0xB3DBE9E9894CA2C11CB6C80BD0B0BCCB9F5B41D612DBEEDA0D5474DE40B874FE DUP5 DUP5 PUSH1 0x40 MLOAD PUSH2 0x124 SWAP3 SWAP2 SWAP1 PUSH2 0x1BC JUMP JUMPDEST PUSH1 0x40 MLOAD DUP1 SWAP2 SUB SWAP1 LOG3 POP POP POP JUMP JUMPDEST PUSH0 PUSH0 PUSH0 PUSH1 0x40 DUP5 DUP7 SUB SLT ISZERO PUSH2 0x143 JUMPI PUSH0 PUSH0 REVERT JUMPDEST DUP4 CALLDATALOAD PUSH1 0x1 PUSH1 0x1 PUSH1 0xA0 SHL SUB DUP2 AND DUP2 EQ PUSH2 0x159 JUMPI PUSH0 PUSH0 REVERT JUMPDEST SWAP3 POP PUSH1 0x20 DUP5 ADD CALLDATALOAD PUSH8 0xFFFFFFFFFFFFFFFF DUP2 GT ISZERO PUSH2 0x174 JUMPI PUSH0 PUSH0 REVERT JUMPDEST DUP5 ADD PUSH1 0x1F DUP2 ADD DUP7 SGT PUSH2 0x184 JUMPI PUSH0 PUSH0 REVERT JUMPDEST DUP1 CALLDATALOAD PUSH8 0xFFFFFFFFFFFFFFFF DUP2 GT ISZERO PUSH2 0x19A JUMPI PUSH0 PUSH0 REVERT JUMPDEST DUP7 PUSH1 0x20 DUP3 DUP5 ADD ADD GT ISZERO PUSH2 0x1AB JUMPI PUSH0 PUSH0 REVERT JUMPDEST SWAP4 SWAP7 PUSH1 0x20 SWAP2 SWAP1 SWAP2 ADD SWAP6 POP SWAP3 SWAP4 POP POP POP JUMP JUMPDEST PUSH1 0x20 DUP2 MSTORE DUP2 PUSH1 0x20 DUP3 ADD MSTORE DUP2 DUP4 PUSH1 0x40 DUP4 ADD CALLDATACOPY PUSH0 DUP2 DUP4 ADD PUSH1 0x40 SWAP1 DUP2 ADD SWAP2 SWAP1 SWAP2 MSTORE PUSH1 0x1F SWAP1 SWAP3 ADD PUSH1 0x1F NOT AND ADD ADD SWAP2 SWAP1 POP JUMP INVALID LOG2 PUSH5 0x6970667358 0x22 SLT KECCAK256 SHR DUP12 SWAP5 PUSH7 0xEAC100150401DA RETURNDATACOPY 0xB4 0xBF ISZERO 0x4D SWAP1 0xBE DUP10 BLOCKHASH 0xD5 MOD 0xB2 0x4C DUP11 0xEA 0x28 0xDC SLT DUP7 PUSH9 0x2764736F6C63430008 SAR STOP CALLER "
				},
				"gasEstimates": {
					"creation": {
						"codeDepositCost": "108800",
						"executionCost": "151",
						"totalCost": "108951"
					},
					"external": {
						"example()": "3440",
						"sendMessage(address,string)": "infinite"
					}
				},
				"methodIdentifiers": {
					"example()": "54353f2f",
					"sendMessage(address,string)": "de6f24bb"
				}
			},
			"storageLayout": {
				"storage": [],
				"types": null
			},
			"userdoc": {
				"kind": "user",
				"methods": {},
				"version": 1
			}
		}
	}
}