{
	"data1.sol": {
		"ValueTypes": {
			"abi": [
				{
					"inputs": [],
					"name": "addr",
					"outputs": [
						{
							"internalType": "address",
							"name": "",
							"type": "address"
						}
					],
					"stateMutability": "view",
					"type": "function"
				},
				{
					"inputs": [],
					"name": "b",
					"outputs": [
						{
							"internalType": "bool",
							"name": "",
							"type": "bool"
						}
					],
					"stateMutability": "view",
					"type": "function"
				},
				{
					"inputs": [],
					"name": "b32",
					"outputs": [
						{
							"internalType": "bytes32",
							"name": "",
							"type": "bytes32"
						}
					],
					"stateMutability": "view",
					"type": "function"
				},
				{
					"inputs": [],
					"name": "i",
					"outputs": [
						{
							"internalType": "int256",
							"name": "",
							"type": "int256"
						}
					],
					"stateMutability": "view",
					"type": "function"
				},
				{
					"inputs": [],
					"name": "maxInt",
					"outputs": [
						{
							"internalType": "int256",
							"name": "",
							"type": "int256"
						}
					],
					"stateMutability": "view",
					"type": "function"
				},
				{
					"inputs": [],
					"name": "minInt",
					"outputs": [
						{
							"internalType": "int256",
							"name": "",
							"type": "int256"
						}
					],
					"stateMutability": "view",
					"type": "function"
				},
				{
					"inputs": [],
					"name": "u",
					"outputs": [
						{
							"internalType": "uint256",
							"name": "",
							"type": "uint256"
						}
					],
					"stateMutability": "view",
					"type": "function"
				}
			],
			"devdoc": {
				"kind": "dev",
				"methods": {},
				"version": 1
			},
			"evm": {
				"assembly": "    /* \"data1.sol\":62:872  contract ValueTypes{... */\n  mstore(0x40, 0x80)\n    /* \"data1.sol\":90:108  bool public b=true */\n  0x00\n  dup1\n  sload\n  not(0xff)\n  and\n    /* \"data1.sol\":104:108  true */\n  0x01\n    /* \"data1.sol\":90:108  bool public b=true */\n  swap1\n  dup2\n  or\n  swap1\n  swap2\n  sstore\n    /* \"data1.sol\":129:132  123 */\n  0x7b\n    /* \"data1.sol\":115:132  uint public u=123 */\n  swap1\n  sstore\n  not(0x7a)\n    /* \"data1.sol\":308:325  int public i=-123 */\n  0x02\n  sstore\n  shl(0xff, 0x01)\n    /* \"data1.sol\":379:410  int public minInt=type(int).min */\n  0x03\n  sstore\n  sub(shl(0xff, 0x01), 0x01)\n    /* \"data1.sol\":433:464  int public maxInt=type(int).max */\n  0x04\n  sstore\n    /* \"data1.sol\":487:551  address public addr = 0x1234567890123456789012345678901234567890 */\n  0x05\n  dup1\n  sload\n  not(sub(shl(0xa0, 0x01), 0x01))\n  and\n    /* \"data1.sol\":509:551  0x1234567890123456789012345678901234567890 */\n  0x1234567890123456789012345678901234567890\n    /* \"data1.sol\":487:551  address public addr = 0x1234567890123456789012345678901234567890 */\n  or\n  swap1\n  sstore\n    /* \"data1.sol\":716:782  0x1234567890123456789012345678901234567890123456789012345678901234 */\n  0x1234567890123456789012345678901234567890123456789012345678901234\n    /* \"data1.sol\":695:782  bytes32 public b32 = 0x1234567890123456789012345678901234567890123456789012345678901234 */\n  0x06\n  sstore\n    /* \"data1.sol\":62:872  contract ValueTypes{... */\n  callvalue\n  dup1\n  iszero\n  tag_1\n  jumpi\n  revert(0x00, 0x00)\ntag_1:\n  pop\n  dataSize(sub_0)\n  dup1\n  dataOffset(sub_0)\n  0x00\n  codecopy\n  0x00\n  return\nstop\n\nsub_0: assembly {\n        /* \"data1.sol\":62:872  contract ValueTypes{... */\n      mstore(0x40, 0x80)\n      callvalue\n      dup1\n      iszero\n      tag_1\n      jumpi\n      revert(0x00, 0x00)\n    tag_1:\n      pop\n      jumpi(tag_2, lt(calldatasize, 0x04))\n      shr(0xe0, calldataload(0x00))\n      dup1\n      0x7e4e14cc\n      gt\n      tag_10\n      jumpi\n      dup1\n      0x7e4e14cc\n      eq\n      tag_6\n      jumpi\n      dup1\n      0xc6a898c5\n      eq\n      tag_7\n      jumpi\n      dup1\n      0xe5aa3d58\n      eq\n      tag_8\n      jumpi\n      dup1\n      0xf8aab238\n      eq\n      tag_9\n      jumpi\n      revert(0x00, 0x00)\n    tag_10:\n      dup1\n      0x4df7e3d0\n      eq\n      tag_3\n      jumpi\n      dup1\n      0x767800de\n      eq\n      tag_4\n      jumpi\n      dup1\n      0x7a4c2571\n      eq\n      tag_5\n      jumpi\n    tag_2:\n      revert(0x00, 0x00)\n        /* \"data1.sol\":90:108  bool public b=true */\n    tag_3:\n      sload(0x00)\n      tag_11\n      swap1\n      0xff\n      and\n      dup2\n      jump\n    tag_11:\n      mload(0x40)\n        /* \"#utility.yul\":179:193   */\n      swap1\n      iszero\n        /* \"#utility.yul\":172:194   */\n      iszero\n        /* \"#utility.yul\":154:195   */\n      dup2\n      mstore\n        /* \"#utility.yul\":142:144   */\n      0x20\n        /* \"#utility.yul\":127:145   */\n      add\n        /* \"data1.sol\":90:108  bool public b=true */\n    tag_13:\n      mload(0x40)\n      dup1\n      swap2\n      sub\n      swap1\n      return\n        /* \"data1.sol\":487:551  address public addr = 0x1234567890123456789012345678901234567890 */\n    tag_4:\n      sload(0x05)\n      tag_15\n      swap1\n      sub(shl(0xa0, 0x01), 0x01)\n      and\n      dup2\n      jump\n    tag_15:\n      mload(0x40)\n      sub(shl(0xa0, 0x01), 0x01)\n        /* \"#utility.yul\":370:402   */\n      swap1\n      swap2\n      and\n        /* \"#utility.yul\":352:403   */\n      dup2\n      mstore\n        /* \"#utility.yul\":340:342   */\n      0x20\n        /* \"#utility.yul\":325:343   */\n      add\n        /* \"data1.sol\":487:551  address public addr = 0x1234567890123456789012345678901234567890 */\n      tag_13\n        /* \"#utility.yul\":206:409   */\n      jump\n        /* \"data1.sol\":433:464  int public maxInt=type(int).max */\n    tag_5:\n      tag_19\n      sload(0x04)\n      dup2\n      jump\n    tag_19:\n      mload(0x40)\n        /* \"#utility.yul\":558:583   */\n      swap1\n      dup2\n      mstore\n        /* \"#utility.yul\":546:548   */\n      0x20\n        /* \"#utility.yul\":531:549   */\n      add\n        /* \"data1.sol\":433:464  int public maxInt=type(int).max */\n      tag_13\n        /* \"#utility.yul\":414:589   */\n      jump\n        /* \"data1.sol\":379:410  int public minInt=type(int).min */\n    tag_6:\n      tag_19\n      sload(0x03)\n      dup2\n      jump\n        /* \"data1.sol\":115:132  uint public u=123 */\n    tag_7:\n      tag_19\n      sload(0x01)\n      dup2\n      jump\n        /* \"data1.sol\":308:325  int public i=-123 */\n    tag_8:\n      tag_19\n      sload(0x02)\n      dup2\n      jump\n        /* \"data1.sol\":695:782  bytes32 public b32 = 0x1234567890123456789012345678901234567890123456789012345678901234 */\n    tag_9:\n      tag_19\n      sload(0x06)\n      dup2\n      jump\n\n    auxdata: 0xa26469706673582212209dea6fbaa7527bc9b1c6565a2bac52731cb54d86fcc1c079ce4ff7e2b60abcb164736f6c634300081d0033\n}\n",
				"bytecode": {
					"linkReferences": {},
					"object": "60806040525f805460ff19166001908117909155607b9055607a19600255600160ff1b6003556001600160ff1b03600455600580546001600160a01b0319167312345678901234567890123456789012345678901790557f12345678901234567890123456789012345678901234567890123456789012346006553480156084575f5ffd5b50610128806100925f395ff3fe6080604052348015600e575f5ffd5b50600436106070575f3560e01c80637e4e14cc1160515780637e4e14cc1460d2578063c6a898c51460da578063e5aa3d581460e2578063f8aab2381460ea575f5ffd5b80634df7e3d0146074578063767800de1460945780637a4c25711460bd575b5f5ffd5b5f54607f9060ff1681565b60405190151581526020015b60405180910390f35b60055460a6906001600160a01b031681565b6040516001600160a01b039091168152602001608b565b60c560045481565b604051908152602001608b565b60c560035481565b60c560015481565b60c560025481565b60c56006548156fea26469706673582212209dea6fbaa7527bc9b1c6565a2bac52731cb54d86fcc1c079ce4ff7e2b60abcb164736f6c634300081d0033",
					"opcodes": "PUSH1 0x80 PUSH1 0x40 MSTORE PUSH0 DUP1 SLOAD PUSH1 0xFF NOT AND PUSH1 0x1 SWAP1 DUP2 OR SWAP1 SWAP2 SSTORE PUSH1 0x7B SWAP1 SSTORE PUSH1 0x7A NOT PUSH1 0x2 SSTORE PUSH1 0x1 PUSH1 0xFF SHL PUSH1 0x3 SSTORE PUSH1 0x1 PUSH1 0x1 PUSH1 0xFF SHL SUB PUSH1 0x4 SSTORE PUSH1 0x5 DUP1 SLOAD PUSH1 0x1 PUSH1 0x1 PUSH1 0xA0 SHL SUB NOT AND PUSH20 0x1234567890123456789012345678901234567890 OR SWAP1 SSTORE PUSH32 0x1234567890123456789012345678901234567890123456789012345678901234 PUSH1 0x6 SSTORE CALLVALUE DUP1 ISZERO PUSH1 0x84 JUMPI PUSH0 PUSH0 REVERT JUMPDEST POP PUSH2 0x128 DUP1 PUSH2 0x92 PUSH0 CODECOPY PUSH0 RETURN INVALID PUSH1 0x80 PUSH1 0x40 MSTORE CALLVALUE DUP1 ISZERO PUSH1 0xE JUMPI PUSH0 PUSH0 REVERT JUMPDEST POP PUSH1 0x4 CALLDATASIZE LT PUSH1 0x70 JUMPI PUSH0 CALLDATALOAD PUSH1 0xE0 SHR DUP1 PUSH4 0x7E4E14CC GT PUSH1 0x51 JUMPI DUP1 PUSH4 0x7E4E14CC EQ PUSH1 0xD2 JUMPI DUP1 PUSH4 0xC6A898C5 EQ PUSH1 0xDA JUMPI DUP1 PUSH4 0xE5AA3D58 EQ PUSH1 0xE2 JUMPI DUP1 PUSH4 0xF8AAB238 EQ PUSH1 0xEA JUMPI PUSH0 PUSH0 REVERT JUMPDEST DUP1 PUSH4 0x4DF7E3D0 EQ PUSH1 0x74 JUMPI DUP1 PUSH4 0x767800DE EQ PUSH1 0x94 JUMPI DUP1 PUSH4 0x7A4C2571 EQ PUSH1 0xBD JUMPI JUMPDEST PUSH0 PUSH0 REVERT JUMPDEST PUSH0 SLOAD PUSH1 0x7F SWAP1 PUSH1 0xFF AND DUP2 JUMP JUMPDEST PUSH1 0x40 MLOAD SWAP1 ISZERO ISZERO DUP2 MSTORE PUSH1 0x20 ADD JUMPDEST PUSH1 0x40 MLOAD DUP1 SWAP2 SUB SWAP1 RETURN JUMPDEST PUSH1 0x5 SLOAD PUSH1 0xA6 SWAP1 PUSH1 0x1 PUSH1 0x1 PUSH1 0xA0 SHL SUB AND DUP2 JUMP JUMPDEST PUSH1 0x40 MLOAD PUSH1 0x1 PUSH1 0x1 PUSH1 0xA0 SHL SUB SWAP1 SWAP2 AND DUP2 MSTORE PUSH1 0x20 ADD PUSH1 0x8B JUMP JUMPDEST PUSH1 0xC5 PUSH1 0x4 SLOAD DUP2 JUMP JUMPDEST PUSH1 0x40 MLOAD SWAP1 DUP2 MSTORE PUSH1 0x20 ADD PUSH1 0x8B JUMP JUMPDEST PUSH1 0xC5 PUSH1 0x3 SLOAD DUP2 JUMP JUMPDEST PUSH1 0xC5 PUSH1 0x1 SLOAD DUP2 JUMP JUMPDEST PUSH1 0xC5 PUSH1 0x2 SLOAD DUP2 JUMP JUMPDEST PUSH1 0xC5 PUSH1 0x6 SLOAD DUP2 JUMP INVALID LOG2 PUSH5 0x6970667358 0x22 SLT KECCAK256 SWAP14 0xEA PUSH16 0xBAA7527BC9B1C6565A2BAC52731CB54D DUP7 0xFC 0xC1 0xC0 PUSH26 0xCE4FF7E2B60ABCB164736F6C634300081D003300000000000000 "
				},
				"gasEstimates": {
					"creation": {
						"codeDepositCost": "59200",
						"executionCost": "159128",
						"totalCost": "218328"
					},
					"external": {
						"addr()": "2359",
						"b()": "2298",
						"b32()": "2360",
						"i()": "2338",
						"maxInt()": "2339",
						"minInt()": "2294",
						"u()": "2316"
					}
				},
				"methodIdentifiers": {
					"addr()": "767800de",
					"b()": "4df7e3d0",
					"b32()": "f8aab238",
					"i()": "e5aa3d58",
					"maxInt()": "7a4c2571",
					"minInt()": "7e4e14cc",
					"u()": "c6a898c5"
				}
			},
			"storageLayout": {
				"storage": [
					{
						"astId": 4,
						"contract": "data1.sol:ValueTypes",
						"label": "b",
						"offset": 0,
						"slot": "0",
						"type": "t_bool"
					},
					{
						"astId": 7,
						"contract": "data1.sol:ValueTypes",
						"label": "u",
						"offset": 0,
						"slot": "1",
						"type": "t_uint256"
					},
					{
						"astId": 11,
						"contract": "data1.sol:ValueTypes",
						"label": "i",
						"offset": 0,
						"slot": "2",
						"type": "t_int256"
					},
					{
						"astId": 18,
						"contract": "data1.sol:ValueTypes",
						"label": "minInt",
						"offset": 0,
						"slot": "3",
						"type": "t_int256"
					},
					{
						"astId": 25,
						"contract": "data1.sol:ValueTypes",
						"label": "maxInt",
						"offset": 0,
						"slot": "4",
						"type": "t_int256"
					},
					{
						"astId": 28,
						"contract": "data1.sol:ValueTypes",
						"label": "addr",
						"offset": 0,
						"slot": "5",
						"type": "t_address"
					},
					{
						"astId": 31,
						"contract": "data1.sol:ValueTypes",
						"label": "b32",
						"offset": 0,
						"slot": "6",
						"type": "t_bytes32"
					}
				],
				"types": {
					"t_address": {
						"encoding": "inplace",
						"label": "address",
						"numberOfBytes": "20"
					},
					"t_bool": {
						"encoding": "inplace",
						"label": "bool",
						"numberOfBytes": "1"
					},
					"t_bytes32": {
						"encoding": "inplace",
						"label": "bytes32",
						"numberOfBytes": "32"
					},
					"t_int256": {
						"encoding": "inplace",
						"label": "int256",
						"numberOfBytes": "32"
					},
					"t_uint256": {
						"encoding": "inplace",
						"label": "uint256",
						"numberOfBytes": "32"
					}
				}
			},
			"userdoc": {
				"kind": "user",
				"methods": {},
				"version": 1
			}
		}
	}
}