{
	"DelegateCall.sol": {
		"DelegateCall": {
			"abi": [
				{
					"inputs": [],
					"name": "num",
					"outputs": [
						{
							"internalType": "uint256",
							"name": "",
							"type": "uint256"
						}
					],
					"stateMutability": "view",
					"type": "function"
				},
				{
					"inputs": [],
					"name": "owner",
					"outputs": [
						{
							"internalType": "address",
							"name": "",
							"type": "address"
						}
					],
					"stateMutability": "view",
					"type": "function"
				},
				{
					"inputs": [],
					"name": "sender",
					"outputs": [
						{
							"internalType": "address",
							"name": "",
							"type": "address"
						}
					],
					"stateMutability": "view",
					"type": "function"
				},
				{
					"inputs": [
						{
							"internalType": "uint256",
							"name": "_num",
							"type": "uint256"
						}
					],
					"name": "setVars",
					"outputs": [],
					"stateMutability": "payable",
					"type": "function"
				},
				{
					"inputs": [],
					"name": "value",
					"outputs": [
						{
							"internalType": "uint256",
							"name": "",
							"type": "uint256"
						}
					],
					"stateMutability": "view",
					"type": "function"
				}
			],
			"devdoc": {
				"kind": "dev",
				"methods": {},
				"version": 1
			},
			"evm": {
				"assembly": "    /* \"DelegateCall.sol\":389:858  contract DelegateCall {... */\n  mstore(0x40, 0x80)\n  callvalue\n  dup1\n  iszero\n  tag_1\n  jumpi\n  revert(0x00, 0x00)\ntag_1:\n  pop\n  dataSize(sub_0)\n  dup1\n  dataOffset(sub_0)\n  0x00\n  codecopy\n  0x00\n  return\nstop\n\nsub_0: assembly {\n        /* \"DelegateCall.sol\":389:858  contract DelegateCall {... */\n      mstore(0x40, 0x80)\n      jumpi(tag_1, lt(calldatasize, 0x04))\n      shr(0xe0, calldataload(0x00))\n      dup1\n      0x3fa4f245\n      eq\n      tag_2\n      jumpi\n      dup1\n      0x4e70b1dc\n      eq\n      tag_3\n      jumpi\n      dup1\n      0x6466414b\n      eq\n      tag_4\n      jumpi\n      dup1\n      0x67e404ce\n      eq\n      tag_5\n      jumpi\n      dup1\n      0x8da5cb5b\n      eq\n      tag_6\n      jumpi\n    tag_1:\n      revert(0x00, 0x00)\n        /* \"DelegateCall.sol\":473:493  uint256 public value */\n    tag_2:\n      callvalue\n      dup1\n      iszero\n      tag_7\n      jumpi\n      revert(0x00, 0x00)\n    tag_7:\n      pop\n      tag_8\n      sload(0x02)\n      dup2\n      jump\n    tag_8:\n      mload(0x40)\n        /* \"#utility.yul\":160:185   */\n      swap1\n      dup2\n      mstore\n        /* \"#utility.yul\":148:150   */\n      0x20\n        /* \"#utility.yul\":133:151   */\n      add\n        /* \"DelegateCall.sol\":473:493  uint256 public value */\n    tag_10:\n      mload(0x40)\n      dup1\n      swap2\n      sub\n      swap1\n      return\n        /* \"DelegateCall.sol\":420:438  uint256 public num */\n    tag_3:\n      callvalue\n      dup1\n      iszero\n      tag_12\n      jumpi\n      revert(0x00, 0x00)\n    tag_12:\n      pop\n      tag_8\n      sload(0x00)\n      dup2\n      jump\n        /* \"DelegateCall.sol\":728:855  function setVars(uint256 _num) public payable {... */\n    tag_4:\n      tag_16\n      tag_17\n      calldatasize\n      0x04\n      tag_18\n      jump\t// in\n    tag_17:\n        /* \"DelegateCall.sol\":785:788  num */\n      0x00\n        /* \"DelegateCall.sol\":785:793  num=_num */\n      sstore\n        /* \"DelegateCall.sol\":804:810  sender */\n      0x01\n        /* \"DelegateCall.sol\":804:821  sender=msg.sender */\n      dup1\n      sload\n      not(sub(shl(0xa0, 0x01), 0x01))\n      and\n        /* \"DelegateCall.sol\":811:821  msg.sender */\n      caller\n        /* \"DelegateCall.sol\":804:821  sender=msg.sender */\n      or\n      swap1\n      sstore\n        /* \"DelegateCall.sol\":838:847  msg.value */\n      callvalue\n        /* \"DelegateCall.sol\":832:837  value */\n      0x02\n        /* \"DelegateCall.sol\":832:847  value=msg.value */\n      sstore\n        /* \"DelegateCall.sol\":728:855  function setVars(uint256 _num) public payable {... */\n      jump\n    tag_16:\n      stop\n        /* \"DelegateCall.sol\":445:466  address public sender */\n    tag_5:\n      callvalue\n      dup1\n      iszero\n      tag_20\n      jumpi\n      revert(0x00, 0x00)\n    tag_20:\n      pop\n      sload(0x01)\n      tag_21\n      swap1\n      sub(shl(0xa0, 0x01), 0x01)\n      and\n      dup2\n      jump\n    tag_21:\n      mload(0x40)\n      sub(shl(0xa0, 0x01), 0x01)\n        /* \"#utility.yul\":545:577   */\n      swap1\n      swap2\n      and\n        /* \"#utility.yul\":527:578   */\n      dup2\n      mstore\n        /* \"#utility.yul\":515:517   */\n      0x20\n        /* \"#utility.yul\":500:518   */\n      add\n        /* \"DelegateCall.sol\":445:466  address public sender */\n      tag_10\n        /* \"#utility.yul\":381:584   */\n      jump\n        /* \"DelegateCall.sol\":699:719  address public owner */\n    tag_6:\n      callvalue\n      dup1\n      iszero\n      tag_25\n      jumpi\n      revert(0x00, 0x00)\n    tag_25:\n      pop\n      sload(0x03)\n      tag_21\n      swap1\n      sub(shl(0xa0, 0x01), 0x01)\n      and\n      dup2\n      jump\n        /* \"#utility.yul\":196:376   */\n    tag_18:\n        /* \"#utility.yul\":255:261   */\n      0x00\n        /* \"#utility.yul\":308:310   */\n      0x20\n        /* \"#utility.yul\":296:305   */\n      dup3\n        /* \"#utility.yul\":287:294   */\n      dup5\n        /* \"#utility.yul\":283:306   */\n      sub\n        /* \"#utility.yul\":279:311   */\n      slt\n        /* \"#utility.yul\":276:328   */\n      iszero\n      tag_33\n      jumpi\n        /* \"#utility.yul\":324:325   */\n      0x00\n        /* \"#utility.yul\":321:322   */\n      0x00\n        /* \"#utility.yul\":314:326   */\n      revert\n        /* \"#utility.yul\":276:328   */\n    tag_33:\n      pop\n        /* \"#utility.yul\":347:370   */\n      calldataload\n      swap2\n        /* \"#utility.yul\":196:376   */\n      swap1\n      pop\n      jump\t// out\n\n    auxdata: 0xa264697066735822122002476a8a26afbbbe634ce6c1731857e3fdec940ba2a76916241aa934e948eeda64736f6c634300081d0033\n}\n",
				"bytecode": {
					"linkReferences": {},
					"object": "6080604052348015600e575f5ffd5b506101568061001c5f395ff3fe608060405260043610610049575f3560e01c80633fa4f2451461004d5780634e70b1dc146100755780636466414b1461008957806367e404ce146100b35780638da5cb5b146100ea575b5f5ffd5b348015610058575f5ffd5b5061006260025481565b6040519081526020015b60405180910390f35b348015610080575f5ffd5b506100625f5481565b6100b1610097366004610109565b5f55600180546001600160a01b0319163317905534600255565b005b3480156100be575f5ffd5b506001546100d2906001600160a01b031681565b6040516001600160a01b03909116815260200161006c565b3480156100f5575f5ffd5b506003546100d2906001600160a01b031681565b5f60208284031215610119575f5ffd5b503591905056fea264697066735822122002476a8a26afbbbe634ce6c1731857e3fdec940ba2a76916241aa934e948eeda64736f6c634300081d0033",
					"opcodes": "PUSH1 0x80 PUSH1 0x40 MSTORE CALLVALUE DUP1 ISZERO PUSH1 0xE JUMPI PUSH0 PUSH0 REVERT JUMPDEST POP PUSH2 0x156 DUP1 PUSH2 0x1C PUSH0 CODECOPY PUSH0 RETURN INVALID PUSH1 0x80 PUSH1 0x40 MSTORE PUSH1 0x4 CALLDATASIZE LT PUSH2 0x49 JUMPI PUSH0 CALLDATALOAD PUSH1 0xE0 SHR DUP1 PUSH4 0x3FA4F245 EQ PUSH2 0x4D JUMPI DUP1 PUSH4 0x4E70B1DC EQ PUSH2 0x75 JUMPI DUP1 PUSH4 0x6466414B EQ PUSH2 0x89 JUMPI DUP1 PUSH4 0x67E404CE EQ PUSH2 0xB3 JUMPI DUP1 PUSH4 0x8DA5CB5B EQ PUSH2 0xEA JUMPI JUMPDEST PUSH0 PUSH0 REVERT JUMPDEST CALLVALUE DUP1 ISZERO PUSH2 0x58 JUMPI PUSH0 PUSH0 REVERT JUMPDEST POP PUSH2 0x62 PUSH1 0x2 SLOAD DUP2 JUMP JUMPDEST PUSH1 0x40 MLOAD SWAP1 DUP2 MSTORE PUSH1 0x20 ADD JUMPDEST PUSH1 0x40 MLOAD DUP1 SWAP2 SUB SWAP1 RETURN JUMPDEST CALLVALUE DUP1 ISZERO PUSH2 0x80 JUMPI PUSH0 PUSH0 REVERT JUMPDEST POP PUSH2 0x62 PUSH0 SLOAD DUP2 JUMP JUMPDEST PUSH2 0xB1 PUSH2 0x97 CALLDATASIZE PUSH1 0x4 PUSH2 0x109 JUMP JUMPDEST PUSH0 SSTORE PUSH1 0x1 DUP1 SLOAD PUSH1 0x1 PUSH1 0x1 PUSH1 0xA0 SHL SUB NOT AND CALLER OR SWAP1 SSTORE CALLVALUE PUSH1 0x2 SSTORE JUMP JUMPDEST STOP JUMPDEST CALLVALUE DUP1 ISZERO PUSH2 0xBE JUMPI PUSH0 PUSH0 REVERT JUMPDEST POP PUSH1 0x1 SLOAD PUSH2 0xD2 SWAP1 PUSH1 0x1 PUSH1 0x1 PUSH1 0xA0 SHL SUB AND DUP2 JUMP JUMPDEST PUSH1 0x40 MLOAD PUSH1 0x1 PUSH1 0x1 PUSH1 0xA0 SHL SUB SWAP1 SWAP2 AND DUP2 MSTORE PUSH1 0x20 ADD PUSH2 0x6C JUMP JUMPDEST CALLVALUE DUP1 ISZERO PUSH2 0xF5 JUMPI PUSH0 PUSH0 REVERT JUMPDEST POP PUSH1 0x3 SLOAD PUSH2 0xD2 SWAP1 PUSH1 0x1 PUSH1 0x1 PUSH1 0xA0 SHL SUB AND DUP2 JUMP JUMPDEST PUSH0 PUSH1 0x20 DUP3 DUP5 SUB SLT ISZERO PUSH2 0x119 JUMPI PUSH0 PUSH0 REVERT JUMPDEST POP CALLDATALOAD SWAP2 SWAP1 POP JUMP INVALID LOG2 PUSH5 0x6970667358 0x22 SLT KECCAK256 MUL SELFBALANCE PUSH11 0x8A26AFBBBE634CE6C17318 JUMPI CALLF 0xFDEC SWAP5 SIGNEXTEND LOG2 0xA7 PUSH10 0x16241AA934E948EEDA64 PUSH20 0x6F6C634300081D00330000000000000000000000 "
				},
				"gasEstimates": {
					"creation": {
						"codeDepositCost": "68400",
						"executionCost": "115",
						"totalCost": "68515"
					},
					"external": {
						"num()": "2282",
						"owner()": "2402",
						"sender()": "2380",
						"setVars(uint256)": "68647",
						"value()": "2261"
					}
				},
				"methodIdentifiers": {
					"num()": "4e70b1dc",
					"owner()": "8da5cb5b",
					"sender()": "67e404ce",
					"setVars(uint256)": "6466414b",
					"value()": "3fa4f245"
				}
			},
			"storageLayout": {
				"storage": [
					{
						"astId": 3,
						"contract": "DelegateCall.sol:DelegateCall",
						"label": "num",
						"offset": 0,
						"slot": "0",
						"type": "t_uint256"
					},
					{
						"astId": 5,
						"contract": "DelegateCall.sol:DelegateCall",
						"label": "sender",
						"offset": 0,
						"slot": "1",
						"type": "t_address"
					},
					{
						"astId": 7,
						"contract": "DelegateCall.sol:DelegateCall",
						"label": "value",
						"offset": 0,
						"slot": "2",
						"type": "t_uint256"
					},
					{
						"astId": 9,
						"contract": "DelegateCall.sol:DelegateCall",
						"label": "owner",
						"offset": 0,
						"slot": "3",
						"type": "t_address"
					}
				],
				"types": {
					"t_address": {
						"encoding": "inplace",
						"label": "address",
						"numberOfBytes": "20"
					},
					"t_uint256": {
						"encoding": "inplace",
						"label": "uint256",
						"numberOfBytes": "32"
					}
				}
			},
			"userdoc": {
				"kind": "user",
				"methods": {},
				"version": 1
			}
		}
	}
}