{
	"DelegateCall.sol": {
		"A": {
			"abi": [
				{
					"inputs": [],
					"name": "num",
					"outputs": [
						{
							"internalType": "uint256",
							"name": "",
							"type": "uint256"
						}
					],
					"stateMutability": "view",
					"type": "function"
				},
				{
					"inputs": [],
					"name": "sender",
					"outputs": [
						{
							"internalType": "address",
							"name": "",
							"type": "address"
						}
					],
					"stateMutability": "view",
					"type": "function"
				},
				{
					"inputs": [
						{
							"internalType": "address",
							"name": "_contract",
							"type": "address"
						},
						{
							"internalType": "uint256",
							"name": "_num",
							"type": "uint256"
						}
					],
					"name": "setVars1",
					"outputs": [],
					"stateMutability": "payable",
					"type": "function"
				},
				{
					"inputs": [
						{
							"internalType": "address",
							"name": "_contract",
							"type": "address"
						},
						{
							"internalType": "uint256",
							"name": "_num",
							"type": "uint256"
						}
					],
					"name": "setVars2",
					"outputs": [],
					"stateMutability": "payable",
					"type": "function"
				},
				{
					"inputs": [],
					"name": "value",
					"outputs": [
						{
							"internalType": "uint256",
							"name": "",
							"type": "uint256"
						}
					],
					"stateMutability": "view",
					"type": "function"
				}
			],
			"devdoc": {
				"kind": "dev",
				"methods": {},
				"version": 1
			},
			"evm": {
				"assembly": "    /* \"DelegateCall.sol\":862:1473  contract A{... */\n  mstore(0x40, 0x80)\n  callvalue\n  dup1\n  iszero\n  tag_1\n  jumpi\n  revert(0x00, 0x00)\ntag_1:\n  pop\n  dataSize(sub_0)\n  dup1\n  dataOffset(sub_0)\n  0x00\n  codecopy\n  0x00\n  return\nstop\n\nsub_0: assembly {\n        /* \"DelegateCall.sol\":862:1473  contract A{... */\n      mstore(0x40, 0x80)\n      jumpi(tag_1, lt(calldatasize, 0x04))\n      shr(0xe0, calldataload(0x00))\n      dup1\n      0x39097bc2\n      eq\n      tag_2\n      jumpi\n      dup1\n      0x3fa4f245\n      eq\n      tag_3\n      jumpi\n      dup1\n      0x4e70b1dc\n      eq\n      tag_4\n      jumpi\n      dup1\n      0x67e404ce\n      eq\n      tag_5\n      jumpi\n      dup1\n      0xda669c83\n      eq\n      tag_6\n      jumpi\n    tag_1:\n      revert(0x00, 0x00)\n        /* \"DelegateCall.sol\":1176:1468  function setVars2(address _contract,uint256 _num) public payable {... */\n    tag_2:\n      tag_7\n      tag_8\n      calldatasize\n      0x04\n      tag_9\n      jump\t// in\n    tag_8:\n      tag_10\n      jump\t// in\n    tag_7:\n      stop\n        /* \"DelegateCall.sol\":934:954  uint256 public value */\n    tag_3:\n      callvalue\n      dup1\n      iszero\n      tag_11\n      jumpi\n      revert(0x00, 0x00)\n    tag_11:\n      pop\n      tag_12\n      sload(0x02)\n      dup2\n      jump\n    tag_12:\n      mload(0x40)\n        /* \"#utility.yul\":519:544   */\n      swap1\n      dup2\n      mstore\n        /* \"#utility.yul\":507:509   */\n      0x20\n        /* \"#utility.yul\":492:510   */\n      add\n        /* \"DelegateCall.sol\":934:954  uint256 public value */\n    tag_14:\n      mload(0x40)\n      dup1\n      swap2\n      sub\n      swap1\n      return\n        /* \"DelegateCall.sol\":881:899  uint256 public num */\n    tag_4:\n      callvalue\n      dup1\n      iszero\n      tag_16\n      jumpi\n      revert(0x00, 0x00)\n    tag_16:\n      pop\n      tag_12\n      sload(0x00)\n      dup2\n      jump\n        /* \"DelegateCall.sol\":906:927  address public sender */\n    tag_5:\n      callvalue\n      dup1\n      iszero\n      tag_20\n      jumpi\n      revert(0x00, 0x00)\n    tag_20:\n      pop\n      sload(0x01)\n      tag_21\n      swap1\n      sub(shl(0xa0, 0x01), 0x01)\n      and\n      dup2\n      jump\n    tag_21:\n      mload(0x40)\n      sub(shl(0xa0, 0x01), 0x01)\n        /* \"#utility.yul\":719:751   */\n      swap1\n      swap2\n      and\n        /* \"#utility.yul\":701:752   */\n      dup2\n      mstore\n        /* \"#utility.yul\":689:691   */\n      0x20\n        /* \"#utility.yul\":674:692   */\n      add\n        /* \"DelegateCall.sol\":906:927  address public sender */\n      tag_14\n        /* \"#utility.yul\":555:758   */\n      jump\n        /* \"DelegateCall.sol\":963:1168  function setVars1(address _contract,uint256 _num) public payable {... */\n    tag_6:\n      tag_7\n      tag_26\n      calldatasize\n      0x04\n      tag_9\n      jump\t// in\n    tag_26:\n      tag_27\n      jump\t// in\n        /* \"DelegateCall.sol\":1176:1468  function setVars2(address _contract,uint256 _num) public payable {... */\n    tag_10:\n        /* \"DelegateCall.sol\":1276:1288  bool success */\n      0x00\n        /* \"DelegateCall.sol\":1289:1303  bytes memory b */\n      0x00\n        /* \"DelegateCall.sol\":1307:1316  _contract */\n      dup4\n      sub(shl(0xa0, 0x01), 0x01)\n        /* \"DelegateCall.sol\":1307:1329  _contract.delegatecall */\n      and\n        /* \"DelegateCall.sol\":1413:1442  DelegateCall.setVars.selector */\n      shl(0xe0, 0x6466414b)\n        /* \"DelegateCall.sol\":1444:1448  _num */\n      dup5\n        /* \"DelegateCall.sol\":1390:1449  abi.encodeWithSelector(DelegateCall.setVars.selector, _num) */\n      add(0x24, mload(0x40))\n      tag_29\n      swap2\n        /* \"#utility.yul\":519:544   */\n      dup2\n      mstore\n        /* \"#utility.yul\":507:509   */\n      0x20\n        /* \"#utility.yul\":492:510   */\n      add\n      swap1\n        /* \"#utility.yul\":373:550   */\n      jump\n        /* \"DelegateCall.sol\":1390:1449  abi.encodeWithSelector(DelegateCall.setVars.selector, _num) */\n    tag_29:\n      0x40\n      dup1\n      mload\n      not(0x1f)\n      dup2\n      dup5\n      sub\n      add\n      dup2\n      mstore\n      swap2\n      dup2\n      mstore\n      0x20\n      dup3\n      add\n      dup1\n      mload\n      sub(shl(0xe0, 0x01), 0x01)\n      and\n      not(sub(shl(0xe0, 0x01), 0x01))\n      swap1\n      swap5\n      and\n      swap4\n      swap1\n      swap4\n      or\n      swap1\n      swap3\n      mstore\n        /* \"DelegateCall.sol\":1307:1460  _contract.delegatecall(... */\n      swap1\n      mload\n      tag_30\n      swap2\n        /* \"DelegateCall.sol\":1390:1449  abi.encodeWithSelector(DelegateCall.setVars.selector, _num) */\n      swap1\n        /* \"DelegateCall.sol\":1307:1460  _contract.delegatecall(... */\n      tag_31\n      jump\t// in\n    tag_30:\n      0x00\n      mload(0x40)\n      dup1\n      dup4\n      sub\n      dup2\n      dup6\n      gas\n      delegatecall\n      swap2\n      pop\n      pop\n      returndatasize\n      dup1\n      0x00\n      dup2\n      eq\n      tag_34\n      jumpi\n      mload(0x40)\n      swap2\n      pop\n      and(add(returndatasize, 0x3f), not(0x1f))\n      dup3\n      add\n      0x40\n      mstore\n      returndatasize\n      dup3\n      mstore\n      returndatasize\n      0x00\n      0x20\n      dup5\n      add\n      returndatacopy\n      jump(tag_33)\n    tag_34:\n      0x60\n      swap2\n      pop\n    tag_33:\n      pop\n      pop\n      pop\n      pop\n      pop\n      pop\n      pop\n        /* \"DelegateCall.sol\":1176:1468  function setVars2(address _contract,uint256 _num) public payable {... */\n      jump\t// out\n        /* \"DelegateCall.sol\":963:1168  function setVars1(address _contract,uint256 _num) public payable {... */\n    tag_27:\n        /* \"DelegateCall.sol\":1063:1072  _contract */\n      dup2\n      sub(shl(0xa0, 0x01), 0x01)\n        /* \"DelegateCall.sol\":1063:1085  _contract.delegatecall */\n      and\n        /* \"DelegateCall.sol\":1144:1148  _num */\n      dup2\n        /* \"DelegateCall.sol\":1100:1149  abi.encodeWithSignature(\"setVars(uint256)\", _num) */\n      add(0x24, mload(0x40))\n      tag_36\n      swap2\n        /* \"#utility.yul\":519:544   */\n      dup2\n      mstore\n        /* \"#utility.yul\":507:509   */\n      0x20\n        /* \"#utility.yul\":492:510   */\n      add\n      swap1\n        /* \"#utility.yul\":373:550   */\n      jump\n        /* \"DelegateCall.sol\":1100:1149  abi.encodeWithSignature(\"setVars(uint256)\", _num) */\n    tag_36:\n      0x40\n      dup1\n      mload\n      not(0x1f)\n      dup2\n      dup5\n      sub\n      add\n      dup2\n      mstore\n      swap2\n      dup2\n      mstore\n      0x20\n      dup3\n      add\n      dup1\n      mload\n      sub(shl(0xe0, 0x01), 0x01)\n      and\n      shl(0xe0, 0x6466414b)\n      or\n      swap1\n      mstore\n        /* \"DelegateCall.sol\":1063:1160  _contract.delegatecall(... */\n      mload\n      tag_37\n      swap2\n        /* \"DelegateCall.sol\":1100:1149  abi.encodeWithSignature(\"setVars(uint256)\", _num) */\n      swap1\n        /* \"DelegateCall.sol\":1063:1160  _contract.delegatecall(... */\n      tag_31\n      jump\t// in\n    tag_37:\n      0x00\n      mload(0x40)\n      dup1\n      dup4\n      sub\n      dup2\n      dup6\n      gas\n      delegatecall\n      swap2\n      pop\n      pop\n      returndatasize\n      dup1\n      0x00\n      dup2\n      eq\n      tag_40\n      jumpi\n      mload(0x40)\n      swap2\n      pop\n      and(add(returndatasize, 0x3f), not(0x1f))\n      dup3\n      add\n      0x40\n      mstore\n      returndatasize\n      dup3\n      mstore\n      returndatasize\n      0x00\n      0x20\n      dup5\n      add\n      returndatacopy\n      jump(tag_39)\n    tag_40:\n      0x60\n      swap2\n      pop\n    tag_39:\n      pop\n      pop\n      pop\n        /* \"DelegateCall.sol\":963:1168  function setVars1(address _contract,uint256 _num) public payable {... */\n      pop\n      pop\n      jump\t// out\n        /* \"#utility.yul\":14:368   */\n    tag_9:\n        /* \"#utility.yul\":82:88   */\n      0x00\n        /* \"#utility.yul\":90:96   */\n      0x00\n        /* \"#utility.yul\":143:145   */\n      0x40\n        /* \"#utility.yul\":131:140   */\n      dup4\n        /* \"#utility.yul\":122:129   */\n      dup6\n        /* \"#utility.yul\":118:141   */\n      sub\n        /* \"#utility.yul\":114:146   */\n      slt\n        /* \"#utility.yul\":111:163   */\n      iszero\n      tag_43\n      jumpi\n        /* \"#utility.yul\":159:160   */\n      0x00\n        /* \"#utility.yul\":156:157   */\n      0x00\n        /* \"#utility.yul\":149:161   */\n      revert\n        /* \"#utility.yul\":111:163   */\n    tag_43:\n        /* \"#utility.yul\":185:208   */\n      dup3\n      calldataload\n      sub(shl(0xa0, 0x01), 0x01)\n        /* \"#utility.yul\":237:268   */\n      dup2\n      and\n        /* \"#utility.yul\":227:269   */\n      dup2\n      eq\n        /* \"#utility.yul\":217:287   */\n      tag_44\n      jumpi\n        /* \"#utility.yul\":283:284   */\n      0x00\n        /* \"#utility.yul\":280:281   */\n      0x00\n        /* \"#utility.yul\":273:285   */\n      revert\n        /* \"#utility.yul\":217:287   */\n    tag_44:\n        /* \"#utility.yul\":306:311   */\n      swap5\n        /* \"#utility.yul\":358:360   */\n      0x20\n        /* \"#utility.yul\":343:361   */\n      swap4\n      swap1\n      swap4\n      add\n        /* \"#utility.yul\":330:362   */\n      calldataload\n      swap4\n      pop\n      pop\n      pop\n        /* \"#utility.yul\":14:368   */\n      jump\t// out\n        /* \"#utility.yul\":763:1064   */\n    tag_31:\n        /* \"#utility.yul\":892:895   */\n      0x00\n        /* \"#utility.yul\":930:936   */\n      dup3\n        /* \"#utility.yul\":924:937   */\n      mload\n        /* \"#utility.yul\":976:982   */\n      dup1\n        /* \"#utility.yul\":969:973   */\n      0x20\n        /* \"#utility.yul\":961:967   */\n      dup6\n        /* \"#utility.yul\":957:974   */\n      add\n        /* \"#utility.yul\":952:955   */\n      dup5\n        /* \"#utility.yul\":946:983   */\n      mcopy\n        /* \"#utility.yul\":1038:1039   */\n      0x00\n        /* \"#utility.yul\":1002:1018   */\n      swap3\n      add\n        /* \"#utility.yul\":1027:1040   */\n      swap2\n      dup3\n      mstore\n      pop\n        /* \"#utility.yul\":1002:1018   */\n      swap2\n        /* \"#utility.yul\":763:1064   */\n      swap1\n      pop\n      jump\t// out\n\n    auxdata: 0xa2646970667358221220d85ee54cab84d427683398f99876f1600f7ae0219ea866721ae2dfc74811b86c64736f6c634300081d0033\n}\n",
				"bytecode": {
					"linkReferences": {},
					"object": "6080604052348015600e575f5ffd5b506102aa8061001c5f395ff3fe608060405260043610610049575f3560e01c806339097bc21461004d5780633fa4f245146100625780634e70b1dc1461008a57806367e404ce1461009e578063da669c83146100d5575b5f5ffd5b61006061005b366004610229565b6100e8565b005b34801561006d575f5ffd5b5061007760025481565b6040519081526020015b60405180910390f35b348015610095575f5ffd5b506100775f5481565b3480156100a9575f5ffd5b506001546100bd906001600160a01b031681565b6040516001600160a01b039091168152602001610081565b6100606100e3366004610229565b610193565b5f5f836001600160a01b0316636466414b60e01b8460405160240161010f91815260200190565b60408051601f198184030181529181526020820180516001600160e01b03166001600160e01b031990941693909317909252905161014d919061025e565b5f60405180830381855af49150503d805f8114610185576040519150601f19603f3d011682016040523d82523d5f602084013e61018a565b606091505b50505050505050565b816001600160a01b0316816040516024016101b091815260200190565b60408051601f198184030181529181526020820180516001600160e01b0316636466414b60e01b179052516101e5919061025e565b5f60405180830381855af49150503d805f811461021d576040519150601f19603f3d011682016040523d82523d5f602084013e610222565b606091505b5050505050565b5f5f6040838503121561023a575f5ffd5b82356001600160a01b0381168114610250575f5ffd5b946020939093013593505050565b5f82518060208501845e5f92019182525091905056fea2646970667358221220d85ee54cab84d427683398f99876f1600f7ae0219ea866721ae2dfc74811b86c64736f6c634300081d0033",
					"opcodes": "PUSH1 0x80 PUSH1 0x40 MSTORE CALLVALUE DUP1 ISZERO PUSH1 0xE JUMPI PUSH0 PUSH0 REVERT JUMPDEST POP PUSH2 0x2AA DUP1 PUSH2 0x1C PUSH0 CODECOPY PUSH0 RETURN INVALID PUSH1 0x80 PUSH1 0x40 MSTORE PUSH1 0x4 CALLDATASIZE LT PUSH2 0x49 JUMPI PUSH0 CALLDATALOAD PUSH1 0xE0 SHR DUP1 PUSH4 0x39097BC2 EQ PUSH2 0x4D JUMPI DUP1 PUSH4 0x3FA4F245 EQ PUSH2 0x62 JUMPI DUP1 PUSH4 0x4E70B1DC EQ PUSH2 0x8A JUMPI DUP1 PUSH4 0x67E404CE EQ PUSH2 0x9E JUMPI DUP1 PUSH4 0xDA669C83 EQ PUSH2 0xD5 JUMPI JUMPDEST PUSH0 PUSH0 REVERT JUMPDEST PUSH2 0x60 PUSH2 0x5B CALLDATASIZE PUSH1 0x4 PUSH2 0x229 JUMP JUMPDEST PUSH2 0xE8 JUMP JUMPDEST STOP JUMPDEST CALLVALUE DUP1 ISZERO PUSH2 0x6D JUMPI PUSH0 PUSH0 REVERT JUMPDEST POP PUSH2 0x77 PUSH1 0x2 SLOAD DUP2 JUMP JUMPDEST PUSH1 0x40 MLOAD SWAP1 DUP2 MSTORE PUSH1 0x20 ADD JUMPDEST PUSH1 0x40 MLOAD DUP1 SWAP2 SUB SWAP1 RETURN JUMPDEST CALLVALUE DUP1 ISZERO PUSH2 0x95 JUMPI PUSH0 PUSH0 REVERT JUMPDEST POP PUSH2 0x77 PUSH0 SLOAD DUP2 JUMP JUMPDEST CALLVALUE DUP1 ISZERO PUSH2 0xA9 JUMPI PUSH0 PUSH0 REVERT JUMPDEST POP PUSH1 0x1 SLOAD PUSH2 0xBD SWAP1 PUSH1 0x1 PUSH1 0x1 PUSH1 0xA0 SHL SUB AND DUP2 JUMP JUMPDEST PUSH1 0x40 MLOAD PUSH1 0x1 PUSH1 0x1 PUSH1 0xA0 SHL SUB SWAP1 SWAP2 AND DUP2 MSTORE PUSH1 0x20 ADD PUSH2 0x81 JUMP JUMPDEST PUSH2 0x60 PUSH2 0xE3 CALLDATASIZE PUSH1 0x4 PUSH2 0x229 JUMP JUMPDEST PUSH2 0x193 JUMP JUMPDEST PUSH0 PUSH0 DUP4 PUSH1 0x1 PUSH1 0x1 PUSH1 0xA0 SHL SUB AND PUSH4 0x6466414B PUSH1 0xE0 SHL DUP5 PUSH1 0x40 MLOAD PUSH1 0x24 ADD PUSH2 0x10F SWAP2 DUP2 MSTORE PUSH1 0x20 ADD SWAP1 JUMP JUMPDEST PUSH1 0x40 DUP1 MLOAD PUSH1 0x1F NOT DUP2 DUP5 SUB ADD DUP2 MSTORE SWAP2 DUP2 MSTORE PUSH1 0x20 DUP3 ADD DUP1 MLOAD PUSH1 0x1 PUSH1 0x1 PUSH1 0xE0 SHL SUB AND PUSH1 0x1 PUSH1 0x1 PUSH1 0xE0 SHL SUB NOT SWAP1 SWAP5 AND SWAP4 SWAP1 SWAP4 OR SWAP1 SWAP3 MSTORE SWAP1 MLOAD PUSH2 0x14D SWAP2 SWAP1 PUSH2 0x25E JUMP JUMPDEST PUSH0 PUSH1 0x40 MLOAD DUP1 DUP4 SUB DUP2 DUP6 GAS DELEGATECALL SWAP2 POP POP RETURNDATASIZE DUP1 PUSH0 DUP2 EQ PUSH2 0x185 JUMPI PUSH1 0x40 MLOAD SWAP2 POP PUSH1 0x1F NOT PUSH1 0x3F RETURNDATASIZE ADD AND DUP3 ADD PUSH1 0x40 MSTORE RETURNDATASIZE DUP3 MSTORE RETURNDATASIZE PUSH0 PUSH1 0x20 DUP5 ADD RETURNDATACOPY PUSH2 0x18A JUMP JUMPDEST PUSH1 0x60 SWAP2 POP JUMPDEST POP POP POP POP POP POP POP JUMP JUMPDEST DUP2 PUSH1 0x1 PUSH1 0x1 PUSH1 0xA0 SHL SUB AND DUP2 PUSH1 0x40 MLOAD PUSH1 0x24 ADD PUSH2 0x1B0 SWAP2 DUP2 MSTORE PUSH1 0x20 ADD SWAP1 JUMP JUMPDEST PUSH1 0x40 DUP1 MLOAD PUSH1 0x1F NOT DUP2 DUP5 SUB ADD DUP2 MSTORE SWAP2 DUP2 MSTORE PUSH1 0x20 DUP3 ADD DUP1 MLOAD PUSH1 0x1 PUSH1 0x1 PUSH1 0xE0 SHL SUB AND PUSH4 0x6466414B PUSH1 0xE0 SHL OR SWAP1 MSTORE MLOAD PUSH2 0x1E5 SWAP2 SWAP1 PUSH2 0x25E JUMP JUMPDEST PUSH0 PUSH1 0x40 MLOAD DUP1 DUP4 SUB DUP2 DUP6 GAS DELEGATECALL SWAP2 POP POP RETURNDATASIZE DUP1 PUSH0 DUP2 EQ PUSH2 0x21D JUMPI PUSH1 0x40 MLOAD SWAP2 POP PUSH1 0x1F NOT PUSH1 0x3F RETURNDATASIZE ADD AND DUP3 ADD PUSH1 0x40 MSTORE RETURNDATASIZE DUP3 MSTORE RETURNDATASIZE PUSH0 PUSH1 0x20 DUP5 ADD RETURNDATACOPY PUSH2 0x222 JUMP JUMPDEST PUSH1 0x60 SWAP2 POP JUMPDEST POP POP POP POP POP JUMP JUMPDEST PUSH0 PUSH0 PUSH1 0x40 DUP4 DUP6 SUB SLT ISZERO PUSH2 0x23A JUMPI PUSH0 PUSH0 REVERT JUMPDEST DUP3 CALLDATALOAD PUSH1 0x1 PUSH1 0x1 PUSH1 0xA0 SHL SUB DUP2 AND DUP2 EQ PUSH2 0x250 JUMPI PUSH0 PUSH0 REVERT JUMPDEST SWAP5 PUSH1 0x20 SWAP4 SWAP1 SWAP4 ADD CALLDATALOAD SWAP4 POP POP POP JUMP JUMPDEST PUSH0 DUP3 MLOAD DUP1 PUSH1 0x20 DUP6 ADD DUP5 MCOPY PUSH0 SWAP3 ADD SWAP2 DUP3 MSTORE POP SWAP2 SWAP1 POP JUMP INVALID LOG2 PUSH5 0x6970667358 0x22 SLT KECCAK256 0xD8 MCOPY JUMPF 0x4CAB DUP5 0xD4 0x27 PUSH9 0x3398F99876F1600F7A RJUMP 0x219E 0xA8 PUSH7 0x721AE2DFC74811 0xB8 PUSH13 0x64736F6C634300081D00330000 "
				},
				"gasEstimates": {
					"creation": {
						"codeDepositCost": "136400",
						"executionCost": "181",
						"totalCost": "136581"
					},
					"external": {
						"num()": "2304",
						"sender()": "2380",
						"setVars1(address,uint256)": "infinite",
						"setVars2(address,uint256)": "infinite",
						"value()": "2283"
					}
				},
				"methodIdentifiers": {
					"num()": "4e70b1dc",
					"sender()": "67e404ce",
					"setVars1(address,uint256)": "da669c83",
					"setVars2(address,uint256)": "39097bc2",
					"value()": "3fa4f245"
				}
			},
			"storageLayout": {
				"storage": [
					{
						"astId": 32,
						"contract": "DelegateCall.sol:A",
						"label": "num",
						"offset": 0,
						"slot": "0",
						"type": "t_uint256"
					},
					{
						"astId": 34,
						"contract": "DelegateCall.sol:A",
						"label": "sender",
						"offset": 0,
						"slot": "1",
						"type": "t_address"
					},
					{
						"astId": 36,
						"contract": "DelegateCall.sol:A",
						"label": "value",
						"offset": 0,
						"slot": "2",
						"type": "t_uint256"
					}
				],
				"types": {
					"t_address": {
						"encoding": "inplace",
						"label": "address",
						"numberOfBytes": "20"
					},
					"t_uint256": {
						"encoding": "inplace",
						"label": "uint256",
						"numberOfBytes": "32"
					}
				}
			},
			"userdoc": {
				"kind": "user",
				"methods": {},
				"version": 1
			}
		}
	}
}