{
	"TotoList.sol": {
		"TotoList": {
			"abi": [
				{
					"inputs": [
						{
							"internalType": "string",
							"name": "_text",
							"type": "string"
						}
					],
					"name": "create",
					"outputs": [],
					"stateMutability": "nonpayable",
					"type": "function"
				},
				{
					"inputs": [
						{
							"internalType": "uint256",
							"name": "_index",
							"type": "uint256"
						}
					],
					"name": "get",
					"outputs": [
						{
							"internalType": "string",
							"name": "",
							"type": "string"
						}
					],
					"stateMutability": "view",
					"type": "function"
				},
				{
					"inputs": [
						{
							"internalType": "uint256",
							"name": "",
							"type": "uint256"
						}
					],
					"name": "todos",
					"outputs": [
						{
							"internalType": "string",
							"name": "text",
							"type": "string"
						},
						{
							"internalType": "bool",
							"name": "completed",
							"type": "bool"
						}
					],
					"stateMutability": "view",
					"type": "function"
				},
				{
					"inputs": [
						{
							"internalType": "uint256",
							"name": "_index",
							"type": "uint256"
						}
					],
					"name": "toggleCompleted",
					"outputs": [],
					"stateMutability": "nonpayable",
					"type": "function"
				},
				{
					"inputs": [
						{
							"internalType": "uint256",
							"name": "_index",
							"type": "uint256"
						},
						{
							"internalType": "string",
							"name": "_text",
							"type": "string"
						}
					],
					"name": "udpate",
					"outputs": [],
					"stateMutability": "nonpayable",
					"type": "function"
				},
				{
					"inputs": [
						{
							"internalType": "uint256",
							"name": "_index",
							"type": "uint256"
						},
						{
							"internalType": "string",
							"name": "_text",
							"type": "string"
						}
					],
					"name": "udpateText",
					"outputs": [],
					"stateMutability": "nonpayable",
					"type": "function"
				}
			],
			"devdoc": {
				"kind": "dev",
				"methods": {},
				"version": 1
			},
			"evm": {
				"assembly": "    /* \"TotoList.sol\":106:936  contract TotoList {... */\n  mstore(0x40, 0x80)\n  callvalue\n  dup1\n  iszero\n  tag_1\n  jumpi\n  0x00\n  dup1\n  revert\ntag_1:\n  pop\n  dataSize(sub_0)\n  dup1\n  dataOffset(sub_0)\n  0x00\n  codecopy\n  0x00\n  return\nstop\n\nsub_0: assembly {\n        /* \"TotoList.sol\":106:936  contract TotoList {... */\n      mstore(0x40, 0x80)\n      callvalue\n      dup1\n      iszero\n      tag_1\n      jumpi\n      0x00\n      dup1\n      revert\n    tag_1:\n      pop\n      jumpi(tag_2, lt(calldatasize, 0x04))\n      shr(0xe0, calldataload(0x00))\n      dup1\n      0x455f5024\n      eq\n      tag_3\n      jumpi\n      dup1\n      0x86c679d0\n      eq\n      tag_4\n      jumpi\n      dup1\n      0x9507d39a\n      eq\n      tag_5\n      jumpi\n      dup1\n      0xb6a46b3b\n      eq\n      tag_6\n      jumpi\n      dup1\n      0xbc8bc2b4\n      eq\n      tag_7\n      jumpi\n      dup1\n      0xd7fa6a7b\n      eq\n      tag_8\n      jumpi\n    tag_2:\n      0x00\n      dup1\n      revert\n        /* \"TotoList.sol\":819:933  function toggleCompleted(uint _index) external {... */\n    tag_3:\n      tag_9\n      tag_10\n      calldatasize\n      0x04\n      tag_11\n      jump\t// in\n    tag_10:\n      tag_12\n      jump\t// in\n    tag_9:\n      stop\n        /* \"TotoList.sol\":342:451  function udpateText(uint _index,string calldata _text) external {... */\n    tag_4:\n      tag_9\n      tag_14\n      calldatasize\n      0x04\n      tag_15\n      jump\t// in\n    tag_14:\n      tag_16\n      jump\t// in\n        /* \"TotoList.sol\":706:811  function get(uint _index) public view returns (string memory){... */\n    tag_5:\n      tag_17\n      tag_18\n      calldatasize\n      0x04\n      tag_11\n      jump\t// in\n    tag_18:\n      tag_19\n      jump\t// in\n    tag_17:\n      mload(0x40)\n      tag_20\n      swap2\n      swap1\n      tag_21\n      jump\t// in\n    tag_20:\n      mload(0x40)\n      dup1\n      swap2\n      sub\n      swap1\n      return\n        /* \"TotoList.sol\":233:330  function create(string calldata _text) external {... */\n    tag_6:\n      tag_9\n      tag_23\n      calldatasize\n      0x04\n      tag_24\n      jump\t// in\n    tag_23:\n      tag_25\n      jump\t// in\n        /* \"TotoList.sol\":205:224  Todo[] public todos */\n    tag_7:\n      tag_26\n      tag_27\n      calldatasize\n      0x04\n      tag_11\n      jump\t// in\n    tag_27:\n      tag_28\n      jump\t// in\n    tag_26:\n      mload(0x40)\n      tag_20\n      swap3\n      swap2\n      swap1\n      tag_30\n      jump\t// in\n        /* \"TotoList.sol\":520:659  function udpate(uint _index,string calldata _text) external {... */\n    tag_8:\n      tag_9\n      tag_32\n      calldatasize\n      0x04\n      tag_15\n      jump\t// in\n    tag_32:\n      tag_33\n      jump\t// in\n        /* \"TotoList.sol\":819:933  function toggleCompleted(uint _index) external {... */\n    tag_12:\n        /* \"TotoList.sol\":902:907  todos */\n      0x00\n        /* \"TotoList.sol\":908:914  _index */\n      dup2\n        /* \"TotoList.sol\":902:915  todos[_index] */\n      dup2\n      sload\n      dup2\n      lt\n      tag_36\n      jumpi\n      tag_36\n      tag_37\n      jump\t// in\n    tag_36:\n      0x00\n      swap2\n      dup3\n      mstore\n      0x20\n      dup3\n      keccak256\n        /* \"TotoList.sol\":902:925  todos[_index].completed */\n      0x01\n        /* \"TotoList.sol\":902:915  todos[_index] */\n      0x02\n      swap1\n      swap3\n      mul\n      add\n        /* \"TotoList.sol\":902:925  todos[_index].completed */\n      add\n      sload\n        /* \"TotoList.sol\":877:890  todos[_index] */\n      dup2\n      sload\n        /* \"TotoList.sol\":902:925  todos[_index].completed */\n      0xff\n      swap1\n      swap2\n      and\n        /* \"TotoList.sol\":901:925  !todos[_index].completed */\n      iszero\n      swap2\n        /* \"TotoList.sol\":902:915  todos[_index] */\n      swap1\n        /* \"TotoList.sol\":883:889  _index */\n      dup4\n      swap1\n        /* \"TotoList.sol\":877:890  todos[_index] */\n      dup2\n      lt\n      tag_40\n      jumpi\n      tag_40\n      tag_37\n      jump\t// in\n    tag_40:\n      0x00\n      swap2\n      dup3\n      mstore\n      0x20\n      swap1\n      swap2\n      keccak256\n      0x02\n      swap1\n      swap2\n      mul\n      add\n        /* \"TotoList.sol\":877:900  todos[_index].completed */\n      0x01\n      add\n        /* \"TotoList.sol\":877:925  todos[_index].completed=!todos[_index].completed */\n      dup1\n      sload\n      not(0xff)\n      and\n      swap2\n      iszero\n      iszero\n      swap2\n      swap1\n      swap2\n      or\n      swap1\n      sstore\n      pop\n        /* \"TotoList.sol\":819:933  function toggleCompleted(uint _index) external {... */\n      jump\t// out\n        /* \"TotoList.sol\":342:451  function udpateText(uint _index,string calldata _text) external {... */\n    tag_16:\n        /* \"TotoList.sol\":438:443  _text */\n      dup2\n      dup2\n        /* \"TotoList.sol\":417:422  todos */\n      0x00\n        /* \"TotoList.sol\":423:429  _index */\n      dup6\n        /* \"TotoList.sol\":417:430  todos[_index] */\n      dup2\n      sload\n      dup2\n      lt\n      tag_44\n      jumpi\n      tag_44\n      tag_37\n      jump\t// in\n    tag_44:\n      swap1\n      0x00\n      mstore\n      keccak256(0x00, 0x20)\n      swap1\n      0x02\n      mul\n      add\n        /* \"TotoList.sol\":417:435  todos[_index].text */\n      0x00\n      add\n        /* \"TotoList.sol\":417:443  todos[_index].text = _text */\n      swap2\n      dup3\n      tag_46\n      swap3\n      swap2\n      swap1\n      tag_47\n      jump\t// in\n    tag_46:\n      pop\n        /* \"TotoList.sol\":342:451  function udpateText(uint _index,string calldata _text) external {... */\n      pop\n      pop\n      pop\n      jump\t// out\n        /* \"TotoList.sol\":706:811  function get(uint _index) public view returns (string memory){... */\n    tag_19:\n        /* \"TotoList.sol\":753:766  string memory */\n      0x60\n        /* \"TotoList.sol\":785:790  todos */\n      0x00\n        /* \"TotoList.sol\":791:797  _index */\n      dup3\n        /* \"TotoList.sol\":785:798  todos[_index] */\n      dup2\n      sload\n      dup2\n      lt\n      tag_50\n      jumpi\n      tag_50\n      tag_37\n      jump\t// in\n    tag_50:\n      swap1\n      0x00\n      mstore\n      keccak256(0x00, 0x20)\n      swap1\n      0x02\n      mul\n      add\n        /* \"TotoList.sol\":785:803  todos[_index].text */\n      0x00\n      add\n        /* \"TotoList.sol\":778:803  return todos[_index].text */\n      dup1\n      sload\n      tag_52\n      swap1\n      tag_53\n      jump\t// in\n    tag_52:\n      dup1\n      0x1f\n      add\n      0x20\n      dup1\n      swap2\n      div\n      mul\n      0x20\n      add\n      mload(0x40)\n      swap1\n      dup2\n      add\n      0x40\n      mstore\n      dup1\n      swap3\n      swap2\n      swap1\n      dup2\n      dup2\n      mstore\n      0x20\n      add\n      dup3\n      dup1\n      sload\n      tag_54\n      swap1\n      tag_53\n      jump\t// in\n    tag_54:\n      dup1\n      iszero\n      tag_55\n      jumpi\n      dup1\n      0x1f\n      lt\n      tag_56\n      jumpi\n      0x0100\n      dup1\n      dup4\n      sload\n      div\n      mul\n      dup4\n      mstore\n      swap2\n      0x20\n      add\n      swap2\n      jump(tag_55)\n    tag_56:\n      dup3\n      add\n      swap2\n      swap1\n      0x00\n      mstore\n      keccak256(0x00, 0x20)\n      swap1\n    tag_57:\n      dup2\n      sload\n      dup2\n      mstore\n      swap1\n      0x01\n      add\n      swap1\n      0x20\n      add\n      dup1\n      dup4\n      gt\n      tag_57\n      jumpi\n      dup3\n      swap1\n      sub\n      0x1f\n      and\n      dup3\n      add\n      swap2\n    tag_55:\n      pop\n      pop\n      pop\n      pop\n      pop\n      swap1\n      pop\n        /* \"TotoList.sol\":706:811  function get(uint _index) public view returns (string memory){... */\n      swap2\n      swap1\n      pop\n      jump\t// out\n        /* \"TotoList.sol\":233:330  function create(string calldata _text) external {... */\n    tag_25:\n        /* \"TotoList.sol\":303:321  Todo(_text, false) */\n      0x40\n      dup1\n      mload\n      0x60\n      0x20\n      0x1f\n      dup6\n      add\n      dup2\n      swap1\n      div\n      mul\n      dup3\n      add\n      dup2\n      add\n      dup4\n      mstore\n      swap2\n      dup2\n      add\n      dup4\n      dup2\n      mstore\n        /* \"TotoList.sol\":292:297  todos */\n      0x00\n      swap3\n        /* \"TotoList.sol\":303:321  Todo(_text, false) */\n      dup3\n      swap2\n      swap1\n        /* \"TotoList.sol\":308:313  _text */\n      dup7\n      swap1\n      dup7\n      swap1\n      dup2\n      swap1\n        /* \"TotoList.sol\":303:321  Todo(_text, false) */\n      dup6\n      add\n        /* \"TotoList.sol\":308:313  _text */\n      dup4\n      dup3\n      dup1\n      dup3\n        /* \"TotoList.sol\":303:321  Todo(_text, false) */\n      dup5\n      calldatacopy\n      0x00\n      swap3\n      add\n      dup3\n      swap1\n      mstore\n      pop\n      swap4\n      dup6\n      mstore\n      pop\n      pop\n      pop\n      0x20\n      swap2\n      dup3\n      add\n      dup2\n      swap1\n      mstore\n        /* \"TotoList.sol\":292:322  todos.push(Todo(_text, false)) */\n      dup4\n      sload\n        /* \"TotoList.sol\":303:321  Todo(_text, false) */\n      0x01\n        /* \"TotoList.sol\":292:322  todos.push(Todo(_text, false)) */\n      dup2\n      add\n      dup6\n      sstore\n      swap4\n      dup2\n      mstore\n      keccak256\n      dup2\n      mload\n      swap2\n      swap3\n      0x02\n      mul\n      add\n      swap1\n      dup2\n      swap1\n      tag_60\n      swap1\n      dup3\n      tag_61\n      jump\t// in\n    tag_60:\n      pop\n      0x20\n      swap2\n      swap1\n      swap2\n      add\n      mload\n      0x01\n      swap1\n      swap2\n      add\n      dup1\n      sload\n      not(0xff)\n      and\n      swap2\n      iszero\n      iszero\n      swap2\n      swap1\n      swap2\n      or\n      swap1\n      sstore\n      pop\n      pop\n        /* \"TotoList.sol\":233:330  function create(string calldata _text) external {... */\n      jump\t// out\n        /* \"TotoList.sol\":205:224  Todo[] public todos */\n    tag_28:\n      0x00\n      dup2\n      dup2\n      sload\n      dup2\n      lt\n      tag_62\n      jumpi\n      0x00\n      dup1\n      revert\n    tag_62:\n      swap1\n      0x00\n      mstore\n      keccak256(0x00, 0x20)\n      swap1\n      0x02\n      mul\n      add\n      0x00\n      swap2\n      pop\n      swap1\n      pop\n      dup1\n      0x00\n      add\n      dup1\n      sload\n      tag_64\n      swap1\n      tag_53\n      jump\t// in\n    tag_64:\n      dup1\n      0x1f\n      add\n      0x20\n      dup1\n      swap2\n      div\n      mul\n      0x20\n      add\n      mload(0x40)\n      swap1\n      dup2\n      add\n      0x40\n      mstore\n      dup1\n      swap3\n      swap2\n      swap1\n      dup2\n      dup2\n      mstore\n      0x20\n      add\n      dup3\n      dup1\n      sload\n      tag_65\n      swap1\n      tag_53\n      jump\t// in\n    tag_65:\n      dup1\n      iszero\n      tag_66\n      jumpi\n      dup1\n      0x1f\n      lt\n      tag_67\n      jumpi\n      0x0100\n      dup1\n      dup4\n      sload\n      div\n      mul\n      dup4\n      mstore\n      swap2\n      0x20\n      add\n      swap2\n      jump(tag_66)\n    tag_67:\n      dup3\n      add\n      swap2\n      swap1\n      0x00\n      mstore\n      keccak256(0x00, 0x20)\n      swap1\n    tag_68:\n      dup2\n      sload\n      dup2\n      mstore\n      swap1\n      0x01\n      add\n      swap1\n      0x20\n      add\n      dup1\n      dup4\n      gt\n      tag_68\n      jumpi\n      dup3\n      swap1\n      sub\n      0x1f\n      and\n      dup3\n      add\n      swap2\n    tag_66:\n      pop\n      pop\n      pop\n      0x01\n      swap1\n      swap4\n      add\n      sload\n      swap2\n      swap3\n      pop\n      pop\n      0xff\n      and\n      dup3\n      jump\t// out\n        /* \"TotoList.sol\":520:659  function udpate(uint _index,string calldata _text) external {... */\n    tag_33:\n        /* \"TotoList.sol\":591:608  Todo storage toto */\n      0x00\n        /* \"TotoList.sol\":610:615  todos */\n      dup1\n        /* \"TotoList.sol\":616:622  _index */\n      dup5\n        /* \"TotoList.sol\":610:623  todos[_index] */\n      dup2\n      sload\n      dup2\n      lt\n      tag_71\n      jumpi\n      tag_71\n      tag_37\n      jump\t// in\n    tag_71:\n      0x00\n      swap2\n      dup3\n      mstore\n      0x20\n      swap1\n      swap2\n      keccak256\n      0x02\n      swap1\n      swap2\n      mul\n      add\n      swap1\n      pop\n      dup1\n        /* \"TotoList.sol\":634:651  toto.text = _text */\n      tag_73\n        /* \"TotoList.sol\":646:651  _text */\n      dup4\n      dup6\n        /* \"TotoList.sol\":610:623  todos[_index] */\n      dup4\n        /* \"TotoList.sol\":634:651  toto.text = _text */\n      tag_47\n      jump\t// in\n    tag_73:\n      pop\n        /* \"TotoList.sol\":580:659  {... */\n      pop\n        /* \"TotoList.sol\":520:659  function udpate(uint _index,string calldata _text) external {... */\n      pop\n      pop\n      pop\n      jump\t// out\n        /* \"#utility.yul\":14:240   */\n    tag_11:\n        /* \"#utility.yul\":73:79   */\n      0x00\n        /* \"#utility.yul\":126:128   */\n      0x20\n        /* \"#utility.yul\":114:123   */\n      dup3\n        /* \"#utility.yul\":105:112   */\n      dup5\n        /* \"#utility.yul\":101:124   */\n      sub\n        /* \"#utility.yul\":97:129   */\n      slt\n        /* \"#utility.yul\":94:146   */\n      iszero\n      tag_82\n      jumpi\n        /* \"#utility.yul\":142:143   */\n      0x00\n        /* \"#utility.yul\":139:140   */\n      dup1\n        /* \"#utility.yul\":132:144   */\n      revert\n        /* \"#utility.yul\":94:146   */\n    tag_82:\n      pop\n        /* \"#utility.yul\":187:210   */\n      calldataload\n      swap2\n        /* \"#utility.yul\":14:240   */\n      swap1\n      pop\n      jump\t// out\n        /* \"#utility.yul\":245:593   */\n    tag_74:\n        /* \"#utility.yul\":297:305   */\n      0x00\n        /* \"#utility.yul\":307:313   */\n      dup1\n        /* \"#utility.yul\":361:364   */\n      dup4\n        /* \"#utility.yul\":354:358   */\n      0x1f\n        /* \"#utility.yul\":346:352   */\n      dup5\n        /* \"#utility.yul\":342:359   */\n      add\n        /* \"#utility.yul\":338:365   */\n      slt\n        /* \"#utility.yul\":328:383   */\n      tag_84\n      jumpi\n        /* \"#utility.yul\":379:380   */\n      0x00\n        /* \"#utility.yul\":376:377   */\n      dup1\n        /* \"#utility.yul\":369:381   */\n      revert\n        /* \"#utility.yul\":328:383   */\n    tag_84:\n      pop\n        /* \"#utility.yul\":402:422   */\n      dup2\n      calldataload\n        /* \"#utility.yul\":445:463   */\n      0xffffffffffffffff\n        /* \"#utility.yul\":434:464   */\n      dup2\n      gt\n        /* \"#utility.yul\":431:481   */\n      iszero\n      tag_85\n      jumpi\n        /* \"#utility.yul\":477:478   */\n      0x00\n        /* \"#utility.yul\":474:475   */\n      dup1\n        /* \"#utility.yul\":467:479   */\n      revert\n        /* \"#utility.yul\":431:481   */\n    tag_85:\n        /* \"#utility.yul\":514:518   */\n      0x20\n        /* \"#utility.yul\":506:512   */\n      dup4\n        /* \"#utility.yul\":502:519   */\n      add\n        /* \"#utility.yul\":490:519   */\n      swap2\n      pop\n        /* \"#utility.yul\":566:569   */\n      dup4\n        /* \"#utility.yul\":559:563   */\n      0x20\n        /* \"#utility.yul\":550:556   */\n      dup3\n        /* \"#utility.yul\":542:548   */\n      dup6\n        /* \"#utility.yul\":538:557   */\n      add\n        /* \"#utility.yul\":534:564   */\n      add\n        /* \"#utility.yul\":531:570   */\n      gt\n        /* \"#utility.yul\":528:587   */\n      iszero\n      tag_86\n      jumpi\n        /* \"#utility.yul\":583:584   */\n      0x00\n        /* \"#utility.yul\":580:581   */\n      dup1\n        /* \"#utility.yul\":573:585   */\n      revert\n        /* \"#utility.yul\":528:587   */\n    tag_86:\n        /* \"#utility.yul\":245:593   */\n      swap3\n      pop\n      swap3\n      swap1\n      pop\n      jump\t// out\n        /* \"#utility.yul\":598:1123   */\n    tag_15:\n        /* \"#utility.yul\":678:684   */\n      0x00\n        /* \"#utility.yul\":686:692   */\n      dup1\n        /* \"#utility.yul\":694:700   */\n      0x00\n        /* \"#utility.yul\":747:749   */\n      0x40\n        /* \"#utility.yul\":735:744   */\n      dup5\n        /* \"#utility.yul\":726:733   */\n      dup7\n        /* \"#utility.yul\":722:745   */\n      sub\n        /* \"#utility.yul\":718:750   */\n      slt\n        /* \"#utility.yul\":715:767   */\n      iszero\n      tag_88\n      jumpi\n        /* \"#utility.yul\":763:764   */\n      0x00\n        /* \"#utility.yul\":760:761   */\n      dup1\n        /* \"#utility.yul\":753:765   */\n      revert\n        /* \"#utility.yul\":715:767   */\n    tag_88:\n        /* \"#utility.yul\":808:831   */\n      dup4\n      calldataload\n      swap3\n      pop\n        /* \"#utility.yul\":906:908   */\n      0x20\n        /* \"#utility.yul\":891:909   */\n      dup5\n      add\n        /* \"#utility.yul\":878:910   */\n      calldataload\n        /* \"#utility.yul\":933:951   */\n      0xffffffffffffffff\n        /* \"#utility.yul\":922:952   */\n      dup2\n      gt\n        /* \"#utility.yul\":919:969   */\n      iszero\n      tag_89\n      jumpi\n        /* \"#utility.yul\":965:966   */\n      0x00\n        /* \"#utility.yul\":962:963   */\n      dup1\n        /* \"#utility.yul\":955:967   */\n      revert\n        /* \"#utility.yul\":919:969   */\n    tag_89:\n        /* \"#utility.yul\":1004:1063   */\n      tag_90\n        /* \"#utility.yul\":1055:1062   */\n      dup7\n        /* \"#utility.yul\":1046:1052   */\n      dup3\n        /* \"#utility.yul\":1035:1044   */\n      dup8\n        /* \"#utility.yul\":1031:1053   */\n      add\n        /* \"#utility.yul\":1004:1063   */\n      tag_74\n      jump\t// in\n    tag_90:\n        /* \"#utility.yul\":598:1123   */\n      swap5\n      swap8\n        /* \"#utility.yul\":1082:1090   */\n      swap1\n      swap7\n      pop\n        /* \"#utility.yul\":978:1063   */\n      swap4\n      swap5\n      pop\n      pop\n      pop\n      pop\n        /* \"#utility.yul\":598:1123   */\n      jump\t// out\n        /* \"#utility.yul\":1128:1417   */\n    tag_75:\n        /* \"#utility.yul\":1170:1173   */\n      0x00\n        /* \"#utility.yul\":1208:1213   */\n      dup2\n        /* \"#utility.yul\":1202:1214   */\n      mload\n        /* \"#utility.yul\":1235:1241   */\n      dup1\n        /* \"#utility.yul\":1230:1233   */\n      dup5\n        /* \"#utility.yul\":1223:1242   */\n      mstore\n        /* \"#utility.yul\":1291:1297   */\n      dup1\n        /* \"#utility.yul\":1284:1288   */\n      0x20\n        /* \"#utility.yul\":1277:1282   */\n      dup5\n        /* \"#utility.yul\":1273:1289   */\n      add\n        /* \"#utility.yul\":1266:1270   */\n      0x20\n        /* \"#utility.yul\":1261:1264   */\n      dup7\n        /* \"#utility.yul\":1257:1271   */\n      add\n        /* \"#utility.yul\":1251:1298   */\n      mcopy\n        /* \"#utility.yul\":1343:1344   */\n      0x00\n        /* \"#utility.yul\":1336:1340   */\n      0x20\n        /* \"#utility.yul\":1327:1333   */\n      dup3\n        /* \"#utility.yul\":1322:1325   */\n      dup7\n        /* \"#utility.yul\":1318:1334   */\n      add\n        /* \"#utility.yul\":1314:1341   */\n      add\n        /* \"#utility.yul\":1307:1345   */\n      mstore\n        /* \"#utility.yul\":1406:1410   */\n      0x20\n        /* \"#utility.yul\":1399:1401   */\n      0x1f\n        /* \"#utility.yul\":1395:1402   */\n      not\n        /* \"#utility.yul\":1390:1392   */\n      0x1f\n        /* \"#utility.yul\":1382:1388   */\n      dup4\n        /* \"#utility.yul\":1378:1393   */\n      add\n        /* \"#utility.yul\":1374:1403   */\n      and\n        /* \"#utility.yul\":1369:1372   */\n      dup6\n        /* \"#utility.yul\":1365:1404   */\n      add\n        /* \"#utility.yul\":1361:1411   */\n      add\n        /* \"#utility.yul\":1354:1411   */\n      swap2\n      pop\n      pop\n        /* \"#utility.yul\":1128:1417   */\n      swap3\n      swap2\n      pop\n      pop\n      jump\t// out\n        /* \"#utility.yul\":1422:1642   */\n    tag_21:\n        /* \"#utility.yul\":1571:1573   */\n      0x20\n        /* \"#utility.yul\":1560:1569   */\n      dup2\n        /* \"#utility.yul\":1553:1574   */\n      mstore\n        /* \"#utility.yul\":1534:1538   */\n      0x00\n        /* \"#utility.yul\":1591:1636   */\n      tag_93\n        /* \"#utility.yul\":1632:1634   */\n      0x20\n        /* \"#utility.yul\":1621:1630   */\n      dup4\n        /* \"#utility.yul\":1617:1635   */\n      add\n        /* \"#utility.yul\":1609:1615   */\n      dup5\n        /* \"#utility.yul\":1591:1636   */\n      tag_75\n      jump\t// in\n    tag_93:\n        /* \"#utility.yul\":1583:1636   */\n      swap4\n        /* \"#utility.yul\":1422:1642   */\n      swap3\n      pop\n      pop\n      pop\n      jump\t// out\n        /* \"#utility.yul\":1647:2058   */\n    tag_24:\n        /* \"#utility.yul\":1718:1724   */\n      0x00\n        /* \"#utility.yul\":1726:1732   */\n      dup1\n        /* \"#utility.yul\":1779:1781   */\n      0x20\n        /* \"#utility.yul\":1767:1776   */\n      dup4\n        /* \"#utility.yul\":1758:1765   */\n      dup6\n        /* \"#utility.yul\":1754:1777   */\n      sub\n        /* \"#utility.yul\":1750:1782   */\n      slt\n        /* \"#utility.yul\":1747:1799   */\n      iszero\n      tag_95\n      jumpi\n        /* \"#utility.yul\":1795:1796   */\n      0x00\n        /* \"#utility.yul\":1792:1793   */\n      dup1\n        /* \"#utility.yul\":1785:1797   */\n      revert\n        /* \"#utility.yul\":1747:1799   */\n    tag_95:\n        /* \"#utility.yul\":1835:1844   */\n      dup3\n        /* \"#utility.yul\":1822:1845   */\n      calldataload\n        /* \"#utility.yul\":1868:1886   */\n      0xffffffffffffffff\n        /* \"#utility.yul\":1860:1866   */\n      dup2\n        /* \"#utility.yul\":1857:1887   */\n      gt\n        /* \"#utility.yul\":1854:1904   */\n      iszero\n      tag_96\n      jumpi\n        /* \"#utility.yul\":1900:1901   */\n      0x00\n        /* \"#utility.yul\":1897:1898   */\n      dup1\n        /* \"#utility.yul\":1890:1902   */\n      revert\n        /* \"#utility.yul\":1854:1904   */\n    tag_96:\n        /* \"#utility.yul\":1939:1998   */\n      tag_97\n        /* \"#utility.yul\":1990:1997   */\n      dup6\n        /* \"#utility.yul\":1981:1987   */\n      dup3\n        /* \"#utility.yul\":1970:1979   */\n      dup7\n        /* \"#utility.yul\":1966:1988   */\n      add\n        /* \"#utility.yul\":1939:1998   */\n      tag_74\n      jump\t// in\n    tag_97:\n        /* \"#utility.yul\":2017:2025   */\n      swap1\n      swap7\n        /* \"#utility.yul\":1913:1998   */\n      swap1\n      swap6\n      pop\n        /* \"#utility.yul\":1647:2058   */\n      swap4\n      pop\n      pop\n      pop\n      pop\n      jump\t// out\n        /* \"#utility.yul\":2063:2364   */\n    tag_30:\n        /* \"#utility.yul\":2234:2236   */\n      0x40\n        /* \"#utility.yul\":2223:2232   */\n      dup2\n        /* \"#utility.yul\":2216:2237   */\n      mstore\n        /* \"#utility.yul\":2197:2201   */\n      0x00\n        /* \"#utility.yul\":2254:2299   */\n      tag_99\n        /* \"#utility.yul\":2295:2297   */\n      0x40\n        /* \"#utility.yul\":2284:2293   */\n      dup4\n        /* \"#utility.yul\":2280:2298   */\n      add\n        /* \"#utility.yul\":2272:2278   */\n      dup6\n        /* \"#utility.yul\":2254:2299   */\n      tag_75\n      jump\t// in\n    tag_99:\n        /* \"#utility.yul\":2246:2299   */\n      swap1\n      pop\n        /* \"#utility.yul\":2349:2355   */\n      dup3\n        /* \"#utility.yul\":2342:2356   */\n      iszero\n        /* \"#utility.yul\":2335:2357   */\n      iszero\n        /* \"#utility.yul\":2330:2332   */\n      0x20\n        /* \"#utility.yul\":2319:2328   */\n      dup4\n        /* \"#utility.yul\":2315:2333   */\n      add\n        /* \"#utility.yul\":2308:2358   */\n      mstore\n        /* \"#utility.yul\":2063:2364   */\n      swap4\n      swap3\n      pop\n      pop\n      pop\n      jump\t// out\n        /* \"#utility.yul\":2369:2496   */\n    tag_37:\n        /* \"#utility.yul\":2430:2440   */\n      0x4e487b71\n        /* \"#utility.yul\":2425:2428   */\n      0xe0\n        /* \"#utility.yul\":2421:2441   */\n      shl\n        /* \"#utility.yul\":2418:2419   */\n      0x00\n        /* \"#utility.yul\":2411:2442   */\n      mstore\n        /* \"#utility.yul\":2461:2465   */\n      0x32\n        /* \"#utility.yul\":2458:2459   */\n      0x04\n        /* \"#utility.yul\":2451:2466   */\n      mstore\n        /* \"#utility.yul\":2485:2489   */\n      0x24\n        /* \"#utility.yul\":2482:2483   */\n      0x00\n        /* \"#utility.yul\":2475:2490   */\n      revert\n        /* \"#utility.yul\":2501:2628   */\n    tag_76:\n        /* \"#utility.yul\":2562:2572   */\n      0x4e487b71\n        /* \"#utility.yul\":2557:2560   */\n      0xe0\n        /* \"#utility.yul\":2553:2573   */\n      shl\n        /* \"#utility.yul\":2550:2551   */\n      0x00\n        /* \"#utility.yul\":2543:2574   */\n      mstore\n        /* \"#utility.yul\":2593:2597   */\n      0x41\n        /* \"#utility.yul\":2590:2591   */\n      0x04\n        /* \"#utility.yul\":2583:2598   */\n      mstore\n        /* \"#utility.yul\":2617:2621   */\n      0x24\n        /* \"#utility.yul\":2614:2615   */\n      0x00\n        /* \"#utility.yul\":2607:2622   */\n      revert\n        /* \"#utility.yul\":2633:3013   */\n    tag_53:\n        /* \"#utility.yul\":2712:2713   */\n      0x01\n        /* \"#utility.yul\":2708:2720   */\n      dup2\n      dup2\n      shr\n      swap1\n        /* \"#utility.yul\":2755:2767   */\n      dup3\n      and\n      dup1\n        /* \"#utility.yul\":2776:2837   */\n      tag_103\n      jumpi\n        /* \"#utility.yul\":2830:2834   */\n      0x7f\n        /* \"#utility.yul\":2822:2828   */\n      dup3\n        /* \"#utility.yul\":2818:2835   */\n      and\n        /* \"#utility.yul\":2808:2835   */\n      swap2\n      pop\n        /* \"#utility.yul\":2776:2837   */\n    tag_103:\n        /* \"#utility.yul\":2883:2885   */\n      0x20\n        /* \"#utility.yul\":2875:2881   */\n      dup3\n        /* \"#utility.yul\":2872:2886   */\n      lt\n        /* \"#utility.yul\":2852:2870   */\n      dup2\n        /* \"#utility.yul\":2849:2887   */\n      sub\n        /* \"#utility.yul\":2846:3007   */\n      tag_104\n      jumpi\n        /* \"#utility.yul\":2929:2939   */\n      0x4e487b71\n        /* \"#utility.yul\":2924:2927   */\n      0xe0\n        /* \"#utility.yul\":2920:2940   */\n      shl\n        /* \"#utility.yul\":2917:2918   */\n      0x00\n        /* \"#utility.yul\":2910:2941   */\n      mstore\n        /* \"#utility.yul\":2964:2968   */\n      0x22\n        /* \"#utility.yul\":2961:2962   */\n      0x04\n        /* \"#utility.yul\":2954:2969   */\n      mstore\n        /* \"#utility.yul\":2992:2996   */\n      0x24\n        /* \"#utility.yul\":2989:2990   */\n      0x00\n        /* \"#utility.yul\":2982:2997   */\n      revert\n        /* \"#utility.yul\":2846:3007   */\n    tag_104:\n      pop\n        /* \"#utility.yul\":2633:3013   */\n      swap2\n      swap1\n      pop\n      jump\t// out\n        /* \"#utility.yul\":3144:3662   */\n    tag_78:\n        /* \"#utility.yul\":3246:3248   */\n      0x1f\n        /* \"#utility.yul\":3241:3244   */\n      dup3\n        /* \"#utility.yul\":3238:3249   */\n      gt\n        /* \"#utility.yul\":3235:3656   */\n      iszero\n      tag_107\n      jumpi\n        /* \"#utility.yul\":3282:3287   */\n      dup1\n        /* \"#utility.yul\":3279:3280   */\n      0x00\n        /* \"#utility.yul\":3272:3288   */\n      mstore\n        /* \"#utility.yul\":3326:3330   */\n      0x20\n        /* \"#utility.yul\":3323:3324   */\n      0x00\n        /* \"#utility.yul\":3313:3331   */\n      keccak256\n        /* \"#utility.yul\":3396:3398   */\n      0x1f\n        /* \"#utility.yul\":3384:3394   */\n      dup5\n        /* \"#utility.yul\":3380:3399   */\n      add\n        /* \"#utility.yul\":3377:3378   */\n      0x05\n        /* \"#utility.yul\":3373:3400   */\n      shr\n        /* \"#utility.yul\":3367:3371   */\n      dup2\n        /* \"#utility.yul\":3363:3401   */\n      add\n        /* \"#utility.yul\":3432:3436   */\n      0x20\n        /* \"#utility.yul\":3420:3430   */\n      dup6\n        /* \"#utility.yul\":3417:3437   */\n      lt\n        /* \"#utility.yul\":3414:3461   */\n      iszero\n      tag_108\n      jumpi\n      pop\n        /* \"#utility.yul\":3455:3459   */\n      dup1\n        /* \"#utility.yul\":3414:3461   */\n    tag_108:\n        /* \"#utility.yul\":3510:3512   */\n      0x1f\n        /* \"#utility.yul\":3505:3508   */\n      dup5\n        /* \"#utility.yul\":3501:3513   */\n      add\n        /* \"#utility.yul\":3498:3499   */\n      0x05\n        /* \"#utility.yul\":3494:3514   */\n      shr\n        /* \"#utility.yul\":3488:3492   */\n      dup3\n        /* \"#utility.yul\":3484:3515   */\n      add\n        /* \"#utility.yul\":3474:3515   */\n      swap2\n      pop\n        /* \"#utility.yul\":3565:3646   */\n    tag_109:\n        /* \"#utility.yul\":3583:3585   */\n      dup2\n        /* \"#utility.yul\":3576:3581   */\n      dup2\n        /* \"#utility.yul\":3573:3586   */\n      lt\n        /* \"#utility.yul\":3565:3646   */\n      iszero\n      tag_73\n      jumpi\n        /* \"#utility.yul\":3642:3643   */\n      0x00\n        /* \"#utility.yul\":3628:3644   */\n      dup2\n      sstore\n        /* \"#utility.yul\":3609:3610   */\n      0x01\n        /* \"#utility.yul\":3598:3611   */\n      add\n        /* \"#utility.yul\":3565:3646   */\n      jump(tag_109)\n        /* \"#utility.yul\":3235:3656   */\n    tag_107:\n        /* \"#utility.yul\":3144:3662   */\n      pop\n      pop\n      pop\n      jump\t// out\n        /* \"#utility.yul\":3838:5036   */\n    tag_47:\n        /* \"#utility.yul\":3962:3980   */\n      0xffffffffffffffff\n        /* \"#utility.yul\":3957:3960   */\n      dup4\n        /* \"#utility.yul\":3954:3981   */\n      gt\n        /* \"#utility.yul\":3951:4004   */\n      iszero\n      tag_115\n      jumpi\n        /* \"#utility.yul\":3984:4002   */\n      tag_115\n      tag_76\n      jump\t// in\n    tag_115:\n        /* \"#utility.yul\":4013:4107   */\n      tag_116\n        /* \"#utility.yul\":4103:4106   */\n      dup4\n        /* \"#utility.yul\":4063:4101   */\n      tag_117\n        /* \"#utility.yul\":4095:4099   */\n      dup4\n        /* \"#utility.yul\":4089:4100   */\n      sload\n        /* \"#utility.yul\":4063:4101   */\n      tag_53\n      jump\t// in\n    tag_117:\n        /* \"#utility.yul\":4057:4061   */\n      dup4\n        /* \"#utility.yul\":4013:4107   */\n      tag_78\n      jump\t// in\n    tag_116:\n        /* \"#utility.yul\":4133:4134   */\n      0x00\n        /* \"#utility.yul\":4158:4160   */\n      0x1f\n        /* \"#utility.yul\":4153:4156   */\n      dup5\n        /* \"#utility.yul\":4150:4161   */\n      gt\n        /* \"#utility.yul\":4175:4176   */\n      0x01\n        /* \"#utility.yul\":4170:4778   */\n      dup2\n      eq\n      tag_119\n      jumpi\n        /* \"#utility.yul\":4822:4823   */\n      0x00\n        /* \"#utility.yul\":4839:4842   */\n      dup6\n        /* \"#utility.yul\":4836:4929   */\n      iszero\n      tag_120\n      jumpi\n      pop\n        /* \"#utility.yul\":4895:4914   */\n      dup4\n      dup3\n      add\n        /* \"#utility.yul\":4882:4915   */\n      calldataload\n        /* \"#utility.yul\":4836:4929   */\n    tag_120:\n      not(0x00)\n        /* \"#utility.yul\":3795:3796   */\n      0x03\n        /* \"#utility.yul\":3791:3802   */\n      dup8\n      swap1\n      shl\n        /* \"#utility.yul\":3787:3811   */\n      shr\n        /* \"#utility.yul\":3783:3812   */\n      not\n        /* \"#utility.yul\":3773:3813   */\n      and\n        /* \"#utility.yul\":3819:3820   */\n      0x01\n        /* \"#utility.yul\":3815:3826   */\n      dup7\n      swap1\n      shl\n        /* \"#utility.yul\":3770:3827   */\n      or\n        /* \"#utility.yul\":4942:5020   */\n      dup4\n      sstore\n        /* \"#utility.yul\":4143:5030   */\n      jump(tag_73)\n        /* \"#utility.yul\":4170:4778   */\n    tag_119:\n        /* \"#utility.yul\":3091:3092   */\n      0x00\n        /* \"#utility.yul\":3084:3098   */\n      dup4\n      dup2\n      mstore\n        /* \"#utility.yul\":3128:3132   */\n      0x20\n        /* \"#utility.yul\":3115:3133   */\n      dup2\n      keccak256\n      not(0x1f)\n        /* \"#utility.yul\":4206:4223   */\n      dup8\n      and\n      swap2\n        /* \"#utility.yul\":4321:4550   */\n    tag_123:\n        /* \"#utility.yul\":4335:4342   */\n      dup3\n        /* \"#utility.yul\":4332:4333   */\n      dup2\n        /* \"#utility.yul\":4329:4343   */\n      lt\n        /* \"#utility.yul\":4321:4550   */\n      iszero\n      tag_125\n      jumpi\n        /* \"#utility.yul\":4424:4443   */\n      dup7\n      dup6\n      add\n        /* \"#utility.yul\":4411:4444   */\n      calldataload\n        /* \"#utility.yul\":4396:4445   */\n      dup3\n      sstore\n        /* \"#utility.yul\":4531:4535   */\n      0x20\n        /* \"#utility.yul\":4516:4536   */\n      swap5\n      dup6\n      add\n      swap5\n        /* \"#utility.yul\":4484:4485   */\n      0x01\n        /* \"#utility.yul\":4472:4486   */\n      swap1\n      swap3\n      add\n      swap2\n        /* \"#utility.yul\":4351:4363   */\n      add\n        /* \"#utility.yul\":4321:4550   */\n      jump(tag_123)\n    tag_125:\n        /* \"#utility.yul\":4325:4328   */\n      pop\n        /* \"#utility.yul\":4578:4581   */\n      dup7\n        /* \"#utility.yul\":4569:4576   */\n      dup3\n        /* \"#utility.yul\":4566:4582   */\n      lt\n        /* \"#utility.yul\":4563:4722   */\n      iszero\n      tag_126\n      jumpi\n        /* \"#utility.yul\":4702:4703   */\n      0x00\n        /* \"#utility.yul\":4698:4704   */\n      not\n        /* \"#utility.yul\":4692:4695   */\n      0xf8\n        /* \"#utility.yul\":4686:4689   */\n      dup9\n        /* \"#utility.yul\":4683:4684   */\n      0x03\n        /* \"#utility.yul\":4679:4690   */\n      shl\n        /* \"#utility.yul\":4675:4696   */\n      and\n        /* \"#utility.yul\":4671:4705   */\n      shr\n        /* \"#utility.yul\":4667:4706   */\n      not\n        /* \"#utility.yul\":4654:4663   */\n      dup5\n        /* \"#utility.yul\":4649:4652   */\n      dup8\n        /* \"#utility.yul\":4645:4664   */\n      add\n        /* \"#utility.yul\":4632:4665   */\n      calldataload\n        /* \"#utility.yul\":4628:4707   */\n      and\n        /* \"#utility.yul\":4620:4626   */\n      dup2\n        /* \"#utility.yul\":4613:4708   */\n      sstore\n        /* \"#utility.yul\":4563:4722   */\n    tag_126:\n      pop\n      pop\n        /* \"#utility.yul\":4765:4766   */\n      0x01\n        /* \"#utility.yul\":4759:4762   */\n      dup6\n        /* \"#utility.yul\":4756:4757   */\n      0x01\n        /* \"#utility.yul\":4752:4763   */\n      shl\n        /* \"#utility.yul\":4748:4767   */\n      add\n        /* \"#utility.yul\":4742:4746   */\n      dup4\n        /* \"#utility.yul\":4735:4768   */\n      sstore\n        /* \"#utility.yul\":4143:5030   */\n      pop\n      pop\n        /* \"#utility.yul\":3838:5036   */\n      pop\n      pop\n      pop\n      jump\t// out\n        /* \"#utility.yul\":5041:6340   */\n    tag_61:\n        /* \"#utility.yul\":5167:5170   */\n      dup2\n        /* \"#utility.yul\":5161:5171   */\n      mload\n        /* \"#utility.yul\":5194:5212   */\n      0xffffffffffffffff\n        /* \"#utility.yul\":5186:5192   */\n      dup2\n        /* \"#utility.yul\":5183:5213   */\n      gt\n        /* \"#utility.yul\":5180:5236   */\n      iszero\n      tag_129\n      jumpi\n        /* \"#utility.yul\":5216:5234   */\n      tag_129\n      tag_76\n      jump\t// in\n    tag_129:\n        /* \"#utility.yul\":5245:5342   */\n      tag_130\n        /* \"#utility.yul\":5335:5341   */\n      dup2\n        /* \"#utility.yul\":5295:5333   */\n      tag_131\n        /* \"#utility.yul\":5327:5331   */\n      dup5\n        /* \"#utility.yul\":5321:5332   */\n      sload\n        /* \"#utility.yul\":5295:5333   */\n      tag_53\n      jump\t// in\n    tag_131:\n        /* \"#utility.yul\":5289:5293   */\n      dup5\n        /* \"#utility.yul\":5245:5342   */\n      tag_78\n      jump\t// in\n    tag_130:\n        /* \"#utility.yul\":5391:5395   */\n      0x20\n        /* \"#utility.yul\":5422:5424   */\n      0x1f\n        /* \"#utility.yul\":5411:5425   */\n      dup3\n      gt\n        /* \"#utility.yul\":5439:5440   */\n      0x01\n        /* \"#utility.yul\":5434:6083   */\n      dup2\n      eq\n      tag_133\n      jumpi\n        /* \"#utility.yul\":6127:6128   */\n      0x00\n        /* \"#utility.yul\":6144:6150   */\n      dup4\n        /* \"#utility.yul\":6141:6230   */\n      iszero\n      tag_134\n      jumpi\n      pop\n        /* \"#utility.yul\":6196:6215   */\n      dup5\n      dup3\n      add\n        /* \"#utility.yul\":6190:6216   */\n      mload\n        /* \"#utility.yul\":6141:6230   */\n    tag_134:\n      not(0x00)\n        /* \"#utility.yul\":3795:3796   */\n      0x03\n        /* \"#utility.yul\":3791:3802   */\n      dup6\n      swap1\n      shl\n        /* \"#utility.yul\":3787:3811   */\n      shr\n        /* \"#utility.yul\":3783:3812   */\n      not\n        /* \"#utility.yul\":3773:3813   */\n      and\n        /* \"#utility.yul\":3819:3820   */\n      0x01\n        /* \"#utility.yul\":3815:3826   */\n      dup5\n      swap1\n      shl\n        /* \"#utility.yul\":3770:3827   */\n      or\n        /* \"#utility.yul\":6243:6324   */\n      dup5\n      sstore\n        /* \"#utility.yul\":5404:6334   */\n      jump(tag_73)\n        /* \"#utility.yul\":5434:6083   */\n    tag_133:\n        /* \"#utility.yul\":3091:3092   */\n      0x00\n        /* \"#utility.yul\":3084:3098   */\n      dup5\n      dup2\n      mstore\n        /* \"#utility.yul\":3128:3132   */\n      0x20\n        /* \"#utility.yul\":3115:3133   */\n      dup2\n      keccak256\n      not(0x1f)\n        /* \"#utility.yul\":5470:5490   */\n      dup6\n      and\n      swap2\n        /* \"#utility.yul\":5588:5810   */\n    tag_137:\n        /* \"#utility.yul\":5602:5609   */\n      dup3\n        /* \"#utility.yul\":5599:5600   */\n      dup2\n        /* \"#utility.yul\":5596:5610   */\n      lt\n        /* \"#utility.yul\":5588:5810   */\n      iszero\n      tag_139\n      jumpi\n        /* \"#utility.yul\":5684:5703   */\n      dup8\n      dup6\n      add\n        /* \"#utility.yul\":5678:5704   */\n      mload\n        /* \"#utility.yul\":5663:5705   */\n      dup3\n      sstore\n        /* \"#utility.yul\":5791:5795   */\n      0x20\n        /* \"#utility.yul\":5776:5796   */\n      swap5\n      dup6\n      add\n      swap5\n        /* \"#utility.yul\":5744:5745   */\n      0x01\n        /* \"#utility.yul\":5732:5746   */\n      swap1\n      swap3\n      add\n      swap2\n        /* \"#utility.yul\":5618:5630   */\n      add\n        /* \"#utility.yul\":5588:5810   */\n      jump(tag_137)\n    tag_139:\n        /* \"#utility.yul\":5592:5595   */\n      pop\n        /* \"#utility.yul\":5838:5844   */\n      dup5\n        /* \"#utility.yul\":5829:5836   */\n      dup3\n        /* \"#utility.yul\":5826:5845   */\n      lt\n        /* \"#utility.yul\":5823:6024   */\n      iszero\n      tag_140\n      jumpi\n        /* \"#utility.yul\":5899:5918   */\n      dup7\n      dup5\n      add\n        /* \"#utility.yul\":5893:5919   */\n      mload\n      not(0x00)\n        /* \"#utility.yul\":5982:5983   */\n      0x03\n        /* \"#utility.yul\":5978:5992   */\n      dup8\n      swap1\n      shl\n        /* \"#utility.yul\":5994:5997   */\n      0xf8\n        /* \"#utility.yul\":5974:5998   */\n      and\n        /* \"#utility.yul\":5970:6007   */\n      shr\n        /* \"#utility.yul\":5966:6008   */\n      not\n        /* \"#utility.yul\":5951:6009   */\n      and\n        /* \"#utility.yul\":5936:6010   */\n      dup2\n      sstore\n        /* \"#utility.yul\":5823:6024   */\n    tag_140:\n      pop\n      pop\n      pop\n      pop\n        /* \"#utility.yul\":6070:6071   */\n      0x01\n        /* \"#utility.yul\":6054:6068   */\n      swap1\n      dup2\n      shl\n        /* \"#utility.yul\":6050:6072   */\n      add\n        /* \"#utility.yul\":6037:6073   */\n      swap1\n      sstore\n      pop\n        /* \"#utility.yul\":5041:6340   */\n      jump\t// out\n\n    auxdata: 0xa26469706673582212207ec1516f603f29031aba39036839312f65cb642818c690c91f79323721751f3e64736f6c634300081a0033\n}\n",
				"bytecode": {
					"linkReferences": {},
					"object": "6080604052348015600e575f80fd5b506107578061001c5f395ff3fe608060405234801561000f575f80fd5b5060043610610060575f3560e01c8063455f50241461006457806386c679d0146100795780639507d39a1461008c578063b6a46b3b146100b5578063bc8bc2b4146100c8578063d7fa6a7b146100e9575b5f80fd5b6100776100723660046103b6565b6100fc565b005b610077610087366004610412565b61015e565b61009f61009a3660046103b6565b610193565b6040516100ac9190610488565b60405180910390f35b6100776100c33660046104a1565b610243565b6100db6100d63660046103b6565b6102c8565b6040516100ac9291906104e0565b6100776100f7366004610412565b61037f565b5f818154811061010e5761010e610503565b5f9182526020822060016002909202010154815460ff9091161591908390811061013a5761013a610503565b5f9182526020909120600290910201600101805460ff191691151591909117905550565b81815f858154811061017257610172610503565b905f5260205f2090600202015f01918261018d9291906105ac565b50505050565b60605f82815481106101a7576101a7610503565b905f5260205f2090600202015f0180546101c09061052b565b80601f01602080910402602001604051908101604052809291908181526020018280546101ec9061052b565b80156102375780601f1061020e57610100808354040283529160200191610237565b820191905f5260205f20905b81548152906001019060200180831161021a57829003601f168201915b50505050509050919050565b6040805160606020601f8501819004028201810183529181018381525f9282919086908690819085018382808284375f920182905250938552505050602091820181905283546001810185559381522081519192600202019081906102a89082610666565b50602091909101516001909101805460ff19169115159190911790555050565b5f81815481106102d6575f80fd5b905f5260205f2090600202015f91509050805f0180546102f59061052b565b80601f01602080910402602001604051908101604052809291908181526020018280546103219061052b565b801561036c5780601f106103435761010080835404028352916020019161036c565b820191905f5260205f20905b81548152906001019060200180831161034f57829003601f168201915b5050506001909301549192505060ff1682565b5f80848154811061039257610392610503565b5f91825260209091206002909102019050806103af8385836105ac565b5050505050565b5f602082840312156103c6575f80fd5b5035919050565b5f8083601f8401126103dd575f80fd5b50813567ffffffffffffffff8111156103f4575f80fd5b60208301915083602082850101111561040b575f80fd5b9250929050565b5f805f60408486031215610424575f80fd5b83359250602084013567ffffffffffffffff811115610441575f80fd5b61044d868287016103cd565b9497909650939450505050565b5f81518084528060208401602086015e5f602082860101526020601f19601f83011685010191505092915050565b602081525f61049a602083018461045a565b9392505050565b5f80602083850312156104b2575f80fd5b823567ffffffffffffffff8111156104c8575f80fd5b6104d4858286016103cd565b90969095509350505050565b604081525f6104f2604083018561045a565b905082151560208301529392505050565b634e487b7160e01b5f52603260045260245ffd5b634e487b7160e01b5f52604160045260245ffd5b600181811c9082168061053f57607f821691505b60208210810361055d57634e487b7160e01b5f52602260045260245ffd5b50919050565b601f8211156105a757805f5260205f20601f840160051c810160208510156105885750805b601f840160051c820191505b818110156103af575f8155600101610594565b505050565b67ffffffffffffffff8311156105c4576105c4610517565b6105d8836105d2835461052b565b83610563565b5f601f841160018114610609575f85156105f25750838201355b5f19600387901b1c1916600186901b1783556103af565b5f83815260208120601f198716915b828110156106385786850135825560209485019460019092019101610618565b5086821015610654575f1960f88860031b161c19848701351681555b505060018560011b0183555050505050565b815167ffffffffffffffff81111561068057610680610517565b6106948161068e845461052b565b84610563565b6020601f8211600181146106c6575f83156106af5750848201515b5f19600385901b1c1916600184901b1784556103af565b5f84815260208120601f198516915b828110156106f557878501518255602094850194600190920191016106d5565b508482101561071257868401515f19600387901b60f8161c191681555b50505050600190811b0190555056fea26469706673582212207ec1516f603f29031aba39036839312f65cb642818c690c91f79323721751f3e64736f6c634300081a0033",
					"opcodes": "PUSH1 0x80 PUSH1 0x40 MSTORE CALLVALUE DUP1 ISZERO PUSH1 0xE JUMPI PUSH0 DUP1 REVERT JUMPDEST POP PUSH2 0x757 DUP1 PUSH2 0x1C PUSH0 CODECOPY PUSH0 RETURN INVALID PUSH1 0x80 PUSH1 0x40 MSTORE CALLVALUE DUP1 ISZERO PUSH2 0xF JUMPI PUSH0 DUP1 REVERT JUMPDEST POP PUSH1 0x4 CALLDATASIZE LT PUSH2 0x60 JUMPI PUSH0 CALLDATALOAD PUSH1 0xE0 SHR DUP1 PUSH4 0x455F5024 EQ PUSH2 0x64 JUMPI DUP1 PUSH4 0x86C679D0 EQ PUSH2 0x79 JUMPI DUP1 PUSH4 0x9507D39A EQ PUSH2 0x8C JUMPI DUP1 PUSH4 0xB6A46B3B EQ PUSH2 0xB5 JUMPI DUP1 PUSH4 0xBC8BC2B4 EQ PUSH2 0xC8 JUMPI DUP1 PUSH4 0xD7FA6A7B EQ PUSH2 0xE9 JUMPI JUMPDEST PUSH0 DUP1 REVERT JUMPDEST PUSH2 0x77 PUSH2 0x72 CALLDATASIZE PUSH1 0x4 PUSH2 0x3B6 JUMP JUMPDEST PUSH2 0xFC JUMP JUMPDEST STOP JUMPDEST PUSH2 0x77 PUSH2 0x87 CALLDATASIZE PUSH1 0x4 PUSH2 0x412 JUMP JUMPDEST PUSH2 0x15E JUMP JUMPDEST PUSH2 0x9F PUSH2 0x9A CALLDATASIZE PUSH1 0x4 PUSH2 0x3B6 JUMP JUMPDEST PUSH2 0x193 JUMP JUMPDEST PUSH1 0x40 MLOAD PUSH2 0xAC SWAP2 SWAP1 PUSH2 0x488 JUMP JUMPDEST PUSH1 0x40 MLOAD DUP1 SWAP2 SUB SWAP1 RETURN JUMPDEST PUSH2 0x77 PUSH2 0xC3 CALLDATASIZE PUSH1 0x4 PUSH2 0x4A1 JUMP JUMPDEST PUSH2 0x243 JUMP JUMPDEST PUSH2 0xDB PUSH2 0xD6 CALLDATASIZE PUSH1 0x4 PUSH2 0x3B6 JUMP JUMPDEST PUSH2 0x2C8 JUMP JUMPDEST PUSH1 0x40 MLOAD PUSH2 0xAC SWAP3 SWAP2 SWAP1 PUSH2 0x4E0 JUMP JUMPDEST PUSH2 0x77 PUSH2 0xF7 CALLDATASIZE PUSH1 0x4 PUSH2 0x412 JUMP JUMPDEST PUSH2 0x37F JUMP JUMPDEST PUSH0 DUP2 DUP2 SLOAD DUP2 LT PUSH2 0x10E JUMPI PUSH2 0x10E PUSH2 0x503 JUMP JUMPDEST PUSH0 SWAP2 DUP3 MSTORE PUSH1 0x20 DUP3 KECCAK256 PUSH1 0x1 PUSH1 0x2 SWAP1 SWAP3 MUL ADD ADD SLOAD DUP2 SLOAD PUSH1 0xFF SWAP1 SWAP2 AND ISZERO SWAP2 SWAP1 DUP4 SWAP1 DUP2 LT PUSH2 0x13A JUMPI PUSH2 0x13A PUSH2 0x503 JUMP JUMPDEST PUSH0 SWAP2 DUP3 MSTORE PUSH1 0x20 SWAP1 SWAP2 KECCAK256 PUSH1 0x2 SWAP1 SWAP2 MUL ADD PUSH1 0x1 ADD DUP1 SLOAD PUSH1 0xFF NOT AND SWAP2 ISZERO ISZERO SWAP2 SWAP1 SWAP2 OR SWAP1 SSTORE POP JUMP JUMPDEST DUP2 DUP2 PUSH0 DUP6 DUP2 SLOAD DUP2 LT PUSH2 0x172 JUMPI PUSH2 0x172 PUSH2 0x503 JUMP JUMPDEST SWAP1 PUSH0 MSTORE PUSH1 0x20 PUSH0 KECCAK256 SWAP1 PUSH1 0x2 MUL ADD PUSH0 ADD SWAP2 DUP3 PUSH2 0x18D SWAP3 SWAP2 SWAP1 PUSH2 0x5AC JUMP JUMPDEST POP POP POP POP JUMP JUMPDEST PUSH1 0x60 PUSH0 DUP3 DUP2 SLOAD DUP2 LT PUSH2 0x1A7 JUMPI PUSH2 0x1A7 PUSH2 0x503 JUMP JUMPDEST SWAP1 PUSH0 MSTORE PUSH1 0x20 PUSH0 KECCAK256 SWAP1 PUSH1 0x2 MUL ADD PUSH0 ADD DUP1 SLOAD PUSH2 0x1C0 SWAP1 PUSH2 0x52B JUMP JUMPDEST DUP1 PUSH1 0x1F ADD PUSH1 0x20 DUP1 SWAP2 DIV MUL PUSH1 0x20 ADD PUSH1 0x40 MLOAD SWAP1 DUP2 ADD PUSH1 0x40 MSTORE DUP1 SWAP3 SWAP2 SWAP1 DUP2 DUP2 MSTORE PUSH1 0x20 ADD DUP3 DUP1 SLOAD PUSH2 0x1EC SWAP1 PUSH2 0x52B JUMP JUMPDEST DUP1 ISZERO PUSH2 0x237 JUMPI DUP1 PUSH1 0x1F LT PUSH2 0x20E JUMPI PUSH2 0x100 DUP1 DUP4 SLOAD DIV MUL DUP4 MSTORE SWAP2 PUSH1 0x20 ADD SWAP2 PUSH2 0x237 JUMP JUMPDEST DUP3 ADD SWAP2 SWAP1 PUSH0 MSTORE PUSH1 0x20 PUSH0 KECCAK256 SWAP1 JUMPDEST DUP2 SLOAD DUP2 MSTORE SWAP1 PUSH1 0x1 ADD SWAP1 PUSH1 0x20 ADD DUP1 DUP4 GT PUSH2 0x21A JUMPI DUP3 SWAP1 SUB PUSH1 0x1F AND DUP3 ADD SWAP2 JUMPDEST POP POP POP POP POP SWAP1 POP SWAP2 SWAP1 POP JUMP JUMPDEST PUSH1 0x40 DUP1 MLOAD PUSH1 0x60 PUSH1 0x20 PUSH1 0x1F DUP6 ADD DUP2 SWAP1 DIV MUL DUP3 ADD DUP2 ADD DUP4 MSTORE SWAP2 DUP2 ADD DUP4 DUP2 MSTORE PUSH0 SWAP3 DUP3 SWAP2 SWAP1 DUP7 SWAP1 DUP7 SWAP1 DUP2 SWAP1 DUP6 ADD DUP4 DUP3 DUP1 DUP3 DUP5 CALLDATACOPY PUSH0 SWAP3 ADD DUP3 SWAP1 MSTORE POP SWAP4 DUP6 MSTORE POP POP POP PUSH1 0x20 SWAP2 DUP3 ADD DUP2 SWAP1 MSTORE DUP4 SLOAD PUSH1 0x1 DUP2 ADD DUP6 SSTORE SWAP4 DUP2 MSTORE KECCAK256 DUP2 MLOAD SWAP2 SWAP3 PUSH1 0x2 MUL ADD SWAP1 DUP2 SWAP1 PUSH2 0x2A8 SWAP1 DUP3 PUSH2 0x666 JUMP JUMPDEST POP PUSH1 0x20 SWAP2 SWAP1 SWAP2 ADD MLOAD PUSH1 0x1 SWAP1 SWAP2 ADD DUP1 SLOAD PUSH1 0xFF NOT AND SWAP2 ISZERO ISZERO SWAP2 SWAP1 SWAP2 OR SWAP1 SSTORE POP POP JUMP JUMPDEST PUSH0 DUP2 DUP2 SLOAD DUP2 LT PUSH2 0x2D6 JUMPI PUSH0 DUP1 REVERT JUMPDEST SWAP1 PUSH0 MSTORE PUSH1 0x20 PUSH0 KECCAK256 SWAP1 PUSH1 0x2 MUL ADD PUSH0 SWAP2 POP SWAP1 POP DUP1 PUSH0 ADD DUP1 SLOAD PUSH2 0x2F5 SWAP1 PUSH2 0x52B JUMP JUMPDEST DUP1 PUSH1 0x1F ADD PUSH1 0x20 DUP1 SWAP2 DIV MUL PUSH1 0x20 ADD PUSH1 0x40 MLOAD SWAP1 DUP2 ADD PUSH1 0x40 MSTORE DUP1 SWAP3 SWAP2 SWAP1 DUP2 DUP2 MSTORE PUSH1 0x20 ADD DUP3 DUP1 SLOAD PUSH2 0x321 SWAP1 PUSH2 0x52B JUMP JUMPDEST DUP1 ISZERO PUSH2 0x36C JUMPI DUP1 PUSH1 0x1F LT PUSH2 0x343 JUMPI PUSH2 0x100 DUP1 DUP4 SLOAD DIV MUL DUP4 MSTORE SWAP2 PUSH1 0x20 ADD SWAP2 PUSH2 0x36C JUMP JUMPDEST DUP3 ADD SWAP2 SWAP1 PUSH0 MSTORE PUSH1 0x20 PUSH0 KECCAK256 SWAP1 JUMPDEST DUP2 SLOAD DUP2 MSTORE SWAP1 PUSH1 0x1 ADD SWAP1 PUSH1 0x20 ADD DUP1 DUP4 GT PUSH2 0x34F JUMPI DUP3 SWAP1 SUB PUSH1 0x1F AND DUP3 ADD SWAP2 JUMPDEST POP POP POP PUSH1 0x1 SWAP1 SWAP4 ADD SLOAD SWAP2 SWAP3 POP POP PUSH1 0xFF AND DUP3 JUMP JUMPDEST PUSH0 DUP1 DUP5 DUP2 SLOAD DUP2 LT PUSH2 0x392 JUMPI PUSH2 0x392 PUSH2 0x503 JUMP JUMPDEST PUSH0 SWAP2 DUP3 MSTORE PUSH1 0x20 SWAP1 SWAP2 KECCAK256 PUSH1 0x2 SWAP1 SWAP2 MUL ADD SWAP1 POP DUP1 PUSH2 0x3AF DUP4 DUP6 DUP4 PUSH2 0x5AC JUMP JUMPDEST POP POP POP POP POP JUMP JUMPDEST PUSH0 PUSH1 0x20 DUP3 DUP5 SUB SLT ISZERO PUSH2 0x3C6 JUMPI PUSH0 DUP1 REVERT JUMPDEST POP CALLDATALOAD SWAP2 SWAP1 POP JUMP JUMPDEST PUSH0 DUP1 DUP4 PUSH1 0x1F DUP5 ADD SLT PUSH2 0x3DD JUMPI PUSH0 DUP1 REVERT JUMPDEST POP DUP2 CALLDATALOAD PUSH8 0xFFFFFFFFFFFFFFFF DUP2 GT ISZERO PUSH2 0x3F4 JUMPI PUSH0 DUP1 REVERT JUMPDEST PUSH1 0x20 DUP4 ADD SWAP2 POP DUP4 PUSH1 0x20 DUP3 DUP6 ADD ADD GT ISZERO PUSH2 0x40B JUMPI PUSH0 DUP1 REVERT JUMPDEST SWAP3 POP SWAP3 SWAP1 POP JUMP JUMPDEST PUSH0 DUP1 PUSH0 PUSH1 0x40 DUP5 DUP7 SUB SLT ISZERO PUSH2 0x424 JUMPI PUSH0 DUP1 REVERT JUMPDEST DUP4 CALLDATALOAD SWAP3 POP PUSH1 0x20 DUP5 ADD CALLDATALOAD PUSH8 0xFFFFFFFFFFFFFFFF DUP2 GT ISZERO PUSH2 0x441 JUMPI PUSH0 DUP1 REVERT JUMPDEST PUSH2 0x44D DUP7 DUP3 DUP8 ADD PUSH2 0x3CD JUMP JUMPDEST SWAP5 SWAP8 SWAP1 SWAP7 POP SWAP4 SWAP5 POP POP POP POP JUMP JUMPDEST PUSH0 DUP2 MLOAD DUP1 DUP5 MSTORE DUP1 PUSH1 0x20 DUP5 ADD PUSH1 0x20 DUP7 ADD MCOPY PUSH0 PUSH1 0x20 DUP3 DUP7 ADD ADD MSTORE PUSH1 0x20 PUSH1 0x1F NOT PUSH1 0x1F DUP4 ADD AND DUP6 ADD ADD SWAP2 POP POP SWAP3 SWAP2 POP POP JUMP JUMPDEST PUSH1 0x20 DUP2 MSTORE PUSH0 PUSH2 0x49A PUSH1 0x20 DUP4 ADD DUP5 PUSH2 0x45A JUMP JUMPDEST SWAP4 SWAP3 POP POP POP JUMP JUMPDEST PUSH0 DUP1 PUSH1 0x20 DUP4 DUP6 SUB SLT ISZERO PUSH2 0x4B2 JUMPI PUSH0 DUP1 REVERT JUMPDEST DUP3 CALLDATALOAD PUSH8 0xFFFFFFFFFFFFFFFF DUP2 GT ISZERO PUSH2 0x4C8 JUMPI PUSH0 DUP1 REVERT JUMPDEST PUSH2 0x4D4 DUP6 DUP3 DUP7 ADD PUSH2 0x3CD JUMP JUMPDEST SWAP1 SWAP7 SWAP1 SWAP6 POP SWAP4 POP POP POP POP JUMP JUMPDEST PUSH1 0x40 DUP2 MSTORE PUSH0 PUSH2 0x4F2 PUSH1 0x40 DUP4 ADD DUP6 PUSH2 0x45A JUMP JUMPDEST SWAP1 POP DUP3 ISZERO ISZERO PUSH1 0x20 DUP4 ADD MSTORE SWAP4 SWAP3 POP POP POP JUMP JUMPDEST PUSH4 0x4E487B71 PUSH1 0xE0 SHL PUSH0 MSTORE PUSH1 0x32 PUSH1 0x4 MSTORE PUSH1 0x24 PUSH0 REVERT JUMPDEST PUSH4 0x4E487B71 PUSH1 0xE0 SHL PUSH0 MSTORE PUSH1 0x41 PUSH1 0x4 MSTORE PUSH1 0x24 PUSH0 REVERT JUMPDEST PUSH1 0x1 DUP2 DUP2 SHR SWAP1 DUP3 AND DUP1 PUSH2 0x53F JUMPI PUSH1 0x7F DUP3 AND SWAP2 POP JUMPDEST PUSH1 0x20 DUP3 LT DUP2 SUB PUSH2 0x55D JUMPI PUSH4 0x4E487B71 PUSH1 0xE0 SHL PUSH0 MSTORE PUSH1 0x22 PUSH1 0x4 MSTORE PUSH1 0x24 PUSH0 REVERT JUMPDEST POP SWAP2 SWAP1 POP JUMP JUMPDEST PUSH1 0x1F DUP3 GT ISZERO PUSH2 0x5A7 JUMPI DUP1 PUSH0 MSTORE PUSH1 0x20 PUSH0 KECCAK256 PUSH1 0x1F DUP5 ADD PUSH1 0x5 SHR DUP2 ADD PUSH1 0x20 DUP6 LT ISZERO PUSH2 0x588 JUMPI POP DUP1 JUMPDEST PUSH1 0x1F DUP5 ADD PUSH1 0x5 SHR DUP3 ADD SWAP2 POP JUMPDEST DUP2 DUP2 LT ISZERO PUSH2 0x3AF JUMPI PUSH0 DUP2 SSTORE PUSH1 0x1 ADD PUSH2 0x594 JUMP JUMPDEST POP POP POP JUMP JUMPDEST PUSH8 0xFFFFFFFFFFFFFFFF DUP4 GT ISZERO PUSH2 0x5C4 JUMPI PUSH2 0x5C4 PUSH2 0x517 JUMP JUMPDEST PUSH2 0x5D8 DUP4 PUSH2 0x5D2 DUP4 SLOAD PUSH2 0x52B JUMP JUMPDEST DUP4 PUSH2 0x563 JUMP JUMPDEST PUSH0 PUSH1 0x1F DUP5 GT PUSH1 0x1 DUP2 EQ PUSH2 0x609 JUMPI PUSH0 DUP6 ISZERO PUSH2 0x5F2 JUMPI POP DUP4 DUP3 ADD CALLDATALOAD JUMPDEST PUSH0 NOT PUSH1 0x3 DUP8 SWAP1 SHL SHR NOT AND PUSH1 0x1 DUP7 SWAP1 SHL OR DUP4 SSTORE PUSH2 0x3AF JUMP JUMPDEST PUSH0 DUP4 DUP2 MSTORE PUSH1 0x20 DUP2 KECCAK256 PUSH1 0x1F NOT DUP8 AND SWAP2 JUMPDEST DUP3 DUP2 LT ISZERO PUSH2 0x638 JUMPI DUP7 DUP6 ADD CALLDATALOAD DUP3 SSTORE PUSH1 0x20 SWAP5 DUP6 ADD SWAP5 PUSH1 0x1 SWAP1 SWAP3 ADD SWAP2 ADD PUSH2 0x618 JUMP JUMPDEST POP DUP7 DUP3 LT ISZERO PUSH2 0x654 JUMPI PUSH0 NOT PUSH1 0xF8 DUP9 PUSH1 0x3 SHL AND SHR NOT DUP5 DUP8 ADD CALLDATALOAD AND DUP2 SSTORE JUMPDEST POP POP PUSH1 0x1 DUP6 PUSH1 0x1 SHL ADD DUP4 SSTORE POP POP POP POP POP JUMP JUMPDEST DUP2 MLOAD PUSH8 0xFFFFFFFFFFFFFFFF DUP2 GT ISZERO PUSH2 0x680 JUMPI PUSH2 0x680 PUSH2 0x517 JUMP JUMPDEST PUSH2 0x694 DUP2 PUSH2 0x68E DUP5 SLOAD PUSH2 0x52B JUMP JUMPDEST DUP5 PUSH2 0x563 JUMP JUMPDEST PUSH1 0x20 PUSH1 0x1F DUP3 GT PUSH1 0x1 DUP2 EQ PUSH2 0x6C6 JUMPI PUSH0 DUP4 ISZERO PUSH2 0x6AF JUMPI POP DUP5 DUP3 ADD MLOAD JUMPDEST PUSH0 NOT PUSH1 0x3 DUP6 SWAP1 SHL SHR NOT AND PUSH1 0x1 DUP5 SWAP1 SHL OR DUP5 SSTORE PUSH2 0x3AF JUMP JUMPDEST PUSH0 DUP5 DUP2 MSTORE PUSH1 0x20 DUP2 KECCAK256 PUSH1 0x1F NOT DUP6 AND SWAP2 JUMPDEST DUP3 DUP2 LT ISZERO PUSH2 0x6F5 JUMPI DUP8 DUP6 ADD MLOAD DUP3 SSTORE PUSH1 0x20 SWAP5 DUP6 ADD SWAP5 PUSH1 0x1 SWAP1 SWAP3 ADD SWAP2 ADD PUSH2 0x6D5 JUMP JUMPDEST POP DUP5 DUP3 LT ISZERO PUSH2 0x712 JUMPI DUP7 DUP5 ADD MLOAD PUSH0 NOT PUSH1 0x3 DUP8 SWAP1 SHL PUSH1 0xF8 AND SHR NOT AND DUP2 SSTORE JUMPDEST POP POP POP POP PUSH1 0x1 SWAP1 DUP2 SHL ADD SWAP1 SSTORE POP JUMP INVALID LOG2 PUSH5 0x6970667358 0x22 SLT KECCAK256 PUSH31 0xC1516F603F29031ABA39036839312F65CB642818C690C91F79323721751F3E PUSH5 0x736F6C6343 STOP ADDMOD BYTE STOP CALLER "
				},
				"gasEstimates": {
					"creation": {
						"codeDepositCost": "375800",
						"executionCost": "409",
						"totalCost": "376209"
					},
					"external": {
						"create(string)": "infinite",
						"get(uint256)": "infinite",
						"todos(uint256)": "infinite",
						"toggleCompleted(uint256)": "30968",
						"udpate(uint256,string)": "infinite",
						"udpateText(uint256,string)": "infinite"
					}
				},
				"methodIdentifiers": {
					"create(string)": "b6a46b3b",
					"get(uint256)": "9507d39a",
					"todos(uint256)": "bc8bc2b4",
					"toggleCompleted(uint256)": "455f5024",
					"udpate(uint256,string)": "d7fa6a7b",
					"udpateText(uint256,string)": "86c679d0"
				}
			},
			"storageLayout": {
				"storage": [
					{
						"astId": 10,
						"contract": "TotoList.sol:TotoList",
						"label": "todos",
						"offset": 0,
						"slot": "0",
						"type": "t_array(t_struct(Todo)6_storage)dyn_storage"
					}
				],
				"types": {
					"t_array(t_struct(Todo)6_storage)dyn_storage": {
						"base": "t_struct(Todo)6_storage",
						"encoding": "dynamic_array",
						"label": "struct TotoList.Todo[]",
						"numberOfBytes": "32"
					},
					"t_bool": {
						"encoding": "inplace",
						"label": "bool",
						"numberOfBytes": "1"
					},
					"t_string_storage": {
						"encoding": "bytes",
						"label": "string",
						"numberOfBytes": "32"
					},
					"t_struct(Todo)6_storage": {
						"encoding": "inplace",
						"label": "struct TotoList.Todo",
						"members": [
							{
								"astId": 3,
								"contract": "TotoList.sol:TotoList",
								"label": "text",
								"offset": 0,
								"slot": "0",
								"type": "t_string_storage"
							},
							{
								"astId": 5,
								"contract": "TotoList.sol:TotoList",
								"label": "completed",
								"offset": 0,
								"slot": "1",
								"type": "t_bool"
							}
						],
						"numberOfBytes": "64"
					}
				}
			},
			"userdoc": {
				"kind": "user",
				"methods": {},
				"version": 1
			}
		}
	}
}