{
	"AccessControl.sol": {
		"AccessControl": {
			"abi": [
				{
					"inputs": [],
					"stateMutability": "nonpayable",
					"type": "constructor"
				},
				{
					"anonymous": false,
					"inputs": [
						{
							"indexed": true,
							"internalType": "bytes32",
							"name": "role",
							"type": "bytes32"
						},
						{
							"indexed": true,
							"internalType": "address",
							"name": "account",
							"type": "address"
						}
					],
					"name": "GrantRole",
					"type": "event"
				},
				{
					"anonymous": false,
					"inputs": [
						{
							"indexed": true,
							"internalType": "bytes32",
							"name": "role",
							"type": "bytes32"
						},
						{
							"indexed": true,
							"internalType": "address",
							"name": "account",
							"type": "address"
						}
					],
					"name": "RevokeRole",
					"type": "event"
				},
				{
					"inputs": [
						{
							"internalType": "bytes32",
							"name": "_role",
							"type": "bytes32"
						},
						{
							"internalType": "address",
							"name": "_account",
							"type": "address"
						}
					],
					"name": "grantRole",
					"outputs": [],
					"stateMutability": "nonpayable",
					"type": "function"
				},
				{
					"inputs": [
						{
							"internalType": "bytes32",
							"name": "_role",
							"type": "bytes32"
						},
						{
							"internalType": "address",
							"name": "_account",
							"type": "address"
						}
					],
					"name": "revokeRole",
					"outputs": [],
					"stateMutability": "nonpayable",
					"type": "function"
				},
				{
					"inputs": [
						{
							"internalType": "bytes32",
							"name": "",
							"type": "bytes32"
						},
						{
							"internalType": "address",
							"name": "",
							"type": "address"
						}
					],
					"name": "roles",
					"outputs": [
						{
							"internalType": "bool",
							"name": "",
							"type": "bool"
						}
					],
					"stateMutability": "view",
					"type": "function"
				}
			],
			"devdoc": {
				"kind": "dev",
				"methods": {},
				"version": 1
			},
			"evm": {
				"assembly": "    /* \"AccessControl.sol\":62:1447  contract AccessControl {... */\n  mstore(0x40, 0x80)\n    /* \"AccessControl.sol\":689:852  constructor(){... */\n  callvalue\n  dup1\n  iszero\n  tag_1\n  jumpi\n  0x00\n  dup1\n  revert\ntag_1:\n  pop\n    /* \"AccessControl.sol\":508:533  abi.encodePacked(\"ADMIN\") */\n  mload(0x40)\n  shl(0xd9, 0x20a226a4a7)\n  0x20\n  dup3\n  add\n    /* \"#utility.yul\":216:236   */\n  mstore\n    /* \"AccessControl.sol\":815:844  _grantRole(ADMIN, msg.sender) */\n  tag_4\n  swap1\n    /* \"#utility.yul\":252:263   */\n  0x25\n  add\n    /* \"AccessControl.sol\":508:533  abi.encodePacked(\"ADMIN\") */\n  mload(0x40)\n  0x20\n  dup2\n  dup4\n  sub\n  sub\n  dup2\n  mstore\n  swap1\n  0x40\n  mstore\n    /* \"AccessControl.sol\":498:534  keccak256(abi.encodePacked(\"ADMIN\")) */\n  dup1\n  mload\n  swap1\n  0x20\n  add\n  keccak256\n    /* \"AccessControl.sol\":833:843  msg.sender */\n  caller\n    /* \"AccessControl.sol\":815:825  _grantRole */\n  shl(0x20, tag_7)\n    /* \"AccessControl.sol\":815:844  _grantRole(ADMIN, msg.sender) */\n  0x20\n  shr\n  jump\t// in\ntag_4:\n    /* \"AccessControl.sol\":62:1447  contract AccessControl {... */\n  jump(tag_10)\n    /* \"AccessControl.sol\":985:1135  function _grantRole(bytes32 _role,address _account) internal {... */\ntag_7:\n    /* \"AccessControl.sol\":1057:1062  roles */\n  0x00\n    /* \"AccessControl.sol\":1057:1069  roles[_role] */\n  dup3\n  dup2\n  mstore\n  0x20\n  dup2\n  dup2\n  mstore\n  0x40\n  dup1\n  dup4\n  keccak256\n  sub(shl(0xa0, 0x01), 0x01)\n    /* \"AccessControl.sol\":1057:1079  roles[_role][_account] */\n  dup6\n  and\n  dup1\n  dup6\n  mstore\n  swap3\n  mstore\n  dup1\n  dup4\n  keccak256\n    /* \"AccessControl.sol\":1057:1086  roles[_role][_account] = true */\n  dup1\n  sload\n  not(0xff)\n  and\n    /* \"AccessControl.sol\":1082:1086  true */\n  0x01\n    /* \"AccessControl.sol\":1057:1086  roles[_role][_account] = true */\n  or\n  swap1\n  sstore\n    /* \"AccessControl.sol\":1102:1127  GrantRole(_role,_account) */\n  mload\n    /* \"AccessControl.sol\":1057:1079  roles[_role][_account] */\n  swap1\n  swap2\n    /* \"AccessControl.sol\":1063:1068  _role */\n  dup5\n  swap2\n    /* \"AccessControl.sol\":1102:1127  GrantRole(_role,_account) */\n  0x5a06360d65acf95e98445dc834f205063424c636e65418d928cdfabc33a95399\n  swap2\n    /* \"AccessControl.sol\":1057:1062  roles */\n  swap1\n    /* \"AccessControl.sol\":1102:1127  GrantRole(_role,_account) */\n  log3\n    /* \"AccessControl.sol\":985:1135  function _grantRole(bytes32 _role,address _account) internal {... */\n  pop\n  pop\n  jump\t// out\n    /* \"#utility.yul\":14:269   */\ntag_10:\n    /* \"AccessControl.sol\":62:1447  contract AccessControl {... */\n  dataSize(sub_0)\n  dup1\n  dataOffset(sub_0)\n  0x00\n  codecopy\n  0x00\n  return\nstop\n\nsub_0: assembly {\n        /* \"AccessControl.sol\":62:1447  contract AccessControl {... */\n      mstore(0x40, 0x80)\n      callvalue\n      dup1\n      iszero\n      tag_1\n      jumpi\n      0x00\n      dup1\n      revert\n    tag_1:\n      pop\n      jumpi(tag_2, lt(calldatasize, 0x04))\n      shr(0xe0, calldataload(0x00))\n      dup1\n      0x2f2ff15d\n      eq\n      tag_3\n      jumpi\n      dup1\n      0xd547741f\n      eq\n      tag_4\n      jumpi\n      dup1\n      0xf8fc08b9\n      eq\n      tag_5\n      jumpi\n    tag_2:\n      0x00\n      dup1\n      revert\n        /* \"AccessControl.sol\":1143:1264  function grantRole(bytes32 _role,address _account) external  onlyRole(ADMIN){... */\n    tag_3:\n      tag_6\n      tag_7\n      calldatasize\n      0x04\n      tag_8\n      jump\t// in\n    tag_7:\n      tag_9\n      jump\t// in\n    tag_6:\n      stop\n        /* \"AccessControl.sol\":1272:1440  function revokeRole(bytes32 _role,address _account) external  onlyRole(ADMIN){... */\n    tag_4:\n      tag_6\n      tag_11\n      calldatasize\n      0x04\n      tag_8\n      jump\t// in\n    tag_11:\n      tag_12\n      jump\t// in\n        /* \"AccessControl.sol\":290:348  mapping(bytes32 => mapping(address => bool) ) public roles */\n    tag_5:\n      tag_13\n      tag_14\n      calldatasize\n      0x04\n      tag_8\n      jump\t// in\n    tag_14:\n      0x00\n      0x20\n      dup2\n      dup2\n      mstore\n      swap3\n      dup2\n      mstore\n      0x40\n      dup1\n      dup3\n      keccak256\n      swap1\n      swap4\n      mstore\n      swap1\n      dup2\n      mstore\n      keccak256\n      sload\n      0xff\n      and\n      dup2\n      jump\n    tag_13:\n      mload(0x40)\n        /* \"#utility.yul\":538:552   */\n      swap1\n      iszero\n        /* \"#utility.yul\":531:553   */\n      iszero\n        /* \"#utility.yul\":513:554   */\n      dup2\n      mstore\n        /* \"#utility.yul\":501:503   */\n      0x20\n        /* \"#utility.yul\":486:504   */\n      add\n        /* \"AccessControl.sol\":290:348  mapping(bytes32 => mapping(address => bool) ) public roles */\n      mload(0x40)\n      dup1\n      swap2\n      sub\n      swap1\n      return\n        /* \"AccessControl.sol\":1143:1264  function grantRole(bytes32 _role,address _account) external  onlyRole(ADMIN){... */\n    tag_9:\n        /* \"AccessControl.sol\":508:533  abi.encodePacked(\"ADMIN\") */\n      mload(0x40)\n      shl(0xd9, 0x20a226a4a7)\n      0x20\n      dup3\n      add\n        /* \"#utility.yul\":767:787   */\n      mstore\n        /* \"#utility.yul\":803:814   */\n      0x25\n      add\n        /* \"AccessControl.sol\":508:533  abi.encodePacked(\"ADMIN\") */\n      0x40\n      dup1\n      mload\n      not(0x1f)\n      dup2\n      dup5\n      sub\n      add\n      dup2\n      mstore\n      swap2\n      dup2\n      mstore\n        /* \"AccessControl.sol\":498:534  keccak256(abi.encodePacked(\"ADMIN\")) */\n      dup2\n      mload\n        /* \"AccessControl.sol\":508:533  abi.encodePacked(\"ADMIN\") */\n      0x20\n        /* \"AccessControl.sol\":498:534  keccak256(abi.encodePacked(\"ADMIN\")) */\n      swap3\n      dup4\n      add\n      keccak256\n        /* \"AccessControl.sol\":915:920  roles */\n      0x00\n        /* \"AccessControl.sol\":915:927  roles[_role] */\n      dup2\n      dup2\n      mstore\n      dup1\n      dup5\n      mstore\n      dup3\n      dup2\n      keccak256\n        /* \"AccessControl.sol\":928:938  msg.sender */\n      caller\n        /* \"AccessControl.sol\":915:939  roles[_role][msg.sender] */\n      dup3\n      mstore\n      swap1\n      swap4\n      mstore\n      swap2\n      keccak256\n      sload\n      0xff\n      and\n        /* \"AccessControl.sol\":907:957  require(roles[_role][msg.sender],\"Not authorized\") */\n      tag_21\n      jumpi\n      mload(0x40)\n      shl(0xe5, 0x461bcd)\n      dup2\n      mstore\n        /* \"#utility.yul\":1027:1029   */\n      0x20\n        /* \"AccessControl.sol\":907:957  require(roles[_role][msg.sender],\"Not authorized\") */\n      0x04\n      dup3\n      add\n        /* \"#utility.yul\":1009:1030   */\n      mstore\n        /* \"#utility.yul\":1066:1068   */\n      0x0e\n        /* \"#utility.yul\":1046:1064   */\n      0x24\n      dup3\n      add\n        /* \"#utility.yul\":1039:1069   */\n      mstore\n      shl(0x92, 0x139bdd08185d5d1a1bdc9a5e9959)\n        /* \"#utility.yul\":1085:1103   */\n      0x44\n      dup3\n      add\n        /* \"#utility.yul\":1078:1122   */\n      mstore\n        /* \"#utility.yul\":1139:1157   */\n      0x64\n      add\n        /* \"AccessControl.sol\":907:957  require(roles[_role][msg.sender],\"Not authorized\") */\n    tag_22:\n      mload(0x40)\n      dup1\n      swap2\n      sub\n      swap1\n      revert\n    tag_21:\n        /* \"AccessControl.sol\":1230:1256  _grantRole(_role,_account) */\n      tag_25\n        /* \"AccessControl.sol\":1241:1246  _role */\n      dup4\n        /* \"AccessControl.sol\":1247:1255  _account */\n      dup4\n        /* \"AccessControl.sol\":1230:1240  _grantRole */\n      tag_26\n        /* \"AccessControl.sol\":1230:1256  _grantRole(_role,_account) */\n      jump\t// in\n    tag_25:\n        /* \"AccessControl.sol\":1143:1264  function grantRole(bytes32 _role,address _account) external  onlyRole(ADMIN){... */\n      pop\n      pop\n      pop\n      jump\t// out\n        /* \"AccessControl.sol\":1272:1440  function revokeRole(bytes32 _role,address _account) external  onlyRole(ADMIN){... */\n    tag_12:\n        /* \"AccessControl.sol\":508:533  abi.encodePacked(\"ADMIN\") */\n      mload(0x40)\n      shl(0xd9, 0x20a226a4a7)\n      0x20\n      dup3\n      add\n        /* \"#utility.yul\":767:787   */\n      mstore\n        /* \"#utility.yul\":803:814   */\n      0x25\n      add\n        /* \"AccessControl.sol\":508:533  abi.encodePacked(\"ADMIN\") */\n      0x40\n      dup1\n      mload\n      not(0x1f)\n      dup2\n      dup5\n      sub\n      add\n      dup2\n      mstore\n      swap2\n      dup2\n      mstore\n        /* \"AccessControl.sol\":498:534  keccak256(abi.encodePacked(\"ADMIN\")) */\n      dup2\n      mload\n        /* \"AccessControl.sol\":508:533  abi.encodePacked(\"ADMIN\") */\n      0x20\n        /* \"AccessControl.sol\":498:534  keccak256(abi.encodePacked(\"ADMIN\")) */\n      swap3\n      dup4\n      add\n      keccak256\n        /* \"AccessControl.sol\":915:920  roles */\n      0x00\n        /* \"AccessControl.sol\":915:927  roles[_role] */\n      dup2\n      dup2\n      mstore\n      dup1\n      dup5\n      mstore\n      dup3\n      dup2\n      keccak256\n        /* \"AccessControl.sol\":928:938  msg.sender */\n      caller\n        /* \"AccessControl.sol\":915:939  roles[_role][msg.sender] */\n      dup3\n      mstore\n      swap1\n      swap4\n      mstore\n      swap2\n      keccak256\n      sload\n      0xff\n      and\n        /* \"AccessControl.sol\":907:957  require(roles[_role][msg.sender],\"Not authorized\") */\n      tag_29\n      jumpi\n      mload(0x40)\n      shl(0xe5, 0x461bcd)\n      dup2\n      mstore\n        /* \"#utility.yul\":1027:1029   */\n      0x20\n        /* \"AccessControl.sol\":907:957  require(roles[_role][msg.sender],\"Not authorized\") */\n      0x04\n      dup3\n      add\n        /* \"#utility.yul\":1009:1030   */\n      mstore\n        /* \"#utility.yul\":1066:1068   */\n      0x0e\n        /* \"#utility.yul\":1046:1064   */\n      0x24\n      dup3\n      add\n        /* \"#utility.yul\":1039:1069   */\n      mstore\n      shl(0x92, 0x139bdd08185d5d1a1bdc9a5e9959)\n        /* \"#utility.yul\":1085:1103   */\n      0x44\n      dup3\n      add\n        /* \"#utility.yul\":1078:1122   */\n      mstore\n        /* \"#utility.yul\":1139:1157   */\n      0x64\n      add\n        /* \"AccessControl.sol\":907:957  require(roles[_role][msg.sender],\"Not authorized\") */\n      tag_22\n        /* \"#utility.yul\":825:1163   */\n      jump\n        /* \"AccessControl.sol\":907:957  require(roles[_role][msg.sender],\"Not authorized\") */\n    tag_29:\n        /* \"AccessControl.sol\":1385:1390  false */\n      0x00\n        /* \"AccessControl.sol\":1360:1372  roles[_role] */\n      dup4\n      dup2\n      mstore\n      0x20\n      dup2\n      dup2\n      mstore\n      0x40\n      dup1\n      dup4\n      keccak256\n      sub(shl(0xa0, 0x01), 0x01)\n        /* \"AccessControl.sol\":1360:1382  roles[_role][_account] */\n      dup7\n      and\n      dup1\n      dup6\n      mstore\n      swap3\n      mstore\n      dup1\n      dup4\n      keccak256\n        /* \"AccessControl.sol\":1360:1390  roles[_role][_account] = false */\n      dup1\n      sload\n      not(0xff)\n      and\n      swap1\n      sstore\n        /* \"AccessControl.sol\":1406:1432  RevokeRole(_role,_account) */\n      mload\n        /* \"AccessControl.sol\":1360:1382  roles[_role][_account] */\n      swap1\n      swap2\n        /* \"AccessControl.sol\":1366:1371  _role */\n      dup6\n      swap2\n        /* \"AccessControl.sol\":1406:1432  RevokeRole(_role,_account) */\n      0x76e6093c136cd7faa5a6d92b2b633f3b4595abd4a529b7a13917398355fea694\n      swap2\n        /* \"AccessControl.sol\":1385:1390  false */\n      swap1\n        /* \"AccessControl.sol\":1406:1432  RevokeRole(_role,_account) */\n      log3\n        /* \"AccessControl.sol\":1272:1440  function revokeRole(bytes32 _role,address _account) external  onlyRole(ADMIN){... */\n      pop\n      pop\n      pop\n      jump\t// out\n        /* \"AccessControl.sol\":985:1135  function _grantRole(bytes32 _role,address _account) internal {... */\n    tag_26:\n        /* \"AccessControl.sol\":1057:1062  roles */\n      0x00\n        /* \"AccessControl.sol\":1057:1069  roles[_role] */\n      dup3\n      dup2\n      mstore\n      0x20\n      dup2\n      dup2\n      mstore\n      0x40\n      dup1\n      dup4\n      keccak256\n      sub(shl(0xa0, 0x01), 0x01)\n        /* \"AccessControl.sol\":1057:1079  roles[_role][_account] */\n      dup6\n      and\n      dup1\n      dup6\n      mstore\n      swap3\n      mstore\n      dup1\n      dup4\n      keccak256\n        /* \"AccessControl.sol\":1057:1086  roles[_role][_account] = true */\n      dup1\n      sload\n      not(0xff)\n      and\n        /* \"AccessControl.sol\":1082:1086  true */\n      0x01\n        /* \"AccessControl.sol\":1057:1086  roles[_role][_account] = true */\n      or\n      swap1\n      sstore\n        /* \"AccessControl.sol\":1102:1127  GrantRole(_role,_account) */\n      mload\n        /* \"AccessControl.sol\":1057:1079  roles[_role][_account] */\n      swap1\n      swap2\n        /* \"AccessControl.sol\":1063:1068  _role */\n      dup5\n      swap2\n        /* \"AccessControl.sol\":1102:1127  GrantRole(_role,_account) */\n      0x5a06360d65acf95e98445dc834f205063424c636e65418d928cdfabc33a95399\n      swap2\n        /* \"AccessControl.sol\":1057:1062  roles */\n      swap1\n        /* \"AccessControl.sol\":1102:1127  GrantRole(_role,_account) */\n      log3\n        /* \"AccessControl.sol\":985:1135  function _grantRole(bytes32 _role,address _account) internal {... */\n      pop\n      pop\n      jump\t// out\n        /* \"#utility.yul\":14:368   */\n    tag_8:\n        /* \"#utility.yul\":82:88   */\n      0x00\n        /* \"#utility.yul\":90:96   */\n      dup1\n        /* \"#utility.yul\":143:145   */\n      0x40\n        /* \"#utility.yul\":131:140   */\n      dup4\n        /* \"#utility.yul\":122:129   */\n      dup6\n        /* \"#utility.yul\":118:141   */\n      sub\n        /* \"#utility.yul\":114:146   */\n      slt\n        /* \"#utility.yul\":111:163   */\n      iszero\n      tag_35\n      jumpi\n        /* \"#utility.yul\":159:160   */\n      0x00\n        /* \"#utility.yul\":156:157   */\n      dup1\n        /* \"#utility.yul\":149:161   */\n      revert\n        /* \"#utility.yul\":111:163   */\n    tag_35:\n        /* \"#utility.yul\":182:205   */\n      dup3\n      calldataload\n      swap2\n      pop\n        /* \"#utility.yul\":255:257   */\n      0x20\n        /* \"#utility.yul\":240:258   */\n      dup4\n      add\n        /* \"#utility.yul\":227:259   */\n      calldataload\n      sub(shl(0xa0, 0x01), 0x01)\n        /* \"#utility.yul\":288:319   */\n      dup2\n      and\n        /* \"#utility.yul\":278:320   */\n      dup2\n      eq\n        /* \"#utility.yul\":268:338   */\n      tag_36\n      jumpi\n        /* \"#utility.yul\":334:335   */\n      0x00\n        /* \"#utility.yul\":331:332   */\n      dup1\n        /* \"#utility.yul\":324:336   */\n      revert\n        /* \"#utility.yul\":268:338   */\n    tag_36:\n        /* \"#utility.yul\":357:362   */\n      dup1\n        /* \"#utility.yul\":347:362   */\n      swap2\n      pop\n      pop\n        /* \"#utility.yul\":14:368   */\n      swap3\n      pop\n      swap3\n      swap1\n      pop\n      jump\t// out\n\n    auxdata: 0xa2646970667358221220968824b938e947c6023330687ac07a2b6b9b064b0f6e78591cc6a29f9a56e3be64736f6c634300081a0033\n}\n",
				"bytecode": {
					"linkReferences": {},
					"object": "6080604052348015600e575f80fd5b506040516420a226a4a760d91b60208201526047906025016040516020818303038152906040528051906020012033604b60201b60201c565b60a3565b5f828152602081815260408083206001600160a01b0385168085529252808320805460ff1916600117905551909184917f5a06360d65acf95e98445dc834f205063424c636e65418d928cdfabc33a953999190a35050565b6102d8806100b05f395ff3fe608060405234801561000f575f80fd5b506004361061003f575f3560e01c80632f2ff15d14610043578063d547741f14610058578063f8fc08b91461006b575b5f80fd5b610056610051366004610269565b6100a9565b005b610056610066366004610269565b61013c565b610095610079366004610269565b5f60208181529281526040808220909352908152205460ff1681565b604051901515815260200160405180910390f35b6040516420a226a4a760d91b602082015260250160408051601f1981840301815291815281516020928301205f81815280845282812033825290935291205460ff1661012d5760405162461bcd60e51b815260206004820152600e60248201526d139bdd08185d5d1a1bdc9a5e995960921b60448201526064015b60405180910390fd5b6101378383610211565b505050565b6040516420a226a4a760d91b602082015260250160408051601f1981840301815291815281516020928301205f81815280845282812033825290935291205460ff166101bb5760405162461bcd60e51b815260206004820152600e60248201526d139bdd08185d5d1a1bdc9a5e995960921b6044820152606401610124565b5f838152602081815260408083206001600160a01b0386168085529252808320805460ff1916905551909185917f76e6093c136cd7faa5a6d92b2b633f3b4595abd4a529b7a13917398355fea6949190a3505050565b5f828152602081815260408083206001600160a01b0385168085529252808320805460ff1916600117905551909184917f5a06360d65acf95e98445dc834f205063424c636e65418d928cdfabc33a953999190a35050565b5f806040838503121561027a575f80fd5b8235915060208301356001600160a01b0381168114610297575f80fd5b80915050925092905056fea2646970667358221220968824b938e947c6023330687ac07a2b6b9b064b0f6e78591cc6a29f9a56e3be64736f6c634300081a0033",
					"opcodes": "PUSH1 0x80 PUSH1 0x40 MSTORE CALLVALUE DUP1 ISZERO PUSH1 0xE JUMPI PUSH0 DUP1 REVERT JUMPDEST POP PUSH1 0x40 MLOAD PUSH5 0x20A226A4A7 PUSH1 0xD9 SHL PUSH1 0x20 DUP3 ADD MSTORE PUSH1 0x47 SWAP1 PUSH1 0x25 ADD PUSH1 0x40 MLOAD PUSH1 0x20 DUP2 DUP4 SUB SUB DUP2 MSTORE SWAP1 PUSH1 0x40 MSTORE DUP1 MLOAD SWAP1 PUSH1 0x20 ADD KECCAK256 CALLER PUSH1 0x4B PUSH1 0x20 SHL PUSH1 0x20 SHR JUMP JUMPDEST PUSH1 0xA3 JUMP JUMPDEST PUSH0 DUP3 DUP2 MSTORE PUSH1 0x20 DUP2 DUP2 MSTORE PUSH1 0x40 DUP1 DUP4 KECCAK256 PUSH1 0x1 PUSH1 0x1 PUSH1 0xA0 SHL SUB DUP6 AND DUP1 DUP6 MSTORE SWAP3 MSTORE DUP1 DUP4 KECCAK256 DUP1 SLOAD PUSH1 0xFF NOT AND PUSH1 0x1 OR SWAP1 SSTORE MLOAD SWAP1 SWAP2 DUP5 SWAP2 PUSH32 0x5A06360D65ACF95E98445DC834F205063424C636E65418D928CDFABC33A95399 SWAP2 SWAP1 LOG3 POP POP JUMP JUMPDEST PUSH2 0x2D8 DUP1 PUSH2 0xB0 PUSH0 CODECOPY PUSH0 RETURN INVALID PUSH1 0x80 PUSH1 0x40 MSTORE CALLVALUE DUP1 ISZERO PUSH2 0xF JUMPI PUSH0 DUP1 REVERT JUMPDEST POP PUSH1 0x4 CALLDATASIZE LT PUSH2 0x3F JUMPI PUSH0 CALLDATALOAD PUSH1 0xE0 SHR DUP1 PUSH4 0x2F2FF15D EQ PUSH2 0x43 JUMPI DUP1 PUSH4 0xD547741F EQ PUSH2 0x58 JUMPI DUP1 PUSH4 0xF8FC08B9 EQ PUSH2 0x6B JUMPI JUMPDEST PUSH0 DUP1 REVERT JUMPDEST PUSH2 0x56 PUSH2 0x51 CALLDATASIZE PUSH1 0x4 PUSH2 0x269 JUMP JUMPDEST PUSH2 0xA9 JUMP JUMPDEST STOP JUMPDEST PUSH2 0x56 PUSH2 0x66 CALLDATASIZE PUSH1 0x4 PUSH2 0x269 JUMP JUMPDEST PUSH2 0x13C JUMP JUMPDEST PUSH2 0x95 PUSH2 0x79 CALLDATASIZE PUSH1 0x4 PUSH2 0x269 JUMP JUMPDEST PUSH0 PUSH1 0x20 DUP2 DUP2 MSTORE SWAP3 DUP2 MSTORE PUSH1 0x40 DUP1 DUP3 KECCAK256 SWAP1 SWAP4 MSTORE SWAP1 DUP2 MSTORE KECCAK256 SLOAD PUSH1 0xFF AND DUP2 JUMP JUMPDEST PUSH1 0x40 MLOAD SWAP1 ISZERO ISZERO DUP2 MSTORE PUSH1 0x20 ADD PUSH1 0x40 MLOAD DUP1 SWAP2 SUB SWAP1 RETURN JUMPDEST PUSH1 0x40 MLOAD PUSH5 0x20A226A4A7 PUSH1 0xD9 SHL PUSH1 0x20 DUP3 ADD MSTORE PUSH1 0x25 ADD PUSH1 0x40 DUP1 MLOAD PUSH1 0x1F NOT DUP2 DUP5 SUB ADD DUP2 MSTORE SWAP2 DUP2 MSTORE DUP2 MLOAD PUSH1 0x20 SWAP3 DUP4 ADD KECCAK256 PUSH0 DUP2 DUP2 MSTORE DUP1 DUP5 MSTORE DUP3 DUP2 KECCAK256 CALLER DUP3 MSTORE SWAP1 SWAP4 MSTORE SWAP2 KECCAK256 SLOAD PUSH1 0xFF AND PUSH2 0x12D JUMPI PUSH1 0x40 MLOAD PUSH3 0x461BCD PUSH1 0xE5 SHL DUP2 MSTORE PUSH1 0x20 PUSH1 0x4 DUP3 ADD MSTORE PUSH1 0xE PUSH1 0x24 DUP3 ADD MSTORE PUSH14 0x139BDD08185D5D1A1BDC9A5E9959 PUSH1 0x92 SHL PUSH1 0x44 DUP3 ADD MSTORE PUSH1 0x64 ADD JUMPDEST PUSH1 0x40 MLOAD DUP1 SWAP2 SUB SWAP1 REVERT JUMPDEST PUSH2 0x137 DUP4 DUP4 PUSH2 0x211 JUMP JUMPDEST POP POP POP JUMP JUMPDEST PUSH1 0x40 MLOAD PUSH5 0x20A226A4A7 PUSH1 0xD9 SHL PUSH1 0x20 DUP3 ADD MSTORE PUSH1 0x25 ADD PUSH1 0x40 DUP1 MLOAD PUSH1 0x1F NOT DUP2 DUP5 SUB ADD DUP2 MSTORE SWAP2 DUP2 MSTORE DUP2 MLOAD PUSH1 0x20 SWAP3 DUP4 ADD KECCAK256 PUSH0 DUP2 DUP2 MSTORE DUP1 DUP5 MSTORE DUP3 DUP2 KECCAK256 CALLER DUP3 MSTORE SWAP1 SWAP4 MSTORE SWAP2 KECCAK256 SLOAD PUSH1 0xFF AND PUSH2 0x1BB JUMPI PUSH1 0x40 MLOAD PUSH3 0x461BCD PUSH1 0xE5 SHL DUP2 MSTORE PUSH1 0x20 PUSH1 0x4 DUP3 ADD MSTORE PUSH1 0xE PUSH1 0x24 DUP3 ADD MSTORE PUSH14 0x139BDD08185D5D1A1BDC9A5E9959 PUSH1 0x92 SHL PUSH1 0x44 DUP3 ADD MSTORE PUSH1 0x64 ADD PUSH2 0x124 JUMP JUMPDEST PUSH0 DUP4 DUP2 MSTORE PUSH1 0x20 DUP2 DUP2 MSTORE PUSH1 0x40 DUP1 DUP4 KECCAK256 PUSH1 0x1 PUSH1 0x1 PUSH1 0xA0 SHL SUB DUP7 AND DUP1 DUP6 MSTORE SWAP3 MSTORE DUP1 DUP4 KECCAK256 DUP1 SLOAD PUSH1 0xFF NOT AND SWAP1 SSTORE MLOAD SWAP1 SWAP2 DUP6 SWAP2 PUSH32 0x76E6093C136CD7FAA5A6D92B2B633F3B4595ABD4A529B7A13917398355FEA694 SWAP2 SWAP1 LOG3 POP POP POP JUMP JUMPDEST PUSH0 DUP3 DUP2 MSTORE PUSH1 0x20 DUP2 DUP2 MSTORE PUSH1 0x40 DUP1 DUP4 KECCAK256 PUSH1 0x1 PUSH1 0x1 PUSH1 0xA0 SHL SUB DUP6 AND DUP1 DUP6 MSTORE SWAP3 MSTORE DUP1 DUP4 KECCAK256 DUP1 SLOAD PUSH1 0xFF NOT AND PUSH1 0x1 OR SWAP1 SSTORE MLOAD SWAP1 SWAP2 DUP5 SWAP2 PUSH32 0x5A06360D65ACF95E98445DC834F205063424C636E65418D928CDFABC33A95399 SWAP2 SWAP1 LOG3 POP POP JUMP JUMPDEST PUSH0 DUP1 PUSH1 0x40 DUP4 DUP6 SUB SLT ISZERO PUSH2 0x27A JUMPI PUSH0 DUP1 REVERT JUMPDEST DUP3 CALLDATALOAD SWAP2 POP PUSH1 0x20 DUP4 ADD CALLDATALOAD PUSH1 0x1 PUSH1 0x1 PUSH1 0xA0 SHL SUB DUP2 AND DUP2 EQ PUSH2 0x297 JUMPI PUSH0 DUP1 REVERT JUMPDEST DUP1 SWAP2 POP POP SWAP3 POP SWAP3 SWAP1 POP JUMP INVALID LOG2 PUSH5 0x6970667358 0x22 SLT KECCAK256 SWAP7 DUP9 0x24 0xB9 CODESIZE 0xE9 SELFBALANCE 0xC6 MUL CALLER ADDRESS PUSH9 0x7AC07A2B6B9B064B0F PUSH15 0x78591CC6A29F9A56E3BE64736F6C63 NUMBER STOP ADDMOD BYTE STOP CALLER "
				},
				"gasEstimates": {
					"creation": {
						"codeDepositCost": "145600",
						"executionCost": "infinite",
						"totalCost": "infinite"
					},
					"external": {
						"grantRole(bytes32,address)": "28605",
						"revokeRole(bytes32,address)": "28587",
						"roles(bytes32,address)": "2600"
					},
					"internal": {
						"_grantRole(bytes32,address)": "25925"
					}
				},
				"methodIdentifiers": {
					"grantRole(bytes32,address)": "2f2ff15d",
					"revokeRole(bytes32,address)": "d547741f",
					"roles(bytes32,address)": "f8fc08b9"
				}
			},
			"storageLayout": {
				"storage": [
					{
						"astId": 19,
						"contract": "AccessControl.sol:AccessControl",
						"label": "roles",
						"offset": 0,
						"slot": "0",
						"type": "t_mapping(t_bytes32,t_mapping(t_address,t_bool))"
					}
				],
				"types": {
					"t_address": {
						"encoding": "inplace",
						"label": "address",
						"numberOfBytes": "20"
					},
					"t_bool": {
						"encoding": "inplace",
						"label": "bool",
						"numberOfBytes": "1"
					},
					"t_bytes32": {
						"encoding": "inplace",
						"label": "bytes32",
						"numberOfBytes": "32"
					},
					"t_mapping(t_address,t_bool)": {
						"encoding": "mapping",
						"key": "t_address",
						"label": "mapping(address => bool)",
						"numberOfBytes": "32",
						"value": "t_bool"
					},
					"t_mapping(t_bytes32,t_mapping(t_address,t_bool))": {
						"encoding": "mapping",
						"key": "t_bytes32",
						"label": "mapping(bytes32 => mapping(address => bool))",
						"numberOfBytes": "32",
						"value": "t_mapping(t_address,t_bool)"
					}
				}
			},
			"userdoc": {
				"kind": "user",
				"methods": {},
				"version": 1
			}
		}
	}
}