{
	"Array.sol": {
		"TestArray": {
			"abi": [
				{
					"inputs": [],
					"name": "examples",
					"outputs": [],
					"stateMutability": "nonpayable",
					"type": "function"
				},
				{
					"inputs": [
						{
							"internalType": "uint256",
							"name": "",
							"type": "uint256"
						}
					],
					"name": "myArray",
					"outputs": [
						{
							"internalType": "uint256",
							"name": "",
							"type": "uint256"
						}
					],
					"stateMutability": "view",
					"type": "function"
				},
				{
					"inputs": [
						{
							"internalType": "uint256",
							"name": "",
							"type": "uint256"
						}
					],
					"name": "nums",
					"outputs": [
						{
							"internalType": "uint256",
							"name": "",
							"type": "uint256"
						}
					],
					"stateMutability": "view",
					"type": "function"
				},
				{
					"inputs": [
						{
							"internalType": "uint256",
							"name": "",
							"type": "uint256"
						}
					],
					"name": "nums1",
					"outputs": [
						{
							"internalType": "uint256",
							"name": "",
							"type": "uint256"
						}
					],
					"stateMutability": "view",
					"type": "function"
				},
				{
					"inputs": [
						{
							"internalType": "uint256",
							"name": "",
							"type": "uint256"
						}
					],
					"name": "nums2",
					"outputs": [
						{
							"internalType": "uint256",
							"name": "",
							"type": "uint256"
						}
					],
					"stateMutability": "view",
					"type": "function"
				},
				{
					"inputs": [],
					"name": "returnArray",
					"outputs": [
						{
							"internalType": "uint256[]",
							"name": "",
							"type": "uint256[]"
						}
					],
					"stateMutability": "view",
					"type": "function"
				}
			],
			"devdoc": {
				"kind": "dev",
				"methods": {},
				"version": 1
			},
			"evm": {
				"assembly": "    /* \"Array.sol\":156:157  3 */\n  0x03\n    /* \"Array.sol\":58:1081  contract TestArray { ... */\n  0x80\n    /* \"Array.sol\":145:158  new uint[](3) */\n  dup2\n  dup2\n  mstore\n  0x0100\n    /* \"Array.sol\":58:1081  contract TestArray { ... */\n  0x40\n    /* \"Array.sol\":145:158  new uint[](3) */\n  mstore\n    /* \"Array.sol\":58:1081  contract TestArray { ... */\n  swap1\n    /* \"Array.sol\":145:158  new uint[](3) */\n  0xa0\n  0x60\n  dup1\n  calldatasize\n  dup4\n  calldatacopy\n  pop\n  pop\n    /* \"Array.sol\":121:158  uint[] public myArray = new uint[](3) */\n  dup2\n  mload\n  tag_5\n  swap3\n  0x00\n  swap3\n  pop\n  0x20\n  add\n  swap1\n  tag_6\n  jump\t// in\ntag_5:\n  pop\n    /* \"Array.sol\":244:271  uint[] public nums1=[1,2,3] */\n  0x40\n  dup1\n  mload\n  0x60\n  dup2\n  add\n  dup3\n  mstore\n    /* \"Array.sol\":265:266  1 */\n  0x01\n    /* \"Array.sol\":244:271  uint[] public nums1=[1,2,3] */\n  dup2\n  mstore\n    /* \"Array.sol\":267:268  2 */\n  0x02\n    /* \"Array.sol\":244:271  uint[] public nums1=[1,2,3] */\n  0x20\n  dup3\n  add\n  dup2\n  swap1\n  mstore\n    /* \"Array.sol\":269:270  3 */\n  0x03\n    /* \"Array.sol\":244:271  uint[] public nums1=[1,2,3] */\n  swap3\n  dup3\n  add\n  dup4\n  swap1\n  mstore\n  tag_7\n  swap3\n    /* \"Array.sol\":267:268  2 */\n  swap1\n  swap2\n    /* \"Array.sol\":244:271  uint[] public nums1=[1,2,3] */\n  swap1\n  tag_8\n  jump\t// in\ntag_7:\n  pop\n    /* \"Array.sol\":283:312  uint[3] public nums2= [4,5,6] */\n  0x40\n  dup1\n  mload\n  0x60\n  dup2\n  add\n  dup3\n  mstore\n    /* \"Array.sol\":306:307  4 */\n  0x04\n    /* \"Array.sol\":283:312  uint[3] public nums2= [4,5,6] */\n  dup2\n  mstore\n    /* \"Array.sol\":308:309  5 */\n  0x05\n    /* \"Array.sol\":283:312  uint[3] public nums2= [4,5,6] */\n  0x20\n  dup3\n  add\n  mstore\n    /* \"Array.sol\":310:311  6 */\n  0x06\n    /* \"Array.sol\":283:312  uint[3] public nums2= [4,5,6] */\n  swap2\n  dup2\n  add\n  swap2\n  swap1\n  swap2\n  mstore\n  tag_9\n  swap1\n  0x03\n  swap1\n  dup2\n  tag_10\n  jump\t// in\ntag_9:\n  pop\n    /* \"Array.sol\":58:1081  contract TestArray { ... */\n  callvalue\n  dup1\n  iszero\n  tag_11\n  jumpi\n  revert(0x00, 0x00)\ntag_11:\n  pop\n  jump(tag_28)\ntag_6:\n  dup3\n  dup1\n  sload\n  dup3\n  dup3\n  sstore\n  swap1\n  0x00\n  mstore\n  keccak256(0x00, 0x20)\n  swap1\n  dup2\n  add\n  swap3\n  dup3\n  iszero\n  tag_15\n  jumpi\n  swap2\n  0x20\n  mul\n  dup3\n  add\ntag_14:\n  dup3\n  dup2\n  gt\n  iszero\n  tag_15\n  jumpi\n  dup3\n  mload\n  dup3\n  sstore\n  swap2\n  0x20\n  add\n  swap2\n  swap1\n  0x01\n  add\n  swap1\n  jump(tag_14)\ntag_15:\n  pop\n  tag_16\n  swap3\n  swap2\n  pop\n  tag_17\n  jump\t// in\ntag_16:\n  pop\n  swap1\n  jump\t// out\ntag_8:\n  dup3\n  dup1\n  sload\n  dup3\n  dup3\n  sstore\n  swap1\n  0x00\n  mstore\n  keccak256(0x00, 0x20)\n  swap1\n  dup2\n  add\n  swap3\n  dup3\n  iszero\n  tag_15\n  jumpi\n  swap2\n  0x20\n  mul\n  dup3\n  add\ntag_19:\n  dup3\n  dup2\n  gt\n  iszero\n  tag_15\n  jumpi\n  dup3\n  mload\n  dup3\n  swap1\n  0xff\n  and\n  swap1\n  sstore\n  swap2\n  0x20\n  add\n  swap2\n  swap1\n  0x01\n  add\n  swap1\n  jump(tag_19)\ntag_10:\n  dup3\n  0x03\n  dup2\n  add\n  swap3\n  dup3\n  iszero\n  tag_15\n  jumpi\n  swap2\n  0x20\n  mul\n  dup3\n  add\n  dup3\n  dup2\n  gt\n  iszero\n  tag_15\n  jumpi\n  dup3\n  mload\n  dup3\n  swap1\n  0xff\n  and\n  swap1\n  sstore\n  swap2\n  0x20\n  add\n  swap2\n  swap1\n  0x01\n  add\n  swap1\n  jump(tag_19)\ntag_17:\ntag_26:\n  dup1\n  dup3\n  gt\n  iszero\n  tag_16\n  jumpi\n  0x00\n  dup2\n  sstore\n  0x01\n  add\n  jump(tag_26)\n    /* \"#utility.yul\":14:141   */\ntag_28:\n    /* \"Array.sol\":58:1081  contract TestArray { ... */\n  dataSize(sub_0)\n  dup1\n  dataOffset(sub_0)\n  0x00\n  codecopy\n  0x00\n  return\nstop\n\nsub_0: assembly {\n        /* \"Array.sol\":58:1081  contract TestArray { ... */\n      mstore(0x40, 0x80)\n      callvalue\n      dup1\n      iszero\n      tag_1\n      jumpi\n      revert(0x00, 0x00)\n    tag_1:\n      pop\n      jumpi(tag_2, lt(calldatasize, 0x04))\n      shr(0xe0, calldataload(0x00))\n      dup1\n      0x335d00c2\n      eq\n      tag_3\n      jumpi\n      dup1\n      0x3cac14c8\n      eq\n      tag_4\n      jumpi\n      dup1\n      0x4766fb51\n      eq\n      tag_5\n      jumpi\n      dup1\n      0xca50d1ad\n      eq\n      tag_6\n      jumpi\n      dup1\n      0xcc3e57d9\n      eq\n      tag_7\n      jumpi\n      dup1\n      0xfd1ee54c\n      eq\n      tag_8\n      jumpi\n    tag_2:\n      revert(0x00, 0x00)\n        /* \"Array.sol\":333:918  function examples() external {... */\n    tag_3:\n      tag_9\n      tag_10\n      jump\t// in\n    tag_9:\n      stop\n        /* \"Array.sol\":929:1076  function returnArray() external view returns (uint[] memory) {... */\n    tag_4:\n      tag_11\n      tag_12\n      jump\t// in\n    tag_11:\n      mload(0x40)\n      tag_13\n      swap2\n      swap1\n      tag_14\n      jump\t// in\n    tag_13:\n      mload(0x40)\n      dup1\n      swap2\n      sub\n      swap1\n      return\n        /* \"Array.sol\":244:271  uint[] public nums1=[1,2,3] */\n    tag_5:\n      tag_15\n      tag_16\n      calldatasize\n      0x04\n      tag_17\n      jump\t// in\n    tag_16:\n      tag_18\n      jump\t// in\n    tag_15:\n      mload(0x40)\n        /* \"#utility.yul\":961:986   */\n      swap1\n      dup2\n      mstore\n        /* \"#utility.yul\":949:951   */\n      0x20\n        /* \"#utility.yul\":934:952   */\n      add\n        /* \"Array.sol\":244:271  uint[] public nums1=[1,2,3] */\n      tag_13\n        /* \"#utility.yul\":815:992   */\n      jump\n        /* \"Array.sol\":283:312  uint[3] public nums2= [4,5,6] */\n    tag_6:\n      tag_15\n      tag_22\n      calldatasize\n      0x04\n      tag_17\n      jump\t// in\n    tag_22:\n      tag_23\n      jump\t// in\n        /* \"Array.sol\":121:158  uint[] public myArray = new uint[](3) */\n    tag_7:\n      tag_15\n      tag_26\n      calldatasize\n      0x04\n      tag_17\n      jump\t// in\n    tag_26:\n      tag_27\n      jump\t// in\n        /* \"Array.sol\":203:221  uint[] public nums */\n    tag_8:\n      tag_15\n      tag_30\n      calldatasize\n      0x04\n      tag_17\n      jump\t// in\n    tag_30:\n      tag_31\n      jump\t// in\n        /* \"Array.sol\":333:918  function examples() external {... */\n    tag_10:\n        /* \"Array.sol\":399:403  nums */\n      0x01\n        /* \"Array.sol\":399:411  nums.push(4) */\n      dup1\n      sload\n      dup1\n      dup3\n      add\n      dup3\n      sstore\n      0x00\n      dup3\n      swap1\n      mstore\n        /* \"Array.sol\":409:410  4 */\n      0x04\n        /* \"Array.sol\":399:411  nums.push(4) */\n      0xb10e2d527612073b26eecdfd717e6a320cf44b4afac2b0732d9fcbe2b7fa0cf6\n      swap2\n      dup3\n      add\n      sstore\n        /* \"Array.sol\":423:435  nums.push(6) */\n      dup2\n      sload\n      dup1\n      dup4\n      add\n      dup4\n      sstore\n        /* \"Array.sol\":433:434  6 */\n      0x06\n        /* \"Array.sol\":423:435  nums.push(6) */\n      swap1\n      dup3\n      add\n      sstore\n        /* \"Array.sol\":447:460  nums.push(22) */\n      dup2\n      sload\n      dup1\n      dup4\n      add\n      dup4\n      sstore\n        /* \"Array.sol\":457:459  22 */\n      0x16\n        /* \"Array.sol\":447:460  nums.push(22) */\n      swap1\n      dup3\n      add\n      sstore\n        /* \"Array.sol\":472:485  nums.push(46) */\n      dup2\n      sload\n      dup1\n      dup4\n      add\n      dup4\n      sstore\n        /* \"Array.sol\":482:484  46 */\n      0x2e\n        /* \"Array.sol\":472:485  nums.push(46) */\n      swap1\n      dup3\n      add\n      sstore\n        /* \"Array.sol\":497:510  nums.push(99) */\n      dup2\n      sload\n      dup1\n      dup4\n      add\n      dup4\n      sstore\n        /* \"Array.sol\":507:509  99 */\n      0x63\n        /* \"Array.sol\":497:510  nums.push(99) */\n      swap2\n      add\n      sstore\n        /* \"Array.sol\":547:554  nums[1] */\n      dup1\n      sload\n        /* \"Array.sol\":399:403  nums */\n      dup2\n      swap1\n        /* \"Array.sol\":547:554  nums[1] */\n      dup2\n      lt\n      tag_40\n      jumpi\n      tag_40\n      tag_41\n      jump\t// in\n    tag_40:\n      pop\n      0x00\n      mstore\n        /* \"Array.sol\":591:595  nums */\n      0x01\n        /* \"Array.sol\":591:598  nums[2] */\n      dup1\n      sload\n        /* \"Array.sol\":599:602  777 */\n      0x0309\n      swap2\n        /* \"Array.sol\":591:595  nums */\n      swap1\n        /* \"Array.sol\":596:597  2 */\n      0x02\n      swap1\n        /* \"Array.sol\":591:598  nums[2] */\n      dup2\n      lt\n      tag_44\n      jumpi\n      tag_44\n      tag_41\n      jump\t// in\n    tag_44:\n      swap1\n      0x00\n      mstore\n      keccak256(0x00, 0x20)\n      add\n        /* \"Array.sol\":591:602  nums[2]=777 */\n      dup2\n      swap1\n      sstore\n      pop\n        /* \"Array.sol\":681:685  nums */\n      0x01\n        /* \"Array.sol\":686:687  1 */\n      dup1\n        /* \"Array.sol\":681:688  nums[1] */\n      dup2\n      sload\n      dup2\n      lt\n      tag_47\n      jumpi\n      tag_47\n      tag_41\n      jump\t// in\n    tag_47:\n      0x00\n      swap2\n      dup3\n      mstore\n      0x20\n      dup3\n      keccak256\n      add\n        /* \"Array.sol\":674:688  delete nums[1] */\n      sstore\n        /* \"Array.sol\":736:740  nums */\n      0x01\n        /* \"Array.sol\":736:746  nums.pop() */\n      dup1\n      sload\n      dup1\n      tag_50\n      jumpi\n      tag_50\n      tag_51\n      jump\t// in\n    tag_50:\n      0x00\n      dup3\n      dup2\n      mstore\n      0x20\n      dup1\n      dup3\n      keccak256\n      not(0x00)\n      swap1\n      dup5\n      add\n      dup2\n      add\n      dup4\n      swap1\n      sstore\n      swap1\n      swap3\n      add\n      swap1\n      swap3\n      sstore\n      0x01\n        /* \"Array.sol\":770:781  nums.length */\n      sload\n        /* \"Array.sol\":894:907  new uint[](5) */\n      0x40\n      dup1\n      mload\n        /* \"Array.sol\":905:906  5 */\n      0x05\n        /* \"Array.sol\":894:907  new uint[](5) */\n      dup1\n      dup3\n      mstore\n      0xc0\n      dup3\n      add\n      swap1\n      swap3\n      mstore\n        /* \"Array.sol\":770:781  nums.length */\n      swap2\n      swap4\n        /* \"Array.sol\":736:746  nums.pop() */\n      swap3\n        /* \"Array.sol\":894:907  new uint[](5) */\n      dup3\n      add\n      0xa0\n      dup1\n      calldatasize\n      dup4\n      calldatacopy\n      pop\n      pop\n      pop\n      pop\n      pop\n      pop\n        /* \"Array.sol\":333:918  function examples() external {... */\n      jump\t// out\n        /* \"Array.sol\":929:1076  function returnArray() external view returns (uint[] memory) {... */\n    tag_12:\n        /* \"Array.sol\":975:988  uint[] memory */\n      0x60\n        /* \"Array.sol\":1061:1065  nums */\n      0x01\n        /* \"Array.sol\":1054:1065  return nums */\n      dup1\n      sload\n      dup1\n      0x20\n      mul\n      0x20\n      add\n      mload(0x40)\n      swap1\n      dup2\n      add\n      0x40\n      mstore\n      dup1\n      swap3\n      swap2\n      swap1\n      dup2\n      dup2\n      mstore\n      0x20\n      add\n      dup3\n      dup1\n      sload\n      dup1\n      iszero\n      tag_58\n      jumpi\n      0x20\n      mul\n      dup3\n      add\n      swap2\n      swap1\n      0x00\n      mstore\n      keccak256(0x00, 0x20)\n      swap1\n    tag_59:\n      dup2\n      sload\n      dup2\n      mstore\n      0x20\n      add\n      swap1\n      0x01\n      add\n      swap1\n      dup1\n      dup4\n      gt\n      tag_59\n      jumpi\n    tag_58:\n      pop\n      pop\n      pop\n      pop\n      pop\n      swap1\n      pop\n        /* \"Array.sol\":929:1076  function returnArray() external view returns (uint[] memory) {... */\n      swap1\n      jump\t// out\n        /* \"Array.sol\":244:271  uint[] public nums1=[1,2,3] */\n    tag_18:\n      0x02\n      dup2\n      dup2\n      sload\n      dup2\n      lt\n      tag_60\n      jumpi\n      0x00\n      dup1\n      revert\n    tag_60:\n      0x00\n      swap2\n      dup3\n      mstore\n      0x20\n      swap1\n      swap2\n      keccak256\n      add\n      sload\n      swap1\n      pop\n      dup2\n      jump\t// out\n        /* \"Array.sol\":283:312  uint[3] public nums2= [4,5,6] */\n    tag_23:\n      0x03\n      dup2\n      0x03\n      dup2\n      lt\n      tag_62\n      jumpi\n      0x00\n      dup1\n      revert\n    tag_62:\n      add\n      sload\n      swap1\n      pop\n      dup2\n      jump\t// out\n        /* \"Array.sol\":121:158  uint[] public myArray = new uint[](3) */\n    tag_27:\n      0x00\n      dup2\n      dup2\n      sload\n      dup2\n      lt\n      tag_60\n      jumpi\n      0x00\n      dup1\n      revert\n        /* \"Array.sol\":203:221  uint[] public nums */\n    tag_31:\n      0x01\n      dup2\n      dup2\n      sload\n      dup2\n      lt\n      tag_60\n      jumpi\n      0x00\n      dup1\n      revert\n        /* \"#utility.yul\":14:625   */\n    tag_14:\n        /* \"#utility.yul\":204:206   */\n      0x20\n        /* \"#utility.yul\":216:237   */\n      dup1\n      dup3\n      mstore\n        /* \"#utility.yul\":286:299   */\n      dup3\n      mload\n        /* \"#utility.yul\":189:207   */\n      dup3\n      dup3\n      add\n        /* \"#utility.yul\":308:330   */\n      dup2\n      swap1\n      mstore\n        /* \"#utility.yul\":156:160   */\n      0x00\n      swap2\n        /* \"#utility.yul\":387:402   */\n      dup5\n      add\n      swap1\n        /* \"#utility.yul\":361:363   */\n      0x40\n        /* \"#utility.yul\":346:364   */\n      dup5\n      add\n      swap1\n        /* \"#utility.yul\":156:160   */\n      dup4\n        /* \"#utility.yul\":430:599   */\n    tag_70:\n        /* \"#utility.yul\":444:450   */\n      dup2\n        /* \"#utility.yul\":441:442   */\n      dup2\n        /* \"#utility.yul\":438:451   */\n      lt\n        /* \"#utility.yul\":430:599   */\n      iszero\n      tag_72\n      jumpi\n        /* \"#utility.yul\":505:518   */\n      dup4\n      mload\n        /* \"#utility.yul\":493:519   */\n      dup4\n      mstore\n        /* \"#utility.yul\":548:550   */\n      0x20\n        /* \"#utility.yul\":574:589   */\n      swap4\n      dup5\n      add\n      swap4\n        /* \"#utility.yul\":539:551   */\n      swap1\n      swap3\n      add\n      swap2\n        /* \"#utility.yul\":466:467   */\n      0x01\n        /* \"#utility.yul\":459:468   */\n      add\n        /* \"#utility.yul\":430:599   */\n      jump(tag_70)\n    tag_72:\n      pop\n        /* \"#utility.yul\":616:619   */\n      swap1\n      swap6\n        /* \"#utility.yul\":14:625   */\n      swap5\n      pop\n      pop\n      pop\n      pop\n      pop\n      jump\t// out\n        /* \"#utility.yul\":630:810   */\n    tag_17:\n        /* \"#utility.yul\":689:695   */\n      0x00\n        /* \"#utility.yul\":742:744   */\n      0x20\n        /* \"#utility.yul\":730:739   */\n      dup3\n        /* \"#utility.yul\":721:728   */\n      dup5\n        /* \"#utility.yul\":717:740   */\n      sub\n        /* \"#utility.yul\":713:745   */\n      slt\n        /* \"#utility.yul\":710:762   */\n      iszero\n      tag_74\n      jumpi\n        /* \"#utility.yul\":758:759   */\n      0x00\n        /* \"#utility.yul\":755:756   */\n      0x00\n        /* \"#utility.yul\":748:760   */\n      revert\n        /* \"#utility.yul\":710:762   */\n    tag_74:\n      pop\n        /* \"#utility.yul\":781:804   */\n      calldataload\n      swap2\n        /* \"#utility.yul\":630:810   */\n      swap1\n      pop\n      jump\t// out\n        /* \"#utility.yul\":997:1124   */\n    tag_41:\n        /* \"#utility.yul\":1058:1068   */\n      0x4e487b71\n        /* \"#utility.yul\":1053:1056   */\n      0xe0\n        /* \"#utility.yul\":1049:1069   */\n      shl\n        /* \"#utility.yul\":1046:1047   */\n      0x00\n        /* \"#utility.yul\":1039:1070   */\n      mstore\n        /* \"#utility.yul\":1089:1093   */\n      0x32\n        /* \"#utility.yul\":1086:1087   */\n      0x04\n        /* \"#utility.yul\":1079:1094   */\n      mstore\n        /* \"#utility.yul\":1113:1117   */\n      0x24\n        /* \"#utility.yul\":1110:1111   */\n      0x00\n        /* \"#utility.yul\":1103:1118   */\n      revert\n        /* \"#utility.yul\":1129:1256   */\n    tag_51:\n        /* \"#utility.yul\":1190:1200   */\n      0x4e487b71\n        /* \"#utility.yul\":1185:1188   */\n      0xe0\n        /* \"#utility.yul\":1181:1201   */\n      shl\n        /* \"#utility.yul\":1178:1179   */\n      0x00\n        /* \"#utility.yul\":1171:1202   */\n      mstore\n        /* \"#utility.yul\":1221:1225   */\n      0x31\n        /* \"#utility.yul\":1218:1219   */\n      0x04\n        /* \"#utility.yul\":1211:1226   */\n      mstore\n        /* \"#utility.yul\":1245:1249   */\n      0x24\n        /* \"#utility.yul\":1242:1243   */\n      0x00\n        /* \"#utility.yul\":1235:1250   */\n      revert\n\n    auxdata: 0xa2646970667358221220b7b8a5699cda90fad0a4ed1b58eae6627267ba1f2541db4a1fe999398915b64264736f6c634300081d0033\n}\n",
				"bytecode": {
					"linkReferences": {},
					"object": "600360808181526101006040529060a060608036833750508151610029925f925060200190610093565b5060408051606081018252600181526002602082018190526003928201839052610055929091906100dc565b50604080516060810182526004815260056020820152600691810191909152610081906003908161011a565b5034801561008d575f5ffd5b50610160565b828054828255905f5260205f209081019282156100cc579160200282015b828111156100cc5782518255916020019190600101906100b1565b506100d892915061014c565b5090565b828054828255905f5260205f209081019282156100cc579160200282015b828111156100cc578251829060ff169055916020019190600101906100fa565b82600381019282156100cc57916020028201828111156100cc578251829060ff169055916020019190600101906100fa565b5b808211156100d8575f815560010161014d565b6103548061016d5f395ff3fe608060405234801561000f575f5ffd5b5060043610610060575f3560e01c8063335d00c2146100645780633cac14c81461006e5780634766fb511461008c578063ca50d1ad146100ad578063cc3e57d9146100c0578063fd1ee54c146100d3575b5f5ffd5b61006c6100e6565b005b6100766101f5565b604051610083919061029d565b60405180910390f35b61009f61009a3660046102df565b61024b565b604051908152602001610083565b61009f6100bb3660046102df565b61026a565b61009f6100ce3660046102df565b610280565b61009f6100e13660046102df565b61028e565b6001805480820182555f82905260047fb10e2d527612073b26eecdfd717e6a320cf44b4afac2b0732d9fcbe2b7fa0cf691820155815480830183556006908201558154808301835560169082015581548083018355602e9082015581548083018355606391015580548190811061015f5761015f6102f6565b505f52600180546103099190600290811061017c5761017c6102f6565b905f5260205f2001819055506001808154811061019b5761019b6102f6565b5f91825260208220015560018054806101b6576101b661030a565b5f82815260208082205f19908401810183905590920190925560015460408051600580825260c08201909252919392820160a080368337505050505050565b6060600180548060200260200160405190810160405280929190818152602001828054801561024157602002820191905f5260205f20905b81548152602001906001019080831161022d575b5050505050905090565b6002818154811061025a575f80fd5b5f91825260209091200154905081565b60038160038110610279575f80fd5b0154905081565b5f818154811061025a575f80fd5b6001818154811061025a575f80fd5b602080825282518282018190525f918401906040840190835b818110156102d45783518352602093840193909201916001016102b6565b509095945050505050565b5f602082840312156102ef575f5ffd5b5035919050565b634e487b7160e01b5f52603260045260245ffd5b634e487b7160e01b5f52603160045260245ffdfea2646970667358221220b7b8a5699cda90fad0a4ed1b58eae6627267ba1f2541db4a1fe999398915b64264736f6c634300081d0033",
					"opcodes": "PUSH1 0x3 PUSH1 0x80 DUP2 DUP2 MSTORE PUSH2 0x100 PUSH1 0x40 MSTORE SWAP1 PUSH1 0xA0 PUSH1 0x60 DUP1 CALLDATASIZE DUP4 CALLDATACOPY POP POP DUP2 MLOAD PUSH2 0x29 SWAP3 PUSH0 SWAP3 POP PUSH1 0x20 ADD SWAP1 PUSH2 0x93 JUMP JUMPDEST POP PUSH1 0x40 DUP1 MLOAD PUSH1 0x60 DUP2 ADD DUP3 MSTORE PUSH1 0x1 DUP2 MSTORE PUSH1 0x2 PUSH1 0x20 DUP3 ADD DUP2 SWAP1 MSTORE PUSH1 0x3 SWAP3 DUP3 ADD DUP4 SWAP1 MSTORE PUSH2 0x55 SWAP3 SWAP1 SWAP2 SWAP1 PUSH2 0xDC JUMP JUMPDEST POP PUSH1 0x40 DUP1 MLOAD PUSH1 0x60 DUP2 ADD DUP3 MSTORE PUSH1 0x4 DUP2 MSTORE PUSH1 0x5 PUSH1 0x20 DUP3 ADD MSTORE PUSH1 0x6 SWAP2 DUP2 ADD SWAP2 SWAP1 SWAP2 MSTORE PUSH2 0x81 SWAP1 PUSH1 0x3 SWAP1 DUP2 PUSH2 0x11A JUMP JUMPDEST POP CALLVALUE DUP1 ISZERO PUSH2 0x8D JUMPI PUSH0 PUSH0 REVERT JUMPDEST POP PUSH2 0x160 JUMP JUMPDEST DUP3 DUP1 SLOAD DUP3 DUP3 SSTORE SWAP1 PUSH0 MSTORE PUSH1 0x20 PUSH0 KECCAK256 SWAP1 DUP2 ADD SWAP3 DUP3 ISZERO PUSH2 0xCC JUMPI SWAP2 PUSH1 0x20 MUL DUP3 ADD JUMPDEST DUP3 DUP2 GT ISZERO PUSH2 0xCC JUMPI DUP3 MLOAD DUP3 SSTORE SWAP2 PUSH1 0x20 ADD SWAP2 SWAP1 PUSH1 0x1 ADD SWAP1 PUSH2 0xB1 JUMP JUMPDEST POP PUSH2 0xD8 SWAP3 SWAP2 POP PUSH2 0x14C JUMP JUMPDEST POP SWAP1 JUMP JUMPDEST DUP3 DUP1 SLOAD DUP3 DUP3 SSTORE SWAP1 PUSH0 MSTORE PUSH1 0x20 PUSH0 KECCAK256 SWAP1 DUP2 ADD SWAP3 DUP3 ISZERO PUSH2 0xCC JUMPI SWAP2 PUSH1 0x20 MUL DUP3 ADD JUMPDEST DUP3 DUP2 GT ISZERO PUSH2 0xCC JUMPI DUP3 MLOAD DUP3 SWAP1 PUSH1 0xFF AND SWAP1 SSTORE SWAP2 PUSH1 0x20 ADD SWAP2 SWAP1 PUSH1 0x1 ADD SWAP1 PUSH2 0xFA JUMP JUMPDEST DUP3 PUSH1 0x3 DUP2 ADD SWAP3 DUP3 ISZERO PUSH2 0xCC JUMPI SWAP2 PUSH1 0x20 MUL DUP3 ADD DUP3 DUP2 GT ISZERO PUSH2 0xCC JUMPI DUP3 MLOAD DUP3 SWAP1 PUSH1 0xFF AND SWAP1 SSTORE SWAP2 PUSH1 0x20 ADD SWAP2 SWAP1 PUSH1 0x1 ADD SWAP1 PUSH2 0xFA JUMP JUMPDEST JUMPDEST DUP1 DUP3 GT ISZERO PUSH2 0xD8 JUMPI PUSH0 DUP2 SSTORE PUSH1 0x1 ADD PUSH2 0x14D JUMP JUMPDEST PUSH2 0x354 DUP1 PUSH2 0x16D PUSH0 CODECOPY PUSH0 RETURN INVALID PUSH1 0x80 PUSH1 0x40 MSTORE CALLVALUE DUP1 ISZERO PUSH2 0xF JUMPI PUSH0 PUSH0 REVERT JUMPDEST POP PUSH1 0x4 CALLDATASIZE LT PUSH2 0x60 JUMPI PUSH0 CALLDATALOAD PUSH1 0xE0 SHR DUP1 PUSH4 0x335D00C2 EQ PUSH2 0x64 JUMPI DUP1 PUSH4 0x3CAC14C8 EQ PUSH2 0x6E JUMPI DUP1 PUSH4 0x4766FB51 EQ PUSH2 0x8C JUMPI DUP1 PUSH4 0xCA50D1AD EQ PUSH2 0xAD JUMPI DUP1 PUSH4 0xCC3E57D9 EQ PUSH2 0xC0 JUMPI DUP1 PUSH4 0xFD1EE54C EQ PUSH2 0xD3 JUMPI JUMPDEST PUSH0 PUSH0 REVERT JUMPDEST PUSH2 0x6C PUSH2 0xE6 JUMP JUMPDEST STOP JUMPDEST PUSH2 0x76 PUSH2 0x1F5 JUMP JUMPDEST PUSH1 0x40 MLOAD PUSH2 0x83 SWAP2 SWAP1 PUSH2 0x29D JUMP JUMPDEST PUSH1 0x40 MLOAD DUP1 SWAP2 SUB SWAP1 RETURN JUMPDEST PUSH2 0x9F PUSH2 0x9A CALLDATASIZE PUSH1 0x4 PUSH2 0x2DF JUMP JUMPDEST PUSH2 0x24B JUMP JUMPDEST PUSH1 0x40 MLOAD SWAP1 DUP2 MSTORE PUSH1 0x20 ADD PUSH2 0x83 JUMP JUMPDEST PUSH2 0x9F PUSH2 0xBB CALLDATASIZE PUSH1 0x4 PUSH2 0x2DF JUMP JUMPDEST PUSH2 0x26A JUMP JUMPDEST PUSH2 0x9F PUSH2 0xCE CALLDATASIZE PUSH1 0x4 PUSH2 0x2DF JUMP JUMPDEST PUSH2 0x280 JUMP JUMPDEST PUSH2 0x9F PUSH2 0xE1 CALLDATASIZE PUSH1 0x4 PUSH2 0x2DF JUMP JUMPDEST PUSH2 0x28E JUMP JUMPDEST PUSH1 0x1 DUP1 SLOAD DUP1 DUP3 ADD DUP3 SSTORE PUSH0 DUP3 SWAP1 MSTORE PUSH1 0x4 PUSH32 0xB10E2D527612073B26EECDFD717E6A320CF44B4AFAC2B0732D9FCBE2B7FA0CF6 SWAP2 DUP3 ADD SSTORE DUP2 SLOAD DUP1 DUP4 ADD DUP4 SSTORE PUSH1 0x6 SWAP1 DUP3 ADD SSTORE DUP2 SLOAD DUP1 DUP4 ADD DUP4 SSTORE PUSH1 0x16 SWAP1 DUP3 ADD SSTORE DUP2 SLOAD DUP1 DUP4 ADD DUP4 SSTORE PUSH1 0x2E SWAP1 DUP3 ADD SSTORE DUP2 SLOAD DUP1 DUP4 ADD DUP4 SSTORE PUSH1 0x63 SWAP2 ADD SSTORE DUP1 SLOAD DUP2 SWAP1 DUP2 LT PUSH2 0x15F JUMPI PUSH2 0x15F PUSH2 0x2F6 JUMP JUMPDEST POP PUSH0 MSTORE PUSH1 0x1 DUP1 SLOAD PUSH2 0x309 SWAP2 SWAP1 PUSH1 0x2 SWAP1 DUP2 LT PUSH2 0x17C JUMPI PUSH2 0x17C PUSH2 0x2F6 JUMP JUMPDEST SWAP1 PUSH0 MSTORE PUSH1 0x20 PUSH0 KECCAK256 ADD DUP2 SWAP1 SSTORE POP PUSH1 0x1 DUP1 DUP2 SLOAD DUP2 LT PUSH2 0x19B JUMPI PUSH2 0x19B PUSH2 0x2F6 JUMP JUMPDEST PUSH0 SWAP2 DUP3 MSTORE PUSH1 0x20 DUP3 KECCAK256 ADD SSTORE PUSH1 0x1 DUP1 SLOAD DUP1 PUSH2 0x1B6 JUMPI PUSH2 0x1B6 PUSH2 0x30A JUMP JUMPDEST PUSH0 DUP3 DUP2 MSTORE PUSH1 0x20 DUP1 DUP3 KECCAK256 PUSH0 NOT SWAP1 DUP5 ADD DUP2 ADD DUP4 SWAP1 SSTORE SWAP1 SWAP3 ADD SWAP1 SWAP3 SSTORE PUSH1 0x1 SLOAD PUSH1 0x40 DUP1 MLOAD PUSH1 0x5 DUP1 DUP3 MSTORE PUSH1 0xC0 DUP3 ADD SWAP1 SWAP3 MSTORE SWAP2 SWAP4 SWAP3 DUP3 ADD PUSH1 0xA0 DUP1 CALLDATASIZE DUP4 CALLDATACOPY POP POP POP POP POP POP JUMP JUMPDEST PUSH1 0x60 PUSH1 0x1 DUP1 SLOAD DUP1 PUSH1 0x20 MUL PUSH1 0x20 ADD PUSH1 0x40 MLOAD SWAP1 DUP2 ADD PUSH1 0x40 MSTORE DUP1 SWAP3 SWAP2 SWAP1 DUP2 DUP2 MSTORE PUSH1 0x20 ADD DUP3 DUP1 SLOAD DUP1 ISZERO PUSH2 0x241 JUMPI PUSH1 0x20 MUL DUP3 ADD SWAP2 SWAP1 PUSH0 MSTORE PUSH1 0x20 PUSH0 KECCAK256 SWAP1 JUMPDEST DUP2 SLOAD DUP2 MSTORE PUSH1 0x20 ADD SWAP1 PUSH1 0x1 ADD SWAP1 DUP1 DUP4 GT PUSH2 0x22D JUMPI JUMPDEST POP POP POP POP POP SWAP1 POP SWAP1 JUMP JUMPDEST PUSH1 0x2 DUP2 DUP2 SLOAD DUP2 LT PUSH2 0x25A JUMPI PUSH0 DUP1 REVERT JUMPDEST PUSH0 SWAP2 DUP3 MSTORE PUSH1 0x20 SWAP1 SWAP2 KECCAK256 ADD SLOAD SWAP1 POP DUP2 JUMP JUMPDEST PUSH1 0x3 DUP2 PUSH1 0x3 DUP2 LT PUSH2 0x279 JUMPI PUSH0 DUP1 REVERT JUMPDEST ADD SLOAD SWAP1 POP DUP2 JUMP JUMPDEST PUSH0 DUP2 DUP2 SLOAD DUP2 LT PUSH2 0x25A JUMPI PUSH0 DUP1 REVERT JUMPDEST PUSH1 0x1 DUP2 DUP2 SLOAD DUP2 LT PUSH2 0x25A JUMPI PUSH0 DUP1 REVERT JUMPDEST PUSH1 0x20 DUP1 DUP3 MSTORE DUP3 MLOAD DUP3 DUP3 ADD DUP2 SWAP1 MSTORE PUSH0 SWAP2 DUP5 ADD SWAP1 PUSH1 0x40 DUP5 ADD SWAP1 DUP4 JUMPDEST DUP2 DUP2 LT ISZERO PUSH2 0x2D4 JUMPI DUP4 MLOAD DUP4 MSTORE PUSH1 0x20 SWAP4 DUP5 ADD SWAP4 SWAP1 SWAP3 ADD SWAP2 PUSH1 0x1 ADD PUSH2 0x2B6 JUMP JUMPDEST POP SWAP1 SWAP6 SWAP5 POP POP POP POP POP JUMP JUMPDEST PUSH0 PUSH1 0x20 DUP3 DUP5 SUB SLT ISZERO PUSH2 0x2EF JUMPI PUSH0 PUSH0 REVERT JUMPDEST POP CALLDATALOAD SWAP2 SWAP1 POP JUMP JUMPDEST PUSH4 0x4E487B71 PUSH1 0xE0 SHL PUSH0 MSTORE PUSH1 0x32 PUSH1 0x4 MSTORE PUSH1 0x24 PUSH0 REVERT JUMPDEST PUSH4 0x4E487B71 PUSH1 0xE0 SHL PUSH0 MSTORE PUSH1 0x31 PUSH1 0x4 MSTORE PUSH1 0x24 PUSH0 REVERT INVALID LOG2 PUSH5 0x6970667358 0x22 SLT KECCAK256 0xB7 0xB8 0xA5 PUSH10 0x9CDA90FAD0A4ED1B58EA DUPN 0x62 PUSH19 0x67BA1F2541DB4A1FE999398915B64264736F6C PUSH4 0x4300081D STOP CALLER "
				},
				"gasEstimates": {
					"creation": {
						"codeDepositCost": "170400",
						"executionCost": "infinite",
						"totalCost": "infinite"
					},
					"external": {
						"examples()": "296931",
						"myArray(uint256)": "4637",
						"nums(uint256)": "4660",
						"nums1(uint256)": "4594",
						"nums2(uint256)": "2460",
						"returnArray()": "infinite"
					}
				},
				"methodIdentifiers": {
					"examples()": "335d00c2",
					"myArray(uint256)": "cc3e57d9",
					"nums(uint256)": "fd1ee54c",
					"nums1(uint256)": "4766fb51",
					"nums2(uint256)": "ca50d1ad",
					"returnArray()": "3cac14c8"
				}
			},
			"storageLayout": {
				"storage": [
					{
						"astId": 9,
						"contract": "Array.sol:TestArray",
						"label": "myArray",
						"offset": 0,
						"slot": "0",
						"type": "t_array(t_uint256)dyn_storage"
					},
					{
						"astId": 12,
						"contract": "Array.sol:TestArray",
						"label": "nums",
						"offset": 0,
						"slot": "1",
						"type": "t_array(t_uint256)dyn_storage"
					},
					{
						"astId": 19,
						"contract": "Array.sol:TestArray",
						"label": "nums1",
						"offset": 0,
						"slot": "2",
						"type": "t_array(t_uint256)dyn_storage"
					},
					{
						"astId": 27,
						"contract": "Array.sol:TestArray",
						"label": "nums2",
						"offset": 0,
						"slot": "3",
						"type": "t_array(t_uint256)3_storage"
					}
				],
				"types": {
					"t_array(t_uint256)3_storage": {
						"base": "t_uint256",
						"encoding": "inplace",
						"label": "uint256[3]",
						"numberOfBytes": "96"
					},
					"t_array(t_uint256)dyn_storage": {
						"base": "t_uint256",
						"encoding": "dynamic_array",
						"label": "uint256[]",
						"numberOfBytes": "32"
					},
					"t_uint256": {
						"encoding": "inplace",
						"label": "uint256",
						"numberOfBytes": "32"
					}
				}
			},
			"userdoc": {
				"kind": "user",
				"methods": {},
				"version": 1
			}
		}
	}
}