{
	"DefaultVariables.sol": {
		"DefaultVariables": {
			"abi": [
				{
					"inputs": [],
					"name": "addr",
					"outputs": [
						{
							"internalType": "address",
							"name": "",
							"type": "address"
						}
					],
					"stateMutability": "view",
					"type": "function"
				},
				{
					"inputs": [],
					"name": "b",
					"outputs": [
						{
							"internalType": "bool",
							"name": "",
							"type": "bool"
						}
					],
					"stateMutability": "view",
					"type": "function"
				},
				{
					"inputs": [],
					"name": "b32",
					"outputs": [
						{
							"internalType": "bytes32",
							"name": "",
							"type": "bytes32"
						}
					],
					"stateMutability": "view",
					"type": "function"
				},
				{
					"inputs": [],
					"name": "i",
					"outputs": [
						{
							"internalType": "int256",
							"name": "",
							"type": "int256"
						}
					],
					"stateMutability": "view",
					"type": "function"
				},
				{
					"inputs": [],
					"name": "u",
					"outputs": [
						{
							"internalType": "uint256",
							"name": "",
							"type": "uint256"
						}
					],
					"stateMutability": "view",
					"type": "function"
				}
			],
			"devdoc": {
				"kind": "dev",
				"methods": {},
				"version": 1
			},
			"evm": {
				"assembly": "    /* \"DefaultVariables.sol\":60:331  contract DefaultVariables{... */\n  mstore(0x40, 0x80)\n  callvalue\n  dup1\n  iszero\n  tag_1\n  jumpi\n  revert(0x00, 0x00)\ntag_1:\n  pop\n  dataSize(sub_0)\n  dup1\n  dataOffset(sub_0)\n  0x00\n  codecopy\n  0x00\n  return\nstop\n\nsub_0: assembly {\n        /* \"DefaultVariables.sol\":60:331  contract DefaultVariables{... */\n      mstore(0x40, 0x80)\n      callvalue\n      dup1\n      iszero\n      tag_1\n      jumpi\n      revert(0x00, 0x00)\n    tag_1:\n      pop\n      jumpi(tag_2, lt(calldatasize, 0x04))\n      shr(0xe0, calldataload(0x00))\n      dup1\n      0x4df7e3d0\n      eq\n      tag_3\n      jumpi\n      dup1\n      0x767800de\n      eq\n      tag_4\n      jumpi\n      dup1\n      0xc6a898c5\n      eq\n      tag_5\n      jumpi\n      dup1\n      0xe5aa3d58\n      eq\n      tag_6\n      jumpi\n      dup1\n      0xf8aab238\n      eq\n      tag_7\n      jumpi\n    tag_2:\n      revert(0x00, 0x00)\n        /* \"DefaultVariables.sol\":92:105  bool public b */\n    tag_3:\n      sload(0x00)\n      tag_8\n      swap1\n      0xff\n      and\n      dup2\n      jump\n    tag_8:\n      mload(0x40)\n        /* \"#utility.yul\":179:193   */\n      swap1\n      iszero\n        /* \"#utility.yul\":172:194   */\n      iszero\n        /* \"#utility.yul\":154:195   */\n      dup2\n      mstore\n        /* \"#utility.yul\":142:144   */\n      0x20\n        /* \"#utility.yul\":127:145   */\n      add\n        /* \"DefaultVariables.sol\":92:105  bool public b */\n    tag_10:\n      mload(0x40)\n      dup1\n      swap2\n      sub\n      swap1\n      return\n        /* \"DefaultVariables.sol\":169:188  address public addr */\n    tag_4:\n      sload(0x03)\n      tag_12\n      swap1\n      sub(shl(0xa0, 0x01), 0x01)\n      and\n      dup2\n      jump\n    tag_12:\n      mload(0x40)\n      sub(shl(0xa0, 0x01), 0x01)\n        /* \"#utility.yul\":370:402   */\n      swap1\n      swap2\n      and\n        /* \"#utility.yul\":352:403   */\n      dup2\n      mstore\n        /* \"#utility.yul\":340:342   */\n      0x20\n        /* \"#utility.yul\":325:343   */\n      add\n        /* \"DefaultVariables.sol\":169:188  address public addr */\n      tag_10\n        /* \"#utility.yul\":206:409   */\n      jump\n        /* \"DefaultVariables.sol\":120:133  uint public u */\n    tag_5:\n      tag_16\n      sload(0x01)\n      dup2\n      jump\n    tag_16:\n      mload(0x40)\n        /* \"#utility.yul\":560:585   */\n      swap1\n      dup2\n      mstore\n        /* \"#utility.yul\":548:550   */\n      0x20\n        /* \"#utility.yul\":533:551   */\n      add\n        /* \"DefaultVariables.sol\":120:133  uint public u */\n      tag_10\n        /* \"#utility.yul\":414:591   */\n      jump\n        /* \"DefaultVariables.sol\":144:157  int public  i */\n    tag_6:\n      tag_16\n      sload(0x02)\n      dup2\n      jump\n        /* \"DefaultVariables.sol\":240:258  bytes32 public b32 */\n    tag_7:\n      tag_16\n      sload(0x04)\n      dup2\n      jump\n\n    auxdata: 0xa2646970667358221220ea058d4954c0138a2687bde3ada90798217815ca65b2a1b9823c8d2e03d7dfb164736f6c634300081d0033\n}\n",
				"bytecode": {
					"linkReferences": {},
					"object": "6080604052348015600e575f5ffd5b5060f68061001b5f395ff3fe6080604052348015600e575f5ffd5b5060043610604e575f3560e01c80634df7e3d0146052578063767800de146072578063c6a898c514609b578063e5aa3d581460b0578063f8aab2381460b8575b5f5ffd5b5f54605d9060ff1681565b60405190151581526020015b60405180910390f35b6003546084906001600160a01b031681565b6040516001600160a01b0390911681526020016069565b60a360015481565b6040519081526020016069565b60a360025481565b60a36004548156fea2646970667358221220ea058d4954c0138a2687bde3ada90798217815ca65b2a1b9823c8d2e03d7dfb164736f6c634300081d0033",
					"opcodes": "PUSH1 0x80 PUSH1 0x40 MSTORE CALLVALUE DUP1 ISZERO PUSH1 0xE JUMPI PUSH0 PUSH0 REVERT JUMPDEST POP PUSH1 0xF6 DUP1 PUSH2 0x1B PUSH0 CODECOPY PUSH0 RETURN INVALID PUSH1 0x80 PUSH1 0x40 MSTORE CALLVALUE DUP1 ISZERO PUSH1 0xE JUMPI PUSH0 PUSH0 REVERT JUMPDEST POP PUSH1 0x4 CALLDATASIZE LT PUSH1 0x4E JUMPI PUSH0 CALLDATALOAD PUSH1 0xE0 SHR DUP1 PUSH4 0x4DF7E3D0 EQ PUSH1 0x52 JUMPI DUP1 PUSH4 0x767800DE EQ PUSH1 0x72 JUMPI DUP1 PUSH4 0xC6A898C5 EQ PUSH1 0x9B JUMPI DUP1 PUSH4 0xE5AA3D58 EQ PUSH1 0xB0 JUMPI DUP1 PUSH4 0xF8AAB238 EQ PUSH1 0xB8 JUMPI JUMPDEST PUSH0 PUSH0 REVERT JUMPDEST PUSH0 SLOAD PUSH1 0x5D SWAP1 PUSH1 0xFF AND DUP2 JUMP JUMPDEST PUSH1 0x40 MLOAD SWAP1 ISZERO ISZERO DUP2 MSTORE PUSH1 0x20 ADD JUMPDEST PUSH1 0x40 MLOAD DUP1 SWAP2 SUB SWAP1 RETURN JUMPDEST PUSH1 0x3 SLOAD PUSH1 0x84 SWAP1 PUSH1 0x1 PUSH1 0x1 PUSH1 0xA0 SHL SUB AND DUP2 JUMP JUMPDEST PUSH1 0x40 MLOAD PUSH1 0x1 PUSH1 0x1 PUSH1 0xA0 SHL SUB SWAP1 SWAP2 AND DUP2 MSTORE PUSH1 0x20 ADD PUSH1 0x69 JUMP JUMPDEST PUSH1 0xA3 PUSH1 0x1 SLOAD DUP2 JUMP JUMPDEST PUSH1 0x40 MLOAD SWAP1 DUP2 MSTORE PUSH1 0x20 ADD PUSH1 0x69 JUMP JUMPDEST PUSH1 0xA3 PUSH1 0x2 SLOAD DUP2 JUMP JUMPDEST PUSH1 0xA3 PUSH1 0x4 SLOAD DUP2 JUMP INVALID LOG2 PUSH5 0x6970667358 0x22 SLT KECCAK256 0xEA SDIV DUP14 BLOBHASH SLOAD 0xC0 SGT DUP11 0x26 DUP8 0xBD CALLF 0xADA9 SMOD SWAP9 0x21 PUSH25 0x15CA65B2A1B9823C8D2E03D7DFB164736F6C634300081D0033 "
				},
				"gasEstimates": {
					"creation": {
						"codeDepositCost": "49200",
						"executionCost": "97",
						"totalCost": "49297"
					},
					"external": {
						"addr()": "2336",
						"b()": "2275",
						"b32()": "2360",
						"i()": "2338",
						"u()": "2316"
					}
				},
				"methodIdentifiers": {
					"addr()": "767800de",
					"b()": "4df7e3d0",
					"b32()": "f8aab238",
					"i()": "e5aa3d58",
					"u()": "c6a898c5"
				}
			},
			"storageLayout": {
				"storage": [
					{
						"astId": 3,
						"contract": "DefaultVariables.sol:DefaultVariables",
						"label": "b",
						"offset": 0,
						"slot": "0",
						"type": "t_bool"
					},
					{
						"astId": 5,
						"contract": "DefaultVariables.sol:DefaultVariables",
						"label": "u",
						"offset": 0,
						"slot": "1",
						"type": "t_uint256"
					},
					{
						"astId": 7,
						"contract": "DefaultVariables.sol:DefaultVariables",
						"label": "i",
						"offset": 0,
						"slot": "2",
						"type": "t_int256"
					},
					{
						"astId": 9,
						"contract": "DefaultVariables.sol:DefaultVariables",
						"label": "addr",
						"offset": 0,
						"slot": "3",
						"type": "t_address"
					},
					{
						"astId": 11,
						"contract": "DefaultVariables.sol:DefaultVariables",
						"label": "b32",
						"offset": 0,
						"slot": "4",
						"type": "t_bytes32"
					}
				],
				"types": {
					"t_address": {
						"encoding": "inplace",
						"label": "address",
						"numberOfBytes": "20"
					},
					"t_bool": {
						"encoding": "inplace",
						"label": "bool",
						"numberOfBytes": "1"
					},
					"t_bytes32": {
						"encoding": "inplace",
						"label": "bytes32",
						"numberOfBytes": "32"
					},
					"t_int256": {
						"encoding": "inplace",
						"label": "int256",
						"numberOfBytes": "32"
					},
					"t_uint256": {
						"encoding": "inplace",
						"label": "uint256",
						"numberOfBytes": "32"
					}
				}
			},
			"userdoc": {
				"kind": "user",
				"methods": {},
				"version": 1
			}
		}
	}
}