{
	"Call.sol": {
		"Call": {
			"abi": [
				{
					"inputs": [
						{
							"internalType": "address",
							"name": "_test",
							"type": "address"
						}
					],
					"name": "callFoo",
					"outputs": [],
					"stateMutability": "payable",
					"type": "function"
				},
				{
					"inputs": [
						{
							"internalType": "address",
							"name": "_test",
							"type": "address"
						}
					],
					"name": "callNotExist",
					"outputs": [],
					"stateMutability": "payable",
					"type": "function"
				},
				{
					"inputs": [],
					"name": "data",
					"outputs": [
						{
							"internalType": "bytes",
							"name": "",
							"type": "bytes"
						}
					],
					"stateMutability": "view",
					"type": "function"
				}
			],
			"devdoc": {
				"kind": "dev",
				"methods": {},
				"version": 1
			},
			"evm": {
				"assembly": "    /* \"Call.sol\":1069:1623  contract Call{... */\n  mstore(0x40, 0x80)\n  callvalue\n  dup1\n  iszero\n  tag_1\n  jumpi\n  revert(0x00, 0x00)\ntag_1:\n  pop\n  dataSize(sub_0)\n  dup1\n  dataOffset(sub_0)\n  0x00\n  codecopy\n  0x00\n  return\nstop\n\nsub_0: assembly {\n        /* \"Call.sol\":1069:1623  contract Call{... */\n      mstore(0x40, 0x80)\n      jumpi(tag_1, lt(calldatasize, 0x04))\n      shr(0xe0, calldataload(0x00))\n      dup1\n      0x6bc19a22\n      eq\n      tag_2\n      jumpi\n      dup1\n      0x73d4a13a\n      eq\n      tag_3\n      jumpi\n      dup1\n      0xedcbe76c\n      eq\n      tag_4\n      jumpi\n    tag_1:\n      revert(0x00, 0x00)\n        /* \"Call.sol\":1452:1620  function callNotExist(address _test) external payable {... */\n    tag_2:\n      tag_5\n      tag_6\n      calldatasize\n      0x04\n      tag_7\n      jump\t// in\n    tag_6:\n      tag_8\n      jump\t// in\n    tag_5:\n      stop\n        /* \"Call.sol\":1090:1107  bytes public data */\n    tag_3:\n      callvalue\n      dup1\n      iszero\n      tag_9\n      jumpi\n      revert(0x00, 0x00)\n    tag_9:\n      pop\n      tag_10\n      tag_11\n      jump\t// in\n    tag_10:\n      mload(0x40)\n      tag_12\n      swap2\n      swap1\n      tag_13\n      jump\t// in\n    tag_12:\n      mload(0x40)\n      dup1\n      swap2\n      sub\n      swap1\n      return\n        /* \"Call.sol\":1113:1445  function callFoo(address _test) external payable {... */\n    tag_4:\n      tag_5\n      tag_15\n      calldatasize\n      0x04\n      tag_7\n      jump\t// in\n    tag_15:\n      tag_16\n      jump\t// in\n        /* \"Call.sol\":1452:1620  function callNotExist(address _test) external payable {... */\n    tag_8:\n        /* \"Call.sol\":1542:1573  abi.encodeWithSignature(\"aa()\") */\n      0x40\n      dup1\n      mload\n      0x04\n      dup2\n      mstore\n      0x24\n      dup2\n      add\n      dup3\n      mstore\n      0x20\n      dup2\n      add\n      dup1\n      mload\n      sub(shl(0xe0, 0x01), 0x01)\n      and\n      shl(0xe1, 0x423361f3)\n      or\n      swap1\n      mstore\n        /* \"Call.sol\":1531:1574  _test.call(abi.encodeWithSignature(\"aa()\")) */\n      swap1\n      mload\n        /* \"Call.sol\":1515:1527  bool success */\n      0x00\n      swap2\n      sub(shl(0xa0, 0x01), 0x01)\n        /* \"Call.sol\":1531:1541  _test.call */\n      dup5\n      and\n      swap2\n        /* \"Call.sol\":1531:1574  _test.call(abi.encodeWithSignature(\"aa()\")) */\n      tag_18\n      swap2\n        /* \"Call.sol\":1542:1573  abi.encodeWithSignature(\"aa()\") */\n      swap1\n        /* \"Call.sol\":1531:1574  _test.call(abi.encodeWithSignature(\"aa()\")) */\n      tag_19\n      jump\t// in\n    tag_18:\n      0x00\n      mload(0x40)\n      dup1\n      dup4\n      sub\n      dup2\n      0x00\n      dup7\n      gas\n      call\n      swap2\n      pop\n      pop\n      returndatasize\n      dup1\n      0x00\n      dup2\n      eq\n      tag_22\n      jumpi\n      mload(0x40)\n      swap2\n      pop\n      and(add(returndatasize, 0x3f), not(0x1f))\n      dup3\n      add\n      0x40\n      mstore\n      returndatasize\n      dup3\n      mstore\n      returndatasize\n      0x00\n      0x20\n      dup5\n      add\n      returndatacopy\n      jump(tag_21)\n    tag_22:\n      0x60\n      swap2\n      pop\n    tag_21:\n      pop\n        /* \"Call.sol\":1514:1574  (bool success,)= _test.call(abi.encodeWithSignature(\"aa()\")) */\n      pop\n      swap1\n      pop\n        /* \"Call.sol\":1591:1598  success */\n      dup1\n        /* \"Call.sol\":1583:1613  require(success,\"call failed\") */\n      tag_23\n      jumpi\n      mload(0x40)\n      shl(0xe5, 0x461bcd)\n      dup2\n      mstore\n        /* \"#utility.yul\":1234:1236   */\n      0x20\n        /* \"Call.sol\":1583:1613  require(success,\"call failed\") */\n      0x04\n      dup3\n      add\n        /* \"#utility.yul\":1216:1237   */\n      mstore\n        /* \"#utility.yul\":1273:1275   */\n      0x0b\n        /* \"#utility.yul\":1253:1271   */\n      0x24\n      dup3\n      add\n        /* \"#utility.yul\":1246:1276   */\n      mstore\n      shl(0xaa, 0x18d85b1b0819985a5b1959)\n        /* \"#utility.yul\":1292:1310   */\n      0x44\n      dup3\n      add\n        /* \"#utility.yul\":1285:1326   */\n      mstore\n        /* \"#utility.yul\":1343:1361   */\n      0x64\n      add\n        /* \"Call.sol\":1583:1613  require(success,\"call failed\") */\n    tag_24:\n      mload(0x40)\n      dup1\n      swap2\n      sub\n      swap1\n      revert\n    tag_23:\n        /* \"Call.sol\":1506:1620  {... */\n      pop\n        /* \"Call.sol\":1452:1620  function callNotExist(address _test) external payable {... */\n      pop\n      jump\t// out\n        /* \"Call.sol\":1090:1107  bytes public data */\n    tag_11:\n      0x00\n      dup1\n      sload\n      tag_26\n      swap1\n      tag_27\n      jump\t// in\n    tag_26:\n      dup1\n      0x1f\n      add\n      0x20\n      dup1\n      swap2\n      div\n      mul\n      0x20\n      add\n      mload(0x40)\n      swap1\n      dup2\n      add\n      0x40\n      mstore\n      dup1\n      swap3\n      swap2\n      swap1\n      dup2\n      dup2\n      mstore\n      0x20\n      add\n      dup3\n      dup1\n      sload\n      tag_28\n      swap1\n      tag_27\n      jump\t// in\n    tag_28:\n      dup1\n      iszero\n      tag_29\n      jumpi\n      dup1\n      0x1f\n      lt\n      tag_30\n      jumpi\n      0x0100\n      dup1\n      dup4\n      sload\n      div\n      mul\n      dup4\n      mstore\n      swap2\n      0x20\n      add\n      swap2\n      jump(tag_29)\n    tag_30:\n      dup3\n      add\n      swap2\n      swap1\n      0x00\n      mstore\n      keccak256(0x00, 0x20)\n      swap1\n    tag_31:\n      dup2\n      sload\n      dup2\n      mstore\n      swap1\n      0x01\n      add\n      swap1\n      0x20\n      add\n      dup1\n      dup4\n      gt\n      tag_31\n      jumpi\n      dup3\n      swap1\n      sub\n      0x1f\n      and\n      dup3\n      add\n      swap2\n    tag_29:\n      pop\n      pop\n      pop\n      pop\n      pop\n      dup2\n      jump\t// out\n        /* \"Call.sol\":1113:1445  function callFoo(address _test) external payable {... */\n    tag_16:\n        /* \"Call.sol\":1317:1379  abi.encodeWithSignature(\"foo(string,uint256)\", \"call foo\",123) */\n      0x40\n      dup1\n      mload\n      0x24\n      dup2\n      add\n        /* \"#utility.yul\":1977:1998   */\n      swap2\n      swap1\n      swap2\n      mstore\n        /* \"#utility.yul\":2034:2035   */\n      0x08\n        /* \"#utility.yul\":2014:2032   */\n      0x64\n      dup3\n      add\n        /* \"#utility.yul\":2007:2036   */\n      mstore\n      shl(0xc0, 0x63616c6c20666f6f)\n        /* \"#utility.yul\":2052:2070   */\n      0x84\n      dup3\n      add\n        /* \"#utility.yul\":2045:2083   */\n      mstore\n        /* \"Call.sol\":1375:1378  123 */\n      0x7b\n        /* \"#utility.yul\":2135:2155   */\n      0x44\n      dup3\n      add\n        /* \"#utility.yul\":2128:2175   */\n      mstore\n        /* \"Call.sol\":1261:1273  bool success */\n      0x00\n      swap1\n      dup2\n      swap1\n      sub(shl(0xa0, 0x01), 0x01)\n        /* \"Call.sol\":1295:1305  _test.call */\n      dup5\n      and\n      swap1\n        /* \"Call.sol\":1312:1315  111 */\n      0x6f\n      swap1\n        /* \"#utility.yul\":2100:2119   */\n      0xa4\n      add\n        /* \"Call.sol\":1317:1379  abi.encodeWithSignature(\"foo(string,uint256)\", \"call foo\",123) */\n      0x40\n      dup1\n      mload\n      not(0x1f)\n      dup2\n      dup5\n      sub\n      add\n      dup2\n      mstore\n      swap2\n      dup2\n      mstore\n      0x20\n      dup3\n      add\n      dup1\n      mload\n      sub(shl(0xe0, 0x01), 0x01)\n      and\n      shl(0xe0, 0x24ccab8f)\n      or\n      swap1\n      mstore\n        /* \"Call.sol\":1295:1380  _test.call{value:111}(abi.encodeWithSignature(\"foo(string,uint256)\", \"call foo\",123)) */\n      mload\n      tag_35\n      swap2\n        /* \"Call.sol\":1317:1379  abi.encodeWithSignature(\"foo(string,uint256)\", \"call foo\",123) */\n      swap1\n        /* \"Call.sol\":1295:1380  _test.call{value:111}(abi.encodeWithSignature(\"foo(string,uint256)\", \"call foo\",123)) */\n      tag_19\n      jump\t// in\n    tag_35:\n      0x00\n      mload(0x40)\n      dup1\n      dup4\n      sub\n      dup2\n      dup6\n      dup8\n      gas\n      call\n      swap3\n      pop\n      pop\n      pop\n      returndatasize\n      dup1\n      0x00\n      dup2\n      eq\n      tag_38\n      jumpi\n      mload(0x40)\n      swap2\n      pop\n      and(add(returndatasize, 0x3f), not(0x1f))\n      dup3\n      add\n      0x40\n      mstore\n      returndatasize\n      dup3\n      mstore\n      returndatasize\n      0x00\n      0x20\n      dup5\n      add\n      returndatacopy\n      jump(tag_37)\n    tag_38:\n      0x60\n      swap2\n      pop\n    tag_37:\n      pop\n        /* \"Call.sol\":1260:1380  (bool success,bytes memory _data)= _test.call{value:111}(abi.encodeWithSignature(\"foo(string,uint256)\", \"call foo\",123)) */\n      swap2\n      pop\n      swap2\n      pop\n        /* \"Call.sol\":1397:1404  success */\n      dup2\n        /* \"Call.sol\":1389:1419  require(success,\"call failed\") */\n      tag_39\n      jumpi\n      mload(0x40)\n      shl(0xe5, 0x461bcd)\n      dup2\n      mstore\n        /* \"#utility.yul\":1234:1236   */\n      0x20\n        /* \"Call.sol\":1389:1419  require(success,\"call failed\") */\n      0x04\n      dup3\n      add\n        /* \"#utility.yul\":1216:1237   */\n      mstore\n        /* \"#utility.yul\":1273:1275   */\n      0x0b\n        /* \"#utility.yul\":1253:1271   */\n      0x24\n      dup3\n      add\n        /* \"#utility.yul\":1246:1276   */\n      mstore\n      shl(0xaa, 0x18d85b1b0819985a5b1959)\n        /* \"#utility.yul\":1292:1310   */\n      0x44\n      dup3\n      add\n        /* \"#utility.yul\":1285:1326   */\n      mstore\n        /* \"#utility.yul\":1343:1361   */\n      0x64\n      add\n        /* \"Call.sol\":1389:1419  require(success,\"call failed\") */\n      tag_24\n        /* \"#utility.yul\":1032:1367   */\n      jump\n        /* \"Call.sol\":1389:1419  require(success,\"call failed\") */\n    tag_39:\n        /* \"Call.sol\":1428:1432  data */\n      0x00\n        /* \"Call.sol\":1428:1438  data=_data */\n      tag_41\n        /* \"Call.sol\":1433:1438  _data */\n      dup3\n        /* \"Call.sol\":1428:1432  data */\n      dup3\n        /* \"Call.sol\":1428:1438  data=_data */\n      tag_42\n      jump\t// in\n    tag_41:\n      pop\n        /* \"Call.sol\":1162:1445  {... */\n      pop\n      pop\n        /* \"Call.sol\":1113:1445  function callFoo(address _test) external payable {... */\n      pop\n      jump\t// out\n        /* \"#utility.yul\":14:300   */\n    tag_7:\n        /* \"#utility.yul\":73:79   */\n      0x00\n        /* \"#utility.yul\":126:128   */\n      0x20\n        /* \"#utility.yul\":114:123   */\n      dup3\n        /* \"#utility.yul\":105:112   */\n      dup5\n        /* \"#utility.yul\":101:124   */\n      sub\n        /* \"#utility.yul\":97:129   */\n      slt\n        /* \"#utility.yul\":94:146   */\n      iszero\n      tag_49\n      jumpi\n        /* \"#utility.yul\":142:143   */\n      0x00\n        /* \"#utility.yul\":139:140   */\n      0x00\n        /* \"#utility.yul\":132:144   */\n      revert\n        /* \"#utility.yul\":94:146   */\n    tag_49:\n        /* \"#utility.yul\":168:191   */\n      dup2\n      calldataload\n      sub(shl(0xa0, 0x01), 0x01)\n        /* \"#utility.yul\":220:251   */\n      dup2\n      and\n        /* \"#utility.yul\":210:252   */\n      dup2\n      eq\n        /* \"#utility.yul\":200:270   */\n      tag_50\n      jumpi\n        /* \"#utility.yul\":266:267   */\n      0x00\n        /* \"#utility.yul\":263:264   */\n      0x00\n        /* \"#utility.yul\":256:268   */\n      revert\n        /* \"#utility.yul\":200:270   */\n    tag_50:\n        /* \"#utility.yul\":289:294   */\n      swap4\n        /* \"#utility.yul\":14:300   */\n      swap3\n      pop\n      pop\n      pop\n      jump\t// out\n        /* \"#utility.yul\":305:721   */\n    tag_13:\n        /* \"#utility.yul\":452:454   */\n      0x20\n        /* \"#utility.yul\":441:450   */\n      dup2\n        /* \"#utility.yul\":434:455   */\n      mstore\n        /* \"#utility.yul\":415:419   */\n      0x00\n        /* \"#utility.yul\":484:490   */\n      dup3\n        /* \"#utility.yul\":478:491   */\n      mload\n        /* \"#utility.yul\":527:533   */\n      dup1\n        /* \"#utility.yul\":522:524   */\n      0x20\n        /* \"#utility.yul\":511:520   */\n      dup5\n        /* \"#utility.yul\":507:525   */\n      add\n        /* \"#utility.yul\":500:534   */\n      mstore\n        /* \"#utility.yul\":586:592   */\n      dup1\n        /* \"#utility.yul\":581:583   */\n      0x20\n        /* \"#utility.yul\":573:579   */\n      dup6\n        /* \"#utility.yul\":569:584   */\n      add\n        /* \"#utility.yul\":564:566   */\n      0x40\n        /* \"#utility.yul\":553:562   */\n      dup6\n        /* \"#utility.yul\":549:567   */\n      add\n        /* \"#utility.yul\":543:593   */\n      mcopy\n        /* \"#utility.yul\":642:643   */\n      0x00\n        /* \"#utility.yul\":637:639   */\n      0x40\n        /* \"#utility.yul\":628:634   */\n      dup3\n        /* \"#utility.yul\":617:626   */\n      dup6\n        /* \"#utility.yul\":613:635   */\n      add\n        /* \"#utility.yul\":609:640   */\n      add\n        /* \"#utility.yul\":602:644   */\n      mstore\n        /* \"#utility.yul\":712:714   */\n      0x40\n        /* \"#utility.yul\":705:707   */\n      0x1f\n        /* \"#utility.yul\":701:708   */\n      not\n        /* \"#utility.yul\":696:698   */\n      0x1f\n        /* \"#utility.yul\":688:694   */\n      dup4\n        /* \"#utility.yul\":684:699   */\n      add\n        /* \"#utility.yul\":680:709   */\n      and\n        /* \"#utility.yul\":669:678   */\n      dup5\n        /* \"#utility.yul\":665:710   */\n      add\n        /* \"#utility.yul\":661:715   */\n      add\n        /* \"#utility.yul\":653:715   */\n      swap2\n      pop\n      pop\n        /* \"#utility.yul\":305:721   */\n      swap3\n      swap2\n      pop\n      pop\n      jump\t// out\n        /* \"#utility.yul\":726:1027   */\n    tag_19:\n        /* \"#utility.yul\":855:858   */\n      0x00\n        /* \"#utility.yul\":893:899   */\n      dup3\n        /* \"#utility.yul\":887:900   */\n      mload\n        /* \"#utility.yul\":939:945   */\n      dup1\n        /* \"#utility.yul\":932:936   */\n      0x20\n        /* \"#utility.yul\":924:930   */\n      dup6\n        /* \"#utility.yul\":920:937   */\n      add\n        /* \"#utility.yul\":915:918   */\n      dup5\n        /* \"#utility.yul\":909:946   */\n      mcopy\n        /* \"#utility.yul\":1001:1002   */\n      0x00\n        /* \"#utility.yul\":965:981   */\n      swap3\n      add\n        /* \"#utility.yul\":990:1003   */\n      swap2\n      dup3\n      mstore\n      pop\n        /* \"#utility.yul\":965:981   */\n      swap2\n        /* \"#utility.yul\":726:1027   */\n      swap1\n      pop\n      jump\t// out\n        /* \"#utility.yul\":1372:1752   */\n    tag_27:\n        /* \"#utility.yul\":1451:1452   */\n      0x01\n        /* \"#utility.yul\":1447:1459   */\n      dup2\n      dup2\n      shr\n      swap1\n        /* \"#utility.yul\":1494:1506   */\n      dup3\n      and\n      dup1\n        /* \"#utility.yul\":1515:1576   */\n      tag_55\n      jumpi\n        /* \"#utility.yul\":1569:1573   */\n      0x7f\n        /* \"#utility.yul\":1561:1567   */\n      dup3\n        /* \"#utility.yul\":1557:1574   */\n      and\n        /* \"#utility.yul\":1547:1574   */\n      swap2\n      pop\n        /* \"#utility.yul\":1515:1576   */\n    tag_55:\n        /* \"#utility.yul\":1622:1624   */\n      0x20\n        /* \"#utility.yul\":1614:1620   */\n      dup3\n        /* \"#utility.yul\":1611:1625   */\n      lt\n        /* \"#utility.yul\":1591:1609   */\n      dup2\n        /* \"#utility.yul\":1588:1626   */\n      sub\n        /* \"#utility.yul\":1585:1746   */\n      tag_56\n      jumpi\n        /* \"#utility.yul\":1668:1678   */\n      0x4e487b71\n        /* \"#utility.yul\":1663:1666   */\n      0xe0\n        /* \"#utility.yul\":1659:1679   */\n      shl\n        /* \"#utility.yul\":1656:1657   */\n      0x00\n        /* \"#utility.yul\":1649:1680   */\n      mstore\n        /* \"#utility.yul\":1703:1707   */\n      0x22\n        /* \"#utility.yul\":1700:1701   */\n      0x04\n        /* \"#utility.yul\":1693:1708   */\n      mstore\n        /* \"#utility.yul\":1731:1735   */\n      0x24\n        /* \"#utility.yul\":1728:1729   */\n      0x00\n        /* \"#utility.yul\":1721:1736   */\n      revert\n        /* \"#utility.yul\":1585:1746   */\n    tag_56:\n      pop\n        /* \"#utility.yul\":1372:1752   */\n      swap2\n      swap1\n      pop\n      jump\t// out\n        /* \"#utility.yul\":2186:2313   */\n    tag_43:\n        /* \"#utility.yul\":2247:2257   */\n      0x4e487b71\n        /* \"#utility.yul\":2242:2245   */\n      0xe0\n        /* \"#utility.yul\":2238:2258   */\n      shl\n        /* \"#utility.yul\":2235:2236   */\n      0x00\n        /* \"#utility.yul\":2228:2259   */\n      mstore\n        /* \"#utility.yul\":2278:2282   */\n      0x41\n        /* \"#utility.yul\":2275:2276   */\n      0x04\n        /* \"#utility.yul\":2268:2283   */\n      mstore\n        /* \"#utility.yul\":2302:2306   */\n      0x24\n        /* \"#utility.yul\":2299:2300   */\n      0x00\n        /* \"#utility.yul\":2292:2307   */\n      revert\n        /* \"#utility.yul\":2443:2960   */\n    tag_45:\n        /* \"#utility.yul\":2544:2546   */\n      0x1f\n        /* \"#utility.yul\":2539:2542   */\n      dup3\n        /* \"#utility.yul\":2536:2547   */\n      gt\n        /* \"#utility.yul\":2533:2954   */\n      iszero\n      tag_61\n      jumpi\n        /* \"#utility.yul\":2580:2585   */\n      dup1\n        /* \"#utility.yul\":2577:2578   */\n      0x00\n        /* \"#utility.yul\":2570:2586   */\n      mstore\n        /* \"#utility.yul\":2624:2628   */\n      0x20\n        /* \"#utility.yul\":2621:2622   */\n      0x00\n        /* \"#utility.yul\":2611:2629   */\n      keccak256\n        /* \"#utility.yul\":2694:2696   */\n      0x1f\n        /* \"#utility.yul\":2682:2692   */\n      dup5\n        /* \"#utility.yul\":2678:2697   */\n      add\n        /* \"#utility.yul\":2675:2676   */\n      0x05\n        /* \"#utility.yul\":2671:2698   */\n      shr\n        /* \"#utility.yul\":2665:2669   */\n      dup2\n        /* \"#utility.yul\":2661:2699   */\n      add\n        /* \"#utility.yul\":2730:2734   */\n      0x20\n        /* \"#utility.yul\":2718:2728   */\n      dup6\n        /* \"#utility.yul\":2715:2735   */\n      lt\n        /* \"#utility.yul\":2712:2759   */\n      iszero\n      tag_62\n      jumpi\n      pop\n        /* \"#utility.yul\":2753:2757   */\n      dup1\n        /* \"#utility.yul\":2712:2759   */\n    tag_62:\n        /* \"#utility.yul\":2808:2810   */\n      0x1f\n        /* \"#utility.yul\":2803:2806   */\n      dup5\n        /* \"#utility.yul\":2799:2811   */\n      add\n        /* \"#utility.yul\":2796:2797   */\n      0x05\n        /* \"#utility.yul\":2792:2812   */\n      shr\n        /* \"#utility.yul\":2786:2790   */\n      dup3\n        /* \"#utility.yul\":2782:2813   */\n      add\n        /* \"#utility.yul\":2772:2813   */\n      swap2\n      pop\n        /* \"#utility.yul\":2863:2944   */\n    tag_63:\n        /* \"#utility.yul\":2881:2883   */\n      dup2\n        /* \"#utility.yul\":2874:2879   */\n      dup2\n        /* \"#utility.yul\":2871:2884   */\n      lt\n        /* \"#utility.yul\":2863:2944   */\n      iszero\n      tag_65\n      jumpi\n        /* \"#utility.yul\":2940:2941   */\n      0x00\n        /* \"#utility.yul\":2926:2942   */\n      dup2\n      sstore\n        /* \"#utility.yul\":2907:2908   */\n      0x01\n        /* \"#utility.yul\":2896:2909   */\n      add\n        /* \"#utility.yul\":2863:2944   */\n      jump(tag_63)\n    tag_65:\n        /* \"#utility.yul\":2867:2870   */\n      pop\n      pop\n        /* \"#utility.yul\":2533:2954   */\n    tag_61:\n        /* \"#utility.yul\":2443:2960   */\n      pop\n      pop\n      pop\n      jump\t// out\n        /* \"#utility.yul\":3136:4431   */\n    tag_42:\n        /* \"#utility.yul\":3260:3263   */\n      dup2\n        /* \"#utility.yul\":3254:3264   */\n      mload\n        /* \"#utility.yul\":3287:3305   */\n      0xffffffffffffffff\n        /* \"#utility.yul\":3279:3285   */\n      dup2\n        /* \"#utility.yul\":3276:3306   */\n      gt\n        /* \"#utility.yul\":3273:3329   */\n      iszero\n      tag_69\n      jumpi\n        /* \"#utility.yul\":3309:3327   */\n      tag_69\n      tag_43\n      jump\t// in\n    tag_69:\n        /* \"#utility.yul\":3338:3434   */\n      tag_70\n        /* \"#utility.yul\":3427:3433   */\n      dup2\n        /* \"#utility.yul\":3387:3425   */\n      tag_71\n        /* \"#utility.yul\":3419:3423   */\n      dup5\n        /* \"#utility.yul\":3413:3424   */\n      sload\n        /* \"#utility.yul\":3387:3425   */\n      tag_27\n      jump\t// in\n    tag_71:\n        /* \"#utility.yul\":3381:3385   */\n      dup5\n        /* \"#utility.yul\":3338:3434   */\n      tag_45\n      jump\t// in\n    tag_70:\n        /* \"#utility.yul\":3483:3487   */\n      0x20\n        /* \"#utility.yul\":3514:3516   */\n      0x1f\n        /* \"#utility.yul\":3503:3517   */\n      dup3\n      gt\n        /* \"#utility.yul\":3531:3532   */\n      0x01\n        /* \"#utility.yul\":3526:4174   */\n      dup2\n      eq\n      tag_73\n      jumpi\n        /* \"#utility.yul\":4218:4219   */\n      0x00\n        /* \"#utility.yul\":4235:4241   */\n      dup4\n        /* \"#utility.yul\":4232:4321   */\n      iszero\n      tag_74\n      jumpi\n      pop\n        /* \"#utility.yul\":4287:4306   */\n      dup5\n      dup3\n      add\n        /* \"#utility.yul\":4281:4307   */\n      mload\n        /* \"#utility.yul\":4232:4321   */\n    tag_74:\n      not(0x00)\n        /* \"#utility.yul\":3093:3094   */\n      0x03\n        /* \"#utility.yul\":3089:3100   */\n      dup6\n      swap1\n      shl\n        /* \"#utility.yul\":3085:3109   */\n      shr\n        /* \"#utility.yul\":3081:3110   */\n      not\n        /* \"#utility.yul\":3071:3111   */\n      and\n        /* \"#utility.yul\":3117:3118   */\n      0x01\n        /* \"#utility.yul\":3113:3124   */\n      dup5\n      swap1\n      shl\n        /* \"#utility.yul\":3068:3125   */\n      or\n        /* \"#utility.yul\":4334:4415   */\n      dup5\n      sstore\n        /* \"#utility.yul\":3496:4425   */\n      jump(tag_65)\n        /* \"#utility.yul\":3526:4174   */\n    tag_73:\n        /* \"#utility.yul\":2390:2391   */\n      0x00\n        /* \"#utility.yul\":2383:2397   */\n      dup5\n      dup2\n      mstore\n        /* \"#utility.yul\":2427:2431   */\n      0x20\n        /* \"#utility.yul\":2414:2432   */\n      dup2\n      keccak256\n      not(0x1f)\n        /* \"#utility.yul\":3562:3582   */\n      dup6\n      and\n      swap2\n        /* \"#utility.yul\":3679:3901   */\n    tag_77:\n        /* \"#utility.yul\":3693:3700   */\n      dup3\n        /* \"#utility.yul\":3690:3691   */\n      dup2\n        /* \"#utility.yul\":3687:3701   */\n      lt\n        /* \"#utility.yul\":3679:3901   */\n      iszero\n      tag_79\n      jumpi\n        /* \"#utility.yul\":3775:3794   */\n      dup8\n      dup6\n      add\n        /* \"#utility.yul\":3769:3795   */\n      mload\n        /* \"#utility.yul\":3754:3796   */\n      dup3\n      sstore\n        /* \"#utility.yul\":3882:3886   */\n      0x20\n        /* \"#utility.yul\":3867:3887   */\n      swap5\n      dup6\n      add\n      swap5\n        /* \"#utility.yul\":3835:3836   */\n      0x01\n        /* \"#utility.yul\":3823:3837   */\n      swap1\n      swap3\n      add\n      swap2\n        /* \"#utility.yul\":3709:3721   */\n      add\n        /* \"#utility.yul\":3679:3901   */\n      jump(tag_77)\n    tag_79:\n        /* \"#utility.yul\":3683:3686   */\n      pop\n        /* \"#utility.yul\":3929:3935   */\n      dup5\n        /* \"#utility.yul\":3920:3927   */\n      dup3\n        /* \"#utility.yul\":3917:3936   */\n      lt\n        /* \"#utility.yul\":3914:4115   */\n      iszero\n      tag_80\n      jumpi\n        /* \"#utility.yul\":3990:4009   */\n      dup7\n      dup5\n      add\n        /* \"#utility.yul\":3984:4010   */\n      mload\n      not(0x00)\n        /* \"#utility.yul\":4073:4074   */\n      0x03\n        /* \"#utility.yul\":4069:4083   */\n      dup8\n      swap1\n      shl\n        /* \"#utility.yul\":4085:4088   */\n      0xf8\n        /* \"#utility.yul\":4065:4089   */\n      and\n        /* \"#utility.yul\":4061:4098   */\n      shr\n        /* \"#utility.yul\":4057:4099   */\n      not\n        /* \"#utility.yul\":4042:4100   */\n      and\n        /* \"#utility.yul\":4027:4101   */\n      dup2\n      sstore\n        /* \"#utility.yul\":3914:4115   */\n    tag_80:\n      pop\n      pop\n      pop\n      pop\n        /* \"#utility.yul\":4161:4162   */\n      0x01\n        /* \"#utility.yul\":4145:4159   */\n      swap1\n      dup2\n      shl\n        /* \"#utility.yul\":4141:4163   */\n      add\n        /* \"#utility.yul\":4128:4164   */\n      swap1\n      sstore\n      pop\n        /* \"#utility.yul\":3136:4431   */\n      jump\t// out\n\n    auxdata: 0xa26469706673582212201f05067f7405784435185b133bc3bfb448dcf49d78c0d536ef47ab7e3deb4dff64736f6c634300081d0033\n}\n",
				"bytecode": {
					"linkReferences": {},
					"object": "6080604052348015600e575f5ffd5b506104e18061001c5f395ff3fe608060405260043610610033575f3560e01c80636bc19a221461003757806373d4a13a1461004c578063edcbe76c14610076575b5f5ffd5b61004a6100453660046102e0565b610089565b005b348015610057575f5ffd5b50610060610150565b60405161006d919061030d565b60405180910390f35b61004a6100843660046102e0565b6101db565b60408051600481526024810182526020810180516001600160e01b031663423361f360e11b17905290515f916001600160a01b038416916100ca9190610342565b5f604051808303815f865af19150503d805f8114610103576040519150601f19603f3d011682016040523d82523d5f602084013e610108565b606091505b505090508061014c5760405162461bcd60e51b815260206004820152600b60248201526a18d85b1b0819985a5b195960aa1b60448201526064015b60405180910390fd5b5050565b5f805461015c90610358565b80601f016020809104026020016040519081016040528092919081815260200182805461018890610358565b80156101d35780601f106101aa576101008083540402835291602001916101d3565b820191905f5260205f20905b8154815290600101906020018083116101b657829003601f168201915b505050505081565b604080516024810191909152600860648201526763616c6c20666f6f60c01b6084820152607b60448201525f9081906001600160a01b03841690606f9060a40160408051601f198184030181529181526020820180516001600160e01b03166324ccab8f60e01b179052516102509190610342565b5f6040518083038185875af1925050503d805f811461028a576040519150601f19603f3d011682016040523d82523d5f602084013e61028f565b606091505b5091509150816102cf5760405162461bcd60e51b815260206004820152600b60248201526a18d85b1b0819985a5b195960aa1b6044820152606401610143565b5f6102da82826103f0565b50505050565b5f602082840312156102f0575f5ffd5b81356001600160a01b0381168114610306575f5ffd5b9392505050565b602081525f82518060208401528060208501604085015e5f604082850101526040601f19601f83011684010191505092915050565b5f82518060208501845e5f920191825250919050565b600181811c9082168061036c57607f821691505b60208210810361038a57634e487b7160e01b5f52602260045260245ffd5b50919050565b634e487b7160e01b5f52604160045260245ffd5b601f8211156103eb57805f5260205f20601f840160051c810160208510156103c95750805b601f840160051c820191505b818110156103e8575f81556001016103d5565b50505b505050565b815167ffffffffffffffff81111561040a5761040a610390565b61041e816104188454610358565b846103a4565b6020601f821160018114610450575f83156104395750848201515b5f19600385901b1c1916600184901b1784556103e8565b5f84815260208120601f198516915b8281101561047f578785015182556020948501946001909201910161045f565b508482101561049c57868401515f19600387901b60f8161c191681555b50505050600190811b0190555056fea26469706673582212201f05067f7405784435185b133bc3bfb448dcf49d78c0d536ef47ab7e3deb4dff64736f6c634300081d0033",
					"opcodes": "PUSH1 0x80 PUSH1 0x40 MSTORE CALLVALUE DUP1 ISZERO PUSH1 0xE JUMPI PUSH0 PUSH0 REVERT JUMPDEST POP PUSH2 0x4E1 DUP1 PUSH2 0x1C PUSH0 CODECOPY PUSH0 RETURN INVALID PUSH1 0x80 PUSH1 0x40 MSTORE PUSH1 0x4 CALLDATASIZE LT PUSH2 0x33 JUMPI PUSH0 CALLDATALOAD PUSH1 0xE0 SHR DUP1 PUSH4 0x6BC19A22 EQ PUSH2 0x37 JUMPI DUP1 PUSH4 0x73D4A13A EQ PUSH2 0x4C JUMPI DUP1 PUSH4 0xEDCBE76C EQ PUSH2 0x76 JUMPI JUMPDEST PUSH0 PUSH0 REVERT JUMPDEST PUSH2 0x4A PUSH2 0x45 CALLDATASIZE PUSH1 0x4 PUSH2 0x2E0 JUMP JUMPDEST PUSH2 0x89 JUMP JUMPDEST STOP JUMPDEST CALLVALUE DUP1 ISZERO PUSH2 0x57 JUMPI PUSH0 PUSH0 REVERT JUMPDEST POP PUSH2 0x60 PUSH2 0x150 JUMP JUMPDEST PUSH1 0x40 MLOAD PUSH2 0x6D SWAP2 SWAP1 PUSH2 0x30D JUMP JUMPDEST PUSH1 0x40 MLOAD DUP1 SWAP2 SUB SWAP1 RETURN JUMPDEST PUSH2 0x4A PUSH2 0x84 CALLDATASIZE PUSH1 0x4 PUSH2 0x2E0 JUMP JUMPDEST PUSH2 0x1DB JUMP JUMPDEST PUSH1 0x40 DUP1 MLOAD PUSH1 0x4 DUP2 MSTORE PUSH1 0x24 DUP2 ADD DUP3 MSTORE PUSH1 0x20 DUP2 ADD DUP1 MLOAD PUSH1 0x1 PUSH1 0x1 PUSH1 0xE0 SHL SUB AND PUSH4 0x423361F3 PUSH1 0xE1 SHL OR SWAP1 MSTORE SWAP1 MLOAD PUSH0 SWAP2 PUSH1 0x1 PUSH1 0x1 PUSH1 0xA0 SHL SUB DUP5 AND SWAP2 PUSH2 0xCA SWAP2 SWAP1 PUSH2 0x342 JUMP JUMPDEST PUSH0 PUSH1 0x40 MLOAD DUP1 DUP4 SUB DUP2 PUSH0 DUP7 GAS CALL SWAP2 POP POP RETURNDATASIZE DUP1 PUSH0 DUP2 EQ PUSH2 0x103 JUMPI PUSH1 0x40 MLOAD SWAP2 POP PUSH1 0x1F NOT PUSH1 0x3F RETURNDATASIZE ADD AND DUP3 ADD PUSH1 0x40 MSTORE RETURNDATASIZE DUP3 MSTORE RETURNDATASIZE PUSH0 PUSH1 0x20 DUP5 ADD RETURNDATACOPY PUSH2 0x108 JUMP JUMPDEST PUSH1 0x60 SWAP2 POP JUMPDEST POP POP SWAP1 POP DUP1 PUSH2 0x14C JUMPI PUSH1 0x40 MLOAD PUSH3 0x461BCD PUSH1 0xE5 SHL DUP2 MSTORE PUSH1 0x20 PUSH1 0x4 DUP3 ADD MSTORE PUSH1 0xB PUSH1 0x24 DUP3 ADD MSTORE PUSH11 0x18D85B1B0819985A5B1959 PUSH1 0xAA SHL PUSH1 0x44 DUP3 ADD MSTORE PUSH1 0x64 ADD JUMPDEST PUSH1 0x40 MLOAD DUP1 SWAP2 SUB SWAP1 REVERT JUMPDEST POP POP JUMP JUMPDEST PUSH0 DUP1 SLOAD PUSH2 0x15C SWAP1 PUSH2 0x358 JUMP JUMPDEST DUP1 PUSH1 0x1F ADD PUSH1 0x20 DUP1 SWAP2 DIV MUL PUSH1 0x20 ADD PUSH1 0x40 MLOAD SWAP1 DUP2 ADD PUSH1 0x40 MSTORE DUP1 SWAP3 SWAP2 SWAP1 DUP2 DUP2 MSTORE PUSH1 0x20 ADD DUP3 DUP1 SLOAD PUSH2 0x188 SWAP1 PUSH2 0x358 JUMP JUMPDEST DUP1 ISZERO PUSH2 0x1D3 JUMPI DUP1 PUSH1 0x1F LT PUSH2 0x1AA JUMPI PUSH2 0x100 DUP1 DUP4 SLOAD DIV MUL DUP4 MSTORE SWAP2 PUSH1 0x20 ADD SWAP2 PUSH2 0x1D3 JUMP JUMPDEST DUP3 ADD SWAP2 SWAP1 PUSH0 MSTORE PUSH1 0x20 PUSH0 KECCAK256 SWAP1 JUMPDEST DUP2 SLOAD DUP2 MSTORE SWAP1 PUSH1 0x1 ADD SWAP1 PUSH1 0x20 ADD DUP1 DUP4 GT PUSH2 0x1B6 JUMPI DUP3 SWAP1 SUB PUSH1 0x1F AND DUP3 ADD SWAP2 JUMPDEST POP POP POP POP POP DUP2 JUMP JUMPDEST PUSH1 0x40 DUP1 MLOAD PUSH1 0x24 DUP2 ADD SWAP2 SWAP1 SWAP2 MSTORE PUSH1 0x8 PUSH1 0x64 DUP3 ADD MSTORE PUSH8 0x63616C6C20666F6F PUSH1 0xC0 SHL PUSH1 0x84 DUP3 ADD MSTORE PUSH1 0x7B PUSH1 0x44 DUP3 ADD MSTORE PUSH0 SWAP1 DUP2 SWAP1 PUSH1 0x1 PUSH1 0x1 PUSH1 0xA0 SHL SUB DUP5 AND SWAP1 PUSH1 0x6F SWAP1 PUSH1 0xA4 ADD PUSH1 0x40 DUP1 MLOAD PUSH1 0x1F NOT DUP2 DUP5 SUB ADD DUP2 MSTORE SWAP2 DUP2 MSTORE PUSH1 0x20 DUP3 ADD DUP1 MLOAD PUSH1 0x1 PUSH1 0x1 PUSH1 0xE0 SHL SUB AND PUSH4 0x24CCAB8F PUSH1 0xE0 SHL OR SWAP1 MSTORE MLOAD PUSH2 0x250 SWAP2 SWAP1 PUSH2 0x342 JUMP JUMPDEST PUSH0 PUSH1 0x40 MLOAD DUP1 DUP4 SUB DUP2 DUP6 DUP8 GAS CALL SWAP3 POP POP POP RETURNDATASIZE DUP1 PUSH0 DUP2 EQ PUSH2 0x28A JUMPI PUSH1 0x40 MLOAD SWAP2 POP PUSH1 0x1F NOT PUSH1 0x3F RETURNDATASIZE ADD AND DUP3 ADD PUSH1 0x40 MSTORE RETURNDATASIZE DUP3 MSTORE RETURNDATASIZE PUSH0 PUSH1 0x20 DUP5 ADD RETURNDATACOPY PUSH2 0x28F JUMP JUMPDEST PUSH1 0x60 SWAP2 POP JUMPDEST POP SWAP2 POP SWAP2 POP DUP2 PUSH2 0x2CF JUMPI PUSH1 0x40 MLOAD PUSH3 0x461BCD PUSH1 0xE5 SHL DUP2 MSTORE PUSH1 0x20 PUSH1 0x4 DUP3 ADD MSTORE PUSH1 0xB PUSH1 0x24 DUP3 ADD MSTORE PUSH11 0x18D85B1B0819985A5B1959 PUSH1 0xAA SHL PUSH1 0x44 DUP3 ADD MSTORE PUSH1 0x64 ADD PUSH2 0x143 JUMP JUMPDEST PUSH0 PUSH2 0x2DA DUP3 DUP3 PUSH2 0x3F0 JUMP JUMPDEST POP POP POP POP JUMP JUMPDEST PUSH0 PUSH1 0x20 DUP3 DUP5 SUB SLT ISZERO PUSH2 0x2F0 JUMPI PUSH0 PUSH0 REVERT JUMPDEST DUP2 CALLDATALOAD PUSH1 0x1 PUSH1 0x1 PUSH1 0xA0 SHL SUB DUP2 AND DUP2 EQ PUSH2 0x306 JUMPI PUSH0 PUSH0 REVERT JUMPDEST SWAP4 SWAP3 POP POP POP JUMP JUMPDEST PUSH1 0x20 DUP2 MSTORE PUSH0 DUP3 MLOAD DUP1 PUSH1 0x20 DUP5 ADD MSTORE DUP1 PUSH1 0x20 DUP6 ADD PUSH1 0x40 DUP6 ADD MCOPY PUSH0 PUSH1 0x40 DUP3 DUP6 ADD ADD MSTORE PUSH1 0x40 PUSH1 0x1F NOT PUSH1 0x1F DUP4 ADD AND DUP5 ADD ADD SWAP2 POP POP SWAP3 SWAP2 POP POP JUMP JUMPDEST PUSH0 DUP3 MLOAD DUP1 PUSH1 0x20 DUP6 ADD DUP5 MCOPY PUSH0 SWAP3 ADD SWAP2 DUP3 MSTORE POP SWAP2 SWAP1 POP JUMP JUMPDEST PUSH1 0x1 DUP2 DUP2 SHR SWAP1 DUP3 AND DUP1 PUSH2 0x36C JUMPI PUSH1 0x7F DUP3 AND SWAP2 POP JUMPDEST PUSH1 0x20 DUP3 LT DUP2 SUB PUSH2 0x38A JUMPI PUSH4 0x4E487B71 PUSH1 0xE0 SHL PUSH0 MSTORE PUSH1 0x22 PUSH1 0x4 MSTORE PUSH1 0x24 PUSH0 REVERT JUMPDEST POP SWAP2 SWAP1 POP JUMP JUMPDEST PUSH4 0x4E487B71 PUSH1 0xE0 SHL PUSH0 MSTORE PUSH1 0x41 PUSH1 0x4 MSTORE PUSH1 0x24 PUSH0 REVERT JUMPDEST PUSH1 0x1F DUP3 GT ISZERO PUSH2 0x3EB JUMPI DUP1 PUSH0 MSTORE PUSH1 0x20 PUSH0 KECCAK256 PUSH1 0x1F DUP5 ADD PUSH1 0x5 SHR DUP2 ADD PUSH1 0x20 DUP6 LT ISZERO PUSH2 0x3C9 JUMPI POP DUP1 JUMPDEST PUSH1 0x1F DUP5 ADD PUSH1 0x5 SHR DUP3 ADD SWAP2 POP JUMPDEST DUP2 DUP2 LT ISZERO PUSH2 0x3E8 JUMPI PUSH0 DUP2 SSTORE PUSH1 0x1 ADD PUSH2 0x3D5 JUMP JUMPDEST POP POP JUMPDEST POP POP POP JUMP JUMPDEST DUP2 MLOAD PUSH8 0xFFFFFFFFFFFFFFFF DUP2 GT ISZERO PUSH2 0x40A JUMPI PUSH2 0x40A PUSH2 0x390 JUMP JUMPDEST PUSH2 0x41E DUP2 PUSH2 0x418 DUP5 SLOAD PUSH2 0x358 JUMP JUMPDEST DUP5 PUSH2 0x3A4 JUMP JUMPDEST PUSH1 0x20 PUSH1 0x1F DUP3 GT PUSH1 0x1 DUP2 EQ PUSH2 0x450 JUMPI PUSH0 DUP4 ISZERO PUSH2 0x439 JUMPI POP DUP5 DUP3 ADD MLOAD JUMPDEST PUSH0 NOT PUSH1 0x3 DUP6 SWAP1 SHL SHR NOT AND PUSH1 0x1 DUP5 SWAP1 SHL OR DUP5 SSTORE PUSH2 0x3E8 JUMP JUMPDEST PUSH0 DUP5 DUP2 MSTORE PUSH1 0x20 DUP2 KECCAK256 PUSH1 0x1F NOT DUP6 AND SWAP2 JUMPDEST DUP3 DUP2 LT ISZERO PUSH2 0x47F JUMPI DUP8 DUP6 ADD MLOAD DUP3 SSTORE PUSH1 0x20 SWAP5 DUP6 ADD SWAP5 PUSH1 0x1 SWAP1 SWAP3 ADD SWAP2 ADD PUSH2 0x45F JUMP JUMPDEST POP DUP5 DUP3 LT ISZERO PUSH2 0x49C JUMPI DUP7 DUP5 ADD MLOAD PUSH0 NOT PUSH1 0x3 DUP8 SWAP1 SHL PUSH1 0xF8 AND SHR NOT AND DUP2 SSTORE JUMPDEST POP POP POP POP PUSH1 0x1 SWAP1 DUP2 SHL ADD SWAP1 SSTORE POP JUMP INVALID LOG2 PUSH5 0x6970667358 0x22 SLT KECCAK256 0x1F SDIV MOD PUSH32 0x7405784435185B133BC3BFB448DCF49D78C0D536EF47AB7E3DEB4DFF64736F6C PUSH4 0x4300081D STOP CALLER "
				},
				"gasEstimates": {
					"creation": {
						"codeDepositCost": "249800",
						"executionCost": "292",
						"totalCost": "250092"
					},
					"external": {
						"callFoo(address)": "infinite",
						"callNotExist(address)": "infinite",
						"data()": "infinite"
					}
				},
				"methodIdentifiers": {
					"callFoo(address)": "edcbe76c",
					"callNotExist(address)": "6bc19a22",
					"data()": "73d4a13a"
				}
			},
			"storageLayout": {
				"storage": [
					{
						"astId": 56,
						"contract": "Call.sol:Call",
						"label": "data",
						"offset": 0,
						"slot": "0",
						"type": "t_bytes_storage"
					}
				],
				"types": {
					"t_bytes_storage": {
						"encoding": "bytes",
						"label": "bytes",
						"numberOfBytes": "32"
					}
				}
			},
			"userdoc": {
				"kind": "user",
				"methods": {},
				"version": 1
			}
		}
	}
}