{
	"GlobalVariables.sol": {
		"GlobleVaraible": {
			"abi": [
				{
					"inputs": [],
					"name": "globalVars",
					"outputs": [
						{
							"internalType": "address",
							"name": "",
							"type": "address"
						},
						{
							"internalType": "uint256",
							"name": "",
							"type": "uint256"
						},
						{
							"internalType": "uint256",
							"name": "",
							"type": "uint256"
						}
					],
					"stateMutability": "view",
					"type": "function"
				}
			],
			"devdoc": {
				"kind": "dev",
				"methods": {},
				"version": 1
			},
			"evm": {
				"assembly": "    /* \"GlobalVariables.sol\":60:526  contract GlobleVaraible{... */\n  mstore(0x40, 0x80)\n  callvalue\n  dup1\n  iszero\n  tag_1\n  jumpi\n  revert(0x00, 0x00)\ntag_1:\n  pop\n  dataSize(sub_0)\n  dup1\n  dataOffset(sub_0)\n  0x00\n  codecopy\n  0x00\n  return\nstop\n\nsub_0: assembly {\n        /* \"GlobalVariables.sol\":60:526  contract GlobleVaraible{... */\n      mstore(0x40, 0x80)\n      callvalue\n      dup1\n      iszero\n      tag_1\n      jumpi\n      revert(0x00, 0x00)\n    tag_1:\n      pop\n      jumpi(tag_2, lt(calldatasize, 0x04))\n      shr(0xe0, calldataload(0x00))\n      dup1\n      0x7e6230f3\n      eq\n      tag_3\n      jumpi\n    tag_2:\n      revert(0x00, 0x00)\n        /* \"GlobalVariables.sol\":291:523  function globalVars() external view returns (address,uint,uint){... */\n    tag_3:\n      0x40\n      dup1\n      mload\n        /* \"GlobalVariables.sol\":381:391  msg.sender */\n      caller\n        /* \"#utility.yul\":216:267   */\n      dup2\n      mstore\n        /* \"GlobalVariables.sol\":417:432  block.timestamp */\n      timestamp\n        /* \"#utility.yul\":298:300   */\n      0x20\n        /* \"#utility.yul\":283:301   */\n      dup3\n      add\n        /* \"#utility.yul\":276:310   */\n      mstore\n        /* \"GlobalVariables.sol\":458:470  block.number */\n      number\n        /* \"#utility.yul\":326:344   */\n      dup2\n      dup4\n      add\n        /* \"#utility.yul\":319:353   */\n      mstore\n        /* \"GlobalVariables.sol\":291:523  function globalVars() external view returns (address,uint,uint){... */\n      swap1\n      mload\n      swap1\n      dup2\n      swap1\n      sub\n        /* \"#utility.yul\":204:206   */\n      0x60\n        /* \"GlobalVariables.sol\":291:523  function globalVars() external view returns (address,uint,uint){... */\n      add\n      swap1\n      return\n\n    auxdata: 0xa2646970667358221220f8013b1e708efe4e2676eb5946d80ba4274c1c02318bd0ffd5d2bc7b4400ee9664736f6c634300081d0033\n}\n",
				"bytecode": {
					"linkReferences": {},
					"object": "6080604052348015600e575f5ffd5b50607e80601a5f395ff3fe6080604052348015600e575f5ffd5b50600436106026575f3560e01c80637e6230f314602a575b5f5ffd5b60408051338152426020820152438183015290519081900360600190f3fea2646970667358221220f8013b1e708efe4e2676eb5946d80ba4274c1c02318bd0ffd5d2bc7b4400ee9664736f6c634300081d0033",
					"opcodes": "PUSH1 0x80 PUSH1 0x40 MSTORE CALLVALUE DUP1 ISZERO PUSH1 0xE JUMPI PUSH0 PUSH0 REVERT JUMPDEST POP PUSH1 0x7E DUP1 PUSH1 0x1A PUSH0 CODECOPY PUSH0 RETURN INVALID PUSH1 0x80 PUSH1 0x40 MSTORE CALLVALUE DUP1 ISZERO PUSH1 0xE JUMPI PUSH0 PUSH0 REVERT JUMPDEST POP PUSH1 0x4 CALLDATASIZE LT PUSH1 0x26 JUMPI PUSH0 CALLDATALOAD PUSH1 0xE0 SHR DUP1 PUSH4 0x7E6230F3 EQ PUSH1 0x2A JUMPI JUMPDEST PUSH0 PUSH0 REVERT JUMPDEST PUSH1 0x40 DUP1 MLOAD CALLER DUP2 MSTORE TIMESTAMP PUSH1 0x20 DUP3 ADD MSTORE NUMBER DUP2 DUP4 ADD MSTORE SWAP1 MLOAD SWAP1 DUP2 SWAP1 SUB PUSH1 0x60 ADD SWAP1 RETURN INVALID LOG2 PUSH5 0x6970667358 0x22 SLT KECCAK256 EXTCALL ADD EXTCODESIZE 0x1E PUSH17 0x8EFE4E2676EB5946D80BA4274C1C02318B 0xD0 SELFDESTRUCT 0xD5 0xD2 0xBC PUSH28 0x4400EE9664736F6C634300081D003300000000000000000000000000 "
				},
				"gasEstimates": {
					"creation": {
						"codeDepositCost": "25200",
						"executionCost": "73",
						"totalCost": "25273"
					},
					"external": {
						"globalVars()": "181"
					}
				},
				"methodIdentifiers": {
					"globalVars()": "7e6230f3"
				}
			},
			"storageLayout": {
				"storage": [],
				"types": null
			},
			"userdoc": {
				"kind": "user",
				"methods": {},
				"version": 1
			}
		}
	}
}