{
	"VerifySig.sol": {
		"VerifySig": {
			"abi": [
				{
					"inputs": [
						{
							"internalType": "bytes32",
							"name": "_messageHash",
							"type": "bytes32"
						}
					],
					"name": "getEthSignedMessageHash",
					"outputs": [
						{
							"internalType": "bytes32",
							"name": "",
							"type": "bytes32"
						}
					],
					"stateMutability": "pure",
					"type": "function"
				},
				{
					"inputs": [
						{
							"internalType": "string",
							"name": "_message",
							"type": "string"
						}
					],
					"name": "getMessageHash",
					"outputs": [
						{
							"internalType": "bytes32",
							"name": "",
							"type": "bytes32"
						}
					],
					"stateMutability": "pure",
					"type": "function"
				},
				{
					"inputs": [
						{
							"internalType": "bytes32",
							"name": "_ethSignedMessageHash",
							"type": "bytes32"
						},
						{
							"internalType": "bytes",
							"name": "_sig",
							"type": "bytes"
						}
					],
					"name": "recover",
					"outputs": [
						{
							"internalType": "address",
							"name": "",
							"type": "address"
						}
					],
					"stateMutability": "pure",
					"type": "function"
				},
				{
					"inputs": [
						{
							"internalType": "address",
							"name": "_signer",
							"type": "address"
						},
						{
							"internalType": "string",
							"name": "_message",
							"type": "string"
						},
						{
							"internalType": "bytes",
							"name": "_sig",
							"type": "bytes"
						}
					],
					"name": "verigy",
					"outputs": [
						{
							"internalType": "bool",
							"name": "",
							"type": "bool"
						}
					],
					"stateMutability": "pure",
					"type": "function"
				}
			],
			"devdoc": {
				"kind": "dev",
				"methods": {
					"verigy(address,string,bytes)": {
						"details": "验证签名是否由指定地址创建",
						"params": {
							"_message": "消息原文",
							"_sig": "签名",
							"_signer": "使用以太坊对哈希值签名的地址"
						},
						"returns": {
							"_0": "bool 如果签名是由指定地址创建的，返回 true；否则返回 false"
						}
					}
				},
				"version": 1
			},
			"evm": {
				"assembly": "    /* \"VerifySig.sol\":131:3938  contract VerifySig {... */\n  mstore(0x40, 0x80)\n  callvalue\n  dup1\n  iszero\n  tag_1\n  jumpi\n  revert(0x00, 0x00)\ntag_1:\n  pop\n  dataSize(sub_0)\n  dup1\n  dataOffset(sub_0)\n  0x00\n  codecopy\n  0x00\n  return\nstop\n\nsub_0: assembly {\n        /* \"VerifySig.sol\":131:3938  contract VerifySig {... */\n      mstore(0x40, 0x80)\n      callvalue\n      dup1\n      iszero\n      tag_1\n      jumpi\n      revert(0x00, 0x00)\n    tag_1:\n      pop\n      jumpi(tag_2, lt(calldatasize, 0x04))\n      shr(0xe0, calldataload(0x00))\n      dup1\n      0x19045a25\n      eq\n      tag_3\n      jumpi\n      dup1\n      0x873e1540\n      eq\n      tag_4\n      jumpi\n      dup1\n      0xb446f3b2\n      eq\n      tag_5\n      jumpi\n      dup1\n      0xfa540801\n      eq\n      tag_6\n      jumpi\n    tag_2:\n      revert(0x00, 0x00)\n        /* \"VerifySig.sol\":2025:2388  function recover(bytes32 _ethSignedMessageHash, bytes memory _sig) public pure returns (address) {... */\n    tag_3:\n      tag_7\n      tag_8\n      calldatasize\n      0x04\n      tag_9\n      jump\t// in\n    tag_8:\n      tag_10\n      jump\t// in\n    tag_7:\n      mload(0x40)\n      sub(shl(0xa0, 0x01), 0x01)\n        /* \"#utility.yul\":1642:1674   */\n      swap1\n      swap2\n      and\n        /* \"#utility.yul\":1624:1675   */\n      dup2\n      mstore\n        /* \"#utility.yul\":1612:1614   */\n      0x20\n        /* \"#utility.yul\":1597:1615   */\n      add\n        /* \"VerifySig.sol\":2025:2388  function recover(bytes32 _ethSignedMessageHash, bytes memory _sig) public pure returns (address) {... */\n    tag_11:\n      mload(0x40)\n      dup1\n      swap2\n      sub\n      swap1\n      return\n        /* \"VerifySig.sol\":454:923  function verigy(address _signer, string memory _message, bytes memory _sig) public pure returns (bool) {... */\n    tag_4:\n      tag_13\n      tag_14\n      calldatasize\n      0x04\n      tag_15\n      jump\t// in\n    tag_14:\n      tag_16\n      jump\t// in\n    tag_13:\n      mload(0x40)\n        /* \"#utility.yul\":2565:2579   */\n      swap1\n      iszero\n        /* \"#utility.yul\":2558:2580   */\n      iszero\n        /* \"#utility.yul\":2540:2581   */\n      dup2\n      mstore\n        /* \"#utility.yul\":2528:2530   */\n      0x20\n        /* \"#utility.yul\":2513:2531   */\n      add\n        /* \"VerifySig.sol\":454:923  function verigy(address _signer, string memory _message, bytes memory _sig) public pure returns (bool) {... */\n      tag_11\n        /* \"#utility.yul\":2400:2587   */\n      jump\n        /* \"VerifySig.sol\":1078:1279  function getMessageHash(string memory _message) public pure returns (bytes32) {... */\n    tag_5:\n      tag_19\n      tag_20\n      calldatasize\n      0x04\n      tag_21\n      jump\t// in\n    tag_20:\n      tag_22\n      jump\t// in\n    tag_19:\n      mload(0x40)\n        /* \"#utility.yul\":3064:3089   */\n      swap1\n      dup2\n      mstore\n        /* \"#utility.yul\":3052:3054   */\n      0x20\n        /* \"#utility.yul\":3037:3055   */\n      add\n        /* \"VerifySig.sol\":1078:1279  function getMessageHash(string memory _message) public pure returns (bytes32) {... */\n      tag_11\n        /* \"#utility.yul\":2918:3095   */\n      jump\n        /* \"VerifySig.sol\":1462:1750  function getEthSignedMessageHash(bytes32 _messageHash) public pure returns (bytes32) {... */\n    tag_6:\n      tag_19\n      tag_26\n      calldatasize\n      0x04\n      tag_27\n      jump\t// in\n    tag_26:\n      tag_28\n      jump\t// in\n        /* \"VerifySig.sol\":2025:2388  function recover(bytes32 _ethSignedMessageHash, bytes memory _sig) public pure returns (address) {... */\n    tag_10:\n        /* \"VerifySig.sol\":2113:2120  address */\n      0x00\n        /* \"VerifySig.sol\":2183:2192  bytes32 r */\n      0x00\n        /* \"VerifySig.sol\":2194:2203  bytes32 s */\n      0x00\n        /* \"VerifySig.sol\":2205:2212  uint8 v */\n      0x00\n        /* \"VerifySig.sol\":2216:2228  _split(_sig) */\n      tag_31\n        /* \"VerifySig.sol\":2223:2227  _sig */\n      dup6\n        /* \"VerifySig.sol\":2216:2222  _split */\n      tag_32\n        /* \"VerifySig.sol\":2216:2228  _split(_sig) */\n      jump\t// in\n    tag_31:\n        /* \"VerifySig.sol\":2339:2380  ecrecover(_ethSignedMessageHash, v, r, s) */\n      0x40\n      dup1\n      mload\n      0x00\n      dup2\n      mstore\n      0x20\n      dup2\n      add\n      dup1\n      dup4\n      mstore\n        /* \"#utility.yul\":3558:3583   */\n      dup12\n      swap1\n      mstore\n        /* \"#utility.yul\":3631:3635   */\n      0xff\n        /* \"#utility.yul\":3619:3636   */\n      dup4\n      and\n        /* \"#utility.yul\":3599:3617   */\n      swap2\n      dup2\n      add\n        /* \"#utility.yul\":3592:3637   */\n      swap2\n      swap1\n      swap2\n      mstore\n        /* \"#utility.yul\":3653:3671   */\n      0x60\n      dup2\n      add\n        /* \"#utility.yul\":3646:3680   */\n      dup5\n      swap1\n      mstore\n        /* \"#utility.yul\":3696:3714   */\n      0x80\n      dup2\n      add\n        /* \"#utility.yul\":3689:3723   */\n      dup4\n      swap1\n      mstore\n        /* \"VerifySig.sol\":2182:2228  (bytes32 r, bytes32 s, uint8 v) = _split(_sig) */\n      swap3\n      swap6\n      pop\n      swap1\n      swap4\n      pop\n      swap2\n      pop\n        /* \"VerifySig.sol\":2339:2380  ecrecover(_ethSignedMessageHash, v, r, s) */\n      0x01\n      swap1\n        /* \"#utility.yul\":3530:3549   */\n      0xa0\n      add\n        /* \"VerifySig.sol\":2339:2380  ecrecover(_ethSignedMessageHash, v, r, s) */\n      0x20\n      mload(0x40)\n      0x20\n      dup2\n      sub\n      swap1\n      dup1\n      dup5\n      sub\n      swap1\n      dup6\n      gas\n      staticcall\n      iszero\n      dup1\n      iszero\n      tag_36\n      jumpi\n      returndatacopy(0x00, 0x00, returndatasize)\n      revert(0x00, returndatasize)\n    tag_36:\n      pop\n      pop\n      mload(add(not(0x1f), mload(0x40)))\n      swap8\n        /* \"VerifySig.sol\":2025:2388  function recover(bytes32 _ethSignedMessageHash, bytes memory _sig) public pure returns (address) {... */\n      swap7\n      pop\n      pop\n      pop\n      pop\n      pop\n      pop\n      pop\n      jump\t// out\n        /* \"VerifySig.sol\":454:923  function verigy(address _signer, string memory _message, bytes memory _sig) public pure returns (bool) {... */\n    tag_16:\n        /* \"VerifySig.sol\":551:555  bool */\n      0x00\n        /* \"VerifySig.sol\":605:624  bytes32 messageHash */\n      0x00\n        /* \"VerifySig.sol\":627:651  getMessageHash(_message) */\n      tag_38\n        /* \"VerifySig.sol\":642:650  _message */\n      dup5\n        /* \"VerifySig.sol\":627:641  getMessageHash */\n      tag_22\n        /* \"VerifySig.sol\":627:651  getMessageHash(_message) */\n      jump\t// in\n    tag_38:\n        /* \"VerifySig.sol\":605:651  bytes32 messageHash = getMessageHash(_message) */\n      swap1\n      pop\n        /* \"VerifySig.sol\":714:742  bytes32 ethSignedMessageHash */\n      0x00\n        /* \"VerifySig.sol\":745:781  getEthSignedMessageHash(messageHash) */\n      tag_39\n        /* \"VerifySig.sol\":769:780  messageHash */\n      dup3\n        /* \"VerifySig.sol\":745:768  getEthSignedMessageHash */\n      tag_28\n        /* \"VerifySig.sol\":745:781  getEthSignedMessageHash(messageHash) */\n      jump\t// in\n    tag_39:\n        /* \"VerifySig.sol\":714:781  bytes32 ethSignedMessageHash = getEthSignedMessageHash(messageHash) */\n      swap1\n      pop\n        /* \"VerifySig.sol\":908:915  _signer */\n      dup6\n      sub(shl(0xa0, 0x01), 0x01)\n        /* \"VerifySig.sol\":869:915  recover(ethSignedMessageHash, _sig) == _signer */\n      and\n        /* \"VerifySig.sol\":869:904  recover(ethSignedMessageHash, _sig) */\n      tag_40\n        /* \"VerifySig.sol\":877:897  ethSignedMessageHash */\n      dup3\n        /* \"VerifySig.sol\":899:903  _sig */\n      dup7\n        /* \"VerifySig.sol\":869:876  recover */\n      tag_10\n        /* \"VerifySig.sol\":869:904  recover(ethSignedMessageHash, _sig) */\n      jump\t// in\n    tag_40:\n      sub(shl(0xa0, 0x01), 0x01)\n        /* \"VerifySig.sol\":869:915  recover(ethSignedMessageHash, _sig) == _signer */\n      and\n      eq\n      swap7\n        /* \"VerifySig.sol\":454:923  function verigy(address _signer, string memory _message, bytes memory _sig) public pure returns (bool) {... */\n      swap6\n      pop\n      pop\n      pop\n      pop\n      pop\n      pop\n      jump\t// out\n        /* \"VerifySig.sol\":1078:1279  function getMessageHash(string memory _message) public pure returns (bytes32) {... */\n    tag_22:\n        /* \"VerifySig.sol\":1147:1154  bytes32 */\n      0x00\n        /* \"VerifySig.sol\":1261:1269  _message */\n      dup2\n        /* \"VerifySig.sol\":1244:1270  abi.encodePacked(_message) */\n      add(0x20, mload(0x40))\n      tag_42\n      swap2\n      swap1\n      tag_43\n      jump\t// in\n    tag_42:\n      mload(0x40)\n      0x20\n      dup2\n      dup4\n      sub\n      sub\n      dup2\n      mstore\n      swap1\n      0x40\n      mstore\n        /* \"VerifySig.sol\":1234:1271  keccak256(abi.encodePacked(_message)) */\n      dup1\n      mload\n      swap1\n      0x20\n      add\n      keccak256\n        /* \"VerifySig.sol\":1227:1271  return keccak256(abi.encodePacked(_message)) */\n      swap1\n      pop\n        /* \"VerifySig.sol\":1078:1279  function getMessageHash(string memory _message) public pure returns (bytes32) {... */\n      swap2\n      swap1\n      pop\n      jump\t// out\n        /* \"VerifySig.sol\":1462:1750  function getEthSignedMessageHash(bytes32 _messageHash) public pure returns (bytes32) {... */\n    tag_28:\n        /* \"VerifySig.sol\":1675:1741  abi.encodePacked(\"\\x19Ethereum Signed Message:\\n32\", _messageHash) */\n      mload(0x40)\n        /* \"#utility.yul\":4284:4350   */\n      0x19457468657265756d205369676e6564204d6573736167653a0a333200000000\n        /* \"VerifySig.sol\":1675:1741  abi.encodePacked(\"\\x19Ethereum Signed Message:\\n32\", _messageHash) */\n      0x20\n      dup3\n      add\n        /* \"#utility.yul\":4272:4351   */\n      mstore\n        /* \"#utility.yul\":4367:4379   */\n      0x3c\n      dup2\n      add\n        /* \"#utility.yul\":4360:4388   */\n      dup3\n      swap1\n      mstore\n        /* \"VerifySig.sol\":1538:1545  bytes32 */\n      0x00\n      swap1\n        /* \"#utility.yul\":4404:4416   */\n      0x5c\n      add\n        /* \"VerifySig.sol\":1675:1741  abi.encodePacked(\"\\x19Ethereum Signed Message:\\n32\", _messageHash) */\n      tag_42\n        /* \"#utility.yul\":4042:4422   */\n      jump\n        /* \"VerifySig.sol\":2650:3935  function _split(bytes memory _sig) internal pure returns (bytes32 r, bytes32 s, uint8 v) {... */\n    tag_32:\n        /* \"VerifySig.sol\":2708:2717  bytes32 r */\n      0x00\n        /* \"VerifySig.sol\":2719:2728  bytes32 s */\n      0x00\n        /* \"VerifySig.sol\":2730:2737  uint8 v */\n      0x00\n        /* \"VerifySig.sol\":2838:2842  _sig */\n      dup4\n        /* \"VerifySig.sol\":2838:2849  _sig.length */\n      mload\n        /* \"VerifySig.sol\":2853:2855  65 */\n      0x41\n        /* \"VerifySig.sol\":2838:2855  _sig.length == 65 */\n      eq\n        /* \"VerifySig.sol\":2830:2884  require(_sig.length == 65, \"invalid signature length\") */\n      tag_48\n      jumpi\n      mload(0x40)\n      shl(0xe5, 0x461bcd)\n      dup2\n      mstore\n        /* \"#utility.yul\":4629:4631   */\n      0x20\n        /* \"VerifySig.sol\":2830:2884  require(_sig.length == 65, \"invalid signature length\") */\n      0x04\n      dup3\n      add\n        /* \"#utility.yul\":4611:4632   */\n      mstore\n        /* \"#utility.yul\":4668:4670   */\n      0x18\n        /* \"#utility.yul\":4648:4666   */\n      0x24\n      dup3\n      add\n        /* \"#utility.yul\":4641:4671   */\n      mstore\n        /* \"#utility.yul\":4707:4733   */\n      0x696e76616c6964207369676e6174757265206c656e6774680000000000000000\n        /* \"#utility.yul\":4687:4705   */\n      0x44\n      dup3\n      add\n        /* \"#utility.yul\":4680:4734   */\n      mstore\n        /* \"#utility.yul\":4751:4769   */\n      0x64\n      add\n        /* \"VerifySig.sol\":2830:2884  require(_sig.length == 65, \"invalid signature length\") */\n      mload(0x40)\n      dup1\n      swap2\n      sub\n      swap1\n      revert\n    tag_48:\n      pop\n      pop\n      pop\n        /* \"VerifySig.sol\":3826:3828  32 */\n      0x20\n        /* \"VerifySig.sol\":3816:3829  add(_sig, 32) */\n      dup2\n      add\n        /* \"VerifySig.sol\":3810:3830  mload(add(_sig, 32)) */\n      mload\n        /* \"VerifySig.sol\":3865:3867  64 */\n      0x40\n        /* \"VerifySig.sol\":3855:3868  add(_sig, 64) */\n      dup3\n      add\n        /* \"VerifySig.sol\":3849:3869  mload(add(_sig, 64)) */\n      mload\n        /* \"VerifySig.sol\":3912:3914  96 */\n      0x60\n        /* \"VerifySig.sol\":3902:3915  add(_sig, 96) */\n      swap1\n      swap3\n      add\n        /* \"VerifySig.sol\":3896:3916  mload(add(_sig, 96)) */\n      mload\n        /* \"VerifySig.sol\":3810:3830  mload(add(_sig, 32)) */\n      swap1\n      swap3\n        /* \"VerifySig.sol\":3893:3894  0 */\n      0x00\n        /* \"VerifySig.sol\":3888:3917  byte(0, mload(add(_sig, 96))) */\n      swap2\n      swap1\n      swap2\n      byte\n      swap1\n        /* \"VerifySig.sol\":2650:3935  function _split(bytes memory _sig) internal pure returns (bytes32 r, bytes32 s, uint8 v) {... */\n      jump\t// out\n        /* \"#utility.yul\":14:141   */\n    tag_51:\n        /* \"#utility.yul\":75:85   */\n      0x4e487b71\n        /* \"#utility.yul\":70:73   */\n      0xe0\n        /* \"#utility.yul\":66:86   */\n      shl\n        /* \"#utility.yul\":63:64   */\n      0x00\n        /* \"#utility.yul\":56:87   */\n      mstore\n        /* \"#utility.yul\":106:110   */\n      0x41\n        /* \"#utility.yul\":103:104   */\n      0x04\n        /* \"#utility.yul\":96:111   */\n      mstore\n        /* \"#utility.yul\":130:134   */\n      0x24\n        /* \"#utility.yul\":127:128   */\n      0x00\n        /* \"#utility.yul\":120:135   */\n      revert\n        /* \"#utility.yul\":146:1034   */\n    tag_52:\n        /* \"#utility.yul\":188:193   */\n      0x00\n        /* \"#utility.yul\":241:244   */\n      dup3\n        /* \"#utility.yul\":234:238   */\n      0x1f\n        /* \"#utility.yul\":226:232   */\n      dup4\n        /* \"#utility.yul\":222:239   */\n      add\n        /* \"#utility.yul\":218:245   */\n      slt\n        /* \"#utility.yul\":208:263   */\n      tag_56\n      jumpi\n        /* \"#utility.yul\":259:260   */\n      0x00\n        /* \"#utility.yul\":256:257   */\n      0x00\n        /* \"#utility.yul\":249:261   */\n      revert\n        /* \"#utility.yul\":208:263   */\n    tag_56:\n        /* \"#utility.yul\":299:305   */\n      dup2\n        /* \"#utility.yul\":286:306   */\n      calldataload\n        /* \"#utility.yul\":338:342   */\n      0x20\n        /* \"#utility.yul\":330:336   */\n      dup4\n        /* \"#utility.yul\":326:343   */\n      add\n        /* \"#utility.yul\":367:368   */\n      0x00\n        /* \"#utility.yul\":389:390   */\n      0x00\n        /* \"#utility.yul\":413:431   */\n      0xffffffffffffffff\n        /* \"#utility.yul\":405:411   */\n      dup5\n        /* \"#utility.yul\":402:432   */\n      gt\n        /* \"#utility.yul\":399:455   */\n      iszero\n      tag_58\n      jumpi\n        /* \"#utility.yul\":435:453   */\n      tag_58\n      tag_51\n      jump\t// in\n    tag_58:\n      pop\n        /* \"#utility.yul\":590:592   */\n      0x40\n        /* \"#utility.yul\":584:593   */\n      mload\n      not(0x1f)\n        /* \"#utility.yul\":503:505   */\n      0x1f\n        /* \"#utility.yul\":482:497   */\n      dup6\n      add\n        /* \"#utility.yul\":478:507   */\n      dup2\n      and\n        /* \"#utility.yul\":648:650   */\n      0x3f\n        /* \"#utility.yul\":636:651   */\n      add\n        /* \"#utility.yul\":632:661   */\n      and\n        /* \"#utility.yul\":620:662   */\n      dup2\n      add\n        /* \"#utility.yul\":713:735   */\n      dup2\n      dup2\n      lt\n        /* \"#utility.yul\":692:710   */\n      0xffffffffffffffff\n        /* \"#utility.yul\":677:711   */\n      dup3\n      gt\n        /* \"#utility.yul\":674:736   */\n      or\n        /* \"#utility.yul\":671:759   */\n      iszero\n      tag_60\n      jumpi\n        /* \"#utility.yul\":739:757   */\n      tag_60\n      tag_51\n      jump\t// in\n    tag_60:\n        /* \"#utility.yul\":775:777   */\n      0x40\n        /* \"#utility.yul\":768:790   */\n      mstore\n        /* \"#utility.yul\":825:847   */\n      dup4\n      dup2\n      mstore\n        /* \"#utility.yul\":810:816   */\n      swap1\n      pop\n      dup1\n        /* \"#utility.yul\":862:878   */\n      dup3\n      dup5\n      add\n        /* \"#utility.yul\":859:884   */\n      dup8\n      lt\n        /* \"#utility.yul\":856:901   */\n      iszero\n      tag_61\n      jumpi\n        /* \"#utility.yul\":897:898   */\n      0x00\n        /* \"#utility.yul\":894:895   */\n      0x00\n        /* \"#utility.yul\":887:899   */\n      revert\n        /* \"#utility.yul\":856:901   */\n    tag_61:\n        /* \"#utility.yul\":947:953   */\n      dup4\n        /* \"#utility.yul\":942:945   */\n      dup4\n        /* \"#utility.yul\":935:939   */\n      0x20\n        /* \"#utility.yul\":927:933   */\n      dup4\n        /* \"#utility.yul\":923:940   */\n      add\n        /* \"#utility.yul\":910:954   */\n      calldatacopy\n        /* \"#utility.yul\":1002:1003   */\n      0x00\n        /* \"#utility.yul\":995:999   */\n      0x20\n        /* \"#utility.yul\":986:992   */\n      dup6\n        /* \"#utility.yul\":978:984   */\n      dup4\n        /* \"#utility.yul\":974:993   */\n      add\n        /* \"#utility.yul\":970:1000   */\n      add\n        /* \"#utility.yul\":963:1004   */\n      mstore\n        /* \"#utility.yul\":1022:1028   */\n      dup1\n        /* \"#utility.yul\":1013:1028   */\n      swap5\n      pop\n      pop\n      pop\n      pop\n      pop\n        /* \"#utility.yul\":146:1034   */\n      swap3\n      swap2\n      pop\n      pop\n      jump\t// out\n        /* \"#utility.yul\":1039:1473   */\n    tag_9:\n        /* \"#utility.yul\":1116:1122   */\n      0x00\n        /* \"#utility.yul\":1124:1130   */\n      0x00\n        /* \"#utility.yul\":1177:1179   */\n      0x40\n        /* \"#utility.yul\":1165:1174   */\n      dup4\n        /* \"#utility.yul\":1156:1163   */\n      dup6\n        /* \"#utility.yul\":1152:1175   */\n      sub\n        /* \"#utility.yul\":1148:1180   */\n      slt\n        /* \"#utility.yul\":1145:1197   */\n      iszero\n      tag_63\n      jumpi\n        /* \"#utility.yul\":1193:1194   */\n      0x00\n        /* \"#utility.yul\":1190:1191   */\n      0x00\n        /* \"#utility.yul\":1183:1195   */\n      revert\n        /* \"#utility.yul\":1145:1197   */\n    tag_63:\n        /* \"#utility.yul\":1238:1261   */\n      dup3\n      calldataload\n      swap2\n      pop\n        /* \"#utility.yul\":1336:1338   */\n      0x20\n        /* \"#utility.yul\":1321:1339   */\n      dup4\n      add\n        /* \"#utility.yul\":1308:1340   */\n      calldataload\n        /* \"#utility.yul\":1363:1381   */\n      0xffffffffffffffff\n        /* \"#utility.yul\":1352:1382   */\n      dup2\n      gt\n        /* \"#utility.yul\":1349:1399   */\n      iszero\n      tag_64\n      jumpi\n        /* \"#utility.yul\":1395:1396   */\n      0x00\n        /* \"#utility.yul\":1392:1393   */\n      0x00\n        /* \"#utility.yul\":1385:1397   */\n      revert\n        /* \"#utility.yul\":1349:1399   */\n    tag_64:\n        /* \"#utility.yul\":1418:1467   */\n      tag_65\n        /* \"#utility.yul\":1459:1466   */\n      dup6\n        /* \"#utility.yul\":1450:1456   */\n      dup3\n        /* \"#utility.yul\":1439:1448   */\n      dup7\n        /* \"#utility.yul\":1435:1457   */\n      add\n        /* \"#utility.yul\":1418:1467   */\n      tag_52\n      jump\t// in\n    tag_65:\n        /* \"#utility.yul\":1408:1467   */\n      swap2\n      pop\n      pop\n        /* \"#utility.yul\":1039:1473   */\n      swap3\n      pop\n      swap3\n      swap1\n      pop\n      jump\t// out\n        /* \"#utility.yul\":1686:2395   */\n    tag_15:\n        /* \"#utility.yul\":1782:1788   */\n      0x00\n        /* \"#utility.yul\":1790:1796   */\n      0x00\n        /* \"#utility.yul\":1798:1804   */\n      0x00\n        /* \"#utility.yul\":1851:1853   */\n      0x60\n        /* \"#utility.yul\":1839:1848   */\n      dup5\n        /* \"#utility.yul\":1830:1837   */\n      dup7\n        /* \"#utility.yul\":1826:1849   */\n      sub\n        /* \"#utility.yul\":1822:1854   */\n      slt\n        /* \"#utility.yul\":1819:1871   */\n      iszero\n      tag_68\n      jumpi\n        /* \"#utility.yul\":1867:1868   */\n      0x00\n        /* \"#utility.yul\":1864:1865   */\n      0x00\n        /* \"#utility.yul\":1857:1869   */\n      revert\n        /* \"#utility.yul\":1819:1871   */\n    tag_68:\n        /* \"#utility.yul\":1893:1916   */\n      dup4\n      calldataload\n      sub(shl(0xa0, 0x01), 0x01)\n        /* \"#utility.yul\":1945:1976   */\n      dup2\n      and\n        /* \"#utility.yul\":1935:1977   */\n      dup2\n      eq\n        /* \"#utility.yul\":1925:1995   */\n      tag_69\n      jumpi\n        /* \"#utility.yul\":1991:1992   */\n      0x00\n        /* \"#utility.yul\":1988:1989   */\n      0x00\n        /* \"#utility.yul\":1981:1993   */\n      revert\n        /* \"#utility.yul\":1925:1995   */\n    tag_69:\n        /* \"#utility.yul\":2014:2019   */\n      swap3\n      pop\n        /* \"#utility.yul\":2070:2072   */\n      0x20\n        /* \"#utility.yul\":2055:2073   */\n      dup5\n      add\n        /* \"#utility.yul\":2042:2074   */\n      calldataload\n        /* \"#utility.yul\":2097:2115   */\n      0xffffffffffffffff\n        /* \"#utility.yul\":2086:2116   */\n      dup2\n      gt\n        /* \"#utility.yul\":2083:2133   */\n      iszero\n      tag_70\n      jumpi\n        /* \"#utility.yul\":2129:2130   */\n      0x00\n        /* \"#utility.yul\":2126:2127   */\n      0x00\n        /* \"#utility.yul\":2119:2131   */\n      revert\n        /* \"#utility.yul\":2083:2133   */\n    tag_70:\n        /* \"#utility.yul\":2152:2201   */\n      tag_71\n        /* \"#utility.yul\":2193:2200   */\n      dup7\n        /* \"#utility.yul\":2184:2190   */\n      dup3\n        /* \"#utility.yul\":2173:2182   */\n      dup8\n        /* \"#utility.yul\":2169:2191   */\n      add\n        /* \"#utility.yul\":2152:2201   */\n      tag_52\n      jump\t// in\n    tag_71:\n        /* \"#utility.yul\":2142:2201   */\n      swap3\n      pop\n      pop\n        /* \"#utility.yul\":2254:2256   */\n      0x40\n        /* \"#utility.yul\":2243:2252   */\n      dup5\n        /* \"#utility.yul\":2239:2257   */\n      add\n        /* \"#utility.yul\":2226:2258   */\n      calldataload\n        /* \"#utility.yul\":2283:2301   */\n      0xffffffffffffffff\n        /* \"#utility.yul\":2273:2281   */\n      dup2\n        /* \"#utility.yul\":2270:2302   */\n      gt\n        /* \"#utility.yul\":2267:2319   */\n      iszero\n      tag_72\n      jumpi\n        /* \"#utility.yul\":2315:2316   */\n      0x00\n        /* \"#utility.yul\":2312:2313   */\n      0x00\n        /* \"#utility.yul\":2305:2317   */\n      revert\n        /* \"#utility.yul\":2267:2319   */\n    tag_72:\n        /* \"#utility.yul\":2338:2389   */\n      tag_73\n        /* \"#utility.yul\":2381:2388   */\n      dup7\n        /* \"#utility.yul\":2370:2378   */\n      dup3\n        /* \"#utility.yul\":2359:2368   */\n      dup8\n        /* \"#utility.yul\":2355:2379   */\n      add\n        /* \"#utility.yul\":2338:2389   */\n      tag_52\n      jump\t// in\n    tag_73:\n        /* \"#utility.yul\":2328:2389   */\n      swap2\n      pop\n      pop\n        /* \"#utility.yul\":1686:2395   */\n      swap3\n      pop\n      swap3\n      pop\n      swap3\n      jump\t// out\n        /* \"#utility.yul\":2592:2913   */\n    tag_21:\n        /* \"#utility.yul\":2661:2667   */\n      0x00\n        /* \"#utility.yul\":2714:2716   */\n      0x20\n        /* \"#utility.yul\":2702:2711   */\n      dup3\n        /* \"#utility.yul\":2693:2700   */\n      dup5\n        /* \"#utility.yul\":2689:2712   */\n      sub\n        /* \"#utility.yul\":2685:2717   */\n      slt\n        /* \"#utility.yul\":2682:2734   */\n      iszero\n      tag_76\n      jumpi\n        /* \"#utility.yul\":2730:2731   */\n      0x00\n        /* \"#utility.yul\":2727:2728   */\n      0x00\n        /* \"#utility.yul\":2720:2732   */\n      revert\n        /* \"#utility.yul\":2682:2734   */\n    tag_76:\n        /* \"#utility.yul\":2770:2779   */\n      dup2\n        /* \"#utility.yul\":2757:2780   */\n      calldataload\n        /* \"#utility.yul\":2803:2821   */\n      0xffffffffffffffff\n        /* \"#utility.yul\":2795:2801   */\n      dup2\n        /* \"#utility.yul\":2792:2822   */\n      gt\n        /* \"#utility.yul\":2789:2839   */\n      iszero\n      tag_77\n      jumpi\n        /* \"#utility.yul\":2835:2836   */\n      0x00\n        /* \"#utility.yul\":2832:2833   */\n      0x00\n        /* \"#utility.yul\":2825:2837   */\n      revert\n        /* \"#utility.yul\":2789:2839   */\n    tag_77:\n        /* \"#utility.yul\":2858:2907   */\n      tag_78\n        /* \"#utility.yul\":2899:2906   */\n      dup5\n        /* \"#utility.yul\":2890:2896   */\n      dup3\n        /* \"#utility.yul\":2879:2888   */\n      dup6\n        /* \"#utility.yul\":2875:2897   */\n      add\n        /* \"#utility.yul\":2858:2907   */\n      tag_52\n      jump\t// in\n    tag_78:\n        /* \"#utility.yul\":2848:2907   */\n      swap5\n        /* \"#utility.yul\":2592:2913   */\n      swap4\n      pop\n      pop\n      pop\n      pop\n      jump\t// out\n        /* \"#utility.yul\":3100:3326   */\n    tag_27:\n        /* \"#utility.yul\":3159:3165   */\n      0x00\n        /* \"#utility.yul\":3212:3214   */\n      0x20\n        /* \"#utility.yul\":3200:3209   */\n      dup3\n        /* \"#utility.yul\":3191:3198   */\n      dup5\n        /* \"#utility.yul\":3187:3210   */\n      sub\n        /* \"#utility.yul\":3183:3215   */\n      slt\n        /* \"#utility.yul\":3180:3232   */\n      iszero\n      tag_81\n      jumpi\n        /* \"#utility.yul\":3228:3229   */\n      0x00\n        /* \"#utility.yul\":3225:3226   */\n      0x00\n        /* \"#utility.yul\":3218:3230   */\n      revert\n        /* \"#utility.yul\":3180:3232   */\n    tag_81:\n      pop\n        /* \"#utility.yul\":3273:3296   */\n      calldataload\n      swap2\n        /* \"#utility.yul\":3100:3326   */\n      swap1\n      pop\n      jump\t// out\n        /* \"#utility.yul\":3734:4037   */\n    tag_43:\n        /* \"#utility.yul\":3865:3868   */\n      0x00\n        /* \"#utility.yul\":3903:3909   */\n      dup3\n        /* \"#utility.yul\":3897:3910   */\n      mload\n        /* \"#utility.yul\":3949:3955   */\n      dup1\n        /* \"#utility.yul\":3942:3946   */\n      0x20\n        /* \"#utility.yul\":3934:3940   */\n      dup6\n        /* \"#utility.yul\":3930:3947   */\n      add\n        /* \"#utility.yul\":3925:3928   */\n      dup5\n        /* \"#utility.yul\":3919:3956   */\n      mcopy\n        /* \"#utility.yul\":4011:4012   */\n      0x00\n        /* \"#utility.yul\":3975:3991   */\n      swap3\n      add\n        /* \"#utility.yul\":4000:4013   */\n      swap2\n      dup3\n      mstore\n      pop\n        /* \"#utility.yul\":3975:3991   */\n      swap2\n        /* \"#utility.yul\":3734:4037   */\n      swap1\n      pop\n      jump\t// out\n\n    auxdata: 0xa2646970667358221220f74a11fdd1e52fd953ea0c0743489348116082a329d3ff47552c2a651d166c2464736f6c634300081d0033\n}\n",
				"bytecode": {
					"linkReferences": {},
					"object": "6080604052348015600e575f5ffd5b506104758061001c5f395ff3fe608060405234801561000f575f5ffd5b506004361061004a575f3560e01c806319045a251461004e578063873e15401461007e578063b446f3b2146100a1578063fa540801146100c2575b5f5ffd5b61006161005c366004610313565b6100d5565b6040516001600160a01b0390911681526020015b60405180910390f35b61009161008c366004610357565b61014f565b6040519015158152602001610075565b6100b46100af3660046103d8565b610190565b604051908152602001610075565b6100b46100d0366004610412565b6101bf565b5f5f5f5f6100e2856101f9565b604080515f8152602081018083528b905260ff8316918101919091526060810184905260808101839052929550909350915060019060a0016020604051602081039080840390855afa15801561013a573d5f5f3e3d5ffd5b5050604051601f190151979650505050505050565b5f5f61015a84610190565b90505f610166826101bf565b9050856001600160a01b031661017c82866100d5565b6001600160a01b0316149695505050505050565b5f816040516020016101a29190610429565b604051602081830303815290604052805190602001209050919050565b6040517f19457468657265756d205369676e6564204d6573736167653a0a3332000000006020820152603c81018290525f90605c016101a2565b5f5f5f83516041146102515760405162461bcd60e51b815260206004820152601860248201527f696e76616c6964207369676e6174757265206c656e6774680000000000000000604482015260640160405180910390fd5b5050506020810151604082015160609092015190925f9190911a90565b634e487b7160e01b5f52604160045260245ffd5b5f82601f830112610291575f5ffd5b8135602083015f5f67ffffffffffffffff8411156102b1576102b161026e565b50604051601f19601f85018116603f0116810181811067ffffffffffffffff821117156102e0576102e061026e565b6040528381529050808284018710156102f7575f5ffd5b838360208301375f602085830101528094505050505092915050565b5f5f60408385031215610324575f5ffd5b82359150602083013567ffffffffffffffff811115610341575f5ffd5b61034d85828601610282565b9150509250929050565b5f5f5f60608486031215610369575f5ffd5b83356001600160a01b038116811461037f575f5ffd5b9250602084013567ffffffffffffffff81111561039a575f5ffd5b6103a686828701610282565b925050604084013567ffffffffffffffff8111156103c2575f5ffd5b6103ce86828701610282565b9150509250925092565b5f602082840312156103e8575f5ffd5b813567ffffffffffffffff8111156103fe575f5ffd5b61040a84828501610282565b949350505050565b5f60208284031215610422575f5ffd5b5035919050565b5f82518060208501845e5f92019182525091905056fea2646970667358221220f74a11fdd1e52fd953ea0c0743489348116082a329d3ff47552c2a651d166c2464736f6c634300081d0033",
					"opcodes": "PUSH1 0x80 PUSH1 0x40 MSTORE CALLVALUE DUP1 ISZERO PUSH1 0xE JUMPI PUSH0 PUSH0 REVERT JUMPDEST POP PUSH2 0x475 DUP1 PUSH2 0x1C PUSH0 CODECOPY PUSH0 RETURN INVALID PUSH1 0x80 PUSH1 0x40 MSTORE CALLVALUE DUP1 ISZERO PUSH2 0xF JUMPI PUSH0 PUSH0 REVERT JUMPDEST POP PUSH1 0x4 CALLDATASIZE LT PUSH2 0x4A JUMPI PUSH0 CALLDATALOAD PUSH1 0xE0 SHR DUP1 PUSH4 0x19045A25 EQ PUSH2 0x4E JUMPI DUP1 PUSH4 0x873E1540 EQ PUSH2 0x7E JUMPI DUP1 PUSH4 0xB446F3B2 EQ PUSH2 0xA1 JUMPI DUP1 PUSH4 0xFA540801 EQ PUSH2 0xC2 JUMPI JUMPDEST PUSH0 PUSH0 REVERT JUMPDEST PUSH2 0x61 PUSH2 0x5C CALLDATASIZE PUSH1 0x4 PUSH2 0x313 JUMP JUMPDEST PUSH2 0xD5 JUMP JUMPDEST PUSH1 0x40 MLOAD PUSH1 0x1 PUSH1 0x1 PUSH1 0xA0 SHL SUB SWAP1 SWAP2 AND DUP2 MSTORE PUSH1 0x20 ADD JUMPDEST PUSH1 0x40 MLOAD DUP1 SWAP2 SUB SWAP1 RETURN JUMPDEST PUSH2 0x91 PUSH2 0x8C CALLDATASIZE PUSH1 0x4 PUSH2 0x357 JUMP JUMPDEST PUSH2 0x14F JUMP JUMPDEST PUSH1 0x40 MLOAD SWAP1 ISZERO ISZERO DUP2 MSTORE PUSH1 0x20 ADD PUSH2 0x75 JUMP JUMPDEST PUSH2 0xB4 PUSH2 0xAF CALLDATASIZE PUSH1 0x4 PUSH2 0x3D8 JUMP JUMPDEST PUSH2 0x190 JUMP JUMPDEST PUSH1 0x40 MLOAD SWAP1 DUP2 MSTORE PUSH1 0x20 ADD PUSH2 0x75 JUMP JUMPDEST PUSH2 0xB4 PUSH2 0xD0 CALLDATASIZE PUSH1 0x4 PUSH2 0x412 JUMP JUMPDEST PUSH2 0x1BF JUMP JUMPDEST PUSH0 PUSH0 PUSH0 PUSH0 PUSH2 0xE2 DUP6 PUSH2 0x1F9 JUMP JUMPDEST PUSH1 0x40 DUP1 MLOAD PUSH0 DUP2 MSTORE PUSH1 0x20 DUP2 ADD DUP1 DUP4 MSTORE DUP12 SWAP1 MSTORE PUSH1 0xFF DUP4 AND SWAP2 DUP2 ADD SWAP2 SWAP1 SWAP2 MSTORE PUSH1 0x60 DUP2 ADD DUP5 SWAP1 MSTORE PUSH1 0x80 DUP2 ADD DUP4 SWAP1 MSTORE SWAP3 SWAP6 POP SWAP1 SWAP4 POP SWAP2 POP PUSH1 0x1 SWAP1 PUSH1 0xA0 ADD PUSH1 0x20 PUSH1 0x40 MLOAD PUSH1 0x20 DUP2 SUB SWAP1 DUP1 DUP5 SUB SWAP1 DUP6 GAS STATICCALL ISZERO DUP1 ISZERO PUSH2 0x13A JUMPI RETURNDATASIZE PUSH0 PUSH0 RETURNDATACOPY RETURNDATASIZE PUSH0 REVERT JUMPDEST POP POP PUSH1 0x40 MLOAD PUSH1 0x1F NOT ADD MLOAD SWAP8 SWAP7 POP POP POP POP POP POP POP JUMP JUMPDEST PUSH0 PUSH0 PUSH2 0x15A DUP5 PUSH2 0x190 JUMP JUMPDEST SWAP1 POP PUSH0 PUSH2 0x166 DUP3 PUSH2 0x1BF JUMP JUMPDEST SWAP1 POP DUP6 PUSH1 0x1 PUSH1 0x1 PUSH1 0xA0 SHL SUB AND PUSH2 0x17C DUP3 DUP7 PUSH2 0xD5 JUMP JUMPDEST PUSH1 0x1 PUSH1 0x1 PUSH1 0xA0 SHL SUB AND EQ SWAP7 SWAP6 POP POP POP POP POP POP JUMP JUMPDEST PUSH0 DUP2 PUSH1 0x40 MLOAD PUSH1 0x20 ADD PUSH2 0x1A2 SWAP2 SWAP1 PUSH2 0x429 JUMP JUMPDEST PUSH1 0x40 MLOAD PUSH1 0x20 DUP2 DUP4 SUB SUB DUP2 MSTORE SWAP1 PUSH1 0x40 MSTORE DUP1 MLOAD SWAP1 PUSH1 0x20 ADD KECCAK256 SWAP1 POP SWAP2 SWAP1 POP JUMP JUMPDEST PUSH1 0x40 MLOAD PUSH32 0x19457468657265756D205369676E6564204D6573736167653A0A333200000000 PUSH1 0x20 DUP3 ADD MSTORE PUSH1 0x3C DUP2 ADD DUP3 SWAP1 MSTORE PUSH0 SWAP1 PUSH1 0x5C ADD PUSH2 0x1A2 JUMP JUMPDEST PUSH0 PUSH0 PUSH0 DUP4 MLOAD PUSH1 0x41 EQ PUSH2 0x251 JUMPI PUSH1 0x40 MLOAD PUSH3 0x461BCD PUSH1 0xE5 SHL DUP2 MSTORE PUSH1 0x20 PUSH1 0x4 DUP3 ADD MSTORE PUSH1 0x18 PUSH1 0x24 DUP3 ADD MSTORE PUSH32 0x696E76616C6964207369676E6174757265206C656E6774680000000000000000 PUSH1 0x44 DUP3 ADD MSTORE PUSH1 0x64 ADD PUSH1 0x40 MLOAD DUP1 SWAP2 SUB SWAP1 REVERT JUMPDEST POP POP POP PUSH1 0x20 DUP2 ADD MLOAD PUSH1 0x40 DUP3 ADD MLOAD PUSH1 0x60 SWAP1 SWAP3 ADD MLOAD SWAP1 SWAP3 PUSH0 SWAP2 SWAP1 SWAP2 BYTE SWAP1 JUMP JUMPDEST PUSH4 0x4E487B71 PUSH1 0xE0 SHL PUSH0 MSTORE PUSH1 0x41 PUSH1 0x4 MSTORE PUSH1 0x24 PUSH0 REVERT JUMPDEST PUSH0 DUP3 PUSH1 0x1F DUP4 ADD SLT PUSH2 0x291 JUMPI PUSH0 PUSH0 REVERT JUMPDEST DUP2 CALLDATALOAD PUSH1 0x20 DUP4 ADD PUSH0 PUSH0 PUSH8 0xFFFFFFFFFFFFFFFF DUP5 GT ISZERO PUSH2 0x2B1 JUMPI PUSH2 0x2B1 PUSH2 0x26E JUMP JUMPDEST POP PUSH1 0x40 MLOAD PUSH1 0x1F NOT PUSH1 0x1F DUP6 ADD DUP2 AND PUSH1 0x3F ADD AND DUP2 ADD DUP2 DUP2 LT PUSH8 0xFFFFFFFFFFFFFFFF DUP3 GT OR ISZERO PUSH2 0x2E0 JUMPI PUSH2 0x2E0 PUSH2 0x26E JUMP JUMPDEST PUSH1 0x40 MSTORE DUP4 DUP2 MSTORE SWAP1 POP DUP1 DUP3 DUP5 ADD DUP8 LT ISZERO PUSH2 0x2F7 JUMPI PUSH0 PUSH0 REVERT JUMPDEST DUP4 DUP4 PUSH1 0x20 DUP4 ADD CALLDATACOPY PUSH0 PUSH1 0x20 DUP6 DUP4 ADD ADD MSTORE DUP1 SWAP5 POP POP POP POP POP SWAP3 SWAP2 POP POP JUMP JUMPDEST PUSH0 PUSH0 PUSH1 0x40 DUP4 DUP6 SUB SLT ISZERO PUSH2 0x324 JUMPI PUSH0 PUSH0 REVERT JUMPDEST DUP3 CALLDATALOAD SWAP2 POP PUSH1 0x20 DUP4 ADD CALLDATALOAD PUSH8 0xFFFFFFFFFFFFFFFF DUP2 GT ISZERO PUSH2 0x341 JUMPI PUSH0 PUSH0 REVERT JUMPDEST PUSH2 0x34D DUP6 DUP3 DUP7 ADD PUSH2 0x282 JUMP JUMPDEST SWAP2 POP POP SWAP3 POP SWAP3 SWAP1 POP JUMP JUMPDEST PUSH0 PUSH0 PUSH0 PUSH1 0x60 DUP5 DUP7 SUB SLT ISZERO PUSH2 0x369 JUMPI PUSH0 PUSH0 REVERT JUMPDEST DUP4 CALLDATALOAD PUSH1 0x1 PUSH1 0x1 PUSH1 0xA0 SHL SUB DUP2 AND DUP2 EQ PUSH2 0x37F JUMPI PUSH0 PUSH0 REVERT JUMPDEST SWAP3 POP PUSH1 0x20 DUP5 ADD CALLDATALOAD PUSH8 0xFFFFFFFFFFFFFFFF DUP2 GT ISZERO PUSH2 0x39A JUMPI PUSH0 PUSH0 REVERT JUMPDEST PUSH2 0x3A6 DUP7 DUP3 DUP8 ADD PUSH2 0x282 JUMP JUMPDEST SWAP3 POP POP PUSH1 0x40 DUP5 ADD CALLDATALOAD PUSH8 0xFFFFFFFFFFFFFFFF DUP2 GT ISZERO PUSH2 0x3C2 JUMPI PUSH0 PUSH0 REVERT JUMPDEST PUSH2 0x3CE DUP7 DUP3 DUP8 ADD PUSH2 0x282 JUMP JUMPDEST SWAP2 POP POP SWAP3 POP SWAP3 POP SWAP3 JUMP JUMPDEST PUSH0 PUSH1 0x20 DUP3 DUP5 SUB SLT ISZERO PUSH2 0x3E8 JUMPI PUSH0 PUSH0 REVERT JUMPDEST DUP2 CALLDATALOAD PUSH8 0xFFFFFFFFFFFFFFFF DUP2 GT ISZERO PUSH2 0x3FE JUMPI PUSH0 PUSH0 REVERT JUMPDEST PUSH2 0x40A DUP5 DUP3 DUP6 ADD PUSH2 0x282 JUMP JUMPDEST SWAP5 SWAP4 POP POP POP POP JUMP JUMPDEST PUSH0 PUSH1 0x20 DUP3 DUP5 SUB SLT ISZERO PUSH2 0x422 JUMPI PUSH0 PUSH0 REVERT JUMPDEST POP CALLDATALOAD SWAP2 SWAP1 POP JUMP JUMPDEST PUSH0 DUP3 MLOAD DUP1 PUSH1 0x20 DUP6 ADD DUP5 MCOPY PUSH0 SWAP3 ADD SWAP2 DUP3 MSTORE POP SWAP2 SWAP1 POP JUMP INVALID LOG2 PUSH5 0x6970667358 0x22 SLT KECCAK256 0xF7 BLOBBASEFEE GT REVERT DATALOADN 0xE52F 0xD9 MSTORE8 0xEA 0xC SMOD NUMBER BASEFEE SWAP4 BASEFEE GT PUSH1 0x82 LOG3 0x29 0xD3 SELFDESTRUCT SELFBALANCE SSTORE 0x2C 0x2A PUSH6 0x1D166C246473 PUSH16 0x6C634300081D00330000000000000000 "
				},
				"gasEstimates": {
					"creation": {
						"codeDepositCost": "228200",
						"executionCost": "267",
						"totalCost": "228467"
					},
					"external": {
						"getEthSignedMessageHash(bytes32)": "497",
						"getMessageHash(string)": "infinite",
						"recover(bytes32,bytes)": "infinite",
						"verigy(address,string,bytes)": "infinite"
					},
					"internal": {
						"_split(bytes memory)": "infinite"
					}
				},
				"methodIdentifiers": {
					"getEthSignedMessageHash(bytes32)": "fa540801",
					"getMessageHash(string)": "b446f3b2",
					"recover(bytes32,bytes)": "19045a25",
					"verigy(address,string,bytes)": "873e1540"
				}
			},
			"storageLayout": {
				"storage": [],
				"types": null
			},
			"userdoc": {
				"kind": "user",
				"methods": {},
				"version": 1
			}
		}
	}
}