{
	"Ownable.sol": {
		"Ownable": {
			"abi": [
				{
					"inputs": [],
					"stateMutability": "nonpayable",
					"type": "constructor"
				},
				{
					"inputs": [],
					"name": "allOwnerCanCallFunc",
					"outputs": [],
					"stateMutability": "nonpayable",
					"type": "function"
				},
				{
					"inputs": [],
					"name": "onlyOwnerCanCallFunc",
					"outputs": [],
					"stateMutability": "nonpayable",
					"type": "function"
				},
				{
					"inputs": [],
					"name": "owner",
					"outputs": [
						{
							"internalType": "address",
							"name": "",
							"type": "address"
						}
					],
					"stateMutability": "view",
					"type": "function"
				},
				{
					"inputs": [
						{
							"internalType": "address",
							"name": "_newOwner",
							"type": "address"
						}
					],
					"name": "setOwner",
					"outputs": [],
					"stateMutability": "nonpayable",
					"type": "function"
				}
			],
			"devdoc": {
				"kind": "dev",
				"methods": {},
				"version": 1
			},
			"evm": {
				"assembly": "    /* \"Ownable.sol\":158:714  contract Ownable {... */\n  mstore(0x40, 0x80)\n    /* \"Ownable.sol\":213:264  constructor() {... */\n  callvalue\n  dup1\n  iszero\n  tag_1\n  jumpi\n  revert(0x00, 0x00)\ntag_1:\n  pop\n    /* \"Ownable.sol\":238:243  owner */\n  0x00\n    /* \"Ownable.sol\":238:256  owner = msg.sender */\n  dup1\n  sload\n  not(sub(shl(0xa0, 0x01), 0x01))\n  and\n    /* \"Ownable.sol\":246:256  msg.sender */\n  caller\n    /* \"Ownable.sol\":238:256  owner = msg.sender */\n  or\n  swap1\n  sstore\n    /* \"Ownable.sol\":158:714  contract Ownable {... */\n  dataSize(sub_0)\n  dup1\n  dataOffset(sub_0)\n  0x00\n  codecopy\n  0x00\n  return\nstop\n\nsub_0: assembly {\n        /* \"Ownable.sol\":158:714  contract Ownable {... */\n      mstore(0x40, 0x80)\n      callvalue\n      dup1\n      iszero\n      tag_1\n      jumpi\n      revert(0x00, 0x00)\n    tag_1:\n      pop\n      jumpi(tag_2, lt(calldatasize, 0x04))\n      shr(0xe0, calldataload(0x00))\n      dup1\n      0x13af4035\n      eq\n      tag_3\n      jumpi\n      dup1\n      0x8da5cb5b\n      eq\n      tag_4\n      jumpi\n      dup1\n      0xf0a51d20\n      eq\n      tag_7\n      jumpi\n      dup1\n      0xfa4e30ba\n      eq\n      tag_6\n      jumpi\n    tag_2:\n      revert(0x00, 0x00)\n        /* \"Ownable.sol\":424:576  function setOwner(address _newOwner) external onlyOwner {... */\n    tag_3:\n      tag_7\n      tag_8\n      calldatasize\n      0x04\n      tag_9\n      jump\t// in\n    tag_8:\n      tag_10\n      jump\t// in\n    tag_7:\n      stop\n        /* \"Ownable.sol\":184:204  address public owner */\n    tag_4:\n      sload(0x00)\n      tag_11\n      swap1\n      sub(shl(0xa0, 0x01), 0x01)\n      and\n      dup2\n      jump\n    tag_11:\n      mload(0x40)\n      sub(shl(0xa0, 0x01), 0x01)\n        /* \"#utility.yul\":469:501   */\n      swap1\n      swap2\n      and\n        /* \"#utility.yul\":451:502   */\n      dup2\n      mstore\n        /* \"#utility.yul\":439:441   */\n      0x20\n        /* \"#utility.yul\":424:442   */\n      add\n        /* \"Ownable.sol\":184:204  address public owner */\n      mload(0x40)\n      dup1\n      swap2\n      sub\n      swap1\n      return\n        /* \"Ownable.sol\":590:650  function onlyOwnerCanCallFunc() external onlyOwner{... */\n    tag_6:\n      tag_7\n      tag_18\n      jump\t// in\n        /* \"Ownable.sol\":424:576  function setOwner(address _newOwner) external onlyOwner {... */\n    tag_10:\n        /* \"Ownable.sol\":378:383  owner */\n      and(sub(shl(0xa0, 0x01), 0x01), sload(0x00))\n        /* \"Ownable.sol\":364:374  msg.sender */\n      caller\n        /* \"Ownable.sol\":364:383  msg.sender == owner */\n      eq\n        /* \"Ownable.sol\":356:396  require(msg.sender == owner,\"not owner\") */\n      tag_20\n      jumpi\n      mload(0x40)\n      shl(0xe5, 0x461bcd)\n      dup2\n      mstore\n        /* \"#utility.yul\":715:717   */\n      0x20\n        /* \"Ownable.sol\":356:396  require(msg.sender == owner,\"not owner\") */\n      0x04\n      dup3\n      add\n        /* \"#utility.yul\":697:718   */\n      mstore\n        /* \"#utility.yul\":754:755   */\n      0x09\n        /* \"#utility.yul\":734:752   */\n      0x24\n      dup3\n      add\n        /* \"#utility.yul\":727:756   */\n      mstore\n      shl(0xb9, 0x3737ba1037bbb732b9)\n        /* \"#utility.yul\":772:790   */\n      0x44\n      dup3\n      add\n        /* \"#utility.yul\":765:804   */\n      mstore\n        /* \"#utility.yul\":821:839   */\n      0x64\n      add\n        /* \"Ownable.sol\":356:396  require(msg.sender == owner,\"not owner\") */\n    tag_21:\n      mload(0x40)\n      dup1\n      swap2\n      sub\n      swap1\n      revert\n    tag_20:\n      sub(shl(0xa0, 0x01), 0x01)\n        /* \"Ownable.sol\":499:522  _newOwner != address(0) */\n      dup2\n      and\n        /* \"Ownable.sol\":491:542  require(_newOwner != address(0),\"invalid address\" ) */\n      tag_24\n      jumpi\n      mload(0x40)\n      shl(0xe5, 0x461bcd)\n      dup2\n      mstore\n        /* \"#utility.yul\":1052:1054   */\n      0x20\n        /* \"Ownable.sol\":491:542  require(_newOwner != address(0),\"invalid address\" ) */\n      0x04\n      dup3\n      add\n        /* \"#utility.yul\":1034:1055   */\n      mstore\n        /* \"#utility.yul\":1091:1093   */\n      0x0f\n        /* \"#utility.yul\":1071:1089   */\n      0x24\n      dup3\n      add\n        /* \"#utility.yul\":1064:1094   */\n      mstore\n      shl(0x88, 0x696e76616c69642061646472657373)\n        /* \"#utility.yul\":1110:1128   */\n      0x44\n      dup3\n      add\n        /* \"#utility.yul\":1103:1148   */\n      mstore\n        /* \"#utility.yul\":1165:1183   */\n      0x64\n      add\n        /* \"Ownable.sol\":491:542  require(_newOwner != address(0),\"invalid address\" ) */\n      tag_21\n        /* \"#utility.yul\":850:1189   */\n      jump\n        /* \"Ownable.sol\":491:542  require(_newOwner != address(0),\"invalid address\" ) */\n    tag_24:\n        /* \"Ownable.sol\":553:558  owner */\n      0x00\n        /* \"Ownable.sol\":553:568  owner=_newOwner */\n      dup1\n      sload\n      not(sub(shl(0xa0, 0x01), 0x01))\n      and\n      sub(shl(0xa0, 0x01), 0x01)\n      swap3\n      swap1\n      swap3\n      and\n      swap2\n      swap1\n      swap2\n      or\n      swap1\n      sstore\n        /* \"Ownable.sol\":424:576  function setOwner(address _newOwner) external onlyOwner {... */\n      jump\t// out\n        /* \"Ownable.sol\":658:707  function allOwnerCanCallFunc() external{... */\n    tag_16:\n      jump\t// out\n        /* \"Ownable.sol\":590:650  function onlyOwnerCanCallFunc() external onlyOwner{... */\n    tag_18:\n        /* \"Ownable.sol\":378:383  owner */\n      and(sub(shl(0xa0, 0x01), 0x01), sload(0x00))\n        /* \"Ownable.sol\":364:374  msg.sender */\n      caller\n        /* \"Ownable.sol\":364:383  msg.sender == owner */\n      eq\n        /* \"Ownable.sol\":356:396  require(msg.sender == owner,\"not owner\") */\n      tag_16\n      jumpi\n      mload(0x40)\n      shl(0xe5, 0x461bcd)\n      dup2\n      mstore\n        /* \"#utility.yul\":715:717   */\n      0x20\n        /* \"Ownable.sol\":356:396  require(msg.sender == owner,\"not owner\") */\n      0x04\n      dup3\n      add\n        /* \"#utility.yul\":697:718   */\n      mstore\n        /* \"#utility.yul\":754:755   */\n      0x09\n        /* \"#utility.yul\":734:752   */\n      0x24\n      dup3\n      add\n        /* \"#utility.yul\":727:756   */\n      mstore\n      shl(0xb9, 0x3737ba1037bbb732b9)\n        /* \"#utility.yul\":772:790   */\n      0x44\n      dup3\n      add\n        /* \"#utility.yul\":765:804   */\n      mstore\n        /* \"#utility.yul\":821:839   */\n      0x64\n      add\n        /* \"Ownable.sol\":356:396  require(msg.sender == owner,\"not owner\") */\n      tag_21\n        /* \"#utility.yul\":513:845   */\n      jump\n        /* \"#utility.yul\":14:300   */\n    tag_9:\n        /* \"#utility.yul\":73:79   */\n      0x00\n        /* \"#utility.yul\":126:128   */\n      0x20\n        /* \"#utility.yul\":114:123   */\n      dup3\n        /* \"#utility.yul\":105:112   */\n      dup5\n        /* \"#utility.yul\":101:124   */\n      sub\n        /* \"#utility.yul\":97:129   */\n      slt\n        /* \"#utility.yul\":94:146   */\n      iszero\n      tag_34\n      jumpi\n        /* \"#utility.yul\":142:143   */\n      0x00\n        /* \"#utility.yul\":139:140   */\n      0x00\n        /* \"#utility.yul\":132:144   */\n      revert\n        /* \"#utility.yul\":94:146   */\n    tag_34:\n        /* \"#utility.yul\":168:191   */\n      dup2\n      calldataload\n      sub(shl(0xa0, 0x01), 0x01)\n        /* \"#utility.yul\":220:251   */\n      dup2\n      and\n        /* \"#utility.yul\":210:252   */\n      dup2\n      eq\n        /* \"#utility.yul\":200:270   */\n      tag_35\n      jumpi\n        /* \"#utility.yul\":266:267   */\n      0x00\n        /* \"#utility.yul\":263:264   */\n      0x00\n        /* \"#utility.yul\":256:268   */\n      revert\n        /* \"#utility.yul\":200:270   */\n    tag_35:\n        /* \"#utility.yul\":289:294   */\n      swap4\n        /* \"#utility.yul\":14:300   */\n      swap3\n      pop\n      pop\n      pop\n      jump\t// out\n\n    auxdata: 0xa264697066735822122073f761b6eb95c5f061747943bfa0d9ca9d8c2bfec7939d4adbd7737a9784ab6a64736f6c634300081d0033\n}\n",
				"bytecode": {
					"linkReferences": {},
					"object": "6080604052348015600e575f5ffd5b505f80546001600160a01b031916331790556101f68061002d5f395ff3fe608060405234801561000f575f5ffd5b506004361061004a575f3560e01c806313af40351461004e5780638da5cb5b14610063578063f0a51d2014610061578063fa4e30ba14610091575b5f5ffd5b61006161005c366004610193565b610099565b005b5f54610075906001600160a01b031681565b6040516001600160a01b03909116815260200160405180910390f35b61006161014e565b5f546001600160a01b031633146100e35760405162461bcd60e51b81526020600482015260096024820152683737ba1037bbb732b960b91b60448201526064015b60405180910390fd5b6001600160a01b03811661012b5760405162461bcd60e51b815260206004820152600f60248201526e696e76616c6964206164647265737360881b60448201526064016100da565b5f80546001600160a01b0319166001600160a01b0392909216919091179055565b565b5f546001600160a01b0316331461014c5760405162461bcd60e51b81526020600482015260096024820152683737ba1037bbb732b960b91b60448201526064016100da565b5f602082840312156101a3575f5ffd5b81356001600160a01b03811681146101b9575f5ffd5b939250505056fea264697066735822122073f761b6eb95c5f061747943bfa0d9ca9d8c2bfec7939d4adbd7737a9784ab6a64736f6c634300081d0033",
					"opcodes": "PUSH1 0x80 PUSH1 0x40 MSTORE CALLVALUE DUP1 ISZERO PUSH1 0xE JUMPI PUSH0 PUSH0 REVERT JUMPDEST POP PUSH0 DUP1 SLOAD PUSH1 0x1 PUSH1 0x1 PUSH1 0xA0 SHL SUB NOT AND CALLER OR SWAP1 SSTORE PUSH2 0x1F6 DUP1 PUSH2 0x2D PUSH0 CODECOPY PUSH0 RETURN INVALID PUSH1 0x80 PUSH1 0x40 MSTORE CALLVALUE DUP1 ISZERO PUSH2 0xF JUMPI PUSH0 PUSH0 REVERT JUMPDEST POP PUSH1 0x4 CALLDATASIZE LT PUSH2 0x4A JUMPI PUSH0 CALLDATALOAD PUSH1 0xE0 SHR DUP1 PUSH4 0x13AF4035 EQ PUSH2 0x4E JUMPI DUP1 PUSH4 0x8DA5CB5B EQ PUSH2 0x63 JUMPI DUP1 PUSH4 0xF0A51D20 EQ PUSH2 0x61 JUMPI DUP1 PUSH4 0xFA4E30BA EQ PUSH2 0x91 JUMPI JUMPDEST PUSH0 PUSH0 REVERT JUMPDEST PUSH2 0x61 PUSH2 0x5C CALLDATASIZE PUSH1 0x4 PUSH2 0x193 JUMP JUMPDEST PUSH2 0x99 JUMP JUMPDEST STOP JUMPDEST PUSH0 SLOAD PUSH2 0x75 SWAP1 PUSH1 0x1 PUSH1 0x1 PUSH1 0xA0 SHL SUB AND DUP2 JUMP JUMPDEST PUSH1 0x40 MLOAD PUSH1 0x1 PUSH1 0x1 PUSH1 0xA0 SHL SUB SWAP1 SWAP2 AND DUP2 MSTORE PUSH1 0x20 ADD PUSH1 0x40 MLOAD DUP1 SWAP2 SUB SWAP1 RETURN JUMPDEST PUSH2 0x61 PUSH2 0x14E JUMP JUMPDEST PUSH0 SLOAD PUSH1 0x1 PUSH1 0x1 PUSH1 0xA0 SHL SUB AND CALLER EQ PUSH2 0xE3 JUMPI PUSH1 0x40 MLOAD PUSH3 0x461BCD PUSH1 0xE5 SHL DUP2 MSTORE PUSH1 0x20 PUSH1 0x4 DUP3 ADD MSTORE PUSH1 0x9 PUSH1 0x24 DUP3 ADD MSTORE PUSH9 0x3737BA1037BBB732B9 PUSH1 0xB9 SHL PUSH1 0x44 DUP3 ADD MSTORE PUSH1 0x64 ADD JUMPDEST PUSH1 0x40 MLOAD DUP1 SWAP2 SUB SWAP1 REVERT JUMPDEST PUSH1 0x1 PUSH1 0x1 PUSH1 0xA0 SHL SUB DUP2 AND PUSH2 0x12B JUMPI PUSH1 0x40 MLOAD PUSH3 0x461BCD PUSH1 0xE5 SHL DUP2 MSTORE PUSH1 0x20 PUSH1 0x4 DUP3 ADD MSTORE PUSH1 0xF PUSH1 0x24 DUP3 ADD MSTORE PUSH15 0x696E76616C69642061646472657373 PUSH1 0x88 SHL PUSH1 0x44 DUP3 ADD MSTORE PUSH1 0x64 ADD PUSH2 0xDA JUMP JUMPDEST PUSH0 DUP1 SLOAD PUSH1 0x1 PUSH1 0x1 PUSH1 0xA0 SHL SUB NOT AND PUSH1 0x1 PUSH1 0x1 PUSH1 0xA0 SHL SUB SWAP3 SWAP1 SWAP3 AND SWAP2 SWAP1 SWAP2 OR SWAP1 SSTORE JUMP JUMPDEST JUMP JUMPDEST PUSH0 SLOAD PUSH1 0x1 PUSH1 0x1 PUSH1 0xA0 SHL SUB AND CALLER EQ PUSH2 0x14C JUMPI PUSH1 0x40 MLOAD PUSH3 0x461BCD PUSH1 0xE5 SHL DUP2 MSTORE PUSH1 0x20 PUSH1 0x4 DUP3 ADD MSTORE PUSH1 0x9 PUSH1 0x24 DUP3 ADD MSTORE PUSH9 0x3737BA1037BBB732B9 PUSH1 0xB9 SHL PUSH1 0x44 DUP3 ADD MSTORE PUSH1 0x64 ADD PUSH2 0xDA JUMP JUMPDEST PUSH0 PUSH1 0x20 DUP3 DUP5 SUB SLT ISZERO PUSH2 0x1A3 JUMPI PUSH0 PUSH0 REVERT JUMPDEST DUP2 CALLDATALOAD PUSH1 0x1 PUSH1 0x1 PUSH1 0xA0 SHL SUB DUP2 AND DUP2 EQ PUSH2 0x1B9 JUMPI PUSH0 PUSH0 REVERT JUMPDEST SWAP4 SWAP3 POP POP POP JUMP INVALID LOG2 PUSH5 0x6970667358 0x22 SLT KECCAK256 PUSH20 0xF761B6EB95C5F061747943BFA0D9CA9D8C2BFEC7 SWAP4 SWAP14 BLOBBASEFEE 0xDB 0xD7 PUSH20 0x7A9784AB6A64736F6C634300081D003300000000 "
				},
				"gasEstimates": {
					"creation": {
						"codeDepositCost": "100400",
						"executionCost": "24379",
						"totalCost": "124779"
					},
					"external": {
						"allOwnerCanCallFunc()": "141",
						"onlyOwnerCanCallFunc()": "2439",
						"owner()": "2323",
						"setOwner(address)": "26685"
					}
				},
				"methodIdentifiers": {
					"allOwnerCanCallFunc()": "f0a51d20",
					"onlyOwnerCanCallFunc()": "fa4e30ba",
					"owner()": "8da5cb5b",
					"setOwner(address)": "13af4035"
				}
			},
			"storageLayout": {
				"storage": [
					{
						"astId": 3,
						"contract": "Ownable.sol:Ownable",
						"label": "owner",
						"offset": 0,
						"slot": "0",
						"type": "t_address"
					}
				],
				"types": {
					"t_address": {
						"encoding": "inplace",
						"label": "address",
						"numberOfBytes": "20"
					}
				}
			},
			"userdoc": {
				"kind": "user",
				"methods": {},
				"version": 1
			}
		}
	}
}