{
	"Structs.sol": {
		"Structs": {
			"abi": [
				{
					"inputs": [],
					"name": "car",
					"outputs": [
						{
							"internalType": "string",
							"name": "model",
							"type": "string"
						},
						{
							"internalType": "uint256",
							"name": "year",
							"type": "uint256"
						},
						{
							"internalType": "address",
							"name": "owner",
							"type": "address"
						}
					],
					"stateMutability": "view",
					"type": "function"
				},
				{
					"inputs": [
						{
							"internalType": "uint256",
							"name": "",
							"type": "uint256"
						}
					],
					"name": "cars",
					"outputs": [
						{
							"internalType": "string",
							"name": "model",
							"type": "string"
						},
						{
							"internalType": "uint256",
							"name": "year",
							"type": "uint256"
						},
						{
							"internalType": "address",
							"name": "owner",
							"type": "address"
						}
					],
					"stateMutability": "view",
					"type": "function"
				},
				{
					"inputs": [
						{
							"internalType": "address",
							"name": "",
							"type": "address"
						},
						{
							"internalType": "uint256",
							"name": "",
							"type": "uint256"
						}
					],
					"name": "carsByOwner",
					"outputs": [
						{
							"internalType": "string",
							"name": "model",
							"type": "string"
						},
						{
							"internalType": "uint256",
							"name": "year",
							"type": "uint256"
						},
						{
							"internalType": "address",
							"name": "owner",
							"type": "address"
						}
					],
					"stateMutability": "view",
					"type": "function"
				},
				{
					"inputs": [],
					"name": "examples",
					"outputs": [
						{
							"internalType": "string",
							"name": "",
							"type": "string"
						},
						{
							"internalType": "uint256",
							"name": "",
							"type": "uint256"
						},
						{
							"internalType": "address",
							"name": "",
							"type": "address"
						}
					],
					"stateMutability": "nonpayable",
					"type": "function"
				}
			],
			"devdoc": {
				"kind": "dev",
				"methods": {},
				"version": 1
			},
			"evm": {
				"assembly": "    /* \"Structs.sol\":60:977  contract Structs {... */\n  mstore(0x40, 0x80)\n  callvalue\n  dup1\n  iszero\n  tag_1\n  jumpi\n  revert(0x00, 0x00)\ntag_1:\n  pop\n  dataSize(sub_0)\n  dup1\n  dataOffset(sub_0)\n  0x00\n  codecopy\n  0x00\n  return\nstop\n\nsub_0: assembly {\n        /* \"Structs.sol\":60:977  contract Structs {... */\n      mstore(0x40, 0x80)\n      callvalue\n      dup1\n      iszero\n      tag_1\n      jumpi\n      revert(0x00, 0x00)\n    tag_1:\n      pop\n      jumpi(tag_2, lt(calldatasize, 0x04))\n      shr(0xe0, calldataload(0x00))\n      dup1\n      0x335d00c2\n      eq\n      tag_3\n      jumpi\n      dup1\n      0xaa9fb6c8\n      eq\n      tag_4\n      jumpi\n      dup1\n      0xee26fac3\n      eq\n      tag_5\n      jumpi\n      dup1\n      0xf7746e36\n      eq\n      tag_6\n      jumpi\n    tag_2:\n      revert(0x00, 0x00)\n        /* \"Structs.sol\":274:972  function examples() external returns(string memory,uint,address){... */\n    tag_3:\n      tag_7\n      tag_8\n      jump\t// in\n    tag_7:\n      mload(0x40)\n      tag_9\n      swap4\n      swap3\n      swap2\n      swap1\n      tag_10\n      jump\t// in\n    tag_9:\n      mload(0x40)\n      dup1\n      swap2\n      sub\n      swap1\n      return\n        /* \"Structs.sol\":224:267  mapping (address=>Car[]) public carsByOwner */\n    tag_4:\n      tag_7\n      tag_12\n      calldatasize\n      0x04\n      tag_13\n      jump\t// in\n    tag_12:\n      tag_14\n      jump\t// in\n        /* \"Structs.sol\":179:193  Car public car */\n    tag_5:\n      tag_7\n      tag_17\n      jump\t// in\n        /* \"Structs.sol\":200:217  Car[] public cars */\n    tag_6:\n      tag_7\n      tag_20\n      calldatasize\n      0x04\n      tag_21\n      jump\t// in\n    tag_20:\n      tag_22\n      jump\t// in\n        /* \"Structs.sol\":274:972  function examples() external returns(string memory,uint,address){... */\n    tag_8:\n        /* \"Structs.sol\":367:396  Car(\"Toyota\",2015,msg.sender) */\n      0x40\n      dup1\n      mload\n      0xa0\n      dup1\n      dup3\n      add\n      dup4\n      mstore\n      0x06\n        /* \"Structs.sol\":311:324  string memory */\n      0x60\n        /* \"Structs.sol\":367:396  Car(\"Toyota\",2015,msg.sender) */\n      dup1\n      dup5\n      add\n      swap2\n      dup3\n      mstore\n      shl(0xd0, 0x546f796f7461)\n      0x80\n      dup1\n      dup7\n      add\n      swap2\n      swap1\n      swap2\n      mstore\n      swap2\n      dup5\n      mstore\n        /* \"Structs.sol\":380:384  2015 */\n      0x07df\n        /* \"Structs.sol\":367:396  Car(\"Toyota\",2015,msg.sender) */\n      0x20\n      dup1\n      dup7\n      add\n      swap2\n      swap1\n      swap2\n      mstore\n        /* \"Structs.sol\":385:395  msg.sender */\n      caller\n        /* \"Structs.sol\":367:396  Car(\"Toyota\",2015,msg.sender) */\n      dup6\n      dup8\n      add\n      dup2\n      swap1\n      mstore\n        /* \"Structs.sol\":425:477  Car({year:1980,model:\"lamboghini\",owner:msg.sender}) */\n      dup7\n      mload\n      swap5\n      dup6\n      add\n      dup8\n      mstore\n      0x0a\n      dup6\n      dup5\n      add\n      swap1\n      dup2\n      mstore\n      shl(0xb0, 0x6c616d626f6768696e69)\n      swap5\n      dup7\n      add\n      swap5\n      swap1\n      swap5\n      mstore\n      swap3\n      dup5\n      mstore\n        /* \"Structs.sol\":435:439  1980 */\n      0x07bc\n        /* \"Structs.sol\":425:477  Car({year:1980,model:\"lamboghini\",owner:msg.sender}) */\n      dup5\n      dup3\n      add\n      mstore\n      dup4\n      dup7\n      add\n      dup4\n      swap1\n      mstore\n      dup6\n      mload\n      dup1\n      dup4\n      add\n      dup8\n      mstore\n      dup3\n      dup2\n      mstore\n      0x00\n      dup2\n      dup4\n      add\n      dup2\n      dup2\n      mstore\n      dup3\n      dup10\n      add\n      dup3\n      dup2\n      mstore\n        /* \"Structs.sol\":515:534  tesla.model=\"tesla\" */\n      dup10\n      mload\n      dup1\n      dup12\n      add\n      swap1\n      swap11\n      mstore\n      0x05\n      dup11\n      mstore\n      shl(0xd8, 0x7465736c61)\n      swap5\n      dup11\n      add\n      swap5\n      swap1\n      swap5\n      mstore\n      swap8\n      dup3\n      mstore\n        /* \"Structs.sol\":556:560  2010 */\n      0x07da\n        /* \"Structs.sol\":545:560  tesla.year=2010 */\n      swap1\n      swap8\n      mstore\n        /* \"Structs.sol\":571:593  tesla.owner=msg.sender */\n      swap3\n      swap1\n      mstore\n        /* \"Structs.sol\":604:608  cars */\n      0x03\n        /* \"Structs.sol\":604:621  cars.push(toyota) */\n      dup1\n      sload\n      0x01\n      dup2\n      add\n      dup3\n      sstore\n      dup2\n      dup8\n      mstore\n      dup6\n      mload\n        /* \"Structs.sol\":311:324  string memory */\n      swap3\n      swap7\n      swap6\n      dup7\n      swap6\n        /* \"Structs.sol\":367:396  Car(\"Toyota\",2015,msg.sender) */\n      swap1\n      swap5\n        /* \"Structs.sol\":425:477  Car({year:1980,model:\"lamboghini\",owner:msg.sender}) */\n      swap1\n      swap4\n      swap1\n      swap3\n        /* \"Structs.sol\":367:396  Car(\"Toyota\",2015,msg.sender) */\n      dup6\n      swap3\n        /* \"Structs.sol\":604:621  cars.push(toyota) */\n      mul\n      mload(0x00)\n      codecopy(0x00, data_2584db4a68aa8b172f70bc04e2e74541617c003374de6eb4b295e823e5beab01, 0x20)\n      mload(0x00)\n      swap1\n      0x00\n      mstore\n      add\n      swap1\n      dup2\n      swap1\n      tag_28\n      swap1\n      dup3\n      tag_29\n      jump\t// in\n    tag_28:\n      pop\n      0x20\n      dup3\n      add\n      mload\n      0x01\n      dup1\n      dup4\n      add\n      swap2\n      swap1\n      swap2\n      sstore\n      0x40\n      swap1\n      swap3\n      add\n      mload\n      0x02\n      swap1\n      swap2\n      add\n      dup1\n      sload\n      sub(shl(0xa0, 0x01), 0x01)\n      swap1\n      swap3\n      and\n      not(sub(shl(0xa0, 0x01), 0x01))\n      swap1\n      swap3\n      and\n      swap2\n      swap1\n      swap2\n      or\n      swap1\n      sstore\n        /* \"Structs.sol\":632:636  cars */\n      0x03\n        /* \"Structs.sol\":632:648  cars.push(lambo) */\n      dup1\n      sload\n      swap2\n      dup3\n      add\n      dup2\n      sstore\n        /* \"Structs.sol\":604:621  cars.push(toyota) */\n      0x00\n        /* \"Structs.sol\":632:648  cars.push(lambo) */\n      dup2\n      swap1\n      mstore\n      dup4\n      mload\n        /* \"Structs.sol\":642:647  lambo */\n      dup5\n      swap3\n        /* \"Structs.sol\":632:648  cars.push(lambo) */\n      swap1\n      swap2\n      mul\n      mload(0x00)\n      codecopy(0x00, data_2584db4a68aa8b172f70bc04e2e74541617c003374de6eb4b295e823e5beab01, 0x20)\n      mload(0x00)\n      swap1\n      0x00\n      mstore\n      add\n      swap1\n      dup2\n      swap1\n      tag_31\n      swap1\n      dup3\n      tag_29\n      jump\t// in\n    tag_31:\n      pop\n      0x20\n      dup3\n      add\n      mload\n      0x01\n      dup1\n      dup4\n      add\n      swap2\n      swap1\n      swap2\n      sstore\n      0x40\n      swap1\n      swap3\n      add\n      mload\n      0x02\n      swap1\n      swap2\n      add\n      dup1\n      sload\n      sub(shl(0xa0, 0x01), 0x01)\n      swap1\n      swap3\n      and\n      not(sub(shl(0xa0, 0x01), 0x01))\n      swap1\n      swap3\n      and\n      swap2\n      swap1\n      swap2\n      or\n      swap1\n      sstore\n        /* \"Structs.sol\":659:663  cars */\n      0x03\n        /* \"Structs.sol\":659:675  cars.push(tesla) */\n      dup1\n      sload\n      swap2\n      dup3\n      add\n      dup2\n      sstore\n        /* \"Structs.sol\":632:648  cars.push(lambo) */\n      0x00\n        /* \"Structs.sol\":659:675  cars.push(tesla) */\n      dup2\n      swap1\n      mstore\n      dup3\n      mload\n        /* \"Structs.sol\":669:674  tesla */\n      dup4\n      swap3\n        /* \"Structs.sol\":659:675  cars.push(tesla) */\n      swap1\n      swap2\n      mul\n      mload(0x00)\n      codecopy(0x00, data_2584db4a68aa8b172f70bc04e2e74541617c003374de6eb4b295e823e5beab01, 0x20)\n      mload(0x00)\n      swap1\n      0x00\n      mstore\n      add\n      swap1\n      dup2\n      swap1\n      tag_33\n      swap1\n      dup3\n      tag_29\n      jump\t// in\n    tag_33:\n      pop\n      0x20\n      dup3\n      dup2\n      add\n      mload\n      0x01\n      dup1\n      dup5\n      add\n      swap2\n      swap1\n      swap2\n      sstore\n      0x40\n      swap4\n      dup5\n      add\n      mload\n      0x02\n      swap1\n      swap4\n      add\n      dup1\n      sload\n      sub(shl(0xa0, 0x01), 0x01)\n      swap1\n      swap5\n      and\n      not(sub(shl(0xa0, 0x01), 0x01))\n      swap1\n      swap5\n      and\n      swap4\n      swap1\n      swap4\n      or\n      swap1\n      swap3\n      sstore\n        /* \"Structs.sol\":696:726  Car(\"Ferrari\",2020,msg.sender) */\n      dup3\n      mload\n      0xa0\n      dup2\n      add\n      dup5\n      mstore\n      0x07\n      0x60\n      dup3\n      add\n      swap1\n      dup2\n      mstore\n      shl(0xc8, 0x46657272617269)\n      0x80\n      dup4\n      add\n      mstore\n      dup2\n      mstore\n        /* \"Structs.sol\":710:714  2020 */\n      0x07e4\n        /* \"Structs.sol\":696:726  Car(\"Ferrari\",2020,msg.sender) */\n      swap2\n      dup2\n      add\n      swap2\n      swap1\n      swap2\n      mstore\n        /* \"Structs.sol\":715:725  msg.sender */\n      caller\n        /* \"Structs.sol\":696:726  Car(\"Ferrari\",2020,msg.sender) */\n      swap3\n      dup2\n      add\n      swap3\n      swap1\n      swap3\n      mstore\n        /* \"Structs.sol\":686:690  cars */\n      0x03\n        /* \"Structs.sol\":686:727  cars.push(Car(\"Ferrari\",2020,msg.sender)) */\n      dup1\n      sload\n      swap2\n      dup3\n      add\n      dup2\n      sstore\n        /* \"Structs.sol\":659:675  cars.push(tesla) */\n      0x00\n        /* \"Structs.sol\":686:727  cars.push(Car(\"Ferrari\",2020,msg.sender)) */\n      dup2\n      swap1\n      mstore\n      dup3\n      mload\n      swap2\n      mul\n      mload(0x00)\n      codecopy(0x00, data_2584db4a68aa8b172f70bc04e2e74541617c003374de6eb4b295e823e5beab01, 0x20)\n      mload(0x00)\n      swap1\n      0x00\n      mstore\n      add\n      swap1\n      dup2\n      swap1\n      tag_35\n      swap1\n      dup3\n      tag_29\n      jump\t// in\n    tag_35:\n      pop\n      0x20\n      dup3\n      add\n      mload\n      0x01\n      dup3\n      add\n      sstore\n      0x40\n      swap1\n      swap2\n      add\n      mload\n      0x02\n      swap1\n      swap2\n      add\n      dup1\n      sload\n      not(sub(shl(0xa0, 0x01), 0x01))\n      and\n      sub(shl(0xa0, 0x01), 0x01)\n      swap1\n      swap3\n      and\n      swap2\n      swap1\n      swap2\n      or\n      swap1\n      sstore\n        /* \"Structs.sol\":745:749  cars */\n      0x03\n        /* \"Structs.sol\":745:752  cars[0] */\n      dup1\n      sload\n      0x00\n      swap1\n      tag_37\n      jumpi\n      tag_37\n      tag_38\n      jump\t// in\n    tag_37:\n      0x00\n      swap2\n      dup3\n      mstore\n      0x20\n      dup3\n      keccak256\n      0x03\n      swap1\n      swap2\n      mul\n      add\n      swap1\n        /* \"Structs.sol\":738:752  delete cars[0] */\n      tag_40\n        /* \"Structs.sol\":745:752  cars[0] */\n      dup3\n      dup3\n        /* \"Structs.sol\":738:752  delete cars[0] */\n      tag_41\n      jump\t// in\n    tag_40:\n      pop\n      0x00\n      0x01\n      dup3\n      add\n      dup2\n      swap1\n      sstore\n      0x02\n      swap1\n      swap2\n      add\n      dup1\n      sload\n      not(sub(shl(0xa0, 0x01), 0x01))\n      and\n      swap1\n      sstore\n        /* \"Structs.sol\":825:829  cars */\n      0x03\n        /* \"Structs.sol\":825:832  cars[0] */\n      dup1\n      sload\n        /* \"Structs.sol\":738:752  delete cars[0] */\n      dup3\n      swap1\n        /* \"Structs.sol\":825:832  cars[0] */\n      tag_43\n      jumpi\n      tag_43\n      tag_38\n      jump\t// in\n    tag_43:\n      swap1\n      0x00\n      mstore\n      keccak256(0x00, 0x20)\n      swap1\n      0x03\n      mul\n      add\n        /* \"Structs.sol\":808:832  Car memory _car= cars[0] */\n      mload(0x40)\n      dup1\n      0x60\n      add\n      0x40\n      mstore\n      swap1\n      dup2\n      0x00\n      dup3\n      add\n      dup1\n      sload\n      tag_45\n      swap1\n      tag_46\n      jump\t// in\n    tag_45:\n      dup1\n      0x1f\n      add\n      0x20\n      dup1\n      swap2\n      div\n      mul\n      0x20\n      add\n      mload(0x40)\n      swap1\n      dup2\n      add\n      0x40\n      mstore\n      dup1\n      swap3\n      swap2\n      swap1\n      dup2\n      dup2\n      mstore\n      0x20\n      add\n      dup3\n      dup1\n      sload\n      tag_47\n      swap1\n      tag_46\n      jump\t// in\n    tag_47:\n      dup1\n      iszero\n      tag_48\n      jumpi\n      dup1\n      0x1f\n      lt\n      tag_49\n      jumpi\n      0x0100\n      dup1\n      dup4\n      sload\n      div\n      mul\n      dup4\n      mstore\n      swap2\n      0x20\n      add\n      swap2\n      jump(tag_48)\n    tag_49:\n      dup3\n      add\n      swap2\n      swap1\n      0x00\n      mstore\n      keccak256(0x00, 0x20)\n      swap1\n    tag_50:\n      dup2\n      sload\n      dup2\n      mstore\n      swap1\n      0x01\n      add\n      swap1\n      0x20\n      add\n      dup1\n      dup4\n      gt\n      tag_50\n      jumpi\n      dup3\n      swap1\n      sub\n      0x1f\n      and\n      dup3\n      add\n      swap2\n    tag_48:\n      pop\n      pop\n      pop\n      swap2\n      dup4\n      mstore\n      pop\n      pop\n      0x01\n      dup3\n      add\n      sload\n      0x20\n      dup1\n      dup4\n      add\n      swap2\n      swap1\n      swap2\n      mstore\n      0x02\n      swap1\n      swap3\n      add\n      sload\n      sub(shl(0xa0, 0x01), 0x01)\n      and\n      0x40\n      swap2\n      dup3\n      add\n      mstore\n        /* \"Structs.sol\":932:942  _car.model */\n      dup3\n      mload\n        /* \"Structs.sol\":943:952  _car.year */\n      swap2\n      dup4\n      add\n      mload\n        /* \"Structs.sol\":953:963  _car.owner */\n      swap3\n      add\n      mload\n        /* \"Structs.sol\":932:942  _car.model */\n      swap1\n      swap10\n        /* \"Structs.sol\":943:952  _car.year */\n      swap2\n      swap9\n      pop\n        /* \"Structs.sol\":953:963  _car.owner */\n      swap7\n      pop\n        /* \"Structs.sol\":274:972  function examples() external returns(string memory,uint,address){... */\n      swap5\n      pop\n      pop\n      pop\n      pop\n      pop\n      jump\t// out\n        /* \"Structs.sol\":224:267  mapping (address=>Car[]) public carsByOwner */\n    tag_14:\n      mstore(0x20, 0x04)\n      dup2\n      0x00\n      mstore\n      keccak256(0x00, 0x40)\n      dup2\n      dup2\n      sload\n      dup2\n      lt\n      tag_51\n      jumpi\n      0x00\n      dup1\n      revert\n    tag_51:\n      swap1\n      0x00\n      mstore\n      keccak256(0x00, 0x20)\n      swap1\n      0x03\n      mul\n      add\n      0x00\n      swap2\n      pop\n      swap2\n      pop\n      pop\n      dup1\n      0x00\n      add\n      dup1\n      sload\n      tag_53\n      swap1\n      tag_46\n      jump\t// in\n    tag_53:\n      dup1\n      0x1f\n      add\n      0x20\n      dup1\n      swap2\n      div\n      mul\n      0x20\n      add\n      mload(0x40)\n      swap1\n      dup2\n      add\n      0x40\n      mstore\n      dup1\n      swap3\n      swap2\n      swap1\n      dup2\n      dup2\n      mstore\n      0x20\n      add\n      dup3\n      dup1\n      sload\n      tag_54\n      swap1\n      tag_46\n      jump\t// in\n    tag_54:\n      dup1\n      iszero\n      tag_55\n      jumpi\n      dup1\n      0x1f\n      lt\n      tag_56\n      jumpi\n      0x0100\n      dup1\n      dup4\n      sload\n      div\n      mul\n      dup4\n      mstore\n      swap2\n      0x20\n      add\n      swap2\n      jump(tag_55)\n    tag_56:\n      dup3\n      add\n      swap2\n      swap1\n      0x00\n      mstore\n      keccak256(0x00, 0x20)\n      swap1\n    tag_57:\n      dup2\n      sload\n      dup2\n      mstore\n      swap1\n      0x01\n      add\n      swap1\n      0x20\n      add\n      dup1\n      dup4\n      gt\n      tag_57\n      jumpi\n      dup3\n      swap1\n      sub\n      0x1f\n      and\n      dup3\n      add\n      swap2\n    tag_55:\n      pop\n      pop\n      pop\n      pop\n      0x01\n      dup4\n      add\n      sload\n      0x02\n      swap1\n      swap4\n      add\n      sload\n      swap2\n      swap3\n      swap2\n      sub(shl(0xa0, 0x01), 0x01)\n      and\n      swap1\n      pop\n      dup4\n      jump\t// out\n        /* \"Structs.sol\":179:193  Car public car */\n    tag_17:\n      0x00\n      dup1\n      sload\n      dup2\n      swap1\n      tag_53\n      swap1\n      tag_46\n      jump\t// in\n        /* \"Structs.sol\":200:217  Car[] public cars */\n    tag_22:\n      0x03\n      dup2\n      dup2\n      sload\n      dup2\n      lt\n      tag_63\n      jumpi\n      0x00\n      dup1\n      revert\n    tag_63:\n      swap1\n      0x00\n      mstore\n      keccak256(0x00, 0x20)\n      swap1\n      0x03\n      mul\n      add\n      0x00\n      swap2\n      pop\n      swap1\n      pop\n      dup1\n      0x00\n      add\n      dup1\n      sload\n      tag_53\n      swap1\n      tag_46\n      jump\t// in\n    tag_41:\n      pop\n      dup1\n      sload\n      tag_70\n      swap1\n      tag_46\n      jump\t// in\n    tag_70:\n      0x00\n      dup3\n      sstore\n      dup1\n      0x1f\n      lt\n      tag_72\n      jumpi\n      pop\n      pop\n      jump\t// out\n    tag_72:\n      0x1f\n      add\n      0x20\n      swap1\n      div\n      swap1\n      0x00\n      mstore\n      keccak256(0x00, 0x20)\n      swap1\n      dup2\n      add\n      swap1\n      tag_73\n      swap2\n      swap1\n      tag_74\n      jump\t// in\n    tag_73:\n      pop\n      jump\t// out\n    tag_74:\n    tag_75:\n      dup1\n      dup3\n      gt\n      iszero\n      tag_76\n      jumpi\n      0x00\n      dup2\n      sstore\n      0x01\n      add\n      jump(tag_75)\n    tag_76:\n      pop\n      swap1\n      jump\t// out\n        /* \"#utility.yul\":14:607   */\n    tag_10:\n        /* \"#utility.yul\":219:221   */\n      0x60\n        /* \"#utility.yul\":208:217   */\n      dup2\n        /* \"#utility.yul\":201:222   */\n      mstore\n        /* \"#utility.yul\":182:186   */\n      0x00\n        /* \"#utility.yul\":251:257   */\n      dup5\n        /* \"#utility.yul\":245:258   */\n      mload\n        /* \"#utility.yul\":294:300   */\n      dup1\n        /* \"#utility.yul\":289:291   */\n      0x60\n        /* \"#utility.yul\":278:287   */\n      dup5\n        /* \"#utility.yul\":274:292   */\n      add\n        /* \"#utility.yul\":267:301   */\n      mstore\n        /* \"#utility.yul\":356:362   */\n      dup1\n        /* \"#utility.yul\":349:353   */\n      0x20\n        /* \"#utility.yul\":341:347   */\n      dup8\n        /* \"#utility.yul\":337:354   */\n      add\n        /* \"#utility.yul\":331:334   */\n      0x80\n        /* \"#utility.yul\":320:329   */\n      dup6\n        /* \"#utility.yul\":316:335   */\n      add\n        /* \"#utility.yul\":310:363   */\n      mcopy\n        /* \"#utility.yul\":413:414   */\n      0x00\n        /* \"#utility.yul\":407:410   */\n      0x80\n        /* \"#utility.yul\":383:405   */\n      dup3\n      dup6\n      add\n        /* \"#utility.yul\":379:411   */\n      dup2\n      add\n        /* \"#utility.yul\":372:415   */\n      swap2\n      swap1\n      swap2\n      mstore\n        /* \"#utility.yul\":518:522   */\n      0x20\n        /* \"#utility.yul\":503:523   */\n      dup5\n      add\n        /* \"#utility.yul\":496:532   */\n      swap6\n      swap1\n      swap6\n      mstore\n      sub(shl(0xa0, 0x01), 0x01)\n        /* \"#utility.yul\":568:600   */\n      swap4\n      swap1\n      swap4\n      and\n        /* \"#utility.yul\":563:565   */\n      0x40\n        /* \"#utility.yul\":548:566   */\n      dup4\n      add\n        /* \"#utility.yul\":541:601   */\n      mstore\n      pop\n        /* \"#utility.yul\":476:478   */\n      0x1f\n        /* \"#utility.yul\":455:470   */\n      swap1\n      swap2\n      add\n      not(0x1f)\n        /* \"#utility.yul\":451:480   */\n      and\n        /* \"#utility.yul\":436:481   */\n      add\n        /* \"#utility.yul\":432:487   */\n      add\n      swap2\n      swap1\n      pop\n        /* \"#utility.yul\":14:607   */\n      jump\t// out\n        /* \"#utility.yul\":612:1018   */\n    tag_13:\n        /* \"#utility.yul\":680:686   */\n      0x00\n        /* \"#utility.yul\":688:694   */\n      0x00\n        /* \"#utility.yul\":741:743   */\n      0x40\n        /* \"#utility.yul\":729:738   */\n      dup4\n        /* \"#utility.yul\":720:727   */\n      dup6\n        /* \"#utility.yul\":716:739   */\n      sub\n        /* \"#utility.yul\":712:744   */\n      slt\n        /* \"#utility.yul\":709:761   */\n      iszero\n      tag_84\n      jumpi\n        /* \"#utility.yul\":757:758   */\n      0x00\n        /* \"#utility.yul\":754:755   */\n      0x00\n        /* \"#utility.yul\":747:759   */\n      revert\n        /* \"#utility.yul\":709:761   */\n    tag_84:\n        /* \"#utility.yul\":783:806   */\n      dup3\n      calldataload\n      sub(shl(0xa0, 0x01), 0x01)\n        /* \"#utility.yul\":835:866   */\n      dup2\n      and\n        /* \"#utility.yul\":825:867   */\n      dup2\n      eq\n        /* \"#utility.yul\":815:885   */\n      tag_85\n      jumpi\n        /* \"#utility.yul\":881:882   */\n      0x00\n        /* \"#utility.yul\":878:879   */\n      0x00\n        /* \"#utility.yul\":871:883   */\n      revert\n        /* \"#utility.yul\":815:885   */\n    tag_85:\n        /* \"#utility.yul\":904:909   */\n      swap5\n        /* \"#utility.yul\":982:984   */\n      0x20\n        /* \"#utility.yul\":967:985   */\n      swap4\n      swap1\n      swap4\n      add\n        /* \"#utility.yul\":954:986   */\n      calldataload\n      swap4\n      pop\n      pop\n      pop\n        /* \"#utility.yul\":612:1018   */\n      jump\t// out\n        /* \"#utility.yul\":1023:1249   */\n    tag_21:\n        /* \"#utility.yul\":1082:1088   */\n      0x00\n        /* \"#utility.yul\":1135:1137   */\n      0x20\n        /* \"#utility.yul\":1123:1132   */\n      dup3\n        /* \"#utility.yul\":1114:1121   */\n      dup5\n        /* \"#utility.yul\":1110:1133   */\n      sub\n        /* \"#utility.yul\":1106:1138   */\n      slt\n        /* \"#utility.yul\":1103:1155   */\n      iszero\n      tag_87\n      jumpi\n        /* \"#utility.yul\":1151:1152   */\n      0x00\n        /* \"#utility.yul\":1148:1149   */\n      0x00\n        /* \"#utility.yul\":1141:1153   */\n      revert\n        /* \"#utility.yul\":1103:1155   */\n    tag_87:\n      pop\n        /* \"#utility.yul\":1196:1219   */\n      calldataload\n      swap2\n        /* \"#utility.yul\":1023:1249   */\n      swap1\n      pop\n      jump\t// out\n        /* \"#utility.yul\":1254:1381   */\n    tag_77:\n        /* \"#utility.yul\":1315:1325   */\n      0x4e487b71\n        /* \"#utility.yul\":1310:1313   */\n      0xe0\n        /* \"#utility.yul\":1306:1326   */\n      shl\n        /* \"#utility.yul\":1303:1304   */\n      0x00\n        /* \"#utility.yul\":1296:1327   */\n      mstore\n        /* \"#utility.yul\":1346:1350   */\n      0x41\n        /* \"#utility.yul\":1343:1344   */\n      0x04\n        /* \"#utility.yul\":1336:1351   */\n      mstore\n        /* \"#utility.yul\":1370:1374   */\n      0x24\n        /* \"#utility.yul\":1367:1368   */\n      0x00\n        /* \"#utility.yul\":1360:1375   */\n      revert\n        /* \"#utility.yul\":1386:1766   */\n    tag_46:\n        /* \"#utility.yul\":1465:1466   */\n      0x01\n        /* \"#utility.yul\":1461:1473   */\n      dup2\n      dup2\n      shr\n      swap1\n        /* \"#utility.yul\":1508:1520   */\n      dup3\n      and\n      dup1\n        /* \"#utility.yul\":1529:1590   */\n      tag_90\n      jumpi\n        /* \"#utility.yul\":1583:1587   */\n      0x7f\n        /* \"#utility.yul\":1575:1581   */\n      dup3\n        /* \"#utility.yul\":1571:1588   */\n      and\n        /* \"#utility.yul\":1561:1588   */\n      swap2\n      pop\n        /* \"#utility.yul\":1529:1590   */\n    tag_90:\n        /* \"#utility.yul\":1636:1638   */\n      0x20\n        /* \"#utility.yul\":1628:1634   */\n      dup3\n        /* \"#utility.yul\":1625:1639   */\n      lt\n        /* \"#utility.yul\":1605:1623   */\n      dup2\n        /* \"#utility.yul\":1602:1640   */\n      sub\n        /* \"#utility.yul\":1599:1760   */\n      tag_91\n      jumpi\n        /* \"#utility.yul\":1682:1692   */\n      0x4e487b71\n        /* \"#utility.yul\":1677:1680   */\n      0xe0\n        /* \"#utility.yul\":1673:1693   */\n      shl\n        /* \"#utility.yul\":1670:1671   */\n      0x00\n        /* \"#utility.yul\":1663:1694   */\n      mstore\n        /* \"#utility.yul\":1717:1721   */\n      0x22\n        /* \"#utility.yul\":1714:1715   */\n      0x04\n        /* \"#utility.yul\":1707:1722   */\n      mstore\n        /* \"#utility.yul\":1745:1749   */\n      0x24\n        /* \"#utility.yul\":1742:1743   */\n      0x00\n        /* \"#utility.yul\":1735:1750   */\n      revert\n        /* \"#utility.yul\":1599:1760   */\n    tag_91:\n      pop\n        /* \"#utility.yul\":1386:1766   */\n      swap2\n      swap1\n      pop\n      jump\t// out\n        /* \"#utility.yul\":1897:2415   */\n    tag_79:\n        /* \"#utility.yul\":1999:2001   */\n      0x1f\n        /* \"#utility.yul\":1994:1997   */\n      dup3\n        /* \"#utility.yul\":1991:2002   */\n      gt\n        /* \"#utility.yul\":1988:2409   */\n      iszero\n      tag_94\n      jumpi\n        /* \"#utility.yul\":2035:2040   */\n      dup1\n        /* \"#utility.yul\":2032:2033   */\n      0x00\n        /* \"#utility.yul\":2025:2041   */\n      mstore\n        /* \"#utility.yul\":2079:2083   */\n      0x20\n        /* \"#utility.yul\":2076:2077   */\n      0x00\n        /* \"#utility.yul\":2066:2084   */\n      keccak256\n        /* \"#utility.yul\":2149:2151   */\n      0x1f\n        /* \"#utility.yul\":2137:2147   */\n      dup5\n        /* \"#utility.yul\":2133:2152   */\n      add\n        /* \"#utility.yul\":2130:2131   */\n      0x05\n        /* \"#utility.yul\":2126:2153   */\n      shr\n        /* \"#utility.yul\":2120:2124   */\n      dup2\n        /* \"#utility.yul\":2116:2154   */\n      add\n        /* \"#utility.yul\":2185:2189   */\n      0x20\n        /* \"#utility.yul\":2173:2183   */\n      dup6\n        /* \"#utility.yul\":2170:2190   */\n      lt\n        /* \"#utility.yul\":2167:2214   */\n      iszero\n      tag_95\n      jumpi\n      pop\n        /* \"#utility.yul\":2208:2212   */\n      dup1\n        /* \"#utility.yul\":2167:2214   */\n    tag_95:\n        /* \"#utility.yul\":2263:2265   */\n      0x1f\n        /* \"#utility.yul\":2258:2261   */\n      dup5\n        /* \"#utility.yul\":2254:2266   */\n      add\n        /* \"#utility.yul\":2251:2252   */\n      0x05\n        /* \"#utility.yul\":2247:2267   */\n      shr\n        /* \"#utility.yul\":2241:2245   */\n      dup3\n        /* \"#utility.yul\":2237:2268   */\n      add\n        /* \"#utility.yul\":2227:2268   */\n      swap2\n      pop\n        /* \"#utility.yul\":2318:2399   */\n    tag_96:\n        /* \"#utility.yul\":2336:2338   */\n      dup2\n        /* \"#utility.yul\":2329:2334   */\n      dup2\n        /* \"#utility.yul\":2326:2339   */\n      lt\n        /* \"#utility.yul\":2318:2399   */\n      iszero\n      tag_98\n      jumpi\n        /* \"#utility.yul\":2395:2396   */\n      0x00\n        /* \"#utility.yul\":2381:2397   */\n      dup2\n      sstore\n        /* \"#utility.yul\":2362:2363   */\n      0x01\n        /* \"#utility.yul\":2351:2364   */\n      add\n        /* \"#utility.yul\":2318:2399   */\n      jump(tag_96)\n    tag_98:\n        /* \"#utility.yul\":2322:2325   */\n      pop\n      pop\n        /* \"#utility.yul\":1988:2409   */\n    tag_94:\n        /* \"#utility.yul\":1897:2415   */\n      pop\n      pop\n      pop\n      jump\t// out\n        /* \"#utility.yul\":2591:3890   */\n    tag_29:\n        /* \"#utility.yul\":2717:2720   */\n      dup2\n        /* \"#utility.yul\":2711:2721   */\n      mload\n        /* \"#utility.yul\":2744:2762   */\n      0xffffffffffffffff\n        /* \"#utility.yul\":2736:2742   */\n      dup2\n        /* \"#utility.yul\":2733:2763   */\n      gt\n        /* \"#utility.yul\":2730:2786   */\n      iszero\n      tag_102\n      jumpi\n        /* \"#utility.yul\":2766:2784   */\n      tag_102\n      tag_77\n      jump\t// in\n    tag_102:\n        /* \"#utility.yul\":2795:2892   */\n      tag_103\n        /* \"#utility.yul\":2885:2891   */\n      dup2\n        /* \"#utility.yul\":2845:2883   */\n      tag_104\n        /* \"#utility.yul\":2877:2881   */\n      dup5\n        /* \"#utility.yul\":2871:2882   */\n      sload\n        /* \"#utility.yul\":2845:2883   */\n      tag_46\n      jump\t// in\n    tag_104:\n        /* \"#utility.yul\":2839:2843   */\n      dup5\n        /* \"#utility.yul\":2795:2892   */\n      tag_79\n      jump\t// in\n    tag_103:\n        /* \"#utility.yul\":2941:2945   */\n      0x20\n        /* \"#utility.yul\":2972:2974   */\n      0x1f\n        /* \"#utility.yul\":2961:2975   */\n      dup3\n      gt\n        /* \"#utility.yul\":2989:2990   */\n      0x01\n        /* \"#utility.yul\":2984:3633   */\n      dup2\n      eq\n      tag_106\n      jumpi\n        /* \"#utility.yul\":3677:3678   */\n      0x00\n        /* \"#utility.yul\":3694:3700   */\n      dup4\n        /* \"#utility.yul\":3691:3780   */\n      iszero\n      tag_107\n      jumpi\n      pop\n        /* \"#utility.yul\":3746:3765   */\n      dup5\n      dup3\n      add\n        /* \"#utility.yul\":3740:3766   */\n      mload\n        /* \"#utility.yul\":3691:3780   */\n    tag_107:\n      not(0x00)\n        /* \"#utility.yul\":2548:2549   */\n      0x03\n        /* \"#utility.yul\":2544:2555   */\n      dup6\n      swap1\n      shl\n        /* \"#utility.yul\":2540:2564   */\n      shr\n        /* \"#utility.yul\":2536:2565   */\n      not\n        /* \"#utility.yul\":2526:2566   */\n      and\n        /* \"#utility.yul\":2572:2573   */\n      0x01\n        /* \"#utility.yul\":2568:2579   */\n      dup5\n      swap1\n      shl\n        /* \"#utility.yul\":2523:2580   */\n      or\n        /* \"#utility.yul\":3793:3874   */\n      dup5\n      sstore\n        /* \"#utility.yul\":2954:3884   */\n      jump(tag_98)\n        /* \"#utility.yul\":2984:3633   */\n    tag_106:\n        /* \"#utility.yul\":1844:1845   */\n      0x00\n        /* \"#utility.yul\":1837:1851   */\n      dup5\n      dup2\n      mstore\n        /* \"#utility.yul\":1881:1885   */\n      0x20\n        /* \"#utility.yul\":1868:1886   */\n      dup2\n      keccak256\n      not(0x1f)\n        /* \"#utility.yul\":3020:3040   */\n      dup6\n      and\n      swap2\n        /* \"#utility.yul\":3138:3360   */\n    tag_110:\n        /* \"#utility.yul\":3152:3159   */\n      dup3\n        /* \"#utility.yul\":3149:3150   */\n      dup2\n        /* \"#utility.yul\":3146:3160   */\n      lt\n        /* \"#utility.yul\":3138:3360   */\n      iszero\n      tag_112\n      jumpi\n        /* \"#utility.yul\":3234:3253   */\n      dup8\n      dup6\n      add\n        /* \"#utility.yul\":3228:3254   */\n      mload\n        /* \"#utility.yul\":3213:3255   */\n      dup3\n      sstore\n        /* \"#utility.yul\":3341:3345   */\n      0x20\n        /* \"#utility.yul\":3326:3346   */\n      swap5\n      dup6\n      add\n      swap5\n        /* \"#utility.yul\":3294:3295   */\n      0x01\n        /* \"#utility.yul\":3282:3296   */\n      swap1\n      swap3\n      add\n      swap2\n        /* \"#utility.yul\":3168:3180   */\n      add\n        /* \"#utility.yul\":3138:3360   */\n      jump(tag_110)\n    tag_112:\n        /* \"#utility.yul\":3142:3145   */\n      pop\n        /* \"#utility.yul\":3388:3394   */\n      dup5\n        /* \"#utility.yul\":3379:3386   */\n      dup3\n        /* \"#utility.yul\":3376:3395   */\n      lt\n        /* \"#utility.yul\":3373:3574   */\n      iszero\n      tag_113\n      jumpi\n        /* \"#utility.yul\":3449:3468   */\n      dup7\n      dup5\n      add\n        /* \"#utility.yul\":3443:3469   */\n      mload\n      not(0x00)\n        /* \"#utility.yul\":3532:3533   */\n      0x03\n        /* \"#utility.yul\":3528:3542   */\n      dup8\n      swap1\n      shl\n        /* \"#utility.yul\":3544:3547   */\n      0xf8\n        /* \"#utility.yul\":3524:3548   */\n      and\n        /* \"#utility.yul\":3520:3557   */\n      shr\n        /* \"#utility.yul\":3516:3558   */\n      not\n        /* \"#utility.yul\":3501:3559   */\n      and\n        /* \"#utility.yul\":3486:3560   */\n      dup2\n      sstore\n        /* \"#utility.yul\":3373:3574   */\n    tag_113:\n      pop\n      pop\n      pop\n      pop\n        /* \"#utility.yul\":3620:3621   */\n      0x01\n        /* \"#utility.yul\":3604:3618   */\n      swap1\n      dup2\n      shl\n        /* \"#utility.yul\":3600:3622   */\n      add\n        /* \"#utility.yul\":3587:3623   */\n      swap1\n      sstore\n      pop\n        /* \"#utility.yul\":2591:3890   */\n      jump\t// out\n        /* \"#utility.yul\":3895:4022   */\n    tag_38:\n        /* \"#utility.yul\":3956:3966   */\n      0x4e487b71\n        /* \"#utility.yul\":3951:3954   */\n      0xe0\n        /* \"#utility.yul\":3947:3967   */\n      shl\n        /* \"#utility.yul\":3944:3945   */\n      0x00\n        /* \"#utility.yul\":3937:3968   */\n      mstore\n        /* \"#utility.yul\":3987:3991   */\n      0x32\n        /* \"#utility.yul\":3984:3985   */\n      0x04\n        /* \"#utility.yul\":3977:3992   */\n      mstore\n        /* \"#utility.yul\":4011:4015   */\n      0x24\n        /* \"#utility.yul\":4008:4009   */\n      0x00\n        /* \"#utility.yul\":4001:4016   */\n      revert\n    stop\n    data_2584db4a68aa8b172f70bc04e2e74541617c003374de6eb4b295e823e5beab01 c2575a0e9e593c00f959f8c92f12db2869c3395a3b0502d05e2516446f71f85b\n\n    auxdata: 0xa2646970667358221220d4093b84bbdd30edf91a8fb0b28f021c87669dda38c31338a6499003bf2b8b9064736f6c634300081d0033\n}\n",
				"bytecode": {
					"linkReferences": {},
					"object": "6080604052348015600e575f5ffd5b506108158061001c5f395ff3fe608060405234801561000f575f5ffd5b506004361061004a575f3560e01c8063335d00c21461004e578063aa9fb6c81461006e578063ee26fac314610081578063f7746e3614610089575b5f5ffd5b61005661009c565b604051610065939291906105bf565b60405180910390f35b61005661007c36600461060c565b610461565b610056610531565b610056610097366004610641565b61053f565b6040805160a080820183526006606080840191825265546f796f746160d01b6080808601919091529184526107df6020808601919091523385870181905286519485018752600a858401908152696c616d626f6768696e6960b01b948601949094529284526107bc84820152838601839052855180830187528281525f8183018181528289018281528951808b01909a5260058a52647465736c6160d81b948a01949094529782526107da90975292905260038054600181018255818752855192969586959094909390928592025f5160206107c05f395f51905f520190819061018690826106f0565b506020820151600180830191909155604090920151600290910180546001600160a01b039092166001600160a01b03199092169190911790556003805491820181555f819052835184929091025f5160206107c05f395f51905f52019081906101ef90826106f0565b506020820151600180830191909155604090920151600290910180546001600160a01b039092166001600160a01b03199092169190911790556003805491820181555f819052825183929091025f5160206107c05f395f51905f520190819061025890826106f0565b50602082810151600180840191909155604093840151600290930180546001600160a01b039094166001600160a01b031990941693909317909255825160a081018452600760608201908152664665727261726960c81b608083015281526107e49181019190915233928101929092526003805491820181555f819052825191025f5160206107c05f395f51905f52019081906102f590826106f0565b5060208201516001820155604090910151600290910180546001600160a01b0319166001600160a01b03909216919091179055600380545f9061033a5761033a6107ab565b5f9182526020822060039091020190610353828261056d565b505f60018201819055600290910180546001600160a01b0319169055600380548290610381576103816107ab565b905f5260205f2090600302016040518060600160405290815f820180546103a79061066c565b80601f01602080910402602001604051908101604052809291908181526020018280546103d39061066c565b801561041e5780601f106103f55761010080835404028352916020019161041e565b820191905f5260205f20905b81548152906001019060200180831161040157829003601f168201915b505050918352505060018201546020808301919091526002909201546001600160a01b031660409182015282519183015192015190999198509650945050505050565b6004602052815f5260405f20818154811061047a575f80fd5b905f5260205f2090600302015f9150915050805f01805461049a9061066c565b80601f01602080910402602001604051908101604052809291908181526020018280546104c69061066c565b80156105115780601f106104e857610100808354040283529160200191610511565b820191905f5260205f20905b8154815290600101906020018083116104f457829003601f168201915b5050505060018301546002909301549192916001600160a01b0316905083565b5f8054819061049a9061066c565b6003818154811061054e575f80fd5b905f5260205f2090600302015f91509050805f01805461049a9061066c565b5080546105799061066c565b5f825580601f10610588575050565b601f0160209004905f5260205f20908101906105a491906105a7565b50565b5b808211156105bb575f81556001016105a8565b5090565b606081525f84518060608401528060208701608085015e5f608082850181019190915260208401959095526001600160a01b0393909316604083015250601f909101601f19160101919050565b5f5f6040838503121561061d575f5ffd5b82356001600160a01b0381168114610633575f5ffd5b946020939093013593505050565b5f60208284031215610651575f5ffd5b5035919050565b634e487b7160e01b5f52604160045260245ffd5b600181811c9082168061068057607f821691505b60208210810361069e57634e487b7160e01b5f52602260045260245ffd5b50919050565b601f8211156106eb57805f5260205f20601f840160051c810160208510156106c95750805b601f840160051c820191505b818110156106e8575f81556001016106d5565b50505b505050565b815167ffffffffffffffff81111561070a5761070a610658565b61071e81610718845461066c565b846106a4565b6020601f821160018114610750575f83156107395750848201515b5f19600385901b1c1916600184901b1784556106e8565b5f84815260208120601f198516915b8281101561077f578785015182556020948501946001909201910161075f565b508482101561079c57868401515f19600387901b60f8161c191681555b50505050600190811b01905550565b634e487b7160e01b5f52603260045260245ffdfec2575a0e9e593c00f959f8c92f12db2869c3395a3b0502d05e2516446f71f85ba2646970667358221220d4093b84bbdd30edf91a8fb0b28f021c87669dda38c31338a6499003bf2b8b9064736f6c634300081d0033",
					"opcodes": "PUSH1 0x80 PUSH1 0x40 MSTORE CALLVALUE DUP1 ISZERO PUSH1 0xE JUMPI PUSH0 PUSH0 REVERT JUMPDEST POP PUSH2 0x815 DUP1 PUSH2 0x1C PUSH0 CODECOPY PUSH0 RETURN INVALID PUSH1 0x80 PUSH1 0x40 MSTORE CALLVALUE DUP1 ISZERO PUSH2 0xF JUMPI PUSH0 PUSH0 REVERT JUMPDEST POP PUSH1 0x4 CALLDATASIZE LT PUSH2 0x4A JUMPI PUSH0 CALLDATALOAD PUSH1 0xE0 SHR DUP1 PUSH4 0x335D00C2 EQ PUSH2 0x4E JUMPI DUP1 PUSH4 0xAA9FB6C8 EQ PUSH2 0x6E JUMPI DUP1 PUSH4 0xEE26FAC3 EQ PUSH2 0x81 JUMPI DUP1 PUSH4 0xF7746E36 EQ PUSH2 0x89 JUMPI JUMPDEST PUSH0 PUSH0 REVERT JUMPDEST PUSH2 0x56 PUSH2 0x9C JUMP JUMPDEST PUSH1 0x40 MLOAD PUSH2 0x65 SWAP4 SWAP3 SWAP2 SWAP1 PUSH2 0x5BF JUMP JUMPDEST PUSH1 0x40 MLOAD DUP1 SWAP2 SUB SWAP1 RETURN JUMPDEST PUSH2 0x56 PUSH2 0x7C CALLDATASIZE PUSH1 0x4 PUSH2 0x60C JUMP JUMPDEST PUSH2 0x461 JUMP JUMPDEST PUSH2 0x56 PUSH2 0x531 JUMP JUMPDEST PUSH2 0x56 PUSH2 0x97 CALLDATASIZE PUSH1 0x4 PUSH2 0x641 JUMP JUMPDEST PUSH2 0x53F JUMP JUMPDEST PUSH1 0x40 DUP1 MLOAD PUSH1 0xA0 DUP1 DUP3 ADD DUP4 MSTORE PUSH1 0x6 PUSH1 0x60 DUP1 DUP5 ADD SWAP2 DUP3 MSTORE PUSH6 0x546F796F7461 PUSH1 0xD0 SHL PUSH1 0x80 DUP1 DUP7 ADD SWAP2 SWAP1 SWAP2 MSTORE SWAP2 DUP5 MSTORE PUSH2 0x7DF PUSH1 0x20 DUP1 DUP7 ADD SWAP2 SWAP1 SWAP2 MSTORE CALLER DUP6 DUP8 ADD DUP2 SWAP1 MSTORE DUP7 MLOAD SWAP5 DUP6 ADD DUP8 MSTORE PUSH1 0xA DUP6 DUP5 ADD SWAP1 DUP2 MSTORE PUSH10 0x6C616D626F6768696E69 PUSH1 0xB0 SHL SWAP5 DUP7 ADD SWAP5 SWAP1 SWAP5 MSTORE SWAP3 DUP5 MSTORE PUSH2 0x7BC DUP5 DUP3 ADD MSTORE DUP4 DUP7 ADD DUP4 SWAP1 MSTORE DUP6 MLOAD DUP1 DUP4 ADD DUP8 MSTORE DUP3 DUP2 MSTORE PUSH0 DUP2 DUP4 ADD DUP2 DUP2 MSTORE DUP3 DUP10 ADD DUP3 DUP2 MSTORE DUP10 MLOAD DUP1 DUP12 ADD SWAP1 SWAP11 MSTORE PUSH1 0x5 DUP11 MSTORE PUSH5 0x7465736C61 PUSH1 0xD8 SHL SWAP5 DUP11 ADD SWAP5 SWAP1 SWAP5 MSTORE SWAP8 DUP3 MSTORE PUSH2 0x7DA SWAP1 SWAP8 MSTORE SWAP3 SWAP1 MSTORE PUSH1 0x3 DUP1 SLOAD PUSH1 0x1 DUP2 ADD DUP3 SSTORE DUP2 DUP8 MSTORE DUP6 MLOAD SWAP3 SWAP7 SWAP6 DUP7 SWAP6 SWAP1 SWAP5 SWAP1 SWAP4 SWAP1 SWAP3 DUP6 SWAP3 MUL PUSH0 MLOAD PUSH1 0x20 PUSH2 0x7C0 PUSH0 CODECOPY PUSH0 MLOAD SWAP1 PUSH0 MSTORE ADD SWAP1 DUP2 SWAP1 PUSH2 0x186 SWAP1 DUP3 PUSH2 0x6F0 JUMP JUMPDEST POP PUSH1 0x20 DUP3 ADD MLOAD PUSH1 0x1 DUP1 DUP4 ADD SWAP2 SWAP1 SWAP2 SSTORE PUSH1 0x40 SWAP1 SWAP3 ADD MLOAD PUSH1 0x2 SWAP1 SWAP2 ADD DUP1 SLOAD PUSH1 0x1 PUSH1 0x1 PUSH1 0xA0 SHL SUB SWAP1 SWAP3 AND PUSH1 0x1 PUSH1 0x1 PUSH1 0xA0 SHL SUB NOT SWAP1 SWAP3 AND SWAP2 SWAP1 SWAP2 OR SWAP1 SSTORE PUSH1 0x3 DUP1 SLOAD SWAP2 DUP3 ADD DUP2 SSTORE PUSH0 DUP2 SWAP1 MSTORE DUP4 MLOAD DUP5 SWAP3 SWAP1 SWAP2 MUL PUSH0 MLOAD PUSH1 0x20 PUSH2 0x7C0 PUSH0 CODECOPY PUSH0 MLOAD SWAP1 PUSH0 MSTORE ADD SWAP1 DUP2 SWAP1 PUSH2 0x1EF SWAP1 DUP3 PUSH2 0x6F0 JUMP JUMPDEST POP PUSH1 0x20 DUP3 ADD MLOAD PUSH1 0x1 DUP1 DUP4 ADD SWAP2 SWAP1 SWAP2 SSTORE PUSH1 0x40 SWAP1 SWAP3 ADD MLOAD PUSH1 0x2 SWAP1 SWAP2 ADD DUP1 SLOAD PUSH1 0x1 PUSH1 0x1 PUSH1 0xA0 SHL SUB SWAP1 SWAP3 AND PUSH1 0x1 PUSH1 0x1 PUSH1 0xA0 SHL SUB NOT SWAP1 SWAP3 AND SWAP2 SWAP1 SWAP2 OR SWAP1 SSTORE PUSH1 0x3 DUP1 SLOAD SWAP2 DUP3 ADD DUP2 SSTORE PUSH0 DUP2 SWAP1 MSTORE DUP3 MLOAD DUP4 SWAP3 SWAP1 SWAP2 MUL PUSH0 MLOAD PUSH1 0x20 PUSH2 0x7C0 PUSH0 CODECOPY PUSH0 MLOAD SWAP1 PUSH0 MSTORE ADD SWAP1 DUP2 SWAP1 PUSH2 0x258 SWAP1 DUP3 PUSH2 0x6F0 JUMP JUMPDEST POP PUSH1 0x20 DUP3 DUP2 ADD MLOAD PUSH1 0x1 DUP1 DUP5 ADD SWAP2 SWAP1 SWAP2 SSTORE PUSH1 0x40 SWAP4 DUP5 ADD MLOAD PUSH1 0x2 SWAP1 SWAP4 ADD DUP1 SLOAD PUSH1 0x1 PUSH1 0x1 PUSH1 0xA0 SHL SUB SWAP1 SWAP5 AND PUSH1 0x1 PUSH1 0x1 PUSH1 0xA0 SHL SUB NOT SWAP1 SWAP5 AND SWAP4 SWAP1 SWAP4 OR SWAP1 SWAP3 SSTORE DUP3 MLOAD PUSH1 0xA0 DUP2 ADD DUP5 MSTORE PUSH1 0x7 PUSH1 0x60 DUP3 ADD SWAP1 DUP2 MSTORE PUSH7 0x46657272617269 PUSH1 0xC8 SHL PUSH1 0x80 DUP4 ADD MSTORE DUP2 MSTORE PUSH2 0x7E4 SWAP2 DUP2 ADD SWAP2 SWAP1 SWAP2 MSTORE CALLER SWAP3 DUP2 ADD SWAP3 SWAP1 SWAP3 MSTORE PUSH1 0x3 DUP1 SLOAD SWAP2 DUP3 ADD DUP2 SSTORE PUSH0 DUP2 SWAP1 MSTORE DUP3 MLOAD SWAP2 MUL PUSH0 MLOAD PUSH1 0x20 PUSH2 0x7C0 PUSH0 CODECOPY PUSH0 MLOAD SWAP1 PUSH0 MSTORE ADD SWAP1 DUP2 SWAP1 PUSH2 0x2F5 SWAP1 DUP3 PUSH2 0x6F0 JUMP JUMPDEST POP PUSH1 0x20 DUP3 ADD MLOAD PUSH1 0x1 DUP3 ADD SSTORE PUSH1 0x40 SWAP1 SWAP2 ADD MLOAD PUSH1 0x2 SWAP1 SWAP2 ADD DUP1 SLOAD PUSH1 0x1 PUSH1 0x1 PUSH1 0xA0 SHL SUB NOT AND PUSH1 0x1 PUSH1 0x1 PUSH1 0xA0 SHL SUB SWAP1 SWAP3 AND SWAP2 SWAP1 SWAP2 OR SWAP1 SSTORE PUSH1 0x3 DUP1 SLOAD PUSH0 SWAP1 PUSH2 0x33A JUMPI PUSH2 0x33A PUSH2 0x7AB JUMP JUMPDEST PUSH0 SWAP2 DUP3 MSTORE PUSH1 0x20 DUP3 KECCAK256 PUSH1 0x3 SWAP1 SWAP2 MUL ADD SWAP1 PUSH2 0x353 DUP3 DUP3 PUSH2 0x56D JUMP JUMPDEST POP PUSH0 PUSH1 0x1 DUP3 ADD DUP2 SWAP1 SSTORE PUSH1 0x2 SWAP1 SWAP2 ADD DUP1 SLOAD PUSH1 0x1 PUSH1 0x1 PUSH1 0xA0 SHL SUB NOT AND SWAP1 SSTORE PUSH1 0x3 DUP1 SLOAD DUP3 SWAP1 PUSH2 0x381 JUMPI PUSH2 0x381 PUSH2 0x7AB JUMP JUMPDEST SWAP1 PUSH0 MSTORE PUSH1 0x20 PUSH0 KECCAK256 SWAP1 PUSH1 0x3 MUL ADD PUSH1 0x40 MLOAD DUP1 PUSH1 0x60 ADD PUSH1 0x40 MSTORE SWAP1 DUP2 PUSH0 DUP3 ADD DUP1 SLOAD PUSH2 0x3A7 SWAP1 PUSH2 0x66C JUMP JUMPDEST DUP1 PUSH1 0x1F ADD PUSH1 0x20 DUP1 SWAP2 DIV MUL PUSH1 0x20 ADD PUSH1 0x40 MLOAD SWAP1 DUP2 ADD PUSH1 0x40 MSTORE DUP1 SWAP3 SWAP2 SWAP1 DUP2 DUP2 MSTORE PUSH1 0x20 ADD DUP3 DUP1 SLOAD PUSH2 0x3D3 SWAP1 PUSH2 0x66C JUMP JUMPDEST DUP1 ISZERO PUSH2 0x41E JUMPI DUP1 PUSH1 0x1F LT PUSH2 0x3F5 JUMPI PUSH2 0x100 DUP1 DUP4 SLOAD DIV MUL DUP4 MSTORE SWAP2 PUSH1 0x20 ADD SWAP2 PUSH2 0x41E JUMP JUMPDEST DUP3 ADD SWAP2 SWAP1 PUSH0 MSTORE PUSH1 0x20 PUSH0 KECCAK256 SWAP1 JUMPDEST DUP2 SLOAD DUP2 MSTORE SWAP1 PUSH1 0x1 ADD SWAP1 PUSH1 0x20 ADD DUP1 DUP4 GT PUSH2 0x401 JUMPI DUP3 SWAP1 SUB PUSH1 0x1F AND DUP3 ADD SWAP2 JUMPDEST POP POP POP SWAP2 DUP4 MSTORE POP POP PUSH1 0x1 DUP3 ADD SLOAD PUSH1 0x20 DUP1 DUP4 ADD SWAP2 SWAP1 SWAP2 MSTORE PUSH1 0x2 SWAP1 SWAP3 ADD SLOAD PUSH1 0x1 PUSH1 0x1 PUSH1 0xA0 SHL SUB AND PUSH1 0x40 SWAP2 DUP3 ADD MSTORE DUP3 MLOAD SWAP2 DUP4 ADD MLOAD SWAP3 ADD MLOAD SWAP1 SWAP10 SWAP2 SWAP9 POP SWAP7 POP SWAP5 POP POP POP POP POP JUMP JUMPDEST PUSH1 0x4 PUSH1 0x20 MSTORE DUP2 PUSH0 MSTORE PUSH1 0x40 PUSH0 KECCAK256 DUP2 DUP2 SLOAD DUP2 LT PUSH2 0x47A JUMPI PUSH0 DUP1 REVERT JUMPDEST SWAP1 PUSH0 MSTORE PUSH1 0x20 PUSH0 KECCAK256 SWAP1 PUSH1 0x3 MUL ADD PUSH0 SWAP2 POP SWAP2 POP POP DUP1 PUSH0 ADD DUP1 SLOAD PUSH2 0x49A SWAP1 PUSH2 0x66C JUMP JUMPDEST DUP1 PUSH1 0x1F ADD PUSH1 0x20 DUP1 SWAP2 DIV MUL PUSH1 0x20 ADD PUSH1 0x40 MLOAD SWAP1 DUP2 ADD PUSH1 0x40 MSTORE DUP1 SWAP3 SWAP2 SWAP1 DUP2 DUP2 MSTORE PUSH1 0x20 ADD DUP3 DUP1 SLOAD PUSH2 0x4C6 SWAP1 PUSH2 0x66C JUMP JUMPDEST DUP1 ISZERO PUSH2 0x511 JUMPI DUP1 PUSH1 0x1F LT PUSH2 0x4E8 JUMPI PUSH2 0x100 DUP1 DUP4 SLOAD DIV MUL DUP4 MSTORE SWAP2 PUSH1 0x20 ADD SWAP2 PUSH2 0x511 JUMP JUMPDEST DUP3 ADD SWAP2 SWAP1 PUSH0 MSTORE PUSH1 0x20 PUSH0 KECCAK256 SWAP1 JUMPDEST DUP2 SLOAD DUP2 MSTORE SWAP1 PUSH1 0x1 ADD SWAP1 PUSH1 0x20 ADD DUP1 DUP4 GT PUSH2 0x4F4 JUMPI DUP3 SWAP1 SUB PUSH1 0x1F AND DUP3 ADD SWAP2 JUMPDEST POP POP POP POP PUSH1 0x1 DUP4 ADD SLOAD PUSH1 0x2 SWAP1 SWAP4 ADD SLOAD SWAP2 SWAP3 SWAP2 PUSH1 0x1 PUSH1 0x1 PUSH1 0xA0 SHL SUB AND SWAP1 POP DUP4 JUMP JUMPDEST PUSH0 DUP1 SLOAD DUP2 SWAP1 PUSH2 0x49A SWAP1 PUSH2 0x66C JUMP JUMPDEST PUSH1 0x3 DUP2 DUP2 SLOAD DUP2 LT PUSH2 0x54E JUMPI PUSH0 DUP1 REVERT JUMPDEST SWAP1 PUSH0 MSTORE PUSH1 0x20 PUSH0 KECCAK256 SWAP1 PUSH1 0x3 MUL ADD PUSH0 SWAP2 POP SWAP1 POP DUP1 PUSH0 ADD DUP1 SLOAD PUSH2 0x49A SWAP1 PUSH2 0x66C JUMP JUMPDEST POP DUP1 SLOAD PUSH2 0x579 SWAP1 PUSH2 0x66C JUMP JUMPDEST PUSH0 DUP3 SSTORE DUP1 PUSH1 0x1F LT PUSH2 0x588 JUMPI POP POP JUMP JUMPDEST PUSH1 0x1F ADD PUSH1 0x20 SWAP1 DIV SWAP1 PUSH0 MSTORE PUSH1 0x20 PUSH0 KECCAK256 SWAP1 DUP2 ADD SWAP1 PUSH2 0x5A4 SWAP2 SWAP1 PUSH2 0x5A7 JUMP JUMPDEST POP JUMP JUMPDEST JUMPDEST DUP1 DUP3 GT ISZERO PUSH2 0x5BB JUMPI PUSH0 DUP2 SSTORE PUSH1 0x1 ADD PUSH2 0x5A8 JUMP JUMPDEST POP SWAP1 JUMP JUMPDEST PUSH1 0x60 DUP2 MSTORE PUSH0 DUP5 MLOAD DUP1 PUSH1 0x60 DUP5 ADD MSTORE DUP1 PUSH1 0x20 DUP8 ADD PUSH1 0x80 DUP6 ADD MCOPY PUSH0 PUSH1 0x80 DUP3 DUP6 ADD DUP2 ADD SWAP2 SWAP1 SWAP2 MSTORE PUSH1 0x20 DUP5 ADD SWAP6 SWAP1 SWAP6 MSTORE PUSH1 0x1 PUSH1 0x1 PUSH1 0xA0 SHL SUB SWAP4 SWAP1 SWAP4 AND PUSH1 0x40 DUP4 ADD MSTORE POP PUSH1 0x1F SWAP1 SWAP2 ADD PUSH1 0x1F NOT AND ADD ADD SWAP2 SWAP1 POP JUMP JUMPDEST PUSH0 PUSH0 PUSH1 0x40 DUP4 DUP6 SUB SLT ISZERO PUSH2 0x61D JUMPI PUSH0 PUSH0 REVERT JUMPDEST DUP3 CALLDATALOAD PUSH1 0x1 PUSH1 0x1 PUSH1 0xA0 SHL SUB DUP2 AND DUP2 EQ PUSH2 0x633 JUMPI PUSH0 PUSH0 REVERT JUMPDEST SWAP5 PUSH1 0x20 SWAP4 SWAP1 SWAP4 ADD CALLDATALOAD SWAP4 POP POP POP JUMP JUMPDEST PUSH0 PUSH1 0x20 DUP3 DUP5 SUB SLT ISZERO PUSH2 0x651 JUMPI PUSH0 PUSH0 REVERT JUMPDEST POP CALLDATALOAD SWAP2 SWAP1 POP JUMP JUMPDEST PUSH4 0x4E487B71 PUSH1 0xE0 SHL PUSH0 MSTORE PUSH1 0x41 PUSH1 0x4 MSTORE PUSH1 0x24 PUSH0 REVERT JUMPDEST PUSH1 0x1 DUP2 DUP2 SHR SWAP1 DUP3 AND DUP1 PUSH2 0x680 JUMPI PUSH1 0x7F DUP3 AND SWAP2 POP JUMPDEST PUSH1 0x20 DUP3 LT DUP2 SUB PUSH2 0x69E JUMPI PUSH4 0x4E487B71 PUSH1 0xE0 SHL PUSH0 MSTORE PUSH1 0x22 PUSH1 0x4 MSTORE PUSH1 0x24 PUSH0 REVERT JUMPDEST POP SWAP2 SWAP1 POP JUMP JUMPDEST PUSH1 0x1F DUP3 GT ISZERO PUSH2 0x6EB JUMPI DUP1 PUSH0 MSTORE PUSH1 0x20 PUSH0 KECCAK256 PUSH1 0x1F DUP5 ADD PUSH1 0x5 SHR DUP2 ADD PUSH1 0x20 DUP6 LT ISZERO PUSH2 0x6C9 JUMPI POP DUP1 JUMPDEST PUSH1 0x1F DUP5 ADD PUSH1 0x5 SHR DUP3 ADD SWAP2 POP JUMPDEST DUP2 DUP2 LT ISZERO PUSH2 0x6E8 JUMPI PUSH0 DUP2 SSTORE PUSH1 0x1 ADD PUSH2 0x6D5 JUMP JUMPDEST POP POP JUMPDEST POP POP POP JUMP JUMPDEST DUP2 MLOAD PUSH8 0xFFFFFFFFFFFFFFFF DUP2 GT ISZERO PUSH2 0x70A JUMPI PUSH2 0x70A PUSH2 0x658 JUMP JUMPDEST PUSH2 0x71E DUP2 PUSH2 0x718 DUP5 SLOAD PUSH2 0x66C JUMP JUMPDEST DUP5 PUSH2 0x6A4 JUMP JUMPDEST PUSH1 0x20 PUSH1 0x1F DUP3 GT PUSH1 0x1 DUP2 EQ PUSH2 0x750 JUMPI PUSH0 DUP4 ISZERO PUSH2 0x739 JUMPI POP DUP5 DUP3 ADD MLOAD JUMPDEST PUSH0 NOT PUSH1 0x3 DUP6 SWAP1 SHL SHR NOT AND PUSH1 0x1 DUP5 SWAP1 SHL OR DUP5 SSTORE PUSH2 0x6E8 JUMP JUMPDEST PUSH0 DUP5 DUP2 MSTORE PUSH1 0x20 DUP2 KECCAK256 PUSH1 0x1F NOT DUP6 AND SWAP2 JUMPDEST DUP3 DUP2 LT ISZERO PUSH2 0x77F JUMPI DUP8 DUP6 ADD MLOAD DUP3 SSTORE PUSH1 0x20 SWAP5 DUP6 ADD SWAP5 PUSH1 0x1 SWAP1 SWAP3 ADD SWAP2 ADD PUSH2 0x75F JUMP JUMPDEST POP DUP5 DUP3 LT ISZERO PUSH2 0x79C JUMPI DUP7 DUP5 ADD MLOAD PUSH0 NOT PUSH1 0x3 DUP8 SWAP1 SHL PUSH1 0xF8 AND SHR NOT AND DUP2 SSTORE JUMPDEST POP POP POP POP PUSH1 0x1 SWAP1 DUP2 SHL ADD SWAP1 SSTORE POP JUMP JUMPDEST PUSH4 0x4E487B71 PUSH1 0xE0 SHL PUSH0 MSTORE PUSH1 0x32 PUSH1 0x4 MSTORE PUSH1 0x24 PUSH0 REVERT INVALID 0xC2 JUMPI GAS 0xE SWAP15 MSIZE EXTCODECOPY STOP EXTDELEGATECALL MSIZE EXTCALL 0xC9 0x2F SLT 0xDB 0x28 PUSH10 0xC3395A3B0502D05E2516 PREVRANDAO PUSH16 0x71F85BA2646970667358221220D4093B DUP5 0xBB 0xDD ADDRESS 0xED EXTDELEGATECALL BYTE DUP16 0xB0 0xB2 DUP16 MUL SHR DUP8 PUSH7 0x9DDA38C31338A6 BLOBHASH SWAP1 SUB 0xBF 0x2B DUP12 SWAP1 PUSH5 0x736F6C6343 STOP ADDMOD SAR STOP CALLER "
				},
				"gasEstimates": {
					"creation": {
						"codeDepositCost": "413800",
						"executionCost": "447",
						"totalCost": "414247"
					},
					"external": {
						"car()": "infinite",
						"cars(uint256)": "infinite",
						"carsByOwner(address,uint256)": "infinite",
						"examples()": "infinite"
					}
				},
				"methodIdentifiers": {
					"car()": "ee26fac3",
					"cars(uint256)": "f7746e36",
					"carsByOwner(address,uint256)": "aa9fb6c8",
					"examples()": "335d00c2"
				}
			},
			"storageLayout": {
				"storage": [
					{
						"astId": 11,
						"contract": "Structs.sol:Structs",
						"label": "car",
						"offset": 0,
						"slot": "0",
						"type": "t_struct(Car)8_storage"
					},
					{
						"astId": 15,
						"contract": "Structs.sol:Structs",
						"label": "cars",
						"offset": 0,
						"slot": "3",
						"type": "t_array(t_struct(Car)8_storage)dyn_storage"
					},
					{
						"astId": 21,
						"contract": "Structs.sol:Structs",
						"label": "carsByOwner",
						"offset": 0,
						"slot": "4",
						"type": "t_mapping(t_address,t_array(t_struct(Car)8_storage)dyn_storage)"
					}
				],
				"types": {
					"t_address": {
						"encoding": "inplace",
						"label": "address",
						"numberOfBytes": "20"
					},
					"t_array(t_struct(Car)8_storage)dyn_storage": {
						"base": "t_struct(Car)8_storage",
						"encoding": "dynamic_array",
						"label": "struct Structs.Car[]",
						"numberOfBytes": "32"
					},
					"t_mapping(t_address,t_array(t_struct(Car)8_storage)dyn_storage)": {
						"encoding": "mapping",
						"key": "t_address",
						"label": "mapping(address => struct Structs.Car[])",
						"numberOfBytes": "32",
						"value": "t_array(t_struct(Car)8_storage)dyn_storage"
					},
					"t_string_storage": {
						"encoding": "bytes",
						"label": "string",
						"numberOfBytes": "32"
					},
					"t_struct(Car)8_storage": {
						"encoding": "inplace",
						"label": "struct Structs.Car",
						"members": [
							{
								"astId": 3,
								"contract": "Structs.sol:Structs",
								"label": "model",
								"offset": 0,
								"slot": "0",
								"type": "t_string_storage"
							},
							{
								"astId": 5,
								"contract": "Structs.sol:Structs",
								"label": "year",
								"offset": 0,
								"slot": "1",
								"type": "t_uint256"
							},
							{
								"astId": 7,
								"contract": "Structs.sol:Structs",
								"label": "owner",
								"offset": 0,
								"slot": "2",
								"type": "t_address"
							}
						],
						"numberOfBytes": "96"
					},
					"t_uint256": {
						"encoding": "inplace",
						"label": "uint256",
						"numberOfBytes": "32"
					}
				}
			},
			"userdoc": {
				"kind": "user",
				"methods": {},
				"version": 1
			}
		}
	}
}