{
	"IterableMapping.sol": {
		"IterableMapping": {
			"abi": [
				{
					"inputs": [
						{
							"internalType": "address",
							"name": "",
							"type": "address"
						}
					],
					"name": "balances",
					"outputs": [
						{
							"internalType": "uint256",
							"name": "",
							"type": "uint256"
						}
					],
					"stateMutability": "view",
					"type": "function"
				},
				{
					"inputs": [],
					"name": "first",
					"outputs": [
						{
							"internalType": "uint256",
							"name": "",
							"type": "uint256"
						}
					],
					"stateMutability": "view",
					"type": "function"
				},
				{
					"inputs": [
						{
							"internalType": "uint256",
							"name": "_i",
							"type": "uint256"
						}
					],
					"name": "get",
					"outputs": [
						{
							"internalType": "uint256",
							"name": "",
							"type": "uint256"
						}
					],
					"stateMutability": "view",
					"type": "function"
				},
				{
					"inputs": [],
					"name": "getSize",
					"outputs": [
						{
							"internalType": "uint256",
							"name": "",
							"type": "uint256"
						}
					],
					"stateMutability": "view",
					"type": "function"
				},
				{
					"inputs": [
						{
							"internalType": "address",
							"name": "",
							"type": "address"
						}
					],
					"name": "inserted",
					"outputs": [
						{
							"internalType": "bool",
							"name": "",
							"type": "bool"
						}
					],
					"stateMutability": "view",
					"type": "function"
				},
				{
					"inputs": [
						{
							"internalType": "uint256",
							"name": "",
							"type": "uint256"
						}
					],
					"name": "keys",
					"outputs": [
						{
							"internalType": "address",
							"name": "",
							"type": "address"
						}
					],
					"stateMutability": "view",
					"type": "function"
				},
				{
					"inputs": [],
					"name": "last",
					"outputs": [
						{
							"internalType": "uint256",
							"name": "",
							"type": "uint256"
						}
					],
					"stateMutability": "view",
					"type": "function"
				},
				{
					"inputs": [
						{
							"internalType": "address",
							"name": "_key",
							"type": "address"
						},
						{
							"internalType": "uint256",
							"name": "_val",
							"type": "uint256"
						}
					],
					"name": "set",
					"outputs": [],
					"stateMutability": "nonpayable",
					"type": "function"
				}
			],
			"devdoc": {
				"kind": "dev",
				"methods": {},
				"version": 1
			},
			"evm": {
				"assembly": "    /* \"IterableMapping.sol\":136:898  contract IterableMapping {... */\n  mstore(0x40, 0x80)\n  callvalue\n  dup1\n  iszero\n  tag_1\n  jumpi\n  revert(0x00, 0x00)\ntag_1:\n  pop\n  dataSize(sub_0)\n  dup1\n  dataOffset(sub_0)\n  0x00\n  codecopy\n  0x00\n  return\nstop\n\nsub_0: assembly {\n        /* \"IterableMapping.sol\":136:898  contract IterableMapping {... */\n      mstore(0x40, 0x80)\n      callvalue\n      dup1\n      iszero\n      tag_1\n      jumpi\n      revert(0x00, 0x00)\n    tag_1:\n      pop\n      jumpi(tag_2, lt(calldatasize, 0x04))\n      shr(0xe0, calldataload(0x00))\n      dup1\n      0x47799da8\n      gt\n      tag_11\n      jumpi\n      dup1\n      0x47799da8\n      eq\n      tag_7\n      jumpi\n      dup1\n      0x7cd380f1\n      eq\n      tag_8\n      jumpi\n      dup1\n      0x9507d39a\n      eq\n      tag_9\n      jumpi\n      dup1\n      0xde8fa431\n      eq\n      tag_10\n      jumpi\n      revert(0x00, 0x00)\n    tag_11:\n      dup1\n      0x0cb6aaf1\n      eq\n      tag_3\n      jumpi\n      dup1\n      0x27e235e3\n      eq\n      tag_4\n      jumpi\n      dup1\n      0x3825d828\n      eq\n      tag_5\n      jumpi\n      dup1\n      0x3df4ddf4\n      eq\n      tag_6\n      jumpi\n    tag_2:\n      revert(0x00, 0x00)\n        /* \"IterableMapping.sol\":267:288  address[] public keys */\n    tag_3:\n      tag_12\n      tag_13\n      calldatasize\n      0x04\n      tag_14\n      jump\t// in\n    tag_13:\n      tag_15\n      jump\t// in\n    tag_12:\n      mload(0x40)\n      sub(shl(0xa0, 0x01), 0x01)\n        /* \"#utility.yul\":409:441   */\n      swap1\n      swap2\n      and\n        /* \"#utility.yul\":391:442   */\n      dup2\n      mstore\n        /* \"#utility.yul\":379:381   */\n      0x20\n        /* \"#utility.yul\":364:382   */\n      add\n        /* \"IterableMapping.sol\":267:288  address[] public keys */\n    tag_16:\n      mload(0x40)\n      dup1\n      swap2\n      sub\n      swap1\n      return\n        /* \"IterableMapping.sol\":168:212  mapping (address => uint256) public balances */\n    tag_4:\n      tag_18\n      tag_19\n      calldatasize\n      0x04\n      tag_20\n      jump\t// in\n    tag_19:\n      0x00\n      0x20\n      dup2\n      swap1\n      mstore\n      swap1\n      dup2\n      mstore\n      0x40\n      swap1\n      keccak256\n      sload\n      dup2\n      jump\n    tag_18:\n      mload(0x40)\n        /* \"#utility.yul\":968:993   */\n      swap1\n      dup2\n      mstore\n        /* \"#utility.yul\":956:958   */\n      0x20\n        /* \"#utility.yul\":941:959   */\n      add\n        /* \"IterableMapping.sol\":168:212  mapping (address => uint256) public balances */\n      tag_16\n        /* \"#utility.yul\":822:999   */\n      jump\n        /* \"IterableMapping.sol\":295:484  function set(address _key,uint _val)external {... */\n    tag_5:\n      tag_24\n      tag_25\n      calldatasize\n      0x04\n      tag_26\n      jump\t// in\n    tag_25:\n      tag_27\n      jump\t// in\n    tag_24:\n      stop\n        /* \"IterableMapping.sol\":585:678  function first() external view returns ( uint256) {... */\n    tag_6:\n      tag_18\n      tag_29\n      jump\t// in\n        /* \"IterableMapping.sol\":690:791  function last() external view returns (uint){... */\n    tag_7:\n      tag_18\n      tag_32\n      jump\t// in\n        /* \"IterableMapping.sol\":219:260  mapping (address => bool) public inserted */\n    tag_8:\n      tag_34\n      tag_35\n      calldatasize\n      0x04\n      tag_20\n      jump\t// in\n    tag_35:\n      mstore(0x20, 0x01)\n      0x00\n      swap1\n      dup2\n      mstore\n      0x40\n      swap1\n      keccak256\n      sload\n      0xff\n      and\n      dup2\n      jump\n    tag_34:\n      mload(0x40)\n        /* \"#utility.yul\":1474:1488   */\n      swap1\n      iszero\n        /* \"#utility.yul\":1467:1489   */\n      iszero\n        /* \"#utility.yul\":1449:1490   */\n      dup2\n      mstore\n        /* \"#utility.yul\":1437:1439   */\n      0x20\n        /* \"#utility.yul\":1422:1440   */\n      add\n        /* \"IterableMapping.sol\":219:260  mapping (address => bool) public inserted */\n      tag_16\n        /* \"#utility.yul\":1309:1496   */\n      jump\n        /* \"IterableMapping.sol\":799:893  function get(uint _i) external view returns (uint){... */\n    tag_9:\n      tag_18\n      tag_40\n      calldatasize\n      0x04\n      tag_14\n      jump\t// in\n    tag_40:\n      tag_41\n      jump\t// in\n        /* \"IterableMapping.sol\":492:577  function getSize() external view returns (uint) {... */\n    tag_10:\n        /* \"IterableMapping.sol\":558:562  keys */\n      0x02\n        /* \"IterableMapping.sol\":558:569  keys.length */\n      sload\n        /* \"IterableMapping.sol\":492:577  function getSize() external view returns (uint) {... */\n      jump(tag_18)\n        /* \"IterableMapping.sol\":267:288  address[] public keys */\n    tag_15:\n      0x02\n      dup2\n      dup2\n      sload\n      dup2\n      lt\n      tag_46\n      jumpi\n      0x00\n      dup1\n      revert\n    tag_46:\n      0x00\n      swap2\n      dup3\n      mstore\n      0x20\n      swap1\n      swap2\n      keccak256\n      add\n      sload\n      sub(shl(0xa0, 0x01), 0x01)\n      and\n      swap1\n      pop\n      dup2\n      jump\t// out\n        /* \"IterableMapping.sol\":295:484  function set(address _key,uint _val)external {... */\n    tag_27:\n      sub(shl(0xa0, 0x01), 0x01)\n        /* \"IterableMapping.sol\":351:365  balances[_key] */\n      dup3\n      and\n        /* \"IterableMapping.sol\":351:359  balances */\n      0x00\n        /* \"IterableMapping.sol\":351:365  balances[_key] */\n      swap1\n      dup2\n      mstore\n      0x20\n      dup2\n      dup2\n      mstore\n      0x40\n      dup1\n      dup4\n      keccak256\n        /* \"IterableMapping.sol\":351:370  balances[_key]=_val */\n      dup5\n      swap1\n      sstore\n        /* \"IterableMapping.sol\":386:394  inserted */\n      0x01\n        /* \"IterableMapping.sol\":386:400  inserted[_key] */\n      swap1\n      swap2\n      mstore\n      swap1\n      keccak256\n      sload\n      0xff\n      and\n        /* \"IterableMapping.sol\":381:477  if (!inserted[_key]){... */\n      tag_49\n      jumpi\n      sub(shl(0xa0, 0x01), 0x01)\n        /* \"IterableMapping.sol\":416:430  inserted[_key] */\n      dup3\n      and\n      0x00\n      dup2\n      dup2\n      mstore\n        /* \"IterableMapping.sol\":431:435  true */\n      0x01\n        /* \"IterableMapping.sol\":416:430  inserted[_key] */\n      0x20\n      dup2\n      swap1\n      mstore\n      0x40\n      dup3\n      keccak256\n        /* \"IterableMapping.sol\":416:435  inserted[_key]=true */\n      dup1\n      sload\n      not(0xff)\n      and\n      dup3\n      or\n      swap1\n      sstore\n        /* \"IterableMapping.sol\":450:454  keys */\n      0x02\n        /* \"IterableMapping.sol\":450:465  keys.push(_key) */\n      dup1\n      sload\n      swap2\n      dup3\n      add\n      dup2\n      sstore\n      swap1\n      swap2\n      mstore\n      0x405787fa12a823e0f2b7631cc41b3ba8828b3321ca811111fa75cd3aa3bb5ace\n      add\n      dup1\n      sload\n      not(sub(shl(0xa0, 0x01), 0x01))\n      and\n      swap1\n      swap2\n      or\n      swap1\n      sstore\n        /* \"IterableMapping.sol\":381:477  if (!inserted[_key]){... */\n    tag_49:\n        /* \"IterableMapping.sol\":295:484  function set(address _key,uint _val)external {... */\n      pop\n      pop\n      jump\t// out\n        /* \"IterableMapping.sol\":585:678  function first() external view returns ( uint256) {... */\n    tag_29:\n        /* \"IterableMapping.sol\":626:633  uint256 */\n      0x00\n        /* \"IterableMapping.sol\":653:661  balances */\n      0x00\n        /* \"IterableMapping.sol\":653:670  balances[keys[0]] */\n      0x00\n        /* \"IterableMapping.sol\":662:666  keys */\n      0x02\n        /* \"IterableMapping.sol\":667:668  0 */\n      0x00\n        /* \"IterableMapping.sol\":662:669  keys[0] */\n      dup2\n      sload\n      dup2\n      lt\n      tag_53\n      jumpi\n      tag_53\n      tag_54\n      jump\t// in\n    tag_53:\n      0x00\n      swap2\n      dup3\n      mstore\n      0x20\n      dup1\n      dup4\n      keccak256\n      swap1\n      swap2\n      add\n      sload\n      sub(shl(0xa0, 0x01), 0x01)\n      and\n        /* \"IterableMapping.sol\":653:670  balances[keys[0]] */\n      dup4\n      mstore\n      dup3\n      add\n      swap3\n      swap1\n      swap3\n      mstore\n      0x40\n      add\n      swap1\n      keccak256\n      sload\n      swap2\n        /* \"IterableMapping.sol\":585:678  function first() external view returns ( uint256) {... */\n      swap1\n      pop\n      jump\t// out\n        /* \"IterableMapping.sol\":690:791  function last() external view returns (uint){... */\n    tag_32:\n        /* \"IterableMapping.sol\":729:733  uint */\n      0x00\n        /* \"IterableMapping.sol\":752:760  balances */\n      0x00\n        /* \"IterableMapping.sol\":752:783  balances[keys[keys.length - 1]] */\n      0x00\n        /* \"IterableMapping.sol\":761:765  keys */\n      0x02\n        /* \"IterableMapping.sol\":780:781  1 */\n      0x01\n        /* \"IterableMapping.sol\":766:770  keys */\n      0x02\n        /* \"IterableMapping.sol\":766:777  keys.length */\n      dup1\n      sload\n      swap1\n      pop\n        /* \"IterableMapping.sol\":766:781  keys.length - 1 */\n      tag_57\n      swap2\n      swap1\n      tag_58\n      jump\t// in\n    tag_57:\n        /* \"IterableMapping.sol\":761:782  keys[keys.length - 1] */\n      dup2\n      sload\n      dup2\n      lt\n      tag_53\n      jumpi\n      tag_53\n      tag_54\n      jump\t// in\n        /* \"IterableMapping.sol\":799:893  function get(uint _i) external view returns (uint){... */\n    tag_41:\n        /* \"IterableMapping.sol\":844:848  uint */\n      0x00\n        /* \"IterableMapping.sol\":867:875  balances */\n      0x00\n        /* \"IterableMapping.sol\":867:885  balances[keys[_i]] */\n      0x00\n        /* \"IterableMapping.sol\":876:880  keys */\n      0x02\n        /* \"IterableMapping.sol\":881:883  _i */\n      dup5\n        /* \"IterableMapping.sol\":876:884  keys[_i] */\n      dup2\n      sload\n      dup2\n      lt\n      tag_64\n      jumpi\n      tag_64\n      tag_54\n      jump\t// in\n    tag_64:\n      0x00\n      swap2\n      dup3\n      mstore\n      0x20\n      dup1\n      dup4\n      keccak256\n      swap1\n      swap2\n      add\n      sload\n      sub(shl(0xa0, 0x01), 0x01)\n      and\n        /* \"IterableMapping.sol\":867:885  balances[keys[_i]] */\n      dup4\n      mstore\n      dup3\n      add\n      swap3\n      swap1\n      swap3\n      mstore\n      0x40\n      add\n      swap1\n      keccak256\n      sload\n      swap3\n        /* \"IterableMapping.sol\":799:893  function get(uint _i) external view returns (uint){... */\n      swap2\n      pop\n      pop\n      jump\t// out\n        /* \"#utility.yul\":14:240   */\n    tag_14:\n        /* \"#utility.yul\":73:79   */\n      0x00\n        /* \"#utility.yul\":126:128   */\n      0x20\n        /* \"#utility.yul\":114:123   */\n      dup3\n        /* \"#utility.yul\":105:112   */\n      dup5\n        /* \"#utility.yul\":101:124   */\n      sub\n        /* \"#utility.yul\":97:129   */\n      slt\n        /* \"#utility.yul\":94:146   */\n      iszero\n      tag_70\n      jumpi\n        /* \"#utility.yul\":142:143   */\n      0x00\n        /* \"#utility.yul\":139:140   */\n      0x00\n        /* \"#utility.yul\":132:144   */\n      revert\n        /* \"#utility.yul\":94:146   */\n    tag_70:\n      pop\n        /* \"#utility.yul\":187:210   */\n      calldataload\n      swap2\n        /* \"#utility.yul\":14:240   */\n      swap1\n      pop\n      jump\t// out\n        /* \"#utility.yul\":453:626   */\n    tag_67:\n        /* \"#utility.yul\":521:541   */\n      dup1\n      calldataload\n      sub(shl(0xa0, 0x01), 0x01)\n        /* \"#utility.yul\":570:601   */\n      dup2\n      and\n        /* \"#utility.yul\":560:602   */\n      dup2\n      eq\n        /* \"#utility.yul\":550:620   */\n      tag_73\n      jumpi\n        /* \"#utility.yul\":616:617   */\n      0x00\n        /* \"#utility.yul\":613:614   */\n      0x00\n        /* \"#utility.yul\":606:618   */\n      revert\n        /* \"#utility.yul\":550:620   */\n    tag_73:\n        /* \"#utility.yul\":453:626   */\n      swap2\n      swap1\n      pop\n      jump\t// out\n        /* \"#utility.yul\":631:817   */\n    tag_20:\n        /* \"#utility.yul\":690:696   */\n      0x00\n        /* \"#utility.yul\":743:745   */\n      0x20\n        /* \"#utility.yul\":731:740   */\n      dup3\n        /* \"#utility.yul\":722:729   */\n      dup5\n        /* \"#utility.yul\":718:741   */\n      sub\n        /* \"#utility.yul\":714:746   */\n      slt\n        /* \"#utility.yul\":711:763   */\n      iszero\n      tag_75\n      jumpi\n        /* \"#utility.yul\":759:760   */\n      0x00\n        /* \"#utility.yul\":756:757   */\n      0x00\n        /* \"#utility.yul\":749:761   */\n      revert\n        /* \"#utility.yul\":711:763   */\n    tag_75:\n        /* \"#utility.yul\":782:811   */\n      tag_76\n        /* \"#utility.yul\":801:810   */\n      dup3\n        /* \"#utility.yul\":782:811   */\n      tag_67\n      jump\t// in\n    tag_76:\n        /* \"#utility.yul\":772:811   */\n      swap4\n        /* \"#utility.yul\":631:817   */\n      swap3\n      pop\n      pop\n      pop\n      jump\t// out\n        /* \"#utility.yul\":1004:1304   */\n    tag_26:\n        /* \"#utility.yul\":1072:1078   */\n      0x00\n        /* \"#utility.yul\":1080:1086   */\n      0x00\n        /* \"#utility.yul\":1133:1135   */\n      0x40\n        /* \"#utility.yul\":1121:1130   */\n      dup4\n        /* \"#utility.yul\":1112:1119   */\n      dup6\n        /* \"#utility.yul\":1108:1131   */\n      sub\n        /* \"#utility.yul\":1104:1136   */\n      slt\n        /* \"#utility.yul\":1101:1153   */\n      iszero\n      tag_79\n      jumpi\n        /* \"#utility.yul\":1149:1150   */\n      0x00\n        /* \"#utility.yul\":1146:1147   */\n      0x00\n        /* \"#utility.yul\":1139:1151   */\n      revert\n        /* \"#utility.yul\":1101:1153   */\n    tag_79:\n        /* \"#utility.yul\":1172:1201   */\n      tag_80\n        /* \"#utility.yul\":1191:1200   */\n      dup4\n        /* \"#utility.yul\":1172:1201   */\n      tag_67\n      jump\t// in\n    tag_80:\n        /* \"#utility.yul\":1162:1201   */\n      swap5\n        /* \"#utility.yul\":1270:1272   */\n      0x20\n        /* \"#utility.yul\":1255:1273   */\n      swap4\n      swap1\n      swap4\n      add\n        /* \"#utility.yul\":1242:1274   */\n      calldataload\n      swap4\n      pop\n      pop\n      pop\n        /* \"#utility.yul\":1004:1304   */\n      jump\t// out\n        /* \"#utility.yul\":1501:1628   */\n    tag_54:\n        /* \"#utility.yul\":1562:1572   */\n      0x4e487b71\n        /* \"#utility.yul\":1557:1560   */\n      0xe0\n        /* \"#utility.yul\":1553:1573   */\n      shl\n        /* \"#utility.yul\":1550:1551   */\n      0x00\n        /* \"#utility.yul\":1543:1574   */\n      mstore\n        /* \"#utility.yul\":1593:1597   */\n      0x32\n        /* \"#utility.yul\":1590:1591   */\n      0x04\n        /* \"#utility.yul\":1583:1598   */\n      mstore\n        /* \"#utility.yul\":1617:1621   */\n      0x24\n        /* \"#utility.yul\":1614:1615   */\n      0x00\n        /* \"#utility.yul\":1607:1622   */\n      revert\n        /* \"#utility.yul\":1633:1858   */\n    tag_58:\n        /* \"#utility.yul\":1700:1709   */\n      dup2\n      dup2\n      sub\n        /* \"#utility.yul\":1721:1732   */\n      dup2\n      dup2\n      gt\n        /* \"#utility.yul\":1718:1852   */\n      iszero\n      tag_84\n      jumpi\n        /* \"#utility.yul\":1774:1784   */\n      0x4e487b71\n        /* \"#utility.yul\":1769:1772   */\n      0xe0\n        /* \"#utility.yul\":1765:1785   */\n      shl\n        /* \"#utility.yul\":1762:1763   */\n      0x00\n        /* \"#utility.yul\":1755:1786   */\n      mstore\n        /* \"#utility.yul\":1809:1813   */\n      0x11\n        /* \"#utility.yul\":1806:1807   */\n      0x04\n        /* \"#utility.yul\":1799:1814   */\n      mstore\n        /* \"#utility.yul\":1837:1841   */\n      0x24\n        /* \"#utility.yul\":1834:1835   */\n      0x00\n        /* \"#utility.yul\":1827:1842   */\n      revert\n        /* \"#utility.yul\":1718:1852   */\n    tag_84:\n        /* \"#utility.yul\":1633:1858   */\n      swap3\n      swap2\n      pop\n      pop\n      jump\t// out\n\n    auxdata: 0xa2646970667358221220012341dd93fb1283fcab2cb43ced61011f8e9dc1bc72441afc63afb236fbf44a64736f6c634300081d0033\n}\n",
				"bytecode": {
					"linkReferences": {},
					"object": "6080604052348015600e575f5ffd5b506103a08061001c5f395ff3fe608060405234801561000f575f5ffd5b5060043610610085575f3560e01c806347799da81161005857806347799da8146101035780637cd380f11461010b5780639507d39a1461013d578063de8fa43114610150575f5ffd5b80630cb6aaf11461008957806327e235e3146100b95780633825d828146100e65780633df4ddf4146100fb575b5f5ffd5b61009c6100973660046102b7565b610158565b6040516001600160a01b0390911681526020015b60405180910390f35b6100d86100c73660046102e9565b5f6020819052908152604090205481565b6040519081526020016100b0565b6100f96100f4366004610309565b610180565b005b6100d8610211565b6100d8610250565b61012d6101193660046102e9565b60016020525f908152604090205460ff1681565b60405190151581526020016100b0565b6100d861014b3660046102b7565b610277565b6002546100d8565b60028181548110610167575f80fd5b5f918252602090912001546001600160a01b0316905081565b6001600160a01b0382165f90815260208181526040808320849055600190915290205460ff1661020d576001600160a01b0382165f8181526001602081905260408220805460ff1916821790556002805491820181559091527f405787fa12a823e0f2b7631cc41b3ba8828b3321ca811111fa75cd3aa3bb5ace0180546001600160a01b03191690911790555b5050565b5f5f5f60025f8154811061022757610227610331565b5f9182526020808320909101546001600160a01b03168352820192909252604001902054919050565b5f5f5f600260016002805490506102679190610345565b8154811061022757610227610331565b5f5f5f6002848154811061028d5761028d610331565b5f9182526020808320909101546001600160a01b0316835282019290925260400190205492915050565b5f602082840312156102c7575f5ffd5b5035919050565b80356001600160a01b03811681146102e4575f5ffd5b919050565b5f602082840312156102f9575f5ffd5b610302826102ce565b9392505050565b5f5f6040838503121561031a575f5ffd5b610323836102ce565b946020939093013593505050565b634e487b7160e01b5f52603260045260245ffd5b8181038181111561036457634e487b7160e01b5f52601160045260245ffd5b9291505056fea2646970667358221220012341dd93fb1283fcab2cb43ced61011f8e9dc1bc72441afc63afb236fbf44a64736f6c634300081d0033",
					"opcodes": "PUSH1 0x80 PUSH1 0x40 MSTORE CALLVALUE DUP1 ISZERO PUSH1 0xE JUMPI PUSH0 PUSH0 REVERT JUMPDEST POP PUSH2 0x3A0 DUP1 PUSH2 0x1C PUSH0 CODECOPY PUSH0 RETURN INVALID PUSH1 0x80 PUSH1 0x40 MSTORE CALLVALUE DUP1 ISZERO PUSH2 0xF JUMPI PUSH0 PUSH0 REVERT JUMPDEST POP PUSH1 0x4 CALLDATASIZE LT PUSH2 0x85 JUMPI PUSH0 CALLDATALOAD PUSH1 0xE0 SHR DUP1 PUSH4 0x47799DA8 GT PUSH2 0x58 JUMPI DUP1 PUSH4 0x47799DA8 EQ PUSH2 0x103 JUMPI DUP1 PUSH4 0x7CD380F1 EQ PUSH2 0x10B JUMPI DUP1 PUSH4 0x9507D39A EQ PUSH2 0x13D JUMPI DUP1 PUSH4 0xDE8FA431 EQ PUSH2 0x150 JUMPI PUSH0 PUSH0 REVERT JUMPDEST DUP1 PUSH4 0xCB6AAF1 EQ PUSH2 0x89 JUMPI DUP1 PUSH4 0x27E235E3 EQ PUSH2 0xB9 JUMPI DUP1 PUSH4 0x3825D828 EQ PUSH2 0xE6 JUMPI DUP1 PUSH4 0x3DF4DDF4 EQ PUSH2 0xFB JUMPI JUMPDEST PUSH0 PUSH0 REVERT JUMPDEST PUSH2 0x9C PUSH2 0x97 CALLDATASIZE PUSH1 0x4 PUSH2 0x2B7 JUMP JUMPDEST PUSH2 0x158 JUMP JUMPDEST PUSH1 0x40 MLOAD PUSH1 0x1 PUSH1 0x1 PUSH1 0xA0 SHL SUB SWAP1 SWAP2 AND DUP2 MSTORE PUSH1 0x20 ADD JUMPDEST PUSH1 0x40 MLOAD DUP1 SWAP2 SUB SWAP1 RETURN JUMPDEST PUSH2 0xD8 PUSH2 0xC7 CALLDATASIZE PUSH1 0x4 PUSH2 0x2E9 JUMP JUMPDEST PUSH0 PUSH1 0x20 DUP2 SWAP1 MSTORE SWAP1 DUP2 MSTORE PUSH1 0x40 SWAP1 KECCAK256 SLOAD DUP2 JUMP JUMPDEST PUSH1 0x40 MLOAD SWAP1 DUP2 MSTORE PUSH1 0x20 ADD PUSH2 0xB0 JUMP JUMPDEST PUSH2 0xF9 PUSH2 0xF4 CALLDATASIZE PUSH1 0x4 PUSH2 0x309 JUMP JUMPDEST PUSH2 0x180 JUMP JUMPDEST STOP JUMPDEST PUSH2 0xD8 PUSH2 0x211 JUMP JUMPDEST PUSH2 0xD8 PUSH2 0x250 JUMP JUMPDEST PUSH2 0x12D PUSH2 0x119 CALLDATASIZE PUSH1 0x4 PUSH2 0x2E9 JUMP JUMPDEST PUSH1 0x1 PUSH1 0x20 MSTORE PUSH0 SWAP1 DUP2 MSTORE PUSH1 0x40 SWAP1 KECCAK256 SLOAD PUSH1 0xFF AND DUP2 JUMP JUMPDEST PUSH1 0x40 MLOAD SWAP1 ISZERO ISZERO DUP2 MSTORE PUSH1 0x20 ADD PUSH2 0xB0 JUMP JUMPDEST PUSH2 0xD8 PUSH2 0x14B CALLDATASIZE PUSH1 0x4 PUSH2 0x2B7 JUMP JUMPDEST PUSH2 0x277 JUMP JUMPDEST PUSH1 0x2 SLOAD PUSH2 0xD8 JUMP JUMPDEST PUSH1 0x2 DUP2 DUP2 SLOAD DUP2 LT PUSH2 0x167 JUMPI PUSH0 DUP1 REVERT JUMPDEST PUSH0 SWAP2 DUP3 MSTORE PUSH1 0x20 SWAP1 SWAP2 KECCAK256 ADD SLOAD PUSH1 0x1 PUSH1 0x1 PUSH1 0xA0 SHL SUB AND SWAP1 POP DUP2 JUMP JUMPDEST PUSH1 0x1 PUSH1 0x1 PUSH1 0xA0 SHL SUB DUP3 AND PUSH0 SWAP1 DUP2 MSTORE PUSH1 0x20 DUP2 DUP2 MSTORE PUSH1 0x40 DUP1 DUP4 KECCAK256 DUP5 SWAP1 SSTORE PUSH1 0x1 SWAP1 SWAP2 MSTORE SWAP1 KECCAK256 SLOAD PUSH1 0xFF AND PUSH2 0x20D JUMPI PUSH1 0x1 PUSH1 0x1 PUSH1 0xA0 SHL SUB DUP3 AND PUSH0 DUP2 DUP2 MSTORE PUSH1 0x1 PUSH1 0x20 DUP2 SWAP1 MSTORE PUSH1 0x40 DUP3 KECCAK256 DUP1 SLOAD PUSH1 0xFF NOT AND DUP3 OR SWAP1 SSTORE PUSH1 0x2 DUP1 SLOAD SWAP2 DUP3 ADD DUP2 SSTORE SWAP1 SWAP2 MSTORE PUSH32 0x405787FA12A823E0F2B7631CC41B3BA8828B3321CA811111FA75CD3AA3BB5ACE ADD DUP1 SLOAD PUSH1 0x1 PUSH1 0x1 PUSH1 0xA0 SHL SUB NOT AND SWAP1 SWAP2 OR SWAP1 SSTORE JUMPDEST POP POP JUMP JUMPDEST PUSH0 PUSH0 PUSH0 PUSH1 0x2 PUSH0 DUP2 SLOAD DUP2 LT PUSH2 0x227 JUMPI PUSH2 0x227 PUSH2 0x331 JUMP JUMPDEST PUSH0 SWAP2 DUP3 MSTORE PUSH1 0x20 DUP1 DUP4 KECCAK256 SWAP1 SWAP2 ADD SLOAD PUSH1 0x1 PUSH1 0x1 PUSH1 0xA0 SHL SUB AND DUP4 MSTORE DUP3 ADD SWAP3 SWAP1 SWAP3 MSTORE PUSH1 0x40 ADD SWAP1 KECCAK256 SLOAD SWAP2 SWAP1 POP JUMP JUMPDEST PUSH0 PUSH0 PUSH0 PUSH1 0x2 PUSH1 0x1 PUSH1 0x2 DUP1 SLOAD SWAP1 POP PUSH2 0x267 SWAP2 SWAP1 PUSH2 0x345 JUMP JUMPDEST DUP2 SLOAD DUP2 LT PUSH2 0x227 JUMPI PUSH2 0x227 PUSH2 0x331 JUMP JUMPDEST PUSH0 PUSH0 PUSH0 PUSH1 0x2 DUP5 DUP2 SLOAD DUP2 LT PUSH2 0x28D JUMPI PUSH2 0x28D PUSH2 0x331 JUMP JUMPDEST PUSH0 SWAP2 DUP3 MSTORE PUSH1 0x20 DUP1 DUP4 KECCAK256 SWAP1 SWAP2 ADD SLOAD PUSH1 0x1 PUSH1 0x1 PUSH1 0xA0 SHL SUB AND DUP4 MSTORE DUP3 ADD SWAP3 SWAP1 SWAP3 MSTORE PUSH1 0x40 ADD SWAP1 KECCAK256 SLOAD SWAP3 SWAP2 POP POP JUMP JUMPDEST PUSH0 PUSH1 0x20 DUP3 DUP5 SUB SLT ISZERO PUSH2 0x2C7 JUMPI PUSH0 PUSH0 REVERT JUMPDEST POP CALLDATALOAD SWAP2 SWAP1 POP JUMP JUMPDEST DUP1 CALLDATALOAD PUSH1 0x1 PUSH1 0x1 PUSH1 0xA0 SHL SUB DUP2 AND DUP2 EQ PUSH2 0x2E4 JUMPI PUSH0 PUSH0 REVERT JUMPDEST SWAP2 SWAP1 POP JUMP JUMPDEST PUSH0 PUSH1 0x20 DUP3 DUP5 SUB SLT ISZERO PUSH2 0x2F9 JUMPI PUSH0 PUSH0 REVERT JUMPDEST PUSH2 0x302 DUP3 PUSH2 0x2CE JUMP JUMPDEST SWAP4 SWAP3 POP POP POP JUMP JUMPDEST PUSH0 PUSH0 PUSH1 0x40 DUP4 DUP6 SUB SLT ISZERO PUSH2 0x31A JUMPI PUSH0 PUSH0 REVERT JUMPDEST PUSH2 0x323 DUP4 PUSH2 0x2CE JUMP JUMPDEST SWAP5 PUSH1 0x20 SWAP4 SWAP1 SWAP4 ADD CALLDATALOAD SWAP4 POP POP POP JUMP JUMPDEST PUSH4 0x4E487B71 PUSH1 0xE0 SHL PUSH0 MSTORE PUSH1 0x32 PUSH1 0x4 MSTORE PUSH1 0x24 PUSH0 REVERT JUMPDEST DUP2 DUP2 SUB DUP2 DUP2 GT ISZERO PUSH2 0x364 JUMPI PUSH4 0x4E487B71 PUSH1 0xE0 SHL PUSH0 MSTORE PUSH1 0x11 PUSH1 0x4 MSTORE PUSH1 0x24 PUSH0 REVERT JUMPDEST SWAP3 SWAP2 POP POP JUMP INVALID LOG2 PUSH5 0x6970667358 0x22 SLT KECCAK256 ADD 0x23 COINBASE 0xDD SWAP4 EXTSTATICCALL SLT DUP4 0xFC 0xAB 0x2C 0xB4 EXTCODECOPY 0xED PUSH2 0x11F DUP15 SWAP14 0xC1 0xBC PUSH19 0x441AFC63AFB236FBF44A64736F6C634300081D STOP CALLER "
				},
				"gasEstimates": {
					"creation": {
						"codeDepositCost": "185600",
						"executionCost": "224",
						"totalCost": "185824"
					},
					"external": {
						"balances(address)": "2542",
						"first()": "6767",
						"get(uint256)": "6823",
						"getSize()": "2357",
						"inserted(address)": "2550",
						"keys(uint256)": "4601",
						"last()": "8887",
						"set(address,uint256)": "97532"
					}
				},
				"methodIdentifiers": {
					"balances(address)": "27e235e3",
					"first()": "3df4ddf4",
					"get(uint256)": "9507d39a",
					"getSize()": "de8fa431",
					"inserted(address)": "7cd380f1",
					"keys(uint256)": "0cb6aaf1",
					"last()": "47799da8",
					"set(address,uint256)": "3825d828"
				}
			},
			"storageLayout": {
				"storage": [
					{
						"astId": 5,
						"contract": "IterableMapping.sol:IterableMapping",
						"label": "balances",
						"offset": 0,
						"slot": "0",
						"type": "t_mapping(t_address,t_uint256)"
					},
					{
						"astId": 9,
						"contract": "IterableMapping.sol:IterableMapping",
						"label": "inserted",
						"offset": 0,
						"slot": "1",
						"type": "t_mapping(t_address,t_bool)"
					},
					{
						"astId": 12,
						"contract": "IterableMapping.sol:IterableMapping",
						"label": "keys",
						"offset": 0,
						"slot": "2",
						"type": "t_array(t_address)dyn_storage"
					}
				],
				"types": {
					"t_address": {
						"encoding": "inplace",
						"label": "address",
						"numberOfBytes": "20"
					},
					"t_array(t_address)dyn_storage": {
						"base": "t_address",
						"encoding": "dynamic_array",
						"label": "address[]",
						"numberOfBytes": "32"
					},
					"t_bool": {
						"encoding": "inplace",
						"label": "bool",
						"numberOfBytes": "1"
					},
					"t_mapping(t_address,t_bool)": {
						"encoding": "mapping",
						"key": "t_address",
						"label": "mapping(address => bool)",
						"numberOfBytes": "32",
						"value": "t_bool"
					},
					"t_mapping(t_address,t_uint256)": {
						"encoding": "mapping",
						"key": "t_address",
						"label": "mapping(address => uint256)",
						"numberOfBytes": "32",
						"value": "t_uint256"
					},
					"t_uint256": {
						"encoding": "inplace",
						"label": "uint256",
						"numberOfBytes": "32"
					}
				}
			},
			"userdoc": {
				"kind": "user",
				"methods": {},
				"version": 1
			}
		}
	}
}