{
	"LocalVariables.sol": {
		"LocalVariables": {
			"abi": [
				{
					"inputs": [
						{
							"internalType": "uint256[]",
							"name": "y",
							"type": "uint256[]"
						},
						{
							"internalType": "string",
							"name": "s",
							"type": "string"
						}
					],
					"name": "examples",
					"outputs": [
						{
							"internalType": "uint256[]",
							"name": "",
							"type": "uint256[]"
						}
					],
					"stateMutability": "nonpayable",
					"type": "function"
				}
			],
			"devdoc": {
				"kind": "dev",
				"methods": {},
				"version": 1
			},
			"evm": {
				"assembly": "    /* \"LocalVariables.sol\":580:1247  contract LocalVariables{... */\n  mstore(0x40, 0x80)\n  callvalue\n  dup1\n  iszero\n  tag_1\n  jumpi\n  revert(0x00, 0x00)\ntag_1:\n  pop\n  dataSize(sub_0)\n  dup1\n  dataOffset(sub_0)\n  0x00\n  codecopy\n  0x00\n  return\nstop\n\nsub_0: assembly {\n        /* \"LocalVariables.sol\":580:1247  contract LocalVariables{... */\n      mstore(0x40, 0x80)\n      callvalue\n      dup1\n      iszero\n      tag_1\n      jumpi\n      revert(0x00, 0x00)\n    tag_1:\n      pop\n      jumpi(tag_2, lt(calldatasize, 0x04))\n      shr(0xe0, calldataload(0x00))\n      dup1\n      0xfc277a95\n      eq\n      tag_3\n      jumpi\n    tag_2:\n      revert(0x00, 0x00)\n        /* \"LocalVariables.sol\":726:1242  function examples(uint[] memory y,string memory s) external returns (uint[] memory){... */\n    tag_3:\n      tag_4\n      tag_5\n      calldatasize\n      0x04\n      tag_6\n      jump\t// in\n    tag_5:\n      tag_7\n      jump\t// in\n    tag_4:\n      mload(0x40)\n      tag_8\n      swap2\n      swap1\n      tag_9\n      jump\t// in\n    tag_8:\n      mload(0x40)\n      dup1\n      swap2\n      sub\n      swap1\n      return\n    tag_7:\n        /* \"LocalVariables.sol\":838:863  MyStruct(256,\"mystruct1\") */\n      0x40\n      dup1\n      mload\n      dup1\n      dup3\n      add\n      dup3\n      mstore\n        /* \"LocalVariables.sol\":847:850  256 */\n      0x0100\n        /* \"LocalVariables.sol\":838:863  MyStruct(256,\"mystruct1\") */\n      dup2\n      mstore\n      dup2\n      mload\n      dup1\n      dup4\n      add\n      dup4\n      mstore\n      0x09\n      dup2\n      mstore\n      shl(0xb8, 0x6d7973747275637431)\n      0x20\n      dup3\n      dup2\n      add\n      swap2\n      swap1\n      swap2\n      mstore\n      dup1\n      dup4\n      add\n      swap2\n      dup3\n      mstore\n        /* \"LocalVariables.sol\":826:836  msg.sender */\n      caller\n      0x00\n        /* \"LocalVariables.sol\":820:837  myMap[msg.sender] */\n      swap1\n      dup2\n      mstore\n      swap1\n      dup2\n      swap1\n      mstore\n      swap3\n      swap1\n      swap3\n      keccak256\n        /* \"LocalVariables.sol\":820:863  myMap[msg.sender]=MyStruct(256,\"mystruct1\") */\n      dup2\n      mload\n      dup2\n      sstore\n      swap2\n      mload\n        /* \"LocalVariables.sol\":795:808  uint[] memory */\n      0x60\n      swap3\n        /* \"LocalVariables.sol\":820:837  myMap[msg.sender] */\n      swap1\n        /* \"LocalVariables.sol\":820:863  myMap[msg.sender]=MyStruct(256,\"mystruct1\") */\n      0x01\n      dup3\n      add\n      swap1\n      tag_11\n      swap1\n      dup3\n      tag_12\n      jump\t// in\n    tag_11:\n      pop\n      pop\n        /* \"LocalVariables.sol\":914:924  msg.sender */\n      caller\n        /* \"LocalVariables.sol\":876:906  MyStruct storage storageStruct */\n      0x00\n        /* \"LocalVariables.sol\":908:925  myMap[msg.sender] */\n      swap1\n      dup2\n      mstore\n      0x20\n      dup2\n      dup2\n      mstore\n      0x40\n      swap2\n      dup3\n      swap1\n      keccak256\n        /* \"LocalVariables.sol\":972:999  storageStruct.text=\"update\" */\n      dup3\n      mload\n      dup1\n      dup5\n      add\n      swap1\n      swap4\n      mstore\n      0x06\n      dup4\n      mstore\n      shl(0xd0, 0x757064617465)\n      swap2\n      dup4\n      add\n      swap2\n      swap1\n      swap2\n      mstore\n        /* \"LocalVariables.sol\":908:925  myMap[msg.sender] */\n      swap2\n      pop\n        /* \"LocalVariables.sol\":972:990  storageStruct.text */\n      0x01\n      dup3\n      add\n      swap1\n        /* \"LocalVariables.sol\":972:999  storageStruct.text=\"update\" */\n      tag_13\n      swap1\n        /* \"LocalVariables.sol\":972:990  storageStruct.text */\n      dup3\n        /* \"LocalVariables.sol\":972:999  storageStruct.text=\"update\" */\n      tag_12\n      jump\t// in\n    tag_13:\n      pop\n        /* \"LocalVariables.sol\":1052:1062  msg.sender */\n      caller\n        /* \"LocalVariables.sol\":1020:1044  MyStruct memory readOnly */\n      0x00\n        /* \"LocalVariables.sol\":1046:1063  myMap[msg.sender] */\n      swap1\n      dup2\n      mstore\n      0x20\n      dup2\n      dup2\n      mstore\n      0x40\n      dup1\n      dup4\n      keccak256\n        /* \"LocalVariables.sol\":1020:1063  MyStruct memory readOnly= myMap[msg.sender] */\n      dup2\n      mload\n      dup1\n      dup4\n      add\n      swap1\n      swap3\n      mstore\n      dup1\n      sload\n      dup3\n      mstore\n      0x01\n      dup2\n      add\n      dup1\n      sload\n      swap3\n      swap4\n        /* \"LocalVariables.sol\":1046:1063  myMap[msg.sender] */\n      swap2\n      swap3\n        /* \"LocalVariables.sol\":1020:1063  MyStruct memory readOnly= myMap[msg.sender] */\n      swap2\n      dup5\n      add\n      swap2\n      tag_14\n      swap1\n      tag_15\n      jump\t// in\n    tag_14:\n      dup1\n      0x1f\n      add\n      0x20\n      dup1\n      swap2\n      div\n      mul\n      0x20\n      add\n      mload(0x40)\n      swap1\n      dup2\n      add\n      0x40\n      mstore\n      dup1\n      swap3\n      swap2\n      swap1\n      dup2\n      dup2\n      mstore\n      0x20\n      add\n      dup3\n      dup1\n      sload\n      tag_16\n      swap1\n      tag_15\n      jump\t// in\n    tag_16:\n      dup1\n      iszero\n      tag_17\n      jumpi\n      dup1\n      0x1f\n      lt\n      tag_18\n      jumpi\n      0x0100\n      dup1\n      dup4\n      sload\n      div\n      mul\n      dup4\n      mstore\n      swap2\n      0x20\n      add\n      swap2\n      jump(tag_17)\n    tag_18:\n      dup3\n      add\n      swap2\n      swap1\n      0x00\n      mstore\n      keccak256(0x00, 0x20)\n      swap1\n    tag_19:\n      dup2\n      sload\n      dup2\n      mstore\n      swap1\n      0x01\n      add\n      swap1\n      0x20\n      add\n      dup1\n      dup4\n      gt\n      tag_19\n      jumpi\n      dup3\n      swap1\n      sub\n      0x1f\n      and\n      dup3\n      add\n      swap2\n    tag_17:\n      pop\n      pop\n      pop\n      swap2\n      swap1\n      swap3\n      mstore\n      pop\n      pop\n        /* \"LocalVariables.sol\":1125:1128  456 */\n      0x01c8\n        /* \"LocalVariables.sol\":1110:1128  readOnly.foo = 456 */\n      dup3\n      mstore\n      pop\n        /* \"LocalVariables.sol\":1172:1186  new uint[](10) */\n      0x40\n      dup1\n      mload\n        /* \"LocalVariables.sol\":1183:1185  10 */\n      0x0a\n        /* \"LocalVariables.sol\":1172:1186  new uint[](10) */\n      dup1\n      dup3\n      mstore\n      0x0160\n      dup3\n      add\n      swap1\n      swap3\n      mstore\n        /* \"LocalVariables.sol\":1110:1128  readOnly.foo = 456 */\n      swap2\n      swap3\n      pop\n        /* \"LocalVariables.sol\":1110:1122  readOnly.foo */\n      0x00\n      swap2\n        /* \"LocalVariables.sol\":1172:1186  new uint[](10) */\n      swap1\n      0x20\n      dup3\n      add\n      0x0140\n      dup1\n      calldatasize\n      dup4\n      calldatacopy\n      add\n      swap1\n      pop\n      pop\n        /* \"LocalVariables.sol\":1151:1186  uint[] memory memArr=new uint[](10) */\n      swap1\n      pop\n        /* \"LocalVariables.sol\":1207:1210  234 */\n      0xea\n        /* \"LocalVariables.sol\":1197:1203  memArr */\n      dup2\n        /* \"LocalVariables.sol\":1204:1205  0 */\n      0x00\n        /* \"LocalVariables.sol\":1197:1206  memArr[0] */\n      dup2\n      mload\n      dup2\n      lt\n      tag_25\n      jumpi\n      tag_25\n      tag_26\n      jump\t// in\n    tag_25:\n      0x20\n      swap1\n      dup2\n      mul\n      swap2\n      swap1\n      swap2\n      add\n      add\n        /* \"LocalVariables.sol\":1197:1210  memArr[0]=234 */\n      mstore\n        /* \"LocalVariables.sol\":1228:1234  memArr */\n      swap6\n        /* \"LocalVariables.sol\":726:1242  function examples(uint[] memory y,string memory s) external returns (uint[] memory){... */\n      swap5\n      pop\n      pop\n      pop\n      pop\n      pop\n      jump\t// out\n        /* \"#utility.yul\":14:141   */\n    tag_22:\n        /* \"#utility.yul\":75:85   */\n      0x4e487b71\n        /* \"#utility.yul\":70:73   */\n      0xe0\n        /* \"#utility.yul\":66:86   */\n      shl\n        /* \"#utility.yul\":63:64   */\n      0x00\n        /* \"#utility.yul\":56:87   */\n      mstore\n        /* \"#utility.yul\":106:110   */\n      0x41\n        /* \"#utility.yul\":103:104   */\n      0x04\n        /* \"#utility.yul\":96:111   */\n      mstore\n        /* \"#utility.yul\":130:134   */\n      0x24\n        /* \"#utility.yul\":127:128   */\n      0x00\n        /* \"#utility.yul\":120:135   */\n      revert\n        /* \"#utility.yul\":146:421   */\n    tag_27:\n        /* \"#utility.yul\":217:219   */\n      0x40\n        /* \"#utility.yul\":211:220   */\n      mload\n        /* \"#utility.yul\":282:284   */\n      0x1f\n        /* \"#utility.yul\":263:276   */\n      dup3\n      add\n      not(0x1f)\n        /* \"#utility.yul\":259:286   */\n      and\n        /* \"#utility.yul\":247:287   */\n      dup2\n      add\n        /* \"#utility.yul\":317:335   */\n      0xffffffffffffffff\n        /* \"#utility.yul\":302:336   */\n      dup2\n      gt\n        /* \"#utility.yul\":338:360   */\n      dup3\n      dup3\n      lt\n        /* \"#utility.yul\":299:361   */\n      or\n        /* \"#utility.yul\":296:384   */\n      iszero\n      tag_36\n      jumpi\n        /* \"#utility.yul\":364:382   */\n      tag_36\n      tag_22\n      jump\t// in\n    tag_36:\n        /* \"#utility.yul\":400:402   */\n      0x40\n        /* \"#utility.yul\":393:415   */\n      mstore\n        /* \"#utility.yul\":146:421   */\n      swap2\n      swap1\n      pop\n      jump\t// out\n        /* \"#utility.yul\":426:985   */\n    tag_28:\n        /* \"#utility.yul\":469:474   */\n      0x00\n        /* \"#utility.yul\":522:525   */\n      dup3\n        /* \"#utility.yul\":515:519   */\n      0x1f\n        /* \"#utility.yul\":507:513   */\n      dup4\n        /* \"#utility.yul\":503:520   */\n      add\n        /* \"#utility.yul\":499:526   */\n      slt\n        /* \"#utility.yul\":489:544   */\n      tag_38\n      jumpi\n        /* \"#utility.yul\":540:541   */\n      0x00\n        /* \"#utility.yul\":537:538   */\n      0x00\n        /* \"#utility.yul\":530:542   */\n      revert\n        /* \"#utility.yul\":489:544   */\n    tag_38:\n        /* \"#utility.yul\":580:586   */\n      dup2\n        /* \"#utility.yul\":567:587   */\n      calldataload\n        /* \"#utility.yul\":610:628   */\n      0xffffffffffffffff\n        /* \"#utility.yul\":602:608   */\n      dup2\n        /* \"#utility.yul\":599:629   */\n      gt\n        /* \"#utility.yul\":596:652   */\n      iszero\n      tag_40\n      jumpi\n        /* \"#utility.yul\":632:650   */\n      tag_40\n      tag_22\n      jump\t// in\n    tag_40:\n        /* \"#utility.yul\":676:735   */\n      tag_41\n        /* \"#utility.yul\":723:725   */\n      0x1f\n        /* \"#utility.yul\":700:717   */\n      dup3\n      add\n      not(0x1f)\n        /* \"#utility.yul\":696:727   */\n      and\n        /* \"#utility.yul\":729:733   */\n      0x20\n        /* \"#utility.yul\":692:734   */\n      add\n        /* \"#utility.yul\":676:735   */\n      tag_27\n      jump\t// in\n    tag_41:\n        /* \"#utility.yul\":760:766   */\n      dup2\n        /* \"#utility.yul\":751:758   */\n      dup2\n        /* \"#utility.yul\":744:767   */\n      mstore\n        /* \"#utility.yul\":814:817   */\n      dup5\n        /* \"#utility.yul\":807:811   */\n      0x20\n        /* \"#utility.yul\":798:804   */\n      dup4\n        /* \"#utility.yul\":790:796   */\n      dup7\n        /* \"#utility.yul\":786:805   */\n      add\n        /* \"#utility.yul\":782:812   */\n      add\n        /* \"#utility.yul\":779:818   */\n      gt\n        /* \"#utility.yul\":776:835   */\n      iszero\n      tag_42\n      jumpi\n        /* \"#utility.yul\":831:832   */\n      0x00\n        /* \"#utility.yul\":828:829   */\n      0x00\n        /* \"#utility.yul\":821:833   */\n      revert\n        /* \"#utility.yul\":776:835   */\n    tag_42:\n        /* \"#utility.yul\":896:902   */\n      dup2\n        /* \"#utility.yul\":889:893   */\n      0x20\n        /* \"#utility.yul\":881:887   */\n      dup6\n        /* \"#utility.yul\":877:894   */\n      add\n        /* \"#utility.yul\":870:874   */\n      0x20\n        /* \"#utility.yul\":861:868   */\n      dup4\n        /* \"#utility.yul\":857:875   */\n      add\n        /* \"#utility.yul\":844:903   */\n      calldatacopy\n        /* \"#utility.yul\":952:953   */\n      0x00\n        /* \"#utility.yul\":923:943   */\n      swap2\n      dup2\n      add\n        /* \"#utility.yul\":945:949   */\n      0x20\n        /* \"#utility.yul\":919:950   */\n      add\n        /* \"#utility.yul\":912:954   */\n      swap2\n      swap1\n      swap2\n      mstore\n        /* \"#utility.yul\":927:934   */\n      swap4\n        /* \"#utility.yul\":426:985   */\n      swap3\n      pop\n      pop\n      pop\n      jump\t// out\n        /* \"#utility.yul\":990:2156   */\n    tag_6:\n        /* \"#utility.yul\":1093:1099   */\n      0x00\n        /* \"#utility.yul\":1101:1107   */\n      0x00\n        /* \"#utility.yul\":1154:1156   */\n      0x40\n        /* \"#utility.yul\":1142:1151   */\n      dup4\n        /* \"#utility.yul\":1133:1140   */\n      dup6\n        /* \"#utility.yul\":1129:1152   */\n      sub\n        /* \"#utility.yul\":1125:1157   */\n      slt\n        /* \"#utility.yul\":1122:1174   */\n      iszero\n      tag_44\n      jumpi\n        /* \"#utility.yul\":1170:1171   */\n      0x00\n        /* \"#utility.yul\":1167:1168   */\n      0x00\n        /* \"#utility.yul\":1160:1172   */\n      revert\n        /* \"#utility.yul\":1122:1174   */\n    tag_44:\n        /* \"#utility.yul\":1210:1219   */\n      dup3\n        /* \"#utility.yul\":1197:1220   */\n      calldataload\n        /* \"#utility.yul\":1243:1261   */\n      0xffffffffffffffff\n        /* \"#utility.yul\":1235:1241   */\n      dup2\n        /* \"#utility.yul\":1232:1262   */\n      gt\n        /* \"#utility.yul\":1229:1279   */\n      iszero\n      tag_45\n      jumpi\n        /* \"#utility.yul\":1275:1276   */\n      0x00\n        /* \"#utility.yul\":1272:1273   */\n      0x00\n        /* \"#utility.yul\":1265:1277   */\n      revert\n        /* \"#utility.yul\":1229:1279   */\n    tag_45:\n        /* \"#utility.yul\":1298:1320   */\n      dup4\n      add\n        /* \"#utility.yul\":1351:1355   */\n      0x1f\n        /* \"#utility.yul\":1343:1356   */\n      dup2\n      add\n        /* \"#utility.yul\":1339:1366   */\n      dup6\n      sgt\n        /* \"#utility.yul\":1329:1384   */\n      tag_46\n      jumpi\n        /* \"#utility.yul\":1380:1381   */\n      0x00\n        /* \"#utility.yul\":1377:1378   */\n      0x00\n        /* \"#utility.yul\":1370:1382   */\n      revert\n        /* \"#utility.yul\":1329:1384   */\n    tag_46:\n        /* \"#utility.yul\":1420:1422   */\n      dup1\n        /* \"#utility.yul\":1407:1423   */\n      calldataload\n        /* \"#utility.yul\":1446:1464   */\n      0xffffffffffffffff\n        /* \"#utility.yul\":1438:1444   */\n      dup2\n        /* \"#utility.yul\":1435:1465   */\n      gt\n        /* \"#utility.yul\":1432:1488   */\n      iszero\n      tag_48\n      jumpi\n        /* \"#utility.yul\":1468:1486   */\n      tag_48\n      tag_22\n      jump\t// in\n    tag_48:\n        /* \"#utility.yul\":1514:1520   */\n      dup1\n        /* \"#utility.yul\":1511:1512   */\n      0x05\n        /* \"#utility.yul\":1507:1521   */\n      shl\n        /* \"#utility.yul\":1541:1571   */\n      tag_49\n        /* \"#utility.yul\":1565:1569   */\n      0x20\n        /* \"#utility.yul\":1561:1563   */\n      dup3\n        /* \"#utility.yul\":1557:1570   */\n      add\n        /* \"#utility.yul\":1541:1571   */\n      tag_27\n      jump\t// in\n    tag_49:\n        /* \"#utility.yul\":1605:1624   */\n      swap2\n      dup3\n      mstore\n        /* \"#utility.yul\":1649:1653   */\n      0x20\n        /* \"#utility.yul\":1681:1692   */\n      dup2\n      dup5\n      add\n        /* \"#utility.yul\":1677:1699   */\n      dup2\n      add\n      swap3\n        /* \"#utility.yul\":1640:1654   */\n      swap1\n      dup2\n      add\n      swap1\n        /* \"#utility.yul\":1711:1730   */\n      dup9\n      dup5\n      gt\n        /* \"#utility.yul\":1708:1747   */\n      iszero\n      tag_50\n      jumpi\n        /* \"#utility.yul\":1743:1744   */\n      0x00\n        /* \"#utility.yul\":1740:1741   */\n      0x00\n        /* \"#utility.yul\":1733:1745   */\n      revert\n        /* \"#utility.yul\":1708:1747   */\n    tag_50:\n        /* \"#utility.yul\":1775:1779   */\n      0x20\n        /* \"#utility.yul\":1771:1773   */\n      dup6\n        /* \"#utility.yul\":1767:1780   */\n      add\n        /* \"#utility.yul\":1756:1780   */\n      swap5\n      pop\n        /* \"#utility.yul\":1789:1935   */\n    tag_51:\n        /* \"#utility.yul\":1805:1811   */\n      dup4\n        /* \"#utility.yul\":1800:1803   */\n      dup6\n        /* \"#utility.yul\":1797:1812   */\n      lt\n        /* \"#utility.yul\":1789:1935   */\n      iszero\n      tag_53\n      jumpi\n        /* \"#utility.yul\":1873:1890   */\n      dup5\n      calldataload\n        /* \"#utility.yul\":1861:1891   */\n      dup3\n      mstore\n        /* \"#utility.yul\":1920:1924   */\n      0x20\n        /* \"#utility.yul\":1822:1836   */\n      swap5\n      dup6\n      add\n      swap5\n        /* \"#utility.yul\":1911:1925   */\n      swap1\n      swap2\n      add\n      swap1\n        /* \"#utility.yul\":1789:1935   */\n      jump(tag_51)\n    tag_53:\n        /* \"#utility.yul\":1954:1959   */\n      swap6\n      pop\n      pop\n      pop\n      pop\n        /* \"#utility.yul\":2012:2016   */\n      0x20\n        /* \"#utility.yul\":1997:2017   */\n      dup5\n      add\n        /* \"#utility.yul\":1984:2018   */\n      calldataload\n      swap1\n      pop\n        /* \"#utility.yul\":2043:2061   */\n      0xffffffffffffffff\n        /* \"#utility.yul\":2030:2062   */\n      dup2\n      gt\n        /* \"#utility.yul\":2027:2079   */\n      iszero\n      tag_54\n      jumpi\n        /* \"#utility.yul\":2075:2076   */\n      0x00\n        /* \"#utility.yul\":2072:2073   */\n      0x00\n        /* \"#utility.yul\":2065:2077   */\n      revert\n        /* \"#utility.yul\":2027:2079   */\n    tag_54:\n        /* \"#utility.yul\":2098:2150   */\n      tag_55\n        /* \"#utility.yul\":2142:2149   */\n      dup6\n        /* \"#utility.yul\":2131:2139   */\n      dup3\n        /* \"#utility.yul\":2120:2129   */\n      dup7\n        /* \"#utility.yul\":2116:2140   */\n      add\n        /* \"#utility.yul\":2098:2150   */\n      tag_28\n      jump\t// in\n    tag_55:\n        /* \"#utility.yul\":2088:2150   */\n      swap2\n      pop\n      pop\n        /* \"#utility.yul\":990:2156   */\n      swap3\n      pop\n      swap3\n      swap1\n      pop\n      jump\t// out\n        /* \"#utility.yul\":2161:2772   */\n    tag_9:\n        /* \"#utility.yul\":2351:2353   */\n      0x20\n        /* \"#utility.yul\":2363:2384   */\n      dup1\n      dup3\n      mstore\n        /* \"#utility.yul\":2433:2446   */\n      dup3\n      mload\n        /* \"#utility.yul\":2336:2354   */\n      dup3\n      dup3\n      add\n        /* \"#utility.yul\":2455:2477   */\n      dup2\n      swap1\n      mstore\n        /* \"#utility.yul\":2303:2307   */\n      0x00\n      swap2\n        /* \"#utility.yul\":2534:2549   */\n      dup5\n      add\n      swap1\n        /* \"#utility.yul\":2508:2510   */\n      0x40\n        /* \"#utility.yul\":2493:2511   */\n      dup5\n      add\n      swap1\n        /* \"#utility.yul\":2303:2307   */\n      dup4\n        /* \"#utility.yul\":2577:2746   */\n    tag_57:\n        /* \"#utility.yul\":2591:2597   */\n      dup2\n        /* \"#utility.yul\":2588:2589   */\n      dup2\n        /* \"#utility.yul\":2585:2598   */\n      lt\n        /* \"#utility.yul\":2577:2746   */\n      iszero\n      tag_59\n      jumpi\n        /* \"#utility.yul\":2652:2665   */\n      dup4\n      mload\n        /* \"#utility.yul\":2640:2666   */\n      dup4\n      mstore\n        /* \"#utility.yul\":2695:2697   */\n      0x20\n        /* \"#utility.yul\":2721:2736   */\n      swap4\n      dup5\n      add\n      swap4\n        /* \"#utility.yul\":2686:2698   */\n      swap1\n      swap3\n      add\n      swap2\n        /* \"#utility.yul\":2613:2614   */\n      0x01\n        /* \"#utility.yul\":2606:2615   */\n      add\n        /* \"#utility.yul\":2577:2746   */\n      jump(tag_57)\n    tag_59:\n      pop\n        /* \"#utility.yul\":2763:2766   */\n      swap1\n      swap6\n        /* \"#utility.yul\":2161:2772   */\n      swap5\n      pop\n      pop\n      pop\n      pop\n      pop\n      jump\t// out\n        /* \"#utility.yul\":2777:3157   */\n    tag_15:\n        /* \"#utility.yul\":2856:2857   */\n      0x01\n        /* \"#utility.yul\":2852:2864   */\n      dup2\n      dup2\n      shr\n      swap1\n        /* \"#utility.yul\":2899:2911   */\n      dup3\n      and\n      dup1\n        /* \"#utility.yul\":2920:2981   */\n      tag_61\n      jumpi\n        /* \"#utility.yul\":2974:2978   */\n      0x7f\n        /* \"#utility.yul\":2966:2972   */\n      dup3\n        /* \"#utility.yul\":2962:2979   */\n      and\n        /* \"#utility.yul\":2952:2979   */\n      swap2\n      pop\n        /* \"#utility.yul\":2920:2981   */\n    tag_61:\n        /* \"#utility.yul\":3027:3029   */\n      0x20\n        /* \"#utility.yul\":3019:3025   */\n      dup3\n        /* \"#utility.yul\":3016:3030   */\n      lt\n        /* \"#utility.yul\":2996:3014   */\n      dup2\n        /* \"#utility.yul\":2993:3031   */\n      sub\n        /* \"#utility.yul\":2990:3151   */\n      tag_62\n      jumpi\n        /* \"#utility.yul\":3073:3083   */\n      0x4e487b71\n        /* \"#utility.yul\":3068:3071   */\n      0xe0\n        /* \"#utility.yul\":3064:3084   */\n      shl\n        /* \"#utility.yul\":3061:3062   */\n      0x00\n        /* \"#utility.yul\":3054:3085   */\n      mstore\n        /* \"#utility.yul\":3108:3112   */\n      0x22\n        /* \"#utility.yul\":3105:3106   */\n      0x04\n        /* \"#utility.yul\":3098:3113   */\n      mstore\n        /* \"#utility.yul\":3136:3140   */\n      0x24\n        /* \"#utility.yul\":3133:3134   */\n      0x00\n        /* \"#utility.yul\":3126:3141   */\n      revert\n        /* \"#utility.yul\":2990:3151   */\n    tag_62:\n      pop\n        /* \"#utility.yul\":2777:3157   */\n      swap2\n      swap1\n      pop\n      jump\t// out\n        /* \"#utility.yul\":3288:3806   */\n    tag_30:\n        /* \"#utility.yul\":3390:3392   */\n      0x1f\n        /* \"#utility.yul\":3385:3388   */\n      dup3\n        /* \"#utility.yul\":3382:3393   */\n      gt\n        /* \"#utility.yul\":3379:3800   */\n      iszero\n      tag_65\n      jumpi\n        /* \"#utility.yul\":3426:3431   */\n      dup1\n        /* \"#utility.yul\":3423:3424   */\n      0x00\n        /* \"#utility.yul\":3416:3432   */\n      mstore\n        /* \"#utility.yul\":3470:3474   */\n      0x20\n        /* \"#utility.yul\":3467:3468   */\n      0x00\n        /* \"#utility.yul\":3457:3475   */\n      keccak256\n        /* \"#utility.yul\":3540:3542   */\n      0x1f\n        /* \"#utility.yul\":3528:3538   */\n      dup5\n        /* \"#utility.yul\":3524:3543   */\n      add\n        /* \"#utility.yul\":3521:3522   */\n      0x05\n        /* \"#utility.yul\":3517:3544   */\n      shr\n        /* \"#utility.yul\":3511:3515   */\n      dup2\n        /* \"#utility.yul\":3507:3545   */\n      add\n        /* \"#utility.yul\":3576:3580   */\n      0x20\n        /* \"#utility.yul\":3564:3574   */\n      dup6\n        /* \"#utility.yul\":3561:3581   */\n      lt\n        /* \"#utility.yul\":3558:3605   */\n      iszero\n      tag_66\n      jumpi\n      pop\n        /* \"#utility.yul\":3599:3603   */\n      dup1\n        /* \"#utility.yul\":3558:3605   */\n    tag_66:\n        /* \"#utility.yul\":3654:3656   */\n      0x1f\n        /* \"#utility.yul\":3649:3652   */\n      dup5\n        /* \"#utility.yul\":3645:3657   */\n      add\n        /* \"#utility.yul\":3642:3643   */\n      0x05\n        /* \"#utility.yul\":3638:3658   */\n      shr\n        /* \"#utility.yul\":3632:3636   */\n      dup3\n        /* \"#utility.yul\":3628:3659   */\n      add\n        /* \"#utility.yul\":3618:3659   */\n      swap2\n      pop\n        /* \"#utility.yul\":3709:3790   */\n    tag_67:\n        /* \"#utility.yul\":3727:3729   */\n      dup2\n        /* \"#utility.yul\":3720:3725   */\n      dup2\n        /* \"#utility.yul\":3717:3730   */\n      lt\n        /* \"#utility.yul\":3709:3790   */\n      iszero\n      tag_69\n      jumpi\n        /* \"#utility.yul\":3786:3787   */\n      0x00\n        /* \"#utility.yul\":3772:3788   */\n      dup2\n      sstore\n        /* \"#utility.yul\":3753:3754   */\n      0x01\n        /* \"#utility.yul\":3742:3755   */\n      add\n        /* \"#utility.yul\":3709:3790   */\n      jump(tag_67)\n    tag_69:\n        /* \"#utility.yul\":3713:3716   */\n      pop\n      pop\n        /* \"#utility.yul\":3379:3800   */\n    tag_65:\n        /* \"#utility.yul\":3288:3806   */\n      pop\n      pop\n      pop\n      jump\t// out\n        /* \"#utility.yul\":3982:5281   */\n    tag_12:\n        /* \"#utility.yul\":4108:4111   */\n      dup2\n        /* \"#utility.yul\":4102:4112   */\n      mload\n        /* \"#utility.yul\":4135:4153   */\n      0xffffffffffffffff\n        /* \"#utility.yul\":4127:4133   */\n      dup2\n        /* \"#utility.yul\":4124:4154   */\n      gt\n        /* \"#utility.yul\":4121:4177   */\n      iszero\n      tag_73\n      jumpi\n        /* \"#utility.yul\":4157:4175   */\n      tag_73\n      tag_22\n      jump\t// in\n    tag_73:\n        /* \"#utility.yul\":4186:4283   */\n      tag_74\n        /* \"#utility.yul\":4276:4282   */\n      dup2\n        /* \"#utility.yul\":4236:4274   */\n      tag_75\n        /* \"#utility.yul\":4268:4272   */\n      dup5\n        /* \"#utility.yul\":4262:4273   */\n      sload\n        /* \"#utility.yul\":4236:4274   */\n      tag_15\n      jump\t// in\n    tag_75:\n        /* \"#utility.yul\":4230:4234   */\n      dup5\n        /* \"#utility.yul\":4186:4283   */\n      tag_30\n      jump\t// in\n    tag_74:\n        /* \"#utility.yul\":4332:4336   */\n      0x20\n        /* \"#utility.yul\":4363:4365   */\n      0x1f\n        /* \"#utility.yul\":4352:4366   */\n      dup3\n      gt\n        /* \"#utility.yul\":4380:4381   */\n      0x01\n        /* \"#utility.yul\":4375:5024   */\n      dup2\n      eq\n      tag_77\n      jumpi\n        /* \"#utility.yul\":5068:5069   */\n      0x00\n        /* \"#utility.yul\":5085:5091   */\n      dup4\n        /* \"#utility.yul\":5082:5171   */\n      iszero\n      tag_78\n      jumpi\n      pop\n        /* \"#utility.yul\":5137:5156   */\n      dup5\n      dup3\n      add\n        /* \"#utility.yul\":5131:5157   */\n      mload\n        /* \"#utility.yul\":5082:5171   */\n    tag_78:\n      not(0x00)\n        /* \"#utility.yul\":3939:3940   */\n      0x03\n        /* \"#utility.yul\":3935:3946   */\n      dup6\n      swap1\n      shl\n        /* \"#utility.yul\":3931:3955   */\n      shr\n        /* \"#utility.yul\":3927:3956   */\n      not\n        /* \"#utility.yul\":3917:3957   */\n      and\n        /* \"#utility.yul\":3963:3964   */\n      0x01\n        /* \"#utility.yul\":3959:3970   */\n      dup5\n      swap1\n      shl\n        /* \"#utility.yul\":3914:3971   */\n      or\n        /* \"#utility.yul\":5184:5265   */\n      dup5\n      sstore\n        /* \"#utility.yul\":4345:5275   */\n      jump(tag_69)\n        /* \"#utility.yul\":4375:5024   */\n    tag_77:\n        /* \"#utility.yul\":3235:3236   */\n      0x00\n        /* \"#utility.yul\":3228:3242   */\n      dup5\n      dup2\n      mstore\n        /* \"#utility.yul\":3272:3276   */\n      0x20\n        /* \"#utility.yul\":3259:3277   */\n      dup2\n      keccak256\n      not(0x1f)\n        /* \"#utility.yul\":4411:4431   */\n      dup6\n      and\n      swap2\n        /* \"#utility.yul\":4529:4751   */\n    tag_81:\n        /* \"#utility.yul\":4543:4550   */\n      dup3\n        /* \"#utility.yul\":4540:4541   */\n      dup2\n        /* \"#utility.yul\":4537:4551   */\n      lt\n        /* \"#utility.yul\":4529:4751   */\n      iszero\n      tag_83\n      jumpi\n        /* \"#utility.yul\":4625:4644   */\n      dup8\n      dup6\n      add\n        /* \"#utility.yul\":4619:4645   */\n      mload\n        /* \"#utility.yul\":4604:4646   */\n      dup3\n      sstore\n        /* \"#utility.yul\":4732:4736   */\n      0x20\n        /* \"#utility.yul\":4717:4737   */\n      swap5\n      dup6\n      add\n      swap5\n        /* \"#utility.yul\":4685:4686   */\n      0x01\n        /* \"#utility.yul\":4673:4687   */\n      swap1\n      swap3\n      add\n      swap2\n        /* \"#utility.yul\":4559:4571   */\n      add\n        /* \"#utility.yul\":4529:4751   */\n      jump(tag_81)\n    tag_83:\n        /* \"#utility.yul\":4533:4536   */\n      pop\n        /* \"#utility.yul\":4779:4785   */\n      dup5\n        /* \"#utility.yul\":4770:4777   */\n      dup3\n        /* \"#utility.yul\":4767:4786   */\n      lt\n        /* \"#utility.yul\":4764:4965   */\n      iszero\n      tag_84\n      jumpi\n        /* \"#utility.yul\":4840:4859   */\n      dup7\n      dup5\n      add\n        /* \"#utility.yul\":4834:4860   */\n      mload\n      not(0x00)\n        /* \"#utility.yul\":4923:4924   */\n      0x03\n        /* \"#utility.yul\":4919:4933   */\n      dup8\n      swap1\n      shl\n        /* \"#utility.yul\":4935:4938   */\n      0xf8\n        /* \"#utility.yul\":4915:4939   */\n      and\n        /* \"#utility.yul\":4911:4948   */\n      shr\n        /* \"#utility.yul\":4907:4949   */\n      not\n        /* \"#utility.yul\":4892:4950   */\n      and\n        /* \"#utility.yul\":4877:4951   */\n      dup2\n      sstore\n        /* \"#utility.yul\":4764:4965   */\n    tag_84:\n      pop\n      pop\n      pop\n      pop\n        /* \"#utility.yul\":5011:5012   */\n      0x01\n        /* \"#utility.yul\":4995:5009   */\n      swap1\n      dup2\n      shl\n        /* \"#utility.yul\":4991:5013   */\n      add\n        /* \"#utility.yul\":4978:5014   */\n      swap1\n      sstore\n      pop\n        /* \"#utility.yul\":3982:5281   */\n      jump\t// out\n        /* \"#utility.yul\":5286:5413   */\n    tag_26:\n        /* \"#utility.yul\":5347:5357   */\n      0x4e487b71\n        /* \"#utility.yul\":5342:5345   */\n      0xe0\n        /* \"#utility.yul\":5338:5358   */\n      shl\n        /* \"#utility.yul\":5335:5336   */\n      0x00\n        /* \"#utility.yul\":5328:5359   */\n      mstore\n        /* \"#utility.yul\":5378:5382   */\n      0x32\n        /* \"#utility.yul\":5375:5376   */\n      0x04\n        /* \"#utility.yul\":5368:5383   */\n      mstore\n        /* \"#utility.yul\":5402:5406   */\n      0x24\n        /* \"#utility.yul\":5399:5400   */\n      0x00\n        /* \"#utility.yul\":5392:5407   */\n      revert\n\n    auxdata: 0xa26469706673582212201372277481c5a2b0dadc84ffba416f5496f52a4b81d812503bbe866c3689092c64736f6c634300081d0033\n}\n",
				"bytecode": {
					"linkReferences": {},
					"object": "6080604052348015600e575f5ffd5b5061054a8061001c5f395ff3fe608060405234801561000f575f5ffd5b5060043610610029575f3560e01c8063fc277a951461002d575b5f5ffd5b61004061003b3660046102ab565b610056565b60405161004d919061037f565b60405180910390f35b60408051808201825261010081528151808301835260098152686d797374727563743160b81b602082810191909152808301918252335f90815290819052929092208151815591516060929060018201906100b19082610445565b5050335f90815260208181526040918290208251808401909352600683526575706461746560d01b91830191909152915060018201906100f19082610445565b50335f908152602081815260408083208151808301909252805482526001810180549293919291840191610124906103c1565b80601f0160208091040260200160405190810160405280929190818152602001828054610150906103c1565b801561019b5780601f106101725761010080835404028352916020019161019b565b820191905f5260205f20905b81548152906001019060200180831161017e57829003601f168201915b5050509190925250506101c882525060408051600a80825261016082019092529192505f9190602082016101408036833701905050905060ea815f815181106101e6576101e6610500565b602090810291909101015295945050505050565b634e487b7160e01b5f52604160045260245ffd5b604051601f8201601f1916810167ffffffffffffffff81118282101715610237576102376101fa565b604052919050565b5f82601f83011261024e575f5ffd5b813567ffffffffffffffff811115610268576102686101fa565b61027b601f8201601f191660200161020e565b81815284602083860101111561028f575f5ffd5b816020850160208301375f918101602001919091529392505050565b5f5f604083850312156102bc575f5ffd5b823567ffffffffffffffff8111156102d2575f5ffd5b8301601f810185136102e2575f5ffd5b803567ffffffffffffffff8111156102fc576102fc6101fa565b8060051b61030c6020820161020e565b91825260208184018101929081019088841115610327575f5ffd5b6020850194505b8385101561034957843582526020948501949091019061032e565b95505050506020840135905067ffffffffffffffff811115610369575f5ffd5b6103758582860161023f565b9150509250929050565b602080825282518282018190525f918401906040840190835b818110156103b6578351835260209384019390920191600101610398565b509095945050505050565b600181811c908216806103d557607f821691505b6020821081036103f357634e487b7160e01b5f52602260045260245ffd5b50919050565b601f82111561044057805f5260205f20601f840160051c8101602085101561041e5750805b601f840160051c820191505b8181101561043d575f815560010161042a565b50505b505050565b815167ffffffffffffffff81111561045f5761045f6101fa565b6104738161046d84546103c1565b846103f9565b6020601f8211600181146104a5575f831561048e5750848201515b5f19600385901b1c1916600184901b17845561043d565b5f84815260208120601f198516915b828110156104d457878501518255602094850194600190920191016104b4565b50848210156104f157868401515f19600387901b60f8161c191681555b50505050600190811b01905550565b634e487b7160e01b5f52603260045260245ffdfea26469706673582212201372277481c5a2b0dadc84ffba416f5496f52a4b81d812503bbe866c3689092c64736f6c634300081d0033",
					"opcodes": "PUSH1 0x80 PUSH1 0x40 MSTORE CALLVALUE DUP1 ISZERO PUSH1 0xE JUMPI PUSH0 PUSH0 REVERT JUMPDEST POP PUSH2 0x54A DUP1 PUSH2 0x1C PUSH0 CODECOPY PUSH0 RETURN INVALID PUSH1 0x80 PUSH1 0x40 MSTORE CALLVALUE DUP1 ISZERO PUSH2 0xF JUMPI PUSH0 PUSH0 REVERT JUMPDEST POP PUSH1 0x4 CALLDATASIZE LT PUSH2 0x29 JUMPI PUSH0 CALLDATALOAD PUSH1 0xE0 SHR DUP1 PUSH4 0xFC277A95 EQ PUSH2 0x2D JUMPI JUMPDEST PUSH0 PUSH0 REVERT JUMPDEST PUSH2 0x40 PUSH2 0x3B CALLDATASIZE PUSH1 0x4 PUSH2 0x2AB JUMP JUMPDEST PUSH2 0x56 JUMP JUMPDEST PUSH1 0x40 MLOAD PUSH2 0x4D SWAP2 SWAP1 PUSH2 0x37F JUMP JUMPDEST PUSH1 0x40 MLOAD DUP1 SWAP2 SUB SWAP1 RETURN JUMPDEST PUSH1 0x40 DUP1 MLOAD DUP1 DUP3 ADD DUP3 MSTORE PUSH2 0x100 DUP2 MSTORE DUP2 MLOAD DUP1 DUP4 ADD DUP4 MSTORE PUSH1 0x9 DUP2 MSTORE PUSH9 0x6D7973747275637431 PUSH1 0xB8 SHL PUSH1 0x20 DUP3 DUP2 ADD SWAP2 SWAP1 SWAP2 MSTORE DUP1 DUP4 ADD SWAP2 DUP3 MSTORE CALLER PUSH0 SWAP1 DUP2 MSTORE SWAP1 DUP2 SWAP1 MSTORE SWAP3 SWAP1 SWAP3 KECCAK256 DUP2 MLOAD DUP2 SSTORE SWAP2 MLOAD PUSH1 0x60 SWAP3 SWAP1 PUSH1 0x1 DUP3 ADD SWAP1 PUSH2 0xB1 SWAP1 DUP3 PUSH2 0x445 JUMP JUMPDEST POP POP CALLER PUSH0 SWAP1 DUP2 MSTORE PUSH1 0x20 DUP2 DUP2 MSTORE PUSH1 0x40 SWAP2 DUP3 SWAP1 KECCAK256 DUP3 MLOAD DUP1 DUP5 ADD SWAP1 SWAP4 MSTORE PUSH1 0x6 DUP4 MSTORE PUSH6 0x757064617465 PUSH1 0xD0 SHL SWAP2 DUP4 ADD SWAP2 SWAP1 SWAP2 MSTORE SWAP2 POP PUSH1 0x1 DUP3 ADD SWAP1 PUSH2 0xF1 SWAP1 DUP3 PUSH2 0x445 JUMP JUMPDEST POP CALLER PUSH0 SWAP1 DUP2 MSTORE PUSH1 0x20 DUP2 DUP2 MSTORE PUSH1 0x40 DUP1 DUP4 KECCAK256 DUP2 MLOAD DUP1 DUP4 ADD SWAP1 SWAP3 MSTORE DUP1 SLOAD DUP3 MSTORE PUSH1 0x1 DUP2 ADD DUP1 SLOAD SWAP3 SWAP4 SWAP2 SWAP3 SWAP2 DUP5 ADD SWAP2 PUSH2 0x124 SWAP1 PUSH2 0x3C1 JUMP JUMPDEST DUP1 PUSH1 0x1F ADD PUSH1 0x20 DUP1 SWAP2 DIV MUL PUSH1 0x20 ADD PUSH1 0x40 MLOAD SWAP1 DUP2 ADD PUSH1 0x40 MSTORE DUP1 SWAP3 SWAP2 SWAP1 DUP2 DUP2 MSTORE PUSH1 0x20 ADD DUP3 DUP1 SLOAD PUSH2 0x150 SWAP1 PUSH2 0x3C1 JUMP JUMPDEST DUP1 ISZERO PUSH2 0x19B JUMPI DUP1 PUSH1 0x1F LT PUSH2 0x172 JUMPI PUSH2 0x100 DUP1 DUP4 SLOAD DIV MUL DUP4 MSTORE SWAP2 PUSH1 0x20 ADD SWAP2 PUSH2 0x19B JUMP JUMPDEST DUP3 ADD SWAP2 SWAP1 PUSH0 MSTORE PUSH1 0x20 PUSH0 KECCAK256 SWAP1 JUMPDEST DUP2 SLOAD DUP2 MSTORE SWAP1 PUSH1 0x1 ADD SWAP1 PUSH1 0x20 ADD DUP1 DUP4 GT PUSH2 0x17E JUMPI DUP3 SWAP1 SUB PUSH1 0x1F AND DUP3 ADD SWAP2 JUMPDEST POP POP POP SWAP2 SWAP1 SWAP3 MSTORE POP POP PUSH2 0x1C8 DUP3 MSTORE POP PUSH1 0x40 DUP1 MLOAD PUSH1 0xA DUP1 DUP3 MSTORE PUSH2 0x160 DUP3 ADD SWAP1 SWAP3 MSTORE SWAP2 SWAP3 POP PUSH0 SWAP2 SWAP1 PUSH1 0x20 DUP3 ADD PUSH2 0x140 DUP1 CALLDATASIZE DUP4 CALLDATACOPY ADD SWAP1 POP POP SWAP1 POP PUSH1 0xEA DUP2 PUSH0 DUP2 MLOAD DUP2 LT PUSH2 0x1E6 JUMPI PUSH2 0x1E6 PUSH2 0x500 JUMP JUMPDEST PUSH1 0x20 SWAP1 DUP2 MUL SWAP2 SWAP1 SWAP2 ADD ADD MSTORE SWAP6 SWAP5 POP POP POP POP POP JUMP JUMPDEST PUSH4 0x4E487B71 PUSH1 0xE0 SHL PUSH0 MSTORE PUSH1 0x41 PUSH1 0x4 MSTORE PUSH1 0x24 PUSH0 REVERT JUMPDEST PUSH1 0x40 MLOAD PUSH1 0x1F DUP3 ADD PUSH1 0x1F NOT AND DUP2 ADD PUSH8 0xFFFFFFFFFFFFFFFF DUP2 GT DUP3 DUP3 LT OR ISZERO PUSH2 0x237 JUMPI PUSH2 0x237 PUSH2 0x1FA JUMP JUMPDEST PUSH1 0x40 MSTORE SWAP2 SWAP1 POP JUMP JUMPDEST PUSH0 DUP3 PUSH1 0x1F DUP4 ADD SLT PUSH2 0x24E JUMPI PUSH0 PUSH0 REVERT JUMPDEST DUP2 CALLDATALOAD PUSH8 0xFFFFFFFFFFFFFFFF DUP2 GT ISZERO PUSH2 0x268 JUMPI PUSH2 0x268 PUSH2 0x1FA JUMP JUMPDEST PUSH2 0x27B PUSH1 0x1F DUP3 ADD PUSH1 0x1F NOT AND PUSH1 0x20 ADD PUSH2 0x20E JUMP JUMPDEST DUP2 DUP2 MSTORE DUP5 PUSH1 0x20 DUP4 DUP7 ADD ADD GT ISZERO PUSH2 0x28F JUMPI PUSH0 PUSH0 REVERT JUMPDEST DUP2 PUSH1 0x20 DUP6 ADD PUSH1 0x20 DUP4 ADD CALLDATACOPY PUSH0 SWAP2 DUP2 ADD PUSH1 0x20 ADD SWAP2 SWAP1 SWAP2 MSTORE SWAP4 SWAP3 POP POP POP JUMP JUMPDEST PUSH0 PUSH0 PUSH1 0x40 DUP4 DUP6 SUB SLT ISZERO PUSH2 0x2BC JUMPI PUSH0 PUSH0 REVERT JUMPDEST DUP3 CALLDATALOAD PUSH8 0xFFFFFFFFFFFFFFFF DUP2 GT ISZERO PUSH2 0x2D2 JUMPI PUSH0 PUSH0 REVERT JUMPDEST DUP4 ADD PUSH1 0x1F DUP2 ADD DUP6 SGT PUSH2 0x2E2 JUMPI PUSH0 PUSH0 REVERT JUMPDEST DUP1 CALLDATALOAD PUSH8 0xFFFFFFFFFFFFFFFF DUP2 GT ISZERO PUSH2 0x2FC JUMPI PUSH2 0x2FC PUSH2 0x1FA JUMP JUMPDEST DUP1 PUSH1 0x5 SHL PUSH2 0x30C PUSH1 0x20 DUP3 ADD PUSH2 0x20E JUMP JUMPDEST SWAP2 DUP3 MSTORE PUSH1 0x20 DUP2 DUP5 ADD DUP2 ADD SWAP3 SWAP1 DUP2 ADD SWAP1 DUP9 DUP5 GT ISZERO PUSH2 0x327 JUMPI PUSH0 PUSH0 REVERT JUMPDEST PUSH1 0x20 DUP6 ADD SWAP5 POP JUMPDEST DUP4 DUP6 LT ISZERO PUSH2 0x349 JUMPI DUP5 CALLDATALOAD DUP3 MSTORE PUSH1 0x20 SWAP5 DUP6 ADD SWAP5 SWAP1 SWAP2 ADD SWAP1 PUSH2 0x32E JUMP JUMPDEST SWAP6 POP POP POP POP PUSH1 0x20 DUP5 ADD CALLDATALOAD SWAP1 POP PUSH8 0xFFFFFFFFFFFFFFFF DUP2 GT ISZERO PUSH2 0x369 JUMPI PUSH0 PUSH0 REVERT JUMPDEST PUSH2 0x375 DUP6 DUP3 DUP7 ADD PUSH2 0x23F JUMP JUMPDEST SWAP2 POP POP SWAP3 POP SWAP3 SWAP1 POP JUMP JUMPDEST PUSH1 0x20 DUP1 DUP3 MSTORE DUP3 MLOAD DUP3 DUP3 ADD DUP2 SWAP1 MSTORE PUSH0 SWAP2 DUP5 ADD SWAP1 PUSH1 0x40 DUP5 ADD SWAP1 DUP4 JUMPDEST DUP2 DUP2 LT ISZERO PUSH2 0x3B6 JUMPI DUP4 MLOAD DUP4 MSTORE PUSH1 0x20 SWAP4 DUP5 ADD SWAP4 SWAP1 SWAP3 ADD SWAP2 PUSH1 0x1 ADD PUSH2 0x398 JUMP JUMPDEST POP SWAP1 SWAP6 SWAP5 POP POP POP POP POP JUMP JUMPDEST PUSH1 0x1 DUP2 DUP2 SHR SWAP1 DUP3 AND DUP1 PUSH2 0x3D5 JUMPI PUSH1 0x7F DUP3 AND SWAP2 POP JUMPDEST PUSH1 0x20 DUP3 LT DUP2 SUB PUSH2 0x3F3 JUMPI PUSH4 0x4E487B71 PUSH1 0xE0 SHL PUSH0 MSTORE PUSH1 0x22 PUSH1 0x4 MSTORE PUSH1 0x24 PUSH0 REVERT JUMPDEST POP SWAP2 SWAP1 POP JUMP JUMPDEST PUSH1 0x1F DUP3 GT ISZERO PUSH2 0x440 JUMPI DUP1 PUSH0 MSTORE PUSH1 0x20 PUSH0 KECCAK256 PUSH1 0x1F DUP5 ADD PUSH1 0x5 SHR DUP2 ADD PUSH1 0x20 DUP6 LT ISZERO PUSH2 0x41E JUMPI POP DUP1 JUMPDEST PUSH1 0x1F DUP5 ADD PUSH1 0x5 SHR DUP3 ADD SWAP2 POP JUMPDEST DUP2 DUP2 LT ISZERO PUSH2 0x43D JUMPI PUSH0 DUP2 SSTORE PUSH1 0x1 ADD PUSH2 0x42A JUMP JUMPDEST POP POP JUMPDEST POP POP POP JUMP JUMPDEST DUP2 MLOAD PUSH8 0xFFFFFFFFFFFFFFFF DUP2 GT ISZERO PUSH2 0x45F JUMPI PUSH2 0x45F PUSH2 0x1FA JUMP JUMPDEST PUSH2 0x473 DUP2 PUSH2 0x46D DUP5 SLOAD PUSH2 0x3C1 JUMP JUMPDEST DUP5 PUSH2 0x3F9 JUMP JUMPDEST PUSH1 0x20 PUSH1 0x1F DUP3 GT PUSH1 0x1 DUP2 EQ PUSH2 0x4A5 JUMPI PUSH0 DUP4 ISZERO PUSH2 0x48E JUMPI POP DUP5 DUP3 ADD MLOAD JUMPDEST PUSH0 NOT PUSH1 0x3 DUP6 SWAP1 SHL SHR NOT AND PUSH1 0x1 DUP5 SWAP1 SHL OR DUP5 SSTORE PUSH2 0x43D JUMP JUMPDEST PUSH0 DUP5 DUP2 MSTORE PUSH1 0x20 DUP2 KECCAK256 PUSH1 0x1F NOT DUP6 AND SWAP2 JUMPDEST DUP3 DUP2 LT ISZERO PUSH2 0x4D4 JUMPI DUP8 DUP6 ADD MLOAD DUP3 SSTORE PUSH1 0x20 SWAP5 DUP6 ADD SWAP5 PUSH1 0x1 SWAP1 SWAP3 ADD SWAP2 ADD PUSH2 0x4B4 JUMP JUMPDEST POP DUP5 DUP3 LT ISZERO PUSH2 0x4F1 JUMPI DUP7 DUP5 ADD MLOAD PUSH0 NOT PUSH1 0x3 DUP8 SWAP1 SHL PUSH1 0xF8 AND SHR NOT AND DUP2 SSTORE JUMPDEST POP POP POP POP PUSH1 0x1 SWAP1 DUP2 SHL ADD SWAP1 SSTORE POP JUMP JUMPDEST PUSH4 0x4E487B71 PUSH1 0xE0 SHL PUSH0 MSTORE PUSH1 0x32 PUSH1 0x4 MSTORE PUSH1 0x24 PUSH0 REVERT INVALID LOG2 PUSH5 0x6970667358 0x22 SLT KECCAK256 SGT PUSH19 0x277481C5A2B0DADC84FFBA416F5496F52A4B81 0xD8 SLT POP EXTCODESIZE 0xBE DUP7 PUSH13 0x3689092C64736F6C634300081D STOP CALLER "
				},
				"gasEstimates": {
					"creation": {
						"codeDepositCost": "270800",
						"executionCost": "310",
						"totalCost": "271110"
					},
					"external": {
						"examples(uint256[],string)": "infinite"
					}
				},
				"methodIdentifiers": {
					"examples(uint256[],string)": "fc277a95"
				}
			},
			"storageLayout": {
				"storage": [
					{
						"astId": 11,
						"contract": "LocalVariables.sol:LocalVariables",
						"label": "myMap",
						"offset": 0,
						"slot": "0",
						"type": "t_mapping(t_address,t_struct(MyStruct)6_storage)"
					}
				],
				"types": {
					"t_address": {
						"encoding": "inplace",
						"label": "address",
						"numberOfBytes": "20"
					},
					"t_mapping(t_address,t_struct(MyStruct)6_storage)": {
						"encoding": "mapping",
						"key": "t_address",
						"label": "mapping(address => struct LocalVariables.MyStruct)",
						"numberOfBytes": "32",
						"value": "t_struct(MyStruct)6_storage"
					},
					"t_string_storage": {
						"encoding": "bytes",
						"label": "string",
						"numberOfBytes": "32"
					},
					"t_struct(MyStruct)6_storage": {
						"encoding": "inplace",
						"label": "struct LocalVariables.MyStruct",
						"members": [
							{
								"astId": 3,
								"contract": "LocalVariables.sol:LocalVariables",
								"label": "foo",
								"offset": 0,
								"slot": "0",
								"type": "t_uint256"
							},
							{
								"astId": 5,
								"contract": "LocalVariables.sol:LocalVariables",
								"label": "text",
								"offset": 0,
								"slot": "1",
								"type": "t_string_storage"
							}
						],
						"numberOfBytes": "64"
					},
					"t_uint256": {
						"encoding": "inplace",
						"label": "uint256",
						"numberOfBytes": "32"
					}
				}
			},
			"userdoc": {
				"kind": "user",
				"methods": {},
				"version": 1
			}
		}
	}
}