{
	"data": {
		"bytecode": {
			"linkReferences": {},
			"object": "610180604052348015610010575f5ffd5b506040516140ec3803806140ec83398101604081905261002f91610525565b6004816040518060400160405280600a81526020016926bca3b7bb32b93737b960b11b8152508061006461013d60201b60201c565b61006e825f610158565b6101205261007d816001610158565b61014052815160208084019190912060e052815190820120610100524660a05261010960e05161010051604080517f8b73c3c69bb8fe3d512ecc4cf759cc79239f7b179b0ffacaa9a75d522b39400f60208201529081019290925260608201524660808201523060a08201525f9060c00160405160208183030381529060405280519060200120905090565b60805250503060c052600361011e82826105e3565b50506001600160a01b0316610160526101368161018a565b5050610739565b6040805180820190915260018152603160f81b602082015290565b5f6020835110156101735761016c83610224565b9050610184565b8161017e84826105e3565b5060ff90505b92915050565b6064808211156101bc5760405163243e544560e01b815260048101839052602481018290526044015b60405180910390fd5b5f6101c5610261565b90506101e46101d261027a565b6101db856102f4565b6008919061032b565b505060408051828152602081018590527f0553476bf02ef2726e8ce5ced78d63e26e602e4a2257b1f559418e24b4633997910160405180910390a1505050565b5f5f829050601f8151111561024e578260405163305a27a960e01b81526004016101b3919061069d565b8051610259826106d2565b179392505050565b5f61026c6008610345565b6001600160d01b0316905090565b5f6102856101605190565b6001600160a01b03166391ddadf46040518163ffffffff1660e01b8152600401602060405180830381865afa9250505080156102de575060408051601f3d908101601f191682019092526102db918101906106f5565b60015b6102ef576102ea61038d565b905090565b919050565b5f6001600160d01b03821115610327576040516306dfcc6560e41b815260d06004820152602481018390526044016101b3565b5090565b5f80610338858585610397565b915091505b935093915050565b80545f9080156103845761036b8361035e60018461071a565b5f91825260209091200190565b54660100000000000090046001600160d01b0316610386565b5f5b9392505050565b5f6102ea436104f3565b82545f9081908015610496575f6103b38761035e60018561071a565b805490915065ffffffffffff80821691660100000000000090046001600160d01b03169088168211156103f957604051632520601d60e01b815260040160405180910390fd5b8765ffffffffffff168265ffffffffffff160361043557825465ffffffffffff1666010000000000006001600160d01b03891602178355610488565b6040805180820190915265ffffffffffff808a1682526001600160d01b03808a1660208085019182528d54600181018f555f8f815291909120945191519092166601000000000000029216919091179101555b945085935061033d92505050565b50506040805180820190915265ffffffffffff80851682526001600160d01b0380851660208085019182528854600181018a555f8a815291822095519251909316660100000000000002919093161792019190915590508161033d565b5f65ffffffffffff821115610327576040516306dfcc6560e41b815260306004820152602481018390526044016101b3565b5f60208284031215610535575f5ffd5b81516001600160a01b0381168114610386575f5ffd5b634e487b7160e01b5f52604160045260245ffd5b600181811c9082168061057357607f821691505b60208210810361059157634e487b7160e01b5f52602260045260245ffd5b50919050565b601f8211156105de57805f5260205f20601f840160051c810160208510156105bc5750805b601f840160051c820191505b818110156105db575f81556001016105c8565b50505b505050565b81516001600160401b038111156105fc576105fc61054b565b6106108161060a845461055f565b84610597565b6020601f821160018114610642575f831561062b5750848201515b5f19600385901b1c1916600184901b1784556105db565b5f84815260208120601f198516915b828110156106715787850151825560209485019460019092019101610651565b508482101561068e57868401515f19600387901b60f8161c191681555b50505050600190811b01905550565b602081525f82518060208401528060208501604085015e5f604082850101526040601f19601f83011684010191505092915050565b80516020808301519190811015610591575f1960209190910360031b1b16919050565b5f60208284031215610705575f5ffd5b815165ffffffffffff81168114610386575f5ffd5b8181038181111561018457634e487b7160e01b5f52601160045260245ffd5b60805160a05160c05160e0516101005161012051610140516101605161393c6107b05f395f81816108b201528181610d110152818161116f015281816113770152611c4c01525f611c1901525f611bed01525f611f9a01525f611f7201525f611ecd01525f611ef701525f611f21015261393c5ff3fe608060405260043610610262575f3560e01c80637d5e81e21161013f578063b58131b0116100b3578063dd4e2ba511610078578063dd4e2ba5146107c3578063deaaa7cc14610808578063eb9019d41461083b578063f23a6e611461085a578063f8ce560a14610885578063fc0c546a146108a4575f5ffd5b8063b58131b014610735578063bc197c8114610747578063c01f9e3714610772578063c28bc2fa14610791578063c59057e4146107a4575f5ffd5b806397c3d3341161010457806397c3d3341461067b5780639a802a6d1461068e578063a7713a70146106ad578063a8f8a668146106c1578063a9a95294146106e0578063ab58fb8e146106ff575f5ffd5b80637d5e81e2146105b75780637ecebe00146105d657806384b0196e1461060a5780638ff262e31461063157806391ddadf414610650575f5ffd5b80633e4f49e6116101d657806354fd4d501161019b57806354fd4d50146104f3578063567813881461051c5780635b8d0e0d1461053b5780635f398a141461055a57806360c4247f146105795780637b3c71d314610598575f5ffd5b80633e4f49e614610412578063438596321461043e578063452115d6146104865780634bf5d7e9146104a5578063544ffc9c146104b9575f5ffd5b8063150b7a0211610227578063150b7a021461034b578063160cbed71461038e5780632656227d146103ad5780632d63f693146103c05780632fe3e261146103df5780633932abb1146102a2575f5ffd5b806301ffc9a71461026e57806302a251a3146102a257806306f3f9e6146102bf57806306fdde03146102de578063143489d0146102ff575f5ffd5b3661026a575b005b5f5ffd5b348015610279575f5ffd5b5061028d610288366004612a62565b6108d6565b60405190151581526020015b60405180910390f35b3480156102ad575f5ffd5b5060025b604051908152602001610299565b3480156102ca575f5ffd5b506102686102d9366004612a89565b610942565b3480156102e9575f5ffd5b506102f2610956565b6040516102999190612ace565b34801561030a575f5ffd5b50610333610319366004612a89565b5f908152600460205260409020546001600160a01b031690565b6040516001600160a01b039091168152602001610299565b348015610356575f5ffd5b50610375610365366004612bb9565b630a85bd0160e11b949350505050565b6040516001600160e01b03199091168152602001610299565b348015610399575f5ffd5b506102b16103a8366004612d79565b6109e6565b6102b16103bb366004612d79565b610a2e565b3480156103cb575f5ffd5b506102b16103da366004612a89565b610b56565b3480156103ea575f5ffd5b506102b17f3e83946653575f9a39005e1545185629e92736b7528ab20ca3816f315424a81181565b34801561041d575f5ffd5b5061043161042c366004612a89565b610b76565b6040516102999190612e40565b348015610449575f5ffd5b5061028d610458366004612e4e565b5f8281526007602090815260408083206001600160a01b038516845260030190915290205460ff1692915050565b348015610491575f5ffd5b506102b16104a0366004612d79565b610cac565b3480156104b0575f5ffd5b506102f2610d0d565b3480156104c4575f5ffd5b506104d86104d3366004612a89565b610dcd565b60408051938452602084019290925290820152606001610299565b3480156104fe575f5ffd5b506040805180820190915260018152603160f81b60208201526102f2565b348015610527575f5ffd5b506102b1610536366004612e88565b610df2565b348015610546575f5ffd5b506102b1610555366004612eed565b610e19565b348015610565575f5ffd5b506102b1610574366004612fa7565b610f75565b348015610584575f5ffd5b506102b1610593366004612a89565b610fbd565b3480156105a3575f5ffd5b506102b16105b2366004613028565b610fc9565b3480156105c2575f5ffd5b506102b16105d136600461307d565b611019565b3480156105e1575f5ffd5b506102b16105f0366004613139565b6001600160a01b03165f9081526002602052604090205490565b348015610615575f5ffd5b5061061e61105b565b604051610299979695949392919061318c565b34801561063c575f5ffd5b506102b161064b3660046131fb565b61109d565b34801561065b575f5ffd5b5061066461116c565b60405165ffffffffffff9091168152602001610299565b348015610686575f5ffd5b5060646102b1565b348015610699575f5ffd5b506102b16106a8366004613246565b6111f8565b3480156106b8575f5ffd5b506102b161120e565b3480156106cc575f5ffd5b506102b16106db366004612d79565b611227565b3480156106eb575f5ffd5b5061028d6106fa366004612a89565b505f90565b34801561070a575f5ffd5b506102b1610719366004612a89565b5f9081526004602052604090206001015465ffffffffffff1690565b348015610740575f5ffd5b505f6102b1565b348015610752575f5ffd5b50610375610761366004613298565b63bc197c8160e01b95945050505050565b34801561077d575f5ffd5b506102b161078c366004612a89565b61123d565b61026861079f36600461332b565b61127f565b3480156107af575f5ffd5b506102b16107be366004612d79565b6112fb565b3480156107ce575f5ffd5b506040805180820190915260208082527f737570706f72743d627261766f2671756f72756d3d666f722c6162737461696e908201526102f2565b348015610813575f5ffd5b506102b17ff2aad550cf55f045cb27e9c559f9889fdfb6e6cdaa032301d6ea397784ae51d781565b348015610846575f5ffd5b506102b1610855366004613368565b611334565b348015610865575f5ffd5b50610375610874366004613390565b63f23a6e6160e01b95945050505050565b348015610890575f5ffd5b506102b161089f366004612a89565b611353565b3480156108af575f5ffd5b507f0000000000000000000000000000000000000000000000000000000000000000610333565b5f6001600160e01b031982166366defe7760e11b148061090657506001600160e01b031982166332a2ad4360e11b145b8061092157506001600160e01b03198216630271189760e51b145b8061093c57506301ffc9a760e01b6001600160e01b03198316145b92915050565b61094a6113f0565b61095381611427565b50565b606060038054610965906133e3565b80601f0160208091040260200160405190810160405280929190818152602001828054610991906133e3565b80156109dc5780601f106109b3576101008083540402835291602001916109dc565b820191905f5260205f20905b8154815290600101906020018083116109bf57829003601f168201915b5050505050905090565b5f5f6109f486868686611227565b9050610a0981610a0460046114bc565b6114de565b505f604051634844252360e11b815260040160405180910390fd5b5095945050505050565b5f5f610a3c86868686611227565b9050610a5c81610a4c60056114bc565b610a5660046114bc565b176114de565b505f818152600460205260409020805460ff60f01b1916600160f01b17905530610a833090565b6001600160a01b031614610b0c575f5b8651811015610b0a57306001600160a01b0316878281518110610ab857610ab861341b565b60200260200101516001600160a01b031603610b0257610b02858281518110610ae357610ae361341b565b602002602001015180519060200120600561151b90919063ffffffff16565b600101610a93565b505b610b19818787878761157c565b6040518181527f712ae1383f79ac853f8d882153778e0260ef8f03b504e2866e0593e04d2b291f906020015b60405180910390a195945050505050565b5f90815260046020526040902054600160a01b900465ffffffffffff1690565b5f818152600460205260408120805460ff600160f01b8204811691600160f81b9004168115610baa57506007949350505050565b8015610bbb57506002949350505050565b5f610bc586610b56565b9050805f03610bef57604051636ad0607560e01b8152600481018790526024015b60405180910390fd5b5f610bf861116c565b65ffffffffffff169050808210610c1557505f9695505050505050565b5f610c1f8861123d565b9050818110610c3657506001979650505050505050565b610c3f88611651565b1580610c5e57505f888152600760205260409020805460019091015411155b15610c7157506003979650505050505050565b5f8881526004602052604090206001015465ffffffffffff165f03610c9e57506004979650505050505050565b506005979650505050505050565b5f5f610cba86868686611227565b905033610cc78282611687565b610cf657604051638fe5d8a960e01b8152600481018390526001600160a01b0382166024820152604401610be6565b610d02878787876116cc565b979650505050505050565b60607f00000000000000000000000000000000000000000000000000000000000000006001600160a01b0316634bf5d7e96040518163ffffffff1660e01b81526004015f60405180830381865afa925050508015610d8c57506040513d5f823e601f3d908101601f19168201604052610d89919081019061342f565b60015b610dc8575060408051808201909152601d81527f6d6f64653d626c6f636b6e756d6265722666726f6d3d64656661756c74000000602082015290565b919050565b5f818152600760205260409020805460018201546002909201549091905b9193909250565b5f80339050610e1184828560405180602001604052805f81525061177b565b949350505050565b5f5f610efa87610ef47f3e83946653575f9a39005e1545185629e92736b7528ab20ca3816f315424a8118c8c8c610e6c8e6001600160a01b03165f90815260026020526040902080546001810190915590565b8d8d604051610e7c9291906134a3565b60405180910390208c80519060200120604051602001610ed99796959493929190968752602087019590955260ff9390931660408601526001600160a01b03919091166060850152608084015260a083015260c082015260e00190565b6040516020818303038152906040528051906020012061179c565b856117c8565b905080610f25576040516394ab6c0760e01b81526001600160a01b0388166004820152602401610be6565b610f6889888a89898080601f0160208091040260200160405190810160405280939291908181526020018383808284375f920191909152508b9250611838915050565b9998505050505050505050565b5f80339050610d0287828888888080601f0160208091040260200160405190810160405280939291908181526020018383808284375f920191909152508a9250611838915050565b5f61093c600883611916565b5f8033905061100f86828787878080601f0160208091040260200160405190810160405280939291908181526020018383808284375f9201919091525061177b92505050565b9695505050505050565b5f336110258184611963565b61104d5760405163d9b3955760e01b81526001600160a01b0382166004820152602401610be6565b5f610d0287878787866119e7565b5f6060805f5f5f606061106c611be6565b611074611c12565b604080515f80825260208201909252600f60f81b9b939a50919850469750309650945092509050565b5f5f61112784610ef47ff2aad550cf55f045cb27e9c559f9889fdfb6e6cdaa032301d6ea397784ae51d78989896110f08b6001600160a01b03165f90815260026020526040902080546001810190915590565b60408051602081019690965285019390935260ff90911660608401526001600160a01b0316608083015260a082015260c001610ed9565b905080611152576040516394ab6c0760e01b81526001600160a01b0385166004820152602401610be6565b61100f86858760405180602001604052805f81525061177b565b5f7f00000000000000000000000000000000000000000000000000000000000000006001600160a01b03166391ddadf46040518163ffffffff1660e01b8152600401602060405180830381865afa9250505080156111e7575060408051601f3d908101601f191682019092526111e4918101906134c6565b60015b610dc8576111f3611c3f565b905090565b5f611204848484611c49565b90505b9392505050565b5f6112196008611cdc565b6001600160d01b0316905090565b5f611234858585856112fb565b95945050505050565b5f8181526004602052604081205461127190600160d01b810463ffffffff1690600160a01b900465ffffffffffff166134eb565b65ffffffffffff1692915050565b6112876113f0565b5f5f856001600160a01b03168585856040516112a49291906134a3565b5f6040518083038185875af1925050503d805f81146112de576040519150601f19603f3d011682016040523d82523d5f602084013e6112e3565b606091505b50915091506112f28282611d20565b50505050505050565b5f84848484604051602001611313949392919061359c565b60408051601f19818403018152919052805160209091012095945050505050565b5f611207838361134e60408051602081019091525f815290565b611c49565b604051632394e7a360e21b8152600481018290525f9061093c906001600160a01b037f00000000000000000000000000000000000000000000000000000000000000001690638e539e8c90602401602060405180830381865afa1580156113bc573d5f5f3e3d5ffd5b505050506040513d601f19601f820116820180604052508101906113e091906135e6565b6113e984610fbd565b6064611d3c565b303314611412576040516347096e4760e01b8152336004820152602401610be6565b565b8061141f6005611df2565b036114145750565b6064808211156114545760405163243e544560e01b81526004810183905260248101829052604401610be6565b5f61145d61120e565b905061147c61146a61116c565b61147385611e5f565b60089190611e96565b505060408051828152602081018590527f0553476bf02ef2726e8ce5ced78d63e26e602e4a2257b1f559418e24b4633997910160405180910390a1505050565b5f8160078111156114cf576114cf612e0c565b600160ff919091161b92915050565b5f5f6114e984610b76565b90505f836114f6836114bc565b1603611207578381846040516331b75e4d60e01b8152600401610be6939291906135fd565b81546001600160801b03600160801b820481169181166001830190911603611547576115476041611eb0565b6001600160801b038082165f90815260018086016020526040909120939093558354919092018216600160801b029116179055565b5f5b8451811015611649575f5f86838151811061159b5761159b61341b565b60200260200101516001600160a01b03168684815181106115be576115be61341b565b60200260200101518685815181106115d8576115d861341b565b60200260200101516040516115ed919061361f565b5f6040518083038185875af1925050503d805f8114611627576040519150601f19603f3d011682016040523d82523d5f602084013e61162c565b606091505b509150915061163b8282611d20565b50505080600101905061157e565b505050505050565b5f818152600760205260408120600281015460018201546116729190613635565b61167e61089f85610b56565b11159392505050565b5f8061169284610b76565b60078111156116a3576116a3612e0c565b1480156112075750505f91825260046020526040909120546001600160a01b0391821691161490565b5f5f6116da86868686611227565b9050611728816116ea60076114bc565b6116f460066114bc565b6116fe60026114bc565b600161170b600782613648565b61171690600261373c565b611720919061374a565b1818186114de565b505f818152600460205260409081902080546001600160f81b0316600160f81b179055517f789cf55be980739dad1d0699b93b58e806b51c9d96619bfa8fe0a28abaa7b30c90610b459083815260200190565b5f6112348585858561179760408051602081019091525f815290565b611838565b5f61093c6117a8611ec1565b8360405161190160f01b8152600281019290925260228201526042902090565b5f836001600160a01b03163b5f03611826575f5f6117e68585611fea565b5090925090505f8160038111156117ff576117ff612e0c565b14801561181d5750856001600160a01b0316826001600160a01b0316145b92505050611207565b611831848484612033565b9050611207565b5f61184786610a0460016114bc565b505f61185c8661185689610b56565b85611c49565b90505f61186c8888888588612109565b905083515f036118c257866001600160a01b03167fb8e138887d0aa13bab447e82de9d5c1777041ecd21ca36ba824ff1e6c07ddda4898884896040516118b5949392919061375d565b60405180910390a2610d02565b866001600160a01b03167fe2babfbac5889a709b63bb7f598b324e08bc5a4fb9ec647fb3cbc9ec07eb87128988848989604051611903959493929190613784565b60405180910390a2979650505050505050565b5f5f5f61192285612205565b9250925050838265ffffffffffff16111561194f5761194a6119438561225d565b869061228f565b611951565b805b6001600160d01b031695945050505050565b80515f90603481101561197a57600191505061093c565b60131981840101516001600160b01b03198116692370726f706f7365723d60b01b146119ab5760019250505061093c565b5f5f6119bb86602a860386612331565b91509150811580610d025750866001600160a01b0316816001600160a01b031614979650505050505050565b5f6119fb8686868680519060200120611227565b905084518651141580611a1057508351865114155b80611a1a57508551155b15611a4f57855184518651604051630447b05d60e41b8152600481019390935260248301919091526044820152606401610be6565b5f81815260046020526040902054600160a01b900465ffffffffffff1615611a985780611a7b82610b76565b6040516331b75e4d60e01b8152610be69291905f906004016135fd565b5f6002611aa361116c565b65ffffffffffff16611ab59190613635565b90505f60025f84815260046020526040902080546001600160a01b0319166001600160a01b038716178155909150611aec8361225d565b815465ffffffffffff91909116600160a01b0265ffffffffffff60a01b19909116178155611b19826123da565b815463ffffffff91909116600160d01b0263ffffffff60d01b1990911617815588517f7d84a6263ae0d98d3329bd7b46bb4e8d6f98cd35a7adb45c274c8b7fd5ebd5e090859087908c908c906001600160401b03811115611b7c57611b7c612af6565b604051908082528060200260200182016040528015611baf57816020015b6060815260200190600190039081611b9a5790505b508c89611bbc8a82613635565b8e604051611bd2999897969594939291906137c9565b60405180910390a150505095945050505050565b60606111f37f00000000000000000000000000000000000000000000000000000000000000005f61240a565b60606111f37f0000000000000000000000000000000000000000000000000000000000000000600161240a565b5f6111f34361225d565b5f7f0000000000000000000000000000000000000000000000000000000000000000604051630748d63560e31b81526001600160a01b038681166004830152602482018690529190911690633a46b1a890604401602060405180830381865afa158015611cb8573d5f5f3e3d5ffd5b505050506040513d601f19601f8201168201806040525081019061120491906135e6565b80545f908015611d1857611d0283611cf560018461374a565b5f91825260209091200190565b54600160301b90046001600160d01b0316611207565b5f9392505050565b606082611d3557611d30826124b3565b61093c565b508061093c565b5f838302815f1985870982811083820303915050805f03611d7057838281611d6657611d666138a4565b0492505050611207565b808411611d8757611d876003851502601118611eb0565b5f848688095f868103871696879004966002600389028118808a02820302808a02820302808a02820302808a02820302808a02820302808a02909103029181900381900460010186841190950394909402919094039290920491909117919091029150509392505050565b80545f906001600160801b0380821691600160801b9004168103611e1a57611e1a6031611eb0565b6001600160801b038181165f908152600185810160205260408220805492905585546fffffffffffffffffffffffffffffffff19169301909116919091179092555090565b5f6001600160d01b03821115611e92576040516306dfcc6560e41b815260d0600482015260248101839052604401610be6565b5090565b5f80611ea38585856124dc565b915091505b935093915050565b634e487b715f52806020526024601cfd5b5f306001600160a01b037f000000000000000000000000000000000000000000000000000000000000000016148015611f1957507f000000000000000000000000000000000000000000000000000000000000000046145b15611f4357507f000000000000000000000000000000000000000000000000000000000000000090565b6111f3604080517f8b73c3c69bb8fe3d512ecc4cf759cc79239f7b179b0ffacaa9a75d522b39400f60208201527f0000000000000000000000000000000000000000000000000000000000000000918101919091527f000000000000000000000000000000000000000000000000000000000000000060608201524660808201523060a08201525f9060c00160405160208183030381529060405280519060200120905090565b5f5f5f8351604103612021576020840151604085015160608601515f1a6120138882858561262c565b95509550955050505061202c565b505081515f91506002905b9250925092565b5f5f5f856001600160a01b031685856040516024016120539291906138b8565b60408051601f198184030181529181526020820180516001600160e01b0316630b135d3f60e11b17905251612088919061361f565b5f60405180830381855afa9150503d805f81146120c0576040519150601f19603f3d011682016040523d82523d5f602084013e6120c5565b606091505b50915091508180156120d957506020815110155b801561100f57508051630b135d3f60e11b906120fe90830160209081019084016135e6565b149695505050505050565b5f8581526007602090815260408083206001600160a01b03881684526003810190925282205460ff161561215b576040516371c6af4960e01b81526001600160a01b0387166004820152602401610be6565b6001600160a01b0386165f9081526003820160205260409020805460ff1916600117905560ff85166121a45783815f015f8282546121999190613635565b909155506121fa9050565b5f1960ff8616016121c25783816001015f8282546121999190613635565b60011960ff8616016121e15783816002015f8282546121999190613635565b6040516303599be160e11b815260040160405180910390fd5b509195945050505050565b80545f9081908190808203612223575f5f5f93509350935050610deb565b5f61223386611cf560018561374a565b546001955065ffffffffffff81169450600160301b90046001600160d01b03169250610deb915050565b5f65ffffffffffff821115611e92576040516306dfcc6560e41b81526030600482015260248101839052604401610be6565b81545f90818160058111156122eb575f6122a8846126f4565b6122b2908561374a565b5f8881526020902090915081015465ffffffffffff90811690871610156122db578091506122e9565b6122e6816001613635565b92505b505b5f6122f88787858561284c565b905080156123255761230f87611cf560018461374a565b54600160301b90046001600160d01b0316610d02565b505f9695505050505050565b5f5f845183118061234157508284115b1561235057505f905080611ea8565b5f61235c856001613635565b84118015612384575061060f60f31b6123788787016020015190565b6001600160f01b031916145b90505f61239482151560026138d0565b61239f906028613635565b9050806123ac878761374a565b036123cd575f5f6123be8989896128ab565b9096509450611ea89350505050565b5f5f935093505050611ea8565b5f63ffffffff821115611e92576040516306dfcc6560e41b81526020600482015260248101839052604401610be6565b606060ff83146124245761241d8361296c565b905061093c565b818054612430906133e3565b80601f016020809104026020016040519081016040528092919081815260200182805461245c906133e3565b80156124a75780601f1061247e576101008083540402835291602001916124a7565b820191905f5260205f20905b81548152906001019060200180831161248a57829003601f168201915b5050505050905061093c565b8051156124c35780518082602001fd5b60405163d6bda27560e01b815260040160405180910390fd5b82545f90819080156125d2575f6124f887611cf560018561374a565b805490915065ffffffffffff80821691600160301b90046001600160d01b031690881682111561253b57604051632520601d60e01b815260040160405180910390fd5b8765ffffffffffff168265ffffffffffff160361257457825465ffffffffffff16600160301b6001600160d01b038916021783556125c4565b6040805180820190915265ffffffffffff808a1682526001600160d01b03808a1660208085019182528d54600181018f555f8f81529190912094519151909216600160301b029216919091179101555b9450859350611ea892505050565b50506040805180820190915265ffffffffffff80851682526001600160d01b0380851660208085019182528854600181018a555f8a815291822095519251909316600160301b029190931617920191909155905081611ea8565b5f80807f7fffffffffffffffffffffffffffffff5d576e7357a4501ddfe92f46681b20a084111561266557505f915060039050826126ea565b604080515f808252602082018084528a905260ff891692820192909252606081018790526080810186905260019060a0016020604051602081039080840390855afa1580156126b6573d5f5f3e3d5ffd5b5050604051601f1901519150506001600160a01b0381166126e157505f9250600191508290506126ea565b92505f91508190505b9450945094915050565b5f60018211612701575090565b816001600160801b821061271a5760809190911c9060401b5b6801000000000000000082106127355760409190911c9060201b5b640100000000821061274c5760209190911c9060101b5b6201000082106127615760109190911c9060081b5b61010082106127755760089190911c9060041b5b601082106127885760049190911c9060021b5b600482106127945760011b5b600302600190811c908185816127ac576127ac6138a4565b048201901c905060018185816127c4576127c46138a4565b048201901c905060018185816127dc576127dc6138a4565b048201901c905060018185816127f4576127f46138a4565b048201901c9050600181858161280c5761280c6138a4565b048201901c90506001818581612824576128246138a4565b048201901c905061284381858161283d5761283d6138a4565b04821190565b90039392505050565b5f5b818310156128a3575f61286184846129a9565b5f8781526020902090915065ffffffffffff86169082015465ffffffffffff16111561288f5780925061289d565b61289a816001613635565b93505b5061284e565b509392505050565b5f8084816128ba866001613635565b851180156128e2575061060f60f31b6128d68388016020015190565b6001600160f01b031916145b90505f6128f282151560026138d0565b90505f80612900838a613635565b90505b8781101561295b575f61292161291c8784016020015190565b6129c3565b9050600f8160ff161115612940575f5f97509750505050505050611ea8565b61294b6010846138d0565b60ff909116019150600101612903565b506001999098509650505050505050565b60605f61297883612a3b565b6040805160208082528183019092529192505f91906020820181803683375050509182525060208101929092525090565b5f6129b760028484186138e7565b61120790848416613635565b5f60f882901c602f811180156129dc5750603a8160ff16105b156129ea57602f190161093c565b60608160ff16118015612a00575060678160ff16105b15612a0e576056190161093c565b60408160ff16118015612a24575060478160ff16105b15612a32576036190161093c565b5060ff92915050565b5f60ff8216601f81111561093c57604051632cd44ac360e21b815260040160405180910390fd5b5f60208284031215612a72575f5ffd5b81356001600160e01b031981168114611207575f5ffd5b5f60208284031215612a99575f5ffd5b5035919050565b5f81518084528060208401602086015e5f602082860101526020601f19601f83011685010191505092915050565b602081525f6112076020830184612aa0565b80356001600160a01b0381168114610dc8575f5ffd5b634e487b7160e01b5f52604160045260245ffd5b604051601f8201601f191681016001600160401b0381118282101715612b3257612b32612af6565b604052919050565b5f6001600160401b03821115612b5257612b52612af6565b50601f01601f191660200190565b5f612b72612b6d84612b3a565b612b0a565b9050828152838383011115612b85575f5ffd5b828260208301375f602084830101529392505050565b5f82601f830112612baa575f5ffd5b61120783833560208501612b60565b5f5f5f5f60808587031215612bcc575f5ffd5b612bd585612ae0565b9350612be360208601612ae0565b92506040850135915060608501356001600160401b03811115612c04575f5ffd5b612c1087828801612b9b565b91505092959194509250565b5f6001600160401b03821115612c3457612c34612af6565b5060051b60200190565b5f82601f830112612c4d575f5ffd5b8135612c5b612b6d82612c1c565b8082825260208201915060208360051b860101925085831115612c7c575f5ffd5b602085015b83811015610a2457612c9281612ae0565b835260209283019201612c81565b5f82601f830112612caf575f5ffd5b8135612cbd612b6d82612c1c565b8082825260208201915060208360051b860101925085831115612cde575f5ffd5b602085015b83811015610a24578035835260209283019201612ce3565b5f82601f830112612d0a575f5ffd5b8135612d18612b6d82612c1c565b8082825260208201915060208360051b860101925085831115612d39575f5ffd5b602085015b83811015610a245780356001600160401b03811115612d5b575f5ffd5b612d6a886020838a0101612b9b565b84525060209283019201612d3e565b5f5f5f5f60808587031215612d8c575f5ffd5b84356001600160401b03811115612da1575f5ffd5b612dad87828801612c3e565b94505060208501356001600160401b03811115612dc8575f5ffd5b612dd487828801612ca0565b93505060408501356001600160401b03811115612def575f5ffd5b612dfb87828801612cfb565b949793965093946060013593505050565b634e487b7160e01b5f52602160045260245ffd5b60088110612e3c57634e487b7160e01b5f52602160045260245ffd5b9052565b6020810161093c8284612e20565b5f5f60408385031215612e5f575f5ffd5b82359150612e6f60208401612ae0565b90509250929050565b803560ff81168114610dc8575f5ffd5b5f5f60408385031215612e99575f5ffd5b82359150612e6f60208401612e78565b5f5f83601f840112612eb9575f5ffd5b5081356001600160401b03811115612ecf575f5ffd5b602083019150836020828501011115612ee6575f5ffd5b9250929050565b5f5f5f5f5f5f5f60c0888a031215612f03575f5ffd5b87359650612f1360208901612e78565b9550612f2160408901612ae0565b945060608801356001600160401b03811115612f3b575f5ffd5b612f478a828b01612ea9565b90955093505060808801356001600160401b03811115612f65575f5ffd5b612f718a828b01612b9b565b92505060a08801356001600160401b03811115612f8c575f5ffd5b612f988a828b01612b9b565b91505092959891949750929550565b5f5f5f5f5f60808688031215612fbb575f5ffd5b85359450612fcb60208701612e78565b935060408601356001600160401b03811115612fe5575f5ffd5b612ff188828901612ea9565b90945092505060608601356001600160401b0381111561300f575f5ffd5b61301b88828901612b9b565b9150509295509295909350565b5f5f5f5f6060858703121561303b575f5ffd5b8435935061304b60208601612e78565b925060408501356001600160401b03811115613065575f5ffd5b61307187828801612ea9565b95989497509550505050565b5f5f5f5f60808587031215613090575f5ffd5b84356001600160401b038111156130a5575f5ffd5b6130b187828801612c3e565b94505060208501356001600160401b038111156130cc575f5ffd5b6130d887828801612ca0565b93505060408501356001600160401b038111156130f3575f5ffd5b6130ff87828801612cfb565b92505060608501356001600160401b0381111561311a575f5ffd5b8501601f8101871361312a575f5ffd5b612c1087823560208401612b60565b5f60208284031215613149575f5ffd5b61120782612ae0565b5f8151808452602084019350602083015f5b82811015613182578151865260209586019590910190600101613164565b5093949350505050565b60ff60f81b8816815260e060208201525f6131aa60e0830189612aa0565b82810360408401526131bc8189612aa0565b606084018890526001600160a01b038716608085015260a0840186905283810360c085015290506131ed8185613152565b9a9950505050505050505050565b5f5f5f5f6080858703121561320e575f5ffd5b8435935061321e60208601612e78565b925061322c60408601612ae0565b915060608501356001600160401b03811115612c04575f5ffd5b5f5f5f60608486031215613258575f5ffd5b61326184612ae0565b92506020840135915060408401356001600160401b03811115613282575f5ffd5b61328e86828701612b9b565b9150509250925092565b5f5f5f5f5f60a086880312156132ac575f5ffd5b6132b586612ae0565b94506132c360208701612ae0565b935060408601356001600160401b038111156132dd575f5ffd5b6132e988828901612ca0565b93505060608601356001600160401b03811115613304575f5ffd5b61331088828901612ca0565b92505060808601356001600160401b0381111561300f575f5ffd5b5f5f5f5f6060858703121561333e575f5ffd5b61334785612ae0565b93506020850135925060408501356001600160401b03811115613065575f5ffd5b5f5f60408385031215613379575f5ffd5b61338283612ae0565b946020939093013593505050565b5f5f5f5f5f60a086880312156133a4575f5ffd5b6133ad86612ae0565b94506133bb60208701612ae0565b9350604086013592506060860135915060808601356001600160401b0381111561300f575f5ffd5b600181811c908216806133f757607f821691505b60208210810361341557634e487b7160e01b5f52602260045260245ffd5b50919050565b634e487b7160e01b5f52603260045260245ffd5b5f6020828403121561343f575f5ffd5b81516001600160401b03811115613454575f5ffd5b8201601f81018413613464575f5ffd5b8051613472612b6d82612b3a565b818152856020838501011115613486575f5ffd5b8160208401602083015e5f91810160200191909152949350505050565b818382375f9101908152919050565b634e487b7160e01b5f52601160045260245ffd5b5f602082840312156134d6575f5ffd5b815165ffffffffffff81168114611207575f5ffd5b65ffffffffffff818116838216019081111561093c5761093c6134b2565b5f8151808452602084019350602083015f5b828110156131825781516001600160a01b031686526020958601959091019060010161351b565b5f82825180855260208501945060208160051b830101602085015f5b8381101561359057601f1985840301885261357a838351612aa0565b602098890198909350919091019060010161355e565b50909695505050505050565b608081525f6135ae6080830187613509565b82810360208401526135c08187613152565b905082810360408401526135d48186613542565b91505082606083015295945050505050565b5f602082840312156135f6575f5ffd5b5051919050565b838152606081016136116020830185612e20565b826040830152949350505050565b5f82518060208501845e5f920191825250919050565b8082018082111561093c5761093c6134b2565b60ff818116838216019081111561093c5761093c6134b2565b6001815b6001841115611ea857808504811115613680576136806134b2565b600184161561368e57908102905b60019390931c928002613665565b5f826136aa5750600161093c565b816136b657505f61093c565b81600181146136cc57600281146136d6576136f2565b600191505061093c565b60ff8411156136e7576136e76134b2565b50506001821b61093c565b5060208310610133831016604e8410600b8410161715613715575081810a61093c565b6137215f198484613661565b805f1904821115613734576137346134b2565b029392505050565b5f61120760ff84168361369c565b8181038181111561093c5761093c6134b2565b84815260ff84166020820152826040820152608060608201525f61100f6080830184612aa0565b85815260ff8516602082015283604082015260a060608201525f6137ab60a0830185612aa0565b82810360808401526137bd8185612aa0565b98975050505050505050565b8981526001600160a01b0389166020820152610120604082018190525f906137f39083018a613509565b8281036060840152613805818a613152565b9050828103608084015280885180835260208301915060208160051b84010160208b015f5b8381101561385c57601f19868403018552613846838351612aa0565b602095860195909350919091019060010161382a565b505085810360a0870152613870818b613542565b93505050508560c08401528460e08401528281036101008401526138948185612aa0565b9c9b505050505050505050505050565b634e487b7160e01b5f52601260045260245ffd5b828152604060208201525f6112046040830184612aa0565b808202811582820484141761093c5761093c6134b2565b5f8261390157634e487b7160e01b5f52601260045260245ffd5b50049056fea2646970667358221220936bb3f4f35e6bf54b5c5427db888cd7a7bc05be6d991667935d2c4800701e8e64736f6c634300081d0033",
			"opcodes": "PUSH2 0x180 PUSH1 0x40 MSTORE CALLVALUE DUP1 ISZERO PUSH2 0x10 JUMPI PUSH0 PUSH0 REVERT JUMPDEST POP PUSH1 0x40 MLOAD PUSH2 0x40EC CODESIZE SUB DUP1 PUSH2 0x40EC DUP4 CODECOPY DUP2 ADD PUSH1 0x40 DUP2 SWAP1 MSTORE PUSH2 0x2F SWAP2 PUSH2 0x525 JUMP JUMPDEST PUSH1 0x4 DUP2 PUSH1 0x40 MLOAD DUP1 PUSH1 0x40 ADD PUSH1 0x40 MSTORE DUP1 PUSH1 0xA DUP2 MSTORE PUSH1 0x20 ADD PUSH10 0x26BCA3B7BB32B93737B9 PUSH1 0xB1 SHL DUP2 MSTORE POP DUP1 PUSH2 0x64 PUSH2 0x13D PUSH1 0x20 SHL PUSH1 0x20 SHR JUMP JUMPDEST PUSH2 0x6E DUP3 PUSH0 PUSH2 0x158 JUMP JUMPDEST PUSH2 0x120 MSTORE PUSH2 0x7D DUP2 PUSH1 0x1 PUSH2 0x158 JUMP JUMPDEST PUSH2 0x140 MSTORE DUP2 MLOAD PUSH1 0x20 DUP1 DUP5 ADD SWAP2 SWAP1 SWAP2 KECCAK256 PUSH1 0xE0 MSTORE DUP2 MLOAD SWAP1 DUP3 ADD KECCAK256 PUSH2 0x100 MSTORE CHAINID PUSH1 0xA0 MSTORE PUSH2 0x109 PUSH1 0xE0 MLOAD PUSH2 0x100 MLOAD PUSH1 0x40 DUP1 MLOAD PUSH32 0x8B73C3C69BB8FE3D512ECC4CF759CC79239F7B179B0FFACAA9A75D522B39400F PUSH1 0x20 DUP3 ADD MSTORE SWAP1 DUP2 ADD SWAP3 SWAP1 SWAP3 MSTORE PUSH1 0x60 DUP3 ADD MSTORE CHAINID PUSH1 0x80 DUP3 ADD MSTORE ADDRESS PUSH1 0xA0 DUP3 ADD MSTORE PUSH0 SWAP1 PUSH1 0xC0 ADD PUSH1 0x40 MLOAD PUSH1 0x20 DUP2 DUP4 SUB SUB DUP2 MSTORE SWAP1 PUSH1 0x40 MSTORE DUP1 MLOAD SWAP1 PUSH1 0x20 ADD KECCAK256 SWAP1 POP SWAP1 JUMP JUMPDEST PUSH1 0x80 MSTORE POP POP ADDRESS PUSH1 0xC0 MSTORE PUSH1 0x3 PUSH2 0x11E DUP3 DUP3 PUSH2 0x5E3 JUMP JUMPDEST POP POP PUSH1 0x1 PUSH1 0x1 PUSH1 0xA0 SHL SUB AND PUSH2 0x160 MSTORE PUSH2 0x136 DUP2 PUSH2 0x18A JUMP JUMPDEST POP POP PUSH2 0x739 JUMP JUMPDEST PUSH1 0x40 DUP1 MLOAD DUP1 DUP3 ADD SWAP1 SWAP2 MSTORE PUSH1 0x1 DUP2 MSTORE PUSH1 0x31 PUSH1 0xF8 SHL PUSH1 0x20 DUP3 ADD MSTORE SWAP1 JUMP JUMPDEST PUSH0 PUSH1 0x20 DUP4 MLOAD LT ISZERO PUSH2 0x173 JUMPI PUSH2 0x16C DUP4 PUSH2 0x224 JUMP JUMPDEST SWAP1 POP PUSH2 0x184 JUMP JUMPDEST DUP2 PUSH2 0x17E DUP5 DUP3 PUSH2 0x5E3 JUMP JUMPDEST POP PUSH1 0xFF SWAP1 POP JUMPDEST SWAP3 SWAP2 POP POP JUMP JUMPDEST PUSH1 0x64 DUP1 DUP3 GT ISZERO PUSH2 0x1BC JUMPI PUSH1 0x40 MLOAD PUSH4 0x243E5445 PUSH1 0xE0 SHL DUP2 MSTORE PUSH1 0x4 DUP2 ADD DUP4 SWAP1 MSTORE PUSH1 0x24 DUP2 ADD DUP3 SWAP1 MSTORE PUSH1 0x44 ADD JUMPDEST PUSH1 0x40 MLOAD DUP1 SWAP2 SUB SWAP1 REVERT JUMPDEST PUSH0 PUSH2 0x1C5 PUSH2 0x261 JUMP JUMPDEST SWAP1 POP PUSH2 0x1E4 PUSH2 0x1D2 PUSH2 0x27A JUMP JUMPDEST PUSH2 0x1DB DUP6 PUSH2 0x2F4 JUMP JUMPDEST PUSH1 0x8 SWAP2 SWAP1 PUSH2 0x32B JUMP JUMPDEST POP POP PUSH1 0x40 DUP1 MLOAD DUP3 DUP2 MSTORE PUSH1 0x20 DUP2 ADD DUP6 SWAP1 MSTORE PUSH32 0x553476BF02EF2726E8CE5CED78D63E26E602E4A2257B1F559418E24B4633997 SWAP2 ADD PUSH1 0x40 MLOAD DUP1 SWAP2 SUB SWAP1 LOG1 POP POP POP JUMP JUMPDEST PUSH0 PUSH0 DUP3 SWAP1 POP PUSH1 0x1F DUP2 MLOAD GT ISZERO PUSH2 0x24E JUMPI DUP3 PUSH1 0x40 MLOAD PUSH4 0x305A27A9 PUSH1 0xE0 SHL DUP2 MSTORE PUSH1 0x4 ADD PUSH2 0x1B3 SWAP2 SWAP1 PUSH2 0x69D JUMP JUMPDEST DUP1 MLOAD PUSH2 0x259 DUP3 PUSH2 0x6D2 JUMP JUMPDEST OR SWAP4 SWAP3 POP POP POP JUMP JUMPDEST PUSH0 PUSH2 0x26C PUSH1 0x8 PUSH2 0x345 JUMP JUMPDEST PUSH1 0x1 PUSH1 0x1 PUSH1 0xD0 SHL SUB AND SWAP1 POP SWAP1 JUMP JUMPDEST PUSH0 PUSH2 0x285 PUSH2 0x160 MLOAD SWAP1 JUMP JUMPDEST PUSH1 0x1 PUSH1 0x1 PUSH1 0xA0 SHL SUB AND PUSH4 0x91DDADF4 PUSH1 0x40 MLOAD DUP2 PUSH4 0xFFFFFFFF AND PUSH1 0xE0 SHL DUP2 MSTORE PUSH1 0x4 ADD PUSH1 0x20 PUSH1 0x40 MLOAD DUP1 DUP4 SUB DUP2 DUP7 GAS STATICCALL SWAP3 POP POP POP DUP1 ISZERO PUSH2 0x2DE JUMPI POP PUSH1 0x40 DUP1 MLOAD PUSH1 0x1F RETURNDATASIZE SWAP1 DUP2 ADD PUSH1 0x1F NOT AND DUP3 ADD SWAP1 SWAP3 MSTORE PUSH2 0x2DB SWAP2 DUP2 ADD SWAP1 PUSH2 0x6F5 JUMP JUMPDEST PUSH1 0x1 JUMPDEST PUSH2 0x2EF JUMPI PUSH2 0x2EA PUSH2 0x38D JUMP JUMPDEST SWAP1 POP SWAP1 JUMP JUMPDEST SWAP2 SWAP1 POP JUMP JUMPDEST PUSH0 PUSH1 0x1 PUSH1 0x1 PUSH1 0xD0 SHL SUB DUP3 GT ISZERO PUSH2 0x327 JUMPI PUSH1 0x40 MLOAD PUSH4 0x6DFCC65 PUSH1 0xE4 SHL DUP2 MSTORE PUSH1 0xD0 PUSH1 0x4 DUP3 ADD MSTORE PUSH1 0x24 DUP2 ADD DUP4 SWAP1 MSTORE PUSH1 0x44 ADD PUSH2 0x1B3 JUMP JUMPDEST POP SWAP1 JUMP JUMPDEST PUSH0 DUP1 PUSH2 0x338 DUP6 DUP6 DUP6 PUSH2 0x397 JUMP JUMPDEST SWAP2 POP SWAP2 POP JUMPDEST SWAP4 POP SWAP4 SWAP2 POP POP JUMP JUMPDEST DUP1 SLOAD PUSH0 SWAP1 DUP1 ISZERO PUSH2 0x384 JUMPI PUSH2 0x36B DUP4 PUSH2 0x35E PUSH1 0x1 DUP5 PUSH2 0x71A JUMP JUMPDEST PUSH0 SWAP2 DUP3 MSTORE PUSH1 0x20 SWAP1 SWAP2 KECCAK256 ADD SWAP1 JUMP JUMPDEST SLOAD PUSH7 0x1000000000000 SWAP1 DIV PUSH1 0x1 PUSH1 0x1 PUSH1 0xD0 SHL SUB AND PUSH2 0x386 JUMP JUMPDEST PUSH0 JUMPDEST SWAP4 SWAP3 POP POP POP JUMP JUMPDEST PUSH0 PUSH2 0x2EA NUMBER PUSH2 0x4F3 JUMP JUMPDEST DUP3 SLOAD PUSH0 SWAP1 DUP2 SWAP1 DUP1 ISZERO PUSH2 0x496 JUMPI PUSH0 PUSH2 0x3B3 DUP8 PUSH2 0x35E PUSH1 0x1 DUP6 PUSH2 0x71A JUMP JUMPDEST DUP1 SLOAD SWAP1 SWAP2 POP PUSH6 0xFFFFFFFFFFFF DUP1 DUP3 AND SWAP2 PUSH7 0x1000000000000 SWAP1 DIV PUSH1 0x1 PUSH1 0x1 PUSH1 0xD0 SHL SUB AND SWAP1 DUP9 AND DUP3 GT ISZERO PUSH2 0x3F9 JUMPI PUSH1 0x40 MLOAD PUSH4 0x2520601D PUSH1 0xE0 SHL DUP2 MSTORE PUSH1 0x4 ADD PUSH1 0x40 MLOAD DUP1 SWAP2 SUB SWAP1 REVERT JUMPDEST DUP8 PUSH6 0xFFFFFFFFFFFF AND DUP3 PUSH6 0xFFFFFFFFFFFF AND SUB PUSH2 0x435 JUMPI DUP3 SLOAD PUSH6 0xFFFFFFFFFFFF AND PUSH7 0x1000000000000 PUSH1 0x1 PUSH1 0x1 PUSH1 0xD0 SHL SUB DUP10 AND MUL OR DUP4 SSTORE PUSH2 0x488 JUMP JUMPDEST PUSH1 0x40 DUP1 MLOAD DUP1 DUP3 ADD SWAP1 SWAP2 MSTORE PUSH6 0xFFFFFFFFFFFF DUP1 DUP11 AND DUP3 MSTORE PUSH1 0x1 PUSH1 0x1 PUSH1 0xD0 SHL SUB DUP1 DUP11 AND PUSH1 0x20 DUP1 DUP6 ADD SWAP2 DUP3 MSTORE DUP14 SLOAD PUSH1 0x1 DUP2 ADD DUP16 SSTORE PUSH0 DUP16 DUP2 MSTORE SWAP2 SWAP1 SWAP2 KECCAK256 SWAP5 MLOAD SWAP2 MLOAD SWAP1 SWAP3 AND PUSH7 0x1000000000000 MUL SWAP3 AND SWAP2 SWAP1 SWAP2 OR SWAP2 ADD SSTORE JUMPDEST SWAP5 POP DUP6 SWAP4 POP PUSH2 0x33D SWAP3 POP POP POP JUMP JUMPDEST POP POP PUSH1 0x40 DUP1 MLOAD DUP1 DUP3 ADD SWAP1 SWAP2 MSTORE PUSH6 0xFFFFFFFFFFFF DUP1 DUP6 AND DUP3 MSTORE PUSH1 0x1 PUSH1 0x1 PUSH1 0xD0 SHL SUB DUP1 DUP6 AND PUSH1 0x20 DUP1 DUP6 ADD SWAP2 DUP3 MSTORE DUP9 SLOAD PUSH1 0x1 DUP2 ADD DUP11 SSTORE PUSH0 DUP11 DUP2 MSTORE SWAP2 DUP3 KECCAK256 SWAP6 MLOAD SWAP3 MLOAD SWAP1 SWAP4 AND PUSH7 0x1000000000000 MUL SWAP2 SWAP1 SWAP4 AND OR SWAP3 ADD SWAP2 SWAP1 SWAP2 SSTORE SWAP1 POP DUP2 PUSH2 0x33D JUMP JUMPDEST PUSH0 PUSH6 0xFFFFFFFFFFFF DUP3 GT ISZERO PUSH2 0x327 JUMPI PUSH1 0x40 MLOAD PUSH4 0x6DFCC65 PUSH1 0xE4 SHL DUP2 MSTORE PUSH1 0x30 PUSH1 0x4 DUP3 ADD MSTORE PUSH1 0x24 DUP2 ADD DUP4 SWAP1 MSTORE PUSH1 0x44 ADD PUSH2 0x1B3 JUMP JUMPDEST PUSH0 PUSH1 0x20 DUP3 DUP5 SUB SLT ISZERO PUSH2 0x535 JUMPI PUSH0 PUSH0 REVERT JUMPDEST DUP2 MLOAD PUSH1 0x1 PUSH1 0x1 PUSH1 0xA0 SHL SUB DUP2 AND DUP2 EQ PUSH2 0x386 JUMPI PUSH0 PUSH0 REVERT JUMPDEST PUSH4 0x4E487B71 PUSH1 0xE0 SHL PUSH0 MSTORE PUSH1 0x41 PUSH1 0x4 MSTORE PUSH1 0x24 PUSH0 REVERT JUMPDEST PUSH1 0x1 DUP2 DUP2 SHR SWAP1 DUP3 AND DUP1 PUSH2 0x573 JUMPI PUSH1 0x7F DUP3 AND SWAP2 POP JUMPDEST PUSH1 0x20 DUP3 LT DUP2 SUB PUSH2 0x591 JUMPI PUSH4 0x4E487B71 PUSH1 0xE0 SHL PUSH0 MSTORE PUSH1 0x22 PUSH1 0x4 MSTORE PUSH1 0x24 PUSH0 REVERT JUMPDEST POP SWAP2 SWAP1 POP JUMP JUMPDEST PUSH1 0x1F DUP3 GT ISZERO PUSH2 0x5DE JUMPI DUP1 PUSH0 MSTORE PUSH1 0x20 PUSH0 KECCAK256 PUSH1 0x1F DUP5 ADD PUSH1 0x5 SHR DUP2 ADD PUSH1 0x20 DUP6 LT ISZERO PUSH2 0x5BC JUMPI POP DUP1 JUMPDEST PUSH1 0x1F DUP5 ADD PUSH1 0x5 SHR DUP3 ADD SWAP2 POP JUMPDEST DUP2 DUP2 LT ISZERO PUSH2 0x5DB JUMPI PUSH0 DUP2 SSTORE PUSH1 0x1 ADD PUSH2 0x5C8 JUMP JUMPDEST POP POP JUMPDEST POP POP POP JUMP JUMPDEST DUP2 MLOAD PUSH1 0x1 PUSH1 0x1 PUSH1 0x40 SHL SUB DUP2 GT ISZERO PUSH2 0x5FC JUMPI PUSH2 0x5FC PUSH2 0x54B JUMP JUMPDEST PUSH2 0x610 DUP2 PUSH2 0x60A DUP5 SLOAD PUSH2 0x55F JUMP JUMPDEST DUP5 PUSH2 0x597 JUMP JUMPDEST PUSH1 0x20 PUSH1 0x1F DUP3 GT PUSH1 0x1 DUP2 EQ PUSH2 0x642 JUMPI PUSH0 DUP4 ISZERO PUSH2 0x62B JUMPI POP DUP5 DUP3 ADD MLOAD JUMPDEST PUSH0 NOT PUSH1 0x3 DUP6 SWAP1 SHL SHR NOT AND PUSH1 0x1 DUP5 SWAP1 SHL OR DUP5 SSTORE PUSH2 0x5DB JUMP JUMPDEST PUSH0 DUP5 DUP2 MSTORE PUSH1 0x20 DUP2 KECCAK256 PUSH1 0x1F NOT DUP6 AND SWAP2 JUMPDEST DUP3 DUP2 LT ISZERO PUSH2 0x671 JUMPI DUP8 DUP6 ADD MLOAD DUP3 SSTORE PUSH1 0x20 SWAP5 DUP6 ADD SWAP5 PUSH1 0x1 SWAP1 SWAP3 ADD SWAP2 ADD PUSH2 0x651 JUMP JUMPDEST POP DUP5 DUP3 LT ISZERO PUSH2 0x68E JUMPI DUP7 DUP5 ADD MLOAD PUSH0 NOT PUSH1 0x3 DUP8 SWAP1 SHL PUSH1 0xF8 AND SHR NOT AND DUP2 SSTORE JUMPDEST POP POP POP POP PUSH1 0x1 SWAP1 DUP2 SHL ADD SWAP1 SSTORE POP JUMP JUMPDEST PUSH1 0x20 DUP2 MSTORE PUSH0 DUP3 MLOAD DUP1 PUSH1 0x20 DUP5 ADD MSTORE DUP1 PUSH1 0x20 DUP6 ADD PUSH1 0x40 DUP6 ADD MCOPY PUSH0 PUSH1 0x40 DUP3 DUP6 ADD ADD MSTORE PUSH1 0x40 PUSH1 0x1F NOT PUSH1 0x1F DUP4 ADD AND DUP5 ADD ADD SWAP2 POP POP SWAP3 SWAP2 POP POP JUMP JUMPDEST DUP1 MLOAD PUSH1 0x20 DUP1 DUP4 ADD MLOAD SWAP2 SWAP1 DUP2 LT ISZERO PUSH2 0x591 JUMPI PUSH0 NOT PUSH1 0x20 SWAP2 SWAP1 SWAP2 SUB PUSH1 0x3 SHL SHL AND SWAP2 SWAP1 POP JUMP JUMPDEST PUSH0 PUSH1 0x20 DUP3 DUP5 SUB SLT ISZERO PUSH2 0x705 JUMPI PUSH0 PUSH0 REVERT JUMPDEST DUP2 MLOAD PUSH6 0xFFFFFFFFFFFF DUP2 AND DUP2 EQ PUSH2 0x386 JUMPI PUSH0 PUSH0 REVERT JUMPDEST DUP2 DUP2 SUB DUP2 DUP2 GT ISZERO PUSH2 0x184 JUMPI PUSH4 0x4E487B71 PUSH1 0xE0 SHL PUSH0 MSTORE PUSH1 0x11 PUSH1 0x4 MSTORE PUSH1 0x24 PUSH0 REVERT JUMPDEST PUSH1 0x80 MLOAD PUSH1 0xA0 MLOAD PUSH1 0xC0 MLOAD PUSH1 0xE0 MLOAD PUSH2 0x100 MLOAD PUSH2 0x120 MLOAD PUSH2 0x140 MLOAD PUSH2 0x160 MLOAD PUSH2 0x393C PUSH2 0x7B0 PUSH0 CODECOPY PUSH0 DUP2 DUP2 PUSH2 0x8B2 ADD MSTORE DUP2 DUP2 PUSH2 0xD11 ADD MSTORE DUP2 DUP2 PUSH2 0x116F ADD MSTORE DUP2 DUP2 PUSH2 0x1377 ADD MSTORE PUSH2 0x1C4C ADD MSTORE PUSH0 PUSH2 0x1C19 ADD MSTORE PUSH0 PUSH2 0x1BED ADD MSTORE PUSH0 PUSH2 0x1F9A ADD MSTORE PUSH0 PUSH2 0x1F72 ADD MSTORE PUSH0 PUSH2 0x1ECD ADD MSTORE PUSH0 PUSH2 0x1EF7 ADD MSTORE PUSH0 PUSH2 0x1F21 ADD MSTORE PUSH2 0x393C PUSH0 RETURN INVALID PUSH1 0x80 PUSH1 0x40 MSTORE PUSH1 0x4 CALLDATASIZE LT PUSH2 0x262 JUMPI PUSH0 CALLDATALOAD PUSH1 0xE0 SHR DUP1 PUSH4 0x7D5E81E2 GT PUSH2 0x13F JUMPI DUP1 PUSH4 0xB58131B0 GT PUSH2 0xB3 JUMPI DUP1 PUSH4 0xDD4E2BA5 GT PUSH2 0x78 JUMPI DUP1 PUSH4 0xDD4E2BA5 EQ PUSH2 0x7C3 JUMPI DUP1 PUSH4 0xDEAAA7CC EQ PUSH2 0x808 JUMPI DUP1 PUSH4 0xEB9019D4 EQ PUSH2 0x83B JUMPI DUP1 PUSH4 0xF23A6E61 EQ PUSH2 0x85A JUMPI DUP1 PUSH4 0xF8CE560A EQ PUSH2 0x885 JUMPI DUP1 PUSH4 0xFC0C546A EQ PUSH2 0x8A4 JUMPI PUSH0 PUSH0 REVERT JUMPDEST DUP1 PUSH4 0xB58131B0 EQ PUSH2 0x735 JUMPI DUP1 PUSH4 0xBC197C81 EQ PUSH2 0x747 JUMPI DUP1 PUSH4 0xC01F9E37 EQ PUSH2 0x772 JUMPI DUP1 PUSH4 0xC28BC2FA EQ PUSH2 0x791 JUMPI DUP1 PUSH4 0xC59057E4 EQ PUSH2 0x7A4 JUMPI PUSH0 PUSH0 REVERT JUMPDEST DUP1 PUSH4 0x97C3D334 GT PUSH2 0x104 JUMPI DUP1 PUSH4 0x97C3D334 EQ PUSH2 0x67B JUMPI DUP1 PUSH4 0x9A802A6D EQ PUSH2 0x68E JUMPI DUP1 PUSH4 0xA7713A70 EQ PUSH2 0x6AD JUMPI DUP1 PUSH4 0xA8F8A668 EQ PUSH2 0x6C1 JUMPI DUP1 PUSH4 0xA9A95294 EQ PUSH2 0x6E0 JUMPI DUP1 PUSH4 0xAB58FB8E EQ PUSH2 0x6FF JUMPI PUSH0 PUSH0 REVERT JUMPDEST DUP1 PUSH4 0x7D5E81E2 EQ PUSH2 0x5B7 JUMPI DUP1 PUSH4 0x7ECEBE00 EQ PUSH2 0x5D6 JUMPI DUP1 PUSH4 0x84B0196E EQ PUSH2 0x60A JUMPI DUP1 PUSH4 0x8FF262E3 EQ PUSH2 0x631 JUMPI DUP1 PUSH4 0x91DDADF4 EQ PUSH2 0x650 JUMPI PUSH0 PUSH0 REVERT JUMPDEST DUP1 PUSH4 0x3E4F49E6 GT PUSH2 0x1D6 JUMPI DUP1 PUSH4 0x54FD4D50 GT PUSH2 0x19B JUMPI DUP1 PUSH4 0x54FD4D50 EQ PUSH2 0x4F3 JUMPI DUP1 PUSH4 0x56781388 EQ PUSH2 0x51C JUMPI DUP1 PUSH4 0x5B8D0E0D EQ PUSH2 0x53B JUMPI DUP1 PUSH4 0x5F398A14 EQ PUSH2 0x55A JUMPI DUP1 PUSH4 0x60C4247F EQ PUSH2 0x579 JUMPI DUP1 PUSH4 0x7B3C71D3 EQ PUSH2 0x598 JUMPI PUSH0 PUSH0 REVERT JUMPDEST DUP1 PUSH4 0x3E4F49E6 EQ PUSH2 0x412 JUMPI DUP1 PUSH4 0x43859632 EQ PUSH2 0x43E JUMPI DUP1 PUSH4 0x452115D6 EQ PUSH2 0x486 JUMPI DUP1 PUSH4 0x4BF5D7E9 EQ PUSH2 0x4A5 JUMPI DUP1 PUSH4 0x544FFC9C EQ PUSH2 0x4B9 JUMPI PUSH0 PUSH0 REVERT JUMPDEST DUP1 PUSH4 0x150B7A02 GT PUSH2 0x227 JUMPI DUP1 PUSH4 0x150B7A02 EQ PUSH2 0x34B JUMPI DUP1 PUSH4 0x160CBED7 EQ PUSH2 0x38E JUMPI DUP1 PUSH4 0x2656227D EQ PUSH2 0x3AD JUMPI DUP1 PUSH4 0x2D63F693 EQ PUSH2 0x3C0 JUMPI DUP1 PUSH4 0x2FE3E261 EQ PUSH2 0x3DF JUMPI DUP1 PUSH4 0x3932ABB1 EQ PUSH2 0x2A2 JUMPI PUSH0 PUSH0 REVERT JUMPDEST DUP1 PUSH4 0x1FFC9A7 EQ PUSH2 0x26E JUMPI DUP1 PUSH4 0x2A251A3 EQ PUSH2 0x2A2 JUMPI DUP1 PUSH4 0x6F3F9E6 EQ PUSH2 0x2BF JUMPI DUP1 PUSH4 0x6FDDE03 EQ PUSH2 0x2DE JUMPI DUP1 PUSH4 0x143489D0 EQ PUSH2 0x2FF JUMPI PUSH0 PUSH0 REVERT JUMPDEST CALLDATASIZE PUSH2 0x26A JUMPI JUMPDEST STOP JUMPDEST PUSH0 PUSH0 REVERT JUMPDEST CALLVALUE DUP1 ISZERO PUSH2 0x279 JUMPI PUSH0 PUSH0 REVERT JUMPDEST POP PUSH2 0x28D PUSH2 0x288 CALLDATASIZE PUSH1 0x4 PUSH2 0x2A62 JUMP JUMPDEST PUSH2 0x8D6 JUMP JUMPDEST PUSH1 0x40 MLOAD SWAP1 ISZERO ISZERO DUP2 MSTORE PUSH1 0x20 ADD JUMPDEST PUSH1 0x40 MLOAD DUP1 SWAP2 SUB SWAP1 RETURN JUMPDEST CALLVALUE DUP1 ISZERO PUSH2 0x2AD JUMPI PUSH0 PUSH0 REVERT JUMPDEST POP PUSH1 0x2 JUMPDEST PUSH1 0x40 MLOAD SWAP1 DUP2 MSTORE PUSH1 0x20 ADD PUSH2 0x299 JUMP JUMPDEST CALLVALUE DUP1 ISZERO PUSH2 0x2CA JUMPI PUSH0 PUSH0 REVERT JUMPDEST POP PUSH2 0x268 PUSH2 0x2D9 CALLDATASIZE PUSH1 0x4 PUSH2 0x2A89 JUMP JUMPDEST PUSH2 0x942 JUMP JUMPDEST CALLVALUE DUP1 ISZERO PUSH2 0x2E9 JUMPI PUSH0 PUSH0 REVERT JUMPDEST POP PUSH2 0x2F2 PUSH2 0x956 JUMP JUMPDEST PUSH1 0x40 MLOAD PUSH2 0x299 SWAP2 SWAP1 PUSH2 0x2ACE JUMP JUMPDEST CALLVALUE DUP1 ISZERO PUSH2 0x30A JUMPI PUSH0 PUSH0 REVERT JUMPDEST POP PUSH2 0x333 PUSH2 0x319 CALLDATASIZE PUSH1 0x4 PUSH2 0x2A89 JUMP JUMPDEST PUSH0 SWAP1 DUP2 MSTORE PUSH1 0x4 PUSH1 0x20 MSTORE PUSH1 0x40 SWAP1 KECCAK256 SLOAD PUSH1 0x1 PUSH1 0x1 PUSH1 0xA0 SHL SUB AND SWAP1 JUMP JUMPDEST PUSH1 0x40 MLOAD PUSH1 0x1 PUSH1 0x1 PUSH1 0xA0 SHL SUB SWAP1 SWAP2 AND DUP2 MSTORE PUSH1 0x20 ADD PUSH2 0x299 JUMP JUMPDEST CALLVALUE DUP1 ISZERO PUSH2 0x356 JUMPI PUSH0 PUSH0 REVERT JUMPDEST POP PUSH2 0x375 PUSH2 0x365 CALLDATASIZE PUSH1 0x4 PUSH2 0x2BB9 JUMP JUMPDEST PUSH4 0xA85BD01 PUSH1 0xE1 SHL SWAP5 SWAP4 POP POP POP POP JUMP JUMPDEST PUSH1 0x40 MLOAD PUSH1 0x1 PUSH1 0x1 PUSH1 0xE0 SHL SUB NOT SWAP1 SWAP2 AND DUP2 MSTORE PUSH1 0x20 ADD PUSH2 0x299 JUMP JUMPDEST CALLVALUE DUP1 ISZERO PUSH2 0x399 JUMPI PUSH0 PUSH0 REVERT JUMPDEST POP PUSH2 0x2B1 PUSH2 0x3A8 CALLDATASIZE PUSH1 0x4 PUSH2 0x2D79 JUMP JUMPDEST PUSH2 0x9E6 JUMP JUMPDEST PUSH2 0x2B1 PUSH2 0x3BB CALLDATASIZE PUSH1 0x4 PUSH2 0x2D79 JUMP JUMPDEST PUSH2 0xA2E JUMP JUMPDEST CALLVALUE DUP1 ISZERO PUSH2 0x3CB JUMPI PUSH0 PUSH0 REVERT JUMPDEST POP PUSH2 0x2B1 PUSH2 0x3DA CALLDATASIZE PUSH1 0x4 PUSH2 0x2A89 JUMP JUMPDEST PUSH2 0xB56 JUMP JUMPDEST CALLVALUE DUP1 ISZERO PUSH2 0x3EA JUMPI PUSH0 PUSH0 REVERT JUMPDEST POP PUSH2 0x2B1 PUSH32 0x3E83946653575F9A39005E1545185629E92736B7528AB20CA3816F315424A811 DUP2 JUMP JUMPDEST CALLVALUE DUP1 ISZERO PUSH2 0x41D JUMPI PUSH0 PUSH0 REVERT JUMPDEST POP PUSH2 0x431 PUSH2 0x42C CALLDATASIZE PUSH1 0x4 PUSH2 0x2A89 JUMP JUMPDEST PUSH2 0xB76 JUMP JUMPDEST PUSH1 0x40 MLOAD PUSH2 0x299 SWAP2 SWAP1 PUSH2 0x2E40 JUMP JUMPDEST CALLVALUE DUP1 ISZERO PUSH2 0x449 JUMPI PUSH0 PUSH0 REVERT JUMPDEST POP PUSH2 0x28D PUSH2 0x458 CALLDATASIZE PUSH1 0x4 PUSH2 0x2E4E JUMP JUMPDEST PUSH0 DUP3 DUP2 MSTORE PUSH1 0x7 PUSH1 0x20 SWAP1 DUP2 MSTORE PUSH1 0x40 DUP1 DUP4 KECCAK256 PUSH1 0x1 PUSH1 0x1 PUSH1 0xA0 SHL SUB DUP6 AND DUP5 MSTORE PUSH1 0x3 ADD SWAP1 SWAP2 MSTORE SWAP1 KECCAK256 SLOAD PUSH1 0xFF AND SWAP3 SWAP2 POP POP JUMP JUMPDEST CALLVALUE DUP1 ISZERO PUSH2 0x491 JUMPI PUSH0 PUSH0 REVERT JUMPDEST POP PUSH2 0x2B1 PUSH2 0x4A0 CALLDATASIZE PUSH1 0x4 PUSH2 0x2D79 JUMP JUMPDEST PUSH2 0xCAC JUMP JUMPDEST CALLVALUE DUP1 ISZERO PUSH2 0x4B0 JUMPI PUSH0 PUSH0 REVERT JUMPDEST POP PUSH2 0x2F2 PUSH2 0xD0D JUMP JUMPDEST CALLVALUE DUP1 ISZERO PUSH2 0x4C4 JUMPI PUSH0 PUSH0 REVERT JUMPDEST POP PUSH2 0x4D8 PUSH2 0x4D3 CALLDATASIZE PUSH1 0x4 PUSH2 0x2A89 JUMP JUMPDEST PUSH2 0xDCD JUMP JUMPDEST PUSH1 0x40 DUP1 MLOAD SWAP4 DUP5 MSTORE PUSH1 0x20 DUP5 ADD SWAP3 SWAP1 SWAP3 MSTORE SWAP1 DUP3 ADD MSTORE PUSH1 0x60 ADD PUSH2 0x299 JUMP JUMPDEST CALLVALUE DUP1 ISZERO PUSH2 0x4FE JUMPI PUSH0 PUSH0 REVERT JUMPDEST POP PUSH1 0x40 DUP1 MLOAD DUP1 DUP3 ADD SWAP1 SWAP2 MSTORE PUSH1 0x1 DUP2 MSTORE PUSH1 0x31 PUSH1 0xF8 SHL PUSH1 0x20 DUP3 ADD MSTORE PUSH2 0x2F2 JUMP JUMPDEST CALLVALUE DUP1 ISZERO PUSH2 0x527 JUMPI PUSH0 PUSH0 REVERT JUMPDEST POP PUSH2 0x2B1 PUSH2 0x536 CALLDATASIZE PUSH1 0x4 PUSH2 0x2E88 JUMP JUMPDEST PUSH2 0xDF2 JUMP JUMPDEST CALLVALUE DUP1 ISZERO PUSH2 0x546 JUMPI PUSH0 PUSH0 REVERT JUMPDEST POP PUSH2 0x2B1 PUSH2 0x555 CALLDATASIZE PUSH1 0x4 PUSH2 0x2EED JUMP JUMPDEST PUSH2 0xE19 JUMP JUMPDEST CALLVALUE DUP1 ISZERO PUSH2 0x565 JUMPI PUSH0 PUSH0 REVERT JUMPDEST POP PUSH2 0x2B1 PUSH2 0x574 CALLDATASIZE PUSH1 0x4 PUSH2 0x2FA7 JUMP JUMPDEST PUSH2 0xF75 JUMP JUMPDEST CALLVALUE DUP1 ISZERO PUSH2 0x584 JUMPI PUSH0 PUSH0 REVERT JUMPDEST POP PUSH2 0x2B1 PUSH2 0x593 CALLDATASIZE PUSH1 0x4 PUSH2 0x2A89 JUMP JUMPDEST PUSH2 0xFBD JUMP JUMPDEST CALLVALUE DUP1 ISZERO PUSH2 0x5A3 JUMPI PUSH0 PUSH0 REVERT JUMPDEST POP PUSH2 0x2B1 PUSH2 0x5B2 CALLDATASIZE PUSH1 0x4 PUSH2 0x3028 JUMP JUMPDEST PUSH2 0xFC9 JUMP JUMPDEST CALLVALUE DUP1 ISZERO PUSH2 0x5C2 JUMPI PUSH0 PUSH0 REVERT JUMPDEST POP PUSH2 0x2B1 PUSH2 0x5D1 CALLDATASIZE PUSH1 0x4 PUSH2 0x307D JUMP JUMPDEST PUSH2 0x1019 JUMP JUMPDEST CALLVALUE DUP1 ISZERO PUSH2 0x5E1 JUMPI PUSH0 PUSH0 REVERT JUMPDEST POP PUSH2 0x2B1 PUSH2 0x5F0 CALLDATASIZE PUSH1 0x4 PUSH2 0x3139 JUMP JUMPDEST PUSH1 0x1 PUSH1 0x1 PUSH1 0xA0 SHL SUB AND PUSH0 SWAP1 DUP2 MSTORE PUSH1 0x2 PUSH1 0x20 MSTORE PUSH1 0x40 SWAP1 KECCAK256 SLOAD SWAP1 JUMP JUMPDEST CALLVALUE DUP1 ISZERO PUSH2 0x615 JUMPI PUSH0 PUSH0 REVERT JUMPDEST POP PUSH2 0x61E PUSH2 0x105B JUMP JUMPDEST PUSH1 0x40 MLOAD PUSH2 0x299 SWAP8 SWAP7 SWAP6 SWAP5 SWAP4 SWAP3 SWAP2 SWAP1 PUSH2 0x318C JUMP JUMPDEST CALLVALUE DUP1 ISZERO PUSH2 0x63C JUMPI PUSH0 PUSH0 REVERT JUMPDEST POP PUSH2 0x2B1 PUSH2 0x64B CALLDATASIZE PUSH1 0x4 PUSH2 0x31FB JUMP JUMPDEST PUSH2 0x109D JUMP JUMPDEST CALLVALUE DUP1 ISZERO PUSH2 0x65B JUMPI PUSH0 PUSH0 REVERT JUMPDEST POP PUSH2 0x664 PUSH2 0x116C JUMP JUMPDEST PUSH1 0x40 MLOAD PUSH6 0xFFFFFFFFFFFF SWAP1 SWAP2 AND DUP2 MSTORE PUSH1 0x20 ADD PUSH2 0x299 JUMP JUMPDEST CALLVALUE DUP1 ISZERO PUSH2 0x686 JUMPI PUSH0 PUSH0 REVERT JUMPDEST POP PUSH1 0x64 PUSH2 0x2B1 JUMP JUMPDEST CALLVALUE DUP1 ISZERO PUSH2 0x699 JUMPI PUSH0 PUSH0 REVERT JUMPDEST POP PUSH2 0x2B1 PUSH2 0x6A8 CALLDATASIZE PUSH1 0x4 PUSH2 0x3246 JUMP JUMPDEST PUSH2 0x11F8 JUMP JUMPDEST CALLVALUE DUP1 ISZERO PUSH2 0x6B8 JUMPI PUSH0 PUSH0 REVERT JUMPDEST POP PUSH2 0x2B1 PUSH2 0x120E JUMP JUMPDEST CALLVALUE DUP1 ISZERO PUSH2 0x6CC JUMPI PUSH0 PUSH0 REVERT JUMPDEST POP PUSH2 0x2B1 PUSH2 0x6DB CALLDATASIZE PUSH1 0x4 PUSH2 0x2D79 JUMP JUMPDEST PUSH2 0x1227 JUMP JUMPDEST CALLVALUE DUP1 ISZERO PUSH2 0x6EB JUMPI PUSH0 PUSH0 REVERT JUMPDEST POP PUSH2 0x28D PUSH2 0x6FA CALLDATASIZE PUSH1 0x4 PUSH2 0x2A89 JUMP JUMPDEST POP PUSH0 SWAP1 JUMP JUMPDEST CALLVALUE DUP1 ISZERO PUSH2 0x70A JUMPI PUSH0 PUSH0 REVERT JUMPDEST POP PUSH2 0x2B1 PUSH2 0x719 CALLDATASIZE PUSH1 0x4 PUSH2 0x2A89 JUMP JUMPDEST PUSH0 SWAP1 DUP2 MSTORE PUSH1 0x4 PUSH1 0x20 MSTORE PUSH1 0x40 SWAP1 KECCAK256 PUSH1 0x1 ADD SLOAD PUSH6 0xFFFFFFFFFFFF AND SWAP1 JUMP JUMPDEST CALLVALUE DUP1 ISZERO PUSH2 0x740 JUMPI PUSH0 PUSH0 REVERT JUMPDEST POP PUSH0 PUSH2 0x2B1 JUMP JUMPDEST CALLVALUE DUP1 ISZERO PUSH2 0x752 JUMPI PUSH0 PUSH0 REVERT JUMPDEST POP PUSH2 0x375 PUSH2 0x761 CALLDATASIZE PUSH1 0x4 PUSH2 0x3298 JUMP JUMPDEST PUSH4 0xBC197C81 PUSH1 0xE0 SHL SWAP6 SWAP5 POP POP POP POP POP JUMP JUMPDEST CALLVALUE DUP1 ISZERO PUSH2 0x77D JUMPI PUSH0 PUSH0 REVERT JUMPDEST POP PUSH2 0x2B1 PUSH2 0x78C CALLDATASIZE PUSH1 0x4 PUSH2 0x2A89 JUMP JUMPDEST PUSH2 0x123D JUMP JUMPDEST PUSH2 0x268 PUSH2 0x79F CALLDATASIZE PUSH1 0x4 PUSH2 0x332B JUMP JUMPDEST PUSH2 0x127F JUMP JUMPDEST CALLVALUE DUP1 ISZERO PUSH2 0x7AF JUMPI PUSH0 PUSH0 REVERT JUMPDEST POP PUSH2 0x2B1 PUSH2 0x7BE CALLDATASIZE PUSH1 0x4 PUSH2 0x2D79 JUMP JUMPDEST PUSH2 0x12FB JUMP JUMPDEST CALLVALUE DUP1 ISZERO PUSH2 0x7CE JUMPI PUSH0 PUSH0 REVERT JUMPDEST POP PUSH1 0x40 DUP1 MLOAD DUP1 DUP3 ADD SWAP1 SWAP2 MSTORE PUSH1 0x20 DUP1 DUP3 MSTORE PUSH32 0x737570706F72743D627261766F2671756F72756D3D666F722C6162737461696E SWAP1 DUP3 ADD MSTORE PUSH2 0x2F2 JUMP JUMPDEST CALLVALUE DUP1 ISZERO PUSH2 0x813 JUMPI PUSH0 PUSH0 REVERT JUMPDEST POP PUSH2 0x2B1 PUSH32 0xF2AAD550CF55F045CB27E9C559F9889FDFB6E6CDAA032301D6EA397784AE51D7 DUP2 JUMP JUMPDEST CALLVALUE DUP1 ISZERO PUSH2 0x846 JUMPI PUSH0 PUSH0 REVERT JUMPDEST POP PUSH2 0x2B1 PUSH2 0x855 CALLDATASIZE PUSH1 0x4 PUSH2 0x3368 JUMP JUMPDEST PUSH2 0x1334 JUMP JUMPDEST CALLVALUE DUP1 ISZERO PUSH2 0x865 JUMPI PUSH0 PUSH0 REVERT JUMPDEST POP PUSH2 0x375 PUSH2 0x874 CALLDATASIZE PUSH1 0x4 PUSH2 0x3390 JUMP JUMPDEST PUSH4 0xF23A6E61 PUSH1 0xE0 SHL SWAP6 SWAP5 POP POP POP POP POP JUMP JUMPDEST CALLVALUE DUP1 ISZERO PUSH2 0x890 JUMPI PUSH0 PUSH0 REVERT JUMPDEST POP PUSH2 0x2B1 PUSH2 0x89F CALLDATASIZE PUSH1 0x4 PUSH2 0x2A89 JUMP JUMPDEST PUSH2 0x1353 JUMP JUMPDEST CALLVALUE DUP1 ISZERO PUSH2 0x8AF JUMPI PUSH0 PUSH0 REVERT JUMPDEST POP PUSH32 0x0 PUSH2 0x333 JUMP JUMPDEST PUSH0 PUSH1 0x1 PUSH1 0x1 PUSH1 0xE0 SHL SUB NOT DUP3 AND PUSH4 0x66DEFE77 PUSH1 0xE1 SHL EQ DUP1 PUSH2 0x906 JUMPI POP PUSH1 0x1 PUSH1 0x1 PUSH1 0xE0 SHL SUB NOT DUP3 AND PUSH4 0x32A2AD43 PUSH1 0xE1 SHL EQ JUMPDEST DUP1 PUSH2 0x921 JUMPI POP PUSH1 0x1 PUSH1 0x1 PUSH1 0xE0 SHL SUB NOT DUP3 AND PUSH4 0x2711897 PUSH1 0xE5 SHL EQ JUMPDEST DUP1 PUSH2 0x93C JUMPI POP PUSH4 0x1FFC9A7 PUSH1 0xE0 SHL PUSH1 0x1 PUSH1 0x1 PUSH1 0xE0 SHL SUB NOT DUP4 AND EQ JUMPDEST SWAP3 SWAP2 POP POP JUMP JUMPDEST PUSH2 0x94A PUSH2 0x13F0 JUMP JUMPDEST PUSH2 0x953 DUP2 PUSH2 0x1427 JUMP JUMPDEST POP JUMP JUMPDEST PUSH1 0x60 PUSH1 0x3 DUP1 SLOAD PUSH2 0x965 SWAP1 PUSH2 0x33E3 JUMP JUMPDEST DUP1 PUSH1 0x1F ADD PUSH1 0x20 DUP1 SWAP2 DIV MUL PUSH1 0x20 ADD PUSH1 0x40 MLOAD SWAP1 DUP2 ADD PUSH1 0x40 MSTORE DUP1 SWAP3 SWAP2 SWAP1 DUP2 DUP2 MSTORE PUSH1 0x20 ADD DUP3 DUP1 SLOAD PUSH2 0x991 SWAP1 PUSH2 0x33E3 JUMP JUMPDEST DUP1 ISZERO PUSH2 0x9DC JUMPI DUP1 PUSH1 0x1F LT PUSH2 0x9B3 JUMPI PUSH2 0x100 DUP1 DUP4 SLOAD DIV MUL DUP4 MSTORE SWAP2 PUSH1 0x20 ADD SWAP2 PUSH2 0x9DC JUMP JUMPDEST DUP3 ADD SWAP2 SWAP1 PUSH0 MSTORE PUSH1 0x20 PUSH0 KECCAK256 SWAP1 JUMPDEST DUP2 SLOAD DUP2 MSTORE SWAP1 PUSH1 0x1 ADD SWAP1 PUSH1 0x20 ADD DUP1 DUP4 GT PUSH2 0x9BF JUMPI DUP3 SWAP1 SUB PUSH1 0x1F AND DUP3 ADD SWAP2 JUMPDEST POP POP POP POP POP SWAP1 POP SWAP1 JUMP JUMPDEST PUSH0 PUSH0 PUSH2 0x9F4 DUP7 DUP7 DUP7 DUP7 PUSH2 0x1227 JUMP JUMPDEST SWAP1 POP PUSH2 0xA09 DUP2 PUSH2 0xA04 PUSH1 0x4 PUSH2 0x14BC JUMP JUMPDEST PUSH2 0x14DE JUMP JUMPDEST POP PUSH0 PUSH1 0x40 MLOAD PUSH4 0x48442523 PUSH1 0xE1 SHL DUP2 MSTORE PUSH1 0x4 ADD PUSH1 0x40 MLOAD DUP1 SWAP2 SUB SWAP1 REVERT JUMPDEST POP SWAP6 SWAP5 POP POP POP POP POP JUMP JUMPDEST PUSH0 PUSH0 PUSH2 0xA3C DUP7 DUP7 DUP7 DUP7 PUSH2 0x1227 JUMP JUMPDEST SWAP1 POP PUSH2 0xA5C DUP2 PUSH2 0xA4C PUSH1 0x5 PUSH2 0x14BC JUMP JUMPDEST PUSH2 0xA56 PUSH1 0x4 PUSH2 0x14BC JUMP JUMPDEST OR PUSH2 0x14DE JUMP JUMPDEST POP PUSH0 DUP2 DUP2 MSTORE PUSH1 0x4 PUSH1 0x20 MSTORE PUSH1 0x40 SWAP1 KECCAK256 DUP1 SLOAD PUSH1 0xFF PUSH1 0xF0 SHL NOT AND PUSH1 0x1 PUSH1 0xF0 SHL OR SWAP1 SSTORE ADDRESS PUSH2 0xA83 ADDRESS SWAP1 JUMP JUMPDEST PUSH1 0x1 PUSH1 0x1 PUSH1 0xA0 SHL SUB AND EQ PUSH2 0xB0C JUMPI PUSH0 JUMPDEST DUP7 MLOAD DUP2 LT ISZERO PUSH2 0xB0A JUMPI ADDRESS PUSH1 0x1 PUSH1 0x1 PUSH1 0xA0 SHL SUB AND DUP8 DUP3 DUP2 MLOAD DUP2 LT PUSH2 0xAB8 JUMPI PUSH2 0xAB8 PUSH2 0x341B JUMP JUMPDEST PUSH1 0x20 MUL PUSH1 0x20 ADD ADD MLOAD PUSH1 0x1 PUSH1 0x1 PUSH1 0xA0 SHL SUB AND SUB PUSH2 0xB02 JUMPI PUSH2 0xB02 DUP6 DUP3 DUP2 MLOAD DUP2 LT PUSH2 0xAE3 JUMPI PUSH2 0xAE3 PUSH2 0x341B JUMP JUMPDEST PUSH1 0x20 MUL PUSH1 0x20 ADD ADD MLOAD DUP1 MLOAD SWAP1 PUSH1 0x20 ADD KECCAK256 PUSH1 0x5 PUSH2 0x151B SWAP1 SWAP2 SWAP1 PUSH4 0xFFFFFFFF AND JUMP JUMPDEST PUSH1 0x1 ADD PUSH2 0xA93 JUMP JUMPDEST POP JUMPDEST PUSH2 0xB19 DUP2 DUP8 DUP8 DUP8 DUP8 PUSH2 0x157C JUMP JUMPDEST PUSH1 0x40 MLOAD DUP2 DUP2 MSTORE PUSH32 0x712AE1383F79AC853F8D882153778E0260EF8F03B504E2866E0593E04D2B291F SWAP1 PUSH1 0x20 ADD JUMPDEST PUSH1 0x40 MLOAD DUP1 SWAP2 SUB SWAP1 LOG1 SWAP6 SWAP5 POP POP POP POP POP JUMP JUMPDEST PUSH0 SWAP1 DUP2 MSTORE PUSH1 0x4 PUSH1 0x20 MSTORE PUSH1 0x40 SWAP1 KECCAK256 SLOAD PUSH1 0x1 PUSH1 0xA0 SHL SWAP1 DIV PUSH6 0xFFFFFFFFFFFF AND SWAP1 JUMP JUMPDEST PUSH0 DUP2 DUP2 MSTORE PUSH1 0x4 PUSH1 0x20 MSTORE PUSH1 0x40 DUP2 KECCAK256 DUP1 SLOAD PUSH1 0xFF PUSH1 0x1 PUSH1 0xF0 SHL DUP3 DIV DUP2 AND SWAP2 PUSH1 0x1 PUSH1 0xF8 SHL SWAP1 DIV AND DUP2 ISZERO PUSH2 0xBAA JUMPI POP PUSH1 0x7 SWAP5 SWAP4 POP POP POP POP JUMP JUMPDEST DUP1 ISZERO PUSH2 0xBBB JUMPI POP PUSH1 0x2 SWAP5 SWAP4 POP POP POP POP JUMP JUMPDEST PUSH0 PUSH2 0xBC5 DUP7 PUSH2 0xB56 JUMP JUMPDEST SWAP1 POP DUP1 PUSH0 SUB PUSH2 0xBEF JUMPI PUSH1 0x40 MLOAD PUSH4 0x6AD06075 PUSH1 0xE0 SHL DUP2 MSTORE PUSH1 0x4 DUP2 ADD DUP8 SWAP1 MSTORE PUSH1 0x24 ADD JUMPDEST PUSH1 0x40 MLOAD DUP1 SWAP2 SUB SWAP1 REVERT JUMPDEST PUSH0 PUSH2 0xBF8 PUSH2 0x116C JUMP JUMPDEST PUSH6 0xFFFFFFFFFFFF AND SWAP1 POP DUP1 DUP3 LT PUSH2 0xC15 JUMPI POP PUSH0 SWAP7 SWAP6 POP POP POP POP POP POP JUMP JUMPDEST PUSH0 PUSH2 0xC1F DUP9 PUSH2 0x123D JUMP JUMPDEST SWAP1 POP DUP2 DUP2 LT PUSH2 0xC36 JUMPI POP PUSH1 0x1 SWAP8 SWAP7 POP POP POP POP POP POP POP JUMP JUMPDEST PUSH2 0xC3F DUP9 PUSH2 0x1651 JUMP JUMPDEST ISZERO DUP1 PUSH2 0xC5E JUMPI POP PUSH0 DUP9 DUP2 MSTORE PUSH1 0x7 PUSH1 0x20 MSTORE PUSH1 0x40 SWAP1 KECCAK256 DUP1 SLOAD PUSH1 0x1 SWAP1 SWAP2 ADD SLOAD GT ISZERO JUMPDEST ISZERO PUSH2 0xC71 JUMPI POP PUSH1 0x3 SWAP8 SWAP7 POP POP POP POP POP POP POP JUMP JUMPDEST PUSH0 DUP9 DUP2 MSTORE PUSH1 0x4 PUSH1 0x20 MSTORE PUSH1 0x40 SWAP1 KECCAK256 PUSH1 0x1 ADD SLOAD PUSH6 0xFFFFFFFFFFFF AND PUSH0 SUB PUSH2 0xC9E JUMPI POP PUSH1 0x4 SWAP8 SWAP7 POP POP POP POP POP POP POP JUMP JUMPDEST POP PUSH1 0x5 SWAP8 SWAP7 POP POP POP POP POP POP POP JUMP JUMPDEST PUSH0 PUSH0 PUSH2 0xCBA DUP7 DUP7 DUP7 DUP7 PUSH2 0x1227 JUMP JUMPDEST SWAP1 POP CALLER PUSH2 0xCC7 DUP3 DUP3 PUSH2 0x1687 JUMP JUMPDEST PUSH2 0xCF6 JUMPI PUSH1 0x40 MLOAD PUSH4 0x8FE5D8A9 PUSH1 0xE0 SHL DUP2 MSTORE PUSH1 0x4 DUP2 ADD DUP4 SWAP1 MSTORE PUSH1 0x1 PUSH1 0x1 PUSH1 0xA0 SHL SUB DUP3 AND PUSH1 0x24 DUP3 ADD MSTORE PUSH1 0x44 ADD PUSH2 0xBE6 JUMP JUMPDEST PUSH2 0xD02 DUP8 DUP8 DUP8 DUP8 PUSH2 0x16CC JUMP JUMPDEST SWAP8 SWAP7 POP POP POP POP POP POP POP JUMP JUMPDEST PUSH1 0x60 PUSH32 0x0 PUSH1 0x1 PUSH1 0x1 PUSH1 0xA0 SHL SUB AND PUSH4 0x4BF5D7E9 PUSH1 0x40 MLOAD DUP2 PUSH4 0xFFFFFFFF AND PUSH1 0xE0 SHL DUP2 MSTORE PUSH1 0x4 ADD PUSH0 PUSH1 0x40 MLOAD DUP1 DUP4 SUB DUP2 DUP7 GAS STATICCALL SWAP3 POP POP POP DUP1 ISZERO PUSH2 0xD8C JUMPI POP PUSH1 0x40 MLOAD RETURNDATASIZE PUSH0 DUP3 RETURNDATACOPY PUSH1 0x1F RETURNDATASIZE SWAP1 DUP2 ADD PUSH1 0x1F NOT AND DUP3 ADD PUSH1 0x40 MSTORE PUSH2 0xD89 SWAP2 SWAP1 DUP2 ADD SWAP1 PUSH2 0x342F JUMP JUMPDEST PUSH1 0x1 JUMPDEST PUSH2 0xDC8 JUMPI POP PUSH1 0x40 DUP1 MLOAD DUP1 DUP3 ADD SWAP1 SWAP2 MSTORE PUSH1 0x1D DUP2 MSTORE PUSH32 0x6D6F64653D626C6F636B6E756D6265722666726F6D3D64656661756C74000000 PUSH1 0x20 DUP3 ADD MSTORE SWAP1 JUMP JUMPDEST SWAP2 SWAP1 POP JUMP JUMPDEST PUSH0 DUP2 DUP2 MSTORE PUSH1 0x7 PUSH1 0x20 MSTORE PUSH1 0x40 SWAP1 KECCAK256 DUP1 SLOAD PUSH1 0x1 DUP3 ADD SLOAD PUSH1 0x2 SWAP1 SWAP3 ADD SLOAD SWAP1 SWAP2 SWAP1 JUMPDEST SWAP2 SWAP4 SWAP1 SWAP3 POP JUMP JUMPDEST PUSH0 DUP1 CALLER SWAP1 POP PUSH2 0xE11 DUP5 DUP3 DUP6 PUSH1 0x40 MLOAD DUP1 PUSH1 0x20 ADD PUSH1 0x40 MSTORE DUP1 PUSH0 DUP2 MSTORE POP PUSH2 0x177B JUMP JUMPDEST SWAP5 SWAP4 POP POP POP POP JUMP JUMPDEST PUSH0 PUSH0 PUSH2 0xEFA DUP8 PUSH2 0xEF4 PUSH32 0x3E83946653575F9A39005E1545185629E92736B7528AB20CA3816F315424A811 DUP13 DUP13 DUP13 PUSH2 0xE6C DUP15 PUSH1 0x1 PUSH1 0x1 PUSH1 0xA0 SHL SUB AND PUSH0 SWAP1 DUP2 MSTORE PUSH1 0x2 PUSH1 0x20 MSTORE PUSH1 0x40 SWAP1 KECCAK256 DUP1 SLOAD PUSH1 0x1 DUP2 ADD SWAP1 SWAP2 SSTORE SWAP1 JUMP JUMPDEST DUP14 DUP14 PUSH1 0x40 MLOAD PUSH2 0xE7C SWAP3 SWAP2 SWAP1 PUSH2 0x34A3 JUMP JUMPDEST PUSH1 0x40 MLOAD DUP1 SWAP2 SUB SWAP1 KECCAK256 DUP13 DUP1 MLOAD SWAP1 PUSH1 0x20 ADD KECCAK256 PUSH1 0x40 MLOAD PUSH1 0x20 ADD PUSH2 0xED9 SWAP8 SWAP7 SWAP6 SWAP5 SWAP4 SWAP3 SWAP2 SWAP1 SWAP7 DUP8 MSTORE PUSH1 0x20 DUP8 ADD SWAP6 SWAP1 SWAP6 MSTORE PUSH1 0xFF SWAP4 SWAP1 SWAP4 AND PUSH1 0x40 DUP7 ADD MSTORE PUSH1 0x1 PUSH1 0x1 PUSH1 0xA0 SHL SUB SWAP2 SWAP1 SWAP2 AND PUSH1 0x60 DUP6 ADD MSTORE PUSH1 0x80 DUP5 ADD MSTORE PUSH1 0xA0 DUP4 ADD MSTORE PUSH1 0xC0 DUP3 ADD MSTORE PUSH1 0xE0 ADD SWAP1 JUMP JUMPDEST PUSH1 0x40 MLOAD PUSH1 0x20 DUP2 DUP4 SUB SUB DUP2 MSTORE SWAP1 PUSH1 0x40 MSTORE DUP1 MLOAD SWAP1 PUSH1 0x20 ADD KECCAK256 PUSH2 0x179C JUMP JUMPDEST DUP6 PUSH2 0x17C8 JUMP JUMPDEST SWAP1 POP DUP1 PUSH2 0xF25 JUMPI PUSH1 0x40 MLOAD PUSH4 0x94AB6C07 PUSH1 0xE0 SHL DUP2 MSTORE PUSH1 0x1 PUSH1 0x1 PUSH1 0xA0 SHL SUB DUP9 AND PUSH1 0x4 DUP3 ADD MSTORE PUSH1 0x24 ADD PUSH2 0xBE6 JUMP JUMPDEST PUSH2 0xF68 DUP10 DUP9 DUP11 DUP10 DUP10 DUP1 DUP1 PUSH1 0x1F ADD PUSH1 0x20 DUP1 SWAP2 DIV MUL PUSH1 0x20 ADD PUSH1 0x40 MLOAD SWAP1 DUP2 ADD PUSH1 0x40 MSTORE DUP1 SWAP4 SWAP3 SWAP2 SWAP1 DUP2 DUP2 MSTORE PUSH1 0x20 ADD DUP4 DUP4 DUP1 DUP3 DUP5 CALLDATACOPY PUSH0 SWAP3 ADD SWAP2 SWAP1 SWAP2 MSTORE POP DUP12 SWAP3 POP PUSH2 0x1838 SWAP2 POP POP JUMP JUMPDEST SWAP10 SWAP9 POP POP POP POP POP POP POP POP POP JUMP JUMPDEST PUSH0 DUP1 CALLER SWAP1 POP PUSH2 0xD02 DUP8 DUP3 DUP9 DUP9 DUP9 DUP1 DUP1 PUSH1 0x1F ADD PUSH1 0x20 DUP1 SWAP2 DIV MUL PUSH1 0x20 ADD PUSH1 0x40 MLOAD SWAP1 DUP2 ADD PUSH1 0x40 MSTORE DUP1 SWAP4 SWAP3 SWAP2 SWAP1 DUP2 DUP2 MSTORE PUSH1 0x20 ADD DUP4 DUP4 DUP1 DUP3 DUP5 CALLDATACOPY PUSH0 SWAP3 ADD SWAP2 SWAP1 SWAP2 MSTORE POP DUP11 SWAP3 POP PUSH2 0x1838 SWAP2 POP POP JUMP JUMPDEST PUSH0 PUSH2 0x93C PUSH1 0x8 DUP4 PUSH2 0x1916 JUMP JUMPDEST PUSH0 DUP1 CALLER SWAP1 POP PUSH2 0x100F DUP7 DUP3 DUP8 DUP8 DUP8 DUP1 DUP1 PUSH1 0x1F ADD PUSH1 0x20 DUP1 SWAP2 DIV MUL PUSH1 0x20 ADD PUSH1 0x40 MLOAD SWAP1 DUP2 ADD PUSH1 0x40 MSTORE DUP1 SWAP4 SWAP3 SWAP2 SWAP1 DUP2 DUP2 MSTORE PUSH1 0x20 ADD DUP4 DUP4 DUP1 DUP3 DUP5 CALLDATACOPY PUSH0 SWAP3 ADD SWAP2 SWAP1 SWAP2 MSTORE POP PUSH2 0x177B SWAP3 POP POP POP JUMP JUMPDEST SWAP7 SWAP6 POP POP POP POP POP POP JUMP JUMPDEST PUSH0 CALLER PUSH2 0x1025 DUP2 DUP5 PUSH2 0x1963 JUMP JUMPDEST PUSH2 0x104D JUMPI PUSH1 0x40 MLOAD PUSH4 0xD9B39557 PUSH1 0xE0 SHL DUP2 MSTORE PUSH1 0x1 PUSH1 0x1 PUSH1 0xA0 SHL SUB DUP3 AND PUSH1 0x4 DUP3 ADD MSTORE PUSH1 0x24 ADD PUSH2 0xBE6 JUMP JUMPDEST PUSH0 PUSH2 0xD02 DUP8 DUP8 DUP8 DUP8 DUP7 PUSH2 0x19E7 JUMP JUMPDEST PUSH0 PUSH1 0x60 DUP1 PUSH0 PUSH0 PUSH0 PUSH1 0x60 PUSH2 0x106C PUSH2 0x1BE6 JUMP JUMPDEST PUSH2 0x1074 PUSH2 0x1C12 JUMP JUMPDEST PUSH1 0x40 DUP1 MLOAD PUSH0 DUP1 DUP3 MSTORE PUSH1 0x20 DUP3 ADD SWAP1 SWAP3 MSTORE PUSH1 0xF PUSH1 0xF8 SHL SWAP12 SWAP4 SWAP11 POP SWAP2 SWAP9 POP CHAINID SWAP8 POP ADDRESS SWAP7 POP SWAP5 POP SWAP3 POP SWAP1 POP JUMP JUMPDEST PUSH0 PUSH0 PUSH2 0x1127 DUP5 PUSH2 0xEF4 PUSH32 0xF2AAD550CF55F045CB27E9C559F9889FDFB6E6CDAA032301D6EA397784AE51D7 DUP10 DUP10 DUP10 PUSH2 0x10F0 DUP12 PUSH1 0x1 PUSH1 0x1 PUSH1 0xA0 SHL SUB AND PUSH0 SWAP1 DUP2 MSTORE PUSH1 0x2 PUSH1 0x20 MSTORE PUSH1 0x40 SWAP1 KECCAK256 DUP1 SLOAD PUSH1 0x1 DUP2 ADD SWAP1 SWAP2 SSTORE SWAP1 JUMP JUMPDEST PUSH1 0x40 DUP1 MLOAD PUSH1 0x20 DUP2 ADD SWAP7 SWAP1 SWAP7 MSTORE DUP6 ADD SWAP4 SWAP1 SWAP4 MSTORE PUSH1 0xFF SWAP1 SWAP2 AND PUSH1 0x60 DUP5 ADD MSTORE PUSH1 0x1 PUSH1 0x1 PUSH1 0xA0 SHL SUB AND PUSH1 0x80 DUP4 ADD MSTORE PUSH1 0xA0 DUP3 ADD MSTORE PUSH1 0xC0 ADD PUSH2 0xED9 JUMP JUMPDEST SWAP1 POP DUP1 PUSH2 0x1152 JUMPI PUSH1 0x40 MLOAD PUSH4 0x94AB6C07 PUSH1 0xE0 SHL DUP2 MSTORE PUSH1 0x1 PUSH1 0x1 PUSH1 0xA0 SHL SUB DUP6 AND PUSH1 0x4 DUP3 ADD MSTORE PUSH1 0x24 ADD PUSH2 0xBE6 JUMP JUMPDEST PUSH2 0x100F DUP7 DUP6 DUP8 PUSH1 0x40 MLOAD DUP1 PUSH1 0x20 ADD PUSH1 0x40 MSTORE DUP1 PUSH0 DUP2 MSTORE POP PUSH2 0x177B JUMP JUMPDEST PUSH0 PUSH32 0x0 PUSH1 0x1 PUSH1 0x1 PUSH1 0xA0 SHL SUB AND PUSH4 0x91DDADF4 PUSH1 0x40 MLOAD DUP2 PUSH4 0xFFFFFFFF AND PUSH1 0xE0 SHL DUP2 MSTORE PUSH1 0x4 ADD PUSH1 0x20 PUSH1 0x40 MLOAD DUP1 DUP4 SUB DUP2 DUP7 GAS STATICCALL SWAP3 POP POP POP DUP1 ISZERO PUSH2 0x11E7 JUMPI POP PUSH1 0x40 DUP1 MLOAD PUSH1 0x1F RETURNDATASIZE SWAP1 DUP2 ADD PUSH1 0x1F NOT AND DUP3 ADD SWAP1 SWAP3 MSTORE PUSH2 0x11E4 SWAP2 DUP2 ADD SWAP1 PUSH2 0x34C6 JUMP JUMPDEST PUSH1 0x1 JUMPDEST PUSH2 0xDC8 JUMPI PUSH2 0x11F3 PUSH2 0x1C3F JUMP JUMPDEST SWAP1 POP SWAP1 JUMP JUMPDEST PUSH0 PUSH2 0x1204 DUP5 DUP5 DUP5 PUSH2 0x1C49 JUMP JUMPDEST SWAP1 POP JUMPDEST SWAP4 SWAP3 POP POP POP JUMP JUMPDEST PUSH0 PUSH2 0x1219 PUSH1 0x8 PUSH2 0x1CDC JUMP JUMPDEST PUSH1 0x1 PUSH1 0x1 PUSH1 0xD0 SHL SUB AND SWAP1 POP SWAP1 JUMP JUMPDEST PUSH0 PUSH2 0x1234 DUP6 DUP6 DUP6 DUP6 PUSH2 0x12FB JUMP JUMPDEST SWAP6 SWAP5 POP POP POP POP POP JUMP JUMPDEST PUSH0 DUP2 DUP2 MSTORE PUSH1 0x4 PUSH1 0x20 MSTORE PUSH1 0x40 DUP2 KECCAK256 SLOAD PUSH2 0x1271 SWAP1 PUSH1 0x1 PUSH1 0xD0 SHL DUP2 DIV PUSH4 0xFFFFFFFF AND SWAP1 PUSH1 0x1 PUSH1 0xA0 SHL SWAP1 DIV PUSH6 0xFFFFFFFFFFFF AND PUSH2 0x34EB JUMP JUMPDEST PUSH6 0xFFFFFFFFFFFF AND SWAP3 SWAP2 POP POP JUMP JUMPDEST PUSH2 0x1287 PUSH2 0x13F0 JUMP JUMPDEST PUSH0 PUSH0 DUP6 PUSH1 0x1 PUSH1 0x1 PUSH1 0xA0 SHL SUB AND DUP6 DUP6 DUP6 PUSH1 0x40 MLOAD PUSH2 0x12A4 SWAP3 SWAP2 SWAP1 PUSH2 0x34A3 JUMP JUMPDEST PUSH0 PUSH1 0x40 MLOAD DUP1 DUP4 SUB DUP2 DUP6 DUP8 GAS CALL SWAP3 POP POP POP RETURNDATASIZE DUP1 PUSH0 DUP2 EQ PUSH2 0x12DE JUMPI PUSH1 0x40 MLOAD SWAP2 POP PUSH1 0x1F NOT PUSH1 0x3F RETURNDATASIZE ADD AND DUP3 ADD PUSH1 0x40 MSTORE RETURNDATASIZE DUP3 MSTORE RETURNDATASIZE PUSH0 PUSH1 0x20 DUP5 ADD RETURNDATACOPY PUSH2 0x12E3 JUMP JUMPDEST PUSH1 0x60 SWAP2 POP JUMPDEST POP SWAP2 POP SWAP2 POP PUSH2 0x12F2 DUP3 DUP3 PUSH2 0x1D20 JUMP JUMPDEST POP POP POP POP POP POP POP JUMP JUMPDEST PUSH0 DUP5 DUP5 DUP5 DUP5 PUSH1 0x40 MLOAD PUSH1 0x20 ADD PUSH2 0x1313 SWAP5 SWAP4 SWAP3 SWAP2 SWAP1 PUSH2 0x359C JUMP JUMPDEST PUSH1 0x40 DUP1 MLOAD PUSH1 0x1F NOT DUP2 DUP5 SUB ADD DUP2 MSTORE SWAP2 SWAP1 MSTORE DUP1 MLOAD PUSH1 0x20 SWAP1 SWAP2 ADD KECCAK256 SWAP6 SWAP5 POP POP POP POP POP JUMP JUMPDEST PUSH0 PUSH2 0x1207 DUP4 DUP4 PUSH2 0x134E PUSH1 0x40 DUP1 MLOAD PUSH1 0x20 DUP2 ADD SWAP1 SWAP2 MSTORE PUSH0 DUP2 MSTORE SWAP1 JUMP JUMPDEST PUSH2 0x1C49 JUMP JUMPDEST PUSH1 0x40 MLOAD PUSH4 0x2394E7A3 PUSH1 0xE2 SHL DUP2 MSTORE PUSH1 0x4 DUP2 ADD DUP3 SWAP1 MSTORE PUSH0 SWAP1 PUSH2 0x93C SWAP1 PUSH1 0x1 PUSH1 0x1 PUSH1 0xA0 SHL SUB PUSH32 0x0 AND SWAP1 PUSH4 0x8E539E8C SWAP1 PUSH1 0x24 ADD PUSH1 0x20 PUSH1 0x40 MLOAD DUP1 DUP4 SUB DUP2 DUP7 GAS STATICCALL ISZERO DUP1 ISZERO PUSH2 0x13BC JUMPI RETURNDATASIZE PUSH0 PUSH0 RETURNDATACOPY RETURNDATASIZE PUSH0 REVERT JUMPDEST POP POP POP POP PUSH1 0x40 MLOAD RETURNDATASIZE PUSH1 0x1F NOT PUSH1 0x1F DUP3 ADD AND DUP3 ADD DUP1 PUSH1 0x40 MSTORE POP DUP2 ADD SWAP1 PUSH2 0x13E0 SWAP2 SWAP1 PUSH2 0x35E6 JUMP JUMPDEST PUSH2 0x13E9 DUP5 PUSH2 0xFBD JUMP JUMPDEST PUSH1 0x64 PUSH2 0x1D3C JUMP JUMPDEST ADDRESS CALLER EQ PUSH2 0x1412 JUMPI PUSH1 0x40 MLOAD PUSH4 0x47096E47 PUSH1 0xE0 SHL DUP2 MSTORE CALLER PUSH1 0x4 DUP3 ADD MSTORE PUSH1 0x24 ADD PUSH2 0xBE6 JUMP JUMPDEST JUMP JUMPDEST DUP1 PUSH2 0x141F PUSH1 0x5 PUSH2 0x1DF2 JUMP JUMPDEST SUB PUSH2 0x1414 JUMPI POP JUMP JUMPDEST PUSH1 0x64 DUP1 DUP3 GT ISZERO PUSH2 0x1454 JUMPI PUSH1 0x40 MLOAD PUSH4 0x243E5445 PUSH1 0xE0 SHL DUP2 MSTORE PUSH1 0x4 DUP2 ADD DUP4 SWAP1 MSTORE PUSH1 0x24 DUP2 ADD DUP3 SWAP1 MSTORE PUSH1 0x44 ADD PUSH2 0xBE6 JUMP JUMPDEST PUSH0 PUSH2 0x145D PUSH2 0x120E JUMP JUMPDEST SWAP1 POP PUSH2 0x147C PUSH2 0x146A PUSH2 0x116C JUMP JUMPDEST PUSH2 0x1473 DUP6 PUSH2 0x1E5F JUMP JUMPDEST PUSH1 0x8 SWAP2 SWAP1 PUSH2 0x1E96 JUMP JUMPDEST POP POP PUSH1 0x40 DUP1 MLOAD DUP3 DUP2 MSTORE PUSH1 0x20 DUP2 ADD DUP6 SWAP1 MSTORE PUSH32 0x553476BF02EF2726E8CE5CED78D63E26E602E4A2257B1F559418E24B4633997 SWAP2 ADD PUSH1 0x40 MLOAD DUP1 SWAP2 SUB SWAP1 LOG1 POP POP POP JUMP JUMPDEST PUSH0 DUP2 PUSH1 0x7 DUP2 GT ISZERO PUSH2 0x14CF JUMPI PUSH2 0x14CF PUSH2 0x2E0C JUMP JUMPDEST PUSH1 0x1 PUSH1 0xFF SWAP2 SWAP1 SWAP2 AND SHL SWAP3 SWAP2 POP POP JUMP JUMPDEST PUSH0 PUSH0 PUSH2 0x14E9 DUP5 PUSH2 0xB76 JUMP JUMPDEST SWAP1 POP PUSH0 DUP4 PUSH2 0x14F6 DUP4 PUSH2 0x14BC JUMP JUMPDEST AND SUB PUSH2 0x1207 JUMPI DUP4 DUP2 DUP5 PUSH1 0x40 MLOAD PUSH4 0x31B75E4D PUSH1 0xE0 SHL DUP2 MSTORE PUSH1 0x4 ADD PUSH2 0xBE6 SWAP4 SWAP3 SWAP2 SWAP1 PUSH2 0x35FD JUMP JUMPDEST DUP2 SLOAD PUSH1 0x1 PUSH1 0x1 PUSH1 0x80 SHL SUB PUSH1 0x1 PUSH1 0x80 SHL DUP3 DIV DUP2 AND SWAP2 DUP2 AND PUSH1 0x1 DUP4 ADD SWAP1 SWAP2 AND SUB PUSH2 0x1547 JUMPI PUSH2 0x1547 PUSH1 0x41 PUSH2 0x1EB0 JUMP JUMPDEST PUSH1 0x1 PUSH1 0x1 PUSH1 0x80 SHL SUB DUP1 DUP3 AND PUSH0 SWAP1 DUP2 MSTORE PUSH1 0x1 DUP1 DUP7 ADD PUSH1 0x20 MSTORE PUSH1 0x40 SWAP1 SWAP2 KECCAK256 SWAP4 SWAP1 SWAP4 SSTORE DUP4 SLOAD SWAP2 SWAP1 SWAP3 ADD DUP3 AND PUSH1 0x1 PUSH1 0x80 SHL MUL SWAP2 AND OR SWAP1 SSTORE JUMP JUMPDEST PUSH0 JUMPDEST DUP5 MLOAD DUP2 LT ISZERO PUSH2 0x1649 JUMPI PUSH0 PUSH0 DUP7 DUP4 DUP2 MLOAD DUP2 LT PUSH2 0x159B JUMPI PUSH2 0x159B PUSH2 0x341B JUMP JUMPDEST PUSH1 0x20 MUL PUSH1 0x20 ADD ADD MLOAD PUSH1 0x1 PUSH1 0x1 PUSH1 0xA0 SHL SUB AND DUP7 DUP5 DUP2 MLOAD DUP2 LT PUSH2 0x15BE JUMPI PUSH2 0x15BE PUSH2 0x341B JUMP JUMPDEST PUSH1 0x20 MUL PUSH1 0x20 ADD ADD MLOAD DUP7 DUP6 DUP2 MLOAD DUP2 LT PUSH2 0x15D8 JUMPI PUSH2 0x15D8 PUSH2 0x341B JUMP JUMPDEST PUSH1 0x20 MUL PUSH1 0x20 ADD ADD MLOAD PUSH1 0x40 MLOAD PUSH2 0x15ED SWAP2 SWAP1 PUSH2 0x361F JUMP JUMPDEST PUSH0 PUSH1 0x40 MLOAD DUP1 DUP4 SUB DUP2 DUP6 DUP8 GAS CALL SWAP3 POP POP POP RETURNDATASIZE DUP1 PUSH0 DUP2 EQ PUSH2 0x1627 JUMPI PUSH1 0x40 MLOAD SWAP2 POP PUSH1 0x1F NOT PUSH1 0x3F RETURNDATASIZE ADD AND DUP3 ADD PUSH1 0x40 MSTORE RETURNDATASIZE DUP3 MSTORE RETURNDATASIZE PUSH0 PUSH1 0x20 DUP5 ADD RETURNDATACOPY PUSH2 0x162C JUMP JUMPDEST PUSH1 0x60 SWAP2 POP JUMPDEST POP SWAP2 POP SWAP2 POP PUSH2 0x163B DUP3 DUP3 PUSH2 0x1D20 JUMP JUMPDEST POP POP POP DUP1 PUSH1 0x1 ADD SWAP1 POP PUSH2 0x157E JUMP JUMPDEST POP POP POP POP POP POP JUMP JUMPDEST PUSH0 DUP2 DUP2 MSTORE PUSH1 0x7 PUSH1 0x20 MSTORE PUSH1 0x40 DUP2 KECCAK256 PUSH1 0x2 DUP2 ADD SLOAD PUSH1 0x1 DUP3 ADD SLOAD PUSH2 0x1672 SWAP2 SWAP1 PUSH2 0x3635 JUMP JUMPDEST PUSH2 0x167E PUSH2 0x89F DUP6 PUSH2 0xB56 JUMP JUMPDEST GT ISZERO SWAP4 SWAP3 POP POP POP JUMP JUMPDEST PUSH0 DUP1 PUSH2 0x1692 DUP5 PUSH2 0xB76 JUMP JUMPDEST PUSH1 0x7 DUP2 GT ISZERO PUSH2 0x16A3 JUMPI PUSH2 0x16A3 PUSH2 0x2E0C JUMP JUMPDEST EQ DUP1 ISZERO PUSH2 0x1207 JUMPI POP POP PUSH0 SWAP2 DUP3 MSTORE PUSH1 0x4 PUSH1 0x20 MSTORE PUSH1 0x40 SWAP1 SWAP2 KECCAK256 SLOAD PUSH1 0x1 PUSH1 0x1 PUSH1 0xA0 SHL SUB SWAP2 DUP3 AND SWAP2 AND EQ SWAP1 JUMP JUMPDEST PUSH0 PUSH0 PUSH2 0x16DA DUP7 DUP7 DUP7 DUP7 PUSH2 0x1227 JUMP JUMPDEST SWAP1 POP PUSH2 0x1728 DUP2 PUSH2 0x16EA PUSH1 0x7 PUSH2 0x14BC JUMP JUMPDEST PUSH2 0x16F4 PUSH1 0x6 PUSH2 0x14BC JUMP JUMPDEST PUSH2 0x16FE PUSH1 0x2 PUSH2 0x14BC JUMP JUMPDEST PUSH1 0x1 PUSH2 0x170B PUSH1 0x7 DUP3 PUSH2 0x3648 JUMP JUMPDEST PUSH2 0x1716 SWAP1 PUSH1 0x2 PUSH2 0x373C JUMP JUMPDEST PUSH2 0x1720 SWAP2 SWAP1 PUSH2 0x374A JUMP JUMPDEST XOR XOR XOR PUSH2 0x14DE JUMP JUMPDEST POP PUSH0 DUP2 DUP2 MSTORE PUSH1 0x4 PUSH1 0x20 MSTORE PUSH1 0x40 SWAP1 DUP2 SWAP1 KECCAK256 DUP1 SLOAD PUSH1 0x1 PUSH1 0x1 PUSH1 0xF8 SHL SUB AND PUSH1 0x1 PUSH1 0xF8 SHL OR SWAP1 SSTORE MLOAD PUSH32 0x789CF55BE980739DAD1D0699B93B58E806B51C9D96619BFA8FE0A28ABAA7B30C SWAP1 PUSH2 0xB45 SWAP1 DUP4 DUP2 MSTORE PUSH1 0x20 ADD SWAP1 JUMP JUMPDEST PUSH0 PUSH2 0x1234 DUP6 DUP6 DUP6 DUP6 PUSH2 0x1797 PUSH1 0x40 DUP1 MLOAD PUSH1 0x20 DUP2 ADD SWAP1 SWAP2 MSTORE PUSH0 DUP2 MSTORE SWAP1 JUMP JUMPDEST PUSH2 0x1838 JUMP JUMPDEST PUSH0 PUSH2 0x93C PUSH2 0x17A8 PUSH2 0x1EC1 JUMP JUMPDEST DUP4 PUSH1 0x40 MLOAD PUSH2 0x1901 PUSH1 0xF0 SHL DUP2 MSTORE PUSH1 0x2 DUP2 ADD SWAP3 SWAP1 SWAP3 MSTORE PUSH1 0x22 DUP3 ADD MSTORE PUSH1 0x42 SWAP1 KECCAK256 SWAP1 JUMP JUMPDEST PUSH0 DUP4 PUSH1 0x1 PUSH1 0x1 PUSH1 0xA0 SHL SUB AND EXTCODESIZE PUSH0 SUB PUSH2 0x1826 JUMPI PUSH0 PUSH0 PUSH2 0x17E6 DUP6 DUP6 PUSH2 0x1FEA JUMP JUMPDEST POP SWAP1 SWAP3 POP SWAP1 POP PUSH0 DUP2 PUSH1 0x3 DUP2 GT ISZERO PUSH2 0x17FF JUMPI PUSH2 0x17FF PUSH2 0x2E0C JUMP JUMPDEST EQ DUP1 ISZERO PUSH2 0x181D JUMPI POP DUP6 PUSH1 0x1 PUSH1 0x1 PUSH1 0xA0 SHL SUB AND DUP3 PUSH1 0x1 PUSH1 0x1 PUSH1 0xA0 SHL SUB AND EQ JUMPDEST SWAP3 POP POP POP PUSH2 0x1207 JUMP JUMPDEST PUSH2 0x1831 DUP5 DUP5 DUP5 PUSH2 0x2033 JUMP JUMPDEST SWAP1 POP PUSH2 0x1207 JUMP JUMPDEST PUSH0 PUSH2 0x1847 DUP7 PUSH2 0xA04 PUSH1 0x1 PUSH2 0x14BC JUMP JUMPDEST POP PUSH0 PUSH2 0x185C DUP7 PUSH2 0x1856 DUP10 PUSH2 0xB56 JUMP JUMPDEST DUP6 PUSH2 0x1C49 JUMP JUMPDEST SWAP1 POP PUSH0 PUSH2 0x186C DUP9 DUP9 DUP9 DUP6 DUP9 PUSH2 0x2109 JUMP JUMPDEST SWAP1 POP DUP4 MLOAD PUSH0 SUB PUSH2 0x18C2 JUMPI DUP7 PUSH1 0x1 PUSH1 0x1 PUSH1 0xA0 SHL SUB AND PUSH32 0xB8E138887D0AA13BAB447E82DE9D5C1777041ECD21CA36BA824FF1E6C07DDDA4 DUP10 DUP9 DUP5 DUP10 PUSH1 0x40 MLOAD PUSH2 0x18B5 SWAP5 SWAP4 SWAP3 SWAP2 SWAP1 PUSH2 0x375D JUMP JUMPDEST PUSH1 0x40 MLOAD DUP1 SWAP2 SUB SWAP1 LOG2 PUSH2 0xD02 JUMP JUMPDEST DUP7 PUSH1 0x1 PUSH1 0x1 PUSH1 0xA0 SHL SUB AND PUSH32 0xE2BABFBAC5889A709B63BB7F598B324E08BC5A4FB9EC647FB3CBC9EC07EB8712 DUP10 DUP9 DUP5 DUP10 DUP10 PUSH1 0x40 MLOAD PUSH2 0x1903 SWAP6 SWAP5 SWAP4 SWAP3 SWAP2 SWAP1 PUSH2 0x3784 JUMP JUMPDEST PUSH1 0x40 MLOAD DUP1 SWAP2 SUB SWAP1 LOG2 SWAP8 SWAP7 POP POP POP POP POP POP POP JUMP JUMPDEST PUSH0 PUSH0 PUSH0 PUSH2 0x1922 DUP6 PUSH2 0x2205 JUMP JUMPDEST SWAP3 POP SWAP3 POP POP DUP4 DUP3 PUSH6 0xFFFFFFFFFFFF AND GT ISZERO PUSH2 0x194F JUMPI PUSH2 0x194A PUSH2 0x1943 DUP6 PUSH2 0x225D JUMP JUMPDEST DUP7 SWAP1 PUSH2 0x228F JUMP JUMPDEST PUSH2 0x1951 JUMP JUMPDEST DUP1 JUMPDEST PUSH1 0x1 PUSH1 0x1 PUSH1 0xD0 SHL SUB AND SWAP6 SWAP5 POP POP POP POP POP JUMP JUMPDEST DUP1 MLOAD PUSH0 SWAP1 PUSH1 0x34 DUP2 LT ISZERO PUSH2 0x197A JUMPI PUSH1 0x1 SWAP2 POP POP PUSH2 0x93C JUMP JUMPDEST PUSH1 0x13 NOT DUP2 DUP5 ADD ADD MLOAD PUSH1 0x1 PUSH1 0x1 PUSH1 0xB0 SHL SUB NOT DUP2 AND PUSH10 0x2370726F706F7365723D PUSH1 0xB0 SHL EQ PUSH2 0x19AB JUMPI PUSH1 0x1 SWAP3 POP POP POP PUSH2 0x93C JUMP JUMPDEST PUSH0 PUSH0 PUSH2 0x19BB DUP7 PUSH1 0x2A DUP7 SUB DUP7 PUSH2 0x2331 JUMP JUMPDEST SWAP2 POP SWAP2 POP DUP2 ISZERO DUP1 PUSH2 0xD02 JUMPI POP DUP7 PUSH1 0x1 PUSH1 0x1 PUSH1 0xA0 SHL SUB AND DUP2 PUSH1 0x1 PUSH1 0x1 PUSH1 0xA0 SHL SUB AND EQ SWAP8 SWAP7 POP POP POP POP POP POP POP JUMP JUMPDEST PUSH0 PUSH2 0x19FB DUP7 DUP7 DUP7 DUP7 DUP1 MLOAD SWAP1 PUSH1 0x20 ADD KECCAK256 PUSH2 0x1227 JUMP JUMPDEST SWAP1 POP DUP5 MLOAD DUP7 MLOAD EQ ISZERO DUP1 PUSH2 0x1A10 JUMPI POP DUP4 MLOAD DUP7 MLOAD EQ ISZERO JUMPDEST DUP1 PUSH2 0x1A1A JUMPI POP DUP6 MLOAD ISZERO JUMPDEST ISZERO PUSH2 0x1A4F JUMPI DUP6 MLOAD DUP5 MLOAD DUP7 MLOAD PUSH1 0x40 MLOAD PUSH4 0x447B05D PUSH1 0xE4 SHL DUP2 MSTORE PUSH1 0x4 DUP2 ADD SWAP4 SWAP1 SWAP4 MSTORE PUSH1 0x24 DUP4 ADD SWAP2 SWAP1 SWAP2 MSTORE PUSH1 0x44 DUP3 ADD MSTORE PUSH1 0x64 ADD PUSH2 0xBE6 JUMP JUMPDEST PUSH0 DUP2 DUP2 MSTORE PUSH1 0x4 PUSH1 0x20 MSTORE PUSH1 0x40 SWAP1 KECCAK256 SLOAD PUSH1 0x1 PUSH1 0xA0 SHL SWAP1 DIV PUSH6 0xFFFFFFFFFFFF AND ISZERO PUSH2 0x1A98 JUMPI DUP1 PUSH2 0x1A7B DUP3 PUSH2 0xB76 JUMP JUMPDEST PUSH1 0x40 MLOAD PUSH4 0x31B75E4D PUSH1 0xE0 SHL DUP2 MSTORE PUSH2 0xBE6 SWAP3 SWAP2 SWAP1 PUSH0 SWAP1 PUSH1 0x4 ADD PUSH2 0x35FD JUMP JUMPDEST PUSH0 PUSH1 0x2 PUSH2 0x1AA3 PUSH2 0x116C JUMP JUMPDEST PUSH6 0xFFFFFFFFFFFF AND PUSH2 0x1AB5 SWAP2 SWAP1 PUSH2 0x3635 JUMP JUMPDEST SWAP1 POP PUSH0 PUSH1 0x2 PUSH0 DUP5 DUP2 MSTORE PUSH1 0x4 PUSH1 0x20 MSTORE PUSH1 0x40 SWAP1 KECCAK256 DUP1 SLOAD PUSH1 0x1 PUSH1 0x1 PUSH1 0xA0 SHL SUB NOT AND PUSH1 0x1 PUSH1 0x1 PUSH1 0xA0 SHL SUB DUP8 AND OR DUP2 SSTORE SWAP1 SWAP2 POP PUSH2 0x1AEC DUP4 PUSH2 0x225D JUMP JUMPDEST DUP2 SLOAD PUSH6 0xFFFFFFFFFFFF SWAP2 SWAP1 SWAP2 AND PUSH1 0x1 PUSH1 0xA0 SHL MUL PUSH6 0xFFFFFFFFFFFF PUSH1 0xA0 SHL NOT SWAP1 SWAP2 AND OR DUP2 SSTORE PUSH2 0x1B19 DUP3 PUSH2 0x23DA JUMP JUMPDEST DUP2 SLOAD PUSH4 0xFFFFFFFF SWAP2 SWAP1 SWAP2 AND PUSH1 0x1 PUSH1 0xD0 SHL MUL PUSH4 0xFFFFFFFF PUSH1 0xD0 SHL NOT SWAP1 SWAP2 AND OR DUP2 SSTORE DUP9 MLOAD PUSH32 0x7D84A6263AE0D98D3329BD7B46BB4E8D6F98CD35A7ADB45C274C8B7FD5EBD5E0 SWAP1 DUP6 SWAP1 DUP8 SWAP1 DUP13 SWAP1 DUP13 SWAP1 PUSH1 0x1 PUSH1 0x1 PUSH1 0x40 SHL SUB DUP2 GT ISZERO PUSH2 0x1B7C JUMPI PUSH2 0x1B7C PUSH2 0x2AF6 JUMP JUMPDEST PUSH1 0x40 MLOAD SWAP1 DUP1 DUP3 MSTORE DUP1 PUSH1 0x20 MUL PUSH1 0x20 ADD DUP3 ADD PUSH1 0x40 MSTORE DUP1 ISZERO PUSH2 0x1BAF JUMPI DUP2 PUSH1 0x20 ADD JUMPDEST PUSH1 0x60 DUP2 MSTORE PUSH1 0x20 ADD SWAP1 PUSH1 0x1 SWAP1 SUB SWAP1 DUP2 PUSH2 0x1B9A JUMPI SWAP1 POP JUMPDEST POP DUP13 DUP10 PUSH2 0x1BBC DUP11 DUP3 PUSH2 0x3635 JUMP JUMPDEST DUP15 PUSH1 0x40 MLOAD PUSH2 0x1BD2 SWAP10 SWAP9 SWAP8 SWAP7 SWAP6 SWAP5 SWAP4 SWAP3 SWAP2 SWAP1 PUSH2 0x37C9 JUMP JUMPDEST PUSH1 0x40 MLOAD DUP1 SWAP2 SUB SWAP1 LOG1 POP POP POP SWAP6 SWAP5 POP POP POP POP POP JUMP JUMPDEST PUSH1 0x60 PUSH2 0x11F3 PUSH32 0x0 PUSH0 PUSH2 0x240A JUMP JUMPDEST PUSH1 0x60 PUSH2 0x11F3 PUSH32 0x0 PUSH1 0x1 PUSH2 0x240A JUMP JUMPDEST PUSH0 PUSH2 0x11F3 NUMBER PUSH2 0x225D JUMP JUMPDEST PUSH0 PUSH32 0x0 PUSH1 0x40 MLOAD PUSH4 0x748D635 PUSH1 0xE3 SHL DUP2 MSTORE PUSH1 0x1 PUSH1 0x1 PUSH1 0xA0 SHL SUB DUP7 DUP2 AND PUSH1 0x4 DUP4 ADD MSTORE PUSH1 0x24 DUP3 ADD DUP7 SWAP1 MSTORE SWAP2 SWAP1 SWAP2 AND SWAP1 PUSH4 0x3A46B1A8 SWAP1 PUSH1 0x44 ADD PUSH1 0x20 PUSH1 0x40 MLOAD DUP1 DUP4 SUB DUP2 DUP7 GAS STATICCALL ISZERO DUP1 ISZERO PUSH2 0x1CB8 JUMPI RETURNDATASIZE PUSH0 PUSH0 RETURNDATACOPY RETURNDATASIZE PUSH0 REVERT JUMPDEST POP POP POP POP PUSH1 0x40 MLOAD RETURNDATASIZE PUSH1 0x1F NOT PUSH1 0x1F DUP3 ADD AND DUP3 ADD DUP1 PUSH1 0x40 MSTORE POP DUP2 ADD SWAP1 PUSH2 0x1204 SWAP2 SWAP1 PUSH2 0x35E6 JUMP JUMPDEST DUP1 SLOAD PUSH0 SWAP1 DUP1 ISZERO PUSH2 0x1D18 JUMPI PUSH2 0x1D02 DUP4 PUSH2 0x1CF5 PUSH1 0x1 DUP5 PUSH2 0x374A JUMP JUMPDEST PUSH0 SWAP2 DUP3 MSTORE PUSH1 0x20 SWAP1 SWAP2 KECCAK256 ADD SWAP1 JUMP JUMPDEST SLOAD PUSH1 0x1 PUSH1 0x30 SHL SWAP1 DIV PUSH1 0x1 PUSH1 0x1 PUSH1 0xD0 SHL SUB AND PUSH2 0x1207 JUMP JUMPDEST PUSH0 SWAP4 SWAP3 POP POP POP JUMP JUMPDEST PUSH1 0x60 DUP3 PUSH2 0x1D35 JUMPI PUSH2 0x1D30 DUP3 PUSH2 0x24B3 JUMP JUMPDEST PUSH2 0x93C JUMP JUMPDEST POP DUP1 PUSH2 0x93C JUMP JUMPDEST PUSH0 DUP4 DUP4 MUL DUP2 PUSH0 NOT DUP6 DUP8 MULMOD DUP3 DUP2 LT DUP4 DUP3 SUB SUB SWAP2 POP POP DUP1 PUSH0 SUB PUSH2 0x1D70 JUMPI DUP4 DUP3 DUP2 PUSH2 0x1D66 JUMPI PUSH2 0x1D66 PUSH2 0x38A4 JUMP JUMPDEST DIV SWAP3 POP POP POP PUSH2 0x1207 JUMP JUMPDEST DUP1 DUP5 GT PUSH2 0x1D87 JUMPI PUSH2 0x1D87 PUSH1 0x3 DUP6 ISZERO MUL PUSH1 0x11 XOR PUSH2 0x1EB0 JUMP JUMPDEST PUSH0 DUP5 DUP7 DUP9 MULMOD PUSH0 DUP7 DUP2 SUB DUP8 AND SWAP7 DUP8 SWAP1 DIV SWAP7 PUSH1 0x2 PUSH1 0x3 DUP10 MUL DUP2 XOR DUP1 DUP11 MUL DUP3 SUB MUL DUP1 DUP11 MUL DUP3 SUB MUL DUP1 DUP11 MUL DUP3 SUB MUL DUP1 DUP11 MUL DUP3 SUB MUL DUP1 DUP11 MUL DUP3 SUB MUL DUP1 DUP11 MUL SWAP1 SWAP2 SUB MUL SWAP2 DUP2 SWAP1 SUB DUP2 SWAP1 DIV PUSH1 0x1 ADD DUP7 DUP5 GT SWAP1 SWAP6 SUB SWAP5 SWAP1 SWAP5 MUL SWAP2 SWAP1 SWAP5 SUB SWAP3 SWAP1 SWAP3 DIV SWAP2 SWAP1 SWAP2 OR SWAP2 SWAP1 SWAP2 MUL SWAP2 POP POP SWAP4 SWAP3 POP POP POP JUMP JUMPDEST DUP1 SLOAD PUSH0 SWAP1 PUSH1 0x1 PUSH1 0x1 PUSH1 0x80 SHL SUB DUP1 DUP3 AND SWAP2 PUSH1 0x1 PUSH1 0x80 SHL SWAP1 DIV AND DUP2 SUB PUSH2 0x1E1A JUMPI PUSH2 0x1E1A PUSH1 0x31 PUSH2 0x1EB0 JUMP JUMPDEST PUSH1 0x1 PUSH1 0x1 PUSH1 0x80 SHL SUB DUP2 DUP2 AND PUSH0 SWAP1 DUP2 MSTORE PUSH1 0x1 DUP6 DUP2 ADD PUSH1 0x20 MSTORE PUSH1 0x40 DUP3 KECCAK256 DUP1 SLOAD SWAP3 SWAP1 SSTORE DUP6 SLOAD PUSH16 0xFFFFFFFFFFFFFFFFFFFFFFFFFFFFFFFF NOT AND SWAP4 ADD SWAP1 SWAP2 AND SWAP2 SWAP1 SWAP2 OR SWAP1 SWAP3 SSTORE POP SWAP1 JUMP JUMPDEST PUSH0 PUSH1 0x1 PUSH1 0x1 PUSH1 0xD0 SHL SUB DUP3 GT ISZERO PUSH2 0x1E92 JUMPI PUSH1 0x40 MLOAD PUSH4 0x6DFCC65 PUSH1 0xE4 SHL DUP2 MSTORE PUSH1 0xD0 PUSH1 0x4 DUP3 ADD MSTORE PUSH1 0x24 DUP2 ADD DUP4 SWAP1 MSTORE PUSH1 0x44 ADD PUSH2 0xBE6 JUMP JUMPDEST POP SWAP1 JUMP JUMPDEST PUSH0 DUP1 PUSH2 0x1EA3 DUP6 DUP6 DUP6 PUSH2 0x24DC JUMP JUMPDEST SWAP2 POP SWAP2 POP JUMPDEST SWAP4 POP SWAP4 SWAP2 POP POP JUMP JUMPDEST PUSH4 0x4E487B71 PUSH0 MSTORE DUP1 PUSH1 0x20 MSTORE PUSH1 0x24 PUSH1 0x1C REVERT JUMPDEST PUSH0 ADDRESS PUSH1 0x1 PUSH1 0x1 PUSH1 0xA0 SHL SUB PUSH32 0x0 AND EQ DUP1 ISZERO PUSH2 0x1F19 JUMPI POP PUSH32 0x0 CHAINID EQ JUMPDEST ISZERO PUSH2 0x1F43 JUMPI POP PUSH32 0x0 SWAP1 JUMP JUMPDEST PUSH2 0x11F3 PUSH1 0x40 DUP1 MLOAD PUSH32 0x8B73C3C69BB8FE3D512ECC4CF759CC79239F7B179B0FFACAA9A75D522B39400F PUSH1 0x20 DUP3 ADD MSTORE PUSH32 0x0 SWAP2 DUP2 ADD SWAP2 SWAP1 SWAP2 MSTORE PUSH32 0x0 PUSH1 0x60 DUP3 ADD MSTORE CHAINID PUSH1 0x80 DUP3 ADD MSTORE ADDRESS PUSH1 0xA0 DUP3 ADD MSTORE PUSH0 SWAP1 PUSH1 0xC0 ADD PUSH1 0x40 MLOAD PUSH1 0x20 DUP2 DUP4 SUB SUB DUP2 MSTORE SWAP1 PUSH1 0x40 MSTORE DUP1 MLOAD SWAP1 PUSH1 0x20 ADD KECCAK256 SWAP1 POP SWAP1 JUMP JUMPDEST PUSH0 PUSH0 PUSH0 DUP4 MLOAD PUSH1 0x41 SUB PUSH2 0x2021 JUMPI PUSH1 0x20 DUP5 ADD MLOAD PUSH1 0x40 DUP6 ADD MLOAD PUSH1 0x60 DUP7 ADD MLOAD PUSH0 BYTE PUSH2 0x2013 DUP9 DUP3 DUP6 DUP6 PUSH2 0x262C JUMP JUMPDEST SWAP6 POP SWAP6 POP SWAP6 POP POP POP POP PUSH2 0x202C JUMP JUMPDEST POP POP DUP2 MLOAD PUSH0 SWAP2 POP PUSH1 0x2 SWAP1 JUMPDEST SWAP3 POP SWAP3 POP SWAP3 JUMP JUMPDEST PUSH0 PUSH0 PUSH0 DUP6 PUSH1 0x1 PUSH1 0x1 PUSH1 0xA0 SHL SUB AND DUP6 DUP6 PUSH1 0x40 MLOAD PUSH1 0x24 ADD PUSH2 0x2053 SWAP3 SWAP2 SWAP1 PUSH2 0x38B8 JUMP JUMPDEST PUSH1 0x40 DUP1 MLOAD PUSH1 0x1F NOT DUP2 DUP5 SUB ADD DUP2 MSTORE SWAP2 DUP2 MSTORE PUSH1 0x20 DUP3 ADD DUP1 MLOAD PUSH1 0x1 PUSH1 0x1 PUSH1 0xE0 SHL SUB AND PUSH4 0xB135D3F PUSH1 0xE1 SHL OR SWAP1 MSTORE MLOAD PUSH2 0x2088 SWAP2 SWAP1 PUSH2 0x361F JUMP JUMPDEST PUSH0 PUSH1 0x40 MLOAD DUP1 DUP4 SUB DUP2 DUP6 GAS STATICCALL SWAP2 POP POP RETURNDATASIZE DUP1 PUSH0 DUP2 EQ PUSH2 0x20C0 JUMPI PUSH1 0x40 MLOAD SWAP2 POP PUSH1 0x1F NOT PUSH1 0x3F RETURNDATASIZE ADD AND DUP3 ADD PUSH1 0x40 MSTORE RETURNDATASIZE DUP3 MSTORE RETURNDATASIZE PUSH0 PUSH1 0x20 DUP5 ADD RETURNDATACOPY PUSH2 0x20C5 JUMP JUMPDEST PUSH1 0x60 SWAP2 POP JUMPDEST POP SWAP2 POP SWAP2 POP DUP2 DUP1 ISZERO PUSH2 0x20D9 JUMPI POP PUSH1 0x20 DUP2 MLOAD LT ISZERO JUMPDEST DUP1 ISZERO PUSH2 0x100F JUMPI POP DUP1 MLOAD PUSH4 0xB135D3F PUSH1 0xE1 SHL SWAP1 PUSH2 0x20FE SWAP1 DUP4 ADD PUSH1 0x20 SWAP1 DUP2 ADD SWAP1 DUP5 ADD PUSH2 0x35E6 JUMP JUMPDEST EQ SWAP7 SWAP6 POP POP POP POP POP POP JUMP JUMPDEST PUSH0 DUP6 DUP2 MSTORE PUSH1 0x7 PUSH1 0x20 SWAP1 DUP2 MSTORE PUSH1 0x40 DUP1 DUP4 KECCAK256 PUSH1 0x1 PUSH1 0x1 PUSH1 0xA0 SHL SUB DUP9 AND DUP5 MSTORE PUSH1 0x3 DUP2 ADD SWAP1 SWAP3 MSTORE DUP3 KECCAK256 SLOAD PUSH1 0xFF AND ISZERO PUSH2 0x215B JUMPI PUSH1 0x40 MLOAD PUSH4 0x71C6AF49 PUSH1 0xE0 SHL DUP2 MSTORE PUSH1 0x1 PUSH1 0x1 PUSH1 0xA0 SHL SUB DUP8 AND PUSH1 0x4 DUP3 ADD MSTORE PUSH1 0x24 ADD PUSH2 0xBE6 JUMP JUMPDEST PUSH1 0x1 PUSH1 0x1 PUSH1 0xA0 SHL SUB DUP7 AND PUSH0 SWAP1 DUP2 MSTORE PUSH1 0x3 DUP3 ADD PUSH1 0x20 MSTORE PUSH1 0x40 SWAP1 KECCAK256 DUP1 SLOAD PUSH1 0xFF NOT AND PUSH1 0x1 OR SWAP1 SSTORE PUSH1 0xFF DUP6 AND PUSH2 0x21A4 JUMPI DUP4 DUP2 PUSH0 ADD PUSH0 DUP3 DUP3 SLOAD PUSH2 0x2199 SWAP2 SWAP1 PUSH2 0x3635 JUMP JUMPDEST SWAP1 SWAP2 SSTORE POP PUSH2 0x21FA SWAP1 POP JUMP JUMPDEST PUSH0 NOT PUSH1 0xFF DUP7 AND ADD PUSH2 0x21C2 JUMPI DUP4 DUP2 PUSH1 0x1 ADD PUSH0 DUP3 DUP3 SLOAD PUSH2 0x2199 SWAP2 SWAP1 PUSH2 0x3635 JUMP JUMPDEST PUSH1 0x1 NOT PUSH1 0xFF DUP7 AND ADD PUSH2 0x21E1 JUMPI DUP4 DUP2 PUSH1 0x2 ADD PUSH0 DUP3 DUP3 SLOAD PUSH2 0x2199 SWAP2 SWAP1 PUSH2 0x3635 JUMP JUMPDEST PUSH1 0x40 MLOAD PUSH4 0x3599BE1 PUSH1 0xE1 SHL DUP2 MSTORE PUSH1 0x4 ADD PUSH1 0x40 MLOAD DUP1 SWAP2 SUB SWAP1 REVERT JUMPDEST POP SWAP2 SWAP6 SWAP5 POP POP POP POP POP JUMP JUMPDEST DUP1 SLOAD PUSH0 SWAP1 DUP2 SWAP1 DUP2 SWAP1 DUP1 DUP3 SUB PUSH2 0x2223 JUMPI PUSH0 PUSH0 PUSH0 SWAP4 POP SWAP4 POP SWAP4 POP POP PUSH2 0xDEB JUMP JUMPDEST PUSH0 PUSH2 0x2233 DUP7 PUSH2 0x1CF5 PUSH1 0x1 DUP6 PUSH2 0x374A JUMP JUMPDEST SLOAD PUSH1 0x1 SWAP6 POP PUSH6 0xFFFFFFFFFFFF DUP2 AND SWAP5 POP PUSH1 0x1 PUSH1 0x30 SHL SWAP1 DIV PUSH1 0x1 PUSH1 0x1 PUSH1 0xD0 SHL SUB AND SWAP3 POP PUSH2 0xDEB SWAP2 POP POP JUMP JUMPDEST PUSH0 PUSH6 0xFFFFFFFFFFFF DUP3 GT ISZERO PUSH2 0x1E92 JUMPI PUSH1 0x40 MLOAD PUSH4 0x6DFCC65 PUSH1 0xE4 SHL DUP2 MSTORE PUSH1 0x30 PUSH1 0x4 DUP3 ADD MSTORE PUSH1 0x24 DUP2 ADD DUP4 SWAP1 MSTORE PUSH1 0x44 ADD PUSH2 0xBE6 JUMP JUMPDEST DUP2 SLOAD PUSH0 SWAP1 DUP2 DUP2 PUSH1 0x5 DUP2 GT ISZERO PUSH2 0x22EB JUMPI PUSH0 PUSH2 0x22A8 DUP5 PUSH2 0x26F4 JUMP JUMPDEST PUSH2 0x22B2 SWAP1 DUP6 PUSH2 0x374A JUMP JUMPDEST PUSH0 DUP9 DUP2 MSTORE PUSH1 0x20 SWAP1 KECCAK256 SWAP1 SWAP2 POP DUP2 ADD SLOAD PUSH6 0xFFFFFFFFFFFF SWAP1 DUP2 AND SWAP1 DUP8 AND LT ISZERO PUSH2 0x22DB JUMPI DUP1 SWAP2 POP PUSH2 0x22E9 JUMP JUMPDEST PUSH2 0x22E6 DUP2 PUSH1 0x1 PUSH2 0x3635 JUMP JUMPDEST SWAP3 POP JUMPDEST POP JUMPDEST PUSH0 PUSH2 0x22F8 DUP8 DUP8 DUP6 DUP6 PUSH2 0x284C JUMP JUMPDEST SWAP1 POP DUP1 ISZERO PUSH2 0x2325 JUMPI PUSH2 0x230F DUP8 PUSH2 0x1CF5 PUSH1 0x1 DUP5 PUSH2 0x374A JUMP JUMPDEST SLOAD PUSH1 0x1 PUSH1 0x30 SHL SWAP1 DIV PUSH1 0x1 PUSH1 0x1 PUSH1 0xD0 SHL SUB AND PUSH2 0xD02 JUMP JUMPDEST POP PUSH0 SWAP7 SWAP6 POP POP POP POP POP POP JUMP JUMPDEST PUSH0 PUSH0 DUP5 MLOAD DUP4 GT DUP1 PUSH2 0x2341 JUMPI POP DUP3 DUP5 GT JUMPDEST ISZERO PUSH2 0x2350 JUMPI POP PUSH0 SWAP1 POP DUP1 PUSH2 0x1EA8 JUMP JUMPDEST PUSH0 PUSH2 0x235C DUP6 PUSH1 0x1 PUSH2 0x3635 JUMP JUMPDEST DUP5 GT DUP1 ISZERO PUSH2 0x2384 JUMPI POP PUSH2 0x60F PUSH1 0xF3 SHL PUSH2 0x2378 DUP8 DUP8 ADD PUSH1 0x20 ADD MLOAD SWAP1 JUMP JUMPDEST PUSH1 0x1 PUSH1 0x1 PUSH1 0xF0 SHL SUB NOT AND EQ JUMPDEST SWAP1 POP PUSH0 PUSH2 0x2394 DUP3 ISZERO ISZERO PUSH1 0x2 PUSH2 0x38D0 JUMP JUMPDEST PUSH2 0x239F SWAP1 PUSH1 0x28 PUSH2 0x3635 JUMP JUMPDEST SWAP1 POP DUP1 PUSH2 0x23AC DUP8 DUP8 PUSH2 0x374A JUMP JUMPDEST SUB PUSH2 0x23CD JUMPI PUSH0 PUSH0 PUSH2 0x23BE DUP10 DUP10 DUP10 PUSH2 0x28AB JUMP JUMPDEST SWAP1 SWAP7 POP SWAP5 POP PUSH2 0x1EA8 SWAP4 POP POP POP POP JUMP JUMPDEST PUSH0 PUSH0 SWAP4 POP SWAP4 POP POP POP PUSH2 0x1EA8 JUMP JUMPDEST PUSH0 PUSH4 0xFFFFFFFF DUP3 GT ISZERO PUSH2 0x1E92 JUMPI PUSH1 0x40 MLOAD PUSH4 0x6DFCC65 PUSH1 0xE4 SHL DUP2 MSTORE PUSH1 0x20 PUSH1 0x4 DUP3 ADD MSTORE PUSH1 0x24 DUP2 ADD DUP4 SWAP1 MSTORE PUSH1 0x44 ADD PUSH2 0xBE6 JUMP JUMPDEST PUSH1 0x60 PUSH1 0xFF DUP4 EQ PUSH2 0x2424 JUMPI PUSH2 0x241D DUP4 PUSH2 0x296C JUMP JUMPDEST SWAP1 POP PUSH2 0x93C JUMP JUMPDEST DUP2 DUP1 SLOAD PUSH2 0x2430 SWAP1 PUSH2 0x33E3 JUMP JUMPDEST DUP1 PUSH1 0x1F ADD PUSH1 0x20 DUP1 SWAP2 DIV MUL PUSH1 0x20 ADD PUSH1 0x40 MLOAD SWAP1 DUP2 ADD PUSH1 0x40 MSTORE DUP1 SWAP3 SWAP2 SWAP1 DUP2 DUP2 MSTORE PUSH1 0x20 ADD DUP3 DUP1 SLOAD PUSH2 0x245C SWAP1 PUSH2 0x33E3 JUMP JUMPDEST DUP1 ISZERO PUSH2 0x24A7 JUMPI DUP1 PUSH1 0x1F LT PUSH2 0x247E JUMPI PUSH2 0x100 DUP1 DUP4 SLOAD DIV MUL DUP4 MSTORE SWAP2 PUSH1 0x20 ADD SWAP2 PUSH2 0x24A7 JUMP JUMPDEST DUP3 ADD SWAP2 SWAP1 PUSH0 MSTORE PUSH1 0x20 PUSH0 KECCAK256 SWAP1 JUMPDEST DUP2 SLOAD DUP2 MSTORE SWAP1 PUSH1 0x1 ADD SWAP1 PUSH1 0x20 ADD DUP1 DUP4 GT PUSH2 0x248A JUMPI DUP3 SWAP1 SUB PUSH1 0x1F AND DUP3 ADD SWAP2 JUMPDEST POP POP POP POP POP SWAP1 POP PUSH2 0x93C JUMP JUMPDEST DUP1 MLOAD ISZERO PUSH2 0x24C3 JUMPI DUP1 MLOAD DUP1 DUP3 PUSH1 0x20 ADD REVERT JUMPDEST PUSH1 0x40 MLOAD PUSH4 0xD6BDA275 PUSH1 0xE0 SHL DUP2 MSTORE PUSH1 0x4 ADD PUSH1 0x40 MLOAD DUP1 SWAP2 SUB SWAP1 REVERT JUMPDEST DUP3 SLOAD PUSH0 SWAP1 DUP2 SWAP1 DUP1 ISZERO PUSH2 0x25D2 JUMPI PUSH0 PUSH2 0x24F8 DUP8 PUSH2 0x1CF5 PUSH1 0x1 DUP6 PUSH2 0x374A JUMP JUMPDEST DUP1 SLOAD SWAP1 SWAP2 POP PUSH6 0xFFFFFFFFFFFF DUP1 DUP3 AND SWAP2 PUSH1 0x1 PUSH1 0x30 SHL SWAP1 DIV PUSH1 0x1 PUSH1 0x1 PUSH1 0xD0 SHL SUB AND SWAP1 DUP9 AND DUP3 GT ISZERO PUSH2 0x253B JUMPI PUSH1 0x40 MLOAD PUSH4 0x2520601D PUSH1 0xE0 SHL DUP2 MSTORE PUSH1 0x4 ADD PUSH1 0x40 MLOAD DUP1 SWAP2 SUB SWAP1 REVERT JUMPDEST DUP8 PUSH6 0xFFFFFFFFFFFF AND DUP3 PUSH6 0xFFFFFFFFFFFF AND SUB PUSH2 0x2574 JUMPI DUP3 SLOAD PUSH6 0xFFFFFFFFFFFF AND PUSH1 0x1 PUSH1 0x30 SHL PUSH1 0x1 PUSH1 0x1 PUSH1 0xD0 SHL SUB DUP10 AND MUL OR DUP4 SSTORE PUSH2 0x25C4 JUMP JUMPDEST PUSH1 0x40 DUP1 MLOAD DUP1 DUP3 ADD SWAP1 SWAP2 MSTORE PUSH6 0xFFFFFFFFFFFF DUP1 DUP11 AND DUP3 MSTORE PUSH1 0x1 PUSH1 0x1 PUSH1 0xD0 SHL SUB DUP1 DUP11 AND PUSH1 0x20 DUP1 DUP6 ADD SWAP2 DUP3 MSTORE DUP14 SLOAD PUSH1 0x1 DUP2 ADD DUP16 SSTORE PUSH0 DUP16 DUP2 MSTORE SWAP2 SWAP1 SWAP2 KECCAK256 SWAP5 MLOAD SWAP2 MLOAD SWAP1 SWAP3 AND PUSH1 0x1 PUSH1 0x30 SHL MUL SWAP3 AND SWAP2 SWAP1 SWAP2 OR SWAP2 ADD SSTORE JUMPDEST SWAP5 POP DUP6 SWAP4 POP PUSH2 0x1EA8 SWAP3 POP POP POP JUMP JUMPDEST POP POP PUSH1 0x40 DUP1 MLOAD DUP1 DUP3 ADD SWAP1 SWAP2 MSTORE PUSH6 0xFFFFFFFFFFFF DUP1 DUP6 AND DUP3 MSTORE PUSH1 0x1 PUSH1 0x1 PUSH1 0xD0 SHL SUB DUP1 DUP6 AND PUSH1 0x20 DUP1 DUP6 ADD SWAP2 DUP3 MSTORE DUP9 SLOAD PUSH1 0x1 DUP2 ADD DUP11 SSTORE PUSH0 DUP11 DUP2 MSTORE SWAP2 DUP3 KECCAK256 SWAP6 MLOAD SWAP3 MLOAD SWAP1 SWAP4 AND PUSH1 0x1 PUSH1 0x30 SHL MUL SWAP2 SWAP1 SWAP4 AND OR SWAP3 ADD SWAP2 SWAP1 SWAP2 SSTORE SWAP1 POP DUP2 PUSH2 0x1EA8 JUMP JUMPDEST PUSH0 DUP1 DUP1 PUSH32 0x7FFFFFFFFFFFFFFFFFFFFFFFFFFFFFFF5D576E7357A4501DDFE92F46681B20A0 DUP5 GT ISZERO PUSH2 0x2665 JUMPI POP PUSH0 SWAP2 POP PUSH1 0x3 SWAP1 POP DUP3 PUSH2 0x26EA JUMP JUMPDEST PUSH1 0x40 DUP1 MLOAD PUSH0 DUP1 DUP3 MSTORE PUSH1 0x20 DUP3 ADD DUP1 DUP5 MSTORE DUP11 SWAP1 MSTORE PUSH1 0xFF DUP10 AND SWAP3 DUP3 ADD SWAP3 SWAP1 SWAP3 MSTORE PUSH1 0x60 DUP2 ADD DUP8 SWAP1 MSTORE PUSH1 0x80 DUP2 ADD DUP7 SWAP1 MSTORE PUSH1 0x1 SWAP1 PUSH1 0xA0 ADD PUSH1 0x20 PUSH1 0x40 MLOAD PUSH1 0x20 DUP2 SUB SWAP1 DUP1 DUP5 SUB SWAP1 DUP6 GAS STATICCALL ISZERO DUP1 ISZERO PUSH2 0x26B6 JUMPI RETURNDATASIZE PUSH0 PUSH0 RETURNDATACOPY RETURNDATASIZE PUSH0 REVERT JUMPDEST POP POP PUSH1 0x40 MLOAD PUSH1 0x1F NOT ADD MLOAD SWAP2 POP POP PUSH1 0x1 PUSH1 0x1 PUSH1 0xA0 SHL SUB DUP2 AND PUSH2 0x26E1 JUMPI POP PUSH0 SWAP3 POP PUSH1 0x1 SWAP2 POP DUP3 SWAP1 POP PUSH2 0x26EA JUMP JUMPDEST SWAP3 POP PUSH0 SWAP2 POP DUP2 SWAP1 POP JUMPDEST SWAP5 POP SWAP5 POP SWAP5 SWAP2 POP POP JUMP JUMPDEST PUSH0 PUSH1 0x1 DUP3 GT PUSH2 0x2701 JUMPI POP SWAP1 JUMP JUMPDEST DUP2 PUSH1 0x1 PUSH1 0x1 PUSH1 0x80 SHL DUP3 LT PUSH2 0x271A JUMPI PUSH1 0x80 SWAP2 SWAP1 SWAP2 SHR SWAP1 PUSH1 0x40 SHL JUMPDEST PUSH9 0x10000000000000000 DUP3 LT PUSH2 0x2735 JUMPI PUSH1 0x40 SWAP2 SWAP1 SWAP2 SHR SWAP1 PUSH1 0x20 SHL JUMPDEST PUSH5 0x100000000 DUP3 LT PUSH2 0x274C JUMPI PUSH1 0x20 SWAP2 SWAP1 SWAP2 SHR SWAP1 PUSH1 0x10 SHL JUMPDEST PUSH3 0x10000 DUP3 LT PUSH2 0x2761 JUMPI PUSH1 0x10 SWAP2 SWAP1 SWAP2 SHR SWAP1 PUSH1 0x8 SHL JUMPDEST PUSH2 0x100 DUP3 LT PUSH2 0x2775 JUMPI PUSH1 0x8 SWAP2 SWAP1 SWAP2 SHR SWAP1 PUSH1 0x4 SHL JUMPDEST PUSH1 0x10 DUP3 LT PUSH2 0x2788 JUMPI PUSH1 0x4 SWAP2 SWAP1 SWAP2 SHR SWAP1 PUSH1 0x2 SHL JUMPDEST PUSH1 0x4 DUP3 LT PUSH2 0x2794 JUMPI PUSH1 0x1 SHL JUMPDEST PUSH1 0x3 MUL PUSH1 0x1 SWAP1 DUP2 SHR SWAP1 DUP2 DUP6 DUP2 PUSH2 0x27AC JUMPI PUSH2 0x27AC PUSH2 0x38A4 JUMP JUMPDEST DIV DUP3 ADD SWAP1 SHR SWAP1 POP PUSH1 0x1 DUP2 DUP6 DUP2 PUSH2 0x27C4 JUMPI PUSH2 0x27C4 PUSH2 0x38A4 JUMP JUMPDEST DIV DUP3 ADD SWAP1 SHR SWAP1 POP PUSH1 0x1 DUP2 DUP6 DUP2 PUSH2 0x27DC JUMPI PUSH2 0x27DC PUSH2 0x38A4 JUMP JUMPDEST DIV DUP3 ADD SWAP1 SHR SWAP1 POP PUSH1 0x1 DUP2 DUP6 DUP2 PUSH2 0x27F4 JUMPI PUSH2 0x27F4 PUSH2 0x38A4 JUMP JUMPDEST DIV DUP3 ADD SWAP1 SHR SWAP1 POP PUSH1 0x1 DUP2 DUP6 DUP2 PUSH2 0x280C JUMPI PUSH2 0x280C PUSH2 0x38A4 JUMP JUMPDEST DIV DUP3 ADD SWAP1 SHR SWAP1 POP PUSH1 0x1 DUP2 DUP6 DUP2 PUSH2 0x2824 JUMPI PUSH2 0x2824 PUSH2 0x38A4 JUMP JUMPDEST DIV DUP3 ADD SWAP1 SHR SWAP1 POP PUSH2 0x2843 DUP2 DUP6 DUP2 PUSH2 0x283D JUMPI PUSH2 0x283D PUSH2 0x38A4 JUMP JUMPDEST DIV DUP3 GT SWAP1 JUMP JUMPDEST SWAP1 SUB SWAP4 SWAP3 POP POP POP JUMP JUMPDEST PUSH0 JUMPDEST DUP2 DUP4 LT ISZERO PUSH2 0x28A3 JUMPI PUSH0 PUSH2 0x2861 DUP5 DUP5 PUSH2 0x29A9 JUMP JUMPDEST PUSH0 DUP8 DUP2 MSTORE PUSH1 0x20 SWAP1 KECCAK256 SWAP1 SWAP2 POP PUSH6 0xFFFFFFFFFFFF DUP7 AND SWAP1 DUP3 ADD SLOAD PUSH6 0xFFFFFFFFFFFF AND GT ISZERO PUSH2 0x288F JUMPI DUP1 SWAP3 POP PUSH2 0x289D JUMP JUMPDEST PUSH2 0x289A DUP2 PUSH1 0x1 PUSH2 0x3635 JUMP JUMPDEST SWAP4 POP JUMPDEST POP PUSH2 0x284E JUMP JUMPDEST POP SWAP4 SWAP3 POP POP POP JUMP JUMPDEST PUSH0 DUP1 DUP5 DUP2 PUSH2 0x28BA DUP7 PUSH1 0x1 PUSH2 0x3635 JUMP JUMPDEST DUP6 GT DUP1 ISZERO PUSH2 0x28E2 JUMPI POP PUSH2 0x60F PUSH1 0xF3 SHL PUSH2 0x28D6 DUP4 DUP9 ADD PUSH1 0x20 ADD MLOAD SWAP1 JUMP JUMPDEST PUSH1 0x1 PUSH1 0x1 PUSH1 0xF0 SHL SUB NOT AND EQ JUMPDEST SWAP1 POP PUSH0 PUSH2 0x28F2 DUP3 ISZERO ISZERO PUSH1 0x2 PUSH2 0x38D0 JUMP JUMPDEST SWAP1 POP PUSH0 DUP1 PUSH2 0x2900 DUP4 DUP11 PUSH2 0x3635 JUMP JUMPDEST SWAP1 POP JUMPDEST DUP8 DUP2 LT ISZERO PUSH2 0x295B JUMPI PUSH0 PUSH2 0x2921 PUSH2 0x291C DUP8 DUP5 ADD PUSH1 0x20 ADD MLOAD SWAP1 JUMP JUMPDEST PUSH2 0x29C3 JUMP JUMPDEST SWAP1 POP PUSH1 0xF DUP2 PUSH1 0xFF AND GT ISZERO PUSH2 0x2940 JUMPI PUSH0 PUSH0 SWAP8 POP SWAP8 POP POP POP POP POP POP POP PUSH2 0x1EA8 JUMP JUMPDEST PUSH2 0x294B PUSH1 0x10 DUP5 PUSH2 0x38D0 JUMP JUMPDEST PUSH1 0xFF SWAP1 SWAP2 AND ADD SWAP2 POP PUSH1 0x1 ADD PUSH2 0x2903 JUMP JUMPDEST POP PUSH1 0x1 SWAP10 SWAP1 SWAP9 POP SWAP7 POP POP POP POP POP POP POP JUMP JUMPDEST PUSH1 0x60 PUSH0 PUSH2 0x2978 DUP4 PUSH2 0x2A3B JUMP JUMPDEST PUSH1 0x40 DUP1 MLOAD PUSH1 0x20 DUP1 DUP3 MSTORE DUP2 DUP4 ADD SWAP1 SWAP3 MSTORE SWAP2 SWAP3 POP PUSH0 SWAP2 SWAP1 PUSH1 0x20 DUP3 ADD DUP2 DUP1 CALLDATASIZE DUP4 CALLDATACOPY POP POP POP SWAP2 DUP3 MSTORE POP PUSH1 0x20 DUP2 ADD SWAP3 SWAP1 SWAP3 MSTORE POP SWAP1 JUMP JUMPDEST PUSH0 PUSH2 0x29B7 PUSH1 0x2 DUP5 DUP5 XOR PUSH2 0x38E7 JUMP JUMPDEST PUSH2 0x1207 SWAP1 DUP5 DUP5 AND PUSH2 0x3635 JUMP JUMPDEST PUSH0 PUSH1 0xF8 DUP3 SWAP1 SHR PUSH1 0x2F DUP2 GT DUP1 ISZERO PUSH2 0x29DC JUMPI POP PUSH1 0x3A DUP2 PUSH1 0xFF AND LT JUMPDEST ISZERO PUSH2 0x29EA JUMPI PUSH1 0x2F NOT ADD PUSH2 0x93C JUMP JUMPDEST PUSH1 0x60 DUP2 PUSH1 0xFF AND GT DUP1 ISZERO PUSH2 0x2A00 JUMPI POP PUSH1 0x67 DUP2 PUSH1 0xFF AND LT JUMPDEST ISZERO PUSH2 0x2A0E JUMPI PUSH1 0x56 NOT ADD PUSH2 0x93C JUMP JUMPDEST PUSH1 0x40 DUP2 PUSH1 0xFF AND GT DUP1 ISZERO PUSH2 0x2A24 JUMPI POP PUSH1 0x47 DUP2 PUSH1 0xFF AND LT JUMPDEST ISZERO PUSH2 0x2A32 JUMPI PUSH1 0x36 NOT ADD PUSH2 0x93C JUMP JUMPDEST POP PUSH1 0xFF SWAP3 SWAP2 POP POP JUMP JUMPDEST PUSH0 PUSH1 0xFF DUP3 AND PUSH1 0x1F DUP2 GT ISZERO PUSH2 0x93C JUMPI PUSH1 0x40 MLOAD PUSH4 0x2CD44AC3 PUSH1 0xE2 SHL DUP2 MSTORE PUSH1 0x4 ADD PUSH1 0x40 MLOAD DUP1 SWAP2 SUB SWAP1 REVERT JUMPDEST PUSH0 PUSH1 0x20 DUP3 DUP5 SUB SLT ISZERO PUSH2 0x2A72 JUMPI PUSH0 PUSH0 REVERT JUMPDEST DUP2 CALLDATALOAD PUSH1 0x1 PUSH1 0x1 PUSH1 0xE0 SHL SUB NOT DUP2 AND DUP2 EQ PUSH2 0x1207 JUMPI PUSH0 PUSH0 REVERT JUMPDEST PUSH0 PUSH1 0x20 DUP3 DUP5 SUB SLT ISZERO PUSH2 0x2A99 JUMPI PUSH0 PUSH0 REVERT JUMPDEST POP CALLDATALOAD SWAP2 SWAP1 POP JUMP JUMPDEST PUSH0 DUP2 MLOAD DUP1 DUP5 MSTORE DUP1 PUSH1 0x20 DUP5 ADD PUSH1 0x20 DUP7 ADD MCOPY PUSH0 PUSH1 0x20 DUP3 DUP7 ADD ADD MSTORE PUSH1 0x20 PUSH1 0x1F NOT PUSH1 0x1F DUP4 ADD AND DUP6 ADD ADD SWAP2 POP POP SWAP3 SWAP2 POP POP JUMP JUMPDEST PUSH1 0x20 DUP2 MSTORE PUSH0 PUSH2 0x1207 PUSH1 0x20 DUP4 ADD DUP5 PUSH2 0x2AA0 JUMP JUMPDEST DUP1 CALLDATALOAD PUSH1 0x1 PUSH1 0x1 PUSH1 0xA0 SHL SUB DUP2 AND DUP2 EQ PUSH2 0xDC8 JUMPI PUSH0 PUSH0 REVERT JUMPDEST PUSH4 0x4E487B71 PUSH1 0xE0 SHL PUSH0 MSTORE PUSH1 0x41 PUSH1 0x4 MSTORE PUSH1 0x24 PUSH0 REVERT JUMPDEST PUSH1 0x40 MLOAD PUSH1 0x1F DUP3 ADD PUSH1 0x1F NOT AND DUP2 ADD PUSH1 0x1 PUSH1 0x1 PUSH1 0x40 SHL SUB DUP2 GT DUP3 DUP3 LT OR ISZERO PUSH2 0x2B32 JUMPI PUSH2 0x2B32 PUSH2 0x2AF6 JUMP JUMPDEST PUSH1 0x40 MSTORE SWAP2 SWAP1 POP JUMP JUMPDEST PUSH0 PUSH1 0x1 PUSH1 0x1 PUSH1 0x40 SHL SUB DUP3 GT ISZERO PUSH2 0x2B52 JUMPI PUSH2 0x2B52 PUSH2 0x2AF6 JUMP JUMPDEST POP PUSH1 0x1F ADD PUSH1 0x1F NOT AND PUSH1 0x20 ADD SWAP1 JUMP JUMPDEST PUSH0 PUSH2 0x2B72 PUSH2 0x2B6D DUP5 PUSH2 0x2B3A JUMP JUMPDEST PUSH2 0x2B0A JUMP JUMPDEST SWAP1 POP DUP3 DUP2 MSTORE DUP4 DUP4 DUP4 ADD GT ISZERO PUSH2 0x2B85 JUMPI PUSH0 PUSH0 REVERT JUMPDEST DUP3 DUP3 PUSH1 0x20 DUP4 ADD CALLDATACOPY PUSH0 PUSH1 0x20 DUP5 DUP4 ADD ADD MSTORE SWAP4 SWAP3 POP POP POP JUMP JUMPDEST PUSH0 DUP3 PUSH1 0x1F DUP4 ADD SLT PUSH2 0x2BAA JUMPI PUSH0 PUSH0 REVERT JUMPDEST PUSH2 0x1207 DUP4 DUP4 CALLDATALOAD PUSH1 0x20 DUP6 ADD PUSH2 0x2B60 JUMP JUMPDEST PUSH0 PUSH0 PUSH0 PUSH0 PUSH1 0x80 DUP6 DUP8 SUB SLT ISZERO PUSH2 0x2BCC JUMPI PUSH0 PUSH0 REVERT JUMPDEST PUSH2 0x2BD5 DUP6 PUSH2 0x2AE0 JUMP JUMPDEST SWAP4 POP PUSH2 0x2BE3 PUSH1 0x20 DUP7 ADD PUSH2 0x2AE0 JUMP JUMPDEST SWAP3 POP PUSH1 0x40 DUP6 ADD CALLDATALOAD SWAP2 POP PUSH1 0x60 DUP6 ADD CALLDATALOAD PUSH1 0x1 PUSH1 0x1 PUSH1 0x40 SHL SUB DUP2 GT ISZERO PUSH2 0x2C04 JUMPI PUSH0 PUSH0 REVERT JUMPDEST PUSH2 0x2C10 DUP8 DUP3 DUP9 ADD PUSH2 0x2B9B JUMP JUMPDEST SWAP2 POP POP SWAP3 SWAP6 SWAP2 SWAP5 POP SWAP3 POP JUMP JUMPDEST PUSH0 PUSH1 0x1 PUSH1 0x1 PUSH1 0x40 SHL SUB DUP3 GT ISZERO PUSH2 0x2C34 JUMPI PUSH2 0x2C34 PUSH2 0x2AF6 JUMP JUMPDEST POP PUSH1 0x5 SHL PUSH1 0x20 ADD SWAP1 JUMP JUMPDEST PUSH0 DUP3 PUSH1 0x1F DUP4 ADD SLT PUSH2 0x2C4D JUMPI PUSH0 PUSH0 REVERT JUMPDEST DUP2 CALLDATALOAD PUSH2 0x2C5B PUSH2 0x2B6D DUP3 PUSH2 0x2C1C JUMP JUMPDEST DUP1 DUP3 DUP3 MSTORE PUSH1 0x20 DUP3 ADD SWAP2 POP PUSH1 0x20 DUP4 PUSH1 0x5 SHL DUP7 ADD ADD SWAP3 POP DUP6 DUP4 GT ISZERO PUSH2 0x2C7C JUMPI PUSH0 PUSH0 REVERT JUMPDEST PUSH1 0x20 DUP6 ADD JUMPDEST DUP4 DUP2 LT ISZERO PUSH2 0xA24 JUMPI PUSH2 0x2C92 DUP2 PUSH2 0x2AE0 JUMP JUMPDEST DUP4 MSTORE PUSH1 0x20 SWAP3 DUP4 ADD SWAP3 ADD PUSH2 0x2C81 JUMP JUMPDEST PUSH0 DUP3 PUSH1 0x1F DUP4 ADD SLT PUSH2 0x2CAF JUMPI PUSH0 PUSH0 REVERT JUMPDEST DUP2 CALLDATALOAD PUSH2 0x2CBD PUSH2 0x2B6D DUP3 PUSH2 0x2C1C JUMP JUMPDEST DUP1 DUP3 DUP3 MSTORE PUSH1 0x20 DUP3 ADD SWAP2 POP PUSH1 0x20 DUP4 PUSH1 0x5 SHL DUP7 ADD ADD SWAP3 POP DUP6 DUP4 GT ISZERO PUSH2 0x2CDE JUMPI PUSH0 PUSH0 REVERT JUMPDEST PUSH1 0x20 DUP6 ADD JUMPDEST DUP4 DUP2 LT ISZERO PUSH2 0xA24 JUMPI DUP1 CALLDATALOAD DUP4 MSTORE PUSH1 0x20 SWAP3 DUP4 ADD SWAP3 ADD PUSH2 0x2CE3 JUMP JUMPDEST PUSH0 DUP3 PUSH1 0x1F DUP4 ADD SLT PUSH2 0x2D0A JUMPI PUSH0 PUSH0 REVERT JUMPDEST DUP2 CALLDATALOAD PUSH2 0x2D18 PUSH2 0x2B6D DUP3 PUSH2 0x2C1C JUMP JUMPDEST DUP1 DUP3 DUP3 MSTORE PUSH1 0x20 DUP3 ADD SWAP2 POP PUSH1 0x20 DUP4 PUSH1 0x5 SHL DUP7 ADD ADD SWAP3 POP DUP6 DUP4 GT ISZERO PUSH2 0x2D39 JUMPI PUSH0 PUSH0 REVERT JUMPDEST PUSH1 0x20 DUP6 ADD JUMPDEST DUP4 DUP2 LT ISZERO PUSH2 0xA24 JUMPI DUP1 CALLDATALOAD PUSH1 0x1 PUSH1 0x1 PUSH1 0x40 SHL SUB DUP2 GT ISZERO PUSH2 0x2D5B JUMPI PUSH0 PUSH0 REVERT JUMPDEST PUSH2 0x2D6A DUP9 PUSH1 0x20 DUP4 DUP11 ADD ADD PUSH2 0x2B9B JUMP JUMPDEST DUP5 MSTORE POP PUSH1 0x20 SWAP3 DUP4 ADD SWAP3 ADD PUSH2 0x2D3E JUMP JUMPDEST PUSH0 PUSH0 PUSH0 PUSH0 PUSH1 0x80 DUP6 DUP8 SUB SLT ISZERO PUSH2 0x2D8C JUMPI PUSH0 PUSH0 REVERT JUMPDEST DUP5 CALLDATALOAD PUSH1 0x1 PUSH1 0x1 PUSH1 0x40 SHL SUB DUP2 GT ISZERO PUSH2 0x2DA1 JUMPI PUSH0 PUSH0 REVERT JUMPDEST PUSH2 0x2DAD DUP8 DUP3 DUP9 ADD PUSH2 0x2C3E JUMP JUMPDEST SWAP5 POP POP PUSH1 0x20 DUP6 ADD CALLDATALOAD PUSH1 0x1 PUSH1 0x1 PUSH1 0x40 SHL SUB DUP2 GT ISZERO PUSH2 0x2DC8 JUMPI PUSH0 PUSH0 REVERT JUMPDEST PUSH2 0x2DD4 DUP8 DUP3 DUP9 ADD PUSH2 0x2CA0 JUMP JUMPDEST SWAP4 POP POP PUSH1 0x40 DUP6 ADD CALLDATALOAD PUSH1 0x1 PUSH1 0x1 PUSH1 0x40 SHL SUB DUP2 GT ISZERO PUSH2 0x2DEF JUMPI PUSH0 PUSH0 REVERT JUMPDEST PUSH2 0x2DFB DUP8 DUP3 DUP9 ADD PUSH2 0x2CFB JUMP JUMPDEST SWAP5 SWAP8 SWAP4 SWAP7 POP SWAP4 SWAP5 PUSH1 0x60 ADD CALLDATALOAD SWAP4 POP POP POP JUMP JUMPDEST PUSH4 0x4E487B71 PUSH1 0xE0 SHL PUSH0 MSTORE PUSH1 0x21 PUSH1 0x4 MSTORE PUSH1 0x24 PUSH0 REVERT JUMPDEST PUSH1 0x8 DUP2 LT PUSH2 0x2E3C JUMPI PUSH4 0x4E487B71 PUSH1 0xE0 SHL PUSH0 MSTORE PUSH1 0x21 PUSH1 0x4 MSTORE PUSH1 0x24 PUSH0 REVERT JUMPDEST SWAP1 MSTORE JUMP JUMPDEST PUSH1 0x20 DUP2 ADD PUSH2 0x93C DUP3 DUP5 PUSH2 0x2E20 JUMP JUMPDEST PUSH0 PUSH0 PUSH1 0x40 DUP4 DUP6 SUB SLT ISZERO PUSH2 0x2E5F JUMPI PUSH0 PUSH0 REVERT JUMPDEST DUP3 CALLDATALOAD SWAP2 POP PUSH2 0x2E6F PUSH1 0x20 DUP5 ADD PUSH2 0x2AE0 JUMP JUMPDEST SWAP1 POP SWAP3 POP SWAP3 SWAP1 POP JUMP JUMPDEST DUP1 CALLDATALOAD PUSH1 0xFF DUP2 AND DUP2 EQ PUSH2 0xDC8 JUMPI PUSH0 PUSH0 REVERT JUMPDEST PUSH0 PUSH0 PUSH1 0x40 DUP4 DUP6 SUB SLT ISZERO PUSH2 0x2E99 JUMPI PUSH0 PUSH0 REVERT JUMPDEST DUP3 CALLDATALOAD SWAP2 POP PUSH2 0x2E6F PUSH1 0x20 DUP5 ADD PUSH2 0x2E78 JUMP JUMPDEST PUSH0 PUSH0 DUP4 PUSH1 0x1F DUP5 ADD SLT PUSH2 0x2EB9 JUMPI PUSH0 PUSH0 REVERT JUMPDEST POP DUP2 CALLDATALOAD PUSH1 0x1 PUSH1 0x1 PUSH1 0x40 SHL SUB DUP2 GT ISZERO PUSH2 0x2ECF JUMPI PUSH0 PUSH0 REVERT JUMPDEST PUSH1 0x20 DUP4 ADD SWAP2 POP DUP4 PUSH1 0x20 DUP3 DUP6 ADD ADD GT ISZERO PUSH2 0x2EE6 JUMPI PUSH0 PUSH0 REVERT JUMPDEST SWAP3 POP SWAP3 SWAP1 POP JUMP JUMPDEST PUSH0 PUSH0 PUSH0 PUSH0 PUSH0 PUSH0 PUSH0 PUSH1 0xC0 DUP9 DUP11 SUB SLT ISZERO PUSH2 0x2F03 JUMPI PUSH0 PUSH0 REVERT JUMPDEST DUP8 CALLDATALOAD SWAP7 POP PUSH2 0x2F13 PUSH1 0x20 DUP10 ADD PUSH2 0x2E78 JUMP JUMPDEST SWAP6 POP PUSH2 0x2F21 PUSH1 0x40 DUP10 ADD PUSH2 0x2AE0 JUMP JUMPDEST SWAP5 POP PUSH1 0x60 DUP9 ADD CALLDATALOAD PUSH1 0x1 PUSH1 0x1 PUSH1 0x40 SHL SUB DUP2 GT ISZERO PUSH2 0x2F3B JUMPI PUSH0 PUSH0 REVERT JUMPDEST PUSH2 0x2F47 DUP11 DUP3 DUP12 ADD PUSH2 0x2EA9 JUMP JUMPDEST SWAP1 SWAP6 POP SWAP4 POP POP PUSH1 0x80 DUP9 ADD CALLDATALOAD PUSH1 0x1 PUSH1 0x1 PUSH1 0x40 SHL SUB DUP2 GT ISZERO PUSH2 0x2F65 JUMPI PUSH0 PUSH0 REVERT JUMPDEST PUSH2 0x2F71 DUP11 DUP3 DUP12 ADD PUSH2 0x2B9B JUMP JUMPDEST SWAP3 POP POP PUSH1 0xA0 DUP9 ADD CALLDATALOAD PUSH1 0x1 PUSH1 0x1 PUSH1 0x40 SHL SUB DUP2 GT ISZERO PUSH2 0x2F8C JUMPI PUSH0 PUSH0 REVERT JUMPDEST PUSH2 0x2F98 DUP11 DUP3 DUP12 ADD PUSH2 0x2B9B JUMP JUMPDEST SWAP2 POP POP SWAP3 SWAP6 SWAP9 SWAP2 SWAP5 SWAP8 POP SWAP3 SWAP6 POP JUMP JUMPDEST PUSH0 PUSH0 PUSH0 PUSH0 PUSH0 PUSH1 0x80 DUP7 DUP9 SUB SLT ISZERO PUSH2 0x2FBB JUMPI PUSH0 PUSH0 REVERT JUMPDEST DUP6 CALLDATALOAD SWAP5 POP PUSH2 0x2FCB PUSH1 0x20 DUP8 ADD PUSH2 0x2E78 JUMP JUMPDEST SWAP4 POP PUSH1 0x40 DUP7 ADD CALLDATALOAD PUSH1 0x1 PUSH1 0x1 PUSH1 0x40 SHL SUB DUP2 GT ISZERO PUSH2 0x2FE5 JUMPI PUSH0 PUSH0 REVERT JUMPDEST PUSH2 0x2FF1 DUP9 DUP3 DUP10 ADD PUSH2 0x2EA9 JUMP JUMPDEST SWAP1 SWAP5 POP SWAP3 POP POP PUSH1 0x60 DUP7 ADD CALLDATALOAD PUSH1 0x1 PUSH1 0x1 PUSH1 0x40 SHL SUB DUP2 GT ISZERO PUSH2 0x300F JUMPI PUSH0 PUSH0 REVERT JUMPDEST PUSH2 0x301B DUP9 DUP3 DUP10 ADD PUSH2 0x2B9B JUMP JUMPDEST SWAP2 POP POP SWAP3 SWAP6 POP SWAP3 SWAP6 SWAP1 SWAP4 POP JUMP JUMPDEST PUSH0 PUSH0 PUSH0 PUSH0 PUSH1 0x60 DUP6 DUP8 SUB SLT ISZERO PUSH2 0x303B JUMPI PUSH0 PUSH0 REVERT JUMPDEST DUP5 CALLDATALOAD SWAP4 POP PUSH2 0x304B PUSH1 0x20 DUP7 ADD PUSH2 0x2E78 JUMP JUMPDEST SWAP3 POP PUSH1 0x40 DUP6 ADD CALLDATALOAD PUSH1 0x1 PUSH1 0x1 PUSH1 0x40 SHL SUB DUP2 GT ISZERO PUSH2 0x3065 JUMPI PUSH0 PUSH0 REVERT JUMPDEST PUSH2 0x3071 DUP8 DUP3 DUP9 ADD PUSH2 0x2EA9 JUMP JUMPDEST SWAP6 SWAP9 SWAP5 SWAP8 POP SWAP6 POP POP POP POP JUMP JUMPDEST PUSH0 PUSH0 PUSH0 PUSH0 PUSH1 0x80 DUP6 DUP8 SUB SLT ISZERO PUSH2 0x3090 JUMPI PUSH0 PUSH0 REVERT JUMPDEST DUP5 CALLDATALOAD PUSH1 0x1 PUSH1 0x1 PUSH1 0x40 SHL SUB DUP2 GT ISZERO PUSH2 0x30A5 JUMPI PUSH0 PUSH0 REVERT JUMPDEST PUSH2 0x30B1 DUP8 DUP3 DUP9 ADD PUSH2 0x2C3E JUMP JUMPDEST SWAP5 POP POP PUSH1 0x20 DUP6 ADD CALLDATALOAD PUSH1 0x1 PUSH1 0x1 PUSH1 0x40 SHL SUB DUP2 GT ISZERO PUSH2 0x30CC JUMPI PUSH0 PUSH0 REVERT JUMPDEST PUSH2 0x30D8 DUP8 DUP3 DUP9 ADD PUSH2 0x2CA0 JUMP JUMPDEST SWAP4 POP POP PUSH1 0x40 DUP6 ADD CALLDATALOAD PUSH1 0x1 PUSH1 0x1 PUSH1 0x40 SHL SUB DUP2 GT ISZERO PUSH2 0x30F3 JUMPI PUSH0 PUSH0 REVERT JUMPDEST PUSH2 0x30FF DUP8 DUP3 DUP9 ADD PUSH2 0x2CFB JUMP JUMPDEST SWAP3 POP POP PUSH1 0x60 DUP6 ADD CALLDATALOAD PUSH1 0x1 PUSH1 0x1 PUSH1 0x40 SHL SUB DUP2 GT ISZERO PUSH2 0x311A JUMPI PUSH0 PUSH0 REVERT JUMPDEST DUP6 ADD PUSH1 0x1F DUP2 ADD DUP8 SGT PUSH2 0x312A JUMPI PUSH0 PUSH0 REVERT JUMPDEST PUSH2 0x2C10 DUP8 DUP3 CALLDATALOAD PUSH1 0x20 DUP5 ADD PUSH2 0x2B60 JUMP JUMPDEST PUSH0 PUSH1 0x20 DUP3 DUP5 SUB SLT ISZERO PUSH2 0x3149 JUMPI PUSH0 PUSH0 REVERT JUMPDEST PUSH2 0x1207 DUP3 PUSH2 0x2AE0 JUMP JUMPDEST PUSH0 DUP2 MLOAD DUP1 DUP5 MSTORE PUSH1 0x20 DUP5 ADD SWAP4 POP PUSH1 0x20 DUP4 ADD PUSH0 JUMPDEST DUP3 DUP2 LT ISZERO PUSH2 0x3182 JUMPI DUP2 MLOAD DUP7 MSTORE PUSH1 0x20 SWAP6 DUP7 ADD SWAP6 SWAP1 SWAP2 ADD SWAP1 PUSH1 0x1 ADD PUSH2 0x3164 JUMP JUMPDEST POP SWAP4 SWAP5 SWAP4 POP POP POP POP JUMP JUMPDEST PUSH1 0xFF PUSH1 0xF8 SHL DUP9 AND DUP2 MSTORE PUSH1 0xE0 PUSH1 0x20 DUP3 ADD MSTORE PUSH0 PUSH2 0x31AA PUSH1 0xE0 DUP4 ADD DUP10 PUSH2 0x2AA0 JUMP JUMPDEST DUP3 DUP2 SUB PUSH1 0x40 DUP5 ADD MSTORE PUSH2 0x31BC DUP2 DUP10 PUSH2 0x2AA0 JUMP JUMPDEST PUSH1 0x60 DUP5 ADD DUP9 SWAP1 MSTORE PUSH1 0x1 PUSH1 0x1 PUSH1 0xA0 SHL SUB DUP8 AND PUSH1 0x80 DUP6 ADD MSTORE PUSH1 0xA0 DUP5 ADD DUP7 SWAP1 MSTORE DUP4 DUP2 SUB PUSH1 0xC0 DUP6 ADD MSTORE SWAP1 POP PUSH2 0x31ED DUP2 DUP6 PUSH2 0x3152 JUMP JUMPDEST SWAP11 SWAP10 POP POP POP POP POP POP POP POP POP POP JUMP JUMPDEST PUSH0 PUSH0 PUSH0 PUSH0 PUSH1 0x80 DUP6 DUP8 SUB SLT ISZERO PUSH2 0x320E JUMPI PUSH0 PUSH0 REVERT JUMPDEST DUP5 CALLDATALOAD SWAP4 POP PUSH2 0x321E PUSH1 0x20 DUP7 ADD PUSH2 0x2E78 JUMP JUMPDEST SWAP3 POP PUSH2 0x322C PUSH1 0x40 DUP7 ADD PUSH2 0x2AE0 JUMP JUMPDEST SWAP2 POP PUSH1 0x60 DUP6 ADD CALLDATALOAD PUSH1 0x1 PUSH1 0x1 PUSH1 0x40 SHL SUB DUP2 GT ISZERO PUSH2 0x2C04 JUMPI PUSH0 PUSH0 REVERT JUMPDEST PUSH0 PUSH0 PUSH0 PUSH1 0x60 DUP5 DUP7 SUB SLT ISZERO PUSH2 0x3258 JUMPI PUSH0 PUSH0 REVERT JUMPDEST PUSH2 0x3261 DUP5 PUSH2 0x2AE0 JUMP JUMPDEST SWAP3 POP PUSH1 0x20 DUP5 ADD CALLDATALOAD SWAP2 POP PUSH1 0x40 DUP5 ADD CALLDATALOAD PUSH1 0x1 PUSH1 0x1 PUSH1 0x40 SHL SUB DUP2 GT ISZERO PUSH2 0x3282 JUMPI PUSH0 PUSH0 REVERT JUMPDEST PUSH2 0x328E DUP7 DUP3 DUP8 ADD PUSH2 0x2B9B JUMP JUMPDEST SWAP2 POP POP SWAP3 POP SWAP3 POP SWAP3 JUMP JUMPDEST PUSH0 PUSH0 PUSH0 PUSH0 PUSH0 PUSH1 0xA0 DUP7 DUP9 SUB SLT ISZERO PUSH2 0x32AC JUMPI PUSH0 PUSH0 REVERT JUMPDEST PUSH2 0x32B5 DUP7 PUSH2 0x2AE0 JUMP JUMPDEST SWAP5 POP PUSH2 0x32C3 PUSH1 0x20 DUP8 ADD PUSH2 0x2AE0 JUMP JUMPDEST SWAP4 POP PUSH1 0x40 DUP7 ADD CALLDATALOAD PUSH1 0x1 PUSH1 0x1 PUSH1 0x40 SHL SUB DUP2 GT ISZERO PUSH2 0x32DD JUMPI PUSH0 PUSH0 REVERT JUMPDEST PUSH2 0x32E9 DUP9 DUP3 DUP10 ADD PUSH2 0x2CA0 JUMP JUMPDEST SWAP4 POP POP PUSH1 0x60 DUP7 ADD CALLDATALOAD PUSH1 0x1 PUSH1 0x1 PUSH1 0x40 SHL SUB DUP2 GT ISZERO PUSH2 0x3304 JUMPI PUSH0 PUSH0 REVERT JUMPDEST PUSH2 0x3310 DUP9 DUP3 DUP10 ADD PUSH2 0x2CA0 JUMP JUMPDEST SWAP3 POP POP PUSH1 0x80 DUP7 ADD CALLDATALOAD PUSH1 0x1 PUSH1 0x1 PUSH1 0x40 SHL SUB DUP2 GT ISZERO PUSH2 0x300F JUMPI PUSH0 PUSH0 REVERT JUMPDEST PUSH0 PUSH0 PUSH0 PUSH0 PUSH1 0x60 DUP6 DUP8 SUB SLT ISZERO PUSH2 0x333E JUMPI PUSH0 PUSH0 REVERT JUMPDEST PUSH2 0x3347 DUP6 PUSH2 0x2AE0 JUMP JUMPDEST SWAP4 POP PUSH1 0x20 DUP6 ADD CALLDATALOAD SWAP3 POP PUSH1 0x40 DUP6 ADD CALLDATALOAD PUSH1 0x1 PUSH1 0x1 PUSH1 0x40 SHL SUB DUP2 GT ISZERO PUSH2 0x3065 JUMPI PUSH0 PUSH0 REVERT JUMPDEST PUSH0 PUSH0 PUSH1 0x40 DUP4 DUP6 SUB SLT ISZERO PUSH2 0x3379 JUMPI PUSH0 PUSH0 REVERT JUMPDEST PUSH2 0x3382 DUP4 PUSH2 0x2AE0 JUMP JUMPDEST SWAP5 PUSH1 0x20 SWAP4 SWAP1 SWAP4 ADD CALLDATALOAD SWAP4 POP POP POP JUMP JUMPDEST PUSH0 PUSH0 PUSH0 PUSH0 PUSH0 PUSH1 0xA0 DUP7 DUP9 SUB SLT ISZERO PUSH2 0x33A4 JUMPI PUSH0 PUSH0 REVERT JUMPDEST PUSH2 0x33AD DUP7 PUSH2 0x2AE0 JUMP JUMPDEST SWAP5 POP PUSH2 0x33BB PUSH1 0x20 DUP8 ADD PUSH2 0x2AE0 JUMP JUMPDEST SWAP4 POP PUSH1 0x40 DUP7 ADD CALLDATALOAD SWAP3 POP PUSH1 0x60 DUP7 ADD CALLDATALOAD SWAP2 POP PUSH1 0x80 DUP7 ADD CALLDATALOAD PUSH1 0x1 PUSH1 0x1 PUSH1 0x40 SHL SUB DUP2 GT ISZERO PUSH2 0x300F JUMPI PUSH0 PUSH0 REVERT JUMPDEST PUSH1 0x1 DUP2 DUP2 SHR SWAP1 DUP3 AND DUP1 PUSH2 0x33F7 JUMPI PUSH1 0x7F DUP3 AND SWAP2 POP JUMPDEST PUSH1 0x20 DUP3 LT DUP2 SUB PUSH2 0x3415 JUMPI PUSH4 0x4E487B71 PUSH1 0xE0 SHL PUSH0 MSTORE PUSH1 0x22 PUSH1 0x4 MSTORE PUSH1 0x24 PUSH0 REVERT JUMPDEST POP SWAP2 SWAP1 POP JUMP JUMPDEST PUSH4 0x4E487B71 PUSH1 0xE0 SHL PUSH0 MSTORE PUSH1 0x32 PUSH1 0x4 MSTORE PUSH1 0x24 PUSH0 REVERT JUMPDEST PUSH0 PUSH1 0x20 DUP3 DUP5 SUB SLT ISZERO PUSH2 0x343F JUMPI PUSH0 PUSH0 REVERT JUMPDEST DUP2 MLOAD PUSH1 0x1 PUSH1 0x1 PUSH1 0x40 SHL SUB DUP2 GT ISZERO PUSH2 0x3454 JUMPI PUSH0 PUSH0 REVERT JUMPDEST DUP3 ADD PUSH1 0x1F DUP2 ADD DUP5 SGT PUSH2 0x3464 JUMPI PUSH0 PUSH0 REVERT JUMPDEST DUP1 MLOAD PUSH2 0x3472 PUSH2 0x2B6D DUP3 PUSH2 0x2B3A JUMP JUMPDEST DUP2 DUP2 MSTORE DUP6 PUSH1 0x20 DUP4 DUP6 ADD ADD GT ISZERO PUSH2 0x3486 JUMPI PUSH0 PUSH0 REVERT JUMPDEST DUP2 PUSH1 0x20 DUP5 ADD PUSH1 0x20 DUP4 ADD MCOPY PUSH0 SWAP2 DUP2 ADD PUSH1 0x20 ADD SWAP2 SWAP1 SWAP2 MSTORE SWAP5 SWAP4 POP POP POP POP JUMP JUMPDEST DUP2 DUP4 DUP3 CALLDATACOPY PUSH0 SWAP2 ADD SWAP1 DUP2 MSTORE SWAP2 SWAP1 POP JUMP JUMPDEST PUSH4 0x4E487B71 PUSH1 0xE0 SHL PUSH0 MSTORE PUSH1 0x11 PUSH1 0x4 MSTORE PUSH1 0x24 PUSH0 REVERT JUMPDEST PUSH0 PUSH1 0x20 DUP3 DUP5 SUB SLT ISZERO PUSH2 0x34D6 JUMPI PUSH0 PUSH0 REVERT JUMPDEST DUP2 MLOAD PUSH6 0xFFFFFFFFFFFF DUP2 AND DUP2 EQ PUSH2 0x1207 JUMPI PUSH0 PUSH0 REVERT JUMPDEST PUSH6 0xFFFFFFFFFFFF DUP2 DUP2 AND DUP4 DUP3 AND ADD SWAP1 DUP2 GT ISZERO PUSH2 0x93C JUMPI PUSH2 0x93C PUSH2 0x34B2 JUMP JUMPDEST PUSH0 DUP2 MLOAD DUP1 DUP5 MSTORE PUSH1 0x20 DUP5 ADD SWAP4 POP PUSH1 0x20 DUP4 ADD PUSH0 JUMPDEST DUP3 DUP2 LT ISZERO PUSH2 0x3182 JUMPI DUP2 MLOAD PUSH1 0x1 PUSH1 0x1 PUSH1 0xA0 SHL SUB AND DUP7 MSTORE PUSH1 0x20 SWAP6 DUP7 ADD SWAP6 SWAP1 SWAP2 ADD SWAP1 PUSH1 0x1 ADD PUSH2 0x351B JUMP JUMPDEST PUSH0 DUP3 DUP3 MLOAD DUP1 DUP6 MSTORE PUSH1 0x20 DUP6 ADD SWAP5 POP PUSH1 0x20 DUP2 PUSH1 0x5 SHL DUP4 ADD ADD PUSH1 0x20 DUP6 ADD PUSH0 JUMPDEST DUP4 DUP2 LT ISZERO PUSH2 0x3590 JUMPI PUSH1 0x1F NOT DUP6 DUP5 SUB ADD DUP9 MSTORE PUSH2 0x357A DUP4 DUP4 MLOAD PUSH2 0x2AA0 JUMP JUMPDEST PUSH1 0x20 SWAP9 DUP10 ADD SWAP9 SWAP1 SWAP4 POP SWAP2 SWAP1 SWAP2 ADD SWAP1 PUSH1 0x1 ADD PUSH2 0x355E JUMP JUMPDEST POP SWAP1 SWAP7 SWAP6 POP POP POP POP POP POP JUMP JUMPDEST PUSH1 0x80 DUP2 MSTORE PUSH0 PUSH2 0x35AE PUSH1 0x80 DUP4 ADD DUP8 PUSH2 0x3509 JUMP JUMPDEST DUP3 DUP2 SUB PUSH1 0x20 DUP5 ADD MSTORE PUSH2 0x35C0 DUP2 DUP8 PUSH2 0x3152 JUMP JUMPDEST SWAP1 POP DUP3 DUP2 SUB PUSH1 0x40 DUP5 ADD MSTORE PUSH2 0x35D4 DUP2 DUP7 PUSH2 0x3542 JUMP JUMPDEST SWAP2 POP POP DUP3 PUSH1 0x60 DUP4 ADD MSTORE SWAP6 SWAP5 POP POP POP POP POP JUMP JUMPDEST PUSH0 PUSH1 0x20 DUP3 DUP5 SUB SLT ISZERO PUSH2 0x35F6 JUMPI PUSH0 PUSH0 REVERT JUMPDEST POP MLOAD SWAP2 SWAP1 POP JUMP JUMPDEST DUP4 DUP2 MSTORE PUSH1 0x60 DUP2 ADD PUSH2 0x3611 PUSH1 0x20 DUP4 ADD DUP6 PUSH2 0x2E20 JUMP JUMPDEST DUP3 PUSH1 0x40 DUP4 ADD MSTORE SWAP5 SWAP4 POP POP POP POP JUMP JUMPDEST PUSH0 DUP3 MLOAD DUP1 PUSH1 0x20 DUP6 ADD DUP5 MCOPY PUSH0 SWAP3 ADD SWAP2 DUP3 MSTORE POP SWAP2 SWAP1 POP JUMP JUMPDEST DUP1 DUP3 ADD DUP1 DUP3 GT ISZERO PUSH2 0x93C JUMPI PUSH2 0x93C PUSH2 0x34B2 JUMP JUMPDEST PUSH1 0xFF DUP2 DUP2 AND DUP4 DUP3 AND ADD SWAP1 DUP2 GT ISZERO PUSH2 0x93C JUMPI PUSH2 0x93C PUSH2 0x34B2 JUMP JUMPDEST PUSH1 0x1 DUP2 JUMPDEST PUSH1 0x1 DUP5 GT ISZERO PUSH2 0x1EA8 JUMPI DUP1 DUP6 DIV DUP2 GT ISZERO PUSH2 0x3680 JUMPI PUSH2 0x3680 PUSH2 0x34B2 JUMP JUMPDEST PUSH1 0x1 DUP5 AND ISZERO PUSH2 0x368E JUMPI SWAP1 DUP2 MUL SWAP1 JUMPDEST PUSH1 0x1 SWAP4 SWAP1 SWAP4 SHR SWAP3 DUP1 MUL PUSH2 0x3665 JUMP JUMPDEST PUSH0 DUP3 PUSH2 0x36AA JUMPI POP PUSH1 0x1 PUSH2 0x93C JUMP JUMPDEST DUP2 PUSH2 0x36B6 JUMPI POP PUSH0 PUSH2 0x93C JUMP JUMPDEST DUP2 PUSH1 0x1 DUP2 EQ PUSH2 0x36CC JUMPI PUSH1 0x2 DUP2 EQ PUSH2 0x36D6 JUMPI PUSH2 0x36F2 JUMP JUMPDEST PUSH1 0x1 SWAP2 POP POP PUSH2 0x93C JUMP JUMPDEST PUSH1 0xFF DUP5 GT ISZERO PUSH2 0x36E7 JUMPI PUSH2 0x36E7 PUSH2 0x34B2 JUMP JUMPDEST POP POP PUSH1 0x1 DUP3 SHL PUSH2 0x93C JUMP JUMPDEST POP PUSH1 0x20 DUP4 LT PUSH2 0x133 DUP4 LT AND PUSH1 0x4E DUP5 LT PUSH1 0xB DUP5 LT AND OR ISZERO PUSH2 0x3715 JUMPI POP DUP2 DUP2 EXP PUSH2 0x93C JUMP JUMPDEST PUSH2 0x3721 PUSH0 NOT DUP5 DUP5 PUSH2 0x3661 JUMP JUMPDEST DUP1 PUSH0 NOT DIV DUP3 GT ISZERO PUSH2 0x3734 JUMPI PUSH2 0x3734 PUSH2 0x34B2 JUMP JUMPDEST MUL SWAP4 SWAP3 POP POP POP JUMP JUMPDEST PUSH0 PUSH2 0x1207 PUSH1 0xFF DUP5 AND DUP4 PUSH2 0x369C JUMP JUMPDEST DUP2 DUP2 SUB DUP2 DUP2 GT ISZERO PUSH2 0x93C JUMPI PUSH2 0x93C PUSH2 0x34B2 JUMP JUMPDEST DUP5 DUP2 MSTORE PUSH1 0xFF DUP5 AND PUSH1 0x20 DUP3 ADD MSTORE DUP3 PUSH1 0x40 DUP3 ADD MSTORE PUSH1 0x80 PUSH1 0x60 DUP3 ADD MSTORE PUSH0 PUSH2 0x100F PUSH1 0x80 DUP4 ADD DUP5 PUSH2 0x2AA0 JUMP JUMPDEST DUP6 DUP2 MSTORE PUSH1 0xFF DUP6 AND PUSH1 0x20 DUP3 ADD MSTORE DUP4 PUSH1 0x40 DUP3 ADD MSTORE PUSH1 0xA0 PUSH1 0x60 DUP3 ADD MSTORE PUSH0 PUSH2 0x37AB PUSH1 0xA0 DUP4 ADD DUP6 PUSH2 0x2AA0 JUMP JUMPDEST DUP3 DUP2 SUB PUSH1 0x80 DUP5 ADD MSTORE PUSH2 0x37BD DUP2 DUP6 PUSH2 0x2AA0 JUMP JUMPDEST SWAP9 SWAP8 POP POP POP POP POP POP POP POP JUMP JUMPDEST DUP10 DUP2 MSTORE PUSH1 0x1 PUSH1 0x1 PUSH1 0xA0 SHL SUB DUP10 AND PUSH1 0x20 DUP3 ADD MSTORE PUSH2 0x120 PUSH1 0x40 DUP3 ADD DUP2 SWAP1 MSTORE PUSH0 SWAP1 PUSH2 0x37F3 SWAP1 DUP4 ADD DUP11 PUSH2 0x3509 JUMP JUMPDEST DUP3 DUP2 SUB PUSH1 0x60 DUP5 ADD MSTORE PUSH2 0x3805 DUP2 DUP11 PUSH2 0x3152 JUMP JUMPDEST SWAP1 POP DUP3 DUP2 SUB PUSH1 0x80 DUP5 ADD MSTORE DUP1 DUP9 MLOAD DUP1 DUP4 MSTORE PUSH1 0x20 DUP4 ADD SWAP2 POP PUSH1 0x20 DUP2 PUSH1 0x5 SHL DUP5 ADD ADD PUSH1 0x20 DUP12 ADD PUSH0 JUMPDEST DUP4 DUP2 LT ISZERO PUSH2 0x385C JUMPI PUSH1 0x1F NOT DUP7 DUP5 SUB ADD DUP6 MSTORE PUSH2 0x3846 DUP4 DUP4 MLOAD PUSH2 0x2AA0 JUMP JUMPDEST PUSH1 0x20 SWAP6 DUP7 ADD SWAP6 SWAP1 SWAP4 POP SWAP2 SWAP1 SWAP2 ADD SWAP1 PUSH1 0x1 ADD PUSH2 0x382A JUMP JUMPDEST POP POP DUP6 DUP2 SUB PUSH1 0xA0 DUP8 ADD MSTORE PUSH2 0x3870 DUP2 DUP12 PUSH2 0x3542 JUMP JUMPDEST SWAP4 POP POP POP POP DUP6 PUSH1 0xC0 DUP5 ADD MSTORE DUP5 PUSH1 0xE0 DUP5 ADD MSTORE DUP3 DUP2 SUB PUSH2 0x100 DUP5 ADD MSTORE PUSH2 0x3894 DUP2 DUP6 PUSH2 0x2AA0 JUMP JUMPDEST SWAP13 SWAP12 POP POP POP POP POP POP POP POP POP POP POP POP JUMP JUMPDEST PUSH4 0x4E487B71 PUSH1 0xE0 SHL PUSH0 MSTORE PUSH1 0x12 PUSH1 0x4 MSTORE PUSH1 0x24 PUSH0 REVERT JUMPDEST DUP3 DUP2 MSTORE PUSH1 0x40 PUSH1 0x20 DUP3 ADD MSTORE PUSH0 PUSH2 0x1204 PUSH1 0x40 DUP4 ADD DUP5 PUSH2 0x2AA0 JUMP JUMPDEST DUP1 DUP3 MUL DUP2 ISZERO DUP3 DUP3 DIV DUP5 EQ OR PUSH2 0x93C JUMPI PUSH2 0x93C PUSH2 0x34B2 JUMP JUMPDEST PUSH0 DUP3 PUSH2 0x3901 JUMPI PUSH4 0x4E487B71 PUSH1 0xE0 SHL PUSH0 MSTORE PUSH1 0x12 PUSH1 0x4 MSTORE PUSH1 0x24 PUSH0 REVERT JUMPDEST POP DIV SWAP1 JUMP INVALID LOG2 PUSH5 0x6970667358 0x22 SLT KECCAK256 SWAP4 PUSH12 0xB3F4F35E6BF54B5C5427DB88 DUP13 0xD7 0xA7 0xBC SDIV 0xBE PUSH14 0x991667935D2C4800701E8E64736F PUSH13 0x634300081D0033000000000000 "
		},
		"gasEstimates": {
			"creation": {
				"codeDepositCost": "2930400",
				"executionCost": "infinite",
				"totalCost": "infinite"
			},
			"external": {
				"BALLOT_TYPEHASH()": "260",
				"CLOCK_MODE()": "infinite",
				"COUNTING_MODE()": "infinite",
				"EXTENDED_BALLOT_TYPEHASH()": "328",
				"cancel(address[],uint256[],bytes[],bytes32)": "infinite",
				"castVote(uint256,uint8)": "infinite",
				"castVoteBySig(uint256,uint8,address,bytes)": "infinite",
				"castVoteWithReason(uint256,uint8,string)": "infinite",
				"castVoteWithReasonAndParams(uint256,uint8,string,bytes)": "infinite",
				"castVoteWithReasonAndParamsBySig(uint256,uint8,address,string,bytes,bytes)": "infinite",
				"clock()": "infinite",
				"eip712Domain()": "infinite",
				"execute(address[],uint256[],bytes[],bytes32)": "infinite",
				"getProposalId(address[],uint256[],bytes[],bytes32)": "infinite",
				"getVotes(address,uint256)": "infinite",
				"getVotesWithParams(address,uint256,bytes)": "infinite",
				"hasVoted(uint256,address)": "2713",
				"hashProposal(address[],uint256[],bytes[],bytes32)": "infinite",
				"name()": "infinite",
				"nonces(address)": "2602",
				"onERC1155BatchReceived(address,address,uint256[],uint256[],bytes)": "infinite",
				"onERC1155Received(address,address,uint256,uint256,bytes)": "infinite",
				"onERC721Received(address,address,uint256,bytes)": "infinite",
				"proposalDeadline(uint256)": "2685",
				"proposalEta(uint256)": "2602",
				"proposalNeedsQueuing(uint256)": "399",
				"proposalProposer(uint256)": "2609",
				"proposalSnapshot(uint256)": "2582",
				"proposalThreshold()": "235",
				"proposalVotes(uint256)": "6868",
				"propose(address[],uint256[],bytes[],string)": "infinite",
				"queue(address[],uint256[],bytes[],bytes32)": "infinite",
				"quorum(uint256)": "infinite",
				"quorumDenominator()": "236",
				"quorumNumerator()": "4782",
				"quorumNumerator(uint256)": "2757",
				"relay(address,uint256,bytes)": "infinite",
				"state(uint256)": "infinite",
				"supportsInterface(bytes4)": "580",
				"token()": "infinite",
				"updateQuorumNumerator(uint256)": "infinite",
				"version()": "infinite",
				"votingDelay()": "336",
				"votingPeriod()": "249"
			}
		},
		"methodIdentifiers": {
			"BALLOT_TYPEHASH()": "deaaa7cc",
			"CLOCK_MODE()": "4bf5d7e9",
			"COUNTING_MODE()": "dd4e2ba5",
			"EXTENDED_BALLOT_TYPEHASH()": "2fe3e261",
			"cancel(address[],uint256[],bytes[],bytes32)": "452115d6",
			"castVote(uint256,uint8)": "56781388",
			"castVoteBySig(uint256,uint8,address,bytes)": "8ff262e3",
			"castVoteWithReason(uint256,uint8,string)": "7b3c71d3",
			"castVoteWithReasonAndParams(uint256,uint8,string,bytes)": "5f398a14",
			"castVoteWithReasonAndParamsBySig(uint256,uint8,address,string,bytes,bytes)": "5b8d0e0d",
			"clock()": "91ddadf4",
			"eip712Domain()": "84b0196e",
			"execute(address[],uint256[],bytes[],bytes32)": "2656227d",
			"getProposalId(address[],uint256[],bytes[],bytes32)": "a8f8a668",
			"getVotes(address,uint256)": "eb9019d4",
			"getVotesWithParams(address,uint256,bytes)": "9a802a6d",
			"hasVoted(uint256,address)": "43859632",
			"hashProposal(address[],uint256[],bytes[],bytes32)": "c59057e4",
			"name()": "06fdde03",
			"nonces(address)": "7ecebe00",
			"onERC1155BatchReceived(address,address,uint256[],uint256[],bytes)": "bc197c81",
			"onERC1155Received(address,address,uint256,uint256,bytes)": "f23a6e61",
			"onERC721Received(address,address,uint256,bytes)": "150b7a02",
			"proposalDeadline(uint256)": "c01f9e37",
			"proposalEta(uint256)": "ab58fb8e",
			"proposalNeedsQueuing(uint256)": "a9a95294",
			"proposalProposer(uint256)": "143489d0",
			"proposalSnapshot(uint256)": "2d63f693",
			"proposalThreshold()": "b58131b0",
			"proposalVotes(uint256)": "544ffc9c",
			"propose(address[],uint256[],bytes[],string)": "7d5e81e2",
			"queue(address[],uint256[],bytes[],bytes32)": "160cbed7",
			"quorum(uint256)": "f8ce560a",
			"quorumDenominator()": "97c3d334",
			"quorumNumerator()": "a7713a70",
			"quorumNumerator(uint256)": "60c4247f",
			"relay(address,uint256,bytes)": "c28bc2fa",
			"state(uint256)": "3e4f49e6",
			"supportsInterface(bytes4)": "01ffc9a7",
			"token()": "fc0c546a",
			"updateQuorumNumerator(uint256)": "06f3f9e6",
			"version()": "54fd4d50",
			"votingDelay()": "3932abb1",
			"votingPeriod()": "02a251a3"
		}
	},
	"abi": [
		{
			"inputs": [
				{
					"internalType": "contract IVotes",
					"name": "_token",
					"type": "address"
				}
			],
			"stateMutability": "nonpayable",
			"type": "constructor"
		},
		{
			"inputs": [],
			"name": "CheckpointUnorderedInsertion",
			"type": "error"
		},
		{
			"inputs": [],
			"name": "FailedCall",
			"type": "error"
		},
		{
			"inputs": [
				{
					"internalType": "address",
					"name": "voter",
					"type": "address"
				}
			],
			"name": "GovernorAlreadyCastVote",
			"type": "error"
		},
		{
			"inputs": [
				{
					"internalType": "uint256",
					"name": "proposalId",
					"type": "uint256"
				}
			],
			"name": "GovernorAlreadyQueuedProposal",
			"type": "error"
		},
		{
			"inputs": [],
			"name": "GovernorDisabledDeposit",
			"type": "error"
		},
		{
			"inputs": [
				{
					"internalType": "address",
					"name": "proposer",
					"type": "address"
				},
				{
					"internalType": "uint256",
					"name": "votes",
					"type": "uint256"
				},
				{
					"internalType": "uint256",
					"name": "threshold",
					"type": "uint256"
				}
			],
			"name": "GovernorInsufficientProposerVotes",
			"type": "error"
		},
		{
			"inputs": [
				{
					"internalType": "uint256",
					"name": "targets",
					"type": "uint256"
				},
				{
					"internalType": "uint256",
					"name": "calldatas",
					"type": "uint256"
				},
				{
					"internalType": "uint256",
					"name": "values",
					"type": "uint256"
				}
			],
			"name": "GovernorInvalidProposalLength",
			"type": "error"
		},
		{
			"inputs": [
				{
					"internalType": "uint256",
					"name": "quorumNumerator",
					"type": "uint256"
				},
				{
					"internalType": "uint256",
					"name": "quorumDenominator",
					"type": "uint256"
				}
			],
			"name": "GovernorInvalidQuorumFraction",
			"type": "error"
		},
		{
			"inputs": [
				{
					"internalType": "address",
					"name": "voter",
					"type": "address"
				}
			],
			"name": "GovernorInvalidSignature",
			"type": "error"
		},
		{
			"inputs": [],
			"name": "GovernorInvalidVoteParams",
			"type": "error"
		},
		{
			"inputs": [],
			"name": "GovernorInvalidVoteType",
			"type": "error"
		},
		{
			"inputs": [
				{
					"internalType": "uint256",
					"name": "votingPeriod",
					"type": "uint256"
				}
			],
			"name": "GovernorInvalidVotingPeriod",
			"type": "error"
		},
		{
			"inputs": [
				{
					"internalType": "uint256",
					"name": "proposalId",
					"type": "uint256"
				}
			],
			"name": "GovernorNonexistentProposal",
			"type": "error"
		},
		{
			"inputs": [
				{
					"internalType": "uint256",
					"name": "proposalId",
					"type": "uint256"
				}
			],
			"name": "GovernorNotQueuedProposal",
			"type": "error"
		},
		{
			"inputs": [
				{
					"internalType": "address",
					"name": "account",
					"type": "address"
				}
			],
			"name": "GovernorOnlyExecutor",
			"type": "error"
		},
		{
			"inputs": [],
			"name": "GovernorQueueNotImplemented",
			"type": "error"
		},
		{
			"inputs": [
				{
					"internalType": "address",
					"name": "proposer",
					"type": "address"
				}
			],
			"name": "GovernorRestrictedProposer",
			"type": "error"
		},
		{
			"inputs": [
				{
					"internalType": "uint256",
					"name": "proposalId",
					"type": "uint256"
				},
				{
					"internalType": "address",
					"name": "account",
					"type": "address"
				}
			],
			"name": "GovernorUnableToCancel",
			"type": "error"
		},
		{
			"inputs": [
				{
					"internalType": "uint256",
					"name": "proposalId",
					"type": "uint256"
				},
				{
					"internalType": "enum IGovernor.ProposalState",
					"name": "current",
					"type": "uint8"
				},
				{
					"internalType": "bytes32",
					"name": "expectedStates",
					"type": "bytes32"
				}
			],
			"name": "GovernorUnexpectedProposalState",
			"type": "error"
		},
		{
			"inputs": [
				{
					"internalType": "address",
					"name": "account",
					"type": "address"
				},
				{
					"internalType": "uint256",
					"name": "currentNonce",
					"type": "uint256"
				}
			],
			"name": "InvalidAccountNonce",
			"type": "error"
		},
		{
			"inputs": [],
			"name": "InvalidShortString",
			"type": "error"
		},
		{
			"inputs": [
				{
					"internalType": "uint8",
					"name": "bits",
					"type": "uint8"
				},
				{
					"internalType": "uint256",
					"name": "value",
					"type": "uint256"
				}
			],
			"name": "SafeCastOverflowedUintDowncast",
			"type": "error"
		},
		{
			"inputs": [
				{
					"internalType": "string",
					"name": "str",
					"type": "string"
				}
			],
			"name": "StringTooLong",
			"type": "error"
		},
		{
			"anonymous": false,
			"inputs": [],
			"name": "EIP712DomainChanged",
			"type": "event"
		},
		{
			"anonymous": false,
			"inputs": [
				{
					"indexed": false,
					"internalType": "uint256",
					"name": "proposalId",
					"type": "uint256"
				}
			],
			"name": "ProposalCanceled",
			"type": "event"
		},
		{
			"anonymous": false,
			"inputs": [
				{
					"indexed": false,
					"internalType": "uint256",
					"name": "proposalId",
					"type": "uint256"
				},
				{
					"indexed": false,
					"internalType": "address",
					"name": "proposer",
					"type": "address"
				},
				{
					"indexed": false,
					"internalType": "address[]",
					"name": "targets",
					"type": "address[]"
				},
				{
					"indexed": false,
					"internalType": "uint256[]",
					"name": "values",
					"type": "uint256[]"
				},
				{
					"indexed": false,
					"internalType": "string[]",
					"name": "signatures",
					"type": "string[]"
				},
				{
					"indexed": false,
					"internalType": "bytes[]",
					"name": "calldatas",
					"type": "bytes[]"
				},
				{
					"indexed": false,
					"internalType": "uint256",
					"name": "voteStart",
					"type": "uint256"
				},
				{
					"indexed": false,
					"internalType": "uint256",
					"name": "voteEnd",
					"type": "uint256"
				},
				{
					"indexed": false,
					"internalType": "string",
					"name": "description",
					"type": "string"
				}
			],
			"name": "ProposalCreated",
			"type": "event"
		},
		{
			"anonymous": false,
			"inputs": [
				{
					"indexed": false,
					"internalType": "uint256",
					"name": "proposalId",
					"type": "uint256"
				}
			],
			"name": "ProposalExecuted",
			"type": "event"
		},
		{
			"anonymous": false,
			"inputs": [
				{
					"indexed": false,
					"internalType": "uint256",
					"name": "proposalId",
					"type": "uint256"
				},
				{
					"indexed": false,
					"internalType": "uint256",
					"name": "etaSeconds",
					"type": "uint256"
				}
			],
			"name": "ProposalQueued",
			"type": "event"
		},
		{
			"anonymous": false,
			"inputs": [
				{
					"indexed": false,
					"internalType": "uint256",
					"name": "oldQuorumNumerator",
					"type": "uint256"
				},
				{
					"indexed": false,
					"internalType": "uint256",
					"name": "newQuorumNumerator",
					"type": "uint256"
				}
			],
			"name": "QuorumNumeratorUpdated",
			"type": "event"
		},
		{
			"anonymous": false,
			"inputs": [
				{
					"indexed": true,
					"internalType": "address",
					"name": "voter",
					"type": "address"
				},
				{
					"indexed": false,
					"internalType": "uint256",
					"name": "proposalId",
					"type": "uint256"
				},
				{
					"indexed": false,
					"internalType": "uint8",
					"name": "support",
					"type": "uint8"
				},
				{
					"indexed": false,
					"internalType": "uint256",
					"name": "weight",
					"type": "uint256"
				},
				{
					"indexed": false,
					"internalType": "string",
					"name": "reason",
					"type": "string"
				}
			],
			"name": "VoteCast",
			"type": "event"
		},
		{
			"anonymous": false,
			"inputs": [
				{
					"indexed": true,
					"internalType": "address",
					"name": "voter",
					"type": "address"
				},
				{
					"indexed": false,
					"internalType": "uint256",
					"name": "proposalId",
					"type": "uint256"
				},
				{
					"indexed": false,
					"internalType": "uint8",
					"name": "support",
					"type": "uint8"
				},
				{
					"indexed": false,
					"internalType": "uint256",
					"name": "weight",
					"type": "uint256"
				},
				{
					"indexed": false,
					"internalType": "string",
					"name": "reason",
					"type": "string"
				},
				{
					"indexed": false,
					"internalType": "bytes",
					"name": "params",
					"type": "bytes"
				}
			],
			"name": "VoteCastWithParams",
			"type": "event"
		},
		{
			"inputs": [],
			"name": "BALLOT_TYPEHASH",
			"outputs": [
				{
					"internalType": "bytes32",
					"name": "",
					"type": "bytes32"
				}
			],
			"stateMutability": "view",
			"type": "function"
		},
		{
			"inputs": [],
			"name": "CLOCK_MODE",
			"outputs": [
				{
					"internalType": "string",
					"name": "",
					"type": "string"
				}
			],
			"stateMutability": "view",
			"type": "function"
		},
		{
			"inputs": [],
			"name": "COUNTING_MODE",
			"outputs": [
				{
					"internalType": "string",
					"name": "",
					"type": "string"
				}
			],
			"stateMutability": "pure",
			"type": "function"
		},
		{
			"inputs": [],
			"name": "EXTENDED_BALLOT_TYPEHASH",
			"outputs": [
				{
					"internalType": "bytes32",
					"name": "",
					"type": "bytes32"
				}
			],
			"stateMutability": "view",
			"type": "function"
		},
		{
			"inputs": [
				{
					"internalType": "address[]",
					"name": "targets",
					"type": "address[]"
				},
				{
					"internalType": "uint256[]",
					"name": "values",
					"type": "uint256[]"
				},
				{
					"internalType": "bytes[]",
					"name": "calldatas",
					"type": "bytes[]"
				},
				{
					"internalType": "bytes32",
					"name": "descriptionHash",
					"type": "bytes32"
				}
			],
			"name": "cancel",
			"outputs": [
				{
					"internalType": "uint256",
					"name": "",
					"type": "uint256"
				}
			],
			"stateMutability": "nonpayable",
			"type": "function"
		},
		{
			"inputs": [
				{
					"internalType": "uint256",
					"name": "proposalId",
					"type": "uint256"
				},
				{
					"internalType": "uint8",
					"name": "support",
					"type": "uint8"
				}
			],
			"name": "castVote",
			"outputs": [
				{
					"internalType": "uint256",
					"name": "",
					"type": "uint256"
				}
			],
			"stateMutability": "nonpayable",
			"type": "function"
		},
		{
			"inputs": [
				{
					"internalType": "uint256",
					"name": "proposalId",
					"type": "uint256"
				},
				{
					"internalType": "uint8",
					"name": "support",
					"type": "uint8"
				},
				{
					"internalType": "address",
					"name": "voter",
					"type": "address"
				},
				{
					"internalType": "bytes",
					"name": "signature",
					"type": "bytes"
				}
			],
			"name": "castVoteBySig",
			"outputs": [
				{
					"internalType": "uint256",
					"name": "",
					"type": "uint256"
				}
			],
			"stateMutability": "nonpayable",
			"type": "function"
		},
		{
			"inputs": [
				{
					"internalType": "uint256",
					"name": "proposalId",
					"type": "uint256"
				},
				{
					"internalType": "uint8",
					"name": "support",
					"type": "uint8"
				},
				{
					"internalType": "string",
					"name": "reason",
					"type": "string"
				}
			],
			"name": "castVoteWithReason",
			"outputs": [
				{
					"internalType": "uint256",
					"name": "",
					"type": "uint256"
				}
			],
			"stateMutability": "nonpayable",
			"type": "function"
		},
		{
			"inputs": [
				{
					"internalType": "uint256",
					"name": "proposalId",
					"type": "uint256"
				},
				{
					"internalType": "uint8",
					"name": "support",
					"type": "uint8"
				},
				{
					"internalType": "string",
					"name": "reason",
					"type": "string"
				},
				{
					"internalType": "bytes",
					"name": "params",
					"type": "bytes"
				}
			],
			"name": "castVoteWithReasonAndParams",
			"outputs": [
				{
					"internalType": "uint256",
					"name": "",
					"type": "uint256"
				}
			],
			"stateMutability": "nonpayable",
			"type": "function"
		},
		{
			"inputs": [
				{
					"internalType": "uint256",
					"name": "proposalId",
					"type": "uint256"
				},
				{
					"internalType": "uint8",
					"name": "support",
					"type": "uint8"
				},
				{
					"internalType": "address",
					"name": "voter",
					"type": "address"
				},
				{
					"internalType": "string",
					"name": "reason",
					"type": "string"
				},
				{
					"internalType": "bytes",
					"name": "params",
					"type": "bytes"
				},
				{
					"internalType": "bytes",
					"name": "signature",
					"type": "bytes"
				}
			],
			"name": "castVoteWithReasonAndParamsBySig",
			"outputs": [
				{
					"internalType": "uint256",
					"name": "",
					"type": "uint256"
				}
			],
			"stateMutability": "nonpayable",
			"type": "function"
		},
		{
			"inputs": [],
			"name": "clock",
			"outputs": [
				{
					"internalType": "uint48",
					"name": "",
					"type": "uint48"
				}
			],
			"stateMutability": "view",
			"type": "function"
		},
		{
			"inputs": [],
			"name": "eip712Domain",
			"outputs": [
				{
					"internalType": "bytes1",
					"name": "fields",
					"type": "bytes1"
				},
				{
					"internalType": "string",
					"name": "name",
					"type": "string"
				},
				{
					"internalType": "string",
					"name": "version",
					"type": "string"
				},
				{
					"internalType": "uint256",
					"name": "chainId",
					"type": "uint256"
				},
				{
					"internalType": "address",
					"name": "verifyingContract",
					"type": "address"
				},
				{
					"internalType": "bytes32",
					"name": "salt",
					"type": "bytes32"
				},
				{
					"internalType": "uint256[]",
					"name": "extensions",
					"type": "uint256[]"
				}
			],
			"stateMutability": "view",
			"type": "function"
		},
		{
			"inputs": [
				{
					"internalType": "address[]",
					"name": "targets",
					"type": "address[]"
				},
				{
					"internalType": "uint256[]",
					"name": "values",
					"type": "uint256[]"
				},
				{
					"internalType": "bytes[]",
					"name": "calldatas",
					"type": "bytes[]"
				},
				{
					"internalType": "bytes32",
					"name": "descriptionHash",
					"type": "bytes32"
				}
			],
			"name": "execute",
			"outputs": [
				{
					"internalType": "uint256",
					"name": "",
					"type": "uint256"
				}
			],
			"stateMutability": "payable",
			"type": "function"
		},
		{
			"inputs": [
				{
					"internalType": "address[]",
					"name": "targets",
					"type": "address[]"
				},
				{
					"internalType": "uint256[]",
					"name": "values",
					"type": "uint256[]"
				},
				{
					"internalType": "bytes[]",
					"name": "calldatas",
					"type": "bytes[]"
				},
				{
					"internalType": "bytes32",
					"name": "descriptionHash",
					"type": "bytes32"
				}
			],
			"name": "getProposalId",
			"outputs": [
				{
					"internalType": "uint256",
					"name": "",
					"type": "uint256"
				}
			],
			"stateMutability": "view",
			"type": "function"
		},
		{
			"inputs": [
				{
					"internalType": "address",
					"name": "account",
					"type": "address"
				},
				{
					"internalType": "uint256",
					"name": "timepoint",
					"type": "uint256"
				}
			],
			"name": "getVotes",
			"outputs": [
				{
					"internalType": "uint256",
					"name": "",
					"type": "uint256"
				}
			],
			"stateMutability": "view",
			"type": "function"
		},
		{
			"inputs": [
				{
					"internalType": "address",
					"name": "account",
					"type": "address"
				},
				{
					"internalType": "uint256",
					"name": "timepoint",
					"type": "uint256"
				},
				{
					"internalType": "bytes",
					"name": "params",
					"type": "bytes"
				}
			],
			"name": "getVotesWithParams",
			"outputs": [
				{
					"internalType": "uint256",
					"name": "",
					"type": "uint256"
				}
			],
			"stateMutability": "view",
			"type": "function"
		},
		{
			"inputs": [
				{
					"internalType": "uint256",
					"name": "proposalId",
					"type": "uint256"
				},
				{
					"internalType": "address",
					"name": "account",
					"type": "address"
				}
			],
			"name": "hasVoted",
			"outputs": [
				{
					"internalType": "bool",
					"name": "",
					"type": "bool"
				}
			],
			"stateMutability": "view",
			"type": "function"
		},
		{
			"inputs": [
				{
					"internalType": "address[]",
					"name": "targets",
					"type": "address[]"
				},
				{
					"internalType": "uint256[]",
					"name": "values",
					"type": "uint256[]"
				},
				{
					"internalType": "bytes[]",
					"name": "calldatas",
					"type": "bytes[]"
				},
				{
					"internalType": "bytes32",
					"name": "descriptionHash",
					"type": "bytes32"
				}
			],
			"name": "hashProposal",
			"outputs": [
				{
					"internalType": "uint256",
					"name": "",
					"type": "uint256"
				}
			],
			"stateMutability": "pure",
			"type": "function"
		},
		{
			"inputs": [],
			"name": "name",
			"outputs": [
				{
					"internalType": "string",
					"name": "",
					"type": "string"
				}
			],
			"stateMutability": "view",
			"type": "function"
		},
		{
			"inputs": [
				{
					"internalType": "address",
					"name": "owner",
					"type": "address"
				}
			],
			"name": "nonces",
			"outputs": [
				{
					"internalType": "uint256",
					"name": "",
					"type": "uint256"
				}
			],
			"stateMutability": "view",
			"type": "function"
		},
		{
			"inputs": [
				{
					"internalType": "address",
					"name": "",
					"type": "address"
				},
				{
					"internalType": "address",
					"name": "",
					"type": "address"
				},
				{
					"internalType": "uint256[]",
					"name": "",
					"type": "uint256[]"
				},
				{
					"internalType": "uint256[]",
					"name": "",
					"type": "uint256[]"
				},
				{
					"internalType": "bytes",
					"name": "",
					"type": "bytes"
				}
			],
			"name": "onERC1155BatchReceived",
			"outputs": [
				{
					"internalType": "bytes4",
					"name": "",
					"type": "bytes4"
				}
			],
			"stateMutability": "nonpayable",
			"type": "function"
		},
		{
			"inputs": [
				{
					"internalType": "address",
					"name": "",
					"type": "address"
				},
				{
					"internalType": "address",
					"name": "",
					"type": "address"
				},
				{
					"internalType": "uint256",
					"name": "",
					"type": "uint256"
				},
				{
					"internalType": "uint256",
					"name": "",
					"type": "uint256"
				},
				{
					"internalType": "bytes",
					"name": "",
					"type": "bytes"
				}
			],
			"name": "onERC1155Received",
			"outputs": [
				{
					"internalType": "bytes4",
					"name": "",
					"type": "bytes4"
				}
			],
			"stateMutability": "nonpayable",
			"type": "function"
		},
		{
			"inputs": [
				{
					"internalType": "address",
					"name": "",
					"type": "address"
				},
				{
					"internalType": "address",
					"name": "",
					"type": "address"
				},
				{
					"internalType": "uint256",
					"name": "",
					"type": "uint256"
				},
				{
					"internalType": "bytes",
					"name": "",
					"type": "bytes"
				}
			],
			"name": "onERC721Received",
			"outputs": [
				{
					"internalType": "bytes4",
					"name": "",
					"type": "bytes4"
				}
			],
			"stateMutability": "nonpayable",
			"type": "function"
		},
		{
			"inputs": [
				{
					"internalType": "uint256",
					"name": "proposalId",
					"type": "uint256"
				}
			],
			"name": "proposalDeadline",
			"outputs": [
				{
					"internalType": "uint256",
					"name": "",
					"type": "uint256"
				}
			],
			"stateMutability": "view",
			"type": "function"
		},
		{
			"inputs": [
				{
					"internalType": "uint256",
					"name": "proposalId",
					"type": "uint256"
				}
			],
			"name": "proposalEta",
			"outputs": [
				{
					"internalType": "uint256",
					"name": "",
					"type": "uint256"
				}
			],
			"stateMutability": "view",
			"type": "function"
		},
		{
			"inputs": [
				{
					"internalType": "uint256",
					"name": "",
					"type": "uint256"
				}
			],
			"name": "proposalNeedsQueuing",
			"outputs": [
				{
					"internalType": "bool",
					"name": "",
					"type": "bool"
				}
			],
			"stateMutability": "view",
			"type": "function"
		},
		{
			"inputs": [
				{
					"internalType": "uint256",
					"name": "proposalId",
					"type": "uint256"
				}
			],
			"name": "proposalProposer",
			"outputs": [
				{
					"internalType": "address",
					"name": "",
					"type": "address"
				}
			],
			"stateMutability": "view",
			"type": "function"
		},
		{
			"inputs": [
				{
					"internalType": "uint256",
					"name": "proposalId",
					"type": "uint256"
				}
			],
			"name": "proposalSnapshot",
			"outputs": [
				{
					"internalType": "uint256",
					"name": "",
					"type": "uint256"
				}
			],
			"stateMutability": "view",
			"type": "function"
		},
		{
			"inputs": [],
			"name": "proposalThreshold",
			"outputs": [
				{
					"internalType": "uint256",
					"name": "",
					"type": "uint256"
				}
			],
			"stateMutability": "pure",
			"type": "function"
		},
		{
			"inputs": [
				{
					"internalType": "uint256",
					"name": "proposalId",
					"type": "uint256"
				}
			],
			"name": "proposalVotes",
			"outputs": [
				{
					"internalType": "uint256",
					"name": "againstVotes",
					"type": "uint256"
				},
				{
					"internalType": "uint256",
					"name": "forVotes",
					"type": "uint256"
				},
				{
					"internalType": "uint256",
					"name": "abstainVotes",
					"type": "uint256"
				}
			],
			"stateMutability": "view",
			"type": "function"
		},
		{
			"inputs": [
				{
					"internalType": "address[]",
					"name": "targets",
					"type": "address[]"
				},
				{
					"internalType": "uint256[]",
					"name": "values",
					"type": "uint256[]"
				},
				{
					"internalType": "bytes[]",
					"name": "calldatas",
					"type": "bytes[]"
				},
				{
					"internalType": "string",
					"name": "description",
					"type": "string"
				}
			],
			"name": "propose",
			"outputs": [
				{
					"internalType": "uint256",
					"name": "",
					"type": "uint256"
				}
			],
			"stateMutability": "nonpayable",
			"type": "function"
		},
		{
			"inputs": [
				{
					"internalType": "address[]",
					"name": "targets",
					"type": "address[]"
				},
				{
					"internalType": "uint256[]",
					"name": "values",
					"type": "uint256[]"
				},
				{
					"internalType": "bytes[]",
					"name": "calldatas",
					"type": "bytes[]"
				},
				{
					"internalType": "bytes32",
					"name": "descriptionHash",
					"type": "bytes32"
				}
			],
			"name": "queue",
			"outputs": [
				{
					"internalType": "uint256",
					"name": "",
					"type": "uint256"
				}
			],
			"stateMutability": "nonpayable",
			"type": "function"
		},
		{
			"inputs": [
				{
					"internalType": "uint256",
					"name": "timepoint",
					"type": "uint256"
				}
			],
			"name": "quorum",
			"outputs": [
				{
					"internalType": "uint256",
					"name": "",
					"type": "uint256"
				}
			],
			"stateMutability": "view",
			"type": "function"
		},
		{
			"inputs": [],
			"name": "quorumDenominator",
			"outputs": [
				{
					"internalType": "uint256",
					"name": "",
					"type": "uint256"
				}
			],
			"stateMutability": "view",
			"type": "function"
		},
		{
			"inputs": [
				{
					"internalType": "uint256",
					"name": "timepoint",
					"type": "uint256"
				}
			],
			"name": "quorumNumerator",
			"outputs": [
				{
					"internalType": "uint256",
					"name": "",
					"type": "uint256"
				}
			],
			"stateMutability": "view",
			"type": "function"
		},
		{
			"inputs": [],
			"name": "quorumNumerator",
			"outputs": [
				{
					"internalType": "uint256",
					"name": "",
					"type": "uint256"
				}
			],
			"stateMutability": "view",
			"type": "function"
		},
		{
			"inputs": [
				{
					"internalType": "address",
					"name": "target",
					"type": "address"
				},
				{
					"internalType": "uint256",
					"name": "value",
					"type": "uint256"
				},
				{
					"internalType": "bytes",
					"name": "data",
					"type": "bytes"
				}
			],
			"name": "relay",
			"outputs": [],
			"stateMutability": "payable",
			"type": "function"
		},
		{
			"inputs": [
				{
					"internalType": "uint256",
					"name": "proposalId",
					"type": "uint256"
				}
			],
			"name": "state",
			"outputs": [
				{
					"internalType": "enum IGovernor.ProposalState",
					"name": "",
					"type": "uint8"
				}
			],
			"stateMutability": "view",
			"type": "function"
		},
		{
			"inputs": [
				{
					"internalType": "bytes4",
					"name": "interfaceId",
					"type": "bytes4"
				}
			],
			"name": "supportsInterface",
			"outputs": [
				{
					"internalType": "bool",
					"name": "",
					"type": "bool"
				}
			],
			"stateMutability": "view",
			"type": "function"
		},
		{
			"inputs": [],
			"name": "token",
			"outputs": [
				{
					"internalType": "contract IERC5805",
					"name": "",
					"type": "address"
				}
			],
			"stateMutability": "view",
			"type": "function"
		},
		{
			"inputs": [
				{
					"internalType": "uint256",
					"name": "newQuorumNumerator",
					"type": "uint256"
				}
			],
			"name": "updateQuorumNumerator",
			"outputs": [],
			"stateMutability": "nonpayable",
			"type": "function"
		},
		{
			"inputs": [],
			"name": "version",
			"outputs": [
				{
					"internalType": "string",
					"name": "",
					"type": "string"
				}
			],
			"stateMutability": "view",
			"type": "function"
		},
		{
			"inputs": [],
			"name": "votingDelay",
			"outputs": [
				{
					"internalType": "uint256",
					"name": "",
					"type": "uint256"
				}
			],
			"stateMutability": "pure",
			"type": "function"
		},
		{
			"inputs": [],
			"name": "votingPeriod",
			"outputs": [
				{
					"internalType": "uint256",
					"name": "",
					"type": "uint256"
				}
			],
			"stateMutability": "pure",
			"type": "function"
		},
		{
			"stateMutability": "payable",
			"type": "receive"
		}
	]
}