{
	"governance/BizContract.sol": {
		"BizContract": {
			"abi": [
				{
					"inputs": [
						{
							"internalType": "uint256",
							"name": "_var",
							"type": "uint256"
						}
					],
					"name": "call",
					"outputs": [],
					"stateMutability": "payable",
					"type": "function"
				},
				{
					"inputs": [],
					"name": "showCallData",
					"outputs": [
						{
							"internalType": "bytes",
							"name": "",
							"type": "bytes"
						}
					],
					"stateMutability": "view",
					"type": "function"
				},
				{
					"inputs": [],
					"name": "x",
					"outputs": [
						{
							"internalType": "uint256",
							"name": "",
							"type": "uint256"
						}
					],
					"stateMutability": "view",
					"type": "function"
				}
			],
			"devdoc": {
				"kind": "dev",
				"methods": {},
				"version": 1
			},
			"evm": {
				"assembly": "    /* \"governance/BizContract.sol\":77:323  contract BizContract{... */\n  mstore(0x40, 0x80)\n  callvalue\n  dup1\n  iszero\n  tag_1\n  jumpi\n  revert(0x00, 0x00)\ntag_1:\n  pop\n  dataSize(sub_0)\n  dup1\n  dataOffset(sub_0)\n  0x00\n  codecopy\n  0x00\n  return\nstop\n\nsub_0: assembly {\n        /* \"governance/BizContract.sol\":77:323  contract BizContract{... */\n      mstore(0x40, 0x80)\n      jumpi(tag_1, lt(calldatasize, 0x04))\n      shr(0xe0, calldataload(0x00))\n      dup1\n      0x0c55699c\n      eq\n      tag_2\n      jumpi\n      dup1\n      0x2b096926\n      eq\n      tag_3\n      jumpi\n      dup1\n      0xdde9a460\n      eq\n      tag_4\n      jumpi\n    tag_1:\n      revert(0x00, 0x00)\n        /* \"governance/BizContract.sol\":104:117  uint public x */\n    tag_2:\n      callvalue\n      dup1\n      iszero\n      tag_5\n      jumpi\n      revert(0x00, 0x00)\n    tag_5:\n      pop\n      tag_6\n      sload(0x00)\n      dup2\n      jump\n    tag_6:\n      mload(0x40)\n        /* \"#utility.yul\":160:185   */\n      swap1\n      dup2\n      mstore\n        /* \"#utility.yul\":148:150   */\n      0x20\n        /* \"#utility.yul\":133:151   */\n      add\n        /* \"governance/BizContract.sol\":104:117  uint public x */\n    tag_8:\n      mload(0x40)\n      dup1\n      swap2\n      sub\n      swap1\n      return\n        /* \"governance/BizContract.sol\":126:195  function call(uint _var) external payable {... */\n    tag_3:\n      tag_10\n      tag_11\n      calldatasize\n      0x04\n      tag_12\n      jump\t// in\n    tag_11:\n        /* \"governance/BizContract.sol\":179:180  x */\n      0x00\n        /* \"governance/BizContract.sol\":179:187  x = _var */\n      sstore\n        /* \"governance/BizContract.sol\":126:195  function call(uint _var) external payable {... */\n      jump\n    tag_10:\n      stop\n        /* \"governance/BizContract.sol\":203:320  function showCallData() external view  returns (bytes memory) {... */\n    tag_4:\n      callvalue\n      dup1\n      iszero\n      tag_14\n      jumpi\n      revert(0x00, 0x00)\n    tag_14:\n      pop\n      tag_15\n        /* \"governance/BizContract.sol\":283:312  abi.encodeCall(this.call,(1)) */\n      0x40\n      dup1\n      mload\n        /* \"governance/BizContract.sol\":309:310  1 */\n      0x01\n        /* \"governance/BizContract.sol\":283:312  abi.encodeCall(this.call,(1)) */\n      0x24\n      dup1\n      dup4\n      add\n        /* \"#utility.yul\":160:185   */\n      swap2\n      swap1\n      swap2\n      mstore\n        /* \"governance/BizContract.sol\":283:312  abi.encodeCall(this.call,(1)) */\n      dup3\n      mload\n      dup1\n      dup4\n      sub\n      swap1\n      swap2\n      add\n      dup2\n      mstore\n        /* \"#utility.yul\":133:151   */\n      0x44\n      swap1\n      swap2\n      add\n        /* \"governance/BizContract.sol\":283:312  abi.encodeCall(this.call,(1)) */\n      swap1\n      swap2\n      mstore\n      0x20\n      dup2\n      add\n      dup1\n      mload\n      sub(shl(0xe0, 0x01), 0x01)\n      and\n      shl(0xe1, 0x1584b493)\n      or\n      swap1\n      mstore\n      swap1\n        /* \"governance/BizContract.sol\":203:320  function showCallData() external view  returns (bytes memory) {... */\n      jump\n    tag_15:\n      mload(0x40)\n      tag_8\n      swap2\n      swap1\n      tag_18\n      jump\t// in\n        /* \"#utility.yul\":196:376   */\n    tag_12:\n        /* \"#utility.yul\":255:261   */\n      0x00\n        /* \"#utility.yul\":308:310   */\n      0x20\n        /* \"#utility.yul\":296:305   */\n      dup3\n        /* \"#utility.yul\":287:294   */\n      dup5\n        /* \"#utility.yul\":283:306   */\n      sub\n        /* \"#utility.yul\":279:311   */\n      slt\n        /* \"#utility.yul\":276:328   */\n      iszero\n      tag_26\n      jumpi\n        /* \"#utility.yul\":324:325   */\n      0x00\n        /* \"#utility.yul\":321:322   */\n      0x00\n        /* \"#utility.yul\":314:326   */\n      revert\n        /* \"#utility.yul\":276:328   */\n    tag_26:\n      pop\n        /* \"#utility.yul\":347:370   */\n      calldataload\n      swap2\n        /* \"#utility.yul\":196:376   */\n      swap1\n      pop\n      jump\t// out\n        /* \"#utility.yul\":381:797   */\n    tag_18:\n        /* \"#utility.yul\":528:530   */\n      0x20\n        /* \"#utility.yul\":517:526   */\n      dup2\n        /* \"#utility.yul\":510:531   */\n      mstore\n        /* \"#utility.yul\":491:495   */\n      0x00\n        /* \"#utility.yul\":560:566   */\n      dup3\n        /* \"#utility.yul\":554:567   */\n      mload\n        /* \"#utility.yul\":603:609   */\n      dup1\n        /* \"#utility.yul\":598:600   */\n      0x20\n        /* \"#utility.yul\":587:596   */\n      dup5\n        /* \"#utility.yul\":583:601   */\n      add\n        /* \"#utility.yul\":576:610   */\n      mstore\n        /* \"#utility.yul\":662:668   */\n      dup1\n        /* \"#utility.yul\":657:659   */\n      0x20\n        /* \"#utility.yul\":649:655   */\n      dup6\n        /* \"#utility.yul\":645:660   */\n      add\n        /* \"#utility.yul\":640:642   */\n      0x40\n        /* \"#utility.yul\":629:638   */\n      dup6\n        /* \"#utility.yul\":625:643   */\n      add\n        /* \"#utility.yul\":619:669   */\n      mcopy\n        /* \"#utility.yul\":718:719   */\n      0x00\n        /* \"#utility.yul\":713:715   */\n      0x40\n        /* \"#utility.yul\":704:710   */\n      dup3\n        /* \"#utility.yul\":693:702   */\n      dup6\n        /* \"#utility.yul\":689:711   */\n      add\n        /* \"#utility.yul\":685:716   */\n      add\n        /* \"#utility.yul\":678:720   */\n      mstore\n        /* \"#utility.yul\":788:790   */\n      0x40\n        /* \"#utility.yul\":781:783   */\n      0x1f\n        /* \"#utility.yul\":777:784   */\n      not\n        /* \"#utility.yul\":772:774   */\n      0x1f\n        /* \"#utility.yul\":764:770   */\n      dup4\n        /* \"#utility.yul\":760:775   */\n      add\n        /* \"#utility.yul\":756:785   */\n      and\n        /* \"#utility.yul\":745:754   */\n      dup5\n        /* \"#utility.yul\":741:786   */\n      add\n        /* \"#utility.yul\":737:791   */\n      add\n        /* \"#utility.yul\":729:791   */\n      swap2\n      pop\n      pop\n        /* \"#utility.yul\":381:797   */\n      swap3\n      swap2\n      pop\n      pop\n      jump\t// out\n\n    auxdata: 0xa264697066735822122064504dfac1a93831155949ded2895993dd8792adea0a53b016f95d002991c05664736f6c634300081d0033\n}\n",
				"bytecode": {
					"linkReferences": {},
					"object": "6080604052348015600e575f5ffd5b5061014e8061001c5f395ff3fe608060405260043610610033575f3560e01c80630c55699c146100375780632b0969261461005e578063dde9a46014610072575b5f5ffd5b348015610042575f5ffd5b5061004b5f5481565b6040519081526020015b60405180910390f35b61007061006c3660046100cc565b5f55565b005b34801561007d575f5ffd5b506100bf6040805160016024808301919091528251808303909101815260449091019091526020810180516001600160e01b0316631584b49360e11b17905290565b60405161005591906100e3565b5f602082840312156100dc575f5ffd5b5035919050565b602081525f82518060208401528060208501604085015e5f604082850101526040601f19601f8301168401019150509291505056fea264697066735822122064504dfac1a93831155949ded2895993dd8792adea0a53b016f95d002991c05664736f6c634300081d0033",
					"opcodes": "PUSH1 0x80 PUSH1 0x40 MSTORE CALLVALUE DUP1 ISZERO PUSH1 0xE JUMPI PUSH0 PUSH0 REVERT JUMPDEST POP PUSH2 0x14E DUP1 PUSH2 0x1C PUSH0 CODECOPY PUSH0 RETURN INVALID PUSH1 0x80 PUSH1 0x40 MSTORE PUSH1 0x4 CALLDATASIZE LT PUSH2 0x33 JUMPI PUSH0 CALLDATALOAD PUSH1 0xE0 SHR DUP1 PUSH4 0xC55699C EQ PUSH2 0x37 JUMPI DUP1 PUSH4 0x2B096926 EQ PUSH2 0x5E JUMPI DUP1 PUSH4 0xDDE9A460 EQ PUSH2 0x72 JUMPI JUMPDEST PUSH0 PUSH0 REVERT JUMPDEST CALLVALUE DUP1 ISZERO PUSH2 0x42 JUMPI PUSH0 PUSH0 REVERT JUMPDEST POP PUSH2 0x4B PUSH0 SLOAD DUP2 JUMP JUMPDEST PUSH1 0x40 MLOAD SWAP1 DUP2 MSTORE PUSH1 0x20 ADD JUMPDEST PUSH1 0x40 MLOAD DUP1 SWAP2 SUB SWAP1 RETURN JUMPDEST PUSH2 0x70 PUSH2 0x6C CALLDATASIZE PUSH1 0x4 PUSH2 0xCC JUMP JUMPDEST PUSH0 SSTORE JUMP JUMPDEST STOP JUMPDEST CALLVALUE DUP1 ISZERO PUSH2 0x7D JUMPI PUSH0 PUSH0 REVERT JUMPDEST POP PUSH2 0xBF PUSH1 0x40 DUP1 MLOAD PUSH1 0x1 PUSH1 0x24 DUP1 DUP4 ADD SWAP2 SWAP1 SWAP2 MSTORE DUP3 MLOAD DUP1 DUP4 SUB SWAP1 SWAP2 ADD DUP2 MSTORE PUSH1 0x44 SWAP1 SWAP2 ADD SWAP1 SWAP2 MSTORE PUSH1 0x20 DUP2 ADD DUP1 MLOAD PUSH1 0x1 PUSH1 0x1 PUSH1 0xE0 SHL SUB AND PUSH4 0x1584B493 PUSH1 0xE1 SHL OR SWAP1 MSTORE SWAP1 JUMP JUMPDEST PUSH1 0x40 MLOAD PUSH2 0x55 SWAP2 SWAP1 PUSH2 0xE3 JUMP JUMPDEST PUSH0 PUSH1 0x20 DUP3 DUP5 SUB SLT ISZERO PUSH2 0xDC JUMPI PUSH0 PUSH0 REVERT JUMPDEST POP CALLDATALOAD SWAP2 SWAP1 POP JUMP JUMPDEST PUSH1 0x20 DUP2 MSTORE PUSH0 DUP3 MLOAD DUP1 PUSH1 0x20 DUP5 ADD MSTORE DUP1 PUSH1 0x20 DUP6 ADD PUSH1 0x40 DUP6 ADD MCOPY PUSH0 PUSH1 0x40 DUP3 DUP6 ADD ADD MSTORE PUSH1 0x40 PUSH1 0x1F NOT PUSH1 0x1F DUP4 ADD AND DUP5 ADD ADD SWAP2 POP POP SWAP3 SWAP2 POP POP JUMP INVALID LOG2 PUSH5 0x6970667358 0x22 SLT KECCAK256 PUSH5 0x504DFAC1A9 CODESIZE BALANCE ISZERO MSIZE BLOBHASH 0xDE 0xD2 DUP10 MSIZE SWAP4 0xDD DUP8 SWAP3 0xAD 0xEA EXP MSTORE8 0xB0 AND EXTDELEGATECALL TSTORE STOP 0x29 SWAP2 0xC0 JUMP PUSH5 0x736F6C6343 STOP ADDMOD SAR STOP CALLER "
				},
				"gasEstimates": {
					"creation": {
						"codeDepositCost": "66800",
						"executionCost": "115",
						"totalCost": "66915"
					},
					"external": {
						"call(uint256)": "22285",
						"showCallData()": "infinite",
						"x()": "2260"
					}
				},
				"methodIdentifiers": {
					"call(uint256)": "2b096926",
					"showCallData()": "dde9a460",
					"x()": "0c55699c"
				}
			},
			"storageLayout": {
				"storage": [
					{
						"astId": 3,
						"contract": "governance/BizContract.sol:BizContract",
						"label": "x",
						"offset": 0,
						"slot": "0",
						"type": "t_uint256"
					}
				],
				"types": {
					"t_uint256": {
						"encoding": "inplace",
						"label": "uint256",
						"numberOfBytes": "32"
					}
				}
			},
			"userdoc": {
				"kind": "user",
				"methods": {},
				"version": 1
			}
		}
	}
}