{
	"governance/Test.sol": {
		"Test": {
			"abi": [
				{
					"inputs": [],
					"name": "clock",
					"outputs": [
						{
							"internalType": "uint256",
							"name": "",
							"type": "uint256"
						}
					],
					"stateMutability": "nonpayable",
					"type": "function"
				}
			],
			"devdoc": {
				"kind": "dev",
				"methods": {},
				"version": 1
			},
			"evm": {
				"assembly": "    /* \"governance/Test.sol\":61:167  contract Test{... */\n  mstore(0x40, 0x80)\n  callvalue\n  dup1\n  iszero\n  tag_1\n  jumpi\n  revert(0x00, 0x00)\ntag_1:\n  pop\n  dataSize(sub_0)\n  dup1\n  dataOffset(sub_0)\n  0x00\n  codecopy\n  0x00\n  return\nstop\n\nsub_0: assembly {\n        /* \"governance/Test.sol\":61:167  contract Test{... */\n      mstore(0x40, 0x80)\n      callvalue\n      dup1\n      iszero\n      tag_1\n      jumpi\n      revert(0x00, 0x00)\n    tag_1:\n      pop\n      jumpi(tag_2, lt(calldatasize, 0x04))\n      shr(0xe0, calldataload(0x00))\n      dup1\n      0x91ddadf4\n      eq\n      tag_3\n      jumpi\n    tag_2:\n      revert(0x00, 0x00)\n        /* \"governance/Test.sol\":83:164  function clock() external  returns(uint256){... */\n    tag_3:\n        /* \"governance/Test.sol\":144:156  block.number */\n      number\n        /* \"governance/Test.sol\":83:164  function clock() external  returns(uint256){... */\n      mload(0x40)\n        /* \"#utility.yul\":160:185   */\n      swap1\n      dup2\n      mstore\n        /* \"#utility.yul\":148:150   */\n      0x20\n        /* \"#utility.yul\":133:151   */\n      add\n        /* \"governance/Test.sol\":83:164  function clock() external  returns(uint256){... */\n      mload(0x40)\n      dup1\n      swap2\n      sub\n      swap1\n      return\n\n    auxdata: 0xa2646970667358221220983a6be90d2b3ebb47448a3b1ae2ca55b196fbf963d553ed40b3e6125eff2f7464736f6c634300081d0033\n}\n",
				"bytecode": {
					"linkReferences": {},
					"object": "6080604052348015600e575f5ffd5b50607380601a5f395ff3fe6080604052348015600e575f5ffd5b50600436106026575f3560e01c806391ddadf414602a575b5f5ffd5b4360405190815260200160405180910390f3fea2646970667358221220983a6be90d2b3ebb47448a3b1ae2ca55b196fbf963d553ed40b3e6125eff2f7464736f6c634300081d0033",
					"opcodes": "PUSH1 0x80 PUSH1 0x40 MSTORE CALLVALUE DUP1 ISZERO PUSH1 0xE JUMPI PUSH0 PUSH0 REVERT JUMPDEST POP PUSH1 0x73 DUP1 PUSH1 0x1A PUSH0 CODECOPY PUSH0 RETURN INVALID PUSH1 0x80 PUSH1 0x40 MSTORE CALLVALUE DUP1 ISZERO PUSH1 0xE JUMPI PUSH0 PUSH0 REVERT JUMPDEST POP PUSH1 0x4 CALLDATASIZE LT PUSH1 0x26 JUMPI PUSH0 CALLDATALOAD PUSH1 0xE0 SHR DUP1 PUSH4 0x91DDADF4 EQ PUSH1 0x2A JUMPI JUMPDEST PUSH0 PUSH0 REVERT JUMPDEST NUMBER PUSH1 0x40 MLOAD SWAP1 DUP2 MSTORE PUSH1 0x20 ADD PUSH1 0x40 MLOAD DUP1 SWAP2 SUB SWAP1 RETURN INVALID LOG2 PUSH5 0x6970667358 0x22 SLT KECCAK256 SWAP9 GASPRICE PUSH12 0xE90D2B3EBB47448A3B1AE2CA SSTORE 0xB1 SWAP7 EXTSTATICCALL EXTDELEGATECALL PUSH4 0xD553ED40 0xB3 DUPN 0x12 MCOPY SELFDESTRUCT 0x2F PUSH21 0x64736F6C634300081D003300000000000000000000 "
				},
				"gasEstimates": {
					"creation": {
						"codeDepositCost": "23000",
						"executionCost": "73",
						"totalCost": "23073"
					},
					"external": {
						"clock()": "144"
					}
				},
				"methodIdentifiers": {
					"clock()": "91ddadf4"
				}
			},
			"storageLayout": {
				"storage": [],
				"types": null
			},
			"userdoc": {
				"kind": "user",
				"methods": {},
				"version": 1
			}
		}
	}
}