{
	"six/DiscreteStakingRewards.sol": {
		"DiscreteStakingRewards": {
			"abi": [
				{
					"inputs": [
						{
							"internalType": "address",
							"name": "_stakingToken",
							"type": "address"
						},
						{
							"internalType": "address",
							"name": "_rewardToken",
							"type": "address"
						}
					],
					"stateMutability": "nonpayable",
					"type": "constructor"
				},
				{
					"inputs": [
						{
							"internalType": "address",
							"name": "",
							"type": "address"
						}
					],
					"name": "balanceOf",
					"outputs": [
						{
							"internalType": "uint256",
							"name": "",
							"type": "uint256"
						}
					],
					"stateMutability": "view",
					"type": "function"
				},
				{
					"inputs": [
						{
							"internalType": "address",
							"name": "account",
							"type": "address"
						}
					],
					"name": "calculateRewardEarned",
					"outputs": [
						{
							"internalType": "uint256",
							"name": "",
							"type": "uint256"
						}
					],
					"stateMutability": "view",
					"type": "function"
				},
				{
					"inputs": [],
					"name": "claim",
					"outputs": [
						{
							"internalType": "uint256",
							"name": "",
							"type": "uint256"
						}
					],
					"stateMutability": "nonpayable",
					"type": "function"
				},
				{
					"inputs": [],
					"name": "rewardToken",
					"outputs": [
						{
							"internalType": "contract IERC20",
							"name": "",
							"type": "address"
						}
					],
					"stateMutability": "view",
					"type": "function"
				},
				{
					"inputs": [
						{
							"internalType": "uint256",
							"name": "amount",
							"type": "uint256"
						}
					],
					"name": "stake",
					"outputs": [],
					"stateMutability": "nonpayable",
					"type": "function"
				},
				{
					"inputs": [],
					"name": "stakingToken",
					"outputs": [
						{
							"internalType": "contract IERC20",
							"name": "",
							"type": "address"
						}
					],
					"stateMutability": "view",
					"type": "function"
				},
				{
					"inputs": [],
					"name": "totalSupply",
					"outputs": [
						{
							"internalType": "uint256",
							"name": "",
							"type": "uint256"
						}
					],
					"stateMutability": "view",
					"type": "function"
				},
				{
					"inputs": [
						{
							"internalType": "uint256",
							"name": "amount",
							"type": "uint256"
						}
					],
					"name": "unstake",
					"outputs": [],
					"stateMutability": "nonpayable",
					"type": "function"
				},
				{
					"inputs": [
						{
							"internalType": "uint256",
							"name": "reward",
							"type": "uint256"
						}
					],
					"name": "updateRewardIndex",
					"outputs": [],
					"stateMutability": "nonpayable",
					"type": "function"
				}
			],
			"devdoc": {
				"kind": "dev",
				"methods": {
					"calculateRewardEarned(address)": {
						"details": "获取账户总待领取奖励（外部查询接口）"
					},
					"claim()": {
						"details": "领取奖励",
						"returns": {
							"_0": "实际领取数量"
						}
					},
					"stake(uint256)": {
						"details": "质押操作",
						"params": {
							"amount": "质押代币数量"
						}
					},
					"unstake(uint256)": {
						"details": "解除质押",
						"params": {
							"amount": "解除质押数量"
						}
					},
					"updateRewardIndex(uint256)": {
						"details": "更新全局奖励指数（仅管理员可调用）",
						"params": {
							"reward": "注入的奖励代币数量 公式：rewardIndex += (reward * 1e18) / totalSupply"
						}
					}
				},
				"version": 1
			},
			"evm": {
				"assembly": "    /* \"six/DiscreteStakingRewards.sol\":119:3689  contract DiscreteStakingRewards {... */\n  mstore(0x40, 0xc0)\n    /* \"six/DiscreteStakingRewards.sol\":861:1018  constructor(address _stakingToken, address _rewardToken) {... */\n  callvalue\n  dup1\n  iszero\n  tag_1\n  jumpi\n  0x00\n  dup1\n  revert\ntag_1:\n  pop\n  mload(0x40)\n  sub(codesize, bytecodeSize)\n  dup1\n  bytecodeSize\n  dup4\n  codecopy\n  dup2\n  add\n  0x40\n  dup2\n  swap1\n  mstore\n  tag_2\n  swap2\n  tag_3\n  jump\t// in\ntag_2:\n  sub(shl(0xa0, 0x01), 0x01)\n    /* \"six/DiscreteStakingRewards.sol\":929:965  stakingToken = IERC20(_stakingToken) */\n  swap2\n  dup3\n  and\n  0x80\n  mstore\n    /* \"six/DiscreteStakingRewards.sol\":976:1010  rewardToken = IERC20(_rewardToken) */\n  and\n  0xa0\n  mstore\n    /* \"six/DiscreteStakingRewards.sol\":119:3689  contract DiscreteStakingRewards {... */\n  jump(tag_8)\n    /* \"#utility.yul\":14:191   */\ntag_7:\n    /* \"#utility.yul\":93:106   */\n  dup1\n  mload\n  sub(shl(0xa0, 0x01), 0x01)\n    /* \"#utility.yul\":135:166   */\n  dup2\n  and\n    /* \"#utility.yul\":125:167   */\n  dup2\n  eq\n    /* \"#utility.yul\":115:185   */\n  tag_10\n  jumpi\n    /* \"#utility.yul\":181:182   */\n  0x00\n    /* \"#utility.yul\":178:179   */\n  dup1\n    /* \"#utility.yul\":171:183   */\n  revert\n    /* \"#utility.yul\":115:185   */\ntag_10:\n    /* \"#utility.yul\":14:191   */\n  swap2\n  swap1\n  pop\n  jump\t// out\n    /* \"#utility.yul\":196:489   */\ntag_3:\n    /* \"#utility.yul\":275:281   */\n  0x00\n    /* \"#utility.yul\":283:289   */\n  dup1\n    /* \"#utility.yul\":336:338   */\n  0x40\n    /* \"#utility.yul\":324:333   */\n  dup4\n    /* \"#utility.yul\":315:322   */\n  dup6\n    /* \"#utility.yul\":311:334   */\n  sub\n    /* \"#utility.yul\":307:339   */\n  slt\n    /* \"#utility.yul\":304:356   */\n  iszero\n  tag_12\n  jumpi\n    /* \"#utility.yul\":352:353   */\n  0x00\n    /* \"#utility.yul\":349:350   */\n  dup1\n    /* \"#utility.yul\":342:354   */\n  revert\n    /* \"#utility.yul\":304:356   */\ntag_12:\n    /* \"#utility.yul\":375:415   */\n  tag_13\n    /* \"#utility.yul\":405:414   */\n  dup4\n    /* \"#utility.yul\":375:415   */\n  tag_7\n  jump\t// in\ntag_13:\n    /* \"#utility.yul\":365:415   */\n  swap2\n  pop\n    /* \"#utility.yul\":434:483   */\n  tag_14\n    /* \"#utility.yul\":479:481   */\n  0x20\n    /* \"#utility.yul\":468:477   */\n  dup5\n    /* \"#utility.yul\":464:482   */\n  add\n    /* \"#utility.yul\":434:483   */\n  tag_7\n  jump\t// in\ntag_14:\n    /* \"#utility.yul\":424:483   */\n  swap1\n  pop\n    /* \"#utility.yul\":196:489   */\n  swap3\n  pop\n  swap3\n  swap1\n  pop\n  jump\t// out\ntag_8:\n    /* \"six/DiscreteStakingRewards.sol\":119:3689  contract DiscreteStakingRewards {... */\n  mload(0x80)\n  mload(0xa0)\n  codecopy(0x00, dataOffset(sub_0), dataSize(sub_0))\n  0x00\n  assignImmutable(\"0x03065c56175bab9d6c02682cec557b5c933cd8364ccf2dd44ab76e0c260931e7\")\n  0x00\n  assignImmutable(\"0x588e5ad3f145f9d841773d4229bac23d743ef980914ad5d2b613712259f67f55\")\n  return(0x00, dataSize(sub_0))\nstop\n\nsub_0: assembly {\n        /* \"six/DiscreteStakingRewards.sol\":119:3689  contract DiscreteStakingRewards {... */\n      mstore(0x40, 0x80)\n      callvalue\n      dup1\n      iszero\n      tag_1\n      jumpi\n      0x00\n      dup1\n      revert\n    tag_1:\n      pop\n      jumpi(tag_2, lt(calldatasize, 0x04))\n      shr(0xe0, calldataload(0x00))\n      dup1\n      0x5a230162\n      gt\n      tag_12\n      jumpi\n      dup1\n      0x5a230162\n      eq\n      tag_7\n      jumpi\n      dup1\n      0x70a08231\n      eq\n      tag_8\n      jumpi\n      dup1\n      0x72f702f3\n      eq\n      tag_9\n      jumpi\n      dup1\n      0xa694fc3a\n      eq\n      tag_10\n      jumpi\n      dup1\n      0xf7c618c1\n      eq\n      tag_11\n      jumpi\n      0x00\n      dup1\n      revert\n    tag_12:\n      dup1\n      0x0dcc4b44\n      eq\n      tag_3\n      jumpi\n      dup1\n      0x18160ddd\n      eq\n      tag_4\n      jumpi\n      dup1\n      0x2e17de78\n      eq\n      tag_5\n      jumpi\n      dup1\n      0x4e71d92d\n      eq\n      tag_6\n      jumpi\n    tag_2:\n      0x00\n      dup1\n      revert\n        /* \"six/DiscreteStakingRewards.sol\":1221:1625  function updateRewardIndex(uint reward) external {... */\n    tag_3:\n      tag_13\n      tag_14\n      calldatasize\n      0x04\n      tag_15\n      jump\t// in\n    tag_14:\n      tag_16\n      jump\t// in\n    tag_13:\n      stop\n        /* \"six/DiscreteStakingRewards.sol\":430:453  uint public totalSupply */\n    tag_4:\n      tag_17\n      sload(0x01)\n      dup2\n      jump\n    tag_17:\n      mload(0x40)\n        /* \"#utility.yul\":345:370   */\n      swap1\n      dup2\n      mstore\n        /* \"#utility.yul\":333:335   */\n      0x20\n        /* \"#utility.yul\":318:336   */\n      add\n        /* \"six/DiscreteStakingRewards.sol\":430:453  uint public totalSupply */\n    tag_19:\n      mload(0x40)\n      dup1\n      swap2\n      sub\n      swap1\n      return\n        /* \"six/DiscreteStakingRewards.sol\":3031:3316  function unstake(uint amount) external {... */\n    tag_5:\n      tag_13\n      tag_22\n      calldatasize\n      0x04\n      tag_15\n      jump\t// in\n    tag_22:\n      tag_23\n      jump\t// in\n        /* \"six/DiscreteStakingRewards.sol\":3403:3686  function claim() external returns (uint) {... */\n    tag_6:\n      tag_17\n      tag_25\n      jump\t// in\n        /* \"six/DiscreteStakingRewards.sol\":2051:2198  function calculateRewardEarned(address account) external view returns (uint) {... */\n    tag_7:\n      tag_17\n      tag_28\n      calldatasize\n      0x04\n      tag_29\n      jump\t// in\n    tag_28:\n      tag_30\n      jump\t// in\n        /* \"six/DiscreteStakingRewards.sol\":361:402  mapping(address => uint) public balanceOf */\n    tag_8:\n      tag_17\n      tag_33\n      calldatasize\n      0x04\n      tag_29\n      jump\t// in\n    tag_33:\n      0x00\n      0x20\n      dup2\n      swap1\n      mstore\n      swap1\n      dup2\n      mstore\n      0x40\n      swap1\n      keccak256\n      sload\n      dup2\n      jump\n        /* \"six/DiscreteStakingRewards.sol\":208:244  IERC20 public immutable stakingToken */\n    tag_9:\n      tag_36\n      immutable(\"0x588e5ad3f145f9d841773d4229bac23d743ef980914ad5d2b613712259f67f55\")\n      dup2\n      jump\n    tag_36:\n      mload(0x40)\n      sub(shl(0xa0, 0x01), 0x01)\n        /* \"#utility.yul\":850:882   */\n      swap1\n      swap2\n      and\n        /* \"#utility.yul\":832:883   */\n      dup2\n      mstore\n        /* \"#utility.yul\":820:822   */\n      0x20\n        /* \"#utility.yul\":805:823   */\n      add\n        /* \"six/DiscreteStakingRewards.sol\":208:244  IERC20 public immutable stakingToken */\n      tag_19\n        /* \"#utility.yul\":672:889   */\n      jump\n        /* \"six/DiscreteStakingRewards.sol\":2692:2938  function stake(uint amount) external {... */\n    tag_10:\n      tag_13\n      tag_41\n      calldatasize\n      0x04\n      tag_15\n      jump\t// in\n    tag_41:\n      tag_42\n      jump\t// in\n        /* \"six/DiscreteStakingRewards.sol\":284:319  IERC20 public immutable rewardToken */\n    tag_11:\n      tag_36\n      immutable(\"0x03065c56175bab9d6c02682cec557b5c933cd8364ccf2dd44ab76e0c260931e7\")\n      dup2\n      jump\n        /* \"six/DiscreteStakingRewards.sol\":1221:1625  function updateRewardIndex(uint reward) external {... */\n    tag_16:\n        /* \"six/DiscreteStakingRewards.sol\":1301:1302  0 */\n      0x00\n        /* \"six/DiscreteStakingRewards.sol\":1289:1300  totalSupply */\n      sload(0x01)\n        /* \"six/DiscreteStakingRewards.sol\":1289:1302  totalSupply>0 */\n      gt\n        /* \"six/DiscreteStakingRewards.sol\":1281:1326  require(totalSupply>0,\"Total supply is zero\") */\n      tag_47\n      jumpi\n      mload(0x40)\n      shl(0xe5, 0x461bcd)\n      dup2\n      mstore\n        /* \"#utility.yul\":1096:1098   */\n      0x20\n        /* \"six/DiscreteStakingRewards.sol\":1281:1326  require(totalSupply>0,\"Total supply is zero\") */\n      0x04\n      dup3\n      add\n        /* \"#utility.yul\":1078:1099   */\n      mstore\n        /* \"#utility.yul\":1135:1137   */\n      0x14\n        /* \"#utility.yul\":1115:1133   */\n      0x24\n      dup3\n      add\n        /* \"#utility.yul\":1108:1138   */\n      mstore\n      shl(0x60, 0x546f74616c20737570706c79206973207a65726f)\n        /* \"#utility.yul\":1154:1172   */\n      0x44\n      dup3\n      add\n        /* \"#utility.yul\":1147:1197   */\n      mstore\n        /* \"#utility.yul\":1214:1232   */\n      0x64\n      add\n        /* \"six/DiscreteStakingRewards.sol\":1281:1326  require(totalSupply>0,\"Total supply is zero\") */\n    tag_48:\n      mload(0x40)\n      dup1\n      swap2\n      sub\n      swap1\n      revert\n    tag_47:\n        /* \"six/DiscreteStakingRewards.sol\":1377:1436  rewardToken.transferFrom(msg.sender, address(this), reward) */\n      mload(0x40)\n      shl(0xe0, 0x23b872dd)\n      dup2\n      mstore\n        /* \"six/DiscreteStakingRewards.sol\":1402:1412  msg.sender */\n      caller\n        /* \"six/DiscreteStakingRewards.sol\":1377:1436  rewardToken.transferFrom(msg.sender, address(this), reward) */\n      0x04\n      dup3\n      add\n        /* \"#utility.yul\":1445:1496   */\n      mstore\n        /* \"six/DiscreteStakingRewards.sol\":1422:1426  this */\n      address\n        /* \"#utility.yul\":1512:1530   */\n      0x24\n      dup3\n      add\n        /* \"#utility.yul\":1505:1565   */\n      mstore\n        /* \"#utility.yul\":1581:1599   */\n      0x44\n      dup2\n      add\n        /* \"#utility.yul\":1574:1608   */\n      dup3\n      swap1\n      mstore\n        /* \"six/DiscreteStakingRewards.sol\":1377:1388  rewardToken */\n      immutable(\"0x03065c56175bab9d6c02682cec557b5c933cd8364ccf2dd44ab76e0c260931e7\")\n      sub(shl(0xa0, 0x01), 0x01)\n        /* \"six/DiscreteStakingRewards.sol\":1377:1401  rewardToken.transferFrom */\n      and\n      swap1\n      0x23b872dd\n      swap1\n        /* \"#utility.yul\":1418:1436   */\n      0x64\n      add\n        /* \"six/DiscreteStakingRewards.sol\":1377:1436  rewardToken.transferFrom(msg.sender, address(this), reward) */\n      0x20\n      mload(0x40)\n      dup1\n      dup4\n      sub\n      dup2\n      0x00\n      dup8\n      gas\n      call\n      iszero\n      dup1\n      iszero\n      tag_53\n      jumpi\n      returndatasize\n      0x00\n      dup1\n      returndatacopy\n      revert(0x00, returndatasize)\n    tag_53:\n      pop\n      pop\n      pop\n      pop\n      mload(0x40)\n      returndatasize\n      not(0x1f)\n      0x1f\n      dup3\n      add\n      and\n      dup3\n      add\n      dup1\n      0x40\n      mstore\n      pop\n      dup2\n      add\n      swap1\n      tag_54\n      swap2\n      swap1\n      tag_55\n      jump\t// in\n    tag_54:\n      pop\n        /* \"six/DiscreteStakingRewards.sol\":1606:1617  totalSupply */\n      sload(0x01)\n        /* \"six/DiscreteStakingRewards.sol\":1583:1602  reward * MULTIPLIER */\n      tag_56\n        /* \"six/DiscreteStakingRewards.sol\":560:564  1e18 */\n      0x0de0b6b3a7640000\n        /* \"six/DiscreteStakingRewards.sol\":1583:1589  reward */\n      dup4\n        /* \"six/DiscreteStakingRewards.sol\":1583:1602  reward * MULTIPLIER */\n      tag_57\n      jump\t// in\n    tag_56:\n        /* \"six/DiscreteStakingRewards.sol\":1582:1617  (reward * MULTIPLIER) / totalSupply */\n      tag_58\n      swap2\n      swap1\n      tag_59\n      jump\t// in\n    tag_58:\n        /* \"six/DiscreteStakingRewards.sol\":1567:1578  rewardIndex */\n      0x02\n      0x00\n        /* \"six/DiscreteStakingRewards.sol\":1567:1617  rewardIndex += (reward * MULTIPLIER) / totalSupply */\n      dup3\n      dup3\n      sload\n      tag_60\n      swap2\n      swap1\n      tag_61\n      jump\t// in\n    tag_60:\n      swap1\n      swap2\n      sstore\n      pop\n      pop\n      pop\n        /* \"six/DiscreteStakingRewards.sol\":1221:1625  function updateRewardIndex(uint reward) external {... */\n      jump\t// out\n        /* \"six/DiscreteStakingRewards.sol\":3031:3316  function unstake(uint amount) external {... */\n    tag_23:\n        /* \"six/DiscreteStakingRewards.sol\":3099:3109  msg.sender */\n      caller\n        /* \"six/DiscreteStakingRewards.sol\":3089:3098  balanceOf */\n      0x00\n        /* \"six/DiscreteStakingRewards.sol\":3089:3110  balanceOf[msg.sender] */\n      swap1\n      dup2\n      mstore\n      0x20\n      dup2\n      swap1\n      mstore\n      0x40\n      swap1\n      keccak256\n      sload\n        /* \"six/DiscreteStakingRewards.sol\":3089:3120  balanceOf[msg.sender] >= amount */\n      dup2\n      gt\n      iszero\n        /* \"six/DiscreteStakingRewards.sol\":3081:3145  require(balanceOf[msg.sender] >= amount, \"Insufficient balance\") */\n      tag_63\n      jumpi\n      mload(0x40)\n      shl(0xe5, 0x461bcd)\n      dup2\n      mstore\n        /* \"#utility.yul\":2760:2762   */\n      0x20\n        /* \"six/DiscreteStakingRewards.sol\":3081:3145  require(balanceOf[msg.sender] >= amount, \"Insufficient balance\") */\n      0x04\n      dup3\n      add\n        /* \"#utility.yul\":2742:2763   */\n      mstore\n        /* \"#utility.yul\":2799:2801   */\n      0x14\n        /* \"#utility.yul\":2779:2797   */\n      0x24\n      dup3\n      add\n        /* \"#utility.yul\":2772:2802   */\n      mstore\n      shl(0x60, 0x496e73756666696369656e742062616c616e6365)\n        /* \"#utility.yul\":2818:2836   */\n      0x44\n      dup3\n      add\n        /* \"#utility.yul\":2811:2861   */\n      mstore\n        /* \"#utility.yul\":2878:2896   */\n      0x64\n      add\n        /* \"six/DiscreteStakingRewards.sol\":3081:3145  require(balanceOf[msg.sender] >= amount, \"Insufficient balance\") */\n      tag_48\n        /* \"#utility.yul\":2558:2902   */\n      jump\n        /* \"six/DiscreteStakingRewards.sol\":3081:3145  require(balanceOf[msg.sender] >= amount, \"Insufficient balance\") */\n    tag_63:\n        /* \"six/DiscreteStakingRewards.sol\":3156:3182  _updateRewards(msg.sender) */\n      tag_66\n        /* \"six/DiscreteStakingRewards.sol\":3171:3181  msg.sender */\n      caller\n        /* \"six/DiscreteStakingRewards.sol\":3156:3170  _updateRewards */\n      tag_67\n        /* \"six/DiscreteStakingRewards.sol\":3156:3182  _updateRewards(msg.sender) */\n      jump\t// in\n    tag_66:\n        /* \"six/DiscreteStakingRewards.sol\":3203:3213  msg.sender */\n      caller\n        /* \"six/DiscreteStakingRewards.sol\":3193:3202  balanceOf */\n      0x00\n        /* \"six/DiscreteStakingRewards.sol\":3193:3214  balanceOf[msg.sender] */\n      swap1\n      dup2\n      mstore\n      0x20\n      dup2\n      swap1\n      mstore\n      0x40\n      dup2\n      keccak256\n        /* \"six/DiscreteStakingRewards.sol\":3193:3224  balanceOf[msg.sender] -= amount */\n      dup1\n      sload\n        /* \"six/DiscreteStakingRewards.sol\":3218:3224  amount */\n      dup4\n      swap3\n        /* \"six/DiscreteStakingRewards.sol\":3193:3202  balanceOf */\n      swap1\n        /* \"six/DiscreteStakingRewards.sol\":3193:3224  balanceOf[msg.sender] -= amount */\n      tag_68\n      swap1\n        /* \"six/DiscreteStakingRewards.sol\":3218:3224  amount */\n      dup5\n      swap1\n        /* \"six/DiscreteStakingRewards.sol\":3193:3224  balanceOf[msg.sender] -= amount */\n      tag_69\n      jump\t// in\n    tag_68:\n      swap3\n      pop\n      pop\n      dup2\n      swap1\n      sstore\n      pop\n        /* \"six/DiscreteStakingRewards.sol\":3250:3256  amount */\n      dup1\n        /* \"six/DiscreteStakingRewards.sol\":3235:3246  totalSupply */\n      0x01\n      0x00\n        /* \"six/DiscreteStakingRewards.sol\":3235:3256  totalSupply -= amount */\n      dup3\n      dup3\n      sload\n      tag_70\n      swap2\n      swap1\n      tag_69\n      jump\t// in\n    tag_70:\n      swap1\n      swap2\n      sstore\n      pop\n      pop\n        /* \"six/DiscreteStakingRewards.sol\":3267:3308  stakingToken.transfer(msg.sender, amount) */\n      mload(0x40)\n      shl(0xe0, 0xa9059cbb)\n      dup2\n      mstore\n        /* \"six/DiscreteStakingRewards.sol\":3289:3299  msg.sender */\n      caller\n        /* \"six/DiscreteStakingRewards.sol\":3267:3308  stakingToken.transfer(msg.sender, amount) */\n      0x04\n      dup3\n      add\n        /* \"#utility.yul\":3214:3265   */\n      mstore\n        /* \"#utility.yul\":3281:3299   */\n      0x24\n      dup2\n      add\n        /* \"#utility.yul\":3274:3308   */\n      dup3\n      swap1\n      mstore\n        /* \"six/DiscreteStakingRewards.sol\":3267:3279  stakingToken */\n      immutable(\"0x588e5ad3f145f9d841773d4229bac23d743ef980914ad5d2b613712259f67f55\")\n      sub(shl(0xa0, 0x01), 0x01)\n        /* \"six/DiscreteStakingRewards.sol\":3267:3288  stakingToken.transfer */\n      and\n      swap1\n      0xa9059cbb\n      swap1\n        /* \"#utility.yul\":3187:3205   */\n      0x44\n      add\n        /* \"six/DiscreteStakingRewards.sol\":3267:3308  stakingToken.transfer(msg.sender, amount) */\n    tag_71:\n      0x20\n      mload(0x40)\n      dup1\n      dup4\n      sub\n      dup2\n      0x00\n      dup8\n      gas\n      call\n      iszero\n      dup1\n      iszero\n      tag_74\n      jumpi\n      returndatasize\n      0x00\n      dup1\n      returndatacopy\n      revert(0x00, returndatasize)\n    tag_74:\n      pop\n      pop\n      pop\n      pop\n      mload(0x40)\n      returndatasize\n      not(0x1f)\n      0x1f\n      dup3\n      add\n      and\n      dup3\n      add\n      dup1\n      0x40\n      mstore\n      pop\n      dup2\n      add\n      swap1\n      tag_75\n      swap2\n      swap1\n      tag_55\n      jump\t// in\n    tag_75:\n      pop\n        /* \"six/DiscreteStakingRewards.sol\":3031:3316  function unstake(uint amount) external {... */\n      pop\n      jump\t// out\n        /* \"six/DiscreteStakingRewards.sol\":3403:3686  function claim() external returns (uint) {... */\n    tag_25:\n        /* \"six/DiscreteStakingRewards.sol\":3438:3442  uint */\n      0x00\n        /* \"six/DiscreteStakingRewards.sol\":3455:3481  _updateRewards(msg.sender) */\n      tag_77\n        /* \"six/DiscreteStakingRewards.sol\":3470:3480  msg.sender */\n      caller\n        /* \"six/DiscreteStakingRewards.sol\":3455:3469  _updateRewards */\n      tag_67\n        /* \"six/DiscreteStakingRewards.sol\":3455:3481  _updateRewards(msg.sender) */\n      jump\t// in\n    tag_77:\n        /* \"six/DiscreteStakingRewards.sol\":3513:3523  msg.sender */\n      caller\n        /* \"six/DiscreteStakingRewards.sol\":3492:3503  uint reward */\n      0x00\n        /* \"six/DiscreteStakingRewards.sol\":3506:3524  earned[msg.sender] */\n      swap1\n      dup2\n      mstore\n        /* \"six/DiscreteStakingRewards.sol\":3506:3512  earned */\n      0x03\n        /* \"six/DiscreteStakingRewards.sol\":3506:3524  earned[msg.sender] */\n      0x20\n      mstore\n      0x40\n      swap1\n      keccak256\n      sload\n        /* \"six/DiscreteStakingRewards.sol\":3539:3549  reward > 0 */\n      dup1\n      iszero\n        /* \"six/DiscreteStakingRewards.sol\":3535:3655  if (reward > 0) {... */\n      tag_78\n      jumpi\n        /* \"six/DiscreteStakingRewards.sol\":3573:3583  msg.sender */\n      caller\n        /* \"six/DiscreteStakingRewards.sol\":3587:3588  0 */\n      0x00\n        /* \"six/DiscreteStakingRewards.sol\":3566:3584  earned[msg.sender] */\n      dup2\n      dup2\n      mstore\n        /* \"six/DiscreteStakingRewards.sol\":3566:3572  earned */\n      0x03\n        /* \"six/DiscreteStakingRewards.sol\":3566:3584  earned[msg.sender] */\n      0x20\n      mstore\n      0x40\n      dup1\n      dup3\n      keccak256\n        /* \"six/DiscreteStakingRewards.sol\":3566:3588  earned[msg.sender] = 0 */\n      swap2\n      swap1\n      swap2\n      sstore\n        /* \"six/DiscreteStakingRewards.sol\":3603:3643  rewardToken.transfer(msg.sender, reward) */\n      mload\n      shl(0xe0, 0xa9059cbb)\n      dup2\n      mstore\n      0x04\n      dup2\n      add\n        /* \"#utility.yul\":3214:3265   */\n      swap2\n      swap1\n      swap2\n      mstore\n        /* \"#utility.yul\":3281:3299   */\n      0x24\n      dup2\n      add\n        /* \"#utility.yul\":3274:3308   */\n      dup3\n      swap1\n      mstore\n      sub(shl(0xa0, 0x01), 0x01)\n        /* \"six/DiscreteStakingRewards.sol\":3603:3614  rewardToken */\n      immutable(\"0x03065c56175bab9d6c02682cec557b5c933cd8364ccf2dd44ab76e0c260931e7\")\n        /* \"six/DiscreteStakingRewards.sol\":3603:3623  rewardToken.transfer */\n      and\n      swap1\n      0xa9059cbb\n      swap1\n        /* \"#utility.yul\":3187:3205   */\n      0x44\n      add\n        /* \"six/DiscreteStakingRewards.sol\":3603:3643  rewardToken.transfer(msg.sender, reward) */\n      0x20\n      mload(0x40)\n      dup1\n      dup4\n      sub\n      dup2\n      0x00\n      dup8\n      gas\n      call\n      iszero\n      dup1\n      iszero\n      tag_81\n      jumpi\n      returndatasize\n      0x00\n      dup1\n      returndatacopy\n      revert(0x00, returndatasize)\n    tag_81:\n      pop\n      pop\n      pop\n      pop\n      mload(0x40)\n      returndatasize\n      not(0x1f)\n      0x1f\n      dup3\n      add\n      and\n      dup3\n      add\n      dup1\n      0x40\n      mstore\n      pop\n      dup2\n      add\n      swap1\n      tag_82\n      swap2\n      swap1\n      tag_55\n      jump\t// in\n    tag_82:\n      pop\n        /* \"six/DiscreteStakingRewards.sol\":3535:3655  if (reward > 0) {... */\n    tag_78:\n        /* \"six/DiscreteStakingRewards.sol\":3672:3678  reward */\n      swap2\n        /* \"six/DiscreteStakingRewards.sol\":3403:3686  function claim() external returns (uint) {... */\n      swap1\n      pop\n      jump\t// out\n        /* \"six/DiscreteStakingRewards.sol\":2051:2198  function calculateRewardEarned(address account) external view returns (uint) {... */\n    tag_30:\n        /* \"six/DiscreteStakingRewards.sol\":2122:2126  uint */\n      0x00\n        /* \"six/DiscreteStakingRewards.sol\":2164:2190  _calculateRewards(account) */\n      tag_84\n        /* \"six/DiscreteStakingRewards.sol\":2182:2189  account */\n      dup3\n        /* \"six/DiscreteStakingRewards.sol\":2164:2181  _calculateRewards */\n      tag_85\n        /* \"six/DiscreteStakingRewards.sol\":2164:2190  _calculateRewards(account) */\n      jump\t// in\n    tag_84:\n      sub(shl(0xa0, 0x01), 0x01)\n        /* \"six/DiscreteStakingRewards.sol\":2146:2161  earned[account] */\n      dup4\n      and\n      0x00\n      swap1\n      dup2\n      mstore\n        /* \"six/DiscreteStakingRewards.sol\":2146:2152  earned */\n      0x03\n        /* \"six/DiscreteStakingRewards.sol\":2146:2161  earned[account] */\n      0x20\n      mstore\n      0x40\n      swap1\n      keccak256\n      sload\n        /* \"six/DiscreteStakingRewards.sol\":2146:2190  earned[account] + _calculateRewards(account) */\n      tag_86\n      swap2\n      swap1\n      tag_61\n      jump\t// in\n    tag_86:\n        /* \"six/DiscreteStakingRewards.sol\":2139:2190  return earned[account] + _calculateRewards(account) */\n      swap3\n        /* \"six/DiscreteStakingRewards.sol\":2051:2198  function calculateRewardEarned(address account) external view returns (uint) {... */\n      swap2\n      pop\n      pop\n      jump\t// out\n        /* \"six/DiscreteStakingRewards.sol\":2692:2938  function stake(uint amount) external {... */\n    tag_42:\n        /* \"six/DiscreteStakingRewards.sol\":2740:2766  _updateRewards(msg.sender) */\n      tag_88\n        /* \"six/DiscreteStakingRewards.sol\":2755:2765  msg.sender */\n      caller\n        /* \"six/DiscreteStakingRewards.sol\":2740:2754  _updateRewards */\n      tag_67\n        /* \"six/DiscreteStakingRewards.sol\":2740:2766  _updateRewards(msg.sender) */\n      jump\t// in\n    tag_88:\n        /* \"six/DiscreteStakingRewards.sol\":2806:2816  msg.sender */\n      caller\n        /* \"six/DiscreteStakingRewards.sol\":2796:2805  balanceOf */\n      0x00\n        /* \"six/DiscreteStakingRewards.sol\":2796:2817  balanceOf[msg.sender] */\n      swap1\n      dup2\n      mstore\n      0x20\n      dup2\n      swap1\n      mstore\n      0x40\n      dup2\n      keccak256\n        /* \"six/DiscreteStakingRewards.sol\":2796:2827  balanceOf[msg.sender] += amount */\n      dup1\n      sload\n        /* \"six/DiscreteStakingRewards.sol\":2821:2827  amount */\n      dup4\n      swap3\n        /* \"six/DiscreteStakingRewards.sol\":2796:2805  balanceOf */\n      swap1\n        /* \"six/DiscreteStakingRewards.sol\":2796:2827  balanceOf[msg.sender] += amount */\n      tag_89\n      swap1\n        /* \"six/DiscreteStakingRewards.sol\":2821:2827  amount */\n      dup5\n      swap1\n        /* \"six/DiscreteStakingRewards.sol\":2796:2827  balanceOf[msg.sender] += amount */\n      tag_61\n      jump\t// in\n    tag_89:\n      swap3\n      pop\n      pop\n      dup2\n      swap1\n      sstore\n      pop\n        /* \"six/DiscreteStakingRewards.sol\":2853:2859  amount */\n      dup1\n        /* \"six/DiscreteStakingRewards.sol\":2838:2849  totalSupply */\n      0x01\n      0x00\n        /* \"six/DiscreteStakingRewards.sol\":2838:2859  totalSupply += amount */\n      dup3\n      dup3\n      sload\n      tag_90\n      swap2\n      swap1\n      tag_61\n      jump\t// in\n    tag_90:\n      swap1\n      swap2\n      sstore\n      pop\n      pop\n        /* \"six/DiscreteStakingRewards.sol\":2870:2930  stakingToken.transferFrom(msg.sender, address(this), amount) */\n      mload(0x40)\n      shl(0xe0, 0x23b872dd)\n      dup2\n      mstore\n        /* \"six/DiscreteStakingRewards.sol\":2896:2906  msg.sender */\n      caller\n        /* \"six/DiscreteStakingRewards.sol\":2870:2930  stakingToken.transferFrom(msg.sender, address(this), amount) */\n      0x04\n      dup3\n      add\n        /* \"#utility.yul\":1445:1496   */\n      mstore\n        /* \"six/DiscreteStakingRewards.sol\":2916:2920  this */\n      address\n        /* \"#utility.yul\":1512:1530   */\n      0x24\n      dup3\n      add\n        /* \"#utility.yul\":1505:1565   */\n      mstore\n        /* \"#utility.yul\":1581:1599   */\n      0x44\n      dup2\n      add\n        /* \"#utility.yul\":1574:1608   */\n      dup3\n      swap1\n      mstore\n        /* \"six/DiscreteStakingRewards.sol\":2870:2882  stakingToken */\n      immutable(\"0x588e5ad3f145f9d841773d4229bac23d743ef980914ad5d2b613712259f67f55\")\n      sub(shl(0xa0, 0x01), 0x01)\n        /* \"six/DiscreteStakingRewards.sol\":2870:2895  stakingToken.transferFrom */\n      and\n      swap1\n      0x23b872dd\n      swap1\n        /* \"#utility.yul\":1418:1436   */\n      0x64\n      add\n        /* \"six/DiscreteStakingRewards.sol\":2870:2930  stakingToken.transferFrom(msg.sender, address(this), amount) */\n      tag_71\n        /* \"#utility.yul\":1243:1614   */\n      jump\n        /* \"six/DiscreteStakingRewards.sol\":2367:2599  function _updateRewards(address account) private {... */\n    tag_67:\n        /* \"six/DiscreteStakingRewards.sol\":2476:2502  _calculateRewards(account) */\n      tag_96\n        /* \"six/DiscreteStakingRewards.sol\":2494:2501  account */\n      dup2\n        /* \"six/DiscreteStakingRewards.sol\":2476:2493  _calculateRewards */\n      tag_85\n        /* \"six/DiscreteStakingRewards.sol\":2476:2502  _calculateRewards(account) */\n      jump\t// in\n    tag_96:\n      sub(shl(0xa0, 0x01), 0x01)\n        /* \"six/DiscreteStakingRewards.sol\":2457:2472  earned[account] */\n      dup3\n      and\n      0x00\n      swap1\n      dup2\n      mstore\n        /* \"six/DiscreteStakingRewards.sol\":2457:2463  earned */\n      0x03\n        /* \"six/DiscreteStakingRewards.sol\":2457:2472  earned[account] */\n      0x20\n      mstore\n      0x40\n      dup2\n      keccak256\n        /* \"six/DiscreteStakingRewards.sol\":2457:2502  earned[account] += _calculateRewards(account) */\n      dup1\n      sload\n        /* \"six/DiscreteStakingRewards.sol\":2457:2472  earned[account] */\n      swap1\n      swap2\n      swap1\n        /* \"six/DiscreteStakingRewards.sol\":2457:2502  earned[account] += _calculateRewards(account) */\n      tag_97\n      swap1\n      dup5\n      swap1\n      tag_61\n      jump\t// in\n    tag_97:\n      swap1\n      swap2\n      sstore\n      pop\n      pop\n        /* \"six/DiscreteStakingRewards.sol\":2580:2591  rewardIndex */\n      sload(0x02)\n      sub(shl(0xa0, 0x01), 0x01)\n        /* \"six/DiscreteStakingRewards.sol\":2555:2577  rewardIndexOf[account] */\n      swap1\n      swap2\n      and\n      0x00\n      swap1\n      dup2\n      mstore\n        /* \"six/DiscreteStakingRewards.sol\":2555:2568  rewardIndexOf */\n      0x04\n        /* \"six/DiscreteStakingRewards.sol\":2555:2577  rewardIndexOf[account] */\n      0x20\n      mstore\n      0x40\n      swap1\n      keccak256\n        /* \"six/DiscreteStakingRewards.sol\":2555:2591  rewardIndexOf[account] = rewardIndex */\n      sstore\n        /* \"six/DiscreteStakingRewards.sol\":2367:2599  function _updateRewards(address account) private {... */\n      jump\t// out\n        /* \"six/DiscreteStakingRewards.sol\":1754:1957  function _calculateRewards(address account) private view returns (uint) {... */\n    tag_85:\n      sub(shl(0xa0, 0x01), 0x01)\n        /* \"six/DiscreteStakingRewards.sol\":1851:1869  balanceOf[account] */\n      dup2\n      and\n        /* \"six/DiscreteStakingRewards.sol\":1820:1824  uint */\n      0x00\n        /* \"six/DiscreteStakingRewards.sol\":1851:1869  balanceOf[account] */\n      swap1\n      dup2\n      mstore\n      0x20\n      dup2\n      dup2\n      mstore\n      0x40\n      dup1\n      dup4\n      keccak256\n      sload\n        /* \"six/DiscreteStakingRewards.sol\":1912:1925  rewardIndexOf */\n      0x04\n        /* \"six/DiscreteStakingRewards.sol\":1912:1934  rewardIndexOf[account] */\n      swap1\n      swap3\n      mstore\n      dup3\n      keccak256\n      sload\n        /* \"six/DiscreteStakingRewards.sol\":1898:1909  rewardIndex */\n      sload(0x02)\n        /* \"six/DiscreteStakingRewards.sol\":560:564  1e18 */\n      0x0de0b6b3a7640000\n      swap2\n        /* \"six/DiscreteStakingRewards.sol\":1898:1934  rewardIndex - rewardIndexOf[account] */\n      tag_99\n      swap2\n      tag_69\n      jump\t// in\n    tag_99:\n        /* \"six/DiscreteStakingRewards.sol\":1888:1935  shares * (rewardIndex - rewardIndexOf[account]) */\n      tag_100\n      swap1\n        /* \"six/DiscreteStakingRewards.sol\":1888:1894  shares */\n      dup4\n        /* \"six/DiscreteStakingRewards.sol\":1888:1935  shares * (rewardIndex - rewardIndexOf[account]) */\n      tag_57\n      jump\t// in\n    tag_100:\n        /* \"six/DiscreteStakingRewards.sol\":1887:1949  (shares * (rewardIndex - rewardIndexOf[account])) / MULTIPLIER */\n      tag_101\n      swap2\n      swap1\n      tag_59\n      jump\t// in\n    tag_101:\n        /* \"six/DiscreteStakingRewards.sol\":1880:1949  return (shares * (rewardIndex - rewardIndexOf[account])) / MULTIPLIER */\n      swap4\n        /* \"six/DiscreteStakingRewards.sol\":1754:1957  function _calculateRewards(address account) private view returns (uint) {... */\n      swap3\n      pop\n      pop\n      pop\n      jump\t// out\n        /* \"#utility.yul\":14:194   */\n    tag_15:\n        /* \"#utility.yul\":73:79   */\n      0x00\n        /* \"#utility.yul\":126:128   */\n      0x20\n        /* \"#utility.yul\":114:123   */\n      dup3\n        /* \"#utility.yul\":105:112   */\n      dup5\n        /* \"#utility.yul\":101:124   */\n      sub\n        /* \"#utility.yul\":97:129   */\n      slt\n        /* \"#utility.yul\":94:146   */\n      iszero\n      tag_105\n      jumpi\n        /* \"#utility.yul\":142:143   */\n      0x00\n        /* \"#utility.yul\":139:140   */\n      dup1\n        /* \"#utility.yul\":132:144   */\n      revert\n        /* \"#utility.yul\":94:146   */\n    tag_105:\n      pop\n        /* \"#utility.yul\":165:188   */\n      calldataload\n      swap2\n        /* \"#utility.yul\":14:194   */\n      swap1\n      pop\n      jump\t// out\n        /* \"#utility.yul\":381:667   */\n    tag_29:\n        /* \"#utility.yul\":440:446   */\n      0x00\n        /* \"#utility.yul\":493:495   */\n      0x20\n        /* \"#utility.yul\":481:490   */\n      dup3\n        /* \"#utility.yul\":472:479   */\n      dup5\n        /* \"#utility.yul\":468:491   */\n      sub\n        /* \"#utility.yul\":464:496   */\n      slt\n        /* \"#utility.yul\":461:513   */\n      iszero\n      tag_108\n      jumpi\n        /* \"#utility.yul\":509:510   */\n      0x00\n        /* \"#utility.yul\":506:507   */\n      dup1\n        /* \"#utility.yul\":499:511   */\n      revert\n        /* \"#utility.yul\":461:513   */\n    tag_108:\n        /* \"#utility.yul\":535:558   */\n      dup2\n      calldataload\n      sub(shl(0xa0, 0x01), 0x01)\n        /* \"#utility.yul\":587:618   */\n      dup2\n      and\n        /* \"#utility.yul\":577:619   */\n      dup2\n      eq\n        /* \"#utility.yul\":567:637   */\n      tag_101\n      jumpi\n        /* \"#utility.yul\":633:634   */\n      0x00\n        /* \"#utility.yul\":630:631   */\n      dup1\n        /* \"#utility.yul\":623:635   */\n      revert\n        /* \"#utility.yul\":1619:1896   */\n    tag_55:\n        /* \"#utility.yul\":1686:1692   */\n      0x00\n        /* \"#utility.yul\":1739:1741   */\n      0x20\n        /* \"#utility.yul\":1727:1736   */\n      dup3\n        /* \"#utility.yul\":1718:1725   */\n      dup5\n        /* \"#utility.yul\":1714:1737   */\n      sub\n        /* \"#utility.yul\":1710:1742   */\n      slt\n        /* \"#utility.yul\":1707:1759   */\n      iszero\n      tag_114\n      jumpi\n        /* \"#utility.yul\":1755:1756   */\n      0x00\n        /* \"#utility.yul\":1752:1753   */\n      dup1\n        /* \"#utility.yul\":1745:1757   */\n      revert\n        /* \"#utility.yul\":1707:1759   */\n    tag_114:\n        /* \"#utility.yul\":1787:1796   */\n      dup2\n        /* \"#utility.yul\":1781:1797   */\n      mload\n        /* \"#utility.yul\":1840:1845   */\n      dup1\n        /* \"#utility.yul\":1833:1846   */\n      iszero\n        /* \"#utility.yul\":1826:1847   */\n      iszero\n        /* \"#utility.yul\":1819:1824   */\n      dup2\n        /* \"#utility.yul\":1816:1848   */\n      eq\n        /* \"#utility.yul\":1806:1866   */\n      tag_101\n      jumpi\n        /* \"#utility.yul\":1862:1863   */\n      0x00\n        /* \"#utility.yul\":1859:1860   */\n      dup1\n        /* \"#utility.yul\":1852:1864   */\n      revert\n        /* \"#utility.yul\":1901:2028   */\n    tag_102:\n        /* \"#utility.yul\":1962:1972   */\n      0x4e487b71\n        /* \"#utility.yul\":1957:1960   */\n      0xe0\n        /* \"#utility.yul\":1953:1973   */\n      shl\n        /* \"#utility.yul\":1950:1951   */\n      0x00\n        /* \"#utility.yul\":1943:1974   */\n      mstore\n        /* \"#utility.yul\":1993:1997   */\n      0x11\n        /* \"#utility.yul\":1990:1991   */\n      0x04\n        /* \"#utility.yul\":1983:1998   */\n      mstore\n        /* \"#utility.yul\":2017:2021   */\n      0x24\n        /* \"#utility.yul\":2014:2015   */\n      0x00\n        /* \"#utility.yul\":2007:2022   */\n      revert\n        /* \"#utility.yul\":2033:2201   */\n    tag_57:\n        /* \"#utility.yul\":2106:2115   */\n      dup1\n      dup3\n      mul\n        /* \"#utility.yul\":2137:2146   */\n      dup2\n      iszero\n        /* \"#utility.yul\":2154:2169   */\n      dup3\n      dup3\n      div\n        /* \"#utility.yul\":2148:2170   */\n      dup5\n      eq\n        /* \"#utility.yul\":2134:2171   */\n      or\n        /* \"#utility.yul\":2124:2195   */\n      tag_86\n      jumpi\n        /* \"#utility.yul\":2175:2193   */\n      tag_86\n      tag_102\n      jump\t// in\n        /* \"#utility.yul\":2206:2423   */\n    tag_59:\n        /* \"#utility.yul\":2246:2247   */\n      0x00\n        /* \"#utility.yul\":2272:2273   */\n      dup3\n        /* \"#utility.yul\":2262:2394   */\n      tag_121\n      jumpi\n        /* \"#utility.yul\":2316:2326   */\n      0x4e487b71\n        /* \"#utility.yul\":2311:2314   */\n      0xe0\n        /* \"#utility.yul\":2307:2327   */\n      shl\n        /* \"#utility.yul\":2304:2305   */\n      0x00\n        /* \"#utility.yul\":2297:2328   */\n      mstore\n        /* \"#utility.yul\":2351:2355   */\n      0x12\n        /* \"#utility.yul\":2348:2349   */\n      0x04\n        /* \"#utility.yul\":2341:2356   */\n      mstore\n        /* \"#utility.yul\":2379:2383   */\n      0x24\n        /* \"#utility.yul\":2376:2377   */\n      0x00\n        /* \"#utility.yul\":2369:2384   */\n      revert\n        /* \"#utility.yul\":2262:2394   */\n    tag_121:\n      pop\n        /* \"#utility.yul\":2408:2417   */\n      div\n      swap1\n        /* \"#utility.yul\":2206:2423   */\n      jump\t// out\n        /* \"#utility.yul\":2428:2553   */\n    tag_61:\n        /* \"#utility.yul\":2493:2502   */\n      dup1\n      dup3\n      add\n        /* \"#utility.yul\":2514:2524   */\n      dup1\n      dup3\n      gt\n        /* \"#utility.yul\":2511:2547   */\n      iszero\n      tag_86\n      jumpi\n        /* \"#utility.yul\":2527:2545   */\n      tag_86\n      tag_102\n      jump\t// in\n        /* \"#utility.yul\":2907:3035   */\n    tag_69:\n        /* \"#utility.yul\":2974:2983   */\n      dup2\n      dup2\n      sub\n        /* \"#utility.yul\":2995:3006   */\n      dup2\n      dup2\n      gt\n        /* \"#utility.yul\":2992:3029   */\n      iszero\n      tag_86\n      jumpi\n        /* \"#utility.yul\":3009:3027   */\n      tag_86\n      tag_102\n      jump\t// in\n\n    auxdata: 0xa26469706673582212207b133e49171d198cccd95862b80482f5b166e2fead1ed51f5f43450f1860a9cf64736f6c634300081a0033\n}\n",
				"bytecode": {
					"linkReferences": {},
					"object": "60c0604052348015600e575f80fd5b506040516107d13803806107d1833981016040819052602b91605b565b6001600160a01b039182166080521660a0526087565b80516001600160a01b03811681146056575f80fd5b919050565b5f8060408385031215606b575f80fd5b6072836041565b9150607e602084016041565b90509250929050565b60805160a05161070d6100c45f395f8181610169015281816101fa015261042601525f818161011701528181610359015261052f015261070d5ff3fe608060405234801561000f575f80fd5b5060043610610090575f3560e01c80635a230162116100635780635a230162146100e057806370a08231146100f357806372f702f314610112578063a694fc3a14610151578063f7c618c114610164575f80fd5b80630dcc4b441461009457806318160ddd146100a95780632e17de78146100c55780634e71d92d146100d8575b5f80fd5b6100a76100a236600461060b565b61018b565b005b6100b260015481565b6040519081526020015b60405180910390f35b6100a76100d336600461060b565b6102a4565b6100b26103d0565b6100b26100ee366004610622565b610497565b6100b2610101366004610622565b5f6020819052908152604090205481565b6101397f000000000000000000000000000000000000000000000000000000000000000081565b6040516001600160a01b0390911681526020016100bc565b6100a761015f36600461060b565b6104c9565b6101397f000000000000000000000000000000000000000000000000000000000000000081565b5f600154116101d85760405162461bcd60e51b8152602060048201526014602482015273546f74616c20737570706c79206973207a65726f60601b60448201526064015b60405180910390fd5b6040516323b872dd60e01b8152336004820152306024820152604481018290527f00000000000000000000000000000000000000000000000000000000000000006001600160a01b0316906323b872dd906064016020604051808303815f875af1158015610248573d5f803e3d5ffd5b505050506040513d601f19601f8201168201806040525081019061026c9190610648565b50600154610282670de0b6b3a76400008361067b565b61028c9190610692565b60025f82825461029c91906106b1565b909155505050565b335f908152602081905260409020548111156102f95760405162461bcd60e51b8152602060048201526014602482015273496e73756666696369656e742062616c616e636560601b60448201526064016101cf565b61030233610566565b335f90815260208190526040812080548392906103209084906106c4565b925050819055508060015f82825461033891906106c4565b909155505060405163a9059cbb60e01b8152336004820152602481018290527f00000000000000000000000000000000000000000000000000000000000000006001600160a01b03169063a9059cbb906044015b6020604051808303815f875af11580156103a8573d5f803e3d5ffd5b505050506040513d601f19601f820116820180604052508101906103cc9190610648565b5050565b5f6103da33610566565b335f90815260036020526040902054801561049257335f81815260036020526040808220919091555163a9059cbb60e01b81526004810191909152602481018290526001600160a01b037f0000000000000000000000000000000000000000000000000000000000000000169063a9059cbb906044016020604051808303815f875af115801561046c573d5f803e3d5ffd5b505050506040513d601f19601f820116820180604052508101906104909190610648565b505b919050565b5f6104a1826105b9565b6001600160a01b0383165f908152600360205260409020546104c391906106b1565b92915050565b6104d233610566565b335f90815260208190526040812080548392906104f09084906106b1565b925050819055508060015f82825461050891906106b1565b90915550506040516323b872dd60e01b8152336004820152306024820152604481018290527f00000000000000000000000000000000000000000000000000000000000000006001600160a01b0316906323b872dd9060640161038c565b61056f816105b9565b6001600160a01b0382165f90815260036020526040812080549091906105969084906106b1565b90915550506002546001600160a01b039091165f90815260046020526040902055565b6001600160a01b0381165f90815260208181526040808320546004909252822054600254670de0b6b3a7640000916105f0916106c4565b6105fa908361067b565b6106049190610692565b9392505050565b5f6020828403121561061b575f80fd5b5035919050565b5f60208284031215610632575f80fd5b81356001600160a01b0381168114610604575f80fd5b5f60208284031215610658575f80fd5b81518015158114610604575f80fd5b634e487b7160e01b5f52601160045260245ffd5b80820281158282048414176104c3576104c3610667565b5f826106ac57634e487b7160e01b5f52601260045260245ffd5b500490565b808201808211156104c3576104c3610667565b818103818111156104c3576104c361066756fea26469706673582212207b133e49171d198cccd95862b80482f5b166e2fead1ed51f5f43450f1860a9cf64736f6c634300081a0033",
					"opcodes": "PUSH1 0xC0 PUSH1 0x40 MSTORE CALLVALUE DUP1 ISZERO PUSH1 0xE JUMPI PUSH0 DUP1 REVERT JUMPDEST POP PUSH1 0x40 MLOAD PUSH2 0x7D1 CODESIZE SUB DUP1 PUSH2 0x7D1 DUP4 CODECOPY DUP2 ADD PUSH1 0x40 DUP2 SWAP1 MSTORE PUSH1 0x2B SWAP2 PUSH1 0x5B JUMP JUMPDEST PUSH1 0x1 PUSH1 0x1 PUSH1 0xA0 SHL SUB SWAP2 DUP3 AND PUSH1 0x80 MSTORE AND PUSH1 0xA0 MSTORE PUSH1 0x87 JUMP JUMPDEST DUP1 MLOAD PUSH1 0x1 PUSH1 0x1 PUSH1 0xA0 SHL SUB DUP2 AND DUP2 EQ PUSH1 0x56 JUMPI PUSH0 DUP1 REVERT JUMPDEST SWAP2 SWAP1 POP JUMP JUMPDEST PUSH0 DUP1 PUSH1 0x40 DUP4 DUP6 SUB SLT ISZERO PUSH1 0x6B JUMPI PUSH0 DUP1 REVERT JUMPDEST PUSH1 0x72 DUP4 PUSH1 0x41 JUMP JUMPDEST SWAP2 POP PUSH1 0x7E PUSH1 0x20 DUP5 ADD PUSH1 0x41 JUMP JUMPDEST SWAP1 POP SWAP3 POP SWAP3 SWAP1 POP JUMP JUMPDEST PUSH1 0x80 MLOAD PUSH1 0xA0 MLOAD PUSH2 0x70D PUSH2 0xC4 PUSH0 CODECOPY PUSH0 DUP2 DUP2 PUSH2 0x169 ADD MSTORE DUP2 DUP2 PUSH2 0x1FA ADD MSTORE PUSH2 0x426 ADD MSTORE PUSH0 DUP2 DUP2 PUSH2 0x117 ADD MSTORE DUP2 DUP2 PUSH2 0x359 ADD MSTORE PUSH2 0x52F ADD MSTORE PUSH2 0x70D PUSH0 RETURN INVALID PUSH1 0x80 PUSH1 0x40 MSTORE CALLVALUE DUP1 ISZERO PUSH2 0xF JUMPI PUSH0 DUP1 REVERT JUMPDEST POP PUSH1 0x4 CALLDATASIZE LT PUSH2 0x90 JUMPI PUSH0 CALLDATALOAD PUSH1 0xE0 SHR DUP1 PUSH4 0x5A230162 GT PUSH2 0x63 JUMPI DUP1 PUSH4 0x5A230162 EQ PUSH2 0xE0 JUMPI DUP1 PUSH4 0x70A08231 EQ PUSH2 0xF3 JUMPI DUP1 PUSH4 0x72F702F3 EQ PUSH2 0x112 JUMPI DUP1 PUSH4 0xA694FC3A EQ PUSH2 0x151 JUMPI DUP1 PUSH4 0xF7C618C1 EQ PUSH2 0x164 JUMPI PUSH0 DUP1 REVERT JUMPDEST DUP1 PUSH4 0xDCC4B44 EQ PUSH2 0x94 JUMPI DUP1 PUSH4 0x18160DDD EQ PUSH2 0xA9 JUMPI DUP1 PUSH4 0x2E17DE78 EQ PUSH2 0xC5 JUMPI DUP1 PUSH4 0x4E71D92D EQ PUSH2 0xD8 JUMPI JUMPDEST PUSH0 DUP1 REVERT JUMPDEST PUSH2 0xA7 PUSH2 0xA2 CALLDATASIZE PUSH1 0x4 PUSH2 0x60B JUMP JUMPDEST PUSH2 0x18B JUMP JUMPDEST STOP JUMPDEST PUSH2 0xB2 PUSH1 0x1 SLOAD DUP2 JUMP JUMPDEST PUSH1 0x40 MLOAD SWAP1 DUP2 MSTORE PUSH1 0x20 ADD JUMPDEST PUSH1 0x40 MLOAD DUP1 SWAP2 SUB SWAP1 RETURN JUMPDEST PUSH2 0xA7 PUSH2 0xD3 CALLDATASIZE PUSH1 0x4 PUSH2 0x60B JUMP JUMPDEST PUSH2 0x2A4 JUMP JUMPDEST PUSH2 0xB2 PUSH2 0x3D0 JUMP JUMPDEST PUSH2 0xB2 PUSH2 0xEE CALLDATASIZE PUSH1 0x4 PUSH2 0x622 JUMP JUMPDEST PUSH2 0x497 JUMP JUMPDEST PUSH2 0xB2 PUSH2 0x101 CALLDATASIZE PUSH1 0x4 PUSH2 0x622 JUMP JUMPDEST PUSH0 PUSH1 0x20 DUP2 SWAP1 MSTORE SWAP1 DUP2 MSTORE PUSH1 0x40 SWAP1 KECCAK256 SLOAD DUP2 JUMP JUMPDEST PUSH2 0x139 PUSH32 0x0 DUP2 JUMP JUMPDEST PUSH1 0x40 MLOAD PUSH1 0x1 PUSH1 0x1 PUSH1 0xA0 SHL SUB SWAP1 SWAP2 AND DUP2 MSTORE PUSH1 0x20 ADD PUSH2 0xBC JUMP JUMPDEST PUSH2 0xA7 PUSH2 0x15F CALLDATASIZE PUSH1 0x4 PUSH2 0x60B JUMP JUMPDEST PUSH2 0x4C9 JUMP JUMPDEST PUSH2 0x139 PUSH32 0x0 DUP2 JUMP JUMPDEST PUSH0 PUSH1 0x1 SLOAD GT PUSH2 0x1D8 JUMPI PUSH1 0x40 MLOAD PUSH3 0x461BCD PUSH1 0xE5 SHL DUP2 MSTORE PUSH1 0x20 PUSH1 0x4 DUP3 ADD MSTORE PUSH1 0x14 PUSH1 0x24 DUP3 ADD MSTORE PUSH20 0x546F74616C20737570706C79206973207A65726F PUSH1 0x60 SHL PUSH1 0x44 DUP3 ADD MSTORE PUSH1 0x64 ADD JUMPDEST PUSH1 0x40 MLOAD DUP1 SWAP2 SUB SWAP1 REVERT JUMPDEST PUSH1 0x40 MLOAD PUSH4 0x23B872DD PUSH1 0xE0 SHL DUP2 MSTORE CALLER PUSH1 0x4 DUP3 ADD MSTORE ADDRESS PUSH1 0x24 DUP3 ADD MSTORE PUSH1 0x44 DUP2 ADD DUP3 SWAP1 MSTORE PUSH32 0x0 PUSH1 0x1 PUSH1 0x1 PUSH1 0xA0 SHL SUB AND SWAP1 PUSH4 0x23B872DD SWAP1 PUSH1 0x64 ADD PUSH1 0x20 PUSH1 0x40 MLOAD DUP1 DUP4 SUB DUP2 PUSH0 DUP8 GAS CALL ISZERO DUP1 ISZERO PUSH2 0x248 JUMPI RETURNDATASIZE PUSH0 DUP1 RETURNDATACOPY RETURNDATASIZE PUSH0 REVERT JUMPDEST POP POP POP POP PUSH1 0x40 MLOAD RETURNDATASIZE PUSH1 0x1F NOT PUSH1 0x1F DUP3 ADD AND DUP3 ADD DUP1 PUSH1 0x40 MSTORE POP DUP2 ADD SWAP1 PUSH2 0x26C SWAP2 SWAP1 PUSH2 0x648 JUMP JUMPDEST POP PUSH1 0x1 SLOAD PUSH2 0x282 PUSH8 0xDE0B6B3A7640000 DUP4 PUSH2 0x67B JUMP JUMPDEST PUSH2 0x28C SWAP2 SWAP1 PUSH2 0x692 JUMP JUMPDEST PUSH1 0x2 PUSH0 DUP3 DUP3 SLOAD PUSH2 0x29C SWAP2 SWAP1 PUSH2 0x6B1 JUMP JUMPDEST SWAP1 SWAP2 SSTORE POP POP POP JUMP JUMPDEST CALLER PUSH0 SWAP1 DUP2 MSTORE PUSH1 0x20 DUP2 SWAP1 MSTORE PUSH1 0x40 SWAP1 KECCAK256 SLOAD DUP2 GT ISZERO PUSH2 0x2F9 JUMPI PUSH1 0x40 MLOAD PUSH3 0x461BCD PUSH1 0xE5 SHL DUP2 MSTORE PUSH1 0x20 PUSH1 0x4 DUP3 ADD MSTORE PUSH1 0x14 PUSH1 0x24 DUP3 ADD MSTORE PUSH20 0x496E73756666696369656E742062616C616E6365 PUSH1 0x60 SHL PUSH1 0x44 DUP3 ADD MSTORE PUSH1 0x64 ADD PUSH2 0x1CF JUMP JUMPDEST PUSH2 0x302 CALLER PUSH2 0x566 JUMP JUMPDEST CALLER PUSH0 SWAP1 DUP2 MSTORE PUSH1 0x20 DUP2 SWAP1 MSTORE PUSH1 0x40 DUP2 KECCAK256 DUP1 SLOAD DUP4 SWAP3 SWAP1 PUSH2 0x320 SWAP1 DUP5 SWAP1 PUSH2 0x6C4 JUMP JUMPDEST SWAP3 POP POP DUP2 SWAP1 SSTORE POP DUP1 PUSH1 0x1 PUSH0 DUP3 DUP3 SLOAD PUSH2 0x338 SWAP2 SWAP1 PUSH2 0x6C4 JUMP JUMPDEST SWAP1 SWAP2 SSTORE POP POP PUSH1 0x40 MLOAD PUSH4 0xA9059CBB PUSH1 0xE0 SHL DUP2 MSTORE CALLER PUSH1 0x4 DUP3 ADD MSTORE PUSH1 0x24 DUP2 ADD DUP3 SWAP1 MSTORE PUSH32 0x0 PUSH1 0x1 PUSH1 0x1 PUSH1 0xA0 SHL SUB AND SWAP1 PUSH4 0xA9059CBB SWAP1 PUSH1 0x44 ADD JUMPDEST PUSH1 0x20 PUSH1 0x40 MLOAD DUP1 DUP4 SUB DUP2 PUSH0 DUP8 GAS CALL ISZERO DUP1 ISZERO PUSH2 0x3A8 JUMPI RETURNDATASIZE PUSH0 DUP1 RETURNDATACOPY RETURNDATASIZE PUSH0 REVERT JUMPDEST POP POP POP POP PUSH1 0x40 MLOAD RETURNDATASIZE PUSH1 0x1F NOT PUSH1 0x1F DUP3 ADD AND DUP3 ADD DUP1 PUSH1 0x40 MSTORE POP DUP2 ADD SWAP1 PUSH2 0x3CC SWAP2 SWAP1 PUSH2 0x648 JUMP JUMPDEST POP POP JUMP JUMPDEST PUSH0 PUSH2 0x3DA CALLER PUSH2 0x566 JUMP JUMPDEST CALLER PUSH0 SWAP1 DUP2 MSTORE PUSH1 0x3 PUSH1 0x20 MSTORE PUSH1 0x40 SWAP1 KECCAK256 SLOAD DUP1 ISZERO PUSH2 0x492 JUMPI CALLER PUSH0 DUP2 DUP2 MSTORE PUSH1 0x3 PUSH1 0x20 MSTORE PUSH1 0x40 DUP1 DUP3 KECCAK256 SWAP2 SWAP1 SWAP2 SSTORE MLOAD PUSH4 0xA9059CBB PUSH1 0xE0 SHL DUP2 MSTORE PUSH1 0x4 DUP2 ADD SWAP2 SWAP1 SWAP2 MSTORE PUSH1 0x24 DUP2 ADD DUP3 SWAP1 MSTORE PUSH1 0x1 PUSH1 0x1 PUSH1 0xA0 SHL SUB PUSH32 0x0 AND SWAP1 PUSH4 0xA9059CBB SWAP1 PUSH1 0x44 ADD PUSH1 0x20 PUSH1 0x40 MLOAD DUP1 DUP4 SUB DUP2 PUSH0 DUP8 GAS CALL ISZERO DUP1 ISZERO PUSH2 0x46C JUMPI RETURNDATASIZE PUSH0 DUP1 RETURNDATACOPY RETURNDATASIZE PUSH0 REVERT JUMPDEST POP POP POP POP PUSH1 0x40 MLOAD RETURNDATASIZE PUSH1 0x1F NOT PUSH1 0x1F DUP3 ADD AND DUP3 ADD DUP1 PUSH1 0x40 MSTORE POP DUP2 ADD SWAP1 PUSH2 0x490 SWAP2 SWAP1 PUSH2 0x648 JUMP JUMPDEST POP JUMPDEST SWAP2 SWAP1 POP JUMP JUMPDEST PUSH0 PUSH2 0x4A1 DUP3 PUSH2 0x5B9 JUMP JUMPDEST PUSH1 0x1 PUSH1 0x1 PUSH1 0xA0 SHL SUB DUP4 AND PUSH0 SWAP1 DUP2 MSTORE PUSH1 0x3 PUSH1 0x20 MSTORE PUSH1 0x40 SWAP1 KECCAK256 SLOAD PUSH2 0x4C3 SWAP2 SWAP1 PUSH2 0x6B1 JUMP JUMPDEST SWAP3 SWAP2 POP POP JUMP JUMPDEST PUSH2 0x4D2 CALLER PUSH2 0x566 JUMP JUMPDEST CALLER PUSH0 SWAP1 DUP2 MSTORE PUSH1 0x20 DUP2 SWAP1 MSTORE PUSH1 0x40 DUP2 KECCAK256 DUP1 SLOAD DUP4 SWAP3 SWAP1 PUSH2 0x4F0 SWAP1 DUP5 SWAP1 PUSH2 0x6B1 JUMP JUMPDEST SWAP3 POP POP DUP2 SWAP1 SSTORE POP DUP1 PUSH1 0x1 PUSH0 DUP3 DUP3 SLOAD PUSH2 0x508 SWAP2 SWAP1 PUSH2 0x6B1 JUMP JUMPDEST SWAP1 SWAP2 SSTORE POP POP PUSH1 0x40 MLOAD PUSH4 0x23B872DD PUSH1 0xE0 SHL DUP2 MSTORE CALLER PUSH1 0x4 DUP3 ADD MSTORE ADDRESS PUSH1 0x24 DUP3 ADD MSTORE PUSH1 0x44 DUP2 ADD DUP3 SWAP1 MSTORE PUSH32 0x0 PUSH1 0x1 PUSH1 0x1 PUSH1 0xA0 SHL SUB AND SWAP1 PUSH4 0x23B872DD SWAP1 PUSH1 0x64 ADD PUSH2 0x38C JUMP JUMPDEST PUSH2 0x56F DUP2 PUSH2 0x5B9 JUMP JUMPDEST PUSH1 0x1 PUSH1 0x1 PUSH1 0xA0 SHL SUB DUP3 AND PUSH0 SWAP1 DUP2 MSTORE PUSH1 0x3 PUSH1 0x20 MSTORE PUSH1 0x40 DUP2 KECCAK256 DUP1 SLOAD SWAP1 SWAP2 SWAP1 PUSH2 0x596 SWAP1 DUP5 SWAP1 PUSH2 0x6B1 JUMP JUMPDEST SWAP1 SWAP2 SSTORE POP POP PUSH1 0x2 SLOAD PUSH1 0x1 PUSH1 0x1 PUSH1 0xA0 SHL SUB SWAP1 SWAP2 AND PUSH0 SWAP1 DUP2 MSTORE PUSH1 0x4 PUSH1 0x20 MSTORE PUSH1 0x40 SWAP1 KECCAK256 SSTORE JUMP JUMPDEST PUSH1 0x1 PUSH1 0x1 PUSH1 0xA0 SHL SUB DUP2 AND PUSH0 SWAP1 DUP2 MSTORE PUSH1 0x20 DUP2 DUP2 MSTORE PUSH1 0x40 DUP1 DUP4 KECCAK256 SLOAD PUSH1 0x4 SWAP1 SWAP3 MSTORE DUP3 KECCAK256 SLOAD PUSH1 0x2 SLOAD PUSH8 0xDE0B6B3A7640000 SWAP2 PUSH2 0x5F0 SWAP2 PUSH2 0x6C4 JUMP JUMPDEST PUSH2 0x5FA SWAP1 DUP4 PUSH2 0x67B JUMP JUMPDEST PUSH2 0x604 SWAP2 SWAP1 PUSH2 0x692 JUMP JUMPDEST SWAP4 SWAP3 POP POP POP JUMP JUMPDEST PUSH0 PUSH1 0x20 DUP3 DUP5 SUB SLT ISZERO PUSH2 0x61B JUMPI PUSH0 DUP1 REVERT JUMPDEST POP CALLDATALOAD SWAP2 SWAP1 POP JUMP JUMPDEST PUSH0 PUSH1 0x20 DUP3 DUP5 SUB SLT ISZERO PUSH2 0x632 JUMPI PUSH0 DUP1 REVERT JUMPDEST DUP2 CALLDATALOAD PUSH1 0x1 PUSH1 0x1 PUSH1 0xA0 SHL SUB DUP2 AND DUP2 EQ PUSH2 0x604 JUMPI PUSH0 DUP1 REVERT JUMPDEST PUSH0 PUSH1 0x20 DUP3 DUP5 SUB SLT ISZERO PUSH2 0x658 JUMPI PUSH0 DUP1 REVERT JUMPDEST DUP2 MLOAD DUP1 ISZERO ISZERO DUP2 EQ PUSH2 0x604 JUMPI PUSH0 DUP1 REVERT JUMPDEST PUSH4 0x4E487B71 PUSH1 0xE0 SHL PUSH0 MSTORE PUSH1 0x11 PUSH1 0x4 MSTORE PUSH1 0x24 PUSH0 REVERT JUMPDEST DUP1 DUP3 MUL DUP2 ISZERO DUP3 DUP3 DIV DUP5 EQ OR PUSH2 0x4C3 JUMPI PUSH2 0x4C3 PUSH2 0x667 JUMP JUMPDEST PUSH0 DUP3 PUSH2 0x6AC JUMPI PUSH4 0x4E487B71 PUSH1 0xE0 SHL PUSH0 MSTORE PUSH1 0x12 PUSH1 0x4 MSTORE PUSH1 0x24 PUSH0 REVERT JUMPDEST POP DIV SWAP1 JUMP JUMPDEST DUP1 DUP3 ADD DUP1 DUP3 GT ISZERO PUSH2 0x4C3 JUMPI PUSH2 0x4C3 PUSH2 0x667 JUMP JUMPDEST DUP2 DUP2 SUB DUP2 DUP2 GT ISZERO PUSH2 0x4C3 JUMPI PUSH2 0x4C3 PUSH2 0x667 JUMP INVALID LOG2 PUSH5 0x6970667358 0x22 SLT KECCAK256 PUSH28 0x133E49171D198CCCD95862B80482F5B166E2FEAD1ED51F5F43450F18 PUSH1 0xA9 0xCF PUSH5 0x736F6C6343 STOP ADDMOD BYTE STOP CALLER "
				},
				"gasEstimates": {
					"creation": {
						"codeDepositCost": "361000",
						"executionCost": "infinite",
						"totalCost": "infinite"
					},
					"external": {
						"balanceOf(address)": "2495",
						"calculateRewardEarned(address)": "infinite",
						"claim()": "infinite",
						"rewardToken()": "infinite",
						"stake(uint256)": "infinite",
						"stakingToken()": "infinite",
						"totalSupply()": "2306",
						"unstake(uint256)": "infinite",
						"updateRewardIndex(uint256)": "infinite"
					},
					"internal": {
						"_calculateRewards(address)": "infinite",
						"_updateRewards(address)": "infinite"
					}
				},
				"methodIdentifiers": {
					"balanceOf(address)": "70a08231",
					"calculateRewardEarned(address)": "5a230162",
					"claim()": "4e71d92d",
					"rewardToken()": "f7c618c1",
					"stake(uint256)": "a694fc3a",
					"stakingToken()": "72f702f3",
					"totalSupply()": "18160ddd",
					"unstake(uint256)": "2e17de78",
					"updateRewardIndex(uint256)": "0dcc4b44"
				}
			},
			"storageLayout": {
				"storage": [
					{
						"astId": 798,
						"contract": "six/DiscreteStakingRewards.sol:DiscreteStakingRewards",
						"label": "balanceOf",
						"offset": 0,
						"slot": "0",
						"type": "t_mapping(t_address,t_uint256)"
					},
					{
						"astId": 800,
						"contract": "six/DiscreteStakingRewards.sol:DiscreteStakingRewards",
						"label": "totalSupply",
						"offset": 0,
						"slot": "1",
						"type": "t_uint256"
					},
					{
						"astId": 805,
						"contract": "six/DiscreteStakingRewards.sol:DiscreteStakingRewards",
						"label": "rewardIndex",
						"offset": 0,
						"slot": "2",
						"type": "t_uint256"
					},
					{
						"astId": 809,
						"contract": "six/DiscreteStakingRewards.sol:DiscreteStakingRewards",
						"label": "earned",
						"offset": 0,
						"slot": "3",
						"type": "t_mapping(t_address,t_uint256)"
					},
					{
						"astId": 813,
						"contract": "six/DiscreteStakingRewards.sol:DiscreteStakingRewards",
						"label": "rewardIndexOf",
						"offset": 0,
						"slot": "4",
						"type": "t_mapping(t_address,t_uint256)"
					}
				],
				"types": {
					"t_address": {
						"encoding": "inplace",
						"label": "address",
						"numberOfBytes": "20"
					},
					"t_mapping(t_address,t_uint256)": {
						"encoding": "mapping",
						"key": "t_address",
						"label": "mapping(address => uint256)",
						"numberOfBytes": "32",
						"value": "t_uint256"
					},
					"t_uint256": {
						"encoding": "inplace",
						"label": "uint256",
						"numberOfBytes": "32"
					}
				}
			},
			"userdoc": {
				"kind": "user",
				"methods": {},
				"version": 1
			}
		}
	}
}