{
	"six/AbiEncode.sol": {
		"Token": {
			"abi": [
				{
					"inputs": [
						{
							"internalType": "address",
							"name": "_address",
							"type": "address"
						},
						{
							"internalType": "uint256",
							"name": "_amount",
							"type": "uint256"
						}
					],
					"name": "transfer",
					"outputs": [],
					"stateMutability": "nonpayable",
					"type": "function"
				}
			],
			"devdoc": {
				"kind": "dev",
				"methods": {},
				"version": 1
			},
			"evm": {
				"assembly": "    /* \"six/AbiEncode.sol\":232:327  contract Token{... */\n  mstore(0x40, 0x80)\n  callvalue\n  dup1\n  iszero\n  tag_1\n  jumpi\n  0x00\n  dup1\n  revert\ntag_1:\n  pop\n  dataSize(sub_0)\n  dup1\n  dataOffset(sub_0)\n  0x00\n  codecopy\n  0x00\n  return\nstop\n\nsub_0: assembly {\n        /* \"six/AbiEncode.sol\":232:327  contract Token{... */\n      mstore(0x40, 0x80)\n      callvalue\n      dup1\n      iszero\n      tag_1\n      jumpi\n      0x00\n      dup1\n      revert\n    tag_1:\n      pop\n      jumpi(tag_2, lt(calldatasize, 0x04))\n      shr(0xe0, calldataload(0x00))\n      dup1\n      0xa9059cbb\n      eq\n      tag_3\n      jumpi\n    tag_2:\n      0x00\n      dup1\n      revert\n        /* \"six/AbiEncode.sol\":253:324  function transfer(address _address,uint256 _amount) external {... */\n    tag_3:\n      tag_4\n      tag_5\n      calldatasize\n      0x04\n      tag_6\n      jump\t// in\n    tag_5:\n      pop\n      pop\n      jump\n    tag_4:\n      stop\n        /* \"#utility.yul\":14:368   */\n    tag_6:\n        /* \"#utility.yul\":82:88   */\n      0x00\n        /* \"#utility.yul\":90:96   */\n      dup1\n        /* \"#utility.yul\":143:145   */\n      0x40\n        /* \"#utility.yul\":131:140   */\n      dup4\n        /* \"#utility.yul\":122:129   */\n      dup6\n        /* \"#utility.yul\":118:141   */\n      sub\n        /* \"#utility.yul\":114:146   */\n      slt\n        /* \"#utility.yul\":111:163   */\n      iszero\n      tag_11\n      jumpi\n        /* \"#utility.yul\":159:160   */\n      0x00\n        /* \"#utility.yul\":156:157   */\n      dup1\n        /* \"#utility.yul\":149:161   */\n      revert\n        /* \"#utility.yul\":111:163   */\n    tag_11:\n        /* \"#utility.yul\":185:208   */\n      dup3\n      calldataload\n      sub(shl(0xa0, 0x01), 0x01)\n        /* \"#utility.yul\":237:268   */\n      dup2\n      and\n        /* \"#utility.yul\":227:269   */\n      dup2\n      eq\n        /* \"#utility.yul\":217:287   */\n      tag_12\n      jumpi\n        /* \"#utility.yul\":283:284   */\n      0x00\n        /* \"#utility.yul\":280:281   */\n      dup1\n        /* \"#utility.yul\":273:285   */\n      revert\n        /* \"#utility.yul\":217:287   */\n    tag_12:\n        /* \"#utility.yul\":306:311   */\n      swap5\n        /* \"#utility.yul\":358:360   */\n      0x20\n        /* \"#utility.yul\":343:361   */\n      swap4\n      swap1\n      swap4\n      add\n        /* \"#utility.yul\":330:362   */\n      calldataload\n      swap4\n      pop\n      pop\n      pop\n        /* \"#utility.yul\":14:368   */\n      jump\t// out\n\n    auxdata: 0xa2646970667358221220b2dd6d89a4c9b63a0847a9f9fcf012cd785a1f4ba598532c6cb1d5428cd8661e64736f6c634300081a0033\n}\n",
				"bytecode": {
					"linkReferences": {},
					"object": "6080604052348015600e575f80fd5b5060a480601a5f395ff3fe6080604052348015600e575f80fd5b50600436106026575f3560e01c8063a9059cbb14602a575b5f80fd5b60396035366004603b565b5050565b005b5f8060408385031215604b575f80fd5b82356001600160a01b03811681146060575f80fd5b94602093909301359350505056fea2646970667358221220b2dd6d89a4c9b63a0847a9f9fcf012cd785a1f4ba598532c6cb1d5428cd8661e64736f6c634300081a0033",
					"opcodes": "PUSH1 0x80 PUSH1 0x40 MSTORE CALLVALUE DUP1 ISZERO PUSH1 0xE JUMPI PUSH0 DUP1 REVERT JUMPDEST POP PUSH1 0xA4 DUP1 PUSH1 0x1A PUSH0 CODECOPY PUSH0 RETURN INVALID PUSH1 0x80 PUSH1 0x40 MSTORE CALLVALUE DUP1 ISZERO PUSH1 0xE JUMPI PUSH0 DUP1 REVERT JUMPDEST POP PUSH1 0x4 CALLDATASIZE LT PUSH1 0x26 JUMPI PUSH0 CALLDATALOAD PUSH1 0xE0 SHR DUP1 PUSH4 0xA9059CBB EQ PUSH1 0x2A JUMPI JUMPDEST PUSH0 DUP1 REVERT JUMPDEST PUSH1 0x39 PUSH1 0x35 CALLDATASIZE PUSH1 0x4 PUSH1 0x3B JUMP JUMPDEST POP POP JUMP JUMPDEST STOP JUMPDEST PUSH0 DUP1 PUSH1 0x40 DUP4 DUP6 SUB SLT ISZERO PUSH1 0x4B JUMPI PUSH0 DUP1 REVERT JUMPDEST DUP3 CALLDATALOAD PUSH1 0x1 PUSH1 0x1 PUSH1 0xA0 SHL SUB DUP2 AND DUP2 EQ PUSH1 0x60 JUMPI PUSH0 DUP1 REVERT JUMPDEST SWAP5 PUSH1 0x20 SWAP4 SWAP1 SWAP4 ADD CALLDATALOAD SWAP4 POP POP POP JUMP INVALID LOG2 PUSH5 0x6970667358 0x22 SLT KECCAK256 0xB2 0xDD PUSH14 0x89A4C9B63A0847A9F9FCF012CD78 GAS 0x1F 0x4B 0xA5 SWAP9 MSTORE8 0x2C PUSH13 0xB1D5428CD8661E64736F6C6343 STOP ADDMOD BYTE STOP CALLER "
				},
				"gasEstimates": {
					"creation": {
						"codeDepositCost": "32800",
						"executionCost": "85",
						"totalCost": "32885"
					},
					"external": {
						"transfer(address,uint256)": "256"
					}
				},
				"methodIdentifiers": {
					"transfer(address,uint256)": "a9059cbb"
				}
			},
			"storageLayout": {
				"storage": [],
				"types": null
			},
			"userdoc": {
				"kind": "user",
				"methods": {},
				"version": 1
			}
		}
	}
}