{
	"six/AbiEncode.sol": {
		"AbiEncode": {
			"abi": [
				{
					"inputs": [
						{
							"internalType": "address",
							"name": "_to",
							"type": "address"
						},
						{
							"internalType": "uint256",
							"name": "_amount",
							"type": "uint256"
						}
					],
					"name": "encodeCall",
					"outputs": [
						{
							"internalType": "bytes",
							"name": "",
							"type": "bytes"
						}
					],
					"stateMutability": "pure",
					"type": "function"
				},
				{
					"inputs": [
						{
							"internalType": "address",
							"name": "_to",
							"type": "address"
						},
						{
							"internalType": "uint256",
							"name": "_amount",
							"type": "uint256"
						}
					],
					"name": "encodeWithSelector",
					"outputs": [
						{
							"internalType": "bytes",
							"name": "",
							"type": "bytes"
						}
					],
					"stateMutability": "pure",
					"type": "function"
				},
				{
					"inputs": [
						{
							"internalType": "address",
							"name": "_to",
							"type": "address"
						},
						{
							"internalType": "uint256",
							"name": "_amount",
							"type": "uint256"
						}
					],
					"name": "encodeWithSignature",
					"outputs": [
						{
							"internalType": "bytes",
							"name": "",
							"type": "bytes"
						}
					],
					"stateMutability": "pure",
					"type": "function"
				},
				{
					"inputs": [
						{
							"internalType": "address",
							"name": "_address",
							"type": "address"
						},
						{
							"internalType": "bytes",
							"name": "data",
							"type": "bytes"
						}
					],
					"name": "test",
					"outputs": [
						{
							"internalType": "bool",
							"name": "",
							"type": "bool"
						}
					],
					"stateMutability": "nonpayable",
					"type": "function"
				}
			],
			"devdoc": {
				"kind": "dev",
				"methods": {},
				"version": 1
			},
			"evm": {
				"assembly": "    /* \"six/AbiEncode.sol\":331:1107  contract AbiEncode{... */\n  mstore(0x40, 0x80)\n  callvalue\n  dup1\n  iszero\n  tag_1\n  jumpi\n  0x00\n  dup1\n  revert\ntag_1:\n  pop\n  dataSize(sub_0)\n  dup1\n  dataOffset(sub_0)\n  0x00\n  codecopy\n  0x00\n  return\nstop\n\nsub_0: assembly {\n        /* \"six/AbiEncode.sol\":331:1107  contract AbiEncode{... */\n      mstore(0x40, 0x80)\n      callvalue\n      dup1\n      iszero\n      tag_1\n      jumpi\n      0x00\n      dup1\n      revert\n    tag_1:\n      pop\n      jumpi(tag_2, lt(calldatasize, 0x04))\n      shr(0xe0, calldataload(0x00))\n      dup1\n      0x25adff1c\n      eq\n      tag_3\n      jumpi\n      dup1\n      0x5fc6ac0e\n      eq\n      tag_4\n      jumpi\n      dup1\n      0x7e3b06fb\n      eq\n      tag_5\n      jumpi\n      dup1\n      0x93e01418\n      eq\n      tag_6\n      jumpi\n    tag_2:\n      0x00\n      dup1\n      revert\n        /* \"six/AbiEncode.sol\":930:1104  function encodeCall(address _to,uint _amount)... */\n    tag_3:\n      tag_7\n      tag_8\n      calldatasize\n      0x04\n      tag_9\n      jump\t// in\n    tag_8:\n        /* \"six/AbiEncode.sol\":1047:1096  abi.encodeCall(ITransfer.transfer, (_to,_amount)) */\n      mload(0x40)\n      sub(shl(0xa0, 0x01), 0x01)\n        /* \"#utility.yul\":1921:1953   */\n      dup4\n      and\n        /* \"six/AbiEncode.sol\":1047:1096  abi.encodeCall(ITransfer.transfer, (_to,_amount)) */\n      0x24\n      dup3\n      add\n        /* \"#utility.yul\":1903:1954   */\n      mstore\n        /* \"#utility.yul\":1970:1988   */\n      0x44\n      dup2\n      add\n        /* \"#utility.yul\":1963:1997   */\n      dup3\n      swap1\n      mstore\n        /* \"six/AbiEncode.sol\":1016:1028  bytes memory */\n      0x60\n      swap1\n        /* \"#utility.yul\":1876:1894   */\n      0x64\n      add\n        /* \"six/AbiEncode.sol\":1047:1096  abi.encodeCall(ITransfer.transfer, (_to,_amount)) */\n      0x40\n      dup1\n      mload\n      not(0x1f)\n      dup2\n      dup5\n      sub\n      add\n      dup2\n      mstore\n      swap2\n      swap1\n      mstore\n      0x20\n      dup2\n      add\n      dup1\n      mload\n      sub(shl(0xe0, 0x01), 0x01)\n      and\n      shl(0xe0, 0xa9059cbb)\n      or\n      swap1\n      mstore\n      swap1\n      pop\n        /* \"six/AbiEncode.sol\":930:1104  function encodeCall(address _to,uint _amount)... */\n      swap3\n      swap2\n      pop\n      pop\n      jump\n    tag_7:\n      mload(0x40)\n      tag_11\n      swap2\n      swap1\n      tag_12\n      jump\t// in\n    tag_11:\n      mload(0x40)\n      dup1\n      swap2\n      sub\n      swap1\n      return\n        /* \"six/AbiEncode.sol\":725:922  function encodeWithSelector(address _to,uint _amount)... */\n    tag_4:\n      tag_7\n      tag_14\n      calldatasize\n      0x04\n      tag_9\n      jump\t// in\n    tag_14:\n        /* \"six/AbiEncode.sol\":850:914  abi.encodeWithSelector(ITransfer.transfer.selector, _to,_amount) */\n      0x40\n      dup1\n      mload\n      sub(shl(0xa0, 0x01), 0x01)\n        /* \"#utility.yul\":1921:1953   */\n      swap4\n      swap1\n      swap4\n      and\n        /* \"six/AbiEncode.sol\":850:914  abi.encodeWithSelector(ITransfer.transfer.selector, _to,_amount) */\n      0x24\n      dup5\n      add\n        /* \"#utility.yul\":1903:1954   */\n      mstore\n        /* \"#utility.yul\":1970:1988   */\n      0x44\n      dup1\n      dup5\n      add\n        /* \"#utility.yul\":1963:1997   */\n      swap3\n      swap1\n      swap3\n      mstore\n        /* \"six/AbiEncode.sol\":850:914  abi.encodeWithSelector(ITransfer.transfer.selector, _to,_amount) */\n      dup1\n      mload\n      dup1\n      dup5\n      sub\n      swap1\n      swap3\n      add\n      dup3\n      mstore\n        /* \"#utility.yul\":1876:1894   */\n      0x64\n      swap1\n      swap3\n      add\n        /* \"six/AbiEncode.sol\":850:914  abi.encodeWithSelector(ITransfer.transfer.selector, _to,_amount) */\n      swap1\n      swap2\n      mstore\n      0x20\n      dup2\n      add\n      dup1\n      mload\n      sub(shl(0xe0, 0x01), 0x01)\n      and\n      shl(0xe0, 0xa9059cbb)\n      or\n      swap1\n      mstore\n      swap1\n        /* \"six/AbiEncode.sol\":725:922  function encodeWithSelector(address _to,uint _amount)... */\n      jump\n        /* \"six/AbiEncode.sol\":511:717  function encodeWithSignature(address _to,uint _amount)... */\n    tag_5:\n      tag_7\n      tag_18\n      calldatasize\n      0x04\n      tag_9\n      jump\t// in\n    tag_18:\n        /* \"six/AbiEncode.sol\":637:709  abi.encodeWithSignature(\"signatureString(address,uint256)\", _to,_amount) */\n      mload(0x40)\n      sub(shl(0xa0, 0x01), 0x01)\n        /* \"#utility.yul\":1921:1953   */\n      dup4\n      and\n        /* \"six/AbiEncode.sol\":637:709  abi.encodeWithSignature(\"signatureString(address,uint256)\", _to,_amount) */\n      0x24\n      dup3\n      add\n        /* \"#utility.yul\":1903:1954   */\n      mstore\n        /* \"#utility.yul\":1970:1988   */\n      0x44\n      dup2\n      add\n        /* \"#utility.yul\":1963:1997   */\n      dup3\n      swap1\n      mstore\n        /* \"six/AbiEncode.sol\":606:618  bytes memory */\n      0x60\n      swap1\n        /* \"#utility.yul\":1876:1894   */\n      0x64\n      add\n        /* \"six/AbiEncode.sol\":637:709  abi.encodeWithSignature(\"signatureString(address,uint256)\", _to,_amount) */\n      0x40\n      dup1\n      mload\n      not(0x1f)\n      dup2\n      dup5\n      sub\n      add\n      dup2\n      mstore\n      swap2\n      swap1\n      mstore\n      0x20\n      dup2\n      add\n      dup1\n      mload\n      sub(shl(0xe0, 0x01), 0x01)\n      and\n      shl(0xe0, 0xedd66755)\n      or\n      swap1\n      mstore\n      swap1\n      pop\n        /* \"six/AbiEncode.sol\":511:717  function encodeWithSignature(address _to,uint _amount)... */\n      swap3\n      swap2\n      pop\n      pop\n      jump\n        /* \"six/AbiEncode.sol\":358:503  function test(address _address,bytes calldata data) external returns(bool){... */\n    tag_6:\n      tag_21\n      tag_22\n      calldatasize\n      0x04\n      tag_23\n      jump\t// in\n    tag_22:\n      tag_24\n      jump\t// in\n    tag_21:\n      mload(0x40)\n        /* \"#utility.yul\":1702:1716   */\n      swap1\n      iszero\n        /* \"#utility.yul\":1695:1717   */\n      iszero\n        /* \"#utility.yul\":1677:1718   */\n      dup2\n      mstore\n        /* \"#utility.yul\":1665:1667   */\n      0x20\n        /* \"#utility.yul\":1650:1668   */\n      add\n        /* \"six/AbiEncode.sol\":358:503  function test(address _address,bytes calldata data) external returns(bool){... */\n      tag_11\n        /* \"#utility.yul\":1537:1724   */\n      jump\n        /* \"six/AbiEncode.sol\":358:503  function test(address _address,bytes calldata data) external returns(bool){... */\n    tag_24:\n        /* \"six/AbiEncode.sol\":427:431  bool */\n      0x00\n        /* \"six/AbiEncode.sol\":444:451  bool ok */\n      dup1\n        /* \"six/AbiEncode.sol\":456:464  _address */\n      dup5\n      sub(shl(0xa0, 0x01), 0x01)\n        /* \"six/AbiEncode.sol\":456:469  _address.call */\n      and\n        /* \"six/AbiEncode.sol\":470:474  data */\n      dup5\n      dup5\n        /* \"six/AbiEncode.sol\":456:475  _address.call(data) */\n      mload(0x40)\n      tag_35\n      swap3\n      swap2\n      swap1\n      tag_36\n      jump\t// in\n    tag_35:\n      0x00\n      mload(0x40)\n      dup1\n      dup4\n      sub\n      dup2\n      0x00\n      dup7\n      gas\n      call\n      swap2\n      pop\n      pop\n      returndatasize\n      dup1\n      0x00\n      dup2\n      eq\n      tag_39\n      jumpi\n      mload(0x40)\n      swap2\n      pop\n      and(add(returndatasize, 0x3f), not(0x1f))\n      dup3\n      add\n      0x40\n      mstore\n      returndatasize\n      dup3\n      mstore\n      returndatasize\n      0x00\n      0x20\n      dup5\n      add\n      returndatacopy\n      jump(tag_38)\n    tag_39:\n      0x60\n      swap2\n      pop\n    tag_38:\n      pop\n        /* \"six/AbiEncode.sol\":443:475  (bool ok,) = _address.call(data) */\n      swap1\n      swap7\n        /* \"six/AbiEncode.sol\":358:503  function test(address _address,bytes calldata data) external returns(bool){... */\n      swap6\n      pop\n      pop\n      pop\n      pop\n      pop\n      pop\n      jump\t// out\n        /* \"#utility.yul\":14:187   */\n    tag_40:\n        /* \"#utility.yul\":82:102   */\n      dup1\n      calldataload\n      sub(shl(0xa0, 0x01), 0x01)\n        /* \"#utility.yul\":131:162   */\n      dup2\n      and\n        /* \"#utility.yul\":121:163   */\n      dup2\n      eq\n        /* \"#utility.yul\":111:181   */\n      tag_43\n      jumpi\n        /* \"#utility.yul\":177:178   */\n      0x00\n        /* \"#utility.yul\":174:175   */\n      dup1\n        /* \"#utility.yul\":167:179   */\n      revert\n        /* \"#utility.yul\":111:181   */\n    tag_43:\n        /* \"#utility.yul\":14:187   */\n      swap2\n      swap1\n      pop\n      jump\t// out\n        /* \"#utility.yul\":192:446   */\n    tag_9:\n        /* \"#utility.yul\":260:266   */\n      0x00\n        /* \"#utility.yul\":268:274   */\n      dup1\n        /* \"#utility.yul\":321:323   */\n      0x40\n        /* \"#utility.yul\":309:318   */\n      dup4\n        /* \"#utility.yul\":300:307   */\n      dup6\n        /* \"#utility.yul\":296:319   */\n      sub\n        /* \"#utility.yul\":292:324   */\n      slt\n        /* \"#utility.yul\":289:341   */\n      iszero\n      tag_45\n      jumpi\n        /* \"#utility.yul\":337:338   */\n      0x00\n        /* \"#utility.yul\":334:335   */\n      dup1\n        /* \"#utility.yul\":327:339   */\n      revert\n        /* \"#utility.yul\":289:341   */\n    tag_45:\n        /* \"#utility.yul\":360:389   */\n      tag_46\n        /* \"#utility.yul\":379:388   */\n      dup4\n        /* \"#utility.yul\":360:389   */\n      tag_40\n      jump\t// in\n    tag_46:\n        /* \"#utility.yul\":350:389   */\n      swap5\n        /* \"#utility.yul\":436:438   */\n      0x20\n        /* \"#utility.yul\":421:439   */\n      swap4\n      swap1\n      swap4\n      add\n        /* \"#utility.yul\":408:440   */\n      calldataload\n      swap4\n      pop\n      pop\n      pop\n        /* \"#utility.yul\":192:446   */\n      jump\t// out\n        /* \"#utility.yul\":451:867   */\n    tag_12:\n        /* \"#utility.yul\":598:600   */\n      0x20\n        /* \"#utility.yul\":587:596   */\n      dup2\n        /* \"#utility.yul\":580:601   */\n      mstore\n        /* \"#utility.yul\":561:565   */\n      0x00\n        /* \"#utility.yul\":630:636   */\n      dup3\n        /* \"#utility.yul\":624:637   */\n      mload\n        /* \"#utility.yul\":673:679   */\n      dup1\n        /* \"#utility.yul\":668:670   */\n      0x20\n        /* \"#utility.yul\":657:666   */\n      dup5\n        /* \"#utility.yul\":653:671   */\n      add\n        /* \"#utility.yul\":646:680   */\n      mstore\n        /* \"#utility.yul\":732:738   */\n      dup1\n        /* \"#utility.yul\":727:729   */\n      0x20\n        /* \"#utility.yul\":719:725   */\n      dup6\n        /* \"#utility.yul\":715:730   */\n      add\n        /* \"#utility.yul\":710:712   */\n      0x40\n        /* \"#utility.yul\":699:708   */\n      dup6\n        /* \"#utility.yul\":695:713   */\n      add\n        /* \"#utility.yul\":689:739   */\n      mcopy\n        /* \"#utility.yul\":788:789   */\n      0x00\n        /* \"#utility.yul\":783:785   */\n      0x40\n        /* \"#utility.yul\":774:780   */\n      dup3\n        /* \"#utility.yul\":763:772   */\n      dup6\n        /* \"#utility.yul\":759:781   */\n      add\n        /* \"#utility.yul\":755:786   */\n      add\n        /* \"#utility.yul\":748:790   */\n      mstore\n        /* \"#utility.yul\":858:860   */\n      0x40\n        /* \"#utility.yul\":851:853   */\n      0x1f\n        /* \"#utility.yul\":847:854   */\n      not\n        /* \"#utility.yul\":842:844   */\n      0x1f\n        /* \"#utility.yul\":834:840   */\n      dup4\n        /* \"#utility.yul\":830:845   */\n      add\n        /* \"#utility.yul\":826:855   */\n      and\n        /* \"#utility.yul\":815:824   */\n      dup5\n        /* \"#utility.yul\":811:856   */\n      add\n        /* \"#utility.yul\":807:861   */\n      add\n        /* \"#utility.yul\":799:861   */\n      swap2\n      pop\n      pop\n        /* \"#utility.yul\":451:867   */\n      swap3\n      swap2\n      pop\n      pop\n      jump\t// out\n        /* \"#utility.yul\":872:1532   */\n    tag_23:\n        /* \"#utility.yul\":951:957   */\n      0x00\n        /* \"#utility.yul\":959:965   */\n      dup1\n        /* \"#utility.yul\":967:973   */\n      0x00\n        /* \"#utility.yul\":1020:1022   */\n      0x40\n        /* \"#utility.yul\":1008:1017   */\n      dup5\n        /* \"#utility.yul\":999:1006   */\n      dup7\n        /* \"#utility.yul\":995:1018   */\n      sub\n        /* \"#utility.yul\":991:1023   */\n      slt\n        /* \"#utility.yul\":988:1040   */\n      iszero\n      tag_49\n      jumpi\n        /* \"#utility.yul\":1036:1037   */\n      0x00\n        /* \"#utility.yul\":1033:1034   */\n      dup1\n        /* \"#utility.yul\":1026:1038   */\n      revert\n        /* \"#utility.yul\":988:1040   */\n    tag_49:\n        /* \"#utility.yul\":1059:1088   */\n      tag_50\n        /* \"#utility.yul\":1078:1087   */\n      dup5\n        /* \"#utility.yul\":1059:1088   */\n      tag_40\n      jump\t// in\n    tag_50:\n        /* \"#utility.yul\":1049:1088   */\n      swap3\n      pop\n        /* \"#utility.yul\":1139:1141   */\n      0x20\n        /* \"#utility.yul\":1128:1137   */\n      dup5\n        /* \"#utility.yul\":1124:1142   */\n      add\n        /* \"#utility.yul\":1111:1143   */\n      calldataload\n        /* \"#utility.yul\":1166:1184   */\n      0xffffffffffffffff\n        /* \"#utility.yul\":1158:1164   */\n      dup2\n        /* \"#utility.yul\":1155:1185   */\n      gt\n        /* \"#utility.yul\":1152:1202   */\n      iszero\n      tag_51\n      jumpi\n        /* \"#utility.yul\":1198:1199   */\n      0x00\n        /* \"#utility.yul\":1195:1196   */\n      dup1\n        /* \"#utility.yul\":1188:1200   */\n      revert\n        /* \"#utility.yul\":1152:1202   */\n    tag_51:\n        /* \"#utility.yul\":1221:1243   */\n      dup5\n      add\n        /* \"#utility.yul\":1274:1278   */\n      0x1f\n        /* \"#utility.yul\":1266:1279   */\n      dup2\n      add\n        /* \"#utility.yul\":1262:1289   */\n      dup7\n      sgt\n        /* \"#utility.yul\":1252:1307   */\n      tag_52\n      jumpi\n        /* \"#utility.yul\":1303:1304   */\n      0x00\n        /* \"#utility.yul\":1300:1301   */\n      dup1\n        /* \"#utility.yul\":1293:1305   */\n      revert\n        /* \"#utility.yul\":1252:1307   */\n    tag_52:\n        /* \"#utility.yul\":1343:1345   */\n      dup1\n        /* \"#utility.yul\":1330:1346   */\n      calldataload\n        /* \"#utility.yul\":1369:1387   */\n      0xffffffffffffffff\n        /* \"#utility.yul\":1361:1367   */\n      dup2\n        /* \"#utility.yul\":1358:1388   */\n      gt\n        /* \"#utility.yul\":1355:1405   */\n      iszero\n      tag_53\n      jumpi\n        /* \"#utility.yul\":1401:1402   */\n      0x00\n        /* \"#utility.yul\":1398:1399   */\n      dup1\n        /* \"#utility.yul\":1391:1403   */\n      revert\n        /* \"#utility.yul\":1355:1405   */\n    tag_53:\n        /* \"#utility.yul\":1446:1453   */\n      dup7\n        /* \"#utility.yul\":1441:1443   */\n      0x20\n        /* \"#utility.yul\":1432:1438   */\n      dup3\n        /* \"#utility.yul\":1428:1430   */\n      dup5\n        /* \"#utility.yul\":1424:1439   */\n      add\n        /* \"#utility.yul\":1420:1444   */\n      add\n        /* \"#utility.yul\":1417:1454   */\n      gt\n        /* \"#utility.yul\":1414:1471   */\n      iszero\n      tag_54\n      jumpi\n        /* \"#utility.yul\":1467:1468   */\n      0x00\n        /* \"#utility.yul\":1464:1465   */\n      dup1\n        /* \"#utility.yul\":1457:1469   */\n      revert\n        /* \"#utility.yul\":1414:1471   */\n    tag_54:\n        /* \"#utility.yul\":872:1532   */\n      swap4\n      swap7\n        /* \"#utility.yul\":1498:1500   */\n      0x20\n        /* \"#utility.yul\":1490:1501   */\n      swap2\n      swap1\n      swap2\n      add\n      swap6\n      pop\n        /* \"#utility.yul\":1520:1526   */\n      swap3\n      swap4\n      pop\n      pop\n      pop\n        /* \"#utility.yul\":872:1532   */\n      jump\t// out\n        /* \"#utility.yul\":2008:2279   */\n    tag_36:\n        /* \"#utility.yul\":2191:2197   */\n      dup2\n        /* \"#utility.yul\":2183:2189   */\n      dup4\n        /* \"#utility.yul\":2178:2181   */\n      dup3\n        /* \"#utility.yul\":2165:2198   */\n      calldatacopy\n        /* \"#utility.yul\":2147:2150   */\n      0x00\n        /* \"#utility.yul\":2217:2233   */\n      swap2\n      add\n        /* \"#utility.yul\":2242:2255   */\n      swap1\n      dup2\n      mstore\n        /* \"#utility.yul\":2217:2233   */\n      swap2\n        /* \"#utility.yul\":2008:2279   */\n      swap1\n      pop\n      jump\t// out\n\n    auxdata: 0xa2646970667358221220ac219b13127cdf3ce95d66dfd79310b7205ccc95d054b9ab5929be0849424f7164736f6c634300081a0033\n}\n",
				"bytecode": {
					"linkReferences": {},
					"object": "6080604052348015600e575f80fd5b506103418061001c5f395ff3fe608060405234801561000f575f80fd5b506004361061004a575f3560e01c806325adff1c1461004e5780635fc6ac0e146100c35780637e3b06fb1461011e57806393e014181461017d575b5f80fd5b6100ad61005c366004610221565b6040516001600160a01b03831660248201526044810182905260609060640160408051601f198184030181529190526020810180516001600160e01b031663a9059cbb60e01b179052905092915050565b6040516100ba9190610249565b60405180910390f35b6100ad6100d1366004610221565b604080516001600160a01b039390931660248401526044808401929092528051808403909201825260649092019091526020810180516001600160e01b031663a9059cbb60e01b17905290565b6100ad61012c366004610221565b6040516001600160a01b03831660248201526044810182905260609060640160408051601f198184030181529190526020810180516001600160e01b031663edd6675560e01b179052905092915050565b61019061018b36600461027e565b6101a0565b60405190151581526020016100ba565b5f80846001600160a01b031684846040516101bc9291906102fc565b5f604051808303815f865af19150503d805f81146101f5576040519150601f19603f3d011682016040523d82523d5f602084013e6101fa565b606091505b50909695505050505050565b80356001600160a01b038116811461021c575f80fd5b919050565b5f8060408385031215610232575f80fd5b61023b83610206565b946020939093013593505050565b602081525f82518060208401528060208501604085015e5f604082850101526040601f19601f83011684010191505092915050565b5f805f60408486031215610290575f80fd5b61029984610206565b9250602084013567ffffffffffffffff8111156102b4575f80fd5b8401601f810186136102c4575f80fd5b803567ffffffffffffffff8111156102da575f80fd5b8660208284010111156102eb575f80fd5b939660209190910195509293505050565b818382375f910190815291905056fea2646970667358221220ac219b13127cdf3ce95d66dfd79310b7205ccc95d054b9ab5929be0849424f7164736f6c634300081a0033",
					"opcodes": "PUSH1 0x80 PUSH1 0x40 MSTORE CALLVALUE DUP1 ISZERO PUSH1 0xE JUMPI PUSH0 DUP1 REVERT JUMPDEST POP PUSH2 0x341 DUP1 PUSH2 0x1C PUSH0 CODECOPY PUSH0 RETURN INVALID PUSH1 0x80 PUSH1 0x40 MSTORE CALLVALUE DUP1 ISZERO PUSH2 0xF JUMPI PUSH0 DUP1 REVERT JUMPDEST POP PUSH1 0x4 CALLDATASIZE LT PUSH2 0x4A JUMPI PUSH0 CALLDATALOAD PUSH1 0xE0 SHR DUP1 PUSH4 0x25ADFF1C EQ PUSH2 0x4E JUMPI DUP1 PUSH4 0x5FC6AC0E EQ PUSH2 0xC3 JUMPI DUP1 PUSH4 0x7E3B06FB EQ PUSH2 0x11E JUMPI DUP1 PUSH4 0x93E01418 EQ PUSH2 0x17D JUMPI JUMPDEST PUSH0 DUP1 REVERT JUMPDEST PUSH2 0xAD PUSH2 0x5C CALLDATASIZE PUSH1 0x4 PUSH2 0x221 JUMP JUMPDEST PUSH1 0x40 MLOAD PUSH1 0x1 PUSH1 0x1 PUSH1 0xA0 SHL SUB DUP4 AND PUSH1 0x24 DUP3 ADD MSTORE PUSH1 0x44 DUP2 ADD DUP3 SWAP1 MSTORE PUSH1 0x60 SWAP1 PUSH1 0x64 ADD PUSH1 0x40 DUP1 MLOAD PUSH1 0x1F NOT DUP2 DUP5 SUB ADD DUP2 MSTORE SWAP2 SWAP1 MSTORE PUSH1 0x20 DUP2 ADD DUP1 MLOAD PUSH1 0x1 PUSH1 0x1 PUSH1 0xE0 SHL SUB AND PUSH4 0xA9059CBB PUSH1 0xE0 SHL OR SWAP1 MSTORE SWAP1 POP SWAP3 SWAP2 POP POP JUMP JUMPDEST PUSH1 0x40 MLOAD PUSH2 0xBA SWAP2 SWAP1 PUSH2 0x249 JUMP JUMPDEST PUSH1 0x40 MLOAD DUP1 SWAP2 SUB SWAP1 RETURN JUMPDEST PUSH2 0xAD PUSH2 0xD1 CALLDATASIZE PUSH1 0x4 PUSH2 0x221 JUMP JUMPDEST PUSH1 0x40 DUP1 MLOAD PUSH1 0x1 PUSH1 0x1 PUSH1 0xA0 SHL SUB SWAP4 SWAP1 SWAP4 AND PUSH1 0x24 DUP5 ADD MSTORE PUSH1 0x44 DUP1 DUP5 ADD SWAP3 SWAP1 SWAP3 MSTORE DUP1 MLOAD DUP1 DUP5 SUB SWAP1 SWAP3 ADD DUP3 MSTORE PUSH1 0x64 SWAP1 SWAP3 ADD SWAP1 SWAP2 MSTORE PUSH1 0x20 DUP2 ADD DUP1 MLOAD PUSH1 0x1 PUSH1 0x1 PUSH1 0xE0 SHL SUB AND PUSH4 0xA9059CBB PUSH1 0xE0 SHL OR SWAP1 MSTORE SWAP1 JUMP JUMPDEST PUSH2 0xAD PUSH2 0x12C CALLDATASIZE PUSH1 0x4 PUSH2 0x221 JUMP JUMPDEST PUSH1 0x40 MLOAD PUSH1 0x1 PUSH1 0x1 PUSH1 0xA0 SHL SUB DUP4 AND PUSH1 0x24 DUP3 ADD MSTORE PUSH1 0x44 DUP2 ADD DUP3 SWAP1 MSTORE PUSH1 0x60 SWAP1 PUSH1 0x64 ADD PUSH1 0x40 DUP1 MLOAD PUSH1 0x1F NOT DUP2 DUP5 SUB ADD DUP2 MSTORE SWAP2 SWAP1 MSTORE PUSH1 0x20 DUP2 ADD DUP1 MLOAD PUSH1 0x1 PUSH1 0x1 PUSH1 0xE0 SHL SUB AND PUSH4 0xEDD66755 PUSH1 0xE0 SHL OR SWAP1 MSTORE SWAP1 POP SWAP3 SWAP2 POP POP JUMP JUMPDEST PUSH2 0x190 PUSH2 0x18B CALLDATASIZE PUSH1 0x4 PUSH2 0x27E JUMP JUMPDEST PUSH2 0x1A0 JUMP JUMPDEST PUSH1 0x40 MLOAD SWAP1 ISZERO ISZERO DUP2 MSTORE PUSH1 0x20 ADD PUSH2 0xBA JUMP JUMPDEST PUSH0 DUP1 DUP5 PUSH1 0x1 PUSH1 0x1 PUSH1 0xA0 SHL SUB AND DUP5 DUP5 PUSH1 0x40 MLOAD PUSH2 0x1BC SWAP3 SWAP2 SWAP1 PUSH2 0x2FC JUMP JUMPDEST PUSH0 PUSH1 0x40 MLOAD DUP1 DUP4 SUB DUP2 PUSH0 DUP7 GAS CALL SWAP2 POP POP RETURNDATASIZE DUP1 PUSH0 DUP2 EQ PUSH2 0x1F5 JUMPI PUSH1 0x40 MLOAD SWAP2 POP PUSH1 0x1F NOT PUSH1 0x3F RETURNDATASIZE ADD AND DUP3 ADD PUSH1 0x40 MSTORE RETURNDATASIZE DUP3 MSTORE RETURNDATASIZE PUSH0 PUSH1 0x20 DUP5 ADD RETURNDATACOPY PUSH2 0x1FA JUMP JUMPDEST PUSH1 0x60 SWAP2 POP JUMPDEST POP SWAP1 SWAP7 SWAP6 POP POP POP POP POP POP JUMP JUMPDEST DUP1 CALLDATALOAD PUSH1 0x1 PUSH1 0x1 PUSH1 0xA0 SHL SUB DUP2 AND DUP2 EQ PUSH2 0x21C JUMPI PUSH0 DUP1 REVERT JUMPDEST SWAP2 SWAP1 POP JUMP JUMPDEST PUSH0 DUP1 PUSH1 0x40 DUP4 DUP6 SUB SLT ISZERO PUSH2 0x232 JUMPI PUSH0 DUP1 REVERT JUMPDEST PUSH2 0x23B DUP4 PUSH2 0x206 JUMP JUMPDEST SWAP5 PUSH1 0x20 SWAP4 SWAP1 SWAP4 ADD CALLDATALOAD SWAP4 POP POP POP JUMP JUMPDEST PUSH1 0x20 DUP2 MSTORE PUSH0 DUP3 MLOAD DUP1 PUSH1 0x20 DUP5 ADD MSTORE DUP1 PUSH1 0x20 DUP6 ADD PUSH1 0x40 DUP6 ADD MCOPY PUSH0 PUSH1 0x40 DUP3 DUP6 ADD ADD MSTORE PUSH1 0x40 PUSH1 0x1F NOT PUSH1 0x1F DUP4 ADD AND DUP5 ADD ADD SWAP2 POP POP SWAP3 SWAP2 POP POP JUMP JUMPDEST PUSH0 DUP1 PUSH0 PUSH1 0x40 DUP5 DUP7 SUB SLT ISZERO PUSH2 0x290 JUMPI PUSH0 DUP1 REVERT JUMPDEST PUSH2 0x299 DUP5 PUSH2 0x206 JUMP JUMPDEST SWAP3 POP PUSH1 0x20 DUP5 ADD CALLDATALOAD PUSH8 0xFFFFFFFFFFFFFFFF DUP2 GT ISZERO PUSH2 0x2B4 JUMPI PUSH0 DUP1 REVERT JUMPDEST DUP5 ADD PUSH1 0x1F DUP2 ADD DUP7 SGT PUSH2 0x2C4 JUMPI PUSH0 DUP1 REVERT JUMPDEST DUP1 CALLDATALOAD PUSH8 0xFFFFFFFFFFFFFFFF DUP2 GT ISZERO PUSH2 0x2DA JUMPI PUSH0 DUP1 REVERT JUMPDEST DUP7 PUSH1 0x20 DUP3 DUP5 ADD ADD GT ISZERO PUSH2 0x2EB JUMPI PUSH0 DUP1 REVERT JUMPDEST SWAP4 SWAP7 PUSH1 0x20 SWAP2 SWAP1 SWAP2 ADD SWAP6 POP SWAP3 SWAP4 POP POP POP JUMP JUMPDEST DUP2 DUP4 DUP3 CALLDATACOPY PUSH0 SWAP2 ADD SWAP1 DUP2 MSTORE SWAP2 SWAP1 POP JUMP INVALID LOG2 PUSH5 0x6970667358 0x22 SLT KECCAK256 0xAC 0x21 SWAP12 SGT SLT PUSH29 0xDF3CE95D66DFD79310B7205CCC95D054B9AB5929BE0849424F7164736F PUSH13 0x634300081A0033000000000000 "
				},
				"gasEstimates": {
					"creation": {
						"codeDepositCost": "166600",
						"executionCost": "212",
						"totalCost": "166812"
					},
					"external": {
						"encodeCall(address,uint256)": "infinite",
						"encodeWithSelector(address,uint256)": "infinite",
						"encodeWithSignature(address,uint256)": "infinite",
						"test(address,bytes)": "infinite"
					}
				},
				"methodIdentifiers": {
					"encodeCall(address,uint256)": "25adff1c",
					"encodeWithSelector(address,uint256)": "5fc6ac0e",
					"encodeWithSignature(address,uint256)": "7e3b06fb",
					"test(address,bytes)": "93e01418"
				}
			},
			"storageLayout": {
				"storage": [],
				"types": null
			},
			"userdoc": {
				"kind": "user",
				"methods": {},
				"version": 1
			}
		}
	}
}