{
	"six/ByteCode.sol": {
		"Factory": {
			"abi": [
				{
					"anonymous": false,
					"inputs": [
						{
							"indexed": false,
							"internalType": "address",
							"name": "addr",
							"type": "address"
						}
					],
					"name": "Log",
					"type": "event"
				},
				{
					"inputs": [],
					"name": "deploy",
					"outputs": [],
					"stateMutability": "nonpayable",
					"type": "function"
				}
			],
			"devdoc": {
				"kind": "dev",
				"methods": {},
				"version": 1
			},
			"evm": {
				"assembly": "    /* \"six/ByteCode.sol\":1581:2645  contract Factory{... */\n  mstore(0x40, 0x80)\n  callvalue\n  dup1\n  iszero\n  tag_1\n  jumpi\n  revert(0x00, 0x00)\ntag_1:\n  pop\n  dataSize(sub_0)\n  dup1\n  dataOffset(sub_0)\n  0x00\n  codecopy\n  0x00\n  return\nstop\n\nsub_0: assembly {\n        /* \"six/ByteCode.sol\":1581:2645  contract Factory{... */\n      mstore(0x40, 0x80)\n      callvalue\n      dup1\n      iszero\n      tag_1\n      jumpi\n      revert(0x00, 0x00)\n    tag_1:\n      pop\n      jumpi(tag_2, lt(calldatasize, 0x04))\n      shr(0xe0, calldataload(0x00))\n      dup1\n      0x775c300c\n      eq\n      tag_3\n      jumpi\n    tag_2:\n      revert(0x00, 0x00)\n        /* \"six/ByteCode.sol\":1635:2642  function deploy() external {... */\n    tag_3:\n      tag_4\n      tag_5\n      jump\t// in\n    tag_4:\n      stop\n    tag_5:\n        /* \"six/ByteCode.sol\":1673:1739  bytes memory bytecode= hex\"69602a60005260206000f3600052600a6016f3\" */\n      0x40\n      dup1\n      mload\n      dup1\n      dup3\n      add\n      swap1\n      swap2\n      mstore\n      0x13\n      dup1\n      dup3\n      mstore\n      shl(0x68, 0x69602a60005260206000f3600052600a6016f3)\n      0x20\n      dup4\n      add\n      swap1\n      dup2\n      mstore\n        /* \"six/ByteCode.sol\":1673:1694  bytes memory bytecode */\n      0x00\n      swap2\n        /* \"six/ByteCode.sol\":1673:1739  bytes memory bytecode= hex\"69602a60005260206000f3600052600a6016f3\" */\n      swap1\n        /* \"six/ByteCode.sol\":1673:1694  bytes memory bytecode */\n      dup3\n        /* \"six/ByteCode.sol\":2511:2545  create(0 ,add(bytecode,0x20),0x13) */\n      create\n        /* \"six/ByteCode.sol\":2503:2545  addr:=  create(0 ,add(bytecode,0x20),0x13) */\n      swap1\n      pop\n      sub(shl(0xa0, 0x01), 0x01)\n        /* \"six/ByteCode.sol\":2574:2592  addr != address(0) */\n      dup2\n      and\n        /* \"six/ByteCode.sol\":2566:2609  require(addr != address(0),\"deploy failed\") */\n      tag_7\n      jumpi\n      mload(0x40)\n      shl(0xe5, 0x461bcd)\n      dup2\n      mstore\n        /* \"#utility.yul\":216:218   */\n      0x20\n        /* \"six/ByteCode.sol\":2566:2609  require(addr != address(0),\"deploy failed\") */\n      0x04\n      dup3\n      add\n        /* \"#utility.yul\":198:219   */\n      mstore\n        /* \"#utility.yul\":255:257   */\n      0x0d\n        /* \"#utility.yul\":235:253   */\n      0x24\n      dup3\n      add\n        /* \"#utility.yul\":228:258   */\n      mstore\n      shl(0x9a, 0x19195c1b1bde4819985a5b1959)\n        /* \"#utility.yul\":274:292   */\n      0x44\n      dup3\n      add\n        /* \"#utility.yul\":267:310   */\n      mstore\n        /* \"#utility.yul\":327:345   */\n      0x64\n      add\n        /* \"six/ByteCode.sol\":2566:2609  require(addr != address(0),\"deploy failed\") */\n      mload(0x40)\n      dup1\n      swap2\n      sub\n      swap1\n      revert\n    tag_7:\n        /* \"six/ByteCode.sol\":2625:2634  Log(addr) */\n      mload(0x40)\n      sub(shl(0xa0, 0x01), 0x01)\n        /* \"#utility.yul\":520:552   */\n      dup3\n      and\n        /* \"#utility.yul\":502:553   */\n      dup2\n      mstore\n        /* \"six/ByteCode.sol\":2625:2634  Log(addr) */\n      0xb8a00d6d8ca1be30bfec34d8f97e55f0f0fd9eeb7fb46e030516363d4cfe1ad6\n      swap1\n        /* \"#utility.yul\":490:492   */\n      0x20\n        /* \"#utility.yul\":475:493   */\n      add\n        /* \"six/ByteCode.sol\":2625:2634  Log(addr) */\n      mload(0x40)\n      dup1\n      swap2\n      sub\n      swap1\n      log1\n        /* \"six/ByteCode.sol\":1662:2642  {... */\n      pop\n      pop\n        /* \"six/ByteCode.sol\":1635:2642  function deploy() external {... */\n      jump\t// out\n\n    auxdata: 0xa2646970667358221220aa1786cc06f3d5f9cc3b6d0b6b153f64c3a1f41bc13dded07a3bda0c580785aa64736f6c634300081d0033\n}\n",
				"bytecode": {
					"linkReferences": {},
					"object": "6080604052348015600e575f5ffd5b506101258061001c5f395ff3fe6080604052348015600e575f5ffd5b50600436106026575f3560e01c8063775c300c14602a575b5f5ffd5b60306032565b005b6040805180820190915260138082527269602a60005260206000f3600052600a6016f360681b602083019081525f919082f090506001600160a01b03811660af5760405162461bcd60e51b815260206004820152600d60248201526c19195c1b1bde4819985a5b1959609a1b604482015260640160405180910390fd5b6040516001600160a01b03821681527fb8a00d6d8ca1be30bfec34d8f97e55f0f0fd9eeb7fb46e030516363d4cfe1ad69060200160405180910390a1505056fea2646970667358221220aa1786cc06f3d5f9cc3b6d0b6b153f64c3a1f41bc13dded07a3bda0c580785aa64736f6c634300081d0033",
					"opcodes": "PUSH1 0x80 PUSH1 0x40 MSTORE CALLVALUE DUP1 ISZERO PUSH1 0xE JUMPI PUSH0 PUSH0 REVERT JUMPDEST POP PUSH2 0x125 DUP1 PUSH2 0x1C PUSH0 CODECOPY PUSH0 RETURN INVALID PUSH1 0x80 PUSH1 0x40 MSTORE CALLVALUE DUP1 ISZERO PUSH1 0xE JUMPI PUSH0 PUSH0 REVERT JUMPDEST POP PUSH1 0x4 CALLDATASIZE LT PUSH1 0x26 JUMPI PUSH0 CALLDATALOAD PUSH1 0xE0 SHR DUP1 PUSH4 0x775C300C EQ PUSH1 0x2A JUMPI JUMPDEST PUSH0 PUSH0 REVERT JUMPDEST PUSH1 0x30 PUSH1 0x32 JUMP JUMPDEST STOP JUMPDEST PUSH1 0x40 DUP1 MLOAD DUP1 DUP3 ADD SWAP1 SWAP2 MSTORE PUSH1 0x13 DUP1 DUP3 MSTORE PUSH19 0x69602A60005260206000F3600052600A6016F3 PUSH1 0x68 SHL PUSH1 0x20 DUP4 ADD SWAP1 DUP2 MSTORE PUSH0 SWAP2 SWAP1 DUP3 CREATE SWAP1 POP PUSH1 0x1 PUSH1 0x1 PUSH1 0xA0 SHL SUB DUP2 AND PUSH1 0xAF JUMPI PUSH1 0x40 MLOAD PUSH3 0x461BCD PUSH1 0xE5 SHL DUP2 MSTORE PUSH1 0x20 PUSH1 0x4 DUP3 ADD MSTORE PUSH1 0xD PUSH1 0x24 DUP3 ADD MSTORE PUSH13 0x19195C1B1BDE4819985A5B1959 PUSH1 0x9A SHL PUSH1 0x44 DUP3 ADD MSTORE PUSH1 0x64 ADD PUSH1 0x40 MLOAD DUP1 SWAP2 SUB SWAP1 REVERT JUMPDEST PUSH1 0x40 MLOAD PUSH1 0x1 PUSH1 0x1 PUSH1 0xA0 SHL SUB DUP3 AND DUP2 MSTORE PUSH32 0xB8A00D6D8CA1BE30BFEC34D8F97E55F0F0FD9EEB7FB46E030516363D4CFE1AD6 SWAP1 PUSH1 0x20 ADD PUSH1 0x40 MLOAD DUP1 SWAP2 SUB SWAP1 LOG1 POP POP JUMP INVALID LOG2 PUSH5 0x6970667358 0x22 SLT KECCAK256 0xAA OR DUP7 0xCC MOD RETURN 0xD5 EXTDELEGATECALL 0xCC EXTCODESIZE PUSH14 0xB6B153F64C3A1F41BC13DDED07A EXTCODESIZE 0xDA 0xC PC SMOD DUP6 0xAA PUSH5 0x736F6C6343 STOP ADDMOD SAR STOP CALLER "
				},
				"gasEstimates": {
					"creation": {
						"codeDepositCost": "58600",
						"executionCost": "109",
						"totalCost": "58709"
					},
					"external": {
						"deploy()": "infinite"
					}
				},
				"methodIdentifiers": {
					"deploy()": "775c300c"
				}
			},
			"storageLayout": {
				"storage": [],
				"types": null
			},
			"userdoc": {
				"kind": "user",
				"methods": {},
				"version": 1
			}
		}
	}
}