{
	"data": {
		"bytecode": {
			"linkReferences": {},
			"object": "6080604052348015600e575f5ffd5b506106cc8061001c5f395ff3fe608060405234801561000f575f5ffd5b5060043610610034575f3560e01c80637049e08714610038578063e5c5e9a314610061575b5f5ffd5b61004b61004636600461014b565b610084565b604051610058919061022d565b60405180910390f35b61007461006f366004610246565b6100b9565b60405161005894939291906102b2565b6060858585858560405160200161009f959493929190610367565b604051602081830303815290604052905095945050505050565b5f5f60606100c56100e1565b6100d1858701876105a6565b9299919850965090945092505050565b6040518060400160405280606081526020016100fb610100565b905290565b60405180604001604052806002906020820280368337509192915050565b6001600160a01b0381168114610132575f5ffd5b50565b5f60608284031215610145575f5ffd5b50919050565b5f5f5f5f5f6080868803121561015f575f5ffd5b8535945060208601356101718161011e565b935060408601356001600160401b0381111561018b575f5ffd5b8601601f8101881361019b575f5ffd5b80356001600160401b038111156101b0575f5ffd5b8860208260051b84010111156101c4575f5ffd5b6020919091019350915060608601356001600160401b038111156101e6575f5ffd5b6101f288828901610135565b9150509295509295909350565b5f81518084528060208401602086015e5f602082860101526020601f19601f83011685010191505092915050565b602081525f61023f60208301846101ff565b9392505050565b5f5f60208385031215610257575f5ffd5b82356001600160401b0381111561026c575f5ffd5b8301601f8101851361027c575f5ffd5b80356001600160401b03811115610291575f5ffd5b8560208284010111156102a2575f5ffd5b6020919091019590945092505050565b8481526001600160a01b03841660208083019190915260806040830181905284519083018190525f9185019060a0840190835b818110156103035783518352602093840193909201916001016102e5565b50508381036060850152845191506060815261032260608201836101ff565b915060208501516020820191505f5b6002811015610350578151835260209283019290910190600101610331565b509198975050505050505050565b60408183375050565b8581526001600160a01b038516602082015260806040820181905281018390525f6001600160fb1b0384111561039b575f5ffd5b8360051b808660a0850137820182810360a0016060840152833536859003601e190181126103c7575f5ffd5b84016020810190356001600160401b038111156103e2575f5ffd5b8036038213156103f0575f5ffd5b606060a08401528061010084015280826101208501375f610120848301015261041f60c084016020880161035e565b608060a0601f19601f8401168501010193505050509695505050505050565b634e487b7160e01b5f52604160045260245ffd5b604080519081016001600160401b03811182821017156104745761047461043e565b60405290565b604051601f8201601f191681016001600160401b03811182821017156104a2576104a261043e565b604052919050565b5f82601f8301126104b9575f5ffd5b6104c1610452565b8060408401858111156104d2575f5ffd5b845b818110156104ec5780358452602093840193016104d4565b509095945050505050565b5f60608284031215610507575f5ffd5b61050f610452565b905081356001600160401b03811115610526575f5ffd5b8201601f81018413610536575f5ffd5b80356001600160401b0381111561054f5761054f61043e565b610562601f8201601f191660200161047a565b818152856020838501011115610576575f5ffd5b816020840160208301375f6020838301015280845250505061059b83602084016104aa565b602082015292915050565b5f5f5f5f608085870312156105b9575f5ffd5b8435935060208501356105cb8161011e565b925060408501356001600160401b038111156105e5575f5ffd5b8501601f810187136105f5575f5ffd5b80356001600160401b0381111561060e5761060e61043e565b8060051b61061e6020820161047a565b9182526020818401810192908101908a841115610639575f5ffd5b6020850194505b8385101561065f57843580835260209586019590935090910190610640565b9550505050606086013590506001600160401b0381111561067e575f5ffd5b61068a878288016104f7565b9150509295919450925056fea2646970667358221220f4d1447d12a3d9fc3f320eac8299e630b66cedd31951118f20a25f09a798063264736f6c634300081d0033",
			"opcodes": "PUSH1 0x80 PUSH1 0x40 MSTORE CALLVALUE DUP1 ISZERO PUSH1 0xE JUMPI PUSH0 PUSH0 REVERT JUMPDEST POP PUSH2 0x6CC DUP1 PUSH2 0x1C PUSH0 CODECOPY PUSH0 RETURN INVALID PUSH1 0x80 PUSH1 0x40 MSTORE CALLVALUE DUP1 ISZERO PUSH2 0xF JUMPI PUSH0 PUSH0 REVERT JUMPDEST POP PUSH1 0x4 CALLDATASIZE LT PUSH2 0x34 JUMPI PUSH0 CALLDATALOAD PUSH1 0xE0 SHR DUP1 PUSH4 0x7049E087 EQ PUSH2 0x38 JUMPI DUP1 PUSH4 0xE5C5E9A3 EQ PUSH2 0x61 JUMPI JUMPDEST PUSH0 PUSH0 REVERT JUMPDEST PUSH2 0x4B PUSH2 0x46 CALLDATASIZE PUSH1 0x4 PUSH2 0x14B JUMP JUMPDEST PUSH2 0x84 JUMP JUMPDEST PUSH1 0x40 MLOAD PUSH2 0x58 SWAP2 SWAP1 PUSH2 0x22D JUMP JUMPDEST PUSH1 0x40 MLOAD DUP1 SWAP2 SUB SWAP1 RETURN JUMPDEST PUSH2 0x74 PUSH2 0x6F CALLDATASIZE PUSH1 0x4 PUSH2 0x246 JUMP JUMPDEST PUSH2 0xB9 JUMP JUMPDEST PUSH1 0x40 MLOAD PUSH2 0x58 SWAP5 SWAP4 SWAP3 SWAP2 SWAP1 PUSH2 0x2B2 JUMP JUMPDEST PUSH1 0x60 DUP6 DUP6 DUP6 DUP6 DUP6 PUSH1 0x40 MLOAD PUSH1 0x20 ADD PUSH2 0x9F SWAP6 SWAP5 SWAP4 SWAP3 SWAP2 SWAP1 PUSH2 0x367 JUMP JUMPDEST PUSH1 0x40 MLOAD PUSH1 0x20 DUP2 DUP4 SUB SUB DUP2 MSTORE SWAP1 PUSH1 0x40 MSTORE SWAP1 POP SWAP6 SWAP5 POP POP POP POP POP JUMP JUMPDEST PUSH0 PUSH0 PUSH1 0x60 PUSH2 0xC5 PUSH2 0xE1 JUMP JUMPDEST PUSH2 0xD1 DUP6 DUP8 ADD DUP8 PUSH2 0x5A6 JUMP JUMPDEST SWAP3 SWAP10 SWAP2 SWAP9 POP SWAP7 POP SWAP1 SWAP5 POP SWAP3 POP POP POP JUMP JUMPDEST PUSH1 0x40 MLOAD DUP1 PUSH1 0x40 ADD PUSH1 0x40 MSTORE DUP1 PUSH1 0x60 DUP2 MSTORE PUSH1 0x20 ADD PUSH2 0xFB PUSH2 0x100 JUMP JUMPDEST SWAP1 MSTORE SWAP1 JUMP JUMPDEST PUSH1 0x40 MLOAD DUP1 PUSH1 0x40 ADD PUSH1 0x40 MSTORE DUP1 PUSH1 0x2 SWAP1 PUSH1 0x20 DUP3 MUL DUP1 CALLDATASIZE DUP4 CALLDATACOPY POP SWAP2 SWAP3 SWAP2 POP POP JUMP JUMPDEST PUSH1 0x1 PUSH1 0x1 PUSH1 0xA0 SHL SUB DUP2 AND DUP2 EQ PUSH2 0x132 JUMPI PUSH0 PUSH0 REVERT JUMPDEST POP JUMP JUMPDEST PUSH0 PUSH1 0x60 DUP3 DUP5 SUB SLT ISZERO PUSH2 0x145 JUMPI PUSH0 PUSH0 REVERT JUMPDEST POP SWAP2 SWAP1 POP JUMP JUMPDEST PUSH0 PUSH0 PUSH0 PUSH0 PUSH0 PUSH1 0x80 DUP7 DUP9 SUB SLT ISZERO PUSH2 0x15F JUMPI PUSH0 PUSH0 REVERT JUMPDEST DUP6 CALLDATALOAD SWAP5 POP PUSH1 0x20 DUP7 ADD CALLDATALOAD PUSH2 0x171 DUP2 PUSH2 0x11E JUMP JUMPDEST SWAP4 POP PUSH1 0x40 DUP7 ADD CALLDATALOAD PUSH1 0x1 PUSH1 0x1 PUSH1 0x40 SHL SUB DUP2 GT ISZERO PUSH2 0x18B JUMPI PUSH0 PUSH0 REVERT JUMPDEST DUP7 ADD PUSH1 0x1F DUP2 ADD DUP9 SGT PUSH2 0x19B JUMPI PUSH0 PUSH0 REVERT JUMPDEST DUP1 CALLDATALOAD PUSH1 0x1 PUSH1 0x1 PUSH1 0x40 SHL SUB DUP2 GT ISZERO PUSH2 0x1B0 JUMPI PUSH0 PUSH0 REVERT JUMPDEST DUP9 PUSH1 0x20 DUP3 PUSH1 0x5 SHL DUP5 ADD ADD GT ISZERO PUSH2 0x1C4 JUMPI PUSH0 PUSH0 REVERT JUMPDEST PUSH1 0x20 SWAP2 SWAP1 SWAP2 ADD SWAP4 POP SWAP2 POP PUSH1 0x60 DUP7 ADD CALLDATALOAD PUSH1 0x1 PUSH1 0x1 PUSH1 0x40 SHL SUB DUP2 GT ISZERO PUSH2 0x1E6 JUMPI PUSH0 PUSH0 REVERT JUMPDEST PUSH2 0x1F2 DUP9 DUP3 DUP10 ADD PUSH2 0x135 JUMP JUMPDEST SWAP2 POP POP SWAP3 SWAP6 POP SWAP3 SWAP6 SWAP1 SWAP4 POP JUMP JUMPDEST PUSH0 DUP2 MLOAD DUP1 DUP5 MSTORE DUP1 PUSH1 0x20 DUP5 ADD PUSH1 0x20 DUP7 ADD MCOPY PUSH0 PUSH1 0x20 DUP3 DUP7 ADD ADD MSTORE PUSH1 0x20 PUSH1 0x1F NOT PUSH1 0x1F DUP4 ADD AND DUP6 ADD ADD SWAP2 POP POP SWAP3 SWAP2 POP POP JUMP JUMPDEST PUSH1 0x20 DUP2 MSTORE PUSH0 PUSH2 0x23F PUSH1 0x20 DUP4 ADD DUP5 PUSH2 0x1FF JUMP JUMPDEST SWAP4 SWAP3 POP POP POP JUMP JUMPDEST PUSH0 PUSH0 PUSH1 0x20 DUP4 DUP6 SUB SLT ISZERO PUSH2 0x257 JUMPI PUSH0 PUSH0 REVERT JUMPDEST DUP3 CALLDATALOAD PUSH1 0x1 PUSH1 0x1 PUSH1 0x40 SHL SUB DUP2 GT ISZERO PUSH2 0x26C JUMPI PUSH0 PUSH0 REVERT JUMPDEST DUP4 ADD PUSH1 0x1F DUP2 ADD DUP6 SGT PUSH2 0x27C JUMPI PUSH0 PUSH0 REVERT JUMPDEST DUP1 CALLDATALOAD PUSH1 0x1 PUSH1 0x1 PUSH1 0x40 SHL SUB DUP2 GT ISZERO PUSH2 0x291 JUMPI PUSH0 PUSH0 REVERT JUMPDEST DUP6 PUSH1 0x20 DUP3 DUP5 ADD ADD GT ISZERO PUSH2 0x2A2 JUMPI PUSH0 PUSH0 REVERT JUMPDEST PUSH1 0x20 SWAP2 SWAP1 SWAP2 ADD SWAP6 SWAP1 SWAP5 POP SWAP3 POP POP POP JUMP JUMPDEST DUP5 DUP2 MSTORE PUSH1 0x1 PUSH1 0x1 PUSH1 0xA0 SHL SUB DUP5 AND PUSH1 0x20 DUP1 DUP4 ADD SWAP2 SWAP1 SWAP2 MSTORE PUSH1 0x80 PUSH1 0x40 DUP4 ADD DUP2 SWAP1 MSTORE DUP5 MLOAD SWAP1 DUP4 ADD DUP2 SWAP1 MSTORE PUSH0 SWAP2 DUP6 ADD SWAP1 PUSH1 0xA0 DUP5 ADD SWAP1 DUP4 JUMPDEST DUP2 DUP2 LT ISZERO PUSH2 0x303 JUMPI DUP4 MLOAD DUP4 MSTORE PUSH1 0x20 SWAP4 DUP5 ADD SWAP4 SWAP1 SWAP3 ADD SWAP2 PUSH1 0x1 ADD PUSH2 0x2E5 JUMP JUMPDEST POP POP DUP4 DUP2 SUB PUSH1 0x60 DUP6 ADD MSTORE DUP5 MLOAD SWAP2 POP PUSH1 0x60 DUP2 MSTORE PUSH2 0x322 PUSH1 0x60 DUP3 ADD DUP4 PUSH2 0x1FF JUMP JUMPDEST SWAP2 POP PUSH1 0x20 DUP6 ADD MLOAD PUSH1 0x20 DUP3 ADD SWAP2 POP PUSH0 JUMPDEST PUSH1 0x2 DUP2 LT ISZERO PUSH2 0x350 JUMPI DUP2 MLOAD DUP4 MSTORE PUSH1 0x20 SWAP3 DUP4 ADD SWAP3 SWAP1 SWAP2 ADD SWAP1 PUSH1 0x1 ADD PUSH2 0x331 JUMP JUMPDEST POP SWAP2 SWAP9 SWAP8 POP POP POP POP POP POP POP POP JUMP JUMPDEST PUSH1 0x40 DUP2 DUP4 CALLDATACOPY POP POP JUMP JUMPDEST DUP6 DUP2 MSTORE PUSH1 0x1 PUSH1 0x1 PUSH1 0xA0 SHL SUB DUP6 AND PUSH1 0x20 DUP3 ADD MSTORE PUSH1 0x80 PUSH1 0x40 DUP3 ADD DUP2 SWAP1 MSTORE DUP2 ADD DUP4 SWAP1 MSTORE PUSH0 PUSH1 0x1 PUSH1 0x1 PUSH1 0xFB SHL SUB DUP5 GT ISZERO PUSH2 0x39B JUMPI PUSH0 PUSH0 REVERT JUMPDEST DUP4 PUSH1 0x5 SHL DUP1 DUP7 PUSH1 0xA0 DUP6 ADD CALLDATACOPY DUP3 ADD DUP3 DUP2 SUB PUSH1 0xA0 ADD PUSH1 0x60 DUP5 ADD MSTORE DUP4 CALLDATALOAD CALLDATASIZE DUP6 SWAP1 SUB PUSH1 0x1E NOT ADD DUP2 SLT PUSH2 0x3C7 JUMPI PUSH0 PUSH0 REVERT JUMPDEST DUP5 ADD PUSH1 0x20 DUP2 ADD SWAP1 CALLDATALOAD PUSH1 0x1 PUSH1 0x1 PUSH1 0x40 SHL SUB DUP2 GT ISZERO PUSH2 0x3E2 JUMPI PUSH0 PUSH0 REVERT JUMPDEST DUP1 CALLDATASIZE SUB DUP3 SGT ISZERO PUSH2 0x3F0 JUMPI PUSH0 PUSH0 REVERT JUMPDEST PUSH1 0x60 PUSH1 0xA0 DUP5 ADD MSTORE DUP1 PUSH2 0x100 DUP5 ADD MSTORE DUP1 DUP3 PUSH2 0x120 DUP6 ADD CALLDATACOPY PUSH0 PUSH2 0x120 DUP5 DUP4 ADD ADD MSTORE PUSH2 0x41F PUSH1 0xC0 DUP5 ADD PUSH1 0x20 DUP9 ADD PUSH2 0x35E JUMP JUMPDEST PUSH1 0x80 PUSH1 0xA0 PUSH1 0x1F NOT PUSH1 0x1F DUP5 ADD AND DUP6 ADD ADD ADD SWAP4 POP POP POP POP SWAP7 SWAP6 POP POP POP POP POP POP JUMP JUMPDEST PUSH4 0x4E487B71 PUSH1 0xE0 SHL PUSH0 MSTORE PUSH1 0x41 PUSH1 0x4 MSTORE PUSH1 0x24 PUSH0 REVERT JUMPDEST PUSH1 0x40 DUP1 MLOAD SWAP1 DUP2 ADD PUSH1 0x1 PUSH1 0x1 PUSH1 0x40 SHL SUB DUP2 GT DUP3 DUP3 LT OR ISZERO PUSH2 0x474 JUMPI PUSH2 0x474 PUSH2 0x43E JUMP JUMPDEST PUSH1 0x40 MSTORE SWAP1 JUMP JUMPDEST PUSH1 0x40 MLOAD PUSH1 0x1F DUP3 ADD PUSH1 0x1F NOT AND DUP2 ADD PUSH1 0x1 PUSH1 0x1 PUSH1 0x40 SHL SUB DUP2 GT DUP3 DUP3 LT OR ISZERO PUSH2 0x4A2 JUMPI PUSH2 0x4A2 PUSH2 0x43E JUMP JUMPDEST PUSH1 0x40 MSTORE SWAP2 SWAP1 POP JUMP JUMPDEST PUSH0 DUP3 PUSH1 0x1F DUP4 ADD SLT PUSH2 0x4B9 JUMPI PUSH0 PUSH0 REVERT JUMPDEST PUSH2 0x4C1 PUSH2 0x452 JUMP JUMPDEST DUP1 PUSH1 0x40 DUP5 ADD DUP6 DUP2 GT ISZERO PUSH2 0x4D2 JUMPI PUSH0 PUSH0 REVERT JUMPDEST DUP5 JUMPDEST DUP2 DUP2 LT ISZERO PUSH2 0x4EC JUMPI DUP1 CALLDATALOAD DUP5 MSTORE PUSH1 0x20 SWAP4 DUP5 ADD SWAP4 ADD PUSH2 0x4D4 JUMP JUMPDEST POP SWAP1 SWAP6 SWAP5 POP POP POP POP POP JUMP JUMPDEST PUSH0 PUSH1 0x60 DUP3 DUP5 SUB SLT ISZERO PUSH2 0x507 JUMPI PUSH0 PUSH0 REVERT JUMPDEST PUSH2 0x50F PUSH2 0x452 JUMP JUMPDEST SWAP1 POP DUP2 CALLDATALOAD PUSH1 0x1 PUSH1 0x1 PUSH1 0x40 SHL SUB DUP2 GT ISZERO PUSH2 0x526 JUMPI PUSH0 PUSH0 REVERT JUMPDEST DUP3 ADD PUSH1 0x1F DUP2 ADD DUP5 SGT PUSH2 0x536 JUMPI PUSH0 PUSH0 REVERT JUMPDEST DUP1 CALLDATALOAD PUSH1 0x1 PUSH1 0x1 PUSH1 0x40 SHL SUB DUP2 GT ISZERO PUSH2 0x54F JUMPI PUSH2 0x54F PUSH2 0x43E JUMP JUMPDEST PUSH2 0x562 PUSH1 0x1F DUP3 ADD PUSH1 0x1F NOT AND PUSH1 0x20 ADD PUSH2 0x47A JUMP JUMPDEST DUP2 DUP2 MSTORE DUP6 PUSH1 0x20 DUP4 DUP6 ADD ADD GT ISZERO PUSH2 0x576 JUMPI PUSH0 PUSH0 REVERT JUMPDEST DUP2 PUSH1 0x20 DUP5 ADD PUSH1 0x20 DUP4 ADD CALLDATACOPY PUSH0 PUSH1 0x20 DUP4 DUP4 ADD ADD MSTORE DUP1 DUP5 MSTORE POP POP POP PUSH2 0x59B DUP4 PUSH1 0x20 DUP5 ADD PUSH2 0x4AA JUMP JUMPDEST PUSH1 0x20 DUP3 ADD MSTORE SWAP3 SWAP2 POP POP JUMP JUMPDEST PUSH0 PUSH0 PUSH0 PUSH0 PUSH1 0x80 DUP6 DUP8 SUB SLT ISZERO PUSH2 0x5B9 JUMPI PUSH0 PUSH0 REVERT JUMPDEST DUP5 CALLDATALOAD SWAP4 POP PUSH1 0x20 DUP6 ADD CALLDATALOAD PUSH2 0x5CB DUP2 PUSH2 0x11E JUMP JUMPDEST SWAP3 POP PUSH1 0x40 DUP6 ADD CALLDATALOAD PUSH1 0x1 PUSH1 0x1 PUSH1 0x40 SHL SUB DUP2 GT ISZERO PUSH2 0x5E5 JUMPI PUSH0 PUSH0 REVERT JUMPDEST DUP6 ADD PUSH1 0x1F DUP2 ADD DUP8 SGT PUSH2 0x5F5 JUMPI PUSH0 PUSH0 REVERT JUMPDEST DUP1 CALLDATALOAD PUSH1 0x1 PUSH1 0x1 PUSH1 0x40 SHL SUB DUP2 GT ISZERO PUSH2 0x60E JUMPI PUSH2 0x60E PUSH2 0x43E JUMP JUMPDEST DUP1 PUSH1 0x5 SHL PUSH2 0x61E PUSH1 0x20 DUP3 ADD PUSH2 0x47A JUMP JUMPDEST SWAP2 DUP3 MSTORE PUSH1 0x20 DUP2 DUP5 ADD DUP2 ADD SWAP3 SWAP1 DUP2 ADD SWAP1 DUP11 DUP5 GT ISZERO PUSH2 0x639 JUMPI PUSH0 PUSH0 REVERT JUMPDEST PUSH1 0x20 DUP6 ADD SWAP5 POP JUMPDEST DUP4 DUP6 LT ISZERO PUSH2 0x65F JUMPI DUP5 CALLDATALOAD DUP1 DUP4 MSTORE PUSH1 0x20 SWAP6 DUP7 ADD SWAP6 SWAP1 SWAP4 POP SWAP1 SWAP2 ADD SWAP1 PUSH2 0x640 JUMP JUMPDEST SWAP6 POP POP POP POP PUSH1 0x60 DUP7 ADD CALLDATALOAD SWAP1 POP PUSH1 0x1 PUSH1 0x1 PUSH1 0x40 SHL SUB DUP2 GT ISZERO PUSH2 0x67E JUMPI PUSH0 PUSH0 REVERT JUMPDEST PUSH2 0x68A DUP8 DUP3 DUP9 ADD PUSH2 0x4F7 JUMP JUMPDEST SWAP2 POP POP SWAP3 SWAP6 SWAP2 SWAP5 POP SWAP3 POP JUMP INVALID LOG2 PUSH5 0x6970667358 0x22 SLT KECCAK256 DELEGATECALL DATALOADN 0x447D SLT LOG3 0xD9 0xFC EXTCODEHASH ORIGIN 0xE 0xAC DUP3 SWAP10 DUPN 0x30 0xB6 PUSH13 0xEDD31951118F20A25F09A79806 ORIGIN PUSH5 0x736F6C6343 STOP ADDMOD SAR STOP CALLER "
		},
		"gasEstimates": {
			"creation": {
				"codeDepositCost": "348000",
				"executionCost": "384",
				"totalCost": "348384"
			},
			"external": {
				"decode(bytes)": "infinite",
				"encode(uint256,address,uint256[],(string,uint256[2]))": "infinite"
			}
		},
		"methodIdentifiers": {
			"decode(bytes)": "e5c5e9a3",
			"encode(uint256,address,uint256[],(string,uint256[2]))": "7049e087"
		}
	},
	"abi": [
		{
			"inputs": [
				{
					"internalType": "bytes",
					"name": "data",
					"type": "bytes"
				}
			],
			"name": "decode",
			"outputs": [
				{
					"internalType": "uint256",
					"name": "x",
					"type": "uint256"
				},
				{
					"internalType": "address",
					"name": "addr",
					"type": "address"
				},
				{
					"internalType": "uint256[]",
					"name": "arr",
					"type": "uint256[]"
				},
				{
					"components": [
						{
							"internalType": "string",
							"name": "name",
							"type": "string"
						},
						{
							"internalType": "uint256[2]",
							"name": "nums",
							"type": "uint256[2]"
						}
					],
					"internalType": "struct AbiDecode.Mystruct",
					"name": "myStruct",
					"type": "tuple"
				}
			],
			"stateMutability": "pure",
			"type": "function"
		},
		{
			"inputs": [
				{
					"internalType": "uint256",
					"name": "x",
					"type": "uint256"
				},
				{
					"internalType": "address",
					"name": "addr",
					"type": "address"
				},
				{
					"internalType": "uint256[]",
					"name": "arr",
					"type": "uint256[]"
				},
				{
					"components": [
						{
							"internalType": "string",
							"name": "name",
							"type": "string"
						},
						{
							"internalType": "uint256[2]",
							"name": "nums",
							"type": "uint256[2]"
						}
					],
					"internalType": "struct AbiDecode.Mystruct",
					"name": "myStruct",
					"type": "tuple"
				}
			],
			"name": "encode",
			"outputs": [
				{
					"internalType": "bytes",
					"name": "result",
					"type": "bytes"
				}
			],
			"stateMutability": "pure",
			"type": "function"
		}
	]
}