{
	"data": {
		"bytecode": {
			"linkReferences": {},
			"object": "60a060405234801561000f575f80fd5b50604051610e3a380380610e3a83398101604081905261002e9161003f565b6001600160a01b031660805261006c565b5f6020828403121561004f575f80fd5b81516001600160a01b0381168114610065575f80fd5b9392505050565b608051610d9a6100a05f395f81816101d50152818161030c015281816106ef015281816109f50152610b970152610d9a5ff3fe608060405234801561000f575f80fd5b506004361061009b575f3560e01c806340e58ee51161006357806340e58ee514610180578063711853ab146101935780638743ae89146101a6578063fc0c546a146101d0578063fde327be1461020f575f80fd5b806306661abd1461009f578063141961bc146100ba578063278ecde1146101455780632c63f1461461015a578063379607f51461016d575b5f80fd5b6100a75f5481565b6040519081526020015b60405180910390f35b61010c6100c8366004610c3d565b600160208190525f91825260409091208054918101546002820154600383015460048401546005909401546001600160a01b03909516949293919290919060ff1686565b604080516001600160a01b03909716875260208701959095529385019290925260608401526080830152151560a082015260c0016100b1565b610158610153366004610c3d565b610222565b005b610158610168366004610c6c565b6103b3565b61015861017b366004610c3d565b610597565b61015861018e366004610c3d565b610798565b6101586101a1366004610ca5565b6108f9565b6100a76101b4366004610cc5565b600260209081525f928352604080842090915290825290205481565b6101f77f000000000000000000000000000000000000000000000000000000000000000081565b6040516001600160a01b0390911681526020016100b1565b61015861021d366004610ca5565b610a9b565b5f818152600160205260409020600481015442116102735760405162461bcd60e51b81526020600482015260096024820152681b9bdd08195b99195960ba1b60448201526064015b60405180910390fd5b80600101548160020154106102ca5760405162461bcd60e51b815260206004820152601c60248201527f6e6f7420656e6f75676820706c656467656420746f20726566756e6400000000604482015260640161026a565b5f82815260026020908152604080832033808552925280832080549390555163a9059cbb60e01b81526004810191909152602481018290526001600160a01b037f0000000000000000000000000000000000000000000000000000000000000000169063a9059cbb906044016020604051808303815f875af1158015610352573d5f803e3d5ffd5b505050506040513d601f19601f820116820180604052508101906103769190610cfe565b50604051838152819033907f21e12a7cad0da5928167e1084ea4d5fdf8d9af66657a2543a9ac76a0ca0814779060200160405180910390a3505050565b428263ffffffff1610156103fa5760405162461bcd60e51b815260206004820152600e60248201526d1cdd185c9d0f0818dd5c9c995b9d60921b604482015260640161026a565b8163ffffffff168163ffffffff1610156104425760405162461bcd60e51b81526020600482015260096024820152681cdd185c9d0f995b9960ba1b604482015260640161026a565b61044f426276a700610d38565b8163ffffffff16111561049a5760405162461bcd60e51b8152602060048201526013602482015272656e643e2063757272656e742b39306461797360681b604482015260640161026a565b60015f808282546104ab9190610d38565b90915550506040805160c0810182523380825260208083018781525f84860181815263ffffffff8981166060808901828152928b166080808b0182815260a08c01888152885489526001808c528e8a209d518e546001600160a01b0319166001600160a01b03909116178e559951998d0199909955955160028c0155935160038b0155935160048a015594516005909801805460ff191698151598909817909755915487519081529384018a905295830194909452810193909352917f0601cd0d650b473037e838a2696d41e654433d065b3f56b28d1d3302e44a304f910160405180910390a2505050565b5f81815260016020526040902080546001600160a01b031633146105eb5760405162461bcd60e51b815260206004820152600b60248201526a3737ba1031b932b0ba37b960a91b604482015260640161026a565b8060040154421161062a5760405162461bcd60e51b81526020600482015260096024820152681b9bdd08195b99195960ba1b604482015260640161026a565b8060010154816002015410156106775760405162461bcd60e51b81526020600482015260126024820152711b9bdd08195b9bdd59da081c1b195919d95960721b604482015260640161026a565b600581015460ff16156106b65760405162461bcd60e51b815260206004820152600760248201526618db185a5b595960ca1b604482015260640161026a565b60058101805460ff19166001179055600281015460405163a9059cbb60e01b815233600482015260248101919091526001600160a01b037f0000000000000000000000000000000000000000000000000000000000000000169063a9059cbb906044016020604051808303815f875af1158015610735573d5f803e3d5ffd5b505050506040513d601f19601f820116820180604052508101906107599190610cfe565b50600281015460405183815233907f3ed1528b0fdc7c5207c1bf935e34a667e13656b9ed165260c522be0bc544f3039060200160405180910390a35050565b5f81815260016020818152604092839020835160c08101855281546001600160a01b03168082529382015492810192909252600281015493820193909352600383015460608201526004830154608082015260059092015460ff16151560a083015233146108365760405162461bcd60e51b815260206004820152600b60248201526a3737ba1031b932b0ba37b960a91b604482015260640161026a565b806060015142106108785760405162461bcd60e51b815260206004820152600c60248201526b1a185d99481cdd185c9d195960a21b604482015260640161026a565b5f82815260016020819052604080832080546001600160a01b031916815591820183905560028201839055600382018390556004820192909255600501805460ff19169055517f8bf30e7ff26833413be5f69e1d373744864d600b664204b4a2f9844a8eedb9ed906108ed9084815260200190565b60405180910390a15050565b5f82815260016020526040902060038101544210156109485760405162461bcd60e51b815260206004820152600b60248201526a1b9bdd081cdd185c9d195960aa1b604482015260640161026a565b806004015442111561098e5760405162461bcd60e51b815260206004820152600f60248201526e6f7574206f6620646561646c696e6560881b604482015260640161026a565b81816002015f8282546109a19190610d51565b90915550505f838152600260209081526040808320338452909152812080548492906109ce908490610d51565b90915550506040516323b872dd60e01b8152306004820152336024820152604481018390527f00000000000000000000000000000000000000000000000000000000000000006001600160a01b0316906323b872dd906064016020604051808303815f875af1158015610a43573d5f803e3d5ffd5b505050506040513d601f19601f82011682018060405250810190610a679190610cfe565b506040518290339085907fdc63160518c9c709fe39309a0e6f3d567887986a4625cd35090a6689e56e34c0905f90a4505050565b5f8281526001602052604090206003810154421015610aea5760405162461bcd60e51b815260206004820152600b60248201526a1b9bdd081cdd185c9d195960aa1b604482015260640161026a565b8060040154421115610b305760405162461bcd60e51b815260206004820152600f60248201526e6f7574206f6620646561646c696e6560881b604482015260640161026a565b81816002015f828254610b439190610d38565b90915550505f83815260026020908152604080832033845290915281208054849290610b70908490610d38565b90915550506040516323b872dd60e01b8152336004820152306024820152604481018390527f00000000000000000000000000000000000000000000000000000000000000006001600160a01b0316906323b872dd906064016020604051808303815f875af1158015610be5573d5f803e3d5ffd5b505050506040513d601f19601f82011682018060405250810190610c099190610cfe565b506040518290339085907f06bdb975df800a73232998e71ed585d536222f1dfeaa622d7f62a23ada686c82905f90a4505050565b5f60208284031215610c4d575f80fd5b5035919050565b803563ffffffff81168114610c67575f80fd5b919050565b5f805f60608486031215610c7e575f80fd5b83359250610c8e60208501610c54565b9150610c9c60408501610c54565b90509250925092565b5f8060408385031215610cb6575f80fd5b50508035926020909101359150565b5f8060408385031215610cd6575f80fd5b8235915060208301356001600160a01b0381168114610cf3575f80fd5b809150509250929050565b5f60208284031215610d0e575f80fd5b81518015158114610d1d575f80fd5b9392505050565b634e487b7160e01b5f52601160045260245ffd5b80820180821115610d4b57610d4b610d24565b92915050565b81810381811115610d4b57610d4b610d2456fea2646970667358221220ad660b3bdab87a8353e3d0e6236cb107cf0ef02096a8026274b153334513ed6464736f6c63430008170033",
			"opcodes": "PUSH1 0xA0 PUSH1 0x40 MSTORE CALLVALUE DUP1 ISZERO PUSH2 0xF JUMPI PUSH0 DUP1 REVERT JUMPDEST POP PUSH1 0x40 MLOAD PUSH2 0xE3A CODESIZE SUB DUP1 PUSH2 0xE3A DUP4 CODECOPY DUP2 ADD PUSH1 0x40 DUP2 SWAP1 MSTORE PUSH2 0x2E SWAP2 PUSH2 0x3F JUMP JUMPDEST PUSH1 0x1 PUSH1 0x1 PUSH1 0xA0 SHL SUB AND PUSH1 0x80 MSTORE PUSH2 0x6C JUMP JUMPDEST PUSH0 PUSH1 0x20 DUP3 DUP5 SUB SLT ISZERO PUSH2 0x4F JUMPI PUSH0 DUP1 REVERT JUMPDEST DUP2 MLOAD PUSH1 0x1 PUSH1 0x1 PUSH1 0xA0 SHL SUB DUP2 AND DUP2 EQ PUSH2 0x65 JUMPI PUSH0 DUP1 REVERT JUMPDEST SWAP4 SWAP3 POP POP POP JUMP JUMPDEST PUSH1 0x80 MLOAD PUSH2 0xD9A PUSH2 0xA0 PUSH0 CODECOPY PUSH0 DUP2 DUP2 PUSH2 0x1D5 ADD MSTORE DUP2 DUP2 PUSH2 0x30C ADD MSTORE DUP2 DUP2 PUSH2 0x6EF ADD MSTORE DUP2 DUP2 PUSH2 0x9F5 ADD MSTORE PUSH2 0xB97 ADD MSTORE PUSH2 0xD9A PUSH0 RETURN INVALID PUSH1 0x80 PUSH1 0x40 MSTORE CALLVALUE DUP1 ISZERO PUSH2 0xF JUMPI PUSH0 DUP1 REVERT JUMPDEST POP PUSH1 0x4 CALLDATASIZE LT PUSH2 0x9B JUMPI PUSH0 CALLDATALOAD PUSH1 0xE0 SHR DUP1 PUSH4 0x40E58EE5 GT PUSH2 0x63 JUMPI DUP1 PUSH4 0x40E58EE5 EQ PUSH2 0x180 JUMPI DUP1 PUSH4 0x711853AB EQ PUSH2 0x193 JUMPI DUP1 PUSH4 0x8743AE89 EQ PUSH2 0x1A6 JUMPI DUP1 PUSH4 0xFC0C546A EQ PUSH2 0x1D0 JUMPI DUP1 PUSH4 0xFDE327BE EQ PUSH2 0x20F JUMPI PUSH0 DUP1 REVERT JUMPDEST DUP1 PUSH4 0x6661ABD EQ PUSH2 0x9F JUMPI DUP1 PUSH4 0x141961BC EQ PUSH2 0xBA JUMPI DUP1 PUSH4 0x278ECDE1 EQ PUSH2 0x145 JUMPI DUP1 PUSH4 0x2C63F146 EQ PUSH2 0x15A JUMPI DUP1 PUSH4 0x379607F5 EQ PUSH2 0x16D JUMPI JUMPDEST PUSH0 DUP1 REVERT JUMPDEST PUSH2 0xA7 PUSH0 SLOAD DUP2 JUMP JUMPDEST PUSH1 0x40 MLOAD SWAP1 DUP2 MSTORE PUSH1 0x20 ADD JUMPDEST PUSH1 0x40 MLOAD DUP1 SWAP2 SUB SWAP1 RETURN JUMPDEST PUSH2 0x10C PUSH2 0xC8 CALLDATASIZE PUSH1 0x4 PUSH2 0xC3D JUMP JUMPDEST PUSH1 0x1 PUSH1 0x20 DUP2 SWAP1 MSTORE PUSH0 SWAP2 DUP3 MSTORE PUSH1 0x40 SWAP1 SWAP2 KECCAK256 DUP1 SLOAD SWAP2 DUP2 ADD SLOAD PUSH1 0x2 DUP3 ADD SLOAD PUSH1 0x3 DUP4 ADD SLOAD PUSH1 0x4 DUP5 ADD SLOAD PUSH1 0x5 SWAP1 SWAP5 ADD SLOAD PUSH1 0x1 PUSH1 0x1 PUSH1 0xA0 SHL SUB SWAP1 SWAP6 AND SWAP5 SWAP3 SWAP4 SWAP2 SWAP3 SWAP1 SWAP2 SWAP1 PUSH1 0xFF AND DUP7 JUMP JUMPDEST PUSH1 0x40 DUP1 MLOAD PUSH1 0x1 PUSH1 0x1 PUSH1 0xA0 SHL SUB SWAP1 SWAP8 AND DUP8 MSTORE PUSH1 0x20 DUP8 ADD SWAP6 SWAP1 SWAP6 MSTORE SWAP4 DUP6 ADD SWAP3 SWAP1 SWAP3 MSTORE PUSH1 0x60 DUP5 ADD MSTORE PUSH1 0x80 DUP4 ADD MSTORE ISZERO ISZERO PUSH1 0xA0 DUP3 ADD MSTORE PUSH1 0xC0 ADD PUSH2 0xB1 JUMP JUMPDEST PUSH2 0x158 PUSH2 0x153 CALLDATASIZE PUSH1 0x4 PUSH2 0xC3D JUMP JUMPDEST PUSH2 0x222 JUMP JUMPDEST STOP JUMPDEST PUSH2 0x158 PUSH2 0x168 CALLDATASIZE PUSH1 0x4 PUSH2 0xC6C JUMP JUMPDEST PUSH2 0x3B3 JUMP JUMPDEST PUSH2 0x158 PUSH2 0x17B CALLDATASIZE PUSH1 0x4 PUSH2 0xC3D JUMP JUMPDEST PUSH2 0x597 JUMP JUMPDEST PUSH2 0x158 PUSH2 0x18E CALLDATASIZE PUSH1 0x4 PUSH2 0xC3D JUMP JUMPDEST PUSH2 0x798 JUMP JUMPDEST PUSH2 0x158 PUSH2 0x1A1 CALLDATASIZE PUSH1 0x4 PUSH2 0xCA5 JUMP JUMPDEST PUSH2 0x8F9 JUMP JUMPDEST PUSH2 0xA7 PUSH2 0x1B4 CALLDATASIZE PUSH1 0x4 PUSH2 0xCC5 JUMP JUMPDEST PUSH1 0x2 PUSH1 0x20 SWAP1 DUP2 MSTORE PUSH0 SWAP3 DUP4 MSTORE PUSH1 0x40 DUP1 DUP5 KECCAK256 SWAP1 SWAP2 MSTORE SWAP1 DUP3 MSTORE SWAP1 KECCAK256 SLOAD DUP2 JUMP JUMPDEST PUSH2 0x1F7 PUSH32 0x0 DUP2 JUMP JUMPDEST PUSH1 0x40 MLOAD PUSH1 0x1 PUSH1 0x1 PUSH1 0xA0 SHL SUB SWAP1 SWAP2 AND DUP2 MSTORE PUSH1 0x20 ADD PUSH2 0xB1 JUMP JUMPDEST PUSH2 0x158 PUSH2 0x21D CALLDATASIZE PUSH1 0x4 PUSH2 0xCA5 JUMP JUMPDEST PUSH2 0xA9B JUMP JUMPDEST PUSH0 DUP2 DUP2 MSTORE PUSH1 0x1 PUSH1 0x20 MSTORE PUSH1 0x40 SWAP1 KECCAK256 PUSH1 0x4 DUP2 ADD SLOAD TIMESTAMP GT PUSH2 0x273 JUMPI PUSH1 0x40 MLOAD PUSH3 0x461BCD PUSH1 0xE5 SHL DUP2 MSTORE PUSH1 0x20 PUSH1 0x4 DUP3 ADD MSTORE PUSH1 0x9 PUSH1 0x24 DUP3 ADD MSTORE PUSH9 0x1B9BDD08195B991959 PUSH1 0xBA SHL PUSH1 0x44 DUP3 ADD MSTORE PUSH1 0x64 ADD JUMPDEST PUSH1 0x40 MLOAD DUP1 SWAP2 SUB SWAP1 REVERT JUMPDEST DUP1 PUSH1 0x1 ADD SLOAD DUP2 PUSH1 0x2 ADD SLOAD LT PUSH2 0x2CA JUMPI PUSH1 0x40 MLOAD PUSH3 0x461BCD PUSH1 0xE5 SHL DUP2 MSTORE PUSH1 0x20 PUSH1 0x4 DUP3 ADD MSTORE PUSH1 0x1C PUSH1 0x24 DUP3 ADD MSTORE PUSH32 0x6E6F7420656E6F75676820706C656467656420746F20726566756E6400000000 PUSH1 0x44 DUP3 ADD MSTORE PUSH1 0x64 ADD PUSH2 0x26A JUMP JUMPDEST PUSH0 DUP3 DUP2 MSTORE PUSH1 0x2 PUSH1 0x20 SWAP1 DUP2 MSTORE PUSH1 0x40 DUP1 DUP4 KECCAK256 CALLER DUP1 DUP6 MSTORE SWAP3 MSTORE DUP1 DUP4 KECCAK256 DUP1 SLOAD SWAP4 SWAP1 SSTORE MLOAD PUSH4 0xA9059CBB PUSH1 0xE0 SHL DUP2 MSTORE PUSH1 0x4 DUP2 ADD SWAP2 SWAP1 SWAP2 MSTORE PUSH1 0x24 DUP2 ADD DUP3 SWAP1 MSTORE PUSH1 0x1 PUSH1 0x1 PUSH1 0xA0 SHL SUB PUSH32 0x0 AND SWAP1 PUSH4 0xA9059CBB SWAP1 PUSH1 0x44 ADD PUSH1 0x20 PUSH1 0x40 MLOAD DUP1 DUP4 SUB DUP2 PUSH0 DUP8 GAS CALL ISZERO DUP1 ISZERO PUSH2 0x352 JUMPI RETURNDATASIZE PUSH0 DUP1 RETURNDATACOPY RETURNDATASIZE PUSH0 REVERT JUMPDEST POP POP POP POP PUSH1 0x40 MLOAD RETURNDATASIZE PUSH1 0x1F NOT PUSH1 0x1F DUP3 ADD AND DUP3 ADD DUP1 PUSH1 0x40 MSTORE POP DUP2 ADD SWAP1 PUSH2 0x376 SWAP2 SWAP1 PUSH2 0xCFE JUMP JUMPDEST POP PUSH1 0x40 MLOAD DUP4 DUP2 MSTORE DUP2 SWAP1 CALLER SWAP1 PUSH32 0x21E12A7CAD0DA5928167E1084EA4D5FDF8D9AF66657A2543A9AC76A0CA081477 SWAP1 PUSH1 0x20 ADD PUSH1 0x40 MLOAD DUP1 SWAP2 SUB SWAP1 LOG3 POP POP POP JUMP JUMPDEST TIMESTAMP DUP3 PUSH4 0xFFFFFFFF AND LT ISZERO PUSH2 0x3FA JUMPI PUSH1 0x40 MLOAD PUSH3 0x461BCD PUSH1 0xE5 SHL DUP2 MSTORE PUSH1 0x20 PUSH1 0x4 DUP3 ADD MSTORE PUSH1 0xE PUSH1 0x24 DUP3 ADD MSTORE PUSH14 0x1CDD185C9D0F0818DD5C9C995B9D PUSH1 0x92 SHL PUSH1 0x44 DUP3 ADD MSTORE PUSH1 0x64 ADD PUSH2 0x26A JUMP JUMPDEST DUP2 PUSH4 0xFFFFFFFF AND DUP2 PUSH4 0xFFFFFFFF AND LT ISZERO PUSH2 0x442 JUMPI PUSH1 0x40 MLOAD PUSH3 0x461BCD PUSH1 0xE5 SHL DUP2 MSTORE PUSH1 0x20 PUSH1 0x4 DUP3 ADD MSTORE PUSH1 0x9 PUSH1 0x24 DUP3 ADD MSTORE PUSH9 0x1CDD185C9D0F995B99 PUSH1 0xBA SHL PUSH1 0x44 DUP3 ADD MSTORE PUSH1 0x64 ADD PUSH2 0x26A JUMP JUMPDEST PUSH2 0x44F TIMESTAMP PUSH3 0x76A700 PUSH2 0xD38 JUMP JUMPDEST DUP2 PUSH4 0xFFFFFFFF AND GT ISZERO PUSH2 0x49A JUMPI PUSH1 0x40 MLOAD PUSH3 0x461BCD PUSH1 0xE5 SHL DUP2 MSTORE PUSH1 0x20 PUSH1 0x4 DUP3 ADD MSTORE PUSH1 0x13 PUSH1 0x24 DUP3 ADD MSTORE PUSH19 0x656E643E2063757272656E742B393064617973 PUSH1 0x68 SHL PUSH1 0x44 DUP3 ADD MSTORE PUSH1 0x64 ADD PUSH2 0x26A JUMP JUMPDEST PUSH1 0x1 PUSH0 DUP1 DUP3 DUP3 SLOAD PUSH2 0x4AB SWAP2 SWAP1 PUSH2 0xD38 JUMP JUMPDEST SWAP1 SWAP2 SSTORE POP POP PUSH1 0x40 DUP1 MLOAD PUSH1 0xC0 DUP2 ADD DUP3 MSTORE CALLER DUP1 DUP3 MSTORE PUSH1 0x20 DUP1 DUP4 ADD DUP8 DUP2 MSTORE PUSH0 DUP5 DUP7 ADD DUP2 DUP2 MSTORE PUSH4 0xFFFFFFFF DUP10 DUP2 AND PUSH1 0x60 DUP1 DUP10 ADD DUP3 DUP2 MSTORE SWAP3 DUP12 AND PUSH1 0x80 DUP1 DUP12 ADD DUP3 DUP2 MSTORE PUSH1 0xA0 DUP13 ADD DUP9 DUP2 MSTORE DUP9 SLOAD DUP10 MSTORE PUSH1 0x1 DUP1 DUP13 MSTORE DUP15 DUP11 KECCAK256 SWAP14 MLOAD DUP15 SLOAD PUSH1 0x1 PUSH1 0x1 PUSH1 0xA0 SHL SUB NOT AND PUSH1 0x1 PUSH1 0x1 PUSH1 0xA0 SHL SUB SWAP1 SWAP2 AND OR DUP15 SSTORE SWAP10 MLOAD SWAP10 DUP14 ADD SWAP10 SWAP1 SWAP10 SSTORE SWAP6 MLOAD PUSH1 0x2 DUP13 ADD SSTORE SWAP4 MLOAD PUSH1 0x3 DUP12 ADD SSTORE SWAP4 MLOAD PUSH1 0x4 DUP11 ADD SSTORE SWAP5 MLOAD PUSH1 0x5 SWAP1 SWAP9 ADD DUP1 SLOAD PUSH1 0xFF NOT AND SWAP9 ISZERO ISZERO SWAP9 SWAP1 SWAP9 OR SWAP1 SWAP8 SSTORE SWAP2 SLOAD DUP8 MLOAD SWAP1 DUP2 MSTORE SWAP4 DUP5 ADD DUP11 SWAP1 MSTORE SWAP6 DUP4 ADD SWAP5 SWAP1 SWAP5 MSTORE DUP2 ADD SWAP4 SWAP1 SWAP4 MSTORE SWAP2 PUSH32 0x601CD0D650B473037E838A2696D41E654433D065B3F56B28D1D3302E44A304F SWAP2 ADD PUSH1 0x40 MLOAD DUP1 SWAP2 SUB SWAP1 LOG2 POP POP POP JUMP JUMPDEST PUSH0 DUP2 DUP2 MSTORE PUSH1 0x1 PUSH1 0x20 MSTORE PUSH1 0x40 SWAP1 KECCAK256 DUP1 SLOAD PUSH1 0x1 PUSH1 0x1 PUSH1 0xA0 SHL SUB AND CALLER EQ PUSH2 0x5EB JUMPI PUSH1 0x40 MLOAD PUSH3 0x461BCD PUSH1 0xE5 SHL DUP2 MSTORE PUSH1 0x20 PUSH1 0x4 DUP3 ADD MSTORE PUSH1 0xB PUSH1 0x24 DUP3 ADD MSTORE PUSH11 0x3737BA1031B932B0BA37B9 PUSH1 0xA9 SHL PUSH1 0x44 DUP3 ADD MSTORE PUSH1 0x64 ADD PUSH2 0x26A JUMP JUMPDEST DUP1 PUSH1 0x4 ADD SLOAD TIMESTAMP GT PUSH2 0x62A JUMPI PUSH1 0x40 MLOAD PUSH3 0x461BCD PUSH1 0xE5 SHL DUP2 MSTORE PUSH1 0x20 PUSH1 0x4 DUP3 ADD MSTORE PUSH1 0x9 PUSH1 0x24 DUP3 ADD MSTORE PUSH9 0x1B9BDD08195B991959 PUSH1 0xBA SHL PUSH1 0x44 DUP3 ADD MSTORE PUSH1 0x64 ADD PUSH2 0x26A JUMP JUMPDEST DUP1 PUSH1 0x1 ADD SLOAD DUP2 PUSH1 0x2 ADD SLOAD LT ISZERO PUSH2 0x677 JUMPI PUSH1 0x40 MLOAD PUSH3 0x461BCD PUSH1 0xE5 SHL DUP2 MSTORE PUSH1 0x20 PUSH1 0x4 DUP3 ADD MSTORE PUSH1 0x12 PUSH1 0x24 DUP3 ADD MSTORE PUSH18 0x1B9BDD08195B9BDD59DA081C1B195919D959 PUSH1 0x72 SHL PUSH1 0x44 DUP3 ADD MSTORE PUSH1 0x64 ADD PUSH2 0x26A JUMP JUMPDEST PUSH1 0x5 DUP2 ADD SLOAD PUSH1 0xFF AND ISZERO PUSH2 0x6B6 JUMPI PUSH1 0x40 MLOAD PUSH3 0x461BCD PUSH1 0xE5 SHL DUP2 MSTORE PUSH1 0x20 PUSH1 0x4 DUP3 ADD MSTORE PUSH1 0x7 PUSH1 0x24 DUP3 ADD MSTORE PUSH7 0x18DB185A5B5959 PUSH1 0xCA SHL PUSH1 0x44 DUP3 ADD MSTORE PUSH1 0x64 ADD PUSH2 0x26A JUMP JUMPDEST PUSH1 0x5 DUP2 ADD DUP1 SLOAD PUSH1 0xFF NOT AND PUSH1 0x1 OR SWAP1 SSTORE PUSH1 0x2 DUP2 ADD SLOAD PUSH1 0x40 MLOAD PUSH4 0xA9059CBB PUSH1 0xE0 SHL DUP2 MSTORE CALLER PUSH1 0x4 DUP3 ADD MSTORE PUSH1 0x24 DUP2 ADD SWAP2 SWAP1 SWAP2 MSTORE PUSH1 0x1 PUSH1 0x1 PUSH1 0xA0 SHL SUB PUSH32 0x0 AND SWAP1 PUSH4 0xA9059CBB SWAP1 PUSH1 0x44 ADD PUSH1 0x20 PUSH1 0x40 MLOAD DUP1 DUP4 SUB DUP2 PUSH0 DUP8 GAS CALL ISZERO DUP1 ISZERO PUSH2 0x735 JUMPI RETURNDATASIZE PUSH0 DUP1 RETURNDATACOPY RETURNDATASIZE PUSH0 REVERT JUMPDEST POP POP POP POP PUSH1 0x40 MLOAD RETURNDATASIZE PUSH1 0x1F NOT PUSH1 0x1F DUP3 ADD AND DUP3 ADD DUP1 PUSH1 0x40 MSTORE POP DUP2 ADD SWAP1 PUSH2 0x759 SWAP2 SWAP1 PUSH2 0xCFE JUMP JUMPDEST POP PUSH1 0x2 DUP2 ADD SLOAD PUSH1 0x40 MLOAD DUP4 DUP2 MSTORE CALLER SWAP1 PUSH32 0x3ED1528B0FDC7C5207C1BF935E34A667E13656B9ED165260C522BE0BC544F303 SWAP1 PUSH1 0x20 ADD PUSH1 0x40 MLOAD DUP1 SWAP2 SUB SWAP1 LOG3 POP POP JUMP JUMPDEST PUSH0 DUP2 DUP2 MSTORE PUSH1 0x1 PUSH1 0x20 DUP2 DUP2 MSTORE PUSH1 0x40 SWAP3 DUP4 SWAP1 KECCAK256 DUP4 MLOAD PUSH1 0xC0 DUP2 ADD DUP6 MSTORE DUP2 SLOAD PUSH1 0x1 PUSH1 0x1 PUSH1 0xA0 SHL SUB AND DUP1 DUP3 MSTORE SWAP4 DUP3 ADD SLOAD SWAP3 DUP2 ADD SWAP3 SWAP1 SWAP3 MSTORE PUSH1 0x2 DUP2 ADD SLOAD SWAP4 DUP3 ADD SWAP4 SWAP1 SWAP4 MSTORE PUSH1 0x3 DUP4 ADD SLOAD PUSH1 0x60 DUP3 ADD MSTORE PUSH1 0x4 DUP4 ADD SLOAD PUSH1 0x80 DUP3 ADD MSTORE PUSH1 0x5 SWAP1 SWAP3 ADD SLOAD PUSH1 0xFF AND ISZERO ISZERO PUSH1 0xA0 DUP4 ADD MSTORE CALLER EQ PUSH2 0x836 JUMPI PUSH1 0x40 MLOAD PUSH3 0x461BCD PUSH1 0xE5 SHL DUP2 MSTORE PUSH1 0x20 PUSH1 0x4 DUP3 ADD MSTORE PUSH1 0xB PUSH1 0x24 DUP3 ADD MSTORE PUSH11 0x3737BA1031B932B0BA37B9 PUSH1 0xA9 SHL PUSH1 0x44 DUP3 ADD MSTORE PUSH1 0x64 ADD PUSH2 0x26A JUMP JUMPDEST DUP1 PUSH1 0x60 ADD MLOAD TIMESTAMP LT PUSH2 0x878 JUMPI PUSH1 0x40 MLOAD PUSH3 0x461BCD PUSH1 0xE5 SHL DUP2 MSTORE PUSH1 0x20 PUSH1 0x4 DUP3 ADD MSTORE PUSH1 0xC PUSH1 0x24 DUP3 ADD MSTORE PUSH12 0x1A185D99481CDD185C9D1959 PUSH1 0xA2 SHL PUSH1 0x44 DUP3 ADD MSTORE PUSH1 0x64 ADD PUSH2 0x26A JUMP JUMPDEST PUSH0 DUP3 DUP2 MSTORE PUSH1 0x1 PUSH1 0x20 DUP2 SWAP1 MSTORE PUSH1 0x40 DUP1 DUP4 KECCAK256 DUP1 SLOAD PUSH1 0x1 PUSH1 0x1 PUSH1 0xA0 SHL SUB NOT AND DUP2 SSTORE SWAP2 DUP3 ADD DUP4 SWAP1 SSTORE PUSH1 0x2 DUP3 ADD DUP4 SWAP1 SSTORE PUSH1 0x3 DUP3 ADD DUP4 SWAP1 SSTORE PUSH1 0x4 DUP3 ADD SWAP3 SWAP1 SWAP3 SSTORE PUSH1 0x5 ADD DUP1 SLOAD PUSH1 0xFF NOT AND SWAP1 SSTORE MLOAD PUSH32 0x8BF30E7FF26833413BE5F69E1D373744864D600B664204B4A2F9844A8EEDB9ED SWAP1 PUSH2 0x8ED SWAP1 DUP5 DUP2 MSTORE PUSH1 0x20 ADD SWAP1 JUMP JUMPDEST PUSH1 0x40 MLOAD DUP1 SWAP2 SUB SWAP1 LOG1 POP POP JUMP JUMPDEST PUSH0 DUP3 DUP2 MSTORE PUSH1 0x1 PUSH1 0x20 MSTORE PUSH1 0x40 SWAP1 KECCAK256 PUSH1 0x3 DUP2 ADD SLOAD TIMESTAMP LT ISZERO PUSH2 0x948 JUMPI PUSH1 0x40 MLOAD PUSH3 0x461BCD PUSH1 0xE5 SHL DUP2 MSTORE PUSH1 0x20 PUSH1 0x4 DUP3 ADD MSTORE PUSH1 0xB PUSH1 0x24 DUP3 ADD MSTORE PUSH11 0x1B9BDD081CDD185C9D1959 PUSH1 0xAA SHL PUSH1 0x44 DUP3 ADD MSTORE PUSH1 0x64 ADD PUSH2 0x26A JUMP JUMPDEST DUP1 PUSH1 0x4 ADD SLOAD TIMESTAMP GT ISZERO PUSH2 0x98E JUMPI PUSH1 0x40 MLOAD PUSH3 0x461BCD PUSH1 0xE5 SHL DUP2 MSTORE PUSH1 0x20 PUSH1 0x4 DUP3 ADD MSTORE PUSH1 0xF PUSH1 0x24 DUP3 ADD MSTORE PUSH15 0x6F7574206F6620646561646C696E65 PUSH1 0x88 SHL PUSH1 0x44 DUP3 ADD MSTORE PUSH1 0x64 ADD PUSH2 0x26A JUMP JUMPDEST DUP2 DUP2 PUSH1 0x2 ADD PUSH0 DUP3 DUP3 SLOAD PUSH2 0x9A1 SWAP2 SWAP1 PUSH2 0xD51 JUMP JUMPDEST SWAP1 SWAP2 SSTORE POP POP PUSH0 DUP4 DUP2 MSTORE PUSH1 0x2 PUSH1 0x20 SWAP1 DUP2 MSTORE PUSH1 0x40 DUP1 DUP4 KECCAK256 CALLER DUP5 MSTORE SWAP1 SWAP2 MSTORE DUP2 KECCAK256 DUP1 SLOAD DUP5 SWAP3 SWAP1 PUSH2 0x9CE SWAP1 DUP5 SWAP1 PUSH2 0xD51 JUMP JUMPDEST SWAP1 SWAP2 SSTORE POP POP PUSH1 0x40 MLOAD PUSH4 0x23B872DD PUSH1 0xE0 SHL DUP2 MSTORE ADDRESS PUSH1 0x4 DUP3 ADD MSTORE CALLER PUSH1 0x24 DUP3 ADD MSTORE PUSH1 0x44 DUP2 ADD DUP4 SWAP1 MSTORE PUSH32 0x0 PUSH1 0x1 PUSH1 0x1 PUSH1 0xA0 SHL SUB AND SWAP1 PUSH4 0x23B872DD SWAP1 PUSH1 0x64 ADD PUSH1 0x20 PUSH1 0x40 MLOAD DUP1 DUP4 SUB DUP2 PUSH0 DUP8 GAS CALL ISZERO DUP1 ISZERO PUSH2 0xA43 JUMPI RETURNDATASIZE PUSH0 DUP1 RETURNDATACOPY RETURNDATASIZE PUSH0 REVERT JUMPDEST POP POP POP POP PUSH1 0x40 MLOAD RETURNDATASIZE PUSH1 0x1F NOT PUSH1 0x1F DUP3 ADD AND DUP3 ADD DUP1 PUSH1 0x40 MSTORE POP DUP2 ADD SWAP1 PUSH2 0xA67 SWAP2 SWAP1 PUSH2 0xCFE JUMP JUMPDEST POP PUSH1 0x40 MLOAD DUP3 SWAP1 CALLER SWAP1 DUP6 SWAP1 PUSH32 0xDC63160518C9C709FE39309A0E6F3D567887986A4625CD35090A6689E56E34C0 SWAP1 PUSH0 SWAP1 LOG4 POP POP POP JUMP JUMPDEST PUSH0 DUP3 DUP2 MSTORE PUSH1 0x1 PUSH1 0x20 MSTORE PUSH1 0x40 SWAP1 KECCAK256 PUSH1 0x3 DUP2 ADD SLOAD TIMESTAMP LT ISZERO PUSH2 0xAEA JUMPI PUSH1 0x40 MLOAD PUSH3 0x461BCD PUSH1 0xE5 SHL DUP2 MSTORE PUSH1 0x20 PUSH1 0x4 DUP3 ADD MSTORE PUSH1 0xB PUSH1 0x24 DUP3 ADD MSTORE PUSH11 0x1B9BDD081CDD185C9D1959 PUSH1 0xAA SHL PUSH1 0x44 DUP3 ADD MSTORE PUSH1 0x64 ADD PUSH2 0x26A JUMP JUMPDEST DUP1 PUSH1 0x4 ADD SLOAD TIMESTAMP GT ISZERO PUSH2 0xB30 JUMPI PUSH1 0x40 MLOAD PUSH3 0x461BCD PUSH1 0xE5 SHL DUP2 MSTORE PUSH1 0x20 PUSH1 0x4 DUP3 ADD MSTORE PUSH1 0xF PUSH1 0x24 DUP3 ADD MSTORE PUSH15 0x6F7574206F6620646561646C696E65 PUSH1 0x88 SHL PUSH1 0x44 DUP3 ADD MSTORE PUSH1 0x64 ADD PUSH2 0x26A JUMP JUMPDEST DUP2 DUP2 PUSH1 0x2 ADD PUSH0 DUP3 DUP3 SLOAD PUSH2 0xB43 SWAP2 SWAP1 PUSH2 0xD38 JUMP JUMPDEST SWAP1 SWAP2 SSTORE POP POP PUSH0 DUP4 DUP2 MSTORE PUSH1 0x2 PUSH1 0x20 SWAP1 DUP2 MSTORE PUSH1 0x40 DUP1 DUP4 KECCAK256 CALLER DUP5 MSTORE SWAP1 SWAP2 MSTORE DUP2 KECCAK256 DUP1 SLOAD DUP5 SWAP3 SWAP1 PUSH2 0xB70 SWAP1 DUP5 SWAP1 PUSH2 0xD38 JUMP JUMPDEST SWAP1 SWAP2 SSTORE POP POP PUSH1 0x40 MLOAD PUSH4 0x23B872DD PUSH1 0xE0 SHL DUP2 MSTORE CALLER PUSH1 0x4 DUP3 ADD MSTORE ADDRESS PUSH1 0x24 DUP3 ADD MSTORE PUSH1 0x44 DUP2 ADD DUP4 SWAP1 MSTORE PUSH32 0x0 PUSH1 0x1 PUSH1 0x1 PUSH1 0xA0 SHL SUB AND SWAP1 PUSH4 0x23B872DD SWAP1 PUSH1 0x64 ADD PUSH1 0x20 PUSH1 0x40 MLOAD DUP1 DUP4 SUB DUP2 PUSH0 DUP8 GAS CALL ISZERO DUP1 ISZERO PUSH2 0xBE5 JUMPI RETURNDATASIZE PUSH0 DUP1 RETURNDATACOPY RETURNDATASIZE PUSH0 REVERT JUMPDEST POP POP POP POP PUSH1 0x40 MLOAD RETURNDATASIZE PUSH1 0x1F NOT PUSH1 0x1F DUP3 ADD AND DUP3 ADD DUP1 PUSH1 0x40 MSTORE POP DUP2 ADD SWAP1 PUSH2 0xC09 SWAP2 SWAP1 PUSH2 0xCFE JUMP JUMPDEST POP PUSH1 0x40 MLOAD DUP3 SWAP1 CALLER SWAP1 DUP6 SWAP1 PUSH32 0x6BDB975DF800A73232998E71ED585D536222F1DFEAA622D7F62A23ADA686C82 SWAP1 PUSH0 SWAP1 LOG4 POP POP POP JUMP JUMPDEST PUSH0 PUSH1 0x20 DUP3 DUP5 SUB SLT ISZERO PUSH2 0xC4D JUMPI PUSH0 DUP1 REVERT JUMPDEST POP CALLDATALOAD SWAP2 SWAP1 POP JUMP JUMPDEST DUP1 CALLDATALOAD PUSH4 0xFFFFFFFF DUP2 AND DUP2 EQ PUSH2 0xC67 JUMPI PUSH0 DUP1 REVERT JUMPDEST SWAP2 SWAP1 POP JUMP JUMPDEST PUSH0 DUP1 PUSH0 PUSH1 0x60 DUP5 DUP7 SUB SLT ISZERO PUSH2 0xC7E JUMPI PUSH0 DUP1 REVERT JUMPDEST DUP4 CALLDATALOAD SWAP3 POP PUSH2 0xC8E PUSH1 0x20 DUP6 ADD PUSH2 0xC54 JUMP JUMPDEST SWAP2 POP PUSH2 0xC9C PUSH1 0x40 DUP6 ADD PUSH2 0xC54 JUMP JUMPDEST SWAP1 POP SWAP3 POP SWAP3 POP SWAP3 JUMP JUMPDEST PUSH0 DUP1 PUSH1 0x40 DUP4 DUP6 SUB SLT ISZERO PUSH2 0xCB6 JUMPI PUSH0 DUP1 REVERT JUMPDEST POP POP DUP1 CALLDATALOAD SWAP3 PUSH1 0x20 SWAP1 SWAP2 ADD CALLDATALOAD SWAP2 POP JUMP JUMPDEST PUSH0 DUP1 PUSH1 0x40 DUP4 DUP6 SUB SLT ISZERO PUSH2 0xCD6 JUMPI PUSH0 DUP1 REVERT JUMPDEST DUP3 CALLDATALOAD SWAP2 POP PUSH1 0x20 DUP4 ADD CALLDATALOAD PUSH1 0x1 PUSH1 0x1 PUSH1 0xA0 SHL SUB DUP2 AND DUP2 EQ PUSH2 0xCF3 JUMPI PUSH0 DUP1 REVERT JUMPDEST DUP1 SWAP2 POP POP SWAP3 POP SWAP3 SWAP1 POP JUMP JUMPDEST PUSH0 PUSH1 0x20 DUP3 DUP5 SUB SLT ISZERO PUSH2 0xD0E JUMPI PUSH0 DUP1 REVERT JUMPDEST DUP2 MLOAD DUP1 ISZERO ISZERO DUP2 EQ PUSH2 0xD1D JUMPI PUSH0 DUP1 REVERT JUMPDEST SWAP4 SWAP3 POP POP POP JUMP JUMPDEST PUSH4 0x4E487B71 PUSH1 0xE0 SHL PUSH0 MSTORE PUSH1 0x11 PUSH1 0x4 MSTORE PUSH1 0x24 PUSH0 REVERT JUMPDEST DUP1 DUP3 ADD DUP1 DUP3 GT ISZERO PUSH2 0xD4B JUMPI PUSH2 0xD4B PUSH2 0xD24 JUMP JUMPDEST SWAP3 SWAP2 POP POP JUMP JUMPDEST DUP2 DUP2 SUB DUP2 DUP2 GT ISZERO PUSH2 0xD4B JUMPI PUSH2 0xD4B PUSH2 0xD24 JUMP INVALID LOG2 PUSH5 0x6970667358 0x22 SLT KECCAK256 0xAD PUSH7 0xB3BDAB87A8353 0xE3 0xD0 0xE6 0x23 PUSH13 0xB107CF0EF02096A8026274B153 CALLER GASLIMIT SGT 0xED PUSH5 0x64736F6C63 NUMBER STOP ADDMOD OR STOP CALLER "
		},
		"gasEstimates": {
			"creation": {
				"codeDepositCost": "696400",
				"executionCost": "infinite",
				"totalCost": "infinite"
			},
			"external": {
				"campaigns(uint256)": "13195",
				"cancel(uint256)": "82820",
				"claim(uint256)": "infinite",
				"count()": "2283",
				"launch(uint256,uint32,uint32)": "infinite",
				"pledge(uint256,uint256)": "infinite",
				"pledgeAmount(uint256,address)": "2617",
				"refund(uint256)": "infinite",
				"token()": "infinite",
				"unpledge(uint256,uint256)": "infinite"
			}
		},
		"methodIdentifiers": {
			"campaigns(uint256)": "141961bc",
			"cancel(uint256)": "40e58ee5",
			"claim(uint256)": "379607f5",
			"count()": "06661abd",
			"launch(uint256,uint32,uint32)": "2c63f146",
			"pledge(uint256,uint256)": "fde327be",
			"pledgeAmount(uint256,address)": "8743ae89",
			"refund(uint256)": "278ecde1",
			"token()": "fc0c546a",
			"unpledge(uint256,uint256)": "711853ab"
		}
	},
	"abi": [
		{
			"inputs": [
				{
					"internalType": "address",
					"name": "_token",
					"type": "address"
				}
			],
			"stateMutability": "nonpayable",
			"type": "constructor"
		},
		{
			"anonymous": false,
			"inputs": [
				{
					"indexed": false,
					"internalType": "uint256",
					"name": "id",
					"type": "uint256"
				}
			],
			"name": "Cancel",
			"type": "event"
		},
		{
			"anonymous": false,
			"inputs": [
				{
					"indexed": false,
					"internalType": "uint256",
					"name": "id",
					"type": "uint256"
				},
				{
					"indexed": true,
					"internalType": "address",
					"name": "creator",
					"type": "address"
				},
				{
					"indexed": true,
					"internalType": "uint256",
					"name": "amount",
					"type": "uint256"
				}
			],
			"name": "Claim",
			"type": "event"
		},
		{
			"anonymous": false,
			"inputs": [
				{
					"indexed": false,
					"internalType": "uint256",
					"name": "id",
					"type": "uint256"
				},
				{
					"indexed": true,
					"internalType": "address",
					"name": "creator",
					"type": "address"
				},
				{
					"indexed": false,
					"internalType": "uint256",
					"name": "goal",
					"type": "uint256"
				},
				{
					"indexed": false,
					"internalType": "uint32",
					"name": "startAt",
					"type": "uint32"
				},
				{
					"indexed": false,
					"internalType": "uint32",
					"name": "endAt",
					"type": "uint32"
				}
			],
			"name": "Launch",
			"type": "event"
		},
		{
			"anonymous": false,
			"inputs": [
				{
					"indexed": true,
					"internalType": "uint256",
					"name": "id",
					"type": "uint256"
				},
				{
					"indexed": true,
					"internalType": "address",
					"name": "caller",
					"type": "address"
				},
				{
					"indexed": true,
					"internalType": "uint256",
					"name": "amount",
					"type": "uint256"
				}
			],
			"name": "Pledge",
			"type": "event"
		},
		{
			"anonymous": false,
			"inputs": [
				{
					"indexed": false,
					"internalType": "uint256",
					"name": "id",
					"type": "uint256"
				},
				{
					"indexed": true,
					"internalType": "address",
					"name": "creator",
					"type": "address"
				},
				{
					"indexed": true,
					"internalType": "uint256",
					"name": "amount",
					"type": "uint256"
				}
			],
			"name": "Refund",
			"type": "event"
		},
		{
			"anonymous": false,
			"inputs": [
				{
					"indexed": true,
					"internalType": "uint256",
					"name": "id",
					"type": "uint256"
				},
				{
					"indexed": true,
					"internalType": "address",
					"name": "caller",
					"type": "address"
				},
				{
					"indexed": true,
					"internalType": "uint256",
					"name": "amount",
					"type": "uint256"
				}
			],
			"name": "UnPledge",
			"type": "event"
		},
		{
			"inputs": [
				{
					"internalType": "uint256",
					"name": "",
					"type": "uint256"
				}
			],
			"name": "campaigns",
			"outputs": [
				{
					"internalType": "address",
					"name": "creator",
					"type": "address"
				},
				{
					"internalType": "uint256",
					"name": "goal",
					"type": "uint256"
				},
				{
					"internalType": "uint256",
					"name": "pledged",
					"type": "uint256"
				},
				{
					"internalType": "uint256",
					"name": "startAt",
					"type": "uint256"
				},
				{
					"internalType": "uint256",
					"name": "endAt",
					"type": "uint256"
				},
				{
					"internalType": "bool",
					"name": "claimed",
					"type": "bool"
				}
			],
			"stateMutability": "view",
			"type": "function"
		},
		{
			"inputs": [
				{
					"internalType": "uint256",
					"name": "_id",
					"type": "uint256"
				}
			],
			"name": "cancel",
			"outputs": [],
			"stateMutability": "nonpayable",
			"type": "function"
		},
		{
			"inputs": [
				{
					"internalType": "uint256",
					"name": "_id",
					"type": "uint256"
				}
			],
			"name": "claim",
			"outputs": [],
			"stateMutability": "nonpayable",
			"type": "function"
		},
		{
			"inputs": [],
			"name": "count",
			"outputs": [
				{
					"internalType": "uint256",
					"name": "",
					"type": "uint256"
				}
			],
			"stateMutability": "view",
			"type": "function"
		},
		{
			"inputs": [
				{
					"internalType": "uint256",
					"name": "_goal",
					"type": "uint256"
				},
				{
					"internalType": "uint32",
					"name": "_startAt",
					"type": "uint32"
				},
				{
					"internalType": "uint32",
					"name": "_endAt",
					"type": "uint32"
				}
			],
			"name": "launch",
			"outputs": [],
			"stateMutability": "nonpayable",
			"type": "function"
		},
		{
			"inputs": [
				{
					"internalType": "uint256",
					"name": "_id",
					"type": "uint256"
				},
				{
					"internalType": "uint256",
					"name": "_amount",
					"type": "uint256"
				}
			],
			"name": "pledge",
			"outputs": [],
			"stateMutability": "nonpayable",
			"type": "function"
		},
		{
			"inputs": [
				{
					"internalType": "uint256",
					"name": "",
					"type": "uint256"
				},
				{
					"internalType": "address",
					"name": "",
					"type": "address"
				}
			],
			"name": "pledgeAmount",
			"outputs": [
				{
					"internalType": "uint256",
					"name": "",
					"type": "uint256"
				}
			],
			"stateMutability": "view",
			"type": "function"
		},
		{
			"inputs": [
				{
					"internalType": "uint256",
					"name": "_id",
					"type": "uint256"
				}
			],
			"name": "refund",
			"outputs": [],
			"stateMutability": "nonpayable",
			"type": "function"
		},
		{
			"inputs": [],
			"name": "token",
			"outputs": [
				{
					"internalType": "contract IERC20",
					"name": "",
					"type": "address"
				}
			],
			"stateMutability": "view",
			"type": "function"
		},
		{
			"inputs": [
				{
					"internalType": "uint256",
					"name": "_id",
					"type": "uint256"
				},
				{
					"internalType": "uint256",
					"name": "_amount",
					"type": "uint256"
				}
			],
			"name": "unpledge",
			"outputs": [],
			"stateMutability": "nonpayable",
			"type": "function"
		}
	]
}