{
	"data": {
		"bytecode": {
			"linkReferences": {},
			"object": "608060405234801561000f575f80fd5b506106de8061001d5f395ff3fe608060405234801561000f575f80fd5b50600436106100b1575f3560e01c80639b726dc01161006e5780639b726dc014610112578063a5a0823e1461011b578063b6c9680614610124578063d027a27d14610137578063dcc0105d1461014a578063f15085721461015d575f80fd5b80631203bf54146100b5578063188dc0a5146100d057806320ac2263146100e55780632ddbd13a146100ee5780635f36e8c2146100f65780638b2497fe146100ff575b5f80fd5b6100be60055481565b60405190815260200160405180910390f35b6100e36100de366004610514565b610170565b005b6100be60035481565b6100be5f5481565b6100be60025481565b6100e361010d366004610514565b61021a565b6100be60045481565b6100be60015481565b6100e3610132366004610597565b610285565b6100e3610145366004610514565b610332565b6100e3610158366004610514565b6103da565b6100e361016b366004610514565b610472565b5f5b81811015610215575f600284848481811061018f5761018f610650565b905060200201356101a09190610664565b1590505f60638585858181106101b8576101b8610650565b905060200201351090508180156101cc5750805b15610200578484848181106101e3576101e3610650565b9050602002013560015f8282546101fa9190610683565b90915550505b5061020e9050600182610683565b9050610172565b505050565b6005545f5b8281101561027d575f84848381811061023a5761023a610650565b9050602002013590505f6002826102519190610664565b1590508080156102615750606382105b15610273576102708285610683565b93505b505060010161021f565b506005555050565b5f5b815181101561032e575f60028383815181106102a5576102a5610650565b60200260200101516102b79190610664565b5f1490505f60638484815181106102d0576102d0610650565b60200260200101511090508180156102e55750805b15610319578383815181106102fc576102fc610650565b60200260200101515f808282546103139190610683565b90915550505b506103279050600182610683565b9050610287565b5050565b6002545f5b828110156103d2575f600285858481811061035457610354610650565b905060200201356103659190610664565b1590505f606386868581811061037d5761037d610650565b905060200201351090508180156103915750805b156103bd578585848181106103a8576103a8610650565b90506020020135846103ba9190610683565b93505b506103cb9050600182610683565b9050610337565b506002555050565b6004545f5b8281101561046a575f60028585848181106103fc576103fc610650565b9050602002013561040d9190610664565b1590508080156104355750606385858481811061042c5761042c610650565b90506020020135105b156104615784848381811061044c5761044c610650565b905060200201358361045e9190610683565b92505b506001016103df565b506004555050565b6003545f5b8281101561050c575f600285858481811061049457610494610650565b905060200201356104a59190610664565b1590508080156104cd575060638585848181106104c4576104c4610650565b90506020020135105b156104f9578484838181106104e4576104e4610650565b90506020020135836104f69190610683565b92505b50610505600182610683565b9050610477565b506003555050565b5f8060208385031215610525575f80fd5b823567ffffffffffffffff8082111561053c575f80fd5b818501915085601f83011261054f575f80fd5b81358181111561055d575f80fd5b8660208260051b8501011115610571575f80fd5b60209290920196919550909350505050565b634e487b7160e01b5f52604160045260245ffd5b5f60208083850312156105a8575f80fd5b823567ffffffffffffffff808211156105bf575f80fd5b818501915085601f8301126105d2575f80fd5b8135818111156105e4576105e4610583565b8060051b604051601f19603f8301168101818110858211171561060957610609610583565b604052918252848201925083810185019188831115610626575f80fd5b938501935b828510156106445784358452938501939285019261062b565b98975050505050505050565b634e487b7160e01b5f52603260045260245ffd5b5f8261067e57634e487b7160e01b5f52601260045260245ffd5b500690565b808201808211156106a257634e487b7160e01b5f52601160045260245ffd5b9291505056fea2646970667358221220ffa6df4fb18d4181a40298d2b6af8a3bcb1d7a870c25369416c6cc8d10c1780b64736f6c63430008170033",
			"opcodes": "PUSH1 0x80 PUSH1 0x40 MSTORE CALLVALUE DUP1 ISZERO PUSH2 0xF JUMPI PUSH0 DUP1 REVERT JUMPDEST POP PUSH2 0x6DE DUP1 PUSH2 0x1D PUSH0 CODECOPY PUSH0 RETURN INVALID PUSH1 0x80 PUSH1 0x40 MSTORE CALLVALUE DUP1 ISZERO PUSH2 0xF JUMPI PUSH0 DUP1 REVERT JUMPDEST POP PUSH1 0x4 CALLDATASIZE LT PUSH2 0xB1 JUMPI PUSH0 CALLDATALOAD PUSH1 0xE0 SHR DUP1 PUSH4 0x9B726DC0 GT PUSH2 0x6E JUMPI DUP1 PUSH4 0x9B726DC0 EQ PUSH2 0x112 JUMPI DUP1 PUSH4 0xA5A0823E EQ PUSH2 0x11B JUMPI DUP1 PUSH4 0xB6C96806 EQ PUSH2 0x124 JUMPI DUP1 PUSH4 0xD027A27D EQ PUSH2 0x137 JUMPI DUP1 PUSH4 0xDCC0105D EQ PUSH2 0x14A JUMPI DUP1 PUSH4 0xF1508572 EQ PUSH2 0x15D JUMPI PUSH0 DUP1 REVERT JUMPDEST DUP1 PUSH4 0x1203BF54 EQ PUSH2 0xB5 JUMPI DUP1 PUSH4 0x188DC0A5 EQ PUSH2 0xD0 JUMPI DUP1 PUSH4 0x20AC2263 EQ PUSH2 0xE5 JUMPI DUP1 PUSH4 0x2DDBD13A EQ PUSH2 0xEE JUMPI DUP1 PUSH4 0x5F36E8C2 EQ PUSH2 0xF6 JUMPI DUP1 PUSH4 0x8B2497FE EQ PUSH2 0xFF JUMPI JUMPDEST PUSH0 DUP1 REVERT JUMPDEST PUSH2 0xBE PUSH1 0x5 SLOAD DUP2 JUMP JUMPDEST PUSH1 0x40 MLOAD SWAP1 DUP2 MSTORE PUSH1 0x20 ADD PUSH1 0x40 MLOAD DUP1 SWAP2 SUB SWAP1 RETURN JUMPDEST PUSH2 0xE3 PUSH2 0xDE CALLDATASIZE PUSH1 0x4 PUSH2 0x514 JUMP JUMPDEST PUSH2 0x170 JUMP JUMPDEST STOP JUMPDEST PUSH2 0xBE PUSH1 0x3 SLOAD DUP2 JUMP JUMPDEST PUSH2 0xBE PUSH0 SLOAD DUP2 JUMP JUMPDEST PUSH2 0xBE PUSH1 0x2 SLOAD DUP2 JUMP JUMPDEST PUSH2 0xE3 PUSH2 0x10D CALLDATASIZE PUSH1 0x4 PUSH2 0x514 JUMP JUMPDEST PUSH2 0x21A JUMP JUMPDEST PUSH2 0xBE PUSH1 0x4 SLOAD DUP2 JUMP JUMPDEST PUSH2 0xBE PUSH1 0x1 SLOAD DUP2 JUMP JUMPDEST PUSH2 0xE3 PUSH2 0x132 CALLDATASIZE PUSH1 0x4 PUSH2 0x597 JUMP JUMPDEST PUSH2 0x285 JUMP JUMPDEST PUSH2 0xE3 PUSH2 0x145 CALLDATASIZE PUSH1 0x4 PUSH2 0x514 JUMP JUMPDEST PUSH2 0x332 JUMP JUMPDEST PUSH2 0xE3 PUSH2 0x158 CALLDATASIZE PUSH1 0x4 PUSH2 0x514 JUMP JUMPDEST PUSH2 0x3DA JUMP JUMPDEST PUSH2 0xE3 PUSH2 0x16B CALLDATASIZE PUSH1 0x4 PUSH2 0x514 JUMP JUMPDEST PUSH2 0x472 JUMP JUMPDEST PUSH0 JUMPDEST DUP2 DUP2 LT ISZERO PUSH2 0x215 JUMPI PUSH0 PUSH1 0x2 DUP5 DUP5 DUP5 DUP2 DUP2 LT PUSH2 0x18F JUMPI PUSH2 0x18F PUSH2 0x650 JUMP JUMPDEST SWAP1 POP PUSH1 0x20 MUL ADD CALLDATALOAD PUSH2 0x1A0 SWAP2 SWAP1 PUSH2 0x664 JUMP JUMPDEST ISZERO SWAP1 POP PUSH0 PUSH1 0x63 DUP6 DUP6 DUP6 DUP2 DUP2 LT PUSH2 0x1B8 JUMPI PUSH2 0x1B8 PUSH2 0x650 JUMP JUMPDEST SWAP1 POP PUSH1 0x20 MUL ADD CALLDATALOAD LT SWAP1 POP DUP2 DUP1 ISZERO PUSH2 0x1CC JUMPI POP DUP1 JUMPDEST ISZERO PUSH2 0x200 JUMPI DUP5 DUP5 DUP5 DUP2 DUP2 LT PUSH2 0x1E3 JUMPI PUSH2 0x1E3 PUSH2 0x650 JUMP JUMPDEST SWAP1 POP PUSH1 0x20 MUL ADD CALLDATALOAD PUSH1 0x1 PUSH0 DUP3 DUP3 SLOAD PUSH2 0x1FA SWAP2 SWAP1 PUSH2 0x683 JUMP JUMPDEST SWAP1 SWAP2 SSTORE POP POP JUMPDEST POP PUSH2 0x20E SWAP1 POP PUSH1 0x1 DUP3 PUSH2 0x683 JUMP JUMPDEST SWAP1 POP PUSH2 0x172 JUMP JUMPDEST POP POP POP JUMP JUMPDEST PUSH1 0x5 SLOAD PUSH0 JUMPDEST DUP3 DUP2 LT ISZERO PUSH2 0x27D JUMPI PUSH0 DUP5 DUP5 DUP4 DUP2 DUP2 LT PUSH2 0x23A JUMPI PUSH2 0x23A PUSH2 0x650 JUMP JUMPDEST SWAP1 POP PUSH1 0x20 MUL ADD CALLDATALOAD SWAP1 POP PUSH0 PUSH1 0x2 DUP3 PUSH2 0x251 SWAP2 SWAP1 PUSH2 0x664 JUMP JUMPDEST ISZERO SWAP1 POP DUP1 DUP1 ISZERO PUSH2 0x261 JUMPI POP PUSH1 0x63 DUP3 LT JUMPDEST ISZERO PUSH2 0x273 JUMPI PUSH2 0x270 DUP3 DUP6 PUSH2 0x683 JUMP JUMPDEST SWAP4 POP JUMPDEST POP POP PUSH1 0x1 ADD PUSH2 0x21F JUMP JUMPDEST POP PUSH1 0x5 SSTORE POP POP JUMP JUMPDEST PUSH0 JUMPDEST DUP2 MLOAD DUP2 LT ISZERO PUSH2 0x32E JUMPI PUSH0 PUSH1 0x2 DUP4 DUP4 DUP2 MLOAD DUP2 LT PUSH2 0x2A5 JUMPI PUSH2 0x2A5 PUSH2 0x650 JUMP JUMPDEST PUSH1 0x20 MUL PUSH1 0x20 ADD ADD MLOAD PUSH2 0x2B7 SWAP2 SWAP1 PUSH2 0x664 JUMP JUMPDEST PUSH0 EQ SWAP1 POP PUSH0 PUSH1 0x63 DUP5 DUP5 DUP2 MLOAD DUP2 LT PUSH2 0x2D0 JUMPI PUSH2 0x2D0 PUSH2 0x650 JUMP JUMPDEST PUSH1 0x20 MUL PUSH1 0x20 ADD ADD MLOAD LT SWAP1 POP DUP2 DUP1 ISZERO PUSH2 0x2E5 JUMPI POP DUP1 JUMPDEST ISZERO PUSH2 0x319 JUMPI DUP4 DUP4 DUP2 MLOAD DUP2 LT PUSH2 0x2FC JUMPI PUSH2 0x2FC PUSH2 0x650 JUMP JUMPDEST PUSH1 0x20 MUL PUSH1 0x20 ADD ADD MLOAD PUSH0 DUP1 DUP3 DUP3 SLOAD PUSH2 0x313 SWAP2 SWAP1 PUSH2 0x683 JUMP JUMPDEST SWAP1 SWAP2 SSTORE POP POP JUMPDEST POP PUSH2 0x327 SWAP1 POP PUSH1 0x1 DUP3 PUSH2 0x683 JUMP JUMPDEST SWAP1 POP PUSH2 0x287 JUMP JUMPDEST POP POP JUMP JUMPDEST PUSH1 0x2 SLOAD PUSH0 JUMPDEST DUP3 DUP2 LT ISZERO PUSH2 0x3D2 JUMPI PUSH0 PUSH1 0x2 DUP6 DUP6 DUP5 DUP2 DUP2 LT PUSH2 0x354 JUMPI PUSH2 0x354 PUSH2 0x650 JUMP JUMPDEST SWAP1 POP PUSH1 0x20 MUL ADD CALLDATALOAD PUSH2 0x365 SWAP2 SWAP1 PUSH2 0x664 JUMP JUMPDEST ISZERO SWAP1 POP PUSH0 PUSH1 0x63 DUP7 DUP7 DUP6 DUP2 DUP2 LT PUSH2 0x37D JUMPI PUSH2 0x37D PUSH2 0x650 JUMP JUMPDEST SWAP1 POP PUSH1 0x20 MUL ADD CALLDATALOAD LT SWAP1 POP DUP2 DUP1 ISZERO PUSH2 0x391 JUMPI POP DUP1 JUMPDEST ISZERO PUSH2 0x3BD JUMPI DUP6 DUP6 DUP5 DUP2 DUP2 LT PUSH2 0x3A8 JUMPI PUSH2 0x3A8 PUSH2 0x650 JUMP JUMPDEST SWAP1 POP PUSH1 0x20 MUL ADD CALLDATALOAD DUP5 PUSH2 0x3BA SWAP2 SWAP1 PUSH2 0x683 JUMP JUMPDEST SWAP4 POP JUMPDEST POP PUSH2 0x3CB SWAP1 POP PUSH1 0x1 DUP3 PUSH2 0x683 JUMP JUMPDEST SWAP1 POP PUSH2 0x337 JUMP JUMPDEST POP PUSH1 0x2 SSTORE POP POP JUMP JUMPDEST PUSH1 0x4 SLOAD PUSH0 JUMPDEST DUP3 DUP2 LT ISZERO PUSH2 0x46A JUMPI PUSH0 PUSH1 0x2 DUP6 DUP6 DUP5 DUP2 DUP2 LT PUSH2 0x3FC JUMPI PUSH2 0x3FC PUSH2 0x650 JUMP JUMPDEST SWAP1 POP PUSH1 0x20 MUL ADD CALLDATALOAD PUSH2 0x40D SWAP2 SWAP1 PUSH2 0x664 JUMP JUMPDEST ISZERO SWAP1 POP DUP1 DUP1 ISZERO PUSH2 0x435 JUMPI POP PUSH1 0x63 DUP6 DUP6 DUP5 DUP2 DUP2 LT PUSH2 0x42C JUMPI PUSH2 0x42C PUSH2 0x650 JUMP JUMPDEST SWAP1 POP PUSH1 0x20 MUL ADD CALLDATALOAD LT JUMPDEST ISZERO PUSH2 0x461 JUMPI DUP5 DUP5 DUP4 DUP2 DUP2 LT PUSH2 0x44C JUMPI PUSH2 0x44C PUSH2 0x650 JUMP JUMPDEST SWAP1 POP PUSH1 0x20 MUL ADD CALLDATALOAD DUP4 PUSH2 0x45E SWAP2 SWAP1 PUSH2 0x683 JUMP JUMPDEST SWAP3 POP JUMPDEST POP PUSH1 0x1 ADD PUSH2 0x3DF JUMP JUMPDEST POP PUSH1 0x4 SSTORE POP POP JUMP JUMPDEST PUSH1 0x3 SLOAD PUSH0 JUMPDEST DUP3 DUP2 LT ISZERO PUSH2 0x50C JUMPI PUSH0 PUSH1 0x2 DUP6 DUP6 DUP5 DUP2 DUP2 LT PUSH2 0x494 JUMPI PUSH2 0x494 PUSH2 0x650 JUMP JUMPDEST SWAP1 POP PUSH1 0x20 MUL ADD CALLDATALOAD PUSH2 0x4A5 SWAP2 SWAP1 PUSH2 0x664 JUMP JUMPDEST ISZERO SWAP1 POP DUP1 DUP1 ISZERO PUSH2 0x4CD JUMPI POP PUSH1 0x63 DUP6 DUP6 DUP5 DUP2 DUP2 LT PUSH2 0x4C4 JUMPI PUSH2 0x4C4 PUSH2 0x650 JUMP JUMPDEST SWAP1 POP PUSH1 0x20 MUL ADD CALLDATALOAD LT JUMPDEST ISZERO PUSH2 0x4F9 JUMPI DUP5 DUP5 DUP4 DUP2 DUP2 LT PUSH2 0x4E4 JUMPI PUSH2 0x4E4 PUSH2 0x650 JUMP JUMPDEST SWAP1 POP PUSH1 0x20 MUL ADD CALLDATALOAD DUP4 PUSH2 0x4F6 SWAP2 SWAP1 PUSH2 0x683 JUMP JUMPDEST SWAP3 POP JUMPDEST POP PUSH2 0x505 PUSH1 0x1 DUP3 PUSH2 0x683 JUMP JUMPDEST SWAP1 POP PUSH2 0x477 JUMP JUMPDEST POP PUSH1 0x3 SSTORE POP POP JUMP JUMPDEST PUSH0 DUP1 PUSH1 0x20 DUP4 DUP6 SUB SLT ISZERO PUSH2 0x525 JUMPI PUSH0 DUP1 REVERT JUMPDEST DUP3 CALLDATALOAD PUSH8 0xFFFFFFFFFFFFFFFF DUP1 DUP3 GT ISZERO PUSH2 0x53C JUMPI PUSH0 DUP1 REVERT JUMPDEST DUP2 DUP6 ADD SWAP2 POP DUP6 PUSH1 0x1F DUP4 ADD SLT PUSH2 0x54F JUMPI PUSH0 DUP1 REVERT JUMPDEST DUP2 CALLDATALOAD DUP2 DUP2 GT ISZERO PUSH2 0x55D JUMPI PUSH0 DUP1 REVERT JUMPDEST DUP7 PUSH1 0x20 DUP3 PUSH1 0x5 SHL DUP6 ADD ADD GT ISZERO PUSH2 0x571 JUMPI PUSH0 DUP1 REVERT JUMPDEST PUSH1 0x20 SWAP3 SWAP1 SWAP3 ADD SWAP7 SWAP2 SWAP6 POP SWAP1 SWAP4 POP POP POP POP JUMP JUMPDEST PUSH4 0x4E487B71 PUSH1 0xE0 SHL PUSH0 MSTORE PUSH1 0x41 PUSH1 0x4 MSTORE PUSH1 0x24 PUSH0 REVERT JUMPDEST PUSH0 PUSH1 0x20 DUP1 DUP4 DUP6 SUB SLT ISZERO PUSH2 0x5A8 JUMPI PUSH0 DUP1 REVERT JUMPDEST DUP3 CALLDATALOAD PUSH8 0xFFFFFFFFFFFFFFFF DUP1 DUP3 GT ISZERO PUSH2 0x5BF JUMPI PUSH0 DUP1 REVERT JUMPDEST DUP2 DUP6 ADD SWAP2 POP DUP6 PUSH1 0x1F DUP4 ADD SLT PUSH2 0x5D2 JUMPI PUSH0 DUP1 REVERT JUMPDEST DUP2 CALLDATALOAD DUP2 DUP2 GT ISZERO PUSH2 0x5E4 JUMPI PUSH2 0x5E4 PUSH2 0x583 JUMP JUMPDEST DUP1 PUSH1 0x5 SHL PUSH1 0x40 MLOAD PUSH1 0x1F NOT PUSH1 0x3F DUP4 ADD AND DUP2 ADD DUP2 DUP2 LT DUP6 DUP3 GT OR ISZERO PUSH2 0x609 JUMPI PUSH2 0x609 PUSH2 0x583 JUMP JUMPDEST PUSH1 0x40 MSTORE SWAP2 DUP3 MSTORE DUP5 DUP3 ADD SWAP3 POP DUP4 DUP2 ADD DUP6 ADD SWAP2 DUP9 DUP4 GT ISZERO PUSH2 0x626 JUMPI PUSH0 DUP1 REVERT JUMPDEST SWAP4 DUP6 ADD SWAP4 JUMPDEST DUP3 DUP6 LT ISZERO PUSH2 0x644 JUMPI DUP5 CALLDATALOAD DUP5 MSTORE SWAP4 DUP6 ADD SWAP4 SWAP3 DUP6 ADD SWAP3 PUSH2 0x62B JUMP JUMPDEST SWAP9 SWAP8 POP POP POP POP POP POP POP POP JUMP JUMPDEST PUSH4 0x4E487B71 PUSH1 0xE0 SHL PUSH0 MSTORE PUSH1 0x32 PUSH1 0x4 MSTORE PUSH1 0x24 PUSH0 REVERT JUMPDEST PUSH0 DUP3 PUSH2 0x67E JUMPI PUSH4 0x4E487B71 PUSH1 0xE0 SHL PUSH0 MSTORE PUSH1 0x12 PUSH1 0x4 MSTORE PUSH1 0x24 PUSH0 REVERT JUMPDEST POP MOD SWAP1 JUMP JUMPDEST DUP1 DUP3 ADD DUP1 DUP3 GT ISZERO PUSH2 0x6A2 JUMPI PUSH4 0x4E487B71 PUSH1 0xE0 SHL PUSH0 MSTORE PUSH1 0x11 PUSH1 0x4 MSTORE PUSH1 0x24 PUSH0 REVERT JUMPDEST SWAP3 SWAP2 POP POP JUMP INVALID LOG2 PUSH5 0x6970667358 0x22 SLT KECCAK256 SELFDESTRUCT 0xA6 0xDF 0x4F 0xB1 DUP14 COINBASE DUP2 LOG4 MUL SWAP9 0xD2 0xB6 0xAF DUP11 EXTCODESIZE 0xCB SAR PUSH27 0x870C25369416C6CC8D10C1780B64736F6C63430008170033000000 "
		},
		"gasEstimates": {
			"creation": {
				"codeDepositCost": "351600",
				"executionCost": "384",
				"totalCost": "351984"
			},
			"external": {
				"sumIfEventAndLessThan99_1(uint256[])": "infinite",
				"sumIfEventAndLessThan99_2(uint256[])": "infinite",
				"sumIfEventAndLessThan99_3(uint256[])": "infinite",
				"sumIfEventAndLessThan99_4(uint256[])": "infinite",
				"sumIfEventAndLessThan99_5(uint256[])": "infinite",
				"sumIfEventAndLessThan99_6(uint256[])": "infinite",
				"total()": "2348",
				"total2()": "2304",
				"total3()": "2371",
				"total4()": "2327",
				"total5()": "2282",
				"total6()": "2283"
			}
		},
		"methodIdentifiers": {
			"sumIfEventAndLessThan99_1(uint256[])": "b6c96806",
			"sumIfEventAndLessThan99_2(uint256[])": "188dc0a5",
			"sumIfEventAndLessThan99_3(uint256[])": "d027a27d",
			"sumIfEventAndLessThan99_4(uint256[])": "f1508572",
			"sumIfEventAndLessThan99_5(uint256[])": "dcc0105d",
			"sumIfEventAndLessThan99_6(uint256[])": "8b2497fe",
			"total()": "2ddbd13a",
			"total2()": "a5a0823e",
			"total3()": "5f36e8c2",
			"total4()": "20ac2263",
			"total5()": "9b726dc0",
			"total6()": "1203bf54"
		}
	},
	"abi": [
		{
			"inputs": [
				{
					"internalType": "uint256[]",
					"name": "nums",
					"type": "uint256[]"
				}
			],
			"name": "sumIfEventAndLessThan99_1",
			"outputs": [],
			"stateMutability": "nonpayable",
			"type": "function"
		},
		{
			"inputs": [
				{
					"internalType": "uint256[]",
					"name": "nums",
					"type": "uint256[]"
				}
			],
			"name": "sumIfEventAndLessThan99_2",
			"outputs": [],
			"stateMutability": "nonpayable",
			"type": "function"
		},
		{
			"inputs": [
				{
					"internalType": "uint256[]",
					"name": "nums",
					"type": "uint256[]"
				}
			],
			"name": "sumIfEventAndLessThan99_3",
			"outputs": [],
			"stateMutability": "nonpayable",
			"type": "function"
		},
		{
			"inputs": [
				{
					"internalType": "uint256[]",
					"name": "nums",
					"type": "uint256[]"
				}
			],
			"name": "sumIfEventAndLessThan99_4",
			"outputs": [],
			"stateMutability": "nonpayable",
			"type": "function"
		},
		{
			"inputs": [
				{
					"internalType": "uint256[]",
					"name": "nums",
					"type": "uint256[]"
				}
			],
			"name": "sumIfEventAndLessThan99_5",
			"outputs": [],
			"stateMutability": "nonpayable",
			"type": "function"
		},
		{
			"inputs": [
				{
					"internalType": "uint256[]",
					"name": "nums",
					"type": "uint256[]"
				}
			],
			"name": "sumIfEventAndLessThan99_6",
			"outputs": [],
			"stateMutability": "nonpayable",
			"type": "function"
		},
		{
			"inputs": [],
			"name": "total",
			"outputs": [
				{
					"internalType": "uint256",
					"name": "",
					"type": "uint256"
				}
			],
			"stateMutability": "view",
			"type": "function"
		},
		{
			"inputs": [],
			"name": "total2",
			"outputs": [
				{
					"internalType": "uint256",
					"name": "",
					"type": "uint256"
				}
			],
			"stateMutability": "view",
			"type": "function"
		},
		{
			"inputs": [],
			"name": "total3",
			"outputs": [
				{
					"internalType": "uint256",
					"name": "",
					"type": "uint256"
				}
			],
			"stateMutability": "view",
			"type": "function"
		},
		{
			"inputs": [],
			"name": "total4",
			"outputs": [
				{
					"internalType": "uint256",
					"name": "",
					"type": "uint256"
				}
			],
			"stateMutability": "view",
			"type": "function"
		},
		{
			"inputs": [],
			"name": "total5",
			"outputs": [
				{
					"internalType": "uint256",
					"name": "",
					"type": "uint256"
				}
			],
			"stateMutability": "view",
			"type": "function"
		},
		{
			"inputs": [],
			"name": "total6",
			"outputs": [
				{
					"internalType": "uint256",
					"name": "",
					"type": "uint256"
				}
			],
			"stateMutability": "view",
			"type": "function"
		}
	]
}