{
	"data": {
		"bytecode": {
			"linkReferences": {},
			"object": "6080604052348015600e575f80fd5b506101948061001c5f395ff3fe608060405234801561000f575f80fd5b506004361061003f575f3560e01c806373fc34951461004357806396db41be146100ab578063b483ebb6146100da575b5f80fd5b610095610051366004610109565b6040805160248101939093526044808401929092528051808403909201825260649092019091526020810180516001600160e01b0316633cb8008560e01b17905290565b6040516100a29190610129565b60405180910390f35b6100956040805160048152602481019091526020810180516001600160e01b031663b1ade4db60e01b17905290565b6100956040805160048152602481019091526020810180516001600160e01b0316631249c58b60e01b17905290565b5f806040838503121561011a575f80fd5b50508035926020909101359150565b602081525f82518060208401528060208501604085015e5f604082850101526040601f19601f8301168401019150509291505056fea2646970667358221220c2b616c65fdf4f5e27c98a530fab2e9181adf3df7f00ba913abf5db73b55d05364736f6c634300081a0033",
			"opcodes": "PUSH1 0x80 PUSH1 0x40 MSTORE CALLVALUE DUP1 ISZERO PUSH1 0xE JUMPI PUSH0 DUP1 REVERT JUMPDEST POP PUSH2 0x194 DUP1 PUSH2 0x1C PUSH0 CODECOPY PUSH0 RETURN INVALID PUSH1 0x80 PUSH1 0x40 MSTORE CALLVALUE DUP1 ISZERO PUSH2 0xF JUMPI PUSH0 DUP1 REVERT JUMPDEST POP PUSH1 0x4 CALLDATASIZE LT PUSH2 0x3F JUMPI PUSH0 CALLDATALOAD PUSH1 0xE0 SHR DUP1 PUSH4 0x73FC3495 EQ PUSH2 0x43 JUMPI DUP1 PUSH4 0x96DB41BE EQ PUSH2 0xAB JUMPI DUP1 PUSH4 0xB483EBB6 EQ PUSH2 0xDA JUMPI JUMPDEST PUSH0 DUP1 REVERT JUMPDEST PUSH2 0x95 PUSH2 0x51 CALLDATASIZE PUSH1 0x4 PUSH2 0x109 JUMP JUMPDEST PUSH1 0x40 DUP1 MLOAD PUSH1 0x24 DUP2 ADD SWAP4 SWAP1 SWAP4 MSTORE PUSH1 0x44 DUP1 DUP5 ADD SWAP3 SWAP1 SWAP3 MSTORE DUP1 MLOAD DUP1 DUP5 SUB SWAP1 SWAP3 ADD DUP3 MSTORE PUSH1 0x64 SWAP1 SWAP3 ADD SWAP1 SWAP2 MSTORE PUSH1 0x20 DUP2 ADD DUP1 MLOAD PUSH1 0x1 PUSH1 0x1 PUSH1 0xE0 SHL SUB AND PUSH4 0x3CB80085 PUSH1 0xE0 SHL OR SWAP1 MSTORE SWAP1 JUMP JUMPDEST PUSH1 0x40 MLOAD PUSH2 0xA2 SWAP2 SWAP1 PUSH2 0x129 JUMP JUMPDEST PUSH1 0x40 MLOAD DUP1 SWAP2 SUB SWAP1 RETURN JUMPDEST PUSH2 0x95 PUSH1 0x40 DUP1 MLOAD PUSH1 0x4 DUP2 MSTORE PUSH1 0x24 DUP2 ADD SWAP1 SWAP2 MSTORE PUSH1 0x20 DUP2 ADD DUP1 MLOAD PUSH1 0x1 PUSH1 0x1 PUSH1 0xE0 SHL SUB AND PUSH4 0xB1ADE4DB PUSH1 0xE0 SHL OR SWAP1 MSTORE SWAP1 JUMP JUMPDEST PUSH2 0x95 PUSH1 0x40 DUP1 MLOAD PUSH1 0x4 DUP2 MSTORE PUSH1 0x24 DUP2 ADD SWAP1 SWAP2 MSTORE PUSH1 0x20 DUP2 ADD DUP1 MLOAD PUSH1 0x1 PUSH1 0x1 PUSH1 0xE0 SHL SUB AND PUSH4 0x1249C58B PUSH1 0xE0 SHL OR SWAP1 MSTORE SWAP1 JUMP JUMPDEST PUSH0 DUP1 PUSH1 0x40 DUP4 DUP6 SUB SLT ISZERO PUSH2 0x11A JUMPI PUSH0 DUP1 REVERT JUMPDEST POP POP DUP1 CALLDATALOAD SWAP3 PUSH1 0x20 SWAP1 SWAP2 ADD CALLDATALOAD SWAP2 POP JUMP JUMPDEST PUSH1 0x20 DUP2 MSTORE PUSH0 DUP3 MLOAD DUP1 PUSH1 0x20 DUP5 ADD MSTORE DUP1 PUSH1 0x20 DUP6 ADD PUSH1 0x40 DUP6 ADD MCOPY PUSH0 PUSH1 0x40 DUP3 DUP6 ADD ADD MSTORE PUSH1 0x40 PUSH1 0x1F NOT PUSH1 0x1F DUP4 ADD AND DUP5 ADD ADD SWAP2 POP POP SWAP3 SWAP2 POP POP JUMP INVALID LOG2 PUSH5 0x6970667358 0x22 SLT KECCAK256 0xC2 0xB6 AND 0xC6 PUSH0 0xDF 0x4F MCOPY 0x27 0xC9 DUP11 MSTORE8 0xF 0xAB 0x2E SWAP2 DUP2 0xAD RETURN 0xDF PUSH32 0xBA913ABF5DB73B55D05364736F6C634300081A003300000000000000000000 "
		},
		"gasEstimates": {
			"creation": {
				"codeDepositCost": "80800",
				"executionCost": "127",
				"totalCost": "80927"
			},
			"external": {
				"getFunc1Data(uint256,uint256)": "infinite",
				"getFunc2Data()": "infinite",
				"getMintData()": "infinite"
			}
		},
		"methodIdentifiers": {
			"getFunc1Data(uint256,uint256)": "73fc3495",
			"getFunc2Data()": "96db41be",
			"getMintData()": "b483ebb6"
		}
	},
	"abi": [
		{
			"inputs": [
				{
					"internalType": "uint256",
					"name": "x",
					"type": "uint256"
				},
				{
					"internalType": "uint256",
					"name": "y",
					"type": "uint256"
				}
			],
			"name": "getFunc1Data",
			"outputs": [
				{
					"internalType": "bytes",
					"name": "",
					"type": "bytes"
				}
			],
			"stateMutability": "pure",
			"type": "function"
		},
		{
			"inputs": [],
			"name": "getFunc2Data",
			"outputs": [
				{
					"internalType": "bytes",
					"name": "",
					"type": "bytes"
				}
			],
			"stateMutability": "pure",
			"type": "function"
		},
		{
			"inputs": [],
			"name": "getMintData",
			"outputs": [
				{
					"internalType": "bytes",
					"name": "",
					"type": "bytes"
				}
			],
			"stateMutability": "pure",
			"type": "function"
		}
	]
}