{
	"data": {
		"bytecode": {
			"linkReferences": {},
			"object": "608060405234801561000f575f80fd5b506040516110ee3803806110ee83398101604081905261002e91610251565b5f8251116100735760405162461bcd60e51b815260206004820152600d60248201526c6f776e6572207265717569726560981b60448201526064015b60405180910390fd5b5f81118015610083575081518111155b6100cf5760405162461bcd60e51b815260206004820152601860248201527f696e76616c696564207265717569726564206e756d6265720000000000000000604482015260640161006a565b5f5b8251811015610218575f8382815181106100ed576100ed610325565b602002602001015190505f6001600160a01b0316816001600160a01b0316036101485760405162461bcd60e51b815260206004820152600d60248201526c34b73b30b634b21037bbb732b960991b604482015260640161006a565b6001600160a01b0381165f9081526001602052604090205460ff16156101b05760405162461bcd60e51b815260206004820152601360248201527f6f776e6572206973206e6f7420756e6971756500000000000000000000000000604482015260640161006a565b6001600160a01b03165f8181526001602081905260408220805460ff191682179055815480820183559180527f290decd9548b62a8d60345a988386fc84ba6bc95484008f6362f93160ef3e56390910180546001600160a01b031916909217909155016100d1565b5060025550610339565b634e487b7160e01b5f52604160045260245ffd5b80516001600160a01b038116811461024c575f80fd5b919050565b5f8060408385031215610262575f80fd5b82516001600160401b03811115610277575f80fd5b8301601f81018513610287575f80fd5b80516001600160401b038111156102a0576102a0610222565b604051600582901b90603f8201601f191681016001600160401b03811182821017156102ce576102ce610222565b6040529182526020818401810192908101888411156102eb575f80fd5b6020850194505b838510156103115761030385610236565b8152602094850194016102f2565b506020969096015195979596505050505050565b634e487b7160e01b5f52603260045260245ffd5b610da8806103465f395ff3fe608060405260043610610092575f3560e01c8063b759f95411610057578063b759f954146101c5578063ba7e7cab146101e4578063bb249d7714610218578063dc8452cd14610247578063fe0d94c11461026a575f80fd5b8063025e7c27146100d257806314de327f1461010e57806320c5429b1461012f5780632f54bf6e1461014e5780638253951a1461018c575f80fd5b366100ce5760405134815233907fe1fffcc4923d04b559f4d29a8bfc6cda04eb5b0d3c460751c2402c5c5cc9109c9060200160405180910390a2005b5f80fd5b3480156100dd575f80fd5b506100f16100ec36600461099a565b610289565b6040516001600160a01b0390911681526020015b60405180910390f35b348015610119575f80fd5b5061012d6101283660046109cc565b6102b0565b005b34801561013a575f80fd5b5061012d61014936600461099a565b6103f6565b348015610159575f80fd5b5061017c610168366004610a4f565b60016020525f908152604090205460ff1681565b6040519015158152602001610105565b348015610197575f80fd5b5061017c6101a6366004610a6f565b600460209081525f928352604080842090915290825290205460ff1681565b3480156101d0575f80fd5b5061012d6101df36600461099a565b610531565b3480156101ef575f80fd5b506102036101fe36600461099a565b610677565b60408051928352602083019190915201610105565b348015610223575f80fd5b5061023761023236600461099a565b61068e565b6040516101059493929190610a99565b348015610252575f80fd5b5061025c60025481565b604051908152602001610105565b348015610275575f80fd5b5061012d61028436600461099a565b61075c565b5f8181548110610297575f80fd5b5f918252602090912001546001600160a01b0316905081565b335f9081526001602052604090205460ff166102e75760405162461bcd60e51b81526004016102de90610aed565b60405180910390fd5b60036040518060800160405280866001600160a01b0316815260200185815260200184848080601f0160208091040260200160405190810160405280939291908181526020018383808284375f920182905250938552505050602091820181905283546001808201865594825290829020835160049092020180546001600160a01b0319166001600160a01b0390921691909117815590820151928101929092556040810151909190600282019061039f9082610ba2565b50606091909101516003918201805460ff1916911515919091179055546103c890600190610c71565b6040517f08324b3d745b914e3abd4ffbfead91e3b78391a98c173202129215ab933adfbe905f90a250505050565b335f9081526001602052604090205460ff166104245760405162461bcd60e51b81526004016102de90610aed565b600354819081106104475760405162461bcd60e51b81526004016102de90610c8a565b816003818154811061045b5761045b610cb0565b5f91825260209091206003600490920201015460ff161561048e5760405162461bcd60e51b81526004016102de90610cc4565b5f83815260046020908152604080832033845290915290205460ff166104e55760405162461bcd60e51b815260206004820152600c60248201526b1b9bdd08185c1c1c9bdd995960a21b60448201526064016102de565b5f838152600460209081526040808320338085529252808320805460ff191690555185927fec9ab91322523c899ede7830ec9bfc992b5981cdcc27b91162fb23de5791117b91a3505050565b335f9081526001602052604090205460ff1661055f5760405162461bcd60e51b81526004016102de90610aed565b600354819081106105825760405162461bcd60e51b81526004016102de90610c8a565b5f828152600460209081526040808320338452909152902054829060ff16156105e05760405162461bcd60e51b815260206004820152601060248201526f185b1c9958591e48185c1c1c9bdd995960821b60448201526064016102de565b82600381815481106105f4576105f4610cb0565b5f91825260209091206003600490920201015460ff16156106275760405162461bcd60e51b81526004016102de90610cc4565b5f848152600460209081526040808320338085529252808320805460ff191660011790555186927f90ec57f18fa7b15c6b8d5e4d1deb90796c74b2ff23d4d0cecad0cb42a96b312891a350505050565b5f8061068283610922565b60025491509150915091565b6003818154811061069d575f80fd5b5f9182526020909120600490910201805460018201546002830180546001600160a01b0390931694509092916106d290610b24565b80601f01602080910402602001604051908101604052809291908181526020018280546106fe90610b24565b80156107495780601f1061072057610100808354040283529160200191610749565b820191905f5260205f20905b81548152906001019060200180831161072c57829003601f168201915b5050506003909301549192505060ff1684565b6003548190811061077f5760405162461bcd60e51b81526004016102de90610c8a565b816003818154811061079357610793610cb0565b5f91825260209091206003600490920201015460ff16156107c65760405162461bcd60e51b81526004016102de90610cc4565b6002546107d284610922565b10156108155760405162461bcd60e51b81526020600482015260126024820152711b195cdcc81d1a185b881c995c5d5a5c995960721b60448201526064016102de565b5f6003848154811061082957610829610cb0565b5f918252602082206003600490920201908101805460ff191660019081179091558154908201546040519294506001600160a01b0390911691610870906002860190610cee565b5f6040518083038185875af1925050503d805f81146108aa576040519150601f19603f3d011682016040523d82523d5f602084013e6108af565b606091505b50509050806108f15760405162461bcd60e51b815260206004820152600e60248201526d195e1958dd5d194819985a5b195960921b60448201526064016102de565b60405185907fddb556f1d2c1ec821e910b019d3685b229db152a0ecd517ca7e24b8bd7139289905f90a25050505050565b5f805b5f548110156109945760045f8481526020019081526020015f205f80838154811061095257610952610cb0565b5f9182526020808320909101546001600160a01b0316835282019290925260400190205460ff161561098c57610989600183610d5f565b91505b600101610925565b50919050565b5f602082840312156109aa575f80fd5b5035919050565b80356001600160a01b03811681146109c7575f80fd5b919050565b5f805f80606085870312156109df575f80fd5b6109e8856109b1565b935060208501359250604085013567ffffffffffffffff811115610a0a575f80fd5b8501601f81018713610a1a575f80fd5b803567ffffffffffffffff811115610a30575f80fd5b876020828401011115610a41575f80fd5b949793965060200194505050565b5f60208284031215610a5f575f80fd5b610a68826109b1565b9392505050565b5f8060408385031215610a80575f80fd5b82359150610a90602084016109b1565b90509250929050565b60018060a01b0385168152836020820152608060408201525f8351806080840152806020860160a085015e5f60a0828501015260a0601f19601f830116840101915050821515606083015295945050505050565b6020808252600990820152683737ba1037bbb732b960b91b604082015260600190565b634e487b7160e01b5f52604160045260245ffd5b600181811c90821680610b3857607f821691505b60208210810361099457634e487b7160e01b5f52602260045260245ffd5b601f821115610b9d57805f5260205f20601f840160051c81016020851015610b7b5750805b601f840160051c820191505b81811015610b9a575f8155600101610b87565b50505b505050565b815167ffffffffffffffff811115610bbc57610bbc610b10565b610bd081610bca8454610b24565b84610b56565b6020601f821160018114610c02575f8315610beb5750848201515b5f19600385901b1c1916600184901b178455610b9a565b5f84815260208120601f198516915b82811015610c315787850151825560209485019460019092019101610c11565b5084821015610c4e57868401515f19600387901b60f8161c191681555b50505050600190811b01905550565b634e487b7160e01b5f52601160045260245ffd5b81810381811115610c8457610c84610c5d565b92915050565b6020808252600c908201526b6e6f7420747845786973747360a01b604082015260600190565b634e487b7160e01b5f52603260045260245ffd5b60208082526010908201526f185b1c9958591e48195e1958dd5d195960821b604082015260600190565b5f808354610cfb81610b24565b600182168015610d125760018114610d2757610d54565b60ff1983168652811515820286019350610d54565b865f5260205f205f5b83811015610d4c57815488820152600190910190602001610d30565b505081860193505b509195945050505050565b80820180821115610c8457610c84610c5d56fea2646970667358221220c424079a91e49f99da1fda54c14c4d169a75a07e13cefd12a7773c6e35eacea764736f6c634300081a0033",
			"opcodes": "PUSH1 0x80 PUSH1 0x40 MSTORE CALLVALUE DUP1 ISZERO PUSH2 0xF JUMPI PUSH0 DUP1 REVERT JUMPDEST POP PUSH1 0x40 MLOAD PUSH2 0x10EE CODESIZE SUB DUP1 PUSH2 0x10EE DUP4 CODECOPY DUP2 ADD PUSH1 0x40 DUP2 SWAP1 MSTORE PUSH2 0x2E SWAP2 PUSH2 0x251 JUMP JUMPDEST PUSH0 DUP3 MLOAD GT PUSH2 0x73 JUMPI PUSH1 0x40 MLOAD PUSH3 0x461BCD PUSH1 0xE5 SHL DUP2 MSTORE PUSH1 0x20 PUSH1 0x4 DUP3 ADD MSTORE PUSH1 0xD PUSH1 0x24 DUP3 ADD MSTORE PUSH13 0x6F776E65722072657175697265 PUSH1 0x98 SHL PUSH1 0x44 DUP3 ADD MSTORE PUSH1 0x64 ADD JUMPDEST PUSH1 0x40 MLOAD DUP1 SWAP2 SUB SWAP1 REVERT JUMPDEST PUSH0 DUP2 GT DUP1 ISZERO PUSH2 0x83 JUMPI POP DUP2 MLOAD DUP2 GT ISZERO JUMPDEST PUSH2 0xCF JUMPI PUSH1 0x40 MLOAD PUSH3 0x461BCD PUSH1 0xE5 SHL DUP2 MSTORE PUSH1 0x20 PUSH1 0x4 DUP3 ADD MSTORE PUSH1 0x18 PUSH1 0x24 DUP3 ADD MSTORE PUSH32 0x696E76616C696564207265717569726564206E756D6265720000000000000000 PUSH1 0x44 DUP3 ADD MSTORE PUSH1 0x64 ADD PUSH2 0x6A JUMP JUMPDEST PUSH0 JUMPDEST DUP3 MLOAD DUP2 LT ISZERO PUSH2 0x218 JUMPI PUSH0 DUP4 DUP3 DUP2 MLOAD DUP2 LT PUSH2 0xED JUMPI PUSH2 0xED PUSH2 0x325 JUMP JUMPDEST PUSH1 0x20 MUL PUSH1 0x20 ADD ADD MLOAD SWAP1 POP PUSH0 PUSH1 0x1 PUSH1 0x1 PUSH1 0xA0 SHL SUB AND DUP2 PUSH1 0x1 PUSH1 0x1 PUSH1 0xA0 SHL SUB AND SUB PUSH2 0x148 JUMPI PUSH1 0x40 MLOAD PUSH3 0x461BCD PUSH1 0xE5 SHL DUP2 MSTORE PUSH1 0x20 PUSH1 0x4 DUP3 ADD MSTORE PUSH1 0xD PUSH1 0x24 DUP3 ADD MSTORE PUSH13 0x34B73B30B634B21037BBB732B9 PUSH1 0x99 SHL PUSH1 0x44 DUP3 ADD MSTORE PUSH1 0x64 ADD PUSH2 0x6A JUMP JUMPDEST PUSH1 0x1 PUSH1 0x1 PUSH1 0xA0 SHL SUB DUP2 AND PUSH0 SWAP1 DUP2 MSTORE PUSH1 0x1 PUSH1 0x20 MSTORE PUSH1 0x40 SWAP1 KECCAK256 SLOAD PUSH1 0xFF AND ISZERO PUSH2 0x1B0 JUMPI PUSH1 0x40 MLOAD PUSH3 0x461BCD PUSH1 0xE5 SHL DUP2 MSTORE PUSH1 0x20 PUSH1 0x4 DUP3 ADD MSTORE PUSH1 0x13 PUSH1 0x24 DUP3 ADD MSTORE PUSH32 0x6F776E6572206973206E6F7420756E6971756500000000000000000000000000 PUSH1 0x44 DUP3 ADD MSTORE PUSH1 0x64 ADD PUSH2 0x6A JUMP JUMPDEST PUSH1 0x1 PUSH1 0x1 PUSH1 0xA0 SHL SUB AND PUSH0 DUP2 DUP2 MSTORE PUSH1 0x1 PUSH1 0x20 DUP2 SWAP1 MSTORE PUSH1 0x40 DUP3 KECCAK256 DUP1 SLOAD PUSH1 0xFF NOT AND DUP3 OR SWAP1 SSTORE DUP2 SLOAD DUP1 DUP3 ADD DUP4 SSTORE SWAP2 DUP1 MSTORE PUSH32 0x290DECD9548B62A8D60345A988386FC84BA6BC95484008F6362F93160EF3E563 SWAP1 SWAP2 ADD DUP1 SLOAD PUSH1 0x1 PUSH1 0x1 PUSH1 0xA0 SHL SUB NOT AND SWAP1 SWAP3 OR SWAP1 SWAP2 SSTORE ADD PUSH2 0xD1 JUMP JUMPDEST POP PUSH1 0x2 SSTORE POP PUSH2 0x339 JUMP JUMPDEST PUSH4 0x4E487B71 PUSH1 0xE0 SHL PUSH0 MSTORE PUSH1 0x41 PUSH1 0x4 MSTORE PUSH1 0x24 PUSH0 REVERT JUMPDEST DUP1 MLOAD PUSH1 0x1 PUSH1 0x1 PUSH1 0xA0 SHL SUB DUP2 AND DUP2 EQ PUSH2 0x24C JUMPI PUSH0 DUP1 REVERT JUMPDEST SWAP2 SWAP1 POP JUMP JUMPDEST PUSH0 DUP1 PUSH1 0x40 DUP4 DUP6 SUB SLT ISZERO PUSH2 0x262 JUMPI PUSH0 DUP1 REVERT JUMPDEST DUP3 MLOAD PUSH1 0x1 PUSH1 0x1 PUSH1 0x40 SHL SUB DUP2 GT ISZERO PUSH2 0x277 JUMPI PUSH0 DUP1 REVERT JUMPDEST DUP4 ADD PUSH1 0x1F DUP2 ADD DUP6 SGT PUSH2 0x287 JUMPI PUSH0 DUP1 REVERT JUMPDEST DUP1 MLOAD PUSH1 0x1 PUSH1 0x1 PUSH1 0x40 SHL SUB DUP2 GT ISZERO PUSH2 0x2A0 JUMPI PUSH2 0x2A0 PUSH2 0x222 JUMP JUMPDEST PUSH1 0x40 MLOAD PUSH1 0x5 DUP3 SWAP1 SHL SWAP1 PUSH1 0x3F DUP3 ADD PUSH1 0x1F NOT AND DUP2 ADD PUSH1 0x1 PUSH1 0x1 PUSH1 0x40 SHL SUB DUP2 GT DUP3 DUP3 LT OR ISZERO PUSH2 0x2CE JUMPI PUSH2 0x2CE PUSH2 0x222 JUMP JUMPDEST PUSH1 0x40 MSTORE SWAP2 DUP3 MSTORE PUSH1 0x20 DUP2 DUP5 ADD DUP2 ADD SWAP3 SWAP1 DUP2 ADD DUP9 DUP5 GT ISZERO PUSH2 0x2EB JUMPI PUSH0 DUP1 REVERT JUMPDEST PUSH1 0x20 DUP6 ADD SWAP5 POP JUMPDEST DUP4 DUP6 LT ISZERO PUSH2 0x311 JUMPI PUSH2 0x303 DUP6 PUSH2 0x236 JUMP JUMPDEST DUP2 MSTORE PUSH1 0x20 SWAP5 DUP6 ADD SWAP5 ADD PUSH2 0x2F2 JUMP JUMPDEST POP PUSH1 0x20 SWAP7 SWAP1 SWAP7 ADD MLOAD SWAP6 SWAP8 SWAP6 SWAP7 POP POP POP POP POP POP JUMP JUMPDEST PUSH4 0x4E487B71 PUSH1 0xE0 SHL PUSH0 MSTORE PUSH1 0x32 PUSH1 0x4 MSTORE PUSH1 0x24 PUSH0 REVERT JUMPDEST PUSH2 0xDA8 DUP1 PUSH2 0x346 PUSH0 CODECOPY PUSH0 RETURN INVALID PUSH1 0x80 PUSH1 0x40 MSTORE PUSH1 0x4 CALLDATASIZE LT PUSH2 0x92 JUMPI PUSH0 CALLDATALOAD PUSH1 0xE0 SHR DUP1 PUSH4 0xB759F954 GT PUSH2 0x57 JUMPI DUP1 PUSH4 0xB759F954 EQ PUSH2 0x1C5 JUMPI DUP1 PUSH4 0xBA7E7CAB EQ PUSH2 0x1E4 JUMPI DUP1 PUSH4 0xBB249D77 EQ PUSH2 0x218 JUMPI DUP1 PUSH4 0xDC8452CD EQ PUSH2 0x247 JUMPI DUP1 PUSH4 0xFE0D94C1 EQ PUSH2 0x26A JUMPI PUSH0 DUP1 REVERT JUMPDEST DUP1 PUSH4 0x25E7C27 EQ PUSH2 0xD2 JUMPI DUP1 PUSH4 0x14DE327F EQ PUSH2 0x10E JUMPI DUP1 PUSH4 0x20C5429B EQ PUSH2 0x12F JUMPI DUP1 PUSH4 0x2F54BF6E EQ PUSH2 0x14E JUMPI DUP1 PUSH4 0x8253951A EQ PUSH2 0x18C JUMPI PUSH0 DUP1 REVERT JUMPDEST CALLDATASIZE PUSH2 0xCE JUMPI PUSH1 0x40 MLOAD CALLVALUE DUP2 MSTORE CALLER SWAP1 PUSH32 0xE1FFFCC4923D04B559F4D29A8BFC6CDA04EB5B0D3C460751C2402C5C5CC9109C SWAP1 PUSH1 0x20 ADD PUSH1 0x40 MLOAD DUP1 SWAP2 SUB SWAP1 LOG2 STOP JUMPDEST PUSH0 DUP1 REVERT JUMPDEST CALLVALUE DUP1 ISZERO PUSH2 0xDD JUMPI PUSH0 DUP1 REVERT JUMPDEST POP PUSH2 0xF1 PUSH2 0xEC CALLDATASIZE PUSH1 0x4 PUSH2 0x99A JUMP JUMPDEST PUSH2 0x289 JUMP JUMPDEST PUSH1 0x40 MLOAD PUSH1 0x1 PUSH1 0x1 PUSH1 0xA0 SHL SUB SWAP1 SWAP2 AND DUP2 MSTORE PUSH1 0x20 ADD JUMPDEST PUSH1 0x40 MLOAD DUP1 SWAP2 SUB SWAP1 RETURN JUMPDEST CALLVALUE DUP1 ISZERO PUSH2 0x119 JUMPI PUSH0 DUP1 REVERT JUMPDEST POP PUSH2 0x12D PUSH2 0x128 CALLDATASIZE PUSH1 0x4 PUSH2 0x9CC JUMP JUMPDEST PUSH2 0x2B0 JUMP JUMPDEST STOP JUMPDEST CALLVALUE DUP1 ISZERO PUSH2 0x13A JUMPI PUSH0 DUP1 REVERT JUMPDEST POP PUSH2 0x12D PUSH2 0x149 CALLDATASIZE PUSH1 0x4 PUSH2 0x99A JUMP JUMPDEST PUSH2 0x3F6 JUMP JUMPDEST CALLVALUE DUP1 ISZERO PUSH2 0x159 JUMPI PUSH0 DUP1 REVERT JUMPDEST POP PUSH2 0x17C PUSH2 0x168 CALLDATASIZE PUSH1 0x4 PUSH2 0xA4F JUMP JUMPDEST PUSH1 0x1 PUSH1 0x20 MSTORE PUSH0 SWAP1 DUP2 MSTORE PUSH1 0x40 SWAP1 KECCAK256 SLOAD PUSH1 0xFF AND DUP2 JUMP JUMPDEST PUSH1 0x40 MLOAD SWAP1 ISZERO ISZERO DUP2 MSTORE PUSH1 0x20 ADD PUSH2 0x105 JUMP JUMPDEST CALLVALUE DUP1 ISZERO PUSH2 0x197 JUMPI PUSH0 DUP1 REVERT JUMPDEST POP PUSH2 0x17C PUSH2 0x1A6 CALLDATASIZE PUSH1 0x4 PUSH2 0xA6F JUMP JUMPDEST PUSH1 0x4 PUSH1 0x20 SWAP1 DUP2 MSTORE PUSH0 SWAP3 DUP4 MSTORE PUSH1 0x40 DUP1 DUP5 KECCAK256 SWAP1 SWAP2 MSTORE SWAP1 DUP3 MSTORE SWAP1 KECCAK256 SLOAD PUSH1 0xFF AND DUP2 JUMP JUMPDEST CALLVALUE DUP1 ISZERO PUSH2 0x1D0 JUMPI PUSH0 DUP1 REVERT JUMPDEST POP PUSH2 0x12D PUSH2 0x1DF CALLDATASIZE PUSH1 0x4 PUSH2 0x99A JUMP JUMPDEST PUSH2 0x531 JUMP JUMPDEST CALLVALUE DUP1 ISZERO PUSH2 0x1EF JUMPI PUSH0 DUP1 REVERT JUMPDEST POP PUSH2 0x203 PUSH2 0x1FE CALLDATASIZE PUSH1 0x4 PUSH2 0x99A JUMP JUMPDEST PUSH2 0x677 JUMP JUMPDEST PUSH1 0x40 DUP1 MLOAD SWAP3 DUP4 MSTORE PUSH1 0x20 DUP4 ADD SWAP2 SWAP1 SWAP2 MSTORE ADD PUSH2 0x105 JUMP JUMPDEST CALLVALUE DUP1 ISZERO PUSH2 0x223 JUMPI PUSH0 DUP1 REVERT JUMPDEST POP PUSH2 0x237 PUSH2 0x232 CALLDATASIZE PUSH1 0x4 PUSH2 0x99A JUMP JUMPDEST PUSH2 0x68E JUMP JUMPDEST PUSH1 0x40 MLOAD PUSH2 0x105 SWAP5 SWAP4 SWAP3 SWAP2 SWAP1 PUSH2 0xA99 JUMP JUMPDEST CALLVALUE DUP1 ISZERO PUSH2 0x252 JUMPI PUSH0 DUP1 REVERT JUMPDEST POP PUSH2 0x25C PUSH1 0x2 SLOAD DUP2 JUMP JUMPDEST PUSH1 0x40 MLOAD SWAP1 DUP2 MSTORE PUSH1 0x20 ADD PUSH2 0x105 JUMP JUMPDEST CALLVALUE DUP1 ISZERO PUSH2 0x275 JUMPI PUSH0 DUP1 REVERT JUMPDEST POP PUSH2 0x12D PUSH2 0x284 CALLDATASIZE PUSH1 0x4 PUSH2 0x99A JUMP JUMPDEST PUSH2 0x75C JUMP JUMPDEST PUSH0 DUP2 DUP2 SLOAD DUP2 LT PUSH2 0x297 JUMPI PUSH0 DUP1 REVERT JUMPDEST PUSH0 SWAP2 DUP3 MSTORE PUSH1 0x20 SWAP1 SWAP2 KECCAK256 ADD SLOAD PUSH1 0x1 PUSH1 0x1 PUSH1 0xA0 SHL SUB AND SWAP1 POP DUP2 JUMP JUMPDEST CALLER PUSH0 SWAP1 DUP2 MSTORE PUSH1 0x1 PUSH1 0x20 MSTORE PUSH1 0x40 SWAP1 KECCAK256 SLOAD PUSH1 0xFF AND PUSH2 0x2E7 JUMPI PUSH1 0x40 MLOAD PUSH3 0x461BCD PUSH1 0xE5 SHL DUP2 MSTORE PUSH1 0x4 ADD PUSH2 0x2DE SWAP1 PUSH2 0xAED JUMP JUMPDEST PUSH1 0x40 MLOAD DUP1 SWAP2 SUB SWAP1 REVERT JUMPDEST PUSH1 0x3 PUSH1 0x40 MLOAD DUP1 PUSH1 0x80 ADD PUSH1 0x40 MSTORE DUP1 DUP7 PUSH1 0x1 PUSH1 0x1 PUSH1 0xA0 SHL SUB AND DUP2 MSTORE PUSH1 0x20 ADD DUP6 DUP2 MSTORE PUSH1 0x20 ADD DUP5 DUP5 DUP1 DUP1 PUSH1 0x1F ADD PUSH1 0x20 DUP1 SWAP2 DIV MUL PUSH1 0x20 ADD PUSH1 0x40 MLOAD SWAP1 DUP2 ADD PUSH1 0x40 MSTORE DUP1 SWAP4 SWAP3 SWAP2 SWAP1 DUP2 DUP2 MSTORE PUSH1 0x20 ADD DUP4 DUP4 DUP1 DUP3 DUP5 CALLDATACOPY PUSH0 SWAP3 ADD DUP3 SWAP1 MSTORE POP SWAP4 DUP6 MSTORE POP POP POP PUSH1 0x20 SWAP2 DUP3 ADD DUP2 SWAP1 MSTORE DUP4 SLOAD PUSH1 0x1 DUP1 DUP3 ADD DUP7 SSTORE SWAP5 DUP3 MSTORE SWAP1 DUP3 SWAP1 KECCAK256 DUP4 MLOAD PUSH1 0x4 SWAP1 SWAP3 MUL ADD DUP1 SLOAD PUSH1 0x1 PUSH1 0x1 PUSH1 0xA0 SHL SUB NOT AND PUSH1 0x1 PUSH1 0x1 PUSH1 0xA0 SHL SUB SWAP1 SWAP3 AND SWAP2 SWAP1 SWAP2 OR DUP2 SSTORE SWAP1 DUP3 ADD MLOAD SWAP3 DUP2 ADD SWAP3 SWAP1 SWAP3 SSTORE PUSH1 0x40 DUP2 ADD MLOAD SWAP1 SWAP2 SWAP1 PUSH1 0x2 DUP3 ADD SWAP1 PUSH2 0x39F SWAP1 DUP3 PUSH2 0xBA2 JUMP JUMPDEST POP PUSH1 0x60 SWAP2 SWAP1 SWAP2 ADD MLOAD PUSH1 0x3 SWAP2 DUP3 ADD DUP1 SLOAD PUSH1 0xFF NOT AND SWAP2 ISZERO ISZERO SWAP2 SWAP1 SWAP2 OR SWAP1 SSTORE SLOAD PUSH2 0x3C8 SWAP1 PUSH1 0x1 SWAP1 PUSH2 0xC71 JUMP JUMPDEST PUSH1 0x40 MLOAD PUSH32 0x8324B3D745B914E3ABD4FFBFEAD91E3B78391A98C173202129215AB933ADFBE SWAP1 PUSH0 SWAP1 LOG2 POP POP POP POP JUMP JUMPDEST CALLER PUSH0 SWAP1 DUP2 MSTORE PUSH1 0x1 PUSH1 0x20 MSTORE PUSH1 0x40 SWAP1 KECCAK256 SLOAD PUSH1 0xFF AND PUSH2 0x424 JUMPI PUSH1 0x40 MLOAD PUSH3 0x461BCD PUSH1 0xE5 SHL DUP2 MSTORE PUSH1 0x4 ADD PUSH2 0x2DE SWAP1 PUSH2 0xAED JUMP JUMPDEST PUSH1 0x3 SLOAD DUP2 SWAP1 DUP2 LT PUSH2 0x447 JUMPI PUSH1 0x40 MLOAD PUSH3 0x461BCD PUSH1 0xE5 SHL DUP2 MSTORE PUSH1 0x4 ADD PUSH2 0x2DE SWAP1 PUSH2 0xC8A JUMP JUMPDEST DUP2 PUSH1 0x3 DUP2 DUP2 SLOAD DUP2 LT PUSH2 0x45B JUMPI PUSH2 0x45B PUSH2 0xCB0 JUMP JUMPDEST PUSH0 SWAP2 DUP3 MSTORE PUSH1 0x20 SWAP1 SWAP2 KECCAK256 PUSH1 0x3 PUSH1 0x4 SWAP1 SWAP3 MUL ADD ADD SLOAD PUSH1 0xFF AND ISZERO PUSH2 0x48E JUMPI PUSH1 0x40 MLOAD PUSH3 0x461BCD PUSH1 0xE5 SHL DUP2 MSTORE PUSH1 0x4 ADD PUSH2 0x2DE SWAP1 PUSH2 0xCC4 JUMP JUMPDEST PUSH0 DUP4 DUP2 MSTORE PUSH1 0x4 PUSH1 0x20 SWAP1 DUP2 MSTORE PUSH1 0x40 DUP1 DUP4 KECCAK256 CALLER DUP5 MSTORE SWAP1 SWAP2 MSTORE SWAP1 KECCAK256 SLOAD PUSH1 0xFF AND PUSH2 0x4E5 JUMPI PUSH1 0x40 MLOAD PUSH3 0x461BCD PUSH1 0xE5 SHL DUP2 MSTORE PUSH1 0x20 PUSH1 0x4 DUP3 ADD MSTORE PUSH1 0xC PUSH1 0x24 DUP3 ADD MSTORE PUSH12 0x1B9BDD08185C1C1C9BDD9959 PUSH1 0xA2 SHL PUSH1 0x44 DUP3 ADD MSTORE PUSH1 0x64 ADD PUSH2 0x2DE JUMP JUMPDEST PUSH0 DUP4 DUP2 MSTORE PUSH1 0x4 PUSH1 0x20 SWAP1 DUP2 MSTORE PUSH1 0x40 DUP1 DUP4 KECCAK256 CALLER DUP1 DUP6 MSTORE SWAP3 MSTORE DUP1 DUP4 KECCAK256 DUP1 SLOAD PUSH1 0xFF NOT AND SWAP1 SSTORE MLOAD DUP6 SWAP3 PUSH32 0xEC9AB91322523C899EDE7830EC9BFC992B5981CDCC27B91162FB23DE5791117B SWAP2 LOG3 POP POP POP JUMP JUMPDEST CALLER PUSH0 SWAP1 DUP2 MSTORE PUSH1 0x1 PUSH1 0x20 MSTORE PUSH1 0x40 SWAP1 KECCAK256 SLOAD PUSH1 0xFF AND PUSH2 0x55F JUMPI PUSH1 0x40 MLOAD PUSH3 0x461BCD PUSH1 0xE5 SHL DUP2 MSTORE PUSH1 0x4 ADD PUSH2 0x2DE SWAP1 PUSH2 0xAED JUMP JUMPDEST PUSH1 0x3 SLOAD DUP2 SWAP1 DUP2 LT PUSH2 0x582 JUMPI PUSH1 0x40 MLOAD PUSH3 0x461BCD PUSH1 0xE5 SHL DUP2 MSTORE PUSH1 0x4 ADD PUSH2 0x2DE SWAP1 PUSH2 0xC8A JUMP JUMPDEST PUSH0 DUP3 DUP2 MSTORE PUSH1 0x4 PUSH1 0x20 SWAP1 DUP2 MSTORE PUSH1 0x40 DUP1 DUP4 KECCAK256 CALLER DUP5 MSTORE SWAP1 SWAP2 MSTORE SWAP1 KECCAK256 SLOAD DUP3 SWAP1 PUSH1 0xFF AND ISZERO PUSH2 0x5E0 JUMPI PUSH1 0x40 MLOAD PUSH3 0x461BCD PUSH1 0xE5 SHL DUP2 MSTORE PUSH1 0x20 PUSH1 0x4 DUP3 ADD MSTORE PUSH1 0x10 PUSH1 0x24 DUP3 ADD MSTORE PUSH16 0x185B1C9958591E48185C1C1C9BDD9959 PUSH1 0x82 SHL PUSH1 0x44 DUP3 ADD MSTORE PUSH1 0x64 ADD PUSH2 0x2DE JUMP JUMPDEST DUP3 PUSH1 0x3 DUP2 DUP2 SLOAD DUP2 LT PUSH2 0x5F4 JUMPI PUSH2 0x5F4 PUSH2 0xCB0 JUMP JUMPDEST PUSH0 SWAP2 DUP3 MSTORE PUSH1 0x20 SWAP1 SWAP2 KECCAK256 PUSH1 0x3 PUSH1 0x4 SWAP1 SWAP3 MUL ADD ADD SLOAD PUSH1 0xFF AND ISZERO PUSH2 0x627 JUMPI PUSH1 0x40 MLOAD PUSH3 0x461BCD PUSH1 0xE5 SHL DUP2 MSTORE PUSH1 0x4 ADD PUSH2 0x2DE SWAP1 PUSH2 0xCC4 JUMP JUMPDEST PUSH0 DUP5 DUP2 MSTORE PUSH1 0x4 PUSH1 0x20 SWAP1 DUP2 MSTORE PUSH1 0x40 DUP1 DUP4 KECCAK256 CALLER DUP1 DUP6 MSTORE SWAP3 MSTORE DUP1 DUP4 KECCAK256 DUP1 SLOAD PUSH1 0xFF NOT AND PUSH1 0x1 OR SWAP1 SSTORE MLOAD DUP7 SWAP3 PUSH32 0x90EC57F18FA7B15C6B8D5E4D1DEB90796C74B2FF23D4D0CECAD0CB42A96B3128 SWAP2 LOG3 POP POP POP POP JUMP JUMPDEST PUSH0 DUP1 PUSH2 0x682 DUP4 PUSH2 0x922 JUMP JUMPDEST PUSH1 0x2 SLOAD SWAP2 POP SWAP2 POP SWAP2 POP SWAP2 JUMP JUMPDEST PUSH1 0x3 DUP2 DUP2 SLOAD DUP2 LT PUSH2 0x69D JUMPI PUSH0 DUP1 REVERT JUMPDEST PUSH0 SWAP2 DUP3 MSTORE PUSH1 0x20 SWAP1 SWAP2 KECCAK256 PUSH1 0x4 SWAP1 SWAP2 MUL ADD DUP1 SLOAD PUSH1 0x1 DUP3 ADD SLOAD PUSH1 0x2 DUP4 ADD DUP1 SLOAD PUSH1 0x1 PUSH1 0x1 PUSH1 0xA0 SHL SUB SWAP1 SWAP4 AND SWAP5 POP SWAP1 SWAP3 SWAP2 PUSH2 0x6D2 SWAP1 PUSH2 0xB24 JUMP JUMPDEST DUP1 PUSH1 0x1F ADD PUSH1 0x20 DUP1 SWAP2 DIV MUL PUSH1 0x20 ADD PUSH1 0x40 MLOAD SWAP1 DUP2 ADD PUSH1 0x40 MSTORE DUP1 SWAP3 SWAP2 SWAP1 DUP2 DUP2 MSTORE PUSH1 0x20 ADD DUP3 DUP1 SLOAD PUSH2 0x6FE SWAP1 PUSH2 0xB24 JUMP JUMPDEST DUP1 ISZERO PUSH2 0x749 JUMPI DUP1 PUSH1 0x1F LT PUSH2 0x720 JUMPI PUSH2 0x100 DUP1 DUP4 SLOAD DIV MUL DUP4 MSTORE SWAP2 PUSH1 0x20 ADD SWAP2 PUSH2 0x749 JUMP JUMPDEST DUP3 ADD SWAP2 SWAP1 PUSH0 MSTORE PUSH1 0x20 PUSH0 KECCAK256 SWAP1 JUMPDEST DUP2 SLOAD DUP2 MSTORE SWAP1 PUSH1 0x1 ADD SWAP1 PUSH1 0x20 ADD DUP1 DUP4 GT PUSH2 0x72C JUMPI DUP3 SWAP1 SUB PUSH1 0x1F AND DUP3 ADD SWAP2 JUMPDEST POP POP POP PUSH1 0x3 SWAP1 SWAP4 ADD SLOAD SWAP2 SWAP3 POP POP PUSH1 0xFF AND DUP5 JUMP JUMPDEST PUSH1 0x3 SLOAD DUP2 SWAP1 DUP2 LT PUSH2 0x77F JUMPI PUSH1 0x40 MLOAD PUSH3 0x461BCD PUSH1 0xE5 SHL DUP2 MSTORE PUSH1 0x4 ADD PUSH2 0x2DE SWAP1 PUSH2 0xC8A JUMP JUMPDEST DUP2 PUSH1 0x3 DUP2 DUP2 SLOAD DUP2 LT PUSH2 0x793 JUMPI PUSH2 0x793 PUSH2 0xCB0 JUMP JUMPDEST PUSH0 SWAP2 DUP3 MSTORE PUSH1 0x20 SWAP1 SWAP2 KECCAK256 PUSH1 0x3 PUSH1 0x4 SWAP1 SWAP3 MUL ADD ADD SLOAD PUSH1 0xFF AND ISZERO PUSH2 0x7C6 JUMPI PUSH1 0x40 MLOAD PUSH3 0x461BCD PUSH1 0xE5 SHL DUP2 MSTORE PUSH1 0x4 ADD PUSH2 0x2DE SWAP1 PUSH2 0xCC4 JUMP JUMPDEST PUSH1 0x2 SLOAD PUSH2 0x7D2 DUP5 PUSH2 0x922 JUMP JUMPDEST LT ISZERO PUSH2 0x815 JUMPI PUSH1 0x40 MLOAD PUSH3 0x461BCD PUSH1 0xE5 SHL DUP2 MSTORE PUSH1 0x20 PUSH1 0x4 DUP3 ADD MSTORE PUSH1 0x12 PUSH1 0x24 DUP3 ADD MSTORE PUSH18 0x1B195CDCC81D1A185B881C995C5D5A5C9959 PUSH1 0x72 SHL PUSH1 0x44 DUP3 ADD MSTORE PUSH1 0x64 ADD PUSH2 0x2DE JUMP JUMPDEST PUSH0 PUSH1 0x3 DUP5 DUP2 SLOAD DUP2 LT PUSH2 0x829 JUMPI PUSH2 0x829 PUSH2 0xCB0 JUMP JUMPDEST PUSH0 SWAP2 DUP3 MSTORE PUSH1 0x20 DUP3 KECCAK256 PUSH1 0x3 PUSH1 0x4 SWAP1 SWAP3 MUL ADD SWAP1 DUP2 ADD DUP1 SLOAD PUSH1 0xFF NOT AND PUSH1 0x1 SWAP1 DUP2 OR SWAP1 SWAP2 SSTORE DUP2 SLOAD SWAP1 DUP3 ADD SLOAD PUSH1 0x40 MLOAD SWAP3 SWAP5 POP PUSH1 0x1 PUSH1 0x1 PUSH1 0xA0 SHL SUB SWAP1 SWAP2 AND SWAP2 PUSH2 0x870 SWAP1 PUSH1 0x2 DUP7 ADD SWAP1 PUSH2 0xCEE JUMP JUMPDEST PUSH0 PUSH1 0x40 MLOAD DUP1 DUP4 SUB DUP2 DUP6 DUP8 GAS CALL SWAP3 POP POP POP RETURNDATASIZE DUP1 PUSH0 DUP2 EQ PUSH2 0x8AA JUMPI PUSH1 0x40 MLOAD SWAP2 POP PUSH1 0x1F NOT PUSH1 0x3F RETURNDATASIZE ADD AND DUP3 ADD PUSH1 0x40 MSTORE RETURNDATASIZE DUP3 MSTORE RETURNDATASIZE PUSH0 PUSH1 0x20 DUP5 ADD RETURNDATACOPY PUSH2 0x8AF JUMP JUMPDEST PUSH1 0x60 SWAP2 POP JUMPDEST POP POP SWAP1 POP DUP1 PUSH2 0x8F1 JUMPI PUSH1 0x40 MLOAD PUSH3 0x461BCD PUSH1 0xE5 SHL DUP2 MSTORE PUSH1 0x20 PUSH1 0x4 DUP3 ADD MSTORE PUSH1 0xE PUSH1 0x24 DUP3 ADD MSTORE PUSH14 0x195E1958DD5D194819985A5B1959 PUSH1 0x92 SHL PUSH1 0x44 DUP3 ADD MSTORE PUSH1 0x64 ADD PUSH2 0x2DE JUMP JUMPDEST PUSH1 0x40 MLOAD DUP6 SWAP1 PUSH32 0xDDB556F1D2C1EC821E910B019D3685B229DB152A0ECD517CA7E24B8BD7139289 SWAP1 PUSH0 SWAP1 LOG2 POP POP POP POP POP JUMP JUMPDEST PUSH0 DUP1 JUMPDEST PUSH0 SLOAD DUP2 LT ISZERO PUSH2 0x994 JUMPI PUSH1 0x4 PUSH0 DUP5 DUP2 MSTORE PUSH1 0x20 ADD SWAP1 DUP2 MSTORE PUSH1 0x20 ADD PUSH0 KECCAK256 PUSH0 DUP1 DUP4 DUP2 SLOAD DUP2 LT PUSH2 0x952 JUMPI PUSH2 0x952 PUSH2 0xCB0 JUMP JUMPDEST PUSH0 SWAP2 DUP3 MSTORE PUSH1 0x20 DUP1 DUP4 KECCAK256 SWAP1 SWAP2 ADD SLOAD PUSH1 0x1 PUSH1 0x1 PUSH1 0xA0 SHL SUB AND DUP4 MSTORE DUP3 ADD SWAP3 SWAP1 SWAP3 MSTORE PUSH1 0x40 ADD SWAP1 KECCAK256 SLOAD PUSH1 0xFF AND ISZERO PUSH2 0x98C JUMPI PUSH2 0x989 PUSH1 0x1 DUP4 PUSH2 0xD5F JUMP JUMPDEST SWAP2 POP JUMPDEST PUSH1 0x1 ADD PUSH2 0x925 JUMP JUMPDEST POP SWAP2 SWAP1 POP JUMP JUMPDEST PUSH0 PUSH1 0x20 DUP3 DUP5 SUB SLT ISZERO PUSH2 0x9AA JUMPI PUSH0 DUP1 REVERT JUMPDEST POP CALLDATALOAD SWAP2 SWAP1 POP JUMP JUMPDEST DUP1 CALLDATALOAD PUSH1 0x1 PUSH1 0x1 PUSH1 0xA0 SHL SUB DUP2 AND DUP2 EQ PUSH2 0x9C7 JUMPI PUSH0 DUP1 REVERT JUMPDEST SWAP2 SWAP1 POP JUMP JUMPDEST PUSH0 DUP1 PUSH0 DUP1 PUSH1 0x60 DUP6 DUP8 SUB SLT ISZERO PUSH2 0x9DF JUMPI PUSH0 DUP1 REVERT JUMPDEST PUSH2 0x9E8 DUP6 PUSH2 0x9B1 JUMP JUMPDEST SWAP4 POP PUSH1 0x20 DUP6 ADD CALLDATALOAD SWAP3 POP PUSH1 0x40 DUP6 ADD CALLDATALOAD PUSH8 0xFFFFFFFFFFFFFFFF DUP2 GT ISZERO PUSH2 0xA0A JUMPI PUSH0 DUP1 REVERT JUMPDEST DUP6 ADD PUSH1 0x1F DUP2 ADD DUP8 SGT PUSH2 0xA1A JUMPI PUSH0 DUP1 REVERT JUMPDEST DUP1 CALLDATALOAD PUSH8 0xFFFFFFFFFFFFFFFF DUP2 GT ISZERO PUSH2 0xA30 JUMPI PUSH0 DUP1 REVERT JUMPDEST DUP8 PUSH1 0x20 DUP3 DUP5 ADD ADD GT ISZERO PUSH2 0xA41 JUMPI PUSH0 DUP1 REVERT JUMPDEST SWAP5 SWAP8 SWAP4 SWAP7 POP PUSH1 0x20 ADD SWAP5 POP POP POP JUMP JUMPDEST PUSH0 PUSH1 0x20 DUP3 DUP5 SUB SLT ISZERO PUSH2 0xA5F JUMPI PUSH0 DUP1 REVERT JUMPDEST PUSH2 0xA68 DUP3 PUSH2 0x9B1 JUMP JUMPDEST SWAP4 SWAP3 POP POP POP JUMP JUMPDEST PUSH0 DUP1 PUSH1 0x40 DUP4 DUP6 SUB SLT ISZERO PUSH2 0xA80 JUMPI PUSH0 DUP1 REVERT JUMPDEST DUP3 CALLDATALOAD SWAP2 POP PUSH2 0xA90 PUSH1 0x20 DUP5 ADD PUSH2 0x9B1 JUMP JUMPDEST SWAP1 POP SWAP3 POP SWAP3 SWAP1 POP JUMP JUMPDEST PUSH1 0x1 DUP1 PUSH1 0xA0 SHL SUB DUP6 AND DUP2 MSTORE DUP4 PUSH1 0x20 DUP3 ADD MSTORE PUSH1 0x80 PUSH1 0x40 DUP3 ADD MSTORE PUSH0 DUP4 MLOAD DUP1 PUSH1 0x80 DUP5 ADD MSTORE DUP1 PUSH1 0x20 DUP7 ADD PUSH1 0xA0 DUP6 ADD MCOPY PUSH0 PUSH1 0xA0 DUP3 DUP6 ADD ADD MSTORE PUSH1 0xA0 PUSH1 0x1F NOT PUSH1 0x1F DUP4 ADD AND DUP5 ADD ADD SWAP2 POP POP DUP3 ISZERO ISZERO PUSH1 0x60 DUP4 ADD MSTORE SWAP6 SWAP5 POP POP POP POP POP JUMP JUMPDEST PUSH1 0x20 DUP1 DUP3 MSTORE PUSH1 0x9 SWAP1 DUP3 ADD MSTORE PUSH9 0x3737BA1037BBB732B9 PUSH1 0xB9 SHL PUSH1 0x40 DUP3 ADD MSTORE PUSH1 0x60 ADD SWAP1 JUMP JUMPDEST PUSH4 0x4E487B71 PUSH1 0xE0 SHL PUSH0 MSTORE PUSH1 0x41 PUSH1 0x4 MSTORE PUSH1 0x24 PUSH0 REVERT JUMPDEST PUSH1 0x1 DUP2 DUP2 SHR SWAP1 DUP3 AND DUP1 PUSH2 0xB38 JUMPI PUSH1 0x7F DUP3 AND SWAP2 POP JUMPDEST PUSH1 0x20 DUP3 LT DUP2 SUB PUSH2 0x994 JUMPI PUSH4 0x4E487B71 PUSH1 0xE0 SHL PUSH0 MSTORE PUSH1 0x22 PUSH1 0x4 MSTORE PUSH1 0x24 PUSH0 REVERT JUMPDEST PUSH1 0x1F DUP3 GT ISZERO PUSH2 0xB9D JUMPI DUP1 PUSH0 MSTORE PUSH1 0x20 PUSH0 KECCAK256 PUSH1 0x1F DUP5 ADD PUSH1 0x5 SHR DUP2 ADD PUSH1 0x20 DUP6 LT ISZERO PUSH2 0xB7B JUMPI POP DUP1 JUMPDEST PUSH1 0x1F DUP5 ADD PUSH1 0x5 SHR DUP3 ADD SWAP2 POP JUMPDEST DUP2 DUP2 LT ISZERO PUSH2 0xB9A JUMPI PUSH0 DUP2 SSTORE PUSH1 0x1 ADD PUSH2 0xB87 JUMP JUMPDEST POP POP JUMPDEST POP POP POP JUMP JUMPDEST DUP2 MLOAD PUSH8 0xFFFFFFFFFFFFFFFF DUP2 GT ISZERO PUSH2 0xBBC JUMPI PUSH2 0xBBC PUSH2 0xB10 JUMP JUMPDEST PUSH2 0xBD0 DUP2 PUSH2 0xBCA DUP5 SLOAD PUSH2 0xB24 JUMP JUMPDEST DUP5 PUSH2 0xB56 JUMP JUMPDEST PUSH1 0x20 PUSH1 0x1F DUP3 GT PUSH1 0x1 DUP2 EQ PUSH2 0xC02 JUMPI PUSH0 DUP4 ISZERO PUSH2 0xBEB JUMPI POP DUP5 DUP3 ADD MLOAD JUMPDEST PUSH0 NOT PUSH1 0x3 DUP6 SWAP1 SHL SHR NOT AND PUSH1 0x1 DUP5 SWAP1 SHL OR DUP5 SSTORE PUSH2 0xB9A JUMP JUMPDEST PUSH0 DUP5 DUP2 MSTORE PUSH1 0x20 DUP2 KECCAK256 PUSH1 0x1F NOT DUP6 AND SWAP2 JUMPDEST DUP3 DUP2 LT ISZERO PUSH2 0xC31 JUMPI DUP8 DUP6 ADD MLOAD DUP3 SSTORE PUSH1 0x20 SWAP5 DUP6 ADD SWAP5 PUSH1 0x1 SWAP1 SWAP3 ADD SWAP2 ADD PUSH2 0xC11 JUMP JUMPDEST POP DUP5 DUP3 LT ISZERO PUSH2 0xC4E JUMPI DUP7 DUP5 ADD MLOAD PUSH0 NOT PUSH1 0x3 DUP8 SWAP1 SHL PUSH1 0xF8 AND SHR NOT AND DUP2 SSTORE JUMPDEST POP POP POP POP PUSH1 0x1 SWAP1 DUP2 SHL ADD SWAP1 SSTORE POP JUMP JUMPDEST PUSH4 0x4E487B71 PUSH1 0xE0 SHL PUSH0 MSTORE PUSH1 0x11 PUSH1 0x4 MSTORE PUSH1 0x24 PUSH0 REVERT JUMPDEST DUP2 DUP2 SUB DUP2 DUP2 GT ISZERO PUSH2 0xC84 JUMPI PUSH2 0xC84 PUSH2 0xC5D JUMP JUMPDEST SWAP3 SWAP2 POP POP JUMP JUMPDEST PUSH1 0x20 DUP1 DUP3 MSTORE PUSH1 0xC SWAP1 DUP3 ADD MSTORE PUSH12 0x6E6F74207478457869737473 PUSH1 0xA0 SHL PUSH1 0x40 DUP3 ADD MSTORE PUSH1 0x60 ADD SWAP1 JUMP JUMPDEST PUSH4 0x4E487B71 PUSH1 0xE0 SHL PUSH0 MSTORE PUSH1 0x32 PUSH1 0x4 MSTORE PUSH1 0x24 PUSH0 REVERT JUMPDEST PUSH1 0x20 DUP1 DUP3 MSTORE PUSH1 0x10 SWAP1 DUP3 ADD MSTORE PUSH16 0x185B1C9958591E48195E1958DD5D1959 PUSH1 0x82 SHL PUSH1 0x40 DUP3 ADD MSTORE PUSH1 0x60 ADD SWAP1 JUMP JUMPDEST PUSH0 DUP1 DUP4 SLOAD PUSH2 0xCFB DUP2 PUSH2 0xB24 JUMP JUMPDEST PUSH1 0x1 DUP3 AND DUP1 ISZERO PUSH2 0xD12 JUMPI PUSH1 0x1 DUP2 EQ PUSH2 0xD27 JUMPI PUSH2 0xD54 JUMP JUMPDEST PUSH1 0xFF NOT DUP4 AND DUP7 MSTORE DUP2 ISZERO ISZERO DUP3 MUL DUP7 ADD SWAP4 POP PUSH2 0xD54 JUMP JUMPDEST DUP7 PUSH0 MSTORE PUSH1 0x20 PUSH0 KECCAK256 PUSH0 JUMPDEST DUP4 DUP2 LT ISZERO PUSH2 0xD4C JUMPI DUP2 SLOAD DUP9 DUP3 ADD MSTORE PUSH1 0x1 SWAP1 SWAP2 ADD SWAP1 PUSH1 0x20 ADD PUSH2 0xD30 JUMP JUMPDEST POP POP DUP2 DUP7 ADD SWAP4 POP JUMPDEST POP SWAP2 SWAP6 SWAP5 POP POP POP POP POP JUMP JUMPDEST DUP1 DUP3 ADD DUP1 DUP3 GT ISZERO PUSH2 0xC84 JUMPI PUSH2 0xC84 PUSH2 0xC5D JUMP INVALID LOG2 PUSH5 0x6970667358 0x22 SLT KECCAK256 0xC4 0x24 SMOD SWAP11 SWAP2 0xE4 SWAP16 SWAP10 0xDA 0x1F 0xDA SLOAD 0xC1 0x4C 0x4D AND SWAP11 PUSH22 0xA07E13CEFD12A7773C6E35EACEA764736F6C63430008 BYTE STOP CALLER "
		},
		"gasEstimates": {
			"creation": {
				"codeDepositCost": "699200",
				"executionCost": "infinite",
				"totalCost": "infinite"
			},
			"external": {
				"approve(uint256)": "37026",
				"approved(uint256,address)": "2715",
				"execute(uint256)": "infinite",
				"getApprovalCount(uint256)": "infinite",
				"isOwner(address)": "2595",
				"owners(uint256)": "4600",
				"required()": "2360",
				"revoke(uint256)": "37054",
				"submit(address,uint256,bytes)": "infinite",
				"transations(uint256)": "infinite"
			},
			"internal": {
				"_getApprovalCount(uint256)": "infinite"
			}
		},
		"methodIdentifiers": {
			"approve(uint256)": "b759f954",
			"approved(uint256,address)": "8253951a",
			"execute(uint256)": "fe0d94c1",
			"getApprovalCount(uint256)": "ba7e7cab",
			"isOwner(address)": "2f54bf6e",
			"owners(uint256)": "025e7c27",
			"required()": "dc8452cd",
			"revoke(uint256)": "20c5429b",
			"submit(address,uint256,bytes)": "14de327f",
			"transations(uint256)": "bb249d77"
		}
	},
	"abi": [
		{
			"inputs": [
				{
					"internalType": "address[]",
					"name": "_owners",
					"type": "address[]"
				},
				{
					"internalType": "uint256",
					"name": "_required",
					"type": "uint256"
				}
			],
			"stateMutability": "nonpayable",
			"type": "constructor"
		},
		{
			"anonymous": false,
			"inputs": [
				{
					"indexed": true,
					"internalType": "address",
					"name": "owner",
					"type": "address"
				},
				{
					"indexed": true,
					"internalType": "uint256",
					"name": "txId",
					"type": "uint256"
				}
			],
			"name": "Approve",
			"type": "event"
		},
		{
			"anonymous": false,
			"inputs": [
				{
					"indexed": true,
					"internalType": "address",
					"name": "sender",
					"type": "address"
				},
				{
					"indexed": false,
					"internalType": "uint256",
					"name": "amount",
					"type": "uint256"
				}
			],
			"name": "Deposit",
			"type": "event"
		},
		{
			"anonymous": false,
			"inputs": [
				{
					"indexed": true,
					"internalType": "uint256",
					"name": "txId",
					"type": "uint256"
				}
			],
			"name": "Execute",
			"type": "event"
		},
		{
			"anonymous": false,
			"inputs": [
				{
					"indexed": true,
					"internalType": "address",
					"name": "owner",
					"type": "address"
				},
				{
					"indexed": true,
					"internalType": "uint256",
					"name": "txId",
					"type": "uint256"
				}
			],
			"name": "Revoke",
			"type": "event"
		},
		{
			"anonymous": false,
			"inputs": [
				{
					"indexed": true,
					"internalType": "uint256",
					"name": "txId",
					"type": "uint256"
				}
			],
			"name": "Submit",
			"type": "event"
		},
		{
			"inputs": [
				{
					"internalType": "uint256",
					"name": "_txId",
					"type": "uint256"
				}
			],
			"name": "approve",
			"outputs": [],
			"stateMutability": "nonpayable",
			"type": "function"
		},
		{
			"inputs": [
				{
					"internalType": "uint256",
					"name": "",
					"type": "uint256"
				},
				{
					"internalType": "address",
					"name": "",
					"type": "address"
				}
			],
			"name": "approved",
			"outputs": [
				{
					"internalType": "bool",
					"name": "",
					"type": "bool"
				}
			],
			"stateMutability": "view",
			"type": "function"
		},
		{
			"inputs": [
				{
					"internalType": "uint256",
					"name": "_txId",
					"type": "uint256"
				}
			],
			"name": "execute",
			"outputs": [],
			"stateMutability": "nonpayable",
			"type": "function"
		},
		{
			"inputs": [
				{
					"internalType": "uint256",
					"name": "_txId",
					"type": "uint256"
				}
			],
			"name": "getApprovalCount",
			"outputs": [
				{
					"internalType": "uint256",
					"name": "",
					"type": "uint256"
				},
				{
					"internalType": "uint256",
					"name": "",
					"type": "uint256"
				}
			],
			"stateMutability": "view",
			"type": "function"
		},
		{
			"inputs": [
				{
					"internalType": "address",
					"name": "",
					"type": "address"
				}
			],
			"name": "isOwner",
			"outputs": [
				{
					"internalType": "bool",
					"name": "",
					"type": "bool"
				}
			],
			"stateMutability": "view",
			"type": "function"
		},
		{
			"inputs": [
				{
					"internalType": "uint256",
					"name": "",
					"type": "uint256"
				}
			],
			"name": "owners",
			"outputs": [
				{
					"internalType": "address",
					"name": "",
					"type": "address"
				}
			],
			"stateMutability": "view",
			"type": "function"
		},
		{
			"inputs": [],
			"name": "required",
			"outputs": [
				{
					"internalType": "uint256",
					"name": "",
					"type": "uint256"
				}
			],
			"stateMutability": "view",
			"type": "function"
		},
		{
			"inputs": [
				{
					"internalType": "uint256",
					"name": "_txId",
					"type": "uint256"
				}
			],
			"name": "revoke",
			"outputs": [],
			"stateMutability": "nonpayable",
			"type": "function"
		},
		{
			"inputs": [
				{
					"internalType": "address",
					"name": "_to",
					"type": "address"
				},
				{
					"internalType": "uint256",
					"name": "_value",
					"type": "uint256"
				},
				{
					"internalType": "bytes",
					"name": "_data",
					"type": "bytes"
				}
			],
			"name": "submit",
			"outputs": [],
			"stateMutability": "nonpayable",
			"type": "function"
		},
		{
			"inputs": [
				{
					"internalType": "uint256",
					"name": "",
					"type": "uint256"
				}
			],
			"name": "transations",
			"outputs": [
				{
					"internalType": "address",
					"name": "to",
					"type": "address"
				},
				{
					"internalType": "uint256",
					"name": "value",
					"type": "uint256"
				},
				{
					"internalType": "bytes",
					"name": "data",
					"type": "bytes"
				},
				{
					"internalType": "bool",
					"name": "executed",
					"type": "bool"
				}
			],
			"stateMutability": "view",
			"type": "function"
		},
		{
			"stateMutability": "payable",
			"type": "receive"
		}
	]
}