{
	"data": {
		"bytecode": {
			"linkReferences": {},
			"object": "6080604052348015600e575f5ffd5b5061014a8061001c5f395ff3fe608060405234801561000f575f5ffd5b506004361061004a575f3560e01c8063741351541461004e5780639944cc711461006c578063a898fd70146100a8578063b1ade4db146100d7575b5f5ffd5b6001425b604080519283526020830191909152015b60405180910390f35b61009b6040805160048152602481019091526020810180516001600160e01b0316631d04d45560e21b17905290565b60405161006391906100df565b61009b6040805160048152602481019091526020810180516001600160e01b031663b1ade4db60e01b17905290565b600242610052565b602081525f82518060208401528060208501604085015e5f604082850101526040601f19601f8301168401019150509291505056fea2646970667358221220814e0cb0ad7571d1fccddb42b4499ab6dc56f08224d385d4c79401eaef56a8df64736f6c634300081d0033",
			"opcodes": "PUSH1 0x80 PUSH1 0x40 MSTORE CALLVALUE DUP1 ISZERO PUSH1 0xE JUMPI PUSH0 PUSH0 REVERT JUMPDEST POP PUSH2 0x14A DUP1 PUSH2 0x1C PUSH0 CODECOPY PUSH0 RETURN INVALID PUSH1 0x80 PUSH1 0x40 MSTORE CALLVALUE DUP1 ISZERO PUSH2 0xF JUMPI PUSH0 PUSH0 REVERT JUMPDEST POP PUSH1 0x4 CALLDATASIZE LT PUSH2 0x4A JUMPI PUSH0 CALLDATALOAD PUSH1 0xE0 SHR DUP1 PUSH4 0x74135154 EQ PUSH2 0x4E JUMPI DUP1 PUSH4 0x9944CC71 EQ PUSH2 0x6C JUMPI DUP1 PUSH4 0xA898FD70 EQ PUSH2 0xA8 JUMPI DUP1 PUSH4 0xB1ADE4DB EQ PUSH2 0xD7 JUMPI JUMPDEST PUSH0 PUSH0 REVERT JUMPDEST PUSH1 0x1 TIMESTAMP JUMPDEST PUSH1 0x40 DUP1 MLOAD SWAP3 DUP4 MSTORE PUSH1 0x20 DUP4 ADD SWAP2 SWAP1 SWAP2 MSTORE ADD JUMPDEST PUSH1 0x40 MLOAD DUP1 SWAP2 SUB SWAP1 RETURN JUMPDEST PUSH2 0x9B PUSH1 0x40 DUP1 MLOAD PUSH1 0x4 DUP2 MSTORE PUSH1 0x24 DUP2 ADD SWAP1 SWAP2 MSTORE PUSH1 0x20 DUP2 ADD DUP1 MLOAD PUSH1 0x1 PUSH1 0x1 PUSH1 0xE0 SHL SUB AND PUSH4 0x1D04D455 PUSH1 0xE2 SHL OR SWAP1 MSTORE SWAP1 JUMP JUMPDEST PUSH1 0x40 MLOAD PUSH2 0x63 SWAP2 SWAP1 PUSH2 0xDF JUMP JUMPDEST PUSH2 0x9B PUSH1 0x40 DUP1 MLOAD PUSH1 0x4 DUP2 MSTORE PUSH1 0x24 DUP2 ADD SWAP1 SWAP2 MSTORE PUSH1 0x20 DUP2 ADD DUP1 MLOAD PUSH1 0x1 PUSH1 0x1 PUSH1 0xE0 SHL SUB AND PUSH4 0xB1ADE4DB PUSH1 0xE0 SHL OR SWAP1 MSTORE SWAP1 JUMP JUMPDEST PUSH1 0x2 TIMESTAMP PUSH2 0x52 JUMP JUMPDEST PUSH1 0x20 DUP2 MSTORE PUSH0 DUP3 MLOAD DUP1 PUSH1 0x20 DUP5 ADD MSTORE DUP1 PUSH1 0x20 DUP6 ADD PUSH1 0x40 DUP6 ADD MCOPY PUSH0 PUSH1 0x40 DUP3 DUP6 ADD ADD MSTORE PUSH1 0x40 PUSH1 0x1F NOT PUSH1 0x1F DUP4 ADD AND DUP5 ADD ADD SWAP2 POP POP SWAP3 SWAP2 POP POP JUMP INVALID LOG2 PUSH5 0x6970667358 0x22 SLT KECCAK256 DUP2 0x4E 0xC 0xB0 0xAD PUSH22 0x71D1FCCDDB42B4499AB6DC56F08224D385D4C79401EA 0xEF JUMP 0xA8 0xDF PUSH5 0x736F6C6343 STOP ADDMOD SAR STOP CALLER "
		},
		"gasEstimates": {
			"creation": {
				"codeDepositCost": "66000",
				"executionCost": "115",
				"totalCost": "66115"
			},
			"external": {
				"func1()": "173",
				"func2()": "250",
				"getData1()": "infinite",
				"getData2()": "infinite"
			}
		},
		"methodIdentifiers": {
			"func1()": "74135154",
			"func2()": "b1ade4db",
			"getData1()": "9944cc71",
			"getData2()": "a898fd70"
		}
	},
	"abi": [
		{
			"inputs": [],
			"name": "func1",
			"outputs": [
				{
					"internalType": "uint256",
					"name": "",
					"type": "uint256"
				},
				{
					"internalType": "uint256",
					"name": "",
					"type": "uint256"
				}
			],
			"stateMutability": "view",
			"type": "function"
		},
		{
			"inputs": [],
			"name": "func2",
			"outputs": [
				{
					"internalType": "uint256",
					"name": "",
					"type": "uint256"
				},
				{
					"internalType": "uint256",
					"name": "",
					"type": "uint256"
				}
			],
			"stateMutability": "view",
			"type": "function"
		},
		{
			"inputs": [],
			"name": "getData1",
			"outputs": [
				{
					"internalType": "bytes",
					"name": "",
					"type": "bytes"
				}
			],
			"stateMutability": "pure",
			"type": "function"
		},
		{
			"inputs": [],
			"name": "getData2",
			"outputs": [
				{
					"internalType": "bytes",
					"name": "",
					"type": "bytes"
				}
			],
			"stateMutability": "pure",
			"type": "function"
		}
	]
}