{
	"data": {
		"bytecode": {
			"linkReferences": {},
			"object": "6080604052348015600e575f80fd5b505f80546001600160a01b031916331790556108518061002d5f395ff3fe608060405260043610610087575f3560e01c80638da5cb5b116100575780638da5cb5b146101385780639f81aed71461016e578063b0f8b14214610182578063c1a287e2146100d5578063c4d252f5146101a2575f80fd5b8063228250c9146100925780634125ff90146100d55780634b9915a5146100f85780638a1ce0b614610119575f80fd5b3661008e57005b5f80fd5b34801561009d575f80fd5b506100c06100ac3660046105eb565b60016020525f908152604090205460ff1681565b60405190151581526020015b60405180910390f35b3480156100e0575f80fd5b506100ea6103e881565b6040519081526020016100cc565b348015610103575f80fd5b50610117610112366004610647565b6101c1565b005b348015610124575f80fd5b506100ea610133366004610647565b6102c4565b348015610143575f80fd5b505f54610156906001600160a01b031681565b6040516001600160a01b0390911681526020016100cc565b348015610179575f80fd5b506100ea600a81565b610195610190366004610647565b610305565b6040516100cc91906106e5565b3480156101ad575f80fd5b506101176101bc3660046105eb565b610551565b5f6101d1888888888888886102c4565b5f8181526001602052604090205490915060ff1615610203576040516311bc2f1560e21b815260040160405180910390fd5b61020e600a4261071a565b82108061022557506102226103e84261071a565b82115b1561025157604051630d4b0b6160e11b8152426004820152602481018390526044015b60405180910390fd5b5f81815260016020819052604091829020805460ff19169091179055516001600160a01b0389169082907f3c22f47140594040d205a5533cfedd86c9ab8622c39ead03affb2d97052c794c906102b2908b908b908b908b908b908b90610767565b60405180910390a35050505050505050565b5f878787878787876040516020016102e297969594939291906107a7565b604051602081830303815290604052805190602001209050979650505050505050565b5f546060906001600160a01b03163314610332576040516374a2152760e01b815260040160405180910390fd5b5f610342898989898989896102c4565b5f8181526001602052604090205490915060ff1661037657604051637eb4352760e01b815260048101829052602401610248565b824210156103a05760405163035fce5b60e01b815242600482015260248101849052604401610248565b6103ac6103e88461071a565b4211156103e257426103c06103e88561071a565b6040516328f6d8fb60e11b815260048101929092526024820152604401610248565b5f818152600160205260409020805460ff191690556060861561044057878760405161040f9291906107f6565b6040519081900381206001600160e01b03191660208201526024016040516020818303038152906040529050610479565b85858080601f0160208091040260200160405190810160405280939291908181526020018383808284375f920191909152509293505050505b5f808b6001600160a01b03168b846040516104949190610805565b5f6040518083038185875af1925050503d805f81146104ce576040519150601f19603f3d011682016040523d82523d5f602084013e6104d3565b606091505b5091509150816104f657604051632cd763bb60e11b815260040160405180910390fd5b8b6001600160a01b0316847fd1d5c3c892c18716bd88852091d1b63dc6849e9d7c37f69d566884bf954d4bd98d8d8d8d8d8d60405161053a96959493929190610767565b60405180910390a39b9a5050505050505050505050565b5f546001600160a01b0316331461057b576040516374a2152760e01b815260040160405180910390fd5b5f8181526001602052604090205460ff166105ac57604051637eb4352760e01b815260048101829052602401610248565b5f81815260016020526040808220805460ff191690555182917fe8d9861dbc9c663ed3accd261bbe2fe01e0d3d9e5f51fa38523b265c7757a93a91a250565b5f602082840312156105fb575f80fd5b5035919050565b5f8083601f840112610612575f80fd5b50813567ffffffffffffffff811115610629575f80fd5b602083019150836020828501011115610640575f80fd5b9250929050565b5f805f805f805f60a0888a03121561065d575f80fd5b87356001600160a01b0381168114610673575f80fd5b965060208801359550604088013567ffffffffffffffff811115610695575f80fd5b6106a18a828b01610602565b909650945050606088013567ffffffffffffffff8111156106c0575f80fd5b6106cc8a828b01610602565b989b979a50959894979596608090950135949350505050565b602081525f82518060208401528060208501604085015e5f604082850101526040601f19601f83011684010191505092915050565b8082018082111561073957634e487b7160e01b5f52601160045260245ffd5b92915050565b81835281816020850137505f828201602090810191909152601f909101601f19169091010190565b868152608060208201525f61078060808301878961073f565b828103604084015261079381868861073f565b915050826060830152979650505050505050565b60018060a01b038816815286602082015260a060408201525f6107ce60a08301878961073f565b82810360608401526107e181868861073f565b91505082608083015298975050505050505050565b818382375f9101908152919050565b5f82518060208501845e5f92019182525091905056fea2646970667358221220340173b735569d70151b48f63101c30eeb5df5fa96a24ffcfb1bae55eccfe6c264736f6c634300081a0033",
			"opcodes": "PUSH1 0x80 PUSH1 0x40 MSTORE CALLVALUE DUP1 ISZERO PUSH1 0xE JUMPI PUSH0 DUP1 REVERT JUMPDEST POP PUSH0 DUP1 SLOAD PUSH1 0x1 PUSH1 0x1 PUSH1 0xA0 SHL SUB NOT AND CALLER OR SWAP1 SSTORE PUSH2 0x851 DUP1 PUSH2 0x2D PUSH0 CODECOPY PUSH0 RETURN INVALID PUSH1 0x80 PUSH1 0x40 MSTORE PUSH1 0x4 CALLDATASIZE LT PUSH2 0x87 JUMPI PUSH0 CALLDATALOAD PUSH1 0xE0 SHR DUP1 PUSH4 0x8DA5CB5B GT PUSH2 0x57 JUMPI DUP1 PUSH4 0x8DA5CB5B EQ PUSH2 0x138 JUMPI DUP1 PUSH4 0x9F81AED7 EQ PUSH2 0x16E JUMPI DUP1 PUSH4 0xB0F8B142 EQ PUSH2 0x182 JUMPI DUP1 PUSH4 0xC1A287E2 EQ PUSH2 0xD5 JUMPI DUP1 PUSH4 0xC4D252F5 EQ PUSH2 0x1A2 JUMPI PUSH0 DUP1 REVERT JUMPDEST DUP1 PUSH4 0x228250C9 EQ PUSH2 0x92 JUMPI DUP1 PUSH4 0x4125FF90 EQ PUSH2 0xD5 JUMPI DUP1 PUSH4 0x4B9915A5 EQ PUSH2 0xF8 JUMPI DUP1 PUSH4 0x8A1CE0B6 EQ PUSH2 0x119 JUMPI PUSH0 DUP1 REVERT JUMPDEST CALLDATASIZE PUSH2 0x8E JUMPI STOP JUMPDEST PUSH0 DUP1 REVERT JUMPDEST CALLVALUE DUP1 ISZERO PUSH2 0x9D JUMPI PUSH0 DUP1 REVERT JUMPDEST POP PUSH2 0xC0 PUSH2 0xAC CALLDATASIZE PUSH1 0x4 PUSH2 0x5EB JUMP JUMPDEST PUSH1 0x1 PUSH1 0x20 MSTORE PUSH0 SWAP1 DUP2 MSTORE PUSH1 0x40 SWAP1 KECCAK256 SLOAD PUSH1 0xFF AND DUP2 JUMP JUMPDEST PUSH1 0x40 MLOAD SWAP1 ISZERO ISZERO DUP2 MSTORE PUSH1 0x20 ADD JUMPDEST PUSH1 0x40 MLOAD DUP1 SWAP2 SUB SWAP1 RETURN JUMPDEST CALLVALUE DUP1 ISZERO PUSH2 0xE0 JUMPI PUSH0 DUP1 REVERT JUMPDEST POP PUSH2 0xEA PUSH2 0x3E8 DUP2 JUMP JUMPDEST PUSH1 0x40 MLOAD SWAP1 DUP2 MSTORE PUSH1 0x20 ADD PUSH2 0xCC JUMP JUMPDEST CALLVALUE DUP1 ISZERO PUSH2 0x103 JUMPI PUSH0 DUP1 REVERT JUMPDEST POP PUSH2 0x117 PUSH2 0x112 CALLDATASIZE PUSH1 0x4 PUSH2 0x647 JUMP JUMPDEST PUSH2 0x1C1 JUMP JUMPDEST STOP JUMPDEST CALLVALUE DUP1 ISZERO PUSH2 0x124 JUMPI PUSH0 DUP1 REVERT JUMPDEST POP PUSH2 0xEA PUSH2 0x133 CALLDATASIZE PUSH1 0x4 PUSH2 0x647 JUMP JUMPDEST PUSH2 0x2C4 JUMP JUMPDEST CALLVALUE DUP1 ISZERO PUSH2 0x143 JUMPI PUSH0 DUP1 REVERT JUMPDEST POP PUSH0 SLOAD PUSH2 0x156 SWAP1 PUSH1 0x1 PUSH1 0x1 PUSH1 0xA0 SHL SUB AND DUP2 JUMP JUMPDEST PUSH1 0x40 MLOAD PUSH1 0x1 PUSH1 0x1 PUSH1 0xA0 SHL SUB SWAP1 SWAP2 AND DUP2 MSTORE PUSH1 0x20 ADD PUSH2 0xCC JUMP JUMPDEST CALLVALUE DUP1 ISZERO PUSH2 0x179 JUMPI PUSH0 DUP1 REVERT JUMPDEST POP PUSH2 0xEA PUSH1 0xA DUP2 JUMP JUMPDEST PUSH2 0x195 PUSH2 0x190 CALLDATASIZE PUSH1 0x4 PUSH2 0x647 JUMP JUMPDEST PUSH2 0x305 JUMP JUMPDEST PUSH1 0x40 MLOAD PUSH2 0xCC SWAP2 SWAP1 PUSH2 0x6E5 JUMP JUMPDEST CALLVALUE DUP1 ISZERO PUSH2 0x1AD JUMPI PUSH0 DUP1 REVERT JUMPDEST POP PUSH2 0x117 PUSH2 0x1BC CALLDATASIZE PUSH1 0x4 PUSH2 0x5EB JUMP JUMPDEST PUSH2 0x551 JUMP JUMPDEST PUSH0 PUSH2 0x1D1 DUP9 DUP9 DUP9 DUP9 DUP9 DUP9 DUP9 PUSH2 0x2C4 JUMP JUMPDEST PUSH0 DUP2 DUP2 MSTORE PUSH1 0x1 PUSH1 0x20 MSTORE PUSH1 0x40 SWAP1 KECCAK256 SLOAD SWAP1 SWAP2 POP PUSH1 0xFF AND ISZERO PUSH2 0x203 JUMPI PUSH1 0x40 MLOAD PUSH4 0x11BC2F15 PUSH1 0xE2 SHL DUP2 MSTORE PUSH1 0x4 ADD PUSH1 0x40 MLOAD DUP1 SWAP2 SUB SWAP1 REVERT JUMPDEST PUSH2 0x20E PUSH1 0xA TIMESTAMP PUSH2 0x71A JUMP JUMPDEST DUP3 LT DUP1 PUSH2 0x225 JUMPI POP PUSH2 0x222 PUSH2 0x3E8 TIMESTAMP PUSH2 0x71A JUMP JUMPDEST DUP3 GT JUMPDEST ISZERO PUSH2 0x251 JUMPI PUSH1 0x40 MLOAD PUSH4 0xD4B0B61 PUSH1 0xE1 SHL DUP2 MSTORE TIMESTAMP PUSH1 0x4 DUP3 ADD MSTORE PUSH1 0x24 DUP2 ADD DUP4 SWAP1 MSTORE PUSH1 0x44 ADD JUMPDEST PUSH1 0x40 MLOAD DUP1 SWAP2 SUB SWAP1 REVERT JUMPDEST PUSH0 DUP2 DUP2 MSTORE PUSH1 0x1 PUSH1 0x20 DUP2 SWAP1 MSTORE PUSH1 0x40 SWAP2 DUP3 SWAP1 KECCAK256 DUP1 SLOAD PUSH1 0xFF NOT AND SWAP1 SWAP2 OR SWAP1 SSTORE MLOAD PUSH1 0x1 PUSH1 0x1 PUSH1 0xA0 SHL SUB DUP10 AND SWAP1 DUP3 SWAP1 PUSH32 0x3C22F47140594040D205A5533CFEDD86C9AB8622C39EAD03AFFB2D97052C794C SWAP1 PUSH2 0x2B2 SWAP1 DUP12 SWAP1 DUP12 SWAP1 DUP12 SWAP1 DUP12 SWAP1 DUP12 SWAP1 DUP12 SWAP1 PUSH2 0x767 JUMP JUMPDEST PUSH1 0x40 MLOAD DUP1 SWAP2 SUB SWAP1 LOG3 POP POP POP POP POP POP POP POP JUMP JUMPDEST PUSH0 DUP8 DUP8 DUP8 DUP8 DUP8 DUP8 DUP8 PUSH1 0x40 MLOAD PUSH1 0x20 ADD PUSH2 0x2E2 SWAP8 SWAP7 SWAP6 SWAP5 SWAP4 SWAP3 SWAP2 SWAP1 PUSH2 0x7A7 JUMP JUMPDEST PUSH1 0x40 MLOAD PUSH1 0x20 DUP2 DUP4 SUB SUB DUP2 MSTORE SWAP1 PUSH1 0x40 MSTORE DUP1 MLOAD SWAP1 PUSH1 0x20 ADD KECCAK256 SWAP1 POP SWAP8 SWAP7 POP POP POP POP POP POP POP JUMP JUMPDEST PUSH0 SLOAD PUSH1 0x60 SWAP1 PUSH1 0x1 PUSH1 0x1 PUSH1 0xA0 SHL SUB AND CALLER EQ PUSH2 0x332 JUMPI PUSH1 0x40 MLOAD PUSH4 0x74A21527 PUSH1 0xE0 SHL DUP2 MSTORE PUSH1 0x4 ADD PUSH1 0x40 MLOAD DUP1 SWAP2 SUB SWAP1 REVERT JUMPDEST PUSH0 PUSH2 0x342 DUP10 DUP10 DUP10 DUP10 DUP10 DUP10 DUP10 PUSH2 0x2C4 JUMP JUMPDEST PUSH0 DUP2 DUP2 MSTORE PUSH1 0x1 PUSH1 0x20 MSTORE PUSH1 0x40 SWAP1 KECCAK256 SLOAD SWAP1 SWAP2 POP PUSH1 0xFF AND PUSH2 0x376 JUMPI PUSH1 0x40 MLOAD PUSH4 0x7EB43527 PUSH1 0xE0 SHL DUP2 MSTORE PUSH1 0x4 DUP2 ADD DUP3 SWAP1 MSTORE PUSH1 0x24 ADD PUSH2 0x248 JUMP JUMPDEST DUP3 TIMESTAMP LT ISZERO PUSH2 0x3A0 JUMPI PUSH1 0x40 MLOAD PUSH4 0x35FCE5B PUSH1 0xE0 SHL DUP2 MSTORE TIMESTAMP PUSH1 0x4 DUP3 ADD MSTORE PUSH1 0x24 DUP2 ADD DUP5 SWAP1 MSTORE PUSH1 0x44 ADD PUSH2 0x248 JUMP JUMPDEST PUSH2 0x3AC PUSH2 0x3E8 DUP5 PUSH2 0x71A JUMP JUMPDEST TIMESTAMP GT ISZERO PUSH2 0x3E2 JUMPI TIMESTAMP PUSH2 0x3C0 PUSH2 0x3E8 DUP6 PUSH2 0x71A JUMP JUMPDEST PUSH1 0x40 MLOAD PUSH4 0x28F6D8FB PUSH1 0xE1 SHL DUP2 MSTORE PUSH1 0x4 DUP2 ADD SWAP3 SWAP1 SWAP3 MSTORE PUSH1 0x24 DUP3 ADD MSTORE PUSH1 0x44 ADD PUSH2 0x248 JUMP JUMPDEST PUSH0 DUP2 DUP2 MSTORE PUSH1 0x1 PUSH1 0x20 MSTORE PUSH1 0x40 SWAP1 KECCAK256 DUP1 SLOAD PUSH1 0xFF NOT AND SWAP1 SSTORE PUSH1 0x60 DUP7 ISZERO PUSH2 0x440 JUMPI DUP8 DUP8 PUSH1 0x40 MLOAD PUSH2 0x40F SWAP3 SWAP2 SWAP1 PUSH2 0x7F6 JUMP JUMPDEST PUSH1 0x40 MLOAD SWAP1 DUP2 SWAP1 SUB DUP2 KECCAK256 PUSH1 0x1 PUSH1 0x1 PUSH1 0xE0 SHL SUB NOT AND PUSH1 0x20 DUP3 ADD MSTORE PUSH1 0x24 ADD PUSH1 0x40 MLOAD PUSH1 0x20 DUP2 DUP4 SUB SUB DUP2 MSTORE SWAP1 PUSH1 0x40 MSTORE SWAP1 POP PUSH2 0x479 JUMP JUMPDEST DUP6 DUP6 DUP1 DUP1 PUSH1 0x1F ADD PUSH1 0x20 DUP1 SWAP2 DIV MUL PUSH1 0x20 ADD PUSH1 0x40 MLOAD SWAP1 DUP2 ADD PUSH1 0x40 MSTORE DUP1 SWAP4 SWAP3 SWAP2 SWAP1 DUP2 DUP2 MSTORE PUSH1 0x20 ADD DUP4 DUP4 DUP1 DUP3 DUP5 CALLDATACOPY PUSH0 SWAP3 ADD SWAP2 SWAP1 SWAP2 MSTORE POP SWAP3 SWAP4 POP POP POP POP JUMPDEST PUSH0 DUP1 DUP12 PUSH1 0x1 PUSH1 0x1 PUSH1 0xA0 SHL SUB AND DUP12 DUP5 PUSH1 0x40 MLOAD PUSH2 0x494 SWAP2 SWAP1 PUSH2 0x805 JUMP JUMPDEST PUSH0 PUSH1 0x40 MLOAD DUP1 DUP4 SUB DUP2 DUP6 DUP8 GAS CALL SWAP3 POP POP POP RETURNDATASIZE DUP1 PUSH0 DUP2 EQ PUSH2 0x4CE JUMPI PUSH1 0x40 MLOAD SWAP2 POP PUSH1 0x1F NOT PUSH1 0x3F RETURNDATASIZE ADD AND DUP3 ADD PUSH1 0x40 MSTORE RETURNDATASIZE DUP3 MSTORE RETURNDATASIZE PUSH0 PUSH1 0x20 DUP5 ADD RETURNDATACOPY PUSH2 0x4D3 JUMP JUMPDEST PUSH1 0x60 SWAP2 POP JUMPDEST POP SWAP2 POP SWAP2 POP DUP2 PUSH2 0x4F6 JUMPI PUSH1 0x40 MLOAD PUSH4 0x2CD763BB PUSH1 0xE1 SHL DUP2 MSTORE PUSH1 0x4 ADD PUSH1 0x40 MLOAD DUP1 SWAP2 SUB SWAP1 REVERT JUMPDEST DUP12 PUSH1 0x1 PUSH1 0x1 PUSH1 0xA0 SHL SUB AND DUP5 PUSH32 0xD1D5C3C892C18716BD88852091D1B63DC6849E9D7C37F69D566884BF954D4BD9 DUP14 DUP14 DUP14 DUP14 DUP14 DUP14 PUSH1 0x40 MLOAD PUSH2 0x53A SWAP7 SWAP6 SWAP5 SWAP4 SWAP3 SWAP2 SWAP1 PUSH2 0x767 JUMP JUMPDEST PUSH1 0x40 MLOAD DUP1 SWAP2 SUB SWAP1 LOG3 SWAP12 SWAP11 POP POP POP POP POP POP POP POP POP POP POP JUMP JUMPDEST PUSH0 SLOAD PUSH1 0x1 PUSH1 0x1 PUSH1 0xA0 SHL SUB AND CALLER EQ PUSH2 0x57B JUMPI PUSH1 0x40 MLOAD PUSH4 0x74A21527 PUSH1 0xE0 SHL DUP2 MSTORE PUSH1 0x4 ADD PUSH1 0x40 MLOAD DUP1 SWAP2 SUB SWAP1 REVERT JUMPDEST PUSH0 DUP2 DUP2 MSTORE PUSH1 0x1 PUSH1 0x20 MSTORE PUSH1 0x40 SWAP1 KECCAK256 SLOAD PUSH1 0xFF AND PUSH2 0x5AC JUMPI PUSH1 0x40 MLOAD PUSH4 0x7EB43527 PUSH1 0xE0 SHL DUP2 MSTORE PUSH1 0x4 DUP2 ADD DUP3 SWAP1 MSTORE PUSH1 0x24 ADD PUSH2 0x248 JUMP JUMPDEST PUSH0 DUP2 DUP2 MSTORE PUSH1 0x1 PUSH1 0x20 MSTORE PUSH1 0x40 DUP1 DUP3 KECCAK256 DUP1 SLOAD PUSH1 0xFF NOT AND SWAP1 SSTORE MLOAD DUP3 SWAP2 PUSH32 0xE8D9861DBC9C663ED3ACCD261BBE2FE01E0D3D9E5F51FA38523B265C7757A93A SWAP2 LOG2 POP JUMP JUMPDEST PUSH0 PUSH1 0x20 DUP3 DUP5 SUB SLT ISZERO PUSH2 0x5FB JUMPI PUSH0 DUP1 REVERT JUMPDEST POP CALLDATALOAD SWAP2 SWAP1 POP JUMP JUMPDEST PUSH0 DUP1 DUP4 PUSH1 0x1F DUP5 ADD SLT PUSH2 0x612 JUMPI PUSH0 DUP1 REVERT JUMPDEST POP DUP2 CALLDATALOAD PUSH8 0xFFFFFFFFFFFFFFFF DUP2 GT ISZERO PUSH2 0x629 JUMPI PUSH0 DUP1 REVERT JUMPDEST PUSH1 0x20 DUP4 ADD SWAP2 POP DUP4 PUSH1 0x20 DUP3 DUP6 ADD ADD GT ISZERO PUSH2 0x640 JUMPI PUSH0 DUP1 REVERT JUMPDEST SWAP3 POP SWAP3 SWAP1 POP JUMP JUMPDEST PUSH0 DUP1 PUSH0 DUP1 PUSH0 DUP1 PUSH0 PUSH1 0xA0 DUP9 DUP11 SUB SLT ISZERO PUSH2 0x65D JUMPI PUSH0 DUP1 REVERT JUMPDEST DUP8 CALLDATALOAD PUSH1 0x1 PUSH1 0x1 PUSH1 0xA0 SHL SUB DUP2 AND DUP2 EQ PUSH2 0x673 JUMPI PUSH0 DUP1 REVERT JUMPDEST SWAP7 POP PUSH1 0x20 DUP9 ADD CALLDATALOAD SWAP6 POP PUSH1 0x40 DUP9 ADD CALLDATALOAD PUSH8 0xFFFFFFFFFFFFFFFF DUP2 GT ISZERO PUSH2 0x695 JUMPI PUSH0 DUP1 REVERT JUMPDEST PUSH2 0x6A1 DUP11 DUP3 DUP12 ADD PUSH2 0x602 JUMP JUMPDEST SWAP1 SWAP7 POP SWAP5 POP POP PUSH1 0x60 DUP9 ADD CALLDATALOAD PUSH8 0xFFFFFFFFFFFFFFFF DUP2 GT ISZERO PUSH2 0x6C0 JUMPI PUSH0 DUP1 REVERT JUMPDEST PUSH2 0x6CC DUP11 DUP3 DUP12 ADD PUSH2 0x602 JUMP JUMPDEST SWAP9 SWAP12 SWAP8 SWAP11 POP SWAP6 SWAP9 SWAP5 SWAP8 SWAP6 SWAP7 PUSH1 0x80 SWAP1 SWAP6 ADD CALLDATALOAD SWAP5 SWAP4 POP POP POP POP JUMP JUMPDEST PUSH1 0x20 DUP2 MSTORE PUSH0 DUP3 MLOAD DUP1 PUSH1 0x20 DUP5 ADD MSTORE DUP1 PUSH1 0x20 DUP6 ADD PUSH1 0x40 DUP6 ADD MCOPY PUSH0 PUSH1 0x40 DUP3 DUP6 ADD ADD MSTORE PUSH1 0x40 PUSH1 0x1F NOT PUSH1 0x1F DUP4 ADD AND DUP5 ADD ADD SWAP2 POP POP SWAP3 SWAP2 POP POP JUMP JUMPDEST DUP1 DUP3 ADD DUP1 DUP3 GT ISZERO PUSH2 0x739 JUMPI PUSH4 0x4E487B71 PUSH1 0xE0 SHL PUSH0 MSTORE PUSH1 0x11 PUSH1 0x4 MSTORE PUSH1 0x24 PUSH0 REVERT JUMPDEST SWAP3 SWAP2 POP POP JUMP JUMPDEST DUP2 DUP4 MSTORE DUP2 DUP2 PUSH1 0x20 DUP6 ADD CALLDATACOPY POP PUSH0 DUP3 DUP3 ADD PUSH1 0x20 SWAP1 DUP2 ADD SWAP2 SWAP1 SWAP2 MSTORE PUSH1 0x1F SWAP1 SWAP2 ADD PUSH1 0x1F NOT AND SWAP1 SWAP2 ADD ADD SWAP1 JUMP JUMPDEST DUP7 DUP2 MSTORE PUSH1 0x80 PUSH1 0x20 DUP3 ADD MSTORE PUSH0 PUSH2 0x780 PUSH1 0x80 DUP4 ADD DUP8 DUP10 PUSH2 0x73F JUMP JUMPDEST DUP3 DUP2 SUB PUSH1 0x40 DUP5 ADD MSTORE PUSH2 0x793 DUP2 DUP7 DUP9 PUSH2 0x73F JUMP JUMPDEST SWAP2 POP POP DUP3 PUSH1 0x60 DUP4 ADD MSTORE SWAP8 SWAP7 POP POP POP POP POP POP POP JUMP JUMPDEST PUSH1 0x1 DUP1 PUSH1 0xA0 SHL SUB DUP9 AND DUP2 MSTORE DUP7 PUSH1 0x20 DUP3 ADD MSTORE PUSH1 0xA0 PUSH1 0x40 DUP3 ADD MSTORE PUSH0 PUSH2 0x7CE PUSH1 0xA0 DUP4 ADD DUP8 DUP10 PUSH2 0x73F JUMP JUMPDEST DUP3 DUP2 SUB PUSH1 0x60 DUP5 ADD MSTORE PUSH2 0x7E1 DUP2 DUP7 DUP9 PUSH2 0x73F JUMP JUMPDEST SWAP2 POP POP DUP3 PUSH1 0x80 DUP4 ADD MSTORE SWAP9 SWAP8 POP POP POP POP POP POP POP POP JUMP JUMPDEST DUP2 DUP4 DUP3 CALLDATACOPY PUSH0 SWAP2 ADD SWAP1 DUP2 MSTORE SWAP2 SWAP1 POP JUMP JUMPDEST PUSH0 DUP3 MLOAD DUP1 PUSH1 0x20 DUP6 ADD DUP5 MCOPY PUSH0 SWAP3 ADD SWAP2 DUP3 MSTORE POP SWAP2 SWAP1 POP JUMP INVALID LOG2 PUSH5 0x6970667358 0x22 SLT KECCAK256 CALLVALUE ADD PUSH20 0xB735569D70151B48F63101C30EEB5DF5FA96A24F 0xFC 0xFB SHL 0xAE SSTORE 0xEC 0xCF 0xE6 0xC2 PUSH5 0x736F6C6343 STOP ADDMOD BYTE STOP CALLER "
		},
		"gasEstimates": {
			"creation": {
				"codeDepositCost": "425800",
				"executionCost": "24693",
				"totalCost": "450493"
			},
			"external": {
				"GRACE_PERIOD()": "260",
				"MAX_DELAY()": "217",
				"MIN_DELAY()": "216",
				"cancel(bytes32)": "30062",
				"execute(address,uint256,string,bytes,uint256)": "infinite",
				"getTxId(address,uint256,string,bytes,uint256)": "infinite",
				"owner()": "2335",
				"queue(address,uint256,string,bytes,uint256)": "infinite",
				"queued(bytes32)": "2437"
			}
		},
		"methodIdentifiers": {
			"GRACE_PERIOD()": "c1a287e2",
			"MAX_DELAY()": "4125ff90",
			"MIN_DELAY()": "9f81aed7",
			"cancel(bytes32)": "c4d252f5",
			"execute(address,uint256,string,bytes,uint256)": "b0f8b142",
			"getTxId(address,uint256,string,bytes,uint256)": "8a1ce0b6",
			"owner()": "8da5cb5b",
			"queue(address,uint256,string,bytes,uint256)": "4b9915a5",
			"queued(bytes32)": "228250c9"
		}
	},
	"abi": [
		{
			"inputs": [],
			"stateMutability": "nonpayable",
			"type": "constructor"
		},
		{
			"inputs": [],
			"name": "AlreadyQueuedError",
			"type": "error"
		},
		{
			"inputs": [],
			"name": "NotOwnerError",
			"type": "error"
		},
		{
			"inputs": [
				{
					"internalType": "bytes32",
					"name": "txId",
					"type": "bytes32"
				}
			],
			"name": "NotQueueError",
			"type": "error"
		},
		{
			"inputs": [
				{
					"internalType": "uint256",
					"name": "blockTimestamp",
					"type": "uint256"
				},
				{
					"internalType": "uint256",
					"name": "expired",
					"type": "uint256"
				}
			],
			"name": "TimestampExpiredERROR",
			"type": "error"
		},
		{
			"inputs": [
				{
					"internalType": "uint256",
					"name": "blockTimestamp",
					"type": "uint256"
				},
				{
					"internalType": "uint256",
					"name": "timestamp",
					"type": "uint256"
				}
			],
			"name": "TimestampNotInRangeError",
			"type": "error"
		},
		{
			"inputs": [
				{
					"internalType": "uint256",
					"name": "blockTimestamp",
					"type": "uint256"
				},
				{
					"internalType": "uint256",
					"name": "timestamp",
					"type": "uint256"
				}
			],
			"name": "TimestampNotPassedError",
			"type": "error"
		},
		{
			"inputs": [],
			"name": "TxFailError",
			"type": "error"
		},
		{
			"anonymous": false,
			"inputs": [
				{
					"indexed": true,
					"internalType": "bytes32",
					"name": "txId",
					"type": "bytes32"
				}
			],
			"name": "Cancel",
			"type": "event"
		},
		{
			"anonymous": false,
			"inputs": [
				{
					"indexed": true,
					"internalType": "bytes32",
					"name": "txId",
					"type": "bytes32"
				},
				{
					"indexed": true,
					"internalType": "address",
					"name": "_target",
					"type": "address"
				},
				{
					"indexed": false,
					"internalType": "uint256",
					"name": "_value",
					"type": "uint256"
				},
				{
					"indexed": false,
					"internalType": "string",
					"name": "_func",
					"type": "string"
				},
				{
					"indexed": false,
					"internalType": "bytes",
					"name": "_data",
					"type": "bytes"
				},
				{
					"indexed": false,
					"internalType": "uint256",
					"name": "_timestamp",
					"type": "uint256"
				}
			],
			"name": "Execute",
			"type": "event"
		},
		{
			"anonymous": false,
			"inputs": [
				{
					"indexed": true,
					"internalType": "bytes32",
					"name": "txId",
					"type": "bytes32"
				},
				{
					"indexed": true,
					"internalType": "address",
					"name": "_target",
					"type": "address"
				},
				{
					"indexed": false,
					"internalType": "uint256",
					"name": "_value",
					"type": "uint256"
				},
				{
					"indexed": false,
					"internalType": "string",
					"name": "_func",
					"type": "string"
				},
				{
					"indexed": false,
					"internalType": "bytes",
					"name": "_data",
					"type": "bytes"
				},
				{
					"indexed": false,
					"internalType": "uint256",
					"name": "_timestamp",
					"type": "uint256"
				}
			],
			"name": "Queue",
			"type": "event"
		},
		{
			"inputs": [],
			"name": "GRACE_PERIOD",
			"outputs": [
				{
					"internalType": "uint256",
					"name": "",
					"type": "uint256"
				}
			],
			"stateMutability": "view",
			"type": "function"
		},
		{
			"inputs": [],
			"name": "MAX_DELAY",
			"outputs": [
				{
					"internalType": "uint256",
					"name": "",
					"type": "uint256"
				}
			],
			"stateMutability": "view",
			"type": "function"
		},
		{
			"inputs": [],
			"name": "MIN_DELAY",
			"outputs": [
				{
					"internalType": "uint256",
					"name": "",
					"type": "uint256"
				}
			],
			"stateMutability": "view",
			"type": "function"
		},
		{
			"inputs": [
				{
					"internalType": "bytes32",
					"name": "_txId",
					"type": "bytes32"
				}
			],
			"name": "cancel",
			"outputs": [],
			"stateMutability": "nonpayable",
			"type": "function"
		},
		{
			"inputs": [
				{
					"internalType": "address",
					"name": "_target",
					"type": "address"
				},
				{
					"internalType": "uint256",
					"name": "_value",
					"type": "uint256"
				},
				{
					"internalType": "string",
					"name": "_func",
					"type": "string"
				},
				{
					"internalType": "bytes",
					"name": "_data",
					"type": "bytes"
				},
				{
					"internalType": "uint256",
					"name": "_timestamp",
					"type": "uint256"
				}
			],
			"name": "execute",
			"outputs": [
				{
					"internalType": "bytes",
					"name": "",
					"type": "bytes"
				}
			],
			"stateMutability": "payable",
			"type": "function"
		},
		{
			"inputs": [
				{
					"internalType": "address",
					"name": "_target",
					"type": "address"
				},
				{
					"internalType": "uint256",
					"name": "_value",
					"type": "uint256"
				},
				{
					"internalType": "string",
					"name": "_func",
					"type": "string"
				},
				{
					"internalType": "bytes",
					"name": "_data",
					"type": "bytes"
				},
				{
					"internalType": "uint256",
					"name": "_timestamp",
					"type": "uint256"
				}
			],
			"name": "getTxId",
			"outputs": [
				{
					"internalType": "bytes32",
					"name": "txId",
					"type": "bytes32"
				}
			],
			"stateMutability": "pure",
			"type": "function"
		},
		{
			"inputs": [],
			"name": "owner",
			"outputs": [
				{
					"internalType": "address",
					"name": "",
					"type": "address"
				}
			],
			"stateMutability": "view",
			"type": "function"
		},
		{
			"inputs": [
				{
					"internalType": "address",
					"name": "_target",
					"type": "address"
				},
				{
					"internalType": "uint256",
					"name": "_value",
					"type": "uint256"
				},
				{
					"internalType": "string",
					"name": "_func",
					"type": "string"
				},
				{
					"internalType": "bytes",
					"name": "_data",
					"type": "bytes"
				},
				{
					"internalType": "uint256",
					"name": "_timestamp",
					"type": "uint256"
				}
			],
			"name": "queue",
			"outputs": [],
			"stateMutability": "nonpayable",
			"type": "function"
		},
		{
			"inputs": [
				{
					"internalType": "bytes32",
					"name": "",
					"type": "bytes32"
				}
			],
			"name": "queued",
			"outputs": [
				{
					"internalType": "bool",
					"name": "",
					"type": "bool"
				}
			],
			"stateMutability": "view",
			"type": "function"
		},
		{
			"stateMutability": "payable",
			"type": "receive"
		}
	]
}