{
	"data": {
		"bytecode": {
			"linkReferences": {},
			"object": "6080604052348015600e575f5ffd5b5060e180601a5f395ff3fe6080604052348015600e575f5ffd5b50600436106030575f3560e01c80630aa78c711460345780637c3ffef2146045575b5f5ffd5b6043603f366004608c565b6054565b005b60436050366004608c565b6062565b605c82826067565b50505050565b605c82825b5f8083830184811015607e575f5f92509250506085565b6001925090505b9250929050565b5f5f60408385031215609c575f5ffd5b5050803592602090910135915056fea26469706673582212208e81b73b5e536f2c65f68b53877e0c66fd2ae4908ca11de0f0bb60076dae934964736f6c634300081d0033",
			"opcodes": "PUSH1 0x80 PUSH1 0x40 MSTORE CALLVALUE DUP1 ISZERO PUSH1 0xE JUMPI PUSH0 PUSH0 REVERT JUMPDEST POP PUSH1 0xE1 DUP1 PUSH1 0x1A PUSH0 CODECOPY PUSH0 RETURN INVALID PUSH1 0x80 PUSH1 0x40 MSTORE CALLVALUE DUP1 ISZERO PUSH1 0xE JUMPI PUSH0 PUSH0 REVERT JUMPDEST POP PUSH1 0x4 CALLDATASIZE LT PUSH1 0x30 JUMPI PUSH0 CALLDATALOAD PUSH1 0xE0 SHR DUP1 PUSH4 0xAA78C71 EQ PUSH1 0x34 JUMPI DUP1 PUSH4 0x7C3FFEF2 EQ PUSH1 0x45 JUMPI JUMPDEST PUSH0 PUSH0 REVERT JUMPDEST PUSH1 0x43 PUSH1 0x3F CALLDATASIZE PUSH1 0x4 PUSH1 0x8C JUMP JUMPDEST PUSH1 0x54 JUMP JUMPDEST STOP JUMPDEST PUSH1 0x43 PUSH1 0x50 CALLDATASIZE PUSH1 0x4 PUSH1 0x8C JUMP JUMPDEST PUSH1 0x62 JUMP JUMPDEST PUSH1 0x5C DUP3 DUP3 PUSH1 0x67 JUMP JUMPDEST POP POP POP POP JUMP JUMPDEST PUSH1 0x5C DUP3 DUP3 JUMPDEST PUSH0 DUP1 DUP4 DUP4 ADD DUP5 DUP2 LT ISZERO PUSH1 0x7E JUMPI PUSH0 PUSH0 SWAP3 POP SWAP3 POP POP PUSH1 0x85 JUMP JUMPDEST PUSH1 0x1 SWAP3 POP SWAP1 POP JUMPDEST SWAP3 POP SWAP3 SWAP1 POP JUMP JUMPDEST PUSH0 PUSH0 PUSH1 0x40 DUP4 DUP6 SUB SLT ISZERO PUSH1 0x9C JUMPI PUSH0 PUSH0 REVERT JUMPDEST POP POP DUP1 CALLDATALOAD SWAP3 PUSH1 0x20 SWAP1 SWAP2 ADD CALLDATALOAD SWAP2 POP JUMP INVALID LOG2 PUSH5 0x6970667358 0x22 SLT KECCAK256 DUP15 DUP2 0xB7 EXTCODESIZE MCOPY MSTORE8 PUSH16 0x2C65F68B53877E0C66FD2AE4908CA11D RJUMP 0xF0BB PUSH1 0x7 PUSH14 0xAE934964736F6C634300081D0033 "
		},
		"gasEstimates": {
			"creation": {
				"codeDepositCost": "45000",
				"executionCost": "97",
				"totalCost": "45097"
			},
			"external": {
				"testAdd(uint256,uint256)": "348",
				"testAdd2(uint256,uint256)": "337"
			}
		},
		"methodIdentifiers": {
			"testAdd(uint256,uint256)": "7c3ffef2",
			"testAdd2(uint256,uint256)": "0aa78c71"
		}
	},
	"abi": [
		{
			"inputs": [
				{
					"internalType": "uint256",
					"name": "a",
					"type": "uint256"
				},
				{
					"internalType": "uint256",
					"name": "b",
					"type": "uint256"
				}
			],
			"name": "testAdd",
			"outputs": [],
			"stateMutability": "pure",
			"type": "function"
		},
		{
			"inputs": [
				{
					"internalType": "uint256",
					"name": "a",
					"type": "uint256"
				},
				{
					"internalType": "uint256",
					"name": "b",
					"type": "uint256"
				}
			],
			"name": "testAdd2",
			"outputs": [],
			"stateMutability": "pure",
			"type": "function"
		}
	]
}