{
	"data": {
		"bytecode": {
			"linkReferences": {},
			"object": "608060405234801561000f575f80fd5b506104018061001d5f395ff3fe608060405234801561000f575f80fd5b5060043610610029575f3560e01c80637cebfb641461002d575b5f80fd5b61004061003b36600461032e565b61005c565b6040516001600160a01b03909116815260200160405180910390f35b815160208301205f906100a58361009f837f19457468657265756d205369676e6564204d6573736167653a0a3332000000005f908152601c91909152603c902090565b906100ad565b949350505050565b5f805f806100bb86866100d5565b9250925092506100cb828261011e565b5090949350505050565b5f805f835160410361010c576020840151604085015160608601515f1a6100fe888285856101df565b955095509550505050610117565b505081515f91506002905b9250925092565b5f826003811115610131576101316103b7565b0361013a575050565b600182600381111561014e5761014e6103b7565b0361016c5760405163f645eedf60e01b815260040160405180910390fd5b6002826003811115610180576101806103b7565b036101a65760405163fce698f760e01b8152600481018290526024015b60405180910390fd5b60038260038111156101ba576101ba6103b7565b036101db576040516335e2f38360e21b81526004810182905260240161019d565b5050565b5f80807f7fffffffffffffffffffffffffffffff5d576e7357a4501ddfe92f46681b20a084111561021857505f9150600390508261029d565b604080515f808252602082018084528a905260ff891692820192909252606081018790526080810186905260019060a0016020604051602081039080840390855afa158015610269573d5f803e3d5ffd5b5050604051601f1901519150506001600160a01b03811661029457505f92506001915082905061029d565b92505f91508190505b9450945094915050565b634e487b7160e01b5f52604160045260245ffd5b5f67ffffffffffffffff808411156102d5576102d56102a7565b604051601f8501601f19908116603f011681019082821181831017156102fd576102fd6102a7565b81604052809350858152868686011115610315575f80fd5b858560208301375f602087830101525050509392505050565b5f806040838503121561033f575f80fd5b823567ffffffffffffffff80821115610356575f80fd5b818501915085601f830112610369575f80fd5b610378868335602085016102bb565b9350602085013591508082111561038d575f80fd5b508301601f8101851361039e575f80fd5b6103ad858235602084016102bb565b9150509250929050565b634e487b7160e01b5f52602160045260245ffdfea2646970667358221220d2cea6a6dc95ff5c52f66ff4a81428ada3503e1e3f93eecf9a4ec0af1a7619d564736f6c63430008180033",
			"opcodes": "PUSH1 0x80 PUSH1 0x40 MSTORE CALLVALUE DUP1 ISZERO PUSH2 0xF JUMPI PUSH0 DUP1 REVERT JUMPDEST POP PUSH2 0x401 DUP1 PUSH2 0x1D PUSH0 CODECOPY PUSH0 RETURN INVALID PUSH1 0x80 PUSH1 0x40 MSTORE CALLVALUE DUP1 ISZERO PUSH2 0xF JUMPI PUSH0 DUP1 REVERT JUMPDEST POP PUSH1 0x4 CALLDATASIZE LT PUSH2 0x29 JUMPI PUSH0 CALLDATALOAD PUSH1 0xE0 SHR DUP1 PUSH4 0x7CEBFB64 EQ PUSH2 0x2D JUMPI JUMPDEST PUSH0 DUP1 REVERT JUMPDEST PUSH2 0x40 PUSH2 0x3B CALLDATASIZE PUSH1 0x4 PUSH2 0x32E JUMP JUMPDEST PUSH2 0x5C JUMP JUMPDEST PUSH1 0x40 MLOAD PUSH1 0x1 PUSH1 0x1 PUSH1 0xA0 SHL SUB SWAP1 SWAP2 AND DUP2 MSTORE PUSH1 0x20 ADD PUSH1 0x40 MLOAD DUP1 SWAP2 SUB SWAP1 RETURN JUMPDEST DUP2 MLOAD PUSH1 0x20 DUP4 ADD KECCAK256 PUSH0 SWAP1 PUSH2 0xA5 DUP4 PUSH2 0x9F DUP4 PUSH32 0x19457468657265756D205369676E6564204D6573736167653A0A333200000000 PUSH0 SWAP1 DUP2 MSTORE PUSH1 0x1C SWAP2 SWAP1 SWAP2 MSTORE PUSH1 0x3C SWAP1 KECCAK256 SWAP1 JUMP JUMPDEST SWAP1 PUSH2 0xAD JUMP JUMPDEST SWAP5 SWAP4 POP POP POP POP JUMP JUMPDEST PUSH0 DUP1 PUSH0 DUP1 PUSH2 0xBB DUP7 DUP7 PUSH2 0xD5 JUMP JUMPDEST SWAP3 POP SWAP3 POP SWAP3 POP PUSH2 0xCB DUP3 DUP3 PUSH2 0x11E JUMP JUMPDEST POP SWAP1 SWAP5 SWAP4 POP POP POP POP JUMP JUMPDEST PUSH0 DUP1 PUSH0 DUP4 MLOAD PUSH1 0x41 SUB PUSH2 0x10C JUMPI PUSH1 0x20 DUP5 ADD MLOAD PUSH1 0x40 DUP6 ADD MLOAD PUSH1 0x60 DUP7 ADD MLOAD PUSH0 BYTE PUSH2 0xFE DUP9 DUP3 DUP6 DUP6 PUSH2 0x1DF JUMP JUMPDEST SWAP6 POP SWAP6 POP SWAP6 POP POP POP POP PUSH2 0x117 JUMP JUMPDEST POP POP DUP2 MLOAD PUSH0 SWAP2 POP PUSH1 0x2 SWAP1 JUMPDEST SWAP3 POP SWAP3 POP SWAP3 JUMP JUMPDEST PUSH0 DUP3 PUSH1 0x3 DUP2 GT ISZERO PUSH2 0x131 JUMPI PUSH2 0x131 PUSH2 0x3B7 JUMP JUMPDEST SUB PUSH2 0x13A JUMPI POP POP JUMP JUMPDEST PUSH1 0x1 DUP3 PUSH1 0x3 DUP2 GT ISZERO PUSH2 0x14E JUMPI PUSH2 0x14E PUSH2 0x3B7 JUMP JUMPDEST SUB PUSH2 0x16C JUMPI PUSH1 0x40 MLOAD PUSH4 0xF645EEDF PUSH1 0xE0 SHL DUP2 MSTORE PUSH1 0x4 ADD PUSH1 0x40 MLOAD DUP1 SWAP2 SUB SWAP1 REVERT JUMPDEST PUSH1 0x2 DUP3 PUSH1 0x3 DUP2 GT ISZERO PUSH2 0x180 JUMPI PUSH2 0x180 PUSH2 0x3B7 JUMP JUMPDEST SUB PUSH2 0x1A6 JUMPI PUSH1 0x40 MLOAD PUSH4 0xFCE698F7 PUSH1 0xE0 SHL DUP2 MSTORE PUSH1 0x4 DUP2 ADD DUP3 SWAP1 MSTORE PUSH1 0x24 ADD JUMPDEST PUSH1 0x40 MLOAD DUP1 SWAP2 SUB SWAP1 REVERT JUMPDEST PUSH1 0x3 DUP3 PUSH1 0x3 DUP2 GT ISZERO PUSH2 0x1BA JUMPI PUSH2 0x1BA PUSH2 0x3B7 JUMP JUMPDEST SUB PUSH2 0x1DB JUMPI PUSH1 0x40 MLOAD PUSH4 0x35E2F383 PUSH1 0xE2 SHL DUP2 MSTORE PUSH1 0x4 DUP2 ADD DUP3 SWAP1 MSTORE PUSH1 0x24 ADD PUSH2 0x19D JUMP JUMPDEST POP POP JUMP JUMPDEST PUSH0 DUP1 DUP1 PUSH32 0x7FFFFFFFFFFFFFFFFFFFFFFFFFFFFFFF5D576E7357A4501DDFE92F46681B20A0 DUP5 GT ISZERO PUSH2 0x218 JUMPI POP PUSH0 SWAP2 POP PUSH1 0x3 SWAP1 POP DUP3 PUSH2 0x29D JUMP JUMPDEST PUSH1 0x40 DUP1 MLOAD PUSH0 DUP1 DUP3 MSTORE PUSH1 0x20 DUP3 ADD DUP1 DUP5 MSTORE DUP11 SWAP1 MSTORE PUSH1 0xFF DUP10 AND SWAP3 DUP3 ADD SWAP3 SWAP1 SWAP3 MSTORE PUSH1 0x60 DUP2 ADD DUP8 SWAP1 MSTORE PUSH1 0x80 DUP2 ADD DUP7 SWAP1 MSTORE PUSH1 0x1 SWAP1 PUSH1 0xA0 ADD PUSH1 0x20 PUSH1 0x40 MLOAD PUSH1 0x20 DUP2 SUB SWAP1 DUP1 DUP5 SUB SWAP1 DUP6 GAS STATICCALL ISZERO DUP1 ISZERO PUSH2 0x269 JUMPI RETURNDATASIZE PUSH0 DUP1 RETURNDATACOPY RETURNDATASIZE PUSH0 REVERT JUMPDEST POP POP PUSH1 0x40 MLOAD PUSH1 0x1F NOT ADD MLOAD SWAP2 POP POP PUSH1 0x1 PUSH1 0x1 PUSH1 0xA0 SHL SUB DUP2 AND PUSH2 0x294 JUMPI POP PUSH0 SWAP3 POP PUSH1 0x1 SWAP2 POP DUP3 SWAP1 POP PUSH2 0x29D JUMP JUMPDEST SWAP3 POP PUSH0 SWAP2 POP DUP2 SWAP1 POP JUMPDEST SWAP5 POP SWAP5 POP SWAP5 SWAP2 POP POP JUMP JUMPDEST PUSH4 0x4E487B71 PUSH1 0xE0 SHL PUSH0 MSTORE PUSH1 0x41 PUSH1 0x4 MSTORE PUSH1 0x24 PUSH0 REVERT JUMPDEST PUSH0 PUSH8 0xFFFFFFFFFFFFFFFF DUP1 DUP5 GT ISZERO PUSH2 0x2D5 JUMPI PUSH2 0x2D5 PUSH2 0x2A7 JUMP JUMPDEST PUSH1 0x40 MLOAD PUSH1 0x1F DUP6 ADD PUSH1 0x1F NOT SWAP1 DUP2 AND PUSH1 0x3F ADD AND DUP2 ADD SWAP1 DUP3 DUP3 GT DUP2 DUP4 LT OR ISZERO PUSH2 0x2FD JUMPI PUSH2 0x2FD PUSH2 0x2A7 JUMP JUMPDEST DUP2 PUSH1 0x40 MSTORE DUP1 SWAP4 POP DUP6 DUP2 MSTORE DUP7 DUP7 DUP7 ADD GT ISZERO PUSH2 0x315 JUMPI PUSH0 DUP1 REVERT JUMPDEST DUP6 DUP6 PUSH1 0x20 DUP4 ADD CALLDATACOPY PUSH0 PUSH1 0x20 DUP8 DUP4 ADD ADD MSTORE POP POP POP SWAP4 SWAP3 POP POP POP JUMP JUMPDEST PUSH0 DUP1 PUSH1 0x40 DUP4 DUP6 SUB SLT ISZERO PUSH2 0x33F JUMPI PUSH0 DUP1 REVERT JUMPDEST DUP3 CALLDATALOAD PUSH8 0xFFFFFFFFFFFFFFFF DUP1 DUP3 GT ISZERO PUSH2 0x356 JUMPI PUSH0 DUP1 REVERT JUMPDEST DUP2 DUP6 ADD SWAP2 POP DUP6 PUSH1 0x1F DUP4 ADD SLT PUSH2 0x369 JUMPI PUSH0 DUP1 REVERT JUMPDEST PUSH2 0x378 DUP7 DUP4 CALLDATALOAD PUSH1 0x20 DUP6 ADD PUSH2 0x2BB JUMP JUMPDEST SWAP4 POP PUSH1 0x20 DUP6 ADD CALLDATALOAD SWAP2 POP DUP1 DUP3 GT ISZERO PUSH2 0x38D JUMPI PUSH0 DUP1 REVERT JUMPDEST POP DUP4 ADD PUSH1 0x1F DUP2 ADD DUP6 SGT PUSH2 0x39E JUMPI PUSH0 DUP1 REVERT JUMPDEST PUSH2 0x3AD DUP6 DUP3 CALLDATALOAD PUSH1 0x20 DUP5 ADD PUSH2 0x2BB JUMP JUMPDEST SWAP2 POP POP SWAP3 POP SWAP3 SWAP1 POP JUMP JUMPDEST PUSH4 0x4E487B71 PUSH1 0xE0 SHL PUSH0 MSTORE PUSH1 0x21 PUSH1 0x4 MSTORE PUSH1 0x24 PUSH0 REVERT INVALID LOG2 PUSH5 0x6970667358 0x22 SLT KECCAK256 0xD2 0xCE 0xA6 0xA6 0xDC SWAP6 SELFDESTRUCT TLOAD MSTORE 0xF6 PUSH16 0xF4A81428ADA3503E1E3F93EECF9A4EC0 0xAF BYTE PUSH23 0x19D564736F6C6343000818003300000000000000000000 "
		},
		"gasEstimates": {
			"creation": {
				"codeDepositCost": "205000",
				"executionCost": "249",
				"totalCost": "205249"
			},
			"external": {
				"recover(string,bytes)": "infinite"
			}
		},
		"methodIdentifiers": {
			"recover(string,bytes)": "7cebfb64"
		}
	},
	"abi": [
		{
			"inputs": [],
			"name": "ECDSAInvalidSignature",
			"type": "error"
		},
		{
			"inputs": [
				{
					"internalType": "uint256",
					"name": "length",
					"type": "uint256"
				}
			],
			"name": "ECDSAInvalidSignatureLength",
			"type": "error"
		},
		{
			"inputs": [
				{
					"internalType": "bytes32",
					"name": "s",
					"type": "bytes32"
				}
			],
			"name": "ECDSAInvalidSignatureS",
			"type": "error"
		},
		{
			"inputs": [
				{
					"internalType": "string",
					"name": "str",
					"type": "string"
				},
				{
					"internalType": "bytes",
					"name": "signature",
					"type": "bytes"
				}
			],
			"name": "recover",
			"outputs": [
				{
					"internalType": "address",
					"name": "",
					"type": "address"
				}
			],
			"stateMutability": "pure",
			"type": "function"
		}
	]
}