{
	"transparent_upgrade2/BoxV2.sol": {
		"BoxV2": {
			"abi": [
				{
					"inputs": [],
					"name": "InvalidInitialization",
					"type": "error"
				},
				{
					"inputs": [],
					"name": "NotInitializing",
					"type": "error"
				},
				{
					"anonymous": false,
					"inputs": [
						{
							"indexed": false,
							"internalType": "uint64",
							"name": "version",
							"type": "uint64"
						}
					],
					"name": "Initialized",
					"type": "event"
				},
				{
					"inputs": [],
					"name": "cal",
					"outputs": [],
					"stateMutability": "nonpayable",
					"type": "function"
				},
				{
					"inputs": [
						{
							"internalType": "uint256",
							"name": "_val",
							"type": "uint256"
						}
					],
					"name": "initialize",
					"outputs": [],
					"stateMutability": "nonpayable",
					"type": "function"
				},
				{
					"inputs": [],
					"name": "showInvoke",
					"outputs": [
						{
							"internalType": "bytes",
							"name": "",
							"type": "bytes"
						}
					],
					"stateMutability": "pure",
					"type": "function"
				},
				{
					"inputs": [],
					"name": "x",
					"outputs": [
						{
							"internalType": "uint256",
							"name": "",
							"type": "uint256"
						}
					],
					"stateMutability": "view",
					"type": "function"
				}
			],
			"devdoc": {
				"errors": {
					"InvalidInitialization()": [
						{
							"details": "The contract is already initialized."
						}
					],
					"NotInitializing()": [
						{
							"details": "The contract is not initializing."
						}
					]
				},
				"events": {
					"Initialized(uint64)": {
						"details": "Triggered when the contract has been initialized or reinitialized."
					}
				},
				"kind": "dev",
				"methods": {},
				"version": 1
			},
			"evm": {
				"assembly": "    /* \"transparent_upgrade2/BoxV2.sol\":128:470  contract BoxV2 is Initializable{... */\n  mstore(0x40, 0x80)\n  callvalue\n  dup1\n  iszero\n  tag_1\n  jumpi\n  0x00\n  dup1\n  revert\ntag_1:\n  pop\n  dataSize(sub_0)\n  dup1\n  dataOffset(sub_0)\n  0x00\n  codecopy\n  0x00\n  return\nstop\n\nsub_0: assembly {\n        /* \"transparent_upgrade2/BoxV2.sol\":128:470  contract BoxV2 is Initializable{... */\n      mstore(0x40, 0x80)\n      callvalue\n      dup1\n      iszero\n      tag_1\n      jumpi\n      0x00\n      dup1\n      revert\n    tag_1:\n      pop\n      jumpi(tag_2, lt(calldatasize, 0x04))\n      shr(0xe0, calldataload(0x00))\n      dup1\n      0x0c55699c\n      eq\n      tag_3\n      jumpi\n      dup1\n      0x75beac87\n      eq\n      tag_4\n      jumpi\n      dup1\n      0xb7c738f4\n      eq\n      tag_5\n      jumpi\n      dup1\n      0xfe4b84df\n      eq\n      tag_6\n      jumpi\n    tag_2:\n      0x00\n      dup1\n      revert\n        /* \"transparent_upgrade2/BoxV2.sol\":166:179  uint public x */\n    tag_3:\n      tag_7\n      sload(0x00)\n      dup2\n      jump\n    tag_7:\n      mload(0x40)\n        /* \"#utility.yul\":160:185   */\n      swap1\n      dup2\n      mstore\n        /* \"#utility.yul\":148:150   */\n      0x20\n        /* \"#utility.yul\":133:151   */\n      add\n        /* \"transparent_upgrade2/BoxV2.sol\":166:179  uint public x */\n    tag_9:\n      mload(0x40)\n      dup1\n      swap2\n      sub\n      swap1\n      return\n        /* \"transparent_upgrade2/BoxV2.sol\":333:467  function showInvoke() external pure returns (bytes memory){... */\n    tag_4:\n      tag_11\n        /* \"transparent_upgrade2/BoxV2.sol\":409:459  abi.encodeWithSelector(this.initialize.selector,1) */\n      0x40\n      dup1\n      mload\n        /* \"transparent_upgrade2/BoxV2.sol\":457:458  1 */\n      0x01\n        /* \"transparent_upgrade2/BoxV2.sol\":409:459  abi.encodeWithSelector(this.initialize.selector,1) */\n      0x24\n      dup1\n      dup4\n      add\n        /* \"#utility.yul\":954:990   */\n      swap2\n      swap1\n      swap2\n      mstore\n        /* \"transparent_upgrade2/BoxV2.sol\":409:459  abi.encodeWithSelector(this.initialize.selector,1) */\n      dup3\n      mload\n      dup1\n      dup4\n      sub\n      swap1\n      swap2\n      add\n      dup2\n      mstore\n        /* \"#utility.yul\":927:945   */\n      0x44\n      swap1\n      swap2\n      add\n        /* \"transparent_upgrade2/BoxV2.sol\":409:459  abi.encodeWithSelector(this.initialize.selector,1) */\n      swap1\n      swap2\n      mstore\n      0x20\n      dup2\n      add\n      dup1\n      mload\n      sub(shl(0xe0, 0x01), 0x01)\n      and\n      shl(0xe0, 0xfe4b84df)\n      or\n      swap1\n      mstore\n      swap1\n        /* \"transparent_upgrade2/BoxV2.sol\":333:467  function showInvoke() external pure returns (bytes memory){... */\n      jump\n    tag_11:\n      mload(0x40)\n      tag_9\n      swap2\n      swap1\n      tag_14\n      jump\t// in\n        /* \"transparent_upgrade2/BoxV2.sol\":275:325  function cal() external {... */\n    tag_5:\n      tag_15\n      tag_16\n      jump\t// in\n    tag_15:\n      stop\n        /* \"transparent_upgrade2/BoxV2.sol\":191:267  function initialize(uint _val) external initializer{... */\n    tag_6:\n      tag_15\n      tag_18\n      calldatasize\n      0x04\n      tag_19\n      jump\t// in\n    tag_18:\n      tag_20\n      jump\t// in\n        /* \"transparent_upgrade2/BoxV2.sol\":275:325  function cal() external {... */\n    tag_16:\n        /* \"transparent_upgrade2/BoxV2.sol\":313:314  x */\n      sload(0x00)\n        /* \"transparent_upgrade2/BoxV2.sol\":313:317  x +2 */\n      tag_25\n      swap1\n        /* \"transparent_upgrade2/BoxV2.sol\":316:317  2 */\n      0x02\n        /* \"transparent_upgrade2/BoxV2.sol\":313:317  x +2 */\n      tag_26\n      jump\t// in\n    tag_25:\n        /* \"transparent_upgrade2/BoxV2.sol\":310:311  x */\n      0x00\n        /* \"transparent_upgrade2/BoxV2.sol\":310:317  x =x +2 */\n      sstore\n        /* \"transparent_upgrade2/BoxV2.sol\":275:325  function cal() external {... */\n      jump\t// out\n        /* \"transparent_upgrade2/BoxV2.sol\":191:267  function initialize(uint _val) external initializer{... */\n    tag_20:\n        /* \"@openzeppelin/contracts/proxy/utils/Initializable.sol\":4158:4188  InitializableStorage storage $ */\n      0x00\n        /* \"@openzeppelin/contracts/proxy/utils/Initializable.sol\":4191:4217  _getInitializableStorage() */\n      tag_28\n        /* \"@openzeppelin/contracts/proxy/utils/Initializable.sol\":4191:4215  _getInitializableStorage */\n      tag_29\n        /* \"@openzeppelin/contracts/proxy/utils/Initializable.sol\":4191:4217  _getInitializableStorage() */\n      jump\t// in\n    tag_28:\n        /* \"@openzeppelin/contracts/proxy/utils/Initializable.sol\":4302:4317  $._initializing */\n      dup1\n      sload\n        /* \"@openzeppelin/contracts/proxy/utils/Initializable.sol\":4158:4217  InitializableStorage storage $ = _getInitializableStorage() */\n      swap1\n      swap2\n      pop\n        /* \"@openzeppelin/contracts/proxy/utils/Initializable.sol\":4302:4317  $._initializing */\n      0xff\n      shl(0x40, 0x01)\n      dup3\n      div\n      and\n        /* \"@openzeppelin/contracts/proxy/utils/Initializable.sol\":4301:4317  !$._initializing */\n      iszero\n      swap1\n        /* \"@openzeppelin/contracts/proxy/utils/Initializable.sol\":4348:4362  $._initialized */\n      0xffffffffffffffff\n      and\n        /* \"@openzeppelin/contracts/proxy/utils/Initializable.sol\":4279:4298  bool isTopLevelCall */\n      0x00\n        /* \"@openzeppelin/contracts/proxy/utils/Initializable.sol\":4724:4740  initialized == 0 */\n      dup2\n      iszero\n        /* \"@openzeppelin/contracts/proxy/utils/Initializable.sol\":4724:4758  initialized == 0 && isTopLevelCall */\n      dup1\n      iszero\n      tag_30\n      jumpi\n      pop\n        /* \"@openzeppelin/contracts/proxy/utils/Initializable.sol\":4744:4758  isTopLevelCall */\n      dup3\n        /* \"@openzeppelin/contracts/proxy/utils/Initializable.sol\":4724:4758  initialized == 0 && isTopLevelCall */\n    tag_30:\n        /* \"@openzeppelin/contracts/proxy/utils/Initializable.sol\":4704:4758  bool initialSetup = initialized == 0 && isTopLevelCall */\n      swap1\n      pop\n        /* \"@openzeppelin/contracts/proxy/utils/Initializable.sol\":4768:4785  bool construction */\n      0x00\n        /* \"@openzeppelin/contracts/proxy/utils/Initializable.sol\":4788:4799  initialized */\n      dup3\n        /* \"@openzeppelin/contracts/proxy/utils/Initializable.sol\":4788:4804  initialized == 1 */\n      0xffffffffffffffff\n      and\n        /* \"@openzeppelin/contracts/proxy/utils/Initializable.sol\":4803:4804  1 */\n      0x01\n        /* \"@openzeppelin/contracts/proxy/utils/Initializable.sol\":4788:4804  initialized == 1 */\n      eq\n        /* \"@openzeppelin/contracts/proxy/utils/Initializable.sol\":4788:4838  initialized == 1 && address(this).code.length == 0 */\n      dup1\n      iszero\n      tag_31\n      jumpi\n      pop\n        /* \"@openzeppelin/contracts/proxy/utils/Initializable.sol\":4816:4820  this */\n      address\n        /* \"@openzeppelin/contracts/proxy/utils/Initializable.sol\":4808:4833  address(this).code.length */\n      extcodesize\n        /* \"@openzeppelin/contracts/proxy/utils/Initializable.sol\":4808:4838  address(this).code.length == 0 */\n      iszero\n        /* \"@openzeppelin/contracts/proxy/utils/Initializable.sol\":4788:4838  initialized == 1 && address(this).code.length == 0 */\n    tag_31:\n        /* \"@openzeppelin/contracts/proxy/utils/Initializable.sol\":4768:4838  bool construction = initialized == 1 && address(this).code.length == 0 */\n      swap1\n      pop\n        /* \"@openzeppelin/contracts/proxy/utils/Initializable.sol\":4854:4866  initialSetup */\n      dup2\n        /* \"@openzeppelin/contracts/proxy/utils/Initializable.sol\":4853:4866  !initialSetup */\n      iszero\n        /* \"@openzeppelin/contracts/proxy/utils/Initializable.sol\":4853:4883  !initialSetup && !construction */\n      dup1\n      iszero\n      tag_32\n      jumpi\n      pop\n        /* \"@openzeppelin/contracts/proxy/utils/Initializable.sol\":4871:4883  construction */\n      dup1\n        /* \"@openzeppelin/contracts/proxy/utils/Initializable.sol\":4870:4883  !construction */\n      iszero\n        /* \"@openzeppelin/contracts/proxy/utils/Initializable.sol\":4853:4883  !initialSetup && !construction */\n    tag_32:\n        /* \"@openzeppelin/contracts/proxy/utils/Initializable.sol\":4849:4940  if (!initialSetup && !construction) {... */\n      iszero\n      tag_33\n      jumpi\n        /* \"@openzeppelin/contracts/proxy/utils/Initializable.sol\":4906:4929  InvalidInitialization() */\n      mload(0x40)\n      shl(0xe0, 0xf92ee8a9)\n      dup2\n      mstore\n      0x04\n      add\n      mload(0x40)\n      dup1\n      swap2\n      sub\n      swap1\n      revert\n        /* \"@openzeppelin/contracts/proxy/utils/Initializable.sol\":4849:4940  if (!initialSetup && !construction) {... */\n    tag_33:\n        /* \"@openzeppelin/contracts/proxy/utils/Initializable.sol\":4949:4967  $._initialized = 1 */\n      dup5\n      sload\n      not(0xffffffffffffffff)\n      and\n        /* \"@openzeppelin/contracts/proxy/utils/Initializable.sol\":4966:4967  1 */\n      0x01\n        /* \"@openzeppelin/contracts/proxy/utils/Initializable.sol\":4949:4967  $._initialized = 1 */\n      or\n      dup6\n      sstore\n        /* \"@openzeppelin/contracts/proxy/utils/Initializable.sol\":4977:5044  if (isTopLevelCall) {... */\n      dup4\n      iszero\n      tag_34\n      jumpi\n        /* \"@openzeppelin/contracts/proxy/utils/Initializable.sol\":5011:5033  $._initializing = true */\n      dup5\n      sload\n      not(shl(0x40, 0xff))\n      and\n      shl(0x40, 0x01)\n      or\n      dup6\n      sstore\n        /* \"@openzeppelin/contracts/proxy/utils/Initializable.sol\":4977:5044  if (isTopLevelCall) {... */\n    tag_34:\n        /* \"transparent_upgrade2/BoxV2.sol\":253:254  x */\n      0x00\n        /* \"transparent_upgrade2/BoxV2.sol\":253:259  x=_val */\n      dup7\n      swap1\n      sstore\n        /* \"@openzeppelin/contracts/proxy/utils/Initializable.sol\":5064:5165  if (isTopLevelCall) {... */\n      dup4\n      iszero\n      tag_36\n      jumpi\n        /* \"@openzeppelin/contracts/proxy/utils/Initializable.sol\":5098:5121  $._initializing = false */\n      dup5\n      sload\n      not(shl(0x40, 0xff))\n      and\n      dup6\n      sstore\n        /* \"@openzeppelin/contracts/proxy/utils/Initializable.sol\":5140:5154  Initialized(1) */\n      mload(0x40)\n      0x01\n        /* \"#utility.yul\":1381:1431   */\n      dup2\n      mstore\n        /* \"@openzeppelin/contracts/proxy/utils/Initializable.sol\":5140:5154  Initialized(1) */\n      0xc7f505b2f371ae2175ee4913f4499e1f2633a7b5936321eed1cdaeb6115181d2\n      swap1\n        /* \"#utility.yul\":1369:1371   */\n      0x20\n        /* \"#utility.yul\":1354:1372   */\n      add\n        /* \"@openzeppelin/contracts/proxy/utils/Initializable.sol\":5140:5154  Initialized(1) */\n      mload(0x40)\n      dup1\n      swap2\n      sub\n      swap1\n      log1\n        /* \"@openzeppelin/contracts/proxy/utils/Initializable.sol\":5064:5165  if (isTopLevelCall) {... */\n    tag_36:\n        /* \"@openzeppelin/contracts/proxy/utils/Initializable.sol\":4092:5171  {... */\n      pop\n      pop\n      pop\n      pop\n      pop\n        /* \"transparent_upgrade2/BoxV2.sol\":191:267  function initialize(uint _val) external initializer{... */\n      pop\n      jump\t// out\n        /* \"@openzeppelin/contracts/proxy/utils/Initializable.sol\":9071:9276  function _getInitializableStorage() private pure returns (InitializableStorage storage $) {... */\n    tag_29:\n        /* \"@openzeppelin/contracts/proxy/utils/Initializable.sol\":9129:9159  InitializableStorage storage $ */\n      0x00\n      dup1\n        /* \"@openzeppelin/contracts/proxy/utils/Initializable.sol\":3147:3213  0xf0c57e16840df040f15088dc2f81fe391c3923bec73e23a9662efc9c229c6a00 */\n      0xf0c57e16840df040f15088dc2f81fe391c3923bec73e23a9662efc9c229c6a00\n        /* \"@openzeppelin/contracts/proxy/utils/Initializable.sol\":9186:9213  _initializableStorageSlot() */\n    tag_40:\n        /* \"@openzeppelin/contracts/proxy/utils/Initializable.sol\":9171:9213  bytes32 slot = _initializableStorageSlot() */\n      swap3\n        /* \"@openzeppelin/contracts/proxy/utils/Initializable.sol\":9071:9276  function _getInitializableStorage() private pure returns (InitializableStorage storage $) {... */\n      swap2\n      pop\n      pop\n      jump\t// out\n        /* \"#utility.yul\":196:612   */\n    tag_14:\n        /* \"#utility.yul\":343:345   */\n      0x20\n        /* \"#utility.yul\":332:341   */\n      dup2\n        /* \"#utility.yul\":325:346   */\n      mstore\n        /* \"#utility.yul\":306:310   */\n      0x00\n        /* \"#utility.yul\":375:381   */\n      dup3\n        /* \"#utility.yul\":369:382   */\n      mload\n        /* \"#utility.yul\":418:424   */\n      dup1\n        /* \"#utility.yul\":413:415   */\n      0x20\n        /* \"#utility.yul\":402:411   */\n      dup5\n        /* \"#utility.yul\":398:416   */\n      add\n        /* \"#utility.yul\":391:425   */\n      mstore\n        /* \"#utility.yul\":477:483   */\n      dup1\n        /* \"#utility.yul\":472:474   */\n      0x20\n        /* \"#utility.yul\":464:470   */\n      dup6\n        /* \"#utility.yul\":460:475   */\n      add\n        /* \"#utility.yul\":455:457   */\n      0x40\n        /* \"#utility.yul\":444:453   */\n      dup6\n        /* \"#utility.yul\":440:458   */\n      add\n        /* \"#utility.yul\":434:484   */\n      mcopy\n        /* \"#utility.yul\":533:534   */\n      0x00\n        /* \"#utility.yul\":528:530   */\n      0x40\n        /* \"#utility.yul\":519:525   */\n      dup3\n        /* \"#utility.yul\":508:517   */\n      dup6\n        /* \"#utility.yul\":504:526   */\n      add\n        /* \"#utility.yul\":500:531   */\n      add\n        /* \"#utility.yul\":493:535   */\n      mstore\n        /* \"#utility.yul\":603:605   */\n      0x40\n        /* \"#utility.yul\":596:598   */\n      0x1f\n        /* \"#utility.yul\":592:599   */\n      not\n        /* \"#utility.yul\":587:589   */\n      0x1f\n        /* \"#utility.yul\":579:585   */\n      dup4\n        /* \"#utility.yul\":575:590   */\n      add\n        /* \"#utility.yul\":571:600   */\n      and\n        /* \"#utility.yul\":560:569   */\n      dup5\n        /* \"#utility.yul\":556:601   */\n      add\n        /* \"#utility.yul\":552:606   */\n      add\n        /* \"#utility.yul\":544:606   */\n      swap2\n      pop\n      pop\n        /* \"#utility.yul\":196:612   */\n      swap3\n      swap2\n      pop\n      pop\n      jump\t// out\n        /* \"#utility.yul\":617:797   */\n    tag_19:\n        /* \"#utility.yul\":676:682   */\n      0x00\n        /* \"#utility.yul\":729:731   */\n      0x20\n        /* \"#utility.yul\":717:726   */\n      dup3\n        /* \"#utility.yul\":708:715   */\n      dup5\n        /* \"#utility.yul\":704:727   */\n      sub\n        /* \"#utility.yul\":700:732   */\n      slt\n        /* \"#utility.yul\":697:749   */\n      iszero\n      tag_47\n      jumpi\n        /* \"#utility.yul\":745:746   */\n      0x00\n        /* \"#utility.yul\":742:743   */\n      dup1\n        /* \"#utility.yul\":735:747   */\n      revert\n        /* \"#utility.yul\":697:749   */\n    tag_47:\n      pop\n        /* \"#utility.yul\":768:791   */\n      calldataload\n      swap2\n        /* \"#utility.yul\":617:797   */\n      swap1\n      pop\n      jump\t// out\n        /* \"#utility.yul\":1001:1223   */\n    tag_26:\n        /* \"#utility.yul\":1066:1075   */\n      dup1\n      dup3\n      add\n        /* \"#utility.yul\":1087:1097   */\n      dup1\n      dup3\n      gt\n        /* \"#utility.yul\":1084:1217   */\n      iszero\n      tag_40\n      jumpi\n        /* \"#utility.yul\":1139:1149   */\n      0x4e487b71\n        /* \"#utility.yul\":1134:1137   */\n      0xe0\n        /* \"#utility.yul\":1130:1150   */\n      shl\n        /* \"#utility.yul\":1127:1128   */\n      0x00\n        /* \"#utility.yul\":1120:1151   */\n      mstore\n        /* \"#utility.yul\":1174:1178   */\n      0x11\n        /* \"#utility.yul\":1171:1172   */\n      0x04\n        /* \"#utility.yul\":1164:1179   */\n      mstore\n        /* \"#utility.yul\":1202:1206   */\n      0x24\n        /* \"#utility.yul\":1199:1200   */\n      0x00\n        /* \"#utility.yul\":1192:1207   */\n      revert\n\n    auxdata: 0xa26469706673582212203826142d7410529c65a9c6aa2cd838272b62f18e0a33ed70bad487e626523ee364736f6c634300081a0033\n}\n",
				"bytecode": {
					"linkReferences": {},
					"object": "6080604052348015600e575f80fd5b506102a48061001c5f395ff3fe608060405234801561000f575f80fd5b506004361061004a575f3560e01c80630c55699c1461004e57806375beac8714610069578063b7c738f4146100b7578063fe4b84df146100c1575b5f80fd5b6100565f5481565b6040519081526020015b60405180910390f35b6100aa6040805160016024808301919091528251808303909101815260449091019091526020810180516001600160e01b031663fe4b84df60e01b17905290565b6040516100609190610203565b6100bf6100d4565b005b6100bf6100cf366004610238565b6100e5565b5f546100e190600261024f565b5f55565b5f6100ee6101d9565b805490915060ff600160401b820416159067ffffffffffffffff165f811580156101155750825b90505f8267ffffffffffffffff1660011480156101315750303b155b90508115801561013f575080155b1561015d5760405163f92ee8a960e01b815260040160405180910390fd5b845467ffffffffffffffff19166001178555831561018757845460ff60401b1916600160401b1785555b5f86905583156101d157845460ff60401b19168555604051600181527fc7f505b2f371ae2175ee4913f4499e1f2633a7b5936321eed1cdaeb6115181d29060200160405180910390a15b505050505050565b5f807ff0c57e16840df040f15088dc2f81fe391c3923bec73e23a9662efc9c229c6a005b92915050565b602081525f82518060208401528060208501604085015e5f604082850101526040601f19601f83011684010191505092915050565b5f60208284031215610248575f80fd5b5035919050565b808201808211156101fd57634e487b7160e01b5f52601160045260245ffdfea26469706673582212203826142d7410529c65a9c6aa2cd838272b62f18e0a33ed70bad487e626523ee364736f6c634300081a0033",
					"opcodes": "PUSH1 0x80 PUSH1 0x40 MSTORE CALLVALUE DUP1 ISZERO PUSH1 0xE JUMPI PUSH0 DUP1 REVERT JUMPDEST POP PUSH2 0x2A4 DUP1 PUSH2 0x1C PUSH0 CODECOPY PUSH0 RETURN INVALID PUSH1 0x80 PUSH1 0x40 MSTORE CALLVALUE DUP1 ISZERO PUSH2 0xF JUMPI PUSH0 DUP1 REVERT JUMPDEST POP PUSH1 0x4 CALLDATASIZE LT PUSH2 0x4A JUMPI PUSH0 CALLDATALOAD PUSH1 0xE0 SHR DUP1 PUSH4 0xC55699C EQ PUSH2 0x4E JUMPI DUP1 PUSH4 0x75BEAC87 EQ PUSH2 0x69 JUMPI DUP1 PUSH4 0xB7C738F4 EQ PUSH2 0xB7 JUMPI DUP1 PUSH4 0xFE4B84DF EQ PUSH2 0xC1 JUMPI JUMPDEST PUSH0 DUP1 REVERT JUMPDEST PUSH2 0x56 PUSH0 SLOAD DUP2 JUMP JUMPDEST PUSH1 0x40 MLOAD SWAP1 DUP2 MSTORE PUSH1 0x20 ADD JUMPDEST PUSH1 0x40 MLOAD DUP1 SWAP2 SUB SWAP1 RETURN JUMPDEST PUSH2 0xAA PUSH1 0x40 DUP1 MLOAD PUSH1 0x1 PUSH1 0x24 DUP1 DUP4 ADD SWAP2 SWAP1 SWAP2 MSTORE DUP3 MLOAD DUP1 DUP4 SUB SWAP1 SWAP2 ADD DUP2 MSTORE PUSH1 0x44 SWAP1 SWAP2 ADD SWAP1 SWAP2 MSTORE PUSH1 0x20 DUP2 ADD DUP1 MLOAD PUSH1 0x1 PUSH1 0x1 PUSH1 0xE0 SHL SUB AND PUSH4 0xFE4B84DF PUSH1 0xE0 SHL OR SWAP1 MSTORE SWAP1 JUMP JUMPDEST PUSH1 0x40 MLOAD PUSH2 0x60 SWAP2 SWAP1 PUSH2 0x203 JUMP JUMPDEST PUSH2 0xBF PUSH2 0xD4 JUMP JUMPDEST STOP JUMPDEST PUSH2 0xBF PUSH2 0xCF CALLDATASIZE PUSH1 0x4 PUSH2 0x238 JUMP JUMPDEST PUSH2 0xE5 JUMP JUMPDEST PUSH0 SLOAD PUSH2 0xE1 SWAP1 PUSH1 0x2 PUSH2 0x24F JUMP JUMPDEST PUSH0 SSTORE JUMP JUMPDEST PUSH0 PUSH2 0xEE PUSH2 0x1D9 JUMP JUMPDEST DUP1 SLOAD SWAP1 SWAP2 POP PUSH1 0xFF PUSH1 0x1 PUSH1 0x40 SHL DUP3 DIV AND ISZERO SWAP1 PUSH8 0xFFFFFFFFFFFFFFFF AND PUSH0 DUP2 ISZERO DUP1 ISZERO PUSH2 0x115 JUMPI POP DUP3 JUMPDEST SWAP1 POP PUSH0 DUP3 PUSH8 0xFFFFFFFFFFFFFFFF AND PUSH1 0x1 EQ DUP1 ISZERO PUSH2 0x131 JUMPI POP ADDRESS EXTCODESIZE ISZERO JUMPDEST SWAP1 POP DUP2 ISZERO DUP1 ISZERO PUSH2 0x13F JUMPI POP DUP1 ISZERO JUMPDEST ISZERO PUSH2 0x15D JUMPI PUSH1 0x40 MLOAD PUSH4 0xF92EE8A9 PUSH1 0xE0 SHL DUP2 MSTORE PUSH1 0x4 ADD PUSH1 0x40 MLOAD DUP1 SWAP2 SUB SWAP1 REVERT JUMPDEST DUP5 SLOAD PUSH8 0xFFFFFFFFFFFFFFFF NOT AND PUSH1 0x1 OR DUP6 SSTORE DUP4 ISZERO PUSH2 0x187 JUMPI DUP5 SLOAD PUSH1 0xFF PUSH1 0x40 SHL NOT AND PUSH1 0x1 PUSH1 0x40 SHL OR DUP6 SSTORE JUMPDEST PUSH0 DUP7 SWAP1 SSTORE DUP4 ISZERO PUSH2 0x1D1 JUMPI DUP5 SLOAD PUSH1 0xFF PUSH1 0x40 SHL NOT AND DUP6 SSTORE PUSH1 0x40 MLOAD PUSH1 0x1 DUP2 MSTORE PUSH32 0xC7F505B2F371AE2175EE4913F4499E1F2633A7B5936321EED1CDAEB6115181D2 SWAP1 PUSH1 0x20 ADD PUSH1 0x40 MLOAD DUP1 SWAP2 SUB SWAP1 LOG1 JUMPDEST POP POP POP POP POP POP JUMP JUMPDEST PUSH0 DUP1 PUSH32 0xF0C57E16840DF040F15088DC2F81FE391C3923BEC73E23A9662EFC9C229C6A00 JUMPDEST SWAP3 SWAP2 POP POP JUMP JUMPDEST PUSH1 0x20 DUP2 MSTORE PUSH0 DUP3 MLOAD DUP1 PUSH1 0x20 DUP5 ADD MSTORE DUP1 PUSH1 0x20 DUP6 ADD PUSH1 0x40 DUP6 ADD MCOPY PUSH0 PUSH1 0x40 DUP3 DUP6 ADD ADD MSTORE PUSH1 0x40 PUSH1 0x1F NOT PUSH1 0x1F DUP4 ADD AND DUP5 ADD ADD SWAP2 POP POP SWAP3 SWAP2 POP POP JUMP JUMPDEST PUSH0 PUSH1 0x20 DUP3 DUP5 SUB SLT ISZERO PUSH2 0x248 JUMPI PUSH0 DUP1 REVERT JUMPDEST POP CALLDATALOAD SWAP2 SWAP1 POP JUMP JUMPDEST DUP1 DUP3 ADD DUP1 DUP3 GT ISZERO PUSH2 0x1FD JUMPI PUSH4 0x4E487B71 PUSH1 0xE0 SHL PUSH0 MSTORE PUSH1 0x11 PUSH1 0x4 MSTORE PUSH1 0x24 PUSH0 REVERT INVALID LOG2 PUSH5 0x6970667358 0x22 SLT KECCAK256 CODESIZE 0x26 EQ 0x2D PUSH21 0x10529C65A9C6AA2CD838272B62F18E0A33ED70BAD4 DUP8 0xE6 0x26 MSTORE RETURNDATACOPY 0xE3 PUSH5 0x736F6C6343 STOP ADDMOD BYTE STOP CALLER "
				},
				"gasEstimates": {
					"creation": {
						"codeDepositCost": "135200",
						"executionCost": "181",
						"totalCost": "135381"
					},
					"external": {
						"cal()": "24444",
						"initialize(uint256)": "101084",
						"showInvoke()": "infinite",
						"x()": "2260"
					}
				},
				"methodIdentifiers": {
					"cal()": "b7c738f4",
					"initialize(uint256)": "fe4b84df",
					"showInvoke()": "75beac87",
					"x()": "0c55699c"
				}
			},
			"storageLayout": {
				"storage": [
					{
						"astId": 274,
						"contract": "transparent_upgrade2/BoxV2.sol:BoxV2",
						"label": "x",
						"offset": 0,
						"slot": "0",
						"type": "t_uint256"
					}
				],
				"types": {
					"t_uint256": {
						"encoding": "inplace",
						"label": "uint256",
						"numberOfBytes": "32"
					}
				}
			},
			"userdoc": {
				"kind": "user",
				"methods": {},
				"version": 1
			}
		}
	}
}