{
	"data": {
		"bytecode": {
			"linkReferences": {},
			"object": "6080604052348015600e575f80fd5b506102118061001c5f395ff3fe608060405234801561000f575f80fd5b5060043610610085575f3560e01c80639ed41ba1116100585780639ed41ba1146100e5578063a589d212146100f7578063bcc68a1b14610109578063ecc43a0e1461011b575f80fd5b8063097c2cb2146100895780631685fa98146100ae57806321a95296146100c0578063903b9842146100d3575b5f80fd5b61009c610097366004610166565b61012e565b60405190815260200160405180910390f35b61009c6100bc366004610166565b1c90565b61009c6100ce366004610166565b610138565b61009c6100e1366004610166565b1690565b61009c6100f3366004610166565b1890565b61009c610105366004610166565b1b90565b61009c610117366004610186565b1990565b61009c610129366004610166565b610151565b8181175b92915050565b5f80610147600180851b61019d565b9093169392505050565b5f61015f6001831b846101bc565b9392505050565b5f8060408385031215610177575f80fd5b50508035926020909101359150565b5f60208284031215610196575f80fd5b5035919050565b8181038181111561013257634e487b7160e01b5f52601160045260245ffd5b5f826101d657634e487b7160e01b5f52601260045260245ffd5b50069056fea2646970667358221220624b690a75eb79a7f104384b474ab6a773d4f3fdaa7c389b928a46a13f73cedc64736f6c634300081a0033",
			"opcodes": "PUSH1 0x80 PUSH1 0x40 MSTORE CALLVALUE DUP1 ISZERO PUSH1 0xE JUMPI PUSH0 DUP1 REVERT JUMPDEST POP PUSH2 0x211 DUP1 PUSH2 0x1C PUSH0 CODECOPY PUSH0 RETURN INVALID PUSH1 0x80 PUSH1 0x40 MSTORE CALLVALUE DUP1 ISZERO PUSH2 0xF JUMPI PUSH0 DUP1 REVERT JUMPDEST POP PUSH1 0x4 CALLDATASIZE LT PUSH2 0x85 JUMPI PUSH0 CALLDATALOAD PUSH1 0xE0 SHR DUP1 PUSH4 0x9ED41BA1 GT PUSH2 0x58 JUMPI DUP1 PUSH4 0x9ED41BA1 EQ PUSH2 0xE5 JUMPI DUP1 PUSH4 0xA589D212 EQ PUSH2 0xF7 JUMPI DUP1 PUSH4 0xBCC68A1B EQ PUSH2 0x109 JUMPI DUP1 PUSH4 0xECC43A0E EQ PUSH2 0x11B JUMPI PUSH0 DUP1 REVERT JUMPDEST DUP1 PUSH4 0x97C2CB2 EQ PUSH2 0x89 JUMPI DUP1 PUSH4 0x1685FA98 EQ PUSH2 0xAE JUMPI DUP1 PUSH4 0x21A95296 EQ PUSH2 0xC0 JUMPI DUP1 PUSH4 0x903B9842 EQ PUSH2 0xD3 JUMPI JUMPDEST PUSH0 DUP1 REVERT JUMPDEST PUSH2 0x9C PUSH2 0x97 CALLDATASIZE PUSH1 0x4 PUSH2 0x166 JUMP JUMPDEST PUSH2 0x12E JUMP JUMPDEST PUSH1 0x40 MLOAD SWAP1 DUP2 MSTORE PUSH1 0x20 ADD PUSH1 0x40 MLOAD DUP1 SWAP2 SUB SWAP1 RETURN JUMPDEST PUSH2 0x9C PUSH2 0xBC CALLDATASIZE PUSH1 0x4 PUSH2 0x166 JUMP JUMPDEST SHR SWAP1 JUMP JUMPDEST PUSH2 0x9C PUSH2 0xCE CALLDATASIZE PUSH1 0x4 PUSH2 0x166 JUMP JUMPDEST PUSH2 0x138 JUMP JUMPDEST PUSH2 0x9C PUSH2 0xE1 CALLDATASIZE PUSH1 0x4 PUSH2 0x166 JUMP JUMPDEST AND SWAP1 JUMP JUMPDEST PUSH2 0x9C PUSH2 0xF3 CALLDATASIZE PUSH1 0x4 PUSH2 0x166 JUMP JUMPDEST XOR SWAP1 JUMP JUMPDEST PUSH2 0x9C PUSH2 0x105 CALLDATASIZE PUSH1 0x4 PUSH2 0x166 JUMP JUMPDEST SHL SWAP1 JUMP JUMPDEST PUSH2 0x9C PUSH2 0x117 CALLDATASIZE PUSH1 0x4 PUSH2 0x186 JUMP JUMPDEST NOT SWAP1 JUMP JUMPDEST PUSH2 0x9C PUSH2 0x129 CALLDATASIZE PUSH1 0x4 PUSH2 0x166 JUMP JUMPDEST PUSH2 0x151 JUMP JUMPDEST DUP2 DUP2 OR JUMPDEST SWAP3 SWAP2 POP POP JUMP JUMPDEST PUSH0 DUP1 PUSH2 0x147 PUSH1 0x1 DUP1 DUP6 SHL PUSH2 0x19D JUMP JUMPDEST SWAP1 SWAP4 AND SWAP4 SWAP3 POP POP POP JUMP JUMPDEST PUSH0 PUSH2 0x15F PUSH1 0x1 DUP4 SHL DUP5 PUSH2 0x1BC JUMP JUMPDEST SWAP4 SWAP3 POP POP POP JUMP JUMPDEST PUSH0 DUP1 PUSH1 0x40 DUP4 DUP6 SUB SLT ISZERO PUSH2 0x177 JUMPI PUSH0 DUP1 REVERT JUMPDEST POP POP DUP1 CALLDATALOAD SWAP3 PUSH1 0x20 SWAP1 SWAP2 ADD CALLDATALOAD SWAP2 POP JUMP JUMPDEST PUSH0 PUSH1 0x20 DUP3 DUP5 SUB SLT ISZERO PUSH2 0x196 JUMPI PUSH0 DUP1 REVERT JUMPDEST POP CALLDATALOAD SWAP2 SWAP1 POP JUMP JUMPDEST DUP2 DUP2 SUB DUP2 DUP2 GT ISZERO PUSH2 0x132 JUMPI PUSH4 0x4E487B71 PUSH1 0xE0 SHL PUSH0 MSTORE PUSH1 0x11 PUSH1 0x4 MSTORE PUSH1 0x24 PUSH0 REVERT JUMPDEST PUSH0 DUP3 PUSH2 0x1D6 JUMPI PUSH4 0x4E487B71 PUSH1 0xE0 SHL PUSH0 MSTORE PUSH1 0x12 PUSH1 0x4 MSTORE PUSH1 0x24 PUSH0 REVERT JUMPDEST POP MOD SWAP1 JUMP INVALID LOG2 PUSH5 0x6970667358 0x22 SLT KECCAK256 PUSH3 0x4B690A PUSH22 0xEB79A7F104384B474AB6A773D4F3FDAA7C389B928A46 LOG1 EXTCODEHASH PUSH20 0xCEDC64736F6C634300081A003300000000000000 "
		},
		"gasEstimates": {
			"creation": {
				"codeDepositCost": "105800",
				"executionCost": "151",
				"totalCost": "105951"
			},
			"external": {
				"and(uint256,uint256)": "348",
				"getLastNBits(uint256,uint256)": "439",
				"getLastNBitsUsingMod(uint256,uint256)": "432",
				"not(uint256)": "302",
				"or(uint256,uint256)": "308",
				"shiftLeft(uint256,uint256)": "303",
				"shiftRight(uint256,uint256)": "304",
				"xor(uint256,uint256)": "281"
			}
		},
		"methodIdentifiers": {
			"and(uint256,uint256)": "903b9842",
			"getLastNBits(uint256,uint256)": "21a95296",
			"getLastNBitsUsingMod(uint256,uint256)": "ecc43a0e",
			"not(uint256)": "bcc68a1b",
			"or(uint256,uint256)": "097c2cb2",
			"shiftLeft(uint256,uint256)": "a589d212",
			"shiftRight(uint256,uint256)": "1685fa98",
			"xor(uint256,uint256)": "9ed41ba1"
		}
	},
	"abi": [
		{
			"inputs": [
				{
					"internalType": "uint256",
					"name": "x",
					"type": "uint256"
				},
				{
					"internalType": "uint256",
					"name": "y",
					"type": "uint256"
				}
			],
			"name": "and",
			"outputs": [
				{
					"internalType": "uint256",
					"name": "",
					"type": "uint256"
				}
			],
			"stateMutability": "pure",
			"type": "function"
		},
		{
			"inputs": [
				{
					"internalType": "uint256",
					"name": "x",
					"type": "uint256"
				},
				{
					"internalType": "uint256",
					"name": "y",
					"type": "uint256"
				}
			],
			"name": "getLastNBits",
			"outputs": [
				{
					"internalType": "uint256",
					"name": "",
					"type": "uint256"
				}
			],
			"stateMutability": "pure",
			"type": "function"
		},
		{
			"inputs": [
				{
					"internalType": "uint256",
					"name": "x",
					"type": "uint256"
				},
				{
					"internalType": "uint256",
					"name": "y",
					"type": "uint256"
				}
			],
			"name": "getLastNBitsUsingMod",
			"outputs": [
				{
					"internalType": "uint256",
					"name": "",
					"type": "uint256"
				}
			],
			"stateMutability": "pure",
			"type": "function"
		},
		{
			"inputs": [
				{
					"internalType": "uint256",
					"name": "x",
					"type": "uint256"
				}
			],
			"name": "not",
			"outputs": [
				{
					"internalType": "uint256",
					"name": "",
					"type": "uint256"
				}
			],
			"stateMutability": "pure",
			"type": "function"
		},
		{
			"inputs": [
				{
					"internalType": "uint256",
					"name": "x",
					"type": "uint256"
				},
				{
					"internalType": "uint256",
					"name": "y",
					"type": "uint256"
				}
			],
			"name": "or",
			"outputs": [
				{
					"internalType": "uint256",
					"name": "",
					"type": "uint256"
				}
			],
			"stateMutability": "pure",
			"type": "function"
		},
		{
			"inputs": [
				{
					"internalType": "uint256",
					"name": "x",
					"type": "uint256"
				},
				{
					"internalType": "uint256",
					"name": "y",
					"type": "uint256"
				}
			],
			"name": "shiftLeft",
			"outputs": [
				{
					"internalType": "uint256",
					"name": "",
					"type": "uint256"
				}
			],
			"stateMutability": "pure",
			"type": "function"
		},
		{
			"inputs": [
				{
					"internalType": "uint256",
					"name": "x",
					"type": "uint256"
				},
				{
					"internalType": "uint256",
					"name": "y",
					"type": "uint256"
				}
			],
			"name": "shiftRight",
			"outputs": [
				{
					"internalType": "uint256",
					"name": "",
					"type": "uint256"
				}
			],
			"stateMutability": "pure",
			"type": "function"
		},
		{
			"inputs": [
				{
					"internalType": "uint256",
					"name": "x",
					"type": "uint256"
				},
				{
					"internalType": "uint256",
					"name": "y",
					"type": "uint256"
				}
			],
			"name": "xor",
			"outputs": [
				{
					"internalType": "uint256",
					"name": "",
					"type": "uint256"
				}
			],
			"stateMutability": "pure",
			"type": "function"
		}
	]
}