{
	"data": {
		"bytecode": {
			"linkReferences": {},
			"object": "6080604052348015600e575f80fd5b5061018c8061001c5f395ff3fe608060405234801561000f575f80fd5b5060043610610029575f3560e01c8063483d868d1461002d575b5f80fd5b61004061003b366004610114565b610056565b60405160ff909116815260200160405180910390f35b5f600160801b821061007557608091821c91610072908261012b565b90505b68010000000000000000821061009857604091821c91610095908261012b565b90505b64010000000082106100b757602091821c916100b4908261012b565b90505b6201000082106100d457601091821c916100d1908261012b565b90505b61010082106100f057600891821c916100ed908261012b565b90505b600f821160021b90811760039290911c918211600190811b9182179290911c110190565b5f60208284031215610124575f80fd5b5035919050565b60ff818116838216019081111561015057634e487b7160e01b5f52601160045260245ffd5b9291505056fea26469706673582212202053dbe2f51bbe76d17ab0f19afb53cbf81019698f65b1e109f8706b38ad333964736f6c634300081a0033",
			"opcodes": "PUSH1 0x80 PUSH1 0x40 MSTORE CALLVALUE DUP1 ISZERO PUSH1 0xE JUMPI PUSH0 DUP1 REVERT JUMPDEST POP PUSH2 0x18C DUP1 PUSH2 0x1C PUSH0 CODECOPY PUSH0 RETURN INVALID PUSH1 0x80 PUSH1 0x40 MSTORE CALLVALUE DUP1 ISZERO PUSH2 0xF JUMPI PUSH0 DUP1 REVERT JUMPDEST POP PUSH1 0x4 CALLDATASIZE LT PUSH2 0x29 JUMPI PUSH0 CALLDATALOAD PUSH1 0xE0 SHR DUP1 PUSH4 0x483D868D EQ PUSH2 0x2D JUMPI JUMPDEST PUSH0 DUP1 REVERT JUMPDEST PUSH2 0x40 PUSH2 0x3B CALLDATASIZE PUSH1 0x4 PUSH2 0x114 JUMP JUMPDEST PUSH2 0x56 JUMP JUMPDEST PUSH1 0x40 MLOAD PUSH1 0xFF SWAP1 SWAP2 AND DUP2 MSTORE PUSH1 0x20 ADD PUSH1 0x40 MLOAD DUP1 SWAP2 SUB SWAP1 RETURN JUMPDEST PUSH0 PUSH1 0x1 PUSH1 0x80 SHL DUP3 LT PUSH2 0x75 JUMPI PUSH1 0x80 SWAP2 DUP3 SHR SWAP2 PUSH2 0x72 SWAP1 DUP3 PUSH2 0x12B JUMP JUMPDEST SWAP1 POP JUMPDEST PUSH9 0x10000000000000000 DUP3 LT PUSH2 0x98 JUMPI PUSH1 0x40 SWAP2 DUP3 SHR SWAP2 PUSH2 0x95 SWAP1 DUP3 PUSH2 0x12B JUMP JUMPDEST SWAP1 POP JUMPDEST PUSH5 0x100000000 DUP3 LT PUSH2 0xB7 JUMPI PUSH1 0x20 SWAP2 DUP3 SHR SWAP2 PUSH2 0xB4 SWAP1 DUP3 PUSH2 0x12B JUMP JUMPDEST SWAP1 POP JUMPDEST PUSH3 0x10000 DUP3 LT PUSH2 0xD4 JUMPI PUSH1 0x10 SWAP2 DUP3 SHR SWAP2 PUSH2 0xD1 SWAP1 DUP3 PUSH2 0x12B JUMP JUMPDEST SWAP1 POP JUMPDEST PUSH2 0x100 DUP3 LT PUSH2 0xF0 JUMPI PUSH1 0x8 SWAP2 DUP3 SHR SWAP2 PUSH2 0xED SWAP1 DUP3 PUSH2 0x12B JUMP JUMPDEST SWAP1 POP JUMPDEST PUSH1 0xF DUP3 GT PUSH1 0x2 SHL SWAP1 DUP2 OR PUSH1 0x3 SWAP3 SWAP1 SWAP2 SHR SWAP2 DUP3 GT PUSH1 0x1 SWAP1 DUP2 SHL SWAP2 DUP3 OR SWAP3 SWAP1 SWAP2 SHR GT ADD SWAP1 JUMP JUMPDEST PUSH0 PUSH1 0x20 DUP3 DUP5 SUB SLT ISZERO PUSH2 0x124 JUMPI PUSH0 DUP1 REVERT JUMPDEST POP CALLDATALOAD SWAP2 SWAP1 POP JUMP JUMPDEST PUSH1 0xFF DUP2 DUP2 AND DUP4 DUP3 AND ADD SWAP1 DUP2 GT ISZERO PUSH2 0x150 JUMPI PUSH4 0x4E487B71 PUSH1 0xE0 SHL PUSH0 MSTORE PUSH1 0x11 PUSH1 0x4 MSTORE PUSH1 0x24 PUSH0 REVERT JUMPDEST SWAP3 SWAP2 POP POP JUMP INVALID LOG2 PUSH5 0x6970667358 0x22 SLT KECCAK256 KECCAK256 MSTORE8 0xDB 0xE2 CREATE2 SHL 0xBE PUSH23 0xD17AB0F19AFB53CBF81019698F65B1E109F8706B38AD33 CODECOPY PUSH5 0x736F6C6343 STOP ADDMOD BYTE STOP CALLER "
		},
		"gasEstimates": {
			"creation": {
				"codeDepositCost": "79200",
				"executionCost": "127",
				"totalCost": "79327"
			},
			"external": {
				"findMostSignificantBit(uint256)": "infinite"
			}
		},
		"methodIdentifiers": {
			"findMostSignificantBit(uint256)": "483d868d"
		}
	},
	"abi": [
		{
			"inputs": [
				{
					"internalType": "uint256",
					"name": "x",
					"type": "uint256"
				}
			],
			"name": "findMostSignificantBit",
			"outputs": [
				{
					"internalType": "uint8",
					"name": "r",
					"type": "uint8"
				}
			],
			"stateMutability": "pure",
			"type": "function"
		}
	]
}