{
	"data": {
		"bytecode": {
			"linkReferences": {},
			"object": "60c060405234801561000f575f80fd5b50604051610bf4380380610bf483398101604081905261002e91610071565b5f80546001600160a01b031916331790556001600160a01b039182166080521660a0526100a2565b80516001600160a01b038116811461006c575f80fd5b919050565b5f8060408385031215610082575f80fd5b61008b83610056565b915061009960208401610056565b90509250929050565b60805160a051610b156100df5f395f8181610296015281816105f8015261078501525f81816101de0152818161042f01526108c40152610b155ff3fe608060405234801561000f575f80fd5b5060043610610126575f3560e01c80637519ab50116100a9578063a694fc3a1161006e578063a694fc3a14610263578063c0ed00c914610276578063cd3daf9d14610289578063d1af0c7d14610291578063df136d65146102b8575f80fd5b80637519ab50146102185780637b0a47ee1461022157806380faa57d1461022a5780638b876347146102325780638da5cb5b14610251575f80fd5b80633c6b16ab116100ef5780633c6b16ab146101965780633d18b912146101a957806367d3b488146101b157806370a08231146101ba57806372f702f3146101d9575f80fd5b80628cc2621461012a5780630700037d146101505780630fb5a6b41461016f57806318160ddd146101785780632e1a7d4d14610181575b5f80fd5b61013d6101383660046109f5565b6102c1565b6040519081526020015b60405180910390f35b61013d61015e3660046109f5565b60076020525f908152604090205481565b61013d60015481565b61013d60095481565b61019461018f366004610a22565b61033c565b005b6101946101a4366004610a22565b6104a7565b6101946106df565b61013d60025481565b61013d6101c83660046109f5565b60086020525f908152604090205481565b6102007f000000000000000000000000000000000000000000000000000000000000000081565b6040516001600160a01b039091168152602001610147565b61013d60035481565b61013d60045481565b61013d6107b8565b61013d6102403660046109f5565b60066020525f908152604090205481565b5f54610200906001600160a01b031681565b610194610271366004610a22565b6107d0565b610194610284366004610a22565b6108fb565b61013d610996565b6102007f000000000000000000000000000000000000000000000000000000000000000081565b61013d60055481565b6001600160a01b0381165f908152600760209081526040808320546006909252822054670de0b6b3a7640000906102f6610996565b6103009190610a4d565b6001600160a01b0385165f908152600860205260409020546103229190610a60565b61032c9190610a77565b6103369190610a96565b92915050565b33610345610996565b6005556103506107b8565b6003556001600160a01b038116156103965761036b816102c1565b6001600160a01b0382165f908152600760209081526040808320939093556005546006909152919020555b5f82116103d85760405162461bcd60e51b815260206004820152600b60248201526a416d6f756e74207a65726f60a81b60448201526064015b60405180910390fd5b335f90815260086020526040812080548492906103f6908490610a4d565b925050819055508160095f82825461040e9190610a4d565b909155505060405163a9059cbb60e01b8152336004820152602481018390527f00000000000000000000000000000000000000000000000000000000000000006001600160a01b03169063a9059cbb906044015b6020604051808303815f875af115801561047e573d5f803e3d5ffd5b505050506040513d601f19601f820116820180604052508101906104a29190610aa9565b505050565b5f546001600160a01b031633146104ec5760405162461bcd60e51b81526020600482015260096024820152682737ba1037bbb732b960b91b60448201526064016103cf565b5f6104f5610996565b6005556105006107b8565b6003556001600160a01b038116156105465761051b816102c1565b6001600160a01b0382165f908152600760209081526040808320939093556005546006909152919020555b60025442106105645760015461055c9083610a77565b60045561059f565b5f600454426002546105769190610a4d565b6105809190610a60565b6001549091506105908483610a96565b61059a9190610a77565b600455505b5f600454116105e35760405162461bcd60e51b815260206004820152601060248201526f5265776172642072617465207a65726f60801b60448201526064016103cf565b6040516370a0823160e01b81523060048201527f00000000000000000000000000000000000000000000000000000000000000006001600160a01b0316906370a0823190602401602060405180830381865afa158015610645573d5f803e3d5ffd5b505050506040513d601f19601f820116820180604052508101906106699190610ac8565b6001546004546106799190610a60565b11156106c75760405162461bcd60e51b815260206004820152601a60248201527f496e73756666696369656e742072657761726420746f6b656e7300000000000060448201526064016103cf565b6001546106d49042610a96565b600255505042600355565b336106e8610996565b6005556106f36107b8565b6003556001600160a01b038116156107395761070e816102c1565b6001600160a01b0382165f908152600760209081526040808320939093556005546006909152919020555b335f9081526007602052604090205480156107b457335f81815260076020526040808220919091555163a9059cbb60e01b81526004810191909152602481018290526001600160a01b037f0000000000000000000000000000000000000000000000000000000000000000169063a9059cbb90604401610462565b5050565b5f60025442106107c9575060025490565b425b905090565b336107d9610996565b6005556107e46107b8565b6003556001600160a01b0381161561082a576107ff816102c1565b6001600160a01b0382165f908152600760209081526040808320939093556005546006909152919020555b5f82116108675760405162461bcd60e51b815260206004820152600b60248201526a416d6f756e74207a65726f60a81b60448201526064016103cf565b335f9081526008602052604081208054849290610885908490610a96565b925050819055508160095f82825461089d9190610a96565b90915550506040516323b872dd60e01b8152336004820152306024820152604481018390527f00000000000000000000000000000000000000000000000000000000000000006001600160a01b0316906323b872dd90606401610462565b5f546001600160a01b031633146109405760405162461bcd60e51b81526020600482015260096024820152682737ba1037bbb732b960b91b60448201526064016103cf565b42600254106109915760405162461bcd60e51b815260206004820152601e60248201527f50726576696f75732072657761726473206e6f7420636f6d706c65746564000060448201526064016103cf565b600155565b5f6009545f036109a7575060055490565b6009546003546109b56107b8565b6109bf9190610a4d565b6004546109cc9190610a60565b6109de90670de0b6b3a7640000610a60565b6109e89190610a77565b6005546107cb9190610a96565b5f60208284031215610a05575f80fd5b81356001600160a01b0381168114610a1b575f80fd5b9392505050565b5f60208284031215610a32575f80fd5b5035919050565b634e487b7160e01b5f52601160045260245ffd5b8181038181111561033657610336610a39565b808202811582820484141761033657610336610a39565b5f82610a9157634e487b7160e01b5f52601260045260245ffd5b500490565b8082018082111561033657610336610a39565b5f60208284031215610ab9575f80fd5b81518015158114610a1b575f80fd5b5f60208284031215610ad8575f80fd5b505191905056fea26469706673582212209cd6a625729052f212e31c7d99c11dc9bf08dcf27ebef46ebdfcd547237c0cc764736f6c634300081a0033",
			"opcodes": "PUSH1 0xC0 PUSH1 0x40 MSTORE CALLVALUE DUP1 ISZERO PUSH2 0xF JUMPI PUSH0 DUP1 REVERT JUMPDEST POP PUSH1 0x40 MLOAD PUSH2 0xBF4 CODESIZE SUB DUP1 PUSH2 0xBF4 DUP4 CODECOPY DUP2 ADD PUSH1 0x40 DUP2 SWAP1 MSTORE PUSH2 0x2E SWAP2 PUSH2 0x71 JUMP JUMPDEST PUSH0 DUP1 SLOAD PUSH1 0x1 PUSH1 0x1 PUSH1 0xA0 SHL SUB NOT AND CALLER OR SWAP1 SSTORE PUSH1 0x1 PUSH1 0x1 PUSH1 0xA0 SHL SUB SWAP2 DUP3 AND PUSH1 0x80 MSTORE AND PUSH1 0xA0 MSTORE PUSH2 0xA2 JUMP JUMPDEST DUP1 MLOAD PUSH1 0x1 PUSH1 0x1 PUSH1 0xA0 SHL SUB DUP2 AND DUP2 EQ PUSH2 0x6C JUMPI PUSH0 DUP1 REVERT JUMPDEST SWAP2 SWAP1 POP JUMP JUMPDEST PUSH0 DUP1 PUSH1 0x40 DUP4 DUP6 SUB SLT ISZERO PUSH2 0x82 JUMPI PUSH0 DUP1 REVERT JUMPDEST PUSH2 0x8B DUP4 PUSH2 0x56 JUMP JUMPDEST SWAP2 POP PUSH2 0x99 PUSH1 0x20 DUP5 ADD PUSH2 0x56 JUMP JUMPDEST SWAP1 POP SWAP3 POP SWAP3 SWAP1 POP JUMP JUMPDEST PUSH1 0x80 MLOAD PUSH1 0xA0 MLOAD PUSH2 0xB15 PUSH2 0xDF PUSH0 CODECOPY PUSH0 DUP2 DUP2 PUSH2 0x296 ADD MSTORE DUP2 DUP2 PUSH2 0x5F8 ADD MSTORE PUSH2 0x785 ADD MSTORE PUSH0 DUP2 DUP2 PUSH2 0x1DE ADD MSTORE DUP2 DUP2 PUSH2 0x42F ADD MSTORE PUSH2 0x8C4 ADD MSTORE PUSH2 0xB15 PUSH0 RETURN INVALID PUSH1 0x80 PUSH1 0x40 MSTORE CALLVALUE DUP1 ISZERO PUSH2 0xF JUMPI PUSH0 DUP1 REVERT JUMPDEST POP PUSH1 0x4 CALLDATASIZE LT PUSH2 0x126 JUMPI PUSH0 CALLDATALOAD PUSH1 0xE0 SHR DUP1 PUSH4 0x7519AB50 GT PUSH2 0xA9 JUMPI DUP1 PUSH4 0xA694FC3A GT PUSH2 0x6E JUMPI DUP1 PUSH4 0xA694FC3A EQ PUSH2 0x263 JUMPI DUP1 PUSH4 0xC0ED00C9 EQ PUSH2 0x276 JUMPI DUP1 PUSH4 0xCD3DAF9D EQ PUSH2 0x289 JUMPI DUP1 PUSH4 0xD1AF0C7D EQ PUSH2 0x291 JUMPI DUP1 PUSH4 0xDF136D65 EQ PUSH2 0x2B8 JUMPI PUSH0 DUP1 REVERT JUMPDEST DUP1 PUSH4 0x7519AB50 EQ PUSH2 0x218 JUMPI DUP1 PUSH4 0x7B0A47EE EQ PUSH2 0x221 JUMPI DUP1 PUSH4 0x80FAA57D EQ PUSH2 0x22A JUMPI DUP1 PUSH4 0x8B876347 EQ PUSH2 0x232 JUMPI DUP1 PUSH4 0x8DA5CB5B EQ PUSH2 0x251 JUMPI PUSH0 DUP1 REVERT JUMPDEST DUP1 PUSH4 0x3C6B16AB GT PUSH2 0xEF JUMPI DUP1 PUSH4 0x3C6B16AB EQ PUSH2 0x196 JUMPI DUP1 PUSH4 0x3D18B912 EQ PUSH2 0x1A9 JUMPI DUP1 PUSH4 0x67D3B488 EQ PUSH2 0x1B1 JUMPI DUP1 PUSH4 0x70A08231 EQ PUSH2 0x1BA JUMPI DUP1 PUSH4 0x72F702F3 EQ PUSH2 0x1D9 JUMPI PUSH0 DUP1 REVERT JUMPDEST DUP1 PUSH3 0x8CC262 EQ PUSH2 0x12A JUMPI DUP1 PUSH4 0x700037D EQ PUSH2 0x150 JUMPI DUP1 PUSH4 0xFB5A6B4 EQ PUSH2 0x16F JUMPI DUP1 PUSH4 0x18160DDD EQ PUSH2 0x178 JUMPI DUP1 PUSH4 0x2E1A7D4D EQ PUSH2 0x181 JUMPI JUMPDEST PUSH0 DUP1 REVERT JUMPDEST PUSH2 0x13D PUSH2 0x138 CALLDATASIZE PUSH1 0x4 PUSH2 0x9F5 JUMP JUMPDEST PUSH2 0x2C1 JUMP JUMPDEST PUSH1 0x40 MLOAD SWAP1 DUP2 MSTORE PUSH1 0x20 ADD JUMPDEST PUSH1 0x40 MLOAD DUP1 SWAP2 SUB SWAP1 RETURN JUMPDEST PUSH2 0x13D PUSH2 0x15E CALLDATASIZE PUSH1 0x4 PUSH2 0x9F5 JUMP JUMPDEST PUSH1 0x7 PUSH1 0x20 MSTORE PUSH0 SWAP1 DUP2 MSTORE PUSH1 0x40 SWAP1 KECCAK256 SLOAD DUP2 JUMP JUMPDEST PUSH2 0x13D PUSH1 0x1 SLOAD DUP2 JUMP JUMPDEST PUSH2 0x13D PUSH1 0x9 SLOAD DUP2 JUMP JUMPDEST PUSH2 0x194 PUSH2 0x18F CALLDATASIZE PUSH1 0x4 PUSH2 0xA22 JUMP JUMPDEST PUSH2 0x33C JUMP JUMPDEST STOP JUMPDEST PUSH2 0x194 PUSH2 0x1A4 CALLDATASIZE PUSH1 0x4 PUSH2 0xA22 JUMP JUMPDEST PUSH2 0x4A7 JUMP JUMPDEST PUSH2 0x194 PUSH2 0x6DF JUMP JUMPDEST PUSH2 0x13D PUSH1 0x2 SLOAD DUP2 JUMP JUMPDEST PUSH2 0x13D PUSH2 0x1C8 CALLDATASIZE PUSH1 0x4 PUSH2 0x9F5 JUMP JUMPDEST PUSH1 0x8 PUSH1 0x20 MSTORE PUSH0 SWAP1 DUP2 MSTORE PUSH1 0x40 SWAP1 KECCAK256 SLOAD DUP2 JUMP JUMPDEST PUSH2 0x200 PUSH32 0x0 DUP2 JUMP JUMPDEST PUSH1 0x40 MLOAD PUSH1 0x1 PUSH1 0x1 PUSH1 0xA0 SHL SUB SWAP1 SWAP2 AND DUP2 MSTORE PUSH1 0x20 ADD PUSH2 0x147 JUMP JUMPDEST PUSH2 0x13D PUSH1 0x3 SLOAD DUP2 JUMP JUMPDEST PUSH2 0x13D PUSH1 0x4 SLOAD DUP2 JUMP JUMPDEST PUSH2 0x13D PUSH2 0x7B8 JUMP JUMPDEST PUSH2 0x13D PUSH2 0x240 CALLDATASIZE PUSH1 0x4 PUSH2 0x9F5 JUMP JUMPDEST PUSH1 0x6 PUSH1 0x20 MSTORE PUSH0 SWAP1 DUP2 MSTORE PUSH1 0x40 SWAP1 KECCAK256 SLOAD DUP2 JUMP JUMPDEST PUSH0 SLOAD PUSH2 0x200 SWAP1 PUSH1 0x1 PUSH1 0x1 PUSH1 0xA0 SHL SUB AND DUP2 JUMP JUMPDEST PUSH2 0x194 PUSH2 0x271 CALLDATASIZE PUSH1 0x4 PUSH2 0xA22 JUMP JUMPDEST PUSH2 0x7D0 JUMP JUMPDEST PUSH2 0x194 PUSH2 0x284 CALLDATASIZE PUSH1 0x4 PUSH2 0xA22 JUMP JUMPDEST PUSH2 0x8FB JUMP JUMPDEST PUSH2 0x13D PUSH2 0x996 JUMP JUMPDEST PUSH2 0x200 PUSH32 0x0 DUP2 JUMP JUMPDEST PUSH2 0x13D PUSH1 0x5 SLOAD DUP2 JUMP JUMPDEST PUSH1 0x1 PUSH1 0x1 PUSH1 0xA0 SHL SUB DUP2 AND PUSH0 SWAP1 DUP2 MSTORE PUSH1 0x7 PUSH1 0x20 SWAP1 DUP2 MSTORE PUSH1 0x40 DUP1 DUP4 KECCAK256 SLOAD PUSH1 0x6 SWAP1 SWAP3 MSTORE DUP3 KECCAK256 SLOAD PUSH8 0xDE0B6B3A7640000 SWAP1 PUSH2 0x2F6 PUSH2 0x996 JUMP JUMPDEST PUSH2 0x300 SWAP2 SWAP1 PUSH2 0xA4D JUMP JUMPDEST PUSH1 0x1 PUSH1 0x1 PUSH1 0xA0 SHL SUB DUP6 AND PUSH0 SWAP1 DUP2 MSTORE PUSH1 0x8 PUSH1 0x20 MSTORE PUSH1 0x40 SWAP1 KECCAK256 SLOAD PUSH2 0x322 SWAP2 SWAP1 PUSH2 0xA60 JUMP JUMPDEST PUSH2 0x32C SWAP2 SWAP1 PUSH2 0xA77 JUMP JUMPDEST PUSH2 0x336 SWAP2 SWAP1 PUSH2 0xA96 JUMP JUMPDEST SWAP3 SWAP2 POP POP JUMP JUMPDEST CALLER PUSH2 0x345 PUSH2 0x996 JUMP JUMPDEST PUSH1 0x5 SSTORE PUSH2 0x350 PUSH2 0x7B8 JUMP JUMPDEST PUSH1 0x3 SSTORE PUSH1 0x1 PUSH1 0x1 PUSH1 0xA0 SHL SUB DUP2 AND ISZERO PUSH2 0x396 JUMPI PUSH2 0x36B DUP2 PUSH2 0x2C1 JUMP JUMPDEST PUSH1 0x1 PUSH1 0x1 PUSH1 0xA0 SHL SUB DUP3 AND PUSH0 SWAP1 DUP2 MSTORE PUSH1 0x7 PUSH1 0x20 SWAP1 DUP2 MSTORE PUSH1 0x40 DUP1 DUP4 KECCAK256 SWAP4 SWAP1 SWAP4 SSTORE PUSH1 0x5 SLOAD PUSH1 0x6 SWAP1 SWAP2 MSTORE SWAP2 SWAP1 KECCAK256 SSTORE JUMPDEST PUSH0 DUP3 GT PUSH2 0x3D8 JUMPI PUSH1 0x40 MLOAD PUSH3 0x461BCD PUSH1 0xE5 SHL DUP2 MSTORE PUSH1 0x20 PUSH1 0x4 DUP3 ADD MSTORE PUSH1 0xB PUSH1 0x24 DUP3 ADD MSTORE PUSH11 0x416D6F756E74207A65726F PUSH1 0xA8 SHL PUSH1 0x44 DUP3 ADD MSTORE PUSH1 0x64 ADD JUMPDEST PUSH1 0x40 MLOAD DUP1 SWAP2 SUB SWAP1 REVERT JUMPDEST CALLER PUSH0 SWAP1 DUP2 MSTORE PUSH1 0x8 PUSH1 0x20 MSTORE PUSH1 0x40 DUP2 KECCAK256 DUP1 SLOAD DUP5 SWAP3 SWAP1 PUSH2 0x3F6 SWAP1 DUP5 SWAP1 PUSH2 0xA4D JUMP JUMPDEST SWAP3 POP POP DUP2 SWAP1 SSTORE POP DUP2 PUSH1 0x9 PUSH0 DUP3 DUP3 SLOAD PUSH2 0x40E SWAP2 SWAP1 PUSH2 0xA4D JUMP JUMPDEST SWAP1 SWAP2 SSTORE POP POP PUSH1 0x40 MLOAD PUSH4 0xA9059CBB PUSH1 0xE0 SHL DUP2 MSTORE CALLER PUSH1 0x4 DUP3 ADD MSTORE PUSH1 0x24 DUP2 ADD DUP4 SWAP1 MSTORE PUSH32 0x0 PUSH1 0x1 PUSH1 0x1 PUSH1 0xA0 SHL SUB AND SWAP1 PUSH4 0xA9059CBB SWAP1 PUSH1 0x44 ADD JUMPDEST PUSH1 0x20 PUSH1 0x40 MLOAD DUP1 DUP4 SUB DUP2 PUSH0 DUP8 GAS CALL ISZERO DUP1 ISZERO PUSH2 0x47E JUMPI RETURNDATASIZE PUSH0 DUP1 RETURNDATACOPY RETURNDATASIZE PUSH0 REVERT JUMPDEST POP POP POP POP PUSH1 0x40 MLOAD RETURNDATASIZE PUSH1 0x1F NOT PUSH1 0x1F DUP3 ADD AND DUP3 ADD DUP1 PUSH1 0x40 MSTORE POP DUP2 ADD SWAP1 PUSH2 0x4A2 SWAP2 SWAP1 PUSH2 0xAA9 JUMP JUMPDEST POP POP POP JUMP JUMPDEST PUSH0 SLOAD PUSH1 0x1 PUSH1 0x1 PUSH1 0xA0 SHL SUB AND CALLER EQ PUSH2 0x4EC JUMPI PUSH1 0x40 MLOAD PUSH3 0x461BCD PUSH1 0xE5 SHL DUP2 MSTORE PUSH1 0x20 PUSH1 0x4 DUP3 ADD MSTORE PUSH1 0x9 PUSH1 0x24 DUP3 ADD MSTORE PUSH9 0x2737BA1037BBB732B9 PUSH1 0xB9 SHL PUSH1 0x44 DUP3 ADD MSTORE PUSH1 0x64 ADD PUSH2 0x3CF JUMP JUMPDEST PUSH0 PUSH2 0x4F5 PUSH2 0x996 JUMP JUMPDEST PUSH1 0x5 SSTORE PUSH2 0x500 PUSH2 0x7B8 JUMP JUMPDEST PUSH1 0x3 SSTORE PUSH1 0x1 PUSH1 0x1 PUSH1 0xA0 SHL SUB DUP2 AND ISZERO PUSH2 0x546 JUMPI PUSH2 0x51B DUP2 PUSH2 0x2C1 JUMP JUMPDEST PUSH1 0x1 PUSH1 0x1 PUSH1 0xA0 SHL SUB DUP3 AND PUSH0 SWAP1 DUP2 MSTORE PUSH1 0x7 PUSH1 0x20 SWAP1 DUP2 MSTORE PUSH1 0x40 DUP1 DUP4 KECCAK256 SWAP4 SWAP1 SWAP4 SSTORE PUSH1 0x5 SLOAD PUSH1 0x6 SWAP1 SWAP2 MSTORE SWAP2 SWAP1 KECCAK256 SSTORE JUMPDEST PUSH1 0x2 SLOAD TIMESTAMP LT PUSH2 0x564 JUMPI PUSH1 0x1 SLOAD PUSH2 0x55C SWAP1 DUP4 PUSH2 0xA77 JUMP JUMPDEST PUSH1 0x4 SSTORE PUSH2 0x59F JUMP JUMPDEST PUSH0 PUSH1 0x4 SLOAD TIMESTAMP PUSH1 0x2 SLOAD PUSH2 0x576 SWAP2 SWAP1 PUSH2 0xA4D JUMP JUMPDEST PUSH2 0x580 SWAP2 SWAP1 PUSH2 0xA60 JUMP JUMPDEST PUSH1 0x1 SLOAD SWAP1 SWAP2 POP PUSH2 0x590 DUP5 DUP4 PUSH2 0xA96 JUMP JUMPDEST PUSH2 0x59A SWAP2 SWAP1 PUSH2 0xA77 JUMP JUMPDEST PUSH1 0x4 SSTORE POP JUMPDEST PUSH0 PUSH1 0x4 SLOAD GT PUSH2 0x5E3 JUMPI PUSH1 0x40 MLOAD PUSH3 0x461BCD PUSH1 0xE5 SHL DUP2 MSTORE PUSH1 0x20 PUSH1 0x4 DUP3 ADD MSTORE PUSH1 0x10 PUSH1 0x24 DUP3 ADD MSTORE PUSH16 0x5265776172642072617465207A65726F PUSH1 0x80 SHL PUSH1 0x44 DUP3 ADD MSTORE PUSH1 0x64 ADD PUSH2 0x3CF JUMP JUMPDEST PUSH1 0x40 MLOAD PUSH4 0x70A08231 PUSH1 0xE0 SHL DUP2 MSTORE ADDRESS PUSH1 0x4 DUP3 ADD MSTORE PUSH32 0x0 PUSH1 0x1 PUSH1 0x1 PUSH1 0xA0 SHL SUB AND SWAP1 PUSH4 0x70A08231 SWAP1 PUSH1 0x24 ADD PUSH1 0x20 PUSH1 0x40 MLOAD DUP1 DUP4 SUB DUP2 DUP7 GAS STATICCALL ISZERO DUP1 ISZERO PUSH2 0x645 JUMPI RETURNDATASIZE PUSH0 DUP1 RETURNDATACOPY RETURNDATASIZE PUSH0 REVERT JUMPDEST POP POP POP POP PUSH1 0x40 MLOAD RETURNDATASIZE PUSH1 0x1F NOT PUSH1 0x1F DUP3 ADD AND DUP3 ADD DUP1 PUSH1 0x40 MSTORE POP DUP2 ADD SWAP1 PUSH2 0x669 SWAP2 SWAP1 PUSH2 0xAC8 JUMP JUMPDEST PUSH1 0x1 SLOAD PUSH1 0x4 SLOAD PUSH2 0x679 SWAP2 SWAP1 PUSH2 0xA60 JUMP JUMPDEST GT ISZERO PUSH2 0x6C7 JUMPI PUSH1 0x40 MLOAD PUSH3 0x461BCD PUSH1 0xE5 SHL DUP2 MSTORE PUSH1 0x20 PUSH1 0x4 DUP3 ADD MSTORE PUSH1 0x1A PUSH1 0x24 DUP3 ADD MSTORE PUSH32 0x496E73756666696369656E742072657761726420746F6B656E73000000000000 PUSH1 0x44 DUP3 ADD MSTORE PUSH1 0x64 ADD PUSH2 0x3CF JUMP JUMPDEST PUSH1 0x1 SLOAD PUSH2 0x6D4 SWAP1 TIMESTAMP PUSH2 0xA96 JUMP JUMPDEST PUSH1 0x2 SSTORE POP POP TIMESTAMP PUSH1 0x3 SSTORE JUMP JUMPDEST CALLER PUSH2 0x6E8 PUSH2 0x996 JUMP JUMPDEST PUSH1 0x5 SSTORE PUSH2 0x6F3 PUSH2 0x7B8 JUMP JUMPDEST PUSH1 0x3 SSTORE PUSH1 0x1 PUSH1 0x1 PUSH1 0xA0 SHL SUB DUP2 AND ISZERO PUSH2 0x739 JUMPI PUSH2 0x70E DUP2 PUSH2 0x2C1 JUMP JUMPDEST PUSH1 0x1 PUSH1 0x1 PUSH1 0xA0 SHL SUB DUP3 AND PUSH0 SWAP1 DUP2 MSTORE PUSH1 0x7 PUSH1 0x20 SWAP1 DUP2 MSTORE PUSH1 0x40 DUP1 DUP4 KECCAK256 SWAP4 SWAP1 SWAP4 SSTORE PUSH1 0x5 SLOAD PUSH1 0x6 SWAP1 SWAP2 MSTORE SWAP2 SWAP1 KECCAK256 SSTORE JUMPDEST CALLER PUSH0 SWAP1 DUP2 MSTORE PUSH1 0x7 PUSH1 0x20 MSTORE PUSH1 0x40 SWAP1 KECCAK256 SLOAD DUP1 ISZERO PUSH2 0x7B4 JUMPI CALLER PUSH0 DUP2 DUP2 MSTORE PUSH1 0x7 PUSH1 0x20 MSTORE PUSH1 0x40 DUP1 DUP3 KECCAK256 SWAP2 SWAP1 SWAP2 SSTORE MLOAD PUSH4 0xA9059CBB PUSH1 0xE0 SHL DUP2 MSTORE PUSH1 0x4 DUP2 ADD SWAP2 SWAP1 SWAP2 MSTORE PUSH1 0x24 DUP2 ADD DUP3 SWAP1 MSTORE PUSH1 0x1 PUSH1 0x1 PUSH1 0xA0 SHL SUB PUSH32 0x0 AND SWAP1 PUSH4 0xA9059CBB SWAP1 PUSH1 0x44 ADD PUSH2 0x462 JUMP JUMPDEST POP POP JUMP JUMPDEST PUSH0 PUSH1 0x2 SLOAD TIMESTAMP LT PUSH2 0x7C9 JUMPI POP PUSH1 0x2 SLOAD SWAP1 JUMP JUMPDEST TIMESTAMP JUMPDEST SWAP1 POP SWAP1 JUMP JUMPDEST CALLER PUSH2 0x7D9 PUSH2 0x996 JUMP JUMPDEST PUSH1 0x5 SSTORE PUSH2 0x7E4 PUSH2 0x7B8 JUMP JUMPDEST PUSH1 0x3 SSTORE PUSH1 0x1 PUSH1 0x1 PUSH1 0xA0 SHL SUB DUP2 AND ISZERO PUSH2 0x82A JUMPI PUSH2 0x7FF DUP2 PUSH2 0x2C1 JUMP JUMPDEST PUSH1 0x1 PUSH1 0x1 PUSH1 0xA0 SHL SUB DUP3 AND PUSH0 SWAP1 DUP2 MSTORE PUSH1 0x7 PUSH1 0x20 SWAP1 DUP2 MSTORE PUSH1 0x40 DUP1 DUP4 KECCAK256 SWAP4 SWAP1 SWAP4 SSTORE PUSH1 0x5 SLOAD PUSH1 0x6 SWAP1 SWAP2 MSTORE SWAP2 SWAP1 KECCAK256 SSTORE JUMPDEST PUSH0 DUP3 GT PUSH2 0x867 JUMPI PUSH1 0x40 MLOAD PUSH3 0x461BCD PUSH1 0xE5 SHL DUP2 MSTORE PUSH1 0x20 PUSH1 0x4 DUP3 ADD MSTORE PUSH1 0xB PUSH1 0x24 DUP3 ADD MSTORE PUSH11 0x416D6F756E74207A65726F PUSH1 0xA8 SHL PUSH1 0x44 DUP3 ADD MSTORE PUSH1 0x64 ADD PUSH2 0x3CF JUMP JUMPDEST CALLER PUSH0 SWAP1 DUP2 MSTORE PUSH1 0x8 PUSH1 0x20 MSTORE PUSH1 0x40 DUP2 KECCAK256 DUP1 SLOAD DUP5 SWAP3 SWAP1 PUSH2 0x885 SWAP1 DUP5 SWAP1 PUSH2 0xA96 JUMP JUMPDEST SWAP3 POP POP DUP2 SWAP1 SSTORE POP DUP2 PUSH1 0x9 PUSH0 DUP3 DUP3 SLOAD PUSH2 0x89D SWAP2 SWAP1 PUSH2 0xA96 JUMP JUMPDEST SWAP1 SWAP2 SSTORE POP POP PUSH1 0x40 MLOAD PUSH4 0x23B872DD PUSH1 0xE0 SHL DUP2 MSTORE CALLER PUSH1 0x4 DUP3 ADD MSTORE ADDRESS PUSH1 0x24 DUP3 ADD MSTORE PUSH1 0x44 DUP2 ADD DUP4 SWAP1 MSTORE PUSH32 0x0 PUSH1 0x1 PUSH1 0x1 PUSH1 0xA0 SHL SUB AND SWAP1 PUSH4 0x23B872DD SWAP1 PUSH1 0x64 ADD PUSH2 0x462 JUMP JUMPDEST PUSH0 SLOAD PUSH1 0x1 PUSH1 0x1 PUSH1 0xA0 SHL SUB AND CALLER EQ PUSH2 0x940 JUMPI PUSH1 0x40 MLOAD PUSH3 0x461BCD PUSH1 0xE5 SHL DUP2 MSTORE PUSH1 0x20 PUSH1 0x4 DUP3 ADD MSTORE PUSH1 0x9 PUSH1 0x24 DUP3 ADD MSTORE PUSH9 0x2737BA1037BBB732B9 PUSH1 0xB9 SHL PUSH1 0x44 DUP3 ADD MSTORE PUSH1 0x64 ADD PUSH2 0x3CF JUMP JUMPDEST TIMESTAMP PUSH1 0x2 SLOAD LT PUSH2 0x991 JUMPI PUSH1 0x40 MLOAD PUSH3 0x461BCD PUSH1 0xE5 SHL DUP2 MSTORE PUSH1 0x20 PUSH1 0x4 DUP3 ADD MSTORE PUSH1 0x1E PUSH1 0x24 DUP3 ADD MSTORE PUSH32 0x50726576696F75732072657761726473206E6F7420636F6D706C657465640000 PUSH1 0x44 DUP3 ADD MSTORE PUSH1 0x64 ADD PUSH2 0x3CF JUMP JUMPDEST PUSH1 0x1 SSTORE JUMP JUMPDEST PUSH0 PUSH1 0x9 SLOAD PUSH0 SUB PUSH2 0x9A7 JUMPI POP PUSH1 0x5 SLOAD SWAP1 JUMP JUMPDEST PUSH1 0x9 SLOAD PUSH1 0x3 SLOAD PUSH2 0x9B5 PUSH2 0x7B8 JUMP JUMPDEST PUSH2 0x9BF SWAP2 SWAP1 PUSH2 0xA4D JUMP JUMPDEST PUSH1 0x4 SLOAD PUSH2 0x9CC SWAP2 SWAP1 PUSH2 0xA60 JUMP JUMPDEST PUSH2 0x9DE SWAP1 PUSH8 0xDE0B6B3A7640000 PUSH2 0xA60 JUMP JUMPDEST PUSH2 0x9E8 SWAP2 SWAP1 PUSH2 0xA77 JUMP JUMPDEST PUSH1 0x5 SLOAD PUSH2 0x7CB SWAP2 SWAP1 PUSH2 0xA96 JUMP JUMPDEST PUSH0 PUSH1 0x20 DUP3 DUP5 SUB SLT ISZERO PUSH2 0xA05 JUMPI PUSH0 DUP1 REVERT JUMPDEST DUP2 CALLDATALOAD PUSH1 0x1 PUSH1 0x1 PUSH1 0xA0 SHL SUB DUP2 AND DUP2 EQ PUSH2 0xA1B JUMPI PUSH0 DUP1 REVERT JUMPDEST SWAP4 SWAP3 POP POP POP JUMP JUMPDEST PUSH0 PUSH1 0x20 DUP3 DUP5 SUB SLT ISZERO PUSH2 0xA32 JUMPI PUSH0 DUP1 REVERT JUMPDEST POP CALLDATALOAD SWAP2 SWAP1 POP JUMP JUMPDEST PUSH4 0x4E487B71 PUSH1 0xE0 SHL PUSH0 MSTORE PUSH1 0x11 PUSH1 0x4 MSTORE PUSH1 0x24 PUSH0 REVERT JUMPDEST DUP2 DUP2 SUB DUP2 DUP2 GT ISZERO PUSH2 0x336 JUMPI PUSH2 0x336 PUSH2 0xA39 JUMP JUMPDEST DUP1 DUP3 MUL DUP2 ISZERO DUP3 DUP3 DIV DUP5 EQ OR PUSH2 0x336 JUMPI PUSH2 0x336 PUSH2 0xA39 JUMP JUMPDEST PUSH0 DUP3 PUSH2 0xA91 JUMPI PUSH4 0x4E487B71 PUSH1 0xE0 SHL PUSH0 MSTORE PUSH1 0x12 PUSH1 0x4 MSTORE PUSH1 0x24 PUSH0 REVERT JUMPDEST POP DIV SWAP1 JUMP JUMPDEST DUP1 DUP3 ADD DUP1 DUP3 GT ISZERO PUSH2 0x336 JUMPI PUSH2 0x336 PUSH2 0xA39 JUMP JUMPDEST PUSH0 PUSH1 0x20 DUP3 DUP5 SUB SLT ISZERO PUSH2 0xAB9 JUMPI PUSH0 DUP1 REVERT JUMPDEST DUP2 MLOAD DUP1 ISZERO ISZERO DUP2 EQ PUSH2 0xA1B JUMPI PUSH0 DUP1 REVERT JUMPDEST PUSH0 PUSH1 0x20 DUP3 DUP5 SUB SLT ISZERO PUSH2 0xAD8 JUMPI PUSH0 DUP1 REVERT JUMPDEST POP MLOAD SWAP2 SWAP1 POP JUMP INVALID LOG2 PUSH5 0x6970667358 0x22 SLT KECCAK256 SWAP13 0xD6 0xA6 0x25 PUSH19 0x9052F212E31C7D99C11DC9BF08DCF27EBEF46E 0xBD 0xFC 0xD5 SELFBALANCE 0x23 PUSH29 0xCC764736F6C634300081A003300000000000000000000000000000000 "
		},
		"gasEstimates": {
			"creation": {
				"codeDepositCost": "567400",
				"executionCost": "infinite",
				"totalCost": "infinite"
			},
			"external": {
				"balanceOf(address)": "2559",
				"duration()": "2351",
				"earned(address)": "infinite",
				"finishAt()": "2350",
				"getReward()": "infinite",
				"lastTimeRewardApplicable()": "4487",
				"notifyRewardAmount(uint256)": "infinite",
				"owner()": "2446",
				"rewardPerToken()": "infinite",
				"rewardPerTokenStored()": "2393",
				"rewardRate()": "2328",
				"rewards(address)": "2516",
				"rewardsToken()": "infinite",
				"setRewardDuration(uint256)": "26627",
				"stake(uint256)": "infinite",
				"stakingToken()": "infinite",
				"totalSupply()": "2373",
				"updatedAt()": "2306",
				"userRewardPerTokenPaid(address)": "2559",
				"withdraw(uint256)": "infinite"
			},
			"internal": {
				"_min(uint256,uint256)": "infinite"
			}
		},
		"methodIdentifiers": {
			"balanceOf(address)": "70a08231",
			"duration()": "0fb5a6b4",
			"earned(address)": "008cc262",
			"finishAt()": "67d3b488",
			"getReward()": "3d18b912",
			"lastTimeRewardApplicable()": "80faa57d",
			"notifyRewardAmount(uint256)": "3c6b16ab",
			"owner()": "8da5cb5b",
			"rewardPerToken()": "cd3daf9d",
			"rewardPerTokenStored()": "df136d65",
			"rewardRate()": "7b0a47ee",
			"rewards(address)": "0700037d",
			"rewardsToken()": "d1af0c7d",
			"setRewardDuration(uint256)": "c0ed00c9",
			"stake(uint256)": "a694fc3a",
			"stakingToken()": "72f702f3",
			"totalSupply()": "18160ddd",
			"updatedAt()": "7519ab50",
			"userRewardPerTokenPaid(address)": "8b876347",
			"withdraw(uint256)": "2e1a7d4d"
		}
	},
	"abi": [
		{
			"inputs": [
				{
					"internalType": "address",
					"name": "_stakingToken",
					"type": "address"
				},
				{
					"internalType": "address",
					"name": "_rewardsToken",
					"type": "address"
				}
			],
			"stateMutability": "nonpayable",
			"type": "constructor"
		},
		{
			"inputs": [
				{
					"internalType": "address",
					"name": "",
					"type": "address"
				}
			],
			"name": "balanceOf",
			"outputs": [
				{
					"internalType": "uint256",
					"name": "",
					"type": "uint256"
				}
			],
			"stateMutability": "view",
			"type": "function"
		},
		{
			"inputs": [],
			"name": "duration",
			"outputs": [
				{
					"internalType": "uint256",
					"name": "",
					"type": "uint256"
				}
			],
			"stateMutability": "view",
			"type": "function"
		},
		{
			"inputs": [
				{
					"internalType": "address",
					"name": "_account",
					"type": "address"
				}
			],
			"name": "earned",
			"outputs": [
				{
					"internalType": "uint256",
					"name": "",
					"type": "uint256"
				}
			],
			"stateMutability": "view",
			"type": "function"
		},
		{
			"inputs": [],
			"name": "finishAt",
			"outputs": [
				{
					"internalType": "uint256",
					"name": "",
					"type": "uint256"
				}
			],
			"stateMutability": "view",
			"type": "function"
		},
		{
			"inputs": [],
			"name": "getReward",
			"outputs": [],
			"stateMutability": "nonpayable",
			"type": "function"
		},
		{
			"inputs": [],
			"name": "lastTimeRewardApplicable",
			"outputs": [
				{
					"internalType": "uint256",
					"name": "",
					"type": "uint256"
				}
			],
			"stateMutability": "view",
			"type": "function"
		},
		{
			"inputs": [
				{
					"internalType": "uint256",
					"name": "_amount",
					"type": "uint256"
				}
			],
			"name": "notifyRewardAmount",
			"outputs": [],
			"stateMutability": "nonpayable",
			"type": "function"
		},
		{
			"inputs": [],
			"name": "owner",
			"outputs": [
				{
					"internalType": "address",
					"name": "",
					"type": "address"
				}
			],
			"stateMutability": "view",
			"type": "function"
		},
		{
			"inputs": [],
			"name": "rewardPerToken",
			"outputs": [
				{
					"internalType": "uint256",
					"name": "",
					"type": "uint256"
				}
			],
			"stateMutability": "view",
			"type": "function"
		},
		{
			"inputs": [],
			"name": "rewardPerTokenStored",
			"outputs": [
				{
					"internalType": "uint256",
					"name": "",
					"type": "uint256"
				}
			],
			"stateMutability": "view",
			"type": "function"
		},
		{
			"inputs": [],
			"name": "rewardRate",
			"outputs": [
				{
					"internalType": "uint256",
					"name": "",
					"type": "uint256"
				}
			],
			"stateMutability": "view",
			"type": "function"
		},
		{
			"inputs": [
				{
					"internalType": "address",
					"name": "",
					"type": "address"
				}
			],
			"name": "rewards",
			"outputs": [
				{
					"internalType": "uint256",
					"name": "",
					"type": "uint256"
				}
			],
			"stateMutability": "view",
			"type": "function"
		},
		{
			"inputs": [],
			"name": "rewardsToken",
			"outputs": [
				{
					"internalType": "contract IERC20",
					"name": "",
					"type": "address"
				}
			],
			"stateMutability": "view",
			"type": "function"
		},
		{
			"inputs": [
				{
					"internalType": "uint256",
					"name": "_duration",
					"type": "uint256"
				}
			],
			"name": "setRewardDuration",
			"outputs": [],
			"stateMutability": "nonpayable",
			"type": "function"
		},
		{
			"inputs": [
				{
					"internalType": "uint256",
					"name": "_amount",
					"type": "uint256"
				}
			],
			"name": "stake",
			"outputs": [],
			"stateMutability": "nonpayable",
			"type": "function"
		},
		{
			"inputs": [],
			"name": "stakingToken",
			"outputs": [
				{
					"internalType": "contract IERC20",
					"name": "",
					"type": "address"
				}
			],
			"stateMutability": "view",
			"type": "function"
		},
		{
			"inputs": [],
			"name": "totalSupply",
			"outputs": [
				{
					"internalType": "uint256",
					"name": "",
					"type": "uint256"
				}
			],
			"stateMutability": "view",
			"type": "function"
		},
		{
			"inputs": [],
			"name": "updatedAt",
			"outputs": [
				{
					"internalType": "uint256",
					"name": "",
					"type": "uint256"
				}
			],
			"stateMutability": "view",
			"type": "function"
		},
		{
			"inputs": [
				{
					"internalType": "address",
					"name": "",
					"type": "address"
				}
			],
			"name": "userRewardPerTokenPaid",
			"outputs": [
				{
					"internalType": "uint256",
					"name": "",
					"type": "uint256"
				}
			],
			"stateMutability": "view",
			"type": "function"
		},
		{
			"inputs": [
				{
					"internalType": "uint256",
					"name": "_amount",
					"type": "uint256"
				}
			],
			"name": "withdraw",
			"outputs": [],
			"stateMutability": "nonpayable",
			"type": "function"
		}
	]
}