{
	"contracts/TimeLock.sol": {
		"TimeLock": {
			"abi": [
				{
					"inputs": [],
					"stateMutability": "nonpayable",
					"type": "constructor"
				},
				{
					"inputs": [],
					"name": "AlreadyQueuedError",
					"type": "error"
				},
				{
					"inputs": [],
					"name": "NotOwnerError",
					"type": "error"
				},
				{
					"inputs": [
						{
							"internalType": "bytes32",
							"name": "txId",
							"type": "bytes32"
						}
					],
					"name": "NotQueueError",
					"type": "error"
				},
				{
					"inputs": [
						{
							"internalType": "uint256",
							"name": "blockTimestamp",
							"type": "uint256"
						},
						{
							"internalType": "uint256",
							"name": "expired",
							"type": "uint256"
						}
					],
					"name": "TimestampExpiredERROR",
					"type": "error"
				},
				{
					"inputs": [
						{
							"internalType": "uint256",
							"name": "blockTimestamp",
							"type": "uint256"
						},
						{
							"internalType": "uint256",
							"name": "timestamp",
							"type": "uint256"
						}
					],
					"name": "TimestampNotInRangeError",
					"type": "error"
				},
				{
					"inputs": [
						{
							"internalType": "uint256",
							"name": "blockTimestamp",
							"type": "uint256"
						},
						{
							"internalType": "uint256",
							"name": "timestamp",
							"type": "uint256"
						}
					],
					"name": "TimestampNotPassedError",
					"type": "error"
				},
				{
					"inputs": [],
					"name": "TxFailError",
					"type": "error"
				},
				{
					"anonymous": false,
					"inputs": [
						{
							"indexed": true,
							"internalType": "bytes32",
							"name": "txId",
							"type": "bytes32"
						}
					],
					"name": "Cancel",
					"type": "event"
				},
				{
					"anonymous": false,
					"inputs": [
						{
							"indexed": true,
							"internalType": "bytes32",
							"name": "txId",
							"type": "bytes32"
						},
						{
							"indexed": true,
							"internalType": "address",
							"name": "_target",
							"type": "address"
						},
						{
							"indexed": false,
							"internalType": "uint256",
							"name": "_value",
							"type": "uint256"
						},
						{
							"indexed": false,
							"internalType": "string",
							"name": "_func",
							"type": "string"
						},
						{
							"indexed": false,
							"internalType": "bytes",
							"name": "_data",
							"type": "bytes"
						},
						{
							"indexed": false,
							"internalType": "uint256",
							"name": "_timestamp",
							"type": "uint256"
						}
					],
					"name": "Execute",
					"type": "event"
				},
				{
					"anonymous": false,
					"inputs": [
						{
							"indexed": true,
							"internalType": "bytes32",
							"name": "txId",
							"type": "bytes32"
						},
						{
							"indexed": true,
							"internalType": "address",
							"name": "_target",
							"type": "address"
						},
						{
							"indexed": false,
							"internalType": "uint256",
							"name": "_value",
							"type": "uint256"
						},
						{
							"indexed": false,
							"internalType": "string",
							"name": "_func",
							"type": "string"
						},
						{
							"indexed": false,
							"internalType": "bytes",
							"name": "_data",
							"type": "bytes"
						},
						{
							"indexed": false,
							"internalType": "uint256",
							"name": "_timestamp",
							"type": "uint256"
						}
					],
					"name": "Queue",
					"type": "event"
				},
				{
					"inputs": [],
					"name": "GRACE_PERIOD",
					"outputs": [
						{
							"internalType": "uint256",
							"name": "",
							"type": "uint256"
						}
					],
					"stateMutability": "view",
					"type": "function"
				},
				{
					"inputs": [],
					"name": "MAX_DELAY",
					"outputs": [
						{
							"internalType": "uint256",
							"name": "",
							"type": "uint256"
						}
					],
					"stateMutability": "view",
					"type": "function"
				},
				{
					"inputs": [],
					"name": "MIN_DELAY",
					"outputs": [
						{
							"internalType": "uint256",
							"name": "",
							"type": "uint256"
						}
					],
					"stateMutability": "view",
					"type": "function"
				},
				{
					"inputs": [
						{
							"internalType": "bytes32",
							"name": "_txId",
							"type": "bytes32"
						}
					],
					"name": "cancel",
					"outputs": [],
					"stateMutability": "nonpayable",
					"type": "function"
				},
				{
					"inputs": [
						{
							"internalType": "address",
							"name": "_target",
							"type": "address"
						},
						{
							"internalType": "uint256",
							"name": "_value",
							"type": "uint256"
						},
						{
							"internalType": "string",
							"name": "_func",
							"type": "string"
						},
						{
							"internalType": "bytes",
							"name": "_data",
							"type": "bytes"
						},
						{
							"internalType": "uint256",
							"name": "_timestamp",
							"type": "uint256"
						}
					],
					"name": "execute",
					"outputs": [
						{
							"internalType": "bytes",
							"name": "",
							"type": "bytes"
						}
					],
					"stateMutability": "payable",
					"type": "function"
				},
				{
					"inputs": [
						{
							"internalType": "address",
							"name": "_target",
							"type": "address"
						},
						{
							"internalType": "uint256",
							"name": "_value",
							"type": "uint256"
						},
						{
							"internalType": "string",
							"name": "_func",
							"type": "string"
						},
						{
							"internalType": "bytes",
							"name": "_data",
							"type": "bytes"
						},
						{
							"internalType": "uint256",
							"name": "_timestamp",
							"type": "uint256"
						}
					],
					"name": "getTxId",
					"outputs": [
						{
							"internalType": "bytes32",
							"name": "txId",
							"type": "bytes32"
						}
					],
					"stateMutability": "pure",
					"type": "function"
				},
				{
					"inputs": [],
					"name": "owner",
					"outputs": [
						{
							"internalType": "address",
							"name": "",
							"type": "address"
						}
					],
					"stateMutability": "view",
					"type": "function"
				},
				{
					"inputs": [
						{
							"internalType": "address",
							"name": "_target",
							"type": "address"
						},
						{
							"internalType": "uint256",
							"name": "_value",
							"type": "uint256"
						},
						{
							"internalType": "string",
							"name": "_func",
							"type": "string"
						},
						{
							"internalType": "bytes",
							"name": "_data",
							"type": "bytes"
						},
						{
							"internalType": "uint256",
							"name": "_timestamp",
							"type": "uint256"
						}
					],
					"name": "queue",
					"outputs": [],
					"stateMutability": "nonpayable",
					"type": "function"
				},
				{
					"inputs": [
						{
							"internalType": "bytes32",
							"name": "",
							"type": "bytes32"
						}
					],
					"name": "queued",
					"outputs": [
						{
							"internalType": "bool",
							"name": "",
							"type": "bool"
						}
					],
					"stateMutability": "view",
					"type": "function"
				},
				{
					"stateMutability": "payable",
					"type": "receive"
				}
			],
			"devdoc": {
				"kind": "dev",
				"methods": {},
				"version": 1
			},
			"evm": {
				"assembly": "    /* \"contracts/TimeLock.sol\":60:3965  contract TimeLock {... */\n  mstore(0x40, 0x80)\n    /* \"contracts/TimeLock.sol\":938:986  constructor(){... */\n  callvalue\n  dup1\n  iszero\n  tag_1\n  jumpi\n  0x00\n  dup1\n  revert\ntag_1:\n  pop\n    /* \"contracts/TimeLock.sol\":962:967  owner */\n  0x00\n    /* \"contracts/TimeLock.sol\":962:978  owner=msg.sender */\n  dup1\n  sload\n  not(sub(shl(0xa0, 0x01), 0x01))\n  and\n    /* \"contracts/TimeLock.sol\":968:978  msg.sender */\n  caller\n    /* \"contracts/TimeLock.sol\":962:978  owner=msg.sender */\n  or\n  swap1\n  sstore\n    /* \"contracts/TimeLock.sol\":60:3965  contract TimeLock {... */\n  dataSize(sub_0)\n  dup1\n  dataOffset(sub_0)\n  0x00\n  codecopy\n  0x00\n  return\nstop\n\nsub_0: assembly {\n        /* \"contracts/TimeLock.sol\":60:3965  contract TimeLock {... */\n      mstore(0x40, 0x80)\n      jumpi(tag_1, lt(calldatasize, 0x04))\n      shr(0xe0, calldataload(0x00))\n      dup1\n      0x8da5cb5b\n      gt\n      tag_12\n      jumpi\n      dup1\n      0x8da5cb5b\n      eq\n      tag_7\n      jumpi\n      dup1\n      0x9f81aed7\n      eq\n      tag_8\n      jumpi\n      dup1\n      0xb0f8b142\n      eq\n      tag_9\n      jumpi\n      dup1\n      0xc1a287e2\n      eq\n      tag_4\n      jumpi\n      dup1\n      0xc4d252f5\n      eq\n      tag_11\n      jumpi\n      0x00\n      dup1\n      revert\n    tag_12:\n      dup1\n      0x228250c9\n      eq\n      tag_3\n      jumpi\n      dup1\n      0x4125ff90\n      eq\n      tag_4\n      jumpi\n      dup1\n      0x4b9915a5\n      eq\n      tag_5\n      jumpi\n      dup1\n      0x8a1ce0b6\n      eq\n      tag_6\n      jumpi\n      0x00\n      dup1\n      revert\n    tag_1:\n      jumpi(tag_2, calldatasize)\n      stop\n    tag_2:\n      0x00\n      dup1\n      revert\n        /* \"contracts/TimeLock.sol\":891:929  mapping (bytes32=> bool) public queued */\n    tag_3:\n      callvalue\n      dup1\n      iszero\n      tag_15\n      jumpi\n      0x00\n      dup1\n      revert\n    tag_15:\n      pop\n      tag_16\n      tag_17\n      calldatasize\n      0x04\n      tag_18\n      jump\t// in\n    tag_17:\n      mstore(0x20, 0x01)\n      0x00\n      swap1\n      dup2\n      mstore\n      0x40\n      swap1\n      keccak256\n      sload\n      0xff\n      and\n      dup2\n      jump\n    tag_16:\n      mload(0x40)\n        /* \"#utility.yul\":364:378   */\n      swap1\n      iszero\n        /* \"#utility.yul\":357:379   */\n      iszero\n        /* \"#utility.yul\":339:380   */\n      dup2\n      mstore\n        /* \"#utility.yul\":327:329   */\n      0x20\n        /* \"#utility.yul\":312:330   */\n      add\n        /* \"contracts/TimeLock.sol\":891:929  mapping (bytes32=> bool) public queued */\n    tag_20:\n      mload(0x40)\n      dup1\n      swap2\n      sub\n      swap1\n      return\n        /* \"contracts/TimeLock.sol\":773:808  uint public constant MAX_DELAY=1000 */\n    tag_4:\n      callvalue\n      dup1\n      iszero\n      tag_22\n      jumpi\n      0x00\n      dup1\n      revert\n    tag_22:\n      pop\n      tag_23\n        /* \"contracts/TimeLock.sol\":804:808  1000 */\n      0x03e8\n        /* \"contracts/TimeLock.sol\":773:808  uint public constant MAX_DELAY=1000 */\n      dup2\n      jump\n    tag_23:\n      mload(0x40)\n        /* \"#utility.yul\":537:562   */\n      swap1\n      dup2\n      mstore\n        /* \"#utility.yul\":525:527   */\n      0x20\n        /* \"#utility.yul\":510:528   */\n      add\n        /* \"contracts/TimeLock.sol\":773:808  uint public constant MAX_DELAY=1000 */\n      tag_20\n        /* \"#utility.yul\":391:568   */\n      jump\n        /* \"contracts/TimeLock.sol\":1475:2184  function queue(... */\n    tag_5:\n      callvalue\n      dup1\n      iszero\n      tag_27\n      jumpi\n      0x00\n      dup1\n      revert\n    tag_27:\n      pop\n      tag_28\n      tag_29\n      calldatasize\n      0x04\n      tag_30\n      jump\t// in\n    tag_29:\n      tag_31\n      jump\t// in\n    tag_28:\n      stop\n        /* \"contracts/TimeLock.sol\":1161:1465  function getTxId(... */\n    tag_6:\n      callvalue\n      dup1\n      iszero\n      tag_32\n      jumpi\n      0x00\n      dup1\n      revert\n    tag_32:\n      pop\n      tag_23\n      tag_34\n      calldatasize\n      0x04\n      tag_30\n      jump\t// in\n    tag_34:\n      tag_35\n      jump\t// in\n        /* \"contracts/TimeLock.sol\":862:882  address public owner */\n    tag_7:\n      callvalue\n      dup1\n      iszero\n      tag_38\n      jumpi\n      0x00\n      dup1\n      revert\n    tag_38:\n      pop\n      sload(0x00)\n      tag_39\n      swap1\n      sub(shl(0xa0, 0x01), 0x01)\n      and\n      dup2\n      jump\n    tag_39:\n      mload(0x40)\n      sub(shl(0xa0, 0x01), 0x01)\n        /* \"#utility.yul\":2408:2440   */\n      swap1\n      swap2\n      and\n        /* \"#utility.yul\":2390:2441   */\n      dup2\n      mstore\n        /* \"#utility.yul\":2378:2380   */\n      0x20\n        /* \"#utility.yul\":2363:2381   */\n      add\n        /* \"contracts/TimeLock.sol\":862:882  address public owner */\n      tag_20\n        /* \"#utility.yul\":2244:2447   */\n      jump\n        /* \"contracts/TimeLock.sol\":732:766  uint public  constant MIN_DELAY=10 */\n    tag_8:\n      callvalue\n      dup1\n      iszero\n      tag_43\n      jumpi\n      0x00\n      dup1\n      revert\n    tag_43:\n      pop\n      tag_23\n        /* \"contracts/TimeLock.sol\":764:766  10 */\n      0x0a\n        /* \"contracts/TimeLock.sol\":732:766  uint public  constant MIN_DELAY=10 */\n      dup2\n      jump\n        /* \"contracts/TimeLock.sol\":2192:3754  function execute(... */\n    tag_9:\n      tag_47\n      tag_48\n      calldatasize\n      0x04\n      tag_30\n      jump\t// in\n    tag_48:\n      tag_49\n      jump\t// in\n    tag_47:\n      mload(0x40)\n      tag_20\n      swap2\n      swap1\n      tag_51\n      jump\t// in\n        /* \"contracts/TimeLock.sol\":3762:3962  function cancel(bytes32 _txId) external onlyOwner{... */\n    tag_11:\n      callvalue\n      dup1\n      iszero\n      tag_56\n      jumpi\n      0x00\n      dup1\n      revert\n    tag_56:\n      pop\n      tag_28\n      tag_58\n      calldatasize\n      0x04\n      tag_18\n      jump\t// in\n    tag_58:\n      tag_59\n      jump\t// in\n        /* \"contracts/TimeLock.sol\":1475:2184  function queue(... */\n    tag_31:\n        /* \"contracts/TimeLock.sol\":1656:1668  bytes32 txId */\n      0x00\n        /* \"contracts/TimeLock.sol\":1671:1721  getTxId(_target, _value, _func, _data, _timestamp) */\n      tag_61\n        /* \"contracts/TimeLock.sol\":1679:1686  _target */\n      dup9\n        /* \"contracts/TimeLock.sol\":1688:1694  _value */\n      dup9\n        /* \"contracts/TimeLock.sol\":1696:1701  _func */\n      dup9\n      dup9\n        /* \"contracts/TimeLock.sol\":1703:1708  _data */\n      dup9\n      dup9\n        /* \"contracts/TimeLock.sol\":1710:1720  _timestamp */\n      dup9\n        /* \"contracts/TimeLock.sol\":1671:1678  getTxId */\n      tag_35\n        /* \"contracts/TimeLock.sol\":1671:1721  getTxId(_target, _value, _func, _data, _timestamp) */\n      jump\t// in\n    tag_61:\n        /* \"contracts/TimeLock.sol\":1764:1776  queued[txId] */\n      0x00\n      dup2\n      dup2\n      mstore\n        /* \"contracts/TimeLock.sol\":1764:1770  queued */\n      0x01\n        /* \"contracts/TimeLock.sol\":1764:1776  queued[txId] */\n      0x20\n      mstore\n      0x40\n      swap1\n      keccak256\n      sload\n        /* \"contracts/TimeLock.sol\":1656:1721  bytes32 txId = getTxId(_target, _value, _func, _data, _timestamp) */\n      swap1\n      swap2\n      pop\n        /* \"contracts/TimeLock.sol\":1764:1776  queued[txId] */\n      0xff\n      and\n        /* \"contracts/TimeLock.sol\":1761:1831  if(queued[txId]){... */\n      iszero\n      tag_62\n      jumpi\n        /* \"contracts/TimeLock.sol\":1799:1819  AlreadyQueuedError() */\n      mload(0x40)\n      shl(0xe2, 0x11bc2f15)\n      dup2\n      mstore\n      0x04\n      add\n      mload(0x40)\n      dup1\n      swap2\n      sub\n      swap1\n      revert\n        /* \"contracts/TimeLock.sol\":1761:1831  if(queued[txId]){... */\n    tag_62:\n        /* \"contracts/TimeLock.sol\":1884:1909  block.timestamp+MIN_DELAY */\n      tag_63\n        /* \"contracts/TimeLock.sol\":764:766  10 */\n      0x0a\n        /* \"contracts/TimeLock.sol\":1884:1899  block.timestamp */\n      timestamp\n        /* \"contracts/TimeLock.sol\":1884:1909  block.timestamp+MIN_DELAY */\n      tag_64\n      jump\t// in\n    tag_63:\n        /* \"contracts/TimeLock.sol\":1871:1881  _timestamp */\n      dup3\n        /* \"contracts/TimeLock.sol\":1871:1909  _timestamp < block.timestamp+MIN_DELAY */\n      lt\n        /* \"contracts/TimeLock.sol\":1871:1963  _timestamp < block.timestamp+MIN_DELAY||... */\n      dup1\n      tag_65\n      jumpi\n      pop\n        /* \"contracts/TimeLock.sol\":1938:1963  block.timestamp+MAX_DELAY */\n      tag_66\n        /* \"contracts/TimeLock.sol\":804:808  1000 */\n      0x03e8\n        /* \"contracts/TimeLock.sol\":1938:1953  block.timestamp */\n      timestamp\n        /* \"contracts/TimeLock.sol\":1938:1963  block.timestamp+MAX_DELAY */\n      tag_64\n      jump\t// in\n    tag_66:\n        /* \"contracts/TimeLock.sol\":1925:1935  _timestamp */\n      dup3\n        /* \"contracts/TimeLock.sol\":1925:1963  _timestamp > block.timestamp+MAX_DELAY */\n      gt\n        /* \"contracts/TimeLock.sol\":1871:1963  _timestamp < block.timestamp+MIN_DELAY||... */\n    tag_65:\n        /* \"contracts/TimeLock.sol\":1868:2060  if(_timestamp < block.timestamp+MIN_DELAY||... */\n      iszero\n      tag_67\n      jumpi\n        /* \"contracts/TimeLock.sol\":1996:2048  TimestampNotInRangeError(block.timestamp,_timestamp) */\n      mload(0x40)\n      shl(0xe1, 0x0d4b0b61)\n      dup2\n      mstore\n        /* \"contracts/TimeLock.sol\":2021:2036  block.timestamp */\n      timestamp\n        /* \"contracts/TimeLock.sol\":1996:2048  TimestampNotInRangeError(block.timestamp,_timestamp) */\n      0x04\n      dup3\n      add\n        /* \"#utility.yul\":3274:3299   */\n      mstore\n        /* \"#utility.yul\":3315:3333   */\n      0x24\n      dup2\n      add\n        /* \"#utility.yul\":3308:3342   */\n      dup4\n      swap1\n      mstore\n        /* \"#utility.yul\":3247:3265   */\n      0x44\n      add\n        /* \"contracts/TimeLock.sol\":1996:2048  TimestampNotInRangeError(block.timestamp,_timestamp) */\n    tag_68:\n      mload(0x40)\n      dup1\n      swap2\n      sub\n      swap1\n      revert\n        /* \"contracts/TimeLock.sol\":1868:2060  if(_timestamp < block.timestamp+MIN_DELAY||... */\n    tag_67:\n        /* \"contracts/TimeLock.sol\":2090:2102  queued[txId] */\n      0x00\n      dup2\n      dup2\n      mstore\n        /* \"contracts/TimeLock.sol\":2103:2107  true */\n      0x01\n        /* \"contracts/TimeLock.sol\":2090:2102  queued[txId] */\n      0x20\n      dup2\n      swap1\n      mstore\n      0x40\n      swap2\n      dup3\n      swap1\n      keccak256\n        /* \"contracts/TimeLock.sol\":2090:2107  queued[txId]=true */\n      dup1\n      sload\n      not(0xff)\n      and\n      swap1\n      swap2\n      or\n      swap1\n      sstore\n        /* \"contracts/TimeLock.sol\":2125:2176  Queue(txId,_target,_value, _func, _data,_timestamp) */\n      mload\n      sub(shl(0xa0, 0x01), 0x01)\n      dup10\n      and\n      swap1\n        /* \"contracts/TimeLock.sol\":2097:2101  txId */\n      dup3\n      swap1\n        /* \"contracts/TimeLock.sol\":2125:2176  Queue(txId,_target,_value, _func, _data,_timestamp) */\n      0x3c22f47140594040d205a5533cfedd86c9ab8622c39ead03affb2d97052c794c\n      swap1\n      tag_70\n      swap1\n        /* \"contracts/TimeLock.sol\":2144:2150  _value */\n      dup12\n      swap1\n        /* \"contracts/TimeLock.sol\":2152:2157  _func */\n      dup12\n      swap1\n      dup12\n      swap1\n        /* \"contracts/TimeLock.sol\":2159:2164  _data */\n      dup12\n      swap1\n      dup12\n      swap1\n        /* \"contracts/TimeLock.sol\":2165:2175  _timestamp */\n      dup12\n      swap1\n        /* \"contracts/TimeLock.sol\":2125:2176  Queue(txId,_target,_value, _func, _data,_timestamp) */\n      tag_71\n      jump\t// in\n    tag_70:\n      mload(0x40)\n      dup1\n      swap2\n      sub\n      swap1\n      log3\n        /* \"contracts/TimeLock.sol\":1643:2184  {... */\n      pop\n        /* \"contracts/TimeLock.sol\":1475:2184  function queue(... */\n      pop\n      pop\n      pop\n      pop\n      pop\n      pop\n      pop\n      jump\t// out\n        /* \"contracts/TimeLock.sol\":1161:1465  function getTxId(... */\n    tag_35:\n        /* \"contracts/TimeLock.sol\":1342:1354  bytes32 txId */\n      0x00\n        /* \"contracts/TimeLock.sol\":1408:1415  _target */\n      dup8\n        /* \"contracts/TimeLock.sol\":1416:1422  _value */\n      dup8\n        /* \"contracts/TimeLock.sol\":1423:1428  _func */\n      dup8\n      dup8\n        /* \"contracts/TimeLock.sol\":1429:1434  _data */\n      dup8\n      dup8\n        /* \"contracts/TimeLock.sol\":1435:1445  _timestamp */\n      dup8\n        /* \"contracts/TimeLock.sol\":1397:1446  abi.encode(_target,_value,_func,_data,_timestamp) */\n      add(0x20, mload(0x40))\n      tag_73\n      swap8\n      swap7\n      swap6\n      swap5\n      swap4\n      swap3\n      swap2\n      swap1\n      tag_74\n      jump\t// in\n    tag_73:\n      mload(0x40)\n      0x20\n      dup2\n      dup4\n      sub\n      sub\n      dup2\n      mstore\n      swap1\n      0x40\n      mstore\n        /* \"contracts/TimeLock.sol\":1373:1457  keccak256(... */\n      dup1\n      mload\n      swap1\n      0x20\n      add\n      keccak256\n        /* \"contracts/TimeLock.sol\":1366:1457  return keccak256(... */\n      swap1\n      pop\n        /* \"contracts/TimeLock.sol\":1161:1465  function getTxId(... */\n      swap8\n      swap7\n      pop\n      pop\n      pop\n      pop\n      pop\n      pop\n      pop\n      jump\t// out\n        /* \"contracts/TimeLock.sol\":2192:3754  function execute(... */\n    tag_49:\n        /* \"contracts/TimeLock.sol\":1079:1084  owner */\n      sload(0x00)\n        /* \"contracts/TimeLock.sol\":2389:2401  bytes memory */\n      0x60\n      swap1\n      sub(shl(0xa0, 0x01), 0x01)\n        /* \"contracts/TimeLock.sol\":1079:1084  owner */\n      and\n        /* \"contracts/TimeLock.sol\":1067:1077  msg.sender */\n      caller\n        /* \"contracts/TimeLock.sol\":1067:1084  msg.sender!=owner */\n      eq\n        /* \"contracts/TimeLock.sol\":1063:1134  if (msg.sender!=owner){... */\n      tag_76\n      jumpi\n        /* \"contracts/TimeLock.sol\":1107:1122  NotOwnerError() */\n      mload(0x40)\n      shl(0xe0, 0x74a21527)\n      dup2\n      mstore\n      0x04\n      add\n      mload(0x40)\n      dup1\n      swap2\n      sub\n      swap1\n      revert\n        /* \"contracts/TimeLock.sol\":1063:1134  if (msg.sender!=owner){... */\n    tag_76:\n        /* \"contracts/TimeLock.sol\":2438:2450  bytes32 txId */\n      0x00\n        /* \"contracts/TimeLock.sol\":2453:2503  getTxId(_target, _value, _func, _data, _timestamp) */\n      tag_78\n        /* \"contracts/TimeLock.sol\":2461:2468  _target */\n      dup10\n        /* \"contracts/TimeLock.sol\":2470:2476  _value */\n      dup10\n        /* \"contracts/TimeLock.sol\":2478:2483  _func */\n      dup10\n      dup10\n        /* \"contracts/TimeLock.sol\":2485:2490  _data */\n      dup10\n      dup10\n        /* \"contracts/TimeLock.sol\":2492:2502  _timestamp */\n      dup10\n        /* \"contracts/TimeLock.sol\":2453:2460  getTxId */\n      tag_35\n        /* \"contracts/TimeLock.sol\":2453:2503  getTxId(_target, _value, _func, _data, _timestamp) */\n      jump\t// in\n    tag_78:\n        /* \"contracts/TimeLock.sol\":2550:2562  queued[txId] */\n      0x00\n      dup2\n      dup2\n      mstore\n        /* \"contracts/TimeLock.sol\":2550:2556  queued */\n      0x01\n        /* \"contracts/TimeLock.sol\":2550:2562  queued[txId] */\n      0x20\n      mstore\n      0x40\n      swap1\n      keccak256\n      sload\n        /* \"contracts/TimeLock.sol\":2438:2503  bytes32 txId = getTxId(_target, _value, _func, _data, _timestamp) */\n      swap1\n      swap2\n      pop\n        /* \"contracts/TimeLock.sol\":2550:2562  queued[txId] */\n      0xff\n      and\n        /* \"contracts/TimeLock.sol\":2546:2617  if(!queued[txId]){... */\n      tag_79\n      jumpi\n        /* \"contracts/TimeLock.sol\":2585:2604  NotQueueError(txId) */\n      mload(0x40)\n      shl(0xe0, 0x7eb43527)\n      dup2\n      mstore\n      0x04\n      dup2\n      add\n        /* \"#utility.yul\":537:562   */\n      dup3\n      swap1\n      mstore\n        /* \"#utility.yul\":510:528   */\n      0x24\n      add\n        /* \"contracts/TimeLock.sol\":2585:2604  NotQueueError(txId) */\n      tag_68\n        /* \"#utility.yul\":391:568   */\n      jump\n        /* \"contracts/TimeLock.sol\":2546:2617  if(!queued[txId]){... */\n    tag_79:\n        /* \"contracts/TimeLock.sol\":2696:2706  _timestamp */\n      dup3\n        /* \"contracts/TimeLock.sol\":2678:2693  block.timestamp */\n      timestamp\n        /* \"contracts/TimeLock.sol\":2678:2706  block.timestamp < _timestamp */\n      lt\n        /* \"contracts/TimeLock.sol\":2674:2793  if( block.timestamp < _timestamp){... */\n      iszero\n      tag_81\n      jumpi\n        /* \"contracts/TimeLock.sol\":2729:2780  TimestampNotPassedError(block.timestamp,_timestamp) */\n      mload(0x40)\n      shl(0xe0, 0x035fce5b)\n      dup2\n      mstore\n        /* \"contracts/TimeLock.sol\":2753:2768  block.timestamp */\n      timestamp\n        /* \"contracts/TimeLock.sol\":2729:2780  TimestampNotPassedError(block.timestamp,_timestamp) */\n      0x04\n      dup3\n      add\n        /* \"#utility.yul\":3274:3299   */\n      mstore\n        /* \"#utility.yul\":3315:3333   */\n      0x24\n      dup2\n      add\n        /* \"#utility.yul\":3308:3342   */\n      dup5\n      swap1\n      mstore\n        /* \"#utility.yul\":3247:3265   */\n      0x44\n      add\n        /* \"contracts/TimeLock.sol\":2729:2780  TimestampNotPassedError(block.timestamp,_timestamp) */\n      tag_68\n        /* \"#utility.yul\":3100:3348   */\n      jump\n        /* \"contracts/TimeLock.sol\":2674:2793  if( block.timestamp < _timestamp){... */\n    tag_81:\n        /* \"contracts/TimeLock.sol\":2826:2850  _timestamp +GRACE_PERIOD */\n      tag_83\n        /* \"contracts/TimeLock.sol\":851:855  1000 */\n      0x03e8\n        /* \"contracts/TimeLock.sol\":2826:2836  _timestamp */\n      dup5\n        /* \"contracts/TimeLock.sol\":2826:2850  _timestamp +GRACE_PERIOD */\n      tag_64\n      jump\t// in\n    tag_83:\n        /* \"contracts/TimeLock.sol\":2808:2823  block.timestamp */\n      timestamp\n        /* \"contracts/TimeLock.sol\":2808:2850  block.timestamp > _timestamp +GRACE_PERIOD */\n      gt\n        /* \"contracts/TimeLock.sol\":2804:2948  if (block.timestamp > _timestamp +GRACE_PERIOD){... */\n      iszero\n      tag_84\n      jumpi\n        /* \"contracts/TimeLock.sol\":2895:2910  block.timestamp */\n      timestamp\n        /* \"contracts/TimeLock.sol\":2911:2934  _timestamp+GRACE_PERIOD */\n      tag_85\n        /* \"contracts/TimeLock.sol\":851:855  1000 */\n      0x03e8\n        /* \"contracts/TimeLock.sol\":2911:2921  _timestamp */\n      dup6\n        /* \"contracts/TimeLock.sol\":2911:2934  _timestamp+GRACE_PERIOD */\n      tag_64\n      jump\t// in\n    tag_85:\n        /* \"contracts/TimeLock.sol\":2873:2935  TimestampExpiredERROR(block.timestamp,_timestamp+GRACE_PERIOD) */\n      mload(0x40)\n      shl(0xe1, 0x28f6d8fb)\n      dup2\n      mstore\n      0x04\n      dup2\n      add\n        /* \"#utility.yul\":3274:3299   */\n      swap3\n      swap1\n      swap3\n      mstore\n        /* \"#utility.yul\":3315:3333   */\n      0x24\n      dup3\n      add\n        /* \"#utility.yul\":3308:3342   */\n      mstore\n        /* \"#utility.yul\":3247:3265   */\n      0x44\n      add\n        /* \"contracts/TimeLock.sol\":2873:2935  TimestampExpiredERROR(block.timestamp,_timestamp+GRACE_PERIOD) */\n      tag_68\n        /* \"#utility.yul\":3100:3348   */\n      jump\n        /* \"contracts/TimeLock.sol\":2804:2948  if (block.timestamp > _timestamp +GRACE_PERIOD){... */\n    tag_84:\n        /* \"contracts/TimeLock.sol\":3006:3011  false */\n      0x00\n        /* \"contracts/TimeLock.sol\":2991:3003  queued[txId] */\n      dup2\n      dup2\n      mstore\n        /* \"contracts/TimeLock.sol\":2991:2997  queued */\n      0x01\n        /* \"contracts/TimeLock.sol\":2991:3003  queued[txId] */\n      0x20\n      mstore\n      0x40\n      swap1\n      keccak256\n        /* \"contracts/TimeLock.sol\":2991:3011  queued[txId] = false */\n      dup1\n      sload\n      not(0xff)\n      and\n      swap1\n      sstore\n        /* \"contracts/TimeLock.sol\":3051:3068  bytes memory data */\n      0x60\n        /* \"contracts/TimeLock.sol\":3083:3104  bytes(_func).length>0 */\n      dup7\n      iszero\n        /* \"contracts/TimeLock.sol\":3079:3476  if (bytes(_func).length>0){... */\n      tag_87\n      jumpi\n        /* \"contracts/TimeLock.sol\":3377:3382  _func */\n      dup8\n      dup8\n        /* \"contracts/TimeLock.sol\":3361:3384  keccak256(bytes(_func)) */\n      mload(0x40)\n      tag_88\n      swap3\n      swap2\n      swap1\n      tag_89\n      jump\t// in\n    tag_88:\n      mload(0x40)\n      swap1\n      dup2\n      swap1\n      sub\n      dup2\n      keccak256\n      not(sub(shl(0xe0, 0x01), 0x01))\n        /* \"#utility.yul\":5306:5339   */\n      and\n        /* \"contracts/TimeLock.sol\":3217:3422  abi.encodePacked(... */\n      0x20\n      dup3\n      add\n        /* \"#utility.yul\":5294:5340   */\n      mstore\n        /* \"#utility.yul\":5356:5367   */\n      0x24\n      add\n        /* \"contracts/TimeLock.sol\":3217:3422  abi.encodePacked(... */\n      mload(0x40)\n      0x20\n      dup2\n      dup4\n      sub\n      sub\n      dup2\n      mstore\n      swap1\n      0x40\n      mstore\n        /* \"contracts/TimeLock.sol\":3212:3422  data=abi.encodePacked(... */\n      swap1\n      pop\n        /* \"contracts/TimeLock.sol\":3079:3476  if (bytes(_func).length>0){... */\n      jump(tag_92)\n    tag_87:\n        /* \"contracts/TimeLock.sol\":3459:3464  _data */\n      dup6\n      dup6\n        /* \"contracts/TimeLock.sol\":3454:3464  data=_data */\n      dup1\n      dup1\n      0x1f\n      add\n      0x20\n      dup1\n      swap2\n      div\n      mul\n      0x20\n      add\n      mload(0x40)\n      swap1\n      dup2\n      add\n      0x40\n      mstore\n      dup1\n      swap4\n      swap3\n      swap2\n      swap1\n      dup2\n      dup2\n      mstore\n      0x20\n      add\n      dup4\n      dup4\n      dup1\n      dup3\n      dup5\n      calldatacopy\n      0x00\n      swap3\n      add\n      swap2\n      swap1\n      swap2\n      mstore\n      pop\n      swap3\n      swap4\n      pop\n      pop\n      pop\n      pop\n        /* \"contracts/TimeLock.sol\":3079:3476  if (bytes(_func).length>0){... */\n    tag_92:\n        /* \"contracts/TimeLock.sol\":3487:3499  bool success */\n      0x00\n        /* \"contracts/TimeLock.sol\":3500:3516  bytes memory res */\n      dup1\n        /* \"contracts/TimeLock.sol\":3519:3526  _target */\n      dup12\n      sub(shl(0xa0, 0x01), 0x01)\n        /* \"contracts/TimeLock.sol\":3519:3531  _target.call */\n      and\n        /* \"contracts/TimeLock.sol\":3538:3544  _value */\n      dup12\n        /* \"contracts/TimeLock.sol\":3560:3564  data */\n      dup5\n        /* \"contracts/TimeLock.sol\":3519:3575  _target.call{value:_value}(... */\n      mload(0x40)\n      tag_93\n      swap2\n      swap1\n      tag_94\n      jump\t// in\n    tag_93:\n      0x00\n      mload(0x40)\n      dup1\n      dup4\n      sub\n      dup2\n      dup6\n      dup8\n      gas\n      call\n      swap3\n      pop\n      pop\n      pop\n      returndatasize\n      dup1\n      0x00\n      dup2\n      eq\n      tag_97\n      jumpi\n      mload(0x40)\n      swap2\n      pop\n      and(add(returndatasize, 0x3f), not(0x1f))\n      dup3\n      add\n      0x40\n      mstore\n      returndatasize\n      dup3\n      mstore\n      returndatasize\n      0x00\n      0x20\n      dup5\n      add\n      returndatacopy\n      jump(tag_96)\n    tag_97:\n      0x60\n      swap2\n      pop\n    tag_96:\n      pop\n        /* \"contracts/TimeLock.sol\":3486:3575  (bool success,bytes memory res) =_target.call{value:_value}(... */\n      swap2\n      pop\n      swap2\n      pop\n        /* \"contracts/TimeLock.sol\":3590:3597  success */\n      dup2\n        /* \"contracts/TimeLock.sol\":3586:3645  if(!success){... */\n      tag_98\n      jumpi\n        /* \"contracts/TimeLock.sol\":3620:3633  TxFailError() */\n      mload(0x40)\n      shl(0xe1, 0x2cd763bb)\n      dup2\n      mstore\n      0x04\n      add\n      mload(0x40)\n      dup1\n      swap2\n      sub\n      swap1\n      revert\n        /* \"contracts/TimeLock.sol\":3586:3645  if(!success){... */\n    tag_98:\n        /* \"contracts/TimeLock.sol\":3683:3690  _target */\n      dup12\n      sub(shl(0xa0, 0x01), 0x01)\n        /* \"contracts/TimeLock.sol\":3670:3723  Execute(txId,_target,_value, _func, _data,_timestamp) */\n      and\n        /* \"contracts/TimeLock.sol\":3678:3682  txId */\n      dup5\n        /* \"contracts/TimeLock.sol\":3670:3723  Execute(txId,_target,_value, _func, _data,_timestamp) */\n      0xd1d5c3c892c18716bd88852091d1b63dc6849e9d7c37f69d566884bf954d4bd9\n        /* \"contracts/TimeLock.sol\":3691:3697  _value */\n      dup14\n        /* \"contracts/TimeLock.sol\":3699:3704  _func */\n      dup14\n      dup14\n        /* \"contracts/TimeLock.sol\":3706:3711  _data */\n      dup14\n      dup14\n        /* \"contracts/TimeLock.sol\":3712:3722  _timestamp */\n      dup14\n        /* \"contracts/TimeLock.sol\":3670:3723  Execute(txId,_target,_value, _func, _data,_timestamp) */\n      mload(0x40)\n      tag_99\n      swap7\n      swap6\n      swap5\n      swap4\n      swap3\n      swap2\n      swap1\n      tag_71\n      jump\t// in\n    tag_99:\n      mload(0x40)\n      dup1\n      swap2\n      sub\n      swap1\n      log3\n        /* \"contracts/TimeLock.sol\":3743:3746  res */\n      swap12\n        /* \"contracts/TimeLock.sol\":2192:3754  function execute(... */\n      swap11\n      pop\n      pop\n      pop\n      pop\n      pop\n      pop\n      pop\n      pop\n      pop\n      pop\n      pop\n      jump\t// out\n        /* \"contracts/TimeLock.sol\":3762:3962  function cancel(bytes32 _txId) external onlyOwner{... */\n    tag_59:\n        /* \"contracts/TimeLock.sol\":1079:1084  owner */\n      and(sub(shl(0xa0, 0x01), 0x01), sload(0x00))\n        /* \"contracts/TimeLock.sol\":1067:1077  msg.sender */\n      caller\n        /* \"contracts/TimeLock.sol\":1067:1084  msg.sender!=owner */\n      eq\n        /* \"contracts/TimeLock.sol\":1063:1134  if (msg.sender!=owner){... */\n      tag_101\n      jumpi\n        /* \"contracts/TimeLock.sol\":1107:1122  NotOwnerError() */\n      mload(0x40)\n      shl(0xe0, 0x74a21527)\n      dup2\n      mstore\n      0x04\n      add\n      mload(0x40)\n      dup1\n      swap2\n      sub\n      swap1\n      revert\n        /* \"contracts/TimeLock.sol\":1063:1134  if (msg.sender!=owner){... */\n    tag_101:\n        /* \"contracts/TimeLock.sol\":3826:3839  queued[_txId] */\n      0x00\n      dup2\n      dup2\n      mstore\n        /* \"contracts/TimeLock.sol\":3826:3832  queued */\n      0x01\n        /* \"contracts/TimeLock.sol\":3826:3839  queued[_txId] */\n      0x20\n      mstore\n      0x40\n      swap1\n      keccak256\n      sload\n      0xff\n      and\n        /* \"contracts/TimeLock.sol\":3822:3894  if(!queued[_txId]){... */\n      tag_103\n      jumpi\n        /* \"contracts/TimeLock.sol\":3862:3882  NotQueueError(_txId) */\n      mload(0x40)\n      shl(0xe0, 0x7eb43527)\n      dup2\n      mstore\n      0x04\n      dup2\n      add\n        /* \"#utility.yul\":537:562   */\n      dup3\n      swap1\n      mstore\n        /* \"#utility.yul\":510:528   */\n      0x24\n      add\n        /* \"contracts/TimeLock.sol\":3862:3882  NotQueueError(_txId) */\n      tag_68\n        /* \"#utility.yul\":391:568   */\n      jump\n        /* \"contracts/TimeLock.sol\":3822:3894  if(!queued[_txId]){... */\n    tag_103:\n        /* \"contracts/TimeLock.sol\":3920:3925  false */\n      0x00\n        /* \"contracts/TimeLock.sol\":3904:3917  queued[_txId] */\n      dup2\n      dup2\n      mstore\n        /* \"contracts/TimeLock.sol\":3904:3910  queued */\n      0x01\n        /* \"contracts/TimeLock.sol\":3904:3917  queued[_txId] */\n      0x20\n      mstore\n      0x40\n      dup1\n      dup3\n      keccak256\n        /* \"contracts/TimeLock.sol\":3904:3925  queued[_txId] = false */\n      dup1\n      sload\n      not(0xff)\n      and\n      swap1\n      sstore\n        /* \"contracts/TimeLock.sol\":3941:3954  Cancel(_txId) */\n      mload\n        /* \"contracts/TimeLock.sol\":3911:3916  _txId */\n      dup3\n      swap2\n        /* \"contracts/TimeLock.sol\":3941:3954  Cancel(_txId) */\n      0xe8d9861dbc9c663ed3accd261bbe2fe01e0d3d9e5f51fa38523b265c7757a93a\n      swap2\n      log2\n        /* \"contracts/TimeLock.sol\":3762:3962  function cancel(bytes32 _txId) external onlyOwner{... */\n      pop\n      jump\t// out\n        /* \"#utility.yul\":14:194   */\n    tag_18:\n        /* \"#utility.yul\":73:79   */\n      0x00\n        /* \"#utility.yul\":126:128   */\n      0x20\n        /* \"#utility.yul\":114:123   */\n      dup3\n        /* \"#utility.yul\":105:112   */\n      dup5\n        /* \"#utility.yul\":101:124   */\n      sub\n        /* \"#utility.yul\":97:129   */\n      slt\n        /* \"#utility.yul\":94:146   */\n      iszero\n      tag_109\n      jumpi\n        /* \"#utility.yul\":142:143   */\n      0x00\n        /* \"#utility.yul\":139:140   */\n      dup1\n        /* \"#utility.yul\":132:144   */\n      revert\n        /* \"#utility.yul\":94:146   */\n    tag_109:\n      pop\n        /* \"#utility.yul\":165:188   */\n      calldataload\n      swap2\n        /* \"#utility.yul\":14:194   */\n      swap1\n      pop\n      jump\t// out\n        /* \"#utility.yul\":573:921   */\n    tag_105:\n        /* \"#utility.yul\":625:633   */\n      0x00\n        /* \"#utility.yul\":635:641   */\n      dup1\n        /* \"#utility.yul\":689:692   */\n      dup4\n        /* \"#utility.yul\":682:686   */\n      0x1f\n        /* \"#utility.yul\":674:680   */\n      dup5\n        /* \"#utility.yul\":670:687   */\n      add\n        /* \"#utility.yul\":666:693   */\n      slt\n        /* \"#utility.yul\":656:711   */\n      tag_113\n      jumpi\n        /* \"#utility.yul\":707:708   */\n      0x00\n        /* \"#utility.yul\":704:705   */\n      dup1\n        /* \"#utility.yul\":697:709   */\n      revert\n        /* \"#utility.yul\":656:711   */\n    tag_113:\n      pop\n        /* \"#utility.yul\":730:750   */\n      dup2\n      calldataload\n        /* \"#utility.yul\":773:791   */\n      0xffffffffffffffff\n        /* \"#utility.yul\":762:792   */\n      dup2\n      gt\n        /* \"#utility.yul\":759:809   */\n      iszero\n      tag_114\n      jumpi\n        /* \"#utility.yul\":805:806   */\n      0x00\n        /* \"#utility.yul\":802:803   */\n      dup1\n        /* \"#utility.yul\":795:807   */\n      revert\n        /* \"#utility.yul\":759:809   */\n    tag_114:\n        /* \"#utility.yul\":842:846   */\n      0x20\n        /* \"#utility.yul\":834:840   */\n      dup4\n        /* \"#utility.yul\":830:847   */\n      add\n        /* \"#utility.yul\":818:847   */\n      swap2\n      pop\n        /* \"#utility.yul\":894:897   */\n      dup4\n        /* \"#utility.yul\":887:891   */\n      0x20\n        /* \"#utility.yul\":878:884   */\n      dup3\n        /* \"#utility.yul\":870:876   */\n      dup6\n        /* \"#utility.yul\":866:885   */\n      add\n        /* \"#utility.yul\":862:892   */\n      add\n        /* \"#utility.yul\":859:898   */\n      gt\n        /* \"#utility.yul\":856:915   */\n      iszero\n      tag_115\n      jumpi\n        /* \"#utility.yul\":911:912   */\n      0x00\n        /* \"#utility.yul\":908:909   */\n      dup1\n        /* \"#utility.yul\":901:913   */\n      revert\n        /* \"#utility.yul\":856:915   */\n    tag_115:\n        /* \"#utility.yul\":573:921   */\n      swap3\n      pop\n      swap3\n      swap1\n      pop\n      jump\t// out\n        /* \"#utility.yul\":926:2057   */\n    tag_30:\n        /* \"#utility.yul\":1044:1050   */\n      0x00\n        /* \"#utility.yul\":1052:1058   */\n      dup1\n        /* \"#utility.yul\":1060:1066   */\n      0x00\n        /* \"#utility.yul\":1068:1074   */\n      dup1\n        /* \"#utility.yul\":1076:1082   */\n      0x00\n        /* \"#utility.yul\":1084:1090   */\n      dup1\n        /* \"#utility.yul\":1092:1098   */\n      0x00\n        /* \"#utility.yul\":1145:1148   */\n      0xa0\n        /* \"#utility.yul\":1133:1142   */\n      dup9\n        /* \"#utility.yul\":1124:1131   */\n      dup11\n        /* \"#utility.yul\":1120:1143   */\n      sub\n        /* \"#utility.yul\":1116:1149   */\n      slt\n        /* \"#utility.yul\":1113:1166   */\n      iszero\n      tag_117\n      jumpi\n        /* \"#utility.yul\":1162:1163   */\n      0x00\n        /* \"#utility.yul\":1159:1160   */\n      dup1\n        /* \"#utility.yul\":1152:1164   */\n      revert\n        /* \"#utility.yul\":1113:1166   */\n    tag_117:\n        /* \"#utility.yul\":1188:1211   */\n      dup8\n      calldataload\n      sub(shl(0xa0, 0x01), 0x01)\n        /* \"#utility.yul\":1240:1271   */\n      dup2\n      and\n        /* \"#utility.yul\":1230:1272   */\n      dup2\n      eq\n        /* \"#utility.yul\":1220:1290   */\n      tag_118\n      jumpi\n        /* \"#utility.yul\":1286:1287   */\n      0x00\n        /* \"#utility.yul\":1283:1284   */\n      dup1\n        /* \"#utility.yul\":1276:1288   */\n      revert\n        /* \"#utility.yul\":1220:1290   */\n    tag_118:\n        /* \"#utility.yul\":1309:1314   */\n      swap7\n      pop\n        /* \"#utility.yul\":1387:1389   */\n      0x20\n        /* \"#utility.yul\":1372:1390   */\n      dup9\n      add\n        /* \"#utility.yul\":1359:1391   */\n      calldataload\n      swap6\n      pop\n        /* \"#utility.yul\":1468:1470   */\n      0x40\n        /* \"#utility.yul\":1453:1471   */\n      dup9\n      add\n        /* \"#utility.yul\":1440:1472   */\n      calldataload\n        /* \"#utility.yul\":1495:1513   */\n      0xffffffffffffffff\n        /* \"#utility.yul\":1484:1514   */\n      dup2\n      gt\n        /* \"#utility.yul\":1481:1531   */\n      iszero\n      tag_119\n      jumpi\n        /* \"#utility.yul\":1527:1528   */\n      0x00\n        /* \"#utility.yul\":1524:1525   */\n      dup1\n        /* \"#utility.yul\":1517:1529   */\n      revert\n        /* \"#utility.yul\":1481:1531   */\n    tag_119:\n        /* \"#utility.yul\":1566:1625   */\n      tag_120\n        /* \"#utility.yul\":1617:1624   */\n      dup11\n        /* \"#utility.yul\":1608:1614   */\n      dup3\n        /* \"#utility.yul\":1597:1606   */\n      dup12\n        /* \"#utility.yul\":1593:1615   */\n      add\n        /* \"#utility.yul\":1566:1625   */\n      tag_105\n      jump\t// in\n    tag_120:\n        /* \"#utility.yul\":1644:1652   */\n      swap1\n      swap7\n      pop\n        /* \"#utility.yul\":1540:1625   */\n      swap5\n      pop\n      pop\n        /* \"#utility.yul\":1732:1734   */\n      0x60\n        /* \"#utility.yul\":1717:1735   */\n      dup9\n      add\n        /* \"#utility.yul\":1704:1736   */\n      calldataload\n        /* \"#utility.yul\":1761:1779   */\n      0xffffffffffffffff\n        /* \"#utility.yul\":1748:1780   */\n      dup2\n      gt\n        /* \"#utility.yul\":1745:1797   */\n      iszero\n      tag_121\n      jumpi\n        /* \"#utility.yul\":1793:1794   */\n      0x00\n        /* \"#utility.yul\":1790:1791   */\n      dup1\n        /* \"#utility.yul\":1783:1795   */\n      revert\n        /* \"#utility.yul\":1745:1797   */\n    tag_121:\n        /* \"#utility.yul\":1832:1893   */\n      tag_122\n        /* \"#utility.yul\":1885:1892   */\n      dup11\n        /* \"#utility.yul\":1874:1882   */\n      dup3\n        /* \"#utility.yul\":1863:1872   */\n      dup12\n        /* \"#utility.yul\":1859:1883   */\n      add\n        /* \"#utility.yul\":1832:1893   */\n      tag_105\n      jump\t// in\n    tag_122:\n        /* \"#utility.yul\":926:2057   */\n      swap9\n      swap12\n      swap8\n      swap11\n      pop\n      swap6\n      swap9\n      swap5\n      swap8\n      swap6\n      swap7\n        /* \"#utility.yul\":2020:2023   */\n      0x80\n        /* \"#utility.yul\":2005:2024   */\n      swap1\n      swap6\n      add\n        /* \"#utility.yul\":1992:2025   */\n      calldataload\n      swap5\n        /* \"#utility.yul\":926:2057   */\n      swap4\n      pop\n      pop\n      pop\n      pop\n      jump\t// out\n        /* \"#utility.yul\":2452:2868   */\n    tag_51:\n        /* \"#utility.yul\":2599:2601   */\n      0x20\n        /* \"#utility.yul\":2588:2597   */\n      dup2\n        /* \"#utility.yul\":2581:2602   */\n      mstore\n        /* \"#utility.yul\":2562:2566   */\n      0x00\n        /* \"#utility.yul\":2631:2637   */\n      dup3\n        /* \"#utility.yul\":2625:2638   */\n      mload\n        /* \"#utility.yul\":2674:2680   */\n      dup1\n        /* \"#utility.yul\":2669:2671   */\n      0x20\n        /* \"#utility.yul\":2658:2667   */\n      dup5\n        /* \"#utility.yul\":2654:2672   */\n      add\n        /* \"#utility.yul\":2647:2681   */\n      mstore\n        /* \"#utility.yul\":2733:2739   */\n      dup1\n        /* \"#utility.yul\":2728:2730   */\n      0x20\n        /* \"#utility.yul\":2720:2726   */\n      dup6\n        /* \"#utility.yul\":2716:2731   */\n      add\n        /* \"#utility.yul\":2711:2713   */\n      0x40\n        /* \"#utility.yul\":2700:2709   */\n      dup6\n        /* \"#utility.yul\":2696:2714   */\n      add\n        /* \"#utility.yul\":2690:2740   */\n      mcopy\n        /* \"#utility.yul\":2789:2790   */\n      0x00\n        /* \"#utility.yul\":2784:2786   */\n      0x40\n        /* \"#utility.yul\":2775:2781   */\n      dup3\n        /* \"#utility.yul\":2764:2773   */\n      dup6\n        /* \"#utility.yul\":2760:2782   */\n      add\n        /* \"#utility.yul\":2756:2787   */\n      add\n        /* \"#utility.yul\":2749:2791   */\n      mstore\n        /* \"#utility.yul\":2859:2861   */\n      0x40\n        /* \"#utility.yul\":2852:2854   */\n      0x1f\n        /* \"#utility.yul\":2848:2855   */\n      not\n        /* \"#utility.yul\":2843:2845   */\n      0x1f\n        /* \"#utility.yul\":2835:2841   */\n      dup4\n        /* \"#utility.yul\":2831:2846   */\n      add\n        /* \"#utility.yul\":2827:2856   */\n      and\n        /* \"#utility.yul\":2816:2825   */\n      dup5\n        /* \"#utility.yul\":2812:2857   */\n      add\n        /* \"#utility.yul\":2808:2862   */\n      add\n        /* \"#utility.yul\":2800:2862   */\n      swap2\n      pop\n      pop\n        /* \"#utility.yul\":2452:2868   */\n      swap3\n      swap2\n      pop\n      pop\n      jump\t// out\n        /* \"#utility.yul\":2873:3095   */\n    tag_64:\n        /* \"#utility.yul\":2938:2947   */\n      dup1\n      dup3\n      add\n        /* \"#utility.yul\":2959:2969   */\n      dup1\n      dup3\n      gt\n        /* \"#utility.yul\":2956:3089   */\n      iszero\n      tag_127\n      jumpi\n        /* \"#utility.yul\":3011:3021   */\n      0x4e487b71\n        /* \"#utility.yul\":3006:3009   */\n      0xe0\n        /* \"#utility.yul\":3002:3022   */\n      shl\n        /* \"#utility.yul\":2999:3000   */\n      0x00\n        /* \"#utility.yul\":2992:3023   */\n      mstore\n        /* \"#utility.yul\":3046:3050   */\n      0x11\n        /* \"#utility.yul\":3043:3044   */\n      0x04\n        /* \"#utility.yul\":3036:3051   */\n      mstore\n        /* \"#utility.yul\":3074:3078   */\n      0x24\n        /* \"#utility.yul\":3071:3072   */\n      0x00\n        /* \"#utility.yul\":3064:3079   */\n      revert\n        /* \"#utility.yul\":2956:3089   */\n    tag_127:\n        /* \"#utility.yul\":2873:3095   */\n      swap3\n      swap2\n      pop\n      pop\n      jump\t// out\n        /* \"#utility.yul\":3353:3620   */\n    tag_106:\n        /* \"#utility.yul\":3442:3448   */\n      dup2\n        /* \"#utility.yul\":3437:3440   */\n      dup4\n        /* \"#utility.yul\":3430:3449   */\n      mstore\n        /* \"#utility.yul\":3494:3500   */\n      dup2\n        /* \"#utility.yul\":3487:3492   */\n      dup2\n        /* \"#utility.yul\":3480:3484   */\n      0x20\n        /* \"#utility.yul\":3475:3478   */\n      dup6\n        /* \"#utility.yul\":3471:3485   */\n      add\n        /* \"#utility.yul\":3458:3501   */\n      calldatacopy\n      pop\n        /* \"#utility.yul\":3546:3547   */\n      0x00\n        /* \"#utility.yul\":3521:3537   */\n      dup3\n      dup3\n      add\n        /* \"#utility.yul\":3539:3543   */\n      0x20\n        /* \"#utility.yul\":3517:3544   */\n      swap1\n      dup2\n      add\n        /* \"#utility.yul\":3510:3548   */\n      swap2\n      swap1\n      swap2\n      mstore\n        /* \"#utility.yul\":3602:3604   */\n      0x1f\n        /* \"#utility.yul\":3581:3596   */\n      swap1\n      swap2\n      add\n      not(0x1f)\n        /* \"#utility.yul\":3577:3606   */\n      and\n        /* \"#utility.yul\":3568:3607   */\n      swap1\n      swap2\n      add\n        /* \"#utility.yul\":3564:3614   */\n      add\n      swap1\n        /* \"#utility.yul\":3353:3620   */\n      jump\t// out\n        /* \"#utility.yul\":3625:4204   */\n    tag_71:\n        /* \"#utility.yul\":3896:3902   */\n      dup7\n        /* \"#utility.yul\":3885:3894   */\n      dup2\n        /* \"#utility.yul\":3878:3903   */\n      mstore\n        /* \"#utility.yul\":3939:3942   */\n      0x80\n        /* \"#utility.yul\":3934:3936   */\n      0x20\n        /* \"#utility.yul\":3923:3932   */\n      dup3\n        /* \"#utility.yul\":3919:3937   */\n      add\n        /* \"#utility.yul\":3912:3943   */\n      mstore\n        /* \"#utility.yul\":3859:3863   */\n      0x00\n        /* \"#utility.yul\":3966:4029   */\n      tag_131\n        /* \"#utility.yul\":4024:4027   */\n      0x80\n        /* \"#utility.yul\":4013:4022   */\n      dup4\n        /* \"#utility.yul\":4009:4028   */\n      add\n        /* \"#utility.yul\":4001:4007   */\n      dup8\n        /* \"#utility.yul\":3993:3999   */\n      dup10\n        /* \"#utility.yul\":3966:4029   */\n      tag_106\n      jump\t// in\n    tag_131:\n        /* \"#utility.yul\":4077:4086   */\n      dup3\n        /* \"#utility.yul\":4069:4075   */\n      dup2\n        /* \"#utility.yul\":4065:4087   */\n      sub\n        /* \"#utility.yul\":4060:4062   */\n      0x40\n        /* \"#utility.yul\":4049:4058   */\n      dup5\n        /* \"#utility.yul\":4045:4063   */\n      add\n        /* \"#utility.yul\":4038:4088   */\n      mstore\n        /* \"#utility.yul\":4105:4155   */\n      tag_132\n        /* \"#utility.yul\":4148:4154   */\n      dup2\n        /* \"#utility.yul\":4140:4146   */\n      dup7\n        /* \"#utility.yul\":4132:4138   */\n      dup9\n        /* \"#utility.yul\":4105:4155   */\n      tag_106\n      jump\t// in\n    tag_132:\n        /* \"#utility.yul\":4097:4155   */\n      swap2\n      pop\n      pop\n        /* \"#utility.yul\":4191:4197   */\n      dup3\n        /* \"#utility.yul\":4186:4188   */\n      0x60\n        /* \"#utility.yul\":4175:4184   */\n      dup4\n        /* \"#utility.yul\":4171:4189   */\n      add\n        /* \"#utility.yul\":4164:4198   */\n      mstore\n        /* \"#utility.yul\":3625:4204   */\n      swap8\n      swap7\n      pop\n      pop\n      pop\n      pop\n      pop\n      pop\n      pop\n      jump\t// out\n        /* \"#utility.yul\":4209:4886   */\n    tag_74:\n        /* \"#utility.yul\":4537:4538   */\n      0x01\n        /* \"#utility.yul\":4533:4534   */\n      dup1\n        /* \"#utility.yul\":4528:4531   */\n      0xa0\n        /* \"#utility.yul\":4524:4535   */\n      shl\n        /* \"#utility.yul\":4520:4539   */\n      sub\n        /* \"#utility.yul\":4512:4518   */\n      dup9\n        /* \"#utility.yul\":4508:4540   */\n      and\n        /* \"#utility.yul\":4497:4506   */\n      dup2\n        /* \"#utility.yul\":4490:4541   */\n      mstore\n        /* \"#utility.yul\":4577:4583   */\n      dup7\n        /* \"#utility.yul\":4572:4574   */\n      0x20\n        /* \"#utility.yul\":4561:4570   */\n      dup3\n        /* \"#utility.yul\":4557:4575   */\n      add\n        /* \"#utility.yul\":4550:4584   */\n      mstore\n        /* \"#utility.yul\":4620:4623   */\n      0xa0\n        /* \"#utility.yul\":4615:4617   */\n      0x40\n        /* \"#utility.yul\":4604:4613   */\n      dup3\n        /* \"#utility.yul\":4600:4618   */\n      add\n        /* \"#utility.yul\":4593:4624   */\n      mstore\n        /* \"#utility.yul\":4471:4475   */\n      0x00\n        /* \"#utility.yul\":4647:4710   */\n      tag_134\n        /* \"#utility.yul\":4705:4708   */\n      0xa0\n        /* \"#utility.yul\":4694:4703   */\n      dup4\n        /* \"#utility.yul\":4690:4709   */\n      add\n        /* \"#utility.yul\":4682:4688   */\n      dup8\n        /* \"#utility.yul\":4674:4680   */\n      dup10\n        /* \"#utility.yul\":4647:4710   */\n      tag_106\n      jump\t// in\n    tag_134:\n        /* \"#utility.yul\":4758:4767   */\n      dup3\n        /* \"#utility.yul\":4750:4756   */\n      dup2\n        /* \"#utility.yul\":4746:4768   */\n      sub\n        /* \"#utility.yul\":4741:4743   */\n      0x60\n        /* \"#utility.yul\":4730:4739   */\n      dup5\n        /* \"#utility.yul\":4726:4744   */\n      add\n        /* \"#utility.yul\":4719:4769   */\n      mstore\n        /* \"#utility.yul\":4786:4836   */\n      tag_135\n        /* \"#utility.yul\":4829:4835   */\n      dup2\n        /* \"#utility.yul\":4821:4827   */\n      dup7\n        /* \"#utility.yul\":4813:4819   */\n      dup9\n        /* \"#utility.yul\":4786:4836   */\n      tag_106\n      jump\t// in\n    tag_135:\n        /* \"#utility.yul\":4778:4836   */\n      swap2\n      pop\n      pop\n        /* \"#utility.yul\":4873:4879   */\n      dup3\n        /* \"#utility.yul\":4867:4870   */\n      0x80\n        /* \"#utility.yul\":4856:4865   */\n      dup4\n        /* \"#utility.yul\":4852:4871   */\n      add\n        /* \"#utility.yul\":4845:4880   */\n      mstore\n        /* \"#utility.yul\":4209:4886   */\n      swap9\n      swap8\n      pop\n      pop\n      pop\n      pop\n      pop\n      pop\n      pop\n      pop\n      jump\t// out\n        /* \"#utility.yul\":4891:5162   */\n    tag_89:\n        /* \"#utility.yul\":5074:5080   */\n      dup2\n        /* \"#utility.yul\":5066:5072   */\n      dup4\n        /* \"#utility.yul\":5061:5064   */\n      dup3\n        /* \"#utility.yul\":5048:5081   */\n      calldatacopy\n        /* \"#utility.yul\":5030:5033   */\n      0x00\n        /* \"#utility.yul\":5100:5116   */\n      swap2\n      add\n        /* \"#utility.yul\":5125:5138   */\n      swap1\n      dup2\n      mstore\n        /* \"#utility.yul\":5100:5116   */\n      swap2\n        /* \"#utility.yul\":4891:5162   */\n      swap1\n      pop\n      jump\t// out\n        /* \"#utility.yul\":5378:5679   */\n    tag_94:\n        /* \"#utility.yul\":5507:5510   */\n      0x00\n        /* \"#utility.yul\":5545:5551   */\n      dup3\n        /* \"#utility.yul\":5539:5552   */\n      mload\n        /* \"#utility.yul\":5591:5597   */\n      dup1\n        /* \"#utility.yul\":5584:5588   */\n      0x20\n        /* \"#utility.yul\":5576:5582   */\n      dup6\n        /* \"#utility.yul\":5572:5589   */\n      add\n        /* \"#utility.yul\":5567:5570   */\n      dup5\n        /* \"#utility.yul\":5561:5598   */\n      mcopy\n        /* \"#utility.yul\":5653:5654   */\n      0x00\n        /* \"#utility.yul\":5617:5633   */\n      swap3\n      add\n        /* \"#utility.yul\":5642:5655   */\n      swap2\n      dup3\n      mstore\n      pop\n        /* \"#utility.yul\":5617:5633   */\n      swap2\n        /* \"#utility.yul\":5378:5679   */\n      swap1\n      pop\n      jump\t// out\n\n    auxdata: 0xa264697066735822122084541a65023dd03047929e776160f77b34ceda9a2a9df1baccc56d941e49620964736f6c634300081a0033\n}\n",
				"bytecode": {
					"linkReferences": {},
					"object": "6080604052348015600e575f80fd5b505f80546001600160a01b031916331790556108518061002d5f395ff3fe608060405260043610610087575f3560e01c80638da5cb5b116100575780638da5cb5b146101385780639f81aed71461016e578063b0f8b14214610182578063c1a287e2146100d5578063c4d252f5146101a2575f80fd5b8063228250c9146100925780634125ff90146100d55780634b9915a5146100f85780638a1ce0b614610119575f80fd5b3661008e57005b5f80fd5b34801561009d575f80fd5b506100c06100ac3660046105eb565b60016020525f908152604090205460ff1681565b60405190151581526020015b60405180910390f35b3480156100e0575f80fd5b506100ea6103e881565b6040519081526020016100cc565b348015610103575f80fd5b50610117610112366004610647565b6101c1565b005b348015610124575f80fd5b506100ea610133366004610647565b6102c4565b348015610143575f80fd5b505f54610156906001600160a01b031681565b6040516001600160a01b0390911681526020016100cc565b348015610179575f80fd5b506100ea600a81565b610195610190366004610647565b610305565b6040516100cc91906106e5565b3480156101ad575f80fd5b506101176101bc3660046105eb565b610551565b5f6101d1888888888888886102c4565b5f8181526001602052604090205490915060ff1615610203576040516311bc2f1560e21b815260040160405180910390fd5b61020e600a4261071a565b82108061022557506102226103e84261071a565b82115b1561025157604051630d4b0b6160e11b8152426004820152602481018390526044015b60405180910390fd5b5f81815260016020819052604091829020805460ff19169091179055516001600160a01b0389169082907f3c22f47140594040d205a5533cfedd86c9ab8622c39ead03affb2d97052c794c906102b2908b908b908b908b908b908b90610767565b60405180910390a35050505050505050565b5f878787878787876040516020016102e297969594939291906107a7565b604051602081830303815290604052805190602001209050979650505050505050565b5f546060906001600160a01b03163314610332576040516374a2152760e01b815260040160405180910390fd5b5f610342898989898989896102c4565b5f8181526001602052604090205490915060ff1661037657604051637eb4352760e01b815260048101829052602401610248565b824210156103a05760405163035fce5b60e01b815242600482015260248101849052604401610248565b6103ac6103e88461071a565b4211156103e257426103c06103e88561071a565b6040516328f6d8fb60e11b815260048101929092526024820152604401610248565b5f818152600160205260409020805460ff191690556060861561044057878760405161040f9291906107f6565b6040519081900381206001600160e01b03191660208201526024016040516020818303038152906040529050610479565b85858080601f0160208091040260200160405190810160405280939291908181526020018383808284375f920191909152509293505050505b5f808b6001600160a01b03168b846040516104949190610805565b5f6040518083038185875af1925050503d805f81146104ce576040519150601f19603f3d011682016040523d82523d5f602084013e6104d3565b606091505b5091509150816104f657604051632cd763bb60e11b815260040160405180910390fd5b8b6001600160a01b0316847fd1d5c3c892c18716bd88852091d1b63dc6849e9d7c37f69d566884bf954d4bd98d8d8d8d8d8d60405161053a96959493929190610767565b60405180910390a39b9a5050505050505050505050565b5f546001600160a01b0316331461057b576040516374a2152760e01b815260040160405180910390fd5b5f8181526001602052604090205460ff166105ac57604051637eb4352760e01b815260048101829052602401610248565b5f81815260016020526040808220805460ff191690555182917fe8d9861dbc9c663ed3accd261bbe2fe01e0d3d9e5f51fa38523b265c7757a93a91a250565b5f602082840312156105fb575f80fd5b5035919050565b5f8083601f840112610612575f80fd5b50813567ffffffffffffffff811115610629575f80fd5b602083019150836020828501011115610640575f80fd5b9250929050565b5f805f805f805f60a0888a03121561065d575f80fd5b87356001600160a01b0381168114610673575f80fd5b965060208801359550604088013567ffffffffffffffff811115610695575f80fd5b6106a18a828b01610602565b909650945050606088013567ffffffffffffffff8111156106c0575f80fd5b6106cc8a828b01610602565b989b979a50959894979596608090950135949350505050565b602081525f82518060208401528060208501604085015e5f604082850101526040601f19601f83011684010191505092915050565b8082018082111561073957634e487b7160e01b5f52601160045260245ffd5b92915050565b81835281816020850137505f828201602090810191909152601f909101601f19169091010190565b868152608060208201525f61078060808301878961073f565b828103604084015261079381868861073f565b915050826060830152979650505050505050565b60018060a01b038816815286602082015260a060408201525f6107ce60a08301878961073f565b82810360608401526107e181868861073f565b91505082608083015298975050505050505050565b818382375f9101908152919050565b5f82518060208501845e5f92019182525091905056fea264697066735822122084541a65023dd03047929e776160f77b34ceda9a2a9df1baccc56d941e49620964736f6c634300081a0033",
					"opcodes": "PUSH1 0x80 PUSH1 0x40 MSTORE CALLVALUE DUP1 ISZERO PUSH1 0xE JUMPI PUSH0 DUP1 REVERT JUMPDEST POP PUSH0 DUP1 SLOAD PUSH1 0x1 PUSH1 0x1 PUSH1 0xA0 SHL SUB NOT AND CALLER OR SWAP1 SSTORE PUSH2 0x851 DUP1 PUSH2 0x2D PUSH0 CODECOPY PUSH0 RETURN INVALID PUSH1 0x80 PUSH1 0x40 MSTORE PUSH1 0x4 CALLDATASIZE LT PUSH2 0x87 JUMPI PUSH0 CALLDATALOAD PUSH1 0xE0 SHR DUP1 PUSH4 0x8DA5CB5B GT PUSH2 0x57 JUMPI DUP1 PUSH4 0x8DA5CB5B EQ PUSH2 0x138 JUMPI DUP1 PUSH4 0x9F81AED7 EQ PUSH2 0x16E JUMPI DUP1 PUSH4 0xB0F8B142 EQ PUSH2 0x182 JUMPI DUP1 PUSH4 0xC1A287E2 EQ PUSH2 0xD5 JUMPI DUP1 PUSH4 0xC4D252F5 EQ PUSH2 0x1A2 JUMPI PUSH0 DUP1 REVERT JUMPDEST DUP1 PUSH4 0x228250C9 EQ PUSH2 0x92 JUMPI DUP1 PUSH4 0x4125FF90 EQ PUSH2 0xD5 JUMPI DUP1 PUSH4 0x4B9915A5 EQ PUSH2 0xF8 JUMPI DUP1 PUSH4 0x8A1CE0B6 EQ PUSH2 0x119 JUMPI PUSH0 DUP1 REVERT JUMPDEST CALLDATASIZE PUSH2 0x8E JUMPI STOP JUMPDEST PUSH0 DUP1 REVERT JUMPDEST CALLVALUE DUP1 ISZERO PUSH2 0x9D JUMPI PUSH0 DUP1 REVERT JUMPDEST POP PUSH2 0xC0 PUSH2 0xAC CALLDATASIZE PUSH1 0x4 PUSH2 0x5EB JUMP JUMPDEST PUSH1 0x1 PUSH1 0x20 MSTORE PUSH0 SWAP1 DUP2 MSTORE PUSH1 0x40 SWAP1 KECCAK256 SLOAD PUSH1 0xFF AND DUP2 JUMP JUMPDEST PUSH1 0x40 MLOAD SWAP1 ISZERO ISZERO DUP2 MSTORE PUSH1 0x20 ADD JUMPDEST PUSH1 0x40 MLOAD DUP1 SWAP2 SUB SWAP1 RETURN JUMPDEST CALLVALUE DUP1 ISZERO PUSH2 0xE0 JUMPI PUSH0 DUP1 REVERT JUMPDEST POP PUSH2 0xEA PUSH2 0x3E8 DUP2 JUMP JUMPDEST PUSH1 0x40 MLOAD SWAP1 DUP2 MSTORE PUSH1 0x20 ADD PUSH2 0xCC JUMP JUMPDEST CALLVALUE DUP1 ISZERO PUSH2 0x103 JUMPI PUSH0 DUP1 REVERT JUMPDEST POP PUSH2 0x117 PUSH2 0x112 CALLDATASIZE PUSH1 0x4 PUSH2 0x647 JUMP JUMPDEST PUSH2 0x1C1 JUMP JUMPDEST STOP JUMPDEST CALLVALUE DUP1 ISZERO PUSH2 0x124 JUMPI PUSH0 DUP1 REVERT JUMPDEST POP PUSH2 0xEA PUSH2 0x133 CALLDATASIZE PUSH1 0x4 PUSH2 0x647 JUMP JUMPDEST PUSH2 0x2C4 JUMP JUMPDEST CALLVALUE DUP1 ISZERO PUSH2 0x143 JUMPI PUSH0 DUP1 REVERT JUMPDEST POP PUSH0 SLOAD PUSH2 0x156 SWAP1 PUSH1 0x1 PUSH1 0x1 PUSH1 0xA0 SHL SUB AND DUP2 JUMP JUMPDEST PUSH1 0x40 MLOAD PUSH1 0x1 PUSH1 0x1 PUSH1 0xA0 SHL SUB SWAP1 SWAP2 AND DUP2 MSTORE PUSH1 0x20 ADD PUSH2 0xCC JUMP JUMPDEST CALLVALUE DUP1 ISZERO PUSH2 0x179 JUMPI PUSH0 DUP1 REVERT JUMPDEST POP PUSH2 0xEA PUSH1 0xA DUP2 JUMP JUMPDEST PUSH2 0x195 PUSH2 0x190 CALLDATASIZE PUSH1 0x4 PUSH2 0x647 JUMP JUMPDEST PUSH2 0x305 JUMP JUMPDEST PUSH1 0x40 MLOAD PUSH2 0xCC SWAP2 SWAP1 PUSH2 0x6E5 JUMP JUMPDEST CALLVALUE DUP1 ISZERO PUSH2 0x1AD JUMPI PUSH0 DUP1 REVERT JUMPDEST POP PUSH2 0x117 PUSH2 0x1BC CALLDATASIZE PUSH1 0x4 PUSH2 0x5EB JUMP JUMPDEST PUSH2 0x551 JUMP JUMPDEST PUSH0 PUSH2 0x1D1 DUP9 DUP9 DUP9 DUP9 DUP9 DUP9 DUP9 PUSH2 0x2C4 JUMP JUMPDEST PUSH0 DUP2 DUP2 MSTORE PUSH1 0x1 PUSH1 0x20 MSTORE PUSH1 0x40 SWAP1 KECCAK256 SLOAD SWAP1 SWAP2 POP PUSH1 0xFF AND ISZERO PUSH2 0x203 JUMPI PUSH1 0x40 MLOAD PUSH4 0x11BC2F15 PUSH1 0xE2 SHL DUP2 MSTORE PUSH1 0x4 ADD PUSH1 0x40 MLOAD DUP1 SWAP2 SUB SWAP1 REVERT JUMPDEST PUSH2 0x20E PUSH1 0xA TIMESTAMP PUSH2 0x71A JUMP JUMPDEST DUP3 LT DUP1 PUSH2 0x225 JUMPI POP PUSH2 0x222 PUSH2 0x3E8 TIMESTAMP PUSH2 0x71A JUMP JUMPDEST DUP3 GT JUMPDEST ISZERO PUSH2 0x251 JUMPI PUSH1 0x40 MLOAD PUSH4 0xD4B0B61 PUSH1 0xE1 SHL DUP2 MSTORE TIMESTAMP PUSH1 0x4 DUP3 ADD MSTORE PUSH1 0x24 DUP2 ADD DUP4 SWAP1 MSTORE PUSH1 0x44 ADD JUMPDEST PUSH1 0x40 MLOAD DUP1 SWAP2 SUB SWAP1 REVERT JUMPDEST PUSH0 DUP2 DUP2 MSTORE PUSH1 0x1 PUSH1 0x20 DUP2 SWAP1 MSTORE PUSH1 0x40 SWAP2 DUP3 SWAP1 KECCAK256 DUP1 SLOAD PUSH1 0xFF NOT AND SWAP1 SWAP2 OR SWAP1 SSTORE MLOAD PUSH1 0x1 PUSH1 0x1 PUSH1 0xA0 SHL SUB DUP10 AND SWAP1 DUP3 SWAP1 PUSH32 0x3C22F47140594040D205A5533CFEDD86C9AB8622C39EAD03AFFB2D97052C794C SWAP1 PUSH2 0x2B2 SWAP1 DUP12 SWAP1 DUP12 SWAP1 DUP12 SWAP1 DUP12 SWAP1 DUP12 SWAP1 DUP12 SWAP1 PUSH2 0x767 JUMP JUMPDEST PUSH1 0x40 MLOAD DUP1 SWAP2 SUB SWAP1 LOG3 POP POP POP POP POP POP POP POP JUMP JUMPDEST PUSH0 DUP8 DUP8 DUP8 DUP8 DUP8 DUP8 DUP8 PUSH1 0x40 MLOAD PUSH1 0x20 ADD PUSH2 0x2E2 SWAP8 SWAP7 SWAP6 SWAP5 SWAP4 SWAP3 SWAP2 SWAP1 PUSH2 0x7A7 JUMP JUMPDEST PUSH1 0x40 MLOAD PUSH1 0x20 DUP2 DUP4 SUB SUB DUP2 MSTORE SWAP1 PUSH1 0x40 MSTORE DUP1 MLOAD SWAP1 PUSH1 0x20 ADD KECCAK256 SWAP1 POP SWAP8 SWAP7 POP POP POP POP POP POP POP JUMP JUMPDEST PUSH0 SLOAD PUSH1 0x60 SWAP1 PUSH1 0x1 PUSH1 0x1 PUSH1 0xA0 SHL SUB AND CALLER EQ PUSH2 0x332 JUMPI PUSH1 0x40 MLOAD PUSH4 0x74A21527 PUSH1 0xE0 SHL DUP2 MSTORE PUSH1 0x4 ADD PUSH1 0x40 MLOAD DUP1 SWAP2 SUB SWAP1 REVERT JUMPDEST PUSH0 PUSH2 0x342 DUP10 DUP10 DUP10 DUP10 DUP10 DUP10 DUP10 PUSH2 0x2C4 JUMP JUMPDEST PUSH0 DUP2 DUP2 MSTORE PUSH1 0x1 PUSH1 0x20 MSTORE PUSH1 0x40 SWAP1 KECCAK256 SLOAD SWAP1 SWAP2 POP PUSH1 0xFF AND PUSH2 0x376 JUMPI PUSH1 0x40 MLOAD PUSH4 0x7EB43527 PUSH1 0xE0 SHL DUP2 MSTORE PUSH1 0x4 DUP2 ADD DUP3 SWAP1 MSTORE PUSH1 0x24 ADD PUSH2 0x248 JUMP JUMPDEST DUP3 TIMESTAMP LT ISZERO PUSH2 0x3A0 JUMPI PUSH1 0x40 MLOAD PUSH4 0x35FCE5B PUSH1 0xE0 SHL DUP2 MSTORE TIMESTAMP PUSH1 0x4 DUP3 ADD MSTORE PUSH1 0x24 DUP2 ADD DUP5 SWAP1 MSTORE PUSH1 0x44 ADD PUSH2 0x248 JUMP JUMPDEST PUSH2 0x3AC PUSH2 0x3E8 DUP5 PUSH2 0x71A JUMP JUMPDEST TIMESTAMP GT ISZERO PUSH2 0x3E2 JUMPI TIMESTAMP PUSH2 0x3C0 PUSH2 0x3E8 DUP6 PUSH2 0x71A JUMP JUMPDEST PUSH1 0x40 MLOAD PUSH4 0x28F6D8FB PUSH1 0xE1 SHL DUP2 MSTORE PUSH1 0x4 DUP2 ADD SWAP3 SWAP1 SWAP3 MSTORE PUSH1 0x24 DUP3 ADD MSTORE PUSH1 0x44 ADD PUSH2 0x248 JUMP JUMPDEST PUSH0 DUP2 DUP2 MSTORE PUSH1 0x1 PUSH1 0x20 MSTORE PUSH1 0x40 SWAP1 KECCAK256 DUP1 SLOAD PUSH1 0xFF NOT AND SWAP1 SSTORE PUSH1 0x60 DUP7 ISZERO PUSH2 0x440 JUMPI DUP8 DUP8 PUSH1 0x40 MLOAD PUSH2 0x40F SWAP3 SWAP2 SWAP1 PUSH2 0x7F6 JUMP JUMPDEST PUSH1 0x40 MLOAD SWAP1 DUP2 SWAP1 SUB DUP2 KECCAK256 PUSH1 0x1 PUSH1 0x1 PUSH1 0xE0 SHL SUB NOT AND PUSH1 0x20 DUP3 ADD MSTORE PUSH1 0x24 ADD PUSH1 0x40 MLOAD PUSH1 0x20 DUP2 DUP4 SUB SUB DUP2 MSTORE SWAP1 PUSH1 0x40 MSTORE SWAP1 POP PUSH2 0x479 JUMP JUMPDEST DUP6 DUP6 DUP1 DUP1 PUSH1 0x1F ADD PUSH1 0x20 DUP1 SWAP2 DIV MUL PUSH1 0x20 ADD PUSH1 0x40 MLOAD SWAP1 DUP2 ADD PUSH1 0x40 MSTORE DUP1 SWAP4 SWAP3 SWAP2 SWAP1 DUP2 DUP2 MSTORE PUSH1 0x20 ADD DUP4 DUP4 DUP1 DUP3 DUP5 CALLDATACOPY PUSH0 SWAP3 ADD SWAP2 SWAP1 SWAP2 MSTORE POP SWAP3 SWAP4 POP POP POP POP JUMPDEST PUSH0 DUP1 DUP12 PUSH1 0x1 PUSH1 0x1 PUSH1 0xA0 SHL SUB AND DUP12 DUP5 PUSH1 0x40 MLOAD PUSH2 0x494 SWAP2 SWAP1 PUSH2 0x805 JUMP JUMPDEST PUSH0 PUSH1 0x40 MLOAD DUP1 DUP4 SUB DUP2 DUP6 DUP8 GAS CALL SWAP3 POP POP POP RETURNDATASIZE DUP1 PUSH0 DUP2 EQ PUSH2 0x4CE JUMPI PUSH1 0x40 MLOAD SWAP2 POP PUSH1 0x1F NOT PUSH1 0x3F RETURNDATASIZE ADD AND DUP3 ADD PUSH1 0x40 MSTORE RETURNDATASIZE DUP3 MSTORE RETURNDATASIZE PUSH0 PUSH1 0x20 DUP5 ADD RETURNDATACOPY PUSH2 0x4D3 JUMP JUMPDEST PUSH1 0x60 SWAP2 POP JUMPDEST POP SWAP2 POP SWAP2 POP DUP2 PUSH2 0x4F6 JUMPI PUSH1 0x40 MLOAD PUSH4 0x2CD763BB PUSH1 0xE1 SHL DUP2 MSTORE PUSH1 0x4 ADD PUSH1 0x40 MLOAD DUP1 SWAP2 SUB SWAP1 REVERT JUMPDEST DUP12 PUSH1 0x1 PUSH1 0x1 PUSH1 0xA0 SHL SUB AND DUP5 PUSH32 0xD1D5C3C892C18716BD88852091D1B63DC6849E9D7C37F69D566884BF954D4BD9 DUP14 DUP14 DUP14 DUP14 DUP14 DUP14 PUSH1 0x40 MLOAD PUSH2 0x53A SWAP7 SWAP6 SWAP5 SWAP4 SWAP3 SWAP2 SWAP1 PUSH2 0x767 JUMP JUMPDEST PUSH1 0x40 MLOAD DUP1 SWAP2 SUB SWAP1 LOG3 SWAP12 SWAP11 POP POP POP POP POP POP POP POP POP POP POP JUMP JUMPDEST PUSH0 SLOAD PUSH1 0x1 PUSH1 0x1 PUSH1 0xA0 SHL SUB AND CALLER EQ PUSH2 0x57B JUMPI PUSH1 0x40 MLOAD PUSH4 0x74A21527 PUSH1 0xE0 SHL DUP2 MSTORE PUSH1 0x4 ADD PUSH1 0x40 MLOAD DUP1 SWAP2 SUB SWAP1 REVERT JUMPDEST PUSH0 DUP2 DUP2 MSTORE PUSH1 0x1 PUSH1 0x20 MSTORE PUSH1 0x40 SWAP1 KECCAK256 SLOAD PUSH1 0xFF AND PUSH2 0x5AC JUMPI PUSH1 0x40 MLOAD PUSH4 0x7EB43527 PUSH1 0xE0 SHL DUP2 MSTORE PUSH1 0x4 DUP2 ADD DUP3 SWAP1 MSTORE PUSH1 0x24 ADD PUSH2 0x248 JUMP JUMPDEST PUSH0 DUP2 DUP2 MSTORE PUSH1 0x1 PUSH1 0x20 MSTORE PUSH1 0x40 DUP1 DUP3 KECCAK256 DUP1 SLOAD PUSH1 0xFF NOT AND SWAP1 SSTORE MLOAD DUP3 SWAP2 PUSH32 0xE8D9861DBC9C663ED3ACCD261BBE2FE01E0D3D9E5F51FA38523B265C7757A93A SWAP2 LOG2 POP JUMP JUMPDEST PUSH0 PUSH1 0x20 DUP3 DUP5 SUB SLT ISZERO PUSH2 0x5FB JUMPI PUSH0 DUP1 REVERT JUMPDEST POP CALLDATALOAD SWAP2 SWAP1 POP JUMP JUMPDEST PUSH0 DUP1 DUP4 PUSH1 0x1F DUP5 ADD SLT PUSH2 0x612 JUMPI PUSH0 DUP1 REVERT JUMPDEST POP DUP2 CALLDATALOAD PUSH8 0xFFFFFFFFFFFFFFFF DUP2 GT ISZERO PUSH2 0x629 JUMPI PUSH0 DUP1 REVERT JUMPDEST PUSH1 0x20 DUP4 ADD SWAP2 POP DUP4 PUSH1 0x20 DUP3 DUP6 ADD ADD GT ISZERO PUSH2 0x640 JUMPI PUSH0 DUP1 REVERT JUMPDEST SWAP3 POP SWAP3 SWAP1 POP JUMP JUMPDEST PUSH0 DUP1 PUSH0 DUP1 PUSH0 DUP1 PUSH0 PUSH1 0xA0 DUP9 DUP11 SUB SLT ISZERO PUSH2 0x65D JUMPI PUSH0 DUP1 REVERT JUMPDEST DUP8 CALLDATALOAD PUSH1 0x1 PUSH1 0x1 PUSH1 0xA0 SHL SUB DUP2 AND DUP2 EQ PUSH2 0x673 JUMPI PUSH0 DUP1 REVERT JUMPDEST SWAP7 POP PUSH1 0x20 DUP9 ADD CALLDATALOAD SWAP6 POP PUSH1 0x40 DUP9 ADD CALLDATALOAD PUSH8 0xFFFFFFFFFFFFFFFF DUP2 GT ISZERO PUSH2 0x695 JUMPI PUSH0 DUP1 REVERT JUMPDEST PUSH2 0x6A1 DUP11 DUP3 DUP12 ADD PUSH2 0x602 JUMP JUMPDEST SWAP1 SWAP7 POP SWAP5 POP POP PUSH1 0x60 DUP9 ADD CALLDATALOAD PUSH8 0xFFFFFFFFFFFFFFFF DUP2 GT ISZERO PUSH2 0x6C0 JUMPI PUSH0 DUP1 REVERT JUMPDEST PUSH2 0x6CC DUP11 DUP3 DUP12 ADD PUSH2 0x602 JUMP JUMPDEST SWAP9 SWAP12 SWAP8 SWAP11 POP SWAP6 SWAP9 SWAP5 SWAP8 SWAP6 SWAP7 PUSH1 0x80 SWAP1 SWAP6 ADD CALLDATALOAD SWAP5 SWAP4 POP POP POP POP JUMP JUMPDEST PUSH1 0x20 DUP2 MSTORE PUSH0 DUP3 MLOAD DUP1 PUSH1 0x20 DUP5 ADD MSTORE DUP1 PUSH1 0x20 DUP6 ADD PUSH1 0x40 DUP6 ADD MCOPY PUSH0 PUSH1 0x40 DUP3 DUP6 ADD ADD MSTORE PUSH1 0x40 PUSH1 0x1F NOT PUSH1 0x1F DUP4 ADD AND DUP5 ADD ADD SWAP2 POP POP SWAP3 SWAP2 POP POP JUMP JUMPDEST DUP1 DUP3 ADD DUP1 DUP3 GT ISZERO PUSH2 0x739 JUMPI PUSH4 0x4E487B71 PUSH1 0xE0 SHL PUSH0 MSTORE PUSH1 0x11 PUSH1 0x4 MSTORE PUSH1 0x24 PUSH0 REVERT JUMPDEST SWAP3 SWAP2 POP POP JUMP JUMPDEST DUP2 DUP4 MSTORE DUP2 DUP2 PUSH1 0x20 DUP6 ADD CALLDATACOPY POP PUSH0 DUP3 DUP3 ADD PUSH1 0x20 SWAP1 DUP2 ADD SWAP2 SWAP1 SWAP2 MSTORE PUSH1 0x1F SWAP1 SWAP2 ADD PUSH1 0x1F NOT AND SWAP1 SWAP2 ADD ADD SWAP1 JUMP JUMPDEST DUP7 DUP2 MSTORE PUSH1 0x80 PUSH1 0x20 DUP3 ADD MSTORE PUSH0 PUSH2 0x780 PUSH1 0x80 DUP4 ADD DUP8 DUP10 PUSH2 0x73F JUMP JUMPDEST DUP3 DUP2 SUB PUSH1 0x40 DUP5 ADD MSTORE PUSH2 0x793 DUP2 DUP7 DUP9 PUSH2 0x73F JUMP JUMPDEST SWAP2 POP POP DUP3 PUSH1 0x60 DUP4 ADD MSTORE SWAP8 SWAP7 POP POP POP POP POP POP POP JUMP JUMPDEST PUSH1 0x1 DUP1 PUSH1 0xA0 SHL SUB DUP9 AND DUP2 MSTORE DUP7 PUSH1 0x20 DUP3 ADD MSTORE PUSH1 0xA0 PUSH1 0x40 DUP3 ADD MSTORE PUSH0 PUSH2 0x7CE PUSH1 0xA0 DUP4 ADD DUP8 DUP10 PUSH2 0x73F JUMP JUMPDEST DUP3 DUP2 SUB PUSH1 0x60 DUP5 ADD MSTORE PUSH2 0x7E1 DUP2 DUP7 DUP9 PUSH2 0x73F JUMP JUMPDEST SWAP2 POP POP DUP3 PUSH1 0x80 DUP4 ADD MSTORE SWAP9 SWAP8 POP POP POP POP POP POP POP POP JUMP JUMPDEST DUP2 DUP4 DUP3 CALLDATACOPY PUSH0 SWAP2 ADD SWAP1 DUP2 MSTORE SWAP2 SWAP1 POP JUMP JUMPDEST PUSH0 DUP3 MLOAD DUP1 PUSH1 0x20 DUP6 ADD DUP5 MCOPY PUSH0 SWAP3 ADD SWAP2 DUP3 MSTORE POP SWAP2 SWAP1 POP JUMP INVALID LOG2 PUSH5 0x6970667358 0x22 SLT KECCAK256 DUP5 SLOAD BYTE PUSH6 0x23DD0304792 SWAP15 PUSH24 0x6160F77B34CEDA9A2A9DF1BACCC56D941E49620964736F6C PUSH4 0x4300081A STOP CALLER "
				},
				"gasEstimates": {
					"creation": {
						"codeDepositCost": "425800",
						"executionCost": "24693",
						"totalCost": "450493"
					},
					"external": {
						"GRACE_PERIOD()": "260",
						"MAX_DELAY()": "217",
						"MIN_DELAY()": "216",
						"cancel(bytes32)": "30062",
						"execute(address,uint256,string,bytes,uint256)": "infinite",
						"getTxId(address,uint256,string,bytes,uint256)": "infinite",
						"owner()": "2335",
						"queue(address,uint256,string,bytes,uint256)": "infinite",
						"queued(bytes32)": "2437"
					}
				},
				"methodIdentifiers": {
					"GRACE_PERIOD()": "c1a287e2",
					"MAX_DELAY()": "4125ff90",
					"MIN_DELAY()": "9f81aed7",
					"cancel(bytes32)": "c4d252f5",
					"execute(address,uint256,string,bytes,uint256)": "b0f8b142",
					"getTxId(address,uint256,string,bytes,uint256)": "8a1ce0b6",
					"owner()": "8da5cb5b",
					"queue(address,uint256,string,bytes,uint256)": "4b9915a5",
					"queued(bytes32)": "228250c9"
				}
			},
			"storageLayout": {
				"storage": [
					{
						"astId": 72,
						"contract": "contracts/TimeLock.sol:TimeLock",
						"label": "owner",
						"offset": 0,
						"slot": "0",
						"type": "t_address"
					},
					{
						"astId": 76,
						"contract": "contracts/TimeLock.sol:TimeLock",
						"label": "queued",
						"offset": 0,
						"slot": "1",
						"type": "t_mapping(t_bytes32,t_bool)"
					}
				],
				"types": {
					"t_address": {
						"encoding": "inplace",
						"label": "address",
						"numberOfBytes": "20"
					},
					"t_bool": {
						"encoding": "inplace",
						"label": "bool",
						"numberOfBytes": "1"
					},
					"t_bytes32": {
						"encoding": "inplace",
						"label": "bytes32",
						"numberOfBytes": "32"
					},
					"t_mapping(t_bytes32,t_bool)": {
						"encoding": "mapping",
						"key": "t_bytes32",
						"label": "mapping(bytes32 => bool)",
						"numberOfBytes": "32",
						"value": "t_bool"
					}
				}
			},
			"userdoc": {
				"kind": "user",
				"methods": {},
				"version": 1
			}
		}
	}
}