{
	"threefour/FunctionSelector.sol": {
		"FunctionSelector": {
			"abi": [
				{
					"inputs": [
						{
							"internalType": "string",
							"name": "_func",
							"type": "string"
						}
					],
					"name": "getSelector",
					"outputs": [
						{
							"internalType": "bytes4",
							"name": "",
							"type": "bytes4"
						}
					],
					"stateMutability": "pure",
					"type": "function"
				}
			],
			"devdoc": {
				"kind": "dev",
				"methods": {},
				"version": 1
			},
			"evm": {
				"assembly": "    /* \"threefour/FunctionSelector.sol\":60:353  contract FunctionSelector{... */\n  mstore(0x40, 0x80)\n  callvalue\n  dup1\n  iszero\n  tag_1\n  jumpi\n  0x00\n  dup1\n  revert\ntag_1:\n  pop\n  dataSize(sub_0)\n  dup1\n  dataOffset(sub_0)\n  0x00\n  codecopy\n  0x00\n  return\nstop\n\nsub_0: assembly {\n        /* \"threefour/FunctionSelector.sol\":60:353  contract FunctionSelector{... */\n      mstore(0x40, 0x80)\n      callvalue\n      dup1\n      iszero\n      tag_1\n      jumpi\n      0x00\n      dup1\n      revert\n    tag_1:\n      pop\n      jumpi(tag_2, lt(calldatasize, 0x04))\n      shr(0xe0, calldataload(0x00))\n      dup1\n      0x80a003ff\n      eq\n      tag_3\n      jumpi\n    tag_2:\n      0x00\n      dup1\n      revert\n        /* \"threefour/FunctionSelector.sol\":207:350  function getSelector(string calldata _func) external pure returns (bytes4){... */\n    tag_3:\n      tag_4\n      tag_5\n      calldatasize\n      0x04\n      tag_6\n      jump\t// in\n    tag_5:\n      tag_7\n      jump\t// in\n    tag_4:\n      mload(0x40)\n      not(sub(shl(0xe0, 0x01), 0x01))\n        /* \"#utility.yul\":773:806   */\n      swap1\n      swap2\n      and\n        /* \"#utility.yul\":755:807   */\n      dup2\n      mstore\n        /* \"#utility.yul\":743:745   */\n      0x20\n        /* \"#utility.yul\":728:746   */\n      add\n        /* \"threefour/FunctionSelector.sol\":207:350  function getSelector(string calldata _func) external pure returns (bytes4){... */\n      mload(0x40)\n      dup1\n      swap2\n      sub\n      swap1\n      return\n    tag_7:\n        /* \"threefour/FunctionSelector.sol\":274:280  bytes4 */\n      0x00\n        /* \"threefour/FunctionSelector.sol\":334:339  _func */\n      dup3\n      dup3\n        /* \"threefour/FunctionSelector.sol\":317:340  abi.encodePacked(_func) */\n      add(0x20, mload(0x40))\n      tag_11\n      swap3\n      swap2\n      swap1\n      tag_12\n      jump\t// in\n    tag_11:\n      mload(0x40)\n      0x20\n      dup2\n      dup4\n      sub\n      sub\n      dup2\n      mstore\n      swap1\n      0x40\n      mstore\n        /* \"threefour/FunctionSelector.sol\":307:341  keccak256(abi.encodePacked(_func)) */\n      dup1\n      mload\n      swap1\n      0x20\n      add\n      keccak256\n        /* \"threefour/FunctionSelector.sol\":292:342  return  bytes4(keccak256(abi.encodePacked(_func))) */\n      swap1\n      pop\n        /* \"threefour/FunctionSelector.sol\":207:350  function getSelector(string calldata _func) external pure returns (bytes4){... */\n      swap3\n      swap2\n      pop\n      pop\n      jump\t// out\n        /* \"#utility.yul\":14:606   */\n    tag_6:\n        /* \"#utility.yul\":85:91   */\n      0x00\n        /* \"#utility.yul\":93:99   */\n      dup1\n        /* \"#utility.yul\":146:148   */\n      0x20\n        /* \"#utility.yul\":134:143   */\n      dup4\n        /* \"#utility.yul\":125:132   */\n      dup6\n        /* \"#utility.yul\":121:144   */\n      sub\n        /* \"#utility.yul\":117:149   */\n      slt\n        /* \"#utility.yul\":114:166   */\n      iszero\n      tag_15\n      jumpi\n        /* \"#utility.yul\":162:163   */\n      0x00\n        /* \"#utility.yul\":159:160   */\n      dup1\n        /* \"#utility.yul\":152:164   */\n      revert\n        /* \"#utility.yul\":114:166   */\n    tag_15:\n        /* \"#utility.yul\":202:211   */\n      dup3\n        /* \"#utility.yul\":189:212   */\n      calldataload\n        /* \"#utility.yul\":231:249   */\n      0xffffffffffffffff\n        /* \"#utility.yul\":272:274   */\n      dup1\n        /* \"#utility.yul\":264:270   */\n      dup3\n        /* \"#utility.yul\":261:275   */\n      gt\n        /* \"#utility.yul\":258:292   */\n      iszero\n      tag_16\n      jumpi\n        /* \"#utility.yul\":288:289   */\n      0x00\n        /* \"#utility.yul\":285:286   */\n      dup1\n        /* \"#utility.yul\":278:290   */\n      revert\n        /* \"#utility.yul\":258:292   */\n    tag_16:\n        /* \"#utility.yul\":326:332   */\n      dup2\n        /* \"#utility.yul\":315:324   */\n      dup6\n        /* \"#utility.yul\":311:333   */\n      add\n        /* \"#utility.yul\":301:333   */\n      swap2\n      pop\n        /* \"#utility.yul\":371:378   */\n      dup6\n        /* \"#utility.yul\":364:368   */\n      0x1f\n        /* \"#utility.yul\":360:362   */\n      dup4\n        /* \"#utility.yul\":356:369   */\n      add\n        /* \"#utility.yul\":352:379   */\n      slt\n        /* \"#utility.yul\":342:397   */\n      tag_17\n      jumpi\n        /* \"#utility.yul\":393:394   */\n      0x00\n        /* \"#utility.yul\":390:391   */\n      dup1\n        /* \"#utility.yul\":383:395   */\n      revert\n        /* \"#utility.yul\":342:397   */\n    tag_17:\n        /* \"#utility.yul\":433:435   */\n      dup2\n        /* \"#utility.yul\":420:436   */\n      calldataload\n        /* \"#utility.yul\":459:461   */\n      dup2\n        /* \"#utility.yul\":451:457   */\n      dup2\n        /* \"#utility.yul\":448:462   */\n      gt\n        /* \"#utility.yul\":445:479   */\n      iszero\n      tag_18\n      jumpi\n        /* \"#utility.yul\":475:476   */\n      0x00\n        /* \"#utility.yul\":472:473   */\n      dup1\n        /* \"#utility.yul\":465:477   */\n      revert\n        /* \"#utility.yul\":445:479   */\n    tag_18:\n        /* \"#utility.yul\":520:527   */\n      dup7\n        /* \"#utility.yul\":515:517   */\n      0x20\n        /* \"#utility.yul\":506:512   */\n      dup3\n        /* \"#utility.yul\":502:504   */\n      dup6\n        /* \"#utility.yul\":498:513   */\n      add\n        /* \"#utility.yul\":494:518   */\n      add\n        /* \"#utility.yul\":491:528   */\n      gt\n        /* \"#utility.yul\":488:545   */\n      iszero\n      tag_19\n      jumpi\n        /* \"#utility.yul\":541:542   */\n      0x00\n        /* \"#utility.yul\":538:539   */\n      dup1\n        /* \"#utility.yul\":531:543   */\n      revert\n        /* \"#utility.yul\":488:545   */\n    tag_19:\n        /* \"#utility.yul\":572:574   */\n      0x20\n        /* \"#utility.yul\":564:575   */\n      swap3\n      swap1\n      swap3\n      add\n      swap7\n        /* \"#utility.yul\":594:600   */\n      swap2\n      swap6\n      pop\n        /* \"#utility.yul\":14:606   */\n      swap1\n      swap4\n      pop\n      pop\n      pop\n      pop\n      jump\t// out\n        /* \"#utility.yul\":818:1091   */\n    tag_12:\n        /* \"#utility.yul\":1003:1009   */\n      dup2\n        /* \"#utility.yul\":995:1001   */\n      dup4\n        /* \"#utility.yul\":990:993   */\n      dup3\n        /* \"#utility.yul\":977:1010   */\n      calldatacopy\n        /* \"#utility.yul\":959:962   */\n      0x00\n        /* \"#utility.yul\":1029:1045   */\n      swap2\n      add\n        /* \"#utility.yul\":1054:1067   */\n      swap1\n      dup2\n      mstore\n        /* \"#utility.yul\":1029:1045   */\n      swap2\n        /* \"#utility.yul\":818:1091   */\n      swap1\n      pop\n      jump\t// out\n\n    auxdata: 0xa26469706673582212206cac7bc2d77fd1e08184e118762e3e1c73acc1e1da111737e1433ecf9da7f00564736f6c63430008170033\n}\n",
				"bytecode": {
					"linkReferences": {},
					"object": "608060405234801561000f575f80fd5b506101408061001d5f395ff3fe608060405234801561000f575f80fd5b5060043610610029575f3560e01c806380a003ff1461002d575b5f80fd5b61004061003b36600461008f565b61005d565b6040516001600160e01b0319909116815260200160405180910390f35b5f82826040516020016100719291906100fb565b60405160208183030381529060405280519060200120905092915050565b5f80602083850312156100a0575f80fd5b823567ffffffffffffffff808211156100b7575f80fd5b818501915085601f8301126100ca575f80fd5b8135818111156100d8575f80fd5b8660208285010111156100e9575f80fd5b60209290920196919550909350505050565b818382375f910190815291905056fea26469706673582212206cac7bc2d77fd1e08184e118762e3e1c73acc1e1da111737e1433ecf9da7f00564736f6c63430008170033",
					"opcodes": "PUSH1 0x80 PUSH1 0x40 MSTORE CALLVALUE DUP1 ISZERO PUSH2 0xF JUMPI PUSH0 DUP1 REVERT JUMPDEST POP PUSH2 0x140 DUP1 PUSH2 0x1D PUSH0 CODECOPY PUSH0 RETURN INVALID PUSH1 0x80 PUSH1 0x40 MSTORE CALLVALUE DUP1 ISZERO PUSH2 0xF JUMPI PUSH0 DUP1 REVERT JUMPDEST POP PUSH1 0x4 CALLDATASIZE LT PUSH2 0x29 JUMPI PUSH0 CALLDATALOAD PUSH1 0xE0 SHR DUP1 PUSH4 0x80A003FF EQ PUSH2 0x2D JUMPI JUMPDEST PUSH0 DUP1 REVERT JUMPDEST PUSH2 0x40 PUSH2 0x3B CALLDATASIZE PUSH1 0x4 PUSH2 0x8F JUMP JUMPDEST PUSH2 0x5D JUMP JUMPDEST PUSH1 0x40 MLOAD PUSH1 0x1 PUSH1 0x1 PUSH1 0xE0 SHL SUB NOT SWAP1 SWAP2 AND DUP2 MSTORE PUSH1 0x20 ADD PUSH1 0x40 MLOAD DUP1 SWAP2 SUB SWAP1 RETURN JUMPDEST PUSH0 DUP3 DUP3 PUSH1 0x40 MLOAD PUSH1 0x20 ADD PUSH2 0x71 SWAP3 SWAP2 SWAP1 PUSH2 0xFB JUMP JUMPDEST PUSH1 0x40 MLOAD PUSH1 0x20 DUP2 DUP4 SUB SUB DUP2 MSTORE SWAP1 PUSH1 0x40 MSTORE DUP1 MLOAD SWAP1 PUSH1 0x20 ADD KECCAK256 SWAP1 POP SWAP3 SWAP2 POP POP JUMP JUMPDEST PUSH0 DUP1 PUSH1 0x20 DUP4 DUP6 SUB SLT ISZERO PUSH2 0xA0 JUMPI PUSH0 DUP1 REVERT JUMPDEST DUP3 CALLDATALOAD PUSH8 0xFFFFFFFFFFFFFFFF DUP1 DUP3 GT ISZERO PUSH2 0xB7 JUMPI PUSH0 DUP1 REVERT JUMPDEST DUP2 DUP6 ADD SWAP2 POP DUP6 PUSH1 0x1F DUP4 ADD SLT PUSH2 0xCA JUMPI PUSH0 DUP1 REVERT JUMPDEST DUP2 CALLDATALOAD DUP2 DUP2 GT ISZERO PUSH2 0xD8 JUMPI PUSH0 DUP1 REVERT JUMPDEST DUP7 PUSH1 0x20 DUP3 DUP6 ADD ADD GT ISZERO PUSH2 0xE9 JUMPI PUSH0 DUP1 REVERT JUMPDEST PUSH1 0x20 SWAP3 SWAP1 SWAP3 ADD SWAP7 SWAP2 SWAP6 POP SWAP1 SWAP4 POP POP POP POP JUMP JUMPDEST DUP2 DUP4 DUP3 CALLDATACOPY PUSH0 SWAP2 ADD SWAP1 DUP2 MSTORE SWAP2 SWAP1 POP JUMP INVALID LOG2 PUSH5 0x6970667358 0x22 SLT KECCAK256 PUSH13 0xAC7BC2D77FD1E08184E118762E RETURNDATACOPY SHR PUSH20 0xACC1E1DA111737E1433ECF9DA7F00564736F6C63 NUMBER STOP ADDMOD OR STOP CALLER "
				},
				"gasEstimates": {
					"creation": {
						"codeDepositCost": "64000",
						"executionCost": "109",
						"totalCost": "64109"
					},
					"external": {
						"getSelector(string)": "infinite"
					}
				},
				"methodIdentifiers": {
					"getSelector(string)": "80a003ff"
				}
			},
			"storageLayout": {
				"storage": [],
				"types": null
			},
			"userdoc": {
				"kind": "user",
				"methods": {},
				"version": 1
			}
		}
	}
}