{
	"threefour/MultiDelegatecall.sol": {
		"TestMultiDelegatecall": {
			"abi": [
				{
					"inputs": [],
					"name": "DelegateCallFailed",
					"type": "error"
				},
				{
					"anonymous": false,
					"inputs": [
						{
							"indexed": false,
							"internalType": "address",
							"name": "caller",
							"type": "address"
						},
						{
							"indexed": false,
							"internalType": "string",
							"name": "func",
							"type": "string"
						},
						{
							"indexed": false,
							"internalType": "uint256",
							"name": "i",
							"type": "uint256"
						}
					],
					"name": "Log",
					"type": "event"
				},
				{
					"inputs": [
						{
							"internalType": "address",
							"name": "",
							"type": "address"
						}
					],
					"name": "balanceOf",
					"outputs": [
						{
							"internalType": "uint256",
							"name": "",
							"type": "uint256"
						}
					],
					"stateMutability": "view",
					"type": "function"
				},
				{
					"inputs": [
						{
							"internalType": "uint256",
							"name": "x",
							"type": "uint256"
						},
						{
							"internalType": "uint256",
							"name": "y",
							"type": "uint256"
						}
					],
					"name": "func1",
					"outputs": [],
					"stateMutability": "nonpayable",
					"type": "function"
				},
				{
					"inputs": [],
					"name": "func2",
					"outputs": [
						{
							"internalType": "uint256",
							"name": "",
							"type": "uint256"
						}
					],
					"stateMutability": "nonpayable",
					"type": "function"
				},
				{
					"inputs": [],
					"name": "mint",
					"outputs": [],
					"stateMutability": "payable",
					"type": "function"
				},
				{
					"inputs": [
						{
							"internalType": "bytes[]",
							"name": "data",
							"type": "bytes[]"
						}
					],
					"name": "multiDelegatecall",
					"outputs": [
						{
							"internalType": "bytes[]",
							"name": "results",
							"type": "bytes[]"
						}
					],
					"stateMutability": "payable",
					"type": "function"
				}
			],
			"devdoc": {
				"kind": "dev",
				"methods": {},
				"version": 1
			},
			"evm": {
				"assembly": "    /* \"threefour/MultiDelegatecall.sol\":540:1298  contract TestMultiDelegatecall is MultiDelegatecall{... */\n  mstore(0x40, 0x80)\n  callvalue\n  dup1\n  iszero\n  tag_1\n  jumpi\n  revert(0x00, 0x00)\ntag_1:\n  pop\n  dataSize(sub_0)\n  dup1\n  dataOffset(sub_0)\n  0x00\n  codecopy\n  0x00\n  return\nstop\n\nsub_0: assembly {\n        /* \"threefour/MultiDelegatecall.sol\":540:1298  contract TestMultiDelegatecall is MultiDelegatecall{... */\n      mstore(0x40, 0x80)\n      jumpi(tag_1, lt(calldatasize, 0x04))\n      shr(0xe0, calldataload(0x00))\n      dup1\n      0x10957d3c\n      eq\n      tag_2\n      jumpi\n      dup1\n      0x1249c58b\n      eq\n      tag_3\n      jumpi\n      dup1\n      0x3cb80085\n      eq\n      tag_4\n      jumpi\n      dup1\n      0x70a08231\n      eq\n      tag_5\n      jumpi\n      dup1\n      0xb1ade4db\n      eq\n      tag_6\n      jumpi\n    tag_1:\n      revert(0x00, 0x00)\n        /* \"threefour/MultiDelegatecall.sol\":128:531  function multiDelegatecall(bytes[] calldata data) external payable returns(bytes[] memory results){... */\n    tag_2:\n      tag_7\n      tag_8\n      calldatasize\n      0x04\n      tag_9\n      jump\t// in\n    tag_8:\n      tag_10\n      jump\t// in\n    tag_7:\n      mload(0x40)\n      tag_11\n      swap2\n      swap1\n      tag_12\n      jump\t// in\n    tag_11:\n      mload(0x40)\n      dup1\n      swap2\n      sub\n      swap1\n      return\n        /* \"threefour/MultiDelegatecall.sol\":1208:1293  function mint() external payable {... */\n    tag_3:\n      tag_13\n      tag_14\n      jump\t// in\n    tag_13:\n      stop\n        /* \"threefour/MultiDelegatecall.sol\":656:748  function func1(uint x,uint y) external {... */\n    tag_4:\n      callvalue\n      dup1\n      iszero\n      tag_15\n      jumpi\n      revert(0x00, 0x00)\n    tag_15:\n      pop\n      tag_13\n      tag_17\n      calldatasize\n      0x04\n      tag_18\n      jump\t// in\n    tag_17:\n      tag_19\n      jump\t// in\n        /* \"threefour/MultiDelegatecall.sol\":878:922  mapping(address => uint256) public balanceOf */\n    tag_5:\n      callvalue\n      dup1\n      iszero\n      tag_20\n      jumpi\n      revert(0x00, 0x00)\n    tag_20:\n      pop\n      tag_21\n      tag_22\n      calldatasize\n      0x04\n      tag_23\n      jump\t// in\n    tag_22:\n      0x00\n      0x20\n      dup2\n      swap1\n      mstore\n      swap1\n      dup2\n      mstore\n      0x40\n      swap1\n      keccak256\n      sload\n      dup2\n      jump\n    tag_21:\n      mload(0x40)\n        /* \"#utility.yul\":2449:2474   */\n      swap1\n      dup2\n      mstore\n        /* \"#utility.yul\":2437:2439   */\n      0x20\n        /* \"#utility.yul\":2422:2440   */\n      add\n        /* \"threefour/MultiDelegatecall.sol\":878:922  mapping(address => uint256) public balanceOf */\n      tag_11\n        /* \"#utility.yul\":2303:2480   */\n      jump\n        /* \"threefour/MultiDelegatecall.sol\":756:870  function func2() external returns(uint256){... */\n    tag_6:\n      callvalue\n      dup1\n      iszero\n      tag_27\n      jumpi\n      revert(0x00, 0x00)\n    tag_27:\n      pop\n      tag_21\n      tag_29\n      jump\t// in\n        /* \"threefour/MultiDelegatecall.sol\":128:531  function multiDelegatecall(bytes[] calldata data) external payable returns(bytes[] memory results){... */\n    tag_10:\n        /* \"threefour/MultiDelegatecall.sol\":203:225  bytes[] memory results */\n      0x60\n        /* \"threefour/MultiDelegatecall.sol\":257:261  data */\n      dup2\n        /* \"threefour/MultiDelegatecall.sol\":245:269  new bytes[](data.length) */\n      0xffffffffffffffff\n      dup2\n      gt\n      iszero\n      tag_33\n      jumpi\n      tag_33\n      tag_34\n      jump\t// in\n    tag_33:\n      mload(0x40)\n      swap1\n      dup1\n      dup3\n      mstore\n      dup1\n      0x20\n      mul\n      0x20\n      add\n      dup3\n      add\n      0x40\n      mstore\n      dup1\n      iszero\n      tag_35\n      jumpi\n      dup2\n      0x20\n      add\n    tag_36:\n      0x60\n      dup2\n      mstore\n      0x20\n      add\n      swap1\n      0x01\n      swap1\n      sub\n      swap1\n      dup2\n      tag_36\n      jumpi\n      swap1\n      pop\n    tag_35:\n      pop\n        /* \"threefour/MultiDelegatecall.sol\":237:269  results=new bytes[](data.length) */\n      swap1\n      pop\n        /* \"threefour/MultiDelegatecall.sol\":285:291  uint i */\n      0x00\n        /* \"threefour/MultiDelegatecall.sol\":280:524  for (uint i;i<data.length;i++){... */\n    tag_37:\n        /* \"threefour/MultiDelegatecall.sol\":292:305  i<data.length */\n      dup3\n      dup2\n      lt\n        /* \"threefour/MultiDelegatecall.sol\":280:524  for (uint i;i<data.length;i++){... */\n      iszero\n      tag_38\n      jumpi\n        /* \"threefour/MultiDelegatecall.sol\":326:338  bool success */\n      0x00\n      dup1\n        /* \"threefour/MultiDelegatecall.sol\":366:370  this */\n      address\n        /* \"threefour/MultiDelegatecall.sol\":385:389  data */\n      dup7\n      dup7\n        /* \"threefour/MultiDelegatecall.sol\":390:391  i */\n      dup6\n        /* \"threefour/MultiDelegatecall.sol\":385:392  data[i] */\n      dup2\n      dup2\n      lt\n      tag_41\n      jumpi\n      tag_41\n      tag_42\n      jump\t// in\n    tag_41:\n      swap1\n      pop\n      0x20\n      mul\n      dup2\n      add\n      swap1\n      tag_43\n      swap2\n      swap1\n      tag_44\n      jump\t// in\n    tag_43:\n        /* \"threefour/MultiDelegatecall.sol\":358:393  address(this).delegatecall(data[i]) */\n      mload(0x40)\n      tag_45\n      swap3\n      swap2\n      swap1\n      tag_46\n      jump\t// in\n    tag_45:\n      0x00\n      mload(0x40)\n      dup1\n      dup4\n      sub\n      dup2\n      dup6\n      gas\n      delegatecall\n      swap2\n      pop\n      pop\n      returndatasize\n      dup1\n      0x00\n      dup2\n      eq\n      tag_49\n      jumpi\n      mload(0x40)\n      swap2\n      pop\n      and(add(returndatasize, 0x3f), not(0x1f))\n      dup3\n      add\n      0x40\n      mstore\n      returndatasize\n      dup3\n      mstore\n      returndatasize\n      0x00\n      0x20\n      dup5\n      add\n      returndatacopy\n      jump(tag_48)\n    tag_49:\n      0x60\n      swap2\n      pop\n    tag_48:\n      pop\n        /* \"threefour/MultiDelegatecall.sol\":325:393  (bool success,bytes memory res)= address(this).delegatecall(data[i]) */\n      swap2\n      pop\n      swap2\n      pop\n        /* \"threefour/MultiDelegatecall.sol\":413:420  success */\n      dup2\n        /* \"threefour/MultiDelegatecall.sol\":408:483  if (!success){... */\n      tag_50\n      jumpi\n        /* \"threefour/MultiDelegatecall.sol\":447:467  DelegateCallFailed() */\n      mload(0x40)\n      shl(0xe0, 0x18cecad5)\n      dup2\n      mstore\n      0x04\n      add\n      mload(0x40)\n      dup1\n      swap2\n      sub\n      swap1\n      revert\n        /* \"threefour/MultiDelegatecall.sol\":408:483  if (!success){... */\n    tag_50:\n        /* \"threefour/MultiDelegatecall.sol\":509:512  res */\n      dup1\n        /* \"threefour/MultiDelegatecall.sol\":497:504  results */\n      dup5\n        /* \"threefour/MultiDelegatecall.sol\":505:506  i */\n      dup5\n        /* \"threefour/MultiDelegatecall.sol\":497:507  results[i] */\n      dup2\n      mload\n      dup2\n      lt\n      tag_52\n      jumpi\n      tag_52\n      tag_42\n      jump\t// in\n    tag_52:\n      0x20\n      swap1\n      dup2\n      mul\n      swap2\n      swap1\n      swap2\n      add\n      add\n        /* \"threefour/MultiDelegatecall.sol\":497:512  results[i]= res */\n      mstore\n      pop\n      pop\n        /* \"threefour/MultiDelegatecall.sol\":306:309  i++ */\n      0x01\n      add\n        /* \"threefour/MultiDelegatecall.sol\":280:524  for (uint i;i<data.length;i++){... */\n      jump(tag_37)\n    tag_38:\n      pop\n        /* \"threefour/MultiDelegatecall.sol\":128:531  function multiDelegatecall(bytes[] calldata data) external payable returns(bytes[] memory results){... */\n      swap3\n      swap2\n      pop\n      pop\n      jump\t// out\n        /* \"threefour/MultiDelegatecall.sol\":1208:1293  function mint() external payable {... */\n    tag_14:\n        /* \"threefour/MultiDelegatecall.sol\":1262:1272  msg.sender */\n      caller\n        /* \"threefour/MultiDelegatecall.sol\":1252:1261  balanceOf */\n      0x00\n        /* \"threefour/MultiDelegatecall.sol\":1252:1273  balanceOf[msg.sender] */\n      swap1\n      dup2\n      mstore\n      0x20\n      dup2\n      swap1\n      mstore\n      0x40\n      dup2\n      keccak256\n        /* \"threefour/MultiDelegatecall.sol\":1252:1285  balanceOf[msg.sender] +=msg.value */\n      dup1\n      sload\n        /* \"threefour/MultiDelegatecall.sol\":1276:1285  msg.value */\n      callvalue\n      swap3\n        /* \"threefour/MultiDelegatecall.sol\":1252:1261  balanceOf */\n      swap1\n        /* \"threefour/MultiDelegatecall.sol\":1252:1285  balanceOf[msg.sender] +=msg.value */\n      tag_54\n      swap1\n        /* \"threefour/MultiDelegatecall.sol\":1276:1285  msg.value */\n      dup5\n      swap1\n        /* \"threefour/MultiDelegatecall.sol\":1252:1285  balanceOf[msg.sender] +=msg.value */\n      tag_55\n      jump\t// in\n    tag_54:\n      swap1\n      swap2\n      sstore\n      pop\n      pop\n        /* \"threefour/MultiDelegatecall.sol\":1208:1293  function mint() external payable {... */\n      jump\t// out\n        /* \"threefour/MultiDelegatecall.sol\":656:748  function func1(uint x,uint y) external {... */\n    tag_19:\n        /* \"threefour/MultiDelegatecall.sol\":711:740  Log(msg.sender, \"func1\", x+y) */\n      0xfd33e90d0eac940755277aa91045b95664988beeeafc4ed7d1281a6d83afbc00\n        /* \"threefour/MultiDelegatecall.sol\":715:725  msg.sender */\n      caller\n        /* \"threefour/MultiDelegatecall.sol\":736:739  x+y */\n      tag_57\n        /* \"threefour/MultiDelegatecall.sol\":738:739  y */\n      dup4\n        /* \"threefour/MultiDelegatecall.sol\":736:737  x */\n      dup6\n        /* \"threefour/MultiDelegatecall.sol\":736:739  x+y */\n      tag_55\n      jump\t// in\n    tag_57:\n        /* \"threefour/MultiDelegatecall.sol\":711:740  Log(msg.sender, \"func1\", x+y) */\n      0x40\n      dup1\n      mload\n      sub(shl(0xa0, 0x01), 0x01)\n        /* \"#utility.yul\":4036:4068   */\n      swap1\n      swap4\n      and\n        /* \"#utility.yul\":4018:4069   */\n      dup4\n      mstore\n        /* \"#utility.yul\":4105:4107   */\n      0x60\n        /* \"#utility.yul\":4100:4102   */\n      0x20\n        /* \"#utility.yul\":4085:4103   */\n      dup5\n      add\n        /* \"#utility.yul\":4078:4108   */\n      dup2\n      swap1\n      mstore\n        /* \"#utility.yul\":4144:4145   */\n      0x05\n        /* \"#utility.yul\":4124:4142   */\n      swap1\n      dup5\n      add\n        /* \"#utility.yul\":4117:4146   */\n      mstore\n      shl(0xd8, 0x66756e6331)\n        /* \"#utility.yul\":4177:4180   */\n      0x80\n        /* \"#utility.yul\":4162:4181   */\n      dup5\n      add\n        /* \"#utility.yul\":4155:4191   */\n      mstore\n        /* \"#utility.yul\":4243:4261   */\n      dup3\n      add\n        /* \"#utility.yul\":4236:4270   */\n      mstore\n        /* \"#utility.yul\":4056:4059   */\n      0xa0\n        /* \"#utility.yul\":4208:4227   */\n      add\n        /* \"threefour/MultiDelegatecall.sol\":711:740  Log(msg.sender, \"func1\", x+y) */\n      mload(0x40)\n      dup1\n      swap2\n      sub\n      swap1\n      log1\n        /* \"threefour/MultiDelegatecall.sol\":656:748  function func1(uint x,uint y) external {... */\n      pop\n      pop\n      jump\t// out\n        /* \"threefour/MultiDelegatecall.sol\":756:870  function func2() external returns(uint256){... */\n    tag_29:\n        /* \"threefour/MultiDelegatecall.sol\":814:841  Log(msg.sender, \"func2\", 2) */\n      0x40\n      dup1\n      mload\n        /* \"threefour/MultiDelegatecall.sol\":818:828  msg.sender */\n      caller\n        /* \"#utility.yul\":4529:4580   */\n      dup2\n      mstore\n        /* \"#utility.yul\":4616:4618   */\n      0x60\n        /* \"#utility.yul\":4611:4613   */\n      0x20\n        /* \"#utility.yul\":4596:4614   */\n      dup3\n      add\n        /* \"#utility.yul\":4589:4619   */\n      dup2\n      swap1\n      mstore\n        /* \"#utility.yul\":4655:4656   */\n      0x05\n        /* \"#utility.yul\":4635:4653   */\n      swap1\n      dup3\n      add\n        /* \"#utility.yul\":4628:4657   */\n      mstore\n      shl(0xd9, 0x333ab73199)\n        /* \"#utility.yul\":4688:4691   */\n      0x80\n        /* \"#utility.yul\":4673:4692   */\n      dup3\n      add\n        /* \"#utility.yul\":4666:4702   */\n      mstore\n        /* \"threefour/MultiDelegatecall.sol\":839:840  2 */\n      0x02\n        /* \"#utility.yul\":4754:4772   */\n      dup2\n      dup4\n      add\n        /* \"#utility.yul\":4747:4781   */\n      mstore\n        /* \"threefour/MultiDelegatecall.sol\":814:841  Log(msg.sender, \"func2\", 2) */\n      swap1\n      mload\n      0x00\n      swap2\n      0xfd33e90d0eac940755277aa91045b95664988beeeafc4ed7d1281a6d83afbc00\n      swap2\n      swap1\n      dup2\n      swap1\n      sub\n        /* \"#utility.yul\":4567:4570   */\n      0xa0\n        /* \"threefour/MultiDelegatecall.sol\":814:841  Log(msg.sender, \"func2\", 2) */\n      add\n      swap1\n      log1\n      pop\n        /* \"threefour/MultiDelegatecall.sol\":859:862  111 */\n      0x6f\n      swap1\n        /* \"threefour/MultiDelegatecall.sol\":756:870  function func2() external returns(uint256){... */\n      jump\t// out\n        /* \"#utility.yul\":14:635   */\n    tag_9:\n        /* \"#utility.yul\":111:117   */\n      0x00\n        /* \"#utility.yul\":119:125   */\n      0x00\n        /* \"#utility.yul\":172:174   */\n      0x20\n        /* \"#utility.yul\":160:169   */\n      dup4\n        /* \"#utility.yul\":151:158   */\n      dup6\n        /* \"#utility.yul\":147:170   */\n      sub\n        /* \"#utility.yul\":143:175   */\n      slt\n        /* \"#utility.yul\":140:192   */\n      iszero\n      tag_65\n      jumpi\n        /* \"#utility.yul\":188:189   */\n      0x00\n        /* \"#utility.yul\":185:186   */\n      0x00\n        /* \"#utility.yul\":178:190   */\n      revert\n        /* \"#utility.yul\":140:192   */\n    tag_65:\n        /* \"#utility.yul\":228:237   */\n      dup3\n        /* \"#utility.yul\":215:238   */\n      calldataload\n        /* \"#utility.yul\":261:279   */\n      0xffffffffffffffff\n        /* \"#utility.yul\":253:259   */\n      dup2\n        /* \"#utility.yul\":250:280   */\n      gt\n        /* \"#utility.yul\":247:297   */\n      iszero\n      tag_66\n      jumpi\n        /* \"#utility.yul\":293:294   */\n      0x00\n        /* \"#utility.yul\":290:291   */\n      0x00\n        /* \"#utility.yul\":283:295   */\n      revert\n        /* \"#utility.yul\":247:297   */\n    tag_66:\n        /* \"#utility.yul\":316:338   */\n      dup4\n      add\n        /* \"#utility.yul\":369:373   */\n      0x1f\n        /* \"#utility.yul\":361:374   */\n      dup2\n      add\n        /* \"#utility.yul\":357:384   */\n      dup6\n      sgt\n        /* \"#utility.yul\":347:402   */\n      tag_67\n      jumpi\n        /* \"#utility.yul\":398:399   */\n      0x00\n        /* \"#utility.yul\":395:396   */\n      0x00\n        /* \"#utility.yul\":388:400   */\n      revert\n        /* \"#utility.yul\":347:402   */\n    tag_67:\n        /* \"#utility.yul\":438:440   */\n      dup1\n        /* \"#utility.yul\":425:441   */\n      calldataload\n        /* \"#utility.yul\":464:482   */\n      0xffffffffffffffff\n        /* \"#utility.yul\":456:462   */\n      dup2\n        /* \"#utility.yul\":453:483   */\n      gt\n        /* \"#utility.yul\":450:500   */\n      iszero\n      tag_68\n      jumpi\n        /* \"#utility.yul\":496:497   */\n      0x00\n        /* \"#utility.yul\":493:494   */\n      0x00\n        /* \"#utility.yul\":486:498   */\n      revert\n        /* \"#utility.yul\":450:500   */\n    tag_68:\n        /* \"#utility.yul\":549:556   */\n      dup6\n        /* \"#utility.yul\":544:546   */\n      0x20\n        /* \"#utility.yul\":534:540   */\n      dup3\n        /* \"#utility.yul\":531:532   */\n      0x05\n        /* \"#utility.yul\":527:541   */\n      shl\n        /* \"#utility.yul\":523:525   */\n      dup5\n        /* \"#utility.yul\":519:542   */\n      add\n        /* \"#utility.yul\":515:547   */\n      add\n        /* \"#utility.yul\":512:557   */\n      gt\n        /* \"#utility.yul\":509:574   */\n      iszero\n      tag_69\n      jumpi\n        /* \"#utility.yul\":570:571   */\n      0x00\n        /* \"#utility.yul\":567:568   */\n      0x00\n        /* \"#utility.yul\":560:572   */\n      revert\n        /* \"#utility.yul\":509:574   */\n    tag_69:\n        /* \"#utility.yul\":601:603   */\n      0x20\n        /* \"#utility.yul\":593:604   */\n      swap2\n      swap1\n      swap2\n      add\n      swap6\n        /* \"#utility.yul\":623:629   */\n      swap1\n      swap5\n      pop\n        /* \"#utility.yul\":14:635   */\n      swap3\n      pop\n      pop\n      pop\n      jump\t// out\n        /* \"#utility.yul\":640:1656   */\n    tag_12:\n        /* \"#utility.yul\":800:804   */\n      0x00\n        /* \"#utility.yul\":848:850   */\n      0x20\n        /* \"#utility.yul\":837:846   */\n      dup3\n        /* \"#utility.yul\":833:851   */\n      add\n        /* \"#utility.yul\":878:880   */\n      0x20\n        /* \"#utility.yul\":867:876   */\n      dup4\n        /* \"#utility.yul\":860:881   */\n      mstore\n        /* \"#utility.yul\":901:907   */\n      dup1\n        /* \"#utility.yul\":936:942   */\n      dup5\n        /* \"#utility.yul\":930:943   */\n      mload\n        /* \"#utility.yul\":967:973   */\n      dup1\n        /* \"#utility.yul\":959:965   */\n      dup4\n        /* \"#utility.yul\":952:974   */\n      mstore\n        /* \"#utility.yul\":1005:1007   */\n      0x40\n        /* \"#utility.yul\":994:1003   */\n      dup6\n        /* \"#utility.yul\":990:1008   */\n      add\n        /* \"#utility.yul\":983:1008   */\n      swap2\n      pop\n        /* \"#utility.yul\":1067:1069   */\n      0x40\n        /* \"#utility.yul\":1057:1063   */\n      dup2\n        /* \"#utility.yul\":1054:1055   */\n      0x05\n        /* \"#utility.yul\":1050:1064   */\n      shl\n        /* \"#utility.yul\":1039:1048   */\n      dup7\n        /* \"#utility.yul\":1035:1065   */\n      add\n        /* \"#utility.yul\":1031:1070   */\n      add\n        /* \"#utility.yul\":1017:1070   */\n      swap3\n      pop\n        /* \"#utility.yul\":1105:1107   */\n      0x20\n        /* \"#utility.yul\":1097:1103   */\n      dup7\n        /* \"#utility.yul\":1093:1108   */\n      add\n        /* \"#utility.yul\":1126:1127   */\n      0x00\n        /* \"#utility.yul\":1136:1627   */\n    tag_71:\n        /* \"#utility.yul\":1150:1156   */\n      dup3\n        /* \"#utility.yul\":1147:1148   */\n      dup2\n        /* \"#utility.yul\":1144:1157   */\n      lt\n        /* \"#utility.yul\":1136:1627   */\n      iszero\n      tag_73\n      jumpi\n        /* \"#utility.yul\":1243:1245   */\n      0x3f\n        /* \"#utility.yul\":1239:1246   */\n      not\n        /* \"#utility.yul\":1227:1236   */\n      dup8\n        /* \"#utility.yul\":1219:1225   */\n      dup7\n        /* \"#utility.yul\":1215:1237   */\n      sub\n        /* \"#utility.yul\":1211:1247   */\n      add\n        /* \"#utility.yul\":1206:1209   */\n      dup5\n        /* \"#utility.yul\":1199:1248   */\n      mstore\n        /* \"#utility.yul\":1277:1283   */\n      dup2\n        /* \"#utility.yul\":1271:1284   */\n      mload\n        /* \"#utility.yul\":1319:1321   */\n      dup1\n        /* \"#utility.yul\":1313:1322   */\n      mload\n        /* \"#utility.yul\":1350:1358   */\n      dup1\n        /* \"#utility.yul\":1342:1348   */\n      dup8\n        /* \"#utility.yul\":1335:1359   */\n      mstore\n        /* \"#utility.yul\":1408:1416   */\n      dup1\n        /* \"#utility.yul\":1403:1405   */\n      0x20\n        /* \"#utility.yul\":1399:1401   */\n      dup4\n        /* \"#utility.yul\":1395:1406   */\n      add\n        /* \"#utility.yul\":1390:1392   */\n      0x20\n        /* \"#utility.yul\":1382:1388   */\n      dup10\n        /* \"#utility.yul\":1378:1393   */\n      add\n        /* \"#utility.yul\":1372:1417   */\n      mcopy\n        /* \"#utility.yul\":1469:1470   */\n      0x00\n        /* \"#utility.yul\":1464:1466   */\n      0x20\n        /* \"#utility.yul\":1453:1461   */\n      dup3\n        /* \"#utility.yul\":1445:1451   */\n      dup10\n        /* \"#utility.yul\":1441:1462   */\n      add\n        /* \"#utility.yul\":1437:1467   */\n      add\n        /* \"#utility.yul\":1430:1471   */\n      mstore\n        /* \"#utility.yul\":1544:1546   */\n      0x20\n        /* \"#utility.yul\":1537:1539   */\n      0x1f\n        /* \"#utility.yul\":1533:1540   */\n      not\n        /* \"#utility.yul\":1528:1530   */\n      0x1f\n        /* \"#utility.yul\":1518:1526   */\n      dup4\n        /* \"#utility.yul\":1514:1531   */\n      add\n        /* \"#utility.yul\":1510:1541   */\n      and\n        /* \"#utility.yul\":1502:1508   */\n      dup9\n        /* \"#utility.yul\":1498:1542   */\n      add\n        /* \"#utility.yul\":1494:1547   */\n      add\n        /* \"#utility.yul\":1484:1547   */\n      swap7\n      pop\n      pop\n      pop\n        /* \"#utility.yul\":1582:1584   */\n      0x20\n        /* \"#utility.yul\":1574:1580   */\n      dup3\n        /* \"#utility.yul\":1570:1585   */\n      add\n        /* \"#utility.yul\":1560:1585   */\n      swap2\n      pop\n        /* \"#utility.yul\":1614:1616   */\n      0x20\n        /* \"#utility.yul\":1609:1612   */\n      dup5\n        /* \"#utility.yul\":1605:1617   */\n      add\n        /* \"#utility.yul\":1598:1617   */\n      swap4\n      pop\n        /* \"#utility.yul\":1172:1173   */\n      0x01\n        /* \"#utility.yul\":1169:1170   */\n      dup2\n        /* \"#utility.yul\":1165:1174   */\n      add\n        /* \"#utility.yul\":1160:1174   */\n      swap1\n      pop\n        /* \"#utility.yul\":1136:1627   */\n      jump(tag_71)\n    tag_73:\n      pop\n        /* \"#utility.yul\":1644:1650   */\n      swap3\n      swap7\n        /* \"#utility.yul\":640:1656   */\n      swap6\n      pop\n      pop\n      pop\n      pop\n      pop\n      pop\n      jump\t// out\n        /* \"#utility.yul\":1661:2007   */\n    tag_18:\n        /* \"#utility.yul\":1729:1735   */\n      0x00\n        /* \"#utility.yul\":1737:1743   */\n      0x00\n        /* \"#utility.yul\":1790:1792   */\n      0x40\n        /* \"#utility.yul\":1778:1787   */\n      dup4\n        /* \"#utility.yul\":1769:1776   */\n      dup6\n        /* \"#utility.yul\":1765:1788   */\n      sub\n        /* \"#utility.yul\":1761:1793   */\n      slt\n        /* \"#utility.yul\":1758:1810   */\n      iszero\n      tag_75\n      jumpi\n        /* \"#utility.yul\":1806:1807   */\n      0x00\n        /* \"#utility.yul\":1803:1804   */\n      0x00\n        /* \"#utility.yul\":1796:1808   */\n      revert\n        /* \"#utility.yul\":1758:1810   */\n    tag_75:\n      pop\n      pop\n        /* \"#utility.yul\":1851:1874   */\n      dup1\n      calldataload\n      swap3\n        /* \"#utility.yul\":1971:1973   */\n      0x20\n        /* \"#utility.yul\":1956:1974   */\n      swap1\n      swap2\n      add\n        /* \"#utility.yul\":1943:1975   */\n      calldataload\n      swap2\n      pop\n        /* \"#utility.yul\":1661:2007   */\n      jump\t// out\n        /* \"#utility.yul\":2012:2298   */\n    tag_23:\n        /* \"#utility.yul\":2071:2077   */\n      0x00\n        /* \"#utility.yul\":2124:2126   */\n      0x20\n        /* \"#utility.yul\":2112:2121   */\n      dup3\n        /* \"#utility.yul\":2103:2110   */\n      dup5\n        /* \"#utility.yul\":2099:2122   */\n      sub\n        /* \"#utility.yul\":2095:2127   */\n      slt\n        /* \"#utility.yul\":2092:2144   */\n      iszero\n      tag_77\n      jumpi\n        /* \"#utility.yul\":2140:2141   */\n      0x00\n        /* \"#utility.yul\":2137:2138   */\n      0x00\n        /* \"#utility.yul\":2130:2142   */\n      revert\n        /* \"#utility.yul\":2092:2144   */\n    tag_77:\n        /* \"#utility.yul\":2166:2189   */\n      dup2\n      calldataload\n      sub(shl(0xa0, 0x01), 0x01)\n        /* \"#utility.yul\":2218:2249   */\n      dup2\n      and\n        /* \"#utility.yul\":2208:2250   */\n      dup2\n      eq\n        /* \"#utility.yul\":2198:2268   */\n      tag_78\n      jumpi\n        /* \"#utility.yul\":2264:2265   */\n      0x00\n        /* \"#utility.yul\":2261:2262   */\n      0x00\n        /* \"#utility.yul\":2254:2266   */\n      revert\n        /* \"#utility.yul\":2198:2268   */\n    tag_78:\n        /* \"#utility.yul\":2287:2292   */\n      swap4\n        /* \"#utility.yul\":2012:2298   */\n      swap3\n      pop\n      pop\n      pop\n      jump\t// out\n        /* \"#utility.yul\":2485:2612   */\n    tag_34:\n        /* \"#utility.yul\":2546:2556   */\n      0x4e487b71\n        /* \"#utility.yul\":2541:2544   */\n      0xe0\n        /* \"#utility.yul\":2537:2557   */\n      shl\n        /* \"#utility.yul\":2534:2535   */\n      0x00\n        /* \"#utility.yul\":2527:2558   */\n      mstore\n        /* \"#utility.yul\":2577:2581   */\n      0x41\n        /* \"#utility.yul\":2574:2575   */\n      0x04\n        /* \"#utility.yul\":2567:2582   */\n      mstore\n        /* \"#utility.yul\":2601:2605   */\n      0x24\n        /* \"#utility.yul\":2598:2599   */\n      0x00\n        /* \"#utility.yul\":2591:2606   */\n      revert\n        /* \"#utility.yul\":2617:2744   */\n    tag_42:\n        /* \"#utility.yul\":2678:2688   */\n      0x4e487b71\n        /* \"#utility.yul\":2673:2676   */\n      0xe0\n        /* \"#utility.yul\":2669:2689   */\n      shl\n        /* \"#utility.yul\":2666:2667   */\n      0x00\n        /* \"#utility.yul\":2659:2690   */\n      mstore\n        /* \"#utility.yul\":2709:2713   */\n      0x32\n        /* \"#utility.yul\":2706:2707   */\n      0x04\n        /* \"#utility.yul\":2699:2714   */\n      mstore\n        /* \"#utility.yul\":2733:2737   */\n      0x24\n        /* \"#utility.yul\":2730:2731   */\n      0x00\n        /* \"#utility.yul\":2723:2738   */\n      revert\n        /* \"#utility.yul\":2749:3270   */\n    tag_44:\n        /* \"#utility.yul\":2826:2830   */\n      0x00\n        /* \"#utility.yul\":2832:2838   */\n      0x00\n        /* \"#utility.yul\":2892:2903   */\n      dup4\n        /* \"#utility.yul\":2879:2904   */\n      calldataload\n        /* \"#utility.yul\":2986:2988   */\n      0x1e\n        /* \"#utility.yul\":2982:2989   */\n      not\n        /* \"#utility.yul\":2971:2979   */\n      dup5\n        /* \"#utility.yul\":2955:2969   */\n      calldatasize\n        /* \"#utility.yul\":2951:2980   */\n      sub\n        /* \"#utility.yul\":2947:2990   */\n      add\n        /* \"#utility.yul\":2927:2945   */\n      dup2\n        /* \"#utility.yul\":2923:2991   */\n      slt\n        /* \"#utility.yul\":2913:3009   */\n      tag_83\n      jumpi\n        /* \"#utility.yul\":3005:3006   */\n      0x00\n        /* \"#utility.yul\":3002:3003   */\n      0x00\n        /* \"#utility.yul\":2995:3007   */\n      revert\n        /* \"#utility.yul\":2913:3009   */\n    tag_83:\n        /* \"#utility.yul\":3032:3065   */\n      dup4\n      add\n        /* \"#utility.yul\":3084:3104   */\n      dup1\n      calldataload\n      swap2\n      pop\n        /* \"#utility.yul\":3127:3145   */\n      0xffffffffffffffff\n        /* \"#utility.yul\":3116:3146   */\n      dup3\n      gt\n        /* \"#utility.yul\":3113:3163   */\n      iszero\n      tag_84\n      jumpi\n        /* \"#utility.yul\":3159:3160   */\n      0x00\n        /* \"#utility.yul\":3156:3157   */\n      0x00\n        /* \"#utility.yul\":3149:3161   */\n      revert\n        /* \"#utility.yul\":3113:3163   */\n    tag_84:\n        /* \"#utility.yul\":3192:3196   */\n      0x20\n        /* \"#utility.yul\":3180:3197   */\n      add\n      swap2\n      pop\n        /* \"#utility.yul\":3223:3237   */\n      calldatasize\n        /* \"#utility.yul\":3219:3246   */\n      dup2\n      swap1\n      sub\n        /* \"#utility.yul\":3209:3247   */\n      dup3\n      sgt\n        /* \"#utility.yul\":3206:3264   */\n      iszero\n      tag_85\n      jumpi\n        /* \"#utility.yul\":3260:3261   */\n      0x00\n        /* \"#utility.yul\":3257:3258   */\n      0x00\n        /* \"#utility.yul\":3250:3262   */\n      revert\n        /* \"#utility.yul\":3206:3264   */\n    tag_85:\n        /* \"#utility.yul\":2749:3270   */\n      swap3\n      pop\n      swap3\n      swap1\n      pop\n      jump\t// out\n        /* \"#utility.yul\":3275:3546   */\n    tag_46:\n        /* \"#utility.yul\":3458:3464   */\n      dup2\n        /* \"#utility.yul\":3450:3456   */\n      dup4\n        /* \"#utility.yul\":3445:3448   */\n      dup3\n        /* \"#utility.yul\":3432:3465   */\n      calldatacopy\n        /* \"#utility.yul\":3414:3417   */\n      0x00\n        /* \"#utility.yul\":3484:3500   */\n      swap2\n      add\n        /* \"#utility.yul\":3509:3522   */\n      swap1\n      dup2\n      mstore\n        /* \"#utility.yul\":3484:3500   */\n      swap2\n        /* \"#utility.yul\":3275:3546   */\n      swap1\n      pop\n      jump\t// out\n        /* \"#utility.yul\":3551:3773   */\n    tag_55:\n        /* \"#utility.yul\":3616:3625   */\n      dup1\n      dup3\n      add\n        /* \"#utility.yul\":3637:3647   */\n      dup1\n      dup3\n      gt\n        /* \"#utility.yul\":3634:3767   */\n      iszero\n      tag_88\n      jumpi\n        /* \"#utility.yul\":3689:3699   */\n      0x4e487b71\n        /* \"#utility.yul\":3684:3687   */\n      0xe0\n        /* \"#utility.yul\":3680:3700   */\n      shl\n        /* \"#utility.yul\":3677:3678   */\n      0x00\n        /* \"#utility.yul\":3670:3701   */\n      mstore\n        /* \"#utility.yul\":3724:3728   */\n      0x11\n        /* \"#utility.yul\":3721:3722   */\n      0x04\n        /* \"#utility.yul\":3714:3729   */\n      mstore\n        /* \"#utility.yul\":3752:3756   */\n      0x24\n        /* \"#utility.yul\":3749:3750   */\n      0x00\n        /* \"#utility.yul\":3742:3757   */\n      revert\n        /* \"#utility.yul\":3634:3767   */\n    tag_88:\n        /* \"#utility.yul\":3551:3773   */\n      swap3\n      swap2\n      pop\n      pop\n      jump\t// out\n\n    auxdata: 0xa264697066735822122030bb85f09fe6ecaec487a47d61f46eb474ab6e844866767bc80c0a95775d3a3664736f6c634300081d0033\n}\n",
				"bytecode": {
					"linkReferences": {},
					"object": "6080604052348015600e575f5ffd5b506105198061001c5f395ff3fe608060405260043610610049575f3560e01c806310957d3c1461004d5780631249c58b146100765780633cb800851461008057806370a082311461009f578063b1ade4db146100d8575b5f5ffd5b61006061005b3660046102fb565b6100ec565b60405161006d919061036c565b60405180910390f35b61007e61020b565b005b34801561008b575f5ffd5b5061007e61009a3660046103f0565b610230565b3480156100aa575f5ffd5b506100ca6100b9366004610410565b5f6020819052908152604090205481565b60405190815260200161006d565b3480156100e3575f5ffd5b506100ca61029c565b60608167ffffffffffffffff8111156101075761010761043d565b60405190808252806020026020018201604052801561013a57816020015b60608152602001906001900390816101255790505b5090505f5b82811015610204575f803086868581811061015c5761015c610451565b905060200281019061016e9190610465565b60405161017c9291906104af565b5f60405180830381855af49150503d805f81146101b4576040519150601f19603f3d011682016040523d82523d5f602084013e6101b9565b606091505b5091509150816101dc576040516318cecad560e01b815260040160405180910390fd5b808484815181106101ef576101ef610451565b6020908102919091010152505060010161013f565b5092915050565b335f90815260208190526040812080543492906102299084906104be565b9091555050565b7ffd33e90d0eac940755277aa91045b95664988beeeafc4ed7d1281a6d83afbc003361025c83856104be565b604080516001600160a01b0390931683526060602084018190526005908401526466756e633160d81b608084015282015260a00160405180910390a15050565b6040805133815260606020820181905260059082015264333ab7319960d91b608082015260028183015290515f917ffd33e90d0eac940755277aa91045b95664988beeeafc4ed7d1281a6d83afbc00919081900360a00190a150606f90565b5f5f6020838503121561030c575f5ffd5b823567ffffffffffffffff811115610322575f5ffd5b8301601f81018513610332575f5ffd5b803567ffffffffffffffff811115610348575f5ffd5b8560208260051b840101111561035c575f5ffd5b6020919091019590945092505050565b5f602082016020835280845180835260408501915060408160051b8601019250602086015f5b828110156103e457603f19878603018452815180518087528060208301602089015e5f602082890101526020601f19601f83011688010196505050602082019150602084019350600181019050610392565b50929695505050505050565b5f5f60408385031215610401575f5ffd5b50508035926020909101359150565b5f60208284031215610420575f5ffd5b81356001600160a01b0381168114610436575f5ffd5b9392505050565b634e487b7160e01b5f52604160045260245ffd5b634e487b7160e01b5f52603260045260245ffd5b5f5f8335601e1984360301811261047a575f5ffd5b83018035915067ffffffffffffffff821115610494575f5ffd5b6020019150368190038213156104a8575f5ffd5b9250929050565b818382375f9101908152919050565b808201808211156104dd57634e487b7160e01b5f52601160045260245ffd5b9291505056fea264697066735822122030bb85f09fe6ecaec487a47d61f46eb474ab6e844866767bc80c0a95775d3a3664736f6c634300081d0033",
					"opcodes": "PUSH1 0x80 PUSH1 0x40 MSTORE CALLVALUE DUP1 ISZERO PUSH1 0xE JUMPI PUSH0 PUSH0 REVERT JUMPDEST POP PUSH2 0x519 DUP1 PUSH2 0x1C PUSH0 CODECOPY PUSH0 RETURN INVALID PUSH1 0x80 PUSH1 0x40 MSTORE PUSH1 0x4 CALLDATASIZE LT PUSH2 0x49 JUMPI PUSH0 CALLDATALOAD PUSH1 0xE0 SHR DUP1 PUSH4 0x10957D3C EQ PUSH2 0x4D JUMPI DUP1 PUSH4 0x1249C58B EQ PUSH2 0x76 JUMPI DUP1 PUSH4 0x3CB80085 EQ PUSH2 0x80 JUMPI DUP1 PUSH4 0x70A08231 EQ PUSH2 0x9F JUMPI DUP1 PUSH4 0xB1ADE4DB EQ PUSH2 0xD8 JUMPI JUMPDEST PUSH0 PUSH0 REVERT JUMPDEST PUSH2 0x60 PUSH2 0x5B CALLDATASIZE PUSH1 0x4 PUSH2 0x2FB JUMP JUMPDEST PUSH2 0xEC JUMP JUMPDEST PUSH1 0x40 MLOAD PUSH2 0x6D SWAP2 SWAP1 PUSH2 0x36C JUMP JUMPDEST PUSH1 0x40 MLOAD DUP1 SWAP2 SUB SWAP1 RETURN JUMPDEST PUSH2 0x7E PUSH2 0x20B JUMP JUMPDEST STOP JUMPDEST CALLVALUE DUP1 ISZERO PUSH2 0x8B JUMPI PUSH0 PUSH0 REVERT JUMPDEST POP PUSH2 0x7E PUSH2 0x9A CALLDATASIZE PUSH1 0x4 PUSH2 0x3F0 JUMP JUMPDEST PUSH2 0x230 JUMP JUMPDEST CALLVALUE DUP1 ISZERO PUSH2 0xAA JUMPI PUSH0 PUSH0 REVERT JUMPDEST POP PUSH2 0xCA PUSH2 0xB9 CALLDATASIZE PUSH1 0x4 PUSH2 0x410 JUMP JUMPDEST PUSH0 PUSH1 0x20 DUP2 SWAP1 MSTORE SWAP1 DUP2 MSTORE PUSH1 0x40 SWAP1 KECCAK256 SLOAD DUP2 JUMP JUMPDEST PUSH1 0x40 MLOAD SWAP1 DUP2 MSTORE PUSH1 0x20 ADD PUSH2 0x6D JUMP JUMPDEST CALLVALUE DUP1 ISZERO PUSH2 0xE3 JUMPI PUSH0 PUSH0 REVERT JUMPDEST POP PUSH2 0xCA PUSH2 0x29C JUMP JUMPDEST PUSH1 0x60 DUP2 PUSH8 0xFFFFFFFFFFFFFFFF DUP2 GT ISZERO PUSH2 0x107 JUMPI PUSH2 0x107 PUSH2 0x43D JUMP JUMPDEST PUSH1 0x40 MLOAD SWAP1 DUP1 DUP3 MSTORE DUP1 PUSH1 0x20 MUL PUSH1 0x20 ADD DUP3 ADD PUSH1 0x40 MSTORE DUP1 ISZERO PUSH2 0x13A JUMPI DUP2 PUSH1 0x20 ADD JUMPDEST PUSH1 0x60 DUP2 MSTORE PUSH1 0x20 ADD SWAP1 PUSH1 0x1 SWAP1 SUB SWAP1 DUP2 PUSH2 0x125 JUMPI SWAP1 POP JUMPDEST POP SWAP1 POP PUSH0 JUMPDEST DUP3 DUP2 LT ISZERO PUSH2 0x204 JUMPI PUSH0 DUP1 ADDRESS DUP7 DUP7 DUP6 DUP2 DUP2 LT PUSH2 0x15C JUMPI PUSH2 0x15C PUSH2 0x451 JUMP JUMPDEST SWAP1 POP PUSH1 0x20 MUL DUP2 ADD SWAP1 PUSH2 0x16E SWAP2 SWAP1 PUSH2 0x465 JUMP JUMPDEST PUSH1 0x40 MLOAD PUSH2 0x17C SWAP3 SWAP2 SWAP1 PUSH2 0x4AF JUMP JUMPDEST PUSH0 PUSH1 0x40 MLOAD DUP1 DUP4 SUB DUP2 DUP6 GAS DELEGATECALL SWAP2 POP POP RETURNDATASIZE DUP1 PUSH0 DUP2 EQ PUSH2 0x1B4 JUMPI PUSH1 0x40 MLOAD SWAP2 POP PUSH1 0x1F NOT PUSH1 0x3F RETURNDATASIZE ADD AND DUP3 ADD PUSH1 0x40 MSTORE RETURNDATASIZE DUP3 MSTORE RETURNDATASIZE PUSH0 PUSH1 0x20 DUP5 ADD RETURNDATACOPY PUSH2 0x1B9 JUMP JUMPDEST PUSH1 0x60 SWAP2 POP JUMPDEST POP SWAP2 POP SWAP2 POP DUP2 PUSH2 0x1DC JUMPI PUSH1 0x40 MLOAD PUSH4 0x18CECAD5 PUSH1 0xE0 SHL DUP2 MSTORE PUSH1 0x4 ADD PUSH1 0x40 MLOAD DUP1 SWAP2 SUB SWAP1 REVERT JUMPDEST DUP1 DUP5 DUP5 DUP2 MLOAD DUP2 LT PUSH2 0x1EF JUMPI PUSH2 0x1EF PUSH2 0x451 JUMP JUMPDEST PUSH1 0x20 SWAP1 DUP2 MUL SWAP2 SWAP1 SWAP2 ADD ADD MSTORE POP POP PUSH1 0x1 ADD PUSH2 0x13F JUMP JUMPDEST POP SWAP3 SWAP2 POP POP JUMP JUMPDEST CALLER PUSH0 SWAP1 DUP2 MSTORE PUSH1 0x20 DUP2 SWAP1 MSTORE PUSH1 0x40 DUP2 KECCAK256 DUP1 SLOAD CALLVALUE SWAP3 SWAP1 PUSH2 0x229 SWAP1 DUP5 SWAP1 PUSH2 0x4BE JUMP JUMPDEST SWAP1 SWAP2 SSTORE POP POP JUMP JUMPDEST PUSH32 0xFD33E90D0EAC940755277AA91045B95664988BEEEAFC4ED7D1281A6D83AFBC00 CALLER PUSH2 0x25C DUP4 DUP6 PUSH2 0x4BE JUMP JUMPDEST PUSH1 0x40 DUP1 MLOAD PUSH1 0x1 PUSH1 0x1 PUSH1 0xA0 SHL SUB SWAP1 SWAP4 AND DUP4 MSTORE PUSH1 0x60 PUSH1 0x20 DUP5 ADD DUP2 SWAP1 MSTORE PUSH1 0x5 SWAP1 DUP5 ADD MSTORE PUSH5 0x66756E6331 PUSH1 0xD8 SHL PUSH1 0x80 DUP5 ADD MSTORE DUP3 ADD MSTORE PUSH1 0xA0 ADD PUSH1 0x40 MLOAD DUP1 SWAP2 SUB SWAP1 LOG1 POP POP JUMP JUMPDEST PUSH1 0x40 DUP1 MLOAD CALLER DUP2 MSTORE PUSH1 0x60 PUSH1 0x20 DUP3 ADD DUP2 SWAP1 MSTORE PUSH1 0x5 SWAP1 DUP3 ADD MSTORE PUSH5 0x333AB73199 PUSH1 0xD9 SHL PUSH1 0x80 DUP3 ADD MSTORE PUSH1 0x2 DUP2 DUP4 ADD MSTORE SWAP1 MLOAD PUSH0 SWAP2 PUSH32 0xFD33E90D0EAC940755277AA91045B95664988BEEEAFC4ED7D1281A6D83AFBC00 SWAP2 SWAP1 DUP2 SWAP1 SUB PUSH1 0xA0 ADD SWAP1 LOG1 POP PUSH1 0x6F SWAP1 JUMP JUMPDEST PUSH0 PUSH0 PUSH1 0x20 DUP4 DUP6 SUB SLT ISZERO PUSH2 0x30C JUMPI PUSH0 PUSH0 REVERT JUMPDEST DUP3 CALLDATALOAD PUSH8 0xFFFFFFFFFFFFFFFF DUP2 GT ISZERO PUSH2 0x322 JUMPI PUSH0 PUSH0 REVERT JUMPDEST DUP4 ADD PUSH1 0x1F DUP2 ADD DUP6 SGT PUSH2 0x332 JUMPI PUSH0 PUSH0 REVERT JUMPDEST DUP1 CALLDATALOAD PUSH8 0xFFFFFFFFFFFFFFFF DUP2 GT ISZERO PUSH2 0x348 JUMPI PUSH0 PUSH0 REVERT JUMPDEST DUP6 PUSH1 0x20 DUP3 PUSH1 0x5 SHL DUP5 ADD ADD GT ISZERO PUSH2 0x35C JUMPI PUSH0 PUSH0 REVERT JUMPDEST PUSH1 0x20 SWAP2 SWAP1 SWAP2 ADD SWAP6 SWAP1 SWAP5 POP SWAP3 POP POP POP JUMP JUMPDEST PUSH0 PUSH1 0x20 DUP3 ADD PUSH1 0x20 DUP4 MSTORE DUP1 DUP5 MLOAD DUP1 DUP4 MSTORE PUSH1 0x40 DUP6 ADD SWAP2 POP PUSH1 0x40 DUP2 PUSH1 0x5 SHL DUP7 ADD ADD SWAP3 POP PUSH1 0x20 DUP7 ADD PUSH0 JUMPDEST DUP3 DUP2 LT ISZERO PUSH2 0x3E4 JUMPI PUSH1 0x3F NOT DUP8 DUP7 SUB ADD DUP5 MSTORE DUP2 MLOAD DUP1 MLOAD DUP1 DUP8 MSTORE DUP1 PUSH1 0x20 DUP4 ADD PUSH1 0x20 DUP10 ADD MCOPY PUSH0 PUSH1 0x20 DUP3 DUP10 ADD ADD MSTORE PUSH1 0x20 PUSH1 0x1F NOT PUSH1 0x1F DUP4 ADD AND DUP9 ADD ADD SWAP7 POP POP POP PUSH1 0x20 DUP3 ADD SWAP2 POP PUSH1 0x20 DUP5 ADD SWAP4 POP PUSH1 0x1 DUP2 ADD SWAP1 POP PUSH2 0x392 JUMP JUMPDEST POP SWAP3 SWAP7 SWAP6 POP POP POP POP POP POP JUMP JUMPDEST PUSH0 PUSH0 PUSH1 0x40 DUP4 DUP6 SUB SLT ISZERO PUSH2 0x401 JUMPI PUSH0 PUSH0 REVERT JUMPDEST POP POP DUP1 CALLDATALOAD SWAP3 PUSH1 0x20 SWAP1 SWAP2 ADD CALLDATALOAD SWAP2 POP JUMP JUMPDEST PUSH0 PUSH1 0x20 DUP3 DUP5 SUB SLT ISZERO PUSH2 0x420 JUMPI PUSH0 PUSH0 REVERT JUMPDEST DUP2 CALLDATALOAD PUSH1 0x1 PUSH1 0x1 PUSH1 0xA0 SHL SUB DUP2 AND DUP2 EQ PUSH2 0x436 JUMPI PUSH0 PUSH0 REVERT JUMPDEST SWAP4 SWAP3 POP POP POP JUMP JUMPDEST PUSH4 0x4E487B71 PUSH1 0xE0 SHL PUSH0 MSTORE PUSH1 0x41 PUSH1 0x4 MSTORE PUSH1 0x24 PUSH0 REVERT JUMPDEST PUSH4 0x4E487B71 PUSH1 0xE0 SHL PUSH0 MSTORE PUSH1 0x32 PUSH1 0x4 MSTORE PUSH1 0x24 PUSH0 REVERT JUMPDEST PUSH0 PUSH0 DUP4 CALLDATALOAD PUSH1 0x1E NOT DUP5 CALLDATASIZE SUB ADD DUP2 SLT PUSH2 0x47A JUMPI PUSH0 PUSH0 REVERT JUMPDEST DUP4 ADD DUP1 CALLDATALOAD SWAP2 POP PUSH8 0xFFFFFFFFFFFFFFFF DUP3 GT ISZERO PUSH2 0x494 JUMPI PUSH0 PUSH0 REVERT JUMPDEST PUSH1 0x20 ADD SWAP2 POP CALLDATASIZE DUP2 SWAP1 SUB DUP3 SGT ISZERO PUSH2 0x4A8 JUMPI PUSH0 PUSH0 REVERT JUMPDEST SWAP3 POP SWAP3 SWAP1 POP JUMP JUMPDEST DUP2 DUP4 DUP3 CALLDATACOPY PUSH0 SWAP2 ADD SWAP1 DUP2 MSTORE SWAP2 SWAP1 POP JUMP JUMPDEST DUP1 DUP3 ADD DUP1 DUP3 GT ISZERO PUSH2 0x4DD JUMPI PUSH4 0x4E487B71 PUSH1 0xE0 SHL PUSH0 MSTORE PUSH1 0x11 PUSH1 0x4 MSTORE PUSH1 0x24 PUSH0 REVERT JUMPDEST SWAP3 SWAP2 POP POP JUMP INVALID LOG2 PUSH5 0x6970667358 0x22 SLT KECCAK256 ADDRESS 0xBB DUP6 CREATE SWAP16 DUPN 0xEC 0xAE 0xC4 DUP8 LOG4 PUSH30 0x61F46EB474AB6E844866767BC80C0A95775D3A3664736F6C634300081D00 CALLER "
				},
				"gasEstimates": {
					"creation": {
						"codeDepositCost": "261000",
						"executionCost": "298",
						"totalCost": "261298"
					},
					"external": {
						"balanceOf(address)": "2528",
						"func1(uint256,uint256)": "2524",
						"func2()": "2443",
						"mint()": "24491",
						"multiDelegatecall(bytes[])": "infinite"
					}
				},
				"methodIdentifiers": {
					"balanceOf(address)": "70a08231",
					"func1(uint256,uint256)": "3cb80085",
					"func2()": "b1ade4db",
					"mint()": "1249c58b",
					"multiDelegatecall(bytes[])": "10957d3c"
				}
			},
			"storageLayout": {
				"storage": [
					{
						"astId": 108,
						"contract": "threefour/MultiDelegatecall.sol:TestMultiDelegatecall",
						"label": "balanceOf",
						"offset": 0,
						"slot": "0",
						"type": "t_mapping(t_address,t_uint256)"
					}
				],
				"types": {
					"t_address": {
						"encoding": "inplace",
						"label": "address",
						"numberOfBytes": "20"
					},
					"t_mapping(t_address,t_uint256)": {
						"encoding": "mapping",
						"key": "t_address",
						"label": "mapping(address => uint256)",
						"numberOfBytes": "32",
						"value": "t_uint256"
					},
					"t_uint256": {
						"encoding": "inplace",
						"label": "uint256",
						"numberOfBytes": "32"
					}
				}
			},
			"userdoc": {
				"kind": "user",
				"methods": {},
				"version": 1
			}
		}
	}
}