{
	"threefour/MultiDelegatecall.sol": {
		"MultiDelegatecall": {
			"abi": [
				{
					"inputs": [],
					"name": "DelegateCallFailed",
					"type": "error"
				},
				{
					"inputs": [
						{
							"internalType": "bytes[]",
							"name": "data",
							"type": "bytes[]"
						}
					],
					"name": "multiDelegatecall",
					"outputs": [
						{
							"internalType": "bytes[]",
							"name": "results",
							"type": "bytes[]"
						}
					],
					"stateMutability": "payable",
					"type": "function"
				}
			],
			"devdoc": {
				"kind": "dev",
				"methods": {},
				"version": 1
			},
			"evm": {
				"assembly": "    /* \"threefour/MultiDelegatecall.sol\":60:536  contract MultiDelegatecall{... */\n  mstore(0x40, 0x80)\n  callvalue\n  dup1\n  iszero\n  tag_1\n  jumpi\n  revert(0x00, 0x00)\ntag_1:\n  pop\n  dataSize(sub_0)\n  dup1\n  dataOffset(sub_0)\n  0x00\n  codecopy\n  0x00\n  return\nstop\n\nsub_0: assembly {\n        /* \"threefour/MultiDelegatecall.sol\":60:536  contract MultiDelegatecall{... */\n      mstore(0x40, 0x80)\n      jumpi(tag_1, lt(calldatasize, 0x04))\n      shr(0xe0, calldataload(0x00))\n      dup1\n      0x10957d3c\n      eq\n      tag_2\n      jumpi\n    tag_1:\n      revert(0x00, 0x00)\n        /* \"threefour/MultiDelegatecall.sol\":128:531  function multiDelegatecall(bytes[] calldata data) external payable returns(bytes[] memory results){... */\n    tag_2:\n      tag_3\n      tag_4\n      calldatasize\n      0x04\n      tag_5\n      jump\t// in\n    tag_4:\n      tag_6\n      jump\t// in\n    tag_3:\n      mload(0x40)\n      tag_7\n      swap2\n      swap1\n      tag_8\n      jump\t// in\n    tag_7:\n      mload(0x40)\n      dup1\n      swap2\n      sub\n      swap1\n      return\n    tag_6:\n        /* \"threefour/MultiDelegatecall.sol\":203:225  bytes[] memory results */\n      0x60\n        /* \"threefour/MultiDelegatecall.sol\":257:261  data */\n      dup2\n        /* \"threefour/MultiDelegatecall.sol\":245:269  new bytes[](data.length) */\n      0xffffffffffffffff\n      dup2\n      gt\n      iszero\n      tag_11\n      jumpi\n      tag_11\n      tag_12\n      jump\t// in\n    tag_11:\n      mload(0x40)\n      swap1\n      dup1\n      dup3\n      mstore\n      dup1\n      0x20\n      mul\n      0x20\n      add\n      dup3\n      add\n      0x40\n      mstore\n      dup1\n      iszero\n      tag_13\n      jumpi\n      dup2\n      0x20\n      add\n    tag_14:\n      0x60\n      dup2\n      mstore\n      0x20\n      add\n      swap1\n      0x01\n      swap1\n      sub\n      swap1\n      dup2\n      tag_14\n      jumpi\n      swap1\n      pop\n    tag_13:\n      pop\n        /* \"threefour/MultiDelegatecall.sol\":237:269  results=new bytes[](data.length) */\n      swap1\n      pop\n        /* \"threefour/MultiDelegatecall.sol\":285:291  uint i */\n      0x00\n        /* \"threefour/MultiDelegatecall.sol\":280:524  for (uint i;i<data.length;i++){... */\n    tag_15:\n        /* \"threefour/MultiDelegatecall.sol\":292:305  i<data.length */\n      dup3\n      dup2\n      lt\n        /* \"threefour/MultiDelegatecall.sol\":280:524  for (uint i;i<data.length;i++){... */\n      iszero\n      tag_16\n      jumpi\n        /* \"threefour/MultiDelegatecall.sol\":326:338  bool success */\n      0x00\n      dup1\n        /* \"threefour/MultiDelegatecall.sol\":366:370  this */\n      address\n        /* \"threefour/MultiDelegatecall.sol\":385:389  data */\n      dup7\n      dup7\n        /* \"threefour/MultiDelegatecall.sol\":390:391  i */\n      dup6\n        /* \"threefour/MultiDelegatecall.sol\":385:392  data[i] */\n      dup2\n      dup2\n      lt\n      tag_19\n      jumpi\n      tag_19\n      tag_20\n      jump\t// in\n    tag_19:\n      swap1\n      pop\n      0x20\n      mul\n      dup2\n      add\n      swap1\n      tag_21\n      swap2\n      swap1\n      tag_22\n      jump\t// in\n    tag_21:\n        /* \"threefour/MultiDelegatecall.sol\":358:393  address(this).delegatecall(data[i]) */\n      mload(0x40)\n      tag_23\n      swap3\n      swap2\n      swap1\n      tag_24\n      jump\t// in\n    tag_23:\n      0x00\n      mload(0x40)\n      dup1\n      dup4\n      sub\n      dup2\n      dup6\n      gas\n      delegatecall\n      swap2\n      pop\n      pop\n      returndatasize\n      dup1\n      0x00\n      dup2\n      eq\n      tag_27\n      jumpi\n      mload(0x40)\n      swap2\n      pop\n      and(add(returndatasize, 0x3f), not(0x1f))\n      dup3\n      add\n      0x40\n      mstore\n      returndatasize\n      dup3\n      mstore\n      returndatasize\n      0x00\n      0x20\n      dup5\n      add\n      returndatacopy\n      jump(tag_26)\n    tag_27:\n      0x60\n      swap2\n      pop\n    tag_26:\n      pop\n        /* \"threefour/MultiDelegatecall.sol\":325:393  (bool success,bytes memory res)= address(this).delegatecall(data[i]) */\n      swap2\n      pop\n      swap2\n      pop\n        /* \"threefour/MultiDelegatecall.sol\":413:420  success */\n      dup2\n        /* \"threefour/MultiDelegatecall.sol\":408:483  if (!success){... */\n      tag_28\n      jumpi\n        /* \"threefour/MultiDelegatecall.sol\":447:467  DelegateCallFailed() */\n      mload(0x40)\n      shl(0xe0, 0x18cecad5)\n      dup2\n      mstore\n      0x04\n      add\n      mload(0x40)\n      dup1\n      swap2\n      sub\n      swap1\n      revert\n        /* \"threefour/MultiDelegatecall.sol\":408:483  if (!success){... */\n    tag_28:\n        /* \"threefour/MultiDelegatecall.sol\":509:512  res */\n      dup1\n        /* \"threefour/MultiDelegatecall.sol\":497:504  results */\n      dup5\n        /* \"threefour/MultiDelegatecall.sol\":505:506  i */\n      dup5\n        /* \"threefour/MultiDelegatecall.sol\":497:507  results[i] */\n      dup2\n      mload\n      dup2\n      lt\n      tag_30\n      jumpi\n      tag_30\n      tag_20\n      jump\t// in\n    tag_30:\n      0x20\n      swap1\n      dup2\n      mul\n      swap2\n      swap1\n      swap2\n      add\n      add\n        /* \"threefour/MultiDelegatecall.sol\":497:512  results[i]= res */\n      mstore\n      pop\n      pop\n        /* \"threefour/MultiDelegatecall.sol\":306:309  i++ */\n      0x01\n      add\n        /* \"threefour/MultiDelegatecall.sol\":280:524  for (uint i;i<data.length;i++){... */\n      jump(tag_15)\n    tag_16:\n      pop\n        /* \"threefour/MultiDelegatecall.sol\":128:531  function multiDelegatecall(bytes[] calldata data) external payable returns(bytes[] memory results){... */\n      swap3\n      swap2\n      pop\n      pop\n      jump\t// out\n        /* \"#utility.yul\":14:635   */\n    tag_5:\n        /* \"#utility.yul\":111:117   */\n      0x00\n        /* \"#utility.yul\":119:125   */\n      0x00\n        /* \"#utility.yul\":172:174   */\n      0x20\n        /* \"#utility.yul\":160:169   */\n      dup4\n        /* \"#utility.yul\":151:158   */\n      dup6\n        /* \"#utility.yul\":147:170   */\n      sub\n        /* \"#utility.yul\":143:175   */\n      slt\n        /* \"#utility.yul\":140:192   */\n      iszero\n      tag_33\n      jumpi\n        /* \"#utility.yul\":188:189   */\n      0x00\n        /* \"#utility.yul\":185:186   */\n      0x00\n        /* \"#utility.yul\":178:190   */\n      revert\n        /* \"#utility.yul\":140:192   */\n    tag_33:\n        /* \"#utility.yul\":228:237   */\n      dup3\n        /* \"#utility.yul\":215:238   */\n      calldataload\n        /* \"#utility.yul\":261:279   */\n      0xffffffffffffffff\n        /* \"#utility.yul\":253:259   */\n      dup2\n        /* \"#utility.yul\":250:280   */\n      gt\n        /* \"#utility.yul\":247:297   */\n      iszero\n      tag_34\n      jumpi\n        /* \"#utility.yul\":293:294   */\n      0x00\n        /* \"#utility.yul\":290:291   */\n      0x00\n        /* \"#utility.yul\":283:295   */\n      revert\n        /* \"#utility.yul\":247:297   */\n    tag_34:\n        /* \"#utility.yul\":316:338   */\n      dup4\n      add\n        /* \"#utility.yul\":369:373   */\n      0x1f\n        /* \"#utility.yul\":361:374   */\n      dup2\n      add\n        /* \"#utility.yul\":357:384   */\n      dup6\n      sgt\n        /* \"#utility.yul\":347:402   */\n      tag_35\n      jumpi\n        /* \"#utility.yul\":398:399   */\n      0x00\n        /* \"#utility.yul\":395:396   */\n      0x00\n        /* \"#utility.yul\":388:400   */\n      revert\n        /* \"#utility.yul\":347:402   */\n    tag_35:\n        /* \"#utility.yul\":438:440   */\n      dup1\n        /* \"#utility.yul\":425:441   */\n      calldataload\n        /* \"#utility.yul\":464:482   */\n      0xffffffffffffffff\n        /* \"#utility.yul\":456:462   */\n      dup2\n        /* \"#utility.yul\":453:483   */\n      gt\n        /* \"#utility.yul\":450:500   */\n      iszero\n      tag_36\n      jumpi\n        /* \"#utility.yul\":496:497   */\n      0x00\n        /* \"#utility.yul\":493:494   */\n      0x00\n        /* \"#utility.yul\":486:498   */\n      revert\n        /* \"#utility.yul\":450:500   */\n    tag_36:\n        /* \"#utility.yul\":549:556   */\n      dup6\n        /* \"#utility.yul\":544:546   */\n      0x20\n        /* \"#utility.yul\":534:540   */\n      dup3\n        /* \"#utility.yul\":531:532   */\n      0x05\n        /* \"#utility.yul\":527:541   */\n      shl\n        /* \"#utility.yul\":523:525   */\n      dup5\n        /* \"#utility.yul\":519:542   */\n      add\n        /* \"#utility.yul\":515:547   */\n      add\n        /* \"#utility.yul\":512:557   */\n      gt\n        /* \"#utility.yul\":509:574   */\n      iszero\n      tag_37\n      jumpi\n        /* \"#utility.yul\":570:571   */\n      0x00\n        /* \"#utility.yul\":567:568   */\n      0x00\n        /* \"#utility.yul\":560:572   */\n      revert\n        /* \"#utility.yul\":509:574   */\n    tag_37:\n        /* \"#utility.yul\":601:603   */\n      0x20\n        /* \"#utility.yul\":593:604   */\n      swap2\n      swap1\n      swap2\n      add\n      swap6\n        /* \"#utility.yul\":623:629   */\n      swap1\n      swap5\n      pop\n        /* \"#utility.yul\":14:635   */\n      swap3\n      pop\n      pop\n      pop\n      jump\t// out\n        /* \"#utility.yul\":640:1656   */\n    tag_8:\n        /* \"#utility.yul\":800:804   */\n      0x00\n        /* \"#utility.yul\":848:850   */\n      0x20\n        /* \"#utility.yul\":837:846   */\n      dup3\n        /* \"#utility.yul\":833:851   */\n      add\n        /* \"#utility.yul\":878:880   */\n      0x20\n        /* \"#utility.yul\":867:876   */\n      dup4\n        /* \"#utility.yul\":860:881   */\n      mstore\n        /* \"#utility.yul\":901:907   */\n      dup1\n        /* \"#utility.yul\":936:942   */\n      dup5\n        /* \"#utility.yul\":930:943   */\n      mload\n        /* \"#utility.yul\":967:973   */\n      dup1\n        /* \"#utility.yul\":959:965   */\n      dup4\n        /* \"#utility.yul\":952:974   */\n      mstore\n        /* \"#utility.yul\":1005:1007   */\n      0x40\n        /* \"#utility.yul\":994:1003   */\n      dup6\n        /* \"#utility.yul\":990:1008   */\n      add\n        /* \"#utility.yul\":983:1008   */\n      swap2\n      pop\n        /* \"#utility.yul\":1067:1069   */\n      0x40\n        /* \"#utility.yul\":1057:1063   */\n      dup2\n        /* \"#utility.yul\":1054:1055   */\n      0x05\n        /* \"#utility.yul\":1050:1064   */\n      shl\n        /* \"#utility.yul\":1039:1048   */\n      dup7\n        /* \"#utility.yul\":1035:1065   */\n      add\n        /* \"#utility.yul\":1031:1070   */\n      add\n        /* \"#utility.yul\":1017:1070   */\n      swap3\n      pop\n        /* \"#utility.yul\":1105:1107   */\n      0x20\n        /* \"#utility.yul\":1097:1103   */\n      dup7\n        /* \"#utility.yul\":1093:1108   */\n      add\n        /* \"#utility.yul\":1126:1127   */\n      0x00\n        /* \"#utility.yul\":1136:1627   */\n    tag_39:\n        /* \"#utility.yul\":1150:1156   */\n      dup3\n        /* \"#utility.yul\":1147:1148   */\n      dup2\n        /* \"#utility.yul\":1144:1157   */\n      lt\n        /* \"#utility.yul\":1136:1627   */\n      iszero\n      tag_41\n      jumpi\n        /* \"#utility.yul\":1243:1245   */\n      0x3f\n        /* \"#utility.yul\":1239:1246   */\n      not\n        /* \"#utility.yul\":1227:1236   */\n      dup8\n        /* \"#utility.yul\":1219:1225   */\n      dup7\n        /* \"#utility.yul\":1215:1237   */\n      sub\n        /* \"#utility.yul\":1211:1247   */\n      add\n        /* \"#utility.yul\":1206:1209   */\n      dup5\n        /* \"#utility.yul\":1199:1248   */\n      mstore\n        /* \"#utility.yul\":1277:1283   */\n      dup2\n        /* \"#utility.yul\":1271:1284   */\n      mload\n        /* \"#utility.yul\":1319:1321   */\n      dup1\n        /* \"#utility.yul\":1313:1322   */\n      mload\n        /* \"#utility.yul\":1350:1358   */\n      dup1\n        /* \"#utility.yul\":1342:1348   */\n      dup8\n        /* \"#utility.yul\":1335:1359   */\n      mstore\n        /* \"#utility.yul\":1408:1416   */\n      dup1\n        /* \"#utility.yul\":1403:1405   */\n      0x20\n        /* \"#utility.yul\":1399:1401   */\n      dup4\n        /* \"#utility.yul\":1395:1406   */\n      add\n        /* \"#utility.yul\":1390:1392   */\n      0x20\n        /* \"#utility.yul\":1382:1388   */\n      dup10\n        /* \"#utility.yul\":1378:1393   */\n      add\n        /* \"#utility.yul\":1372:1417   */\n      mcopy\n        /* \"#utility.yul\":1469:1470   */\n      0x00\n        /* \"#utility.yul\":1464:1466   */\n      0x20\n        /* \"#utility.yul\":1453:1461   */\n      dup3\n        /* \"#utility.yul\":1445:1451   */\n      dup10\n        /* \"#utility.yul\":1441:1462   */\n      add\n        /* \"#utility.yul\":1437:1467   */\n      add\n        /* \"#utility.yul\":1430:1471   */\n      mstore\n        /* \"#utility.yul\":1544:1546   */\n      0x20\n        /* \"#utility.yul\":1537:1539   */\n      0x1f\n        /* \"#utility.yul\":1533:1540   */\n      not\n        /* \"#utility.yul\":1528:1530   */\n      0x1f\n        /* \"#utility.yul\":1518:1526   */\n      dup4\n        /* \"#utility.yul\":1514:1531   */\n      add\n        /* \"#utility.yul\":1510:1541   */\n      and\n        /* \"#utility.yul\":1502:1508   */\n      dup9\n        /* \"#utility.yul\":1498:1542   */\n      add\n        /* \"#utility.yul\":1494:1547   */\n      add\n        /* \"#utility.yul\":1484:1547   */\n      swap7\n      pop\n      pop\n      pop\n        /* \"#utility.yul\":1582:1584   */\n      0x20\n        /* \"#utility.yul\":1574:1580   */\n      dup3\n        /* \"#utility.yul\":1570:1585   */\n      add\n        /* \"#utility.yul\":1560:1585   */\n      swap2\n      pop\n        /* \"#utility.yul\":1614:1616   */\n      0x20\n        /* \"#utility.yul\":1609:1612   */\n      dup5\n        /* \"#utility.yul\":1605:1617   */\n      add\n        /* \"#utility.yul\":1598:1617   */\n      swap4\n      pop\n        /* \"#utility.yul\":1172:1173   */\n      0x01\n        /* \"#utility.yul\":1169:1170   */\n      dup2\n        /* \"#utility.yul\":1165:1174   */\n      add\n        /* \"#utility.yul\":1160:1174   */\n      swap1\n      pop\n        /* \"#utility.yul\":1136:1627   */\n      jump(tag_39)\n    tag_41:\n      pop\n        /* \"#utility.yul\":1644:1650   */\n      swap3\n      swap7\n        /* \"#utility.yul\":640:1656   */\n      swap6\n      pop\n      pop\n      pop\n      pop\n      pop\n      pop\n      jump\t// out\n        /* \"#utility.yul\":1661:1788   */\n    tag_12:\n        /* \"#utility.yul\":1722:1732   */\n      0x4e487b71\n        /* \"#utility.yul\":1717:1720   */\n      0xe0\n        /* \"#utility.yul\":1713:1733   */\n      shl\n        /* \"#utility.yul\":1710:1711   */\n      0x00\n        /* \"#utility.yul\":1703:1734   */\n      mstore\n        /* \"#utility.yul\":1753:1757   */\n      0x41\n        /* \"#utility.yul\":1750:1751   */\n      0x04\n        /* \"#utility.yul\":1743:1758   */\n      mstore\n        /* \"#utility.yul\":1777:1781   */\n      0x24\n        /* \"#utility.yul\":1774:1775   */\n      0x00\n        /* \"#utility.yul\":1767:1782   */\n      revert\n        /* \"#utility.yul\":1793:1920   */\n    tag_20:\n        /* \"#utility.yul\":1854:1864   */\n      0x4e487b71\n        /* \"#utility.yul\":1849:1852   */\n      0xe0\n        /* \"#utility.yul\":1845:1865   */\n      shl\n        /* \"#utility.yul\":1842:1843   */\n      0x00\n        /* \"#utility.yul\":1835:1866   */\n      mstore\n        /* \"#utility.yul\":1885:1889   */\n      0x32\n        /* \"#utility.yul\":1882:1883   */\n      0x04\n        /* \"#utility.yul\":1875:1890   */\n      mstore\n        /* \"#utility.yul\":1909:1913   */\n      0x24\n        /* \"#utility.yul\":1906:1907   */\n      0x00\n        /* \"#utility.yul\":1899:1914   */\n      revert\n        /* \"#utility.yul\":1925:2446   */\n    tag_22:\n        /* \"#utility.yul\":2002:2006   */\n      0x00\n        /* \"#utility.yul\":2008:2014   */\n      0x00\n        /* \"#utility.yul\":2068:2079   */\n      dup4\n        /* \"#utility.yul\":2055:2080   */\n      calldataload\n        /* \"#utility.yul\":2162:2164   */\n      0x1e\n        /* \"#utility.yul\":2158:2165   */\n      not\n        /* \"#utility.yul\":2147:2155   */\n      dup5\n        /* \"#utility.yul\":2131:2145   */\n      calldatasize\n        /* \"#utility.yul\":2127:2156   */\n      sub\n        /* \"#utility.yul\":2123:2166   */\n      add\n        /* \"#utility.yul\":2103:2121   */\n      dup2\n        /* \"#utility.yul\":2099:2167   */\n      slt\n        /* \"#utility.yul\":2089:2185   */\n      tag_45\n      jumpi\n        /* \"#utility.yul\":2181:2182   */\n      0x00\n        /* \"#utility.yul\":2178:2179   */\n      0x00\n        /* \"#utility.yul\":2171:2183   */\n      revert\n        /* \"#utility.yul\":2089:2185   */\n    tag_45:\n        /* \"#utility.yul\":2208:2241   */\n      dup4\n      add\n        /* \"#utility.yul\":2260:2280   */\n      dup1\n      calldataload\n      swap2\n      pop\n        /* \"#utility.yul\":2303:2321   */\n      0xffffffffffffffff\n        /* \"#utility.yul\":2292:2322   */\n      dup3\n      gt\n        /* \"#utility.yul\":2289:2339   */\n      iszero\n      tag_46\n      jumpi\n        /* \"#utility.yul\":2335:2336   */\n      0x00\n        /* \"#utility.yul\":2332:2333   */\n      0x00\n        /* \"#utility.yul\":2325:2337   */\n      revert\n        /* \"#utility.yul\":2289:2339   */\n    tag_46:\n        /* \"#utility.yul\":2368:2372   */\n      0x20\n        /* \"#utility.yul\":2356:2373   */\n      add\n      swap2\n      pop\n        /* \"#utility.yul\":2399:2413   */\n      calldatasize\n        /* \"#utility.yul\":2395:2422   */\n      dup2\n      swap1\n      sub\n        /* \"#utility.yul\":2385:2423   */\n      dup3\n      sgt\n        /* \"#utility.yul\":2382:2440   */\n      iszero\n      tag_47\n      jumpi\n        /* \"#utility.yul\":2436:2437   */\n      0x00\n        /* \"#utility.yul\":2433:2434   */\n      0x00\n        /* \"#utility.yul\":2426:2438   */\n      revert\n        /* \"#utility.yul\":2382:2440   */\n    tag_47:\n        /* \"#utility.yul\":1925:2446   */\n      swap3\n      pop\n      swap3\n      swap1\n      pop\n      jump\t// out\n        /* \"#utility.yul\":2451:2722   */\n    tag_24:\n        /* \"#utility.yul\":2634:2640   */\n      dup2\n        /* \"#utility.yul\":2626:2632   */\n      dup4\n        /* \"#utility.yul\":2621:2624   */\n      dup3\n        /* \"#utility.yul\":2608:2641   */\n      calldatacopy\n        /* \"#utility.yul\":2590:2593   */\n      0x00\n        /* \"#utility.yul\":2660:2676   */\n      swap2\n      add\n        /* \"#utility.yul\":2685:2698   */\n      swap1\n      dup2\n      mstore\n        /* \"#utility.yul\":2660:2676   */\n      swap2\n        /* \"#utility.yul\":2451:2722   */\n      swap1\n      pop\n      jump\t// out\n\n    auxdata: 0xa26469706673582212204423eefe6e568138f242d071c3ba813cc8075d6d0364d4dab186c9b2c5eaa63d64736f6c634300081d0033\n}\n",
				"bytecode": {
					"linkReferences": {},
					"object": "6080604052348015600e575f5ffd5b506103158061001c5f395ff3fe60806040526004361061001d575f3560e01c806310957d3c14610021575b5f5ffd5b61003461002f366004610169565b61004a565b60405161004191906101da565b60405180910390f35b60608167ffffffffffffffff8111156100655761006561025e565b60405190808252806020026020018201604052801561009857816020015b60608152602001906001900390816100835790505b5090505f5b82811015610162575f80308686858181106100ba576100ba610272565b90506020028101906100cc9190610286565b6040516100da9291906102d0565b5f60405180830381855af49150503d805f8114610112576040519150601f19603f3d011682016040523d82523d5f602084013e610117565b606091505b50915091508161013a576040516318cecad560e01b815260040160405180910390fd5b8084848151811061014d5761014d610272565b6020908102919091010152505060010161009d565b5092915050565b5f5f6020838503121561017a575f5ffd5b823567ffffffffffffffff811115610190575f5ffd5b8301601f810185136101a0575f5ffd5b803567ffffffffffffffff8111156101b6575f5ffd5b8560208260051b84010111156101ca575f5ffd5b6020919091019590945092505050565b5f602082016020835280845180835260408501915060408160051b8601019250602086015f5b8281101561025257603f19878603018452815180518087528060208301602089015e5f602082890101526020601f19601f83011688010196505050602082019150602084019350600181019050610200565b50929695505050505050565b634e487b7160e01b5f52604160045260245ffd5b634e487b7160e01b5f52603260045260245ffd5b5f5f8335601e1984360301811261029b575f5ffd5b83018035915067ffffffffffffffff8211156102b5575f5ffd5b6020019150368190038213156102c9575f5ffd5b9250929050565b818382375f910190815291905056fea26469706673582212204423eefe6e568138f242d071c3ba813cc8075d6d0364d4dab186c9b2c5eaa63d64736f6c634300081d0033",
					"opcodes": "PUSH1 0x80 PUSH1 0x40 MSTORE CALLVALUE DUP1 ISZERO PUSH1 0xE JUMPI PUSH0 PUSH0 REVERT JUMPDEST POP PUSH2 0x315 DUP1 PUSH2 0x1C PUSH0 CODECOPY PUSH0 RETURN INVALID PUSH1 0x80 PUSH1 0x40 MSTORE PUSH1 0x4 CALLDATASIZE LT PUSH2 0x1D JUMPI PUSH0 CALLDATALOAD PUSH1 0xE0 SHR DUP1 PUSH4 0x10957D3C EQ PUSH2 0x21 JUMPI JUMPDEST PUSH0 PUSH0 REVERT JUMPDEST PUSH2 0x34 PUSH2 0x2F CALLDATASIZE PUSH1 0x4 PUSH2 0x169 JUMP JUMPDEST PUSH2 0x4A JUMP JUMPDEST PUSH1 0x40 MLOAD PUSH2 0x41 SWAP2 SWAP1 PUSH2 0x1DA JUMP JUMPDEST PUSH1 0x40 MLOAD DUP1 SWAP2 SUB SWAP1 RETURN JUMPDEST PUSH1 0x60 DUP2 PUSH8 0xFFFFFFFFFFFFFFFF DUP2 GT ISZERO PUSH2 0x65 JUMPI PUSH2 0x65 PUSH2 0x25E JUMP JUMPDEST PUSH1 0x40 MLOAD SWAP1 DUP1 DUP3 MSTORE DUP1 PUSH1 0x20 MUL PUSH1 0x20 ADD DUP3 ADD PUSH1 0x40 MSTORE DUP1 ISZERO PUSH2 0x98 JUMPI DUP2 PUSH1 0x20 ADD JUMPDEST PUSH1 0x60 DUP2 MSTORE PUSH1 0x20 ADD SWAP1 PUSH1 0x1 SWAP1 SUB SWAP1 DUP2 PUSH2 0x83 JUMPI SWAP1 POP JUMPDEST POP SWAP1 POP PUSH0 JUMPDEST DUP3 DUP2 LT ISZERO PUSH2 0x162 JUMPI PUSH0 DUP1 ADDRESS DUP7 DUP7 DUP6 DUP2 DUP2 LT PUSH2 0xBA JUMPI PUSH2 0xBA PUSH2 0x272 JUMP JUMPDEST SWAP1 POP PUSH1 0x20 MUL DUP2 ADD SWAP1 PUSH2 0xCC SWAP2 SWAP1 PUSH2 0x286 JUMP JUMPDEST PUSH1 0x40 MLOAD PUSH2 0xDA SWAP3 SWAP2 SWAP1 PUSH2 0x2D0 JUMP JUMPDEST PUSH0 PUSH1 0x40 MLOAD DUP1 DUP4 SUB DUP2 DUP6 GAS DELEGATECALL SWAP2 POP POP RETURNDATASIZE DUP1 PUSH0 DUP2 EQ PUSH2 0x112 JUMPI PUSH1 0x40 MLOAD SWAP2 POP PUSH1 0x1F NOT PUSH1 0x3F RETURNDATASIZE ADD AND DUP3 ADD PUSH1 0x40 MSTORE RETURNDATASIZE DUP3 MSTORE RETURNDATASIZE PUSH0 PUSH1 0x20 DUP5 ADD RETURNDATACOPY PUSH2 0x117 JUMP JUMPDEST PUSH1 0x60 SWAP2 POP JUMPDEST POP SWAP2 POP SWAP2 POP DUP2 PUSH2 0x13A JUMPI PUSH1 0x40 MLOAD PUSH4 0x18CECAD5 PUSH1 0xE0 SHL DUP2 MSTORE PUSH1 0x4 ADD PUSH1 0x40 MLOAD DUP1 SWAP2 SUB SWAP1 REVERT JUMPDEST DUP1 DUP5 DUP5 DUP2 MLOAD DUP2 LT PUSH2 0x14D JUMPI PUSH2 0x14D PUSH2 0x272 JUMP JUMPDEST PUSH1 0x20 SWAP1 DUP2 MUL SWAP2 SWAP1 SWAP2 ADD ADD MSTORE POP POP PUSH1 0x1 ADD PUSH2 0x9D JUMP JUMPDEST POP SWAP3 SWAP2 POP POP JUMP JUMPDEST PUSH0 PUSH0 PUSH1 0x20 DUP4 DUP6 SUB SLT ISZERO PUSH2 0x17A JUMPI PUSH0 PUSH0 REVERT JUMPDEST DUP3 CALLDATALOAD PUSH8 0xFFFFFFFFFFFFFFFF DUP2 GT ISZERO PUSH2 0x190 JUMPI PUSH0 PUSH0 REVERT JUMPDEST DUP4 ADD PUSH1 0x1F DUP2 ADD DUP6 SGT PUSH2 0x1A0 JUMPI PUSH0 PUSH0 REVERT JUMPDEST DUP1 CALLDATALOAD PUSH8 0xFFFFFFFFFFFFFFFF DUP2 GT ISZERO PUSH2 0x1B6 JUMPI PUSH0 PUSH0 REVERT JUMPDEST DUP6 PUSH1 0x20 DUP3 PUSH1 0x5 SHL DUP5 ADD ADD GT ISZERO PUSH2 0x1CA JUMPI PUSH0 PUSH0 REVERT JUMPDEST PUSH1 0x20 SWAP2 SWAP1 SWAP2 ADD SWAP6 SWAP1 SWAP5 POP SWAP3 POP POP POP JUMP JUMPDEST PUSH0 PUSH1 0x20 DUP3 ADD PUSH1 0x20 DUP4 MSTORE DUP1 DUP5 MLOAD DUP1 DUP4 MSTORE PUSH1 0x40 DUP6 ADD SWAP2 POP PUSH1 0x40 DUP2 PUSH1 0x5 SHL DUP7 ADD ADD SWAP3 POP PUSH1 0x20 DUP7 ADD PUSH0 JUMPDEST DUP3 DUP2 LT ISZERO PUSH2 0x252 JUMPI PUSH1 0x3F NOT DUP8 DUP7 SUB ADD DUP5 MSTORE DUP2 MLOAD DUP1 MLOAD DUP1 DUP8 MSTORE DUP1 PUSH1 0x20 DUP4 ADD PUSH1 0x20 DUP10 ADD MCOPY PUSH0 PUSH1 0x20 DUP3 DUP10 ADD ADD MSTORE PUSH1 0x20 PUSH1 0x1F NOT PUSH1 0x1F DUP4 ADD AND DUP9 ADD ADD SWAP7 POP POP POP PUSH1 0x20 DUP3 ADD SWAP2 POP PUSH1 0x20 DUP5 ADD SWAP4 POP PUSH1 0x1 DUP2 ADD SWAP1 POP PUSH2 0x200 JUMP JUMPDEST POP SWAP3 SWAP7 SWAP6 POP POP POP POP POP POP JUMP JUMPDEST PUSH4 0x4E487B71 PUSH1 0xE0 SHL PUSH0 MSTORE PUSH1 0x41 PUSH1 0x4 MSTORE PUSH1 0x24 PUSH0 REVERT JUMPDEST PUSH4 0x4E487B71 PUSH1 0xE0 SHL PUSH0 MSTORE PUSH1 0x32 PUSH1 0x4 MSTORE PUSH1 0x24 PUSH0 REVERT JUMPDEST PUSH0 PUSH0 DUP4 CALLDATALOAD PUSH1 0x1E NOT DUP5 CALLDATASIZE SUB ADD DUP2 SLT PUSH2 0x29B JUMPI PUSH0 PUSH0 REVERT JUMPDEST DUP4 ADD DUP1 CALLDATALOAD SWAP2 POP PUSH8 0xFFFFFFFFFFFFFFFF DUP3 GT ISZERO PUSH2 0x2B5 JUMPI PUSH0 PUSH0 REVERT JUMPDEST PUSH1 0x20 ADD SWAP2 POP CALLDATASIZE DUP2 SWAP1 SUB DUP3 SGT ISZERO PUSH2 0x2C9 JUMPI PUSH0 PUSH0 REVERT JUMPDEST SWAP3 POP SWAP3 SWAP1 POP JUMP JUMPDEST DUP2 DUP4 DUP3 CALLDATACOPY PUSH0 SWAP2 ADD SWAP1 DUP2 MSTORE SWAP2 SWAP1 POP JUMP INVALID LOG2 PUSH5 0x6970667358 0x22 SLT KECCAK256 PREVRANDAO 0x23 RETURNCONTRACT 0xFE PUSH15 0x568138F242D071C3BA813CC8075D6D SUB PUSH5 0xD4DAB186C9 0xB2 0xC5 0xEA 0xA6 RETURNDATASIZE PUSH5 0x736F6C6343 STOP ADDMOD SAR STOP CALLER "
				},
				"gasEstimates": {
					"creation": {
						"codeDepositCost": "157800",
						"executionCost": "200",
						"totalCost": "158000"
					},
					"external": {
						"multiDelegatecall(bytes[])": "infinite"
					}
				},
				"methodIdentifiers": {
					"multiDelegatecall(bytes[])": "10957d3c"
				}
			},
			"storageLayout": {
				"storage": [],
				"types": null
			},
			"userdoc": {
				"kind": "user",
				"methods": {},
				"version": 1
			}
		}
	}
}