{
	"threefour/MultiDelegatecall.sol": {
		"Helper": {
			"abi": [
				{
					"inputs": [
						{
							"internalType": "uint256",
							"name": "x",
							"type": "uint256"
						},
						{
							"internalType": "uint256",
							"name": "y",
							"type": "uint256"
						}
					],
					"name": "getFunc1Data",
					"outputs": [
						{
							"internalType": "bytes",
							"name": "",
							"type": "bytes"
						}
					],
					"stateMutability": "pure",
					"type": "function"
				},
				{
					"inputs": [],
					"name": "getFunc2Data",
					"outputs": [
						{
							"internalType": "bytes",
							"name": "",
							"type": "bytes"
						}
					],
					"stateMutability": "pure",
					"type": "function"
				},
				{
					"inputs": [],
					"name": "getMintData",
					"outputs": [
						{
							"internalType": "bytes",
							"name": "",
							"type": "bytes"
						}
					],
					"stateMutability": "pure",
					"type": "function"
				}
			],
			"devdoc": {
				"kind": "dev",
				"methods": {},
				"version": 1
			},
			"evm": {
				"assembly": "    /* \"threefour/MultiDelegatecall.sol\":1302:1836  contract Helper{... */\n  mstore(0x40, 0x80)\n  callvalue\n  dup1\n  iszero\n  tag_1\n  jumpi\n  revert(0x00, 0x00)\ntag_1:\n  pop\n  dataSize(sub_0)\n  dup1\n  dataOffset(sub_0)\n  0x00\n  codecopy\n  0x00\n  return\nstop\n\nsub_0: assembly {\n        /* \"threefour/MultiDelegatecall.sol\":1302:1836  contract Helper{... */\n      mstore(0x40, 0x80)\n      callvalue\n      dup1\n      iszero\n      tag_1\n      jumpi\n      revert(0x00, 0x00)\n    tag_1:\n      pop\n      jumpi(tag_2, lt(calldatasize, 0x04))\n      shr(0xe0, calldataload(0x00))\n      dup1\n      0x73fc3495\n      eq\n      tag_3\n      jumpi\n      dup1\n      0x96db41be\n      eq\n      tag_4\n      jumpi\n      dup1\n      0xb483ebb6\n      eq\n      tag_5\n      jumpi\n    tag_2:\n      revert(0x00, 0x00)\n        /* \"threefour/MultiDelegatecall.sol\":1324:1505  function getFunc1Data(uint256 x,uint256 y)... */\n    tag_3:\n      tag_6\n      tag_7\n      calldatasize\n      0x04\n      tag_8\n      jump\t// in\n    tag_7:\n        /* \"threefour/MultiDelegatecall.sol\":1432:1497  abi.encodeWithSelector(TestMultiDelegatecall.func1.selector, x,y) */\n      0x40\n      dup1\n      mload\n      0x24\n      dup2\n      add\n        /* \"#utility.yul\":960:985   */\n      swap4\n      swap1\n      swap4\n      mstore\n        /* \"#utility.yul\":1001:1019   */\n      0x44\n      dup1\n      dup5\n      add\n        /* \"#utility.yul\":994:1028   */\n      swap3\n      swap1\n      swap3\n      mstore\n        /* \"threefour/MultiDelegatecall.sol\":1432:1497  abi.encodeWithSelector(TestMultiDelegatecall.func1.selector, x,y) */\n      dup1\n      mload\n      dup1\n      dup5\n      sub\n      swap1\n      swap3\n      add\n      dup3\n      mstore\n        /* \"#utility.yul\":933:951   */\n      0x64\n      swap1\n      swap3\n      add\n        /* \"threefour/MultiDelegatecall.sol\":1432:1497  abi.encodeWithSelector(TestMultiDelegatecall.func1.selector, x,y) */\n      swap1\n      swap2\n      mstore\n      0x20\n      dup2\n      add\n      dup1\n      mload\n      sub(shl(0xe0, 0x01), 0x01)\n      and\n      shl(0xe0, 0x3cb80085)\n      or\n      swap1\n      mstore\n      swap1\n        /* \"threefour/MultiDelegatecall.sol\":1324:1505  function getFunc1Data(uint256 x,uint256 y)... */\n      jump\n    tag_6:\n      mload(0x40)\n      tag_10\n      swap2\n      swap1\n      tag_11\n      jump\t// in\n    tag_10:\n      mload(0x40)\n      dup1\n      swap2\n      sub\n      swap1\n      return\n        /* \"threefour/MultiDelegatecall.sol\":1513:1670  function getFunc2Data()... */\n    tag_4:\n      tag_6\n        /* \"threefour/MultiDelegatecall.sol\":1602:1662  abi.encodeWithSelector(TestMultiDelegatecall.func2.selector) */\n      0x40\n      dup1\n      mload\n      0x04\n      dup2\n      mstore\n      0x24\n      dup2\n      add\n      swap1\n      swap2\n      mstore\n      0x20\n      dup2\n      add\n      dup1\n      mload\n      sub(shl(0xe0, 0x01), 0x01)\n      and\n      shl(0xe0, 0xb1ade4db)\n      or\n      swap1\n      mstore\n      swap1\n        /* \"threefour/MultiDelegatecall.sol\":1513:1670  function getFunc2Data()... */\n      jump\n        /* \"threefour/MultiDelegatecall.sol\":1678:1833  function getMintData()... */\n    tag_5:\n      tag_6\n        /* \"threefour/MultiDelegatecall.sol\":1766:1825  abi.encodeWithSelector(TestMultiDelegatecall.mint.selector) */\n      0x40\n      dup1\n      mload\n      0x04\n      dup2\n      mstore\n      0x24\n      dup2\n      add\n      swap1\n      swap2\n      mstore\n      0x20\n      dup2\n      add\n      dup1\n      mload\n      sub(shl(0xe0, 0x01), 0x01)\n      and\n      shl(0xe0, 0x1249c58b)\n      or\n      swap1\n      mstore\n      swap1\n        /* \"threefour/MultiDelegatecall.sol\":1678:1833  function getMintData()... */\n      jump\n        /* \"#utility.yul\":14:360   */\n    tag_8:\n        /* \"#utility.yul\":82:88   */\n      0x00\n        /* \"#utility.yul\":90:96   */\n      0x00\n        /* \"#utility.yul\":143:145   */\n      0x40\n        /* \"#utility.yul\":131:140   */\n      dup4\n        /* \"#utility.yul\":122:129   */\n      dup6\n        /* \"#utility.yul\":118:141   */\n      sub\n        /* \"#utility.yul\":114:146   */\n      slt\n        /* \"#utility.yul\":111:163   */\n      iszero\n      tag_25\n      jumpi\n        /* \"#utility.yul\":159:160   */\n      0x00\n        /* \"#utility.yul\":156:157   */\n      0x00\n        /* \"#utility.yul\":149:161   */\n      revert\n        /* \"#utility.yul\":111:163   */\n    tag_25:\n      pop\n      pop\n        /* \"#utility.yul\":204:227   */\n      dup1\n      calldataload\n      swap3\n        /* \"#utility.yul\":324:326   */\n      0x20\n        /* \"#utility.yul\":309:327   */\n      swap1\n      swap2\n      add\n        /* \"#utility.yul\":296:328   */\n      calldataload\n      swap2\n      pop\n        /* \"#utility.yul\":14:360   */\n      jump\t// out\n        /* \"#utility.yul\":365:781   */\n    tag_11:\n        /* \"#utility.yul\":512:514   */\n      0x20\n        /* \"#utility.yul\":501:510   */\n      dup2\n        /* \"#utility.yul\":494:515   */\n      mstore\n        /* \"#utility.yul\":475:479   */\n      0x00\n        /* \"#utility.yul\":544:550   */\n      dup3\n        /* \"#utility.yul\":538:551   */\n      mload\n        /* \"#utility.yul\":587:593   */\n      dup1\n        /* \"#utility.yul\":582:584   */\n      0x20\n        /* \"#utility.yul\":571:580   */\n      dup5\n        /* \"#utility.yul\":567:585   */\n      add\n        /* \"#utility.yul\":560:594   */\n      mstore\n        /* \"#utility.yul\":646:652   */\n      dup1\n        /* \"#utility.yul\":641:643   */\n      0x20\n        /* \"#utility.yul\":633:639   */\n      dup6\n        /* \"#utility.yul\":629:644   */\n      add\n        /* \"#utility.yul\":624:626   */\n      0x40\n        /* \"#utility.yul\":613:622   */\n      dup6\n        /* \"#utility.yul\":609:627   */\n      add\n        /* \"#utility.yul\":603:653   */\n      mcopy\n        /* \"#utility.yul\":702:703   */\n      0x00\n        /* \"#utility.yul\":697:699   */\n      0x40\n        /* \"#utility.yul\":688:694   */\n      dup3\n        /* \"#utility.yul\":677:686   */\n      dup6\n        /* \"#utility.yul\":673:695   */\n      add\n        /* \"#utility.yul\":669:700   */\n      add\n        /* \"#utility.yul\":662:704   */\n      mstore\n        /* \"#utility.yul\":772:774   */\n      0x40\n        /* \"#utility.yul\":765:767   */\n      0x1f\n        /* \"#utility.yul\":761:768   */\n      not\n        /* \"#utility.yul\":756:758   */\n      0x1f\n        /* \"#utility.yul\":748:754   */\n      dup4\n        /* \"#utility.yul\":744:759   */\n      add\n        /* \"#utility.yul\":740:769   */\n      and\n        /* \"#utility.yul\":729:738   */\n      dup5\n        /* \"#utility.yul\":725:770   */\n      add\n        /* \"#utility.yul\":721:775   */\n      add\n        /* \"#utility.yul\":713:775   */\n      swap2\n      pop\n      pop\n        /* \"#utility.yul\":365:781   */\n      swap3\n      swap2\n      pop\n      pop\n      jump\t// out\n\n    auxdata: 0xa2646970667358221220ad6133f6aad0d12558f77334c3080e5829230dfd81caef94913a5919dddf730364736f6c634300081d0033\n}\n",
				"bytecode": {
					"linkReferences": {},
					"object": "6080604052348015600e575f5ffd5b506101948061001c5f395ff3fe608060405234801561000f575f5ffd5b506004361061003f575f3560e01c806373fc34951461004357806396db41be146100ab578063b483ebb6146100da575b5f5ffd5b610095610051366004610109565b6040805160248101939093526044808401929092528051808403909201825260649092019091526020810180516001600160e01b0316633cb8008560e01b17905290565b6040516100a29190610129565b60405180910390f35b6100956040805160048152602481019091526020810180516001600160e01b031663b1ade4db60e01b17905290565b6100956040805160048152602481019091526020810180516001600160e01b0316631249c58b60e01b17905290565b5f5f6040838503121561011a575f5ffd5b50508035926020909101359150565b602081525f82518060208401528060208501604085015e5f604082850101526040601f19601f8301168401019150509291505056fea2646970667358221220ad6133f6aad0d12558f77334c3080e5829230dfd81caef94913a5919dddf730364736f6c634300081d0033",
					"opcodes": "PUSH1 0x80 PUSH1 0x40 MSTORE CALLVALUE DUP1 ISZERO PUSH1 0xE JUMPI PUSH0 PUSH0 REVERT JUMPDEST POP PUSH2 0x194 DUP1 PUSH2 0x1C PUSH0 CODECOPY PUSH0 RETURN INVALID PUSH1 0x80 PUSH1 0x40 MSTORE CALLVALUE DUP1 ISZERO PUSH2 0xF JUMPI PUSH0 PUSH0 REVERT JUMPDEST POP PUSH1 0x4 CALLDATASIZE LT PUSH2 0x3F JUMPI PUSH0 CALLDATALOAD PUSH1 0xE0 SHR DUP1 PUSH4 0x73FC3495 EQ PUSH2 0x43 JUMPI DUP1 PUSH4 0x96DB41BE EQ PUSH2 0xAB JUMPI DUP1 PUSH4 0xB483EBB6 EQ PUSH2 0xDA JUMPI JUMPDEST PUSH0 PUSH0 REVERT JUMPDEST PUSH2 0x95 PUSH2 0x51 CALLDATASIZE PUSH1 0x4 PUSH2 0x109 JUMP JUMPDEST PUSH1 0x40 DUP1 MLOAD PUSH1 0x24 DUP2 ADD SWAP4 SWAP1 SWAP4 MSTORE PUSH1 0x44 DUP1 DUP5 ADD SWAP3 SWAP1 SWAP3 MSTORE DUP1 MLOAD DUP1 DUP5 SUB SWAP1 SWAP3 ADD DUP3 MSTORE PUSH1 0x64 SWAP1 SWAP3 ADD SWAP1 SWAP2 MSTORE PUSH1 0x20 DUP2 ADD DUP1 MLOAD PUSH1 0x1 PUSH1 0x1 PUSH1 0xE0 SHL SUB AND PUSH4 0x3CB80085 PUSH1 0xE0 SHL OR SWAP1 MSTORE SWAP1 JUMP JUMPDEST PUSH1 0x40 MLOAD PUSH2 0xA2 SWAP2 SWAP1 PUSH2 0x129 JUMP JUMPDEST PUSH1 0x40 MLOAD DUP1 SWAP2 SUB SWAP1 RETURN JUMPDEST PUSH2 0x95 PUSH1 0x40 DUP1 MLOAD PUSH1 0x4 DUP2 MSTORE PUSH1 0x24 DUP2 ADD SWAP1 SWAP2 MSTORE PUSH1 0x20 DUP2 ADD DUP1 MLOAD PUSH1 0x1 PUSH1 0x1 PUSH1 0xE0 SHL SUB AND PUSH4 0xB1ADE4DB PUSH1 0xE0 SHL OR SWAP1 MSTORE SWAP1 JUMP JUMPDEST PUSH2 0x95 PUSH1 0x40 DUP1 MLOAD PUSH1 0x4 DUP2 MSTORE PUSH1 0x24 DUP2 ADD SWAP1 SWAP2 MSTORE PUSH1 0x20 DUP2 ADD DUP1 MLOAD PUSH1 0x1 PUSH1 0x1 PUSH1 0xE0 SHL SUB AND PUSH4 0x1249C58B PUSH1 0xE0 SHL OR SWAP1 MSTORE SWAP1 JUMP JUMPDEST PUSH0 PUSH0 PUSH1 0x40 DUP4 DUP6 SUB SLT ISZERO PUSH2 0x11A JUMPI PUSH0 PUSH0 REVERT JUMPDEST POP POP DUP1 CALLDATALOAD SWAP3 PUSH1 0x20 SWAP1 SWAP2 ADD CALLDATALOAD SWAP2 POP JUMP JUMPDEST PUSH1 0x20 DUP2 MSTORE PUSH0 DUP3 MLOAD DUP1 PUSH1 0x20 DUP5 ADD MSTORE DUP1 PUSH1 0x20 DUP6 ADD PUSH1 0x40 DUP6 ADD MCOPY PUSH0 PUSH1 0x40 DUP3 DUP6 ADD ADD MSTORE PUSH1 0x40 PUSH1 0x1F NOT PUSH1 0x1F DUP4 ADD AND DUP5 ADD ADD SWAP2 POP POP SWAP3 SWAP2 POP POP JUMP INVALID LOG2 PUSH5 0x6970667358 0x22 SLT KECCAK256 0xAD PUSH2 0x33F6 0xAA 0xD0 DATALOADN 0x2558 0xF7 PUSH20 0x34C3080E5829230DFD81CAEF94913A5919DDDF73 SUB PUSH5 0x736F6C6343 STOP ADDMOD SAR STOP CALLER "
				},
				"gasEstimates": {
					"creation": {
						"codeDepositCost": "80800",
						"executionCost": "127",
						"totalCost": "80927"
					},
					"external": {
						"getFunc1Data(uint256,uint256)": "infinite",
						"getFunc2Data()": "infinite",
						"getMintData()": "infinite"
					}
				},
				"methodIdentifiers": {
					"getFunc1Data(uint256,uint256)": "73fc3495",
					"getFunc2Data()": "96db41be",
					"getMintData()": "b483ebb6"
				}
			},
			"storageLayout": {
				"storage": [],
				"types": null
			},
			"userdoc": {
				"kind": "user",
				"methods": {},
				"version": 1
			}
		}
	}
}