{
	"contracts/MultiCallTest.sol": {
		"MultiCallTest": {
			"abi": [
				{
					"inputs": [],
					"name": "func1",
					"outputs": [
						{
							"internalType": "uint256",
							"name": "",
							"type": "uint256"
						},
						{
							"internalType": "uint256",
							"name": "",
							"type": "uint256"
						}
					],
					"stateMutability": "view",
					"type": "function"
				},
				{
					"inputs": [],
					"name": "func2",
					"outputs": [
						{
							"internalType": "uint256",
							"name": "",
							"type": "uint256"
						},
						{
							"internalType": "uint256",
							"name": "",
							"type": "uint256"
						}
					],
					"stateMutability": "view",
					"type": "function"
				},
				{
					"inputs": [],
					"name": "getData1",
					"outputs": [
						{
							"internalType": "bytes",
							"name": "",
							"type": "bytes"
						}
					],
					"stateMutability": "pure",
					"type": "function"
				},
				{
					"inputs": [],
					"name": "getData2",
					"outputs": [
						{
							"internalType": "bytes",
							"name": "",
							"type": "bytes"
						}
					],
					"stateMutability": "pure",
					"type": "function"
				}
			],
			"devdoc": {
				"kind": "dev",
				"methods": {},
				"version": 1
			},
			"evm": {
				"assembly": "    /* \"contracts/MultiCallTest.sol\":60:615  contract MultiCallTest{... */\n  mstore(0x40, 0x80)\n  callvalue\n  dup1\n  iszero\n  tag_1\n  jumpi\n  revert(0x00, 0x00)\ntag_1:\n  pop\n  dataSize(sub_0)\n  dup1\n  dataOffset(sub_0)\n  0x00\n  codecopy\n  0x00\n  return\nstop\n\nsub_0: assembly {\n        /* \"contracts/MultiCallTest.sol\":60:615  contract MultiCallTest{... */\n      mstore(0x40, 0x80)\n      callvalue\n      dup1\n      iszero\n      tag_1\n      jumpi\n      revert(0x00, 0x00)\n    tag_1:\n      pop\n      jumpi(tag_2, lt(calldatasize, 0x04))\n      shr(0xe0, calldataload(0x00))\n      dup1\n      0x74135154\n      eq\n      tag_3\n      jumpi\n      dup1\n      0x9944cc71\n      eq\n      tag_4\n      jumpi\n      dup1\n      0xa898fd70\n      eq\n      tag_5\n      jumpi\n      dup1\n      0xb1ade4db\n      eq\n      tag_6\n      jumpi\n    tag_2:\n      revert(0x00, 0x00)\n        /* \"contracts/MultiCallTest.sol\":91:187  function func1() external view returns (uint,uint) {... */\n    tag_3:\n        /* \"contracts/MultiCallTest.sol\":161:162  1 */\n      0x01\n        /* \"contracts/MultiCallTest.sol\":163:178  block.timestamp */\n      timestamp\n        /* \"contracts/MultiCallTest.sol\":91:187  function func1() external view returns (uint,uint) {... */\n    tag_7:\n      0x40\n      dup1\n      mload\n        /* \"#utility.yul\":188:213   */\n      swap3\n      dup4\n      mstore\n        /* \"#utility.yul\":244:246   */\n      0x20\n        /* \"#utility.yul\":229:247   */\n      dup4\n      add\n        /* \"#utility.yul\":222:256   */\n      swap2\n      swap1\n      swap2\n      mstore\n        /* \"#utility.yul\":161:179   */\n      add\n        /* \"contracts/MultiCallTest.sol\":91:187  function func1() external view returns (uint,uint) {... */\n    tag_9:\n      mload(0x40)\n      dup1\n      swap2\n      sub\n      swap1\n      return\n        /* \"contracts/MultiCallTest.sol\":299:424  function getData1() external pure returns (bytes memory){... */\n    tag_4:\n      tag_11\n        /* \"contracts/MultiCallTest.sol\":373:416  abi.encodeWithSelector(this.func1.selector) */\n      0x40\n      dup1\n      mload\n      0x04\n      dup2\n      mstore\n      0x24\n      dup2\n      add\n      swap1\n      swap2\n      mstore\n      0x20\n      dup2\n      add\n      dup1\n      mload\n      sub(shl(0xe0, 0x01), 0x01)\n      and\n      shl(0xe2, 0x1d04d455)\n      or\n      swap1\n      mstore\n      swap1\n        /* \"contracts/MultiCallTest.sol\":299:424  function getData1() external pure returns (bytes memory){... */\n      jump\n    tag_11:\n      mload(0x40)\n      tag_9\n      swap2\n      swap1\n      tag_14\n      jump\t// in\n        /* \"contracts/MultiCallTest.sol\":432:612  function getData2() external pure returns (bytes memory){... */\n    tag_5:\n      tag_11\n        /* \"contracts/MultiCallTest.sol\":506:540  abi.encodeWithSignature(\"func2()\") */\n      0x40\n      dup1\n      mload\n      0x04\n      dup2\n      mstore\n      0x24\n      dup2\n      add\n      swap1\n      swap2\n      mstore\n      0x20\n      dup2\n      add\n      dup1\n      mload\n      sub(shl(0xe0, 0x01), 0x01)\n      and\n      shl(0xe0, 0xb1ade4db)\n      or\n      swap1\n      mstore\n      swap1\n        /* \"contracts/MultiCallTest.sol\":432:612  function getData2() external pure returns (bytes memory){... */\n      jump\n        /* \"contracts/MultiCallTest.sol\":195:291  function func2() external view returns (uint,uint) {... */\n    tag_6:\n        /* \"contracts/MultiCallTest.sol\":265:266  2 */\n      0x02\n        /* \"contracts/MultiCallTest.sol\":267:282  block.timestamp */\n      timestamp\n        /* \"contracts/MultiCallTest.sol\":195:291  function func2() external view returns (uint,uint) {... */\n      jump(tag_7)\n        /* \"#utility.yul\":267:683   */\n    tag_14:\n        /* \"#utility.yul\":414:416   */\n      0x20\n        /* \"#utility.yul\":403:412   */\n      dup2\n        /* \"#utility.yul\":396:417   */\n      mstore\n        /* \"#utility.yul\":377:381   */\n      0x00\n        /* \"#utility.yul\":446:452   */\n      dup3\n        /* \"#utility.yul\":440:453   */\n      mload\n        /* \"#utility.yul\":489:495   */\n      dup1\n        /* \"#utility.yul\":484:486   */\n      0x20\n        /* \"#utility.yul\":473:482   */\n      dup5\n        /* \"#utility.yul\":469:487   */\n      add\n        /* \"#utility.yul\":462:496   */\n      mstore\n        /* \"#utility.yul\":548:554   */\n      dup1\n        /* \"#utility.yul\":543:545   */\n      0x20\n        /* \"#utility.yul\":535:541   */\n      dup6\n        /* \"#utility.yul\":531:546   */\n      add\n        /* \"#utility.yul\":526:528   */\n      0x40\n        /* \"#utility.yul\":515:524   */\n      dup6\n        /* \"#utility.yul\":511:529   */\n      add\n        /* \"#utility.yul\":505:555   */\n      mcopy\n        /* \"#utility.yul\":604:605   */\n      0x00\n        /* \"#utility.yul\":599:601   */\n      0x40\n        /* \"#utility.yul\":590:596   */\n      dup3\n        /* \"#utility.yul\":579:588   */\n      dup6\n        /* \"#utility.yul\":575:597   */\n      add\n        /* \"#utility.yul\":571:602   */\n      add\n        /* \"#utility.yul\":564:606   */\n      mstore\n        /* \"#utility.yul\":674:676   */\n      0x40\n        /* \"#utility.yul\":667:669   */\n      0x1f\n        /* \"#utility.yul\":663:670   */\n      not\n        /* \"#utility.yul\":658:660   */\n      0x1f\n        /* \"#utility.yul\":650:656   */\n      dup4\n        /* \"#utility.yul\":646:661   */\n      add\n        /* \"#utility.yul\":642:671   */\n      and\n        /* \"#utility.yul\":631:640   */\n      dup5\n        /* \"#utility.yul\":627:672   */\n      add\n        /* \"#utility.yul\":623:677   */\n      add\n        /* \"#utility.yul\":615:677   */\n      swap2\n      pop\n      pop\n        /* \"#utility.yul\":267:683   */\n      swap3\n      swap2\n      pop\n      pop\n      jump\t// out\n\n    auxdata: 0xa264697066735822122070cac400eeea556c8de33d9e66ce08d7bf95cdfd4e5ec70656c84d6d3e989fe664736f6c634300081d0033\n}\n",
				"bytecode": {
					"linkReferences": {},
					"object": "6080604052348015600e575f5ffd5b5061014a8061001c5f395ff3fe608060405234801561000f575f5ffd5b506004361061004a575f3560e01c8063741351541461004e5780639944cc711461006c578063a898fd70146100a8578063b1ade4db146100d7575b5f5ffd5b6001425b604080519283526020830191909152015b60405180910390f35b61009b6040805160048152602481019091526020810180516001600160e01b0316631d04d45560e21b17905290565b60405161006391906100df565b61009b6040805160048152602481019091526020810180516001600160e01b031663b1ade4db60e01b17905290565b600242610052565b602081525f82518060208401528060208501604085015e5f604082850101526040601f19601f8301168401019150509291505056fea264697066735822122070cac400eeea556c8de33d9e66ce08d7bf95cdfd4e5ec70656c84d6d3e989fe664736f6c634300081d0033",
					"opcodes": "PUSH1 0x80 PUSH1 0x40 MSTORE CALLVALUE DUP1 ISZERO PUSH1 0xE JUMPI PUSH0 PUSH0 REVERT JUMPDEST POP PUSH2 0x14A DUP1 PUSH2 0x1C PUSH0 CODECOPY PUSH0 RETURN INVALID PUSH1 0x80 PUSH1 0x40 MSTORE CALLVALUE DUP1 ISZERO PUSH2 0xF JUMPI PUSH0 PUSH0 REVERT JUMPDEST POP PUSH1 0x4 CALLDATASIZE LT PUSH2 0x4A JUMPI PUSH0 CALLDATALOAD PUSH1 0xE0 SHR DUP1 PUSH4 0x74135154 EQ PUSH2 0x4E JUMPI DUP1 PUSH4 0x9944CC71 EQ PUSH2 0x6C JUMPI DUP1 PUSH4 0xA898FD70 EQ PUSH2 0xA8 JUMPI DUP1 PUSH4 0xB1ADE4DB EQ PUSH2 0xD7 JUMPI JUMPDEST PUSH0 PUSH0 REVERT JUMPDEST PUSH1 0x1 TIMESTAMP JUMPDEST PUSH1 0x40 DUP1 MLOAD SWAP3 DUP4 MSTORE PUSH1 0x20 DUP4 ADD SWAP2 SWAP1 SWAP2 MSTORE ADD JUMPDEST PUSH1 0x40 MLOAD DUP1 SWAP2 SUB SWAP1 RETURN JUMPDEST PUSH2 0x9B PUSH1 0x40 DUP1 MLOAD PUSH1 0x4 DUP2 MSTORE PUSH1 0x24 DUP2 ADD SWAP1 SWAP2 MSTORE PUSH1 0x20 DUP2 ADD DUP1 MLOAD PUSH1 0x1 PUSH1 0x1 PUSH1 0xE0 SHL SUB AND PUSH4 0x1D04D455 PUSH1 0xE2 SHL OR SWAP1 MSTORE SWAP1 JUMP JUMPDEST PUSH1 0x40 MLOAD PUSH2 0x63 SWAP2 SWAP1 PUSH2 0xDF JUMP JUMPDEST PUSH2 0x9B PUSH1 0x40 DUP1 MLOAD PUSH1 0x4 DUP2 MSTORE PUSH1 0x24 DUP2 ADD SWAP1 SWAP2 MSTORE PUSH1 0x20 DUP2 ADD DUP1 MLOAD PUSH1 0x1 PUSH1 0x1 PUSH1 0xE0 SHL SUB AND PUSH4 0xB1ADE4DB PUSH1 0xE0 SHL OR SWAP1 MSTORE SWAP1 JUMP JUMPDEST PUSH1 0x2 TIMESTAMP PUSH2 0x52 JUMP JUMPDEST PUSH1 0x20 DUP2 MSTORE PUSH0 DUP3 MLOAD DUP1 PUSH1 0x20 DUP5 ADD MSTORE DUP1 PUSH1 0x20 DUP6 ADD PUSH1 0x40 DUP6 ADD MCOPY PUSH0 PUSH1 0x40 DUP3 DUP6 ADD ADD MSTORE PUSH1 0x40 PUSH1 0x1F NOT PUSH1 0x1F DUP4 ADD AND DUP5 ADD ADD SWAP2 POP POP SWAP3 SWAP2 POP POP JUMP INVALID LOG2 PUSH5 0x6970667358 0x22 SLT KECCAK256 PUSH17 0xCAC400EEEA556C8DE33D9E66CE08D7BF95 0xCD REVERT 0x4E MCOPY 0xC7 MOD JUMP 0xC8 0x4D PUSH14 0x3E989FE664736F6C634300081D00 CALLER "
				},
				"gasEstimates": {
					"creation": {
						"codeDepositCost": "66000",
						"executionCost": "115",
						"totalCost": "66115"
					},
					"external": {
						"func1()": "173",
						"func2()": "250",
						"getData1()": "infinite",
						"getData2()": "infinite"
					}
				},
				"methodIdentifiers": {
					"func1()": "74135154",
					"func2()": "b1ade4db",
					"getData1()": "9944cc71",
					"getData2()": "a898fd70"
				}
			},
			"storageLayout": {
				"storage": [],
				"types": null
			},
			"userdoc": {
				"kind": "user",
				"methods": {},
				"version": 1
			}
		}
	}
}