{
	"contracts/MultiCallTest.sol": {
		"MultiCall": {
			"abi": [
				{
					"inputs": [
						{
							"internalType": "address[]",
							"name": "targets",
							"type": "address[]"
						},
						{
							"internalType": "bytes[]",
							"name": "data",
							"type": "bytes[]"
						}
					],
					"name": "multiCall",
					"outputs": [
						{
							"internalType": "bytes[]",
							"name": "",
							"type": "bytes[]"
						}
					],
					"stateMutability": "view",
					"type": "function"
				}
			],
			"devdoc": {
				"kind": "dev",
				"methods": {},
				"version": 1
			},
			"evm": {
				"assembly": "    /* \"contracts/MultiCallTest.sol\":619:1150  contract MultiCall{... */\n  mstore(0x40, 0x80)\n  callvalue\n  dup1\n  iszero\n  tag_1\n  jumpi\n  revert(0x00, 0x00)\ntag_1:\n  pop\n  dataSize(sub_0)\n  dup1\n  dataOffset(sub_0)\n  0x00\n  codecopy\n  0x00\n  return\nstop\n\nsub_0: assembly {\n        /* \"contracts/MultiCallTest.sol\":619:1150  contract MultiCall{... */\n      mstore(0x40, 0x80)\n      callvalue\n      dup1\n      iszero\n      tag_1\n      jumpi\n      revert(0x00, 0x00)\n    tag_1:\n      pop\n      jumpi(tag_2, lt(calldatasize, 0x04))\n      shr(0xe0, calldataload(0x00))\n      dup1\n      0xda5b4ffd\n      eq\n      tag_3\n      jumpi\n    tag_2:\n      revert(0x00, 0x00)\n        /* \"contracts/MultiCallTest.sol\":646:1147  function multiCall(address[] calldata targets,bytes[] calldata data)... */\n    tag_3:\n      tag_4\n      tag_5\n      calldatasize\n      0x04\n      tag_6\n      jump\t// in\n    tag_5:\n      tag_7\n      jump\t// in\n    tag_4:\n      mload(0x40)\n      tag_8\n      swap2\n      swap1\n      tag_9\n      jump\t// in\n    tag_8:\n      mload(0x40)\n      dup1\n      swap2\n      sub\n      swap1\n      return\n    tag_7:\n        /* \"contracts/MultiCallTest.sol\":742:756  bytes[] memory */\n      0x60\n        /* \"contracts/MultiCallTest.sol\":782:811  targets.length == data.length */\n      dup4\n      dup3\n      eq\n        /* \"contracts/MultiCallTest.sol\":774:843  require(targets.length == data.length,\"target length != data length\") */\n      tag_11\n      jumpi\n      mload(0x40)\n      shl(0xe5, 0x461bcd)\n      dup2\n      mstore\n        /* \"#utility.yul\":2393:2395   */\n      0x20\n        /* \"contracts/MultiCallTest.sol\":774:843  require(targets.length == data.length,\"target length != data length\") */\n      0x04\n      dup3\n      add\n        /* \"#utility.yul\":2375:2396   */\n      mstore\n        /* \"#utility.yul\":2432:2434   */\n      0x1c\n        /* \"#utility.yul\":2412:2430   */\n      0x24\n      dup3\n      add\n        /* \"#utility.yul\":2405:2435   */\n      mstore\n        /* \"#utility.yul\":2471:2501   */\n      0x746172676574206c656e67746820213d2064617461206c656e67746800000000\n        /* \"#utility.yul\":2451:2469   */\n      0x44\n      dup3\n      add\n        /* \"#utility.yul\":2444:2502   */\n      mstore\n        /* \"#utility.yul\":2519:2537   */\n      0x64\n      add\n        /* \"contracts/MultiCallTest.sol\":774:843  require(targets.length == data.length,\"target length != data length\") */\n    tag_12:\n      mload(0x40)\n      dup1\n      swap2\n      sub\n      swap1\n      revert\n    tag_11:\n        /* \"contracts/MultiCallTest.sol\":854:876  bytes[] memory results */\n      0x00\n        /* \"contracts/MultiCallTest.sol\":891:895  data */\n      dup3\n        /* \"contracts/MultiCallTest.sol\":879:903  new bytes[](data.length) */\n      0xffffffffffffffff\n      dup2\n      gt\n      iszero\n      tag_15\n      jumpi\n      tag_15\n      tag_16\n      jump\t// in\n    tag_15:\n      mload(0x40)\n      swap1\n      dup1\n      dup3\n      mstore\n      dup1\n      0x20\n      mul\n      0x20\n      add\n      dup3\n      add\n      0x40\n      mstore\n      dup1\n      iszero\n      tag_17\n      jumpi\n      dup2\n      0x20\n      add\n    tag_18:\n      0x60\n      dup2\n      mstore\n      0x20\n      add\n      swap1\n      0x01\n      swap1\n      sub\n      swap1\n      dup2\n      tag_18\n      jumpi\n      swap1\n      pop\n    tag_17:\n      pop\n        /* \"contracts/MultiCallTest.sol\":854:903  bytes[] memory results = new bytes[](data.length) */\n      swap1\n      pop\n        /* \"contracts/MultiCallTest.sol\":918:924  uint i */\n      0x00\n        /* \"contracts/MultiCallTest.sol\":914:1115  for(uint i;i< targets.length;i++){... */\n    tag_19:\n        /* \"contracts/MultiCallTest.sol\":925:942  i< targets.length */\n      dup6\n      dup2\n      lt\n        /* \"contracts/MultiCallTest.sol\":914:1115  for(uint i;i< targets.length;i++){... */\n      iszero\n      tag_20\n      jumpi\n        /* \"contracts/MultiCallTest.sol\":963:975  bool success */\n      0x00\n        /* \"contracts/MultiCallTest.sol\":976:995  bytes memory result */\n      0x00\n        /* \"contracts/MultiCallTest.sol\":998:1005  targets */\n      dup9\n      dup9\n        /* \"contracts/MultiCallTest.sol\":1006:1007  i */\n      dup5\n        /* \"contracts/MultiCallTest.sol\":998:1008  targets[i] */\n      dup2\n      dup2\n      lt\n      tag_23\n      jumpi\n      tag_23\n      tag_24\n      jump\t// in\n    tag_23:\n      swap1\n      pop\n      0x20\n      mul\n      add\n      0x20\n      dup2\n      add\n      swap1\n      tag_25\n      swap2\n      swap1\n      tag_26\n      jump\t// in\n    tag_25:\n      sub(shl(0xa0, 0x01), 0x01)\n        /* \"contracts/MultiCallTest.sol\":998:1019  targets[i].staticcall */\n      and\n        /* \"contracts/MultiCallTest.sol\":1020:1024  data */\n      dup8\n      dup8\n        /* \"contracts/MultiCallTest.sol\":1025:1026  i */\n      dup6\n        /* \"contracts/MultiCallTest.sol\":1020:1027  data[i] */\n      dup2\n      dup2\n      lt\n      tag_28\n      jumpi\n      tag_28\n      tag_24\n      jump\t// in\n    tag_28:\n      swap1\n      pop\n      0x20\n      mul\n      dup2\n      add\n      swap1\n      tag_29\n      swap2\n      swap1\n      tag_30\n      jump\t// in\n    tag_29:\n        /* \"contracts/MultiCallTest.sol\":998:1028  targets[i].staticcall(data[i]) */\n      mload(0x40)\n      tag_31\n      swap3\n      swap2\n      swap1\n      tag_32\n      jump\t// in\n    tag_31:\n      0x00\n      mload(0x40)\n      dup1\n      dup4\n      sub\n      dup2\n      dup6\n      gas\n      staticcall\n      swap2\n      pop\n      pop\n      returndatasize\n      dup1\n      0x00\n      dup2\n      eq\n      tag_35\n      jumpi\n      mload(0x40)\n      swap2\n      pop\n      and(add(returndatasize, 0x3f), not(0x1f))\n      dup3\n      add\n      0x40\n      mstore\n      returndatasize\n      dup3\n      mstore\n      returndatasize\n      0x00\n      0x20\n      dup5\n      add\n      returndatacopy\n      jump(tag_34)\n    tag_35:\n      0x60\n      swap2\n      pop\n    tag_34:\n      pop\n        /* \"contracts/MultiCallTest.sol\":962:1028  (bool success,bytes memory result)= targets[i].staticcall(data[i]) */\n      swap2\n      pop\n      swap2\n      pop\n        /* \"contracts/MultiCallTest.sol\":1051:1058  success */\n      dup2\n        /* \"contracts/MultiCallTest.sol\":1043:1071  require(success,\"tx failed\") */\n      tag_36\n      jumpi\n      mload(0x40)\n      shl(0xe5, 0x461bcd)\n      dup2\n      mstore\n        /* \"#utility.yul\":4107:4109   */\n      0x20\n        /* \"contracts/MultiCallTest.sol\":1043:1071  require(success,\"tx failed\") */\n      0x04\n      dup3\n      add\n        /* \"#utility.yul\":4089:4110   */\n      mstore\n        /* \"#utility.yul\":4146:4147   */\n      0x09\n        /* \"#utility.yul\":4126:4144   */\n      0x24\n      dup3\n      add\n        /* \"#utility.yul\":4119:4148   */\n      mstore\n      shl(0xba, 0x1d1e0819985a5b1959)\n        /* \"#utility.yul\":4164:4182   */\n      0x44\n      dup3\n      add\n        /* \"#utility.yul\":4157:4196   */\n      mstore\n        /* \"#utility.yul\":4213:4231   */\n      0x64\n      add\n        /* \"contracts/MultiCallTest.sol\":1043:1071  require(success,\"tx failed\") */\n      tag_12\n        /* \"#utility.yul\":3905:4237   */\n      jump\n        /* \"contracts/MultiCallTest.sol\":1043:1071  require(success,\"tx failed\") */\n    tag_36:\n        /* \"contracts/MultiCallTest.sol\":1097:1103  result */\n      dup1\n        /* \"contracts/MultiCallTest.sol\":1086:1093  results */\n      dup5\n        /* \"contracts/MultiCallTest.sol\":1094:1095  i */\n      dup5\n        /* \"contracts/MultiCallTest.sol\":1086:1096  results[i] */\n      dup2\n      mload\n      dup2\n      lt\n      tag_40\n      jumpi\n      tag_40\n      tag_24\n      jump\t// in\n    tag_40:\n      0x20\n      swap1\n      dup2\n      mul\n      swap2\n      swap1\n      swap2\n      add\n      add\n        /* \"contracts/MultiCallTest.sol\":1086:1103  results[i]=result */\n      mstore\n      pop\n      pop\n        /* \"contracts/MultiCallTest.sol\":943:946  i++ */\n      0x01\n      add\n        /* \"contracts/MultiCallTest.sol\":914:1115  for(uint i;i< targets.length;i++){... */\n      jump(tag_19)\n    tag_20:\n      pop\n        /* \"contracts/MultiCallTest.sol\":1132:1139  results */\n      swap6\n        /* \"contracts/MultiCallTest.sol\":646:1147  function multiCall(address[] calldata targets,bytes[] calldata data)... */\n      swap5\n      pop\n      pop\n      pop\n      pop\n      pop\n      jump\t// out\n        /* \"#utility.yul\":14:381   */\n    tag_41:\n        /* \"#utility.yul\":77:85   */\n      0x00\n        /* \"#utility.yul\":87:93   */\n      0x00\n        /* \"#utility.yul\":141:144   */\n      dup4\n        /* \"#utility.yul\":134:138   */\n      0x1f\n        /* \"#utility.yul\":126:132   */\n      dup5\n        /* \"#utility.yul\":122:139   */\n      add\n        /* \"#utility.yul\":118:145   */\n      slt\n        /* \"#utility.yul\":108:163   */\n      tag_44\n      jumpi\n        /* \"#utility.yul\":159:160   */\n      0x00\n        /* \"#utility.yul\":156:157   */\n      0x00\n        /* \"#utility.yul\":149:161   */\n      revert\n        /* \"#utility.yul\":108:163   */\n    tag_44:\n      pop\n        /* \"#utility.yul\":182:202   */\n      dup2\n      calldataload\n        /* \"#utility.yul\":225:243   */\n      0xffffffffffffffff\n        /* \"#utility.yul\":214:244   */\n      dup2\n      gt\n        /* \"#utility.yul\":211:261   */\n      iszero\n      tag_45\n      jumpi\n        /* \"#utility.yul\":257:258   */\n      0x00\n        /* \"#utility.yul\":254:255   */\n      0x00\n        /* \"#utility.yul\":247:259   */\n      revert\n        /* \"#utility.yul\":211:261   */\n    tag_45:\n        /* \"#utility.yul\":294:298   */\n      0x20\n        /* \"#utility.yul\":286:292   */\n      dup4\n        /* \"#utility.yul\":282:299   */\n      add\n        /* \"#utility.yul\":270:299   */\n      swap2\n      pop\n        /* \"#utility.yul\":354:357   */\n      dup4\n        /* \"#utility.yul\":347:351   */\n      0x20\n        /* \"#utility.yul\":337:343   */\n      dup3\n        /* \"#utility.yul\":334:335   */\n      0x05\n        /* \"#utility.yul\":330:344   */\n      shl\n        /* \"#utility.yul\":322:328   */\n      dup6\n        /* \"#utility.yul\":318:345   */\n      add\n        /* \"#utility.yul\":314:352   */\n      add\n        /* \"#utility.yul\":311:358   */\n      gt\n        /* \"#utility.yul\":308:375   */\n      iszero\n      tag_46\n      jumpi\n        /* \"#utility.yul\":371:372   */\n      0x00\n        /* \"#utility.yul\":368:369   */\n      0x00\n        /* \"#utility.yul\":361:373   */\n      revert\n        /* \"#utility.yul\":308:375   */\n    tag_46:\n        /* \"#utility.yul\":14:381   */\n      swap3\n      pop\n      swap3\n      swap1\n      pop\n      jump\t// out\n        /* \"#utility.yul\":386:1165   */\n    tag_6:\n        /* \"#utility.yul\":519:525   */\n      0x00\n        /* \"#utility.yul\":527:533   */\n      0x00\n        /* \"#utility.yul\":535:541   */\n      0x00\n        /* \"#utility.yul\":543:549   */\n      0x00\n        /* \"#utility.yul\":596:598   */\n      0x40\n        /* \"#utility.yul\":584:593   */\n      dup6\n        /* \"#utility.yul\":575:582   */\n      dup8\n        /* \"#utility.yul\":571:594   */\n      sub\n        /* \"#utility.yul\":567:599   */\n      slt\n        /* \"#utility.yul\":564:616   */\n      iszero\n      tag_48\n      jumpi\n        /* \"#utility.yul\":612:613   */\n      0x00\n        /* \"#utility.yul\":609:610   */\n      0x00\n        /* \"#utility.yul\":602:614   */\n      revert\n        /* \"#utility.yul\":564:616   */\n    tag_48:\n        /* \"#utility.yul\":652:661   */\n      dup5\n        /* \"#utility.yul\":639:662   */\n      calldataload\n        /* \"#utility.yul\":685:703   */\n      0xffffffffffffffff\n        /* \"#utility.yul\":677:683   */\n      dup2\n        /* \"#utility.yul\":674:704   */\n      gt\n        /* \"#utility.yul\":671:721   */\n      iszero\n      tag_49\n      jumpi\n        /* \"#utility.yul\":717:718   */\n      0x00\n        /* \"#utility.yul\":714:715   */\n      0x00\n        /* \"#utility.yul\":707:719   */\n      revert\n        /* \"#utility.yul\":671:721   */\n    tag_49:\n        /* \"#utility.yul\":756:826   */\n      tag_50\n        /* \"#utility.yul\":818:825   */\n      dup8\n        /* \"#utility.yul\":809:815   */\n      dup3\n        /* \"#utility.yul\":798:807   */\n      dup9\n        /* \"#utility.yul\":794:816   */\n      add\n        /* \"#utility.yul\":756:826   */\n      tag_41\n      jump\t// in\n    tag_50:\n        /* \"#utility.yul\":845:853   */\n      swap1\n      swap6\n      pop\n        /* \"#utility.yul\":730:826   */\n      swap4\n      pop\n      pop\n        /* \"#utility.yul\":933:935   */\n      0x20\n        /* \"#utility.yul\":918:936   */\n      dup6\n      add\n        /* \"#utility.yul\":905:937   */\n      calldataload\n        /* \"#utility.yul\":962:980   */\n      0xffffffffffffffff\n        /* \"#utility.yul\":949:981   */\n      dup2\n      gt\n        /* \"#utility.yul\":946:998   */\n      iszero\n      tag_51\n      jumpi\n        /* \"#utility.yul\":994:995   */\n      0x00\n        /* \"#utility.yul\":991:992   */\n      0x00\n        /* \"#utility.yul\":984:996   */\n      revert\n        /* \"#utility.yul\":946:998   */\n    tag_51:\n        /* \"#utility.yul\":1033:1105   */\n      tag_52\n        /* \"#utility.yul\":1097:1104   */\n      dup8\n        /* \"#utility.yul\":1086:1094   */\n      dup3\n        /* \"#utility.yul\":1075:1084   */\n      dup9\n        /* \"#utility.yul\":1071:1095   */\n      add\n        /* \"#utility.yul\":1033:1105   */\n      tag_41\n      jump\t// in\n    tag_52:\n        /* \"#utility.yul\":386:1165   */\n      swap6\n      swap9\n      swap5\n      swap8\n      pop\n        /* \"#utility.yul\":1124:1132   */\n      swap6\n      pop\n      pop\n      pop\n      pop\n        /* \"#utility.yul\":386:1165   */\n      jump\t// out\n        /* \"#utility.yul\":1170:2186   */\n    tag_9:\n        /* \"#utility.yul\":1330:1334   */\n      0x00\n        /* \"#utility.yul\":1378:1380   */\n      0x20\n        /* \"#utility.yul\":1367:1376   */\n      dup3\n        /* \"#utility.yul\":1363:1381   */\n      add\n        /* \"#utility.yul\":1408:1410   */\n      0x20\n        /* \"#utility.yul\":1397:1406   */\n      dup4\n        /* \"#utility.yul\":1390:1411   */\n      mstore\n        /* \"#utility.yul\":1431:1437   */\n      dup1\n        /* \"#utility.yul\":1466:1472   */\n      dup5\n        /* \"#utility.yul\":1460:1473   */\n      mload\n        /* \"#utility.yul\":1497:1503   */\n      dup1\n        /* \"#utility.yul\":1489:1495   */\n      dup4\n        /* \"#utility.yul\":1482:1504   */\n      mstore\n        /* \"#utility.yul\":1535:1537   */\n      0x40\n        /* \"#utility.yul\":1524:1533   */\n      dup6\n        /* \"#utility.yul\":1520:1538   */\n      add\n        /* \"#utility.yul\":1513:1538   */\n      swap2\n      pop\n        /* \"#utility.yul\":1597:1599   */\n      0x40\n        /* \"#utility.yul\":1587:1593   */\n      dup2\n        /* \"#utility.yul\":1584:1585   */\n      0x05\n        /* \"#utility.yul\":1580:1594   */\n      shl\n        /* \"#utility.yul\":1569:1578   */\n      dup7\n        /* \"#utility.yul\":1565:1595   */\n      add\n        /* \"#utility.yul\":1561:1600   */\n      add\n        /* \"#utility.yul\":1547:1600   */\n      swap3\n      pop\n        /* \"#utility.yul\":1635:1637   */\n      0x20\n        /* \"#utility.yul\":1627:1633   */\n      dup7\n        /* \"#utility.yul\":1623:1638   */\n      add\n        /* \"#utility.yul\":1656:1657   */\n      0x00\n        /* \"#utility.yul\":1666:2157   */\n    tag_54:\n        /* \"#utility.yul\":1680:1686   */\n      dup3\n        /* \"#utility.yul\":1677:1678   */\n      dup2\n        /* \"#utility.yul\":1674:1687   */\n      lt\n        /* \"#utility.yul\":1666:2157   */\n      iszero\n      tag_56\n      jumpi\n        /* \"#utility.yul\":1773:1775   */\n      0x3f\n        /* \"#utility.yul\":1769:1776   */\n      not\n        /* \"#utility.yul\":1757:1766   */\n      dup8\n        /* \"#utility.yul\":1749:1755   */\n      dup7\n        /* \"#utility.yul\":1745:1767   */\n      sub\n        /* \"#utility.yul\":1741:1777   */\n      add\n        /* \"#utility.yul\":1736:1739   */\n      dup5\n        /* \"#utility.yul\":1729:1778   */\n      mstore\n        /* \"#utility.yul\":1807:1813   */\n      dup2\n        /* \"#utility.yul\":1801:1814   */\n      mload\n        /* \"#utility.yul\":1849:1851   */\n      dup1\n        /* \"#utility.yul\":1843:1852   */\n      mload\n        /* \"#utility.yul\":1880:1888   */\n      dup1\n        /* \"#utility.yul\":1872:1878   */\n      dup8\n        /* \"#utility.yul\":1865:1889   */\n      mstore\n        /* \"#utility.yul\":1938:1946   */\n      dup1\n        /* \"#utility.yul\":1933:1935   */\n      0x20\n        /* \"#utility.yul\":1929:1931   */\n      dup4\n        /* \"#utility.yul\":1925:1936   */\n      add\n        /* \"#utility.yul\":1920:1922   */\n      0x20\n        /* \"#utility.yul\":1912:1918   */\n      dup10\n        /* \"#utility.yul\":1908:1923   */\n      add\n        /* \"#utility.yul\":1902:1947   */\n      mcopy\n        /* \"#utility.yul\":1999:2000   */\n      0x00\n        /* \"#utility.yul\":1994:1996   */\n      0x20\n        /* \"#utility.yul\":1983:1991   */\n      dup3\n        /* \"#utility.yul\":1975:1981   */\n      dup10\n        /* \"#utility.yul\":1971:1992   */\n      add\n        /* \"#utility.yul\":1967:1997   */\n      add\n        /* \"#utility.yul\":1960:2001   */\n      mstore\n        /* \"#utility.yul\":2074:2076   */\n      0x20\n        /* \"#utility.yul\":2067:2069   */\n      0x1f\n        /* \"#utility.yul\":2063:2070   */\n      not\n        /* \"#utility.yul\":2058:2060   */\n      0x1f\n        /* \"#utility.yul\":2048:2056   */\n      dup4\n        /* \"#utility.yul\":2044:2061   */\n      add\n        /* \"#utility.yul\":2040:2071   */\n      and\n        /* \"#utility.yul\":2032:2038   */\n      dup9\n        /* \"#utility.yul\":2028:2072   */\n      add\n        /* \"#utility.yul\":2024:2077   */\n      add\n        /* \"#utility.yul\":2014:2077   */\n      swap7\n      pop\n      pop\n      pop\n        /* \"#utility.yul\":2112:2114   */\n      0x20\n        /* \"#utility.yul\":2104:2110   */\n      dup3\n        /* \"#utility.yul\":2100:2115   */\n      add\n        /* \"#utility.yul\":2090:2115   */\n      swap2\n      pop\n        /* \"#utility.yul\":2144:2146   */\n      0x20\n        /* \"#utility.yul\":2139:2142   */\n      dup5\n        /* \"#utility.yul\":2135:2147   */\n      add\n        /* \"#utility.yul\":2128:2147   */\n      swap4\n      pop\n        /* \"#utility.yul\":1702:1703   */\n      0x01\n        /* \"#utility.yul\":1699:1700   */\n      dup2\n        /* \"#utility.yul\":1695:1704   */\n      add\n        /* \"#utility.yul\":1690:1704   */\n      swap1\n      pop\n        /* \"#utility.yul\":1666:2157   */\n      jump(tag_54)\n    tag_56:\n      pop\n        /* \"#utility.yul\":2174:2180   */\n      swap3\n      swap7\n        /* \"#utility.yul\":1170:2186   */\n      swap6\n      pop\n      pop\n      pop\n      pop\n      pop\n      pop\n      jump\t// out\n        /* \"#utility.yul\":2548:2675   */\n    tag_16:\n        /* \"#utility.yul\":2609:2619   */\n      0x4e487b71\n        /* \"#utility.yul\":2604:2607   */\n      0xe0\n        /* \"#utility.yul\":2600:2620   */\n      shl\n        /* \"#utility.yul\":2597:2598   */\n      0x00\n        /* \"#utility.yul\":2590:2621   */\n      mstore\n        /* \"#utility.yul\":2640:2644   */\n      0x41\n        /* \"#utility.yul\":2637:2638   */\n      0x04\n        /* \"#utility.yul\":2630:2645   */\n      mstore\n        /* \"#utility.yul\":2664:2668   */\n      0x24\n        /* \"#utility.yul\":2661:2662   */\n      0x00\n        /* \"#utility.yul\":2654:2669   */\n      revert\n        /* \"#utility.yul\":2680:2807   */\n    tag_24:\n        /* \"#utility.yul\":2741:2751   */\n      0x4e487b71\n        /* \"#utility.yul\":2736:2739   */\n      0xe0\n        /* \"#utility.yul\":2732:2752   */\n      shl\n        /* \"#utility.yul\":2729:2730   */\n      0x00\n        /* \"#utility.yul\":2722:2753   */\n      mstore\n        /* \"#utility.yul\":2772:2776   */\n      0x32\n        /* \"#utility.yul\":2769:2770   */\n      0x04\n        /* \"#utility.yul\":2762:2777   */\n      mstore\n        /* \"#utility.yul\":2796:2800   */\n      0x24\n        /* \"#utility.yul\":2793:2794   */\n      0x00\n        /* \"#utility.yul\":2786:2801   */\n      revert\n        /* \"#utility.yul\":2812:3098   */\n    tag_26:\n        /* \"#utility.yul\":2871:2877   */\n      0x00\n        /* \"#utility.yul\":2924:2926   */\n      0x20\n        /* \"#utility.yul\":2912:2921   */\n      dup3\n        /* \"#utility.yul\":2903:2910   */\n      dup5\n        /* \"#utility.yul\":2899:2922   */\n      sub\n        /* \"#utility.yul\":2895:2927   */\n      slt\n        /* \"#utility.yul\":2892:2944   */\n      iszero\n      tag_61\n      jumpi\n        /* \"#utility.yul\":2940:2941   */\n      0x00\n        /* \"#utility.yul\":2937:2938   */\n      0x00\n        /* \"#utility.yul\":2930:2942   */\n      revert\n        /* \"#utility.yul\":2892:2944   */\n    tag_61:\n        /* \"#utility.yul\":2966:2989   */\n      dup2\n      calldataload\n      sub(shl(0xa0, 0x01), 0x01)\n        /* \"#utility.yul\":3018:3049   */\n      dup2\n      and\n        /* \"#utility.yul\":3008:3050   */\n      dup2\n      eq\n        /* \"#utility.yul\":2998:3068   */\n      tag_62\n      jumpi\n        /* \"#utility.yul\":3064:3065   */\n      0x00\n        /* \"#utility.yul\":3061:3062   */\n      0x00\n        /* \"#utility.yul\":3054:3066   */\n      revert\n        /* \"#utility.yul\":2998:3068   */\n    tag_62:\n        /* \"#utility.yul\":3087:3092   */\n      swap4\n        /* \"#utility.yul\":2812:3098   */\n      swap3\n      pop\n      pop\n      pop\n      jump\t// out\n        /* \"#utility.yul\":3103:3624   */\n    tag_30:\n        /* \"#utility.yul\":3180:3184   */\n      0x00\n        /* \"#utility.yul\":3186:3192   */\n      0x00\n        /* \"#utility.yul\":3246:3257   */\n      dup4\n        /* \"#utility.yul\":3233:3258   */\n      calldataload\n        /* \"#utility.yul\":3340:3342   */\n      0x1e\n        /* \"#utility.yul\":3336:3343   */\n      not\n        /* \"#utility.yul\":3325:3333   */\n      dup5\n        /* \"#utility.yul\":3309:3323   */\n      calldatasize\n        /* \"#utility.yul\":3305:3334   */\n      sub\n        /* \"#utility.yul\":3301:3344   */\n      add\n        /* \"#utility.yul\":3281:3299   */\n      dup2\n        /* \"#utility.yul\":3277:3345   */\n      slt\n        /* \"#utility.yul\":3267:3363   */\n      tag_64\n      jumpi\n        /* \"#utility.yul\":3359:3360   */\n      0x00\n        /* \"#utility.yul\":3356:3357   */\n      0x00\n        /* \"#utility.yul\":3349:3361   */\n      revert\n        /* \"#utility.yul\":3267:3363   */\n    tag_64:\n        /* \"#utility.yul\":3386:3419   */\n      dup4\n      add\n        /* \"#utility.yul\":3438:3458   */\n      dup1\n      calldataload\n      swap2\n      pop\n        /* \"#utility.yul\":3481:3499   */\n      0xffffffffffffffff\n        /* \"#utility.yul\":3470:3500   */\n      dup3\n      gt\n        /* \"#utility.yul\":3467:3517   */\n      iszero\n      tag_65\n      jumpi\n        /* \"#utility.yul\":3513:3514   */\n      0x00\n        /* \"#utility.yul\":3510:3511   */\n      0x00\n        /* \"#utility.yul\":3503:3515   */\n      revert\n        /* \"#utility.yul\":3467:3517   */\n    tag_65:\n        /* \"#utility.yul\":3546:3550   */\n      0x20\n        /* \"#utility.yul\":3534:3551   */\n      add\n      swap2\n      pop\n        /* \"#utility.yul\":3577:3591   */\n      calldatasize\n        /* \"#utility.yul\":3573:3600   */\n      dup2\n      swap1\n      sub\n        /* \"#utility.yul\":3563:3601   */\n      dup3\n      sgt\n        /* \"#utility.yul\":3560:3618   */\n      iszero\n      tag_46\n      jumpi\n        /* \"#utility.yul\":3614:3615   */\n      0x00\n        /* \"#utility.yul\":3611:3612   */\n      0x00\n        /* \"#utility.yul\":3604:3616   */\n      revert\n        /* \"#utility.yul\":3629:3900   */\n    tag_32:\n        /* \"#utility.yul\":3812:3818   */\n      dup2\n        /* \"#utility.yul\":3804:3810   */\n      dup4\n        /* \"#utility.yul\":3799:3802   */\n      dup3\n        /* \"#utility.yul\":3786:3819   */\n      calldatacopy\n        /* \"#utility.yul\":3768:3771   */\n      0x00\n        /* \"#utility.yul\":3838:3854   */\n      swap2\n      add\n        /* \"#utility.yul\":3863:3876   */\n      swap1\n      dup2\n      mstore\n        /* \"#utility.yul\":3838:3854   */\n      swap2\n        /* \"#utility.yul\":3629:3900   */\n      swap1\n      pop\n      jump\t// out\n\n    auxdata: 0xa2646970667358221220a6ad24204780b764bd687e82ee596cc2acc9b5ec29c210da59bc1a18b373bba364736f6c634300081d0033\n}\n",
				"bytecode": {
					"linkReferences": {},
					"object": "6080604052348015600e575f5ffd5b5061042c8061001c5f395ff3fe608060405234801561000f575f5ffd5b5060043610610029575f3560e01c8063da5b4ffd1461002d575b5f5ffd5b61004061003b36600461025f565b610056565b60405161004d91906102cb565b60405180910390f35b60608382146100ac5760405162461bcd60e51b815260206004820152601c60248201527f746172676574206c656e67746820213d2064617461206c656e6774680000000060448201526064015b60405180910390fd5b5f8267ffffffffffffffff8111156100c6576100c661034f565b6040519080825280602002602001820160405280156100f957816020015b60608152602001906001900390816100e45790505b5090505f5b8581101561020d575f5f88888481811061011a5761011a610363565b905060200201602081019061012f9190610377565b6001600160a01b031687878581811061014a5761014a610363565b905060200281019061015c91906103a4565b60405161016a9291906103e7565b5f60405180830381855afa9150503d805f81146101a2576040519150601f19603f3d011682016040523d82523d5f602084013e6101a7565b606091505b5091509150816101e55760405162461bcd60e51b81526020600482015260096024820152681d1e0819985a5b195960ba1b60448201526064016100a3565b808484815181106101f8576101f8610363565b602090810291909101015250506001016100fe565b5095945050505050565b5f5f83601f840112610227575f5ffd5b50813567ffffffffffffffff81111561023e575f5ffd5b6020830191508360208260051b8501011115610258575f5ffd5b9250929050565b5f5f5f5f60408587031215610272575f5ffd5b843567ffffffffffffffff811115610288575f5ffd5b61029487828801610217565b909550935050602085013567ffffffffffffffff8111156102b3575f5ffd5b6102bf87828801610217565b95989497509550505050565b5f602082016020835280845180835260408501915060408160051b8601019250602086015f5b8281101561034357603f19878603018452815180518087528060208301602089015e5f602082890101526020601f19601f830116880101965050506020820191506020840193506001810190506102f1565b50929695505050505050565b634e487b7160e01b5f52604160045260245ffd5b634e487b7160e01b5f52603260045260245ffd5b5f60208284031215610387575f5ffd5b81356001600160a01b038116811461039d575f5ffd5b9392505050565b5f5f8335601e198436030181126103b9575f5ffd5b83018035915067ffffffffffffffff8211156103d3575f5ffd5b602001915036819003821315610258575f5ffd5b818382375f910190815291905056fea2646970667358221220a6ad24204780b764bd687e82ee596cc2acc9b5ec29c210da59bc1a18b373bba364736f6c634300081d0033",
					"opcodes": "PUSH1 0x80 PUSH1 0x40 MSTORE CALLVALUE DUP1 ISZERO PUSH1 0xE JUMPI PUSH0 PUSH0 REVERT JUMPDEST POP PUSH2 0x42C DUP1 PUSH2 0x1C PUSH0 CODECOPY PUSH0 RETURN INVALID PUSH1 0x80 PUSH1 0x40 MSTORE CALLVALUE DUP1 ISZERO PUSH2 0xF JUMPI PUSH0 PUSH0 REVERT JUMPDEST POP PUSH1 0x4 CALLDATASIZE LT PUSH2 0x29 JUMPI PUSH0 CALLDATALOAD PUSH1 0xE0 SHR DUP1 PUSH4 0xDA5B4FFD EQ PUSH2 0x2D JUMPI JUMPDEST PUSH0 PUSH0 REVERT JUMPDEST PUSH2 0x40 PUSH2 0x3B CALLDATASIZE PUSH1 0x4 PUSH2 0x25F JUMP JUMPDEST PUSH2 0x56 JUMP JUMPDEST PUSH1 0x40 MLOAD PUSH2 0x4D SWAP2 SWAP1 PUSH2 0x2CB JUMP JUMPDEST PUSH1 0x40 MLOAD DUP1 SWAP2 SUB SWAP1 RETURN JUMPDEST PUSH1 0x60 DUP4 DUP3 EQ PUSH2 0xAC JUMPI PUSH1 0x40 MLOAD PUSH3 0x461BCD PUSH1 0xE5 SHL DUP2 MSTORE PUSH1 0x20 PUSH1 0x4 DUP3 ADD MSTORE PUSH1 0x1C PUSH1 0x24 DUP3 ADD MSTORE PUSH32 0x746172676574206C656E67746820213D2064617461206C656E67746800000000 PUSH1 0x44 DUP3 ADD MSTORE PUSH1 0x64 ADD JUMPDEST PUSH1 0x40 MLOAD DUP1 SWAP2 SUB SWAP1 REVERT JUMPDEST PUSH0 DUP3 PUSH8 0xFFFFFFFFFFFFFFFF DUP2 GT ISZERO PUSH2 0xC6 JUMPI PUSH2 0xC6 PUSH2 0x34F JUMP JUMPDEST PUSH1 0x40 MLOAD SWAP1 DUP1 DUP3 MSTORE DUP1 PUSH1 0x20 MUL PUSH1 0x20 ADD DUP3 ADD PUSH1 0x40 MSTORE DUP1 ISZERO PUSH2 0xF9 JUMPI DUP2 PUSH1 0x20 ADD JUMPDEST PUSH1 0x60 DUP2 MSTORE PUSH1 0x20 ADD SWAP1 PUSH1 0x1 SWAP1 SUB SWAP1 DUP2 PUSH2 0xE4 JUMPI SWAP1 POP JUMPDEST POP SWAP1 POP PUSH0 JUMPDEST DUP6 DUP2 LT ISZERO PUSH2 0x20D JUMPI PUSH0 PUSH0 DUP9 DUP9 DUP5 DUP2 DUP2 LT PUSH2 0x11A JUMPI PUSH2 0x11A PUSH2 0x363 JUMP JUMPDEST SWAP1 POP PUSH1 0x20 MUL ADD PUSH1 0x20 DUP2 ADD SWAP1 PUSH2 0x12F SWAP2 SWAP1 PUSH2 0x377 JUMP JUMPDEST PUSH1 0x1 PUSH1 0x1 PUSH1 0xA0 SHL SUB AND DUP8 DUP8 DUP6 DUP2 DUP2 LT PUSH2 0x14A JUMPI PUSH2 0x14A PUSH2 0x363 JUMP JUMPDEST SWAP1 POP PUSH1 0x20 MUL DUP2 ADD SWAP1 PUSH2 0x15C SWAP2 SWAP1 PUSH2 0x3A4 JUMP JUMPDEST PUSH1 0x40 MLOAD PUSH2 0x16A SWAP3 SWAP2 SWAP1 PUSH2 0x3E7 JUMP JUMPDEST PUSH0 PUSH1 0x40 MLOAD DUP1 DUP4 SUB DUP2 DUP6 GAS STATICCALL SWAP2 POP POP RETURNDATASIZE DUP1 PUSH0 DUP2 EQ PUSH2 0x1A2 JUMPI PUSH1 0x40 MLOAD SWAP2 POP PUSH1 0x1F NOT PUSH1 0x3F RETURNDATASIZE ADD AND DUP3 ADD PUSH1 0x40 MSTORE RETURNDATASIZE DUP3 MSTORE RETURNDATASIZE PUSH0 PUSH1 0x20 DUP5 ADD RETURNDATACOPY PUSH2 0x1A7 JUMP JUMPDEST PUSH1 0x60 SWAP2 POP JUMPDEST POP SWAP2 POP SWAP2 POP DUP2 PUSH2 0x1E5 JUMPI PUSH1 0x40 MLOAD PUSH3 0x461BCD PUSH1 0xE5 SHL DUP2 MSTORE PUSH1 0x20 PUSH1 0x4 DUP3 ADD MSTORE PUSH1 0x9 PUSH1 0x24 DUP3 ADD MSTORE PUSH9 0x1D1E0819985A5B1959 PUSH1 0xBA SHL PUSH1 0x44 DUP3 ADD MSTORE PUSH1 0x64 ADD PUSH2 0xA3 JUMP JUMPDEST DUP1 DUP5 DUP5 DUP2 MLOAD DUP2 LT PUSH2 0x1F8 JUMPI PUSH2 0x1F8 PUSH2 0x363 JUMP JUMPDEST PUSH1 0x20 SWAP1 DUP2 MUL SWAP2 SWAP1 SWAP2 ADD ADD MSTORE POP POP PUSH1 0x1 ADD PUSH2 0xFE JUMP JUMPDEST POP SWAP6 SWAP5 POP POP POP POP POP JUMP JUMPDEST PUSH0 PUSH0 DUP4 PUSH1 0x1F DUP5 ADD SLT PUSH2 0x227 JUMPI PUSH0 PUSH0 REVERT JUMPDEST POP DUP2 CALLDATALOAD PUSH8 0xFFFFFFFFFFFFFFFF DUP2 GT ISZERO PUSH2 0x23E JUMPI PUSH0 PUSH0 REVERT JUMPDEST PUSH1 0x20 DUP4 ADD SWAP2 POP DUP4 PUSH1 0x20 DUP3 PUSH1 0x5 SHL DUP6 ADD ADD GT ISZERO PUSH2 0x258 JUMPI PUSH0 PUSH0 REVERT JUMPDEST SWAP3 POP SWAP3 SWAP1 POP JUMP JUMPDEST PUSH0 PUSH0 PUSH0 PUSH0 PUSH1 0x40 DUP6 DUP8 SUB SLT ISZERO PUSH2 0x272 JUMPI PUSH0 PUSH0 REVERT JUMPDEST DUP5 CALLDATALOAD PUSH8 0xFFFFFFFFFFFFFFFF DUP2 GT ISZERO PUSH2 0x288 JUMPI PUSH0 PUSH0 REVERT JUMPDEST PUSH2 0x294 DUP8 DUP3 DUP9 ADD PUSH2 0x217 JUMP JUMPDEST SWAP1 SWAP6 POP SWAP4 POP POP PUSH1 0x20 DUP6 ADD CALLDATALOAD PUSH8 0xFFFFFFFFFFFFFFFF DUP2 GT ISZERO PUSH2 0x2B3 JUMPI PUSH0 PUSH0 REVERT JUMPDEST PUSH2 0x2BF DUP8 DUP3 DUP9 ADD PUSH2 0x217 JUMP JUMPDEST SWAP6 SWAP9 SWAP5 SWAP8 POP SWAP6 POP POP POP POP JUMP JUMPDEST PUSH0 PUSH1 0x20 DUP3 ADD PUSH1 0x20 DUP4 MSTORE DUP1 DUP5 MLOAD DUP1 DUP4 MSTORE PUSH1 0x40 DUP6 ADD SWAP2 POP PUSH1 0x40 DUP2 PUSH1 0x5 SHL DUP7 ADD ADD SWAP3 POP PUSH1 0x20 DUP7 ADD PUSH0 JUMPDEST DUP3 DUP2 LT ISZERO PUSH2 0x343 JUMPI PUSH1 0x3F NOT DUP8 DUP7 SUB ADD DUP5 MSTORE DUP2 MLOAD DUP1 MLOAD DUP1 DUP8 MSTORE DUP1 PUSH1 0x20 DUP4 ADD PUSH1 0x20 DUP10 ADD MCOPY PUSH0 PUSH1 0x20 DUP3 DUP10 ADD ADD MSTORE PUSH1 0x20 PUSH1 0x1F NOT PUSH1 0x1F DUP4 ADD AND DUP9 ADD ADD SWAP7 POP POP POP PUSH1 0x20 DUP3 ADD SWAP2 POP PUSH1 0x20 DUP5 ADD SWAP4 POP PUSH1 0x1 DUP2 ADD SWAP1 POP PUSH2 0x2F1 JUMP JUMPDEST POP SWAP3 SWAP7 SWAP6 POP POP POP POP POP POP JUMP JUMPDEST PUSH4 0x4E487B71 PUSH1 0xE0 SHL PUSH0 MSTORE PUSH1 0x41 PUSH1 0x4 MSTORE PUSH1 0x24 PUSH0 REVERT JUMPDEST PUSH4 0x4E487B71 PUSH1 0xE0 SHL PUSH0 MSTORE PUSH1 0x32 PUSH1 0x4 MSTORE PUSH1 0x24 PUSH0 REVERT JUMPDEST PUSH0 PUSH1 0x20 DUP3 DUP5 SUB SLT ISZERO PUSH2 0x387 JUMPI PUSH0 PUSH0 REVERT JUMPDEST DUP2 CALLDATALOAD PUSH1 0x1 PUSH1 0x1 PUSH1 0xA0 SHL SUB DUP2 AND DUP2 EQ PUSH2 0x39D JUMPI PUSH0 PUSH0 REVERT JUMPDEST SWAP4 SWAP3 POP POP POP JUMP JUMPDEST PUSH0 PUSH0 DUP4 CALLDATALOAD PUSH1 0x1E NOT DUP5 CALLDATASIZE SUB ADD DUP2 SLT PUSH2 0x3B9 JUMPI PUSH0 PUSH0 REVERT JUMPDEST DUP4 ADD DUP1 CALLDATALOAD SWAP2 POP PUSH8 0xFFFFFFFFFFFFFFFF DUP3 GT ISZERO PUSH2 0x3D3 JUMPI PUSH0 PUSH0 REVERT JUMPDEST PUSH1 0x20 ADD SWAP2 POP CALLDATASIZE DUP2 SWAP1 SUB DUP3 SGT ISZERO PUSH2 0x258 JUMPI PUSH0 PUSH0 REVERT JUMPDEST DUP2 DUP4 DUP3 CALLDATACOPY PUSH0 SWAP2 ADD SWAP1 DUP2 MSTORE SWAP2 SWAP1 POP JUMP INVALID LOG2 PUSH5 0x6970667358 0x22 SLT KECCAK256 0xA6 0xAD 0x24 KECCAK256 SELFBALANCE DUP1 0xB7 PUSH5 0xBD687E82EE MSIZE PUSH13 0xC2ACC9B5EC29C210DA59BC1A18 0xB3 PUSH20 0xBBA364736F6C634300081D003300000000000000 "
				},
				"gasEstimates": {
					"creation": {
						"codeDepositCost": "213600",
						"executionCost": "255",
						"totalCost": "213855"
					},
					"external": {
						"multiCall(address[],bytes[])": "infinite"
					}
				},
				"methodIdentifiers": {
					"multiCall(address[],bytes[])": "da5b4ffd"
				}
			},
			"storageLayout": {
				"storage": [],
				"types": null
			},
			"userdoc": {
				"kind": "user",
				"methods": {},
				"version": 1
			}
		}
	}
}