{
	"threefour/Vault.sol": {
		"Vault": {
			"abi": [
				{
					"inputs": [
						{
							"internalType": "address",
							"name": "_token",
							"type": "address"
						}
					],
					"stateMutability": "nonpayable",
					"type": "constructor"
				},
				{
					"inputs": [
						{
							"internalType": "address",
							"name": "",
							"type": "address"
						}
					],
					"name": "balanceOf",
					"outputs": [
						{
							"internalType": "uint256",
							"name": "",
							"type": "uint256"
						}
					],
					"stateMutability": "view",
					"type": "function"
				},
				{
					"inputs": [
						{
							"internalType": "uint256",
							"name": "_amount",
							"type": "uint256"
						}
					],
					"name": "deposit",
					"outputs": [],
					"stateMutability": "nonpayable",
					"type": "function"
				},
				{
					"inputs": [],
					"name": "token",
					"outputs": [
						{
							"internalType": "contract IERC20",
							"name": "",
							"type": "address"
						}
					],
					"stateMutability": "view",
					"type": "function"
				},
				{
					"inputs": [],
					"name": "totalSupply",
					"outputs": [
						{
							"internalType": "uint256",
							"name": "",
							"type": "uint256"
						}
					],
					"stateMutability": "view",
					"type": "function"
				},
				{
					"inputs": [
						{
							"internalType": "uint256",
							"name": "_shares",
							"type": "uint256"
						}
					],
					"name": "withdraw",
					"outputs": [],
					"stateMutability": "nonpayable",
					"type": "function"
				}
			],
			"devdoc": {
				"kind": "dev",
				"methods": {},
				"version": 1
			},
			"evm": {
				"assembly": "    /* \"threefour/Vault.sol\":61:1565  contract Vault {... */\n  mstore(0x40, 0xa0)\n    /* \"threefour/Vault.sol\":207:276  constructor(address _token) {... */\n  callvalue\n  dup1\n  iszero\n  tag_1\n  jumpi\n  0x00\n  dup1\n  revert\ntag_1:\n  pop\n  mload(0x40)\n  sub(codesize, bytecodeSize)\n  dup1\n  bytecodeSize\n  dup4\n  codecopy\n  dup2\n  add\n  0x40\n  dup2\n  swap1\n  mstore\n  tag_2\n  swap2\n  tag_3\n  jump\t// in\ntag_2:\n  sub(shl(0xa0, 0x01), 0x01)\n    /* \"threefour/Vault.sol\":246:268  token = IERC20(_token) */\n  and\n  0x80\n  mstore\n    /* \"threefour/Vault.sol\":61:1565  contract Vault {... */\n  jump(tag_7)\n    /* \"#utility.yul\":14:304   */\ntag_3:\n    /* \"#utility.yul\":84:90   */\n  0x00\n    /* \"#utility.yul\":137:139   */\n  0x20\n    /* \"#utility.yul\":125:134   */\n  dup3\n    /* \"#utility.yul\":116:123   */\n  dup5\n    /* \"#utility.yul\":112:135   */\n  sub\n    /* \"#utility.yul\":108:140   */\n  slt\n    /* \"#utility.yul\":105:157   */\n  iszero\n  tag_9\n  jumpi\n    /* \"#utility.yul\":153:154   */\n  0x00\n    /* \"#utility.yul\":150:151   */\n  dup1\n    /* \"#utility.yul\":143:155   */\n  revert\n    /* \"#utility.yul\":105:157   */\ntag_9:\n    /* \"#utility.yul\":179:195   */\n  dup2\n  mload\n  sub(shl(0xa0, 0x01), 0x01)\n    /* \"#utility.yul\":224:255   */\n  dup2\n  and\n    /* \"#utility.yul\":214:256   */\n  dup2\n  eq\n    /* \"#utility.yul\":204:274   */\n  tag_10\n  jumpi\n    /* \"#utility.yul\":270:271   */\n  0x00\n    /* \"#utility.yul\":267:268   */\n  dup1\n    /* \"#utility.yul\":260:272   */\n  revert\n    /* \"#utility.yul\":204:274   */\ntag_10:\n    /* \"#utility.yul\":293:298   */\n  swap4\n    /* \"#utility.yul\":14:304   */\n  swap3\n  pop\n  pop\n  pop\n  jump\t// out\ntag_7:\n    /* \"threefour/Vault.sol\":61:1565  contract Vault {... */\n  mload(0x80)\n  codecopy(0x00, dataOffset(sub_0), dataSize(sub_0))\n  0x00\n  assignImmutable(\"0x13600b294191fc92924bb3ce4b969c1e7e2bab8f4c93c3fc6d0a51733df3c060\")\n  return(0x00, dataSize(sub_0))\nstop\n\nsub_0: assembly {\n        /* \"threefour/Vault.sol\":61:1565  contract Vault {... */\n      mstore(0x40, 0x80)\n      callvalue\n      dup1\n      iszero\n      tag_1\n      jumpi\n      0x00\n      dup1\n      revert\n    tag_1:\n      pop\n      jumpi(tag_2, lt(calldatasize, 0x04))\n      shr(0xe0, calldataload(0x00))\n      dup1\n      0x18160ddd\n      eq\n      tag_3\n      jumpi\n      dup1\n      0x2e1a7d4d\n      eq\n      tag_4\n      jumpi\n      dup1\n      0x70a08231\n      eq\n      tag_5\n      jumpi\n      dup1\n      0xb6b55f25\n      eq\n      tag_6\n      jumpi\n      dup1\n      0xfc0c546a\n      eq\n      tag_7\n      jumpi\n    tag_2:\n      0x00\n      dup1\n      revert\n        /* \"threefour/Vault.sol\":121:147  uint256 public totalSupply */\n    tag_3:\n      tag_8\n      sload(0x00)\n      dup2\n      jump\n    tag_8:\n      mload(0x40)\n        /* \"#utility.yul\":160:185   */\n      swap1\n      dup2\n      mstore\n        /* \"#utility.yul\":148:150   */\n      0x20\n        /* \"#utility.yul\":133:151   */\n      add\n        /* \"threefour/Vault.sol\":121:147  uint256 public totalSupply */\n    tag_10:\n      mload(0x40)\n      dup1\n      swap2\n      sub\n      swap1\n      return\n        /* \"threefour/Vault.sol\":1127:1562  function withdraw(uint256 _shares) external {... */\n    tag_4:\n      tag_12\n      tag_13\n      calldatasize\n      0x04\n      tag_14\n      jump\t// in\n    tag_13:\n      tag_15\n      jump\t// in\n    tag_12:\n      stop\n        /* \"threefour/Vault.sol\":154:198  mapping(address => uint256) public balanceOf */\n    tag_5:\n      tag_8\n      tag_17\n      calldatasize\n      0x04\n      tag_18\n      jump\t// in\n    tag_17:\n      mstore(0x20, 0x01)\n      0x00\n      swap1\n      dup2\n      mstore\n      0x40\n      swap1\n      keccak256\n      sload\n      dup2\n      jump\n        /* \"threefour/Vault.sol\":564:1119  function deposit(uint256 _amount) external {... */\n    tag_6:\n      tag_12\n      tag_22\n      calldatasize\n      0x04\n      tag_14\n      jump\t// in\n    tag_22:\n      tag_23\n      jump\t// in\n        /* \"threefour/Vault.sol\":83:112  IERC20 public immutable token */\n    tag_7:\n      tag_24\n      immutable(\"0x13600b294191fc92924bb3ce4b969c1e7e2bab8f4c93c3fc6d0a51733df3c060\")\n      dup2\n      jump\n    tag_24:\n      mload(0x40)\n      sub(shl(0xa0, 0x01), 0x01)\n        /* \"#utility.yul\":850:882   */\n      swap1\n      swap2\n      and\n        /* \"#utility.yul\":832:883   */\n      dup2\n      mstore\n        /* \"#utility.yul\":820:822   */\n      0x20\n        /* \"#utility.yul\":805:823   */\n      add\n        /* \"threefour/Vault.sol\":83:112  IERC20 public immutable token */\n      tag_10\n        /* \"#utility.yul\":672:889   */\n      jump\n        /* \"threefour/Vault.sol\":1127:1562  function withdraw(uint256 _shares) external {... */\n    tag_15:\n        /* \"threefour/Vault.sol\":1386:1400  uint256 amount */\n      0x00\n        /* \"threefour/Vault.sol\":1461:1472  totalSupply */\n      dup1\n      sload\n        /* \"threefour/Vault.sol\":1427:1457  token.balanceOf(address(this)) */\n      mload(0x40)\n      shl(0xe0, 0x70a08231)\n      dup2\n      mstore\n        /* \"threefour/Vault.sol\":1451:1455  this */\n      address\n        /* \"threefour/Vault.sol\":1427:1457  token.balanceOf(address(this)) */\n      0x04\n      dup3\n      add\n        /* \"#utility.yul\":832:883   */\n      mstore\n        /* \"threefour/Vault.sol\":1427:1432  token */\n      immutable(\"0x13600b294191fc92924bb3ce4b969c1e7e2bab8f4c93c3fc6d0a51733df3c060\")\n      sub(shl(0xa0, 0x01), 0x01)\n        /* \"threefour/Vault.sol\":1427:1442  token.balanceOf */\n      and\n      swap1\n      0x70a08231\n      swap1\n        /* \"#utility.yul\":805:823   */\n      0x24\n      add\n        /* \"threefour/Vault.sol\":1427:1457  token.balanceOf(address(this)) */\n      0x20\n      mload(0x40)\n      dup1\n      dup4\n      sub\n      dup2\n      dup7\n      gas\n      staticcall\n      iszero\n      dup1\n      iszero\n      tag_32\n      jumpi\n      returndatasize\n      0x00\n      dup1\n      returndatacopy\n      revert(0x00, returndatasize)\n    tag_32:\n      pop\n      pop\n      pop\n      pop\n      mload(0x40)\n      returndatasize\n      not(0x1f)\n      0x1f\n      dup3\n      add\n      and\n      dup3\n      add\n      dup1\n      0x40\n      mstore\n      pop\n      dup2\n      add\n      swap1\n      tag_33\n      swap2\n      swap1\n      tag_34\n      jump\t// in\n    tag_33:\n        /* \"threefour/Vault.sol\":1417:1457  _shares * token.balanceOf(address(this)) */\n      tag_35\n      swap1\n        /* \"threefour/Vault.sol\":1417:1424  _shares */\n      dup5\n        /* \"threefour/Vault.sol\":1417:1457  _shares * token.balanceOf(address(this)) */\n      tag_36\n      jump\t// in\n    tag_35:\n        /* \"threefour/Vault.sol\":1416:1472  (_shares * token.balanceOf(address(this))) / totalSupply */\n      tag_37\n      swap2\n      swap1\n      tag_38\n      jump\t// in\n    tag_37:\n        /* \"threefour/Vault.sol\":1386:1472  uint256 amount =... */\n      swap1\n      pop\n        /* \"threefour/Vault.sol\":1483:1509  _burn(msg.sender, _shares) */\n      tag_39\n        /* \"threefour/Vault.sol\":1489:1499  msg.sender */\n      caller\n        /* \"threefour/Vault.sol\":1501:1508  _shares */\n      dup4\n        /* \"threefour/Vault.sol\":1483:1488  _burn */\n      tag_40\n        /* \"threefour/Vault.sol\":1483:1509  _burn(msg.sender, _shares) */\n      jump\t// in\n    tag_39:\n        /* \"threefour/Vault.sol\":1520:1554  token.transfer(msg.sender, amount) */\n      mload(0x40)\n      shl(0xe0, 0xa9059cbb)\n      dup2\n      mstore\n        /* \"threefour/Vault.sol\":1535:1545  msg.sender */\n      caller\n        /* \"threefour/Vault.sol\":1520:1554  token.transfer(msg.sender, amount) */\n      0x04\n      dup3\n      add\n        /* \"#utility.yul\":1992:2043   */\n      mstore\n        /* \"#utility.yul\":2059:2077   */\n      0x24\n      dup2\n      add\n        /* \"#utility.yul\":2052:2086   */\n      dup3\n      swap1\n      mstore\n        /* \"threefour/Vault.sol\":1520:1525  token */\n      immutable(\"0x13600b294191fc92924bb3ce4b969c1e7e2bab8f4c93c3fc6d0a51733df3c060\")\n      sub(shl(0xa0, 0x01), 0x01)\n        /* \"threefour/Vault.sol\":1520:1534  token.transfer */\n      and\n      swap1\n      0xa9059cbb\n      swap1\n        /* \"#utility.yul\":1965:1983   */\n      0x44\n      add\n        /* \"threefour/Vault.sol\":1520:1554  token.transfer(msg.sender, amount) */\n    tag_41:\n      0x20\n      mload(0x40)\n      dup1\n      dup4\n      sub\n      dup2\n      0x00\n      dup8\n      gas\n      call\n      iszero\n      dup1\n      iszero\n      tag_44\n      jumpi\n      returndatasize\n      0x00\n      dup1\n      returndatacopy\n      revert(0x00, returndatasize)\n    tag_44:\n      pop\n      pop\n      pop\n      pop\n      mload(0x40)\n      returndatasize\n      not(0x1f)\n      0x1f\n      dup3\n      add\n      and\n      dup3\n      add\n      dup1\n      0x40\n      mstore\n      pop\n      dup2\n      add\n      swap1\n      tag_45\n      swap2\n      swap1\n      tag_46\n      jump\t// in\n    tag_45:\n      pop\n        /* \"threefour/Vault.sol\":1171:1562  {... */\n      pop\n        /* \"threefour/Vault.sol\":1127:1562  function withdraw(uint256 _shares) external {... */\n      pop\n      jump\t// out\n        /* \"threefour/Vault.sol\":564:1119  function deposit(uint256 _amount) external {... */\n    tag_23:\n        /* \"threefour/Vault.sol\":821:835  uint256 shares */\n      0x00\n        /* \"threefour/Vault.sol\":850:861  totalSupply */\n      dup1\n      sload\n        /* \"threefour/Vault.sol\":865:866  0 */\n      0x00\n        /* \"threefour/Vault.sol\":850:866  totalSupply == 0 */\n      sub\n        /* \"threefour/Vault.sol\":846:1009  if (totalSupply == 0) {... */\n      tag_48\n      jumpi\n      pop\n        /* \"threefour/Vault.sol\":892:899  _amount */\n      dup1\n        /* \"threefour/Vault.sol\":846:1009  if (totalSupply == 0) {... */\n      jump(tag_49)\n    tag_48:\n        /* \"threefour/Vault.sol\":967:997  token.balanceOf(address(this)) */\n      mload(0x40)\n      shl(0xe0, 0x70a08231)\n      dup2\n      mstore\n        /* \"threefour/Vault.sol\":991:995  this */\n      address\n        /* \"threefour/Vault.sol\":967:997  token.balanceOf(address(this)) */\n      0x04\n      dup3\n      add\n        /* \"#utility.yul\":832:883   */\n      mstore\n        /* \"threefour/Vault.sol\":967:972  token */\n      immutable(\"0x13600b294191fc92924bb3ce4b969c1e7e2bab8f4c93c3fc6d0a51733df3c060\")\n      sub(shl(0xa0, 0x01), 0x01)\n        /* \"threefour/Vault.sol\":967:982  token.balanceOf */\n      and\n      swap1\n      0x70a08231\n      swap1\n        /* \"#utility.yul\":805:823   */\n      0x24\n      add\n        /* \"threefour/Vault.sol\":967:997  token.balanceOf(address(this)) */\n      0x20\n      mload(0x40)\n      dup1\n      dup4\n      sub\n      dup2\n      dup7\n      gas\n      staticcall\n      iszero\n      dup1\n      iszero\n      tag_52\n      jumpi\n      returndatasize\n      0x00\n      dup1\n      returndatacopy\n      revert(0x00, returndatasize)\n    tag_52:\n      pop\n      pop\n      pop\n      pop\n      mload(0x40)\n      returndatasize\n      not(0x1f)\n      0x1f\n      dup3\n      add\n      and\n      dup3\n      add\n      dup1\n      0x40\n      mstore\n      pop\n      dup2\n      add\n      swap1\n      tag_53\n      swap2\n      swap1\n      tag_34\n      jump\t// in\n    tag_53:\n        /* \"threefour/Vault.sol\":952:963  totalSupply */\n      sload(0x00)\n        /* \"threefour/Vault.sol\":942:963  _amount * totalSupply */\n      tag_54\n      swap1\n        /* \"threefour/Vault.sol\":942:949  _amount */\n      dup5\n        /* \"threefour/Vault.sol\":942:963  _amount * totalSupply */\n      tag_36\n      jump\t// in\n    tag_54:\n        /* \"threefour/Vault.sol\":941:997  (_amount * totalSupply) / token.balanceOf(address(this)) */\n      tag_55\n      swap2\n      swap1\n      tag_38\n      jump\t// in\n    tag_55:\n        /* \"threefour/Vault.sol\":932:997  shares = (_amount * totalSupply) / token.balanceOf(address(this)) */\n      swap1\n      pop\n        /* \"threefour/Vault.sol\":846:1009  if (totalSupply == 0) {... */\n    tag_49:\n        /* \"threefour/Vault.sol\":1021:1046  _mint(msg.sender, shares) */\n      tag_56\n        /* \"threefour/Vault.sol\":1027:1037  msg.sender */\n      caller\n        /* \"threefour/Vault.sol\":1039:1045  shares */\n      dup3\n        /* \"threefour/Vault.sol\":1021:1026  _mint */\n      tag_57\n        /* \"threefour/Vault.sol\":1021:1046  _mint(msg.sender, shares) */\n      jump\t// in\n    tag_56:\n        /* \"threefour/Vault.sol\":1057:1111  token.transferFrom(msg.sender, address(this), _amount) */\n      mload(0x40)\n      shl(0xe0, 0x23b872dd)\n      dup2\n      mstore\n        /* \"threefour/Vault.sol\":1076:1086  msg.sender */\n      caller\n        /* \"threefour/Vault.sol\":1057:1111  token.transferFrom(msg.sender, address(this), _amount) */\n      0x04\n      dup3\n      add\n        /* \"#utility.yul\":2581:2632   */\n      mstore\n        /* \"threefour/Vault.sol\":1096:1100  this */\n      address\n        /* \"#utility.yul\":2648:2666   */\n      0x24\n      dup3\n      add\n        /* \"#utility.yul\":2641:2701   */\n      mstore\n        /* \"#utility.yul\":2717:2735   */\n      0x44\n      dup2\n      add\n        /* \"#utility.yul\":2710:2744   */\n      dup4\n      swap1\n      mstore\n        /* \"threefour/Vault.sol\":1057:1062  token */\n      immutable(\"0x13600b294191fc92924bb3ce4b969c1e7e2bab8f4c93c3fc6d0a51733df3c060\")\n      sub(shl(0xa0, 0x01), 0x01)\n        /* \"threefour/Vault.sol\":1057:1075  token.transferFrom */\n      and\n      swap1\n      0x23b872dd\n      swap1\n        /* \"#utility.yul\":2554:2572   */\n      0x64\n      add\n        /* \"threefour/Vault.sol\":1057:1111  token.transferFrom(msg.sender, address(this), _amount) */\n      tag_41\n        /* \"#utility.yul\":2379:2750   */\n      jump\n        /* \"threefour/Vault.sol\":422:556  function _burn(address _from, uint256 _shares) private {... */\n    tag_40:\n        /* \"threefour/Vault.sol\":503:510  _shares */\n      dup1\n        /* \"threefour/Vault.sol\":488:499  totalSupply */\n      0x00\n      dup1\n        /* \"threefour/Vault.sol\":488:510  totalSupply -= _shares */\n      dup3\n      dup3\n      sload\n      tag_64\n      swap2\n      swap1\n      tag_65\n      jump\t// in\n    tag_64:\n      swap1\n      swap2\n      sstore\n      pop\n      pop\n      sub(shl(0xa0, 0x01), 0x01)\n        /* \"threefour/Vault.sol\":521:537  balanceOf[_from] */\n      dup3\n      and\n      0x00\n      swap1\n      dup2\n      mstore\n        /* \"threefour/Vault.sol\":521:530  balanceOf */\n      0x01\n        /* \"threefour/Vault.sol\":521:537  balanceOf[_from] */\n      0x20\n      mstore\n      0x40\n      dup2\n      keccak256\n        /* \"threefour/Vault.sol\":521:548  balanceOf[_from] -= _shares */\n      dup1\n      sload\n        /* \"threefour/Vault.sol\":541:548  _shares */\n      dup4\n      swap3\n        /* \"threefour/Vault.sol\":521:537  balanceOf[_from] */\n      swap1\n        /* \"threefour/Vault.sol\":521:548  balanceOf[_from] -= _shares */\n      tag_66\n      swap1\n        /* \"threefour/Vault.sol\":541:548  _shares */\n      dup5\n      swap1\n        /* \"threefour/Vault.sol\":521:548  balanceOf[_from] -= _shares */\n      tag_65\n      jump\t// in\n    tag_66:\n      swap1\n      swap2\n      sstore\n      pop\n      pop\n      pop\n      pop\n        /* \"threefour/Vault.sol\":422:556  function _burn(address _from, uint256 _shares) private {... */\n      jump\t// out\n        /* \"threefour/Vault.sol\":284:414  function _mint(address _to, uint256 _shares) private {... */\n    tag_57:\n        /* \"threefour/Vault.sol\":363:370  _shares */\n      dup1\n        /* \"threefour/Vault.sol\":348:359  totalSupply */\n      0x00\n      dup1\n        /* \"threefour/Vault.sol\":348:370  totalSupply += _shares */\n      dup3\n      dup3\n      sload\n      tag_68\n      swap2\n      swap1\n      tag_69\n      jump\t// in\n    tag_68:\n      swap1\n      swap2\n      sstore\n      pop\n      pop\n      sub(shl(0xa0, 0x01), 0x01)\n        /* \"threefour/Vault.sol\":381:395  balanceOf[_to] */\n      dup3\n      and\n      0x00\n      swap1\n      dup2\n      mstore\n        /* \"threefour/Vault.sol\":381:390  balanceOf */\n      0x01\n        /* \"threefour/Vault.sol\":381:395  balanceOf[_to] */\n      0x20\n      mstore\n      0x40\n      dup2\n      keccak256\n        /* \"threefour/Vault.sol\":381:406  balanceOf[_to] += _shares */\n      dup1\n      sload\n        /* \"threefour/Vault.sol\":399:406  _shares */\n      dup4\n      swap3\n        /* \"threefour/Vault.sol\":381:395  balanceOf[_to] */\n      swap1\n        /* \"threefour/Vault.sol\":381:406  balanceOf[_to] += _shares */\n      tag_66\n      swap1\n        /* \"threefour/Vault.sol\":399:406  _shares */\n      dup5\n      swap1\n        /* \"threefour/Vault.sol\":381:406  balanceOf[_to] += _shares */\n      tag_69\n      jump\t// in\n        /* \"#utility.yul\":196:376   */\n    tag_14:\n        /* \"#utility.yul\":255:261   */\n      0x00\n        /* \"#utility.yul\":308:310   */\n      0x20\n        /* \"#utility.yul\":296:305   */\n      dup3\n        /* \"#utility.yul\":287:294   */\n      dup5\n        /* \"#utility.yul\":283:306   */\n      sub\n        /* \"#utility.yul\":279:311   */\n      slt\n        /* \"#utility.yul\":276:328   */\n      iszero\n      tag_75\n      jumpi\n        /* \"#utility.yul\":324:325   */\n      0x00\n        /* \"#utility.yul\":321:322   */\n      dup1\n        /* \"#utility.yul\":314:326   */\n      revert\n        /* \"#utility.yul\":276:328   */\n    tag_75:\n      pop\n        /* \"#utility.yul\":347:370   */\n      calldataload\n      swap2\n        /* \"#utility.yul\":196:376   */\n      swap1\n      pop\n      jump\t// out\n        /* \"#utility.yul\":381:667   */\n    tag_18:\n        /* \"#utility.yul\":440:446   */\n      0x00\n        /* \"#utility.yul\":493:495   */\n      0x20\n        /* \"#utility.yul\":481:490   */\n      dup3\n        /* \"#utility.yul\":472:479   */\n      dup5\n        /* \"#utility.yul\":468:491   */\n      sub\n        /* \"#utility.yul\":464:496   */\n      slt\n        /* \"#utility.yul\":461:513   */\n      iszero\n      tag_77\n      jumpi\n        /* \"#utility.yul\":509:510   */\n      0x00\n        /* \"#utility.yul\":506:507   */\n      dup1\n        /* \"#utility.yul\":499:511   */\n      revert\n        /* \"#utility.yul\":461:513   */\n    tag_77:\n        /* \"#utility.yul\":535:558   */\n      dup2\n      calldataload\n      sub(shl(0xa0, 0x01), 0x01)\n        /* \"#utility.yul\":587:618   */\n      dup2\n      and\n        /* \"#utility.yul\":577:619   */\n      dup2\n      eq\n        /* \"#utility.yul\":567:637   */\n      tag_78\n      jumpi\n        /* \"#utility.yul\":633:634   */\n      0x00\n        /* \"#utility.yul\":630:631   */\n      dup1\n        /* \"#utility.yul\":623:635   */\n      revert\n        /* \"#utility.yul\":567:637   */\n    tag_78:\n        /* \"#utility.yul\":656:661   */\n      swap4\n        /* \"#utility.yul\":381:667   */\n      swap3\n      pop\n      pop\n      pop\n      jump\t// out\n        /* \"#utility.yul\":1102:1286   */\n    tag_34:\n        /* \"#utility.yul\":1172:1178   */\n      0x00\n        /* \"#utility.yul\":1225:1227   */\n      0x20\n        /* \"#utility.yul\":1213:1222   */\n      dup3\n        /* \"#utility.yul\":1204:1211   */\n      dup5\n        /* \"#utility.yul\":1200:1223   */\n      sub\n        /* \"#utility.yul\":1196:1228   */\n      slt\n        /* \"#utility.yul\":1193:1245   */\n      iszero\n      tag_82\n      jumpi\n        /* \"#utility.yul\":1241:1242   */\n      0x00\n        /* \"#utility.yul\":1238:1239   */\n      dup1\n        /* \"#utility.yul\":1231:1243   */\n      revert\n        /* \"#utility.yul\":1193:1245   */\n    tag_82:\n      pop\n        /* \"#utility.yul\":1264:1280   */\n      mload\n      swap2\n        /* \"#utility.yul\":1102:1286   */\n      swap1\n      pop\n      jump\t// out\n        /* \"#utility.yul\":1291:1418   */\n    tag_71:\n        /* \"#utility.yul\":1352:1362   */\n      0x4e487b71\n        /* \"#utility.yul\":1347:1350   */\n      0xe0\n        /* \"#utility.yul\":1343:1363   */\n      shl\n        /* \"#utility.yul\":1340:1341   */\n      0x00\n        /* \"#utility.yul\":1333:1364   */\n      mstore\n        /* \"#utility.yul\":1383:1387   */\n      0x11\n        /* \"#utility.yul\":1380:1381   */\n      0x04\n        /* \"#utility.yul\":1373:1388   */\n      mstore\n        /* \"#utility.yul\":1407:1411   */\n      0x24\n        /* \"#utility.yul\":1404:1405   */\n      0x00\n        /* \"#utility.yul\":1397:1412   */\n      revert\n        /* \"#utility.yul\":1423:1591   */\n    tag_36:\n        /* \"#utility.yul\":1496:1505   */\n      dup1\n      dup3\n      mul\n        /* \"#utility.yul\":1527:1536   */\n      dup2\n      iszero\n        /* \"#utility.yul\":1544:1559   */\n      dup3\n      dup3\n      div\n        /* \"#utility.yul\":1538:1560   */\n      dup5\n      eq\n        /* \"#utility.yul\":1524:1561   */\n      or\n        /* \"#utility.yul\":1514:1585   */\n      tag_86\n      jumpi\n        /* \"#utility.yul\":1565:1583   */\n      tag_86\n      tag_71\n      jump\t// in\n    tag_86:\n        /* \"#utility.yul\":1423:1591   */\n      swap3\n      swap2\n      pop\n      pop\n      jump\t// out\n        /* \"#utility.yul\":1596:1813   */\n    tag_38:\n        /* \"#utility.yul\":1636:1637   */\n      0x00\n        /* \"#utility.yul\":1662:1663   */\n      dup3\n        /* \"#utility.yul\":1652:1784   */\n      tag_88\n      jumpi\n        /* \"#utility.yul\":1706:1716   */\n      0x4e487b71\n        /* \"#utility.yul\":1701:1704   */\n      0xe0\n        /* \"#utility.yul\":1697:1717   */\n      shl\n        /* \"#utility.yul\":1694:1695   */\n      0x00\n        /* \"#utility.yul\":1687:1718   */\n      mstore\n        /* \"#utility.yul\":1741:1745   */\n      0x12\n        /* \"#utility.yul\":1738:1739   */\n      0x04\n        /* \"#utility.yul\":1731:1746   */\n      mstore\n        /* \"#utility.yul\":1769:1773   */\n      0x24\n        /* \"#utility.yul\":1766:1767   */\n      0x00\n        /* \"#utility.yul\":1759:1774   */\n      revert\n        /* \"#utility.yul\":1652:1784   */\n    tag_88:\n      pop\n        /* \"#utility.yul\":1798:1807   */\n      div\n      swap1\n        /* \"#utility.yul\":1596:1813   */\n      jump\t// out\n        /* \"#utility.yul\":2097:2374   */\n    tag_46:\n        /* \"#utility.yul\":2164:2170   */\n      0x00\n        /* \"#utility.yul\":2217:2219   */\n      0x20\n        /* \"#utility.yul\":2205:2214   */\n      dup3\n        /* \"#utility.yul\":2196:2203   */\n      dup5\n        /* \"#utility.yul\":2192:2215   */\n      sub\n        /* \"#utility.yul\":2188:2220   */\n      slt\n        /* \"#utility.yul\":2185:2237   */\n      iszero\n      tag_91\n      jumpi\n        /* \"#utility.yul\":2233:2234   */\n      0x00\n        /* \"#utility.yul\":2230:2231   */\n      dup1\n        /* \"#utility.yul\":2223:2235   */\n      revert\n        /* \"#utility.yul\":2185:2237   */\n    tag_91:\n        /* \"#utility.yul\":2265:2274   */\n      dup2\n        /* \"#utility.yul\":2259:2275   */\n      mload\n        /* \"#utility.yul\":2318:2323   */\n      dup1\n        /* \"#utility.yul\":2311:2324   */\n      iszero\n        /* \"#utility.yul\":2304:2325   */\n      iszero\n        /* \"#utility.yul\":2297:2302   */\n      dup2\n        /* \"#utility.yul\":2294:2326   */\n      eq\n        /* \"#utility.yul\":2284:2344   */\n      tag_78\n      jumpi\n        /* \"#utility.yul\":2340:2341   */\n      0x00\n        /* \"#utility.yul\":2337:2338   */\n      dup1\n        /* \"#utility.yul\":2330:2342   */\n      revert\n        /* \"#utility.yul\":2755:2883   */\n    tag_65:\n        /* \"#utility.yul\":2822:2831   */\n      dup2\n      dup2\n      sub\n        /* \"#utility.yul\":2843:2854   */\n      dup2\n      dup2\n      gt\n        /* \"#utility.yul\":2840:2877   */\n      iszero\n      tag_86\n      jumpi\n        /* \"#utility.yul\":2857:2875   */\n      tag_86\n      tag_71\n      jump\t// in\n        /* \"#utility.yul\":2888:3013   */\n    tag_69:\n        /* \"#utility.yul\":2953:2962   */\n      dup1\n      dup3\n      add\n        /* \"#utility.yul\":2974:2984   */\n      dup1\n      dup3\n      gt\n        /* \"#utility.yul\":2971:3007   */\n      iszero\n      tag_86\n      jumpi\n        /* \"#utility.yul\":2987:3005   */\n      tag_86\n      tag_71\n      jump\t// in\n\n    auxdata: 0xa2646970667358221220c4f7b3834f065d474e07ece85cca076f0d05abc5c831077583a01b126e194c4f64736f6c634300081a0033\n}\n",
				"bytecode": {
					"linkReferences": {},
					"object": "60a0604052348015600e575f80fd5b50604051610589380380610589833981016040819052602b91603b565b6001600160a01b03166080526066565b5f60208284031215604a575f80fd5b81516001600160a01b0381168114605f575f80fd5b9392505050565b6080516104f06100995f395f818160c001528181610112015281816101bf0152818161025c015261031201526104f05ff3fe608060405234801561000f575f80fd5b5060043610610055575f3560e01c806318160ddd146100595780632e1a7d4d1461007457806370a0823114610089578063b6b55f25146100a8578063fc0c546a146100bb575b5f80fd5b6100615f5481565b6040519081526020015b60405180910390f35b6100876100823660046103ca565b6100fa565b005b6100616100973660046103e1565b60016020525f908152604090205481565b6100876100b63660046103ca565b610237565b6100e27f000000000000000000000000000000000000000000000000000000000000000081565b6040516001600160a01b03909116815260200161006b565b5f80546040516370a0823160e01b81523060048201527f00000000000000000000000000000000000000000000000000000000000000006001600160a01b0316906370a0823190602401602060405180830381865afa15801561015f573d5f803e3d5ffd5b505050506040513d601f19601f82011682018060405250810190610183919061040e565b61018d9084610439565b6101979190610456565b90506101a33383610349565b60405163a9059cbb60e01b8152336004820152602481018290527f00000000000000000000000000000000000000000000000000000000000000006001600160a01b03169063a9059cbb906044015b6020604051808303815f875af115801561020e573d5f803e3d5ffd5b505050506040513d601f19601f820116820180604052508101906102329190610475565b505050565b5f80545f036102475750806102e6565b6040516370a0823160e01b81523060048201527f00000000000000000000000000000000000000000000000000000000000000006001600160a01b0316906370a0823190602401602060405180830381865afa1580156102a9573d5f803e3d5ffd5b505050506040513d601f19601f820116820180604052508101906102cd919061040e565b5f546102d99084610439565b6102e39190610456565b90505b6102f0338261038e565b6040516323b872dd60e01b8152336004820152306024820152604481018390527f00000000000000000000000000000000000000000000000000000000000000006001600160a01b0316906323b872dd906064016101f2565b805f808282546103599190610494565b90915550506001600160a01b0382165f9081526001602052604081208054839290610385908490610494565b90915550505050565b805f8082825461039e91906104a7565b90915550506001600160a01b0382165f90815260016020526040812080548392906103859084906104a7565b5f602082840312156103da575f80fd5b5035919050565b5f602082840312156103f1575f80fd5b81356001600160a01b0381168114610407575f80fd5b9392505050565b5f6020828403121561041e575f80fd5b5051919050565b634e487b7160e01b5f52601160045260245ffd5b808202811582820484141761045057610450610425565b92915050565b5f8261047057634e487b7160e01b5f52601260045260245ffd5b500490565b5f60208284031215610485575f80fd5b81518015158114610407575f80fd5b8181038181111561045057610450610425565b808201808211156104505761045061042556fea2646970667358221220c4f7b3834f065d474e07ece85cca076f0d05abc5c831077583a01b126e194c4f64736f6c634300081a0033",
					"opcodes": "PUSH1 0xA0 PUSH1 0x40 MSTORE CALLVALUE DUP1 ISZERO PUSH1 0xE JUMPI PUSH0 DUP1 REVERT JUMPDEST POP PUSH1 0x40 MLOAD PUSH2 0x589 CODESIZE SUB DUP1 PUSH2 0x589 DUP4 CODECOPY DUP2 ADD PUSH1 0x40 DUP2 SWAP1 MSTORE PUSH1 0x2B SWAP2 PUSH1 0x3B JUMP JUMPDEST PUSH1 0x1 PUSH1 0x1 PUSH1 0xA0 SHL SUB AND PUSH1 0x80 MSTORE PUSH1 0x66 JUMP JUMPDEST PUSH0 PUSH1 0x20 DUP3 DUP5 SUB SLT ISZERO PUSH1 0x4A JUMPI PUSH0 DUP1 REVERT JUMPDEST DUP2 MLOAD PUSH1 0x1 PUSH1 0x1 PUSH1 0xA0 SHL SUB DUP2 AND DUP2 EQ PUSH1 0x5F JUMPI PUSH0 DUP1 REVERT JUMPDEST SWAP4 SWAP3 POP POP POP JUMP JUMPDEST PUSH1 0x80 MLOAD PUSH2 0x4F0 PUSH2 0x99 PUSH0 CODECOPY PUSH0 DUP2 DUP2 PUSH1 0xC0 ADD MSTORE DUP2 DUP2 PUSH2 0x112 ADD MSTORE DUP2 DUP2 PUSH2 0x1BF ADD MSTORE DUP2 DUP2 PUSH2 0x25C ADD MSTORE PUSH2 0x312 ADD MSTORE PUSH2 0x4F0 PUSH0 RETURN INVALID PUSH1 0x80 PUSH1 0x40 MSTORE CALLVALUE DUP1 ISZERO PUSH2 0xF JUMPI PUSH0 DUP1 REVERT JUMPDEST POP PUSH1 0x4 CALLDATASIZE LT PUSH2 0x55 JUMPI PUSH0 CALLDATALOAD PUSH1 0xE0 SHR DUP1 PUSH4 0x18160DDD EQ PUSH2 0x59 JUMPI DUP1 PUSH4 0x2E1A7D4D EQ PUSH2 0x74 JUMPI DUP1 PUSH4 0x70A08231 EQ PUSH2 0x89 JUMPI DUP1 PUSH4 0xB6B55F25 EQ PUSH2 0xA8 JUMPI DUP1 PUSH4 0xFC0C546A EQ PUSH2 0xBB JUMPI JUMPDEST PUSH0 DUP1 REVERT JUMPDEST PUSH2 0x61 PUSH0 SLOAD DUP2 JUMP JUMPDEST PUSH1 0x40 MLOAD SWAP1 DUP2 MSTORE PUSH1 0x20 ADD JUMPDEST PUSH1 0x40 MLOAD DUP1 SWAP2 SUB SWAP1 RETURN JUMPDEST PUSH2 0x87 PUSH2 0x82 CALLDATASIZE PUSH1 0x4 PUSH2 0x3CA JUMP JUMPDEST PUSH2 0xFA JUMP JUMPDEST STOP JUMPDEST PUSH2 0x61 PUSH2 0x97 CALLDATASIZE PUSH1 0x4 PUSH2 0x3E1 JUMP JUMPDEST PUSH1 0x1 PUSH1 0x20 MSTORE PUSH0 SWAP1 DUP2 MSTORE PUSH1 0x40 SWAP1 KECCAK256 SLOAD DUP2 JUMP JUMPDEST PUSH2 0x87 PUSH2 0xB6 CALLDATASIZE PUSH1 0x4 PUSH2 0x3CA JUMP JUMPDEST PUSH2 0x237 JUMP JUMPDEST PUSH2 0xE2 PUSH32 0x0 DUP2 JUMP JUMPDEST PUSH1 0x40 MLOAD PUSH1 0x1 PUSH1 0x1 PUSH1 0xA0 SHL SUB SWAP1 SWAP2 AND DUP2 MSTORE PUSH1 0x20 ADD PUSH2 0x6B JUMP JUMPDEST PUSH0 DUP1 SLOAD PUSH1 0x40 MLOAD PUSH4 0x70A08231 PUSH1 0xE0 SHL DUP2 MSTORE ADDRESS PUSH1 0x4 DUP3 ADD MSTORE PUSH32 0x0 PUSH1 0x1 PUSH1 0x1 PUSH1 0xA0 SHL SUB AND SWAP1 PUSH4 0x70A08231 SWAP1 PUSH1 0x24 ADD PUSH1 0x20 PUSH1 0x40 MLOAD DUP1 DUP4 SUB DUP2 DUP7 GAS STATICCALL ISZERO DUP1 ISZERO PUSH2 0x15F JUMPI RETURNDATASIZE PUSH0 DUP1 RETURNDATACOPY RETURNDATASIZE PUSH0 REVERT JUMPDEST POP POP POP POP PUSH1 0x40 MLOAD RETURNDATASIZE PUSH1 0x1F NOT PUSH1 0x1F DUP3 ADD AND DUP3 ADD DUP1 PUSH1 0x40 MSTORE POP DUP2 ADD SWAP1 PUSH2 0x183 SWAP2 SWAP1 PUSH2 0x40E JUMP JUMPDEST PUSH2 0x18D SWAP1 DUP5 PUSH2 0x439 JUMP JUMPDEST PUSH2 0x197 SWAP2 SWAP1 PUSH2 0x456 JUMP JUMPDEST SWAP1 POP PUSH2 0x1A3 CALLER DUP4 PUSH2 0x349 JUMP JUMPDEST PUSH1 0x40 MLOAD PUSH4 0xA9059CBB PUSH1 0xE0 SHL DUP2 MSTORE CALLER PUSH1 0x4 DUP3 ADD MSTORE PUSH1 0x24 DUP2 ADD DUP3 SWAP1 MSTORE PUSH32 0x0 PUSH1 0x1 PUSH1 0x1 PUSH1 0xA0 SHL SUB AND SWAP1 PUSH4 0xA9059CBB SWAP1 PUSH1 0x44 ADD JUMPDEST PUSH1 0x20 PUSH1 0x40 MLOAD DUP1 DUP4 SUB DUP2 PUSH0 DUP8 GAS CALL ISZERO DUP1 ISZERO PUSH2 0x20E JUMPI RETURNDATASIZE PUSH0 DUP1 RETURNDATACOPY RETURNDATASIZE PUSH0 REVERT JUMPDEST POP POP POP POP PUSH1 0x40 MLOAD RETURNDATASIZE PUSH1 0x1F NOT PUSH1 0x1F DUP3 ADD AND DUP3 ADD DUP1 PUSH1 0x40 MSTORE POP DUP2 ADD SWAP1 PUSH2 0x232 SWAP2 SWAP1 PUSH2 0x475 JUMP JUMPDEST POP POP POP JUMP JUMPDEST PUSH0 DUP1 SLOAD PUSH0 SUB PUSH2 0x247 JUMPI POP DUP1 PUSH2 0x2E6 JUMP JUMPDEST PUSH1 0x40 MLOAD PUSH4 0x70A08231 PUSH1 0xE0 SHL DUP2 MSTORE ADDRESS PUSH1 0x4 DUP3 ADD MSTORE PUSH32 0x0 PUSH1 0x1 PUSH1 0x1 PUSH1 0xA0 SHL SUB AND SWAP1 PUSH4 0x70A08231 SWAP1 PUSH1 0x24 ADD PUSH1 0x20 PUSH1 0x40 MLOAD DUP1 DUP4 SUB DUP2 DUP7 GAS STATICCALL ISZERO DUP1 ISZERO PUSH2 0x2A9 JUMPI RETURNDATASIZE PUSH0 DUP1 RETURNDATACOPY RETURNDATASIZE PUSH0 REVERT JUMPDEST POP POP POP POP PUSH1 0x40 MLOAD RETURNDATASIZE PUSH1 0x1F NOT PUSH1 0x1F DUP3 ADD AND DUP3 ADD DUP1 PUSH1 0x40 MSTORE POP DUP2 ADD SWAP1 PUSH2 0x2CD SWAP2 SWAP1 PUSH2 0x40E JUMP JUMPDEST PUSH0 SLOAD PUSH2 0x2D9 SWAP1 DUP5 PUSH2 0x439 JUMP JUMPDEST PUSH2 0x2E3 SWAP2 SWAP1 PUSH2 0x456 JUMP JUMPDEST SWAP1 POP JUMPDEST PUSH2 0x2F0 CALLER DUP3 PUSH2 0x38E JUMP JUMPDEST PUSH1 0x40 MLOAD PUSH4 0x23B872DD PUSH1 0xE0 SHL DUP2 MSTORE CALLER PUSH1 0x4 DUP3 ADD MSTORE ADDRESS PUSH1 0x24 DUP3 ADD MSTORE PUSH1 0x44 DUP2 ADD DUP4 SWAP1 MSTORE PUSH32 0x0 PUSH1 0x1 PUSH1 0x1 PUSH1 0xA0 SHL SUB AND SWAP1 PUSH4 0x23B872DD SWAP1 PUSH1 0x64 ADD PUSH2 0x1F2 JUMP JUMPDEST DUP1 PUSH0 DUP1 DUP3 DUP3 SLOAD PUSH2 0x359 SWAP2 SWAP1 PUSH2 0x494 JUMP JUMPDEST SWAP1 SWAP2 SSTORE POP POP PUSH1 0x1 PUSH1 0x1 PUSH1 0xA0 SHL SUB DUP3 AND PUSH0 SWAP1 DUP2 MSTORE PUSH1 0x1 PUSH1 0x20 MSTORE PUSH1 0x40 DUP2 KECCAK256 DUP1 SLOAD DUP4 SWAP3 SWAP1 PUSH2 0x385 SWAP1 DUP5 SWAP1 PUSH2 0x494 JUMP JUMPDEST SWAP1 SWAP2 SSTORE POP POP POP POP JUMP JUMPDEST DUP1 PUSH0 DUP1 DUP3 DUP3 SLOAD PUSH2 0x39E SWAP2 SWAP1 PUSH2 0x4A7 JUMP JUMPDEST SWAP1 SWAP2 SSTORE POP POP PUSH1 0x1 PUSH1 0x1 PUSH1 0xA0 SHL SUB DUP3 AND PUSH0 SWAP1 DUP2 MSTORE PUSH1 0x1 PUSH1 0x20 MSTORE PUSH1 0x40 DUP2 KECCAK256 DUP1 SLOAD DUP4 SWAP3 SWAP1 PUSH2 0x385 SWAP1 DUP5 SWAP1 PUSH2 0x4A7 JUMP JUMPDEST PUSH0 PUSH1 0x20 DUP3 DUP5 SUB SLT ISZERO PUSH2 0x3DA JUMPI PUSH0 DUP1 REVERT JUMPDEST POP CALLDATALOAD SWAP2 SWAP1 POP JUMP JUMPDEST PUSH0 PUSH1 0x20 DUP3 DUP5 SUB SLT ISZERO PUSH2 0x3F1 JUMPI PUSH0 DUP1 REVERT JUMPDEST DUP2 CALLDATALOAD PUSH1 0x1 PUSH1 0x1 PUSH1 0xA0 SHL SUB DUP2 AND DUP2 EQ PUSH2 0x407 JUMPI PUSH0 DUP1 REVERT JUMPDEST SWAP4 SWAP3 POP POP POP JUMP JUMPDEST PUSH0 PUSH1 0x20 DUP3 DUP5 SUB SLT ISZERO PUSH2 0x41E JUMPI PUSH0 DUP1 REVERT JUMPDEST POP MLOAD SWAP2 SWAP1 POP JUMP JUMPDEST PUSH4 0x4E487B71 PUSH1 0xE0 SHL PUSH0 MSTORE PUSH1 0x11 PUSH1 0x4 MSTORE PUSH1 0x24 PUSH0 REVERT JUMPDEST DUP1 DUP3 MUL DUP2 ISZERO DUP3 DUP3 DIV DUP5 EQ OR PUSH2 0x450 JUMPI PUSH2 0x450 PUSH2 0x425 JUMP JUMPDEST SWAP3 SWAP2 POP POP JUMP JUMPDEST PUSH0 DUP3 PUSH2 0x470 JUMPI PUSH4 0x4E487B71 PUSH1 0xE0 SHL PUSH0 MSTORE PUSH1 0x12 PUSH1 0x4 MSTORE PUSH1 0x24 PUSH0 REVERT JUMPDEST POP DIV SWAP1 JUMP JUMPDEST PUSH0 PUSH1 0x20 DUP3 DUP5 SUB SLT ISZERO PUSH2 0x485 JUMPI PUSH0 DUP1 REVERT JUMPDEST DUP2 MLOAD DUP1 ISZERO ISZERO DUP2 EQ PUSH2 0x407 JUMPI PUSH0 DUP1 REVERT JUMPDEST DUP2 DUP2 SUB DUP2 DUP2 GT ISZERO PUSH2 0x450 JUMPI PUSH2 0x450 PUSH2 0x425 JUMP JUMPDEST DUP1 DUP3 ADD DUP1 DUP3 GT ISZERO PUSH2 0x450 JUMPI PUSH2 0x450 PUSH2 0x425 JUMP INVALID LOG2 PUSH5 0x6970667358 0x22 SLT KECCAK256 0xC4 0xF7 0xB3 DUP4 0x4F MOD TSTORE SELFBALANCE 0x4E SMOD 0xEC 0xE8 TLOAD 0xCA SMOD PUSH16 0xD05ABC5C831077583A01B126E194C4F PUSH5 0x736F6C6343 STOP ADDMOD BYTE STOP CALLER "
				},
				"gasEstimates": {
					"creation": {
						"codeDepositCost": "252800",
						"executionCost": "infinite",
						"totalCost": "infinite"
					},
					"external": {
						"balanceOf(address)": "2492",
						"deposit(uint256)": "infinite",
						"token()": "infinite",
						"totalSupply()": "2260",
						"withdraw(uint256)": "infinite"
					},
					"internal": {
						"_burn(address,uint256)": "infinite",
						"_mint(address,uint256)": "infinite"
					}
				},
				"methodIdentifiers": {
					"balanceOf(address)": "70a08231",
					"deposit(uint256)": "b6b55f25",
					"token()": "fc0c546a",
					"totalSupply()": "18160ddd",
					"withdraw(uint256)": "2e1a7d4d"
				}
			},
			"storageLayout": {
				"storage": [
					{
						"astId": 6,
						"contract": "threefour/Vault.sol:Vault",
						"label": "totalSupply",
						"offset": 0,
						"slot": "0",
						"type": "t_uint256"
					},
					{
						"astId": 10,
						"contract": "threefour/Vault.sol:Vault",
						"label": "balanceOf",
						"offset": 0,
						"slot": "1",
						"type": "t_mapping(t_address,t_uint256)"
					}
				],
				"types": {
					"t_address": {
						"encoding": "inplace",
						"label": "address",
						"numberOfBytes": "20"
					},
					"t_mapping(t_address,t_uint256)": {
						"encoding": "mapping",
						"key": "t_address",
						"label": "mapping(address => uint256)",
						"numberOfBytes": "32",
						"value": "t_uint256"
					},
					"t_uint256": {
						"encoding": "inplace",
						"label": "uint256",
						"numberOfBytes": "32"
					}
				}
			},
			"userdoc": {
				"kind": "user",
				"methods": {},
				"version": 1
			}
		}
	}
}