{
	"contracts/GasGolf.sol": {
		"GasGolf": {
			"abi": [
				{
					"inputs": [
						{
							"internalType": "uint256[]",
							"name": "nums",
							"type": "uint256[]"
						}
					],
					"name": "sumIfEventAndLessThan99",
					"outputs": [],
					"stateMutability": "nonpayable",
					"type": "function"
				},
				{
					"inputs": [
						{
							"internalType": "uint256[]",
							"name": "nums",
							"type": "uint256[]"
						}
					],
					"name": "sumIfEventAndLessThan99_2",
					"outputs": [],
					"stateMutability": "nonpayable",
					"type": "function"
				},
				{
					"inputs": [
						{
							"internalType": "uint256[]",
							"name": "nums",
							"type": "uint256[]"
						}
					],
					"name": "sumIfEventAndLessThan99_3",
					"outputs": [],
					"stateMutability": "nonpayable",
					"type": "function"
				},
				{
					"inputs": [
						{
							"internalType": "uint256[]",
							"name": "nums",
							"type": "uint256[]"
						}
					],
					"name": "sumIfEventAndLessThan99_4",
					"outputs": [],
					"stateMutability": "nonpayable",
					"type": "function"
				},
				{
					"inputs": [
						{
							"internalType": "uint256[]",
							"name": "nums",
							"type": "uint256[]"
						}
					],
					"name": "sumIfEventAndLessThan99_5",
					"outputs": [],
					"stateMutability": "nonpayable",
					"type": "function"
				},
				{
					"inputs": [
						{
							"internalType": "uint256[]",
							"name": "nums",
							"type": "uint256[]"
						}
					],
					"name": "sumIfEventAndLessThan99_6",
					"outputs": [],
					"stateMutability": "nonpayable",
					"type": "function"
				},
				{
					"inputs": [],
					"name": "total",
					"outputs": [
						{
							"internalType": "uint256",
							"name": "",
							"type": "uint256"
						}
					],
					"stateMutability": "view",
					"type": "function"
				},
				{
					"inputs": [],
					"name": "total2",
					"outputs": [
						{
							"internalType": "uint256",
							"name": "",
							"type": "uint256"
						}
					],
					"stateMutability": "view",
					"type": "function"
				},
				{
					"inputs": [],
					"name": "total3",
					"outputs": [
						{
							"internalType": "uint256",
							"name": "",
							"type": "uint256"
						}
					],
					"stateMutability": "view",
					"type": "function"
				},
				{
					"inputs": [],
					"name": "total4",
					"outputs": [
						{
							"internalType": "uint256",
							"name": "",
							"type": "uint256"
						}
					],
					"stateMutability": "view",
					"type": "function"
				},
				{
					"inputs": [],
					"name": "total5",
					"outputs": [
						{
							"internalType": "uint256",
							"name": "",
							"type": "uint256"
						}
					],
					"stateMutability": "view",
					"type": "function"
				},
				{
					"inputs": [],
					"name": "total6",
					"outputs": [
						{
							"internalType": "uint256",
							"name": "",
							"type": "uint256"
						}
					],
					"stateMutability": "view",
					"type": "function"
				}
			],
			"devdoc": {
				"kind": "dev",
				"methods": {},
				"version": 1
			},
			"evm": {
				"assembly": "    /* \"contracts/GasGolf.sol\":88:2659  contract GasGolf{... */\n  mstore(0x40, 0x80)\n  callvalue\n  dup1\n  iszero\n  tag_1\n  jumpi\n  revert(0x00, 0x00)\ntag_1:\n  pop\n  dataSize(sub_0)\n  dup1\n  dataOffset(sub_0)\n  0x00\n  codecopy\n  0x00\n  return\nstop\n\nsub_0: assembly {\n        /* \"contracts/GasGolf.sol\":88:2659  contract GasGolf{... */\n      mstore(0x40, 0x80)\n      callvalue\n      dup1\n      iszero\n      tag_1\n      jumpi\n      revert(0x00, 0x00)\n    tag_1:\n      pop\n      jumpi(tag_2, lt(calldatasize, 0x04))\n      shr(0xe0, calldataload(0x00))\n      dup1\n      0x8b2497fe\n      gt\n      tag_15\n      jumpi\n      dup1\n      0x8b2497fe\n      eq\n      tag_9\n      jumpi\n      dup1\n      0x9b726dc0\n      eq\n      tag_10\n      jumpi\n      dup1\n      0xa5a0823e\n      eq\n      tag_11\n      jumpi\n      dup1\n      0xd027a27d\n      eq\n      tag_12\n      jumpi\n      dup1\n      0xdcc0105d\n      eq\n      tag_13\n      jumpi\n      dup1\n      0xf1508572\n      eq\n      tag_14\n      jumpi\n      revert(0x00, 0x00)\n    tag_15:\n      dup1\n      0x11acfec4\n      eq\n      tag_3\n      jumpi\n      dup1\n      0x1203bf54\n      eq\n      tag_4\n      jumpi\n      dup1\n      0x188dc0a5\n      eq\n      tag_5\n      jumpi\n      dup1\n      0x20ac2263\n      eq\n      tag_6\n      jumpi\n      dup1\n      0x2ddbd13a\n      eq\n      tag_7\n      jumpi\n      dup1\n      0x5f36e8c2\n      eq\n      tag_8\n      jumpi\n    tag_2:\n      revert(0x00, 0x00)\n        /* \"contracts/GasGolf.sol\":337:637  function sumIfEventAndLessThan99(uint[] memory nums) external {... */\n    tag_3:\n      tag_16\n      tag_17\n      calldatasize\n      0x04\n      tag_18\n      jump\t// in\n    tag_17:\n      tag_19\n      jump\t// in\n    tag_16:\n      stop\n        /* \"contracts/GasGolf.sol\":266:287  uint256 public total6 */\n    tag_4:\n      tag_20\n      sload(0x05)\n      dup2\n      jump\n    tag_20:\n      mload(0x40)\n        /* \"#utility.yul\":1472:1497   */\n      swap1\n      dup2\n      mstore\n        /* \"#utility.yul\":1460:1462   */\n      0x20\n        /* \"#utility.yul\":1445:1463   */\n      add\n        /* \"contracts/GasGolf.sol\":266:287  uint256 public total6 */\n      mload(0x40)\n      dup1\n      swap2\n      sub\n      swap1\n      return\n        /* \"contracts/GasGolf.sol\":670:975  function sumIfEventAndLessThan99_2(uint[] calldata nums) external {... */\n    tag_5:\n      tag_16\n      tag_25\n      calldatasize\n      0x04\n      tag_26\n      jump\t// in\n    tag_25:\n      tag_27\n      jump\t// in\n        /* \"contracts/GasGolf.sol\":202:223  uint256 public total4 */\n    tag_6:\n      tag_20\n      sload(0x03)\n      dup2\n      jump\n        /* \"contracts/GasGolf.sol\":113:133  uint256 public total */\n    tag_7:\n      tag_20\n      sload(0x00)\n      dup2\n      jump\n        /* \"contracts/GasGolf.sol\":172:193  uint256 public total3 */\n    tag_8:\n      tag_20\n      sload(0x02)\n      dup2\n      jump\n        /* \"contracts/GasGolf.sol\":2246:2656  function sumIfEventAndLessThan99_6(uint[] calldata nums) external {... */\n    tag_9:\n      tag_16\n      tag_38\n      calldatasize\n      0x04\n      tag_26\n      jump\t// in\n    tag_38:\n      tag_39\n      jump\t// in\n        /* \"contracts/GasGolf.sol\":232:253  uint256 public total5 */\n    tag_10:\n      tag_20\n      sload(0x04)\n      dup2\n      jump\n        /* \"contracts/GasGolf.sol\":142:163  uint256 public total2 */\n    tag_11:\n      tag_20\n      sload(0x01)\n      dup2\n      jump\n        /* \"contracts/GasGolf.sol\":1012:1370  function sumIfEventAndLessThan99_3(uint[] calldata nums) external {... */\n    tag_12:\n      tag_16\n      tag_47\n      calldatasize\n      0x04\n      tag_26\n      jump\t// in\n    tag_47:\n      tag_48\n      jump\t// in\n        /* \"contracts/GasGolf.sol\":1824:2211  function sumIfEventAndLessThan99_5(uint[] calldata nums) external {... */\n    tag_13:\n      tag_16\n      tag_50\n      calldatasize\n      0x04\n      tag_26\n      jump\t// in\n    tag_50:\n      tag_51\n      jump\t// in\n        /* \"contracts/GasGolf.sol\":1403:1791  function sumIfEventAndLessThan99_4(uint[] calldata nums) external {... */\n    tag_14:\n      tag_16\n      tag_53\n      calldatasize\n      0x04\n      tag_26\n      jump\t// in\n    tag_53:\n      tag_54\n      jump\t// in\n        /* \"contracts/GasGolf.sol\":337:637  function sumIfEventAndLessThan99(uint[] memory nums) external {... */\n    tag_19:\n        /* \"contracts/GasGolf.sol\":414:420  uint i */\n      0x00\n        /* \"contracts/GasGolf.sol\":410:630  for(uint i=0;i<nums.length;i+=1){... */\n    tag_56:\n        /* \"contracts/GasGolf.sol\":425:429  nums */\n      dup2\n        /* \"contracts/GasGolf.sol\":425:436  nums.length */\n      mload\n        /* \"contracts/GasGolf.sol\":423:424  i */\n      dup2\n        /* \"contracts/GasGolf.sol\":423:436  i<nums.length */\n      lt\n        /* \"contracts/GasGolf.sol\":410:630  for(uint i=0;i<nums.length;i+=1){... */\n      iszero\n      tag_57\n      jumpi\n        /* \"contracts/GasGolf.sol\":457:468  bool isEven */\n      0x00\n        /* \"contracts/GasGolf.sol\":477:478  2 */\n      0x02\n        /* \"contracts/GasGolf.sol\":469:473  nums */\n      dup4\n        /* \"contracts/GasGolf.sol\":474:475  i */\n      dup4\n        /* \"contracts/GasGolf.sol\":469:476  nums[i] */\n      dup2\n      mload\n      dup2\n      lt\n      tag_60\n      jumpi\n      tag_60\n      tag_61\n      jump\t// in\n    tag_60:\n      0x20\n      mul\n      0x20\n      add\n      add\n      mload\n        /* \"contracts/GasGolf.sol\":469:478  nums[i]%2 */\n      tag_62\n      swap2\n      swap1\n      tag_63\n      jump\t// in\n    tag_62:\n        /* \"contracts/GasGolf.sol\":480:481  0 */\n      0x00\n        /* \"contracts/GasGolf.sol\":469:481  nums[i]%2==0 */\n      eq\n        /* \"contracts/GasGolf.sol\":457:481  bool isEven=nums[i]%2==0 */\n      swap1\n      pop\n        /* \"contracts/GasGolf.sol\":496:513  bool isLessThan99 */\n      0x00\n        /* \"contracts/GasGolf.sol\":525:527  99 */\n      0x63\n        /* \"contracts/GasGolf.sol\":516:520  nums */\n      dup5\n        /* \"contracts/GasGolf.sol\":521:522  i */\n      dup5\n        /* \"contracts/GasGolf.sol\":516:523  nums[i] */\n      dup2\n      mload\n      dup2\n      lt\n      tag_65\n      jumpi\n      tag_65\n      tag_61\n      jump\t// in\n    tag_65:\n      0x20\n      mul\n      0x20\n      add\n      add\n      mload\n        /* \"contracts/GasGolf.sol\":516:527  nums[i] <99 */\n      lt\n        /* \"contracts/GasGolf.sol\":496:527  bool isLessThan99 = nums[i] <99 */\n      swap1\n      pop\n        /* \"contracts/GasGolf.sol\":545:551  isEven */\n      dup2\n        /* \"contracts/GasGolf.sol\":545:567  isEven && isLessThan99 */\n      dup1\n      iszero\n      tag_66\n      jumpi\n      pop\n        /* \"contracts/GasGolf.sol\":555:567  isLessThan99 */\n      dup1\n        /* \"contracts/GasGolf.sol\":545:567  isEven && isLessThan99 */\n    tag_66:\n        /* \"contracts/GasGolf.sol\":542:619  if(isEven && isLessThan99){... */\n      iszero\n      tag_67\n      jumpi\n        /* \"contracts/GasGolf.sol\":596:600  nums */\n      dup4\n        /* \"contracts/GasGolf.sol\":601:602  i */\n      dup4\n        /* \"contracts/GasGolf.sol\":596:603  nums[i] */\n      dup2\n      mload\n      dup2\n      lt\n      tag_69\n      jumpi\n      tag_69\n      tag_61\n      jump\t// in\n    tag_69:\n      0x20\n      mul\n      0x20\n      add\n      add\n      mload\n        /* \"contracts/GasGolf.sol\":587:592  total */\n      0x00\n      0x00\n        /* \"contracts/GasGolf.sol\":587:603  total += nums[i] */\n      dup3\n      dup3\n      sload\n      tag_70\n      swap2\n      swap1\n      tag_71\n      jump\t// in\n    tag_70:\n      swap1\n      swap2\n      sstore\n      pop\n      pop\n        /* \"contracts/GasGolf.sol\":542:619  if(isEven && isLessThan99){... */\n    tag_67:\n      pop\n        /* \"contracts/GasGolf.sol\":437:441  i+=1 */\n      tag_72\n      swap1\n      pop\n        /* \"contracts/GasGolf.sol\":440:441  1 */\n      0x01\n        /* \"contracts/GasGolf.sol\":437:441  i+=1 */\n      dup3\n      tag_71\n      jump\t// in\n    tag_72:\n      swap1\n      pop\n        /* \"contracts/GasGolf.sol\":410:630  for(uint i=0;i<nums.length;i+=1){... */\n      jump(tag_56)\n    tag_57:\n      pop\n        /* \"contracts/GasGolf.sol\":337:637  function sumIfEventAndLessThan99(uint[] memory nums) external {... */\n      pop\n      jump\t// out\n        /* \"contracts/GasGolf.sol\":670:975  function sumIfEventAndLessThan99_2(uint[] calldata nums) external {... */\n    tag_27:\n        /* \"contracts/GasGolf.sol\":751:757  uint i */\n      0x00\n        /* \"contracts/GasGolf.sol\":747:968  for(uint i=0;i<nums.length;i+=1){... */\n    tag_74:\n        /* \"contracts/GasGolf.sol\":760:773  i<nums.length */\n      dup2\n      dup2\n      lt\n        /* \"contracts/GasGolf.sol\":747:968  for(uint i=0;i<nums.length;i+=1){... */\n      iszero\n      tag_75\n      jumpi\n        /* \"contracts/GasGolf.sol\":794:805  bool isEven */\n      0x00\n        /* \"contracts/GasGolf.sol\":814:815  2 */\n      0x02\n        /* \"contracts/GasGolf.sol\":806:810  nums */\n      dup5\n      dup5\n        /* \"contracts/GasGolf.sol\":811:812  i */\n      dup5\n        /* \"contracts/GasGolf.sol\":806:813  nums[i] */\n      dup2\n      dup2\n      lt\n      tag_78\n      jumpi\n      tag_78\n      tag_61\n      jump\t// in\n    tag_78:\n      swap1\n      pop\n      0x20\n      mul\n      add\n      calldataload\n        /* \"contracts/GasGolf.sol\":806:815  nums[i]%2 */\n      tag_79\n      swap2\n      swap1\n      tag_63\n      jump\t// in\n    tag_79:\n        /* \"contracts/GasGolf.sol\":806:818  nums[i]%2==0 */\n      iszero\n      swap1\n      pop\n        /* \"contracts/GasGolf.sol\":817:818  0 */\n      0x00\n        /* \"contracts/GasGolf.sol\":862:864  99 */\n      0x63\n        /* \"contracts/GasGolf.sol\":853:857  nums */\n      dup6\n      dup6\n        /* \"contracts/GasGolf.sol\":858:859  i */\n      dup6\n        /* \"contracts/GasGolf.sol\":853:860  nums[i] */\n      dup2\n      dup2\n      lt\n      tag_81\n      jumpi\n      tag_81\n      tag_61\n      jump\t// in\n    tag_81:\n      swap1\n      pop\n      0x20\n      mul\n      add\n      calldataload\n        /* \"contracts/GasGolf.sol\":853:864  nums[i] <99 */\n      lt\n        /* \"contracts/GasGolf.sol\":833:864  bool isLessThan99 = nums[i] <99 */\n      swap1\n      pop\n        /* \"contracts/GasGolf.sol\":882:888  isEven */\n      dup2\n        /* \"contracts/GasGolf.sol\":882:904  isEven && isLessThan99 */\n      dup1\n      iszero\n      tag_82\n      jumpi\n      pop\n        /* \"contracts/GasGolf.sol\":892:904  isLessThan99 */\n      dup1\n        /* \"contracts/GasGolf.sol\":882:904  isEven && isLessThan99 */\n    tag_82:\n        /* \"contracts/GasGolf.sol\":879:957  if(isEven && isLessThan99){... */\n      iszero\n      tag_83\n      jumpi\n        /* \"contracts/GasGolf.sol\":934:938  nums */\n      dup5\n      dup5\n        /* \"contracts/GasGolf.sol\":939:940  i */\n      dup5\n        /* \"contracts/GasGolf.sol\":934:941  nums[i] */\n      dup2\n      dup2\n      lt\n      tag_85\n      jumpi\n      tag_85\n      tag_61\n      jump\t// in\n    tag_85:\n      swap1\n      pop\n      0x20\n      mul\n      add\n      calldataload\n        /* \"contracts/GasGolf.sol\":924:930  total2 */\n      0x01\n      0x00\n        /* \"contracts/GasGolf.sol\":924:941  total2 += nums[i] */\n      dup3\n      dup3\n      sload\n      tag_86\n      swap2\n      swap1\n      tag_71\n      jump\t// in\n    tag_86:\n      swap1\n      swap2\n      sstore\n      pop\n      pop\n        /* \"contracts/GasGolf.sol\":879:957  if(isEven && isLessThan99){... */\n    tag_83:\n      pop\n        /* \"contracts/GasGolf.sol\":774:778  i+=1 */\n      tag_87\n      swap1\n      pop\n        /* \"contracts/GasGolf.sol\":777:778  1 */\n      0x01\n        /* \"contracts/GasGolf.sol\":774:778  i+=1 */\n      dup3\n      tag_71\n      jump\t// in\n    tag_87:\n      swap1\n      pop\n        /* \"contracts/GasGolf.sol\":747:968  for(uint i=0;i<nums.length;i+=1){... */\n      jump(tag_74)\n    tag_75:\n      pop\n        /* \"contracts/GasGolf.sol\":670:975  function sumIfEventAndLessThan99_2(uint[] calldata nums) external {... */\n      pop\n      pop\n      jump\t// out\n        /* \"contracts/GasGolf.sol\":2246:2656  function sumIfEventAndLessThan99_6(uint[] calldata nums) external {... */\n    tag_39:\n        /* \"contracts/GasGolf.sol\":2335:2341  total6 */\n      sload(0x05)\n        /* \"contracts/GasGolf.sol\":2323:2334  uint _total */\n      0x00\n        /* \"contracts/GasGolf.sol\":2352:2625  for(uint i=0;i<nums.length;i++){... */\n    tag_89:\n        /* \"contracts/GasGolf.sol\":2365:2378  i<nums.length */\n      dup3\n      dup2\n      lt\n        /* \"contracts/GasGolf.sol\":2352:2625  for(uint i=0;i<nums.length;i++){... */\n      iszero\n      tag_90\n      jumpi\n        /* \"contracts/GasGolf.sol\":2398:2407  uint numi */\n      0x00\n        /* \"contracts/GasGolf.sol\":2408:2412  nums */\n      dup5\n      dup5\n        /* \"contracts/GasGolf.sol\":2413:2414  i */\n      dup4\n        /* \"contracts/GasGolf.sol\":2408:2415  nums[i] */\n      dup2\n      dup2\n      lt\n      tag_93\n      jumpi\n      tag_93\n      tag_61\n      jump\t// in\n    tag_93:\n      swap1\n      pop\n      0x20\n      mul\n      add\n      calldataload\n        /* \"contracts/GasGolf.sol\":2398:2415  uint numi=nums[i] */\n      swap1\n      pop\n        /* \"contracts/GasGolf.sol\":2430:2441  bool isEven */\n      0x00\n        /* \"contracts/GasGolf.sol\":2447:2448  2 */\n      0x02\n        /* \"contracts/GasGolf.sol\":2442:2446  numi */\n      dup3\n        /* \"contracts/GasGolf.sol\":2442:2448  numi%2 */\n      tag_94\n      swap2\n      swap1\n      tag_63\n      jump\t// in\n    tag_94:\n        /* \"contracts/GasGolf.sol\":2442:2451  numi%2==0 */\n      iszero\n      swap1\n      pop\n      dup1\n        /* \"contracts/GasGolf.sol\":2546:2564  isEven && numi <99 */\n      dup1\n      iszero\n      tag_95\n      jumpi\n      pop\n        /* \"contracts/GasGolf.sol\":2562:2564  99 */\n      0x63\n        /* \"contracts/GasGolf.sol\":2556:2560  numi */\n      dup3\n        /* \"contracts/GasGolf.sol\":2556:2564  numi <99 */\n      lt\n        /* \"contracts/GasGolf.sol\":2546:2564  isEven && numi <99 */\n    tag_95:\n        /* \"contracts/GasGolf.sol\":2543:2614  if(isEven && numi <99){... */\n      iszero\n      tag_96\n      jumpi\n        /* \"contracts/GasGolf.sol\":2584:2598  _total += numi */\n      tag_97\n        /* \"contracts/GasGolf.sol\":2594:2598  numi */\n      dup3\n        /* \"contracts/GasGolf.sol\":2584:2598  _total += numi */\n      dup6\n      tag_71\n      jump\t// in\n    tag_97:\n      swap4\n      pop\n        /* \"contracts/GasGolf.sol\":2543:2614  if(isEven && numi <99){... */\n    tag_96:\n      pop\n      pop\n        /* \"contracts/GasGolf.sol\":2379:2382  i++ */\n      0x01\n      add\n        /* \"contracts/GasGolf.sol\":2352:2625  for(uint i=0;i<nums.length;i++){... */\n      jump(tag_89)\n    tag_90:\n      pop\n        /* \"contracts/GasGolf.sol\":2635:2641  total6 */\n      0x05\n        /* \"contracts/GasGolf.sol\":2635:2648  total6=_total */\n      sstore\n      pop\n      pop\n        /* \"contracts/GasGolf.sol\":2246:2656  function sumIfEventAndLessThan99_6(uint[] calldata nums) external {... */\n      jump\t// out\n        /* \"contracts/GasGolf.sol\":1012:1370  function sumIfEventAndLessThan99_3(uint[] calldata nums) external {... */\n    tag_48:\n        /* \"contracts/GasGolf.sol\":1101:1107  total3 */\n      sload(0x02)\n        /* \"contracts/GasGolf.sol\":1089:1100  uint _total */\n      0x00\n        /* \"contracts/GasGolf.sol\":1118:1339  for(uint i=0;i<nums.length;i+=1){... */\n    tag_99:\n        /* \"contracts/GasGolf.sol\":1131:1144  i<nums.length */\n      dup3\n      dup2\n      lt\n        /* \"contracts/GasGolf.sol\":1118:1339  for(uint i=0;i<nums.length;i+=1){... */\n      iszero\n      tag_100\n      jumpi\n        /* \"contracts/GasGolf.sol\":1165:1176  bool isEven */\n      0x00\n        /* \"contracts/GasGolf.sol\":1185:1186  2 */\n      0x02\n        /* \"contracts/GasGolf.sol\":1177:1181  nums */\n      dup6\n      dup6\n        /* \"contracts/GasGolf.sol\":1182:1183  i */\n      dup5\n        /* \"contracts/GasGolf.sol\":1177:1184  nums[i] */\n      dup2\n      dup2\n      lt\n      tag_103\n      jumpi\n      tag_103\n      tag_61\n      jump\t// in\n    tag_103:\n      swap1\n      pop\n      0x20\n      mul\n      add\n      calldataload\n        /* \"contracts/GasGolf.sol\":1177:1186  nums[i]%2 */\n      tag_104\n      swap2\n      swap1\n      tag_63\n      jump\t// in\n    tag_104:\n        /* \"contracts/GasGolf.sol\":1177:1189  nums[i]%2==0 */\n      iszero\n      swap1\n      pop\n        /* \"contracts/GasGolf.sol\":1188:1189  0 */\n      0x00\n        /* \"contracts/GasGolf.sol\":1233:1235  99 */\n      0x63\n        /* \"contracts/GasGolf.sol\":1224:1228  nums */\n      dup7\n      dup7\n        /* \"contracts/GasGolf.sol\":1229:1230  i */\n      dup6\n        /* \"contracts/GasGolf.sol\":1224:1231  nums[i] */\n      dup2\n      dup2\n      lt\n      tag_106\n      jumpi\n      tag_106\n      tag_61\n      jump\t// in\n    tag_106:\n      swap1\n      pop\n      0x20\n      mul\n      add\n      calldataload\n        /* \"contracts/GasGolf.sol\":1224:1235  nums[i] <99 */\n      lt\n        /* \"contracts/GasGolf.sol\":1204:1235  bool isLessThan99 = nums[i] <99 */\n      swap1\n      pop\n        /* \"contracts/GasGolf.sol\":1253:1259  isEven */\n      dup2\n        /* \"contracts/GasGolf.sol\":1253:1275  isEven && isLessThan99 */\n      dup1\n      iszero\n      tag_107\n      jumpi\n      pop\n        /* \"contracts/GasGolf.sol\":1263:1275  isLessThan99 */\n      dup1\n        /* \"contracts/GasGolf.sol\":1253:1275  isEven && isLessThan99 */\n    tag_107:\n        /* \"contracts/GasGolf.sol\":1250:1328  if(isEven && isLessThan99){... */\n      iszero\n      tag_108\n      jumpi\n        /* \"contracts/GasGolf.sol\":1305:1309  nums */\n      dup6\n      dup6\n        /* \"contracts/GasGolf.sol\":1310:1311  i */\n      dup5\n        /* \"contracts/GasGolf.sol\":1305:1312  nums[i] */\n      dup2\n      dup2\n      lt\n      tag_110\n      jumpi\n      tag_110\n      tag_61\n      jump\t// in\n    tag_110:\n      swap1\n      pop\n      0x20\n      mul\n      add\n      calldataload\n        /* \"contracts/GasGolf.sol\":1295:1312  _total += nums[i] */\n      dup5\n      tag_111\n      swap2\n      swap1\n      tag_71\n      jump\t// in\n    tag_111:\n      swap4\n      pop\n        /* \"contracts/GasGolf.sol\":1250:1328  if(isEven && isLessThan99){... */\n    tag_108:\n      pop\n        /* \"contracts/GasGolf.sol\":1145:1149  i+=1 */\n      tag_112\n      swap1\n      pop\n        /* \"contracts/GasGolf.sol\":1148:1149  1 */\n      0x01\n        /* \"contracts/GasGolf.sol\":1145:1149  i+=1 */\n      dup3\n      tag_71\n      jump\t// in\n    tag_112:\n      swap1\n      pop\n        /* \"contracts/GasGolf.sol\":1118:1339  for(uint i=0;i<nums.length;i+=1){... */\n      jump(tag_99)\n    tag_100:\n      pop\n        /* \"contracts/GasGolf.sol\":1349:1355  total3 */\n      0x02\n        /* \"contracts/GasGolf.sol\":1349:1362  total3=_total */\n      sstore\n      pop\n      pop\n        /* \"contracts/GasGolf.sol\":1012:1370  function sumIfEventAndLessThan99_3(uint[] calldata nums) external {... */\n      jump\t// out\n        /* \"contracts/GasGolf.sol\":1824:2211  function sumIfEventAndLessThan99_5(uint[] calldata nums) external {... */\n    tag_51:\n        /* \"contracts/GasGolf.sol\":1913:1919  total5 */\n      sload(0x04)\n        /* \"contracts/GasGolf.sol\":1901:1912  uint _total */\n      0x00\n        /* \"contracts/GasGolf.sol\":1930:2180  for(uint i=0;i<nums.length;i++){... */\n    tag_114:\n        /* \"contracts/GasGolf.sol\":1943:1956  i<nums.length */\n      dup3\n      dup2\n      lt\n        /* \"contracts/GasGolf.sol\":1930:2180  for(uint i=0;i<nums.length;i++){... */\n      iszero\n      tag_115\n      jumpi\n        /* \"contracts/GasGolf.sol\":1976:1987  bool isEven */\n      0x00\n        /* \"contracts/GasGolf.sol\":1996:1997  2 */\n      0x02\n        /* \"contracts/GasGolf.sol\":1988:1992  nums */\n      dup6\n      dup6\n        /* \"contracts/GasGolf.sol\":1993:1994  i */\n      dup5\n        /* \"contracts/GasGolf.sol\":1988:1995  nums[i] */\n      dup2\n      dup2\n      lt\n      tag_118\n      jumpi\n      tag_118\n      tag_61\n      jump\t// in\n    tag_118:\n      swap1\n      pop\n      0x20\n      mul\n      add\n      calldataload\n        /* \"contracts/GasGolf.sol\":1988:1997  nums[i]%2 */\n      tag_119\n      swap2\n      swap1\n      tag_63\n      jump\t// in\n    tag_119:\n        /* \"contracts/GasGolf.sol\":1988:2000  nums[i]%2==0 */\n      iszero\n      swap1\n      pop\n      dup1\n        /* \"contracts/GasGolf.sol\":2095:2116  isEven && nums[i] <99 */\n      dup1\n      iszero\n      tag_120\n      jumpi\n      pop\n        /* \"contracts/GasGolf.sol\":2114:2116  99 */\n      0x63\n        /* \"contracts/GasGolf.sol\":2105:2109  nums */\n      dup6\n      dup6\n        /* \"contracts/GasGolf.sol\":2110:2111  i */\n      dup5\n        /* \"contracts/GasGolf.sol\":2105:2112  nums[i] */\n      dup2\n      dup2\n      lt\n      tag_122\n      jumpi\n      tag_122\n      tag_61\n      jump\t// in\n    tag_122:\n      swap1\n      pop\n      0x20\n      mul\n      add\n      calldataload\n        /* \"contracts/GasGolf.sol\":2105:2116  nums[i] <99 */\n      lt\n        /* \"contracts/GasGolf.sol\":2095:2116  isEven && nums[i] <99 */\n    tag_120:\n        /* \"contracts/GasGolf.sol\":2092:2169  if(isEven && nums[i] <99){... */\n      iszero\n      tag_123\n      jumpi\n        /* \"contracts/GasGolf.sol\":2146:2150  nums */\n      dup5\n      dup5\n        /* \"contracts/GasGolf.sol\":2151:2152  i */\n      dup4\n        /* \"contracts/GasGolf.sol\":2146:2153  nums[i] */\n      dup2\n      dup2\n      lt\n      tag_125\n      jumpi\n      tag_125\n      tag_61\n      jump\t// in\n    tag_125:\n      swap1\n      pop\n      0x20\n      mul\n      add\n      calldataload\n        /* \"contracts/GasGolf.sol\":2136:2153  _total += nums[i] */\n      dup4\n      tag_126\n      swap2\n      swap1\n      tag_71\n      jump\t// in\n    tag_126:\n      swap3\n      pop\n        /* \"contracts/GasGolf.sol\":2092:2169  if(isEven && nums[i] <99){... */\n    tag_123:\n      pop\n        /* \"contracts/GasGolf.sol\":1957:1960  i++ */\n      0x01\n      add\n        /* \"contracts/GasGolf.sol\":1930:2180  for(uint i=0;i<nums.length;i++){... */\n      jump(tag_114)\n    tag_115:\n      pop\n        /* \"contracts/GasGolf.sol\":2190:2196  total5 */\n      0x04\n        /* \"contracts/GasGolf.sol\":2190:2203  total5=_total */\n      sstore\n      pop\n      pop\n        /* \"contracts/GasGolf.sol\":1824:2211  function sumIfEventAndLessThan99_5(uint[] calldata nums) external {... */\n      jump\t// out\n        /* \"contracts/GasGolf.sol\":1403:1791  function sumIfEventAndLessThan99_4(uint[] calldata nums) external {... */\n    tag_54:\n        /* \"contracts/GasGolf.sol\":1492:1498  total4 */\n      sload(0x03)\n        /* \"contracts/GasGolf.sol\":1480:1491  uint _total */\n      0x00\n        /* \"contracts/GasGolf.sol\":1509:1760  for(uint i=0;i<nums.length;i+=1){... */\n    tag_128:\n        /* \"contracts/GasGolf.sol\":1522:1535  i<nums.length */\n      dup3\n      dup2\n      lt\n        /* \"contracts/GasGolf.sol\":1509:1760  for(uint i=0;i<nums.length;i+=1){... */\n      iszero\n      tag_129\n      jumpi\n        /* \"contracts/GasGolf.sol\":1556:1567  bool isEven */\n      0x00\n        /* \"contracts/GasGolf.sol\":1576:1577  2 */\n      0x02\n        /* \"contracts/GasGolf.sol\":1568:1572  nums */\n      dup6\n      dup6\n        /* \"contracts/GasGolf.sol\":1573:1574  i */\n      dup5\n        /* \"contracts/GasGolf.sol\":1568:1575  nums[i] */\n      dup2\n      dup2\n      lt\n      tag_132\n      jumpi\n      tag_132\n      tag_61\n      jump\t// in\n    tag_132:\n      swap1\n      pop\n      0x20\n      mul\n      add\n      calldataload\n        /* \"contracts/GasGolf.sol\":1568:1577  nums[i]%2 */\n      tag_133\n      swap2\n      swap1\n      tag_63\n      jump\t// in\n    tag_133:\n        /* \"contracts/GasGolf.sol\":1568:1580  nums[i]%2==0 */\n      iszero\n      swap1\n      pop\n      dup1\n        /* \"contracts/GasGolf.sol\":1675:1696  isEven && nums[i] <99 */\n      dup1\n      iszero\n      tag_134\n      jumpi\n      pop\n        /* \"contracts/GasGolf.sol\":1694:1696  99 */\n      0x63\n        /* \"contracts/GasGolf.sol\":1685:1689  nums */\n      dup6\n      dup6\n        /* \"contracts/GasGolf.sol\":1690:1691  i */\n      dup5\n        /* \"contracts/GasGolf.sol\":1685:1692  nums[i] */\n      dup2\n      dup2\n      lt\n      tag_136\n      jumpi\n      tag_136\n      tag_61\n      jump\t// in\n    tag_136:\n      swap1\n      pop\n      0x20\n      mul\n      add\n      calldataload\n        /* \"contracts/GasGolf.sol\":1685:1696  nums[i] <99 */\n      lt\n        /* \"contracts/GasGolf.sol\":1675:1696  isEven && nums[i] <99 */\n    tag_134:\n        /* \"contracts/GasGolf.sol\":1672:1749  if(isEven && nums[i] <99){... */\n      iszero\n      tag_137\n      jumpi\n        /* \"contracts/GasGolf.sol\":1726:1730  nums */\n      dup5\n      dup5\n        /* \"contracts/GasGolf.sol\":1731:1732  i */\n      dup4\n        /* \"contracts/GasGolf.sol\":1726:1733  nums[i] */\n      dup2\n      dup2\n      lt\n      tag_139\n      jumpi\n      tag_139\n      tag_61\n      jump\t// in\n    tag_139:\n      swap1\n      pop\n      0x20\n      mul\n      add\n      calldataload\n        /* \"contracts/GasGolf.sol\":1716:1733  _total += nums[i] */\n      dup4\n      tag_140\n      swap2\n      swap1\n      tag_71\n      jump\t// in\n    tag_140:\n      swap3\n      pop\n        /* \"contracts/GasGolf.sol\":1672:1749  if(isEven && nums[i] <99){... */\n    tag_137:\n      pop\n        /* \"contracts/GasGolf.sol\":1536:1540  i+=1 */\n      tag_141\n        /* \"contracts/GasGolf.sol\":1539:1540  1 */\n      0x01\n        /* \"contracts/GasGolf.sol\":1536:1540  i+=1 */\n      dup3\n      tag_71\n      jump\t// in\n    tag_141:\n      swap1\n      pop\n        /* \"contracts/GasGolf.sol\":1509:1760  for(uint i=0;i<nums.length;i+=1){... */\n      jump(tag_128)\n    tag_129:\n      pop\n        /* \"contracts/GasGolf.sol\":1770:1776  total4 */\n      0x03\n        /* \"contracts/GasGolf.sol\":1770:1783  total4=_total */\n      sstore\n      pop\n      pop\n        /* \"contracts/GasGolf.sol\":1403:1791  function sumIfEventAndLessThan99_4(uint[] calldata nums) external {... */\n      jump\t// out\n        /* \"#utility.yul\":14:141   */\n    tag_142:\n        /* \"#utility.yul\":75:85   */\n      0x4e487b71\n        /* \"#utility.yul\":70:73   */\n      0xe0\n        /* \"#utility.yul\":66:86   */\n      shl\n        /* \"#utility.yul\":63:64   */\n      0x00\n        /* \"#utility.yul\":56:87   */\n      mstore\n        /* \"#utility.yul\":106:110   */\n      0x41\n        /* \"#utility.yul\":103:104   */\n      0x04\n        /* \"#utility.yul\":96:111   */\n      mstore\n        /* \"#utility.yul\":130:134   */\n      0x24\n        /* \"#utility.yul\":127:128   */\n      0x00\n        /* \"#utility.yul\":120:135   */\n      revert\n        /* \"#utility.yul\":146:1321   */\n    tag_18:\n        /* \"#utility.yul\":230:236   */\n      0x00\n        /* \"#utility.yul\":283:285   */\n      0x20\n        /* \"#utility.yul\":271:280   */\n      dup3\n        /* \"#utility.yul\":262:269   */\n      dup5\n        /* \"#utility.yul\":258:281   */\n      sub\n        /* \"#utility.yul\":254:286   */\n      slt\n        /* \"#utility.yul\":251:303   */\n      iszero\n      tag_146\n      jumpi\n        /* \"#utility.yul\":299:300   */\n      0x00\n        /* \"#utility.yul\":296:297   */\n      0x00\n        /* \"#utility.yul\":289:301   */\n      revert\n        /* \"#utility.yul\":251:303   */\n    tag_146:\n        /* \"#utility.yul\":339:348   */\n      dup2\n        /* \"#utility.yul\":326:349   */\n      calldataload\n        /* \"#utility.yul\":372:390   */\n      0xffffffffffffffff\n        /* \"#utility.yul\":364:370   */\n      dup2\n        /* \"#utility.yul\":361:391   */\n      gt\n        /* \"#utility.yul\":358:408   */\n      iszero\n      tag_147\n      jumpi\n        /* \"#utility.yul\":404:405   */\n      0x00\n        /* \"#utility.yul\":401:402   */\n      0x00\n        /* \"#utility.yul\":394:406   */\n      revert\n        /* \"#utility.yul\":358:408   */\n    tag_147:\n        /* \"#utility.yul\":427:449   */\n      dup3\n      add\n        /* \"#utility.yul\":480:484   */\n      0x1f\n        /* \"#utility.yul\":472:485   */\n      dup2\n      add\n        /* \"#utility.yul\":468:495   */\n      dup5\n      sgt\n        /* \"#utility.yul\":458:513   */\n      tag_148\n      jumpi\n        /* \"#utility.yul\":509:510   */\n      0x00\n        /* \"#utility.yul\":506:507   */\n      0x00\n        /* \"#utility.yul\":499:511   */\n      revert\n        /* \"#utility.yul\":458:513   */\n    tag_148:\n        /* \"#utility.yul\":549:551   */\n      dup1\n        /* \"#utility.yul\":536:552   */\n      calldataload\n        /* \"#utility.yul\":575:593   */\n      0xffffffffffffffff\n        /* \"#utility.yul\":567:573   */\n      dup2\n        /* \"#utility.yul\":564:594   */\n      gt\n        /* \"#utility.yul\":561:617   */\n      iszero\n      tag_150\n      jumpi\n        /* \"#utility.yul\":597:615   */\n      tag_150\n      tag_142\n      jump\t// in\n    tag_150:\n        /* \"#utility.yul\":643:649   */\n      dup1\n        /* \"#utility.yul\":640:641   */\n      0x05\n        /* \"#utility.yul\":636:650   */\n      shl\n        /* \"#utility.yul\":679:681   */\n      0x40\n        /* \"#utility.yul\":673:682   */\n      mload\n        /* \"#utility.yul\":742:744   */\n      0x1f\n        /* \"#utility.yul\":738:745   */\n      not\n        /* \"#utility.yul\":733:735   */\n      0x3f\n        /* \"#utility.yul\":729:731   */\n      dup4\n        /* \"#utility.yul\":725:736   */\n      add\n        /* \"#utility.yul\":721:746   */\n      and\n        /* \"#utility.yul\":713:719   */\n      dup2\n        /* \"#utility.yul\":709:747   */\n      add\n        /* \"#utility.yul\":813:819   */\n      dup2\n        /* \"#utility.yul\":801:811   */\n      dup2\n        /* \"#utility.yul\":798:820   */\n      lt\n        /* \"#utility.yul\":777:795   */\n      0xffffffffffffffff\n        /* \"#utility.yul\":765:775   */\n      dup3\n        /* \"#utility.yul\":762:796   */\n      gt\n        /* \"#utility.yul\":759:821   */\n      or\n        /* \"#utility.yul\":756:844   */\n      iszero\n      tag_152\n      jumpi\n        /* \"#utility.yul\":824:842   */\n      tag_152\n      tag_142\n      jump\t// in\n    tag_152:\n        /* \"#utility.yul\":860:862   */\n      0x40\n        /* \"#utility.yul\":853:875   */\n      mstore\n        /* \"#utility.yul\":910:932   */\n      swap2\n      dup3\n      mstore\n        /* \"#utility.yul\":960:962   */\n      0x20\n        /* \"#utility.yul\":990:1001   */\n      dup2\n      dup5\n      add\n        /* \"#utility.yul\":986:1006   */\n      dup2\n      add\n      swap3\n        /* \"#utility.yul\":910:932   */\n      swap1\n        /* \"#utility.yul\":948:963   */\n      dup2\n      add\n        /* \"#utility.yul\":1018:1037   */\n      dup8\n      dup5\n      gt\n        /* \"#utility.yul\":1015:1054   */\n      iszero\n      tag_153\n      jumpi\n        /* \"#utility.yul\":1050:1051   */\n      0x00\n        /* \"#utility.yul\":1047:1048   */\n      0x00\n        /* \"#utility.yul\":1040:1052   */\n      revert\n        /* \"#utility.yul\":1015:1054   */\n    tag_153:\n        /* \"#utility.yul\":1082:1084   */\n      0x20\n        /* \"#utility.yul\":1078:1080   */\n      dup6\n        /* \"#utility.yul\":1074:1085   */\n      add\n        /* \"#utility.yul\":1063:1085   */\n      swap5\n      pop\n        /* \"#utility.yul\":1094:1290   */\n    tag_154:\n        /* \"#utility.yul\":1110:1116   */\n      dup4\n        /* \"#utility.yul\":1105:1108   */\n      dup6\n        /* \"#utility.yul\":1102:1117   */\n      lt\n        /* \"#utility.yul\":1094:1290   */\n      iszero\n      tag_156\n      jumpi\n        /* \"#utility.yul\":1200:1217   */\n      dup5\n      calldataload\n        /* \"#utility.yul\":1230:1248   */\n      dup1\n      dup3\n      mstore\n        /* \"#utility.yul\":1277:1279   */\n      0x20\n        /* \"#utility.yul\":1127:1139   */\n      swap6\n      dup7\n      add\n      swap6\n        /* \"#utility.yul\":1200:1217   */\n      swap1\n      swap4\n      pop\n        /* \"#utility.yul\":1268:1280   */\n      add\n        /* \"#utility.yul\":1094:1290   */\n      jump(tag_154)\n    tag_156:\n      pop\n        /* \"#utility.yul\":1309:1315   */\n      swap7\n        /* \"#utility.yul\":146:1321   */\n      swap6\n      pop\n      pop\n      pop\n      pop\n      pop\n      pop\n      jump\t// out\n        /* \"#utility.yul\":1508:2118   */\n    tag_26:\n        /* \"#utility.yul\":1594:1600   */\n      0x00\n        /* \"#utility.yul\":1602:1608   */\n      0x00\n        /* \"#utility.yul\":1655:1657   */\n      0x20\n        /* \"#utility.yul\":1643:1652   */\n      dup4\n        /* \"#utility.yul\":1634:1641   */\n      dup6\n        /* \"#utility.yul\":1630:1653   */\n      sub\n        /* \"#utility.yul\":1626:1658   */\n      slt\n        /* \"#utility.yul\":1623:1675   */\n      iszero\n      tag_159\n      jumpi\n        /* \"#utility.yul\":1671:1672   */\n      0x00\n        /* \"#utility.yul\":1668:1669   */\n      0x00\n        /* \"#utility.yul\":1661:1673   */\n      revert\n        /* \"#utility.yul\":1623:1675   */\n    tag_159:\n        /* \"#utility.yul\":1711:1720   */\n      dup3\n        /* \"#utility.yul\":1698:1721   */\n      calldataload\n        /* \"#utility.yul\":1744:1762   */\n      0xffffffffffffffff\n        /* \"#utility.yul\":1736:1742   */\n      dup2\n        /* \"#utility.yul\":1733:1763   */\n      gt\n        /* \"#utility.yul\":1730:1780   */\n      iszero\n      tag_160\n      jumpi\n        /* \"#utility.yul\":1776:1777   */\n      0x00\n        /* \"#utility.yul\":1773:1774   */\n      0x00\n        /* \"#utility.yul\":1766:1778   */\n      revert\n        /* \"#utility.yul\":1730:1780   */\n    tag_160:\n        /* \"#utility.yul\":1799:1821   */\n      dup4\n      add\n        /* \"#utility.yul\":1852:1856   */\n      0x1f\n        /* \"#utility.yul\":1844:1857   */\n      dup2\n      add\n        /* \"#utility.yul\":1840:1867   */\n      dup6\n      sgt\n        /* \"#utility.yul\":1830:1885   */\n      tag_161\n      jumpi\n        /* \"#utility.yul\":1881:1882   */\n      0x00\n        /* \"#utility.yul\":1878:1879   */\n      0x00\n        /* \"#utility.yul\":1871:1883   */\n      revert\n        /* \"#utility.yul\":1830:1885   */\n    tag_161:\n        /* \"#utility.yul\":1921:1923   */\n      dup1\n        /* \"#utility.yul\":1908:1924   */\n      calldataload\n        /* \"#utility.yul\":1947:1965   */\n      0xffffffffffffffff\n        /* \"#utility.yul\":1939:1945   */\n      dup2\n        /* \"#utility.yul\":1936:1966   */\n      gt\n        /* \"#utility.yul\":1933:1983   */\n      iszero\n      tag_162\n      jumpi\n        /* \"#utility.yul\":1979:1980   */\n      0x00\n        /* \"#utility.yul\":1976:1977   */\n      0x00\n        /* \"#utility.yul\":1969:1981   */\n      revert\n        /* \"#utility.yul\":1933:1983   */\n    tag_162:\n        /* \"#utility.yul\":2032:2039   */\n      dup6\n        /* \"#utility.yul\":2027:2029   */\n      0x20\n        /* \"#utility.yul\":2017:2023   */\n      dup3\n        /* \"#utility.yul\":2014:2015   */\n      0x05\n        /* \"#utility.yul\":2010:2024   */\n      shl\n        /* \"#utility.yul\":2006:2008   */\n      dup5\n        /* \"#utility.yul\":2002:2025   */\n      add\n        /* \"#utility.yul\":1998:2030   */\n      add\n        /* \"#utility.yul\":1995:2040   */\n      gt\n        /* \"#utility.yul\":1992:2057   */\n      iszero\n      tag_163\n      jumpi\n        /* \"#utility.yul\":2053:2054   */\n      0x00\n        /* \"#utility.yul\":2050:2051   */\n      0x00\n        /* \"#utility.yul\":2043:2055   */\n      revert\n        /* \"#utility.yul\":1992:2057   */\n    tag_163:\n        /* \"#utility.yul\":2084:2086   */\n      0x20\n        /* \"#utility.yul\":2076:2087   */\n      swap2\n      swap1\n      swap2\n      add\n      swap6\n        /* \"#utility.yul\":2106:2112   */\n      swap1\n      swap5\n      pop\n        /* \"#utility.yul\":1508:2118   */\n      swap3\n      pop\n      pop\n      pop\n      jump\t// out\n        /* \"#utility.yul\":2123:2250   */\n    tag_61:\n        /* \"#utility.yul\":2184:2194   */\n      0x4e487b71\n        /* \"#utility.yul\":2179:2182   */\n      0xe0\n        /* \"#utility.yul\":2175:2195   */\n      shl\n        /* \"#utility.yul\":2172:2173   */\n      0x00\n        /* \"#utility.yul\":2165:2196   */\n      mstore\n        /* \"#utility.yul\":2215:2219   */\n      0x32\n        /* \"#utility.yul\":2212:2213   */\n      0x04\n        /* \"#utility.yul\":2205:2220   */\n      mstore\n        /* \"#utility.yul\":2239:2243   */\n      0x24\n        /* \"#utility.yul\":2236:2237   */\n      0x00\n        /* \"#utility.yul\":2229:2244   */\n      revert\n        /* \"#utility.yul\":2255:2464   */\n    tag_63:\n        /* \"#utility.yul\":2287:2288   */\n      0x00\n        /* \"#utility.yul\":2313:2314   */\n      dup3\n        /* \"#utility.yul\":2303:2435   */\n      tag_166\n      jumpi\n        /* \"#utility.yul\":2357:2367   */\n      0x4e487b71\n        /* \"#utility.yul\":2352:2355   */\n      0xe0\n        /* \"#utility.yul\":2348:2368   */\n      shl\n        /* \"#utility.yul\":2345:2346   */\n      0x00\n        /* \"#utility.yul\":2338:2369   */\n      mstore\n        /* \"#utility.yul\":2392:2396   */\n      0x12\n        /* \"#utility.yul\":2389:2390   */\n      0x04\n        /* \"#utility.yul\":2382:2397   */\n      mstore\n        /* \"#utility.yul\":2420:2424   */\n      0x24\n        /* \"#utility.yul\":2417:2418   */\n      0x00\n        /* \"#utility.yul\":2410:2425   */\n      revert\n        /* \"#utility.yul\":2303:2435   */\n    tag_166:\n      pop\n        /* \"#utility.yul\":2449:2458   */\n      mod\n      swap1\n        /* \"#utility.yul\":2255:2464   */\n      jump\t// out\n        /* \"#utility.yul\":2469:2691   */\n    tag_71:\n        /* \"#utility.yul\":2534:2543   */\n      dup1\n      dup3\n      add\n        /* \"#utility.yul\":2555:2565   */\n      dup1\n      dup3\n      gt\n        /* \"#utility.yul\":2552:2685   */\n      iszero\n      tag_168\n      jumpi\n        /* \"#utility.yul\":2607:2617   */\n      0x4e487b71\n        /* \"#utility.yul\":2602:2605   */\n      0xe0\n        /* \"#utility.yul\":2598:2618   */\n      shl\n        /* \"#utility.yul\":2595:2596   */\n      0x00\n        /* \"#utility.yul\":2588:2619   */\n      mstore\n        /* \"#utility.yul\":2642:2646   */\n      0x11\n        /* \"#utility.yul\":2639:2640   */\n      0x04\n        /* \"#utility.yul\":2632:2647   */\n      mstore\n        /* \"#utility.yul\":2670:2674   */\n      0x24\n        /* \"#utility.yul\":2667:2668   */\n      0x00\n        /* \"#utility.yul\":2660:2675   */\n      revert\n        /* \"#utility.yul\":2552:2685   */\n    tag_168:\n        /* \"#utility.yul\":2469:2691   */\n      swap3\n      swap2\n      pop\n      pop\n      jump\t// out\n\n    auxdata: 0xa26469706673582212200177d3ec88106832c9a585743a03d084ce3b2568d4d1fd7213e9f7426cf8109064736f6c634300081d0033\n}\n",
				"bytecode": {
					"linkReferences": {},
					"object": "6080604052348015600e575f5ffd5b506106ef8061001c5f395ff3fe608060405234801561000f575f5ffd5b50600436106100b1575f3560e01c80638b2497fe1161006e5780638b2497fe146101125780639b726dc014610125578063a5a0823e1461012e578063d027a27d14610137578063dcc0105d1461014a578063f15085721461015d575f5ffd5b806311acfec4146100b55780631203bf54146100ca578063188dc0a5146100e557806320ac2263146100f85780632ddbd13a146101015780635f36e8c214610109575b5f5ffd5b6100c86100c3366004610528565b610170565b005b6100d360055481565b60405190815260200160405180910390f35b6100c86100f33660046105f0565b61021d565b6100d360035481565b6100d35f5481565b6100d360025481565b6100c86101203660046105f0565b6102c7565b6100d360045481565b6100d360015481565b6100c86101453660046105f0565b610332565b6100c86101583660046105f0565b6103da565b6100c861016b3660046105f0565b610472565b5f5b8151811015610219575f600283838151811061019057610190610661565b60200260200101516101a29190610675565b5f1490505f60638484815181106101bb576101bb610661565b60200260200101511090508180156101d05750805b15610204578383815181106101e7576101e7610661565b60200260200101515f5f8282546101fe9190610694565b90915550505b506102129050600182610694565b9050610172565b5050565b5f5b818110156102c2575f600284848481811061023c5761023c610661565b9050602002013561024d9190610675565b1590505f606385858581811061026557610265610661565b905060200201351090508180156102795750805b156102ad5784848481811061029057610290610661565b9050602002013560015f8282546102a79190610694565b90915550505b506102bb9050600182610694565b905061021f565b505050565b6005545f5b8281101561032a575f8484838181106102e7576102e7610661565b9050602002013590505f6002826102fe9190610675565b15905080801561030e5750606382105b156103205761031d8285610694565b93505b50506001016102cc565b506005555050565b6002545f5b828110156103d2575f600285858481811061035457610354610661565b905060200201356103659190610675565b1590505f606386868581811061037d5761037d610661565b905060200201351090508180156103915750805b156103bd578585848181106103a8576103a8610661565b90506020020135846103ba9190610694565b93505b506103cb9050600182610694565b9050610337565b506002555050565b6004545f5b8281101561046a575f60028585848181106103fc576103fc610661565b9050602002013561040d9190610675565b1590508080156104355750606385858481811061042c5761042c610661565b90506020020135105b156104615784848381811061044c5761044c610661565b905060200201358361045e9190610694565b92505b506001016103df565b506004555050565b6003545f5b8281101561050c575f600285858481811061049457610494610661565b905060200201356104a59190610675565b1590508080156104cd575060638585848181106104c4576104c4610661565b90506020020135105b156104f9578484838181106104e4576104e4610661565b90506020020135836104f69190610694565b92505b50610505600182610694565b9050610477565b506003555050565b634e487b7160e01b5f52604160045260245ffd5b5f60208284031215610538575f5ffd5b813567ffffffffffffffff81111561054e575f5ffd5b8201601f8101841361055e575f5ffd5b803567ffffffffffffffff81111561057857610578610514565b8060051b604051601f19603f830116810181811067ffffffffffffffff821117156105a5576105a5610514565b6040529182526020818401810192908101878411156105c2575f5ffd5b6020850194505b838510156105e5578435808252602095860195909350016105c9565b509695505050505050565b5f5f60208385031215610601575f5ffd5b823567ffffffffffffffff811115610617575f5ffd5b8301601f81018513610627575f5ffd5b803567ffffffffffffffff81111561063d575f5ffd5b8560208260051b8401011115610651575f5ffd5b6020919091019590945092505050565b634e487b7160e01b5f52603260045260245ffd5b5f8261068f57634e487b7160e01b5f52601260045260245ffd5b500690565b808201808211156106b357634e487b7160e01b5f52601160045260245ffd5b9291505056fea26469706673582212200177d3ec88106832c9a585743a03d084ce3b2568d4d1fd7213e9f7426cf8109064736f6c634300081d0033",
					"opcodes": "PUSH1 0x80 PUSH1 0x40 MSTORE CALLVALUE DUP1 ISZERO PUSH1 0xE JUMPI PUSH0 PUSH0 REVERT JUMPDEST POP PUSH2 0x6EF DUP1 PUSH2 0x1C PUSH0 CODECOPY PUSH0 RETURN INVALID PUSH1 0x80 PUSH1 0x40 MSTORE CALLVALUE DUP1 ISZERO PUSH2 0xF JUMPI PUSH0 PUSH0 REVERT JUMPDEST POP PUSH1 0x4 CALLDATASIZE LT PUSH2 0xB1 JUMPI PUSH0 CALLDATALOAD PUSH1 0xE0 SHR DUP1 PUSH4 0x8B2497FE GT PUSH2 0x6E JUMPI DUP1 PUSH4 0x8B2497FE EQ PUSH2 0x112 JUMPI DUP1 PUSH4 0x9B726DC0 EQ PUSH2 0x125 JUMPI DUP1 PUSH4 0xA5A0823E EQ PUSH2 0x12E JUMPI DUP1 PUSH4 0xD027A27D EQ PUSH2 0x137 JUMPI DUP1 PUSH4 0xDCC0105D EQ PUSH2 0x14A JUMPI DUP1 PUSH4 0xF1508572 EQ PUSH2 0x15D JUMPI PUSH0 PUSH0 REVERT JUMPDEST DUP1 PUSH4 0x11ACFEC4 EQ PUSH2 0xB5 JUMPI DUP1 PUSH4 0x1203BF54 EQ PUSH2 0xCA JUMPI DUP1 PUSH4 0x188DC0A5 EQ PUSH2 0xE5 JUMPI DUP1 PUSH4 0x20AC2263 EQ PUSH2 0xF8 JUMPI DUP1 PUSH4 0x2DDBD13A EQ PUSH2 0x101 JUMPI DUP1 PUSH4 0x5F36E8C2 EQ PUSH2 0x109 JUMPI JUMPDEST PUSH0 PUSH0 REVERT JUMPDEST PUSH2 0xC8 PUSH2 0xC3 CALLDATASIZE PUSH1 0x4 PUSH2 0x528 JUMP JUMPDEST PUSH2 0x170 JUMP JUMPDEST STOP JUMPDEST PUSH2 0xD3 PUSH1 0x5 SLOAD DUP2 JUMP JUMPDEST PUSH1 0x40 MLOAD SWAP1 DUP2 MSTORE PUSH1 0x20 ADD PUSH1 0x40 MLOAD DUP1 SWAP2 SUB SWAP1 RETURN JUMPDEST PUSH2 0xC8 PUSH2 0xF3 CALLDATASIZE PUSH1 0x4 PUSH2 0x5F0 JUMP JUMPDEST PUSH2 0x21D JUMP JUMPDEST PUSH2 0xD3 PUSH1 0x3 SLOAD DUP2 JUMP JUMPDEST PUSH2 0xD3 PUSH0 SLOAD DUP2 JUMP JUMPDEST PUSH2 0xD3 PUSH1 0x2 SLOAD DUP2 JUMP JUMPDEST PUSH2 0xC8 PUSH2 0x120 CALLDATASIZE PUSH1 0x4 PUSH2 0x5F0 JUMP JUMPDEST PUSH2 0x2C7 JUMP JUMPDEST PUSH2 0xD3 PUSH1 0x4 SLOAD DUP2 JUMP JUMPDEST PUSH2 0xD3 PUSH1 0x1 SLOAD DUP2 JUMP JUMPDEST PUSH2 0xC8 PUSH2 0x145 CALLDATASIZE PUSH1 0x4 PUSH2 0x5F0 JUMP JUMPDEST PUSH2 0x332 JUMP JUMPDEST PUSH2 0xC8 PUSH2 0x158 CALLDATASIZE PUSH1 0x4 PUSH2 0x5F0 JUMP JUMPDEST PUSH2 0x3DA JUMP JUMPDEST PUSH2 0xC8 PUSH2 0x16B CALLDATASIZE PUSH1 0x4 PUSH2 0x5F0 JUMP JUMPDEST PUSH2 0x472 JUMP JUMPDEST PUSH0 JUMPDEST DUP2 MLOAD DUP2 LT ISZERO PUSH2 0x219 JUMPI PUSH0 PUSH1 0x2 DUP4 DUP4 DUP2 MLOAD DUP2 LT PUSH2 0x190 JUMPI PUSH2 0x190 PUSH2 0x661 JUMP JUMPDEST PUSH1 0x20 MUL PUSH1 0x20 ADD ADD MLOAD PUSH2 0x1A2 SWAP2 SWAP1 PUSH2 0x675 JUMP JUMPDEST PUSH0 EQ SWAP1 POP PUSH0 PUSH1 0x63 DUP5 DUP5 DUP2 MLOAD DUP2 LT PUSH2 0x1BB JUMPI PUSH2 0x1BB PUSH2 0x661 JUMP JUMPDEST PUSH1 0x20 MUL PUSH1 0x20 ADD ADD MLOAD LT SWAP1 POP DUP2 DUP1 ISZERO PUSH2 0x1D0 JUMPI POP DUP1 JUMPDEST ISZERO PUSH2 0x204 JUMPI DUP4 DUP4 DUP2 MLOAD DUP2 LT PUSH2 0x1E7 JUMPI PUSH2 0x1E7 PUSH2 0x661 JUMP JUMPDEST PUSH1 0x20 MUL PUSH1 0x20 ADD ADD MLOAD PUSH0 PUSH0 DUP3 DUP3 SLOAD PUSH2 0x1FE SWAP2 SWAP1 PUSH2 0x694 JUMP JUMPDEST SWAP1 SWAP2 SSTORE POP POP JUMPDEST POP PUSH2 0x212 SWAP1 POP PUSH1 0x1 DUP3 PUSH2 0x694 JUMP JUMPDEST SWAP1 POP PUSH2 0x172 JUMP JUMPDEST POP POP JUMP JUMPDEST PUSH0 JUMPDEST DUP2 DUP2 LT ISZERO PUSH2 0x2C2 JUMPI PUSH0 PUSH1 0x2 DUP5 DUP5 DUP5 DUP2 DUP2 LT PUSH2 0x23C JUMPI PUSH2 0x23C PUSH2 0x661 JUMP JUMPDEST SWAP1 POP PUSH1 0x20 MUL ADD CALLDATALOAD PUSH2 0x24D SWAP2 SWAP1 PUSH2 0x675 JUMP JUMPDEST ISZERO SWAP1 POP PUSH0 PUSH1 0x63 DUP6 DUP6 DUP6 DUP2 DUP2 LT PUSH2 0x265 JUMPI PUSH2 0x265 PUSH2 0x661 JUMP JUMPDEST SWAP1 POP PUSH1 0x20 MUL ADD CALLDATALOAD LT SWAP1 POP DUP2 DUP1 ISZERO PUSH2 0x279 JUMPI POP DUP1 JUMPDEST ISZERO PUSH2 0x2AD JUMPI DUP5 DUP5 DUP5 DUP2 DUP2 LT PUSH2 0x290 JUMPI PUSH2 0x290 PUSH2 0x661 JUMP JUMPDEST SWAP1 POP PUSH1 0x20 MUL ADD CALLDATALOAD PUSH1 0x1 PUSH0 DUP3 DUP3 SLOAD PUSH2 0x2A7 SWAP2 SWAP1 PUSH2 0x694 JUMP JUMPDEST SWAP1 SWAP2 SSTORE POP POP JUMPDEST POP PUSH2 0x2BB SWAP1 POP PUSH1 0x1 DUP3 PUSH2 0x694 JUMP JUMPDEST SWAP1 POP PUSH2 0x21F JUMP JUMPDEST POP POP POP JUMP JUMPDEST PUSH1 0x5 SLOAD PUSH0 JUMPDEST DUP3 DUP2 LT ISZERO PUSH2 0x32A JUMPI PUSH0 DUP5 DUP5 DUP4 DUP2 DUP2 LT PUSH2 0x2E7 JUMPI PUSH2 0x2E7 PUSH2 0x661 JUMP JUMPDEST SWAP1 POP PUSH1 0x20 MUL ADD CALLDATALOAD SWAP1 POP PUSH0 PUSH1 0x2 DUP3 PUSH2 0x2FE SWAP2 SWAP1 PUSH2 0x675 JUMP JUMPDEST ISZERO SWAP1 POP DUP1 DUP1 ISZERO PUSH2 0x30E JUMPI POP PUSH1 0x63 DUP3 LT JUMPDEST ISZERO PUSH2 0x320 JUMPI PUSH2 0x31D DUP3 DUP6 PUSH2 0x694 JUMP JUMPDEST SWAP4 POP JUMPDEST POP POP PUSH1 0x1 ADD PUSH2 0x2CC JUMP JUMPDEST POP PUSH1 0x5 SSTORE POP POP JUMP JUMPDEST PUSH1 0x2 SLOAD PUSH0 JUMPDEST DUP3 DUP2 LT ISZERO PUSH2 0x3D2 JUMPI PUSH0 PUSH1 0x2 DUP6 DUP6 DUP5 DUP2 DUP2 LT PUSH2 0x354 JUMPI PUSH2 0x354 PUSH2 0x661 JUMP JUMPDEST SWAP1 POP PUSH1 0x20 MUL ADD CALLDATALOAD PUSH2 0x365 SWAP2 SWAP1 PUSH2 0x675 JUMP JUMPDEST ISZERO SWAP1 POP PUSH0 PUSH1 0x63 DUP7 DUP7 DUP6 DUP2 DUP2 LT PUSH2 0x37D JUMPI PUSH2 0x37D PUSH2 0x661 JUMP JUMPDEST SWAP1 POP PUSH1 0x20 MUL ADD CALLDATALOAD LT SWAP1 POP DUP2 DUP1 ISZERO PUSH2 0x391 JUMPI POP DUP1 JUMPDEST ISZERO PUSH2 0x3BD JUMPI DUP6 DUP6 DUP5 DUP2 DUP2 LT PUSH2 0x3A8 JUMPI PUSH2 0x3A8 PUSH2 0x661 JUMP JUMPDEST SWAP1 POP PUSH1 0x20 MUL ADD CALLDATALOAD DUP5 PUSH2 0x3BA SWAP2 SWAP1 PUSH2 0x694 JUMP JUMPDEST SWAP4 POP JUMPDEST POP PUSH2 0x3CB SWAP1 POP PUSH1 0x1 DUP3 PUSH2 0x694 JUMP JUMPDEST SWAP1 POP PUSH2 0x337 JUMP JUMPDEST POP PUSH1 0x2 SSTORE POP POP JUMP JUMPDEST PUSH1 0x4 SLOAD PUSH0 JUMPDEST DUP3 DUP2 LT ISZERO PUSH2 0x46A JUMPI PUSH0 PUSH1 0x2 DUP6 DUP6 DUP5 DUP2 DUP2 LT PUSH2 0x3FC JUMPI PUSH2 0x3FC PUSH2 0x661 JUMP JUMPDEST SWAP1 POP PUSH1 0x20 MUL ADD CALLDATALOAD PUSH2 0x40D SWAP2 SWAP1 PUSH2 0x675 JUMP JUMPDEST ISZERO SWAP1 POP DUP1 DUP1 ISZERO PUSH2 0x435 JUMPI POP PUSH1 0x63 DUP6 DUP6 DUP5 DUP2 DUP2 LT PUSH2 0x42C JUMPI PUSH2 0x42C PUSH2 0x661 JUMP JUMPDEST SWAP1 POP PUSH1 0x20 MUL ADD CALLDATALOAD LT JUMPDEST ISZERO PUSH2 0x461 JUMPI DUP5 DUP5 DUP4 DUP2 DUP2 LT PUSH2 0x44C JUMPI PUSH2 0x44C PUSH2 0x661 JUMP JUMPDEST SWAP1 POP PUSH1 0x20 MUL ADD CALLDATALOAD DUP4 PUSH2 0x45E SWAP2 SWAP1 PUSH2 0x694 JUMP JUMPDEST SWAP3 POP JUMPDEST POP PUSH1 0x1 ADD PUSH2 0x3DF JUMP JUMPDEST POP PUSH1 0x4 SSTORE POP POP JUMP JUMPDEST PUSH1 0x3 SLOAD PUSH0 JUMPDEST DUP3 DUP2 LT ISZERO PUSH2 0x50C JUMPI PUSH0 PUSH1 0x2 DUP6 DUP6 DUP5 DUP2 DUP2 LT PUSH2 0x494 JUMPI PUSH2 0x494 PUSH2 0x661 JUMP JUMPDEST SWAP1 POP PUSH1 0x20 MUL ADD CALLDATALOAD PUSH2 0x4A5 SWAP2 SWAP1 PUSH2 0x675 JUMP JUMPDEST ISZERO SWAP1 POP DUP1 DUP1 ISZERO PUSH2 0x4CD JUMPI POP PUSH1 0x63 DUP6 DUP6 DUP5 DUP2 DUP2 LT PUSH2 0x4C4 JUMPI PUSH2 0x4C4 PUSH2 0x661 JUMP JUMPDEST SWAP1 POP PUSH1 0x20 MUL ADD CALLDATALOAD LT JUMPDEST ISZERO PUSH2 0x4F9 JUMPI DUP5 DUP5 DUP4 DUP2 DUP2 LT PUSH2 0x4E4 JUMPI PUSH2 0x4E4 PUSH2 0x661 JUMP JUMPDEST SWAP1 POP PUSH1 0x20 MUL ADD CALLDATALOAD DUP4 PUSH2 0x4F6 SWAP2 SWAP1 PUSH2 0x694 JUMP JUMPDEST SWAP3 POP JUMPDEST POP PUSH2 0x505 PUSH1 0x1 DUP3 PUSH2 0x694 JUMP JUMPDEST SWAP1 POP PUSH2 0x477 JUMP JUMPDEST POP PUSH1 0x3 SSTORE POP POP JUMP JUMPDEST PUSH4 0x4E487B71 PUSH1 0xE0 SHL PUSH0 MSTORE PUSH1 0x41 PUSH1 0x4 MSTORE PUSH1 0x24 PUSH0 REVERT JUMPDEST PUSH0 PUSH1 0x20 DUP3 DUP5 SUB SLT ISZERO PUSH2 0x538 JUMPI PUSH0 PUSH0 REVERT JUMPDEST DUP2 CALLDATALOAD PUSH8 0xFFFFFFFFFFFFFFFF DUP2 GT ISZERO PUSH2 0x54E JUMPI PUSH0 PUSH0 REVERT JUMPDEST DUP3 ADD PUSH1 0x1F DUP2 ADD DUP5 SGT PUSH2 0x55E JUMPI PUSH0 PUSH0 REVERT JUMPDEST DUP1 CALLDATALOAD PUSH8 0xFFFFFFFFFFFFFFFF DUP2 GT ISZERO PUSH2 0x578 JUMPI PUSH2 0x578 PUSH2 0x514 JUMP JUMPDEST DUP1 PUSH1 0x5 SHL PUSH1 0x40 MLOAD PUSH1 0x1F NOT PUSH1 0x3F DUP4 ADD AND DUP2 ADD DUP2 DUP2 LT PUSH8 0xFFFFFFFFFFFFFFFF DUP3 GT OR ISZERO PUSH2 0x5A5 JUMPI PUSH2 0x5A5 PUSH2 0x514 JUMP JUMPDEST PUSH1 0x40 MSTORE SWAP2 DUP3 MSTORE PUSH1 0x20 DUP2 DUP5 ADD DUP2 ADD SWAP3 SWAP1 DUP2 ADD DUP8 DUP5 GT ISZERO PUSH2 0x5C2 JUMPI PUSH0 PUSH0 REVERT JUMPDEST PUSH1 0x20 DUP6 ADD SWAP5 POP JUMPDEST DUP4 DUP6 LT ISZERO PUSH2 0x5E5 JUMPI DUP5 CALLDATALOAD DUP1 DUP3 MSTORE PUSH1 0x20 SWAP6 DUP7 ADD SWAP6 SWAP1 SWAP4 POP ADD PUSH2 0x5C9 JUMP JUMPDEST POP SWAP7 SWAP6 POP POP POP POP POP POP JUMP JUMPDEST PUSH0 PUSH0 PUSH1 0x20 DUP4 DUP6 SUB SLT ISZERO PUSH2 0x601 JUMPI PUSH0 PUSH0 REVERT JUMPDEST DUP3 CALLDATALOAD PUSH8 0xFFFFFFFFFFFFFFFF DUP2 GT ISZERO PUSH2 0x617 JUMPI PUSH0 PUSH0 REVERT JUMPDEST DUP4 ADD PUSH1 0x1F DUP2 ADD DUP6 SGT PUSH2 0x627 JUMPI PUSH0 PUSH0 REVERT JUMPDEST DUP1 CALLDATALOAD PUSH8 0xFFFFFFFFFFFFFFFF DUP2 GT ISZERO PUSH2 0x63D JUMPI PUSH0 PUSH0 REVERT JUMPDEST DUP6 PUSH1 0x20 DUP3 PUSH1 0x5 SHL DUP5 ADD ADD GT ISZERO PUSH2 0x651 JUMPI PUSH0 PUSH0 REVERT JUMPDEST PUSH1 0x20 SWAP2 SWAP1 SWAP2 ADD SWAP6 SWAP1 SWAP5 POP SWAP3 POP POP POP JUMP JUMPDEST PUSH4 0x4E487B71 PUSH1 0xE0 SHL PUSH0 MSTORE PUSH1 0x32 PUSH1 0x4 MSTORE PUSH1 0x24 PUSH0 REVERT JUMPDEST PUSH0 DUP3 PUSH2 0x68F JUMPI PUSH4 0x4E487B71 PUSH1 0xE0 SHL PUSH0 MSTORE PUSH1 0x12 PUSH1 0x4 MSTORE PUSH1 0x24 PUSH0 REVERT JUMPDEST POP MOD SWAP1 JUMP JUMPDEST DUP1 DUP3 ADD DUP1 DUP3 GT ISZERO PUSH2 0x6B3 JUMPI PUSH4 0x4E487B71 PUSH1 0xE0 SHL PUSH0 MSTORE PUSH1 0x11 PUSH1 0x4 MSTORE PUSH1 0x24 PUSH0 REVERT JUMPDEST SWAP3 SWAP2 POP POP JUMP INVALID LOG2 PUSH5 0x6970667358 0x22 SLT KECCAK256 ADD PUSH24 0xD3EC88106832C9A585743A03D084CE3B2568D4D1FD7213E9 0xF7 TIMESTAMP PUSH13 0xF8109064736F6C634300081D00 CALLER "
				},
				"gasEstimates": {
					"creation": {
						"codeDepositCost": "355000",
						"executionCost": "391",
						"totalCost": "355391"
					},
					"external": {
						"sumIfEventAndLessThan99(uint256[])": "infinite",
						"sumIfEventAndLessThan99_2(uint256[])": "infinite",
						"sumIfEventAndLessThan99_3(uint256[])": "infinite",
						"sumIfEventAndLessThan99_4(uint256[])": "infinite",
						"sumIfEventAndLessThan99_5(uint256[])": "infinite",
						"sumIfEventAndLessThan99_6(uint256[])": "infinite",
						"total()": "2370",
						"total2()": "2326",
						"total3()": "2393",
						"total4()": "2349",
						"total5()": "2304",
						"total6()": "2305"
					}
				},
				"methodIdentifiers": {
					"sumIfEventAndLessThan99(uint256[])": "11acfec4",
					"sumIfEventAndLessThan99_2(uint256[])": "188dc0a5",
					"sumIfEventAndLessThan99_3(uint256[])": "d027a27d",
					"sumIfEventAndLessThan99_4(uint256[])": "f1508572",
					"sumIfEventAndLessThan99_5(uint256[])": "dcc0105d",
					"sumIfEventAndLessThan99_6(uint256[])": "8b2497fe",
					"total()": "2ddbd13a",
					"total2()": "a5a0823e",
					"total3()": "5f36e8c2",
					"total4()": "20ac2263",
					"total5()": "9b726dc0",
					"total6()": "1203bf54"
				}
			},
			"storageLayout": {
				"storage": [
					{
						"astId": 3,
						"contract": "contracts/GasGolf.sol:GasGolf",
						"label": "total",
						"offset": 0,
						"slot": "0",
						"type": "t_uint256"
					},
					{
						"astId": 5,
						"contract": "contracts/GasGolf.sol:GasGolf",
						"label": "total2",
						"offset": 0,
						"slot": "1",
						"type": "t_uint256"
					},
					{
						"astId": 7,
						"contract": "contracts/GasGolf.sol:GasGolf",
						"label": "total3",
						"offset": 0,
						"slot": "2",
						"type": "t_uint256"
					},
					{
						"astId": 9,
						"contract": "contracts/GasGolf.sol:GasGolf",
						"label": "total4",
						"offset": 0,
						"slot": "3",
						"type": "t_uint256"
					},
					{
						"astId": 11,
						"contract": "contracts/GasGolf.sol:GasGolf",
						"label": "total5",
						"offset": 0,
						"slot": "4",
						"type": "t_uint256"
					},
					{
						"astId": 13,
						"contract": "contracts/GasGolf.sol:GasGolf",
						"label": "total6",
						"offset": 0,
						"slot": "5",
						"type": "t_uint256"
					}
				],
				"types": {
					"t_uint256": {
						"encoding": "inplace",
						"label": "uint256",
						"numberOfBytes": "32"
					}
				}
			},
			"userdoc": {
				"kind": "user",
				"methods": {},
				"version": 1
			}
		}
	}
}