{
	"threefour/EnglishAuction.sol": {
		"EnglishAuction": {
			"abi": [
				{
					"inputs": [
						{
							"internalType": "address",
							"name": "_nft",
							"type": "address"
						},
						{
							"internalType": "uint256",
							"name": "_nftId",
							"type": "uint256"
						},
						{
							"internalType": "uint256",
							"name": "_startingBid",
							"type": "uint256"
						}
					],
					"stateMutability": "nonpayable",
					"type": "constructor"
				},
				{
					"anonymous": false,
					"inputs": [
						{
							"indexed": true,
							"internalType": "address",
							"name": "sender",
							"type": "address"
						},
						{
							"indexed": false,
							"internalType": "uint256",
							"name": "amount",
							"type": "uint256"
						}
					],
					"name": "Bid",
					"type": "event"
				},
				{
					"anonymous": false,
					"inputs": [
						{
							"indexed": false,
							"internalType": "address",
							"name": "highestBidder",
							"type": "address"
						},
						{
							"indexed": false,
							"internalType": "uint256",
							"name": "highestBid",
							"type": "uint256"
						}
					],
					"name": "End",
					"type": "event"
				},
				{
					"anonymous": false,
					"inputs": [],
					"name": "Start",
					"type": "event"
				},
				{
					"anonymous": false,
					"inputs": [
						{
							"indexed": true,
							"internalType": "address",
							"name": "sender",
							"type": "address"
						},
						{
							"indexed": false,
							"internalType": "uint256",
							"name": "amount",
							"type": "uint256"
						}
					],
					"name": "Withdraw",
					"type": "event"
				},
				{
					"inputs": [],
					"name": "bid",
					"outputs": [],
					"stateMutability": "payable",
					"type": "function"
				},
				{
					"inputs": [
						{
							"internalType": "address",
							"name": "",
							"type": "address"
						}
					],
					"name": "bids",
					"outputs": [
						{
							"internalType": "uint256",
							"name": "",
							"type": "uint256"
						}
					],
					"stateMutability": "view",
					"type": "function"
				},
				{
					"inputs": [],
					"name": "end",
					"outputs": [],
					"stateMutability": "nonpayable",
					"type": "function"
				},
				{
					"inputs": [],
					"name": "endAt",
					"outputs": [
						{
							"internalType": "uint32",
							"name": "",
							"type": "uint32"
						}
					],
					"stateMutability": "view",
					"type": "function"
				},
				{
					"inputs": [],
					"name": "ended",
					"outputs": [
						{
							"internalType": "bool",
							"name": "",
							"type": "bool"
						}
					],
					"stateMutability": "view",
					"type": "function"
				},
				{
					"inputs": [],
					"name": "getBidder",
					"outputs": [
						{
							"internalType": "address",
							"name": "",
							"type": "address"
						}
					],
					"stateMutability": "view",
					"type": "function"
				},
				{
					"inputs": [],
					"name": "highestBid",
					"outputs": [
						{
							"internalType": "uint256",
							"name": "",
							"type": "uint256"
						}
					],
					"stateMutability": "view",
					"type": "function"
				},
				{
					"inputs": [],
					"name": "highestBidder",
					"outputs": [
						{
							"internalType": "address",
							"name": "",
							"type": "address"
						}
					],
					"stateMutability": "view",
					"type": "function"
				},
				{
					"inputs": [],
					"name": "nft",
					"outputs": [
						{
							"internalType": "contract IERC721",
							"name": "",
							"type": "address"
						}
					],
					"stateMutability": "view",
					"type": "function"
				},
				{
					"inputs": [],
					"name": "nftId",
					"outputs": [
						{
							"internalType": "uint256",
							"name": "",
							"type": "uint256"
						}
					],
					"stateMutability": "view",
					"type": "function"
				},
				{
					"inputs": [],
					"name": "seller",
					"outputs": [
						{
							"internalType": "address",
							"name": "",
							"type": "address"
						}
					],
					"stateMutability": "view",
					"type": "function"
				},
				{
					"inputs": [],
					"name": "start",
					"outputs": [],
					"stateMutability": "nonpayable",
					"type": "function"
				},
				{
					"inputs": [],
					"name": "started",
					"outputs": [
						{
							"internalType": "bool",
							"name": "",
							"type": "bool"
						}
					],
					"stateMutability": "view",
					"type": "function"
				},
				{
					"inputs": [],
					"name": "withdraw",
					"outputs": [],
					"stateMutability": "nonpayable",
					"type": "function"
				}
			],
			"devdoc": {
				"kind": "dev",
				"methods": {},
				"version": 1
			},
			"evm": {
				"assembly": "    /* \"threefour/EnglishAuction.sol\":199:2457  contract EnglishAuction{... */\n  mstore(0x40, 0xe0)\n    /* \"threefour/EnglishAuction.sol\":739:964  constructor(... */\n  callvalue\n  dup1\n  iszero\n  tag_1\n  jumpi\n  0x00\n  dup1\n  revert\ntag_1:\n  pop\n  mload(0x40)\n  sub(codesize, bytecodeSize)\n  dup1\n  bytecodeSize\n  dup4\n  codecopy\n  dup2\n  add\n  0x40\n  dup2\n  swap1\n  mstore\n  tag_2\n  swap2\n  tag_3\n  jump\t// in\ntag_2:\n  sub(shl(0xa0, 0x01), 0x01)\n    /* \"threefour/EnglishAuction.sol\":841:858  nft=IERC721(_nft) */\n  swap1\n  swap3\n  and\n  0x80\n  mstore\n    /* \"threefour/EnglishAuction.sol\":869:881  nftId=_nftId */\n  0xa0\n  mstore\n    /* \"threefour/EnglishAuction.sol\":909:919  msg.sender */\n  caller\n    /* \"threefour/EnglishAuction.sol\":892:920  seller= payable (msg.sender) */\n  0xc0\n  mstore\n    /* \"threefour/EnglishAuction.sol\":931:941  highestBid */\n  0x01\n    /* \"threefour/EnglishAuction.sol\":931:956  highestBid = _startingBid */\n  sstore\n    /* \"threefour/EnglishAuction.sol\":199:2457  contract EnglishAuction{... */\n  jump(tag_7)\n    /* \"#utility.yul\":14:426   */\ntag_3:\n    /* \"#utility.yul\":102:108   */\n  0x00\n    /* \"#utility.yul\":110:116   */\n  dup1\n    /* \"#utility.yul\":118:124   */\n  0x00\n    /* \"#utility.yul\":171:173   */\n  0x60\n    /* \"#utility.yul\":159:168   */\n  dup5\n    /* \"#utility.yul\":150:157   */\n  dup7\n    /* \"#utility.yul\":146:169   */\n  sub\n    /* \"#utility.yul\":142:174   */\n  slt\n    /* \"#utility.yul\":139:191   */\n  iszero\n  tag_9\n  jumpi\n    /* \"#utility.yul\":187:188   */\n  0x00\n    /* \"#utility.yul\":184:185   */\n  dup1\n    /* \"#utility.yul\":177:189   */\n  revert\n    /* \"#utility.yul\":139:191   */\ntag_9:\n    /* \"#utility.yul\":213:229   */\n  dup4\n  mload\n  sub(shl(0xa0, 0x01), 0x01)\n    /* \"#utility.yul\":258:289   */\n  dup2\n  and\n    /* \"#utility.yul\":248:290   */\n  dup2\n  eq\n    /* \"#utility.yul\":238:308   */\n  tag_10\n  jumpi\n    /* \"#utility.yul\":304:305   */\n  0x00\n    /* \"#utility.yul\":301:302   */\n  dup1\n    /* \"#utility.yul\":294:306   */\n  revert\n    /* \"#utility.yul\":238:308   */\ntag_10:\n    /* \"#utility.yul\":372:374   */\n  0x20\n    /* \"#utility.yul\":357:375   */\n  dup6\n  add\n    /* \"#utility.yul\":351:376   */\n  mload\n    /* \"#utility.yul\":416:418   */\n  0x40\n    /* \"#utility.yul\":401:419   */\n  swap1\n  swap6\n  add\n    /* \"#utility.yul\":395:420   */\n  mload\n    /* \"#utility.yul\":327:332   */\n  swap1\n  swap7\n    /* \"#utility.yul\":351:376   */\n  swap5\n  swap6\n  pop\n    /* \"#utility.yul\":395:420   */\n  swap4\n    /* \"#utility.yul\":14:426   */\n  swap3\n  pop\n  pop\n  pop\n  jump\t// out\ntag_7:\n    /* \"threefour/EnglishAuction.sol\":199:2457  contract EnglishAuction{... */\n  mload(0x80)\n  mload(0xa0)\n  mload(0xc0)\n  codecopy(0x00, dataOffset(sub_0), dataSize(sub_0))\n  0x00\n  assignImmutable(\"0xd67d834462ca31eaef1f30157e31659f60355143b7441e6fc7d9eae1fa79f3f8\")\n  0x00\n  assignImmutable(\"0x3b4066bd7b7960752225af105d3beafb5c47a26c5aae7e6798a437b7c0bb33e6\")\n  0x00\n  assignImmutable(\"0x77c32b454bb61eb9df9e3848d0ded3e59753acda90ae58befe564733aec82e4c\")\n  return(0x00, dataSize(sub_0))\nstop\n\nsub_0: assembly {\n        /* \"threefour/EnglishAuction.sol\":199:2457  contract EnglishAuction{... */\n      mstore(0x40, 0x80)\n      jumpi(tag_1, lt(calldatasize, 0x04))\n      shr(0xe0, calldataload(0x00))\n      dup1\n      0x7cc3ae8c\n      gt\n      tag_16\n      jumpi\n      dup1\n      0xc4109648\n      gt\n      tag_17\n      jumpi\n      dup1\n      0xc4109648\n      eq\n      tag_12\n      jumpi\n      dup1\n      0xc6bc5182\n      eq\n      tag_13\n      jumpi\n      dup1\n      0xd57bde79\n      eq\n      tag_14\n      jumpi\n      dup1\n      0xefbe1c1c\n      eq\n      tag_15\n      jumpi\n      0x00\n      dup1\n      revert\n    tag_17:\n      dup1\n      0x7cc3ae8c\n      eq\n      tag_9\n      jumpi\n      dup1\n      0x91f90157\n      eq\n      tag_10\n      jumpi\n      dup1\n      0xbe9a6555\n      eq\n      tag_11\n      jumpi\n      0x00\n      dup1\n      revert\n    tag_16:\n      dup1\n      0x1f2698ab\n      gt\n      tag_18\n      jumpi\n      dup1\n      0x1f2698ab\n      eq\n      tag_5\n      jumpi\n      dup1\n      0x3ccfd60b\n      eq\n      tag_6\n      jumpi\n      dup1\n      0x47ccca02\n      eq\n      tag_7\n      jumpi\n      dup1\n      0x62ea82db\n      eq\n      tag_8\n      jumpi\n      0x00\n      dup1\n      revert\n    tag_18:\n      dup1\n      0x08551a53\n      eq\n      tag_2\n      jumpi\n      dup1\n      0x12fa6feb\n      eq\n      tag_3\n      jumpi\n      dup1\n      0x1998aeef\n      eq\n      tag_4\n      jumpi\n    tag_1:\n      0x00\n      dup1\n      revert\n        /* \"threefour/EnglishAuction.sol\":488:520  address public  immutable seller */\n    tag_2:\n      callvalue\n      dup1\n      iszero\n      tag_19\n      jumpi\n      0x00\n      dup1\n      revert\n    tag_19:\n      pop\n      tag_20\n      immutable(\"0xd67d834462ca31eaef1f30157e31659f60355143b7441e6fc7d9eae1fa79f3f8\")\n      dup2\n      jump\n    tag_20:\n      mload(0x40)\n      sub(shl(0xa0, 0x01), 0x01)\n        /* \"#utility.yul\":178:210   */\n      swap1\n      swap2\n      and\n        /* \"#utility.yul\":160:211   */\n      dup2\n      mstore\n        /* \"#utility.yul\":148:150   */\n      0x20\n        /* \"#utility.yul\":133:151   */\n      add\n        /* \"threefour/EnglishAuction.sol\":488:520  address public  immutable seller */\n    tag_22:\n      mload(0x40)\n      dup1\n      swap2\n      sub\n      swap1\n      return\n        /* \"threefour/EnglishAuction.sol\":579:597  bool public  ended */\n    tag_3:\n      callvalue\n      dup1\n      iszero\n      tag_24\n      jumpi\n      0x00\n      dup1\n      revert\n    tag_24:\n      pop\n      sload(0x00)\n      tag_25\n      swap1\n      0x010000000000\n      swap1\n      div\n      0xff\n      and\n      dup2\n      jump\n    tag_25:\n      mload(0x40)\n        /* \"#utility.yul\":387:401   */\n      swap1\n      iszero\n        /* \"#utility.yul\":380:402   */\n      iszero\n        /* \"#utility.yul\":362:403   */\n      dup2\n      mstore\n        /* \"#utility.yul\":350:352   */\n      0x20\n        /* \"#utility.yul\":335:353   */\n      add\n        /* \"threefour/EnglishAuction.sol\":579:597  bool public  ended */\n      tag_22\n        /* \"#utility.yul\":222:409   */\n      jump\n        /* \"threefour/EnglishAuction.sol\":1257:1657  function bid() external payable {... */\n    tag_4:\n      tag_29\n      tag_30\n      jump\t// in\n    tag_29:\n      stop\n        /* \"threefour/EnglishAuction.sol\":553:572  bool public started */\n    tag_5:\n      callvalue\n      dup1\n      iszero\n      tag_31\n      jumpi\n      0x00\n      dup1\n      revert\n    tag_31:\n      pop\n      sload(0x00)\n      tag_25\n      swap1\n      0x0100000000\n      swap1\n      div\n      0xff\n      and\n      dup2\n      jump\n        /* \"threefour/EnglishAuction.sol\":1665:1854  function withdraw() external {... */\n    tag_6:\n      callvalue\n      dup1\n      iszero\n      tag_35\n      jumpi\n      0x00\n      dup1\n      revert\n    tag_35:\n      pop\n      tag_29\n      tag_37\n      jump\t// in\n        /* \"threefour/EnglishAuction.sol\":417:445  IERC721 public immutable nft */\n    tag_7:\n      callvalue\n      dup1\n      iszero\n      tag_38\n      jumpi\n      0x00\n      dup1\n      revert\n    tag_38:\n      pop\n      tag_20\n      immutable(\"0x77c32b454bb61eb9df9e3848d0ded3e59753acda90ae58befe564733aec82e4c\")\n      dup2\n      jump\n        /* \"threefour/EnglishAuction.sol\":694:730  mapping(address => uint) public bids */\n    tag_8:\n      callvalue\n      dup1\n      iszero\n      tag_43\n      jumpi\n      0x00\n      dup1\n      revert\n    tag_43:\n      pop\n      tag_44\n      tag_45\n      calldatasize\n      0x04\n      tag_46\n      jump\t// in\n    tag_45:\n      mstore(0x20, 0x02)\n      0x00\n      swap1\n      dup2\n      mstore\n      0x40\n      swap1\n      keccak256\n      sload\n      dup2\n      jump\n    tag_44:\n      mload(0x40)\n        /* \"#utility.yul\":1073:1098   */\n      swap1\n      dup2\n      mstore\n        /* \"#utility.yul\":1061:1063   */\n      0x20\n        /* \"#utility.yul\":1046:1064   */\n      add\n        /* \"threefour/EnglishAuction.sol\":694:730  mapping(address => uint) public bids */\n      tag_22\n        /* \"#utility.yul\":927:1104   */\n      jump\n        /* \"threefour/EnglishAuction.sol\":527:546  uint32 public endAt */\n    tag_9:\n      callvalue\n      dup1\n      iszero\n      tag_50\n      jumpi\n      0x00\n      dup1\n      revert\n    tag_50:\n      pop\n      sload(0x00)\n      tag_51\n      swap1\n      0xffffffff\n      and\n      dup2\n      jump\n    tag_51:\n      mload(0x40)\n        /* \"#utility.yul\":1283:1293   */\n      0xffffffff\n        /* \"#utility.yul\":1271:1294   */\n      swap1\n      swap2\n      and\n        /* \"#utility.yul\":1253:1295   */\n      dup2\n      mstore\n        /* \"#utility.yul\":1241:1243   */\n      0x20\n        /* \"#utility.yul\":1226:1244   */\n      add\n        /* \"threefour/EnglishAuction.sol\":527:546  uint32 public endAt */\n      tag_22\n        /* \"#utility.yul\":1109:1301   */\n      jump\n        /* \"threefour/EnglishAuction.sol\":604:632  address public highestBidder */\n    tag_10:\n      callvalue\n      dup1\n      iszero\n      tag_55\n      jumpi\n      0x00\n      dup1\n      revert\n    tag_55:\n      pop\n      sload(0x00)\n      tag_20\n      swap1\n      shl(0x30, 0x01)\n      swap1\n      div\n      sub(shl(0xa0, 0x01), 0x01)\n      and\n      dup2\n      jump\n        /* \"threefour/EnglishAuction.sol\":972:1249  function start() external {... */\n    tag_11:\n      callvalue\n      dup1\n      iszero\n      tag_59\n      jumpi\n      0x00\n      dup1\n      revert\n    tag_59:\n      pop\n      tag_29\n      tag_61\n      jump\t// in\n        /* \"threefour/EnglishAuction.sol\":2364:2454  function getBidder() public view returns (address) {... */\n    tag_12:\n      callvalue\n      dup1\n      iszero\n      tag_62\n      jumpi\n      0x00\n      dup1\n      revert\n    tag_62:\n      pop\n        /* \"threefour/EnglishAuction.sol\":2406:2413  address */\n      0x00\n        /* \"threefour/EnglishAuction.sol\":2433:2446  highestBidder */\n      sload\n      shl(0x30, 0x01)\n      swap1\n      div\n      sub(shl(0xa0, 0x01), 0x01)\n      and\n        /* \"threefour/EnglishAuction.sol\":2364:2454  function getBidder() public view returns (address) {... */\n      jump(tag_20)\n        /* \"threefour/EnglishAuction.sol\":452:479  uint public immutable nftId */\n    tag_13:\n      callvalue\n      dup1\n      iszero\n      tag_66\n      jumpi\n      0x00\n      dup1\n      revert\n    tag_66:\n      pop\n      tag_44\n      immutable(\"0x3b4066bd7b7960752225af105d3beafb5c47a26c5aae7e6798a437b7c0bb33e6\")\n      dup2\n      jump\n        /* \"threefour/EnglishAuction.sol\":639:661  uint public highestBid */\n    tag_14:\n      callvalue\n      dup1\n      iszero\n      tag_70\n      jumpi\n      0x00\n      dup1\n      revert\n    tag_70:\n      pop\n      tag_44\n      sload(0x01)\n      dup2\n      jump\n        /* \"threefour/EnglishAuction.sol\":1862:2352  function end() external {... */\n    tag_15:\n      callvalue\n      dup1\n      iszero\n      tag_74\n      jumpi\n      0x00\n      dup1\n      revert\n    tag_74:\n      pop\n      tag_29\n      tag_76\n      jump\t// in\n        /* \"threefour/EnglishAuction.sol\":1257:1657  function bid() external payable {... */\n    tag_30:\n        /* \"threefour/EnglishAuction.sol\":1308:1315  started */\n      sload(0x00)\n      0x0100000000\n      swap1\n      div\n      0xff\n      and\n        /* \"threefour/EnglishAuction.sol\":1300:1330  require(started,\"not started\") */\n      tag_78\n      jumpi\n      mload(0x40)\n      shl(0xe5, 0x461bcd)\n      dup2\n      mstore\n        /* \"#utility.yul\":1508:1510   */\n      0x20\n        /* \"threefour/EnglishAuction.sol\":1300:1330  require(started,\"not started\") */\n      0x04\n      dup3\n      add\n        /* \"#utility.yul\":1490:1511   */\n      mstore\n        /* \"#utility.yul\":1547:1549   */\n      0x0b\n        /* \"#utility.yul\":1527:1545   */\n      0x24\n      dup3\n      add\n        /* \"#utility.yul\":1520:1550   */\n      mstore\n      shl(0xaa, 0x1b9bdd081cdd185c9d1959)\n        /* \"#utility.yul\":1566:1584   */\n      0x44\n      dup3\n      add\n        /* \"#utility.yul\":1559:1600   */\n      mstore\n        /* \"#utility.yul\":1617:1635   */\n      0x64\n      add\n        /* \"threefour/EnglishAuction.sol\":1300:1330  require(started,\"not started\") */\n    tag_79:\n      mload(0x40)\n      dup1\n      swap2\n      sub\n      swap1\n      revert\n    tag_78:\n        /* \"threefour/EnglishAuction.sol\":1365:1370  endAt */\n      and(0xffffffff, sload(0x00))\n        /* \"threefour/EnglishAuction.sol\":1349:1364  block.timestamp */\n      timestamp\n        /* \"threefour/EnglishAuction.sol\":1349:1370  block.timestamp<endAt */\n      lt\n        /* \"threefour/EnglishAuction.sol\":1341:1379  require(block.timestamp<endAt,\"ended\") */\n      tag_81\n      jumpi\n      mload(0x40)\n      shl(0xe5, 0x461bcd)\n      dup2\n      mstore\n        /* \"#utility.yul\":1848:1850   */\n      0x20\n        /* \"threefour/EnglishAuction.sol\":1341:1379  require(block.timestamp<endAt,\"ended\") */\n      0x04\n      dup3\n      add\n        /* \"#utility.yul\":1830:1851   */\n      mstore\n        /* \"#utility.yul\":1887:1888   */\n      0x05\n        /* \"#utility.yul\":1867:1885   */\n      0x24\n      dup3\n      add\n        /* \"#utility.yul\":1860:1889   */\n      mstore\n      shl(0xda, 0x195b991959)\n        /* \"#utility.yul\":1905:1923   */\n      0x44\n      dup3\n      add\n        /* \"#utility.yul\":1898:1933   */\n      mstore\n        /* \"#utility.yul\":1950:1968   */\n      0x64\n      add\n        /* \"threefour/EnglishAuction.sol\":1341:1379  require(block.timestamp<endAt,\"ended\") */\n      tag_79\n        /* \"#utility.yul\":1646:1974   */\n      jump\n        /* \"threefour/EnglishAuction.sol\":1341:1379  require(block.timestamp<endAt,\"ended\") */\n    tag_81:\n        /* \"threefour/EnglishAuction.sol\":1410:1420  highestBid */\n      sload(0x01)\n        /* \"threefour/EnglishAuction.sol\":1398:1407  msg.value */\n      callvalue\n        /* \"threefour/EnglishAuction.sol\":1398:1420  msg.value > highestBid */\n      gt\n        /* \"threefour/EnglishAuction.sol\":1390:1441  require(msg.value > highestBid, \"value<highestBid\") */\n      tag_84\n      jumpi\n      mload(0x40)\n      shl(0xe5, 0x461bcd)\n      dup2\n      mstore\n        /* \"#utility.yul\":2181:2183   */\n      0x20\n        /* \"threefour/EnglishAuction.sol\":1390:1441  require(msg.value > highestBid, \"value<highestBid\") */\n      0x04\n      dup3\n      add\n        /* \"#utility.yul\":2163:2184   */\n      mstore\n        /* \"#utility.yul\":2220:2222   */\n      0x10\n        /* \"#utility.yul\":2200:2218   */\n      0x24\n      dup3\n      add\n        /* \"#utility.yul\":2193:2223   */\n      mstore\n      shl(0x82, 0x1d985b1d594f1a1a59da195cdd109a59)\n        /* \"#utility.yul\":2239:2257   */\n      0x44\n      dup3\n      add\n        /* \"#utility.yul\":2232:2278   */\n      mstore\n        /* \"#utility.yul\":2295:2313   */\n      0x64\n      add\n        /* \"threefour/EnglishAuction.sol\":1390:1441  require(msg.value > highestBid, \"value<highestBid\") */\n      tag_79\n        /* \"#utility.yul\":1979:2319   */\n      jump\n        /* \"threefour/EnglishAuction.sol\":1390:1441  require(msg.value > highestBid, \"value<highestBid\") */\n    tag_84:\n        /* \"threefour/EnglishAuction.sol\":1480:1481  0 */\n      0x00\n        /* \"threefour/EnglishAuction.sol\":1456:1469  highestBidder */\n      sload\n      shl(0x30, 0x01)\n      swap1\n      div\n      sub(shl(0xa0, 0x01), 0x01)\n      and\n        /* \"threefour/EnglishAuction.sol\":1456:1482  highestBidder !=address(0) */\n      iszero\n        /* \"threefour/EnglishAuction.sol\":1452:1542  if (highestBidder !=address(0)){... */\n      tag_87\n      jumpi\n        /* \"threefour/EnglishAuction.sol\":1520:1530  highestBid */\n      sload(0x01)\n        /* \"threefour/EnglishAuction.sol\":1498:1517  bids[highestBidder] */\n      0x00\n        /* \"threefour/EnglishAuction.sol\":1503:1516  highestBidder */\n      dup1\n      sload\n      shl(0x30, 0x01)\n      swap1\n      div\n      sub(shl(0xa0, 0x01), 0x01)\n      and\n        /* \"threefour/EnglishAuction.sol\":1498:1517  bids[highestBidder] */\n      dup2\n      mstore\n        /* \"threefour/EnglishAuction.sol\":1498:1502  bids */\n      0x02\n        /* \"threefour/EnglishAuction.sol\":1498:1517  bids[highestBidder] */\n      0x20\n      mstore\n      0x40\n      dup2\n      keccak256\n        /* \"threefour/EnglishAuction.sol\":1498:1530  bids[highestBidder] +=highestBid */\n      dup1\n      sload\n        /* \"threefour/EnglishAuction.sol\":1498:1517  bids[highestBidder] */\n      swap1\n      swap2\n      swap1\n        /* \"threefour/EnglishAuction.sol\":1498:1530  bids[highestBidder] +=highestBid */\n      tag_88\n      swap1\n        /* \"threefour/EnglishAuction.sol\":1520:1530  highestBid */\n      dup5\n      swap1\n        /* \"threefour/EnglishAuction.sol\":1498:1530  bids[highestBidder] +=highestBid */\n      tag_89\n      jump\t// in\n    tag_88:\n      swap1\n      swap2\n      sstore\n      pop\n      pop\n        /* \"threefour/EnglishAuction.sol\":1452:1542  if (highestBidder !=address(0)){... */\n    tag_87:\n        /* \"threefour/EnglishAuction.sol\":1563:1572  msg.value */\n      callvalue\n        /* \"threefour/EnglishAuction.sol\":1552:1562  highestBid */\n      0x01\n        /* \"threefour/EnglishAuction.sol\":1552:1572  highestBid=msg.value */\n      dup2\n      swap1\n      sstore\n        /* \"threefour/EnglishAuction.sol\":1583:1596  highestBidder */\n      0x00\n        /* \"threefour/EnglishAuction.sol\":1583:1607  highestBidder=msg.sender */\n      dup1\n      sload\n      not(sub(shl(0xd0, 0x01), 0x01000000000000))\n      and\n        /* \"threefour/EnglishAuction.sol\":1597:1607  msg.sender */\n      caller\n      shl(0x30, 0x01)\n        /* \"threefour/EnglishAuction.sol\":1583:1607  highestBidder=msg.sender */\n      dup2\n      mul\n      swap2\n      swap1\n      swap2\n      or\n      swap1\n      swap2\n      sstore\n        /* \"threefour/EnglishAuction.sol\":1623:1649  Bid(msg.sender, msg.value) */\n      mload(0x40)\n        /* \"#utility.yul\":1073:1098   */\n      swap2\n      dup3\n      mstore\n        /* \"threefour/EnglishAuction.sol\":1597:1607  msg.sender */\n      swap1\n        /* \"threefour/EnglishAuction.sol\":1623:1649  Bid(msg.sender, msg.value) */\n      0xe684a55f31b79eca403df938249029212a5925ec6be8012e099b45bc1019e5d2\n      swap1\n        /* \"#utility.yul\":1061:1063   */\n      0x20\n        /* \"#utility.yul\":1046:1064   */\n      add\n        /* \"threefour/EnglishAuction.sol\":1623:1649  Bid(msg.sender, msg.value) */\n      mload(0x40)\n      dup1\n      swap2\n      sub\n      swap1\n      log2\n        /* \"threefour/EnglishAuction.sol\":1257:1657  function bid() external payable {... */\n      jump\t// out\n        /* \"threefour/EnglishAuction.sol\":1665:1854  function withdraw() external {... */\n    tag_37:\n        /* \"threefour/EnglishAuction.sol\":1719:1729  msg.sender */\n      caller\n        /* \"threefour/EnglishAuction.sol\":1705:1713  uint bal */\n      0x00\n        /* \"threefour/EnglishAuction.sol\":1714:1730  bids[msg.sender] */\n      dup2\n      dup2\n      mstore\n        /* \"threefour/EnglishAuction.sol\":1714:1718  bids */\n      0x02\n        /* \"threefour/EnglishAuction.sol\":1714:1730  bids[msg.sender] */\n      0x20\n      mstore\n      0x40\n      dup1\n      dup3\n      keccak256\n      dup1\n      sload\n        /* \"threefour/EnglishAuction.sol\":1741:1761  bids[msg.sender] = 0 */\n      swap1\n      dup4\n      swap1\n      sstore\n        /* \"threefour/EnglishAuction.sol\":1772:1806  payable (msg.sender).transfer(bal) */\n      swap1\n      mload\n        /* \"threefour/EnglishAuction.sol\":1714:1730  bids[msg.sender] */\n      swap1\n      swap3\n        /* \"threefour/EnglishAuction.sol\":1719:1729  msg.sender */\n      swap2\n        /* \"threefour/EnglishAuction.sol\":1772:1806  payable (msg.sender).transfer(bal) */\n      dup4\n      iszero\n      0x08fc\n      mul\n      swap2\n        /* \"threefour/EnglishAuction.sol\":1714:1730  bids[msg.sender] */\n      dup5\n      swap2\n        /* \"threefour/EnglishAuction.sol\":1772:1806  payable (msg.sender).transfer(bal) */\n      dup2\n        /* \"threefour/EnglishAuction.sol\":1705:1713  uint bal */\n      dup2\n        /* \"threefour/EnglishAuction.sol\":1772:1806  payable (msg.sender).transfer(bal) */\n      dup2\n        /* \"threefour/EnglishAuction.sol\":1714:1730  bids[msg.sender] */\n      dup6\n        /* \"threefour/EnglishAuction.sol\":1719:1729  msg.sender */\n      dup9\n        /* \"threefour/EnglishAuction.sol\":1772:1806  payable (msg.sender).transfer(bal) */\n      dup9\n      call\n      swap4\n      pop\n      pop\n      pop\n      pop\n      iszero\n      dup1\n      iszero\n      tag_93\n      jumpi\n      returndatasize\n      0x00\n      dup1\n      returndatacopy\n      revert(0x00, returndatasize)\n    tag_93:\n      pop\n        /* \"threefour/EnglishAuction.sol\":1822:1846  Withdraw(msg.sender,bal) */\n      mload(0x40)\n        /* \"#utility.yul\":1073:1098   */\n      dup2\n      dup2\n      mstore\n        /* \"threefour/EnglishAuction.sol\":1831:1841  msg.sender */\n      caller\n      swap1\n        /* \"threefour/EnglishAuction.sol\":1822:1846  Withdraw(msg.sender,bal) */\n      0x884edad9ce6fa2440d8a54cc123490eb96d2768479d49ff9c7366125a9424364\n      swap1\n        /* \"#utility.yul\":1061:1063   */\n      0x20\n        /* \"#utility.yul\":1046:1064   */\n      add\n        /* \"threefour/EnglishAuction.sol\":1822:1846  Withdraw(msg.sender,bal) */\n      mload(0x40)\n      dup1\n      swap2\n      sub\n      swap1\n      log2\n        /* \"threefour/EnglishAuction.sol\":1694:1854  {... */\n      pop\n        /* \"threefour/EnglishAuction.sol\":1665:1854  function withdraw() external {... */\n      jump\t// out\n        /* \"threefour/EnglishAuction.sol\":972:1249  function start() external {... */\n    tag_61:\n        /* \"threefour/EnglishAuction.sol\":1017:1027  msg.sender */\n      caller\n      sub(shl(0xa0, 0x01), 0x01)\n        /* \"threefour/EnglishAuction.sol\":1031:1037  seller */\n      immutable(\"0xd67d834462ca31eaef1f30157e31659f60355143b7441e6fc7d9eae1fa79f3f8\")\n        /* \"threefour/EnglishAuction.sol\":1017:1037  msg.sender == seller */\n      and\n      eq\n        /* \"threefour/EnglishAuction.sol\":1009:1052  require(msg.sender == seller, \"not seller\") */\n      tag_96\n      jumpi\n      mload(0x40)\n      shl(0xe5, 0x461bcd)\n      dup2\n      mstore\n        /* \"#utility.yul\":2753:2755   */\n      0x20\n        /* \"threefour/EnglishAuction.sol\":1009:1052  require(msg.sender == seller, \"not seller\") */\n      0x04\n      dup3\n      add\n        /* \"#utility.yul\":2735:2756   */\n      mstore\n        /* \"#utility.yul\":2792:2794   */\n      0x0a\n        /* \"#utility.yul\":2772:2790   */\n      0x24\n      dup3\n      add\n        /* \"#utility.yul\":2765:2795   */\n      mstore\n      shl(0xb1, 0x3737ba1039b2b63632b9)\n        /* \"#utility.yul\":2811:2829   */\n      0x44\n      dup3\n      add\n        /* \"#utility.yul\":2804:2844   */\n      mstore\n        /* \"#utility.yul\":2861:2879   */\n      0x64\n      add\n        /* \"threefour/EnglishAuction.sol\":1009:1052  require(msg.sender == seller, \"not seller\") */\n      tag_79\n        /* \"#utility.yul\":2551:2885   */\n      jump\n        /* \"threefour/EnglishAuction.sol\":1009:1052  require(msg.sender == seller, \"not seller\") */\n    tag_96:\n        /* \"threefour/EnglishAuction.sol\":1072:1079  started */\n      sload(0x00)\n      0x0100000000\n      swap1\n      div\n      0xff\n      and\n        /* \"threefour/EnglishAuction.sol\":1071:1079  !started */\n      iszero\n        /* \"threefour/EnglishAuction.sol\":1063:1090  require(!started,\"started\") */\n      tag_99\n      jumpi\n      mload(0x40)\n      shl(0xe5, 0x461bcd)\n      dup2\n      mstore\n        /* \"#utility.yul\":3092:3094   */\n      0x20\n        /* \"threefour/EnglishAuction.sol\":1063:1090  require(!started,\"started\") */\n      0x04\n      dup3\n      add\n        /* \"#utility.yul\":3074:3095   */\n      mstore\n        /* \"#utility.yul\":3131:3132   */\n      0x07\n        /* \"#utility.yul\":3111:3129   */\n      0x24\n      dup3\n      add\n        /* \"#utility.yul\":3104:3133   */\n      mstore\n      shl(0xca, 0x1cdd185c9d1959)\n        /* \"#utility.yul\":3149:3167   */\n      0x44\n      dup3\n      add\n        /* \"#utility.yul\":3142:3179   */\n      mstore\n        /* \"#utility.yul\":3196:3214   */\n      0x64\n      add\n        /* \"threefour/EnglishAuction.sol\":1063:1090  require(!started,\"started\") */\n      tag_79\n        /* \"#utility.yul\":2890:3220   */\n      jump\n        /* \"threefour/EnglishAuction.sol\":1063:1090  require(!started,\"started\") */\n    tag_99:\n        /* \"threefour/EnglishAuction.sol\":1101:1108  started */\n      0x00\n        /* \"threefour/EnglishAuction.sol\":1101:1113  started=true */\n      dup1\n      sload\n      not(0xff00000000)\n      and\n      0x0100000000\n      or\n      swap1\n      sstore\n        /* \"threefour/EnglishAuction.sol\":1139:1160  block.timestamp + 180 */\n      tag_102\n        /* \"threefour/EnglishAuction.sol\":1139:1154  block.timestamp */\n      timestamp\n        /* \"threefour/EnglishAuction.sol\":1157:1160  180 */\n      0xb4\n        /* \"threefour/EnglishAuction.sol\":1139:1160  block.timestamp + 180 */\n      tag_89\n      jump\t// in\n    tag_102:\n        /* \"threefour/EnglishAuction.sol\":1124:1129  endAt */\n      0x00\n        /* \"threefour/EnglishAuction.sol\":1124:1161  endAt = uint32(block.timestamp + 180) */\n      dup1\n      sload\n      not(0xffffffff)\n      and\n      0xffffffff\n      swap3\n      swap1\n      swap3\n      and\n      swap2\n      swap1\n      swap2\n      or\n      swap1\n      sstore\n        /* \"threefour/EnglishAuction.sol\":1172:1218  nft.transferFrom(seller, address(this), nftId) */\n      mload(0x40)\n      shl(0xe0, 0x23b872dd)\n      dup2\n      mstore\n        /* \"threefour/EnglishAuction.sol\":1189:1195  seller */\n      immutable(\"0xd67d834462ca31eaef1f30157e31659f60355143b7441e6fc7d9eae1fa79f3f8\")\n      sub(shl(0xa0, 0x01), 0x01)\n        /* \"#utility.yul\":3483:3498   */\n      swap1\n      dup2\n      and\n        /* \"threefour/EnglishAuction.sol\":1172:1218  nft.transferFrom(seller, address(this), nftId) */\n      0x04\n      dup4\n      add\n        /* \"#utility.yul\":3465:3499   */\n      mstore\n        /* \"threefour/EnglishAuction.sol\":1205:1209  this */\n      address\n        /* \"#utility.yul\":3515:3533   */\n      0x24\n      dup4\n      add\n        /* \"#utility.yul\":3508:3551   */\n      mstore\n        /* \"threefour/EnglishAuction.sol\":1212:1217  nftId */\n      immutable(\"0x3b4066bd7b7960752225af105d3beafb5c47a26c5aae7e6798a437b7c0bb33e6\")\n        /* \"#utility.yul\":3567:3585   */\n      0x44\n      dup4\n      add\n        /* \"#utility.yul\":3560:3594   */\n      mstore\n        /* \"threefour/EnglishAuction.sol\":1172:1175  nft */\n      immutable(\"0x77c32b454bb61eb9df9e3848d0ded3e59753acda90ae58befe564733aec82e4c\")\n        /* \"threefour/EnglishAuction.sol\":1172:1188  nft.transferFrom */\n      and\n      swap1\n      0x23b872dd\n      swap1\n        /* \"#utility.yul\":3400:3418   */\n      0x64\n      add\n        /* \"threefour/EnglishAuction.sol\":1172:1218  nft.transferFrom(seller, address(this), nftId) */\n      0x00\n      mload(0x40)\n      dup1\n      dup4\n      sub\n      dup2\n      0x00\n      dup8\n      dup1\n      extcodesize\n      iszero\n      dup1\n      iszero\n      tag_105\n      jumpi\n      0x00\n      dup1\n      revert\n    tag_105:\n      pop\n      gas\n      call\n      iszero\n      dup1\n      iszero\n      tag_107\n      jumpi\n      returndatasize\n      0x00\n      dup1\n      returndatacopy\n      revert(0x00, returndatasize)\n    tag_107:\n      pop\n      pop\n        /* \"threefour/EnglishAuction.sol\":1234:1241  Start() */\n      mload(0x40)\n      0x1b55ba3aa851a46be3b365aee5b5c140edd620d578922f3e8466d2cbd96f954b\n      swap3\n      pop\n      0x00\n      swap2\n      pop\n      log1\n        /* \"threefour/EnglishAuction.sol\":972:1249  function start() external {... */\n      jump\t// out\n        /* \"threefour/EnglishAuction.sol\":1862:2352  function end() external {... */\n    tag_76:\n        /* \"threefour/EnglishAuction.sol\":1905:1912  started */\n      sload(0x00)\n      0x0100000000\n      swap1\n      div\n      0xff\n      and\n        /* \"threefour/EnglishAuction.sol\":1897:1927  require(started,\"not started\") */\n      tag_110\n      jumpi\n      mload(0x40)\n      shl(0xe5, 0x461bcd)\n      dup2\n      mstore\n        /* \"#utility.yul\":1508:1510   */\n      0x20\n        /* \"threefour/EnglishAuction.sol\":1897:1927  require(started,\"not started\") */\n      0x04\n      dup3\n      add\n        /* \"#utility.yul\":1490:1511   */\n      mstore\n        /* \"#utility.yul\":1547:1549   */\n      0x0b\n        /* \"#utility.yul\":1527:1545   */\n      0x24\n      dup3\n      add\n        /* \"#utility.yul\":1520:1550   */\n      mstore\n      shl(0xaa, 0x1b9bdd081cdd185c9d1959)\n        /* \"#utility.yul\":1566:1584   */\n      0x44\n      dup3\n      add\n        /* \"#utility.yul\":1559:1600   */\n      mstore\n        /* \"#utility.yul\":1617:1635   */\n      0x64\n      add\n        /* \"threefour/EnglishAuction.sol\":1897:1927  require(started,\"not started\") */\n      tag_79\n        /* \"#utility.yul\":1306:1641   */\n      jump\n        /* \"threefour/EnglishAuction.sol\":1897:1927  require(started,\"not started\") */\n    tag_110:\n        /* \"threefour/EnglishAuction.sol\":1947:1952  ended */\n      sload(0x00)\n      0x010000000000\n      swap1\n      div\n      0xff\n      and\n        /* \"threefour/EnglishAuction.sol\":1946:1952  !ended */\n      iszero\n        /* \"threefour/EnglishAuction.sol\":1938:1961  require(!ended,\"ended\") */\n      tag_112\n      jumpi\n      mload(0x40)\n      shl(0xe5, 0x461bcd)\n      dup2\n      mstore\n        /* \"#utility.yul\":1848:1850   */\n      0x20\n        /* \"threefour/EnglishAuction.sol\":1938:1961  require(!ended,\"ended\") */\n      0x04\n      dup3\n      add\n        /* \"#utility.yul\":1830:1851   */\n      mstore\n        /* \"#utility.yul\":1887:1888   */\n      0x05\n        /* \"#utility.yul\":1867:1885   */\n      0x24\n      dup3\n      add\n        /* \"#utility.yul\":1860:1889   */\n      mstore\n      shl(0xda, 0x195b991959)\n        /* \"#utility.yul\":1905:1923   */\n      0x44\n      dup3\n      add\n        /* \"#utility.yul\":1898:1933   */\n      mstore\n        /* \"#utility.yul\":1950:1968   */\n      0x64\n      add\n        /* \"threefour/EnglishAuction.sol\":1938:1961  require(!ended,\"ended\") */\n      tag_79\n        /* \"#utility.yul\":1646:1974   */\n      jump\n        /* \"threefour/EnglishAuction.sol\":1938:1961  require(!ended,\"ended\") */\n    tag_112:\n        /* \"threefour/EnglishAuction.sol\":1997:2002  endAt */\n      and(0xffffffff, sload(0x00))\n        /* \"threefour/EnglishAuction.sol\":1980:1995  block.timestamp */\n      timestamp\n        /* \"threefour/EnglishAuction.sol\":1980:2002  block.timestamp>=endAt */\n      lt\n      iszero\n        /* \"threefour/EnglishAuction.sol\":1972:2027  require(block.timestamp>=endAt, \"not end at this time\") */\n      tag_114\n      jumpi\n      mload(0x40)\n      shl(0xe5, 0x461bcd)\n      dup2\n      mstore\n        /* \"#utility.yul\":3807:3809   */\n      0x20\n        /* \"threefour/EnglishAuction.sol\":1972:2027  require(block.timestamp>=endAt, \"not end at this time\") */\n      0x04\n      dup3\n      add\n        /* \"#utility.yul\":3789:3810   */\n      mstore\n        /* \"#utility.yul\":3846:3848   */\n      0x14\n        /* \"#utility.yul\":3826:3844   */\n      0x24\n      dup3\n      add\n        /* \"#utility.yul\":3819:3849   */\n      mstore\n      shl(0x60, 0x6e6f7420656e6420617420746869732074696d65)\n        /* \"#utility.yul\":3865:3883   */\n      0x44\n      dup3\n      add\n        /* \"#utility.yul\":3858:3908   */\n      mstore\n        /* \"#utility.yul\":3925:3943   */\n      0x64\n      add\n        /* \"threefour/EnglishAuction.sol\":1972:2027  require(block.timestamp>=endAt, \"not end at this time\") */\n      tag_79\n        /* \"#utility.yul\":3605:3949   */\n      jump\n        /* \"threefour/EnglishAuction.sol\":1972:2027  require(block.timestamp>=endAt, \"not end at this time\") */\n    tag_114:\n        /* \"threefour/EnglishAuction.sol\":2038:2043  ended */\n      0x00\n        /* \"threefour/EnglishAuction.sol\":2038:2048  ended=true */\n      dup1\n      sload\n      not(0xff0000000000)\n      and\n      0x010000000000\n      or\n      swap1\n      dup2\n      swap1\n      sstore\n      shl(0x30, 0x01)\n        /* \"threefour/EnglishAuction.sol\":2063:2076  highestBidder */\n      swap1\n      div\n      sub(shl(0xa0, 0x01), 0x01)\n      and\n        /* \"threefour/EnglishAuction.sol\":2063:2090  highestBidder != address(0) */\n      iszero\n        /* \"threefour/EnglishAuction.sol\":2059:2300  if (highestBidder != address(0)){... */\n      tag_117\n      jumpi\n        /* \"threefour/EnglishAuction.sol\":2138:2151  highestBidder */\n      sload(0x00)\n        /* \"threefour/EnglishAuction.sol\":2106:2159  nft.transferFrom(address(this), highestBidder, nftId) */\n      mload(0x40)\n      shl(0xe0, 0x23b872dd)\n      dup2\n      mstore\n        /* \"threefour/EnglishAuction.sol\":2131:2135  this */\n      address\n        /* \"threefour/EnglishAuction.sol\":2106:2159  nft.transferFrom(address(this), highestBidder, nftId) */\n      0x04\n      dup3\n      add\n        /* \"#utility.yul\":3465:3499   */\n      mstore\n      shl(0x30, 0x01)\n        /* \"threefour/EnglishAuction.sol\":2138:2151  highestBidder */\n      swap1\n      swap2\n      div\n      sub(shl(0xa0, 0x01), 0x01)\n      swap1\n      dup2\n      and\n        /* \"#utility.yul\":3515:3533   */\n      0x24\n      dup4\n      add\n        /* \"#utility.yul\":3508:3551   */\n      mstore\n        /* \"threefour/EnglishAuction.sol\":2153:2158  nftId */\n      immutable(\"0x3b4066bd7b7960752225af105d3beafb5c47a26c5aae7e6798a437b7c0bb33e6\")\n        /* \"#utility.yul\":3567:3585   */\n      0x44\n      dup4\n      add\n        /* \"#utility.yul\":3560:3594   */\n      mstore\n        /* \"threefour/EnglishAuction.sol\":2106:2109  nft */\n      immutable(\"0x77c32b454bb61eb9df9e3848d0ded3e59753acda90ae58befe564733aec82e4c\")\n        /* \"threefour/EnglishAuction.sol\":2106:2122  nft.transferFrom */\n      and\n      swap1\n      0x23b872dd\n      swap1\n        /* \"#utility.yul\":3400:3418   */\n      0x64\n      add\n        /* \"threefour/EnglishAuction.sol\":2106:2159  nft.transferFrom(address(this), highestBidder, nftId) */\n      0x00\n      mload(0x40)\n      dup1\n      dup4\n      sub\n      dup2\n      0x00\n      dup8\n      dup1\n      extcodesize\n      iszero\n      dup1\n      iszero\n      tag_119\n      jumpi\n      0x00\n      dup1\n      revert\n    tag_119:\n      pop\n      gas\n      call\n      iszero\n      dup1\n      iszero\n      tag_121\n      jumpi\n      returndatasize\n      0x00\n      dup1\n      returndatacopy\n      revert(0x00, returndatasize)\n    tag_121:\n      pop\n      pop\n        /* \"threefour/EnglishAuction.sol\":2199:2209  highestBid */\n      sload(0x01)\n        /* \"threefour/EnglishAuction.sol\":2174:2210  payable(seller).transfer(highestBid) */\n      mload(0x40)\n      sub(shl(0xa0, 0x01), 0x01)\n        /* \"threefour/EnglishAuction.sol\":2182:2188  seller */\n      immutable(\"0xd67d834462ca31eaef1f30157e31659f60355143b7441e6fc7d9eae1fa79f3f8\")\n        /* \"threefour/EnglishAuction.sol\":2174:2198  payable(seller).transfer */\n      and\n      swap4\n      pop\n        /* \"threefour/EnglishAuction.sol\":2174:2210  payable(seller).transfer(highestBid) */\n      dup2\n      iszero\n      0x08fc\n      mul\n      swap3\n      pop\n      0x00\n      dup2\n      dup2\n      dup2\n        /* \"threefour/EnglishAuction.sol\":2199:2209  highestBid */\n      dup6\n        /* \"threefour/EnglishAuction.sol\":2174:2198  payable(seller).transfer */\n      dup9\n        /* \"threefour/EnglishAuction.sol\":2174:2210  payable(seller).transfer(highestBid) */\n      dup9\n      call\n      swap4\n      pop\n      pop\n      pop\n      pop\n      iszero\n      dup1\n      iszero\n      tag_123\n      jumpi\n      returndatasize\n      0x00\n      dup1\n      returndatacopy\n      revert(0x00, returndatasize)\n    tag_123:\n      pop\n        /* \"threefour/EnglishAuction.sol\":2059:2300  if (highestBidder != address(0)){... */\n      jump(tag_124)\n    tag_117:\n        /* \"threefour/EnglishAuction.sol\":2242:2288  nft.transferFrom(address(this), seller, nftId) */\n      mload(0x40)\n      shl(0xe0, 0x23b872dd)\n      dup2\n      mstore\n        /* \"threefour/EnglishAuction.sol\":2267:2271  this */\n      address\n        /* \"threefour/EnglishAuction.sol\":2242:2288  nft.transferFrom(address(this), seller, nftId) */\n      0x04\n      dup3\n      add\n        /* \"#utility.yul\":3465:3499   */\n      mstore\n      sub(shl(0xa0, 0x01), 0x01)\n        /* \"threefour/EnglishAuction.sol\":2274:2280  seller */\n      immutable(\"0xd67d834462ca31eaef1f30157e31659f60355143b7441e6fc7d9eae1fa79f3f8\")\n        /* \"#utility.yul\":3535:3550   */\n      dup2\n      and\n        /* \"#utility.yul\":3515:3533   */\n      0x24\n      dup4\n      add\n        /* \"#utility.yul\":3508:3551   */\n      mstore\n        /* \"threefour/EnglishAuction.sol\":2282:2287  nftId */\n      immutable(\"0x3b4066bd7b7960752225af105d3beafb5c47a26c5aae7e6798a437b7c0bb33e6\")\n        /* \"#utility.yul\":3567:3585   */\n      0x44\n      dup4\n      add\n        /* \"#utility.yul\":3560:3594   */\n      mstore\n        /* \"threefour/EnglishAuction.sol\":2242:2245  nft */\n      immutable(\"0x77c32b454bb61eb9df9e3848d0ded3e59753acda90ae58befe564733aec82e4c\")\n        /* \"threefour/EnglishAuction.sol\":2242:2258  nft.transferFrom */\n      and\n      swap1\n      0x23b872dd\n      swap1\n        /* \"#utility.yul\":3400:3418   */\n      0x64\n      add\n        /* \"threefour/EnglishAuction.sol\":2242:2288  nft.transferFrom(address(this), seller, nftId) */\n      0x00\n      mload(0x40)\n      dup1\n      dup4\n      sub\n      dup2\n      0x00\n      dup8\n      dup1\n      extcodesize\n      iszero\n      dup1\n      iszero\n      tag_126\n      jumpi\n      0x00\n      dup1\n      revert\n    tag_126:\n      pop\n      gas\n      call\n      iszero\n      dup1\n      iszero\n      tag_128\n      jumpi\n      returndatasize\n      0x00\n      dup1\n      returndatacopy\n      revert(0x00, returndatasize)\n    tag_128:\n      pop\n      pop\n      pop\n      pop\n        /* \"threefour/EnglishAuction.sol\":2059:2300  if (highestBidder != address(0)){... */\n    tag_124:\n        /* \"threefour/EnglishAuction.sol\":2319:2332  highestBidder */\n      sload(0x00)\n        /* \"threefour/EnglishAuction.sol\":2333:2343  highestBid */\n      sload(0x01)\n        /* \"threefour/EnglishAuction.sol\":2315:2344  End(highestBidder,highestBid) */\n      0x40\n      dup1\n      mload\n      shl(0x30, 0x01)\n        /* \"threefour/EnglishAuction.sol\":2319:2332  highestBidder */\n      swap1\n      swap4\n      div\n      sub(shl(0xa0, 0x01), 0x01)\n      and\n        /* \"#utility.yul\":4128:4179   */\n      dup4\n      mstore\n        /* \"#utility.yul\":4210:4212   */\n      0x20\n        /* \"#utility.yul\":4195:4213   */\n      dup4\n      add\n        /* \"#utility.yul\":4188:4222   */\n      swap2\n      swap1\n      swap2\n      mstore\n        /* \"threefour/EnglishAuction.sol\":2315:2344  End(highestBidder,highestBid) */\n      0x7d7570b046e5ead3a4f3fbc9fa2445113625a1e79823776146316bafed6b8cc5\n      swap2\n        /* \"#utility.yul\":4101:4119   */\n      add\n        /* \"threefour/EnglishAuction.sol\":2315:2344  End(highestBidder,highestBid) */\n      mload(0x40)\n      dup1\n      swap2\n      sub\n      swap1\n      log1\n        /* \"threefour/EnglishAuction.sol\":1862:2352  function end() external {... */\n      jump\t// out\n        /* \"#utility.yul\":636:922   */\n    tag_46:\n        /* \"#utility.yul\":695:701   */\n      0x00\n        /* \"#utility.yul\":748:750   */\n      0x20\n        /* \"#utility.yul\":736:745   */\n      dup3\n        /* \"#utility.yul\":727:734   */\n      dup5\n        /* \"#utility.yul\":723:746   */\n      sub\n        /* \"#utility.yul\":719:751   */\n      slt\n        /* \"#utility.yul\":716:768   */\n      iszero\n      tag_136\n      jumpi\n        /* \"#utility.yul\":764:765   */\n      0x00\n        /* \"#utility.yul\":761:762   */\n      dup1\n        /* \"#utility.yul\":754:766   */\n      revert\n        /* \"#utility.yul\":716:768   */\n    tag_136:\n        /* \"#utility.yul\":790:813   */\n      dup2\n      calldataload\n      sub(shl(0xa0, 0x01), 0x01)\n        /* \"#utility.yul\":842:873   */\n      dup2\n      and\n        /* \"#utility.yul\":832:874   */\n      dup2\n      eq\n        /* \"#utility.yul\":822:892   */\n      tag_137\n      jumpi\n        /* \"#utility.yul\":888:889   */\n      0x00\n        /* \"#utility.yul\":885:886   */\n      dup1\n        /* \"#utility.yul\":878:890   */\n      revert\n        /* \"#utility.yul\":822:892   */\n    tag_137:\n        /* \"#utility.yul\":911:916   */\n      swap4\n        /* \"#utility.yul\":636:922   */\n      swap3\n      pop\n      pop\n      pop\n      jump\t// out\n        /* \"#utility.yul\":2324:2546   */\n    tag_89:\n        /* \"#utility.yul\":2389:2398   */\n      dup1\n      dup3\n      add\n        /* \"#utility.yul\":2410:2420   */\n      dup1\n      dup3\n      gt\n        /* \"#utility.yul\":2407:2540   */\n      iszero\n      tag_144\n      jumpi\n        /* \"#utility.yul\":2462:2472   */\n      0x4e487b71\n        /* \"#utility.yul\":2457:2460   */\n      0xe0\n        /* \"#utility.yul\":2453:2473   */\n      shl\n        /* \"#utility.yul\":2450:2451   */\n      0x00\n        /* \"#utility.yul\":2443:2474   */\n      mstore\n        /* \"#utility.yul\":2497:2501   */\n      0x11\n        /* \"#utility.yul\":2494:2495   */\n      0x04\n        /* \"#utility.yul\":2487:2502   */\n      mstore\n        /* \"#utility.yul\":2525:2529   */\n      0x24\n        /* \"#utility.yul\":2522:2523   */\n      0x00\n        /* \"#utility.yul\":2515:2530   */\n      revert\n        /* \"#utility.yul\":2407:2540   */\n    tag_144:\n        /* \"#utility.yul\":2324:2546   */\n      swap3\n      swap2\n      pop\n      pop\n      jump\t// out\n\n    auxdata: 0xa26469706673582212206a1a381f2900fe28ca14e7b768d0698d7abd4c4ff5c0a6ca384d545a93413f1f64736f6c63430008170033\n}\n",
				"bytecode": {
					"linkReferences": {},
					"object": "60e060405234801561000f575f80fd5b50604051610b4f380380610b4f83398101604081905261002e9161004b565b6001600160a01b0390921660805260a0523360c05260015561008a565b5f805f6060848603121561005d575f80fd5b83516001600160a01b0381168114610073575f80fd5b602085015160409095015190969495509392505050565b60805160a05160c051610a566100f95f395f818160ee015281816104ec015281816105d10152818161086e01526108d701525f81816102a501528181610608015281816107e301526108ff01525f81816101ad0152818161062e0152818161080901526109250152610a565ff3fe6080604052600436106100d9575f3560e01c80637cc3ae8c1161007c578063c410964811610057578063c410964814610271578063c6bc518214610294578063d57bde79146102c7578063efbe1c1c146102dc575f80fd5b80637cc3ae8c1461020857806391f9015714610238578063be9a65551461025d575f80fd5b80631f2698ab116100b75780631f2698ab146101685780633ccfd60b1461018857806347ccca021461019c57806362ea82db146101cf575f80fd5b806308551a53146100dd57806312fa6feb1461012d5780631998aeef1461015e575b5f80fd5b3480156100e8575f80fd5b506101107f000000000000000000000000000000000000000000000000000000000000000081565b6040516001600160a01b0390911681526020015b60405180910390f35b348015610138575f80fd5b505f5461014e9065010000000000900460ff1681565b6040519015158152602001610124565b6101666102f0565b005b348015610173575f80fd5b505f5461014e90640100000000900460ff1681565b348015610193575f80fd5b5061016661046a565b3480156101a7575f80fd5b506101107f000000000000000000000000000000000000000000000000000000000000000081565b3480156101da575f80fd5b506101fa6101e93660046109ce565b60026020525f908152604090205481565b604051908152602001610124565b348015610213575f80fd5b505f546102239063ffffffff1681565b60405163ffffffff9091168152602001610124565b348015610243575f80fd5b505f5461011090600160301b90046001600160a01b031681565b348015610268575f80fd5b506101666104e1565b34801561027c575f80fd5b505f54600160301b90046001600160a01b0316610110565b34801561029f575f80fd5b506101fa7f000000000000000000000000000000000000000000000000000000000000000081565b3480156102d2575f80fd5b506101fa60015481565b3480156102e7575f80fd5b506101666106af565b5f54640100000000900460ff1661033c5760405162461bcd60e51b815260206004820152600b60248201526a1b9bdd081cdd185c9d195960aa1b60448201526064015b60405180910390fd5b5f5463ffffffff16421061037a5760405162461bcd60e51b8152602060048201526005602482015264195b99195960da1b6044820152606401610333565b60015434116103be5760405162461bcd60e51b815260206004820152601060248201526f1d985b1d594f1a1a59da195cdd109a5960821b6044820152606401610333565b5f54600160301b90046001600160a01b03161561040c576001545f8054600160301b90046001600160a01b0316815260026020526040812080549091906104069084906109fb565b90915550505b3460018190555f80546601000000000000600160d01b03191633600160301b810291909117909155604051918252907fe684a55f31b79eca403df938249029212a5925ec6be8012e099b45bc1019e5d29060200160405180910390a2565b335f81815260026020526040808220805490839055905190929183156108fc02918491818181858888f193505050501580156104a8573d5f803e3d5ffd5b5060405181815233907f884edad9ce6fa2440d8a54cc123490eb96d2768479d49ff9c7366125a94243649060200160405180910390a250565b336001600160a01b037f000000000000000000000000000000000000000000000000000000000000000016146105465760405162461bcd60e51b815260206004820152600a6024820152693737ba1039b2b63632b960b11b6044820152606401610333565b5f54640100000000900460ff161561058a5760405162461bcd60e51b81526020600482015260076024820152661cdd185c9d195960ca1b6044820152606401610333565b5f805464ff0000000019166401000000001790556105a94260b46109fb565b5f805463ffffffff191663ffffffff929092169190911790556040516323b872dd60e01b81527f00000000000000000000000000000000000000000000000000000000000000006001600160a01b0390811660048301523060248301527f000000000000000000000000000000000000000000000000000000000000000060448301527f000000000000000000000000000000000000000000000000000000000000000016906323b872dd906064015f604051808303815f87803b15801561066f575f80fd5b505af1158015610681573d5f803e3d5ffd5b50506040517f1b55ba3aa851a46be3b365aee5b5c140edd620d578922f3e8466d2cbd96f954b92505f9150a1565b5f54640100000000900460ff166106f65760405162461bcd60e51b815260206004820152600b60248201526a1b9bdd081cdd185c9d195960aa1b6044820152606401610333565b5f5465010000000000900460ff16156107395760405162461bcd60e51b8152602060048201526005602482015264195b99195960da1b6044820152606401610333565b5f5463ffffffff164210156107875760405162461bcd60e51b81526020600482015260146024820152736e6f7420656e6420617420746869732074696d6560601b6044820152606401610333565b5f805465ff00000000001916650100000000001790819055600160301b90046001600160a01b0316156108ba575f546040516323b872dd60e01b8152306004820152600160301b9091046001600160a01b0390811660248301527f000000000000000000000000000000000000000000000000000000000000000060448301527f000000000000000000000000000000000000000000000000000000000000000016906323b872dd906064015f604051808303815f87803b15801561084a575f80fd5b505af115801561085c573d5f803e3d5ffd5b50506001546040516001600160a01b037f000000000000000000000000000000000000000000000000000000000000000016935081156108fc0292505f818181858888f193505050501580156108b4573d5f803e3d5ffd5b5061097d565b6040516323b872dd60e01b81523060048201526001600160a01b037f0000000000000000000000000000000000000000000000000000000000000000811660248301527f000000000000000000000000000000000000000000000000000000000000000060448301527f000000000000000000000000000000000000000000000000000000000000000016906323b872dd906064015f604051808303815f87803b158015610966575f80fd5b505af1158015610978573d5f803e3d5ffd5b505050505b5f5460015460408051600160301b9093046001600160a01b0316835260208301919091527f7d7570b046e5ead3a4f3fbc9fa2445113625a1e79823776146316bafed6b8cc5910160405180910390a1565b5f602082840312156109de575f80fd5b81356001600160a01b03811681146109f4575f80fd5b9392505050565b80820180821115610a1a57634e487b7160e01b5f52601160045260245ffd5b9291505056fea26469706673582212206a1a381f2900fe28ca14e7b768d0698d7abd4c4ff5c0a6ca384d545a93413f1f64736f6c63430008170033",
					"opcodes": "PUSH1 0xE0 PUSH1 0x40 MSTORE CALLVALUE DUP1 ISZERO PUSH2 0xF JUMPI PUSH0 DUP1 REVERT JUMPDEST POP PUSH1 0x40 MLOAD PUSH2 0xB4F CODESIZE SUB DUP1 PUSH2 0xB4F DUP4 CODECOPY DUP2 ADD PUSH1 0x40 DUP2 SWAP1 MSTORE PUSH2 0x2E SWAP2 PUSH2 0x4B JUMP JUMPDEST PUSH1 0x1 PUSH1 0x1 PUSH1 0xA0 SHL SUB SWAP1 SWAP3 AND PUSH1 0x80 MSTORE PUSH1 0xA0 MSTORE CALLER PUSH1 0xC0 MSTORE PUSH1 0x1 SSTORE PUSH2 0x8A JUMP JUMPDEST PUSH0 DUP1 PUSH0 PUSH1 0x60 DUP5 DUP7 SUB SLT ISZERO PUSH2 0x5D JUMPI PUSH0 DUP1 REVERT JUMPDEST DUP4 MLOAD PUSH1 0x1 PUSH1 0x1 PUSH1 0xA0 SHL SUB DUP2 AND DUP2 EQ PUSH2 0x73 JUMPI PUSH0 DUP1 REVERT JUMPDEST PUSH1 0x20 DUP6 ADD MLOAD PUSH1 0x40 SWAP1 SWAP6 ADD MLOAD SWAP1 SWAP7 SWAP5 SWAP6 POP SWAP4 SWAP3 POP POP POP JUMP JUMPDEST PUSH1 0x80 MLOAD PUSH1 0xA0 MLOAD PUSH1 0xC0 MLOAD PUSH2 0xA56 PUSH2 0xF9 PUSH0 CODECOPY PUSH0 DUP2 DUP2 PUSH1 0xEE ADD MSTORE DUP2 DUP2 PUSH2 0x4EC ADD MSTORE DUP2 DUP2 PUSH2 0x5D1 ADD MSTORE DUP2 DUP2 PUSH2 0x86E ADD MSTORE PUSH2 0x8D7 ADD MSTORE PUSH0 DUP2 DUP2 PUSH2 0x2A5 ADD MSTORE DUP2 DUP2 PUSH2 0x608 ADD MSTORE DUP2 DUP2 PUSH2 0x7E3 ADD MSTORE PUSH2 0x8FF ADD MSTORE PUSH0 DUP2 DUP2 PUSH2 0x1AD ADD MSTORE DUP2 DUP2 PUSH2 0x62E ADD MSTORE DUP2 DUP2 PUSH2 0x809 ADD MSTORE PUSH2 0x925 ADD MSTORE PUSH2 0xA56 PUSH0 RETURN INVALID PUSH1 0x80 PUSH1 0x40 MSTORE PUSH1 0x4 CALLDATASIZE LT PUSH2 0xD9 JUMPI PUSH0 CALLDATALOAD PUSH1 0xE0 SHR DUP1 PUSH4 0x7CC3AE8C GT PUSH2 0x7C JUMPI DUP1 PUSH4 0xC4109648 GT PUSH2 0x57 JUMPI DUP1 PUSH4 0xC4109648 EQ PUSH2 0x271 JUMPI DUP1 PUSH4 0xC6BC5182 EQ PUSH2 0x294 JUMPI DUP1 PUSH4 0xD57BDE79 EQ PUSH2 0x2C7 JUMPI DUP1 PUSH4 0xEFBE1C1C EQ PUSH2 0x2DC JUMPI PUSH0 DUP1 REVERT JUMPDEST DUP1 PUSH4 0x7CC3AE8C EQ PUSH2 0x208 JUMPI DUP1 PUSH4 0x91F90157 EQ PUSH2 0x238 JUMPI DUP1 PUSH4 0xBE9A6555 EQ PUSH2 0x25D JUMPI PUSH0 DUP1 REVERT JUMPDEST DUP1 PUSH4 0x1F2698AB GT PUSH2 0xB7 JUMPI DUP1 PUSH4 0x1F2698AB EQ PUSH2 0x168 JUMPI DUP1 PUSH4 0x3CCFD60B EQ PUSH2 0x188 JUMPI DUP1 PUSH4 0x47CCCA02 EQ PUSH2 0x19C JUMPI DUP1 PUSH4 0x62EA82DB EQ PUSH2 0x1CF JUMPI PUSH0 DUP1 REVERT JUMPDEST DUP1 PUSH4 0x8551A53 EQ PUSH2 0xDD JUMPI DUP1 PUSH4 0x12FA6FEB EQ PUSH2 0x12D JUMPI DUP1 PUSH4 0x1998AEEF EQ PUSH2 0x15E JUMPI JUMPDEST PUSH0 DUP1 REVERT JUMPDEST CALLVALUE DUP1 ISZERO PUSH2 0xE8 JUMPI PUSH0 DUP1 REVERT JUMPDEST POP PUSH2 0x110 PUSH32 0x0 DUP2 JUMP JUMPDEST PUSH1 0x40 MLOAD PUSH1 0x1 PUSH1 0x1 PUSH1 0xA0 SHL SUB SWAP1 SWAP2 AND DUP2 MSTORE PUSH1 0x20 ADD JUMPDEST PUSH1 0x40 MLOAD DUP1 SWAP2 SUB SWAP1 RETURN JUMPDEST CALLVALUE DUP1 ISZERO PUSH2 0x138 JUMPI PUSH0 DUP1 REVERT JUMPDEST POP PUSH0 SLOAD PUSH2 0x14E SWAP1 PUSH6 0x10000000000 SWAP1 DIV PUSH1 0xFF AND DUP2 JUMP JUMPDEST PUSH1 0x40 MLOAD SWAP1 ISZERO ISZERO DUP2 MSTORE PUSH1 0x20 ADD PUSH2 0x124 JUMP JUMPDEST PUSH2 0x166 PUSH2 0x2F0 JUMP JUMPDEST STOP JUMPDEST CALLVALUE DUP1 ISZERO PUSH2 0x173 JUMPI PUSH0 DUP1 REVERT JUMPDEST POP PUSH0 SLOAD PUSH2 0x14E SWAP1 PUSH5 0x100000000 SWAP1 DIV PUSH1 0xFF AND DUP2 JUMP JUMPDEST CALLVALUE DUP1 ISZERO PUSH2 0x193 JUMPI PUSH0 DUP1 REVERT JUMPDEST POP PUSH2 0x166 PUSH2 0x46A JUMP JUMPDEST CALLVALUE DUP1 ISZERO PUSH2 0x1A7 JUMPI PUSH0 DUP1 REVERT JUMPDEST POP PUSH2 0x110 PUSH32 0x0 DUP2 JUMP JUMPDEST CALLVALUE DUP1 ISZERO PUSH2 0x1DA JUMPI PUSH0 DUP1 REVERT JUMPDEST POP PUSH2 0x1FA PUSH2 0x1E9 CALLDATASIZE PUSH1 0x4 PUSH2 0x9CE JUMP JUMPDEST PUSH1 0x2 PUSH1 0x20 MSTORE PUSH0 SWAP1 DUP2 MSTORE PUSH1 0x40 SWAP1 KECCAK256 SLOAD DUP2 JUMP JUMPDEST PUSH1 0x40 MLOAD SWAP1 DUP2 MSTORE PUSH1 0x20 ADD PUSH2 0x124 JUMP JUMPDEST CALLVALUE DUP1 ISZERO PUSH2 0x213 JUMPI PUSH0 DUP1 REVERT JUMPDEST POP PUSH0 SLOAD PUSH2 0x223 SWAP1 PUSH4 0xFFFFFFFF AND DUP2 JUMP JUMPDEST PUSH1 0x40 MLOAD PUSH4 0xFFFFFFFF SWAP1 SWAP2 AND DUP2 MSTORE PUSH1 0x20 ADD PUSH2 0x124 JUMP JUMPDEST CALLVALUE DUP1 ISZERO PUSH2 0x243 JUMPI PUSH0 DUP1 REVERT JUMPDEST POP PUSH0 SLOAD PUSH2 0x110 SWAP1 PUSH1 0x1 PUSH1 0x30 SHL SWAP1 DIV PUSH1 0x1 PUSH1 0x1 PUSH1 0xA0 SHL SUB AND DUP2 JUMP JUMPDEST CALLVALUE DUP1 ISZERO PUSH2 0x268 JUMPI PUSH0 DUP1 REVERT JUMPDEST POP PUSH2 0x166 PUSH2 0x4E1 JUMP JUMPDEST CALLVALUE DUP1 ISZERO PUSH2 0x27C JUMPI PUSH0 DUP1 REVERT JUMPDEST POP PUSH0 SLOAD PUSH1 0x1 PUSH1 0x30 SHL SWAP1 DIV PUSH1 0x1 PUSH1 0x1 PUSH1 0xA0 SHL SUB AND PUSH2 0x110 JUMP JUMPDEST CALLVALUE DUP1 ISZERO PUSH2 0x29F JUMPI PUSH0 DUP1 REVERT JUMPDEST POP PUSH2 0x1FA PUSH32 0x0 DUP2 JUMP JUMPDEST CALLVALUE DUP1 ISZERO PUSH2 0x2D2 JUMPI PUSH0 DUP1 REVERT JUMPDEST POP PUSH2 0x1FA PUSH1 0x1 SLOAD DUP2 JUMP JUMPDEST CALLVALUE DUP1 ISZERO PUSH2 0x2E7 JUMPI PUSH0 DUP1 REVERT JUMPDEST POP PUSH2 0x166 PUSH2 0x6AF JUMP JUMPDEST PUSH0 SLOAD PUSH5 0x100000000 SWAP1 DIV PUSH1 0xFF AND PUSH2 0x33C JUMPI PUSH1 0x40 MLOAD PUSH3 0x461BCD PUSH1 0xE5 SHL DUP2 MSTORE PUSH1 0x20 PUSH1 0x4 DUP3 ADD MSTORE PUSH1 0xB PUSH1 0x24 DUP3 ADD MSTORE PUSH11 0x1B9BDD081CDD185C9D1959 PUSH1 0xAA SHL PUSH1 0x44 DUP3 ADD MSTORE PUSH1 0x64 ADD JUMPDEST PUSH1 0x40 MLOAD DUP1 SWAP2 SUB SWAP1 REVERT JUMPDEST PUSH0 SLOAD PUSH4 0xFFFFFFFF AND TIMESTAMP LT PUSH2 0x37A JUMPI PUSH1 0x40 MLOAD PUSH3 0x461BCD PUSH1 0xE5 SHL DUP2 MSTORE PUSH1 0x20 PUSH1 0x4 DUP3 ADD MSTORE PUSH1 0x5 PUSH1 0x24 DUP3 ADD MSTORE PUSH5 0x195B991959 PUSH1 0xDA SHL PUSH1 0x44 DUP3 ADD MSTORE PUSH1 0x64 ADD PUSH2 0x333 JUMP JUMPDEST PUSH1 0x1 SLOAD CALLVALUE GT PUSH2 0x3BE JUMPI PUSH1 0x40 MLOAD PUSH3 0x461BCD PUSH1 0xE5 SHL DUP2 MSTORE PUSH1 0x20 PUSH1 0x4 DUP3 ADD MSTORE PUSH1 0x10 PUSH1 0x24 DUP3 ADD MSTORE PUSH16 0x1D985B1D594F1A1A59DA195CDD109A59 PUSH1 0x82 SHL PUSH1 0x44 DUP3 ADD MSTORE PUSH1 0x64 ADD PUSH2 0x333 JUMP JUMPDEST PUSH0 SLOAD PUSH1 0x1 PUSH1 0x30 SHL SWAP1 DIV PUSH1 0x1 PUSH1 0x1 PUSH1 0xA0 SHL SUB AND ISZERO PUSH2 0x40C JUMPI PUSH1 0x1 SLOAD PUSH0 DUP1 SLOAD PUSH1 0x1 PUSH1 0x30 SHL SWAP1 DIV PUSH1 0x1 PUSH1 0x1 PUSH1 0xA0 SHL SUB AND DUP2 MSTORE PUSH1 0x2 PUSH1 0x20 MSTORE PUSH1 0x40 DUP2 KECCAK256 DUP1 SLOAD SWAP1 SWAP2 SWAP1 PUSH2 0x406 SWAP1 DUP5 SWAP1 PUSH2 0x9FB JUMP JUMPDEST SWAP1 SWAP2 SSTORE POP POP JUMPDEST CALLVALUE PUSH1 0x1 DUP2 SWAP1 SSTORE PUSH0 DUP1 SLOAD PUSH7 0x1000000000000 PUSH1 0x1 PUSH1 0xD0 SHL SUB NOT AND CALLER PUSH1 0x1 PUSH1 0x30 SHL DUP2 MUL SWAP2 SWAP1 SWAP2 OR SWAP1 SWAP2 SSTORE PUSH1 0x40 MLOAD SWAP2 DUP3 MSTORE SWAP1 PUSH32 0xE684A55F31B79ECA403DF938249029212A5925EC6BE8012E099B45BC1019E5D2 SWAP1 PUSH1 0x20 ADD PUSH1 0x40 MLOAD DUP1 SWAP2 SUB SWAP1 LOG2 JUMP JUMPDEST CALLER PUSH0 DUP2 DUP2 MSTORE PUSH1 0x2 PUSH1 0x20 MSTORE PUSH1 0x40 DUP1 DUP3 KECCAK256 DUP1 SLOAD SWAP1 DUP4 SWAP1 SSTORE SWAP1 MLOAD SWAP1 SWAP3 SWAP2 DUP4 ISZERO PUSH2 0x8FC MUL SWAP2 DUP5 SWAP2 DUP2 DUP2 DUP2 DUP6 DUP9 DUP9 CALL SWAP4 POP POP POP POP ISZERO DUP1 ISZERO PUSH2 0x4A8 JUMPI RETURNDATASIZE PUSH0 DUP1 RETURNDATACOPY RETURNDATASIZE PUSH0 REVERT JUMPDEST POP PUSH1 0x40 MLOAD DUP2 DUP2 MSTORE CALLER SWAP1 PUSH32 0x884EDAD9CE6FA2440D8A54CC123490EB96D2768479D49FF9C7366125A9424364 SWAP1 PUSH1 0x20 ADD PUSH1 0x40 MLOAD DUP1 SWAP2 SUB SWAP1 LOG2 POP JUMP JUMPDEST CALLER PUSH1 0x1 PUSH1 0x1 PUSH1 0xA0 SHL SUB PUSH32 0x0 AND EQ PUSH2 0x546 JUMPI PUSH1 0x40 MLOAD PUSH3 0x461BCD PUSH1 0xE5 SHL DUP2 MSTORE PUSH1 0x20 PUSH1 0x4 DUP3 ADD MSTORE PUSH1 0xA PUSH1 0x24 DUP3 ADD MSTORE PUSH10 0x3737BA1039B2B63632B9 PUSH1 0xB1 SHL PUSH1 0x44 DUP3 ADD MSTORE PUSH1 0x64 ADD PUSH2 0x333 JUMP JUMPDEST PUSH0 SLOAD PUSH5 0x100000000 SWAP1 DIV PUSH1 0xFF AND ISZERO PUSH2 0x58A JUMPI PUSH1 0x40 MLOAD PUSH3 0x461BCD PUSH1 0xE5 SHL DUP2 MSTORE PUSH1 0x20 PUSH1 0x4 DUP3 ADD MSTORE PUSH1 0x7 PUSH1 0x24 DUP3 ADD MSTORE PUSH7 0x1CDD185C9D1959 PUSH1 0xCA SHL PUSH1 0x44 DUP3 ADD MSTORE PUSH1 0x64 ADD PUSH2 0x333 JUMP JUMPDEST PUSH0 DUP1 SLOAD PUSH5 0xFF00000000 NOT AND PUSH5 0x100000000 OR SWAP1 SSTORE PUSH2 0x5A9 TIMESTAMP PUSH1 0xB4 PUSH2 0x9FB JUMP JUMPDEST PUSH0 DUP1 SLOAD PUSH4 0xFFFFFFFF NOT AND PUSH4 0xFFFFFFFF SWAP3 SWAP1 SWAP3 AND SWAP2 SWAP1 SWAP2 OR SWAP1 SSTORE PUSH1 0x40 MLOAD PUSH4 0x23B872DD PUSH1 0xE0 SHL DUP2 MSTORE PUSH32 0x0 PUSH1 0x1 PUSH1 0x1 PUSH1 0xA0 SHL SUB SWAP1 DUP2 AND PUSH1 0x4 DUP4 ADD MSTORE ADDRESS PUSH1 0x24 DUP4 ADD MSTORE PUSH32 0x0 PUSH1 0x44 DUP4 ADD MSTORE PUSH32 0x0 AND SWAP1 PUSH4 0x23B872DD SWAP1 PUSH1 0x64 ADD PUSH0 PUSH1 0x40 MLOAD DUP1 DUP4 SUB DUP2 PUSH0 DUP8 DUP1 EXTCODESIZE ISZERO DUP1 ISZERO PUSH2 0x66F JUMPI PUSH0 DUP1 REVERT JUMPDEST POP GAS CALL ISZERO DUP1 ISZERO PUSH2 0x681 JUMPI RETURNDATASIZE PUSH0 DUP1 RETURNDATACOPY RETURNDATASIZE PUSH0 REVERT JUMPDEST POP POP PUSH1 0x40 MLOAD PUSH32 0x1B55BA3AA851A46BE3B365AEE5B5C140EDD620D578922F3E8466D2CBD96F954B SWAP3 POP PUSH0 SWAP2 POP LOG1 JUMP JUMPDEST PUSH0 SLOAD PUSH5 0x100000000 SWAP1 DIV PUSH1 0xFF AND PUSH2 0x6F6 JUMPI PUSH1 0x40 MLOAD PUSH3 0x461BCD PUSH1 0xE5 SHL DUP2 MSTORE PUSH1 0x20 PUSH1 0x4 DUP3 ADD MSTORE PUSH1 0xB PUSH1 0x24 DUP3 ADD MSTORE PUSH11 0x1B9BDD081CDD185C9D1959 PUSH1 0xAA SHL PUSH1 0x44 DUP3 ADD MSTORE PUSH1 0x64 ADD PUSH2 0x333 JUMP JUMPDEST PUSH0 SLOAD PUSH6 0x10000000000 SWAP1 DIV PUSH1 0xFF AND ISZERO PUSH2 0x739 JUMPI PUSH1 0x40 MLOAD PUSH3 0x461BCD PUSH1 0xE5 SHL DUP2 MSTORE PUSH1 0x20 PUSH1 0x4 DUP3 ADD MSTORE PUSH1 0x5 PUSH1 0x24 DUP3 ADD MSTORE PUSH5 0x195B991959 PUSH1 0xDA SHL PUSH1 0x44 DUP3 ADD MSTORE PUSH1 0x64 ADD PUSH2 0x333 JUMP JUMPDEST PUSH0 SLOAD PUSH4 0xFFFFFFFF AND TIMESTAMP LT ISZERO PUSH2 0x787 JUMPI PUSH1 0x40 MLOAD PUSH3 0x461BCD PUSH1 0xE5 SHL DUP2 MSTORE PUSH1 0x20 PUSH1 0x4 DUP3 ADD MSTORE PUSH1 0x14 PUSH1 0x24 DUP3 ADD MSTORE PUSH20 0x6E6F7420656E6420617420746869732074696D65 PUSH1 0x60 SHL PUSH1 0x44 DUP3 ADD MSTORE PUSH1 0x64 ADD PUSH2 0x333 JUMP JUMPDEST PUSH0 DUP1 SLOAD PUSH6 0xFF0000000000 NOT AND PUSH6 0x10000000000 OR SWAP1 DUP2 SWAP1 SSTORE PUSH1 0x1 PUSH1 0x30 SHL SWAP1 DIV PUSH1 0x1 PUSH1 0x1 PUSH1 0xA0 SHL SUB AND ISZERO PUSH2 0x8BA JUMPI PUSH0 SLOAD PUSH1 0x40 MLOAD PUSH4 0x23B872DD PUSH1 0xE0 SHL DUP2 MSTORE ADDRESS PUSH1 0x4 DUP3 ADD MSTORE PUSH1 0x1 PUSH1 0x30 SHL SWAP1 SWAP2 DIV PUSH1 0x1 PUSH1 0x1 PUSH1 0xA0 SHL SUB SWAP1 DUP2 AND PUSH1 0x24 DUP4 ADD MSTORE PUSH32 0x0 PUSH1 0x44 DUP4 ADD MSTORE PUSH32 0x0 AND SWAP1 PUSH4 0x23B872DD SWAP1 PUSH1 0x64 ADD PUSH0 PUSH1 0x40 MLOAD DUP1 DUP4 SUB DUP2 PUSH0 DUP8 DUP1 EXTCODESIZE ISZERO DUP1 ISZERO PUSH2 0x84A JUMPI PUSH0 DUP1 REVERT JUMPDEST POP GAS CALL ISZERO DUP1 ISZERO PUSH2 0x85C JUMPI RETURNDATASIZE PUSH0 DUP1 RETURNDATACOPY RETURNDATASIZE PUSH0 REVERT JUMPDEST POP POP PUSH1 0x1 SLOAD PUSH1 0x40 MLOAD PUSH1 0x1 PUSH1 0x1 PUSH1 0xA0 SHL SUB PUSH32 0x0 AND SWAP4 POP DUP2 ISZERO PUSH2 0x8FC MUL SWAP3 POP PUSH0 DUP2 DUP2 DUP2 DUP6 DUP9 DUP9 CALL SWAP4 POP POP POP POP ISZERO DUP1 ISZERO PUSH2 0x8B4 JUMPI RETURNDATASIZE PUSH0 DUP1 RETURNDATACOPY RETURNDATASIZE PUSH0 REVERT JUMPDEST POP PUSH2 0x97D JUMP JUMPDEST PUSH1 0x40 MLOAD PUSH4 0x23B872DD PUSH1 0xE0 SHL DUP2 MSTORE ADDRESS PUSH1 0x4 DUP3 ADD MSTORE PUSH1 0x1 PUSH1 0x1 PUSH1 0xA0 SHL SUB PUSH32 0x0 DUP2 AND PUSH1 0x24 DUP4 ADD MSTORE PUSH32 0x0 PUSH1 0x44 DUP4 ADD MSTORE PUSH32 0x0 AND SWAP1 PUSH4 0x23B872DD SWAP1 PUSH1 0x64 ADD PUSH0 PUSH1 0x40 MLOAD DUP1 DUP4 SUB DUP2 PUSH0 DUP8 DUP1 EXTCODESIZE ISZERO DUP1 ISZERO PUSH2 0x966 JUMPI PUSH0 DUP1 REVERT JUMPDEST POP GAS CALL ISZERO DUP1 ISZERO PUSH2 0x978 JUMPI RETURNDATASIZE PUSH0 DUP1 RETURNDATACOPY RETURNDATASIZE PUSH0 REVERT JUMPDEST POP POP POP POP JUMPDEST PUSH0 SLOAD PUSH1 0x1 SLOAD PUSH1 0x40 DUP1 MLOAD PUSH1 0x1 PUSH1 0x30 SHL SWAP1 SWAP4 DIV PUSH1 0x1 PUSH1 0x1 PUSH1 0xA0 SHL SUB AND DUP4 MSTORE PUSH1 0x20 DUP4 ADD SWAP2 SWAP1 SWAP2 MSTORE PUSH32 0x7D7570B046E5EAD3A4F3FBC9FA2445113625A1E79823776146316BAFED6B8CC5 SWAP2 ADD PUSH1 0x40 MLOAD DUP1 SWAP2 SUB SWAP1 LOG1 JUMP JUMPDEST PUSH0 PUSH1 0x20 DUP3 DUP5 SUB SLT ISZERO PUSH2 0x9DE JUMPI PUSH0 DUP1 REVERT JUMPDEST DUP2 CALLDATALOAD PUSH1 0x1 PUSH1 0x1 PUSH1 0xA0 SHL SUB DUP2 AND DUP2 EQ PUSH2 0x9F4 JUMPI PUSH0 DUP1 REVERT JUMPDEST SWAP4 SWAP3 POP POP POP JUMP JUMPDEST DUP1 DUP3 ADD DUP1 DUP3 GT ISZERO PUSH2 0xA1A JUMPI PUSH4 0x4E487B71 PUSH1 0xE0 SHL PUSH0 MSTORE PUSH1 0x11 PUSH1 0x4 MSTORE PUSH1 0x24 PUSH0 REVERT JUMPDEST SWAP3 SWAP2 POP POP JUMP INVALID LOG2 PUSH5 0x6970667358 0x22 SLT KECCAK256 PUSH11 0x1A381F2900FE28CA14E7B7 PUSH9 0xD0698D7ABD4C4FF5C0 0xA6 0xCA CODESIZE 0x4D SLOAD GAS SWAP4 COINBASE EXTCODEHASH 0x1F PUSH5 0x736F6C6343 STOP ADDMOD OR STOP CALLER "
				},
				"gasEstimates": {
					"creation": {
						"codeDepositCost": "529200",
						"executionCost": "infinite",
						"totalCost": "infinite"
					},
					"external": {
						"bid()": "85138",
						"bids(address)": "2570",
						"end()": "infinite",
						"endAt()": "2334",
						"ended()": "2365",
						"getBidder()": "2357",
						"highestBid()": "2360",
						"highestBidder()": "2386",
						"nft()": "infinite",
						"nftId()": "infinite",
						"seller()": "infinite",
						"start()": "infinite",
						"started()": "2342",
						"withdraw()": "infinite"
					}
				},
				"methodIdentifiers": {
					"bid()": "1998aeef",
					"bids(address)": "62ea82db",
					"end()": "efbe1c1c",
					"endAt()": "7cc3ae8c",
					"ended()": "12fa6feb",
					"getBidder()": "c4109648",
					"highestBid()": "d57bde79",
					"highestBidder()": "91f90157",
					"nft()": "47ccca02",
					"nftId()": "c6bc5182",
					"seller()": "08551a53",
					"start()": "be9a6555",
					"started()": "1f2698ab",
					"withdraw()": "3ccfd60b"
				}
			},
			"storageLayout": {
				"storage": [
					{
						"astId": 40,
						"contract": "threefour/EnglishAuction.sol:EnglishAuction",
						"label": "endAt",
						"offset": 0,
						"slot": "0",
						"type": "t_uint32"
					},
					{
						"astId": 42,
						"contract": "threefour/EnglishAuction.sol:EnglishAuction",
						"label": "started",
						"offset": 4,
						"slot": "0",
						"type": "t_bool"
					},
					{
						"astId": 44,
						"contract": "threefour/EnglishAuction.sol:EnglishAuction",
						"label": "ended",
						"offset": 5,
						"slot": "0",
						"type": "t_bool"
					},
					{
						"astId": 46,
						"contract": "threefour/EnglishAuction.sol:EnglishAuction",
						"label": "highestBidder",
						"offset": 6,
						"slot": "0",
						"type": "t_address"
					},
					{
						"astId": 48,
						"contract": "threefour/EnglishAuction.sol:EnglishAuction",
						"label": "highestBid",
						"offset": 0,
						"slot": "1",
						"type": "t_uint256"
					},
					{
						"astId": 52,
						"contract": "threefour/EnglishAuction.sol:EnglishAuction",
						"label": "bids",
						"offset": 0,
						"slot": "2",
						"type": "t_mapping(t_address,t_uint256)"
					}
				],
				"types": {
					"t_address": {
						"encoding": "inplace",
						"label": "address",
						"numberOfBytes": "20"
					},
					"t_bool": {
						"encoding": "inplace",
						"label": "bool",
						"numberOfBytes": "1"
					},
					"t_mapping(t_address,t_uint256)": {
						"encoding": "mapping",
						"key": "t_address",
						"label": "mapping(address => uint256)",
						"numberOfBytes": "32",
						"value": "t_uint256"
					},
					"t_uint256": {
						"encoding": "inplace",
						"label": "uint256",
						"numberOfBytes": "32"
					},
					"t_uint32": {
						"encoding": "inplace",
						"label": "uint32",
						"numberOfBytes": "4"
					}
				}
			},
			"userdoc": {
				"kind": "user",
				"methods": {},
				"version": 1
			}
		}
	}
}