{
	"contracts/FunctionSelector.sol": {
		"FunctionSelector": {
			"abi": [
				{
					"inputs": [
						{
							"internalType": "string",
							"name": "_func",
							"type": "string"
						}
					],
					"name": "getSelector",
					"outputs": [
						{
							"internalType": "bytes4",
							"name": "",
							"type": "bytes4"
						}
					],
					"stateMutability": "pure",
					"type": "function"
				}
			],
			"devdoc": {
				"kind": "dev",
				"methods": {},
				"version": 1
			},
			"evm": {
				"assembly": "    /* \"contracts/FunctionSelector.sol\":60:353  contract FunctionSelector{... */\n  mstore(0x40, 0x80)\n  callvalue\n  dup1\n  iszero\n  tag_1\n  jumpi\n  revert(0x00, 0x00)\ntag_1:\n  pop\n  dataSize(sub_0)\n  dup1\n  dataOffset(sub_0)\n  0x00\n  codecopy\n  0x00\n  return\nstop\n\nsub_0: assembly {\n        /* \"contracts/FunctionSelector.sol\":60:353  contract FunctionSelector{... */\n      mstore(0x40, 0x80)\n      callvalue\n      dup1\n      iszero\n      tag_1\n      jumpi\n      revert(0x00, 0x00)\n    tag_1:\n      pop\n      jumpi(tag_2, lt(calldatasize, 0x04))\n      shr(0xe0, calldataload(0x00))\n      dup1\n      0x80a003ff\n      eq\n      tag_3\n      jumpi\n    tag_2:\n      revert(0x00, 0x00)\n        /* \"contracts/FunctionSelector.sol\":207:350  function getSelector(string calldata _func) external pure returns (bytes4){... */\n    tag_3:\n      tag_4\n      tag_5\n      calldatasize\n      0x04\n      tag_6\n      jump\t// in\n    tag_5:\n      tag_7\n      jump\t// in\n    tag_4:\n      mload(0x40)\n      not(sub(shl(0xe0, 0x01), 0x01))\n        /* \"#utility.yul\":768:801   */\n      swap1\n      swap2\n      and\n        /* \"#utility.yul\":750:802   */\n      dup2\n      mstore\n        /* \"#utility.yul\":738:740   */\n      0x20\n        /* \"#utility.yul\":723:741   */\n      add\n        /* \"contracts/FunctionSelector.sol\":207:350  function getSelector(string calldata _func) external pure returns (bytes4){... */\n      mload(0x40)\n      dup1\n      swap2\n      sub\n      swap1\n      return\n    tag_7:\n        /* \"contracts/FunctionSelector.sol\":274:280  bytes4 */\n      0x00\n        /* \"contracts/FunctionSelector.sol\":334:339  _func */\n      dup3\n      dup3\n        /* \"contracts/FunctionSelector.sol\":317:340  abi.encodePacked(_func) */\n      add(0x20, mload(0x40))\n      tag_11\n      swap3\n      swap2\n      swap1\n      tag_12\n      jump\t// in\n    tag_11:\n      mload(0x40)\n      0x20\n      dup2\n      dup4\n      sub\n      sub\n      dup2\n      mstore\n      swap1\n      0x40\n      mstore\n        /* \"contracts/FunctionSelector.sol\":307:341  keccak256(abi.encodePacked(_func)) */\n      dup1\n      mload\n      swap1\n      0x20\n      add\n      keccak256\n        /* \"contracts/FunctionSelector.sol\":292:342  return  bytes4(keccak256(abi.encodePacked(_func))) */\n      swap1\n      pop\n        /* \"contracts/FunctionSelector.sol\":207:350  function getSelector(string calldata _func) external pure returns (bytes4){... */\n      swap3\n      swap2\n      pop\n      pop\n      jump\t// out\n        /* \"#utility.yul\":14:601   */\n    tag_6:\n        /* \"#utility.yul\":85:91   */\n      0x00\n        /* \"#utility.yul\":93:99   */\n      0x00\n        /* \"#utility.yul\":146:148   */\n      0x20\n        /* \"#utility.yul\":134:143   */\n      dup4\n        /* \"#utility.yul\":125:132   */\n      dup6\n        /* \"#utility.yul\":121:144   */\n      sub\n        /* \"#utility.yul\":117:149   */\n      slt\n        /* \"#utility.yul\":114:166   */\n      iszero\n      tag_15\n      jumpi\n        /* \"#utility.yul\":162:163   */\n      0x00\n        /* \"#utility.yul\":159:160   */\n      0x00\n        /* \"#utility.yul\":152:164   */\n      revert\n        /* \"#utility.yul\":114:166   */\n    tag_15:\n        /* \"#utility.yul\":202:211   */\n      dup3\n        /* \"#utility.yul\":189:212   */\n      calldataload\n        /* \"#utility.yul\":235:253   */\n      0xffffffffffffffff\n        /* \"#utility.yul\":227:233   */\n      dup2\n        /* \"#utility.yul\":224:254   */\n      gt\n        /* \"#utility.yul\":221:271   */\n      iszero\n      tag_16\n      jumpi\n        /* \"#utility.yul\":267:268   */\n      0x00\n        /* \"#utility.yul\":264:265   */\n      0x00\n        /* \"#utility.yul\":257:269   */\n      revert\n        /* \"#utility.yul\":221:271   */\n    tag_16:\n        /* \"#utility.yul\":290:312   */\n      dup4\n      add\n        /* \"#utility.yul\":343:347   */\n      0x1f\n        /* \"#utility.yul\":335:348   */\n      dup2\n      add\n        /* \"#utility.yul\":331:358   */\n      dup6\n      sgt\n        /* \"#utility.yul\":321:376   */\n      tag_17\n      jumpi\n        /* \"#utility.yul\":372:373   */\n      0x00\n        /* \"#utility.yul\":369:370   */\n      0x00\n        /* \"#utility.yul\":362:374   */\n      revert\n        /* \"#utility.yul\":321:376   */\n    tag_17:\n        /* \"#utility.yul\":412:414   */\n      dup1\n        /* \"#utility.yul\":399:415   */\n      calldataload\n        /* \"#utility.yul\":438:456   */\n      0xffffffffffffffff\n        /* \"#utility.yul\":430:436   */\n      dup2\n        /* \"#utility.yul\":427:457   */\n      gt\n        /* \"#utility.yul\":424:474   */\n      iszero\n      tag_18\n      jumpi\n        /* \"#utility.yul\":470:471   */\n      0x00\n        /* \"#utility.yul\":467:468   */\n      0x00\n        /* \"#utility.yul\":460:472   */\n      revert\n        /* \"#utility.yul\":424:474   */\n    tag_18:\n        /* \"#utility.yul\":515:522   */\n      dup6\n        /* \"#utility.yul\":510:512   */\n      0x20\n        /* \"#utility.yul\":501:507   */\n      dup3\n        /* \"#utility.yul\":497:499   */\n      dup5\n        /* \"#utility.yul\":493:508   */\n      add\n        /* \"#utility.yul\":489:513   */\n      add\n        /* \"#utility.yul\":486:523   */\n      gt\n        /* \"#utility.yul\":483:540   */\n      iszero\n      tag_19\n      jumpi\n        /* \"#utility.yul\":536:537   */\n      0x00\n        /* \"#utility.yul\":533:534   */\n      0x00\n        /* \"#utility.yul\":526:538   */\n      revert\n        /* \"#utility.yul\":483:540   */\n    tag_19:\n        /* \"#utility.yul\":567:569   */\n      0x20\n        /* \"#utility.yul\":559:570   */\n      swap2\n      swap1\n      swap2\n      add\n      swap6\n        /* \"#utility.yul\":589:595   */\n      swap1\n      swap5\n      pop\n        /* \"#utility.yul\":14:601   */\n      swap3\n      pop\n      pop\n      pop\n      jump\t// out\n        /* \"#utility.yul\":813:1086   */\n    tag_12:\n        /* \"#utility.yul\":998:1004   */\n      dup2\n        /* \"#utility.yul\":990:996   */\n      dup4\n        /* \"#utility.yul\":985:988   */\n      dup3\n        /* \"#utility.yul\":972:1005   */\n      calldatacopy\n        /* \"#utility.yul\":954:957   */\n      0x00\n        /* \"#utility.yul\":1024:1040   */\n      swap2\n      add\n        /* \"#utility.yul\":1049:1062   */\n      swap1\n      dup2\n      mstore\n        /* \"#utility.yul\":1024:1040   */\n      swap2\n        /* \"#utility.yul\":813:1086   */\n      swap1\n      pop\n      jump\t// out\n\n    auxdata: 0xa26469706673582212202e9f6fa9df206a87fa9418c5222bf5ea2635f4728461c1559182a0881162d00f64736f6c634300081d0033\n}\n",
				"bytecode": {
					"linkReferences": {},
					"object": "6080604052348015600e575f5ffd5b506101348061001c5f395ff3fe6080604052348015600e575f5ffd5b50600436106026575f3560e01c806380a003ff14602a575b5f5ffd5b603960353660046086565b6056565b6040516001600160e01b0319909116815260200160405180910390f35b5f8282604051602001606892919060ef565b60405160208183030381529060405280519060200120905092915050565b5f5f602083850312156096575f5ffd5b823567ffffffffffffffff81111560ab575f5ffd5b8301601f8101851360ba575f5ffd5b803567ffffffffffffffff81111560cf575f5ffd5b85602082840101111560df575f5ffd5b6020919091019590945092505050565b818382375f910190815291905056fea26469706673582212202e9f6fa9df206a87fa9418c5222bf5ea2635f4728461c1559182a0881162d00f64736f6c634300081d0033",
					"opcodes": "PUSH1 0x80 PUSH1 0x40 MSTORE CALLVALUE DUP1 ISZERO PUSH1 0xE JUMPI PUSH0 PUSH0 REVERT JUMPDEST POP PUSH2 0x134 DUP1 PUSH2 0x1C PUSH0 CODECOPY PUSH0 RETURN INVALID PUSH1 0x80 PUSH1 0x40 MSTORE CALLVALUE DUP1 ISZERO PUSH1 0xE JUMPI PUSH0 PUSH0 REVERT JUMPDEST POP PUSH1 0x4 CALLDATASIZE LT PUSH1 0x26 JUMPI PUSH0 CALLDATALOAD PUSH1 0xE0 SHR DUP1 PUSH4 0x80A003FF EQ PUSH1 0x2A JUMPI JUMPDEST PUSH0 PUSH0 REVERT JUMPDEST PUSH1 0x39 PUSH1 0x35 CALLDATASIZE PUSH1 0x4 PUSH1 0x86 JUMP JUMPDEST PUSH1 0x56 JUMP JUMPDEST PUSH1 0x40 MLOAD PUSH1 0x1 PUSH1 0x1 PUSH1 0xE0 SHL SUB NOT SWAP1 SWAP2 AND DUP2 MSTORE PUSH1 0x20 ADD PUSH1 0x40 MLOAD DUP1 SWAP2 SUB SWAP1 RETURN JUMPDEST PUSH0 DUP3 DUP3 PUSH1 0x40 MLOAD PUSH1 0x20 ADD PUSH1 0x68 SWAP3 SWAP2 SWAP1 PUSH1 0xEF JUMP JUMPDEST PUSH1 0x40 MLOAD PUSH1 0x20 DUP2 DUP4 SUB SUB DUP2 MSTORE SWAP1 PUSH1 0x40 MSTORE DUP1 MLOAD SWAP1 PUSH1 0x20 ADD KECCAK256 SWAP1 POP SWAP3 SWAP2 POP POP JUMP JUMPDEST PUSH0 PUSH0 PUSH1 0x20 DUP4 DUP6 SUB SLT ISZERO PUSH1 0x96 JUMPI PUSH0 PUSH0 REVERT JUMPDEST DUP3 CALLDATALOAD PUSH8 0xFFFFFFFFFFFFFFFF DUP2 GT ISZERO PUSH1 0xAB JUMPI PUSH0 PUSH0 REVERT JUMPDEST DUP4 ADD PUSH1 0x1F DUP2 ADD DUP6 SGT PUSH1 0xBA JUMPI PUSH0 PUSH0 REVERT JUMPDEST DUP1 CALLDATALOAD PUSH8 0xFFFFFFFFFFFFFFFF DUP2 GT ISZERO PUSH1 0xCF JUMPI PUSH0 PUSH0 REVERT JUMPDEST DUP6 PUSH1 0x20 DUP3 DUP5 ADD ADD GT ISZERO PUSH1 0xDF JUMPI PUSH0 PUSH0 REVERT JUMPDEST PUSH1 0x20 SWAP2 SWAP1 SWAP2 ADD SWAP6 SWAP1 SWAP5 POP SWAP3 POP POP POP JUMP JUMPDEST DUP2 DUP4 DUP3 CALLDATACOPY PUSH0 SWAP2 ADD SWAP1 DUP2 MSTORE SWAP2 SWAP1 POP JUMP INVALID LOG2 PUSH5 0x6970667358 0x22 SLT KECCAK256 0x2E SWAP16 PUSH16 0xA9DF206A87FA9418C5222BF5EA2635F4 PUSH19 0x8461C1559182A0881162D00F64736F6C634300 ADDMOD SAR STOP CALLER "
				},
				"gasEstimates": {
					"creation": {
						"codeDepositCost": "61600",
						"executionCost": "109",
						"totalCost": "61709"
					},
					"external": {
						"getSelector(string)": "infinite"
					}
				},
				"methodIdentifiers": {
					"getSelector(string)": "80a003ff"
				}
			},
			"storageLayout": {
				"storage": [],
				"types": null
			},
			"userdoc": {
				"kind": "user",
				"methods": {},
				"version": 1
			}
		}
	}
}