{
	"threefour/GasGolf.sol": {
		"GasGolf": {
			"abi": [
				{
					"inputs": [
						{
							"internalType": "uint256[]",
							"name": "nums",
							"type": "uint256[]"
						}
					],
					"name": "sumIfEventAndLessThan99_1",
					"outputs": [],
					"stateMutability": "nonpayable",
					"type": "function"
				},
				{
					"inputs": [
						{
							"internalType": "uint256[]",
							"name": "nums",
							"type": "uint256[]"
						}
					],
					"name": "sumIfEventAndLessThan99_2",
					"outputs": [],
					"stateMutability": "nonpayable",
					"type": "function"
				},
				{
					"inputs": [
						{
							"internalType": "uint256[]",
							"name": "nums",
							"type": "uint256[]"
						}
					],
					"name": "sumIfEventAndLessThan99_3",
					"outputs": [],
					"stateMutability": "nonpayable",
					"type": "function"
				},
				{
					"inputs": [
						{
							"internalType": "uint256[]",
							"name": "nums",
							"type": "uint256[]"
						}
					],
					"name": "sumIfEventAndLessThan99_4",
					"outputs": [],
					"stateMutability": "nonpayable",
					"type": "function"
				},
				{
					"inputs": [
						{
							"internalType": "uint256[]",
							"name": "nums",
							"type": "uint256[]"
						}
					],
					"name": "sumIfEventAndLessThan99_5",
					"outputs": [],
					"stateMutability": "nonpayable",
					"type": "function"
				},
				{
					"inputs": [
						{
							"internalType": "uint256[]",
							"name": "nums",
							"type": "uint256[]"
						}
					],
					"name": "sumIfEventAndLessThan99_6",
					"outputs": [],
					"stateMutability": "nonpayable",
					"type": "function"
				},
				{
					"inputs": [],
					"name": "total",
					"outputs": [
						{
							"internalType": "uint256",
							"name": "",
							"type": "uint256"
						}
					],
					"stateMutability": "view",
					"type": "function"
				},
				{
					"inputs": [],
					"name": "total2",
					"outputs": [
						{
							"internalType": "uint256",
							"name": "",
							"type": "uint256"
						}
					],
					"stateMutability": "view",
					"type": "function"
				},
				{
					"inputs": [],
					"name": "total3",
					"outputs": [
						{
							"internalType": "uint256",
							"name": "",
							"type": "uint256"
						}
					],
					"stateMutability": "view",
					"type": "function"
				},
				{
					"inputs": [],
					"name": "total4",
					"outputs": [
						{
							"internalType": "uint256",
							"name": "",
							"type": "uint256"
						}
					],
					"stateMutability": "view",
					"type": "function"
				},
				{
					"inputs": [],
					"name": "total5",
					"outputs": [
						{
							"internalType": "uint256",
							"name": "",
							"type": "uint256"
						}
					],
					"stateMutability": "view",
					"type": "function"
				},
				{
					"inputs": [],
					"name": "total6",
					"outputs": [
						{
							"internalType": "uint256",
							"name": "",
							"type": "uint256"
						}
					],
					"stateMutability": "view",
					"type": "function"
				}
			],
			"devdoc": {
				"kind": "dev",
				"methods": {},
				"version": 1
			},
			"evm": {
				"assembly": "    /* \"threefour/GasGolf.sol\":88:2939  contract GasGolf{... */\n  mstore(0x40, 0x80)\n  callvalue\n  dup1\n  iszero\n  tag_1\n  jumpi\n  revert(0x00, 0x00)\ntag_1:\n  pop\n  dataSize(sub_0)\n  dup1\n  dataOffset(sub_0)\n  0x00\n  codecopy\n  0x00\n  return\nstop\n\nsub_0: assembly {\n        /* \"threefour/GasGolf.sol\":88:2939  contract GasGolf{... */\n      mstore(0x40, 0x80)\n      callvalue\n      dup1\n      iszero\n      tag_1\n      jumpi\n      revert(0x00, 0x00)\n    tag_1:\n      pop\n      jumpi(tag_2, lt(calldatasize, 0x04))\n      shr(0xe0, calldataload(0x00))\n      dup1\n      0x9b726dc0\n      gt\n      tag_15\n      jumpi\n      dup1\n      0x9b726dc0\n      eq\n      tag_9\n      jumpi\n      dup1\n      0xa5a0823e\n      eq\n      tag_10\n      jumpi\n      dup1\n      0xb6c96806\n      eq\n      tag_11\n      jumpi\n      dup1\n      0xd027a27d\n      eq\n      tag_12\n      jumpi\n      dup1\n      0xdcc0105d\n      eq\n      tag_13\n      jumpi\n      dup1\n      0xf1508572\n      eq\n      tag_14\n      jumpi\n      revert(0x00, 0x00)\n    tag_15:\n      dup1\n      0x1203bf54\n      eq\n      tag_3\n      jumpi\n      dup1\n      0x188dc0a5\n      eq\n      tag_4\n      jumpi\n      dup1\n      0x20ac2263\n      eq\n      tag_5\n      jumpi\n      dup1\n      0x2ddbd13a\n      eq\n      tag_6\n      jumpi\n      dup1\n      0x5f36e8c2\n      eq\n      tag_7\n      jumpi\n      dup1\n      0x8b2497fe\n      eq\n      tag_8\n      jumpi\n    tag_2:\n      revert(0x00, 0x00)\n        /* \"threefour/GasGolf.sol\":266:287  uint256 public total6 */\n    tag_3:\n      tag_16\n      sload(0x05)\n      dup2\n      jump\n    tag_16:\n      mload(0x40)\n        /* \"#utility.yul\":160:185   */\n      swap1\n      dup2\n      mstore\n        /* \"#utility.yul\":148:150   */\n      0x20\n        /* \"#utility.yul\":133:151   */\n      add\n        /* \"threefour/GasGolf.sol\":266:287  uint256 public total6 */\n      mload(0x40)\n      dup1\n      swap2\n      sub\n      swap1\n      return\n        /* \"threefour/GasGolf.sol\":702:1007  function sumIfEventAndLessThan99_2(uint[] calldata nums) external {... */\n    tag_4:\n      tag_20\n      tag_21\n      calldatasize\n      0x04\n      tag_22\n      jump\t// in\n    tag_21:\n      tag_23\n      jump\t// in\n    tag_20:\n      stop\n        /* \"threefour/GasGolf.sol\":202:223  uint256 public total4 */\n    tag_5:\n      tag_16\n      sload(0x03)\n      dup2\n      jump\n        /* \"threefour/GasGolf.sol\":113:133  uint256 public total */\n    tag_6:\n      tag_16\n      sload(0x00)\n      dup2\n      jump\n        /* \"threefour/GasGolf.sol\":172:193  uint256 public total3 */\n    tag_7:\n      tag_16\n      sload(0x02)\n      dup2\n      jump\n        /* \"threefour/GasGolf.sol\":2526:2936  function sumIfEventAndLessThan99_6(uint[] calldata nums) external {... */\n    tag_8:\n      tag_20\n      tag_34\n      calldatasize\n      0x04\n      tag_22\n      jump\t// in\n    tag_34:\n      tag_35\n      jump\t// in\n        /* \"threefour/GasGolf.sol\":232:253  uint256 public total5 */\n    tag_9:\n      tag_16\n      sload(0x04)\n      dup2\n      jump\n        /* \"threefour/GasGolf.sol\":142:163  uint256 public total2 */\n    tag_10:\n      tag_16\n      sload(0x01)\n      dup2\n      jump\n        /* \"threefour/GasGolf.sol\":337:639  function sumIfEventAndLessThan99_1(uint[] memory nums) external {... */\n    tag_11:\n      tag_20\n      tag_43\n      calldatasize\n      0x04\n      tag_44\n      jump\t// in\n    tag_43:\n      tag_45\n      jump\t// in\n        /* \"threefour/GasGolf.sol\":1095:1453  function sumIfEventAndLessThan99_3(uint[] calldata nums) external {... */\n    tag_12:\n      tag_20\n      tag_47\n      calldatasize\n      0x04\n      tag_22\n      jump\t// in\n    tag_47:\n      tag_48\n      jump\t// in\n        /* \"threefour/GasGolf.sol\":2052:2439  function sumIfEventAndLessThan99_5(uint[] calldata nums) external {... */\n    tag_13:\n      tag_20\n      tag_50\n      calldatasize\n      0x04\n      tag_22\n      jump\t// in\n    tag_50:\n      tag_51\n      jump\t// in\n        /* \"threefour/GasGolf.sol\":1591:1979  function sumIfEventAndLessThan99_4(uint[] calldata nums) external {... */\n    tag_14:\n      tag_20\n      tag_53\n      calldatasize\n      0x04\n      tag_22\n      jump\t// in\n    tag_53:\n      tag_54\n      jump\t// in\n        /* \"threefour/GasGolf.sol\":702:1007  function sumIfEventAndLessThan99_2(uint[] calldata nums) external {... */\n    tag_23:\n        /* \"threefour/GasGolf.sol\":783:789  uint i */\n      0x00\n        /* \"threefour/GasGolf.sol\":779:1000  for(uint i=0;i<nums.length;i+=1){... */\n    tag_56:\n        /* \"threefour/GasGolf.sol\":792:805  i<nums.length */\n      dup2\n      dup2\n      lt\n        /* \"threefour/GasGolf.sol\":779:1000  for(uint i=0;i<nums.length;i+=1){... */\n      iszero\n      tag_57\n      jumpi\n        /* \"threefour/GasGolf.sol\":826:837  bool isEven */\n      0x00\n        /* \"threefour/GasGolf.sol\":846:847  2 */\n      0x02\n        /* \"threefour/GasGolf.sol\":838:842  nums */\n      dup5\n      dup5\n        /* \"threefour/GasGolf.sol\":843:844  i */\n      dup5\n        /* \"threefour/GasGolf.sol\":838:845  nums[i] */\n      dup2\n      dup2\n      lt\n      tag_60\n      jumpi\n      tag_60\n      tag_61\n      jump\t// in\n    tag_60:\n      swap1\n      pop\n      0x20\n      mul\n      add\n      calldataload\n        /* \"threefour/GasGolf.sol\":838:847  nums[i]%2 */\n      tag_62\n      swap2\n      swap1\n      tag_63\n      jump\t// in\n    tag_62:\n        /* \"threefour/GasGolf.sol\":838:850  nums[i]%2==0 */\n      iszero\n      swap1\n      pop\n        /* \"threefour/GasGolf.sol\":849:850  0 */\n      0x00\n        /* \"threefour/GasGolf.sol\":894:896  99 */\n      0x63\n        /* \"threefour/GasGolf.sol\":885:889  nums */\n      dup6\n      dup6\n        /* \"threefour/GasGolf.sol\":890:891  i */\n      dup6\n        /* \"threefour/GasGolf.sol\":885:892  nums[i] */\n      dup2\n      dup2\n      lt\n      tag_65\n      jumpi\n      tag_65\n      tag_61\n      jump\t// in\n    tag_65:\n      swap1\n      pop\n      0x20\n      mul\n      add\n      calldataload\n        /* \"threefour/GasGolf.sol\":885:896  nums[i] <99 */\n      lt\n        /* \"threefour/GasGolf.sol\":865:896  bool isLessThan99 = nums[i] <99 */\n      swap1\n      pop\n        /* \"threefour/GasGolf.sol\":914:920  isEven */\n      dup2\n        /* \"threefour/GasGolf.sol\":914:936  isEven && isLessThan99 */\n      dup1\n      iszero\n      tag_66\n      jumpi\n      pop\n        /* \"threefour/GasGolf.sol\":924:936  isLessThan99 */\n      dup1\n        /* \"threefour/GasGolf.sol\":914:936  isEven && isLessThan99 */\n    tag_66:\n        /* \"threefour/GasGolf.sol\":911:989  if(isEven && isLessThan99){... */\n      iszero\n      tag_67\n      jumpi\n        /* \"threefour/GasGolf.sol\":966:970  nums */\n      dup5\n      dup5\n        /* \"threefour/GasGolf.sol\":971:972  i */\n      dup5\n        /* \"threefour/GasGolf.sol\":966:973  nums[i] */\n      dup2\n      dup2\n      lt\n      tag_69\n      jumpi\n      tag_69\n      tag_61\n      jump\t// in\n    tag_69:\n      swap1\n      pop\n      0x20\n      mul\n      add\n      calldataload\n        /* \"threefour/GasGolf.sol\":956:962  total2 */\n      0x01\n      0x00\n        /* \"threefour/GasGolf.sol\":956:973  total2 += nums[i] */\n      dup3\n      dup3\n      sload\n      tag_70\n      swap2\n      swap1\n      tag_71\n      jump\t// in\n    tag_70:\n      swap1\n      swap2\n      sstore\n      pop\n      pop\n        /* \"threefour/GasGolf.sol\":911:989  if(isEven && isLessThan99){... */\n    tag_67:\n      pop\n        /* \"threefour/GasGolf.sol\":806:810  i+=1 */\n      tag_72\n      swap1\n      pop\n        /* \"threefour/GasGolf.sol\":809:810  1 */\n      0x01\n        /* \"threefour/GasGolf.sol\":806:810  i+=1 */\n      dup3\n      tag_71\n      jump\t// in\n    tag_72:\n      swap1\n      pop\n        /* \"threefour/GasGolf.sol\":779:1000  for(uint i=0;i<nums.length;i+=1){... */\n      jump(tag_56)\n    tag_57:\n      pop\n        /* \"threefour/GasGolf.sol\":702:1007  function sumIfEventAndLessThan99_2(uint[] calldata nums) external {... */\n      pop\n      pop\n      jump\t// out\n        /* \"threefour/GasGolf.sol\":2526:2936  function sumIfEventAndLessThan99_6(uint[] calldata nums) external {... */\n    tag_35:\n        /* \"threefour/GasGolf.sol\":2615:2621  total6 */\n      sload(0x05)\n        /* \"threefour/GasGolf.sol\":2603:2614  uint _total */\n      0x00\n        /* \"threefour/GasGolf.sol\":2632:2905  for(uint i=0;i<nums.length;i++){... */\n    tag_74:\n        /* \"threefour/GasGolf.sol\":2645:2658  i<nums.length */\n      dup3\n      dup2\n      lt\n        /* \"threefour/GasGolf.sol\":2632:2905  for(uint i=0;i<nums.length;i++){... */\n      iszero\n      tag_75\n      jumpi\n        /* \"threefour/GasGolf.sol\":2678:2687  uint numi */\n      0x00\n        /* \"threefour/GasGolf.sol\":2688:2692  nums */\n      dup5\n      dup5\n        /* \"threefour/GasGolf.sol\":2693:2694  i */\n      dup4\n        /* \"threefour/GasGolf.sol\":2688:2695  nums[i] */\n      dup2\n      dup2\n      lt\n      tag_78\n      jumpi\n      tag_78\n      tag_61\n      jump\t// in\n    tag_78:\n      swap1\n      pop\n      0x20\n      mul\n      add\n      calldataload\n        /* \"threefour/GasGolf.sol\":2678:2695  uint numi=nums[i] */\n      swap1\n      pop\n        /* \"threefour/GasGolf.sol\":2710:2721  bool isEven */\n      0x00\n        /* \"threefour/GasGolf.sol\":2727:2728  2 */\n      0x02\n        /* \"threefour/GasGolf.sol\":2722:2726  numi */\n      dup3\n        /* \"threefour/GasGolf.sol\":2722:2728  numi%2 */\n      tag_79\n      swap2\n      swap1\n      tag_63\n      jump\t// in\n    tag_79:\n        /* \"threefour/GasGolf.sol\":2722:2731  numi%2==0 */\n      iszero\n      swap1\n      pop\n      dup1\n        /* \"threefour/GasGolf.sol\":2826:2844  isEven && numi <99 */\n      dup1\n      iszero\n      tag_80\n      jumpi\n      pop\n        /* \"threefour/GasGolf.sol\":2842:2844  99 */\n      0x63\n        /* \"threefour/GasGolf.sol\":2836:2840  numi */\n      dup3\n        /* \"threefour/GasGolf.sol\":2836:2844  numi <99 */\n      lt\n        /* \"threefour/GasGolf.sol\":2826:2844  isEven && numi <99 */\n    tag_80:\n        /* \"threefour/GasGolf.sol\":2823:2894  if(isEven && numi <99){... */\n      iszero\n      tag_81\n      jumpi\n        /* \"threefour/GasGolf.sol\":2864:2878  _total += numi */\n      tag_82\n        /* \"threefour/GasGolf.sol\":2874:2878  numi */\n      dup3\n        /* \"threefour/GasGolf.sol\":2864:2878  _total += numi */\n      dup6\n      tag_71\n      jump\t// in\n    tag_82:\n      swap4\n      pop\n        /* \"threefour/GasGolf.sol\":2823:2894  if(isEven && numi <99){... */\n    tag_81:\n      pop\n      pop\n        /* \"threefour/GasGolf.sol\":2659:2662  i++ */\n      0x01\n      add\n        /* \"threefour/GasGolf.sol\":2632:2905  for(uint i=0;i<nums.length;i++){... */\n      jump(tag_74)\n    tag_75:\n      pop\n        /* \"threefour/GasGolf.sol\":2915:2921  total6 */\n      0x05\n        /* \"threefour/GasGolf.sol\":2915:2928  total6=_total */\n      sstore\n      pop\n      pop\n        /* \"threefour/GasGolf.sol\":2526:2936  function sumIfEventAndLessThan99_6(uint[] calldata nums) external {... */\n      jump\t// out\n        /* \"threefour/GasGolf.sol\":337:639  function sumIfEventAndLessThan99_1(uint[] memory nums) external {... */\n    tag_45:\n        /* \"threefour/GasGolf.sol\":416:422  uint i */\n      0x00\n        /* \"threefour/GasGolf.sol\":412:632  for(uint i=0;i<nums.length;i+=1){... */\n    tag_84:\n        /* \"threefour/GasGolf.sol\":427:431  nums */\n      dup2\n        /* \"threefour/GasGolf.sol\":427:438  nums.length */\n      mload\n        /* \"threefour/GasGolf.sol\":425:426  i */\n      dup2\n        /* \"threefour/GasGolf.sol\":425:438  i<nums.length */\n      lt\n        /* \"threefour/GasGolf.sol\":412:632  for(uint i=0;i<nums.length;i+=1){... */\n      iszero\n      tag_85\n      jumpi\n        /* \"threefour/GasGolf.sol\":459:470  bool isEven */\n      0x00\n        /* \"threefour/GasGolf.sol\":479:480  2 */\n      0x02\n        /* \"threefour/GasGolf.sol\":471:475  nums */\n      dup4\n        /* \"threefour/GasGolf.sol\":476:477  i */\n      dup4\n        /* \"threefour/GasGolf.sol\":471:478  nums[i] */\n      dup2\n      mload\n      dup2\n      lt\n      tag_88\n      jumpi\n      tag_88\n      tag_61\n      jump\t// in\n    tag_88:\n      0x20\n      mul\n      0x20\n      add\n      add\n      mload\n        /* \"threefour/GasGolf.sol\":471:480  nums[i]%2 */\n      tag_89\n      swap2\n      swap1\n      tag_63\n      jump\t// in\n    tag_89:\n        /* \"threefour/GasGolf.sol\":482:483  0 */\n      0x00\n        /* \"threefour/GasGolf.sol\":471:483  nums[i]%2==0 */\n      eq\n        /* \"threefour/GasGolf.sol\":459:483  bool isEven=nums[i]%2==0 */\n      swap1\n      pop\n        /* \"threefour/GasGolf.sol\":498:515  bool isLessThan99 */\n      0x00\n        /* \"threefour/GasGolf.sol\":527:529  99 */\n      0x63\n        /* \"threefour/GasGolf.sol\":518:522  nums */\n      dup5\n        /* \"threefour/GasGolf.sol\":523:524  i */\n      dup5\n        /* \"threefour/GasGolf.sol\":518:525  nums[i] */\n      dup2\n      mload\n      dup2\n      lt\n      tag_91\n      jumpi\n      tag_91\n      tag_61\n      jump\t// in\n    tag_91:\n      0x20\n      mul\n      0x20\n      add\n      add\n      mload\n        /* \"threefour/GasGolf.sol\":518:529  nums[i] <99 */\n      lt\n        /* \"threefour/GasGolf.sol\":498:529  bool isLessThan99 = nums[i] <99 */\n      swap1\n      pop\n        /* \"threefour/GasGolf.sol\":547:553  isEven */\n      dup2\n        /* \"threefour/GasGolf.sol\":547:569  isEven && isLessThan99 */\n      dup1\n      iszero\n      tag_92\n      jumpi\n      pop\n        /* \"threefour/GasGolf.sol\":557:569  isLessThan99 */\n      dup1\n        /* \"threefour/GasGolf.sol\":547:569  isEven && isLessThan99 */\n    tag_92:\n        /* \"threefour/GasGolf.sol\":544:621  if(isEven && isLessThan99){... */\n      iszero\n      tag_93\n      jumpi\n        /* \"threefour/GasGolf.sol\":598:602  nums */\n      dup4\n        /* \"threefour/GasGolf.sol\":603:604  i */\n      dup4\n        /* \"threefour/GasGolf.sol\":598:605  nums[i] */\n      dup2\n      mload\n      dup2\n      lt\n      tag_95\n      jumpi\n      tag_95\n      tag_61\n      jump\t// in\n    tag_95:\n      0x20\n      mul\n      0x20\n      add\n      add\n      mload\n        /* \"threefour/GasGolf.sol\":589:594  total */\n      0x00\n      0x00\n        /* \"threefour/GasGolf.sol\":589:605  total += nums[i] */\n      dup3\n      dup3\n      sload\n      tag_96\n      swap2\n      swap1\n      tag_71\n      jump\t// in\n    tag_96:\n      swap1\n      swap2\n      sstore\n      pop\n      pop\n        /* \"threefour/GasGolf.sol\":544:621  if(isEven && isLessThan99){... */\n    tag_93:\n      pop\n        /* \"threefour/GasGolf.sol\":439:443  i+=1 */\n      tag_97\n      swap1\n      pop\n        /* \"threefour/GasGolf.sol\":442:443  1 */\n      0x01\n        /* \"threefour/GasGolf.sol\":439:443  i+=1 */\n      dup3\n      tag_71\n      jump\t// in\n    tag_97:\n      swap1\n      pop\n        /* \"threefour/GasGolf.sol\":412:632  for(uint i=0;i<nums.length;i+=1){... */\n      jump(tag_84)\n    tag_85:\n      pop\n        /* \"threefour/GasGolf.sol\":337:639  function sumIfEventAndLessThan99_1(uint[] memory nums) external {... */\n      pop\n      jump\t// out\n        /* \"threefour/GasGolf.sol\":1095:1453  function sumIfEventAndLessThan99_3(uint[] calldata nums) external {... */\n    tag_48:\n        /* \"threefour/GasGolf.sol\":1184:1190  total3 */\n      sload(0x02)\n        /* \"threefour/GasGolf.sol\":1172:1183  uint _total */\n      0x00\n        /* \"threefour/GasGolf.sol\":1201:1422  for(uint i=0;i<nums.length;i+=1){... */\n    tag_99:\n        /* \"threefour/GasGolf.sol\":1214:1227  i<nums.length */\n      dup3\n      dup2\n      lt\n        /* \"threefour/GasGolf.sol\":1201:1422  for(uint i=0;i<nums.length;i+=1){... */\n      iszero\n      tag_100\n      jumpi\n        /* \"threefour/GasGolf.sol\":1248:1259  bool isEven */\n      0x00\n        /* \"threefour/GasGolf.sol\":1268:1269  2 */\n      0x02\n        /* \"threefour/GasGolf.sol\":1260:1264  nums */\n      dup6\n      dup6\n        /* \"threefour/GasGolf.sol\":1265:1266  i */\n      dup5\n        /* \"threefour/GasGolf.sol\":1260:1267  nums[i] */\n      dup2\n      dup2\n      lt\n      tag_103\n      jumpi\n      tag_103\n      tag_61\n      jump\t// in\n    tag_103:\n      swap1\n      pop\n      0x20\n      mul\n      add\n      calldataload\n        /* \"threefour/GasGolf.sol\":1260:1269  nums[i]%2 */\n      tag_104\n      swap2\n      swap1\n      tag_63\n      jump\t// in\n    tag_104:\n        /* \"threefour/GasGolf.sol\":1260:1272  nums[i]%2==0 */\n      iszero\n      swap1\n      pop\n        /* \"threefour/GasGolf.sol\":1271:1272  0 */\n      0x00\n        /* \"threefour/GasGolf.sol\":1316:1318  99 */\n      0x63\n        /* \"threefour/GasGolf.sol\":1307:1311  nums */\n      dup7\n      dup7\n        /* \"threefour/GasGolf.sol\":1312:1313  i */\n      dup6\n        /* \"threefour/GasGolf.sol\":1307:1314  nums[i] */\n      dup2\n      dup2\n      lt\n      tag_106\n      jumpi\n      tag_106\n      tag_61\n      jump\t// in\n    tag_106:\n      swap1\n      pop\n      0x20\n      mul\n      add\n      calldataload\n        /* \"threefour/GasGolf.sol\":1307:1318  nums[i] <99 */\n      lt\n        /* \"threefour/GasGolf.sol\":1287:1318  bool isLessThan99 = nums[i] <99 */\n      swap1\n      pop\n        /* \"threefour/GasGolf.sol\":1336:1342  isEven */\n      dup2\n        /* \"threefour/GasGolf.sol\":1336:1358  isEven && isLessThan99 */\n      dup1\n      iszero\n      tag_107\n      jumpi\n      pop\n        /* \"threefour/GasGolf.sol\":1346:1358  isLessThan99 */\n      dup1\n        /* \"threefour/GasGolf.sol\":1336:1358  isEven && isLessThan99 */\n    tag_107:\n        /* \"threefour/GasGolf.sol\":1333:1411  if(isEven && isLessThan99){... */\n      iszero\n      tag_108\n      jumpi\n        /* \"threefour/GasGolf.sol\":1388:1392  nums */\n      dup6\n      dup6\n        /* \"threefour/GasGolf.sol\":1393:1394  i */\n      dup5\n        /* \"threefour/GasGolf.sol\":1388:1395  nums[i] */\n      dup2\n      dup2\n      lt\n      tag_110\n      jumpi\n      tag_110\n      tag_61\n      jump\t// in\n    tag_110:\n      swap1\n      pop\n      0x20\n      mul\n      add\n      calldataload\n        /* \"threefour/GasGolf.sol\":1378:1395  _total += nums[i] */\n      dup5\n      tag_111\n      swap2\n      swap1\n      tag_71\n      jump\t// in\n    tag_111:\n      swap4\n      pop\n        /* \"threefour/GasGolf.sol\":1333:1411  if(isEven && isLessThan99){... */\n    tag_108:\n      pop\n        /* \"threefour/GasGolf.sol\":1228:1232  i+=1 */\n      tag_112\n      swap1\n      pop\n        /* \"threefour/GasGolf.sol\":1231:1232  1 */\n      0x01\n        /* \"threefour/GasGolf.sol\":1228:1232  i+=1 */\n      dup3\n      tag_71\n      jump\t// in\n    tag_112:\n      swap1\n      pop\n        /* \"threefour/GasGolf.sol\":1201:1422  for(uint i=0;i<nums.length;i+=1){... */\n      jump(tag_99)\n    tag_100:\n      pop\n        /* \"threefour/GasGolf.sol\":1432:1438  total3 */\n      0x02\n        /* \"threefour/GasGolf.sol\":1432:1445  total3=_total */\n      sstore\n      pop\n      pop\n        /* \"threefour/GasGolf.sol\":1095:1453  function sumIfEventAndLessThan99_3(uint[] calldata nums) external {... */\n      jump\t// out\n        /* \"threefour/GasGolf.sol\":2052:2439  function sumIfEventAndLessThan99_5(uint[] calldata nums) external {... */\n    tag_51:\n        /* \"threefour/GasGolf.sol\":2141:2147  total5 */\n      sload(0x04)\n        /* \"threefour/GasGolf.sol\":2129:2140  uint _total */\n      0x00\n        /* \"threefour/GasGolf.sol\":2158:2408  for(uint i=0;i<nums.length;i++){... */\n    tag_114:\n        /* \"threefour/GasGolf.sol\":2171:2184  i<nums.length */\n      dup3\n      dup2\n      lt\n        /* \"threefour/GasGolf.sol\":2158:2408  for(uint i=0;i<nums.length;i++){... */\n      iszero\n      tag_115\n      jumpi\n        /* \"threefour/GasGolf.sol\":2204:2215  bool isEven */\n      0x00\n        /* \"threefour/GasGolf.sol\":2224:2225  2 */\n      0x02\n        /* \"threefour/GasGolf.sol\":2216:2220  nums */\n      dup6\n      dup6\n        /* \"threefour/GasGolf.sol\":2221:2222  i */\n      dup5\n        /* \"threefour/GasGolf.sol\":2216:2223  nums[i] */\n      dup2\n      dup2\n      lt\n      tag_118\n      jumpi\n      tag_118\n      tag_61\n      jump\t// in\n    tag_118:\n      swap1\n      pop\n      0x20\n      mul\n      add\n      calldataload\n        /* \"threefour/GasGolf.sol\":2216:2225  nums[i]%2 */\n      tag_119\n      swap2\n      swap1\n      tag_63\n      jump\t// in\n    tag_119:\n        /* \"threefour/GasGolf.sol\":2216:2228  nums[i]%2==0 */\n      iszero\n      swap1\n      pop\n      dup1\n        /* \"threefour/GasGolf.sol\":2323:2344  isEven && nums[i] <99 */\n      dup1\n      iszero\n      tag_120\n      jumpi\n      pop\n        /* \"threefour/GasGolf.sol\":2342:2344  99 */\n      0x63\n        /* \"threefour/GasGolf.sol\":2333:2337  nums */\n      dup6\n      dup6\n        /* \"threefour/GasGolf.sol\":2338:2339  i */\n      dup5\n        /* \"threefour/GasGolf.sol\":2333:2340  nums[i] */\n      dup2\n      dup2\n      lt\n      tag_122\n      jumpi\n      tag_122\n      tag_61\n      jump\t// in\n    tag_122:\n      swap1\n      pop\n      0x20\n      mul\n      add\n      calldataload\n        /* \"threefour/GasGolf.sol\":2333:2344  nums[i] <99 */\n      lt\n        /* \"threefour/GasGolf.sol\":2323:2344  isEven && nums[i] <99 */\n    tag_120:\n        /* \"threefour/GasGolf.sol\":2320:2397  if(isEven && nums[i] <99){... */\n      iszero\n      tag_123\n      jumpi\n        /* \"threefour/GasGolf.sol\":2374:2378  nums */\n      dup5\n      dup5\n        /* \"threefour/GasGolf.sol\":2379:2380  i */\n      dup4\n        /* \"threefour/GasGolf.sol\":2374:2381  nums[i] */\n      dup2\n      dup2\n      lt\n      tag_125\n      jumpi\n      tag_125\n      tag_61\n      jump\t// in\n    tag_125:\n      swap1\n      pop\n      0x20\n      mul\n      add\n      calldataload\n        /* \"threefour/GasGolf.sol\":2364:2381  _total += nums[i] */\n      dup4\n      tag_126\n      swap2\n      swap1\n      tag_71\n      jump\t// in\n    tag_126:\n      swap3\n      pop\n        /* \"threefour/GasGolf.sol\":2320:2397  if(isEven && nums[i] <99){... */\n    tag_123:\n      pop\n        /* \"threefour/GasGolf.sol\":2185:2188  i++ */\n      0x01\n      add\n        /* \"threefour/GasGolf.sol\":2158:2408  for(uint i=0;i<nums.length;i++){... */\n      jump(tag_114)\n    tag_115:\n      pop\n        /* \"threefour/GasGolf.sol\":2418:2424  total5 */\n      0x04\n        /* \"threefour/GasGolf.sol\":2418:2431  total5=_total */\n      sstore\n      pop\n      pop\n        /* \"threefour/GasGolf.sol\":2052:2439  function sumIfEventAndLessThan99_5(uint[] calldata nums) external {... */\n      jump\t// out\n        /* \"threefour/GasGolf.sol\":1591:1979  function sumIfEventAndLessThan99_4(uint[] calldata nums) external {... */\n    tag_54:\n        /* \"threefour/GasGolf.sol\":1680:1686  total4 */\n      sload(0x03)\n        /* \"threefour/GasGolf.sol\":1668:1679  uint _total */\n      0x00\n        /* \"threefour/GasGolf.sol\":1697:1948  for(uint i=0;i<nums.length;i+=1){... */\n    tag_128:\n        /* \"threefour/GasGolf.sol\":1710:1723  i<nums.length */\n      dup3\n      dup2\n      lt\n        /* \"threefour/GasGolf.sol\":1697:1948  for(uint i=0;i<nums.length;i+=1){... */\n      iszero\n      tag_129\n      jumpi\n        /* \"threefour/GasGolf.sol\":1744:1755  bool isEven */\n      0x00\n        /* \"threefour/GasGolf.sol\":1764:1765  2 */\n      0x02\n        /* \"threefour/GasGolf.sol\":1756:1760  nums */\n      dup6\n      dup6\n        /* \"threefour/GasGolf.sol\":1761:1762  i */\n      dup5\n        /* \"threefour/GasGolf.sol\":1756:1763  nums[i] */\n      dup2\n      dup2\n      lt\n      tag_132\n      jumpi\n      tag_132\n      tag_61\n      jump\t// in\n    tag_132:\n      swap1\n      pop\n      0x20\n      mul\n      add\n      calldataload\n        /* \"threefour/GasGolf.sol\":1756:1765  nums[i]%2 */\n      tag_133\n      swap2\n      swap1\n      tag_63\n      jump\t// in\n    tag_133:\n        /* \"threefour/GasGolf.sol\":1756:1768  nums[i]%2==0 */\n      iszero\n      swap1\n      pop\n      dup1\n        /* \"threefour/GasGolf.sol\":1863:1884  isEven && nums[i] <99 */\n      dup1\n      iszero\n      tag_134\n      jumpi\n      pop\n        /* \"threefour/GasGolf.sol\":1882:1884  99 */\n      0x63\n        /* \"threefour/GasGolf.sol\":1873:1877  nums */\n      dup6\n      dup6\n        /* \"threefour/GasGolf.sol\":1878:1879  i */\n      dup5\n        /* \"threefour/GasGolf.sol\":1873:1880  nums[i] */\n      dup2\n      dup2\n      lt\n      tag_136\n      jumpi\n      tag_136\n      tag_61\n      jump\t// in\n    tag_136:\n      swap1\n      pop\n      0x20\n      mul\n      add\n      calldataload\n        /* \"threefour/GasGolf.sol\":1873:1884  nums[i] <99 */\n      lt\n        /* \"threefour/GasGolf.sol\":1863:1884  isEven && nums[i] <99 */\n    tag_134:\n        /* \"threefour/GasGolf.sol\":1860:1937  if(isEven && nums[i] <99){... */\n      iszero\n      tag_137\n      jumpi\n        /* \"threefour/GasGolf.sol\":1914:1918  nums */\n      dup5\n      dup5\n        /* \"threefour/GasGolf.sol\":1919:1920  i */\n      dup4\n        /* \"threefour/GasGolf.sol\":1914:1921  nums[i] */\n      dup2\n      dup2\n      lt\n      tag_139\n      jumpi\n      tag_139\n      tag_61\n      jump\t// in\n    tag_139:\n      swap1\n      pop\n      0x20\n      mul\n      add\n      calldataload\n        /* \"threefour/GasGolf.sol\":1904:1921  _total += nums[i] */\n      dup4\n      tag_140\n      swap2\n      swap1\n      tag_71\n      jump\t// in\n    tag_140:\n      swap3\n      pop\n        /* \"threefour/GasGolf.sol\":1860:1937  if(isEven && nums[i] <99){... */\n    tag_137:\n      pop\n        /* \"threefour/GasGolf.sol\":1724:1728  i+=1 */\n      tag_141\n        /* \"threefour/GasGolf.sol\":1727:1728  1 */\n      0x01\n        /* \"threefour/GasGolf.sol\":1724:1728  i+=1 */\n      dup3\n      tag_71\n      jump\t// in\n    tag_141:\n      swap1\n      pop\n        /* \"threefour/GasGolf.sol\":1697:1948  for(uint i=0;i<nums.length;i+=1){... */\n      jump(tag_128)\n    tag_129:\n      pop\n        /* \"threefour/GasGolf.sol\":1958:1964  total4 */\n      0x03\n        /* \"threefour/GasGolf.sol\":1958:1971  total4=_total */\n      sstore\n      pop\n      pop\n        /* \"threefour/GasGolf.sol\":1591:1979  function sumIfEventAndLessThan99_4(uint[] calldata nums) external {... */\n      jump\t// out\n        /* \"#utility.yul\":196:806   */\n    tag_22:\n        /* \"#utility.yul\":282:288   */\n      0x00\n        /* \"#utility.yul\":290:296   */\n      0x00\n        /* \"#utility.yul\":343:345   */\n      0x20\n        /* \"#utility.yul\":331:340   */\n      dup4\n        /* \"#utility.yul\":322:329   */\n      dup6\n        /* \"#utility.yul\":318:341   */\n      sub\n        /* \"#utility.yul\":314:346   */\n      slt\n        /* \"#utility.yul\":311:363   */\n      iszero\n      tag_146\n      jumpi\n        /* \"#utility.yul\":359:360   */\n      0x00\n        /* \"#utility.yul\":356:357   */\n      0x00\n        /* \"#utility.yul\":349:361   */\n      revert\n        /* \"#utility.yul\":311:363   */\n    tag_146:\n        /* \"#utility.yul\":399:408   */\n      dup3\n        /* \"#utility.yul\":386:409   */\n      calldataload\n        /* \"#utility.yul\":432:450   */\n      0xffffffffffffffff\n        /* \"#utility.yul\":424:430   */\n      dup2\n        /* \"#utility.yul\":421:451   */\n      gt\n        /* \"#utility.yul\":418:468   */\n      iszero\n      tag_147\n      jumpi\n        /* \"#utility.yul\":464:465   */\n      0x00\n        /* \"#utility.yul\":461:462   */\n      0x00\n        /* \"#utility.yul\":454:466   */\n      revert\n        /* \"#utility.yul\":418:468   */\n    tag_147:\n        /* \"#utility.yul\":487:509   */\n      dup4\n      add\n        /* \"#utility.yul\":540:544   */\n      0x1f\n        /* \"#utility.yul\":532:545   */\n      dup2\n      add\n        /* \"#utility.yul\":528:555   */\n      dup6\n      sgt\n        /* \"#utility.yul\":518:573   */\n      tag_148\n      jumpi\n        /* \"#utility.yul\":569:570   */\n      0x00\n        /* \"#utility.yul\":566:567   */\n      0x00\n        /* \"#utility.yul\":559:571   */\n      revert\n        /* \"#utility.yul\":518:573   */\n    tag_148:\n        /* \"#utility.yul\":609:611   */\n      dup1\n        /* \"#utility.yul\":596:612   */\n      calldataload\n        /* \"#utility.yul\":635:653   */\n      0xffffffffffffffff\n        /* \"#utility.yul\":627:633   */\n      dup2\n        /* \"#utility.yul\":624:654   */\n      gt\n        /* \"#utility.yul\":621:671   */\n      iszero\n      tag_149\n      jumpi\n        /* \"#utility.yul\":667:668   */\n      0x00\n        /* \"#utility.yul\":664:665   */\n      0x00\n        /* \"#utility.yul\":657:669   */\n      revert\n        /* \"#utility.yul\":621:671   */\n    tag_149:\n        /* \"#utility.yul\":720:727   */\n      dup6\n        /* \"#utility.yul\":715:717   */\n      0x20\n        /* \"#utility.yul\":705:711   */\n      dup3\n        /* \"#utility.yul\":702:703   */\n      0x05\n        /* \"#utility.yul\":698:712   */\n      shl\n        /* \"#utility.yul\":694:696   */\n      dup5\n        /* \"#utility.yul\":690:713   */\n      add\n        /* \"#utility.yul\":686:718   */\n      add\n        /* \"#utility.yul\":683:728   */\n      gt\n        /* \"#utility.yul\":680:745   */\n      iszero\n      tag_150\n      jumpi\n        /* \"#utility.yul\":741:742   */\n      0x00\n        /* \"#utility.yul\":738:739   */\n      0x00\n        /* \"#utility.yul\":731:743   */\n      revert\n        /* \"#utility.yul\":680:745   */\n    tag_150:\n        /* \"#utility.yul\":772:774   */\n      0x20\n        /* \"#utility.yul\":764:775   */\n      swap2\n      swap1\n      swap2\n      add\n      swap6\n        /* \"#utility.yul\":794:800   */\n      swap1\n      swap5\n      pop\n        /* \"#utility.yul\":196:806   */\n      swap3\n      pop\n      pop\n      pop\n      jump\t// out\n        /* \"#utility.yul\":811:938   */\n    tag_142:\n        /* \"#utility.yul\":872:882   */\n      0x4e487b71\n        /* \"#utility.yul\":867:870   */\n      0xe0\n        /* \"#utility.yul\":863:883   */\n      shl\n        /* \"#utility.yul\":860:861   */\n      0x00\n        /* \"#utility.yul\":853:884   */\n      mstore\n        /* \"#utility.yul\":903:907   */\n      0x41\n        /* \"#utility.yul\":900:901   */\n      0x04\n        /* \"#utility.yul\":893:908   */\n      mstore\n        /* \"#utility.yul\":927:931   */\n      0x24\n        /* \"#utility.yul\":924:925   */\n      0x00\n        /* \"#utility.yul\":917:932   */\n      revert\n        /* \"#utility.yul\":943:2118   */\n    tag_44:\n        /* \"#utility.yul\":1027:1033   */\n      0x00\n        /* \"#utility.yul\":1080:1082   */\n      0x20\n        /* \"#utility.yul\":1068:1077   */\n      dup3\n        /* \"#utility.yul\":1059:1066   */\n      dup5\n        /* \"#utility.yul\":1055:1078   */\n      sub\n        /* \"#utility.yul\":1051:1083   */\n      slt\n        /* \"#utility.yul\":1048:1100   */\n      iszero\n      tag_153\n      jumpi\n        /* \"#utility.yul\":1096:1097   */\n      0x00\n        /* \"#utility.yul\":1093:1094   */\n      0x00\n        /* \"#utility.yul\":1086:1098   */\n      revert\n        /* \"#utility.yul\":1048:1100   */\n    tag_153:\n        /* \"#utility.yul\":1136:1145   */\n      dup2\n        /* \"#utility.yul\":1123:1146   */\n      calldataload\n        /* \"#utility.yul\":1169:1187   */\n      0xffffffffffffffff\n        /* \"#utility.yul\":1161:1167   */\n      dup2\n        /* \"#utility.yul\":1158:1188   */\n      gt\n        /* \"#utility.yul\":1155:1205   */\n      iszero\n      tag_154\n      jumpi\n        /* \"#utility.yul\":1201:1202   */\n      0x00\n        /* \"#utility.yul\":1198:1199   */\n      0x00\n        /* \"#utility.yul\":1191:1203   */\n      revert\n        /* \"#utility.yul\":1155:1205   */\n    tag_154:\n        /* \"#utility.yul\":1224:1246   */\n      dup3\n      add\n        /* \"#utility.yul\":1277:1281   */\n      0x1f\n        /* \"#utility.yul\":1269:1282   */\n      dup2\n      add\n        /* \"#utility.yul\":1265:1292   */\n      dup5\n      sgt\n        /* \"#utility.yul\":1255:1310   */\n      tag_155\n      jumpi\n        /* \"#utility.yul\":1306:1307   */\n      0x00\n        /* \"#utility.yul\":1303:1304   */\n      0x00\n        /* \"#utility.yul\":1296:1308   */\n      revert\n        /* \"#utility.yul\":1255:1310   */\n    tag_155:\n        /* \"#utility.yul\":1346:1348   */\n      dup1\n        /* \"#utility.yul\":1333:1349   */\n      calldataload\n        /* \"#utility.yul\":1372:1390   */\n      0xffffffffffffffff\n        /* \"#utility.yul\":1364:1370   */\n      dup2\n        /* \"#utility.yul\":1361:1391   */\n      gt\n        /* \"#utility.yul\":1358:1414   */\n      iszero\n      tag_157\n      jumpi\n        /* \"#utility.yul\":1394:1412   */\n      tag_157\n      tag_142\n      jump\t// in\n    tag_157:\n        /* \"#utility.yul\":1440:1446   */\n      dup1\n        /* \"#utility.yul\":1437:1438   */\n      0x05\n        /* \"#utility.yul\":1433:1447   */\n      shl\n        /* \"#utility.yul\":1476:1478   */\n      0x40\n        /* \"#utility.yul\":1470:1479   */\n      mload\n        /* \"#utility.yul\":1539:1541   */\n      0x1f\n        /* \"#utility.yul\":1535:1542   */\n      not\n        /* \"#utility.yul\":1530:1532   */\n      0x3f\n        /* \"#utility.yul\":1526:1528   */\n      dup4\n        /* \"#utility.yul\":1522:1533   */\n      add\n        /* \"#utility.yul\":1518:1543   */\n      and\n        /* \"#utility.yul\":1510:1516   */\n      dup2\n        /* \"#utility.yul\":1506:1544   */\n      add\n        /* \"#utility.yul\":1610:1616   */\n      dup2\n        /* \"#utility.yul\":1598:1608   */\n      dup2\n        /* \"#utility.yul\":1595:1617   */\n      lt\n        /* \"#utility.yul\":1574:1592   */\n      0xffffffffffffffff\n        /* \"#utility.yul\":1562:1572   */\n      dup3\n        /* \"#utility.yul\":1559:1593   */\n      gt\n        /* \"#utility.yul\":1556:1618   */\n      or\n        /* \"#utility.yul\":1553:1641   */\n      iszero\n      tag_159\n      jumpi\n        /* \"#utility.yul\":1621:1639   */\n      tag_159\n      tag_142\n      jump\t// in\n    tag_159:\n        /* \"#utility.yul\":1657:1659   */\n      0x40\n        /* \"#utility.yul\":1650:1672   */\n      mstore\n        /* \"#utility.yul\":1707:1729   */\n      swap2\n      dup3\n      mstore\n        /* \"#utility.yul\":1757:1759   */\n      0x20\n        /* \"#utility.yul\":1787:1798   */\n      dup2\n      dup5\n      add\n        /* \"#utility.yul\":1783:1803   */\n      dup2\n      add\n      swap3\n        /* \"#utility.yul\":1707:1729   */\n      swap1\n        /* \"#utility.yul\":1745:1760   */\n      dup2\n      add\n        /* \"#utility.yul\":1815:1834   */\n      dup8\n      dup5\n      gt\n        /* \"#utility.yul\":1812:1851   */\n      iszero\n      tag_160\n      jumpi\n        /* \"#utility.yul\":1847:1848   */\n      0x00\n        /* \"#utility.yul\":1844:1845   */\n      0x00\n        /* \"#utility.yul\":1837:1849   */\n      revert\n        /* \"#utility.yul\":1812:1851   */\n    tag_160:\n        /* \"#utility.yul\":1879:1881   */\n      0x20\n        /* \"#utility.yul\":1875:1877   */\n      dup6\n        /* \"#utility.yul\":1871:1882   */\n      add\n        /* \"#utility.yul\":1860:1882   */\n      swap5\n      pop\n        /* \"#utility.yul\":1891:2087   */\n    tag_161:\n        /* \"#utility.yul\":1907:1913   */\n      dup4\n        /* \"#utility.yul\":1902:1905   */\n      dup6\n        /* \"#utility.yul\":1899:1914   */\n      lt\n        /* \"#utility.yul\":1891:2087   */\n      iszero\n      tag_163\n      jumpi\n        /* \"#utility.yul\":1997:2014   */\n      dup5\n      calldataload\n        /* \"#utility.yul\":2027:2045   */\n      dup1\n      dup3\n      mstore\n        /* \"#utility.yul\":2074:2076   */\n      0x20\n        /* \"#utility.yul\":1924:1936   */\n      swap6\n      dup7\n      add\n      swap6\n        /* \"#utility.yul\":1997:2014   */\n      swap1\n      swap4\n      pop\n        /* \"#utility.yul\":2065:2077   */\n      add\n        /* \"#utility.yul\":1891:2087   */\n      jump(tag_161)\n    tag_163:\n      pop\n        /* \"#utility.yul\":2106:2112   */\n      swap7\n        /* \"#utility.yul\":943:2118   */\n      swap6\n      pop\n      pop\n      pop\n      pop\n      pop\n      pop\n      jump\t// out\n        /* \"#utility.yul\":2123:2250   */\n    tag_61:\n        /* \"#utility.yul\":2184:2194   */\n      0x4e487b71\n        /* \"#utility.yul\":2179:2182   */\n      0xe0\n        /* \"#utility.yul\":2175:2195   */\n      shl\n        /* \"#utility.yul\":2172:2173   */\n      0x00\n        /* \"#utility.yul\":2165:2196   */\n      mstore\n        /* \"#utility.yul\":2215:2219   */\n      0x32\n        /* \"#utility.yul\":2212:2213   */\n      0x04\n        /* \"#utility.yul\":2205:2220   */\n      mstore\n        /* \"#utility.yul\":2239:2243   */\n      0x24\n        /* \"#utility.yul\":2236:2237   */\n      0x00\n        /* \"#utility.yul\":2229:2244   */\n      revert\n        /* \"#utility.yul\":2255:2464   */\n    tag_63:\n        /* \"#utility.yul\":2287:2288   */\n      0x00\n        /* \"#utility.yul\":2313:2314   */\n      dup3\n        /* \"#utility.yul\":2303:2435   */\n      tag_166\n      jumpi\n        /* \"#utility.yul\":2357:2367   */\n      0x4e487b71\n        /* \"#utility.yul\":2352:2355   */\n      0xe0\n        /* \"#utility.yul\":2348:2368   */\n      shl\n        /* \"#utility.yul\":2345:2346   */\n      0x00\n        /* \"#utility.yul\":2338:2369   */\n      mstore\n        /* \"#utility.yul\":2392:2396   */\n      0x12\n        /* \"#utility.yul\":2389:2390   */\n      0x04\n        /* \"#utility.yul\":2382:2397   */\n      mstore\n        /* \"#utility.yul\":2420:2424   */\n      0x24\n        /* \"#utility.yul\":2417:2418   */\n      0x00\n        /* \"#utility.yul\":2410:2425   */\n      revert\n        /* \"#utility.yul\":2303:2435   */\n    tag_166:\n      pop\n        /* \"#utility.yul\":2449:2458   */\n      mod\n      swap1\n        /* \"#utility.yul\":2255:2464   */\n      jump\t// out\n        /* \"#utility.yul\":2469:2691   */\n    tag_71:\n        /* \"#utility.yul\":2534:2543   */\n      dup1\n      dup3\n      add\n        /* \"#utility.yul\":2555:2565   */\n      dup1\n      dup3\n      gt\n        /* \"#utility.yul\":2552:2685   */\n      iszero\n      tag_168\n      jumpi\n        /* \"#utility.yul\":2607:2617   */\n      0x4e487b71\n        /* \"#utility.yul\":2602:2605   */\n      0xe0\n        /* \"#utility.yul\":2598:2618   */\n      shl\n        /* \"#utility.yul\":2595:2596   */\n      0x00\n        /* \"#utility.yul\":2588:2619   */\n      mstore\n        /* \"#utility.yul\":2642:2646   */\n      0x11\n        /* \"#utility.yul\":2639:2640   */\n      0x04\n        /* \"#utility.yul\":2632:2647   */\n      mstore\n        /* \"#utility.yul\":2670:2674   */\n      0x24\n        /* \"#utility.yul\":2667:2668   */\n      0x00\n        /* \"#utility.yul\":2660:2675   */\n      revert\n        /* \"#utility.yul\":2552:2685   */\n    tag_168:\n        /* \"#utility.yul\":2469:2691   */\n      swap3\n      swap2\n      pop\n      pop\n      jump\t// out\n\n    auxdata: 0xa26469706673582212205810c43e89200ec442838e40f70f2d7cc7edd2b5f5131eecb6184996faecb19664736f6c634300081d0033\n}\n",
				"bytecode": {
					"linkReferences": {},
					"object": "6080604052348015600e575f5ffd5b506106ef8061001c5f395ff3fe608060405234801561000f575f5ffd5b50600436106100b1575f3560e01c80639b726dc01161006e5780639b726dc014610112578063a5a0823e1461011b578063b6c9680614610124578063d027a27d14610137578063dcc0105d1461014a578063f15085721461015d575f5ffd5b80631203bf54146100b5578063188dc0a5146100d057806320ac2263146100e55780632ddbd13a146100ee5780635f36e8c2146100f65780638b2497fe146100ff575b5f5ffd5b6100be60055481565b60405190815260200160405180910390f35b6100e36100de366004610514565b610170565b005b6100be60035481565b6100be5f5481565b6100be60025481565b6100e361010d366004610514565b61021a565b6100be60045481565b6100be60015481565b6100e3610132366004610599565b610285565b6100e3610145366004610514565b610332565b6100e3610158366004610514565b6103da565b6100e361016b366004610514565b610472565b5f5b81811015610215575f600284848481811061018f5761018f610661565b905060200201356101a09190610675565b1590505f60638585858181106101b8576101b8610661565b905060200201351090508180156101cc5750805b15610200578484848181106101e3576101e3610661565b9050602002013560015f8282546101fa9190610694565b90915550505b5061020e9050600182610694565b9050610172565b505050565b6005545f5b8281101561027d575f84848381811061023a5761023a610661565b9050602002013590505f6002826102519190610675565b1590508080156102615750606382105b15610273576102708285610694565b93505b505060010161021f565b506005555050565b5f5b815181101561032e575f60028383815181106102a5576102a5610661565b60200260200101516102b79190610675565b5f1490505f60638484815181106102d0576102d0610661565b60200260200101511090508180156102e55750805b15610319578383815181106102fc576102fc610661565b60200260200101515f5f8282546103139190610694565b90915550505b506103279050600182610694565b9050610287565b5050565b6002545f5b828110156103d2575f600285858481811061035457610354610661565b905060200201356103659190610675565b1590505f606386868581811061037d5761037d610661565b905060200201351090508180156103915750805b156103bd578585848181106103a8576103a8610661565b90506020020135846103ba9190610694565b93505b506103cb9050600182610694565b9050610337565b506002555050565b6004545f5b8281101561046a575f60028585848181106103fc576103fc610661565b9050602002013561040d9190610675565b1590508080156104355750606385858481811061042c5761042c610661565b90506020020135105b156104615784848381811061044c5761044c610661565b905060200201358361045e9190610694565b92505b506001016103df565b506004555050565b6003545f5b8281101561050c575f600285858481811061049457610494610661565b905060200201356104a59190610675565b1590508080156104cd575060638585848181106104c4576104c4610661565b90506020020135105b156104f9578484838181106104e4576104e4610661565b90506020020135836104f69190610694565b92505b50610505600182610694565b9050610477565b506003555050565b5f5f60208385031215610525575f5ffd5b823567ffffffffffffffff81111561053b575f5ffd5b8301601f8101851361054b575f5ffd5b803567ffffffffffffffff811115610561575f5ffd5b8560208260051b8401011115610575575f5ffd5b6020919091019590945092505050565b634e487b7160e01b5f52604160045260245ffd5b5f602082840312156105a9575f5ffd5b813567ffffffffffffffff8111156105bf575f5ffd5b8201601f810184136105cf575f5ffd5b803567ffffffffffffffff8111156105e9576105e9610585565b8060051b604051601f19603f830116810181811067ffffffffffffffff8211171561061657610616610585565b604052918252602081840181019290810187841115610633575f5ffd5b6020850194505b838510156106565784358082526020958601959093500161063a565b509695505050505050565b634e487b7160e01b5f52603260045260245ffd5b5f8261068f57634e487b7160e01b5f52601260045260245ffd5b500690565b808201808211156106b357634e487b7160e01b5f52601160045260245ffd5b9291505056fea26469706673582212205810c43e89200ec442838e40f70f2d7cc7edd2b5f5131eecb6184996faecb19664736f6c634300081d0033",
					"opcodes": "PUSH1 0x80 PUSH1 0x40 MSTORE CALLVALUE DUP1 ISZERO PUSH1 0xE JUMPI PUSH0 PUSH0 REVERT JUMPDEST POP PUSH2 0x6EF DUP1 PUSH2 0x1C PUSH0 CODECOPY PUSH0 RETURN INVALID PUSH1 0x80 PUSH1 0x40 MSTORE CALLVALUE DUP1 ISZERO PUSH2 0xF JUMPI PUSH0 PUSH0 REVERT JUMPDEST POP PUSH1 0x4 CALLDATASIZE LT PUSH2 0xB1 JUMPI PUSH0 CALLDATALOAD PUSH1 0xE0 SHR DUP1 PUSH4 0x9B726DC0 GT PUSH2 0x6E JUMPI DUP1 PUSH4 0x9B726DC0 EQ PUSH2 0x112 JUMPI DUP1 PUSH4 0xA5A0823E EQ PUSH2 0x11B JUMPI DUP1 PUSH4 0xB6C96806 EQ PUSH2 0x124 JUMPI DUP1 PUSH4 0xD027A27D EQ PUSH2 0x137 JUMPI DUP1 PUSH4 0xDCC0105D EQ PUSH2 0x14A JUMPI DUP1 PUSH4 0xF1508572 EQ PUSH2 0x15D JUMPI PUSH0 PUSH0 REVERT JUMPDEST DUP1 PUSH4 0x1203BF54 EQ PUSH2 0xB5 JUMPI DUP1 PUSH4 0x188DC0A5 EQ PUSH2 0xD0 JUMPI DUP1 PUSH4 0x20AC2263 EQ PUSH2 0xE5 JUMPI DUP1 PUSH4 0x2DDBD13A EQ PUSH2 0xEE JUMPI DUP1 PUSH4 0x5F36E8C2 EQ PUSH2 0xF6 JUMPI DUP1 PUSH4 0x8B2497FE EQ PUSH2 0xFF JUMPI JUMPDEST PUSH0 PUSH0 REVERT JUMPDEST PUSH2 0xBE PUSH1 0x5 SLOAD DUP2 JUMP JUMPDEST PUSH1 0x40 MLOAD SWAP1 DUP2 MSTORE PUSH1 0x20 ADD PUSH1 0x40 MLOAD DUP1 SWAP2 SUB SWAP1 RETURN JUMPDEST PUSH2 0xE3 PUSH2 0xDE CALLDATASIZE PUSH1 0x4 PUSH2 0x514 JUMP JUMPDEST PUSH2 0x170 JUMP JUMPDEST STOP JUMPDEST PUSH2 0xBE PUSH1 0x3 SLOAD DUP2 JUMP JUMPDEST PUSH2 0xBE PUSH0 SLOAD DUP2 JUMP JUMPDEST PUSH2 0xBE PUSH1 0x2 SLOAD DUP2 JUMP JUMPDEST PUSH2 0xE3 PUSH2 0x10D CALLDATASIZE PUSH1 0x4 PUSH2 0x514 JUMP JUMPDEST PUSH2 0x21A JUMP JUMPDEST PUSH2 0xBE PUSH1 0x4 SLOAD DUP2 JUMP JUMPDEST PUSH2 0xBE PUSH1 0x1 SLOAD DUP2 JUMP JUMPDEST PUSH2 0xE3 PUSH2 0x132 CALLDATASIZE PUSH1 0x4 PUSH2 0x599 JUMP JUMPDEST PUSH2 0x285 JUMP JUMPDEST PUSH2 0xE3 PUSH2 0x145 CALLDATASIZE PUSH1 0x4 PUSH2 0x514 JUMP JUMPDEST PUSH2 0x332 JUMP JUMPDEST PUSH2 0xE3 PUSH2 0x158 CALLDATASIZE PUSH1 0x4 PUSH2 0x514 JUMP JUMPDEST PUSH2 0x3DA JUMP JUMPDEST PUSH2 0xE3 PUSH2 0x16B CALLDATASIZE PUSH1 0x4 PUSH2 0x514 JUMP JUMPDEST PUSH2 0x472 JUMP JUMPDEST PUSH0 JUMPDEST DUP2 DUP2 LT ISZERO PUSH2 0x215 JUMPI PUSH0 PUSH1 0x2 DUP5 DUP5 DUP5 DUP2 DUP2 LT PUSH2 0x18F JUMPI PUSH2 0x18F PUSH2 0x661 JUMP JUMPDEST SWAP1 POP PUSH1 0x20 MUL ADD CALLDATALOAD PUSH2 0x1A0 SWAP2 SWAP1 PUSH2 0x675 JUMP JUMPDEST ISZERO SWAP1 POP PUSH0 PUSH1 0x63 DUP6 DUP6 DUP6 DUP2 DUP2 LT PUSH2 0x1B8 JUMPI PUSH2 0x1B8 PUSH2 0x661 JUMP JUMPDEST SWAP1 POP PUSH1 0x20 MUL ADD CALLDATALOAD LT SWAP1 POP DUP2 DUP1 ISZERO PUSH2 0x1CC JUMPI POP DUP1 JUMPDEST ISZERO PUSH2 0x200 JUMPI DUP5 DUP5 DUP5 DUP2 DUP2 LT PUSH2 0x1E3 JUMPI PUSH2 0x1E3 PUSH2 0x661 JUMP JUMPDEST SWAP1 POP PUSH1 0x20 MUL ADD CALLDATALOAD PUSH1 0x1 PUSH0 DUP3 DUP3 SLOAD PUSH2 0x1FA SWAP2 SWAP1 PUSH2 0x694 JUMP JUMPDEST SWAP1 SWAP2 SSTORE POP POP JUMPDEST POP PUSH2 0x20E SWAP1 POP PUSH1 0x1 DUP3 PUSH2 0x694 JUMP JUMPDEST SWAP1 POP PUSH2 0x172 JUMP JUMPDEST POP POP POP JUMP JUMPDEST PUSH1 0x5 SLOAD PUSH0 JUMPDEST DUP3 DUP2 LT ISZERO PUSH2 0x27D JUMPI PUSH0 DUP5 DUP5 DUP4 DUP2 DUP2 LT PUSH2 0x23A JUMPI PUSH2 0x23A PUSH2 0x661 JUMP JUMPDEST SWAP1 POP PUSH1 0x20 MUL ADD CALLDATALOAD SWAP1 POP PUSH0 PUSH1 0x2 DUP3 PUSH2 0x251 SWAP2 SWAP1 PUSH2 0x675 JUMP JUMPDEST ISZERO SWAP1 POP DUP1 DUP1 ISZERO PUSH2 0x261 JUMPI POP PUSH1 0x63 DUP3 LT JUMPDEST ISZERO PUSH2 0x273 JUMPI PUSH2 0x270 DUP3 DUP6 PUSH2 0x694 JUMP JUMPDEST SWAP4 POP JUMPDEST POP POP PUSH1 0x1 ADD PUSH2 0x21F JUMP JUMPDEST POP PUSH1 0x5 SSTORE POP POP JUMP JUMPDEST PUSH0 JUMPDEST DUP2 MLOAD DUP2 LT ISZERO PUSH2 0x32E JUMPI PUSH0 PUSH1 0x2 DUP4 DUP4 DUP2 MLOAD DUP2 LT PUSH2 0x2A5 JUMPI PUSH2 0x2A5 PUSH2 0x661 JUMP JUMPDEST PUSH1 0x20 MUL PUSH1 0x20 ADD ADD MLOAD PUSH2 0x2B7 SWAP2 SWAP1 PUSH2 0x675 JUMP JUMPDEST PUSH0 EQ SWAP1 POP PUSH0 PUSH1 0x63 DUP5 DUP5 DUP2 MLOAD DUP2 LT PUSH2 0x2D0 JUMPI PUSH2 0x2D0 PUSH2 0x661 JUMP JUMPDEST PUSH1 0x20 MUL PUSH1 0x20 ADD ADD MLOAD LT SWAP1 POP DUP2 DUP1 ISZERO PUSH2 0x2E5 JUMPI POP DUP1 JUMPDEST ISZERO PUSH2 0x319 JUMPI DUP4 DUP4 DUP2 MLOAD DUP2 LT PUSH2 0x2FC JUMPI PUSH2 0x2FC PUSH2 0x661 JUMP JUMPDEST PUSH1 0x20 MUL PUSH1 0x20 ADD ADD MLOAD PUSH0 PUSH0 DUP3 DUP3 SLOAD PUSH2 0x313 SWAP2 SWAP1 PUSH2 0x694 JUMP JUMPDEST SWAP1 SWAP2 SSTORE POP POP JUMPDEST POP PUSH2 0x327 SWAP1 POP PUSH1 0x1 DUP3 PUSH2 0x694 JUMP JUMPDEST SWAP1 POP PUSH2 0x287 JUMP JUMPDEST POP POP JUMP JUMPDEST PUSH1 0x2 SLOAD PUSH0 JUMPDEST DUP3 DUP2 LT ISZERO PUSH2 0x3D2 JUMPI PUSH0 PUSH1 0x2 DUP6 DUP6 DUP5 DUP2 DUP2 LT PUSH2 0x354 JUMPI PUSH2 0x354 PUSH2 0x661 JUMP JUMPDEST SWAP1 POP PUSH1 0x20 MUL ADD CALLDATALOAD PUSH2 0x365 SWAP2 SWAP1 PUSH2 0x675 JUMP JUMPDEST ISZERO SWAP1 POP PUSH0 PUSH1 0x63 DUP7 DUP7 DUP6 DUP2 DUP2 LT PUSH2 0x37D JUMPI PUSH2 0x37D PUSH2 0x661 JUMP JUMPDEST SWAP1 POP PUSH1 0x20 MUL ADD CALLDATALOAD LT SWAP1 POP DUP2 DUP1 ISZERO PUSH2 0x391 JUMPI POP DUP1 JUMPDEST ISZERO PUSH2 0x3BD JUMPI DUP6 DUP6 DUP5 DUP2 DUP2 LT PUSH2 0x3A8 JUMPI PUSH2 0x3A8 PUSH2 0x661 JUMP JUMPDEST SWAP1 POP PUSH1 0x20 MUL ADD CALLDATALOAD DUP5 PUSH2 0x3BA SWAP2 SWAP1 PUSH2 0x694 JUMP JUMPDEST SWAP4 POP JUMPDEST POP PUSH2 0x3CB SWAP1 POP PUSH1 0x1 DUP3 PUSH2 0x694 JUMP JUMPDEST SWAP1 POP PUSH2 0x337 JUMP JUMPDEST POP PUSH1 0x2 SSTORE POP POP JUMP JUMPDEST PUSH1 0x4 SLOAD PUSH0 JUMPDEST DUP3 DUP2 LT ISZERO PUSH2 0x46A JUMPI PUSH0 PUSH1 0x2 DUP6 DUP6 DUP5 DUP2 DUP2 LT PUSH2 0x3FC JUMPI PUSH2 0x3FC PUSH2 0x661 JUMP JUMPDEST SWAP1 POP PUSH1 0x20 MUL ADD CALLDATALOAD PUSH2 0x40D SWAP2 SWAP1 PUSH2 0x675 JUMP JUMPDEST ISZERO SWAP1 POP DUP1 DUP1 ISZERO PUSH2 0x435 JUMPI POP PUSH1 0x63 DUP6 DUP6 DUP5 DUP2 DUP2 LT PUSH2 0x42C JUMPI PUSH2 0x42C PUSH2 0x661 JUMP JUMPDEST SWAP1 POP PUSH1 0x20 MUL ADD CALLDATALOAD LT JUMPDEST ISZERO PUSH2 0x461 JUMPI DUP5 DUP5 DUP4 DUP2 DUP2 LT PUSH2 0x44C JUMPI PUSH2 0x44C PUSH2 0x661 JUMP JUMPDEST SWAP1 POP PUSH1 0x20 MUL ADD CALLDATALOAD DUP4 PUSH2 0x45E SWAP2 SWAP1 PUSH2 0x694 JUMP JUMPDEST SWAP3 POP JUMPDEST POP PUSH1 0x1 ADD PUSH2 0x3DF JUMP JUMPDEST POP PUSH1 0x4 SSTORE POP POP JUMP JUMPDEST PUSH1 0x3 SLOAD PUSH0 JUMPDEST DUP3 DUP2 LT ISZERO PUSH2 0x50C JUMPI PUSH0 PUSH1 0x2 DUP6 DUP6 DUP5 DUP2 DUP2 LT PUSH2 0x494 JUMPI PUSH2 0x494 PUSH2 0x661 JUMP JUMPDEST SWAP1 POP PUSH1 0x20 MUL ADD CALLDATALOAD PUSH2 0x4A5 SWAP2 SWAP1 PUSH2 0x675 JUMP JUMPDEST ISZERO SWAP1 POP DUP1 DUP1 ISZERO PUSH2 0x4CD JUMPI POP PUSH1 0x63 DUP6 DUP6 DUP5 DUP2 DUP2 LT PUSH2 0x4C4 JUMPI PUSH2 0x4C4 PUSH2 0x661 JUMP JUMPDEST SWAP1 POP PUSH1 0x20 MUL ADD CALLDATALOAD LT JUMPDEST ISZERO PUSH2 0x4F9 JUMPI DUP5 DUP5 DUP4 DUP2 DUP2 LT PUSH2 0x4E4 JUMPI PUSH2 0x4E4 PUSH2 0x661 JUMP JUMPDEST SWAP1 POP PUSH1 0x20 MUL ADD CALLDATALOAD DUP4 PUSH2 0x4F6 SWAP2 SWAP1 PUSH2 0x694 JUMP JUMPDEST SWAP3 POP JUMPDEST POP PUSH2 0x505 PUSH1 0x1 DUP3 PUSH2 0x694 JUMP JUMPDEST SWAP1 POP PUSH2 0x477 JUMP JUMPDEST POP PUSH1 0x3 SSTORE POP POP JUMP JUMPDEST PUSH0 PUSH0 PUSH1 0x20 DUP4 DUP6 SUB SLT ISZERO PUSH2 0x525 JUMPI PUSH0 PUSH0 REVERT JUMPDEST DUP3 CALLDATALOAD PUSH8 0xFFFFFFFFFFFFFFFF DUP2 GT ISZERO PUSH2 0x53B JUMPI PUSH0 PUSH0 REVERT JUMPDEST DUP4 ADD PUSH1 0x1F DUP2 ADD DUP6 SGT PUSH2 0x54B JUMPI PUSH0 PUSH0 REVERT JUMPDEST DUP1 CALLDATALOAD PUSH8 0xFFFFFFFFFFFFFFFF DUP2 GT ISZERO PUSH2 0x561 JUMPI PUSH0 PUSH0 REVERT JUMPDEST DUP6 PUSH1 0x20 DUP3 PUSH1 0x5 SHL DUP5 ADD ADD GT ISZERO PUSH2 0x575 JUMPI PUSH0 PUSH0 REVERT JUMPDEST PUSH1 0x20 SWAP2 SWAP1 SWAP2 ADD SWAP6 SWAP1 SWAP5 POP SWAP3 POP POP POP JUMP JUMPDEST PUSH4 0x4E487B71 PUSH1 0xE0 SHL PUSH0 MSTORE PUSH1 0x41 PUSH1 0x4 MSTORE PUSH1 0x24 PUSH0 REVERT JUMPDEST PUSH0 PUSH1 0x20 DUP3 DUP5 SUB SLT ISZERO PUSH2 0x5A9 JUMPI PUSH0 PUSH0 REVERT JUMPDEST DUP2 CALLDATALOAD PUSH8 0xFFFFFFFFFFFFFFFF DUP2 GT ISZERO PUSH2 0x5BF JUMPI PUSH0 PUSH0 REVERT JUMPDEST DUP3 ADD PUSH1 0x1F DUP2 ADD DUP5 SGT PUSH2 0x5CF JUMPI PUSH0 PUSH0 REVERT JUMPDEST DUP1 CALLDATALOAD PUSH8 0xFFFFFFFFFFFFFFFF DUP2 GT ISZERO PUSH2 0x5E9 JUMPI PUSH2 0x5E9 PUSH2 0x585 JUMP JUMPDEST DUP1 PUSH1 0x5 SHL PUSH1 0x40 MLOAD PUSH1 0x1F NOT PUSH1 0x3F DUP4 ADD AND DUP2 ADD DUP2 DUP2 LT PUSH8 0xFFFFFFFFFFFFFFFF DUP3 GT OR ISZERO PUSH2 0x616 JUMPI PUSH2 0x616 PUSH2 0x585 JUMP JUMPDEST PUSH1 0x40 MSTORE SWAP2 DUP3 MSTORE PUSH1 0x20 DUP2 DUP5 ADD DUP2 ADD SWAP3 SWAP1 DUP2 ADD DUP8 DUP5 GT ISZERO PUSH2 0x633 JUMPI PUSH0 PUSH0 REVERT JUMPDEST PUSH1 0x20 DUP6 ADD SWAP5 POP JUMPDEST DUP4 DUP6 LT ISZERO PUSH2 0x656 JUMPI DUP5 CALLDATALOAD DUP1 DUP3 MSTORE PUSH1 0x20 SWAP6 DUP7 ADD SWAP6 SWAP1 SWAP4 POP ADD PUSH2 0x63A JUMP JUMPDEST POP SWAP7 SWAP6 POP POP POP POP POP POP JUMP JUMPDEST PUSH4 0x4E487B71 PUSH1 0xE0 SHL PUSH0 MSTORE PUSH1 0x32 PUSH1 0x4 MSTORE PUSH1 0x24 PUSH0 REVERT JUMPDEST PUSH0 DUP3 PUSH2 0x68F JUMPI PUSH4 0x4E487B71 PUSH1 0xE0 SHL PUSH0 MSTORE PUSH1 0x12 PUSH1 0x4 MSTORE PUSH1 0x24 PUSH0 REVERT JUMPDEST POP MOD SWAP1 JUMP JUMPDEST DUP1 DUP3 ADD DUP1 DUP3 GT ISZERO PUSH2 0x6B3 JUMPI PUSH4 0x4E487B71 PUSH1 0xE0 SHL PUSH0 MSTORE PUSH1 0x11 PUSH1 0x4 MSTORE PUSH1 0x24 PUSH0 REVERT JUMPDEST SWAP3 SWAP2 POP POP JUMP INVALID LOG2 PUSH5 0x6970667358 0x22 SLT KECCAK256 PC LT 0xC4 RETURNDATACOPY DUP10 KECCAK256 0xE 0xC4 TIMESTAMP DUP4 DUP15 BLOCKHASH 0xF7 0xF 0x2D PUSH29 0xC7EDD2B5F5131EECB6184996FAECB19664736F6C634300081D00330000 "
				},
				"gasEstimates": {
					"creation": {
						"codeDepositCost": "355000",
						"executionCost": "391",
						"totalCost": "355391"
					},
					"external": {
						"sumIfEventAndLessThan99_1(uint256[])": "infinite",
						"sumIfEventAndLessThan99_2(uint256[])": "infinite",
						"sumIfEventAndLessThan99_3(uint256[])": "infinite",
						"sumIfEventAndLessThan99_4(uint256[])": "infinite",
						"sumIfEventAndLessThan99_5(uint256[])": "infinite",
						"sumIfEventAndLessThan99_6(uint256[])": "infinite",
						"total()": "2348",
						"total2()": "2304",
						"total3()": "2371",
						"total4()": "2327",
						"total5()": "2282",
						"total6()": "2283"
					}
				},
				"methodIdentifiers": {
					"sumIfEventAndLessThan99_1(uint256[])": "b6c96806",
					"sumIfEventAndLessThan99_2(uint256[])": "188dc0a5",
					"sumIfEventAndLessThan99_3(uint256[])": "d027a27d",
					"sumIfEventAndLessThan99_4(uint256[])": "f1508572",
					"sumIfEventAndLessThan99_5(uint256[])": "dcc0105d",
					"sumIfEventAndLessThan99_6(uint256[])": "8b2497fe",
					"total()": "2ddbd13a",
					"total2()": "a5a0823e",
					"total3()": "5f36e8c2",
					"total4()": "20ac2263",
					"total5()": "9b726dc0",
					"total6()": "1203bf54"
				}
			},
			"storageLayout": {
				"storage": [
					{
						"astId": 3,
						"contract": "threefour/GasGolf.sol:GasGolf",
						"label": "total",
						"offset": 0,
						"slot": "0",
						"type": "t_uint256"
					},
					{
						"astId": 5,
						"contract": "threefour/GasGolf.sol:GasGolf",
						"label": "total2",
						"offset": 0,
						"slot": "1",
						"type": "t_uint256"
					},
					{
						"astId": 7,
						"contract": "threefour/GasGolf.sol:GasGolf",
						"label": "total3",
						"offset": 0,
						"slot": "2",
						"type": "t_uint256"
					},
					{
						"astId": 9,
						"contract": "threefour/GasGolf.sol:GasGolf",
						"label": "total4",
						"offset": 0,
						"slot": "3",
						"type": "t_uint256"
					},
					{
						"astId": 11,
						"contract": "threefour/GasGolf.sol:GasGolf",
						"label": "total5",
						"offset": 0,
						"slot": "4",
						"type": "t_uint256"
					},
					{
						"astId": 13,
						"contract": "threefour/GasGolf.sol:GasGolf",
						"label": "total6",
						"offset": 0,
						"slot": "5",
						"type": "t_uint256"
					}
				],
				"types": {
					"t_uint256": {
						"encoding": "inplace",
						"label": "uint256",
						"numberOfBytes": "32"
					}
				}
			},
			"userdoc": {
				"kind": "user",
				"methods": {},
				"version": 1
			}
		}
	}
}