{
	"threefour/Create2.sol": {
		"Create2Factory": {
			"abi": [
				{
					"anonymous": false,
					"inputs": [
						{
							"indexed": false,
							"internalType": "address",
							"name": "addr",
							"type": "address"
						}
					],
					"name": "Deploy",
					"type": "event"
				},
				{
					"inputs": [
						{
							"internalType": "uint256",
							"name": "_salt",
							"type": "uint256"
						}
					],
					"name": "deploy",
					"outputs": [],
					"stateMutability": "nonpayable",
					"type": "function"
				},
				{
					"inputs": [
						{
							"internalType": "bytes",
							"name": "bytecode",
							"type": "bytes"
						},
						{
							"internalType": "uint256",
							"name": "_salt",
							"type": "uint256"
						}
					],
					"name": "getAddress",
					"outputs": [
						{
							"internalType": "address",
							"name": "",
							"type": "address"
						}
					],
					"stateMutability": "view",
					"type": "function"
				},
				{
					"inputs": [
						{
							"internalType": "address",
							"name": "_owner",
							"type": "address"
						}
					],
					"name": "getByteCode",
					"outputs": [
						{
							"internalType": "bytes",
							"name": "",
							"type": "bytes"
						}
					],
					"stateMutability": "pure",
					"type": "function"
				}
			],
			"devdoc": {
				"kind": "dev",
				"methods": {
					"deploy(uint256)": {
						"params": {
							"_salt": "用于确定部署地址的盐值（任意uint数值）"
						}
					},
					"getAddress(bytes,uint256)": {
						"params": {
							"_salt": "部署时使用的盐值",
							"bytecode": "目标合约的完整字节码（包含构造函数参数）"
						},
						"returns": {
							"_0": "预测的合约地址  地址计算公式遵循EIP-1014标准： address = 最低160位(keccak256(0xff ++ 工厂地址 ++ salt ++ keccak256(bytecode)))"
						}
					},
					"getByteCode(address)": {
						"params": {
							"_owner": "要传递给目标合约构造函数的参数"
						},
						"returns": {
							"_0": "拼接后的完整字节码  说明：当使用CREATE2时，构造函数参数需要包含在字节码中， 因此需要将creationCode与编码后的参数拼接"
						}
					}
				},
				"version": 1
			},
			"evm": {
				"assembly": "    /* \"threefour/Create2.sol\":467:3225  contract Create2Factory {... */\n  mstore(0x40, 0x80)\n  callvalue\n  dup1\n  iszero\n  tag_1\n  jumpi\n  revert(0x00, 0x00)\ntag_1:\n  pop\n  dataSize(sub_0)\n  dup1\n  dataOffset(sub_0)\n  0x00\n  codecopy\n  0x00\n  return\nstop\n\nsub_0: assembly {\n        /* \"threefour/Create2.sol\":467:3225  contract Create2Factory {... */\n      mstore(0x40, 0x80)\n      callvalue\n      dup1\n      iszero\n      tag_1\n      jumpi\n      revert(0x00, 0x00)\n    tag_1:\n      pop\n      jumpi(tag_2, lt(calldatasize, 0x04))\n      shr(0xe0, calldataload(0x00))\n      dup1\n      0x24790744\n      eq\n      tag_3\n      jumpi\n      dup1\n      0x94ca2cb5\n      eq\n      tag_4\n      jumpi\n      dup1\n      0xa5e38751\n      eq\n      tag_5\n      jumpi\n    tag_2:\n      revert(0x00, 0x00)\n        /* \"threefour/Create2.sol\":2798:3222  function getByteCode(address _owner)... */\n    tag_3:\n      tag_6\n      tag_7\n      calldatasize\n      0x04\n      tag_8\n      jump\t// in\n    tag_7:\n      tag_9\n      jump\t// in\n    tag_6:\n      mload(0x40)\n      tag_10\n      swap2\n      swap1\n      tag_11\n      jump\t// in\n    tag_10:\n      mload(0x40)\n      dup1\n      swap2\n      sub\n      swap1\n      return\n        /* \"threefour/Create2.sol\":1594:2425  function getAddress(bytes memory bytecode, uint _salt)... */\n    tag_4:\n      tag_12\n      tag_13\n      calldatasize\n      0x04\n      tag_14\n      jump\t// in\n    tag_13:\n        /* \"threefour/Create2.sol\":2069:2088  keccak256(bytecode) */\n      dup2\n      mload\n      0x20\n      swap3\n      dup4\n      add\n      keccak256\n        /* \"threefour/Create2.sol\":1805:2143  abi.encodePacked( // 将以下参数紧密打包... */\n      0x40\n      dup1\n      mload\n      not(sub(shl(0xf8, 0x01), 0x01))\n      dup2\n      dup7\n      add\n        /* \"#utility.yul\":3063:3102   */\n      mstore\n        /* \"threefour/Create2.sol\":1944:1948  this */\n      address\n        /* \"#utility.yul\":3139:3141   */\n      0x60\n        /* \"#utility.yul\":3135:3150   */\n      shl\n      not(0xffffffffffffffffffffffff)\n        /* \"#utility.yul\":3131:3184   */\n      and\n        /* \"#utility.yul\":3118:3129   */\n      0x21\n      dup3\n      add\n        /* \"#utility.yul\":3111:3185   */\n      mstore\n        /* \"#utility.yul\":3201:3213   */\n      0x35\n      dup2\n      add\n        /* \"#utility.yul\":3194:3222   */\n      swap4\n      swap1\n      swap4\n      mstore\n        /* \"#utility.yul\":3238:3250   */\n      0x55\n      dup1\n      dup5\n      add\n        /* \"#utility.yul\":3231:3259   */\n      swap3\n      swap1\n      swap3\n      mstore\n        /* \"threefour/Create2.sol\":1805:2143  abi.encodePacked( // 将以下参数紧密打包... */\n      dup1\n      mload\n      dup1\n      dup5\n      sub\n      swap1\n      swap3\n      add\n      dup3\n      mstore\n        /* \"#utility.yul\":3275:3287   */\n      0x75\n      swap1\n      swap3\n      add\n        /* \"threefour/Create2.sol\":1805:2143  abi.encodePacked( // 将以下参数紧密打包... */\n      swap1\n      swap2\n      mstore\n        /* \"threefour/Create2.sol\":1781:2154  keccak256(... */\n      dup1\n      mload\n      swap2\n      add\n      keccak256\n      swap1\n        /* \"threefour/Create2.sol\":1594:2425  function getAddress(bytes memory bytecode, uint _salt)... */\n      jump\n    tag_12:\n      mload(0x40)\n      sub(shl(0xa0, 0x01), 0x01)\n        /* \"#utility.yul\":2095:2127   */\n      swap1\n      swap2\n      and\n        /* \"#utility.yul\":2077:2128   */\n      dup2\n      mstore\n        /* \"#utility.yul\":2065:2067   */\n      0x20\n        /* \"#utility.yul\":2050:2068   */\n      add\n        /* \"threefour/Create2.sol\":1594:2425  function getAddress(bytes memory bytecode, uint _salt)... */\n      tag_10\n        /* \"#utility.yul\":1931:2134   */\n      jump\n        /* \"threefour/Create2.sol\":740:1200  function deploy(uint _salt) external {... */\n    tag_5:\n      tag_18\n      tag_19\n      calldatasize\n      0x04\n      tag_20\n      jump\t// in\n    tag_19:\n      tag_21\n      jump\t// in\n    tag_18:\n      stop\n        /* \"threefour/Create2.sol\":2798:3222  function getByteCode(address _owner)... */\n    tag_9:\n        /* \"threefour/Create2.sol\":2883:2895  bytes memory */\n      0x60\n        /* \"threefour/Create2.sol\":2998:3019  bytes memory bytecode */\n      0x00\n        /* \"threefour/Create2.sol\":3022:3058  type(DeployWithCreate2).creationCode */\n      mload(0x40)\n      dup1\n      0x20\n      add\n      tag_23\n      swap1\n      tag_24\n      jump\t// in\n    tag_23:\n      not(0x1f)\n      dup3\n      dup3\n      sub\n      dup2\n      add\n      dup4\n      mstore\n      0x1f\n      swap1\n      swap2\n      add\n      and\n      0x40\n      dup2\n      dup2\n      mstore\n      sub(shl(0xa0, 0x01), 0x01)\n        /* \"#utility.yul\":2095:2127   */\n      dup7\n      and\n        /* \"threefour/Create2.sol\":3022:3058  type(DeployWithCreate2).creationCode */\n      0x20\n        /* \"threefour/Create2.sol\":3195:3213  abi.encode(_owner) */\n      dup4\n      add\n        /* \"#utility.yul\":2077:2128   */\n      mstore\n        /* \"threefour/Create2.sol\":3022:3058  type(DeployWithCreate2).creationCode */\n      swap2\n      swap3\n      pop\n      dup3\n      swap2\n        /* \"#utility.yul\":2050:2068   */\n      add\n        /* \"threefour/Create2.sol\":3195:3213  abi.encode(_owner) */\n      0x40\n      dup1\n      mload\n      not(0x1f)\n      dup2\n      dup5\n      sub\n      add\n      dup2\n      mstore\n      swap1\n      dup3\n      swap1\n      mstore\n        /* \"threefour/Create2.sol\":3168:3214  abi.encodePacked(bytecode, abi.encode(_owner)) */\n      tag_26\n      swap3\n      swap2\n        /* \"threefour/Create2.sol\":3195:3213  abi.encode(_owner) */\n      0x20\n        /* \"threefour/Create2.sol\":3168:3214  abi.encodePacked(bytecode, abi.encode(_owner)) */\n      add\n      tag_27\n      jump\t// in\n    tag_26:\n      mload(0x40)\n      0x20\n      dup2\n      dup4\n      sub\n      sub\n      dup2\n      mstore\n      swap1\n      0x40\n      mstore\n        /* \"threefour/Create2.sol\":3161:3214  return abi.encodePacked(bytecode, abi.encode(_owner)) */\n      swap2\n      pop\n      pop\n        /* \"threefour/Create2.sol\":2798:3222  function getByteCode(address _owner)... */\n      swap2\n      swap1\n      pop\n      jump\t// out\n        /* \"threefour/Create2.sol\":740:1200  function deploy(uint _salt) external {... */\n    tag_21:\n        /* \"threefour/Create2.sol\":922:949  DeployWithCreate2 _contract */\n      0x00\n        /* \"threefour/Create2.sol\":1002:1007  _salt */\n      dup2\n        /* \"threefour/Create2.sol\":994:1008  bytes32(_salt) */\n      0x00\n      shl\n        /* \"threefour/Create2.sol\":1060:1070  msg.sender */\n      caller\n        /* \"threefour/Create2.sol\":952:1071  new DeployWithCreate2{... */\n      mload(0x40)\n      tag_32\n      swap1\n      tag_24\n      jump\t// in\n    tag_32:\n      sub(shl(0xa0, 0x01), 0x01)\n        /* \"#utility.yul\":2095:2127   */\n      swap1\n      swap2\n      and\n        /* \"#utility.yul\":2077:2128   */\n      dup2\n      mstore\n        /* \"#utility.yul\":2065:2067   */\n      0x20\n        /* \"#utility.yul\":2050:2068   */\n      add\n        /* \"threefour/Create2.sol\":952:1071  new DeployWithCreate2{... */\n      dup2\n      swap1\n      mload(0x40)\n      dup1\n      swap2\n      sub\n      swap1\n      0x00\n      create2\n      swap1\n      pop\n      dup1\n      iszero\n      dup1\n      iszero\n      tag_34\n      jumpi\n      returndatacopy(0x00, 0x00, returndatasize)\n      revert(0x00, returndatasize)\n    tag_34:\n      pop\n        /* \"threefour/Create2.sol\":1166:1192  Deploy(address(_contract)) */\n      mload(0x40)\n      sub(shl(0xa0, 0x01), 0x01)\n        /* \"#utility.yul\":2095:2127   */\n      dup3\n      and\n        /* \"#utility.yul\":2077:2128   */\n      dup2\n      mstore\n        /* \"threefour/Create2.sol\":922:1071  DeployWithCreate2 _contract = new DeployWithCreate2{... */\n      swap1\n      swap2\n      pop\n        /* \"threefour/Create2.sol\":1166:1192  Deploy(address(_contract)) */\n      0x55ea6c6b31543d8e2ec6a72f71a79c0f4b72ed0d4757172b043d8f4f4cd84848\n      swap1\n        /* \"#utility.yul\":2065:2067   */\n      0x20\n        /* \"#utility.yul\":2050:2068   */\n      add\n        /* \"threefour/Create2.sol\":1166:1192  Deploy(address(_contract)) */\n      mload(0x40)\n      dup1\n      swap2\n      sub\n      swap1\n      log1\n        /* \"threefour/Create2.sol\":777:1200  {... */\n      pop\n        /* \"threefour/Create2.sol\":740:1200  function deploy(uint _salt) external {... */\n      pop\n      jump\t// out\n    tag_24:\n      dataSize(sub_0)\n      dup1\n      dataOffset(sub_0)\n      dup4\n      codecopy\n      add\n      swap1\n      jump\t// out\n        /* \"#utility.yul\":14:300   */\n    tag_8:\n        /* \"#utility.yul\":73:79   */\n      0x00\n        /* \"#utility.yul\":126:128   */\n      0x20\n        /* \"#utility.yul\":114:123   */\n      dup3\n        /* \"#utility.yul\":105:112   */\n      dup5\n        /* \"#utility.yul\":101:124   */\n      sub\n        /* \"#utility.yul\":97:129   */\n      slt\n        /* \"#utility.yul\":94:146   */\n      iszero\n      tag_40\n      jumpi\n        /* \"#utility.yul\":142:143   */\n      0x00\n        /* \"#utility.yul\":139:140   */\n      0x00\n        /* \"#utility.yul\":132:144   */\n      revert\n        /* \"#utility.yul\":94:146   */\n    tag_40:\n        /* \"#utility.yul\":168:191   */\n      dup2\n      calldataload\n      sub(shl(0xa0, 0x01), 0x01)\n        /* \"#utility.yul\":220:251   */\n      dup2\n      and\n        /* \"#utility.yul\":210:252   */\n      dup2\n      eq\n        /* \"#utility.yul\":200:270   */\n      tag_41\n      jumpi\n        /* \"#utility.yul\":266:267   */\n      0x00\n        /* \"#utility.yul\":263:264   */\n      0x00\n        /* \"#utility.yul\":256:268   */\n      revert\n        /* \"#utility.yul\":200:270   */\n    tag_41:\n        /* \"#utility.yul\":289:294   */\n      swap4\n        /* \"#utility.yul\":14:300   */\n      swap3\n      pop\n      pop\n      pop\n      jump\t// out\n        /* \"#utility.yul\":305:721   */\n    tag_11:\n        /* \"#utility.yul\":452:454   */\n      0x20\n        /* \"#utility.yul\":441:450   */\n      dup2\n        /* \"#utility.yul\":434:455   */\n      mstore\n        /* \"#utility.yul\":415:419   */\n      0x00\n        /* \"#utility.yul\":484:490   */\n      dup3\n        /* \"#utility.yul\":478:491   */\n      mload\n        /* \"#utility.yul\":527:533   */\n      dup1\n        /* \"#utility.yul\":522:524   */\n      0x20\n        /* \"#utility.yul\":511:520   */\n      dup5\n        /* \"#utility.yul\":507:525   */\n      add\n        /* \"#utility.yul\":500:534   */\n      mstore\n        /* \"#utility.yul\":586:592   */\n      dup1\n        /* \"#utility.yul\":581:583   */\n      0x20\n        /* \"#utility.yul\":573:579   */\n      dup6\n        /* \"#utility.yul\":569:584   */\n      add\n        /* \"#utility.yul\":564:566   */\n      0x40\n        /* \"#utility.yul\":553:562   */\n      dup6\n        /* \"#utility.yul\":549:567   */\n      add\n        /* \"#utility.yul\":543:593   */\n      mcopy\n        /* \"#utility.yul\":642:643   */\n      0x00\n        /* \"#utility.yul\":637:639   */\n      0x40\n        /* \"#utility.yul\":628:634   */\n      dup3\n        /* \"#utility.yul\":617:626   */\n      dup6\n        /* \"#utility.yul\":613:635   */\n      add\n        /* \"#utility.yul\":609:640   */\n      add\n        /* \"#utility.yul\":602:644   */\n      mstore\n        /* \"#utility.yul\":712:714   */\n      0x40\n        /* \"#utility.yul\":705:707   */\n      0x1f\n        /* \"#utility.yul\":701:708   */\n      not\n        /* \"#utility.yul\":696:698   */\n      0x1f\n        /* \"#utility.yul\":688:694   */\n      dup4\n        /* \"#utility.yul\":684:699   */\n      add\n        /* \"#utility.yul\":680:709   */\n      and\n        /* \"#utility.yul\":669:678   */\n      dup5\n        /* \"#utility.yul\":665:710   */\n      add\n        /* \"#utility.yul\":661:715   */\n      add\n        /* \"#utility.yul\":653:715   */\n      swap2\n      pop\n      pop\n        /* \"#utility.yul\":305:721   */\n      swap3\n      swap2\n      pop\n      pop\n      jump\t// out\n        /* \"#utility.yul\":726:853   */\n    tag_36:\n        /* \"#utility.yul\":787:797   */\n      0x4e487b71\n        /* \"#utility.yul\":782:785   */\n      0xe0\n        /* \"#utility.yul\":778:798   */\n      shl\n        /* \"#utility.yul\":775:776   */\n      0x00\n        /* \"#utility.yul\":768:799   */\n      mstore\n        /* \"#utility.yul\":818:822   */\n      0x41\n        /* \"#utility.yul\":815:816   */\n      0x04\n        /* \"#utility.yul\":808:823   */\n      mstore\n        /* \"#utility.yul\":842:846   */\n      0x24\n        /* \"#utility.yul\":839:840   */\n      0x00\n        /* \"#utility.yul\":832:847   */\n      revert\n        /* \"#utility.yul\":858:1926   */\n    tag_14:\n        /* \"#utility.yul\":935:941   */\n      0x00\n        /* \"#utility.yul\":943:949   */\n      0x00\n        /* \"#utility.yul\":996:998   */\n      0x40\n        /* \"#utility.yul\":984:993   */\n      dup4\n        /* \"#utility.yul\":975:982   */\n      dup6\n        /* \"#utility.yul\":971:994   */\n      sub\n        /* \"#utility.yul\":967:999   */\n      slt\n        /* \"#utility.yul\":964:1016   */\n      iszero\n      tag_45\n      jumpi\n        /* \"#utility.yul\":1012:1013   */\n      0x00\n        /* \"#utility.yul\":1009:1010   */\n      0x00\n        /* \"#utility.yul\":1002:1014   */\n      revert\n        /* \"#utility.yul\":964:1016   */\n    tag_45:\n        /* \"#utility.yul\":1052:1061   */\n      dup3\n        /* \"#utility.yul\":1039:1062   */\n      calldataload\n        /* \"#utility.yul\":1085:1103   */\n      0xffffffffffffffff\n        /* \"#utility.yul\":1077:1083   */\n      dup2\n        /* \"#utility.yul\":1074:1104   */\n      gt\n        /* \"#utility.yul\":1071:1121   */\n      iszero\n      tag_46\n      jumpi\n        /* \"#utility.yul\":1117:1118   */\n      0x00\n        /* \"#utility.yul\":1114:1115   */\n      0x00\n        /* \"#utility.yul\":1107:1119   */\n      revert\n        /* \"#utility.yul\":1071:1121   */\n    tag_46:\n        /* \"#utility.yul\":1140:1162   */\n      dup4\n      add\n        /* \"#utility.yul\":1193:1197   */\n      0x1f\n        /* \"#utility.yul\":1185:1198   */\n      dup2\n      add\n        /* \"#utility.yul\":1181:1208   */\n      dup6\n      sgt\n        /* \"#utility.yul\":1171:1226   */\n      tag_47\n      jumpi\n        /* \"#utility.yul\":1222:1223   */\n      0x00\n        /* \"#utility.yul\":1219:1220   */\n      0x00\n        /* \"#utility.yul\":1212:1224   */\n      revert\n        /* \"#utility.yul\":1171:1226   */\n    tag_47:\n        /* \"#utility.yul\":1262:1264   */\n      dup1\n        /* \"#utility.yul\":1249:1265   */\n      calldataload\n        /* \"#utility.yul\":1288:1306   */\n      0xffffffffffffffff\n        /* \"#utility.yul\":1280:1286   */\n      dup2\n        /* \"#utility.yul\":1277:1307   */\n      gt\n        /* \"#utility.yul\":1274:1330   */\n      iszero\n      tag_49\n      jumpi\n        /* \"#utility.yul\":1310:1328   */\n      tag_49\n      tag_36\n      jump\t// in\n    tag_49:\n        /* \"#utility.yul\":1359:1361   */\n      0x40\n        /* \"#utility.yul\":1353:1362   */\n      mload\n        /* \"#utility.yul\":1451:1453   */\n      0x1f\n        /* \"#utility.yul\":1413:1430   */\n      dup3\n      add\n      not(0x1f)\n        /* \"#utility.yul\":1409:1440   */\n      swap1\n      dup2\n      and\n        /* \"#utility.yul\":1442:1444   */\n      0x3f\n        /* \"#utility.yul\":1405:1445   */\n      add\n        /* \"#utility.yul\":1401:1455   */\n      and\n        /* \"#utility.yul\":1389:1456   */\n      dup2\n      add\n        /* \"#utility.yul\":1486:1504   */\n      0xffffffffffffffff\n        /* \"#utility.yul\":1471:1505   */\n      dup2\n      gt\n        /* \"#utility.yul\":1507:1529   */\n      dup3\n      dup3\n      lt\n        /* \"#utility.yul\":1468:1530   */\n      or\n        /* \"#utility.yul\":1465:1553   */\n      iszero\n      tag_51\n      jumpi\n        /* \"#utility.yul\":1533:1551   */\n      tag_51\n      tag_36\n      jump\t// in\n    tag_51:\n        /* \"#utility.yul\":1569:1571   */\n      0x40\n        /* \"#utility.yul\":1562:1584   */\n      mstore\n        /* \"#utility.yul\":1593:1615   */\n      dup2\n      dup2\n      mstore\n        /* \"#utility.yul\":1634:1649   */\n      dup3\n      dup3\n      add\n        /* \"#utility.yul\":1651:1655   */\n      0x20\n        /* \"#utility.yul\":1630:1656   */\n      add\n        /* \"#utility.yul\":1627:1666   */\n      dup8\n      lt\n        /* \"#utility.yul\":1624:1683   */\n      iszero\n      tag_52\n      jumpi\n        /* \"#utility.yul\":1679:1680   */\n      0x00\n        /* \"#utility.yul\":1676:1677   */\n      0x00\n        /* \"#utility.yul\":1669:1681   */\n      revert\n        /* \"#utility.yul\":1624:1683   */\n    tag_52:\n        /* \"#utility.yul\":1739:1745   */\n      dup2\n        /* \"#utility.yul\":1732:1736   */\n      0x20\n        /* \"#utility.yul\":1728:1730   */\n      dup5\n        /* \"#utility.yul\":1724:1737   */\n      add\n        /* \"#utility.yul\":1717:1721   */\n      0x20\n        /* \"#utility.yul\":1709:1715   */\n      dup4\n        /* \"#utility.yul\":1705:1722   */\n      add\n        /* \"#utility.yul\":1692:1746   */\n      calldatacopy\n        /* \"#utility.yul\":1794:1795   */\n      0x00\n        /* \"#utility.yul\":1787:1791   */\n      0x20\n        /* \"#utility.yul\":1766:1785   */\n      swap3\n      dup3\n      add\n        /* \"#utility.yul\":1762:1792   */\n      dup4\n      add\n        /* \"#utility.yul\":1755:1796   */\n      mstore\n        /* \"#utility.yul\":1766:1785   */\n      swap7\n        /* \"#utility.yul\":1875:1895   */\n      swap5\n      add\n        /* \"#utility.yul\":1862:1896   */\n      calldataload\n      swap5\n      pop\n      pop\n      pop\n      pop\n        /* \"#utility.yul\":858:1926   */\n      jump\t// out\n        /* \"#utility.yul\":2139:2365   */\n    tag_20:\n        /* \"#utility.yul\":2198:2204   */\n      0x00\n        /* \"#utility.yul\":2251:2253   */\n      0x20\n        /* \"#utility.yul\":2239:2248   */\n      dup3\n        /* \"#utility.yul\":2230:2237   */\n      dup5\n        /* \"#utility.yul\":2226:2249   */\n      sub\n        /* \"#utility.yul\":2222:2254   */\n      slt\n        /* \"#utility.yul\":2219:2271   */\n      iszero\n      tag_55\n      jumpi\n        /* \"#utility.yul\":2267:2268   */\n      0x00\n        /* \"#utility.yul\":2264:2265   */\n      0x00\n        /* \"#utility.yul\":2257:2269   */\n      revert\n        /* \"#utility.yul\":2219:2271   */\n    tag_55:\n      pop\n        /* \"#utility.yul\":2312:2335   */\n      calldataload\n      swap2\n        /* \"#utility.yul\":2139:2365   */\n      swap1\n      pop\n      jump\t// out\n        /* \"#utility.yul\":2370:2581   */\n    tag_37:\n        /* \"#utility.yul\":2411:2414   */\n      0x00\n        /* \"#utility.yul\":2449:2454   */\n      dup2\n        /* \"#utility.yul\":2443:2455   */\n      mload\n        /* \"#utility.yul\":2493:2499   */\n      dup1\n        /* \"#utility.yul\":2486:2490   */\n      0x20\n        /* \"#utility.yul\":2479:2484   */\n      dup5\n        /* \"#utility.yul\":2475:2491   */\n      add\n        /* \"#utility.yul\":2470:2473   */\n      dup6\n        /* \"#utility.yul\":2464:2500   */\n      mcopy\n        /* \"#utility.yul\":2555:2556   */\n      0x00\n        /* \"#utility.yul\":2519:2535   */\n      swap4\n      add\n        /* \"#utility.yul\":2544:2557   */\n      swap3\n      dup4\n      mstore\n      pop\n        /* \"#utility.yul\":2519:2535   */\n      swap1\n      swap2\n        /* \"#utility.yul\":2370:2581   */\n      swap1\n      pop\n      jump\t// out\n        /* \"#utility.yul\":2586:2847   */\n    tag_27:\n        /* \"#utility.yul\":2761:2764   */\n      0x00\n        /* \"#utility.yul\":2786:2841   */\n      tag_58\n        /* \"#utility.yul\":2811:2840   */\n      tag_59\n        /* \"#utility.yul\":2836:2839   */\n      dup4\n        /* \"#utility.yul\":2828:2834   */\n      dup7\n        /* \"#utility.yul\":2811:2840   */\n      tag_37\n      jump\t// in\n    tag_59:\n        /* \"#utility.yul\":2803:2809   */\n      dup5\n        /* \"#utility.yul\":2786:2841   */\n      tag_37\n      jump\t// in\n    tag_58:\n        /* \"#utility.yul\":2779:2841   */\n      swap5\n        /* \"#utility.yul\":2586:2847   */\n      swap4\n      pop\n      pop\n      pop\n      pop\n      jump\t// out\n    stop\n\n    sub_0: assembly {\n            /* \"threefour/Create2.sol\":139:384  contract DeployWithCreate2 {... */\n          mstore(0x40, 0x80)\n            /* \"threefour/Create2.sol\":320:381  constructor(address _owner) {... */\n          callvalue\n          dup1\n          iszero\n          tag_1\n          jumpi\n          revert(0x00, 0x00)\n        tag_1:\n          pop\n          mload(0x40)\n          sub(codesize, bytecodeSize)\n          dup1\n          bytecodeSize\n          dup4\n          codecopy\n          dup2\n          add\n          0x40\n          dup2\n          swap1\n          mstore\n          tag_2\n          swap2\n          tag_3\n          jump\t// in\n        tag_2:\n            /* \"threefour/Create2.sol\":359:364  owner */\n          0x00\n            /* \"threefour/Create2.sol\":359:373  owner = _owner */\n          dup1\n          sload\n          not(sub(shl(0xa0, 0x01), 0x01))\n          and\n          sub(shl(0xa0, 0x01), 0x01)\n          swap3\n          swap1\n          swap3\n          and\n          swap2\n          swap1\n          swap2\n          or\n          swap1\n          sstore\n            /* \"threefour/Create2.sol\":139:384  contract DeployWithCreate2 {... */\n          jump(tag_7)\n            /* \"#utility.yul\":14:304   */\n        tag_3:\n            /* \"#utility.yul\":84:90   */\n          0x00\n            /* \"#utility.yul\":137:139   */\n          0x20\n            /* \"#utility.yul\":125:134   */\n          dup3\n            /* \"#utility.yul\":116:123   */\n          dup5\n            /* \"#utility.yul\":112:135   */\n          sub\n            /* \"#utility.yul\":108:140   */\n          slt\n            /* \"#utility.yul\":105:157   */\n          iszero\n          tag_9\n          jumpi\n            /* \"#utility.yul\":153:154   */\n          0x00\n            /* \"#utility.yul\":150:151   */\n          0x00\n            /* \"#utility.yul\":143:155   */\n          revert\n            /* \"#utility.yul\":105:157   */\n        tag_9:\n            /* \"#utility.yul\":179:195   */\n          dup2\n          mload\n          sub(shl(0xa0, 0x01), 0x01)\n            /* \"#utility.yul\":224:255   */\n          dup2\n          and\n            /* \"#utility.yul\":214:256   */\n          dup2\n          eq\n            /* \"#utility.yul\":204:274   */\n          tag_10\n          jumpi\n            /* \"#utility.yul\":270:271   */\n          0x00\n            /* \"#utility.yul\":267:268   */\n          0x00\n            /* \"#utility.yul\":260:272   */\n          revert\n            /* \"#utility.yul\":204:274   */\n        tag_10:\n            /* \"#utility.yul\":293:298   */\n          swap4\n            /* \"#utility.yul\":14:304   */\n          swap3\n          pop\n          pop\n          pop\n          jump\t// out\n        tag_7:\n            /* \"threefour/Create2.sol\":139:384  contract DeployWithCreate2 {... */\n          dataSize(sub_0)\n          dup1\n          dataOffset(sub_0)\n          0x00\n          codecopy\n          0x00\n          return\n        stop\n\n        sub_0: assembly {\n                /* \"threefour/Create2.sol\":139:384  contract DeployWithCreate2 {... */\n              mstore(0x40, 0x80)\n              callvalue\n              dup1\n              iszero\n              tag_1\n              jumpi\n              revert(0x00, 0x00)\n            tag_1:\n              pop\n              jumpi(tag_2, lt(calldatasize, 0x04))\n              shr(0xe0, calldataload(0x00))\n              dup1\n              0x8da5cb5b\n              eq\n              tag_3\n              jumpi\n            tag_2:\n              revert(0x00, 0x00)\n                /* \"threefour/Create2.sol\":221:241  address public owner */\n            tag_3:\n              sload(0x00)\n              tag_4\n              swap1\n              sub(shl(0xa0, 0x01), 0x01)\n              and\n              dup2\n              jump\n            tag_4:\n              mload(0x40)\n              sub(shl(0xa0, 0x01), 0x01)\n                /* \"#utility.yul\":178:210   */\n              swap1\n              swap2\n              and\n                /* \"#utility.yul\":160:211   */\n              dup2\n              mstore\n                /* \"#utility.yul\":148:150   */\n              0x20\n                /* \"#utility.yul\":133:151   */\n              add\n                /* \"threefour/Create2.sol\":221:241  address public owner */\n              mload(0x40)\n              dup1\n              swap2\n              sub\n              swap1\n              return\n\n            auxdata: 0xa2646970667358221220dc58e3d17baafe432d0565c245e9d5648619720bbe6b90860e4959c567a8328e64736f6c634300081d0033\n        }\n    }\n\n    auxdata: 0xa26469706673582212208d19ae8a23e7c6a6462965a520bb68078b521e9f5b131333e0b887754cc3408b64736f6c634300081d0033\n}\n",
				"bytecode": {
					"linkReferences": {},
					"object": "6080604052348015600e575f5ffd5b506104c18061001c5f395ff3fe608060405234801561000f575f5ffd5b506004361061003f575f3560e01c8063247907441461004357806394ca2cb51461006c578063a5e38751146100ee575b5f5ffd5b610056610051366004610204565b610103565b6040516100639190610231565b60405180910390f35b6100d661007a36600461027a565b8151602092830120604080516001600160f81b0319818601523060601b6bffffffffffffffffffffffff191660218201526035810193909352605580840192909252805180840390920182526075909201909152805191012090565b6040516001600160a01b039091168152602001610063565b6101016100fc36600461032f565b610175565b005b60605f60405180602001610116906101f7565b601f1982820381018352601f9091011660408181526001600160a01b038616602083015291925082910160408051601f198184030181529082905261015e929160200161035d565b604051602081830303815290604052915050919050565b5f815f1b33604051610186906101f7565b6001600160a01b0390911681526020018190604051809103905ff59050801580156101b3573d5f5f3e3d5ffd5b506040516001600160a01b03821681529091507f55ea6c6b31543d8e2ec6a72f71a79c0f4b72ed0d4757172b043d8f4f4cd848489060200160405180910390a15050565b6101128061037a83390190565b5f60208284031215610214575f5ffd5b81356001600160a01b038116811461022a575f5ffd5b9392505050565b602081525f82518060208401528060208501604085015e5f604082850101526040601f19601f83011684010191505092915050565b634e487b7160e01b5f52604160045260245ffd5b5f5f6040838503121561028b575f5ffd5b823567ffffffffffffffff8111156102a1575f5ffd5b8301601f810185136102b1575f5ffd5b803567ffffffffffffffff8111156102cb576102cb610266565b604051601f8201601f19908116603f0116810167ffffffffffffffff811182821017156102fa576102fa610266565b604052818152828201602001871015610311575f5ffd5b816020840160208301375f6020928201830152969401359450505050565b5f6020828403121561033f575f5ffd5b5035919050565b5f81518060208401855e5f93019283525090919050565b5f61037161036b8386610346565b84610346565b94935050505056fe6080604052348015600e575f5ffd5b50604051610112380380610112833981016040819052602b91604e565b5f80546001600160a01b0319166001600160a01b03929092169190911790556079565b5f60208284031215605d575f5ffd5b81516001600160a01b03811681146072575f5ffd5b9392505050565b608d806100855f395ff3fe6080604052348015600e575f5ffd5b50600436106026575f3560e01c80638da5cb5b14602a575b5f5ffd5b5f54603b906001600160a01b031681565b6040516001600160a01b03909116815260200160405180910390f3fea2646970667358221220dc58e3d17baafe432d0565c245e9d5648619720bbe6b90860e4959c567a8328e64736f6c634300081d0033a26469706673582212208d19ae8a23e7c6a6462965a520bb68078b521e9f5b131333e0b887754cc3408b64736f6c634300081d0033",
					"opcodes": "PUSH1 0x80 PUSH1 0x40 MSTORE CALLVALUE DUP1 ISZERO PUSH1 0xE JUMPI PUSH0 PUSH0 REVERT JUMPDEST POP PUSH2 0x4C1 DUP1 PUSH2 0x1C PUSH0 CODECOPY PUSH0 RETURN INVALID PUSH1 0x80 PUSH1 0x40 MSTORE CALLVALUE DUP1 ISZERO PUSH2 0xF JUMPI PUSH0 PUSH0 REVERT JUMPDEST POP PUSH1 0x4 CALLDATASIZE LT PUSH2 0x3F JUMPI PUSH0 CALLDATALOAD PUSH1 0xE0 SHR DUP1 PUSH4 0x24790744 EQ PUSH2 0x43 JUMPI DUP1 PUSH4 0x94CA2CB5 EQ PUSH2 0x6C JUMPI DUP1 PUSH4 0xA5E38751 EQ PUSH2 0xEE JUMPI JUMPDEST PUSH0 PUSH0 REVERT JUMPDEST PUSH2 0x56 PUSH2 0x51 CALLDATASIZE PUSH1 0x4 PUSH2 0x204 JUMP JUMPDEST PUSH2 0x103 JUMP JUMPDEST PUSH1 0x40 MLOAD PUSH2 0x63 SWAP2 SWAP1 PUSH2 0x231 JUMP JUMPDEST PUSH1 0x40 MLOAD DUP1 SWAP2 SUB SWAP1 RETURN JUMPDEST PUSH2 0xD6 PUSH2 0x7A CALLDATASIZE PUSH1 0x4 PUSH2 0x27A JUMP JUMPDEST DUP2 MLOAD PUSH1 0x20 SWAP3 DUP4 ADD KECCAK256 PUSH1 0x40 DUP1 MLOAD PUSH1 0x1 PUSH1 0x1 PUSH1 0xF8 SHL SUB NOT DUP2 DUP7 ADD MSTORE ADDRESS PUSH1 0x60 SHL PUSH12 0xFFFFFFFFFFFFFFFFFFFFFFFF NOT AND PUSH1 0x21 DUP3 ADD MSTORE PUSH1 0x35 DUP2 ADD SWAP4 SWAP1 SWAP4 MSTORE PUSH1 0x55 DUP1 DUP5 ADD SWAP3 SWAP1 SWAP3 MSTORE DUP1 MLOAD DUP1 DUP5 SUB SWAP1 SWAP3 ADD DUP3 MSTORE PUSH1 0x75 SWAP1 SWAP3 ADD SWAP1 SWAP2 MSTORE DUP1 MLOAD SWAP2 ADD KECCAK256 SWAP1 JUMP JUMPDEST PUSH1 0x40 MLOAD PUSH1 0x1 PUSH1 0x1 PUSH1 0xA0 SHL SUB SWAP1 SWAP2 AND DUP2 MSTORE PUSH1 0x20 ADD PUSH2 0x63 JUMP JUMPDEST PUSH2 0x101 PUSH2 0xFC CALLDATASIZE PUSH1 0x4 PUSH2 0x32F JUMP JUMPDEST PUSH2 0x175 JUMP JUMPDEST STOP JUMPDEST PUSH1 0x60 PUSH0 PUSH1 0x40 MLOAD DUP1 PUSH1 0x20 ADD PUSH2 0x116 SWAP1 PUSH2 0x1F7 JUMP JUMPDEST PUSH1 0x1F NOT DUP3 DUP3 SUB DUP2 ADD DUP4 MSTORE PUSH1 0x1F SWAP1 SWAP2 ADD AND PUSH1 0x40 DUP2 DUP2 MSTORE PUSH1 0x1 PUSH1 0x1 PUSH1 0xA0 SHL SUB DUP7 AND PUSH1 0x20 DUP4 ADD MSTORE SWAP2 SWAP3 POP DUP3 SWAP2 ADD PUSH1 0x40 DUP1 MLOAD PUSH1 0x1F NOT DUP2 DUP5 SUB ADD DUP2 MSTORE SWAP1 DUP3 SWAP1 MSTORE PUSH2 0x15E SWAP3 SWAP2 PUSH1 0x20 ADD PUSH2 0x35D JUMP JUMPDEST PUSH1 0x40 MLOAD PUSH1 0x20 DUP2 DUP4 SUB SUB DUP2 MSTORE SWAP1 PUSH1 0x40 MSTORE SWAP2 POP POP SWAP2 SWAP1 POP JUMP JUMPDEST PUSH0 DUP2 PUSH0 SHL CALLER PUSH1 0x40 MLOAD PUSH2 0x186 SWAP1 PUSH2 0x1F7 JUMP JUMPDEST PUSH1 0x1 PUSH1 0x1 PUSH1 0xA0 SHL SUB SWAP1 SWAP2 AND DUP2 MSTORE PUSH1 0x20 ADD DUP2 SWAP1 PUSH1 0x40 MLOAD DUP1 SWAP2 SUB SWAP1 PUSH0 CREATE2 SWAP1 POP DUP1 ISZERO DUP1 ISZERO PUSH2 0x1B3 JUMPI RETURNDATASIZE PUSH0 PUSH0 RETURNDATACOPY RETURNDATASIZE PUSH0 REVERT JUMPDEST POP PUSH1 0x40 MLOAD PUSH1 0x1 PUSH1 0x1 PUSH1 0xA0 SHL SUB DUP3 AND DUP2 MSTORE SWAP1 SWAP2 POP PUSH32 0x55EA6C6B31543D8E2EC6A72F71A79C0F4B72ED0D4757172B043D8F4F4CD84848 SWAP1 PUSH1 0x20 ADD PUSH1 0x40 MLOAD DUP1 SWAP2 SUB SWAP1 LOG1 POP POP JUMP JUMPDEST PUSH2 0x112 DUP1 PUSH2 0x37A DUP4 CODECOPY ADD SWAP1 JUMP JUMPDEST PUSH0 PUSH1 0x20 DUP3 DUP5 SUB SLT ISZERO PUSH2 0x214 JUMPI PUSH0 PUSH0 REVERT JUMPDEST DUP2 CALLDATALOAD PUSH1 0x1 PUSH1 0x1 PUSH1 0xA0 SHL SUB DUP2 AND DUP2 EQ PUSH2 0x22A JUMPI PUSH0 PUSH0 REVERT JUMPDEST SWAP4 SWAP3 POP POP POP JUMP JUMPDEST PUSH1 0x20 DUP2 MSTORE PUSH0 DUP3 MLOAD DUP1 PUSH1 0x20 DUP5 ADD MSTORE DUP1 PUSH1 0x20 DUP6 ADD PUSH1 0x40 DUP6 ADD MCOPY PUSH0 PUSH1 0x40 DUP3 DUP6 ADD ADD MSTORE PUSH1 0x40 PUSH1 0x1F NOT PUSH1 0x1F DUP4 ADD AND DUP5 ADD ADD SWAP2 POP POP SWAP3 SWAP2 POP POP JUMP JUMPDEST PUSH4 0x4E487B71 PUSH1 0xE0 SHL PUSH0 MSTORE PUSH1 0x41 PUSH1 0x4 MSTORE PUSH1 0x24 PUSH0 REVERT JUMPDEST PUSH0 PUSH0 PUSH1 0x40 DUP4 DUP6 SUB SLT ISZERO PUSH2 0x28B JUMPI PUSH0 PUSH0 REVERT JUMPDEST DUP3 CALLDATALOAD PUSH8 0xFFFFFFFFFFFFFFFF DUP2 GT ISZERO PUSH2 0x2A1 JUMPI PUSH0 PUSH0 REVERT JUMPDEST DUP4 ADD PUSH1 0x1F DUP2 ADD DUP6 SGT PUSH2 0x2B1 JUMPI PUSH0 PUSH0 REVERT JUMPDEST DUP1 CALLDATALOAD PUSH8 0xFFFFFFFFFFFFFFFF DUP2 GT ISZERO PUSH2 0x2CB JUMPI PUSH2 0x2CB PUSH2 0x266 JUMP JUMPDEST PUSH1 0x40 MLOAD PUSH1 0x1F DUP3 ADD PUSH1 0x1F NOT SWAP1 DUP2 AND PUSH1 0x3F ADD AND DUP2 ADD PUSH8 0xFFFFFFFFFFFFFFFF DUP2 GT DUP3 DUP3 LT OR ISZERO PUSH2 0x2FA JUMPI PUSH2 0x2FA PUSH2 0x266 JUMP JUMPDEST PUSH1 0x40 MSTORE DUP2 DUP2 MSTORE DUP3 DUP3 ADD PUSH1 0x20 ADD DUP8 LT ISZERO PUSH2 0x311 JUMPI PUSH0 PUSH0 REVERT JUMPDEST DUP2 PUSH1 0x20 DUP5 ADD PUSH1 0x20 DUP4 ADD CALLDATACOPY PUSH0 PUSH1 0x20 SWAP3 DUP3 ADD DUP4 ADD MSTORE SWAP7 SWAP5 ADD CALLDATALOAD SWAP5 POP POP POP POP JUMP JUMPDEST PUSH0 PUSH1 0x20 DUP3 DUP5 SUB SLT ISZERO PUSH2 0x33F JUMPI PUSH0 PUSH0 REVERT JUMPDEST POP CALLDATALOAD SWAP2 SWAP1 POP JUMP JUMPDEST PUSH0 DUP2 MLOAD DUP1 PUSH1 0x20 DUP5 ADD DUP6 MCOPY PUSH0 SWAP4 ADD SWAP3 DUP4 MSTORE POP SWAP1 SWAP2 SWAP1 POP JUMP JUMPDEST PUSH0 PUSH2 0x371 PUSH2 0x36B DUP4 DUP7 PUSH2 0x346 JUMP JUMPDEST DUP5 PUSH2 0x346 JUMP JUMPDEST SWAP5 SWAP4 POP POP POP POP JUMP INVALID PUSH1 0x80 PUSH1 0x40 MSTORE CALLVALUE DUP1 ISZERO PUSH1 0xE JUMPI PUSH0 PUSH0 REVERT JUMPDEST POP PUSH1 0x40 MLOAD PUSH2 0x112 CODESIZE SUB DUP1 PUSH2 0x112 DUP4 CODECOPY DUP2 ADD PUSH1 0x40 DUP2 SWAP1 MSTORE PUSH1 0x2B SWAP2 PUSH1 0x4E JUMP JUMPDEST PUSH0 DUP1 SLOAD PUSH1 0x1 PUSH1 0x1 PUSH1 0xA0 SHL SUB NOT AND PUSH1 0x1 PUSH1 0x1 PUSH1 0xA0 SHL SUB SWAP3 SWAP1 SWAP3 AND SWAP2 SWAP1 SWAP2 OR SWAP1 SSTORE PUSH1 0x79 JUMP JUMPDEST PUSH0 PUSH1 0x20 DUP3 DUP5 SUB SLT ISZERO PUSH1 0x5D JUMPI PUSH0 PUSH0 REVERT JUMPDEST DUP2 MLOAD PUSH1 0x1 PUSH1 0x1 PUSH1 0xA0 SHL SUB DUP2 AND DUP2 EQ PUSH1 0x72 JUMPI PUSH0 PUSH0 REVERT JUMPDEST SWAP4 SWAP3 POP POP POP JUMP JUMPDEST PUSH1 0x8D DUP1 PUSH2 0x85 PUSH0 CODECOPY PUSH0 RETURN INVALID PUSH1 0x80 PUSH1 0x40 MSTORE CALLVALUE DUP1 ISZERO PUSH1 0xE JUMPI PUSH0 PUSH0 REVERT JUMPDEST POP PUSH1 0x4 CALLDATASIZE LT PUSH1 0x26 JUMPI PUSH0 CALLDATALOAD PUSH1 0xE0 SHR DUP1 PUSH4 0x8DA5CB5B EQ PUSH1 0x2A JUMPI JUMPDEST PUSH0 PUSH0 REVERT JUMPDEST PUSH0 SLOAD PUSH1 0x3B SWAP1 PUSH1 0x1 PUSH1 0x1 PUSH1 0xA0 SHL SUB AND DUP2 JUMP JUMPDEST PUSH1 0x40 MLOAD PUSH1 0x1 PUSH1 0x1 PUSH1 0xA0 SHL SUB SWAP1 SWAP2 AND DUP2 MSTORE PUSH1 0x20 ADD PUSH1 0x40 MLOAD DUP1 SWAP2 SUB SWAP1 RETURN INVALID LOG2 PUSH5 0x6970667358 0x22 SLT KECCAK256 0xDC PC CALLF 0xD17B 0xAA INVALID NUMBER 0x2D SDIV PUSH6 0xC245E9D56486 NOT PUSH19 0xBBE6B90860E4959C567A8328E64736F6C6343 STOP ADDMOD SAR STOP CALLER LOG2 PUSH5 0x6970667358 0x22 SLT KECCAK256 DUP14 NOT 0xAE DUP11 0x23 SWAPN 0xC6 0xA6 CHAINID 0x29 PUSH6 0xA520BB68078B MSTORE 0x1E SWAP16 JUMPDEST SGT SGT CALLER RJUMP 0xB887 PUSH22 0x4CC3408B64736F6C634300081D003300000000000000 "
				},
				"gasEstimates": {
					"creation": {
						"codeDepositCost": "243400",
						"executionCost": "285",
						"totalCost": "243685"
					},
					"external": {
						"deploy(uint256)": "infinite",
						"getAddress(bytes,uint256)": "infinite",
						"getByteCode(address)": "infinite"
					}
				},
				"methodIdentifiers": {
					"deploy(uint256)": "a5e38751",
					"getAddress(bytes,uint256)": "94ca2cb5",
					"getByteCode(address)": "24790744"
				}
			},
			"storageLayout": {
				"storage": [],
				"types": null
			},
			"userdoc": {
				"kind": "user",
				"methods": {
					"deploy(uint256)": {
						"notice": "使用CREATE2操作码部署目标合约"
					},
					"getAddress(bytes,uint256)": {
						"notice": "预计算目标合约的部署地址"
					},
					"getByteCode(address)": {
						"notice": "生成目标合约的完整字节码（包含构造函数参数）"
					}
				},
				"notice": "CREATE2工厂合约 - 用于预计算地址并部署目标合约",
				"version": 1
			}
		}
	}
}