{
	"data": {
		"bytecode": {
			"linkReferences": {},
			"object": "6080604052348015600e575f5ffd5b50601633601a565b60da565b6001600160a01b03811660665760405162461bcd60e51b815260206004820152601060248201526f31b0b73737ba1039b2ba1030b236b4b760811b604482015260640160405180910390fd5b806095609260017fb53127684a568b3173ae13b9f8a6016e243e63b6e8ee1178d6a717850b5d610460b6565b90565b80546001600160a01b0319166001600160a01b039290921691909117905550565b8181038181111560d457634e487b7160e01b5f52601160045260245ffd5b92915050565b610311806100e75f395ff3fe608060405260043610610041575f3560e01c80633659cfe61461005c5780633ce4ac681461007b578063552079dc146100ab5780636e9960c3146100b3575f5ffd5b36610058576100566100516100c7565b610108565b005b5f5ffd5b348015610067575f5ffd5b50610056610076366004610289565b610126565b348015610086575f5ffd5b5061008f610154565b6040516001600160a01b03909116815260200160405180910390f35b610056610184565b3480156100be575f5ffd5b5061008f610191565b5f6100f96100f660017f360894a13ba1a3210667c828492db98dca3e2076cc3735a920a3ca505d382bbd6102b6565b90565b546001600160a01b0316919050565b365f5f375f5f365f845af43d5f5f3e808015610122573d5ff35b3d5ffd5b61012e6101ad565b6001600160a01b0316330361014957610146816101dc565b50565b6101466100516100c7565b5f61015d6101ad565b6001600160a01b03163303610179576101746100c7565b905090565b6100f66100516100c7565b61018f6100516100c7565b565b5f61019a6101ad565b6001600160a01b03163303610179576101745b5f6100f96100f660017fb53127684a568b3173ae13b9f8a6016e243e63b6e8ee1178d6a717850b5d61046102b6565b5f816001600160a01b03163b116102395760405162461bcd60e51b815260206004820152601860248201527f63616e6e6f742073657420696d706c656d656e6174696f6e0000000000000000604482015260640160405180910390fd5b806102686100f660017f360894a13ba1a3210667c828492db98dca3e2076cc3735a920a3ca505d382bbd6102b6565b80546001600160a01b0319166001600160a01b039290921691909117905550565b5f60208284031215610299575f5ffd5b81356001600160a01b03811681146102af575f5ffd5b9392505050565b818103818111156102d557634e487b7160e01b5f52601160045260245ffd5b9291505056fea2646970667358221220a3263410c15f7f2a95b41b22272b6506f2239cb516715bcd888ab168fafa9f1c64736f6c634300081d0033",
			"opcodes": "PUSH1 0x80 PUSH1 0x40 MSTORE CALLVALUE DUP1 ISZERO PUSH1 0xE JUMPI PUSH0 PUSH0 REVERT JUMPDEST POP PUSH1 0x16 CALLER PUSH1 0x1A JUMP JUMPDEST PUSH1 0xDA JUMP JUMPDEST PUSH1 0x1 PUSH1 0x1 PUSH1 0xA0 SHL SUB DUP2 AND PUSH1 0x66 JUMPI PUSH1 0x40 MLOAD PUSH3 0x461BCD PUSH1 0xE5 SHL DUP2 MSTORE PUSH1 0x20 PUSH1 0x4 DUP3 ADD MSTORE PUSH1 0x10 PUSH1 0x24 DUP3 ADD MSTORE PUSH16 0x31B0B73737BA1039B2BA1030B236B4B7 PUSH1 0x81 SHL PUSH1 0x44 DUP3 ADD MSTORE PUSH1 0x64 ADD PUSH1 0x40 MLOAD DUP1 SWAP2 SUB SWAP1 REVERT JUMPDEST DUP1 PUSH1 0x95 PUSH1 0x92 PUSH1 0x1 PUSH32 0xB53127684A568B3173AE13B9F8A6016E243E63B6E8EE1178D6A717850B5D6104 PUSH1 0xB6 JUMP JUMPDEST SWAP1 JUMP JUMPDEST DUP1 SLOAD PUSH1 0x1 PUSH1 0x1 PUSH1 0xA0 SHL SUB NOT AND PUSH1 0x1 PUSH1 0x1 PUSH1 0xA0 SHL SUB SWAP3 SWAP1 SWAP3 AND SWAP2 SWAP1 SWAP2 OR SWAP1 SSTORE POP JUMP JUMPDEST DUP2 DUP2 SUB DUP2 DUP2 GT ISZERO PUSH1 0xD4 JUMPI PUSH4 0x4E487B71 PUSH1 0xE0 SHL PUSH0 MSTORE PUSH1 0x11 PUSH1 0x4 MSTORE PUSH1 0x24 PUSH0 REVERT JUMPDEST SWAP3 SWAP2 POP POP JUMP JUMPDEST PUSH2 0x311 DUP1 PUSH2 0xE7 PUSH0 CODECOPY PUSH0 RETURN INVALID PUSH1 0x80 PUSH1 0x40 MSTORE PUSH1 0x4 CALLDATASIZE LT PUSH2 0x41 JUMPI PUSH0 CALLDATALOAD PUSH1 0xE0 SHR DUP1 PUSH4 0x3659CFE6 EQ PUSH2 0x5C JUMPI DUP1 PUSH4 0x3CE4AC68 EQ PUSH2 0x7B JUMPI DUP1 PUSH4 0x552079DC EQ PUSH2 0xAB JUMPI DUP1 PUSH4 0x6E9960C3 EQ PUSH2 0xB3 JUMPI PUSH0 PUSH0 REVERT JUMPDEST CALLDATASIZE PUSH2 0x58 JUMPI PUSH2 0x56 PUSH2 0x51 PUSH2 0xC7 JUMP JUMPDEST PUSH2 0x108 JUMP JUMPDEST STOP JUMPDEST PUSH0 PUSH0 REVERT JUMPDEST CALLVALUE DUP1 ISZERO PUSH2 0x67 JUMPI PUSH0 PUSH0 REVERT JUMPDEST POP PUSH2 0x56 PUSH2 0x76 CALLDATASIZE PUSH1 0x4 PUSH2 0x289 JUMP JUMPDEST PUSH2 0x126 JUMP JUMPDEST CALLVALUE DUP1 ISZERO PUSH2 0x86 JUMPI PUSH0 PUSH0 REVERT JUMPDEST POP PUSH2 0x8F PUSH2 0x154 JUMP JUMPDEST PUSH1 0x40 MLOAD PUSH1 0x1 PUSH1 0x1 PUSH1 0xA0 SHL SUB SWAP1 SWAP2 AND DUP2 MSTORE PUSH1 0x20 ADD PUSH1 0x40 MLOAD DUP1 SWAP2 SUB SWAP1 RETURN JUMPDEST PUSH2 0x56 PUSH2 0x184 JUMP JUMPDEST CALLVALUE DUP1 ISZERO PUSH2 0xBE JUMPI PUSH0 PUSH0 REVERT JUMPDEST POP PUSH2 0x8F PUSH2 0x191 JUMP JUMPDEST PUSH0 PUSH2 0xF9 PUSH2 0xF6 PUSH1 0x1 PUSH32 0x360894A13BA1A3210667C828492DB98DCA3E2076CC3735A920A3CA505D382BBD PUSH2 0x2B6 JUMP JUMPDEST SWAP1 JUMP JUMPDEST SLOAD PUSH1 0x1 PUSH1 0x1 PUSH1 0xA0 SHL SUB AND SWAP2 SWAP1 POP JUMP JUMPDEST CALLDATASIZE PUSH0 PUSH0 CALLDATACOPY PUSH0 PUSH0 CALLDATASIZE PUSH0 DUP5 GAS DELEGATECALL RETURNDATASIZE PUSH0 PUSH0 RETURNDATACOPY DUP1 DUP1 ISZERO PUSH2 0x122 JUMPI RETURNDATASIZE PUSH0 RETURN JUMPDEST RETURNDATASIZE PUSH0 REVERT JUMPDEST PUSH2 0x12E PUSH2 0x1AD JUMP JUMPDEST PUSH1 0x1 PUSH1 0x1 PUSH1 0xA0 SHL SUB AND CALLER SUB PUSH2 0x149 JUMPI PUSH2 0x146 DUP2 PUSH2 0x1DC JUMP JUMPDEST POP JUMP JUMPDEST PUSH2 0x146 PUSH2 0x51 PUSH2 0xC7 JUMP JUMPDEST PUSH0 PUSH2 0x15D PUSH2 0x1AD JUMP JUMPDEST PUSH1 0x1 PUSH1 0x1 PUSH1 0xA0 SHL SUB AND CALLER SUB PUSH2 0x179 JUMPI PUSH2 0x174 PUSH2 0xC7 JUMP JUMPDEST SWAP1 POP SWAP1 JUMP JUMPDEST PUSH2 0xF6 PUSH2 0x51 PUSH2 0xC7 JUMP JUMPDEST PUSH2 0x18F PUSH2 0x51 PUSH2 0xC7 JUMP JUMPDEST JUMP JUMPDEST PUSH0 PUSH2 0x19A PUSH2 0x1AD JUMP JUMPDEST PUSH1 0x1 PUSH1 0x1 PUSH1 0xA0 SHL SUB AND CALLER SUB PUSH2 0x179 JUMPI PUSH2 0x174 JUMPDEST PUSH0 PUSH2 0xF9 PUSH2 0xF6 PUSH1 0x1 PUSH32 0xB53127684A568B3173AE13B9F8A6016E243E63B6E8EE1178D6A717850B5D6104 PUSH2 0x2B6 JUMP JUMPDEST PUSH0 DUP2 PUSH1 0x1 PUSH1 0x1 PUSH1 0xA0 SHL SUB AND EXTCODESIZE GT PUSH2 0x239 JUMPI PUSH1 0x40 MLOAD PUSH3 0x461BCD PUSH1 0xE5 SHL DUP2 MSTORE PUSH1 0x20 PUSH1 0x4 DUP3 ADD MSTORE PUSH1 0x18 PUSH1 0x24 DUP3 ADD MSTORE PUSH32 0x63616E6E6F742073657420696D706C656D656E6174696F6E0000000000000000 PUSH1 0x44 DUP3 ADD MSTORE PUSH1 0x64 ADD PUSH1 0x40 MLOAD DUP1 SWAP2 SUB SWAP1 REVERT JUMPDEST DUP1 PUSH2 0x268 PUSH2 0xF6 PUSH1 0x1 PUSH32 0x360894A13BA1A3210667C828492DB98DCA3E2076CC3735A920A3CA505D382BBD PUSH2 0x2B6 JUMP JUMPDEST DUP1 SLOAD PUSH1 0x1 PUSH1 0x1 PUSH1 0xA0 SHL SUB NOT AND PUSH1 0x1 PUSH1 0x1 PUSH1 0xA0 SHL SUB SWAP3 SWAP1 SWAP3 AND SWAP2 SWAP1 SWAP2 OR SWAP1 SSTORE POP JUMP JUMPDEST PUSH0 PUSH1 0x20 DUP3 DUP5 SUB SLT ISZERO PUSH2 0x299 JUMPI PUSH0 PUSH0 REVERT JUMPDEST DUP2 CALLDATALOAD PUSH1 0x1 PUSH1 0x1 PUSH1 0xA0 SHL SUB DUP2 AND DUP2 EQ PUSH2 0x2AF JUMPI PUSH0 PUSH0 REVERT JUMPDEST SWAP4 SWAP3 POP POP POP JUMP JUMPDEST DUP2 DUP2 SUB DUP2 DUP2 GT ISZERO PUSH2 0x2D5 JUMPI PUSH4 0x4E487B71 PUSH1 0xE0 SHL PUSH0 MSTORE PUSH1 0x11 PUSH1 0x4 MSTORE PUSH1 0x24 PUSH0 REVERT JUMPDEST SWAP3 SWAP2 POP POP JUMP INVALID LOG2 PUSH5 0x6970667358 0x22 SLT KECCAK256 LOG3 0x26 CALLVALUE LT 0xC1 PUSH0 PUSH32 0x2A95B41B22272B6506F2239CB516715BCD888AB168FAFA9F1C64736F6C634300 ADDMOD SAR STOP CALLER "
		},
		"gasEstimates": {
			"creation": {
				"codeDepositCost": "157000",
				"executionCost": "24634",
				"totalCost": "181634"
			},
			"external": {
				"fallback()": "infinite",
				"getAdmin()": "infinite",
				"getImplemenation()": "infinite",
				"upgradeTo(address)": "infinite"
			},
			"internal": {
				"_delegate(address)": "infinite",
				"_getAdmin()": "2227",
				"_getImplemenation()": "2227",
				"_setAdmin(address)": "infinite",
				"_setImplemenation(address)": "infinite"
			}
		},
		"methodIdentifiers": {
			"fallback()": "552079dc",
			"getAdmin()": "6e9960c3",
			"getImplemenation()": "3ce4ac68",
			"upgradeTo(address)": "3659cfe6"
		}
	},
	"abi": [
		{
			"inputs": [],
			"stateMutability": "nonpayable",
			"type": "constructor"
		},
		{
			"inputs": [],
			"name": "fallback",
			"outputs": [],
			"stateMutability": "payable",
			"type": "function"
		},
		{
			"inputs": [],
			"name": "getAdmin",
			"outputs": [
				{
					"internalType": "address",
					"name": "",
					"type": "address"
				}
			],
			"stateMutability": "nonpayable",
			"type": "function"
		},
		{
			"inputs": [],
			"name": "getImplemenation",
			"outputs": [
				{
					"internalType": "address",
					"name": "",
					"type": "address"
				}
			],
			"stateMutability": "nonpayable",
			"type": "function"
		},
		{
			"inputs": [
				{
					"internalType": "address",
					"name": "_implementation",
					"type": "address"
				}
			],
			"name": "upgradeTo",
			"outputs": [],
			"stateMutability": "nonpayable",
			"type": "function"
		},
		{
			"stateMutability": "payable",
			"type": "receive"
		}
	]
}