{
	"five/MostSignificanBit.sol": {
		"MostSignificantBit": {
			"abi": [
				{
					"inputs": [
						{
							"internalType": "uint256",
							"name": "x",
							"type": "uint256"
						}
					],
					"name": "findMostSignificantBit",
					"outputs": [
						{
							"internalType": "uint8",
							"name": "r",
							"type": "uint8"
						}
					],
					"stateMutability": "pure",
					"type": "function"
				}
			],
			"devdoc": {
				"kind": "dev",
				"methods": {},
				"version": 1
			},
			"evm": {
				"assembly": "    /* \"five/MostSignificanBit.sol\":109:2168  contract MostSignificantBit {... */\n  mstore(0x40, 0x80)\n  callvalue\n  dup1\n  iszero\n  tag_1\n  jumpi\n  revert(0x00, 0x00)\ntag_1:\n  pop\n  dataSize(sub_0)\n  dup1\n  dataOffset(sub_0)\n  0x00\n  codecopy\n  0x00\n  return\nstop\n\nsub_0: assembly {\n        /* \"five/MostSignificanBit.sol\":109:2168  contract MostSignificantBit {... */\n      mstore(0x40, 0x80)\n      callvalue\n      dup1\n      iszero\n      tag_1\n      jumpi\n      revert(0x00, 0x00)\n    tag_1:\n      pop\n      jumpi(tag_2, lt(calldatasize, 0x04))\n      shr(0xe0, calldataload(0x00))\n      dup1\n      0x483d868d\n      eq\n      tag_3\n      jumpi\n    tag_2:\n      revert(0x00, 0x00)\n        /* \"five/MostSignificanBit.sol\":167:2163  function findMostSignificantBit(uint x) external pure returns(uint8 r){... */\n    tag_3:\n      tag_4\n      tag_5\n      calldatasize\n      0x04\n      tag_6\n      jump\t// in\n    tag_5:\n      tag_7\n      jump\t// in\n    tag_4:\n      mload(0x40)\n        /* \"#utility.yul\":371:375   */\n      0xff\n        /* \"#utility.yul\":359:376   */\n      swap1\n      swap2\n      and\n        /* \"#utility.yul\":341:377   */\n      dup2\n      mstore\n        /* \"#utility.yul\":329:331   */\n      0x20\n        /* \"#utility.yul\":314:332   */\n      add\n        /* \"five/MostSignificanBit.sol\":167:2163  function findMostSignificantBit(uint x) external pure returns(uint8 r){... */\n      mload(0x40)\n      dup1\n      swap2\n      sub\n      swap1\n      return\n    tag_7:\n        /* \"five/MostSignificanBit.sol\":229:236  uint8 r */\n      0x00\n      shl(0x80, 0x01)\n        /* \"five/MostSignificanBit.sol\":251:252  x */\n      dup3\n        /* \"five/MostSignificanBit.sol\":251:261  x>= 2**128 */\n      lt\n        /* \"five/MostSignificanBit.sol\":248:317  if(x>= 2**128){... */\n      tag_11\n      jumpi\n        /* \"five/MostSignificanBit.sol\":281:284  128 */\n      0x80\n        /* \"five/MostSignificanBit.sol\":277:284  x>>=128 */\n      swap2\n      dup3\n      shr\n      swap2\n        /* \"five/MostSignificanBit.sol\":299:305  r+=128 */\n      tag_12\n      swap1\n      dup3\n      tag_13\n      jump\t// in\n    tag_12:\n      swap1\n      pop\n        /* \"five/MostSignificanBit.sol\":248:317  if(x>= 2**128){... */\n    tag_11:\n        /* \"five/MostSignificanBit.sol\":334:339  2**64 */\n      0x010000000000000000\n        /* \"five/MostSignificanBit.sol\":330:331  x */\n      dup3\n        /* \"five/MostSignificanBit.sol\":330:339  x>= 2**64 */\n      lt\n        /* \"five/MostSignificanBit.sol\":327:393  if(x>= 2**64){... */\n      tag_14\n      jumpi\n        /* \"five/MostSignificanBit.sol\":359:361  64 */\n      0x40\n        /* \"five/MostSignificanBit.sol\":355:361  x>>=64 */\n      swap2\n      dup3\n      shr\n      swap2\n        /* \"five/MostSignificanBit.sol\":376:381  r+=64 */\n      tag_15\n      swap1\n      dup3\n      tag_13\n      jump\t// in\n    tag_15:\n      swap1\n      pop\n        /* \"five/MostSignificanBit.sol\":327:393  if(x>= 2**64){... */\n    tag_14:\n        /* \"five/MostSignificanBit.sol\":410:415  2**32 */\n      0x0100000000\n        /* \"five/MostSignificanBit.sol\":406:407  x */\n      dup3\n        /* \"five/MostSignificanBit.sol\":406:415  x>= 2**32 */\n      lt\n        /* \"five/MostSignificanBit.sol\":403:469  if(x>= 2**32){... */\n      tag_16\n      jumpi\n        /* \"five/MostSignificanBit.sol\":435:437  32 */\n      0x20\n        /* \"five/MostSignificanBit.sol\":431:437  x>>=32 */\n      swap2\n      dup3\n      shr\n      swap2\n        /* \"five/MostSignificanBit.sol\":452:457  r+=32 */\n      tag_17\n      swap1\n      dup3\n      tag_13\n      jump\t// in\n    tag_17:\n      swap1\n      pop\n        /* \"five/MostSignificanBit.sol\":403:469  if(x>= 2**32){... */\n    tag_16:\n        /* \"five/MostSignificanBit.sol\":486:491  2**16 */\n      0x010000\n        /* \"five/MostSignificanBit.sol\":482:483  x */\n      dup3\n        /* \"five/MostSignificanBit.sol\":482:491  x>= 2**16 */\n      lt\n        /* \"five/MostSignificanBit.sol\":479:545  if(x>= 2**16){... */\n      tag_18\n      jumpi\n        /* \"five/MostSignificanBit.sol\":511:513  16 */\n      0x10\n        /* \"five/MostSignificanBit.sol\":507:513  x>>=16 */\n      swap2\n      dup3\n      shr\n      swap2\n        /* \"five/MostSignificanBit.sol\":528:533  r+=16 */\n      tag_19\n      swap1\n      dup3\n      tag_13\n      jump\t// in\n    tag_19:\n      swap1\n      pop\n        /* \"five/MostSignificanBit.sol\":479:545  if(x>= 2**16){... */\n    tag_18:\n        /* \"five/MostSignificanBit.sol\":562:566  2**8 */\n      0x0100\n        /* \"five/MostSignificanBit.sol\":558:559  x */\n      dup3\n        /* \"five/MostSignificanBit.sol\":558:566  x>= 2**8 */\n      lt\n        /* \"five/MostSignificanBit.sol\":555:618  if(x>= 2**8){... */\n      tag_20\n      jumpi\n        /* \"five/MostSignificanBit.sol\":586:587  8 */\n      0x08\n        /* \"five/MostSignificanBit.sol\":582:587  x>>=8 */\n      swap2\n      dup3\n      shr\n      swap2\n        /* \"five/MostSignificanBit.sol\":602:606  r+=8 */\n      tag_21\n      swap1\n      dup3\n      tag_13\n      jump\t// in\n    tag_21:\n      swap1\n      pop\n        /* \"five/MostSignificanBit.sol\":555:618  if(x>= 2**8){... */\n    tag_20:\n        /* \"five/MostSignificanBit.sol\":1004:1007  0xf */\n      0x0f\n        /* \"five/MostSignificanBit.sol\":998:1008  gt(x, 0xf) */\n      dup3\n      gt\n        /* \"five/MostSignificanBit.sol\":995:996  2 */\n      0x02\n        /* \"five/MostSignificanBit.sol\":991:1009  shl(2, gt(x, 0xf)) */\n      shl\n        /* \"five/MostSignificanBit.sol\":1177:1185  or(r, f) */\n      swap1\n      dup2\n      or\n        /* \"five/MostSignificanBit.sol\":1582:1585  0x3 */\n      0x03\n        /* \"five/MostSignificanBit.sol\":1081:1090  shr(f, x) */\n      swap3\n      swap1\n      swap2\n      shr\n        /* \"five/MostSignificanBit.sol\":1576:1586  gt(x, 0x3) */\n      swap2\n      dup3\n      gt\n        /* \"five/MostSignificanBit.sol\":1573:1574  1 */\n      0x01\n        /* \"five/MostSignificanBit.sol\":1569:1587  shl(1, gt(x, 0x3)) */\n      swap1\n      dup2\n      shl\n        /* \"five/MostSignificanBit.sol\":1755:1763  or(r, f) */\n      swap2\n      dup3\n      or\n        /* \"five/MostSignificanBit.sol\":1659:1668  shr(f, x) */\n      swap3\n      swap1\n      swap2\n      shr\n        /* \"five/MostSignificanBit.sol\":2054:2064  gt(x, 0x1) */\n      gt\n        /* \"five/MostSignificanBit.sol\":2136:2145  add(r, f) */\n      add\n      swap1\n        /* \"five/MostSignificanBit.sol\":167:2163  function findMostSignificantBit(uint x) external pure returns(uint8 r){... */\n      jump\t// out\n        /* \"#utility.yul\":14:194   */\n    tag_6:\n        /* \"#utility.yul\":73:79   */\n      0x00\n        /* \"#utility.yul\":126:128   */\n      0x20\n        /* \"#utility.yul\":114:123   */\n      dup3\n        /* \"#utility.yul\":105:112   */\n      dup5\n        /* \"#utility.yul\":101:124   */\n      sub\n        /* \"#utility.yul\":97:129   */\n      slt\n        /* \"#utility.yul\":94:146   */\n      iszero\n      tag_24\n      jumpi\n        /* \"#utility.yul\":142:143   */\n      0x00\n        /* \"#utility.yul\":139:140   */\n      0x00\n        /* \"#utility.yul\":132:144   */\n      revert\n        /* \"#utility.yul\":94:146   */\n    tag_24:\n      pop\n        /* \"#utility.yul\":165:188   */\n      calldataload\n      swap2\n        /* \"#utility.yul\":14:194   */\n      swap1\n      pop\n      jump\t// out\n        /* \"#utility.yul\":388:633   */\n    tag_13:\n        /* \"#utility.yul\":476:480   */\n      0xff\n        /* \"#utility.yul\":455:467   */\n      dup2\n      dup2\n      and\n        /* \"#utility.yul\":469:481   */\n      dup4\n      dup3\n      and\n        /* \"#utility.yul\":451:482   */\n      add\n      swap1\n        /* \"#utility.yul\":494:507   */\n      dup2\n      gt\n        /* \"#utility.yul\":491:627   */\n      iszero\n      tag_27\n      jumpi\n        /* \"#utility.yul\":549:559   */\n      0x4e487b71\n        /* \"#utility.yul\":544:547   */\n      0xe0\n        /* \"#utility.yul\":540:560   */\n      shl\n        /* \"#utility.yul\":537:538   */\n      0x00\n        /* \"#utility.yul\":530:561   */\n      mstore\n        /* \"#utility.yul\":584:588   */\n      0x11\n        /* \"#utility.yul\":581:582   */\n      0x04\n        /* \"#utility.yul\":574:589   */\n      mstore\n        /* \"#utility.yul\":612:616   */\n      0x24\n        /* \"#utility.yul\":609:610   */\n      0x00\n        /* \"#utility.yul\":602:617   */\n      revert\n        /* \"#utility.yul\":491:627   */\n    tag_27:\n        /* \"#utility.yul\":388:633   */\n      swap3\n      swap2\n      pop\n      pop\n      jump\t// out\n\n    auxdata: 0xa26469706673582212209f3519f1e8ea540c59f97c494a6b1e8080100afbe874b3094aa4a03b638def2864736f6c634300081d0033\n}\n",
				"bytecode": {
					"linkReferences": {},
					"object": "6080604052348015600e575f5ffd5b5061018c8061001c5f395ff3fe608060405234801561000f575f5ffd5b5060043610610029575f3560e01c8063483d868d1461002d575b5f5ffd5b61004061003b366004610114565b610056565b60405160ff909116815260200160405180910390f35b5f600160801b821061007557608091821c91610072908261012b565b90505b68010000000000000000821061009857604091821c91610095908261012b565b90505b64010000000082106100b757602091821c916100b4908261012b565b90505b6201000082106100d457601091821c916100d1908261012b565b90505b61010082106100f057600891821c916100ed908261012b565b90505b600f821160021b90811760039290911c918211600190811b9182179290911c110190565b5f60208284031215610124575f5ffd5b5035919050565b60ff818116838216019081111561015057634e487b7160e01b5f52601160045260245ffd5b9291505056fea26469706673582212209f3519f1e8ea540c59f97c494a6b1e8080100afbe874b3094aa4a03b638def2864736f6c634300081d0033",
					"opcodes": "PUSH1 0x80 PUSH1 0x40 MSTORE CALLVALUE DUP1 ISZERO PUSH1 0xE JUMPI PUSH0 PUSH0 REVERT JUMPDEST POP PUSH2 0x18C DUP1 PUSH2 0x1C PUSH0 CODECOPY PUSH0 RETURN INVALID PUSH1 0x80 PUSH1 0x40 MSTORE CALLVALUE DUP1 ISZERO PUSH2 0xF JUMPI PUSH0 PUSH0 REVERT JUMPDEST POP PUSH1 0x4 CALLDATASIZE LT PUSH2 0x29 JUMPI PUSH0 CALLDATALOAD PUSH1 0xE0 SHR DUP1 PUSH4 0x483D868D EQ PUSH2 0x2D JUMPI JUMPDEST PUSH0 PUSH0 REVERT JUMPDEST PUSH2 0x40 PUSH2 0x3B CALLDATASIZE PUSH1 0x4 PUSH2 0x114 JUMP JUMPDEST PUSH2 0x56 JUMP JUMPDEST PUSH1 0x40 MLOAD PUSH1 0xFF SWAP1 SWAP2 AND DUP2 MSTORE PUSH1 0x20 ADD PUSH1 0x40 MLOAD DUP1 SWAP2 SUB SWAP1 RETURN JUMPDEST PUSH0 PUSH1 0x1 PUSH1 0x80 SHL DUP3 LT PUSH2 0x75 JUMPI PUSH1 0x80 SWAP2 DUP3 SHR SWAP2 PUSH2 0x72 SWAP1 DUP3 PUSH2 0x12B JUMP JUMPDEST SWAP1 POP JUMPDEST PUSH9 0x10000000000000000 DUP3 LT PUSH2 0x98 JUMPI PUSH1 0x40 SWAP2 DUP3 SHR SWAP2 PUSH2 0x95 SWAP1 DUP3 PUSH2 0x12B JUMP JUMPDEST SWAP1 POP JUMPDEST PUSH5 0x100000000 DUP3 LT PUSH2 0xB7 JUMPI PUSH1 0x20 SWAP2 DUP3 SHR SWAP2 PUSH2 0xB4 SWAP1 DUP3 PUSH2 0x12B JUMP JUMPDEST SWAP1 POP JUMPDEST PUSH3 0x10000 DUP3 LT PUSH2 0xD4 JUMPI PUSH1 0x10 SWAP2 DUP3 SHR SWAP2 PUSH2 0xD1 SWAP1 DUP3 PUSH2 0x12B JUMP JUMPDEST SWAP1 POP JUMPDEST PUSH2 0x100 DUP3 LT PUSH2 0xF0 JUMPI PUSH1 0x8 SWAP2 DUP3 SHR SWAP2 PUSH2 0xED SWAP1 DUP3 PUSH2 0x12B JUMP JUMPDEST SWAP1 POP JUMPDEST PUSH1 0xF DUP3 GT PUSH1 0x2 SHL SWAP1 DUP2 OR PUSH1 0x3 SWAP3 SWAP1 SWAP2 SHR SWAP2 DUP3 GT PUSH1 0x1 SWAP1 DUP2 SHL SWAP2 DUP3 OR SWAP3 SWAP1 SWAP2 SHR GT ADD SWAP1 JUMP JUMPDEST PUSH0 PUSH1 0x20 DUP3 DUP5 SUB SLT ISZERO PUSH2 0x124 JUMPI PUSH0 PUSH0 REVERT JUMPDEST POP CALLDATALOAD SWAP2 SWAP1 POP JUMP JUMPDEST PUSH1 0xFF DUP2 DUP2 AND DUP4 DUP3 AND ADD SWAP1 DUP2 GT ISZERO PUSH2 0x150 JUMPI PUSH4 0x4E487B71 PUSH1 0xE0 SHL PUSH0 MSTORE PUSH1 0x11 PUSH1 0x4 MSTORE PUSH1 0x24 PUSH0 REVERT JUMPDEST SWAP3 SWAP2 POP POP JUMP INVALID LOG2 PUSH5 0x6970667358 0x22 SLT KECCAK256 SWAP16 CALLDATALOAD NOT CALL 0xE8 0xEA SLOAD 0xC MSIZE EXTDELEGATECALL PUSH29 0x494A6B1E8080100AFBE874B3094AA4A03B638DEF2864736F6C63430008 SAR STOP CALLER "
				},
				"gasEstimates": {
					"creation": {
						"codeDepositCost": "79200",
						"executionCost": "127",
						"totalCost": "79327"
					},
					"external": {
						"findMostSignificantBit(uint256)": "infinite"
					}
				},
				"methodIdentifiers": {
					"findMostSignificantBit(uint256)": "483d868d"
				}
			},
			"storageLayout": {
				"storage": [],
				"types": null
			},
			"userdoc": {
				"kind": "user",
				"methods": {},
				"version": 1
			}
		}
	}
}