{
	"five/AMM.sol": {
		"CSAMM": {
			"abi": [
				{
					"inputs": [
						{
							"internalType": "address",
							"name": "_token0",
							"type": "address"
						},
						{
							"internalType": "address",
							"name": "_token1",
							"type": "address"
						}
					],
					"stateMutability": "nonpayable",
					"type": "constructor"
				},
				{
					"anonymous": false,
					"inputs": [
						{
							"indexed": true,
							"internalType": "address",
							"name": "user",
							"type": "address"
						},
						{
							"indexed": false,
							"internalType": "uint256",
							"name": "amount0",
							"type": "uint256"
						},
						{
							"indexed": false,
							"internalType": "uint256",
							"name": "amount1",
							"type": "uint256"
						}
					],
					"name": "Deposit",
					"type": "event"
				},
				{
					"inputs": [
						{
							"internalType": "uint256",
							"name": "_amount0",
							"type": "uint256"
						},
						{
							"internalType": "uint256",
							"name": "_amount1",
							"type": "uint256"
						}
					],
					"name": "addLiquidity",
					"outputs": [
						{
							"internalType": "uint256",
							"name": "shares",
							"type": "uint256"
						}
					],
					"stateMutability": "nonpayable",
					"type": "function"
				},
				{
					"inputs": [
						{
							"internalType": "address",
							"name": "",
							"type": "address"
						}
					],
					"name": "balanceOf",
					"outputs": [
						{
							"internalType": "uint256",
							"name": "",
							"type": "uint256"
						}
					],
					"stateMutability": "view",
					"type": "function"
				},
				{
					"inputs": [
						{
							"internalType": "uint256",
							"name": "_shares",
							"type": "uint256"
						}
					],
					"name": "removeLiquidity",
					"outputs": [
						{
							"internalType": "uint256",
							"name": "d0",
							"type": "uint256"
						},
						{
							"internalType": "uint256",
							"name": "d1",
							"type": "uint256"
						}
					],
					"stateMutability": "nonpayable",
					"type": "function"
				},
				{
					"inputs": [],
					"name": "reserve0",
					"outputs": [
						{
							"internalType": "uint256",
							"name": "",
							"type": "uint256"
						}
					],
					"stateMutability": "view",
					"type": "function"
				},
				{
					"inputs": [],
					"name": "reserve1",
					"outputs": [
						{
							"internalType": "uint256",
							"name": "",
							"type": "uint256"
						}
					],
					"stateMutability": "view",
					"type": "function"
				},
				{
					"inputs": [
						{
							"internalType": "address",
							"name": "_tokenIn",
							"type": "address"
						},
						{
							"internalType": "uint256",
							"name": "_amountIn",
							"type": "uint256"
						}
					],
					"name": "swap",
					"outputs": [
						{
							"internalType": "uint256",
							"name": "amountOut",
							"type": "uint256"
						}
					],
					"stateMutability": "nonpayable",
					"type": "function"
				},
				{
					"inputs": [],
					"name": "token0",
					"outputs": [
						{
							"internalType": "contract IERC20",
							"name": "",
							"type": "address"
						}
					],
					"stateMutability": "view",
					"type": "function"
				},
				{
					"inputs": [],
					"name": "token1",
					"outputs": [
						{
							"internalType": "contract IERC20",
							"name": "",
							"type": "address"
						}
					],
					"stateMutability": "view",
					"type": "function"
				},
				{
					"inputs": [],
					"name": "totalSupply",
					"outputs": [
						{
							"internalType": "uint256",
							"name": "",
							"type": "uint256"
						}
					],
					"stateMutability": "view",
					"type": "function"
				}
			],
			"devdoc": {
				"kind": "dev",
				"methods": {
					"addLiquidity(uint256,uint256)": {
						"details": "添加流动性",
						"params": {
							"_amount0": "存入的token0数量",
							"_amount1": "存入的token1数量"
						},
						"returns": {
							"shares": "获得的流动性份额"
						}
					},
					"removeLiquidity(uint256)": {
						"details": "移除流动性",
						"params": {
							"_shares": "销毁的份额数量"
						},
						"returns": {
							"d0": "返回的token0数量",
							"d1": "返回的token1数量"
						}
					},
					"swap(address,uint256)": {
						"details": "代币交换函数",
						"params": {
							"_amountIn": "输入数量",
							"_tokenIn": "输入代币地址"
						},
						"returns": {
							"amountOut": "实际输出数量 交换的过程加入入参为 token0 5，则需要"
						}
					}
				},
				"version": 1
			},
			"evm": {
				"assembly": "    /* \"five/AMM.sol\":171:6210  contract CSAMM{... */\n  mstore(0x40, 0xc0)\n    /* \"five/AMM.sol\":564:683  constructor(address _token0, address _token1){... */\n  callvalue\n  dup1\n  iszero\n  tag_1\n  jumpi\n  revert(0x00, 0x00)\ntag_1:\n  pop\n  mload(0x40)\n  sub(codesize, bytecodeSize)\n  dup1\n  bytecodeSize\n  dup4\n  codecopy\n  dup2\n  add\n  0x40\n  dup2\n  swap1\n  mstore\n  tag_2\n  swap2\n  tag_3\n  jump\t// in\ntag_2:\n  sub(shl(0xa0, 0x01), 0x01)\n    /* \"five/AMM.sol\":620:642  token0=IERC20(_token0) */\n  swap2\n  dup3\n  and\n  0x80\n  mstore\n    /* \"five/AMM.sol\":653:675  token1=IERC20(_token1) */\n  and\n  0xa0\n  mstore\n    /* \"five/AMM.sol\":171:6210  contract CSAMM{... */\n  jump(tag_8)\n    /* \"#utility.yul\":14:191   */\ntag_7:\n    /* \"#utility.yul\":93:106   */\n  dup1\n  mload\n  sub(shl(0xa0, 0x01), 0x01)\n    /* \"#utility.yul\":135:166   */\n  dup2\n  and\n    /* \"#utility.yul\":125:167   */\n  dup2\n  eq\n    /* \"#utility.yul\":115:185   */\n  tag_10\n  jumpi\n    /* \"#utility.yul\":181:182   */\n  0x00\n    /* \"#utility.yul\":178:179   */\n  0x00\n    /* \"#utility.yul\":171:183   */\n  revert\n    /* \"#utility.yul\":115:185   */\ntag_10:\n    /* \"#utility.yul\":14:191   */\n  swap2\n  swap1\n  pop\n  jump\t// out\n    /* \"#utility.yul\":196:489   */\ntag_3:\n    /* \"#utility.yul\":275:281   */\n  0x00\n    /* \"#utility.yul\":283:289   */\n  0x00\n    /* \"#utility.yul\":336:338   */\n  0x40\n    /* \"#utility.yul\":324:333   */\n  dup4\n    /* \"#utility.yul\":315:322   */\n  dup6\n    /* \"#utility.yul\":311:334   */\n  sub\n    /* \"#utility.yul\":307:339   */\n  slt\n    /* \"#utility.yul\":304:356   */\n  iszero\n  tag_12\n  jumpi\n    /* \"#utility.yul\":352:353   */\n  0x00\n    /* \"#utility.yul\":349:350   */\n  0x00\n    /* \"#utility.yul\":342:354   */\n  revert\n    /* \"#utility.yul\":304:356   */\ntag_12:\n    /* \"#utility.yul\":375:415   */\n  tag_13\n    /* \"#utility.yul\":405:414   */\n  dup4\n    /* \"#utility.yul\":375:415   */\n  tag_7\n  jump\t// in\ntag_13:\n    /* \"#utility.yul\":365:415   */\n  swap2\n  pop\n    /* \"#utility.yul\":434:483   */\n  tag_14\n    /* \"#utility.yul\":479:481   */\n  0x20\n    /* \"#utility.yul\":468:477   */\n  dup5\n    /* \"#utility.yul\":464:482   */\n  add\n    /* \"#utility.yul\":434:483   */\n  tag_7\n  jump\t// in\ntag_14:\n    /* \"#utility.yul\":424:483   */\n  swap1\n  pop\n    /* \"#utility.yul\":196:489   */\n  swap3\n  pop\n  swap3\n  swap1\n  pop\n  jump\t// out\ntag_8:\n    /* \"five/AMM.sol\":171:6210  contract CSAMM{... */\n  mload(0x80)\n  mload(0xa0)\n  codecopy(0x00, dataOffset(sub_0), dataSize(sub_0))\n  0x00\n  assignImmutable(\"0x03065c56175bab9d6c02682cec557b5c933cd8364ccf2dd44ab76e0c260931e7\")\n  0x00\n  assignImmutable(\"0x588e5ad3f145f9d841773d4229bac23d743ef980914ad5d2b613712259f67f55\")\n  return(0x00, dataSize(sub_0))\nstop\n\nsub_0: assembly {\n        /* \"five/AMM.sol\":171:6210  contract CSAMM{... */\n      mstore(0x40, 0x80)\n      callvalue\n      dup1\n      iszero\n      tag_1\n      jumpi\n      revert(0x00, 0x00)\n    tag_1:\n      pop\n      jumpi(tag_2, lt(calldatasize, 0x04))\n      shr(0xe0, calldataload(0x00))\n      dup1\n      0x70a08231\n      gt\n      tag_12\n      jumpi\n      dup1\n      0x70a08231\n      eq\n      tag_7\n      jumpi\n      dup1\n      0x9c8f9f23\n      eq\n      tag_8\n      jumpi\n      dup1\n      0x9cd441da\n      eq\n      tag_9\n      jumpi\n      dup1\n      0xd004f0f7\n      eq\n      tag_10\n      jumpi\n      dup1\n      0xd21220a7\n      eq\n      tag_11\n      jumpi\n      revert(0x00, 0x00)\n    tag_12:\n      dup1\n      0x0dfe1681\n      eq\n      tag_3\n      jumpi\n      dup1\n      0x18160ddd\n      eq\n      tag_4\n      jumpi\n      dup1\n      0x443cb4bc\n      eq\n      tag_5\n      jumpi\n      dup1\n      0x5a76f25e\n      eq\n      tag_6\n      jumpi\n    tag_2:\n      revert(0x00, 0x00)\n        /* \"five/AMM.sol\":228:258  IERC20 public immutable token0 */\n    tag_3:\n      tag_13\n      immutable(\"0x588e5ad3f145f9d841773d4229bac23d743ef980914ad5d2b613712259f67f55\")\n      dup2\n      jump\n    tag_13:\n      mload(0x40)\n      sub(shl(0xa0, 0x01), 0x01)\n        /* \"#utility.yul\":192:224   */\n      swap1\n      swap2\n      and\n        /* \"#utility.yul\":174:225   */\n      dup2\n      mstore\n        /* \"#utility.yul\":162:164   */\n      0x20\n        /* \"#utility.yul\":147:165   */\n      add\n        /* \"five/AMM.sol\":228:258  IERC20 public immutable token0 */\n    tag_15:\n      mload(0x40)\n      dup1\n      swap2\n      sub\n      swap1\n      return\n        /* \"five/AMM.sol\":455:478  uint public totalSupply */\n    tag_4:\n      tag_17\n      sload(0x02)\n      dup2\n      jump\n    tag_17:\n      mload(0x40)\n        /* \"#utility.yul\":382:407   */\n      swap1\n      dup2\n      mstore\n        /* \"#utility.yul\":370:372   */\n      0x20\n        /* \"#utility.yul\":355:373   */\n      add\n        /* \"five/AMM.sol\":455:478  uint public totalSupply */\n      tag_15\n        /* \"#utility.yul\":236:413   */\n      jump\n        /* \"five/AMM.sol\":374:394  uint public reserve0 */\n    tag_5:\n      tag_17\n      sload(0x00)\n      dup2\n      jump\n        /* \"five/AMM.sol\":401:421  uint public reserve1 */\n    tag_6:\n      tag_17\n      sload(0x01)\n      dup2\n      jump\n        /* \"five/AMM.sol\":514:555  mapping(address => uint) public balanceOf */\n    tag_7:\n      tag_17\n      tag_28\n      calldatasize\n      0x04\n      tag_29\n      jump\t// in\n    tag_28:\n      mstore(0x20, 0x03)\n      0x00\n      swap1\n      dup2\n      mstore\n      0x40\n      swap1\n      keccak256\n      sload\n      dup2\n      jump\n        /* \"five/AMM.sol\":4594:6207  function removeLiquidity(uint _shares) external returns (uint d0,uint d1){... */\n    tag_8:\n      tag_32\n      tag_33\n      calldatasize\n      0x04\n      tag_34\n      jump\t// in\n    tag_33:\n      tag_35\n      jump\t// in\n    tag_32:\n      0x40\n      dup1\n      mload\n        /* \"#utility.yul\":1192:1217   */\n      swap3\n      dup4\n      mstore\n        /* \"#utility.yul\":1248:1250   */\n      0x20\n        /* \"#utility.yul\":1233:1251   */\n      dup4\n      add\n        /* \"#utility.yul\":1226:1260   */\n      swap2\n      swap1\n      swap2\n      mstore\n        /* \"#utility.yul\":1165:1183   */\n      add\n        /* \"five/AMM.sol\":4594:6207  function removeLiquidity(uint _shares) external returns (uint d0,uint d1){... */\n      tag_15\n        /* \"#utility.yul\":1018:1266   */\n      jump\n        /* \"five/AMM.sol\":3045:4408  function addLiquidity(uint _amount0,uint _amount1) external returns(uint shares) {... */\n    tag_9:\n      tag_17\n      tag_39\n      calldatasize\n      0x04\n      tag_40\n      jump\t// in\n    tag_39:\n      tag_41\n      jump\t// in\n        /* \"five/AMM.sol\":1849:2852  function swap(address _tokenIn,uint _amountIn) external... */\n    tag_10:\n      tag_17\n      tag_44\n      calldatasize\n      0x04\n      tag_45\n      jump\t// in\n    tag_44:\n      tag_46\n      jump\t// in\n        /* \"five/AMM.sol\":265:295  IERC20 public immutable token1 */\n    tag_11:\n      tag_13\n      immutable(\"0x03065c56175bab9d6c02682cec557b5c933cd8364ccf2dd44ab76e0c260931e7\")\n      dup2\n      jump\n        /* \"five/AMM.sol\":4594:6207  function removeLiquidity(uint _shares) external returns (uint d0,uint d1){... */\n    tag_35:\n        /* \"five/AMM.sol\":4651:4658  uint d0 */\n      0x00\n        /* \"five/AMM.sol\":4659:4666  uint d1 */\n      0x00\n        /* \"five/AMM.sol\":5783:5794  totalSupply */\n      sload(0x02)\n        /* \"five/AMM.sol\":5772:5779  _shares */\n      dup4\n        /* \"five/AMM.sol\":5761:5769  reserve0 */\n      sload(0x00)\n        /* \"five/AMM.sol\":5761:5779  reserve0 * _shares */\n      tag_52\n      swap2\n      swap1\n      tag_53\n      jump\t// in\n    tag_52:\n        /* \"five/AMM.sol\":5760:5794  (reserve0 * _shares) / totalSupply */\n      tag_54\n      swap2\n      swap1\n      tag_55\n      jump\t// in\n    tag_54:\n        /* \"five/AMM.sol\":5756:5794  d0= (reserve0 * _shares) / totalSupply */\n      swap2\n      pop\n        /* \"five/AMM.sol\":5832:5843  totalSupply */\n      sload(0x02)\n        /* \"five/AMM.sol\":5821:5828  _shares */\n      dup4\n        /* \"five/AMM.sol\":5810:5818  reserve1 */\n      sload(0x01)\n        /* \"five/AMM.sol\":5810:5828  reserve1 * _shares */\n      tag_56\n      swap2\n      swap1\n      tag_53\n      jump\t// in\n    tag_56:\n        /* \"five/AMM.sol\":5809:5843  (reserve1 * _shares) / totalSupply */\n      tag_57\n      swap2\n      swap1\n      tag_55\n      jump\t// in\n    tag_57:\n        /* \"five/AMM.sol\":5805:5843  d1= (reserve1 * _shares) / totalSupply */\n      swap1\n      pop\n        /* \"five/AMM.sol\":5856:5882  _burn(msg.sender, _shares) */\n      tag_58\n        /* \"five/AMM.sol\":5862:5872  msg.sender */\n      caller\n        /* \"five/AMM.sol\":5874:5881  _shares */\n      dup5\n        /* \"five/AMM.sol\":5856:5861  _burn */\n      tag_59\n        /* \"five/AMM.sol\":5856:5882  _burn(msg.sender, _shares) */\n      jump\t// in\n    tag_58:\n        /* \"five/AMM.sol\":5995:6028  _update(reserve0-d0,reserve1 -d1) */\n      tag_60\n        /* \"five/AMM.sol\":6012:6014  d0 */\n      dup3\n        /* \"five/AMM.sol\":6003:6011  reserve0 */\n      sload(0x00)\n        /* \"five/AMM.sol\":6003:6014  reserve0-d0 */\n      tag_61\n      swap2\n      swap1\n      tag_62\n      jump\t// in\n    tag_61:\n        /* \"five/AMM.sol\":6025:6027  d1 */\n      dup3\n        /* \"five/AMM.sol\":6015:6023  reserve1 */\n      sload(0x01)\n        /* \"five/AMM.sol\":6015:6027  reserve1 -d1 */\n      tag_63\n      swap2\n      swap1\n      tag_62\n      jump\t// in\n    tag_63:\n        /* \"five/AMM.sol\":1440:1448  reserve0 */\n      0x00\n        /* \"five/AMM.sol\":1440:1456  reserve0 = _res0 */\n      swap2\n      swap1\n      swap2\n      sstore\n        /* \"five/AMM.sol\":1467:1475  reserve1 */\n      0x01\n        /* \"five/AMM.sol\":1467:1481  reserve1=_res1 */\n      sstore\n        /* \"five/AMM.sol\":1381:1489  function _update(uint _res0,uint _res1)private  {... */\n      jump\n        /* \"five/AMM.sol\":5995:6028  _update(reserve0-d0,reserve1 -d1) */\n    tag_60:\n        /* \"five/AMM.sol\":6045:6050  d0 >0 */\n      dup2\n      iszero\n        /* \"five/AMM.sol\":6041:6110  if (d0 >0) {... */\n      tag_65\n      jumpi\n        /* \"five/AMM.sol\":6067:6098  token0.transfer(msg.sender, d0) */\n      mload(0x40)\n      shl(0xe0, 0xa9059cbb)\n      dup2\n      mstore\n        /* \"five/AMM.sol\":6083:6093  msg.sender */\n      caller\n        /* \"five/AMM.sol\":6067:6098  token0.transfer(msg.sender, d0) */\n      0x04\n      dup3\n      add\n        /* \"#utility.yul\":2761:2812   */\n      mstore\n        /* \"#utility.yul\":2828:2846   */\n      0x24\n      dup2\n      add\n        /* \"#utility.yul\":2821:2855   */\n      dup4\n      swap1\n      mstore\n        /* \"five/AMM.sol\":6067:6073  token0 */\n      immutable(\"0x588e5ad3f145f9d841773d4229bac23d743ef980914ad5d2b613712259f67f55\")\n      sub(shl(0xa0, 0x01), 0x01)\n        /* \"five/AMM.sol\":6067:6082  token0.transfer */\n      and\n      swap1\n      0xa9059cbb\n      swap1\n        /* \"#utility.yul\":2734:2752   */\n      0x44\n      add\n        /* \"five/AMM.sol\":6067:6098  token0.transfer(msg.sender, d0) */\n      0x20\n      mload(0x40)\n      dup1\n      dup4\n      sub\n      dup2\n      0x00\n      dup8\n      gas\n      call\n      iszero\n      dup1\n      iszero\n      tag_69\n      jumpi\n      returndatacopy(0x00, 0x00, returndatasize)\n      revert(0x00, returndatasize)\n    tag_69:\n      pop\n      pop\n      pop\n      pop\n      mload(0x40)\n      returndatasize\n      not(0x1f)\n      0x1f\n      dup3\n      add\n      and\n      dup3\n      add\n      dup1\n      0x40\n      mstore\n      pop\n      dup2\n      add\n      swap1\n      tag_70\n      swap2\n      swap1\n      tag_71\n      jump\t// in\n    tag_70:\n      pop\n        /* \"five/AMM.sol\":6041:6110  if (d0 >0) {... */\n    tag_65:\n        /* \"five/AMM.sol\":6135:6141  d1 > 0 */\n      dup1\n      iszero\n        /* \"five/AMM.sol\":6131:6200  if (d1 > 0){... */\n      tag_72\n      jumpi\n        /* \"five/AMM.sol\":6157:6188  token1.transfer(msg.sender, d1) */\n      mload(0x40)\n      shl(0xe0, 0xa9059cbb)\n      dup2\n      mstore\n        /* \"five/AMM.sol\":6173:6183  msg.sender */\n      caller\n        /* \"five/AMM.sol\":6157:6188  token1.transfer(msg.sender, d1) */\n      0x04\n      dup3\n      add\n        /* \"#utility.yul\":2761:2812   */\n      mstore\n        /* \"#utility.yul\":2828:2846   */\n      0x24\n      dup2\n      add\n        /* \"#utility.yul\":2821:2855   */\n      dup3\n      swap1\n      mstore\n        /* \"five/AMM.sol\":6157:6163  token1 */\n      immutable(\"0x03065c56175bab9d6c02682cec557b5c933cd8364ccf2dd44ab76e0c260931e7\")\n      sub(shl(0xa0, 0x01), 0x01)\n        /* \"five/AMM.sol\":6157:6172  token1.transfer */\n      and\n      swap1\n      0xa9059cbb\n      swap1\n        /* \"#utility.yul\":2734:2752   */\n      0x44\n      add\n        /* \"five/AMM.sol\":6157:6188  token1.transfer(msg.sender, d1) */\n      0x20\n      mload(0x40)\n      dup1\n      dup4\n      sub\n      dup2\n      0x00\n      dup8\n      gas\n      call\n      iszero\n      dup1\n      iszero\n      tag_75\n      jumpi\n      returndatacopy(0x00, 0x00, returndatasize)\n      revert(0x00, returndatasize)\n    tag_75:\n      pop\n      pop\n      pop\n      pop\n      mload(0x40)\n      returndatasize\n      not(0x1f)\n      0x1f\n      dup3\n      add\n      and\n      dup3\n      add\n      dup1\n      0x40\n      mstore\n      pop\n      dup2\n      add\n      swap1\n      tag_76\n      swap2\n      swap1\n      tag_71\n      jump\t// in\n    tag_76:\n      pop\n        /* \"five/AMM.sol\":6131:6200  if (d1 > 0){... */\n    tag_72:\n        /* \"five/AMM.sol\":4594:6207  function removeLiquidity(uint _shares) external returns (uint d0,uint d1){... */\n      swap2\n      pop\n      swap2\n      jump\t// out\n        /* \"five/AMM.sol\":3045:4408  function addLiquidity(uint _amount0,uint _amount1) external returns(uint shares) {... */\n    tag_41:\n        /* \"five/AMM.sol\":3187:3243  token0.transferFrom(msg.sender, address(this), _amount0) */\n      mload(0x40)\n      shl(0xe0, 0x23b872dd)\n      dup2\n      mstore\n        /* \"five/AMM.sol\":3207:3217  msg.sender */\n      caller\n        /* \"five/AMM.sol\":3187:3243  token0.transferFrom(msg.sender, address(this), _amount0) */\n      0x04\n      dup3\n      add\n        /* \"#utility.yul\":3350:3401   */\n      mstore\n        /* \"five/AMM.sol\":3227:3231  this */\n      address\n        /* \"#utility.yul\":3417:3435   */\n      0x24\n      dup3\n      add\n        /* \"#utility.yul\":3410:3470   */\n      mstore\n        /* \"#utility.yul\":3486:3504   */\n      0x44\n      dup2\n      add\n        /* \"#utility.yul\":3479:3513   */\n      dup4\n      swap1\n      mstore\n        /* \"five/AMM.sol\":3113:3124  uint shares */\n      0x00\n      swap1\n        /* \"five/AMM.sol\":3187:3193  token0 */\n      immutable(\"0x588e5ad3f145f9d841773d4229bac23d743ef980914ad5d2b613712259f67f55\")\n      sub(shl(0xa0, 0x01), 0x01)\n        /* \"five/AMM.sol\":3187:3206  token0.transferFrom */\n      and\n      swap1\n      0x23b872dd\n      swap1\n        /* \"#utility.yul\":3323:3341   */\n      0x64\n      add\n        /* \"five/AMM.sol\":3187:3243  token0.transferFrom(msg.sender, address(this), _amount0) */\n      0x20\n      mload(0x40)\n      dup1\n      dup4\n      sub\n      dup2\n      0x00\n      dup8\n      gas\n      call\n      iszero\n      dup1\n      iszero\n      tag_81\n      jumpi\n      returndatacopy(0x00, 0x00, returndatasize)\n      revert(0x00, returndatasize)\n    tag_81:\n      pop\n      pop\n      pop\n      pop\n      mload(0x40)\n      returndatasize\n      not(0x1f)\n      0x1f\n      dup3\n      add\n      and\n      dup3\n      add\n      dup1\n      0x40\n      mstore\n      pop\n      dup2\n      add\n      swap1\n      tag_82\n      swap2\n      swap1\n      tag_71\n      jump\t// in\n    tag_82:\n      pop\n        /* \"five/AMM.sol\":3254:3310  token1.transferFrom(msg.sender, address(this), _amount1) */\n      mload(0x40)\n      shl(0xe0, 0x23b872dd)\n      dup2\n      mstore\n        /* \"five/AMM.sol\":3274:3284  msg.sender */\n      caller\n        /* \"five/AMM.sol\":3254:3310  token1.transferFrom(msg.sender, address(this), _amount1) */\n      0x04\n      dup3\n      add\n        /* \"#utility.yul\":3350:3401   */\n      mstore\n        /* \"five/AMM.sol\":3294:3298  this */\n      address\n        /* \"#utility.yul\":3417:3435   */\n      0x24\n      dup3\n      add\n        /* \"#utility.yul\":3410:3470   */\n      mstore\n        /* \"#utility.yul\":3486:3504   */\n      0x44\n      dup2\n      add\n        /* \"#utility.yul\":3479:3513   */\n      dup4\n      swap1\n      mstore\n        /* \"five/AMM.sol\":3254:3260  token1 */\n      immutable(\"0x03065c56175bab9d6c02682cec557b5c933cd8364ccf2dd44ab76e0c260931e7\")\n      sub(shl(0xa0, 0x01), 0x01)\n        /* \"five/AMM.sol\":3254:3273  token1.transferFrom */\n      and\n      swap1\n      0x23b872dd\n      swap1\n        /* \"#utility.yul\":3323:3341   */\n      0x64\n      add\n        /* \"five/AMM.sol\":3254:3310  token1.transferFrom(msg.sender, address(this), _amount1) */\n      0x20\n      mload(0x40)\n      dup1\n      dup4\n      sub\n      dup2\n      0x00\n      dup8\n      gas\n      call\n      iszero\n      dup1\n      iszero\n      tag_85\n      jumpi\n      returndatacopy(0x00, 0x00, returndatasize)\n      revert(0x00, returndatasize)\n    tag_85:\n      pop\n      pop\n      pop\n      pop\n      mload(0x40)\n      returndatasize\n      not(0x1f)\n      0x1f\n      dup3\n      add\n      and\n      dup3\n      add\n      dup1\n      0x40\n      mstore\n      pop\n      dup2\n      add\n      swap1\n      tag_86\n      swap2\n      swap1\n      tag_71\n      jump\t// in\n    tag_86:\n      pop\n        /* \"five/AMM.sol\":3359:3390  token0.balanceOf(address(this)) */\n      mload(0x40)\n      shl(0xe0, 0x70a08231)\n      dup2\n      mstore\n        /* \"five/AMM.sol\":3384:3388  this */\n      address\n        /* \"five/AMM.sol\":3359:3390  token0.balanceOf(address(this)) */\n      0x04\n      dup3\n      add\n        /* \"#utility.yul\":174:225   */\n      mstore\n        /* \"five/AMM.sol\":3348:3357  uint bal0 */\n      0x00\n      swap1\n        /* \"five/AMM.sol\":3359:3365  token0 */\n      immutable(\"0x588e5ad3f145f9d841773d4229bac23d743ef980914ad5d2b613712259f67f55\")\n      sub(shl(0xa0, 0x01), 0x01)\n        /* \"five/AMM.sol\":3359:3375  token0.balanceOf */\n      and\n      swap1\n      0x70a08231\n      swap1\n        /* \"#utility.yul\":147:165   */\n      0x24\n      add\n        /* \"five/AMM.sol\":3359:3390  token0.balanceOf(address(this)) */\n      0x20\n      mload(0x40)\n      dup1\n      dup4\n      sub\n      dup2\n      dup7\n      gas\n      staticcall\n      iszero\n      dup1\n      iszero\n      tag_90\n      jumpi\n      returndatacopy(0x00, 0x00, returndatasize)\n      revert(0x00, returndatasize)\n    tag_90:\n      pop\n      pop\n      pop\n      pop\n      mload(0x40)\n      returndatasize\n      not(0x1f)\n      0x1f\n      dup3\n      add\n      and\n      dup3\n      add\n      dup1\n      0x40\n      mstore\n      pop\n      dup2\n      add\n      swap1\n      tag_91\n      swap2\n      swap1\n      tag_92\n      jump\t// in\n    tag_91:\n        /* \"five/AMM.sol\":3439:3470  token1.balanceOf(address(this)) */\n      mload(0x40)\n      shl(0xe0, 0x70a08231)\n      dup2\n      mstore\n        /* \"five/AMM.sol\":3464:3468  this */\n      address\n        /* \"five/AMM.sol\":3439:3470  token1.balanceOf(address(this)) */\n      0x04\n      dup3\n      add\n        /* \"#utility.yul\":174:225   */\n      mstore\n        /* \"five/AMM.sol\":3348:3390  uint bal0= token0.balanceOf(address(this)) */\n      swap1\n      swap2\n      pop\n        /* \"five/AMM.sol\":3428:3437  uint bal1 */\n      0x00\n      swap1\n      sub(shl(0xa0, 0x01), 0x01)\n        /* \"five/AMM.sol\":3439:3445  token1 */\n      immutable(\"0x03065c56175bab9d6c02682cec557b5c933cd8364ccf2dd44ab76e0c260931e7\")\n        /* \"five/AMM.sol\":3439:3455  token1.balanceOf */\n      and\n      swap1\n      0x70a08231\n      swap1\n        /* \"#utility.yul\":147:165   */\n      0x24\n      add\n        /* \"five/AMM.sol\":3439:3470  token1.balanceOf(address(this)) */\n      0x20\n      mload(0x40)\n      dup1\n      dup4\n      sub\n      dup2\n      dup7\n      gas\n      staticcall\n      iszero\n      dup1\n      iszero\n      tag_95\n      jumpi\n      returndatacopy(0x00, 0x00, returndatasize)\n      revert(0x00, returndatasize)\n    tag_95:\n      pop\n      pop\n      pop\n      pop\n      mload(0x40)\n      returndatasize\n      not(0x1f)\n      0x1f\n      dup3\n      add\n      and\n      dup3\n      add\n      dup1\n      0x40\n      mstore\n      pop\n      dup2\n      add\n      swap1\n      tag_96\n      swap2\n      swap1\n      tag_92\n      jump\t// in\n    tag_96:\n        /* \"five/AMM.sol\":3428:3470  uint bal1= token1.balanceOf(address(this)) */\n      swap1\n      pop\n        /* \"five/AMM.sol\":3483:3490  uint d0 */\n      0x00\n        /* \"five/AMM.sol\":3499:3507  reserve0 */\n      sload(0x00)\n        /* \"five/AMM.sol\":3492:3496  bal0 */\n      dup4\n        /* \"five/AMM.sol\":3492:3507  bal0 - reserve0 */\n      tag_97\n      swap2\n      swap1\n      tag_62\n      jump\t// in\n    tag_97:\n        /* \"five/AMM.sol\":3483:3507  uint d0= bal0 - reserve0 */\n      swap1\n      pop\n        /* \"five/AMM.sol\":3518:3525  uint d1 */\n      0x00\n        /* \"five/AMM.sol\":3533:3541  reserve1 */\n      sload(0x01)\n        /* \"five/AMM.sol\":3527:3531  bal1 */\n      dup4\n        /* \"five/AMM.sol\":3527:3541  bal1 -reserve1 */\n      tag_98\n      swap2\n      swap1\n      tag_62\n      jump\t// in\n    tag_98:\n        /* \"five/AMM.sol\":3518:3541  uint d1= bal1 -reserve1 */\n      swap1\n      pop\n        /* \"five/AMM.sol\":4103:4114  totalSupply */\n      sload(0x02)\n        /* \"five/AMM.sol\":4116:4117  0 */\n      0x00\n        /* \"five/AMM.sol\":4103:4117  totalSupply==0 */\n      sub\n        /* \"five/AMM.sol\":4100:4287  if(totalSupply==0){... */\n      tag_99\n      jumpi\n        /* \"five/AMM.sol\":4186:4193  d0 + d1 */\n      tag_100\n        /* \"five/AMM.sol\":4191:4193  d1 */\n      dup2\n        /* \"five/AMM.sol\":4186:4188  d0 */\n      dup4\n        /* \"five/AMM.sol\":4186:4193  d0 + d1 */\n      tag_101\n      jump\t// in\n    tag_100:\n        /* \"five/AMM.sol\":4177:4193  shares = d0 + d1 */\n      swap5\n      pop\n        /* \"five/AMM.sol\":4100:4287  if(totalSupply==0){... */\n      jump(tag_102)\n    tag_99:\n        /* \"five/AMM.sol\":4266:4274  reserve1 */\n      sload(0x01)\n        /* \"five/AMM.sol\":4257:4265  reserve0 */\n      sload(0x00)\n        /* \"five/AMM.sol\":4257:4274  reserve0+reserve1 */\n      tag_103\n      swap2\n      swap1\n      tag_101\n      jump\t// in\n    tag_103:\n        /* \"five/AMM.sol\":4243:4254  totalSupply */\n      sload(0x02)\n        /* \"five/AMM.sol\":4236:4241  d0+d1 */\n      tag_104\n        /* \"five/AMM.sol\":4239:4241  d1 */\n      dup4\n        /* \"five/AMM.sol\":4236:4238  d0 */\n      dup6\n        /* \"five/AMM.sol\":4236:4241  d0+d1 */\n      tag_101\n      jump\t// in\n    tag_104:\n        /* \"five/AMM.sol\":4235:4254  (d0+d1)*totalSupply */\n      tag_105\n      swap2\n      swap1\n      tag_53\n      jump\t// in\n    tag_105:\n        /* \"five/AMM.sol\":4234:4275  ((d0+d1)*totalSupply)/(reserve0+reserve1) */\n      tag_106\n      swap2\n      swap1\n      tag_55\n      jump\t// in\n    tag_106:\n        /* \"five/AMM.sol\":4225:4275  shares = ((d0+d1)*totalSupply)/(reserve0+reserve1) */\n      swap5\n      pop\n        /* \"five/AMM.sol\":4100:4287  if(totalSupply==0){... */\n    tag_102:\n        /* \"five/AMM.sol\":4315:4316  0 */\n      0x00\n        /* \"five/AMM.sol\":4307:4313  shares */\n      dup6\n        /* \"five/AMM.sol\":4307:4316  shares >0 */\n      gt\n        /* \"five/AMM.sol\":4299:4330  require(shares >0,\"shares = 0\") */\n      tag_107\n      jumpi\n      mload(0x40)\n      shl(0xe5, 0x461bcd)\n      dup2\n      mstore\n        /* \"#utility.yul\":4253:4255   */\n      0x20\n        /* \"five/AMM.sol\":4299:4330  require(shares >0,\"shares = 0\") */\n      0x04\n      dup3\n      add\n        /* \"#utility.yul\":4235:4256   */\n      mstore\n        /* \"#utility.yul\":4292:4294   */\n      0x0a\n        /* \"#utility.yul\":4272:4290   */\n      0x24\n      dup3\n      add\n        /* \"#utility.yul\":4265:4295   */\n      mstore\n      shl(0xb4, 0x0736861726573203d203)\n        /* \"#utility.yul\":4311:4329   */\n      0x44\n      dup3\n      add\n        /* \"#utility.yul\":4304:4344   */\n      mstore\n        /* \"#utility.yul\":4361:4379   */\n      0x64\n      add\n        /* \"five/AMM.sol\":4299:4330  require(shares >0,\"shares = 0\") */\n    tag_108:\n      mload(0x40)\n      dup1\n      swap2\n      sub\n      swap1\n      revert\n    tag_107:\n        /* \"five/AMM.sol\":4341:4366  _mint(msg.sender, shares) */\n      tag_110\n        /* \"five/AMM.sol\":4347:4357  msg.sender */\n      caller\n        /* \"five/AMM.sol\":4359:4365  shares */\n      dup7\n        /* \"five/AMM.sol\":4341:4346  _mint */\n      tag_111\n        /* \"five/AMM.sol\":4341:4366  _mint(msg.sender, shares) */\n      jump\t// in\n    tag_110:\n      pop\n      pop\n        /* \"five/AMM.sol\":1440:1448  reserve0 */\n      0x00\n        /* \"five/AMM.sol\":1440:1456  reserve0 = _res0 */\n      swap2\n      swap1\n      swap2\n      sstore\n        /* \"five/AMM.sol\":1467:1475  reserve1 */\n      0x01\n        /* \"five/AMM.sol\":1467:1481  reserve1=_res1 */\n      sstore\n        /* \"five/AMM.sol\":3045:4408  function addLiquidity(uint _amount0,uint _amount1) external returns(uint shares) {... */\n      swap3\n      swap2\n      pop\n      pop\n      jump\t// out\n        /* \"five/AMM.sol\":1849:2852  function swap(address _tokenIn,uint _amountIn) external... */\n    tag_46:\n        /* \"five/AMM.sol\":1919:1933  uint amountOut */\n      0x00\n        /* \"five/AMM.sol\":1991:1997  token0 */\n      immutable(\"0x588e5ad3f145f9d841773d4229bac23d743ef980914ad5d2b613712259f67f55\")\n      sub(shl(0xa0, 0x01), 0x01)\n        /* \"five/AMM.sol\":1973:1998  _tokenIn==address(token0) */\n      and\n        /* \"five/AMM.sol\":1973:1981  _tokenIn */\n      dup4\n      sub(shl(0xa0, 0x01), 0x01)\n        /* \"five/AMM.sol\":1973:1998  _tokenIn==address(token0) */\n      and\n      eq\n        /* \"five/AMM.sol\":1973:2025  _tokenIn==address(token0)||_tokenIn==address(token1) */\n      dup1\n      tag_114\n      jumpi\n      pop\n        /* \"five/AMM.sol\":2018:2024  token1 */\n      immutable(\"0x03065c56175bab9d6c02682cec557b5c933cd8364ccf2dd44ab76e0c260931e7\")\n      sub(shl(0xa0, 0x01), 0x01)\n        /* \"five/AMM.sol\":2000:2025  _tokenIn==address(token1) */\n      and\n        /* \"five/AMM.sol\":2000:2008  _tokenIn */\n      dup4\n      sub(shl(0xa0, 0x01), 0x01)\n        /* \"five/AMM.sol\":2000:2025  _tokenIn==address(token1) */\n      and\n      eq\n        /* \"five/AMM.sol\":1973:2025  _tokenIn==address(token0)||_tokenIn==address(token1) */\n    tag_114:\n        /* \"five/AMM.sol\":1951:2066  require(... */\n      tag_115\n      jumpi\n      mload(0x40)\n      shl(0xe5, 0x461bcd)\n      dup2\n      mstore\n        /* \"#utility.yul\":4592:4594   */\n      0x20\n        /* \"five/AMM.sol\":1951:2066  require(... */\n      0x04\n      dup3\n      add\n        /* \"#utility.yul\":4574:4595   */\n      mstore\n        /* \"#utility.yul\":4631:4633   */\n      0x0d\n        /* \"#utility.yul\":4611:4629   */\n      0x24\n      dup3\n      add\n        /* \"#utility.yul\":4604:4634   */\n      mstore\n      shl(0x99, 0x34b73b30b634b2103a37b5b2b7)\n        /* \"#utility.yul\":4650:4668   */\n      0x44\n      dup3\n      add\n        /* \"#utility.yul\":4643:4686   */\n      mstore\n        /* \"#utility.yul\":4703:4721   */\n      0x64\n      add\n        /* \"five/AMM.sol\":1951:2066  require(... */\n      tag_108\n        /* \"#utility.yul\":4390:4727   */\n      jump\n        /* \"five/AMM.sol\":1951:2066  require(... */\n    tag_115:\n        /* \"five/AMM.sol\":2079:2092  bool isToken0 */\n      0x00\n        /* \"five/AMM.sol\":2111:2117  token0 */\n      immutable(\"0x588e5ad3f145f9d841773d4229bac23d743ef980914ad5d2b613712259f67f55\")\n      sub(shl(0xa0, 0x01), 0x01)\n        /* \"five/AMM.sol\":2093:2118  _tokenIn==address(token0) */\n      and\n        /* \"five/AMM.sol\":2093:2101  _tokenIn */\n      dup5\n      sub(shl(0xa0, 0x01), 0x01)\n        /* \"five/AMM.sol\":2093:2118  _tokenIn==address(token0) */\n      and\n      eq\n        /* \"five/AMM.sol\":2079:2118  bool isToken0=_tokenIn==address(token0) */\n      swap1\n      pop\n        /* \"five/AMM.sol\":2132:2146  IERC20 tokenIn */\n      0x00\n        /* \"five/AMM.sol\":2147:2162  IERC20 tokenOut */\n      0x00\n        /* \"five/AMM.sol\":2163:2173  uint resIn */\n      0x00\n        /* \"five/AMM.sol\":2174:2185  uint resOut */\n      0x00\n        /* \"five/AMM.sol\":2189:2197  isToken0 */\n      dup5\n        /* \"five/AMM.sol\":2189:2267  isToken0 ? (token0,token1,reserve0,reserve1):(token1,token0,reserve1,reserve0) */\n      tag_118\n      jumpi\n        /* \"five/AMM.sol\":2235:2241  token1 */\n      immutable(\"0x03065c56175bab9d6c02682cec557b5c933cd8364ccf2dd44ab76e0c260931e7\")\n        /* \"five/AMM.sol\":2242:2248  token0 */\n      immutable(\"0x588e5ad3f145f9d841773d4229bac23d743ef980914ad5d2b613712259f67f55\")\n        /* \"five/AMM.sol\":2249:2257  reserve1 */\n      sload(0x01)\n        /* \"five/AMM.sol\":2258:2266  reserve0 */\n      sload(0x00)\n        /* \"five/AMM.sol\":2189:2267  isToken0 ? (token0,token1,reserve0,reserve1):(token1,token0,reserve1,reserve0) */\n      jump(tag_119)\n    tag_118:\n        /* \"five/AMM.sol\":2201:2207  token0 */\n      immutable(\"0x588e5ad3f145f9d841773d4229bac23d743ef980914ad5d2b613712259f67f55\")\n        /* \"five/AMM.sol\":2208:2214  token1 */\n      immutable(\"0x03065c56175bab9d6c02682cec557b5c933cd8364ccf2dd44ab76e0c260931e7\")\n        /* \"five/AMM.sol\":2215:2223  reserve0 */\n      sload(0x00)\n        /* \"five/AMM.sol\":2224:2232  reserve1 */\n      sload(0x01)\n        /* \"five/AMM.sol\":2189:2267  isToken0 ? (token0,token1,reserve0,reserve1):(token1,token0,reserve1,reserve0) */\n    tag_119:\n        /* \"five/AMM.sol\":2337:2395  tokenIn.transferFrom(msg.sender, address(this), _amountIn) */\n      mload(0x40)\n      shl(0xe0, 0x23b872dd)\n      dup2\n      mstore\n        /* \"five/AMM.sol\":2358:2368  msg.sender */\n      caller\n        /* \"five/AMM.sol\":2337:2395  tokenIn.transferFrom(msg.sender, address(this), _amountIn) */\n      0x04\n      dup3\n      add\n        /* \"#utility.yul\":3350:3401   */\n      mstore\n        /* \"five/AMM.sol\":2378:2382  this */\n      address\n        /* \"#utility.yul\":3417:3435   */\n      0x24\n      dup3\n      add\n        /* \"#utility.yul\":3410:3470   */\n      mstore\n        /* \"#utility.yul\":3486:3504   */\n      0x44\n      dup2\n      add\n        /* \"#utility.yul\":3479:3513   */\n      dup13\n      swap1\n      mstore\n        /* \"five/AMM.sol\":2131:2267  (IERC20 tokenIn,IERC20 tokenOut,uint resIn,uint resOut) = isToken0 ? (token0,token1,reserve0,reserve1):(token1,token0,reserve1,reserve0) */\n      swap4\n      swap8\n      pop\n      swap2\n      swap6\n      pop\n      swap4\n      pop\n      swap2\n      pop\n      sub(shl(0xa0, 0x01), 0x01)\n        /* \"five/AMM.sol\":2337:2357  tokenIn.transferFrom */\n      dup6\n      and\n      swap1\n      0x23b872dd\n      swap1\n        /* \"#utility.yul\":3323:3341   */\n      0x64\n      add\n        /* \"five/AMM.sol\":2337:2395  tokenIn.transferFrom(msg.sender, address(this), _amountIn) */\n      0x20\n      mload(0x40)\n      dup1\n      dup4\n      sub\n      dup2\n      0x00\n      dup8\n      gas\n      call\n      iszero\n      dup1\n      iszero\n      tag_122\n      jumpi\n      returndatacopy(0x00, 0x00, returndatasize)\n      revert(0x00, returndatasize)\n    tag_122:\n      pop\n      pop\n      pop\n      pop\n      mload(0x40)\n      returndatasize\n      not(0x1f)\n      0x1f\n      dup3\n      add\n      and\n      dup3\n      add\n      dup1\n      0x40\n      mstore\n      pop\n      dup2\n      add\n      swap1\n      tag_123\n      swap2\n      swap1\n      tag_71\n      jump\t// in\n    tag_123:\n      pop\n        /* \"five/AMM.sol\":2420:2452  tokenIn.balanceOf(address(this)) */\n      mload(0x40)\n      shl(0xe0, 0x70a08231)\n      dup2\n      mstore\n        /* \"five/AMM.sol\":2446:2450  this */\n      address\n        /* \"five/AMM.sol\":2420:2452  tokenIn.balanceOf(address(this)) */\n      0x04\n      dup3\n      add\n        /* \"#utility.yul\":174:225   */\n      mstore\n        /* \"five/AMM.sol\":2406:2419  uint amountIn */\n      0x00\n      swap1\n        /* \"five/AMM.sol\":2455:2460  resIn */\n      dup4\n      swap1\n      sub(shl(0xa0, 0x01), 0x01)\n        /* \"five/AMM.sol\":2420:2437  tokenIn.balanceOf */\n      dup8\n      and\n      swap1\n      0x70a08231\n      swap1\n        /* \"#utility.yul\":147:165   */\n      0x24\n      add\n        /* \"five/AMM.sol\":2420:2452  tokenIn.balanceOf(address(this)) */\n      0x20\n      mload(0x40)\n      dup1\n      dup4\n      sub\n      dup2\n      dup7\n      gas\n      staticcall\n      iszero\n      dup1\n      iszero\n      tag_126\n      jumpi\n      returndatacopy(0x00, 0x00, returndatasize)\n      revert(0x00, returndatasize)\n    tag_126:\n      pop\n      pop\n      pop\n      pop\n      mload(0x40)\n      returndatasize\n      not(0x1f)\n      0x1f\n      dup3\n      add\n      and\n      dup3\n      add\n      dup1\n      0x40\n      mstore\n      pop\n      dup2\n      add\n      swap1\n      tag_127\n      swap2\n      swap1\n      tag_92\n      jump\t// in\n    tag_127:\n        /* \"five/AMM.sol\":2420:2460  tokenIn.balanceOf(address(this)) - resIn */\n      tag_128\n      swap2\n      swap1\n      tag_62\n      jump\t// in\n    tag_128:\n        /* \"five/AMM.sol\":2406:2460  uint amountIn=tokenIn.balanceOf(address(this)) - resIn */\n      swap1\n      pop\n        /* \"five/AMM.sol\":2571:2575  1000 */\n      0x03e8\n        /* \"five/AMM.sol\":2555:2569  amountIn * 997 */\n      tag_129\n        /* \"five/AMM.sol\":2406:2460  uint amountIn=tokenIn.balanceOf(address(this)) - resIn */\n      dup3\n        /* \"five/AMM.sol\":2566:2569  997 */\n      0x03e5\n        /* \"five/AMM.sol\":2555:2569  amountIn * 997 */\n      tag_53\n      jump\t// in\n    tag_129:\n        /* \"five/AMM.sol\":2554:2575  (amountIn * 997)/1000 */\n      tag_130\n      swap2\n      swap1\n      tag_55\n      jump\t// in\n    tag_130:\n        /* \"five/AMM.sol\":2542:2575  amountOut = (amountIn * 997)/1000 */\n      swap7\n      pop\n        /* \"five/AMM.sol\":2629:2638  uint res0 */\n      0x00\n        /* \"five/AMM.sol\":2639:2648  uint res1 */\n      0x00\n        /* \"five/AMM.sol\":2652:2660  isToken0 */\n      dup8\n        /* \"five/AMM.sol\":2652:2734  isToken0 ? (resIn-_amountIn, resOut+amountOut):(resOut+amountOut, resIn-_amountIn) */\n      tag_131\n      jumpi\n        /* \"five/AMM.sol\":2700:2716  resOut+amountOut */\n      tag_132\n        /* \"five/AMM.sol\":2707:2716  amountOut */\n      dup10\n        /* \"five/AMM.sol\":2700:2706  resOut */\n      dup6\n        /* \"five/AMM.sol\":2700:2716  resOut+amountOut */\n      tag_101\n      jump\t// in\n    tag_132:\n        /* \"five/AMM.sol\":2718:2733  resIn-_amountIn */\n      tag_133\n        /* \"five/AMM.sol\":2724:2733  _amountIn */\n      dup12\n        /* \"five/AMM.sol\":2718:2723  resIn */\n      dup8\n        /* \"five/AMM.sol\":2718:2733  resIn-_amountIn */\n      tag_62\n      jump\t// in\n    tag_133:\n        /* \"five/AMM.sol\":2652:2734  isToken0 ? (resIn-_amountIn, resOut+amountOut):(resOut+amountOut, resIn-_amountIn) */\n      jump(tag_136)\n    tag_131:\n        /* \"five/AMM.sol\":2664:2679  resIn-_amountIn */\n      tag_135\n        /* \"five/AMM.sol\":2670:2679  _amountIn */\n      dup11\n        /* \"five/AMM.sol\":2664:2669  resIn */\n      dup7\n        /* \"five/AMM.sol\":2664:2679  resIn-_amountIn */\n      tag_62\n      jump\t// in\n    tag_135:\n        /* \"five/AMM.sol\":2681:2697  resOut+amountOut */\n      tag_136\n        /* \"five/AMM.sol\":2688:2697  amountOut */\n      dup11\n        /* \"five/AMM.sol\":2681:2687  resOut */\n      dup7\n        /* \"five/AMM.sol\":2681:2697  resOut+amountOut */\n      tag_101\n      jump\t// in\n    tag_136:\n        /* \"five/AMM.sol\":2628:2734  (uint res0,uint res1) = isToken0 ? (resIn-_amountIn, resOut+amountOut):(resOut+amountOut, resIn-_amountIn) */\n      swap2\n      pop\n      swap2\n      pop\n        /* \"five/AMM.sol\":2745:2764  _update(res0, res1) */\n      tag_137\n        /* \"five/AMM.sol\":2753:2757  res0 */\n      dup3\n        /* \"five/AMM.sol\":2759:2763  res1 */\n      dup3\n        /* \"five/AMM.sol\":1440:1448  reserve0 */\n      0x00\n        /* \"five/AMM.sol\":1440:1456  reserve0 = _res0 */\n      swap2\n      swap1\n      swap2\n      sstore\n        /* \"five/AMM.sol\":1467:1475  reserve1 */\n      0x01\n        /* \"five/AMM.sol\":1467:1481  reserve1=_res1 */\n      sstore\n        /* \"five/AMM.sol\":1381:1489  function _update(uint _res0,uint _res1)private  {... */\n      jump\n        /* \"five/AMM.sol\":2745:2764  _update(res0, res1) */\n    tag_137:\n        /* \"five/AMM.sol\":2805:2844  tokenOut.transfer(msg.sender,amountOut) */\n      mload(0x40)\n      shl(0xe0, 0xa9059cbb)\n      dup2\n      mstore\n        /* \"five/AMM.sol\":2823:2833  msg.sender */\n      caller\n        /* \"five/AMM.sol\":2805:2844  tokenOut.transfer(msg.sender,amountOut) */\n      0x04\n      dup3\n      add\n        /* \"#utility.yul\":2761:2812   */\n      mstore\n        /* \"#utility.yul\":2828:2846   */\n      0x24\n      dup2\n      add\n        /* \"#utility.yul\":2821:2855   */\n      dup11\n      swap1\n      mstore\n      sub(shl(0xa0, 0x01), 0x01)\n        /* \"five/AMM.sol\":2805:2822  tokenOut.transfer */\n      dup8\n      and\n      swap1\n      0xa9059cbb\n      swap1\n        /* \"#utility.yul\":2734:2752   */\n      0x44\n      add\n        /* \"five/AMM.sol\":2805:2844  tokenOut.transfer(msg.sender,amountOut) */\n      0x20\n      mload(0x40)\n      dup1\n      dup4\n      sub\n      dup2\n      0x00\n      dup8\n      gas\n      call\n      iszero\n      dup1\n      iszero\n      tag_140\n      jumpi\n      returndatacopy(0x00, 0x00, returndatasize)\n      revert(0x00, returndatasize)\n    tag_140:\n      pop\n      pop\n      pop\n      pop\n      mload(0x40)\n      returndatasize\n      not(0x1f)\n      0x1f\n      dup3\n      add\n      and\n      dup3\n      add\n      dup1\n      0x40\n      mstore\n      pop\n      dup2\n      add\n      swap1\n      tag_141\n      swap2\n      swap1\n      tag_71\n      jump\t// in\n    tag_141:\n      pop\n        /* \"five/AMM.sol\":1940:2852  {... */\n      pop\n      pop\n      pop\n      pop\n      pop\n      pop\n      pop\n      pop\n        /* \"five/AMM.sol\":1849:2852  function swap(address _tokenIn,uint _amountIn) external... */\n      swap3\n      swap2\n      pop\n      pop\n      jump\t// out\n        /* \"five/AMM.sol\":1102:1228  function _burn(address _from,uint _amount)private{... */\n    tag_59:\n      sub(shl(0xa0, 0x01), 0x01)\n        /* \"five/AMM.sol\":1162:1178  balanceOf[_from] */\n      dup3\n      and\n      0x00\n      swap1\n      dup2\n      mstore\n        /* \"five/AMM.sol\":1162:1171  balanceOf */\n      0x03\n        /* \"five/AMM.sol\":1162:1178  balanceOf[_from] */\n      0x20\n      mstore\n      0x40\n      dup2\n      keccak256\n        /* \"five/AMM.sol\":1162:1189  balanceOf[_from] -= _amount */\n      dup1\n      sload\n        /* \"five/AMM.sol\":1182:1189  _amount */\n      dup4\n      swap3\n        /* \"five/AMM.sol\":1162:1178  balanceOf[_from] */\n      swap1\n        /* \"five/AMM.sol\":1162:1189  balanceOf[_from] -= _amount */\n      tag_143\n      swap1\n        /* \"five/AMM.sol\":1182:1189  _amount */\n      dup5\n      swap1\n        /* \"five/AMM.sol\":1162:1189  balanceOf[_from] -= _amount */\n      tag_62\n      jump\t// in\n    tag_143:\n      swap3\n      pop\n      pop\n      dup2\n      swap1\n      sstore\n      pop\n        /* \"five/AMM.sol\":1213:1220  _amount */\n      dup1\n        /* \"five/AMM.sol\":1200:1211  totalSupply */\n      0x02\n      0x00\n        /* \"five/AMM.sol\":1200:1220  totalSupply-=_amount */\n      dup3\n      dup3\n      sload\n      tag_144\n      swap2\n      swap1\n      tag_62\n      jump\t// in\n    tag_144:\n      swap1\n      swap2\n      sstore\n      pop\n      pop\n      pop\n      pop\n        /* \"five/AMM.sol\":1102:1228  function _burn(address _from,uint _amount)private{... */\n      jump\t// out\n        /* \"five/AMM.sol\":830:953  function _mint(address _to,uint _amount)private  {... */\n    tag_111:\n      sub(shl(0xa0, 0x01), 0x01)\n        /* \"five/AMM.sol\":890:904  balanceOf[_to] */\n      dup3\n      and\n      0x00\n      swap1\n      dup2\n      mstore\n        /* \"five/AMM.sol\":890:899  balanceOf */\n      0x03\n        /* \"five/AMM.sol\":890:904  balanceOf[_to] */\n      0x20\n      mstore\n      0x40\n      dup2\n      keccak256\n        /* \"five/AMM.sol\":890:914  balanceOf[_to] +=_amount */\n      dup1\n      sload\n        /* \"five/AMM.sol\":907:914  _amount */\n      dup4\n      swap3\n        /* \"five/AMM.sol\":890:904  balanceOf[_to] */\n      swap1\n        /* \"five/AMM.sol\":890:914  balanceOf[_to] +=_amount */\n      tag_147\n      swap1\n        /* \"five/AMM.sol\":907:914  _amount */\n      dup5\n      swap1\n        /* \"five/AMM.sol\":890:914  balanceOf[_to] +=_amount */\n      tag_101\n      jump\t// in\n    tag_147:\n      swap3\n      pop\n      pop\n      dup2\n      swap1\n      sstore\n      pop\n        /* \"five/AMM.sol\":938:945  _amount */\n      dup1\n        /* \"five/AMM.sol\":925:936  totalSupply */\n      0x02\n      0x00\n        /* \"five/AMM.sol\":925:945  totalSupply+=_amount */\n      dup3\n      dup3\n      sload\n      tag_144\n      swap2\n      swap1\n      tag_101\n      jump\t// in\n        /* \"#utility.yul\":418:591   */\n    tag_149:\n        /* \"#utility.yul\":486:506   */\n      dup1\n      calldataload\n      sub(shl(0xa0, 0x01), 0x01)\n        /* \"#utility.yul\":535:566   */\n      dup2\n      and\n        /* \"#utility.yul\":525:567   */\n      dup2\n      eq\n        /* \"#utility.yul\":515:585   */\n      tag_155\n      jumpi\n        /* \"#utility.yul\":581:582   */\n      0x00\n        /* \"#utility.yul\":578:579   */\n      0x00\n        /* \"#utility.yul\":571:583   */\n      revert\n        /* \"#utility.yul\":515:585   */\n    tag_155:\n        /* \"#utility.yul\":418:591   */\n      swap2\n      swap1\n      pop\n      jump\t// out\n        /* \"#utility.yul\":596:782   */\n    tag_29:\n        /* \"#utility.yul\":655:661   */\n      0x00\n        /* \"#utility.yul\":708:710   */\n      0x20\n        /* \"#utility.yul\":696:705   */\n      dup3\n        /* \"#utility.yul\":687:694   */\n      dup5\n        /* \"#utility.yul\":683:706   */\n      sub\n        /* \"#utility.yul\":679:711   */\n      slt\n        /* \"#utility.yul\":676:728   */\n      iszero\n      tag_157\n      jumpi\n        /* \"#utility.yul\":724:725   */\n      0x00\n        /* \"#utility.yul\":721:722   */\n      0x00\n        /* \"#utility.yul\":714:726   */\n      revert\n        /* \"#utility.yul\":676:728   */\n    tag_157:\n        /* \"#utility.yul\":747:776   */\n      tag_158\n        /* \"#utility.yul\":766:775   */\n      dup3\n        /* \"#utility.yul\":747:776   */\n      tag_149\n      jump\t// in\n    tag_158:\n        /* \"#utility.yul\":737:776   */\n      swap4\n        /* \"#utility.yul\":596:782   */\n      swap3\n      pop\n      pop\n      pop\n      jump\t// out\n        /* \"#utility.yul\":787:1013   */\n    tag_34:\n        /* \"#utility.yul\":846:852   */\n      0x00\n        /* \"#utility.yul\":899:901   */\n      0x20\n        /* \"#utility.yul\":887:896   */\n      dup3\n        /* \"#utility.yul\":878:885   */\n      dup5\n        /* \"#utility.yul\":874:897   */\n      sub\n        /* \"#utility.yul\":870:902   */\n      slt\n        /* \"#utility.yul\":867:919   */\n      iszero\n      tag_160\n      jumpi\n        /* \"#utility.yul\":915:916   */\n      0x00\n        /* \"#utility.yul\":912:913   */\n      0x00\n        /* \"#utility.yul\":905:917   */\n      revert\n        /* \"#utility.yul\":867:919   */\n    tag_160:\n      pop\n        /* \"#utility.yul\":960:983   */\n      calldataload\n      swap2\n        /* \"#utility.yul\":787:1013   */\n      swap1\n      pop\n      jump\t// out\n        /* \"#utility.yul\":1271:1617   */\n    tag_40:\n        /* \"#utility.yul\":1339:1345   */\n      0x00\n        /* \"#utility.yul\":1347:1353   */\n      0x00\n        /* \"#utility.yul\":1400:1402   */\n      0x40\n        /* \"#utility.yul\":1388:1397   */\n      dup4\n        /* \"#utility.yul\":1379:1386   */\n      dup6\n        /* \"#utility.yul\":1375:1398   */\n      sub\n        /* \"#utility.yul\":1371:1403   */\n      slt\n        /* \"#utility.yul\":1368:1420   */\n      iszero\n      tag_163\n      jumpi\n        /* \"#utility.yul\":1416:1417   */\n      0x00\n        /* \"#utility.yul\":1413:1414   */\n      0x00\n        /* \"#utility.yul\":1406:1418   */\n      revert\n        /* \"#utility.yul\":1368:1420   */\n    tag_163:\n      pop\n      pop\n        /* \"#utility.yul\":1461:1484   */\n      dup1\n      calldataload\n      swap3\n        /* \"#utility.yul\":1581:1583   */\n      0x20\n        /* \"#utility.yul\":1566:1584   */\n      swap1\n      swap2\n      add\n        /* \"#utility.yul\":1553:1585   */\n      calldataload\n      swap2\n      pop\n        /* \"#utility.yul\":1271:1617   */\n      jump\t// out\n        /* \"#utility.yul\":1622:1922   */\n    tag_45:\n        /* \"#utility.yul\":1690:1696   */\n      0x00\n        /* \"#utility.yul\":1698:1704   */\n      0x00\n        /* \"#utility.yul\":1751:1753   */\n      0x40\n        /* \"#utility.yul\":1739:1748   */\n      dup4\n        /* \"#utility.yul\":1730:1737   */\n      dup6\n        /* \"#utility.yul\":1726:1749   */\n      sub\n        /* \"#utility.yul\":1722:1754   */\n      slt\n        /* \"#utility.yul\":1719:1771   */\n      iszero\n      tag_165\n      jumpi\n        /* \"#utility.yul\":1767:1768   */\n      0x00\n        /* \"#utility.yul\":1764:1765   */\n      0x00\n        /* \"#utility.yul\":1757:1769   */\n      revert\n        /* \"#utility.yul\":1719:1771   */\n    tag_165:\n        /* \"#utility.yul\":1790:1819   */\n      tag_166\n        /* \"#utility.yul\":1809:1818   */\n      dup4\n        /* \"#utility.yul\":1790:1819   */\n      tag_149\n      jump\t// in\n    tag_166:\n        /* \"#utility.yul\":1780:1819   */\n      swap5\n        /* \"#utility.yul\":1888:1890   */\n      0x20\n        /* \"#utility.yul\":1873:1891   */\n      swap4\n      swap1\n      swap4\n      add\n        /* \"#utility.yul\":1860:1892   */\n      calldataload\n      swap4\n      pop\n      pop\n      pop\n        /* \"#utility.yul\":1622:1922   */\n      jump\t// out\n        /* \"#utility.yul\":1927:2054   */\n    tag_150:\n        /* \"#utility.yul\":1988:1998   */\n      0x4e487b71\n        /* \"#utility.yul\":1983:1986   */\n      0xe0\n        /* \"#utility.yul\":1979:1999   */\n      shl\n        /* \"#utility.yul\":1976:1977   */\n      0x00\n        /* \"#utility.yul\":1969:2000   */\n      mstore\n        /* \"#utility.yul\":2019:2023   */\n      0x11\n        /* \"#utility.yul\":2016:2017   */\n      0x04\n        /* \"#utility.yul\":2009:2024   */\n      mstore\n        /* \"#utility.yul\":2043:2047   */\n      0x24\n        /* \"#utility.yul\":2040:2041   */\n      0x00\n        /* \"#utility.yul\":2033:2048   */\n      revert\n        /* \"#utility.yul\":2059:2227   */\n    tag_53:\n        /* \"#utility.yul\":2132:2141   */\n      dup1\n      dup3\n      mul\n        /* \"#utility.yul\":2163:2172   */\n      dup2\n      iszero\n        /* \"#utility.yul\":2180:2195   */\n      dup3\n      dup3\n      div\n        /* \"#utility.yul\":2174:2196   */\n      dup5\n      eq\n        /* \"#utility.yul\":2160:2197   */\n      or\n        /* \"#utility.yul\":2150:2221   */\n      tag_170\n      jumpi\n        /* \"#utility.yul\":2201:2219   */\n      tag_170\n      tag_150\n      jump\t// in\n    tag_170:\n        /* \"#utility.yul\":2059:2227   */\n      swap3\n      swap2\n      pop\n      pop\n      jump\t// out\n        /* \"#utility.yul\":2232:2449   */\n    tag_55:\n        /* \"#utility.yul\":2272:2273   */\n      0x00\n        /* \"#utility.yul\":2298:2299   */\n      dup3\n        /* \"#utility.yul\":2288:2420   */\n      tag_172\n      jumpi\n        /* \"#utility.yul\":2342:2352   */\n      0x4e487b71\n        /* \"#utility.yul\":2337:2340   */\n      0xe0\n        /* \"#utility.yul\":2333:2353   */\n      shl\n        /* \"#utility.yul\":2330:2331   */\n      0x00\n        /* \"#utility.yul\":2323:2354   */\n      mstore\n        /* \"#utility.yul\":2377:2381   */\n      0x12\n        /* \"#utility.yul\":2374:2375   */\n      0x04\n        /* \"#utility.yul\":2367:2382   */\n      mstore\n        /* \"#utility.yul\":2405:2409   */\n      0x24\n        /* \"#utility.yul\":2402:2403   */\n      0x00\n        /* \"#utility.yul\":2395:2410   */\n      revert\n        /* \"#utility.yul\":2288:2420   */\n    tag_172:\n      pop\n        /* \"#utility.yul\":2434:2443   */\n      div\n      swap1\n        /* \"#utility.yul\":2232:2449   */\n      jump\t// out\n        /* \"#utility.yul\":2454:2582   */\n    tag_62:\n        /* \"#utility.yul\":2521:2530   */\n      dup2\n      dup2\n      sub\n        /* \"#utility.yul\":2542:2553   */\n      dup2\n      dup2\n      gt\n        /* \"#utility.yul\":2539:2576   */\n      iszero\n      tag_170\n      jumpi\n        /* \"#utility.yul\":2556:2574   */\n      tag_170\n      tag_150\n      jump\t// in\n        /* \"#utility.yul\":2866:3143   */\n    tag_71:\n        /* \"#utility.yul\":2933:2939   */\n      0x00\n        /* \"#utility.yul\":2986:2988   */\n      0x20\n        /* \"#utility.yul\":2974:2983   */\n      dup3\n        /* \"#utility.yul\":2965:2972   */\n      dup5\n        /* \"#utility.yul\":2961:2984   */\n      sub\n        /* \"#utility.yul\":2957:2989   */\n      slt\n        /* \"#utility.yul\":2954:3006   */\n      iszero\n      tag_178\n      jumpi\n        /* \"#utility.yul\":3002:3003   */\n      0x00\n        /* \"#utility.yul\":2999:3000   */\n      0x00\n        /* \"#utility.yul\":2992:3004   */\n      revert\n        /* \"#utility.yul\":2954:3006   */\n    tag_178:\n        /* \"#utility.yul\":3034:3043   */\n      dup2\n        /* \"#utility.yul\":3028:3044   */\n      mload\n        /* \"#utility.yul\":3087:3092   */\n      dup1\n        /* \"#utility.yul\":3080:3093   */\n      iszero\n        /* \"#utility.yul\":3073:3094   */\n      iszero\n        /* \"#utility.yul\":3066:3071   */\n      dup2\n        /* \"#utility.yul\":3063:3095   */\n      eq\n        /* \"#utility.yul\":3053:3113   */\n      tag_158\n      jumpi\n        /* \"#utility.yul\":3109:3110   */\n      0x00\n        /* \"#utility.yul\":3106:3107   */\n      0x00\n        /* \"#utility.yul\":3099:3111   */\n      revert\n        /* \"#utility.yul\":3732:3916   */\n    tag_92:\n        /* \"#utility.yul\":3802:3808   */\n      0x00\n        /* \"#utility.yul\":3855:3857   */\n      0x20\n        /* \"#utility.yul\":3843:3852   */\n      dup3\n        /* \"#utility.yul\":3834:3841   */\n      dup5\n        /* \"#utility.yul\":3830:3853   */\n      sub\n        /* \"#utility.yul\":3826:3858   */\n      slt\n        /* \"#utility.yul\":3823:3875   */\n      iszero\n      tag_183\n      jumpi\n        /* \"#utility.yul\":3871:3872   */\n      0x00\n        /* \"#utility.yul\":3868:3869   */\n      0x00\n        /* \"#utility.yul\":3861:3873   */\n      revert\n        /* \"#utility.yul\":3823:3875   */\n    tag_183:\n      pop\n        /* \"#utility.yul\":3894:3910   */\n      mload\n      swap2\n        /* \"#utility.yul\":3732:3916   */\n      swap1\n      pop\n      jump\t// out\n        /* \"#utility.yul\":3921:4046   */\n    tag_101:\n        /* \"#utility.yul\":3986:3995   */\n      dup1\n      dup3\n      add\n        /* \"#utility.yul\":4007:4017   */\n      dup1\n      dup3\n      gt\n        /* \"#utility.yul\":4004:4040   */\n      iszero\n      tag_170\n      jumpi\n        /* \"#utility.yul\":4020:4038   */\n      tag_170\n      tag_150\n      jump\t// in\n\n    auxdata: 0xa2646970667358221220d9e2643ca2d4af6436439087687031332c9a07c8b86e74b534a4e1473c802b1664736f6c634300081d0033\n}\n",
				"bytecode": {
					"linkReferences": {},
					"object": "60c060405234801561000f575f5ffd5b50604051610ca2380380610ca283398101604081905261002e91610060565b6001600160a01b039182166080521660a052610091565b80516001600160a01b038116811461005b575f5ffd5b919050565b5f5f60408385031215610071575f5ffd5b61007a83610045565b915061008860208401610045565b90509250929050565b60805160a051610b9661010c5f395f8181610172015281816102b9015281816103eb015281816105080152818161067a0152818161072d015261079a01525f818160990152818161022301528181610356015281816104750152818161063f015281816106ed0152818161074e01526107790152610b965ff3fe608060405234801561000f575f5ffd5b5060043610610090575f3560e01c806370a082311161006357806370a08231146101005780639c8f9f231461011f5780639cd441da14610147578063d004f0f71461015a578063d21220a71461016d575f5ffd5b80630dfe16811461009457806318160ddd146100d8578063443cb4bc146100ef5780635a76f25e146100f7575b5f5ffd5b6100bb7f000000000000000000000000000000000000000000000000000000000000000081565b6040516001600160a01b0390911681526020015b60405180910390f35b6100e160025481565b6040519081526020016100cf565b6100e15f5481565b6100e160015481565b6100e161010e366004610a35565b60036020525f908152604090205481565b61013261012d366004610a55565b610194565b604080519283526020830191909152016100cf565b6100e1610155366004610a6c565b610332565b6100e1610168366004610a8c565b61063c565b6100bb7f000000000000000000000000000000000000000000000000000000000000000081565b5f5f600254835f546101a69190610ac8565b6101b09190610ae5565b9150600254836001546101c39190610ac8565b6101cd9190610ae5565b90506101d93384610993565b610201825f546101e99190610b04565b826001546101f79190610b04565b5f91909155600155565b81156102975760405163a9059cbb60e01b8152336004820152602481018390527f00000000000000000000000000000000000000000000000000000000000000006001600160a01b03169063a9059cbb906044016020604051808303815f875af1158015610271573d5f5f3e3d5ffd5b505050506040513d601f19601f820116820180604052508101906102959190610b17565b505b801561032d5760405163a9059cbb60e01b8152336004820152602481018290527f00000000000000000000000000000000000000000000000000000000000000006001600160a01b03169063a9059cbb906044016020604051808303815f875af1158015610307573d5f5f3e3d5ffd5b505050506040513d601f19601f8201168201806040525081019061032b9190610b17565b505b915091565b6040516323b872dd60e01b8152336004820152306024820152604481018390525f907f00000000000000000000000000000000000000000000000000000000000000006001600160a01b0316906323b872dd906064016020604051808303815f875af11580156103a4573d5f5f3e3d5ffd5b505050506040513d601f19601f820116820180604052508101906103c89190610b17565b506040516323b872dd60e01b8152336004820152306024820152604481018390527f00000000000000000000000000000000000000000000000000000000000000006001600160a01b0316906323b872dd906064016020604051808303815f875af1158015610439573d5f5f3e3d5ffd5b505050506040513d601f19601f8201168201806040525081019061045d9190610b17565b506040516370a0823160e01b81523060048201525f907f00000000000000000000000000000000000000000000000000000000000000006001600160a01b0316906370a0823190602401602060405180830381865afa1580156104c2573d5f5f3e3d5ffd5b505050506040513d601f19601f820116820180604052508101906104e69190610b36565b6040516370a0823160e01b81523060048201529091505f906001600160a01b037f000000000000000000000000000000000000000000000000000000000000000016906370a0823190602401602060405180830381865afa15801561054d573d5f5f3e3d5ffd5b505050506040513d601f19601f820116820180604052508101906105719190610b36565b90505f5f54836105819190610b04565b90505f600154836105929190610b04565b90506002545f036105ae576105a78183610b4d565b94506105e1565b6001545f546105bd9190610b4d565b6002546105ca8385610b4d565b6105d49190610ac8565b6105de9190610ae5565b94505b5f85116106225760405162461bcd60e51b815260206004820152600a6024820152690736861726573203d20360b41b60448201526064015b60405180910390fd5b61062c33866109db565b50505f9190915560015592915050565b5f7f00000000000000000000000000000000000000000000000000000000000000006001600160a01b0316836001600160a01b031614806106ae57507f00000000000000000000000000000000000000000000000000000000000000006001600160a01b0316836001600160a01b0316145b6106ea5760405162461bcd60e51b815260206004820152600d60248201526c34b73b30b634b2103a37b5b2b760991b6044820152606401610619565b5f7f00000000000000000000000000000000000000000000000000000000000000006001600160a01b0316846001600160a01b03161490505f5f5f5f84610777577f00000000000000000000000000000000000000000000000000000000000000007f00000000000000000000000000000000000000000000000000000000000000006001545f546107bf565b7f00000000000000000000000000000000000000000000000000000000000000007f00000000000000000000000000000000000000000000000000000000000000005f546001545b6040516323b872dd60e01b8152336004820152306024820152604481018c9052939750919550935091506001600160a01b038516906323b872dd906064016020604051808303815f875af1158015610819573d5f5f3e3d5ffd5b505050506040513d601f19601f8201168201806040525081019061083d9190610b17565b506040516370a0823160e01b81523060048201525f9083906001600160a01b038716906370a0823190602401602060405180830381865afa158015610884573d5f5f3e3d5ffd5b505050506040513d601f19601f820116820180604052508101906108a89190610b36565b6108b29190610b04565b90506103e86108c3826103e5610ac8565b6108cd9190610ae5565b96505f5f876108ef576108e08985610b4d565b6108ea8b87610b04565b610903565b6108f98a86610b04565b6109038a86610b4d565b9150915061091682825f91909155600155565b60405163a9059cbb60e01b8152336004820152602481018a90526001600160a01b0387169063a9059cbb906044016020604051808303815f875af1158015610960573d5f5f3e3d5ffd5b505050506040513d601f19601f820116820180604052508101906109849190610b17565b50505050505050505092915050565b6001600160a01b0382165f90815260036020526040812080548392906109ba908490610b04565b925050819055508060025f8282546109d29190610b04565b90915550505050565b6001600160a01b0382165f9081526003602052604081208054839290610a02908490610b4d565b925050819055508060025f8282546109d29190610b4d565b80356001600160a01b0381168114610a30575f5ffd5b919050565b5f60208284031215610a45575f5ffd5b610a4e82610a1a565b9392505050565b5f60208284031215610a65575f5ffd5b5035919050565b5f5f60408385031215610a7d575f5ffd5b50508035926020909101359150565b5f5f60408385031215610a9d575f5ffd5b610aa683610a1a565b946020939093013593505050565b634e487b7160e01b5f52601160045260245ffd5b8082028115828204841417610adf57610adf610ab4565b92915050565b5f82610aff57634e487b7160e01b5f52601260045260245ffd5b500490565b81810381811115610adf57610adf610ab4565b5f60208284031215610b27575f5ffd5b81518015158114610a4e575f5ffd5b5f60208284031215610b46575f5ffd5b5051919050565b80820180821115610adf57610adf610ab456fea2646970667358221220d9e2643ca2d4af6436439087687031332c9a07c8b86e74b534a4e1473c802b1664736f6c634300081d0033",
					"opcodes": "PUSH1 0xC0 PUSH1 0x40 MSTORE CALLVALUE DUP1 ISZERO PUSH2 0xF JUMPI PUSH0 PUSH0 REVERT JUMPDEST POP PUSH1 0x40 MLOAD PUSH2 0xCA2 CODESIZE SUB DUP1 PUSH2 0xCA2 DUP4 CODECOPY DUP2 ADD PUSH1 0x40 DUP2 SWAP1 MSTORE PUSH2 0x2E SWAP2 PUSH2 0x60 JUMP JUMPDEST PUSH1 0x1 PUSH1 0x1 PUSH1 0xA0 SHL SUB SWAP2 DUP3 AND PUSH1 0x80 MSTORE AND PUSH1 0xA0 MSTORE PUSH2 0x91 JUMP JUMPDEST DUP1 MLOAD PUSH1 0x1 PUSH1 0x1 PUSH1 0xA0 SHL SUB DUP2 AND DUP2 EQ PUSH2 0x5B JUMPI PUSH0 PUSH0 REVERT JUMPDEST SWAP2 SWAP1 POP JUMP JUMPDEST PUSH0 PUSH0 PUSH1 0x40 DUP4 DUP6 SUB SLT ISZERO PUSH2 0x71 JUMPI PUSH0 PUSH0 REVERT JUMPDEST PUSH2 0x7A DUP4 PUSH2 0x45 JUMP JUMPDEST SWAP2 POP PUSH2 0x88 PUSH1 0x20 DUP5 ADD PUSH2 0x45 JUMP JUMPDEST SWAP1 POP SWAP3 POP SWAP3 SWAP1 POP JUMP JUMPDEST PUSH1 0x80 MLOAD PUSH1 0xA0 MLOAD PUSH2 0xB96 PUSH2 0x10C PUSH0 CODECOPY PUSH0 DUP2 DUP2 PUSH2 0x172 ADD MSTORE DUP2 DUP2 PUSH2 0x2B9 ADD MSTORE DUP2 DUP2 PUSH2 0x3EB ADD MSTORE DUP2 DUP2 PUSH2 0x508 ADD MSTORE DUP2 DUP2 PUSH2 0x67A ADD MSTORE DUP2 DUP2 PUSH2 0x72D ADD MSTORE PUSH2 0x79A ADD MSTORE PUSH0 DUP2 DUP2 PUSH1 0x99 ADD MSTORE DUP2 DUP2 PUSH2 0x223 ADD MSTORE DUP2 DUP2 PUSH2 0x356 ADD MSTORE DUP2 DUP2 PUSH2 0x475 ADD MSTORE DUP2 DUP2 PUSH2 0x63F ADD MSTORE DUP2 DUP2 PUSH2 0x6ED ADD MSTORE DUP2 DUP2 PUSH2 0x74E ADD MSTORE PUSH2 0x779 ADD MSTORE PUSH2 0xB96 PUSH0 RETURN INVALID PUSH1 0x80 PUSH1 0x40 MSTORE CALLVALUE DUP1 ISZERO PUSH2 0xF JUMPI PUSH0 PUSH0 REVERT JUMPDEST POP PUSH1 0x4 CALLDATASIZE LT PUSH2 0x90 JUMPI PUSH0 CALLDATALOAD PUSH1 0xE0 SHR DUP1 PUSH4 0x70A08231 GT PUSH2 0x63 JUMPI DUP1 PUSH4 0x70A08231 EQ PUSH2 0x100 JUMPI DUP1 PUSH4 0x9C8F9F23 EQ PUSH2 0x11F JUMPI DUP1 PUSH4 0x9CD441DA EQ PUSH2 0x147 JUMPI DUP1 PUSH4 0xD004F0F7 EQ PUSH2 0x15A JUMPI DUP1 PUSH4 0xD21220A7 EQ PUSH2 0x16D JUMPI PUSH0 PUSH0 REVERT JUMPDEST DUP1 PUSH4 0xDFE1681 EQ PUSH2 0x94 JUMPI DUP1 PUSH4 0x18160DDD EQ PUSH2 0xD8 JUMPI DUP1 PUSH4 0x443CB4BC EQ PUSH2 0xEF JUMPI DUP1 PUSH4 0x5A76F25E EQ PUSH2 0xF7 JUMPI JUMPDEST PUSH0 PUSH0 REVERT JUMPDEST PUSH2 0xBB PUSH32 0x0 DUP2 JUMP JUMPDEST PUSH1 0x40 MLOAD PUSH1 0x1 PUSH1 0x1 PUSH1 0xA0 SHL SUB SWAP1 SWAP2 AND DUP2 MSTORE PUSH1 0x20 ADD JUMPDEST PUSH1 0x40 MLOAD DUP1 SWAP2 SUB SWAP1 RETURN JUMPDEST PUSH2 0xE1 PUSH1 0x2 SLOAD DUP2 JUMP JUMPDEST PUSH1 0x40 MLOAD SWAP1 DUP2 MSTORE PUSH1 0x20 ADD PUSH2 0xCF JUMP JUMPDEST PUSH2 0xE1 PUSH0 SLOAD DUP2 JUMP JUMPDEST PUSH2 0xE1 PUSH1 0x1 SLOAD DUP2 JUMP JUMPDEST PUSH2 0xE1 PUSH2 0x10E CALLDATASIZE PUSH1 0x4 PUSH2 0xA35 JUMP JUMPDEST PUSH1 0x3 PUSH1 0x20 MSTORE PUSH0 SWAP1 DUP2 MSTORE PUSH1 0x40 SWAP1 KECCAK256 SLOAD DUP2 JUMP JUMPDEST PUSH2 0x132 PUSH2 0x12D CALLDATASIZE PUSH1 0x4 PUSH2 0xA55 JUMP JUMPDEST PUSH2 0x194 JUMP JUMPDEST PUSH1 0x40 DUP1 MLOAD SWAP3 DUP4 MSTORE PUSH1 0x20 DUP4 ADD SWAP2 SWAP1 SWAP2 MSTORE ADD PUSH2 0xCF JUMP JUMPDEST PUSH2 0xE1 PUSH2 0x155 CALLDATASIZE PUSH1 0x4 PUSH2 0xA6C JUMP JUMPDEST PUSH2 0x332 JUMP JUMPDEST PUSH2 0xE1 PUSH2 0x168 CALLDATASIZE PUSH1 0x4 PUSH2 0xA8C JUMP JUMPDEST PUSH2 0x63C JUMP JUMPDEST PUSH2 0xBB PUSH32 0x0 DUP2 JUMP JUMPDEST PUSH0 PUSH0 PUSH1 0x2 SLOAD DUP4 PUSH0 SLOAD PUSH2 0x1A6 SWAP2 SWAP1 PUSH2 0xAC8 JUMP JUMPDEST PUSH2 0x1B0 SWAP2 SWAP1 PUSH2 0xAE5 JUMP JUMPDEST SWAP2 POP PUSH1 0x2 SLOAD DUP4 PUSH1 0x1 SLOAD PUSH2 0x1C3 SWAP2 SWAP1 PUSH2 0xAC8 JUMP JUMPDEST PUSH2 0x1CD SWAP2 SWAP1 PUSH2 0xAE5 JUMP JUMPDEST SWAP1 POP PUSH2 0x1D9 CALLER DUP5 PUSH2 0x993 JUMP JUMPDEST PUSH2 0x201 DUP3 PUSH0 SLOAD PUSH2 0x1E9 SWAP2 SWAP1 PUSH2 0xB04 JUMP JUMPDEST DUP3 PUSH1 0x1 SLOAD PUSH2 0x1F7 SWAP2 SWAP1 PUSH2 0xB04 JUMP JUMPDEST PUSH0 SWAP2 SWAP1 SWAP2 SSTORE PUSH1 0x1 SSTORE JUMP JUMPDEST DUP2 ISZERO PUSH2 0x297 JUMPI PUSH1 0x40 MLOAD PUSH4 0xA9059CBB PUSH1 0xE0 SHL DUP2 MSTORE CALLER PUSH1 0x4 DUP3 ADD MSTORE PUSH1 0x24 DUP2 ADD DUP4 SWAP1 MSTORE PUSH32 0x0 PUSH1 0x1 PUSH1 0x1 PUSH1 0xA0 SHL SUB AND SWAP1 PUSH4 0xA9059CBB SWAP1 PUSH1 0x44 ADD PUSH1 0x20 PUSH1 0x40 MLOAD DUP1 DUP4 SUB DUP2 PUSH0 DUP8 GAS CALL ISZERO DUP1 ISZERO PUSH2 0x271 JUMPI RETURNDATASIZE PUSH0 PUSH0 RETURNDATACOPY RETURNDATASIZE PUSH0 REVERT JUMPDEST POP POP POP POP PUSH1 0x40 MLOAD RETURNDATASIZE PUSH1 0x1F NOT PUSH1 0x1F DUP3 ADD AND DUP3 ADD DUP1 PUSH1 0x40 MSTORE POP DUP2 ADD SWAP1 PUSH2 0x295 SWAP2 SWAP1 PUSH2 0xB17 JUMP JUMPDEST POP JUMPDEST DUP1 ISZERO PUSH2 0x32D JUMPI PUSH1 0x40 MLOAD PUSH4 0xA9059CBB PUSH1 0xE0 SHL DUP2 MSTORE CALLER PUSH1 0x4 DUP3 ADD MSTORE PUSH1 0x24 DUP2 ADD DUP3 SWAP1 MSTORE PUSH32 0x0 PUSH1 0x1 PUSH1 0x1 PUSH1 0xA0 SHL SUB AND SWAP1 PUSH4 0xA9059CBB SWAP1 PUSH1 0x44 ADD PUSH1 0x20 PUSH1 0x40 MLOAD DUP1 DUP4 SUB DUP2 PUSH0 DUP8 GAS CALL ISZERO DUP1 ISZERO PUSH2 0x307 JUMPI RETURNDATASIZE PUSH0 PUSH0 RETURNDATACOPY RETURNDATASIZE PUSH0 REVERT JUMPDEST POP POP POP POP PUSH1 0x40 MLOAD RETURNDATASIZE PUSH1 0x1F NOT PUSH1 0x1F DUP3 ADD AND DUP3 ADD DUP1 PUSH1 0x40 MSTORE POP DUP2 ADD SWAP1 PUSH2 0x32B SWAP2 SWAP1 PUSH2 0xB17 JUMP JUMPDEST POP JUMPDEST SWAP2 POP SWAP2 JUMP JUMPDEST PUSH1 0x40 MLOAD PUSH4 0x23B872DD PUSH1 0xE0 SHL DUP2 MSTORE CALLER PUSH1 0x4 DUP3 ADD MSTORE ADDRESS PUSH1 0x24 DUP3 ADD MSTORE PUSH1 0x44 DUP2 ADD DUP4 SWAP1 MSTORE PUSH0 SWAP1 PUSH32 0x0 PUSH1 0x1 PUSH1 0x1 PUSH1 0xA0 SHL SUB AND SWAP1 PUSH4 0x23B872DD SWAP1 PUSH1 0x64 ADD PUSH1 0x20 PUSH1 0x40 MLOAD DUP1 DUP4 SUB DUP2 PUSH0 DUP8 GAS CALL ISZERO DUP1 ISZERO PUSH2 0x3A4 JUMPI RETURNDATASIZE PUSH0 PUSH0 RETURNDATACOPY RETURNDATASIZE PUSH0 REVERT JUMPDEST POP POP POP POP PUSH1 0x40 MLOAD RETURNDATASIZE PUSH1 0x1F NOT PUSH1 0x1F DUP3 ADD AND DUP3 ADD DUP1 PUSH1 0x40 MSTORE POP DUP2 ADD SWAP1 PUSH2 0x3C8 SWAP2 SWAP1 PUSH2 0xB17 JUMP JUMPDEST POP PUSH1 0x40 MLOAD PUSH4 0x23B872DD PUSH1 0xE0 SHL DUP2 MSTORE CALLER PUSH1 0x4 DUP3 ADD MSTORE ADDRESS PUSH1 0x24 DUP3 ADD MSTORE PUSH1 0x44 DUP2 ADD DUP4 SWAP1 MSTORE PUSH32 0x0 PUSH1 0x1 PUSH1 0x1 PUSH1 0xA0 SHL SUB AND SWAP1 PUSH4 0x23B872DD SWAP1 PUSH1 0x64 ADD PUSH1 0x20 PUSH1 0x40 MLOAD DUP1 DUP4 SUB DUP2 PUSH0 DUP8 GAS CALL ISZERO DUP1 ISZERO PUSH2 0x439 JUMPI RETURNDATASIZE PUSH0 PUSH0 RETURNDATACOPY RETURNDATASIZE PUSH0 REVERT JUMPDEST POP POP POP POP PUSH1 0x40 MLOAD RETURNDATASIZE PUSH1 0x1F NOT PUSH1 0x1F DUP3 ADD AND DUP3 ADD DUP1 PUSH1 0x40 MSTORE POP DUP2 ADD SWAP1 PUSH2 0x45D SWAP2 SWAP1 PUSH2 0xB17 JUMP JUMPDEST POP PUSH1 0x40 MLOAD PUSH4 0x70A08231 PUSH1 0xE0 SHL DUP2 MSTORE ADDRESS PUSH1 0x4 DUP3 ADD MSTORE PUSH0 SWAP1 PUSH32 0x0 PUSH1 0x1 PUSH1 0x1 PUSH1 0xA0 SHL SUB AND SWAP1 PUSH4 0x70A08231 SWAP1 PUSH1 0x24 ADD PUSH1 0x20 PUSH1 0x40 MLOAD DUP1 DUP4 SUB DUP2 DUP7 GAS STATICCALL ISZERO DUP1 ISZERO PUSH2 0x4C2 JUMPI RETURNDATASIZE PUSH0 PUSH0 RETURNDATACOPY RETURNDATASIZE PUSH0 REVERT JUMPDEST POP POP POP POP PUSH1 0x40 MLOAD RETURNDATASIZE PUSH1 0x1F NOT PUSH1 0x1F DUP3 ADD AND DUP3 ADD DUP1 PUSH1 0x40 MSTORE POP DUP2 ADD SWAP1 PUSH2 0x4E6 SWAP2 SWAP1 PUSH2 0xB36 JUMP JUMPDEST PUSH1 0x40 MLOAD PUSH4 0x70A08231 PUSH1 0xE0 SHL DUP2 MSTORE ADDRESS PUSH1 0x4 DUP3 ADD MSTORE SWAP1 SWAP2 POP PUSH0 SWAP1 PUSH1 0x1 PUSH1 0x1 PUSH1 0xA0 SHL SUB PUSH32 0x0 AND SWAP1 PUSH4 0x70A08231 SWAP1 PUSH1 0x24 ADD PUSH1 0x20 PUSH1 0x40 MLOAD DUP1 DUP4 SUB DUP2 DUP7 GAS STATICCALL ISZERO DUP1 ISZERO PUSH2 0x54D JUMPI RETURNDATASIZE PUSH0 PUSH0 RETURNDATACOPY RETURNDATASIZE PUSH0 REVERT JUMPDEST POP POP POP POP PUSH1 0x40 MLOAD RETURNDATASIZE PUSH1 0x1F NOT PUSH1 0x1F DUP3 ADD AND DUP3 ADD DUP1 PUSH1 0x40 MSTORE POP DUP2 ADD SWAP1 PUSH2 0x571 SWAP2 SWAP1 PUSH2 0xB36 JUMP JUMPDEST SWAP1 POP PUSH0 PUSH0 SLOAD DUP4 PUSH2 0x581 SWAP2 SWAP1 PUSH2 0xB04 JUMP JUMPDEST SWAP1 POP PUSH0 PUSH1 0x1 SLOAD DUP4 PUSH2 0x592 SWAP2 SWAP1 PUSH2 0xB04 JUMP JUMPDEST SWAP1 POP PUSH1 0x2 SLOAD PUSH0 SUB PUSH2 0x5AE JUMPI PUSH2 0x5A7 DUP2 DUP4 PUSH2 0xB4D JUMP JUMPDEST SWAP5 POP PUSH2 0x5E1 JUMP JUMPDEST PUSH1 0x1 SLOAD PUSH0 SLOAD PUSH2 0x5BD SWAP2 SWAP1 PUSH2 0xB4D JUMP JUMPDEST PUSH1 0x2 SLOAD PUSH2 0x5CA DUP4 DUP6 PUSH2 0xB4D JUMP JUMPDEST PUSH2 0x5D4 SWAP2 SWAP1 PUSH2 0xAC8 JUMP JUMPDEST PUSH2 0x5DE SWAP2 SWAP1 PUSH2 0xAE5 JUMP JUMPDEST SWAP5 POP JUMPDEST PUSH0 DUP6 GT PUSH2 0x622 JUMPI PUSH1 0x40 MLOAD PUSH3 0x461BCD PUSH1 0xE5 SHL DUP2 MSTORE PUSH1 0x20 PUSH1 0x4 DUP3 ADD MSTORE PUSH1 0xA PUSH1 0x24 DUP3 ADD MSTORE PUSH10 0x736861726573203D203 PUSH1 0xB4 SHL PUSH1 0x44 DUP3 ADD MSTORE PUSH1 0x64 ADD JUMPDEST PUSH1 0x40 MLOAD DUP1 SWAP2 SUB SWAP1 REVERT JUMPDEST PUSH2 0x62C CALLER DUP7 PUSH2 0x9DB JUMP JUMPDEST POP POP PUSH0 SWAP2 SWAP1 SWAP2 SSTORE PUSH1 0x1 SSTORE SWAP3 SWAP2 POP POP JUMP JUMPDEST PUSH0 PUSH32 0x0 PUSH1 0x1 PUSH1 0x1 PUSH1 0xA0 SHL SUB AND DUP4 PUSH1 0x1 PUSH1 0x1 PUSH1 0xA0 SHL SUB AND EQ DUP1 PUSH2 0x6AE JUMPI POP PUSH32 0x0 PUSH1 0x1 PUSH1 0x1 PUSH1 0xA0 SHL SUB AND DUP4 PUSH1 0x1 PUSH1 0x1 PUSH1 0xA0 SHL SUB AND EQ JUMPDEST PUSH2 0x6EA JUMPI PUSH1 0x40 MLOAD PUSH3 0x461BCD PUSH1 0xE5 SHL DUP2 MSTORE PUSH1 0x20 PUSH1 0x4 DUP3 ADD MSTORE PUSH1 0xD PUSH1 0x24 DUP3 ADD MSTORE PUSH13 0x34B73B30B634B2103A37B5B2B7 PUSH1 0x99 SHL PUSH1 0x44 DUP3 ADD MSTORE PUSH1 0x64 ADD PUSH2 0x619 JUMP JUMPDEST PUSH0 PUSH32 0x0 PUSH1 0x1 PUSH1 0x1 PUSH1 0xA0 SHL SUB AND DUP5 PUSH1 0x1 PUSH1 0x1 PUSH1 0xA0 SHL SUB AND EQ SWAP1 POP PUSH0 PUSH0 PUSH0 PUSH0 DUP5 PUSH2 0x777 JUMPI PUSH32 0x0 PUSH32 0x0 PUSH1 0x1 SLOAD PUSH0 SLOAD PUSH2 0x7BF JUMP JUMPDEST PUSH32 0x0 PUSH32 0x0 PUSH0 SLOAD PUSH1 0x1 SLOAD JUMPDEST PUSH1 0x40 MLOAD PUSH4 0x23B872DD PUSH1 0xE0 SHL DUP2 MSTORE CALLER PUSH1 0x4 DUP3 ADD MSTORE ADDRESS PUSH1 0x24 DUP3 ADD MSTORE PUSH1 0x44 DUP2 ADD DUP13 SWAP1 MSTORE SWAP4 SWAP8 POP SWAP2 SWAP6 POP SWAP4 POP SWAP2 POP PUSH1 0x1 PUSH1 0x1 PUSH1 0xA0 SHL SUB DUP6 AND SWAP1 PUSH4 0x23B872DD SWAP1 PUSH1 0x64 ADD PUSH1 0x20 PUSH1 0x40 MLOAD DUP1 DUP4 SUB DUP2 PUSH0 DUP8 GAS CALL ISZERO DUP1 ISZERO PUSH2 0x819 JUMPI RETURNDATASIZE PUSH0 PUSH0 RETURNDATACOPY RETURNDATASIZE PUSH0 REVERT JUMPDEST POP POP POP POP PUSH1 0x40 MLOAD RETURNDATASIZE PUSH1 0x1F NOT PUSH1 0x1F DUP3 ADD AND DUP3 ADD DUP1 PUSH1 0x40 MSTORE POP DUP2 ADD SWAP1 PUSH2 0x83D SWAP2 SWAP1 PUSH2 0xB17 JUMP JUMPDEST POP PUSH1 0x40 MLOAD PUSH4 0x70A08231 PUSH1 0xE0 SHL DUP2 MSTORE ADDRESS PUSH1 0x4 DUP3 ADD MSTORE PUSH0 SWAP1 DUP4 SWAP1 PUSH1 0x1 PUSH1 0x1 PUSH1 0xA0 SHL SUB DUP8 AND SWAP1 PUSH4 0x70A08231 SWAP1 PUSH1 0x24 ADD PUSH1 0x20 PUSH1 0x40 MLOAD DUP1 DUP4 SUB DUP2 DUP7 GAS STATICCALL ISZERO DUP1 ISZERO PUSH2 0x884 JUMPI RETURNDATASIZE PUSH0 PUSH0 RETURNDATACOPY RETURNDATASIZE PUSH0 REVERT JUMPDEST POP POP POP POP PUSH1 0x40 MLOAD RETURNDATASIZE PUSH1 0x1F NOT PUSH1 0x1F DUP3 ADD AND DUP3 ADD DUP1 PUSH1 0x40 MSTORE POP DUP2 ADD SWAP1 PUSH2 0x8A8 SWAP2 SWAP1 PUSH2 0xB36 JUMP JUMPDEST PUSH2 0x8B2 SWAP2 SWAP1 PUSH2 0xB04 JUMP JUMPDEST SWAP1 POP PUSH2 0x3E8 PUSH2 0x8C3 DUP3 PUSH2 0x3E5 PUSH2 0xAC8 JUMP JUMPDEST PUSH2 0x8CD SWAP2 SWAP1 PUSH2 0xAE5 JUMP JUMPDEST SWAP7 POP PUSH0 PUSH0 DUP8 PUSH2 0x8EF JUMPI PUSH2 0x8E0 DUP10 DUP6 PUSH2 0xB4D JUMP JUMPDEST PUSH2 0x8EA DUP12 DUP8 PUSH2 0xB04 JUMP JUMPDEST PUSH2 0x903 JUMP JUMPDEST PUSH2 0x8F9 DUP11 DUP7 PUSH2 0xB04 JUMP JUMPDEST PUSH2 0x903 DUP11 DUP7 PUSH2 0xB4D JUMP JUMPDEST SWAP2 POP SWAP2 POP PUSH2 0x916 DUP3 DUP3 PUSH0 SWAP2 SWAP1 SWAP2 SSTORE PUSH1 0x1 SSTORE JUMP JUMPDEST PUSH1 0x40 MLOAD PUSH4 0xA9059CBB PUSH1 0xE0 SHL DUP2 MSTORE CALLER PUSH1 0x4 DUP3 ADD MSTORE PUSH1 0x24 DUP2 ADD DUP11 SWAP1 MSTORE PUSH1 0x1 PUSH1 0x1 PUSH1 0xA0 SHL SUB DUP8 AND SWAP1 PUSH4 0xA9059CBB SWAP1 PUSH1 0x44 ADD PUSH1 0x20 PUSH1 0x40 MLOAD DUP1 DUP4 SUB DUP2 PUSH0 DUP8 GAS CALL ISZERO DUP1 ISZERO PUSH2 0x960 JUMPI RETURNDATASIZE PUSH0 PUSH0 RETURNDATACOPY RETURNDATASIZE PUSH0 REVERT JUMPDEST POP POP POP POP PUSH1 0x40 MLOAD RETURNDATASIZE PUSH1 0x1F NOT PUSH1 0x1F DUP3 ADD AND DUP3 ADD DUP1 PUSH1 0x40 MSTORE POP DUP2 ADD SWAP1 PUSH2 0x984 SWAP2 SWAP1 PUSH2 0xB17 JUMP JUMPDEST POP POP POP POP POP POP POP POP POP SWAP3 SWAP2 POP POP JUMP JUMPDEST PUSH1 0x1 PUSH1 0x1 PUSH1 0xA0 SHL SUB DUP3 AND PUSH0 SWAP1 DUP2 MSTORE PUSH1 0x3 PUSH1 0x20 MSTORE PUSH1 0x40 DUP2 KECCAK256 DUP1 SLOAD DUP4 SWAP3 SWAP1 PUSH2 0x9BA SWAP1 DUP5 SWAP1 PUSH2 0xB04 JUMP JUMPDEST SWAP3 POP POP DUP2 SWAP1 SSTORE POP DUP1 PUSH1 0x2 PUSH0 DUP3 DUP3 SLOAD PUSH2 0x9D2 SWAP2 SWAP1 PUSH2 0xB04 JUMP JUMPDEST SWAP1 SWAP2 SSTORE POP POP POP POP JUMP JUMPDEST PUSH1 0x1 PUSH1 0x1 PUSH1 0xA0 SHL SUB DUP3 AND PUSH0 SWAP1 DUP2 MSTORE PUSH1 0x3 PUSH1 0x20 MSTORE PUSH1 0x40 DUP2 KECCAK256 DUP1 SLOAD DUP4 SWAP3 SWAP1 PUSH2 0xA02 SWAP1 DUP5 SWAP1 PUSH2 0xB4D JUMP JUMPDEST SWAP3 POP POP DUP2 SWAP1 SSTORE POP DUP1 PUSH1 0x2 PUSH0 DUP3 DUP3 SLOAD PUSH2 0x9D2 SWAP2 SWAP1 PUSH2 0xB4D JUMP JUMPDEST DUP1 CALLDATALOAD PUSH1 0x1 PUSH1 0x1 PUSH1 0xA0 SHL SUB DUP2 AND DUP2 EQ PUSH2 0xA30 JUMPI PUSH0 PUSH0 REVERT JUMPDEST SWAP2 SWAP1 POP JUMP JUMPDEST PUSH0 PUSH1 0x20 DUP3 DUP5 SUB SLT ISZERO PUSH2 0xA45 JUMPI PUSH0 PUSH0 REVERT JUMPDEST PUSH2 0xA4E DUP3 PUSH2 0xA1A JUMP JUMPDEST SWAP4 SWAP3 POP POP POP JUMP JUMPDEST PUSH0 PUSH1 0x20 DUP3 DUP5 SUB SLT ISZERO PUSH2 0xA65 JUMPI PUSH0 PUSH0 REVERT JUMPDEST POP CALLDATALOAD SWAP2 SWAP1 POP JUMP JUMPDEST PUSH0 PUSH0 PUSH1 0x40 DUP4 DUP6 SUB SLT ISZERO PUSH2 0xA7D JUMPI PUSH0 PUSH0 REVERT JUMPDEST POP POP DUP1 CALLDATALOAD SWAP3 PUSH1 0x20 SWAP1 SWAP2 ADD CALLDATALOAD SWAP2 POP JUMP JUMPDEST PUSH0 PUSH0 PUSH1 0x40 DUP4 DUP6 SUB SLT ISZERO PUSH2 0xA9D JUMPI PUSH0 PUSH0 REVERT JUMPDEST PUSH2 0xAA6 DUP4 PUSH2 0xA1A JUMP JUMPDEST SWAP5 PUSH1 0x20 SWAP4 SWAP1 SWAP4 ADD CALLDATALOAD SWAP4 POP POP POP JUMP JUMPDEST PUSH4 0x4E487B71 PUSH1 0xE0 SHL PUSH0 MSTORE PUSH1 0x11 PUSH1 0x4 MSTORE PUSH1 0x24 PUSH0 REVERT JUMPDEST DUP1 DUP3 MUL DUP2 ISZERO DUP3 DUP3 DIV DUP5 EQ OR PUSH2 0xADF JUMPI PUSH2 0xADF PUSH2 0xAB4 JUMP JUMPDEST SWAP3 SWAP2 POP POP JUMP JUMPDEST PUSH0 DUP3 PUSH2 0xAFF JUMPI PUSH4 0x4E487B71 PUSH1 0xE0 SHL PUSH0 MSTORE PUSH1 0x12 PUSH1 0x4 MSTORE PUSH1 0x24 PUSH0 REVERT JUMPDEST POP DIV SWAP1 JUMP JUMPDEST DUP2 DUP2 SUB DUP2 DUP2 GT ISZERO PUSH2 0xADF JUMPI PUSH2 0xADF PUSH2 0xAB4 JUMP JUMPDEST PUSH0 PUSH1 0x20 DUP3 DUP5 SUB SLT ISZERO PUSH2 0xB27 JUMPI PUSH0 PUSH0 REVERT JUMPDEST DUP2 MLOAD DUP1 ISZERO ISZERO DUP2 EQ PUSH2 0xA4E JUMPI PUSH0 PUSH0 REVERT JUMPDEST PUSH0 PUSH1 0x20 DUP3 DUP5 SUB SLT ISZERO PUSH2 0xB46 JUMPI PUSH0 PUSH0 REVERT JUMPDEST POP MLOAD SWAP2 SWAP1 POP JUMP JUMPDEST DUP1 DUP3 ADD DUP1 DUP3 GT ISZERO PUSH2 0xADF JUMPI PUSH2 0xADF PUSH2 0xAB4 JUMP INVALID LOG2 PUSH5 0x6970667358 0x22 SLT KECCAK256 0xD9 0xE2 PUSH5 0x3CA2D4AF64 CALLDATASIZE NUMBER SWAP1 DUP8 PUSH9 0x7031332C9A07C8B86E PUSH21 0xB534A4E1473C802B1664736F6C634300081D003300 "
				},
				"gasEstimates": {
					"creation": {
						"codeDepositCost": "593200",
						"executionCost": "infinite",
						"totalCost": "infinite"
					},
					"external": {
						"addLiquidity(uint256,uint256)": "infinite",
						"balanceOf(address)": "2516",
						"removeLiquidity(uint256)": "infinite",
						"reserve0()": "2338",
						"reserve1()": "2361",
						"swap(address,uint256)": "infinite",
						"token0()": "infinite",
						"token1()": "infinite",
						"totalSupply()": "2317"
					},
					"internal": {
						"_burn(address,uint256)": "infinite",
						"_mint(address,uint256)": "infinite",
						"_update(uint256,uint256)": "infinite"
					}
				},
				"methodIdentifiers": {
					"addLiquidity(uint256,uint256)": "9cd441da",
					"balanceOf(address)": "70a08231",
					"removeLiquidity(uint256)": "9c8f9f23",
					"reserve0()": "443cb4bc",
					"reserve1()": "5a76f25e",
					"swap(address,uint256)": "d004f0f7",
					"token0()": "0dfe1681",
					"token1()": "d21220a7",
					"totalSupply()": "18160ddd"
				}
			},
			"storageLayout": {
				"storage": [
					{
						"astId": 796,
						"contract": "five/AMM.sol:CSAMM",
						"label": "reserve0",
						"offset": 0,
						"slot": "0",
						"type": "t_uint256"
					},
					{
						"astId": 798,
						"contract": "five/AMM.sol:CSAMM",
						"label": "reserve1",
						"offset": 0,
						"slot": "1",
						"type": "t_uint256"
					},
					{
						"astId": 800,
						"contract": "five/AMM.sol:CSAMM",
						"label": "totalSupply",
						"offset": 0,
						"slot": "2",
						"type": "t_uint256"
					},
					{
						"astId": 804,
						"contract": "five/AMM.sol:CSAMM",
						"label": "balanceOf",
						"offset": 0,
						"slot": "3",
						"type": "t_mapping(t_address,t_uint256)"
					}
				],
				"types": {
					"t_address": {
						"encoding": "inplace",
						"label": "address",
						"numberOfBytes": "20"
					},
					"t_mapping(t_address,t_uint256)": {
						"encoding": "mapping",
						"key": "t_address",
						"label": "mapping(address => uint256)",
						"numberOfBytes": "32",
						"value": "t_uint256"
					},
					"t_uint256": {
						"encoding": "inplace",
						"label": "uint256",
						"numberOfBytes": "32"
					}
				}
			},
			"userdoc": {
				"kind": "user",
				"methods": {},
				"version": 1
			}
		}
	}
}