{
	"five/StakingRewards.sol": {
		"StakingRewards": {
			"abi": [
				{
					"inputs": [
						{
							"internalType": "address",
							"name": "_stakingToken",
							"type": "address"
						},
						{
							"internalType": "address",
							"name": "_rewardsToken",
							"type": "address"
						}
					],
					"stateMutability": "nonpayable",
					"type": "constructor"
				},
				{
					"inputs": [
						{
							"internalType": "address",
							"name": "",
							"type": "address"
						}
					],
					"name": "balanceOf",
					"outputs": [
						{
							"internalType": "uint256",
							"name": "",
							"type": "uint256"
						}
					],
					"stateMutability": "view",
					"type": "function"
				},
				{
					"inputs": [],
					"name": "duration",
					"outputs": [
						{
							"internalType": "uint256",
							"name": "",
							"type": "uint256"
						}
					],
					"stateMutability": "view",
					"type": "function"
				},
				{
					"inputs": [
						{
							"internalType": "address",
							"name": "_account",
							"type": "address"
						}
					],
					"name": "earned",
					"outputs": [
						{
							"internalType": "uint256",
							"name": "",
							"type": "uint256"
						}
					],
					"stateMutability": "view",
					"type": "function"
				},
				{
					"inputs": [],
					"name": "finishAt",
					"outputs": [
						{
							"internalType": "uint256",
							"name": "",
							"type": "uint256"
						}
					],
					"stateMutability": "view",
					"type": "function"
				},
				{
					"inputs": [],
					"name": "getReward",
					"outputs": [],
					"stateMutability": "nonpayable",
					"type": "function"
				},
				{
					"inputs": [],
					"name": "lastTimeRewardApplicable",
					"outputs": [
						{
							"internalType": "uint256",
							"name": "",
							"type": "uint256"
						}
					],
					"stateMutability": "view",
					"type": "function"
				},
				{
					"inputs": [
						{
							"internalType": "uint256",
							"name": "_amount",
							"type": "uint256"
						}
					],
					"name": "notifyRewardAmount",
					"outputs": [],
					"stateMutability": "nonpayable",
					"type": "function"
				},
				{
					"inputs": [],
					"name": "owner",
					"outputs": [
						{
							"internalType": "address",
							"name": "",
							"type": "address"
						}
					],
					"stateMutability": "view",
					"type": "function"
				},
				{
					"inputs": [],
					"name": "rewardPerToken",
					"outputs": [
						{
							"internalType": "uint256",
							"name": "",
							"type": "uint256"
						}
					],
					"stateMutability": "view",
					"type": "function"
				},
				{
					"inputs": [],
					"name": "rewardPerTokenStored",
					"outputs": [
						{
							"internalType": "uint256",
							"name": "",
							"type": "uint256"
						}
					],
					"stateMutability": "view",
					"type": "function"
				},
				{
					"inputs": [],
					"name": "rewardRate",
					"outputs": [
						{
							"internalType": "uint256",
							"name": "",
							"type": "uint256"
						}
					],
					"stateMutability": "view",
					"type": "function"
				},
				{
					"inputs": [
						{
							"internalType": "address",
							"name": "",
							"type": "address"
						}
					],
					"name": "rewards",
					"outputs": [
						{
							"internalType": "uint256",
							"name": "",
							"type": "uint256"
						}
					],
					"stateMutability": "view",
					"type": "function"
				},
				{
					"inputs": [],
					"name": "rewardsToken",
					"outputs": [
						{
							"internalType": "contract IERC20",
							"name": "",
							"type": "address"
						}
					],
					"stateMutability": "view",
					"type": "function"
				},
				{
					"inputs": [
						{
							"internalType": "uint256",
							"name": "_duration",
							"type": "uint256"
						}
					],
					"name": "setRewardDuration",
					"outputs": [],
					"stateMutability": "nonpayable",
					"type": "function"
				},
				{
					"inputs": [
						{
							"internalType": "uint256",
							"name": "_amount",
							"type": "uint256"
						}
					],
					"name": "stake",
					"outputs": [],
					"stateMutability": "nonpayable",
					"type": "function"
				},
				{
					"inputs": [],
					"name": "stakingToken",
					"outputs": [
						{
							"internalType": "contract IERC20",
							"name": "",
							"type": "address"
						}
					],
					"stateMutability": "view",
					"type": "function"
				},
				{
					"inputs": [],
					"name": "totalSupply",
					"outputs": [
						{
							"internalType": "uint256",
							"name": "",
							"type": "uint256"
						}
					],
					"stateMutability": "view",
					"type": "function"
				},
				{
					"inputs": [],
					"name": "updatedAt",
					"outputs": [
						{
							"internalType": "uint256",
							"name": "",
							"type": "uint256"
						}
					],
					"stateMutability": "view",
					"type": "function"
				},
				{
					"inputs": [
						{
							"internalType": "address",
							"name": "",
							"type": "address"
						}
					],
					"name": "userRewardPerTokenPaid",
					"outputs": [
						{
							"internalType": "uint256",
							"name": "",
							"type": "uint256"
						}
					],
					"stateMutability": "view",
					"type": "function"
				},
				{
					"inputs": [
						{
							"internalType": "uint256",
							"name": "_amount",
							"type": "uint256"
						}
					],
					"name": "withdraw",
					"outputs": [],
					"stateMutability": "nonpayable",
					"type": "function"
				}
			],
			"devdoc": {
				"kind": "dev",
				"methods": {},
				"version": 1
			},
			"evm": {
				"assembly": "    /* \"five/StakingRewards.sol\":1128:7507  contract StakingRewards {... */\n  mstore(0x40, 0xc0)\n    /* \"five/StakingRewards.sol\":3325:3514  constructor(address _stakingToken, address _rewardsToken) {... */\n  callvalue\n  dup1\n  iszero\n  tag_1\n  jumpi\n  revert(0x00, 0x00)\ntag_1:\n  pop\n  mload(0x40)\n  sub(codesize, bytecodeSize)\n  dup1\n  bytecodeSize\n  dup4\n  codecopy\n  dup2\n  add\n  0x40\n  dup2\n  swap1\n  mstore\n  tag_2\n  swap2\n  tag_3\n  jump\t// in\ntag_2:\n    /* \"five/StakingRewards.sol\":3394:3399  owner */\n  0x00\n    /* \"five/StakingRewards.sol\":3394:3412  owner = msg.sender */\n  dup1\n  sload\n  not(sub(shl(0xa0, 0x01), 0x01))\n  and\n    /* \"five/StakingRewards.sol\":3402:3412  msg.sender */\n  caller\n    /* \"five/StakingRewards.sol\":3394:3412  owner = msg.sender */\n  or\n  swap1\n  sstore\n  sub(shl(0xa0, 0x01), 0x01)\n    /* \"five/StakingRewards.sol\":3423:3459  stakingToken = IERC20(_stakingToken) */\n  swap2\n  dup3\n  and\n  0x80\n  mstore\n    /* \"five/StakingRewards.sol\":3470:3506  rewardsToken = IERC20(_rewardsToken) */\n  and\n  0xa0\n  mstore\n    /* \"five/StakingRewards.sol\":1128:7507  contract StakingRewards {... */\n  jump(tag_8)\n    /* \"#utility.yul\":14:191   */\ntag_7:\n    /* \"#utility.yul\":93:106   */\n  dup1\n  mload\n  sub(shl(0xa0, 0x01), 0x01)\n    /* \"#utility.yul\":135:166   */\n  dup2\n  and\n    /* \"#utility.yul\":125:167   */\n  dup2\n  eq\n    /* \"#utility.yul\":115:185   */\n  tag_10\n  jumpi\n    /* \"#utility.yul\":181:182   */\n  0x00\n    /* \"#utility.yul\":178:179   */\n  0x00\n    /* \"#utility.yul\":171:183   */\n  revert\n    /* \"#utility.yul\":115:185   */\ntag_10:\n    /* \"#utility.yul\":14:191   */\n  swap2\n  swap1\n  pop\n  jump\t// out\n    /* \"#utility.yul\":196:489   */\ntag_3:\n    /* \"#utility.yul\":275:281   */\n  0x00\n    /* \"#utility.yul\":283:289   */\n  0x00\n    /* \"#utility.yul\":336:338   */\n  0x40\n    /* \"#utility.yul\":324:333   */\n  dup4\n    /* \"#utility.yul\":315:322   */\n  dup6\n    /* \"#utility.yul\":311:334   */\n  sub\n    /* \"#utility.yul\":307:339   */\n  slt\n    /* \"#utility.yul\":304:356   */\n  iszero\n  tag_12\n  jumpi\n    /* \"#utility.yul\":352:353   */\n  0x00\n    /* \"#utility.yul\":349:350   */\n  0x00\n    /* \"#utility.yul\":342:354   */\n  revert\n    /* \"#utility.yul\":304:356   */\ntag_12:\n    /* \"#utility.yul\":375:415   */\n  tag_13\n    /* \"#utility.yul\":405:414   */\n  dup4\n    /* \"#utility.yul\":375:415   */\n  tag_7\n  jump\t// in\ntag_13:\n    /* \"#utility.yul\":365:415   */\n  swap2\n  pop\n    /* \"#utility.yul\":434:483   */\n  tag_14\n    /* \"#utility.yul\":479:481   */\n  0x20\n    /* \"#utility.yul\":468:477   */\n  dup5\n    /* \"#utility.yul\":464:482   */\n  add\n    /* \"#utility.yul\":434:483   */\n  tag_7\n  jump\t// in\ntag_14:\n    /* \"#utility.yul\":424:483   */\n  swap1\n  pop\n    /* \"#utility.yul\":196:489   */\n  swap3\n  pop\n  swap3\n  swap1\n  pop\n  jump\t// out\ntag_8:\n    /* \"five/StakingRewards.sol\":1128:7507  contract StakingRewards {... */\n  mload(0x80)\n  mload(0xa0)\n  codecopy(0x00, dataOffset(sub_0), dataSize(sub_0))\n  0x00\n  assignImmutable(\"0x03065c56175bab9d6c02682cec557b5c933cd8364ccf2dd44ab76e0c260931e7\")\n  0x00\n  assignImmutable(\"0x588e5ad3f145f9d841773d4229bac23d743ef980914ad5d2b613712259f67f55\")\n  return(0x00, dataSize(sub_0))\nstop\n\nsub_0: assembly {\n        /* \"five/StakingRewards.sol\":1128:7507  contract StakingRewards {... */\n      mstore(0x40, 0x80)\n      callvalue\n      dup1\n      iszero\n      tag_1\n      jumpi\n      revert(0x00, 0x00)\n    tag_1:\n      pop\n      jumpi(tag_2, lt(calldatasize, 0x04))\n      shr(0xe0, calldataload(0x00))\n      dup1\n      0x7519ab50\n      gt\n      tag_23\n      jumpi\n      dup1\n      0xa694fc3a\n      gt\n      tag_24\n      jumpi\n      dup1\n      0xa694fc3a\n      eq\n      tag_18\n      jumpi\n      dup1\n      0xc0ed00c9\n      eq\n      tag_19\n      jumpi\n      dup1\n      0xcd3daf9d\n      eq\n      tag_20\n      jumpi\n      dup1\n      0xd1af0c7d\n      eq\n      tag_21\n      jumpi\n      dup1\n      0xdf136d65\n      eq\n      tag_22\n      jumpi\n      revert(0x00, 0x00)\n    tag_24:\n      dup1\n      0x7519ab50\n      eq\n      tag_13\n      jumpi\n      dup1\n      0x7b0a47ee\n      eq\n      tag_14\n      jumpi\n      dup1\n      0x80faa57d\n      eq\n      tag_15\n      jumpi\n      dup1\n      0x8b876347\n      eq\n      tag_16\n      jumpi\n      dup1\n      0x8da5cb5b\n      eq\n      tag_17\n      jumpi\n      revert(0x00, 0x00)\n    tag_23:\n      dup1\n      0x3c6b16ab\n      gt\n      tag_25\n      jumpi\n      dup1\n      0x3c6b16ab\n      eq\n      tag_8\n      jumpi\n      dup1\n      0x3d18b912\n      eq\n      tag_9\n      jumpi\n      dup1\n      0x67d3b488\n      eq\n      tag_10\n      jumpi\n      dup1\n      0x70a08231\n      eq\n      tag_11\n      jumpi\n      dup1\n      0x72f702f3\n      eq\n      tag_12\n      jumpi\n      revert(0x00, 0x00)\n    tag_25:\n      dup1\n      0x8cc262\n      eq\n      tag_3\n      jumpi\n      dup1\n      0x0700037d\n      eq\n      tag_4\n      jumpi\n      dup1\n      0x0fb5a6b4\n      eq\n      tag_5\n      jumpi\n      dup1\n      0x18160ddd\n      eq\n      tag_6\n      jumpi\n      dup1\n      0x2e1a7d4d\n      eq\n      tag_7\n      jumpi\n    tag_2:\n      revert(0x00, 0x00)\n        /* \"five/StakingRewards.sol\":6903:7369  function earned(address _account) public view returns (uint) {... */\n    tag_3:\n      tag_26\n      tag_27\n      calldatasize\n      0x04\n      tag_28\n      jump\t// in\n    tag_27:\n      tag_29\n      jump\t// in\n    tag_26:\n      mload(0x40)\n        /* \"#utility.yul\":451:476   */\n      swap1\n      dup2\n      mstore\n        /* \"#utility.yul\":439:441   */\n      0x20\n        /* \"#utility.yul\":424:442   */\n      add\n        /* \"five/StakingRewards.sol\":6903:7369  function earned(address _account) public view returns (uint) {... */\n    tag_30:\n      mload(0x40)\n      dup1\n      swap2\n      sub\n      swap1\n      return\n        /* \"five/StakingRewards.sol\":1803:1842  mapping(address => uint) public rewards */\n    tag_4:\n      tag_26\n      tag_33\n      calldatasize\n      0x04\n      tag_28\n      jump\t// in\n    tag_33:\n      mstore(0x20, 0x07)\n      0x00\n      swap1\n      dup2\n      mstore\n      0x40\n      swap1\n      keccak256\n      sload\n      dup2\n      jump\n        /* \"five/StakingRewards.sol\":1311:1331  uint public duration */\n    tag_5:\n      tag_26\n      sload(0x01)\n      dup2\n      jump\n        /* \"five/StakingRewards.sol\":1968:1991  uint public totalSupply */\n    tag_6:\n      tag_26\n      sload(0x09)\n      dup2\n      jump\n        /* \"five/StakingRewards.sol\":5748:5997  function withdraw(uint _amount) external updateReward(msg.sender) {... */\n    tag_7:\n      tag_42\n      tag_43\n      calldatasize\n      0x04\n      tag_44\n      jump\t// in\n    tag_43:\n      tag_45\n      jump\t// in\n    tag_42:\n      stop\n        /* \"five/StakingRewards.sol\":4195:5258  function notifyRewardAmount(uint _amount) external onlyOwner updateReward(address(0)) {... */\n    tag_8:\n      tag_42\n      tag_47\n      calldatasize\n      0x04\n      tag_44\n      jump\t// in\n    tag_47:\n      tag_48\n      jump\t// in\n        /* \"five/StakingRewards.sol\":6026:6265  function getReward() external updateReward(msg.sender) {... */\n    tag_9:\n      tag_42\n      tag_50\n      jump\t// in\n        /* \"five/StakingRewards.sol\":1375:1395  uint public finishAt */\n    tag_10:\n      tag_26\n      sload(0x02)\n      dup2\n      jump\n        /* \"five/StakingRewards.sol\":1884:1925  mapping(address => uint) public balanceOf */\n    tag_11:\n      tag_26\n      tag_55\n      calldatasize\n      0x04\n      tag_28\n      jump\t// in\n    tag_55:\n      mstore(0x20, 0x08)\n      0x00\n      swap1\n      dup2\n      mstore\n      0x40\n      swap1\n      keccak256\n      sload\n      dup2\n      jump\n        /* \"five/StakingRewards.sol\":1159:1195  IERC20 public immutable stakingToken */\n    tag_12:\n      tag_58\n      immutable(\"0x588e5ad3f145f9d841773d4229bac23d743ef980914ad5d2b613712259f67f55\")\n      dup2\n      jump\n    tag_58:\n      mload(0x40)\n      sub(shl(0xa0, 0x01), 0x01)\n        /* \"#utility.yul\":850:882   */\n      swap1\n      swap2\n      and\n        /* \"#utility.yul\":832:883   */\n      dup2\n      mstore\n        /* \"#utility.yul\":820:822   */\n      0x20\n        /* \"#utility.yul\":805:823   */\n      add\n        /* \"five/StakingRewards.sol\":1159:1195  IERC20 public immutable stakingToken */\n      tag_30\n        /* \"#utility.yul\":672:889   */\n      jump\n        /* \"five/StakingRewards.sol\":1430:1451  uint public updatedAt */\n    tag_13:\n      tag_26\n      sload(0x03)\n      dup2\n      jump\n        /* \"five/StakingRewards.sol\":1518:1540  uint public rewardRate */\n    tag_14:\n      tag_26\n      sload(0x04)\n      dup2\n      jump\n        /* \"five/StakingRewards.sol\":6306:6450  function lastTimeRewardApplicable() public view returns (uint) {... */\n    tag_15:\n      tag_26\n      tag_69\n      jump\t// in\n        /* \"five/StakingRewards.sol\":1701:1755  mapping(address => uint) public userRewardPerTokenPaid */\n    tag_16:\n      tag_26\n      tag_72\n      calldatasize\n      0x04\n      tag_28\n      jump\t// in\n    tag_72:\n      mstore(0x20, 0x06)\n      0x00\n      swap1\n      dup2\n      mstore\n      0x40\n      swap1\n      keccak256\n      sload\n      dup2\n      jump\n        /* \"five/StakingRewards.sol\":1251:1271  address public owner */\n    tag_17:\n      sload(0x00)\n      tag_58\n      swap1\n      sub(shl(0xa0, 0x01), 0x01)\n      and\n      dup2\n      jump\n        /* \"five/StakingRewards.sol\":5411:5719  function stake(uint _amount) external updateReward(msg.sender) {... */\n    tag_18:\n      tag_42\n      tag_80\n      calldatasize\n      0x04\n      tag_44\n      jump\t// in\n    tag_80:\n      tag_81\n      jump\t// in\n        /* \"five/StakingRewards.sol\":3594:3775  function setRewardDuration(uint _duration) external onlyOwner {... */\n    tag_19:\n      tag_42\n      tag_83\n      calldatasize\n      0x04\n      tag_44\n      jump\t// in\n    tag_83:\n      tag_84\n      jump\t// in\n        /* \"five/StakingRewards.sol\":6509:6862  function rewardPerToken() public view returns (uint) {... */\n    tag_20:\n      tag_26\n      tag_86\n      jump\t// in\n        /* \"five/StakingRewards.sol\":1202:1238  IERC20 public immutable rewardsToken */\n    tag_21:\n      tag_58\n      immutable(\"0x03065c56175bab9d6c02682cec557b5c933cd8364ccf2dd44ab76e0c260931e7\")\n      dup2\n      jump\n        /* \"five/StakingRewards.sol\":1591:1623  uint public rewardPerTokenStored */\n    tag_22:\n      tag_26\n      sload(0x05)\n      dup2\n      jump\n        /* \"five/StakingRewards.sol\":6903:7369  function earned(address _account) public view returns (uint) {... */\n    tag_29:\n      sub(shl(0xa0, 0x01), 0x01)\n        /* \"five/StakingRewards.sol\":7344:7361  rewards[_account] */\n      dup2\n      and\n        /* \"five/StakingRewards.sol\":6958:6962  uint */\n      0x00\n        /* \"five/StakingRewards.sol\":7344:7361  rewards[_account] */\n      swap1\n      dup2\n      mstore\n        /* \"five/StakingRewards.sol\":7344:7351  rewards */\n      0x07\n        /* \"five/StakingRewards.sol\":7344:7361  rewards[_account] */\n      0x20\n      swap1\n      dup2\n      mstore\n      0x40\n      dup1\n      dup4\n      keccak256\n      sload\n        /* \"five/StakingRewards.sol\":7272:7294  userRewardPerTokenPaid */\n      0x06\n        /* \"five/StakingRewards.sol\":7272:7304  userRewardPerTokenPaid[_account] */\n      swap1\n      swap3\n      mstore\n      dup3\n      keccak256\n      sload\n        /* \"five/StakingRewards.sol\":7323:7327  1e18 */\n      0x0de0b6b3a7640000\n      swap1\n        /* \"five/StakingRewards.sol\":7129:7145  rewardPerToken() */\n      tag_95\n        /* \"five/StakingRewards.sol\":7129:7143  rewardPerToken */\n      tag_86\n        /* \"five/StakingRewards.sol\":7129:7145  rewardPerToken() */\n      jump\t// in\n    tag_95:\n        /* \"five/StakingRewards.sol\":7129:7304  rewardPerToken() //如果是在 modifier updateReward 中，其实前一步已经调用了rewardPerToken更新了... */\n      tag_96\n      swap2\n      swap1\n      tag_97\n      jump\t// in\n    tag_96:\n      sub(shl(0xa0, 0x01), 0x01)\n        /* \"five/StakingRewards.sol\":7092:7111  balanceOf[_account] */\n      dup6\n      and\n      0x00\n      swap1\n      dup2\n      mstore\n        /* \"five/StakingRewards.sol\":7092:7101  balanceOf */\n      0x08\n        /* \"five/StakingRewards.sol\":7092:7111  balanceOf[_account] */\n      0x20\n      mstore\n      0x40\n      swap1\n      keccak256\n      sload\n        /* \"five/StakingRewards.sol\":7092:7305  balanceOf[_account] * ... */\n      tag_98\n      swap2\n      swap1\n      tag_99\n      jump\t// in\n    tag_98:\n        /* \"five/StakingRewards.sol\":7091:7327  (balanceOf[_account] * ... */\n      tag_100\n      swap2\n      swap1\n      tag_101\n      jump\t// in\n    tag_100:\n        /* \"five/StakingRewards.sol\":7091:7361  (balanceOf[_account] * ... */\n      tag_102\n      swap2\n      swap1\n      tag_103\n      jump\t// in\n    tag_102:\n        /* \"five/StakingRewards.sol\":7084:7361  return (balanceOf[_account] * ... */\n      swap3\n        /* \"five/StakingRewards.sol\":6903:7369  function earned(address _account) public view returns (uint) {... */\n      swap2\n      pop\n      pop\n      jump\t// out\n        /* \"five/StakingRewards.sol\":5748:5997  function withdraw(uint _amount) external updateReward(msg.sender) {... */\n    tag_45:\n        /* \"five/StakingRewards.sol\":5802:5812  msg.sender */\n      caller\n        /* \"five/StakingRewards.sol\":2871:2887  rewardPerToken() */\n      tag_105\n        /* \"five/StakingRewards.sol\":2871:2885  rewardPerToken */\n      tag_86\n        /* \"five/StakingRewards.sol\":2871:2887  rewardPerToken() */\n      jump\t// in\n    tag_105:\n        /* \"five/StakingRewards.sol\":2848:2868  rewardPerTokenStored */\n      0x05\n        /* \"five/StakingRewards.sol\":2848:2887  rewardPerTokenStored = rewardPerToken() */\n      sstore\n        /* \"five/StakingRewards.sol\":2910:2936  lastTimeRewardApplicable() */\n      tag_106\n        /* \"five/StakingRewards.sol\":2910:2934  lastTimeRewardApplicable */\n      tag_69\n        /* \"five/StakingRewards.sol\":2910:2936  lastTimeRewardApplicable() */\n      jump\t// in\n    tag_106:\n        /* \"five/StakingRewards.sol\":2898:2907  updatedAt */\n      0x03\n        /* \"five/StakingRewards.sol\":2898:2936  updatedAt = lastTimeRewardApplicable() */\n      sstore\n      sub(shl(0xa0, 0x01), 0x01)\n        /* \"five/StakingRewards.sol\":2961:2983  _account != address(0) */\n      dup2\n      and\n      iszero\n        /* \"five/StakingRewards.sol\":2957:3298  if (_account != address(0)) {... */\n      tag_107\n      jumpi\n        /* \"five/StakingRewards.sol\":3150:3166  earned(_account) */\n      tag_108\n        /* \"five/StakingRewards.sol\":3157:3165  _account */\n      dup2\n        /* \"five/StakingRewards.sol\":3150:3156  earned */\n      tag_29\n        /* \"five/StakingRewards.sol\":3150:3166  earned(_account) */\n      jump\t// in\n    tag_108:\n      sub(shl(0xa0, 0x01), 0x01)\n        /* \"five/StakingRewards.sol\":3130:3147  rewards[_account] */\n      dup3\n      and\n      0x00\n      swap1\n      dup2\n      mstore\n        /* \"five/StakingRewards.sol\":3130:3137  rewards */\n      0x07\n        /* \"five/StakingRewards.sol\":3130:3147  rewards[_account] */\n      0x20\n      swap1\n      dup2\n      mstore\n      0x40\n      dup1\n      dup4\n      keccak256\n        /* \"five/StakingRewards.sol\":3130:3166  rewards[_account] = earned(_account) */\n      swap4\n      swap1\n      swap4\n      sstore\n        /* \"five/StakingRewards.sol\":3266:3286  rewardPerTokenStored */\n      sload(0x05)\n        /* \"five/StakingRewards.sol\":3231:3253  userRewardPerTokenPaid */\n      0x06\n        /* \"five/StakingRewards.sol\":3231:3263  userRewardPerTokenPaid[_account] */\n      swap1\n      swap2\n      mstore\n      swap2\n      swap1\n      keccak256\n        /* \"five/StakingRewards.sol\":3231:3286  userRewardPerTokenPaid[_account] = rewardPerTokenStored */\n      sstore\n        /* \"five/StakingRewards.sol\":2957:3298  if (_account != address(0)) {... */\n    tag_107:\n        /* \"five/StakingRewards.sol\":5843:5844  0 */\n      0x00\n        /* \"five/StakingRewards.sol\":5833:5840  _amount */\n      dup3\n        /* \"five/StakingRewards.sol\":5833:5844  _amount > 0 */\n      gt\n        /* \"five/StakingRewards.sol\":5825:5860  require(_amount > 0, \"Amount zero\") */\n      tag_110\n      jumpi\n      mload(0x40)\n      shl(0xe5, 0x461bcd)\n      dup2\n      mstore\n        /* \"#utility.yul\":2094:2096   */\n      0x20\n        /* \"five/StakingRewards.sol\":5825:5860  require(_amount > 0, \"Amount zero\") */\n      0x04\n      dup3\n      add\n        /* \"#utility.yul\":2076:2097   */\n      mstore\n        /* \"#utility.yul\":2133:2135   */\n      0x0b\n        /* \"#utility.yul\":2113:2131   */\n      0x24\n      dup3\n      add\n        /* \"#utility.yul\":2106:2136   */\n      mstore\n      shl(0xa8, 0x416d6f756e74207a65726f)\n        /* \"#utility.yul\":2152:2170   */\n      0x44\n      dup3\n      add\n        /* \"#utility.yul\":2145:2186   */\n      mstore\n        /* \"#utility.yul\":2203:2221   */\n      0x64\n      add\n        /* \"five/StakingRewards.sol\":5825:5860  require(_amount > 0, \"Amount zero\") */\n    tag_111:\n      mload(0x40)\n      dup1\n      swap2\n      sub\n      swap1\n      revert\n    tag_110:\n        /* \"five/StakingRewards.sol\":5881:5891  msg.sender */\n      caller\n        /* \"five/StakingRewards.sol\":5871:5892  balanceOf[msg.sender] */\n      0x00\n      swap1\n      dup2\n      mstore\n        /* \"five/StakingRewards.sol\":5871:5880  balanceOf */\n      0x08\n        /* \"five/StakingRewards.sol\":5871:5892  balanceOf[msg.sender] */\n      0x20\n      mstore\n      0x40\n      dup2\n      keccak256\n        /* \"five/StakingRewards.sol\":5871:5903  balanceOf[msg.sender] -= _amount */\n      dup1\n      sload\n        /* \"five/StakingRewards.sol\":5896:5903  _amount */\n      dup5\n      swap3\n        /* \"five/StakingRewards.sol\":5871:5892  balanceOf[msg.sender] */\n      swap1\n        /* \"five/StakingRewards.sol\":5871:5903  balanceOf[msg.sender] -= _amount */\n      tag_113\n      swap1\n        /* \"five/StakingRewards.sol\":5896:5903  _amount */\n      dup5\n      swap1\n        /* \"five/StakingRewards.sol\":5871:5903  balanceOf[msg.sender] -= _amount */\n      tag_97\n      jump\t// in\n    tag_113:\n      swap3\n      pop\n      pop\n      dup2\n      swap1\n      sstore\n      pop\n        /* \"five/StakingRewards.sol\":5929:5936  _amount */\n      dup2\n        /* \"five/StakingRewards.sol\":5914:5925  totalSupply */\n      0x09\n      0x00\n        /* \"five/StakingRewards.sol\":5914:5936  totalSupply -= _amount */\n      dup3\n      dup3\n      sload\n      tag_114\n      swap2\n      swap1\n      tag_97\n      jump\t// in\n    tag_114:\n      swap1\n      swap2\n      sstore\n      pop\n      pop\n        /* \"five/StakingRewards.sol\":5947:5989  stakingToken.transfer(msg.sender, _amount) */\n      mload(0x40)\n      shl(0xe0, 0xa9059cbb)\n      dup2\n      mstore\n        /* \"five/StakingRewards.sol\":5969:5979  msg.sender */\n      caller\n        /* \"five/StakingRewards.sol\":5947:5989  stakingToken.transfer(msg.sender, _amount) */\n      0x04\n      dup3\n      add\n        /* \"#utility.yul\":2406:2457   */\n      mstore\n        /* \"#utility.yul\":2473:2491   */\n      0x24\n      dup2\n      add\n        /* \"#utility.yul\":2466:2500   */\n      dup4\n      swap1\n      mstore\n        /* \"five/StakingRewards.sol\":5947:5959  stakingToken */\n      immutable(\"0x588e5ad3f145f9d841773d4229bac23d743ef980914ad5d2b613712259f67f55\")\n      sub(shl(0xa0, 0x01), 0x01)\n        /* \"five/StakingRewards.sol\":5947:5968  stakingToken.transfer */\n      and\n      swap1\n      0xa9059cbb\n      swap1\n        /* \"#utility.yul\":2379:2397   */\n      0x44\n      add\n        /* \"five/StakingRewards.sol\":5947:5989  stakingToken.transfer(msg.sender, _amount) */\n    tag_115:\n      0x20\n      mload(0x40)\n      dup1\n      dup4\n      sub\n      dup2\n      0x00\n      dup8\n      gas\n      call\n      iszero\n      dup1\n      iszero\n      tag_118\n      jumpi\n      returndatacopy(0x00, 0x00, returndatasize)\n      revert(0x00, returndatasize)\n    tag_118:\n      pop\n      pop\n      pop\n      pop\n      mload(0x40)\n      returndatasize\n      not(0x1f)\n      0x1f\n      dup3\n      add\n      and\n      dup3\n      add\n      dup1\n      0x40\n      mstore\n      pop\n      dup2\n      add\n      swap1\n      tag_119\n      swap2\n      swap1\n      tag_120\n      jump\t// in\n    tag_119:\n      pop\n        /* \"five/StakingRewards.sol\":5748:5997  function withdraw(uint _amount) external updateReward(msg.sender) {... */\n      pop\n      pop\n      jump\t// out\n        /* \"five/StakingRewards.sol\":4195:5258  function notifyRewardAmount(uint _amount) external onlyOwner updateReward(address(0)) {... */\n    tag_48:\n        /* \"five/StakingRewards.sol\":2108:2113  owner */\n      and(sub(shl(0xa0, 0x01), 0x01), sload(0x00))\n        /* \"five/StakingRewards.sol\":2094:2104  msg.sender */\n      caller\n        /* \"five/StakingRewards.sol\":2094:2113  msg.sender == owner */\n      eq\n        /* \"five/StakingRewards.sol\":2086:2127  require(msg.sender == owner, \"Not owner\") */\n      tag_122\n      jumpi\n      mload(0x40)\n      shl(0xe5, 0x461bcd)\n      dup2\n      mstore\n        /* \"#utility.yul\":2995:2997   */\n      0x20\n        /* \"five/StakingRewards.sol\":2086:2127  require(msg.sender == owner, \"Not owner\") */\n      0x04\n      dup3\n      add\n        /* \"#utility.yul\":2977:2998   */\n      mstore\n        /* \"#utility.yul\":3034:3035   */\n      0x09\n        /* \"#utility.yul\":3014:3032   */\n      0x24\n      dup3\n      add\n        /* \"#utility.yul\":3007:3036   */\n      mstore\n      shl(0xb9, 0x2737ba1037bbb732b9)\n        /* \"#utility.yul\":3052:3070   */\n      0x44\n      dup3\n      add\n        /* \"#utility.yul\":3045:3084   */\n      mstore\n        /* \"#utility.yul\":3101:3119   */\n      0x64\n      add\n        /* \"five/StakingRewards.sol\":2086:2127  require(msg.sender == owner, \"Not owner\") */\n      tag_111\n        /* \"#utility.yul\":2793:3125   */\n      jump\n        /* \"five/StakingRewards.sol\":2086:2127  require(msg.sender == owner, \"Not owner\") */\n    tag_122:\n        /* \"five/StakingRewards.sol\":4277:4278  0 */\n      0x00\n        /* \"five/StakingRewards.sol\":2871:2887  rewardPerToken() */\n      tag_126\n        /* \"five/StakingRewards.sol\":2871:2885  rewardPerToken */\n      tag_86\n        /* \"five/StakingRewards.sol\":2871:2887  rewardPerToken() */\n      jump\t// in\n    tag_126:\n        /* \"five/StakingRewards.sol\":2848:2868  rewardPerTokenStored */\n      0x05\n        /* \"five/StakingRewards.sol\":2848:2887  rewardPerTokenStored = rewardPerToken() */\n      sstore\n        /* \"five/StakingRewards.sol\":2910:2936  lastTimeRewardApplicable() */\n      tag_127\n        /* \"five/StakingRewards.sol\":2910:2934  lastTimeRewardApplicable */\n      tag_69\n        /* \"five/StakingRewards.sol\":2910:2936  lastTimeRewardApplicable() */\n      jump\t// in\n    tag_127:\n        /* \"five/StakingRewards.sol\":2898:2907  updatedAt */\n      0x03\n        /* \"five/StakingRewards.sol\":2898:2936  updatedAt = lastTimeRewardApplicable() */\n      sstore\n      sub(shl(0xa0, 0x01), 0x01)\n        /* \"five/StakingRewards.sol\":2961:2983  _account != address(0) */\n      dup2\n      and\n      iszero\n        /* \"five/StakingRewards.sol\":2957:3298  if (_account != address(0)) {... */\n      tag_128\n      jumpi\n        /* \"five/StakingRewards.sol\":3150:3166  earned(_account) */\n      tag_129\n        /* \"five/StakingRewards.sol\":3157:3165  _account */\n      dup2\n        /* \"five/StakingRewards.sol\":3150:3156  earned */\n      tag_29\n        /* \"five/StakingRewards.sol\":3150:3166  earned(_account) */\n      jump\t// in\n    tag_129:\n      sub(shl(0xa0, 0x01), 0x01)\n        /* \"five/StakingRewards.sol\":3130:3147  rewards[_account] */\n      dup3\n      and\n      0x00\n      swap1\n      dup2\n      mstore\n        /* \"five/StakingRewards.sol\":3130:3137  rewards */\n      0x07\n        /* \"five/StakingRewards.sol\":3130:3147  rewards[_account] */\n      0x20\n      swap1\n      dup2\n      mstore\n      0x40\n      dup1\n      dup4\n      keccak256\n        /* \"five/StakingRewards.sol\":3130:3166  rewards[_account] = earned(_account) */\n      swap4\n      swap1\n      swap4\n      sstore\n        /* \"five/StakingRewards.sol\":3266:3286  rewardPerTokenStored */\n      sload(0x05)\n        /* \"five/StakingRewards.sol\":3231:3253  userRewardPerTokenPaid */\n      0x06\n        /* \"five/StakingRewards.sol\":3231:3263  userRewardPerTokenPaid[_account] */\n      swap1\n      swap2\n      mstore\n      swap2\n      swap1\n      keccak256\n        /* \"five/StakingRewards.sol\":3231:3286  userRewardPerTokenPaid[_account] = rewardPerTokenStored */\n      sstore\n        /* \"five/StakingRewards.sol\":2957:3298  if (_account != address(0)) {... */\n    tag_128:\n        /* \"five/StakingRewards.sol\":4364:4372  finishAt */\n      sload(0x02)\n        /* \"five/StakingRewards.sol\":4345:4360  block.timestamp */\n      timestamp\n        /* \"five/StakingRewards.sol\":4345:4372  block.timestamp >= finishAt */\n      lt\n        /* \"five/StakingRewards.sol\":4341:4856  if (block.timestamp >= finishAt) {... */\n      tag_131\n      jumpi\n        /* \"five/StakingRewards.sol\":4412:4420  duration */\n      sload(0x01)\n        /* \"five/StakingRewards.sol\":4402:4420  _amount / duration */\n      tag_132\n      swap1\n        /* \"five/StakingRewards.sol\":4402:4409  _amount */\n      dup4\n        /* \"five/StakingRewards.sol\":4402:4420  _amount / duration */\n      tag_101\n      jump\t// in\n    tag_132:\n        /* \"five/StakingRewards.sol\":4389:4399  rewardRate */\n      0x04\n        /* \"five/StakingRewards.sol\":4389:4420  rewardRate = _amount / duration */\n      sstore\n        /* \"five/StakingRewards.sol\":4341:4856  if (block.timestamp >= finishAt) {... */\n      jump(tag_133)\n    tag_131:\n        /* \"five/StakingRewards.sol\":4586:4600  uint remaining */\n      0x00\n        /* \"five/StakingRewards.sol\":4634:4644  rewardRate */\n      sload(0x04)\n        /* \"five/StakingRewards.sol\":4615:4630  block.timestamp */\n      timestamp\n        /* \"five/StakingRewards.sol\":4604:4612  finishAt */\n      sload(0x02)\n        /* \"five/StakingRewards.sol\":4604:4630  finishAt - block.timestamp */\n      tag_134\n      swap2\n      swap1\n      tag_97\n      jump\t// in\n    tag_134:\n        /* \"five/StakingRewards.sol\":4603:4644  (finishAt - block.timestamp) * rewardRate */\n      tag_135\n      swap2\n      swap1\n      tag_99\n      jump\t// in\n    tag_135:\n        /* \"five/StakingRewards.sol\":4836:4844  duration */\n      sload(0x01)\n        /* \"five/StakingRewards.sol\":4586:4644  uint remaining = (finishAt - block.timestamp) * rewardRate */\n      swap1\n      swap2\n      pop\n        /* \"five/StakingRewards.sol\":4813:4832  remaining + _amount */\n      tag_136\n        /* \"five/StakingRewards.sol\":4825:4832  _amount */\n      dup5\n        /* \"five/StakingRewards.sol\":4586:4644  uint remaining = (finishAt - block.timestamp) * rewardRate */\n      dup4\n        /* \"five/StakingRewards.sol\":4813:4832  remaining + _amount */\n      tag_103\n      jump\t// in\n    tag_136:\n        /* \"five/StakingRewards.sol\":4812:4844  (remaining + _amount) / duration */\n      tag_137\n      swap2\n      swap1\n      tag_101\n      jump\t// in\n    tag_137:\n        /* \"five/StakingRewards.sol\":4799:4809  rewardRate */\n      0x04\n        /* \"five/StakingRewards.sol\":4799:4844  rewardRate = (remaining + _amount) / duration */\n      sstore\n      pop\n        /* \"five/StakingRewards.sol\":4341:4856  if (block.timestamp >= finishAt) {... */\n    tag_133:\n        /* \"five/StakingRewards.sol\":4889:4890  0 */\n      0x00\n        /* \"five/StakingRewards.sol\":4876:4886  rewardRate */\n      sload(0x04)\n        /* \"five/StakingRewards.sol\":4876:4890  rewardRate > 0 */\n      gt\n        /* \"five/StakingRewards.sol\":4868:4911  require(rewardRate > 0, \"Reward rate zero\") */\n      tag_138\n      jumpi\n      mload(0x40)\n      shl(0xe5, 0x461bcd)\n      dup2\n      mstore\n        /* \"#utility.yul\":3332:3334   */\n      0x20\n        /* \"five/StakingRewards.sol\":4868:4911  require(rewardRate > 0, \"Reward rate zero\") */\n      0x04\n      dup3\n      add\n        /* \"#utility.yul\":3314:3335   */\n      mstore\n        /* \"#utility.yul\":3371:3373   */\n      0x10\n        /* \"#utility.yul\":3351:3369   */\n      0x24\n      dup3\n      add\n        /* \"#utility.yul\":3344:3374   */\n      mstore\n      shl(0x80, 0x5265776172642072617465207a65726f)\n        /* \"#utility.yul\":3390:3408   */\n      0x44\n      dup3\n      add\n        /* \"#utility.yul\":3383:3429   */\n      mstore\n        /* \"#utility.yul\":3446:3464   */\n      0x64\n      add\n        /* \"five/StakingRewards.sol\":4868:4911  require(rewardRate > 0, \"Reward rate zero\") */\n      tag_111\n        /* \"#utility.yul\":3130:3470   */\n      jump\n        /* \"five/StakingRewards.sol\":4868:4911  require(rewardRate > 0, \"Reward rate zero\") */\n    tag_138:\n        /* \"five/StakingRewards.sol\":5012:5049  rewardsToken.balanceOf(address(this)) */\n      mload(0x40)\n      shl(0xe0, 0x70a08231)\n      dup2\n      mstore\n        /* \"five/StakingRewards.sol\":5043:5047  this */\n      address\n        /* \"five/StakingRewards.sol\":5012:5049  rewardsToken.balanceOf(address(this)) */\n      0x04\n      dup3\n      add\n        /* \"#utility.yul\":832:883   */\n      mstore\n        /* \"five/StakingRewards.sol\":5012:5024  rewardsToken */\n      immutable(\"0x03065c56175bab9d6c02682cec557b5c933cd8364ccf2dd44ab76e0c260931e7\")\n      sub(shl(0xa0, 0x01), 0x01)\n        /* \"five/StakingRewards.sol\":5012:5034  rewardsToken.balanceOf */\n      and\n      swap1\n      0x70a08231\n      swap1\n        /* \"#utility.yul\":805:823   */\n      0x24\n      add\n        /* \"five/StakingRewards.sol\":5012:5049  rewardsToken.balanceOf(address(this)) */\n      0x20\n      mload(0x40)\n      dup1\n      dup4\n      sub\n      dup2\n      dup7\n      gas\n      staticcall\n      iszero\n      dup1\n      iszero\n      tag_143\n      jumpi\n      returndatacopy(0x00, 0x00, returndatasize)\n      revert(0x00, returndatasize)\n    tag_143:\n      pop\n      pop\n      pop\n      pop\n      mload(0x40)\n      returndatasize\n      not(0x1f)\n      0x1f\n      dup3\n      add\n      and\n      dup3\n      add\n      dup1\n      0x40\n      mstore\n      pop\n      dup2\n      add\n      swap1\n      tag_144\n      swap2\n      swap1\n      tag_145\n      jump\t// in\n    tag_144:\n        /* \"five/StakingRewards.sol\":5000:5008  duration */\n      sload(0x01)\n        /* \"five/StakingRewards.sol\":4987:4997  rewardRate */\n      sload(0x04)\n        /* \"five/StakingRewards.sol\":4987:5008  rewardRate * duration */\n      tag_146\n      swap2\n      swap1\n      tag_99\n      jump\t// in\n    tag_146:\n        /* \"five/StakingRewards.sol\":4987:5049  rewardRate * duration <= rewardsToken.balanceOf(address(this)) */\n      gt\n      iszero\n        /* \"five/StakingRewards.sol\":4965:5103  require(... */\n      tag_147\n      jumpi\n      mload(0x40)\n      shl(0xe5, 0x461bcd)\n      dup2\n      mstore\n        /* \"#utility.yul\":3866:3868   */\n      0x20\n        /* \"five/StakingRewards.sol\":4965:5103  require(... */\n      0x04\n      dup3\n      add\n        /* \"#utility.yul\":3848:3869   */\n      mstore\n        /* \"#utility.yul\":3905:3907   */\n      0x1a\n        /* \"#utility.yul\":3885:3903   */\n      0x24\n      dup3\n      add\n        /* \"#utility.yul\":3878:3908   */\n      mstore\n        /* \"#utility.yul\":3944:3972   */\n      0x496e73756666696369656e742072657761726420746f6b656e73000000000000\n        /* \"#utility.yul\":3924:3942   */\n      0x44\n      dup3\n      add\n        /* \"#utility.yul\":3917:3973   */\n      mstore\n        /* \"#utility.yul\":3990:4008   */\n      0x64\n      add\n        /* \"five/StakingRewards.sol\":4965:5103  require(... */\n      tag_111\n        /* \"#utility.yul\":3664:4014   */\n      jump\n        /* \"five/StakingRewards.sol\":4965:5103  require(... */\n    tag_147:\n        /* \"five/StakingRewards.sol\":5173:5181  duration */\n      sload(0x01)\n        /* \"five/StakingRewards.sol\":5155:5181  block.timestamp + duration */\n      tag_150\n      swap1\n        /* \"five/StakingRewards.sol\":5155:5170  block.timestamp */\n      timestamp\n        /* \"five/StakingRewards.sol\":5155:5181  block.timestamp + duration */\n      tag_103\n      jump\t// in\n    tag_150:\n        /* \"five/StakingRewards.sol\":5144:5152  finishAt */\n      0x02\n        /* \"five/StakingRewards.sol\":5144:5181  finishAt = block.timestamp + duration */\n      sstore\n      pop\n      pop\n        /* \"five/StakingRewards.sol\":5235:5250  block.timestamp */\n      timestamp\n        /* \"five/StakingRewards.sol\":5223:5232  updatedAt */\n      0x03\n        /* \"five/StakingRewards.sol\":5223:5250  updatedAt = block.timestamp */\n      sstore\n        /* \"five/StakingRewards.sol\":4195:5258  function notifyRewardAmount(uint _amount) external onlyOwner updateReward(address(0)) {... */\n      jump\t// out\n        /* \"five/StakingRewards.sol\":6026:6265  function getReward() external updateReward(msg.sender) {... */\n    tag_50:\n        /* \"five/StakingRewards.sol\":6069:6079  msg.sender */\n      caller\n        /* \"five/StakingRewards.sol\":2871:2887  rewardPerToken() */\n      tag_152\n        /* \"five/StakingRewards.sol\":2871:2885  rewardPerToken */\n      tag_86\n        /* \"five/StakingRewards.sol\":2871:2887  rewardPerToken() */\n      jump\t// in\n    tag_152:\n        /* \"five/StakingRewards.sol\":2848:2868  rewardPerTokenStored */\n      0x05\n        /* \"five/StakingRewards.sol\":2848:2887  rewardPerTokenStored = rewardPerToken() */\n      sstore\n        /* \"five/StakingRewards.sol\":2910:2936  lastTimeRewardApplicable() */\n      tag_153\n        /* \"five/StakingRewards.sol\":2910:2934  lastTimeRewardApplicable */\n      tag_69\n        /* \"five/StakingRewards.sol\":2910:2936  lastTimeRewardApplicable() */\n      jump\t// in\n    tag_153:\n        /* \"five/StakingRewards.sol\":2898:2907  updatedAt */\n      0x03\n        /* \"five/StakingRewards.sol\":2898:2936  updatedAt = lastTimeRewardApplicable() */\n      sstore\n      sub(shl(0xa0, 0x01), 0x01)\n        /* \"five/StakingRewards.sol\":2961:2983  _account != address(0) */\n      dup2\n      and\n      iszero\n        /* \"five/StakingRewards.sol\":2957:3298  if (_account != address(0)) {... */\n      tag_154\n      jumpi\n        /* \"five/StakingRewards.sol\":3150:3166  earned(_account) */\n      tag_155\n        /* \"five/StakingRewards.sol\":3157:3165  _account */\n      dup2\n        /* \"five/StakingRewards.sol\":3150:3156  earned */\n      tag_29\n        /* \"five/StakingRewards.sol\":3150:3166  earned(_account) */\n      jump\t// in\n    tag_155:\n      sub(shl(0xa0, 0x01), 0x01)\n        /* \"five/StakingRewards.sol\":3130:3147  rewards[_account] */\n      dup3\n      and\n      0x00\n      swap1\n      dup2\n      mstore\n        /* \"five/StakingRewards.sol\":3130:3137  rewards */\n      0x07\n        /* \"five/StakingRewards.sol\":3130:3147  rewards[_account] */\n      0x20\n      swap1\n      dup2\n      mstore\n      0x40\n      dup1\n      dup4\n      keccak256\n        /* \"five/StakingRewards.sol\":3130:3166  rewards[_account] = earned(_account) */\n      swap4\n      swap1\n      swap4\n      sstore\n        /* \"five/StakingRewards.sol\":3266:3286  rewardPerTokenStored */\n      sload(0x05)\n        /* \"five/StakingRewards.sol\":3231:3253  userRewardPerTokenPaid */\n      0x06\n        /* \"five/StakingRewards.sol\":3231:3263  userRewardPerTokenPaid[_account] */\n      swap1\n      swap2\n      mstore\n      swap2\n      swap1\n      keccak256\n        /* \"five/StakingRewards.sol\":3231:3286  userRewardPerTokenPaid[_account] = rewardPerTokenStored */\n      sstore\n        /* \"five/StakingRewards.sol\":2957:3298  if (_account != address(0)) {... */\n    tag_154:\n        /* \"five/StakingRewards.sol\":6114:6124  msg.sender */\n      caller\n        /* \"five/StakingRewards.sol\":6092:6103  uint reward */\n      0x00\n        /* \"five/StakingRewards.sol\":6106:6125  rewards[msg.sender] */\n      swap1\n      dup2\n      mstore\n        /* \"five/StakingRewards.sol\":6106:6113  rewards */\n      0x07\n        /* \"five/StakingRewards.sol\":6106:6125  rewards[msg.sender] */\n      0x20\n      mstore\n      0x40\n      swap1\n      keccak256\n      sload\n        /* \"five/StakingRewards.sol\":6140:6150  reward > 0 */\n      dup1\n      iszero\n        /* \"five/StakingRewards.sol\":6136:6258  if (reward > 0) {... */\n      tag_157\n      jumpi\n        /* \"five/StakingRewards.sol\":6175:6185  msg.sender */\n      caller\n        /* \"five/StakingRewards.sol\":6189:6190  0 */\n      0x00\n        /* \"five/StakingRewards.sol\":6167:6186  rewards[msg.sender] */\n      dup2\n      dup2\n      mstore\n        /* \"five/StakingRewards.sol\":6167:6174  rewards */\n      0x07\n        /* \"five/StakingRewards.sol\":6167:6186  rewards[msg.sender] */\n      0x20\n      mstore\n      0x40\n      dup1\n      dup3\n      keccak256\n        /* \"five/StakingRewards.sol\":6167:6190  rewards[msg.sender] = 0 */\n      swap2\n      swap1\n      swap2\n      sstore\n        /* \"five/StakingRewards.sol\":6205:6246  rewardsToken.transfer(msg.sender, reward) */\n      mload\n      shl(0xe0, 0xa9059cbb)\n      dup2\n      mstore\n      0x04\n      dup2\n      add\n        /* \"#utility.yul\":2406:2457   */\n      swap2\n      swap1\n      swap2\n      mstore\n        /* \"#utility.yul\":2473:2491   */\n      0x24\n      dup2\n      add\n        /* \"#utility.yul\":2466:2500   */\n      dup3\n      swap1\n      mstore\n      sub(shl(0xa0, 0x01), 0x01)\n        /* \"five/StakingRewards.sol\":6205:6217  rewardsToken */\n      immutable(\"0x03065c56175bab9d6c02682cec557b5c933cd8364ccf2dd44ab76e0c260931e7\")\n        /* \"five/StakingRewards.sol\":6205:6226  rewardsToken.transfer */\n      and\n      swap1\n      0xa9059cbb\n      swap1\n        /* \"#utility.yul\":2379:2397   */\n      0x44\n      add\n        /* \"five/StakingRewards.sol\":6205:6246  rewardsToken.transfer(msg.sender, reward) */\n      tag_115\n        /* \"#utility.yul\":2232:2506   */\n      jump\n        /* \"five/StakingRewards.sol\":6136:6258  if (reward > 0) {... */\n    tag_157:\n        /* \"five/StakingRewards.sol\":6081:6265  {... */\n      pop\n        /* \"five/StakingRewards.sol\":6026:6265  function getReward() external updateReward(msg.sender) {... */\n      pop\n      jump\t// out\n        /* \"five/StakingRewards.sol\":6306:6450  function lastTimeRewardApplicable() public view returns (uint) {... */\n    tag_69:\n        /* \"five/StakingRewards.sol\":6363:6367  uint */\n      0x00\n        /* \"five/StakingRewards.sol\":6405:6413  finishAt */\n      sload(0x02)\n        /* \"five/StakingRewards.sol\":6387:6402  block.timestamp */\n      timestamp\n        /* \"five/StakingRewards.sol\":6387:6413  block.timestamp < finishAt */\n      lt\n        /* \"five/StakingRewards.sol\":6387:6442  block.timestamp < finishAt ? block.timestamp : finishAt */\n      tag_163\n      jumpi\n      pop\n        /* \"five/StakingRewards.sol\":6434:6442  finishAt */\n      sload(0x02)\n      swap1\n        /* \"five/StakingRewards.sol\":6306:6450  function lastTimeRewardApplicable() public view returns (uint) {... */\n      jump\t// out\n        /* \"five/StakingRewards.sol\":6387:6442  block.timestamp < finishAt ? block.timestamp : finishAt */\n    tag_163:\n        /* \"five/StakingRewards.sol\":6416:6431  block.timestamp */\n      timestamp\n        /* \"five/StakingRewards.sol\":6387:6442  block.timestamp < finishAt ? block.timestamp : finishAt */\n    tag_164:\n        /* \"five/StakingRewards.sol\":6380:6442  return block.timestamp < finishAt ? block.timestamp : finishAt */\n      swap1\n      pop\n        /* \"five/StakingRewards.sol\":6306:6450  function lastTimeRewardApplicable() public view returns (uint) {... */\n      swap1\n      jump\t// out\n        /* \"five/StakingRewards.sol\":5411:5719  function stake(uint _amount) external updateReward(msg.sender) {... */\n    tag_81:\n        /* \"five/StakingRewards.sol\":5462:5472  msg.sender */\n      caller\n        /* \"five/StakingRewards.sol\":2871:2887  rewardPerToken() */\n      tag_166\n        /* \"five/StakingRewards.sol\":2871:2885  rewardPerToken */\n      tag_86\n        /* \"five/StakingRewards.sol\":2871:2887  rewardPerToken() */\n      jump\t// in\n    tag_166:\n        /* \"five/StakingRewards.sol\":2848:2868  rewardPerTokenStored */\n      0x05\n        /* \"five/StakingRewards.sol\":2848:2887  rewardPerTokenStored = rewardPerToken() */\n      sstore\n        /* \"five/StakingRewards.sol\":2910:2936  lastTimeRewardApplicable() */\n      tag_167\n        /* \"five/StakingRewards.sol\":2910:2934  lastTimeRewardApplicable */\n      tag_69\n        /* \"five/StakingRewards.sol\":2910:2936  lastTimeRewardApplicable() */\n      jump\t// in\n    tag_167:\n        /* \"five/StakingRewards.sol\":2898:2907  updatedAt */\n      0x03\n        /* \"five/StakingRewards.sol\":2898:2936  updatedAt = lastTimeRewardApplicable() */\n      sstore\n      sub(shl(0xa0, 0x01), 0x01)\n        /* \"five/StakingRewards.sol\":2961:2983  _account != address(0) */\n      dup2\n      and\n      iszero\n        /* \"five/StakingRewards.sol\":2957:3298  if (_account != address(0)) {... */\n      tag_168\n      jumpi\n        /* \"five/StakingRewards.sol\":3150:3166  earned(_account) */\n      tag_169\n        /* \"five/StakingRewards.sol\":3157:3165  _account */\n      dup2\n        /* \"five/StakingRewards.sol\":3150:3156  earned */\n      tag_29\n        /* \"five/StakingRewards.sol\":3150:3166  earned(_account) */\n      jump\t// in\n    tag_169:\n      sub(shl(0xa0, 0x01), 0x01)\n        /* \"five/StakingRewards.sol\":3130:3147  rewards[_account] */\n      dup3\n      and\n      0x00\n      swap1\n      dup2\n      mstore\n        /* \"five/StakingRewards.sol\":3130:3137  rewards */\n      0x07\n        /* \"five/StakingRewards.sol\":3130:3147  rewards[_account] */\n      0x20\n      swap1\n      dup2\n      mstore\n      0x40\n      dup1\n      dup4\n      keccak256\n        /* \"five/StakingRewards.sol\":3130:3166  rewards[_account] = earned(_account) */\n      swap4\n      swap1\n      swap4\n      sstore\n        /* \"five/StakingRewards.sol\":3266:3286  rewardPerTokenStored */\n      sload(0x05)\n        /* \"five/StakingRewards.sol\":3231:3253  userRewardPerTokenPaid */\n      0x06\n        /* \"five/StakingRewards.sol\":3231:3263  userRewardPerTokenPaid[_account] */\n      swap1\n      swap2\n      mstore\n      swap2\n      swap1\n      keccak256\n        /* \"five/StakingRewards.sol\":3231:3286  userRewardPerTokenPaid[_account] = rewardPerTokenStored */\n      sstore\n        /* \"five/StakingRewards.sol\":2957:3298  if (_account != address(0)) {... */\n    tag_168:\n        /* \"five/StakingRewards.sol\":5503:5504  0 */\n      0x00\n        /* \"five/StakingRewards.sol\":5493:5500  _amount */\n      dup3\n        /* \"five/StakingRewards.sol\":5493:5504  _amount > 0 */\n      gt\n        /* \"five/StakingRewards.sol\":5485:5520  require(_amount > 0, \"Amount zero\") */\n      tag_171\n      jumpi\n      mload(0x40)\n      shl(0xe5, 0x461bcd)\n      dup2\n      mstore\n        /* \"#utility.yul\":2094:2096   */\n      0x20\n        /* \"five/StakingRewards.sol\":5485:5520  require(_amount > 0, \"Amount zero\") */\n      0x04\n      dup3\n      add\n        /* \"#utility.yul\":2076:2097   */\n      mstore\n        /* \"#utility.yul\":2133:2135   */\n      0x0b\n        /* \"#utility.yul\":2113:2131   */\n      0x24\n      dup3\n      add\n        /* \"#utility.yul\":2106:2136   */\n      mstore\n      shl(0xa8, 0x416d6f756e74207a65726f)\n        /* \"#utility.yul\":2152:2170   */\n      0x44\n      dup3\n      add\n        /* \"#utility.yul\":2145:2186   */\n      mstore\n        /* \"#utility.yul\":2203:2221   */\n      0x64\n      add\n        /* \"five/StakingRewards.sol\":5485:5520  require(_amount > 0, \"Amount zero\") */\n      tag_111\n        /* \"#utility.yul\":1892:2227   */\n      jump\n        /* \"five/StakingRewards.sol\":5485:5520  require(_amount > 0, \"Amount zero\") */\n    tag_171:\n        /* \"five/StakingRewards.sol\":5541:5551  msg.sender */\n      caller\n        /* \"five/StakingRewards.sol\":5531:5552  balanceOf[msg.sender] */\n      0x00\n      swap1\n      dup2\n      mstore\n        /* \"five/StakingRewards.sol\":5531:5540  balanceOf */\n      0x08\n        /* \"five/StakingRewards.sol\":5531:5552  balanceOf[msg.sender] */\n      0x20\n      mstore\n      0x40\n      dup2\n      keccak256\n        /* \"five/StakingRewards.sol\":5531:5563  balanceOf[msg.sender] += _amount */\n      dup1\n      sload\n        /* \"five/StakingRewards.sol\":5556:5563  _amount */\n      dup5\n      swap3\n        /* \"five/StakingRewards.sol\":5531:5552  balanceOf[msg.sender] */\n      swap1\n        /* \"five/StakingRewards.sol\":5531:5563  balanceOf[msg.sender] += _amount */\n      tag_173\n      swap1\n        /* \"five/StakingRewards.sol\":5556:5563  _amount */\n      dup5\n      swap1\n        /* \"five/StakingRewards.sol\":5531:5563  balanceOf[msg.sender] += _amount */\n      tag_103\n      jump\t// in\n    tag_173:\n      swap3\n      pop\n      pop\n      dup2\n      swap1\n      sstore\n      pop\n        /* \"five/StakingRewards.sol\":5589:5596  _amount */\n      dup2\n        /* \"five/StakingRewards.sol\":5574:5585  totalSupply */\n      0x09\n      0x00\n        /* \"five/StakingRewards.sol\":5574:5596  totalSupply += _amount */\n      dup3\n      dup3\n      sload\n      tag_174\n      swap2\n      swap1\n      tag_103\n      jump\t// in\n    tag_174:\n      swap1\n      swap2\n      sstore\n      pop\n      pop\n        /* \"five/StakingRewards.sol\":5650:5711  stakingToken.transferFrom(msg.sender, address(this), _amount) */\n      mload(0x40)\n      shl(0xe0, 0x23b872dd)\n      dup2\n      mstore\n        /* \"five/StakingRewards.sol\":5676:5686  msg.sender */\n      caller\n        /* \"five/StakingRewards.sol\":5650:5711  stakingToken.transferFrom(msg.sender, address(this), _amount) */\n      0x04\n      dup3\n      add\n        /* \"#utility.yul\":4221:4272   */\n      mstore\n        /* \"five/StakingRewards.sol\":5696:5700  this */\n      address\n        /* \"#utility.yul\":4288:4306   */\n      0x24\n      dup3\n      add\n        /* \"#utility.yul\":4281:4341   */\n      mstore\n        /* \"#utility.yul\":4357:4375   */\n      0x44\n      dup2\n      add\n        /* \"#utility.yul\":4350:4384   */\n      dup4\n      swap1\n      mstore\n        /* \"five/StakingRewards.sol\":5650:5662  stakingToken */\n      immutable(\"0x588e5ad3f145f9d841773d4229bac23d743ef980914ad5d2b613712259f67f55\")\n      sub(shl(0xa0, 0x01), 0x01)\n        /* \"five/StakingRewards.sol\":5650:5675  stakingToken.transferFrom */\n      and\n      swap1\n      0x23b872dd\n      swap1\n        /* \"#utility.yul\":4194:4212   */\n      0x64\n      add\n        /* \"five/StakingRewards.sol\":5650:5711  stakingToken.transferFrom(msg.sender, address(this), _amount) */\n      tag_115\n        /* \"#utility.yul\":4019:4390   */\n      jump\n        /* \"five/StakingRewards.sol\":3594:3775  function setRewardDuration(uint _duration) external onlyOwner {... */\n    tag_84:\n        /* \"five/StakingRewards.sol\":2108:2113  owner */\n      and(sub(shl(0xa0, 0x01), 0x01), sload(0x00))\n        /* \"five/StakingRewards.sol\":2094:2104  msg.sender */\n      caller\n        /* \"five/StakingRewards.sol\":2094:2113  msg.sender == owner */\n      eq\n        /* \"five/StakingRewards.sol\":2086:2127  require(msg.sender == owner, \"Not owner\") */\n      tag_181\n      jumpi\n      mload(0x40)\n      shl(0xe5, 0x461bcd)\n      dup2\n      mstore\n        /* \"#utility.yul\":2995:2997   */\n      0x20\n        /* \"five/StakingRewards.sol\":2086:2127  require(msg.sender == owner, \"Not owner\") */\n      0x04\n      dup3\n      add\n        /* \"#utility.yul\":2977:2998   */\n      mstore\n        /* \"#utility.yul\":3034:3035   */\n      0x09\n        /* \"#utility.yul\":3014:3032   */\n      0x24\n      dup3\n      add\n        /* \"#utility.yul\":3007:3036   */\n      mstore\n      shl(0xb9, 0x2737ba1037bbb732b9)\n        /* \"#utility.yul\":3052:3070   */\n      0x44\n      dup3\n      add\n        /* \"#utility.yul\":3045:3084   */\n      mstore\n        /* \"#utility.yul\":3101:3119   */\n      0x64\n      add\n        /* \"five/StakingRewards.sol\":2086:2127  require(msg.sender == owner, \"Not owner\") */\n      tag_111\n        /* \"#utility.yul\":2793:3125   */\n      jump\n        /* \"five/StakingRewards.sol\":2086:2127  require(msg.sender == owner, \"Not owner\") */\n    tag_181:\n        /* \"five/StakingRewards.sol\":3686:3701  block.timestamp */\n      timestamp\n        /* \"five/StakingRewards.sol\":3675:3683  finishAt */\n      sload(0x02)\n        /* \"five/StakingRewards.sol\":3675:3701  finishAt < block.timestamp */\n      lt\n        /* \"five/StakingRewards.sol\":3667:3736  require(finishAt < block.timestamp, \"Previous rewards not completed\") */\n      tag_184\n      jumpi\n      mload(0x40)\n      shl(0xe5, 0x461bcd)\n      dup2\n      mstore\n        /* \"#utility.yul\":4597:4599   */\n      0x20\n        /* \"five/StakingRewards.sol\":3667:3736  require(finishAt < block.timestamp, \"Previous rewards not completed\") */\n      0x04\n      dup3\n      add\n        /* \"#utility.yul\":4579:4600   */\n      mstore\n        /* \"#utility.yul\":4636:4638   */\n      0x1e\n        /* \"#utility.yul\":4616:4634   */\n      0x24\n      dup3\n      add\n        /* \"#utility.yul\":4609:4639   */\n      mstore\n        /* \"#utility.yul\":4675:4707   */\n      0x50726576696f75732072657761726473206e6f7420636f6d706c657465640000\n        /* \"#utility.yul\":4655:4673   */\n      0x44\n      dup3\n      add\n        /* \"#utility.yul\":4648:4708   */\n      mstore\n        /* \"#utility.yul\":4725:4743   */\n      0x64\n      add\n        /* \"five/StakingRewards.sol\":3667:3736  require(finishAt < block.timestamp, \"Previous rewards not completed\") */\n      tag_111\n        /* \"#utility.yul\":4395:4749   */\n      jump\n        /* \"five/StakingRewards.sol\":3667:3736  require(finishAt < block.timestamp, \"Previous rewards not completed\") */\n    tag_184:\n        /* \"five/StakingRewards.sol\":3747:3755  duration */\n      0x01\n        /* \"five/StakingRewards.sol\":3747:3767  duration = _duration */\n      sstore\n        /* \"five/StakingRewards.sol\":3594:3775  function setRewardDuration(uint _duration) external onlyOwner {... */\n      jump\t// out\n        /* \"five/StakingRewards.sol\":6509:6862  function rewardPerToken() public view returns (uint) {... */\n    tag_86:\n        /* \"five/StakingRewards.sol\":6556:6560  uint */\n      0x00\n        /* \"five/StakingRewards.sol\":6577:6588  totalSupply */\n      sload(0x09)\n        /* \"five/StakingRewards.sol\":6592:6593  0 */\n      0x00\n        /* \"five/StakingRewards.sol\":6577:6593  totalSupply == 0 */\n      sub\n        /* \"five/StakingRewards.sol\":6573:6622  if (totalSupply == 0) return rewardPerTokenStored */\n      tag_188\n      jumpi\n      pop\n        /* \"five/StakingRewards.sol\":6602:6622  rewardPerTokenStored */\n      sload(0x05)\n      swap1\n        /* \"five/StakingRewards.sol\":6509:6862  function rewardPerToken() public view returns (uint) {... */\n      jump\t// out\n        /* \"five/StakingRewards.sol\":6573:6622  if (totalSupply == 0) return rewardPerTokenStored */\n    tag_188:\n        /* \"five/StakingRewards.sol\":6820:6831  totalSupply */\n      sload(0x09)\n        /* \"five/StakingRewards.sol\":6735:6744  updatedAt */\n      sload(0x03)\n        /* \"five/StakingRewards.sol\":6706:6732  lastTimeRewardApplicable() */\n      tag_189\n        /* \"five/StakingRewards.sol\":6706:6730  lastTimeRewardApplicable */\n      tag_69\n        /* \"five/StakingRewards.sol\":6706:6732  lastTimeRewardApplicable() */\n      jump\t// in\n    tag_189:\n        /* \"five/StakingRewards.sol\":6706:6744  lastTimeRewardApplicable() - updatedAt */\n      tag_190\n      swap2\n      swap1\n      tag_97\n      jump\t// in\n    tag_190:\n        /* \"five/StakingRewards.sol\":6678:6688  rewardRate */\n      sload(0x04)\n        /* \"five/StakingRewards.sol\":6678:6745  rewardRate * ... */\n      tag_191\n      swap2\n      swap1\n      tag_99\n      jump\t// in\n    tag_191:\n        /* \"five/StakingRewards.sol\":6678:6787  rewardRate * ... */\n      tag_192\n      swap1\n        /* \"five/StakingRewards.sol\":6783:6787  1e18 */\n      0x0de0b6b3a7640000\n        /* \"five/StakingRewards.sol\":6678:6787  rewardRate * ... */\n      tag_99\n      jump\t// in\n    tag_192:\n        /* \"five/StakingRewards.sol\":6677:6831  (rewardRate * ... */\n      tag_193\n      swap2\n      swap1\n      tag_101\n      jump\t// in\n    tag_193:\n        /* \"five/StakingRewards.sol\":6640:6660  rewardPerTokenStored */\n      sload(0x05)\n        /* \"five/StakingRewards.sol\":6640:6831  rewardPerTokenStored + ... */\n      tag_164\n      swap2\n      swap1\n      tag_103\n      jump\t// in\n        /* \"#utility.yul\":14:300   */\n    tag_28:\n        /* \"#utility.yul\":73:79   */\n      0x00\n        /* \"#utility.yul\":126:128   */\n      0x20\n        /* \"#utility.yul\":114:123   */\n      dup3\n        /* \"#utility.yul\":105:112   */\n      dup5\n        /* \"#utility.yul\":101:124   */\n      sub\n        /* \"#utility.yul\":97:129   */\n      slt\n        /* \"#utility.yul\":94:146   */\n      iszero\n      tag_198\n      jumpi\n        /* \"#utility.yul\":142:143   */\n      0x00\n        /* \"#utility.yul\":139:140   */\n      0x00\n        /* \"#utility.yul\":132:144   */\n      revert\n        /* \"#utility.yul\":94:146   */\n    tag_198:\n        /* \"#utility.yul\":168:191   */\n      dup2\n      calldataload\n      sub(shl(0xa0, 0x01), 0x01)\n        /* \"#utility.yul\":220:251   */\n      dup2\n      and\n        /* \"#utility.yul\":210:252   */\n      dup2\n      eq\n        /* \"#utility.yul\":200:270   */\n      tag_199\n      jumpi\n        /* \"#utility.yul\":266:267   */\n      0x00\n        /* \"#utility.yul\":263:264   */\n      0x00\n        /* \"#utility.yul\":256:268   */\n      revert\n        /* \"#utility.yul\":200:270   */\n    tag_199:\n        /* \"#utility.yul\":289:294   */\n      swap4\n        /* \"#utility.yul\":14:300   */\n      swap3\n      pop\n      pop\n      pop\n      jump\t// out\n        /* \"#utility.yul\":487:667   */\n    tag_44:\n        /* \"#utility.yul\":546:552   */\n      0x00\n        /* \"#utility.yul\":599:601   */\n      0x20\n        /* \"#utility.yul\":587:596   */\n      dup3\n        /* \"#utility.yul\":578:585   */\n      dup5\n        /* \"#utility.yul\":574:597   */\n      sub\n        /* \"#utility.yul\":570:602   */\n      slt\n        /* \"#utility.yul\":567:619   */\n      iszero\n      tag_202\n      jumpi\n        /* \"#utility.yul\":615:616   */\n      0x00\n        /* \"#utility.yul\":612:613   */\n      0x00\n        /* \"#utility.yul\":605:617   */\n      revert\n        /* \"#utility.yul\":567:619   */\n    tag_202:\n      pop\n        /* \"#utility.yul\":638:661   */\n      calldataload\n      swap2\n        /* \"#utility.yul\":487:667   */\n      swap1\n      pop\n      jump\t// out\n        /* \"#utility.yul\":1102:1229   */\n    tag_195:\n        /* \"#utility.yul\":1163:1173   */\n      0x4e487b71\n        /* \"#utility.yul\":1158:1161   */\n      0xe0\n        /* \"#utility.yul\":1154:1174   */\n      shl\n        /* \"#utility.yul\":1151:1152   */\n      0x00\n        /* \"#utility.yul\":1144:1175   */\n      mstore\n        /* \"#utility.yul\":1194:1198   */\n      0x11\n        /* \"#utility.yul\":1191:1192   */\n      0x04\n        /* \"#utility.yul\":1184:1199   */\n      mstore\n        /* \"#utility.yul\":1218:1222   */\n      0x24\n        /* \"#utility.yul\":1215:1216   */\n      0x00\n        /* \"#utility.yul\":1208:1223   */\n      revert\n        /* \"#utility.yul\":1234:1362   */\n    tag_97:\n        /* \"#utility.yul\":1301:1310   */\n      dup2\n      dup2\n      sub\n        /* \"#utility.yul\":1322:1333   */\n      dup2\n      dup2\n      gt\n        /* \"#utility.yul\":1319:1356   */\n      iszero\n      tag_102\n      jumpi\n        /* \"#utility.yul\":1336:1354   */\n      tag_102\n      tag_195\n      jump\t// in\n        /* \"#utility.yul\":1367:1535   */\n    tag_99:\n        /* \"#utility.yul\":1440:1449   */\n      dup1\n      dup3\n      mul\n        /* \"#utility.yul\":1471:1480   */\n      dup2\n      iszero\n        /* \"#utility.yul\":1488:1503   */\n      dup3\n      dup3\n      div\n        /* \"#utility.yul\":1482:1504   */\n      dup5\n      eq\n        /* \"#utility.yul\":1468:1505   */\n      or\n        /* \"#utility.yul\":1458:1529   */\n      tag_102\n      jumpi\n        /* \"#utility.yul\":1509:1527   */\n      tag_102\n      tag_195\n      jump\t// in\n        /* \"#utility.yul\":1540:1757   */\n    tag_101:\n        /* \"#utility.yul\":1580:1581   */\n      0x00\n        /* \"#utility.yul\":1606:1607   */\n      dup3\n        /* \"#utility.yul\":1596:1728   */\n      tag_213\n      jumpi\n        /* \"#utility.yul\":1650:1660   */\n      0x4e487b71\n        /* \"#utility.yul\":1645:1648   */\n      0xe0\n        /* \"#utility.yul\":1641:1661   */\n      shl\n        /* \"#utility.yul\":1638:1639   */\n      0x00\n        /* \"#utility.yul\":1631:1662   */\n      mstore\n        /* \"#utility.yul\":1685:1689   */\n      0x12\n        /* \"#utility.yul\":1682:1683   */\n      0x04\n        /* \"#utility.yul\":1675:1690   */\n      mstore\n        /* \"#utility.yul\":1713:1717   */\n      0x24\n        /* \"#utility.yul\":1710:1711   */\n      0x00\n        /* \"#utility.yul\":1703:1718   */\n      revert\n        /* \"#utility.yul\":1596:1728   */\n    tag_213:\n      pop\n        /* \"#utility.yul\":1742:1751   */\n      div\n      swap1\n        /* \"#utility.yul\":1540:1757   */\n      jump\t// out\n        /* \"#utility.yul\":1762:1887   */\n    tag_103:\n        /* \"#utility.yul\":1827:1836   */\n      dup1\n      dup3\n      add\n        /* \"#utility.yul\":1848:1858   */\n      dup1\n      dup3\n      gt\n        /* \"#utility.yul\":1845:1881   */\n      iszero\n      tag_102\n      jumpi\n        /* \"#utility.yul\":1861:1879   */\n      tag_102\n      tag_195\n      jump\t// in\n        /* \"#utility.yul\":2511:2788   */\n    tag_120:\n        /* \"#utility.yul\":2578:2584   */\n      0x00\n        /* \"#utility.yul\":2631:2633   */\n      0x20\n        /* \"#utility.yul\":2619:2628   */\n      dup3\n        /* \"#utility.yul\":2610:2617   */\n      dup5\n        /* \"#utility.yul\":2606:2629   */\n      sub\n        /* \"#utility.yul\":2602:2634   */\n      slt\n        /* \"#utility.yul\":2599:2651   */\n      iszero\n      tag_220\n      jumpi\n        /* \"#utility.yul\":2647:2648   */\n      0x00\n        /* \"#utility.yul\":2644:2645   */\n      0x00\n        /* \"#utility.yul\":2637:2649   */\n      revert\n        /* \"#utility.yul\":2599:2651   */\n    tag_220:\n        /* \"#utility.yul\":2679:2688   */\n      dup2\n        /* \"#utility.yul\":2673:2689   */\n      mload\n        /* \"#utility.yul\":2732:2737   */\n      dup1\n        /* \"#utility.yul\":2725:2738   */\n      iszero\n        /* \"#utility.yul\":2718:2739   */\n      iszero\n        /* \"#utility.yul\":2711:2716   */\n      dup2\n        /* \"#utility.yul\":2708:2740   */\n      eq\n        /* \"#utility.yul\":2698:2758   */\n      tag_199\n      jumpi\n        /* \"#utility.yul\":2754:2755   */\n      0x00\n        /* \"#utility.yul\":2751:2752   */\n      0x00\n        /* \"#utility.yul\":2744:2756   */\n      revert\n        /* \"#utility.yul\":3475:3659   */\n    tag_145:\n        /* \"#utility.yul\":3545:3551   */\n      0x00\n        /* \"#utility.yul\":3598:3600   */\n      0x20\n        /* \"#utility.yul\":3586:3595   */\n      dup3\n        /* \"#utility.yul\":3577:3584   */\n      dup5\n        /* \"#utility.yul\":3573:3596   */\n      sub\n        /* \"#utility.yul\":3569:3601   */\n      slt\n        /* \"#utility.yul\":3566:3618   */\n      iszero\n      tag_225\n      jumpi\n        /* \"#utility.yul\":3614:3615   */\n      0x00\n        /* \"#utility.yul\":3611:3612   */\n      0x00\n        /* \"#utility.yul\":3604:3616   */\n      revert\n        /* \"#utility.yul\":3566:3618   */\n    tag_225:\n      pop\n        /* \"#utility.yul\":3637:3653   */\n      mload\n      swap2\n        /* \"#utility.yul\":3475:3659   */\n      swap1\n      pop\n      jump\t// out\n\n    auxdata: 0xa26469706673582212208d94054b8b22d3e370d9406a8b4a167c056ed608c038381b237e8596669be12b64736f6c634300081d0033\n}\n",
				"bytecode": {
					"linkReferences": {},
					"object": "60c060405234801561000f575f5ffd5b50604051610bf4380380610bf483398101604081905261002e91610071565b5f80546001600160a01b031916331790556001600160a01b039182166080521660a0526100a2565b80516001600160a01b038116811461006c575f5ffd5b919050565b5f5f60408385031215610082575f5ffd5b61008b83610056565b915061009960208401610056565b90509250929050565b60805160a051610b156100df5f395f8181610296015281816105f8015261078501525f81816101de0152818161042f01526108c40152610b155ff3fe608060405234801561000f575f5ffd5b5060043610610126575f3560e01c80637519ab50116100a9578063a694fc3a1161006e578063a694fc3a14610263578063c0ed00c914610276578063cd3daf9d14610289578063d1af0c7d14610291578063df136d65146102b8575f5ffd5b80637519ab50146102185780637b0a47ee1461022157806380faa57d1461022a5780638b876347146102325780638da5cb5b14610251575f5ffd5b80633c6b16ab116100ef5780633c6b16ab146101965780633d18b912146101a957806367d3b488146101b157806370a08231146101ba57806372f702f3146101d9575f5ffd5b80628cc2621461012a5780630700037d146101505780630fb5a6b41461016f57806318160ddd146101785780632e1a7d4d14610181575b5f5ffd5b61013d6101383660046109f5565b6102c1565b6040519081526020015b60405180910390f35b61013d61015e3660046109f5565b60076020525f908152604090205481565b61013d60015481565b61013d60095481565b61019461018f366004610a22565b61033c565b005b6101946101a4366004610a22565b6104a7565b6101946106df565b61013d60025481565b61013d6101c83660046109f5565b60086020525f908152604090205481565b6102007f000000000000000000000000000000000000000000000000000000000000000081565b6040516001600160a01b039091168152602001610147565b61013d60035481565b61013d60045481565b61013d6107b8565b61013d6102403660046109f5565b60066020525f908152604090205481565b5f54610200906001600160a01b031681565b610194610271366004610a22565b6107d0565b610194610284366004610a22565b6108fb565b61013d610996565b6102007f000000000000000000000000000000000000000000000000000000000000000081565b61013d60055481565b6001600160a01b0381165f908152600760209081526040808320546006909252822054670de0b6b3a7640000906102f6610996565b6103009190610a4d565b6001600160a01b0385165f908152600860205260409020546103229190610a60565b61032c9190610a77565b6103369190610a96565b92915050565b33610345610996565b6005556103506107b8565b6003556001600160a01b038116156103965761036b816102c1565b6001600160a01b0382165f908152600760209081526040808320939093556005546006909152919020555b5f82116103d85760405162461bcd60e51b815260206004820152600b60248201526a416d6f756e74207a65726f60a81b60448201526064015b60405180910390fd5b335f90815260086020526040812080548492906103f6908490610a4d565b925050819055508160095f82825461040e9190610a4d565b909155505060405163a9059cbb60e01b8152336004820152602481018390527f00000000000000000000000000000000000000000000000000000000000000006001600160a01b03169063a9059cbb906044015b6020604051808303815f875af115801561047e573d5f5f3e3d5ffd5b505050506040513d601f19601f820116820180604052508101906104a29190610aa9565b505050565b5f546001600160a01b031633146104ec5760405162461bcd60e51b81526020600482015260096024820152682737ba1037bbb732b960b91b60448201526064016103cf565b5f6104f5610996565b6005556105006107b8565b6003556001600160a01b038116156105465761051b816102c1565b6001600160a01b0382165f908152600760209081526040808320939093556005546006909152919020555b60025442106105645760015461055c9083610a77565b60045561059f565b5f600454426002546105769190610a4d565b6105809190610a60565b6001549091506105908483610a96565b61059a9190610a77565b600455505b5f600454116105e35760405162461bcd60e51b815260206004820152601060248201526f5265776172642072617465207a65726f60801b60448201526064016103cf565b6040516370a0823160e01b81523060048201527f00000000000000000000000000000000000000000000000000000000000000006001600160a01b0316906370a0823190602401602060405180830381865afa158015610645573d5f5f3e3d5ffd5b505050506040513d601f19601f820116820180604052508101906106699190610ac8565b6001546004546106799190610a60565b11156106c75760405162461bcd60e51b815260206004820152601a60248201527f496e73756666696369656e742072657761726420746f6b656e7300000000000060448201526064016103cf565b6001546106d49042610a96565b600255505042600355565b336106e8610996565b6005556106f36107b8565b6003556001600160a01b038116156107395761070e816102c1565b6001600160a01b0382165f908152600760209081526040808320939093556005546006909152919020555b335f9081526007602052604090205480156107b457335f81815260076020526040808220919091555163a9059cbb60e01b81526004810191909152602481018290526001600160a01b037f0000000000000000000000000000000000000000000000000000000000000000169063a9059cbb90604401610462565b5050565b5f60025442106107c9575060025490565b425b905090565b336107d9610996565b6005556107e46107b8565b6003556001600160a01b0381161561082a576107ff816102c1565b6001600160a01b0382165f908152600760209081526040808320939093556005546006909152919020555b5f82116108675760405162461bcd60e51b815260206004820152600b60248201526a416d6f756e74207a65726f60a81b60448201526064016103cf565b335f9081526008602052604081208054849290610885908490610a96565b925050819055508160095f82825461089d9190610a96565b90915550506040516323b872dd60e01b8152336004820152306024820152604481018390527f00000000000000000000000000000000000000000000000000000000000000006001600160a01b0316906323b872dd90606401610462565b5f546001600160a01b031633146109405760405162461bcd60e51b81526020600482015260096024820152682737ba1037bbb732b960b91b60448201526064016103cf565b42600254106109915760405162461bcd60e51b815260206004820152601e60248201527f50726576696f75732072657761726473206e6f7420636f6d706c65746564000060448201526064016103cf565b600155565b5f6009545f036109a7575060055490565b6009546003546109b56107b8565b6109bf9190610a4d565b6004546109cc9190610a60565b6109de90670de0b6b3a7640000610a60565b6109e89190610a77565b6005546107cb9190610a96565b5f60208284031215610a05575f5ffd5b81356001600160a01b0381168114610a1b575f5ffd5b9392505050565b5f60208284031215610a32575f5ffd5b5035919050565b634e487b7160e01b5f52601160045260245ffd5b8181038181111561033657610336610a39565b808202811582820484141761033657610336610a39565b5f82610a9157634e487b7160e01b5f52601260045260245ffd5b500490565b8082018082111561033657610336610a39565b5f60208284031215610ab9575f5ffd5b81518015158114610a1b575f5ffd5b5f60208284031215610ad8575f5ffd5b505191905056fea26469706673582212208d94054b8b22d3e370d9406a8b4a167c056ed608c038381b237e8596669be12b64736f6c634300081d0033",
					"opcodes": "PUSH1 0xC0 PUSH1 0x40 MSTORE CALLVALUE DUP1 ISZERO PUSH2 0xF JUMPI PUSH0 PUSH0 REVERT JUMPDEST POP PUSH1 0x40 MLOAD PUSH2 0xBF4 CODESIZE SUB DUP1 PUSH2 0xBF4 DUP4 CODECOPY DUP2 ADD PUSH1 0x40 DUP2 SWAP1 MSTORE PUSH2 0x2E SWAP2 PUSH2 0x71 JUMP JUMPDEST PUSH0 DUP1 SLOAD PUSH1 0x1 PUSH1 0x1 PUSH1 0xA0 SHL SUB NOT AND CALLER OR SWAP1 SSTORE PUSH1 0x1 PUSH1 0x1 PUSH1 0xA0 SHL SUB SWAP2 DUP3 AND PUSH1 0x80 MSTORE AND PUSH1 0xA0 MSTORE PUSH2 0xA2 JUMP JUMPDEST DUP1 MLOAD PUSH1 0x1 PUSH1 0x1 PUSH1 0xA0 SHL SUB DUP2 AND DUP2 EQ PUSH2 0x6C JUMPI PUSH0 PUSH0 REVERT JUMPDEST SWAP2 SWAP1 POP JUMP JUMPDEST PUSH0 PUSH0 PUSH1 0x40 DUP4 DUP6 SUB SLT ISZERO PUSH2 0x82 JUMPI PUSH0 PUSH0 REVERT JUMPDEST PUSH2 0x8B DUP4 PUSH2 0x56 JUMP JUMPDEST SWAP2 POP PUSH2 0x99 PUSH1 0x20 DUP5 ADD PUSH2 0x56 JUMP JUMPDEST SWAP1 POP SWAP3 POP SWAP3 SWAP1 POP JUMP JUMPDEST PUSH1 0x80 MLOAD PUSH1 0xA0 MLOAD PUSH2 0xB15 PUSH2 0xDF PUSH0 CODECOPY PUSH0 DUP2 DUP2 PUSH2 0x296 ADD MSTORE DUP2 DUP2 PUSH2 0x5F8 ADD MSTORE PUSH2 0x785 ADD MSTORE PUSH0 DUP2 DUP2 PUSH2 0x1DE ADD MSTORE DUP2 DUP2 PUSH2 0x42F ADD MSTORE PUSH2 0x8C4 ADD MSTORE PUSH2 0xB15 PUSH0 RETURN INVALID PUSH1 0x80 PUSH1 0x40 MSTORE CALLVALUE DUP1 ISZERO PUSH2 0xF JUMPI PUSH0 PUSH0 REVERT JUMPDEST POP PUSH1 0x4 CALLDATASIZE LT PUSH2 0x126 JUMPI PUSH0 CALLDATALOAD PUSH1 0xE0 SHR DUP1 PUSH4 0x7519AB50 GT PUSH2 0xA9 JUMPI DUP1 PUSH4 0xA694FC3A GT PUSH2 0x6E JUMPI DUP1 PUSH4 0xA694FC3A EQ PUSH2 0x263 JUMPI DUP1 PUSH4 0xC0ED00C9 EQ PUSH2 0x276 JUMPI DUP1 PUSH4 0xCD3DAF9D EQ PUSH2 0x289 JUMPI DUP1 PUSH4 0xD1AF0C7D EQ PUSH2 0x291 JUMPI DUP1 PUSH4 0xDF136D65 EQ PUSH2 0x2B8 JUMPI PUSH0 PUSH0 REVERT JUMPDEST DUP1 PUSH4 0x7519AB50 EQ PUSH2 0x218 JUMPI DUP1 PUSH4 0x7B0A47EE EQ PUSH2 0x221 JUMPI DUP1 PUSH4 0x80FAA57D EQ PUSH2 0x22A JUMPI DUP1 PUSH4 0x8B876347 EQ PUSH2 0x232 JUMPI DUP1 PUSH4 0x8DA5CB5B EQ PUSH2 0x251 JUMPI PUSH0 PUSH0 REVERT JUMPDEST DUP1 PUSH4 0x3C6B16AB GT PUSH2 0xEF JUMPI DUP1 PUSH4 0x3C6B16AB EQ PUSH2 0x196 JUMPI DUP1 PUSH4 0x3D18B912 EQ PUSH2 0x1A9 JUMPI DUP1 PUSH4 0x67D3B488 EQ PUSH2 0x1B1 JUMPI DUP1 PUSH4 0x70A08231 EQ PUSH2 0x1BA JUMPI DUP1 PUSH4 0x72F702F3 EQ PUSH2 0x1D9 JUMPI PUSH0 PUSH0 REVERT JUMPDEST DUP1 PUSH3 0x8CC262 EQ PUSH2 0x12A JUMPI DUP1 PUSH4 0x700037D EQ PUSH2 0x150 JUMPI DUP1 PUSH4 0xFB5A6B4 EQ PUSH2 0x16F JUMPI DUP1 PUSH4 0x18160DDD EQ PUSH2 0x178 JUMPI DUP1 PUSH4 0x2E1A7D4D EQ PUSH2 0x181 JUMPI JUMPDEST PUSH0 PUSH0 REVERT JUMPDEST PUSH2 0x13D PUSH2 0x138 CALLDATASIZE PUSH1 0x4 PUSH2 0x9F5 JUMP JUMPDEST PUSH2 0x2C1 JUMP JUMPDEST PUSH1 0x40 MLOAD SWAP1 DUP2 MSTORE PUSH1 0x20 ADD JUMPDEST PUSH1 0x40 MLOAD DUP1 SWAP2 SUB SWAP1 RETURN JUMPDEST PUSH2 0x13D PUSH2 0x15E CALLDATASIZE PUSH1 0x4 PUSH2 0x9F5 JUMP JUMPDEST PUSH1 0x7 PUSH1 0x20 MSTORE PUSH0 SWAP1 DUP2 MSTORE PUSH1 0x40 SWAP1 KECCAK256 SLOAD DUP2 JUMP JUMPDEST PUSH2 0x13D PUSH1 0x1 SLOAD DUP2 JUMP JUMPDEST PUSH2 0x13D PUSH1 0x9 SLOAD DUP2 JUMP JUMPDEST PUSH2 0x194 PUSH2 0x18F CALLDATASIZE PUSH1 0x4 PUSH2 0xA22 JUMP JUMPDEST PUSH2 0x33C JUMP JUMPDEST STOP JUMPDEST PUSH2 0x194 PUSH2 0x1A4 CALLDATASIZE PUSH1 0x4 PUSH2 0xA22 JUMP JUMPDEST PUSH2 0x4A7 JUMP JUMPDEST PUSH2 0x194 PUSH2 0x6DF JUMP JUMPDEST PUSH2 0x13D PUSH1 0x2 SLOAD DUP2 JUMP JUMPDEST PUSH2 0x13D PUSH2 0x1C8 CALLDATASIZE PUSH1 0x4 PUSH2 0x9F5 JUMP JUMPDEST PUSH1 0x8 PUSH1 0x20 MSTORE PUSH0 SWAP1 DUP2 MSTORE PUSH1 0x40 SWAP1 KECCAK256 SLOAD DUP2 JUMP JUMPDEST PUSH2 0x200 PUSH32 0x0 DUP2 JUMP JUMPDEST PUSH1 0x40 MLOAD PUSH1 0x1 PUSH1 0x1 PUSH1 0xA0 SHL SUB SWAP1 SWAP2 AND DUP2 MSTORE PUSH1 0x20 ADD PUSH2 0x147 JUMP JUMPDEST PUSH2 0x13D PUSH1 0x3 SLOAD DUP2 JUMP JUMPDEST PUSH2 0x13D PUSH1 0x4 SLOAD DUP2 JUMP JUMPDEST PUSH2 0x13D PUSH2 0x7B8 JUMP JUMPDEST PUSH2 0x13D PUSH2 0x240 CALLDATASIZE PUSH1 0x4 PUSH2 0x9F5 JUMP JUMPDEST PUSH1 0x6 PUSH1 0x20 MSTORE PUSH0 SWAP1 DUP2 MSTORE PUSH1 0x40 SWAP1 KECCAK256 SLOAD DUP2 JUMP JUMPDEST PUSH0 SLOAD PUSH2 0x200 SWAP1 PUSH1 0x1 PUSH1 0x1 PUSH1 0xA0 SHL SUB AND DUP2 JUMP JUMPDEST PUSH2 0x194 PUSH2 0x271 CALLDATASIZE PUSH1 0x4 PUSH2 0xA22 JUMP JUMPDEST PUSH2 0x7D0 JUMP JUMPDEST PUSH2 0x194 PUSH2 0x284 CALLDATASIZE PUSH1 0x4 PUSH2 0xA22 JUMP JUMPDEST PUSH2 0x8FB JUMP JUMPDEST PUSH2 0x13D PUSH2 0x996 JUMP JUMPDEST PUSH2 0x200 PUSH32 0x0 DUP2 JUMP JUMPDEST PUSH2 0x13D PUSH1 0x5 SLOAD DUP2 JUMP JUMPDEST PUSH1 0x1 PUSH1 0x1 PUSH1 0xA0 SHL SUB DUP2 AND PUSH0 SWAP1 DUP2 MSTORE PUSH1 0x7 PUSH1 0x20 SWAP1 DUP2 MSTORE PUSH1 0x40 DUP1 DUP4 KECCAK256 SLOAD PUSH1 0x6 SWAP1 SWAP3 MSTORE DUP3 KECCAK256 SLOAD PUSH8 0xDE0B6B3A7640000 SWAP1 PUSH2 0x2F6 PUSH2 0x996 JUMP JUMPDEST PUSH2 0x300 SWAP2 SWAP1 PUSH2 0xA4D JUMP JUMPDEST PUSH1 0x1 PUSH1 0x1 PUSH1 0xA0 SHL SUB DUP6 AND PUSH0 SWAP1 DUP2 MSTORE PUSH1 0x8 PUSH1 0x20 MSTORE PUSH1 0x40 SWAP1 KECCAK256 SLOAD PUSH2 0x322 SWAP2 SWAP1 PUSH2 0xA60 JUMP JUMPDEST PUSH2 0x32C SWAP2 SWAP1 PUSH2 0xA77 JUMP JUMPDEST PUSH2 0x336 SWAP2 SWAP1 PUSH2 0xA96 JUMP JUMPDEST SWAP3 SWAP2 POP POP JUMP JUMPDEST CALLER PUSH2 0x345 PUSH2 0x996 JUMP JUMPDEST PUSH1 0x5 SSTORE PUSH2 0x350 PUSH2 0x7B8 JUMP JUMPDEST PUSH1 0x3 SSTORE PUSH1 0x1 PUSH1 0x1 PUSH1 0xA0 SHL SUB DUP2 AND ISZERO PUSH2 0x396 JUMPI PUSH2 0x36B DUP2 PUSH2 0x2C1 JUMP JUMPDEST PUSH1 0x1 PUSH1 0x1 PUSH1 0xA0 SHL SUB DUP3 AND PUSH0 SWAP1 DUP2 MSTORE PUSH1 0x7 PUSH1 0x20 SWAP1 DUP2 MSTORE PUSH1 0x40 DUP1 DUP4 KECCAK256 SWAP4 SWAP1 SWAP4 SSTORE PUSH1 0x5 SLOAD PUSH1 0x6 SWAP1 SWAP2 MSTORE SWAP2 SWAP1 KECCAK256 SSTORE JUMPDEST PUSH0 DUP3 GT PUSH2 0x3D8 JUMPI PUSH1 0x40 MLOAD PUSH3 0x461BCD PUSH1 0xE5 SHL DUP2 MSTORE PUSH1 0x20 PUSH1 0x4 DUP3 ADD MSTORE PUSH1 0xB PUSH1 0x24 DUP3 ADD MSTORE PUSH11 0x416D6F756E74207A65726F PUSH1 0xA8 SHL PUSH1 0x44 DUP3 ADD MSTORE PUSH1 0x64 ADD JUMPDEST PUSH1 0x40 MLOAD DUP1 SWAP2 SUB SWAP1 REVERT JUMPDEST CALLER PUSH0 SWAP1 DUP2 MSTORE PUSH1 0x8 PUSH1 0x20 MSTORE PUSH1 0x40 DUP2 KECCAK256 DUP1 SLOAD DUP5 SWAP3 SWAP1 PUSH2 0x3F6 SWAP1 DUP5 SWAP1 PUSH2 0xA4D JUMP JUMPDEST SWAP3 POP POP DUP2 SWAP1 SSTORE POP DUP2 PUSH1 0x9 PUSH0 DUP3 DUP3 SLOAD PUSH2 0x40E SWAP2 SWAP1 PUSH2 0xA4D JUMP JUMPDEST SWAP1 SWAP2 SSTORE POP POP PUSH1 0x40 MLOAD PUSH4 0xA9059CBB PUSH1 0xE0 SHL DUP2 MSTORE CALLER PUSH1 0x4 DUP3 ADD MSTORE PUSH1 0x24 DUP2 ADD DUP4 SWAP1 MSTORE PUSH32 0x0 PUSH1 0x1 PUSH1 0x1 PUSH1 0xA0 SHL SUB AND SWAP1 PUSH4 0xA9059CBB SWAP1 PUSH1 0x44 ADD JUMPDEST PUSH1 0x20 PUSH1 0x40 MLOAD DUP1 DUP4 SUB DUP2 PUSH0 DUP8 GAS CALL ISZERO DUP1 ISZERO PUSH2 0x47E JUMPI RETURNDATASIZE PUSH0 PUSH0 RETURNDATACOPY RETURNDATASIZE PUSH0 REVERT JUMPDEST POP POP POP POP PUSH1 0x40 MLOAD RETURNDATASIZE PUSH1 0x1F NOT PUSH1 0x1F DUP3 ADD AND DUP3 ADD DUP1 PUSH1 0x40 MSTORE POP DUP2 ADD SWAP1 PUSH2 0x4A2 SWAP2 SWAP1 PUSH2 0xAA9 JUMP JUMPDEST POP POP POP JUMP JUMPDEST PUSH0 SLOAD PUSH1 0x1 PUSH1 0x1 PUSH1 0xA0 SHL SUB AND CALLER EQ PUSH2 0x4EC JUMPI PUSH1 0x40 MLOAD PUSH3 0x461BCD PUSH1 0xE5 SHL DUP2 MSTORE PUSH1 0x20 PUSH1 0x4 DUP3 ADD MSTORE PUSH1 0x9 PUSH1 0x24 DUP3 ADD MSTORE PUSH9 0x2737BA1037BBB732B9 PUSH1 0xB9 SHL PUSH1 0x44 DUP3 ADD MSTORE PUSH1 0x64 ADD PUSH2 0x3CF JUMP JUMPDEST PUSH0 PUSH2 0x4F5 PUSH2 0x996 JUMP JUMPDEST PUSH1 0x5 SSTORE PUSH2 0x500 PUSH2 0x7B8 JUMP JUMPDEST PUSH1 0x3 SSTORE PUSH1 0x1 PUSH1 0x1 PUSH1 0xA0 SHL SUB DUP2 AND ISZERO PUSH2 0x546 JUMPI PUSH2 0x51B DUP2 PUSH2 0x2C1 JUMP JUMPDEST PUSH1 0x1 PUSH1 0x1 PUSH1 0xA0 SHL SUB DUP3 AND PUSH0 SWAP1 DUP2 MSTORE PUSH1 0x7 PUSH1 0x20 SWAP1 DUP2 MSTORE PUSH1 0x40 DUP1 DUP4 KECCAK256 SWAP4 SWAP1 SWAP4 SSTORE PUSH1 0x5 SLOAD PUSH1 0x6 SWAP1 SWAP2 MSTORE SWAP2 SWAP1 KECCAK256 SSTORE JUMPDEST PUSH1 0x2 SLOAD TIMESTAMP LT PUSH2 0x564 JUMPI PUSH1 0x1 SLOAD PUSH2 0x55C SWAP1 DUP4 PUSH2 0xA77 JUMP JUMPDEST PUSH1 0x4 SSTORE PUSH2 0x59F JUMP JUMPDEST PUSH0 PUSH1 0x4 SLOAD TIMESTAMP PUSH1 0x2 SLOAD PUSH2 0x576 SWAP2 SWAP1 PUSH2 0xA4D JUMP JUMPDEST PUSH2 0x580 SWAP2 SWAP1 PUSH2 0xA60 JUMP JUMPDEST PUSH1 0x1 SLOAD SWAP1 SWAP2 POP PUSH2 0x590 DUP5 DUP4 PUSH2 0xA96 JUMP JUMPDEST PUSH2 0x59A SWAP2 SWAP1 PUSH2 0xA77 JUMP JUMPDEST PUSH1 0x4 SSTORE POP JUMPDEST PUSH0 PUSH1 0x4 SLOAD GT PUSH2 0x5E3 JUMPI PUSH1 0x40 MLOAD PUSH3 0x461BCD PUSH1 0xE5 SHL DUP2 MSTORE PUSH1 0x20 PUSH1 0x4 DUP3 ADD MSTORE PUSH1 0x10 PUSH1 0x24 DUP3 ADD MSTORE PUSH16 0x5265776172642072617465207A65726F PUSH1 0x80 SHL PUSH1 0x44 DUP3 ADD MSTORE PUSH1 0x64 ADD PUSH2 0x3CF JUMP JUMPDEST PUSH1 0x40 MLOAD PUSH4 0x70A08231 PUSH1 0xE0 SHL DUP2 MSTORE ADDRESS PUSH1 0x4 DUP3 ADD MSTORE PUSH32 0x0 PUSH1 0x1 PUSH1 0x1 PUSH1 0xA0 SHL SUB AND SWAP1 PUSH4 0x70A08231 SWAP1 PUSH1 0x24 ADD PUSH1 0x20 PUSH1 0x40 MLOAD DUP1 DUP4 SUB DUP2 DUP7 GAS STATICCALL ISZERO DUP1 ISZERO PUSH2 0x645 JUMPI RETURNDATASIZE PUSH0 PUSH0 RETURNDATACOPY RETURNDATASIZE PUSH0 REVERT JUMPDEST POP POP POP POP PUSH1 0x40 MLOAD RETURNDATASIZE PUSH1 0x1F NOT PUSH1 0x1F DUP3 ADD AND DUP3 ADD DUP1 PUSH1 0x40 MSTORE POP DUP2 ADD SWAP1 PUSH2 0x669 SWAP2 SWAP1 PUSH2 0xAC8 JUMP JUMPDEST PUSH1 0x1 SLOAD PUSH1 0x4 SLOAD PUSH2 0x679 SWAP2 SWAP1 PUSH2 0xA60 JUMP JUMPDEST GT ISZERO PUSH2 0x6C7 JUMPI PUSH1 0x40 MLOAD PUSH3 0x461BCD PUSH1 0xE5 SHL DUP2 MSTORE PUSH1 0x20 PUSH1 0x4 DUP3 ADD MSTORE PUSH1 0x1A PUSH1 0x24 DUP3 ADD MSTORE PUSH32 0x496E73756666696369656E742072657761726420746F6B656E73000000000000 PUSH1 0x44 DUP3 ADD MSTORE PUSH1 0x64 ADD PUSH2 0x3CF JUMP JUMPDEST PUSH1 0x1 SLOAD PUSH2 0x6D4 SWAP1 TIMESTAMP PUSH2 0xA96 JUMP JUMPDEST PUSH1 0x2 SSTORE POP POP TIMESTAMP PUSH1 0x3 SSTORE JUMP JUMPDEST CALLER PUSH2 0x6E8 PUSH2 0x996 JUMP JUMPDEST PUSH1 0x5 SSTORE PUSH2 0x6F3 PUSH2 0x7B8 JUMP JUMPDEST PUSH1 0x3 SSTORE PUSH1 0x1 PUSH1 0x1 PUSH1 0xA0 SHL SUB DUP2 AND ISZERO PUSH2 0x739 JUMPI PUSH2 0x70E DUP2 PUSH2 0x2C1 JUMP JUMPDEST PUSH1 0x1 PUSH1 0x1 PUSH1 0xA0 SHL SUB DUP3 AND PUSH0 SWAP1 DUP2 MSTORE PUSH1 0x7 PUSH1 0x20 SWAP1 DUP2 MSTORE PUSH1 0x40 DUP1 DUP4 KECCAK256 SWAP4 SWAP1 SWAP4 SSTORE PUSH1 0x5 SLOAD PUSH1 0x6 SWAP1 SWAP2 MSTORE SWAP2 SWAP1 KECCAK256 SSTORE JUMPDEST CALLER PUSH0 SWAP1 DUP2 MSTORE PUSH1 0x7 PUSH1 0x20 MSTORE PUSH1 0x40 SWAP1 KECCAK256 SLOAD DUP1 ISZERO PUSH2 0x7B4 JUMPI CALLER PUSH0 DUP2 DUP2 MSTORE PUSH1 0x7 PUSH1 0x20 MSTORE PUSH1 0x40 DUP1 DUP3 KECCAK256 SWAP2 SWAP1 SWAP2 SSTORE MLOAD PUSH4 0xA9059CBB PUSH1 0xE0 SHL DUP2 MSTORE PUSH1 0x4 DUP2 ADD SWAP2 SWAP1 SWAP2 MSTORE PUSH1 0x24 DUP2 ADD DUP3 SWAP1 MSTORE PUSH1 0x1 PUSH1 0x1 PUSH1 0xA0 SHL SUB PUSH32 0x0 AND SWAP1 PUSH4 0xA9059CBB SWAP1 PUSH1 0x44 ADD PUSH2 0x462 JUMP JUMPDEST POP POP JUMP JUMPDEST PUSH0 PUSH1 0x2 SLOAD TIMESTAMP LT PUSH2 0x7C9 JUMPI POP PUSH1 0x2 SLOAD SWAP1 JUMP JUMPDEST TIMESTAMP JUMPDEST SWAP1 POP SWAP1 JUMP JUMPDEST CALLER PUSH2 0x7D9 PUSH2 0x996 JUMP JUMPDEST PUSH1 0x5 SSTORE PUSH2 0x7E4 PUSH2 0x7B8 JUMP JUMPDEST PUSH1 0x3 SSTORE PUSH1 0x1 PUSH1 0x1 PUSH1 0xA0 SHL SUB DUP2 AND ISZERO PUSH2 0x82A JUMPI PUSH2 0x7FF DUP2 PUSH2 0x2C1 JUMP JUMPDEST PUSH1 0x1 PUSH1 0x1 PUSH1 0xA0 SHL SUB DUP3 AND PUSH0 SWAP1 DUP2 MSTORE PUSH1 0x7 PUSH1 0x20 SWAP1 DUP2 MSTORE PUSH1 0x40 DUP1 DUP4 KECCAK256 SWAP4 SWAP1 SWAP4 SSTORE PUSH1 0x5 SLOAD PUSH1 0x6 SWAP1 SWAP2 MSTORE SWAP2 SWAP1 KECCAK256 SSTORE JUMPDEST PUSH0 DUP3 GT PUSH2 0x867 JUMPI PUSH1 0x40 MLOAD PUSH3 0x461BCD PUSH1 0xE5 SHL DUP2 MSTORE PUSH1 0x20 PUSH1 0x4 DUP3 ADD MSTORE PUSH1 0xB PUSH1 0x24 DUP3 ADD MSTORE PUSH11 0x416D6F756E74207A65726F PUSH1 0xA8 SHL PUSH1 0x44 DUP3 ADD MSTORE PUSH1 0x64 ADD PUSH2 0x3CF JUMP JUMPDEST CALLER PUSH0 SWAP1 DUP2 MSTORE PUSH1 0x8 PUSH1 0x20 MSTORE PUSH1 0x40 DUP2 KECCAK256 DUP1 SLOAD DUP5 SWAP3 SWAP1 PUSH2 0x885 SWAP1 DUP5 SWAP1 PUSH2 0xA96 JUMP JUMPDEST SWAP3 POP POP DUP2 SWAP1 SSTORE POP DUP2 PUSH1 0x9 PUSH0 DUP3 DUP3 SLOAD PUSH2 0x89D SWAP2 SWAP1 PUSH2 0xA96 JUMP JUMPDEST SWAP1 SWAP2 SSTORE POP POP PUSH1 0x40 MLOAD PUSH4 0x23B872DD PUSH1 0xE0 SHL DUP2 MSTORE CALLER PUSH1 0x4 DUP3 ADD MSTORE ADDRESS PUSH1 0x24 DUP3 ADD MSTORE PUSH1 0x44 DUP2 ADD DUP4 SWAP1 MSTORE PUSH32 0x0 PUSH1 0x1 PUSH1 0x1 PUSH1 0xA0 SHL SUB AND SWAP1 PUSH4 0x23B872DD SWAP1 PUSH1 0x64 ADD PUSH2 0x462 JUMP JUMPDEST PUSH0 SLOAD PUSH1 0x1 PUSH1 0x1 PUSH1 0xA0 SHL SUB AND CALLER EQ PUSH2 0x940 JUMPI PUSH1 0x40 MLOAD PUSH3 0x461BCD PUSH1 0xE5 SHL DUP2 MSTORE PUSH1 0x20 PUSH1 0x4 DUP3 ADD MSTORE PUSH1 0x9 PUSH1 0x24 DUP3 ADD MSTORE PUSH9 0x2737BA1037BBB732B9 PUSH1 0xB9 SHL PUSH1 0x44 DUP3 ADD MSTORE PUSH1 0x64 ADD PUSH2 0x3CF JUMP JUMPDEST TIMESTAMP PUSH1 0x2 SLOAD LT PUSH2 0x991 JUMPI PUSH1 0x40 MLOAD PUSH3 0x461BCD PUSH1 0xE5 SHL DUP2 MSTORE PUSH1 0x20 PUSH1 0x4 DUP3 ADD MSTORE PUSH1 0x1E PUSH1 0x24 DUP3 ADD MSTORE PUSH32 0x50726576696F75732072657761726473206E6F7420636F6D706C657465640000 PUSH1 0x44 DUP3 ADD MSTORE PUSH1 0x64 ADD PUSH2 0x3CF JUMP JUMPDEST PUSH1 0x1 SSTORE JUMP JUMPDEST PUSH0 PUSH1 0x9 SLOAD PUSH0 SUB PUSH2 0x9A7 JUMPI POP PUSH1 0x5 SLOAD SWAP1 JUMP JUMPDEST PUSH1 0x9 SLOAD PUSH1 0x3 SLOAD PUSH2 0x9B5 PUSH2 0x7B8 JUMP JUMPDEST PUSH2 0x9BF SWAP2 SWAP1 PUSH2 0xA4D JUMP JUMPDEST PUSH1 0x4 SLOAD PUSH2 0x9CC SWAP2 SWAP1 PUSH2 0xA60 JUMP JUMPDEST PUSH2 0x9DE SWAP1 PUSH8 0xDE0B6B3A7640000 PUSH2 0xA60 JUMP JUMPDEST PUSH2 0x9E8 SWAP2 SWAP1 PUSH2 0xA77 JUMP JUMPDEST PUSH1 0x5 SLOAD PUSH2 0x7CB SWAP2 SWAP1 PUSH2 0xA96 JUMP JUMPDEST PUSH0 PUSH1 0x20 DUP3 DUP5 SUB SLT ISZERO PUSH2 0xA05 JUMPI PUSH0 PUSH0 REVERT JUMPDEST DUP2 CALLDATALOAD PUSH1 0x1 PUSH1 0x1 PUSH1 0xA0 SHL SUB DUP2 AND DUP2 EQ PUSH2 0xA1B JUMPI PUSH0 PUSH0 REVERT JUMPDEST SWAP4 SWAP3 POP POP POP JUMP JUMPDEST PUSH0 PUSH1 0x20 DUP3 DUP5 SUB SLT ISZERO PUSH2 0xA32 JUMPI PUSH0 PUSH0 REVERT JUMPDEST POP CALLDATALOAD SWAP2 SWAP1 POP JUMP JUMPDEST PUSH4 0x4E487B71 PUSH1 0xE0 SHL PUSH0 MSTORE PUSH1 0x11 PUSH1 0x4 MSTORE PUSH1 0x24 PUSH0 REVERT JUMPDEST DUP2 DUP2 SUB DUP2 DUP2 GT ISZERO PUSH2 0x336 JUMPI PUSH2 0x336 PUSH2 0xA39 JUMP JUMPDEST DUP1 DUP3 MUL DUP2 ISZERO DUP3 DUP3 DIV DUP5 EQ OR PUSH2 0x336 JUMPI PUSH2 0x336 PUSH2 0xA39 JUMP JUMPDEST PUSH0 DUP3 PUSH2 0xA91 JUMPI PUSH4 0x4E487B71 PUSH1 0xE0 SHL PUSH0 MSTORE PUSH1 0x12 PUSH1 0x4 MSTORE PUSH1 0x24 PUSH0 REVERT JUMPDEST POP DIV SWAP1 JUMP JUMPDEST DUP1 DUP3 ADD DUP1 DUP3 GT ISZERO PUSH2 0x336 JUMPI PUSH2 0x336 PUSH2 0xA39 JUMP JUMPDEST PUSH0 PUSH1 0x20 DUP3 DUP5 SUB SLT ISZERO PUSH2 0xAB9 JUMPI PUSH0 PUSH0 REVERT JUMPDEST DUP2 MLOAD DUP1 ISZERO ISZERO DUP2 EQ PUSH2 0xA1B JUMPI PUSH0 PUSH0 REVERT JUMPDEST PUSH0 PUSH1 0x20 DUP3 DUP5 SUB SLT ISZERO PUSH2 0xAD8 JUMPI PUSH0 PUSH0 REVERT JUMPDEST POP MLOAD SWAP2 SWAP1 POP JUMP INVALID LOG2 PUSH5 0x6970667358 0x22 SLT KECCAK256 DUP14 SWAP5 SDIV 0x4B DUP12 0x22 0xD3 CALLF 0x70D9 BLOCKHASH PUSH11 0x8B4A167C056ED608C03838 SHL 0x23 PUSH31 0x8596669BE12B64736F6C634300081D00330000000000000000000000000000 "
				},
				"gasEstimates": {
					"creation": {
						"codeDepositCost": "567400",
						"executionCost": "infinite",
						"totalCost": "infinite"
					},
					"external": {
						"balanceOf(address)": "2559",
						"duration()": "2351",
						"earned(address)": "infinite",
						"finishAt()": "2350",
						"getReward()": "infinite",
						"lastTimeRewardApplicable()": "4487",
						"notifyRewardAmount(uint256)": "infinite",
						"owner()": "2446",
						"rewardPerToken()": "infinite",
						"rewardPerTokenStored()": "2393",
						"rewardRate()": "2328",
						"rewards(address)": "2516",
						"rewardsToken()": "infinite",
						"setRewardDuration(uint256)": "26627",
						"stake(uint256)": "infinite",
						"stakingToken()": "infinite",
						"totalSupply()": "2373",
						"updatedAt()": "2306",
						"userRewardPerTokenPaid(address)": "2559",
						"withdraw(uint256)": "infinite"
					},
					"internal": {
						"_min(uint256,uint256)": "infinite"
					}
				},
				"methodIdentifiers": {
					"balanceOf(address)": "70a08231",
					"duration()": "0fb5a6b4",
					"earned(address)": "008cc262",
					"finishAt()": "67d3b488",
					"getReward()": "3d18b912",
					"lastTimeRewardApplicable()": "80faa57d",
					"notifyRewardAmount(uint256)": "3c6b16ab",
					"owner()": "8da5cb5b",
					"rewardPerToken()": "cd3daf9d",
					"rewardPerTokenStored()": "df136d65",
					"rewardRate()": "7b0a47ee",
					"rewards(address)": "0700037d",
					"rewardsToken()": "d1af0c7d",
					"setRewardDuration(uint256)": "c0ed00c9",
					"stake(uint256)": "a694fc3a",
					"stakingToken()": "72f702f3",
					"totalSupply()": "18160ddd",
					"updatedAt()": "7519ab50",
					"userRewardPerTokenPaid(address)": "8b876347",
					"withdraw(uint256)": "2e1a7d4d"
				}
			},
			"storageLayout": {
				"storage": [
					{
						"astId": 796,
						"contract": "five/StakingRewards.sol:StakingRewards",
						"label": "owner",
						"offset": 0,
						"slot": "0",
						"type": "t_address"
					},
					{
						"astId": 798,
						"contract": "five/StakingRewards.sol:StakingRewards",
						"label": "duration",
						"offset": 0,
						"slot": "1",
						"type": "t_uint256"
					},
					{
						"astId": 800,
						"contract": "five/StakingRewards.sol:StakingRewards",
						"label": "finishAt",
						"offset": 0,
						"slot": "2",
						"type": "t_uint256"
					},
					{
						"astId": 802,
						"contract": "five/StakingRewards.sol:StakingRewards",
						"label": "updatedAt",
						"offset": 0,
						"slot": "3",
						"type": "t_uint256"
					},
					{
						"astId": 804,
						"contract": "five/StakingRewards.sol:StakingRewards",
						"label": "rewardRate",
						"offset": 0,
						"slot": "4",
						"type": "t_uint256"
					},
					{
						"astId": 806,
						"contract": "five/StakingRewards.sol:StakingRewards",
						"label": "rewardPerTokenStored",
						"offset": 0,
						"slot": "5",
						"type": "t_uint256"
					},
					{
						"astId": 810,
						"contract": "five/StakingRewards.sol:StakingRewards",
						"label": "userRewardPerTokenPaid",
						"offset": 0,
						"slot": "6",
						"type": "t_mapping(t_address,t_uint256)"
					},
					{
						"astId": 814,
						"contract": "five/StakingRewards.sol:StakingRewards",
						"label": "rewards",
						"offset": 0,
						"slot": "7",
						"type": "t_mapping(t_address,t_uint256)"
					},
					{
						"astId": 818,
						"contract": "five/StakingRewards.sol:StakingRewards",
						"label": "balanceOf",
						"offset": 0,
						"slot": "8",
						"type": "t_mapping(t_address,t_uint256)"
					},
					{
						"astId": 820,
						"contract": "five/StakingRewards.sol:StakingRewards",
						"label": "totalSupply",
						"offset": 0,
						"slot": "9",
						"type": "t_uint256"
					}
				],
				"types": {
					"t_address": {
						"encoding": "inplace",
						"label": "address",
						"numberOfBytes": "20"
					},
					"t_mapping(t_address,t_uint256)": {
						"encoding": "mapping",
						"key": "t_address",
						"label": "mapping(address => uint256)",
						"numberOfBytes": "32",
						"value": "t_uint256"
					},
					"t_uint256": {
						"encoding": "inplace",
						"label": "uint256",
						"numberOfBytes": "32"
					}
				}
			},
			"userdoc": {
				"kind": "user",
				"methods": {},
				"version": 1
			}
		}
	}
}