{
	"five/KeyValueInputCallFunc.sol": {
		"XYZ": {
			"abi": [
				{
					"inputs": [],
					"name": "callFunc",
					"outputs": [
						{
							"internalType": "uint256",
							"name": "",
							"type": "uint256"
						}
					],
					"stateMutability": "pure",
					"type": "function"
				},
				{
					"inputs": [],
					"name": "callFunc2",
					"outputs": [
						{
							"internalType": "uint256",
							"name": "",
							"type": "uint256"
						}
					],
					"stateMutability": "pure",
					"type": "function"
				},
				{
					"inputs": [
						{
							"internalType": "uint256",
							"name": "x",
							"type": "uint256"
						},
						{
							"internalType": "uint256",
							"name": "y",
							"type": "uint256"
						},
						{
							"internalType": "uint256",
							"name": "z",
							"type": "uint256"
						},
						{
							"internalType": "address",
							"name": "a",
							"type": "address"
						},
						{
							"internalType": "address",
							"name": "b",
							"type": "address"
						},
						{
							"internalType": "string",
							"name": "c",
							"type": "string"
						}
					],
					"name": "someFuncWithManyInputs",
					"outputs": [
						{
							"internalType": "uint256",
							"name": "",
							"type": "uint256"
						}
					],
					"stateMutability": "pure",
					"type": "function"
				}
			],
			"devdoc": {
				"kind": "dev",
				"methods": {},
				"version": 1
			},
			"evm": {
				"assembly": "    /* \"five/KeyValueInputCallFunc.sol\":60:649  contract XYZ {... */\n  mstore(0x40, 0x80)\n  callvalue\n  dup1\n  iszero\n  tag_1\n  jumpi\n  revert(0x00, 0x00)\ntag_1:\n  pop\n  dataSize(sub_0)\n  dup1\n  dataOffset(sub_0)\n  0x00\n  codecopy\n  0x00\n  return\nstop\n\nsub_0: assembly {\n        /* \"five/KeyValueInputCallFunc.sol\":60:649  contract XYZ {... */\n      mstore(0x40, 0x80)\n      callvalue\n      dup1\n      iszero\n      tag_1\n      jumpi\n      revert(0x00, 0x00)\n    tag_1:\n      pop\n      jumpi(tag_2, lt(calldatasize, 0x04))\n      shr(0xe0, calldataload(0x00))\n      dup1\n      0x08805c2f\n      eq\n      tag_3\n      jumpi\n      dup1\n      0x9a7846b9\n      eq\n      tag_4\n      jumpi\n      dup1\n      0xd3ac2e67\n      eq\n      tag_5\n      jumpi\n    tag_2:\n      revert(0x00, 0x00)\n        /* \"five/KeyValueInputCallFunc.sol\":80:233  function someFuncWithManyInputs(... */\n    tag_3:\n      tag_6\n      tag_7\n      calldatasize\n      0x04\n      tag_8\n      jump\t// in\n    tag_7:\n        /* \"five/KeyValueInputCallFunc.sol\":209:213  uint */\n      0x00\n        /* \"five/KeyValueInputCallFunc.sol\":80:233  function someFuncWithManyInputs(... */\n      swap7\n      swap6\n      pop\n      pop\n      pop\n      pop\n      pop\n      pop\n      jump\n    tag_6:\n      mload(0x40)\n        /* \"#utility.yul\":1925:1950   */\n      swap1\n      dup2\n      mstore\n        /* \"#utility.yul\":1913:1915   */\n      0x20\n        /* \"#utility.yul\":1898:1916   */\n      add\n        /* \"five/KeyValueInputCallFunc.sol\":80:233  function someFuncWithManyInputs(... */\n      mload(0x40)\n      dup1\n      swap2\n      sub\n      swap1\n      return\n        /* \"five/KeyValueInputCallFunc.sol\":241:375  function callFunc() external pure returns(uint) {... */\n    tag_4:\n        /* \"five/KeyValueInputCallFunc.sol\":307:367  someFuncWithManyInputs(1, 2, 3, address(0), address(0), \"c\") */\n      0x40\n      dup1\n      mload\n      dup1\n      dup3\n      add\n      swap1\n      swap2\n      mstore\n        /* \"five/KeyValueInputCallFunc.sol\":330:331  1 */\n      0x01\n        /* \"five/KeyValueInputCallFunc.sol\":307:367  someFuncWithManyInputs(1, 2, 3, address(0), address(0), \"c\") */\n      dup2\n      mstore\n      shl(0xf8, 0x63)\n      0x20\n      swap1\n      swap2\n      add\n      mstore\n      0x00\n        /* \"five/KeyValueInputCallFunc.sol\":241:375  function callFunc() external pure returns(uint) {... */\n      jump(tag_6)\n        /* \"five/KeyValueInputCallFunc.sol\":445:644  function callFunc2() external pure returns(uint) {... */\n    tag_5:\n        /* \"five/KeyValueInputCallFunc.sol\":512:636  someFuncWithManyInputs(... */\n      0x40\n      dup1\n      mload\n      0x20\n      dup2\n      add\n      swap1\n      swap2\n      mstore\n      0x00\n      swap1\n      dup2\n      swap1\n      mstore\n        /* \"five/KeyValueInputCallFunc.sol\":445:644  function callFunc2() external pure returns(uint) {... */\n      tag_6\n        /* \"five/KeyValueInputCallFunc.sol\":241:375  function callFunc() external pure returns(uint) {... */\n      jump\n        /* \"#utility.yul\":14:187   */\n    tag_23:\n        /* \"#utility.yul\":82:102   */\n      dup1\n      calldataload\n      sub(shl(0xa0, 0x01), 0x01)\n        /* \"#utility.yul\":131:162   */\n      dup2\n      and\n        /* \"#utility.yul\":121:163   */\n      dup2\n      eq\n        /* \"#utility.yul\":111:181   */\n      tag_27\n      jumpi\n        /* \"#utility.yul\":177:178   */\n      0x00\n        /* \"#utility.yul\":174:175   */\n      0x00\n        /* \"#utility.yul\":167:179   */\n      revert\n        /* \"#utility.yul\":111:181   */\n    tag_27:\n        /* \"#utility.yul\":14:187   */\n      swap2\n      swap1\n      pop\n      jump\t// out\n        /* \"#utility.yul\":192:319   */\n    tag_24:\n        /* \"#utility.yul\":253:263   */\n      0x4e487b71\n        /* \"#utility.yul\":248:251   */\n      0xe0\n        /* \"#utility.yul\":244:264   */\n      shl\n        /* \"#utility.yul\":241:242   */\n      0x00\n        /* \"#utility.yul\":234:265   */\n      mstore\n        /* \"#utility.yul\":284:288   */\n      0x41\n        /* \"#utility.yul\":281:282   */\n      0x04\n        /* \"#utility.yul\":274:289   */\n      mstore\n        /* \"#utility.yul\":308:312   */\n      0x24\n        /* \"#utility.yul\":305:306   */\n      0x00\n        /* \"#utility.yul\":298:313   */\n      revert\n        /* \"#utility.yul\":324:1774   */\n    tag_8:\n        /* \"#utility.yul\":438:444   */\n      0x00\n        /* \"#utility.yul\":446:452   */\n      0x00\n        /* \"#utility.yul\":454:460   */\n      0x00\n        /* \"#utility.yul\":462:468   */\n      0x00\n        /* \"#utility.yul\":470:476   */\n      0x00\n        /* \"#utility.yul\":478:484   */\n      0x00\n        /* \"#utility.yul\":531:534   */\n      0xc0\n        /* \"#utility.yul\":519:528   */\n      dup8\n        /* \"#utility.yul\":510:517   */\n      dup10\n        /* \"#utility.yul\":506:529   */\n      sub\n        /* \"#utility.yul\":502:535   */\n      slt\n        /* \"#utility.yul\":499:552   */\n      iszero\n      tag_30\n      jumpi\n        /* \"#utility.yul\":548:549   */\n      0x00\n        /* \"#utility.yul\":545:546   */\n      0x00\n        /* \"#utility.yul\":538:550   */\n      revert\n        /* \"#utility.yul\":499:552   */\n    tag_30:\n        /* \"#utility.yul\":593:616   */\n      dup7\n      calldataload\n      swap6\n      pop\n        /* \"#utility.yul\":713:715   */\n      0x20\n        /* \"#utility.yul\":698:716   */\n      dup8\n      add\n        /* \"#utility.yul\":685:717   */\n      calldataload\n      swap5\n      pop\n        /* \"#utility.yul\":816:818   */\n      0x40\n        /* \"#utility.yul\":801:819   */\n      dup8\n      add\n        /* \"#utility.yul\":788:820   */\n      calldataload\n      swap4\n      pop\n        /* \"#utility.yul\":865:903   */\n      tag_31\n        /* \"#utility.yul\":899:901   */\n      0x60\n        /* \"#utility.yul\":884:902   */\n      dup9\n      add\n        /* \"#utility.yul\":865:903   */\n      tag_23\n      jump\t// in\n    tag_31:\n        /* \"#utility.yul\":855:903   */\n      swap3\n      pop\n        /* \"#utility.yul\":922:961   */\n      tag_32\n        /* \"#utility.yul\":956:959   */\n      0x80\n        /* \"#utility.yul\":945:954   */\n      dup9\n        /* \"#utility.yul\":941:960   */\n      add\n        /* \"#utility.yul\":922:961   */\n      tag_23\n      jump\t// in\n    tag_32:\n        /* \"#utility.yul\":912:961   */\n      swap2\n      pop\n        /* \"#utility.yul\":1012:1015   */\n      0xa0\n        /* \"#utility.yul\":1001:1010   */\n      dup8\n        /* \"#utility.yul\":997:1016   */\n      add\n        /* \"#utility.yul\":984:1017   */\n      calldataload\n        /* \"#utility.yul\":1040:1058   */\n      0xffffffffffffffff\n        /* \"#utility.yul\":1032:1038   */\n      dup2\n        /* \"#utility.yul\":1029:1059   */\n      gt\n        /* \"#utility.yul\":1026:1076   */\n      iszero\n      tag_33\n      jumpi\n        /* \"#utility.yul\":1072:1073   */\n      0x00\n        /* \"#utility.yul\":1069:1070   */\n      0x00\n        /* \"#utility.yul\":1062:1074   */\n      revert\n        /* \"#utility.yul\":1026:1076   */\n    tag_33:\n        /* \"#utility.yul\":1095:1117   */\n      dup8\n      add\n        /* \"#utility.yul\":1148:1152   */\n      0x1f\n        /* \"#utility.yul\":1140:1153   */\n      dup2\n      add\n        /* \"#utility.yul\":1136:1163   */\n      dup10\n      sgt\n        /* \"#utility.yul\":1126:1181   */\n      tag_34\n      jumpi\n        /* \"#utility.yul\":1177:1178   */\n      0x00\n        /* \"#utility.yul\":1174:1175   */\n      0x00\n        /* \"#utility.yul\":1167:1179   */\n      revert\n        /* \"#utility.yul\":1126:1181   */\n    tag_34:\n        /* \"#utility.yul\":1217:1219   */\n      dup1\n        /* \"#utility.yul\":1204:1220   */\n      calldataload\n        /* \"#utility.yul\":1243:1261   */\n      0xffffffffffffffff\n        /* \"#utility.yul\":1235:1241   */\n      dup2\n        /* \"#utility.yul\":1232:1262   */\n      gt\n        /* \"#utility.yul\":1229:1285   */\n      iszero\n      tag_36\n      jumpi\n        /* \"#utility.yul\":1265:1283   */\n      tag_36\n      tag_24\n      jump\t// in\n    tag_36:\n        /* \"#utility.yul\":1314:1316   */\n      0x40\n        /* \"#utility.yul\":1308:1317   */\n      mload\n        /* \"#utility.yul\":1406:1408   */\n      0x1f\n        /* \"#utility.yul\":1368:1385   */\n      dup3\n      add\n      not(0x1f)\n        /* \"#utility.yul\":1364:1395   */\n      swap1\n      dup2\n      and\n        /* \"#utility.yul\":1397:1399   */\n      0x3f\n        /* \"#utility.yul\":1360:1400   */\n      add\n        /* \"#utility.yul\":1356:1410   */\n      and\n        /* \"#utility.yul\":1344:1411   */\n      dup2\n      add\n        /* \"#utility.yul\":1441:1459   */\n      0xffffffffffffffff\n        /* \"#utility.yul\":1426:1460   */\n      dup2\n      gt\n        /* \"#utility.yul\":1462:1484   */\n      dup3\n      dup3\n      lt\n        /* \"#utility.yul\":1423:1485   */\n      or\n        /* \"#utility.yul\":1420:1508   */\n      iszero\n      tag_38\n      jumpi\n        /* \"#utility.yul\":1488:1506   */\n      tag_38\n      tag_24\n      jump\t// in\n    tag_38:\n        /* \"#utility.yul\":1524:1526   */\n      0x40\n        /* \"#utility.yul\":1517:1539   */\n      mstore\n        /* \"#utility.yul\":1548:1570   */\n      dup2\n      dup2\n      mstore\n        /* \"#utility.yul\":1589:1604   */\n      dup3\n      dup3\n      add\n        /* \"#utility.yul\":1606:1608   */\n      0x20\n        /* \"#utility.yul\":1585:1609   */\n      add\n        /* \"#utility.yul\":1582:1619   */\n      dup12\n      lt\n        /* \"#utility.yul\":1579:1636   */\n      iszero\n      tag_39\n      jumpi\n        /* \"#utility.yul\":1632:1633   */\n      0x00\n        /* \"#utility.yul\":1629:1630   */\n      0x00\n        /* \"#utility.yul\":1622:1634   */\n      revert\n        /* \"#utility.yul\":1579:1636   */\n    tag_39:\n        /* \"#utility.yul\":1688:1694   */\n      dup2\n        /* \"#utility.yul\":1683:1685   */\n      0x20\n        /* \"#utility.yul\":1679:1681   */\n      dup5\n        /* \"#utility.yul\":1675:1686   */\n      add\n        /* \"#utility.yul\":1670:1672   */\n      0x20\n        /* \"#utility.yul\":1662:1668   */\n      dup4\n        /* \"#utility.yul\":1658:1673   */\n      add\n        /* \"#utility.yul\":1645:1695   */\n      calldatacopy\n        /* \"#utility.yul\":1741:1742   */\n      0x00\n        /* \"#utility.yul\":1736:1738   */\n      0x20\n        /* \"#utility.yul\":1727:1733   */\n      dup4\n        /* \"#utility.yul\":1719:1725   */\n      dup4\n        /* \"#utility.yul\":1715:1734   */\n      add\n        /* \"#utility.yul\":1711:1739   */\n      add\n        /* \"#utility.yul\":1704:1743   */\n      mstore\n        /* \"#utility.yul\":1762:1768   */\n      dup1\n        /* \"#utility.yul\":1752:1768   */\n      swap4\n      pop\n      pop\n      pop\n      pop\n        /* \"#utility.yul\":324:1774   */\n      swap3\n      swap6\n      pop\n      swap3\n      swap6\n      pop\n      swap3\n      swap6\n      jump\t// out\n\n    auxdata: 0xa2646970667358221220473a252d827707e296e892215129812235995ac834ae8fd8252cc094832db95164736f6c634300081d0033\n}\n",
				"bytecode": {
					"linkReferences": {},
					"object": "6080604052348015600e575f5ffd5b506101f58061001c5f395ff3fe608060405234801561000f575f5ffd5b506004361061003f575f3560e01c806308805c2f146100435780639a7846b91461006e578063d3ac2e671461008d575b5f5ffd5b61005c6100513660046100d1565b5f9695505050505050565b60405190815260200160405180910390f35b6040805180820190915260018152606360f81b6020909101525f61005c565b60408051602081019091525f9081905261005c565b80356001600160a01b03811681146100b8575f5ffd5b919050565b634e487b7160e01b5f52604160045260245ffd5b5f5f5f5f5f5f60c087890312156100e6575f5ffd5b863595506020870135945060408701359350610104606088016100a2565b9250610112608088016100a2565b915060a087013567ffffffffffffffff81111561012d575f5ffd5b8701601f8101891361013d575f5ffd5b803567ffffffffffffffff811115610157576101576100bd565b604051601f8201601f19908116603f0116810167ffffffffffffffff81118282101715610186576101866100bd565b6040528181528282016020018b101561019d575f5ffd5b816020840160208301375f60208383010152809350505050929550929550929556fea2646970667358221220473a252d827707e296e892215129812235995ac834ae8fd8252cc094832db95164736f6c634300081d0033",
					"opcodes": "PUSH1 0x80 PUSH1 0x40 MSTORE CALLVALUE DUP1 ISZERO PUSH1 0xE JUMPI PUSH0 PUSH0 REVERT JUMPDEST POP PUSH2 0x1F5 DUP1 PUSH2 0x1C PUSH0 CODECOPY PUSH0 RETURN INVALID PUSH1 0x80 PUSH1 0x40 MSTORE CALLVALUE DUP1 ISZERO PUSH2 0xF JUMPI PUSH0 PUSH0 REVERT JUMPDEST POP PUSH1 0x4 CALLDATASIZE LT PUSH2 0x3F JUMPI PUSH0 CALLDATALOAD PUSH1 0xE0 SHR DUP1 PUSH4 0x8805C2F EQ PUSH2 0x43 JUMPI DUP1 PUSH4 0x9A7846B9 EQ PUSH2 0x6E JUMPI DUP1 PUSH4 0xD3AC2E67 EQ PUSH2 0x8D JUMPI JUMPDEST PUSH0 PUSH0 REVERT JUMPDEST PUSH2 0x5C PUSH2 0x51 CALLDATASIZE PUSH1 0x4 PUSH2 0xD1 JUMP JUMPDEST PUSH0 SWAP7 SWAP6 POP POP POP POP POP POP JUMP JUMPDEST PUSH1 0x40 MLOAD SWAP1 DUP2 MSTORE PUSH1 0x20 ADD PUSH1 0x40 MLOAD DUP1 SWAP2 SUB SWAP1 RETURN JUMPDEST PUSH1 0x40 DUP1 MLOAD DUP1 DUP3 ADD SWAP1 SWAP2 MSTORE PUSH1 0x1 DUP2 MSTORE PUSH1 0x63 PUSH1 0xF8 SHL PUSH1 0x20 SWAP1 SWAP2 ADD MSTORE PUSH0 PUSH2 0x5C JUMP JUMPDEST PUSH1 0x40 DUP1 MLOAD PUSH1 0x20 DUP2 ADD SWAP1 SWAP2 MSTORE PUSH0 SWAP1 DUP2 SWAP1 MSTORE PUSH2 0x5C JUMP JUMPDEST DUP1 CALLDATALOAD PUSH1 0x1 PUSH1 0x1 PUSH1 0xA0 SHL SUB DUP2 AND DUP2 EQ PUSH2 0xB8 JUMPI PUSH0 PUSH0 REVERT JUMPDEST SWAP2 SWAP1 POP JUMP JUMPDEST PUSH4 0x4E487B71 PUSH1 0xE0 SHL PUSH0 MSTORE PUSH1 0x41 PUSH1 0x4 MSTORE PUSH1 0x24 PUSH0 REVERT JUMPDEST PUSH0 PUSH0 PUSH0 PUSH0 PUSH0 PUSH0 PUSH1 0xC0 DUP8 DUP10 SUB SLT ISZERO PUSH2 0xE6 JUMPI PUSH0 PUSH0 REVERT JUMPDEST DUP7 CALLDATALOAD SWAP6 POP PUSH1 0x20 DUP8 ADD CALLDATALOAD SWAP5 POP PUSH1 0x40 DUP8 ADD CALLDATALOAD SWAP4 POP PUSH2 0x104 PUSH1 0x60 DUP9 ADD PUSH2 0xA2 JUMP JUMPDEST SWAP3 POP PUSH2 0x112 PUSH1 0x80 DUP9 ADD PUSH2 0xA2 JUMP JUMPDEST SWAP2 POP PUSH1 0xA0 DUP8 ADD CALLDATALOAD PUSH8 0xFFFFFFFFFFFFFFFF DUP2 GT ISZERO PUSH2 0x12D JUMPI PUSH0 PUSH0 REVERT JUMPDEST DUP8 ADD PUSH1 0x1F DUP2 ADD DUP10 SGT PUSH2 0x13D JUMPI PUSH0 PUSH0 REVERT JUMPDEST DUP1 CALLDATALOAD PUSH8 0xFFFFFFFFFFFFFFFF DUP2 GT ISZERO PUSH2 0x157 JUMPI PUSH2 0x157 PUSH2 0xBD JUMP JUMPDEST PUSH1 0x40 MLOAD PUSH1 0x1F DUP3 ADD PUSH1 0x1F NOT SWAP1 DUP2 AND PUSH1 0x3F ADD AND DUP2 ADD PUSH8 0xFFFFFFFFFFFFFFFF DUP2 GT DUP3 DUP3 LT OR ISZERO PUSH2 0x186 JUMPI PUSH2 0x186 PUSH2 0xBD JUMP JUMPDEST PUSH1 0x40 MSTORE DUP2 DUP2 MSTORE DUP3 DUP3 ADD PUSH1 0x20 ADD DUP12 LT ISZERO PUSH2 0x19D JUMPI PUSH0 PUSH0 REVERT JUMPDEST DUP2 PUSH1 0x20 DUP5 ADD PUSH1 0x20 DUP4 ADD CALLDATACOPY PUSH0 PUSH1 0x20 DUP4 DUP4 ADD ADD MSTORE DUP1 SWAP4 POP POP POP POP SWAP3 SWAP6 POP SWAP3 SWAP6 POP SWAP3 SWAP6 JUMP INVALID LOG2 PUSH5 0x6970667358 0x22 SLT KECCAK256 SELFBALANCE GASPRICE 0x25 0x2D DUP3 PUSH24 0x7E296E892215129812235995AC834AE8FD8252CC094832D 0xB9 MLOAD PUSH5 0x736F6C6343 STOP ADDMOD SAR STOP CALLER "
				},
				"gasEstimates": {
					"creation": {
						"codeDepositCost": "100200",
						"executionCost": "145",
						"totalCost": "100345"
					},
					"external": {
						"callFunc()": "244",
						"callFunc2()": "242",
						"someFuncWithManyInputs(uint256,uint256,uint256,address,address,string)": "infinite"
					}
				},
				"methodIdentifiers": {
					"callFunc()": "9a7846b9",
					"callFunc2()": "d3ac2e67",
					"someFuncWithManyInputs(uint256,uint256,uint256,address,address,string)": "08805c2f"
				}
			},
			"storageLayout": {
				"storage": [],
				"types": null
			},
			"userdoc": {
				"kind": "user",
				"methods": {},
				"version": 1
			}
		}
	}
}