{
	"transparent_upgrade1/Proxy3.sol": {
		"TestSlot": {
			"abi": [
				{
					"inputs": [],
					"name": "SLOT",
					"outputs": [
						{
							"internalType": "bytes32",
							"name": "",
							"type": "bytes32"
						}
					],
					"stateMutability": "view",
					"type": "function"
				},
				{
					"inputs": [],
					"name": "getSlot",
					"outputs": [
						{
							"internalType": "address",
							"name": "",
							"type": "address"
						}
					],
					"stateMutability": "view",
					"type": "function"
				},
				{
					"inputs": [
						{
							"internalType": "address",
							"name": "_addr",
							"type": "address"
						}
					],
					"name": "writeSlot",
					"outputs": [],
					"stateMutability": "nonpayable",
					"type": "function"
				}
			],
			"devdoc": {
				"kind": "dev",
				"methods": {},
				"version": 1
			},
			"evm": {
				"assembly": "    /* \"transparent_upgrade1/Proxy3.sol\":5602:6602  contract TestSlot {... */\n  mstore(0x40, 0x80)\n  callvalue\n  dup1\n  iszero\n  tag_1\n  jumpi\n  revert(0x00, 0x00)\ntag_1:\n  pop\n  dataSize(sub_0)\n  dup1\n  dataOffset(sub_0)\n  0x00\n  codecopy\n  0x00\n  return\nstop\n\nsub_0: assembly {\n        /* \"transparent_upgrade1/Proxy3.sol\":5602:6602  contract TestSlot {... */\n      mstore(0x40, 0x80)\n      callvalue\n      dup1\n      iszero\n      tag_1\n      jumpi\n      revert(0x00, 0x00)\n    tag_1:\n      pop\n      jumpi(tag_2, lt(calldatasize, 0x04))\n      shr(0xe0, calldataload(0x00))\n      dup1\n      0x6c877c84\n      eq\n      tag_3\n      jumpi\n      dup1\n      0x736e43cc\n      eq\n      tag_4\n      jumpi\n      dup1\n      0x80dee782\n      eq\n      tag_5\n      jumpi\n    tag_2:\n      revert(0x00, 0x00)\n        /* \"transparent_upgrade1/Proxy3.sol\":5991:6234  function getSlot() external view returns (address) {... */\n    tag_3:\n        /* \"transparent_upgrade1/Proxy3.sol\":5930:5952  keccak256(\"TEST_SLOT\") */\n      0xa7cb26ea17989bb9c5eb391c94c40892dcdc94bb4c381353450910ba80883e1c\n        /* \"transparent_upgrade1/Proxy3.sol\":6188:6226  StorageSlot.getAddressSlot(SLOT).value */\n      sload\n        /* \"transparent_upgrade1/Proxy3.sol\":5991:6234  function getSlot() external view returns (address) {... */\n      mload(0x40)\n      sub(shl(0xa0, 0x01), 0x01)\n        /* \"transparent_upgrade1/Proxy3.sol\":6188:6226  StorageSlot.getAddressSlot(SLOT).value */\n      swap1\n      swap2\n      and\n        /* \"#utility.yul\":160:211   */\n      dup2\n      mstore\n        /* \"#utility.yul\":148:150   */\n      0x20\n        /* \"#utility.yul\":133:151   */\n      add\n        /* \"transparent_upgrade1/Proxy3.sol\":5991:6234  function getSlot() external view returns (address) {... */\n    tag_8:\n      mload(0x40)\n      dup1\n      swap2\n      sub\n      swap1\n      return\n        /* \"transparent_upgrade1/Proxy3.sol\":5899:5952  bytes32 public constant SLOT = keccak256(\"TEST_SLOT\") */\n    tag_4:\n      tag_10\n        /* \"transparent_upgrade1/Proxy3.sol\":5930:5952  keccak256(\"TEST_SLOT\") */\n      0xa7cb26ea17989bb9c5eb391c94c40892dcdc94bb4c381353450910ba80883e1c\n        /* \"transparent_upgrade1/Proxy3.sol\":5899:5952  bytes32 public constant SLOT = keccak256(\"TEST_SLOT\") */\n      dup2\n      jump\n    tag_10:\n      mload(0x40)\n        /* \"#utility.yul\":368:393   */\n      swap1\n      dup2\n      mstore\n        /* \"#utility.yul\":356:358   */\n      0x20\n        /* \"#utility.yul\":341:359   */\n      add\n        /* \"transparent_upgrade1/Proxy3.sol\":5899:5952  bytes32 public constant SLOT = keccak256(\"TEST_SLOT\") */\n      tag_8\n        /* \"#utility.yul\":222:399   */\n      jump\n        /* \"transparent_upgrade1/Proxy3.sol\":6371:6599  function writeSlot(address _addr) external {... */\n    tag_5:\n      tag_14\n      tag_15\n      calldatasize\n      0x04\n      tag_16\n      jump\t// in\n    tag_15:\n        /* \"transparent_upgrade1/Proxy3.sol\":5930:5952  keccak256(\"TEST_SLOT\") */\n      0xa7cb26ea17989bb9c5eb391c94c40892dcdc94bb4c381353450910ba80883e1c\n        /* \"transparent_upgrade1/Proxy3.sol\":6545:6591  StorageSlot.getAddressSlot(SLOT).value = _addr */\n      dup1\n      sload\n      not(sub(shl(0xa0, 0x01), 0x01))\n      and\n      sub(shl(0xa0, 0x01), 0x01)\n      swap3\n      swap1\n      swap3\n      and\n      swap2\n      swap1\n      swap2\n      or\n      swap1\n      sstore\n        /* \"transparent_upgrade1/Proxy3.sol\":6371:6599  function writeSlot(address _addr) external {... */\n      jump\n    tag_14:\n      stop\n        /* \"#utility.yul\":404:690   */\n    tag_16:\n        /* \"#utility.yul\":463:469   */\n      0x00\n        /* \"#utility.yul\":516:518   */\n      0x20\n        /* \"#utility.yul\":504:513   */\n      dup3\n        /* \"#utility.yul\":495:502   */\n      dup5\n        /* \"#utility.yul\":491:514   */\n      sub\n        /* \"#utility.yul\":487:519   */\n      slt\n        /* \"#utility.yul\":484:536   */\n      iszero\n      tag_28\n      jumpi\n        /* \"#utility.yul\":532:533   */\n      0x00\n        /* \"#utility.yul\":529:530   */\n      0x00\n        /* \"#utility.yul\":522:534   */\n      revert\n        /* \"#utility.yul\":484:536   */\n    tag_28:\n        /* \"#utility.yul\":558:581   */\n      dup2\n      calldataload\n      sub(shl(0xa0, 0x01), 0x01)\n        /* \"#utility.yul\":610:641   */\n      dup2\n      and\n        /* \"#utility.yul\":600:642   */\n      dup2\n      eq\n        /* \"#utility.yul\":590:660   */\n      tag_29\n      jumpi\n        /* \"#utility.yul\":656:657   */\n      0x00\n        /* \"#utility.yul\":653:654   */\n      0x00\n        /* \"#utility.yul\":646:658   */\n      revert\n        /* \"#utility.yul\":590:660   */\n    tag_29:\n        /* \"#utility.yul\":679:684   */\n      swap4\n        /* \"#utility.yul\":404:690   */\n      swap3\n      pop\n      pop\n      pop\n      jump\t// out\n\n    auxdata: 0xa2646970667358221220c842286c053b839ba1ea22bad8f98b79f46e927a31a61a14d05974cd72e0fabc64736f6c634300081d0033\n}\n",
				"bytecode": {
					"linkReferences": {},
					"object": "6080604052348015600e575f5ffd5b5061016b8061001c5f395ff3fe608060405234801561000f575f5ffd5b506004361061003f575f3560e01c80636c877c8414610043578063736e43cc1461008257806380dee782146100b7575b5f5ffd5b7fa7cb26ea17989bb9c5eb391c94c40892dcdc94bb4c381353450910ba80883e1c546040516001600160a01b0390911681526020015b60405180910390f35b6100a97fa7cb26ea17989bb9c5eb391c94c40892dcdc94bb4c381353450910ba80883e1c81565b604051908152602001610079565b6101066100c5366004610108565b7fa7cb26ea17989bb9c5eb391c94c40892dcdc94bb4c381353450910ba80883e1c80546001600160a01b0319166001600160a01b0392909216919091179055565b005b5f60208284031215610118575f5ffd5b81356001600160a01b038116811461012e575f5ffd5b939250505056fea2646970667358221220c842286c053b839ba1ea22bad8f98b79f46e927a31a61a14d05974cd72e0fabc64736f6c634300081d0033",
					"opcodes": "PUSH1 0x80 PUSH1 0x40 MSTORE CALLVALUE DUP1 ISZERO PUSH1 0xE JUMPI PUSH0 PUSH0 REVERT JUMPDEST POP PUSH2 0x16B DUP1 PUSH2 0x1C PUSH0 CODECOPY PUSH0 RETURN INVALID PUSH1 0x80 PUSH1 0x40 MSTORE CALLVALUE DUP1 ISZERO PUSH2 0xF JUMPI PUSH0 PUSH0 REVERT JUMPDEST POP PUSH1 0x4 CALLDATASIZE LT PUSH2 0x3F JUMPI PUSH0 CALLDATALOAD PUSH1 0xE0 SHR DUP1 PUSH4 0x6C877C84 EQ PUSH2 0x43 JUMPI DUP1 PUSH4 0x736E43CC EQ PUSH2 0x82 JUMPI DUP1 PUSH4 0x80DEE782 EQ PUSH2 0xB7 JUMPI JUMPDEST PUSH0 PUSH0 REVERT JUMPDEST PUSH32 0xA7CB26EA17989BB9C5EB391C94C40892DCDC94BB4C381353450910BA80883E1C SLOAD PUSH1 0x40 MLOAD PUSH1 0x1 PUSH1 0x1 PUSH1 0xA0 SHL SUB SWAP1 SWAP2 AND DUP2 MSTORE PUSH1 0x20 ADD JUMPDEST PUSH1 0x40 MLOAD DUP1 SWAP2 SUB SWAP1 RETURN JUMPDEST PUSH2 0xA9 PUSH32 0xA7CB26EA17989BB9C5EB391C94C40892DCDC94BB4C381353450910BA80883E1C DUP2 JUMP JUMPDEST PUSH1 0x40 MLOAD SWAP1 DUP2 MSTORE PUSH1 0x20 ADD PUSH2 0x79 JUMP JUMPDEST PUSH2 0x106 PUSH2 0xC5 CALLDATASIZE PUSH1 0x4 PUSH2 0x108 JUMP JUMPDEST PUSH32 0xA7CB26EA17989BB9C5EB391C94C40892DCDC94BB4C381353450910BA80883E1C DUP1 SLOAD PUSH1 0x1 PUSH1 0x1 PUSH1 0xA0 SHL SUB NOT AND PUSH1 0x1 PUSH1 0x1 PUSH1 0xA0 SHL SUB SWAP3 SWAP1 SWAP3 AND SWAP2 SWAP1 SWAP2 OR SWAP1 SSTORE JUMP JUMPDEST STOP JUMPDEST PUSH0 PUSH1 0x20 DUP3 DUP5 SUB SLT ISZERO PUSH2 0x118 JUMPI PUSH0 PUSH0 REVERT JUMPDEST DUP2 CALLDATALOAD PUSH1 0x1 PUSH1 0x1 PUSH1 0xA0 SHL SUB DUP2 AND DUP2 EQ PUSH2 0x12E JUMPI PUSH0 PUSH0 REVERT JUMPDEST SWAP4 SWAP3 POP POP POP JUMP INVALID LOG2 PUSH5 0x6970667358 0x22 SLT KECCAK256 0xC8 TIMESTAMP 0x28 PUSH13 0x53B839BA1EA22BAD8F98B79F4 PUSH15 0x927A31A61A14D05974CD72E0FABC64 PUSH20 0x6F6C634300081D00330000000000000000000000 "
				},
				"gasEstimates": {
					"creation": {
						"codeDepositCost": "72600",
						"executionCost": "121",
						"totalCost": "72721"
					},
					"external": {
						"SLOT()": "194",
						"getSlot()": "2267",
						"writeSlot(address)": "24544"
					}
				},
				"methodIdentifiers": {
					"SLOT()": "736e43cc",
					"getSlot()": "6c877c84",
					"writeSlot(address)": "80dee782"
				}
			},
			"storageLayout": {
				"storage": [],
				"types": null
			},
			"userdoc": {
				"kind": "user",
				"methods": {},
				"version": 1
			}
		}
	}
}