{
	"transparent_upgrade1/Proxy3.sol": {
		"Proxy": {
			"abi": [
				{
					"inputs": [],
					"stateMutability": "nonpayable",
					"type": "constructor"
				},
				{
					"inputs": [],
					"name": "fallback",
					"outputs": [],
					"stateMutability": "payable",
					"type": "function"
				},
				{
					"inputs": [],
					"name": "getAdmin",
					"outputs": [
						{
							"internalType": "address",
							"name": "",
							"type": "address"
						}
					],
					"stateMutability": "nonpayable",
					"type": "function"
				},
				{
					"inputs": [],
					"name": "getImplemenation",
					"outputs": [
						{
							"internalType": "address",
							"name": "",
							"type": "address"
						}
					],
					"stateMutability": "nonpayable",
					"type": "function"
				},
				{
					"inputs": [
						{
							"internalType": "address",
							"name": "_implementation",
							"type": "address"
						}
					],
					"name": "upgradeTo",
					"outputs": [],
					"stateMutability": "nonpayable",
					"type": "function"
				},
				{
					"stateMutability": "payable",
					"type": "receive"
				}
			],
			"devdoc": {
				"kind": "dev",
				"methods": {},
				"version": 1
			},
			"evm": {
				"assembly": "    /* \"transparent_upgrade1/Proxy3.sol\":836:4754  contract Proxy{... */\n  mstore(0x40, 0x80)\n    /* \"transparent_upgrade1/Proxy3.sol\":1132:1185  constructor(){... */\n  callvalue\n  dup1\n  iszero\n  tag_1\n  jumpi\n  revert(0x00, 0x00)\ntag_1:\n  pop\n    /* \"transparent_upgrade1/Proxy3.sol\":1156:1177  _setAdmin(msg.sender) */\n  tag_4\n    /* \"transparent_upgrade1/Proxy3.sol\":1166:1176  msg.sender */\n  caller\n    /* \"transparent_upgrade1/Proxy3.sol\":1156:1165  _setAdmin */\n  tag_5\n    /* \"transparent_upgrade1/Proxy3.sol\":1156:1177  _setAdmin(msg.sender) */\n  jump\t// in\ntag_4:\n    /* \"transparent_upgrade1/Proxy3.sol\":836:4754  contract Proxy{... */\n  jump(tag_16)\n    /* \"transparent_upgrade1/Proxy3.sol\":3850:4020  function _setAdmin(address _admin) private {... */\ntag_5:\n  sub(shl(0xa0, 0x01), 0x01)\n    /* \"transparent_upgrade1/Proxy3.sol\":3912:3930  _admin!=address(0) */\n  dup2\n  and\n    /* \"transparent_upgrade1/Proxy3.sol\":3904:3950  require(_admin!=address(0),\"cannot set admin\") */\n  tag_8\n  jumpi\n  mload(0x40)\n  shl(0xe5, 0x461bcd)\n  dup2\n  mstore\n    /* \"#utility.yul\":216:218   */\n  0x20\n    /* \"transparent_upgrade1/Proxy3.sol\":3904:3950  require(_admin!=address(0),\"cannot set admin\") */\n  0x04\n  dup3\n  add\n    /* \"#utility.yul\":198:219   */\n  mstore\n    /* \"#utility.yul\":255:257   */\n  0x10\n    /* \"#utility.yul\":235:253   */\n  0x24\n  dup3\n  add\n    /* \"#utility.yul\":228:258   */\n  mstore\n  shl(0x81, 0x31b0b73737ba1039b2ba1030b236b4b7)\n    /* \"#utility.yul\":274:292   */\n  0x44\n  dup3\n  add\n    /* \"#utility.yul\":267:313   */\n  mstore\n    /* \"#utility.yul\":330:348   */\n  0x64\n  add\n    /* \"transparent_upgrade1/Proxy3.sol\":3904:3950  require(_admin!=address(0),\"cannot set admin\") */\n  mload(0x40)\n  dup1\n  swap2\n  sub\n  swap1\n  revert\ntag_8:\n    /* \"transparent_upgrade1/Proxy3.sol\":4006:4012  _admin */\n  dup1\n    /* \"transparent_upgrade1/Proxy3.sol\":3961:3999  StorageSlot.getAddressSlot(ADMIN_SLOT) */\n  tag_11\n    /* \"transparent_upgrade1/Proxy3.sol\":1082:1122  uint(keccak256(\"eip1967.proxy.admin\"))-1 */\n  tag_12\n    /* \"transparent_upgrade1/Proxy3.sol\":1121:1122  1 */\n  0x01\n    /* \"transparent_upgrade1/Proxy3.sol\":1087:1119  keccak256(\"eip1967.proxy.admin\") */\n  0xb53127684a568b3173ae13b9f8a6016e243e63b6e8ee1178d6a717850b5d6104\n    /* \"transparent_upgrade1/Proxy3.sol\":1082:1122  uint(keccak256(\"eip1967.proxy.admin\"))-1 */\n  tag_13\n  jump\t// in\ntag_12:\n    /* \"transparent_upgrade1/Proxy3.sol\":5509:5513  slot */\n  swap1\n    /* \"transparent_upgrade1/Proxy3.sol\":5380:5595  function getAddressSlot(bytes32 slot) internal pure returns (AddressSlot storage r) {... */\n  jump\n    /* \"transparent_upgrade1/Proxy3.sol\":3961:3999  StorageSlot.getAddressSlot(ADMIN_SLOT) */\ntag_11:\n    /* \"transparent_upgrade1/Proxy3.sol\":3961:4012  StorageSlot.getAddressSlot(ADMIN_SLOT).value=_admin */\n  dup1\n  sload\n  not(sub(shl(0xa0, 0x01), 0x01))\n  and\n  sub(shl(0xa0, 0x01), 0x01)\n  swap3\n  swap1\n  swap3\n  and\n  swap2\n  swap1\n  swap2\n  or\n  swap1\n  sstore\n  pop\n    /* \"transparent_upgrade1/Proxy3.sol\":3850:4020  function _setAdmin(address _admin) private {... */\n  jump\t// out\n    /* \"#utility.yul\":359:584   */\ntag_13:\n    /* \"#utility.yul\":426:435   */\n  dup2\n  dup2\n  sub\n    /* \"#utility.yul\":447:458   */\n  dup2\n  dup2\n  gt\n    /* \"#utility.yul\":444:578   */\n  iszero\n  tag_19\n  jumpi\n    /* \"#utility.yul\":500:510   */\n  0x4e487b71\n    /* \"#utility.yul\":495:498   */\n  0xe0\n    /* \"#utility.yul\":491:511   */\n  shl\n    /* \"#utility.yul\":488:489   */\n  0x00\n    /* \"#utility.yul\":481:512   */\n  mstore\n    /* \"#utility.yul\":535:539   */\n  0x11\n    /* \"#utility.yul\":532:533   */\n  0x04\n    /* \"#utility.yul\":525:540   */\n  mstore\n    /* \"#utility.yul\":563:567   */\n  0x24\n    /* \"#utility.yul\":560:561   */\n  0x00\n    /* \"#utility.yul\":553:568   */\n  revert\n    /* \"#utility.yul\":444:578   */\ntag_19:\n    /* \"#utility.yul\":359:584   */\n  swap3\n  swap2\n  pop\n  pop\n  jump\t// out\ntag_16:\n    /* \"transparent_upgrade1/Proxy3.sol\":836:4754  contract Proxy{... */\n  dataSize(sub_0)\n  dup1\n  dataOffset(sub_0)\n  0x00\n  codecopy\n  0x00\n  return\nstop\n\nsub_0: assembly {\n        /* \"transparent_upgrade1/Proxy3.sol\":836:4754  contract Proxy{... */\n      mstore(0x40, 0x80)\n      jumpi(tag_1, lt(calldatasize, 0x04))\n      shr(0xe0, calldataload(0x00))\n      dup1\n      0x3659cfe6\n      eq\n      tag_3\n      jumpi\n      dup1\n      0x3ce4ac68\n      eq\n      tag_4\n      jumpi\n      dup1\n      0x552079dc\n      eq\n      tag_5\n      jumpi\n      dup1\n      0x6e9960c3\n      eq\n      tag_6\n      jumpi\n      revert(0x00, 0x00)\n    tag_1:\n      jumpi(tag_2, calldatasize)\n        /* \"transparent_upgrade1/Proxy3.sol\":3520:3550  _delegate(_getImplemenation()) */\n      tag_9\n        /* \"transparent_upgrade1/Proxy3.sol\":3530:3549  _getImplemenation() */\n      tag_10\n        /* \"transparent_upgrade1/Proxy3.sol\":3530:3547  _getImplemenation */\n      tag_11\n        /* \"transparent_upgrade1/Proxy3.sol\":3530:3549  _getImplemenation() */\n      jump\t// in\n    tag_10:\n        /* \"transparent_upgrade1/Proxy3.sol\":3520:3529  _delegate */\n      tag_12\n        /* \"transparent_upgrade1/Proxy3.sol\":3520:3550  _delegate(_getImplemenation()) */\n      jump\t// in\n    tag_9:\n        /* \"transparent_upgrade1/Proxy3.sol\":836:4754  contract Proxy{... */\n      stop\n    tag_2:\n      revert(0x00, 0x00)\n        /* \"transparent_upgrade1/Proxy3.sol\":3729:3842  function upgradeTo(address _implementation) external ifAdmin{... */\n    tag_3:\n      callvalue\n      dup1\n      iszero\n      tag_13\n      jumpi\n      revert(0x00, 0x00)\n    tag_13:\n      pop\n      tag_9\n      tag_15\n      calldatasize\n      0x04\n      tag_16\n      jump\t// in\n    tag_15:\n      tag_17\n      jump\t// in\n        /* \"transparent_upgrade1/Proxy3.sol\":4644:4751  function getImplemenation() external ifAdmin returns(address) {... */\n    tag_4:\n      callvalue\n      dup1\n      iszero\n      tag_18\n      jumpi\n      revert(0x00, 0x00)\n    tag_18:\n      pop\n      tag_19\n      tag_20\n      jump\t// in\n    tag_19:\n      mload(0x40)\n      sub(shl(0xa0, 0x01), 0x01)\n        /* \"#utility.yul\":469:501   */\n      swap1\n      swap2\n      and\n        /* \"#utility.yul\":451:502   */\n      dup2\n      mstore\n        /* \"#utility.yul\":439:441   */\n      0x20\n        /* \"#utility.yul\":424:442   */\n      add\n        /* \"transparent_upgrade1/Proxy3.sol\":4644:4751  function getImplemenation() external ifAdmin returns(address) {... */\n      mload(0x40)\n      dup1\n      swap2\n      sub\n      swap1\n      return\n        /* \"transparent_upgrade1/Proxy3.sol\":3376:3474  function... */\n    tag_5:\n      tag_9\n      tag_24\n      jump\t// in\n        /* \"transparent_upgrade1/Proxy3.sol\":4547:4638  function getAdmin() external ifAdmin returns(address) {... */\n    tag_6:\n      callvalue\n      dup1\n      iszero\n      tag_25\n      jumpi\n      revert(0x00, 0x00)\n    tag_25:\n      pop\n      tag_19\n      tag_27\n      jump\t// in\n        /* \"transparent_upgrade1/Proxy3.sol\":4398:4535  function _getImplemenation() private view returns(address) {... */\n    tag_11:\n        /* \"transparent_upgrade1/Proxy3.sol\":4448:4455  address */\n      0x00\n        /* \"transparent_upgrade1/Proxy3.sol\":4475:4521  StorageSlot.getAddressSlot(IMPLEMENATION_SLOT) */\n      tag_30\n        /* \"transparent_upgrade1/Proxy3.sol\":977:1026  uint(keccak256(\"eip1967.proxy.implementation\"))-1 */\n      tag_31\n        /* \"transparent_upgrade1/Proxy3.sol\":1025:1026  1 */\n      0x01\n        /* \"transparent_upgrade1/Proxy3.sol\":982:1023  keccak256(\"eip1967.proxy.implementation\") */\n      0x360894a13ba1a3210667c828492db98dca3e2076cc3735a920a3ca505d382bbd\n        /* \"transparent_upgrade1/Proxy3.sol\":977:1026  uint(keccak256(\"eip1967.proxy.implementation\"))-1 */\n      tag_32\n      jump\t// in\n    tag_31:\n        /* \"transparent_upgrade1/Proxy3.sol\":5509:5513  slot */\n      swap1\n        /* \"transparent_upgrade1/Proxy3.sol\":5380:5595  function getAddressSlot(bytes32 slot) internal pure returns (AddressSlot storage r) {... */\n      jump\n        /* \"transparent_upgrade1/Proxy3.sol\":4475:4521  StorageSlot.getAddressSlot(IMPLEMENATION_SLOT) */\n    tag_30:\n        /* \"transparent_upgrade1/Proxy3.sol\":4475:4527  StorageSlot.getAddressSlot(IMPLEMENATION_SLOT).value */\n      sload\n      sub(shl(0xa0, 0x01), 0x01)\n      and\n      swap2\n        /* \"transparent_upgrade1/Proxy3.sol\":4398:4535  function _getImplemenation() private view returns(address) {... */\n      swap1\n      pop\n      jump\t// out\n        /* \"transparent_upgrade1/Proxy3.sol\":1193:3370  function _delegate(address _implementation) private {... */\n    tag_12:\n        /* \"transparent_upgrade1/Proxy3.sol\":1722:1736  calldatasize() */\n      calldatasize\n        /* \"transparent_upgrade1/Proxy3.sol\":1719:1720  0 */\n      0x00\n        /* \"transparent_upgrade1/Proxy3.sol\":1716:1717  0 */\n      0x00\n        /* \"transparent_upgrade1/Proxy3.sol\":1703:1737  calldatacopy(0, 0, calldatasize()) */\n      calldatacopy\n        /* \"transparent_upgrade1/Proxy3.sol\":2362:2363  0 */\n      0x00\n        /* \"transparent_upgrade1/Proxy3.sol\":2342:2343  0 */\n      0x00\n        /* \"transparent_upgrade1/Proxy3.sol\":2309:2323  calldatasize() */\n      calldatasize\n        /* \"transparent_upgrade1/Proxy3.sol\":2289:2290  0 */\n      0x00\n        /* \"transparent_upgrade1/Proxy3.sol\":2255:2270  _implementation */\n      dup5\n        /* \"transparent_upgrade1/Proxy3.sol\":2231:2236  gas() */\n      gas\n        /* \"transparent_upgrade1/Proxy3.sol\":2200:2378  delegatecall(... */\n      delegatecall\n        /* \"transparent_upgrade1/Proxy3.sol\":2663:2679  returndatasize() */\n      returndatasize\n        /* \"transparent_upgrade1/Proxy3.sol\":2660:2661  0 */\n      0x00\n        /* \"transparent_upgrade1/Proxy3.sol\":2657:2658  0 */\n      0x00\n        /* \"transparent_upgrade1/Proxy3.sol\":2642:2680  returndatacopy(0, 0, returndatasize()) */\n      returndatacopy\n        /* \"transparent_upgrade1/Proxy3.sol\":2738:2744  result */\n      dup1\n        /* \"transparent_upgrade1/Proxy3.sol\":2758:3052  case 0 {  // 调用失败... */\n      dup1\n      iszero\n      tag_36\n      jumpi\n        /* \"transparent_upgrade1/Proxy3.sol\":3320:3336  returndatasize() */\n      returndatasize\n        /* \"transparent_upgrade1/Proxy3.sol\":3317:3318  0 */\n      0x00\n        /* \"transparent_upgrade1/Proxy3.sol\":3310:3337  return(0, returndatasize()) */\n      return\n        /* \"transparent_upgrade1/Proxy3.sol\":2758:3052  case 0 {  // 调用失败... */\n    tag_36:\n        /* \"transparent_upgrade1/Proxy3.sol\":3020:3036  returndatasize() */\n      returndatasize\n        /* \"transparent_upgrade1/Proxy3.sol\":3017:3018  0 */\n      0x00\n        /* \"transparent_upgrade1/Proxy3.sol\":3010:3037  revert(0, returndatasize()) */\n      revert\n        /* \"transparent_upgrade1/Proxy3.sol\":3729:3842  function upgradeTo(address _implementation) external ifAdmin{... */\n    tag_17:\n        /* \"transparent_upgrade1/Proxy3.sol\":3612:3623  _getAdmin() */\n      tag_38\n        /* \"transparent_upgrade1/Proxy3.sol\":3612:3621  _getAdmin */\n      tag_39\n        /* \"transparent_upgrade1/Proxy3.sol\":3612:3623  _getAdmin() */\n      jump\t// in\n    tag_38:\n      sub(shl(0xa0, 0x01), 0x01)\n        /* \"transparent_upgrade1/Proxy3.sol\":3598:3623  msg.sender == _getAdmin() */\n      and\n        /* \"transparent_upgrade1/Proxy3.sol\":3598:3608  msg.sender */\n      caller\n        /* \"transparent_upgrade1/Proxy3.sol\":3598:3623  msg.sender == _getAdmin() */\n      sub\n        /* \"transparent_upgrade1/Proxy3.sol\":3595:3714  if(msg.sender == _getAdmin()){... */\n      tag_40\n      jumpi\n        /* \"transparent_upgrade1/Proxy3.sol\":3800:3834  _setImplemenation(_implementation) */\n      tag_42\n        /* \"transparent_upgrade1/Proxy3.sol\":3818:3833  _implementation */\n      dup2\n        /* \"transparent_upgrade1/Proxy3.sol\":3800:3817  _setImplemenation */\n      tag_43\n        /* \"transparent_upgrade1/Proxy3.sol\":3800:3834  _setImplemenation(_implementation) */\n      jump\t// in\n    tag_42:\n        /* \"transparent_upgrade1/Proxy3.sol\":3729:3842  function upgradeTo(address _implementation) external ifAdmin{... */\n      pop\n      jump\t// out\n        /* \"transparent_upgrade1/Proxy3.sol\":3595:3714  if(msg.sender == _getAdmin()){... */\n    tag_40:\n        /* \"transparent_upgrade1/Proxy3.sol\":3672:3702  _delegate(_getImplemenation()) */\n      tag_42\n        /* \"transparent_upgrade1/Proxy3.sol\":3682:3701  _getImplemenation() */\n      tag_10\n        /* \"transparent_upgrade1/Proxy3.sol\":3682:3699  _getImplemenation */\n      tag_11\n        /* \"transparent_upgrade1/Proxy3.sol\":3682:3701  _getImplemenation() */\n      jump\t// in\n        /* \"transparent_upgrade1/Proxy3.sol\":4644:4751  function getImplemenation() external ifAdmin returns(address) {... */\n    tag_20:\n        /* \"transparent_upgrade1/Proxy3.sol\":4697:4704  address */\n      0x00\n        /* \"transparent_upgrade1/Proxy3.sol\":3612:3623  _getAdmin() */\n      tag_48\n        /* \"transparent_upgrade1/Proxy3.sol\":3612:3621  _getAdmin */\n      tag_39\n        /* \"transparent_upgrade1/Proxy3.sol\":3612:3623  _getAdmin() */\n      jump\t// in\n    tag_48:\n      sub(shl(0xa0, 0x01), 0x01)\n        /* \"transparent_upgrade1/Proxy3.sol\":3598:3623  msg.sender == _getAdmin() */\n      and\n        /* \"transparent_upgrade1/Proxy3.sol\":3598:3608  msg.sender */\n      caller\n        /* \"transparent_upgrade1/Proxy3.sol\":3598:3623  msg.sender == _getAdmin() */\n      sub\n        /* \"transparent_upgrade1/Proxy3.sol\":3595:3714  if(msg.sender == _getAdmin()){... */\n      tag_49\n      jumpi\n        /* \"transparent_upgrade1/Proxy3.sol\":4724:4743  _getImplemenation() */\n      tag_51\n        /* \"transparent_upgrade1/Proxy3.sol\":4724:4741  _getImplemenation */\n      tag_11\n        /* \"transparent_upgrade1/Proxy3.sol\":4724:4743  _getImplemenation() */\n      jump\t// in\n    tag_51:\n        /* \"transparent_upgrade1/Proxy3.sol\":4717:4743  return _getImplemenation() */\n      swap1\n      pop\n        /* \"transparent_upgrade1/Proxy3.sol\":5509:5513  slot */\n      swap1\n        /* \"transparent_upgrade1/Proxy3.sol\":5380:5595  function getAddressSlot(bytes32 slot) internal pure returns (AddressSlot storage r) {... */\n      jump\n        /* \"transparent_upgrade1/Proxy3.sol\":3595:3714  if(msg.sender == _getAdmin()){... */\n    tag_49:\n        /* \"transparent_upgrade1/Proxy3.sol\":3672:3702  _delegate(_getImplemenation()) */\n      tag_31\n        /* \"transparent_upgrade1/Proxy3.sol\":3682:3701  _getImplemenation() */\n      tag_10\n        /* \"transparent_upgrade1/Proxy3.sol\":3682:3699  _getImplemenation */\n      tag_11\n        /* \"transparent_upgrade1/Proxy3.sol\":3682:3701  _getImplemenation() */\n      jump\t// in\n        /* \"transparent_upgrade1/Proxy3.sol\":3376:3474  function... */\n    tag_24:\n        /* \"transparent_upgrade1/Proxy3.sol\":3436:3466  _delegate(_getImplemenation()) */\n      tag_56\n        /* \"transparent_upgrade1/Proxy3.sol\":3446:3465  _getImplemenation() */\n      tag_10\n        /* \"transparent_upgrade1/Proxy3.sol\":3446:3463  _getImplemenation */\n      tag_11\n        /* \"transparent_upgrade1/Proxy3.sol\":3446:3465  _getImplemenation() */\n      jump\t// in\n        /* \"transparent_upgrade1/Proxy3.sol\":3436:3466  _delegate(_getImplemenation()) */\n    tag_56:\n        /* \"transparent_upgrade1/Proxy3.sol\":3376:3474  function... */\n      jump\t// out\n        /* \"transparent_upgrade1/Proxy3.sol\":4547:4638  function getAdmin() external ifAdmin returns(address) {... */\n    tag_27:\n        /* \"transparent_upgrade1/Proxy3.sol\":4592:4599  address */\n      0x00\n        /* \"transparent_upgrade1/Proxy3.sol\":3612:3623  _getAdmin() */\n      tag_59\n        /* \"transparent_upgrade1/Proxy3.sol\":3612:3621  _getAdmin */\n      tag_39\n        /* \"transparent_upgrade1/Proxy3.sol\":3612:3623  _getAdmin() */\n      jump\t// in\n    tag_59:\n      sub(shl(0xa0, 0x01), 0x01)\n        /* \"transparent_upgrade1/Proxy3.sol\":3598:3623  msg.sender == _getAdmin() */\n      and\n        /* \"transparent_upgrade1/Proxy3.sol\":3598:3608  msg.sender */\n      caller\n        /* \"transparent_upgrade1/Proxy3.sol\":3598:3623  msg.sender == _getAdmin() */\n      sub\n        /* \"transparent_upgrade1/Proxy3.sol\":3595:3714  if(msg.sender == _getAdmin()){... */\n      tag_49\n      jumpi\n        /* \"transparent_upgrade1/Proxy3.sol\":4619:4630  _getAdmin() */\n      tag_51\n        /* \"transparent_upgrade1/Proxy3.sol\":4033:4156  function _getAdmin() private  view  returns(address) {... */\n    tag_39:\n        /* \"transparent_upgrade1/Proxy3.sol\":4077:4084  address */\n      0x00\n        /* \"transparent_upgrade1/Proxy3.sol\":4104:4142  StorageSlot.getAddressSlot(ADMIN_SLOT) */\n      tag_30\n        /* \"transparent_upgrade1/Proxy3.sol\":1082:1122  uint(keccak256(\"eip1967.proxy.admin\"))-1 */\n      tag_31\n        /* \"transparent_upgrade1/Proxy3.sol\":1121:1122  1 */\n      0x01\n        /* \"transparent_upgrade1/Proxy3.sol\":1087:1119  keccak256(\"eip1967.proxy.admin\") */\n      0xb53127684a568b3173ae13b9f8a6016e243e63b6e8ee1178d6a717850b5d6104\n        /* \"transparent_upgrade1/Proxy3.sol\":1082:1122  uint(keccak256(\"eip1967.proxy.admin\"))-1 */\n      tag_32\n      jump\t// in\n        /* \"transparent_upgrade1/Proxy3.sol\":4164:4386  function _setImplemenation(address _implemenation) private {... */\n    tag_43:\n        /* \"transparent_upgrade1/Proxy3.sol\":4271:4272  0 */\n      0x00\n        /* \"transparent_upgrade1/Proxy3.sol\":4242:4256  _implemenation */\n      dup2\n      sub(shl(0xa0, 0x01), 0x01)\n        /* \"transparent_upgrade1/Proxy3.sol\":4242:4268  _implemenation.code.length */\n      and\n      extcodesize\n        /* \"transparent_upgrade1/Proxy3.sol\":4242:4272  _implemenation.code.length > 0 */\n      gt\n        /* \"transparent_upgrade1/Proxy3.sol\":4234:4300  require(_implemenation.code.length > 0,\"cannot set implemenation\") */\n      tag_71\n      jumpi\n      mload(0x40)\n      shl(0xe5, 0x461bcd)\n      dup2\n      mstore\n        /* \"#utility.yul\":945:947   */\n      0x20\n        /* \"transparent_upgrade1/Proxy3.sol\":4234:4300  require(_implemenation.code.length > 0,\"cannot set implemenation\") */\n      0x04\n      dup3\n      add\n        /* \"#utility.yul\":927:948   */\n      mstore\n        /* \"#utility.yul\":984:986   */\n      0x18\n        /* \"#utility.yul\":964:982   */\n      0x24\n      dup3\n      add\n        /* \"#utility.yul\":957:987   */\n      mstore\n        /* \"#utility.yul\":1023:1049   */\n      0x63616e6e6f742073657420696d706c656d656e6174696f6e0000000000000000\n        /* \"#utility.yul\":1003:1021   */\n      0x44\n      dup3\n      add\n        /* \"#utility.yul\":996:1050   */\n      mstore\n        /* \"#utility.yul\":1067:1085   */\n      0x64\n      add\n        /* \"transparent_upgrade1/Proxy3.sol\":4234:4300  require(_implemenation.code.length > 0,\"cannot set implemenation\") */\n      mload(0x40)\n      dup1\n      swap2\n      sub\n      swap1\n      revert\n    tag_71:\n        /* \"transparent_upgrade1/Proxy3.sol\":4364:4378  _implemenation */\n      dup1\n        /* \"transparent_upgrade1/Proxy3.sol\":4311:4357  StorageSlot.getAddressSlot(IMPLEMENATION_SLOT) */\n      tag_74\n        /* \"transparent_upgrade1/Proxy3.sol\":977:1026  uint(keccak256(\"eip1967.proxy.implementation\"))-1 */\n      tag_31\n        /* \"transparent_upgrade1/Proxy3.sol\":1025:1026  1 */\n      0x01\n        /* \"transparent_upgrade1/Proxy3.sol\":982:1023  keccak256(\"eip1967.proxy.implementation\") */\n      0x360894a13ba1a3210667c828492db98dca3e2076cc3735a920a3ca505d382bbd\n        /* \"transparent_upgrade1/Proxy3.sol\":977:1026  uint(keccak256(\"eip1967.proxy.implementation\"))-1 */\n      tag_32\n      jump\t// in\n        /* \"transparent_upgrade1/Proxy3.sol\":4311:4357  StorageSlot.getAddressSlot(IMPLEMENATION_SLOT) */\n    tag_74:\n        /* \"transparent_upgrade1/Proxy3.sol\":4311:4378  StorageSlot.getAddressSlot(IMPLEMENATION_SLOT).value=_implemenation */\n      dup1\n      sload\n      not(sub(shl(0xa0, 0x01), 0x01))\n      and\n      sub(shl(0xa0, 0x01), 0x01)\n      swap3\n      swap1\n      swap3\n      and\n      swap2\n      swap1\n      swap2\n      or\n      swap1\n      sstore\n      pop\n        /* \"transparent_upgrade1/Proxy3.sol\":4164:4386  function _setImplemenation(address _implemenation) private {... */\n      jump\t// out\n        /* \"#utility.yul\":14:300   */\n    tag_16:\n        /* \"#utility.yul\":73:79   */\n      0x00\n        /* \"#utility.yul\":126:128   */\n      0x20\n        /* \"#utility.yul\":114:123   */\n      dup3\n        /* \"#utility.yul\":105:112   */\n      dup5\n        /* \"#utility.yul\":101:124   */\n      sub\n        /* \"#utility.yul\":97:129   */\n      slt\n        /* \"#utility.yul\":94:146   */\n      iszero\n      tag_78\n      jumpi\n        /* \"#utility.yul\":142:143   */\n      0x00\n        /* \"#utility.yul\":139:140   */\n      0x00\n        /* \"#utility.yul\":132:144   */\n      revert\n        /* \"#utility.yul\":94:146   */\n    tag_78:\n        /* \"#utility.yul\":168:191   */\n      dup2\n      calldataload\n      sub(shl(0xa0, 0x01), 0x01)\n        /* \"#utility.yul\":220:251   */\n      dup2\n      and\n        /* \"#utility.yul\":210:252   */\n      dup2\n      eq\n        /* \"#utility.yul\":200:270   */\n      tag_79\n      jumpi\n        /* \"#utility.yul\":266:267   */\n      0x00\n        /* \"#utility.yul\":263:264   */\n      0x00\n        /* \"#utility.yul\":256:268   */\n      revert\n        /* \"#utility.yul\":200:270   */\n    tag_79:\n        /* \"#utility.yul\":289:294   */\n      swap4\n        /* \"#utility.yul\":14:300   */\n      swap3\n      pop\n      pop\n      pop\n      jump\t// out\n        /* \"#utility.yul\":513:738   */\n    tag_32:\n        /* \"#utility.yul\":580:589   */\n      dup2\n      dup2\n      sub\n        /* \"#utility.yul\":601:612   */\n      dup2\n      dup2\n      gt\n        /* \"#utility.yul\":598:732   */\n      iszero\n      tag_82\n      jumpi\n        /* \"#utility.yul\":654:664   */\n      0x4e487b71\n        /* \"#utility.yul\":649:652   */\n      0xe0\n        /* \"#utility.yul\":645:665   */\n      shl\n        /* \"#utility.yul\":642:643   */\n      0x00\n        /* \"#utility.yul\":635:666   */\n      mstore\n        /* \"#utility.yul\":689:693   */\n      0x11\n        /* \"#utility.yul\":686:687   */\n      0x04\n        /* \"#utility.yul\":679:694   */\n      mstore\n        /* \"#utility.yul\":717:721   */\n      0x24\n        /* \"#utility.yul\":714:715   */\n      0x00\n        /* \"#utility.yul\":707:722   */\n      revert\n        /* \"#utility.yul\":598:732   */\n    tag_82:\n        /* \"#utility.yul\":513:738   */\n      swap3\n      swap2\n      pop\n      pop\n      jump\t// out\n\n    auxdata: 0xa2646970667358221220a3263410c15f7f2a95b41b22272b6506f2239cb516715bcd888ab168fafa9f1c64736f6c634300081d0033\n}\n",
				"bytecode": {
					"linkReferences": {},
					"object": "6080604052348015600e575f5ffd5b50601633601a565b60da565b6001600160a01b03811660665760405162461bcd60e51b815260206004820152601060248201526f31b0b73737ba1039b2ba1030b236b4b760811b604482015260640160405180910390fd5b806095609260017fb53127684a568b3173ae13b9f8a6016e243e63b6e8ee1178d6a717850b5d610460b6565b90565b80546001600160a01b0319166001600160a01b039290921691909117905550565b8181038181111560d457634e487b7160e01b5f52601160045260245ffd5b92915050565b610311806100e75f395ff3fe608060405260043610610041575f3560e01c80633659cfe61461005c5780633ce4ac681461007b578063552079dc146100ab5780636e9960c3146100b3575f5ffd5b36610058576100566100516100c7565b610108565b005b5f5ffd5b348015610067575f5ffd5b50610056610076366004610289565b610126565b348015610086575f5ffd5b5061008f610154565b6040516001600160a01b03909116815260200160405180910390f35b610056610184565b3480156100be575f5ffd5b5061008f610191565b5f6100f96100f660017f360894a13ba1a3210667c828492db98dca3e2076cc3735a920a3ca505d382bbd6102b6565b90565b546001600160a01b0316919050565b365f5f375f5f365f845af43d5f5f3e808015610122573d5ff35b3d5ffd5b61012e6101ad565b6001600160a01b0316330361014957610146816101dc565b50565b6101466100516100c7565b5f61015d6101ad565b6001600160a01b03163303610179576101746100c7565b905090565b6100f66100516100c7565b61018f6100516100c7565b565b5f61019a6101ad565b6001600160a01b03163303610179576101745b5f6100f96100f660017fb53127684a568b3173ae13b9f8a6016e243e63b6e8ee1178d6a717850b5d61046102b6565b5f816001600160a01b03163b116102395760405162461bcd60e51b815260206004820152601860248201527f63616e6e6f742073657420696d706c656d656e6174696f6e0000000000000000604482015260640160405180910390fd5b806102686100f660017f360894a13ba1a3210667c828492db98dca3e2076cc3735a920a3ca505d382bbd6102b6565b80546001600160a01b0319166001600160a01b039290921691909117905550565b5f60208284031215610299575f5ffd5b81356001600160a01b03811681146102af575f5ffd5b9392505050565b818103818111156102d557634e487b7160e01b5f52601160045260245ffd5b9291505056fea2646970667358221220a3263410c15f7f2a95b41b22272b6506f2239cb516715bcd888ab168fafa9f1c64736f6c634300081d0033",
					"opcodes": "PUSH1 0x80 PUSH1 0x40 MSTORE CALLVALUE DUP1 ISZERO PUSH1 0xE JUMPI PUSH0 PUSH0 REVERT JUMPDEST POP PUSH1 0x16 CALLER PUSH1 0x1A JUMP JUMPDEST PUSH1 0xDA JUMP JUMPDEST PUSH1 0x1 PUSH1 0x1 PUSH1 0xA0 SHL SUB DUP2 AND PUSH1 0x66 JUMPI PUSH1 0x40 MLOAD PUSH3 0x461BCD PUSH1 0xE5 SHL DUP2 MSTORE PUSH1 0x20 PUSH1 0x4 DUP3 ADD MSTORE PUSH1 0x10 PUSH1 0x24 DUP3 ADD MSTORE PUSH16 0x31B0B73737BA1039B2BA1030B236B4B7 PUSH1 0x81 SHL PUSH1 0x44 DUP3 ADD MSTORE PUSH1 0x64 ADD PUSH1 0x40 MLOAD DUP1 SWAP2 SUB SWAP1 REVERT JUMPDEST DUP1 PUSH1 0x95 PUSH1 0x92 PUSH1 0x1 PUSH32 0xB53127684A568B3173AE13B9F8A6016E243E63B6E8EE1178D6A717850B5D6104 PUSH1 0xB6 JUMP JUMPDEST SWAP1 JUMP JUMPDEST DUP1 SLOAD PUSH1 0x1 PUSH1 0x1 PUSH1 0xA0 SHL SUB NOT AND PUSH1 0x1 PUSH1 0x1 PUSH1 0xA0 SHL SUB SWAP3 SWAP1 SWAP3 AND SWAP2 SWAP1 SWAP2 OR SWAP1 SSTORE POP JUMP JUMPDEST DUP2 DUP2 SUB DUP2 DUP2 GT ISZERO PUSH1 0xD4 JUMPI PUSH4 0x4E487B71 PUSH1 0xE0 SHL PUSH0 MSTORE PUSH1 0x11 PUSH1 0x4 MSTORE PUSH1 0x24 PUSH0 REVERT JUMPDEST SWAP3 SWAP2 POP POP JUMP JUMPDEST PUSH2 0x311 DUP1 PUSH2 0xE7 PUSH0 CODECOPY PUSH0 RETURN INVALID PUSH1 0x80 PUSH1 0x40 MSTORE PUSH1 0x4 CALLDATASIZE LT PUSH2 0x41 JUMPI PUSH0 CALLDATALOAD PUSH1 0xE0 SHR DUP1 PUSH4 0x3659CFE6 EQ PUSH2 0x5C JUMPI DUP1 PUSH4 0x3CE4AC68 EQ PUSH2 0x7B JUMPI DUP1 PUSH4 0x552079DC EQ PUSH2 0xAB JUMPI DUP1 PUSH4 0x6E9960C3 EQ PUSH2 0xB3 JUMPI PUSH0 PUSH0 REVERT JUMPDEST CALLDATASIZE PUSH2 0x58 JUMPI PUSH2 0x56 PUSH2 0x51 PUSH2 0xC7 JUMP JUMPDEST PUSH2 0x108 JUMP JUMPDEST STOP JUMPDEST PUSH0 PUSH0 REVERT JUMPDEST CALLVALUE DUP1 ISZERO PUSH2 0x67 JUMPI PUSH0 PUSH0 REVERT JUMPDEST POP PUSH2 0x56 PUSH2 0x76 CALLDATASIZE PUSH1 0x4 PUSH2 0x289 JUMP JUMPDEST PUSH2 0x126 JUMP JUMPDEST CALLVALUE DUP1 ISZERO PUSH2 0x86 JUMPI PUSH0 PUSH0 REVERT JUMPDEST POP PUSH2 0x8F PUSH2 0x154 JUMP JUMPDEST PUSH1 0x40 MLOAD PUSH1 0x1 PUSH1 0x1 PUSH1 0xA0 SHL SUB SWAP1 SWAP2 AND DUP2 MSTORE PUSH1 0x20 ADD PUSH1 0x40 MLOAD DUP1 SWAP2 SUB SWAP1 RETURN JUMPDEST PUSH2 0x56 PUSH2 0x184 JUMP JUMPDEST CALLVALUE DUP1 ISZERO PUSH2 0xBE JUMPI PUSH0 PUSH0 REVERT JUMPDEST POP PUSH2 0x8F PUSH2 0x191 JUMP JUMPDEST PUSH0 PUSH2 0xF9 PUSH2 0xF6 PUSH1 0x1 PUSH32 0x360894A13BA1A3210667C828492DB98DCA3E2076CC3735A920A3CA505D382BBD PUSH2 0x2B6 JUMP JUMPDEST SWAP1 JUMP JUMPDEST SLOAD PUSH1 0x1 PUSH1 0x1 PUSH1 0xA0 SHL SUB AND SWAP2 SWAP1 POP JUMP JUMPDEST CALLDATASIZE PUSH0 PUSH0 CALLDATACOPY PUSH0 PUSH0 CALLDATASIZE PUSH0 DUP5 GAS DELEGATECALL RETURNDATASIZE PUSH0 PUSH0 RETURNDATACOPY DUP1 DUP1 ISZERO PUSH2 0x122 JUMPI RETURNDATASIZE PUSH0 RETURN JUMPDEST RETURNDATASIZE PUSH0 REVERT JUMPDEST PUSH2 0x12E PUSH2 0x1AD JUMP JUMPDEST PUSH1 0x1 PUSH1 0x1 PUSH1 0xA0 SHL SUB AND CALLER SUB PUSH2 0x149 JUMPI PUSH2 0x146 DUP2 PUSH2 0x1DC JUMP JUMPDEST POP JUMP JUMPDEST PUSH2 0x146 PUSH2 0x51 PUSH2 0xC7 JUMP JUMPDEST PUSH0 PUSH2 0x15D PUSH2 0x1AD JUMP JUMPDEST PUSH1 0x1 PUSH1 0x1 PUSH1 0xA0 SHL SUB AND CALLER SUB PUSH2 0x179 JUMPI PUSH2 0x174 PUSH2 0xC7 JUMP JUMPDEST SWAP1 POP SWAP1 JUMP JUMPDEST PUSH2 0xF6 PUSH2 0x51 PUSH2 0xC7 JUMP JUMPDEST PUSH2 0x18F PUSH2 0x51 PUSH2 0xC7 JUMP JUMPDEST JUMP JUMPDEST PUSH0 PUSH2 0x19A PUSH2 0x1AD JUMP JUMPDEST PUSH1 0x1 PUSH1 0x1 PUSH1 0xA0 SHL SUB AND CALLER SUB PUSH2 0x179 JUMPI PUSH2 0x174 JUMPDEST PUSH0 PUSH2 0xF9 PUSH2 0xF6 PUSH1 0x1 PUSH32 0xB53127684A568B3173AE13B9F8A6016E243E63B6E8EE1178D6A717850B5D6104 PUSH2 0x2B6 JUMP JUMPDEST PUSH0 DUP2 PUSH1 0x1 PUSH1 0x1 PUSH1 0xA0 SHL SUB AND EXTCODESIZE GT PUSH2 0x239 JUMPI PUSH1 0x40 MLOAD PUSH3 0x461BCD PUSH1 0xE5 SHL DUP2 MSTORE PUSH1 0x20 PUSH1 0x4 DUP3 ADD MSTORE PUSH1 0x18 PUSH1 0x24 DUP3 ADD MSTORE PUSH32 0x63616E6E6F742073657420696D706C656D656E6174696F6E0000000000000000 PUSH1 0x44 DUP3 ADD MSTORE PUSH1 0x64 ADD PUSH1 0x40 MLOAD DUP1 SWAP2 SUB SWAP1 REVERT JUMPDEST DUP1 PUSH2 0x268 PUSH2 0xF6 PUSH1 0x1 PUSH32 0x360894A13BA1A3210667C828492DB98DCA3E2076CC3735A920A3CA505D382BBD PUSH2 0x2B6 JUMP JUMPDEST DUP1 SLOAD PUSH1 0x1 PUSH1 0x1 PUSH1 0xA0 SHL SUB NOT AND PUSH1 0x1 PUSH1 0x1 PUSH1 0xA0 SHL SUB SWAP3 SWAP1 SWAP3 AND SWAP2 SWAP1 SWAP2 OR SWAP1 SSTORE POP JUMP JUMPDEST PUSH0 PUSH1 0x20 DUP3 DUP5 SUB SLT ISZERO PUSH2 0x299 JUMPI PUSH0 PUSH0 REVERT JUMPDEST DUP2 CALLDATALOAD PUSH1 0x1 PUSH1 0x1 PUSH1 0xA0 SHL SUB DUP2 AND DUP2 EQ PUSH2 0x2AF JUMPI PUSH0 PUSH0 REVERT JUMPDEST SWAP4 SWAP3 POP POP POP JUMP JUMPDEST DUP2 DUP2 SUB DUP2 DUP2 GT ISZERO PUSH2 0x2D5 JUMPI PUSH4 0x4E487B71 PUSH1 0xE0 SHL PUSH0 MSTORE PUSH1 0x11 PUSH1 0x4 MSTORE PUSH1 0x24 PUSH0 REVERT JUMPDEST SWAP3 SWAP2 POP POP JUMP INVALID LOG2 PUSH5 0x6970667358 0x22 SLT KECCAK256 LOG3 0x26 CALLVALUE LT 0xC1 PUSH0 PUSH32 0x2A95B41B22272B6506F2239CB516715BCD888AB168FAFA9F1C64736F6C634300 ADDMOD SAR STOP CALLER "
				},
				"gasEstimates": {
					"creation": {
						"codeDepositCost": "157000",
						"executionCost": "24634",
						"totalCost": "181634"
					},
					"external": {
						"fallback()": "infinite",
						"getAdmin()": "infinite",
						"getImplemenation()": "infinite",
						"upgradeTo(address)": "infinite"
					},
					"internal": {
						"_delegate(address)": "infinite",
						"_getAdmin()": "2227",
						"_getImplemenation()": "2227",
						"_setAdmin(address)": "infinite",
						"_setImplemenation(address)": "infinite"
					}
				},
				"methodIdentifiers": {
					"fallback()": "552079dc",
					"getAdmin()": "6e9960c3",
					"getImplemenation()": "3ce4ac68",
					"upgradeTo(address)": "3659cfe6"
				}
			},
			"storageLayout": {
				"storage": [],
				"types": null
			},
			"userdoc": {
				"kind": "user",
				"methods": {},
				"version": 1
			}
		}
	}
}