{
	"upgrade/Proxy4.sol": {
		"Proxy": {
			"abi": [
				{
					"inputs": [],
					"stateMutability": "nonpayable",
					"type": "constructor"
				},
				{
					"inputs": [
						{
							"internalType": "address",
							"name": "_admin",
							"type": "address"
						}
					],
					"name": "changeAdmin",
					"outputs": [],
					"stateMutability": "nonpayable",
					"type": "function"
				},
				{
					"inputs": [],
					"name": "fallback",
					"outputs": [],
					"stateMutability": "payable",
					"type": "function"
				},
				{
					"inputs": [],
					"name": "getAdmin",
					"outputs": [
						{
							"internalType": "address",
							"name": "",
							"type": "address"
						}
					],
					"stateMutability": "nonpayable",
					"type": "function"
				},
				{
					"inputs": [],
					"name": "getImplemenation",
					"outputs": [
						{
							"internalType": "address",
							"name": "",
							"type": "address"
						}
					],
					"stateMutability": "nonpayable",
					"type": "function"
				},
				{
					"inputs": [
						{
							"internalType": "address",
							"name": "_implementation",
							"type": "address"
						}
					],
					"name": "upgradeTo",
					"outputs": [],
					"stateMutability": "nonpayable",
					"type": "function"
				},
				{
					"stateMutability": "payable",
					"type": "receive"
				}
			],
			"devdoc": {
				"kind": "dev",
				"methods": {},
				"version": 1
			},
			"evm": {
				"assembly": "    /* \"upgrade/Proxy4.sol\":836:5196  contract Proxy{... */\n  mstore(0x40, 0x80)\n    /* \"upgrade/Proxy4.sol\":1132:1185  constructor(){... */\n  callvalue\n  dup1\n  iszero\n  tag_1\n  jumpi\n  0x00\n  dup1\n  revert\ntag_1:\n  pop\n    /* \"upgrade/Proxy4.sol\":1156:1177  _setAdmin(msg.sender) */\n  tag_4\n    /* \"upgrade/Proxy4.sol\":1166:1176  msg.sender */\n  caller\n    /* \"upgrade/Proxy4.sol\":1156:1165  _setAdmin */\n  tag_5\n    /* \"upgrade/Proxy4.sol\":1156:1177  _setAdmin(msg.sender) */\n  jump\t// in\ntag_4:\n    /* \"upgrade/Proxy4.sol\":836:5196  contract Proxy{... */\n  jump(tag_16)\n    /* \"upgrade/Proxy4.sol\":4292:4462  function _setAdmin(address _admin) private {... */\ntag_5:\n  sub(shl(0xa0, 0x01), 0x01)\n    /* \"upgrade/Proxy4.sol\":4354:4372  _admin!=address(0) */\n  dup2\n  and\n    /* \"upgrade/Proxy4.sol\":4346:4392  require(_admin!=address(0),\"cannot set admin\") */\n  tag_8\n  jumpi\n  mload(0x40)\n  shl(0xe5, 0x461bcd)\n  dup2\n  mstore\n    /* \"#utility.yul\":216:218   */\n  0x20\n    /* \"upgrade/Proxy4.sol\":4346:4392  require(_admin!=address(0),\"cannot set admin\") */\n  0x04\n  dup3\n  add\n    /* \"#utility.yul\":198:219   */\n  mstore\n    /* \"#utility.yul\":255:257   */\n  0x10\n    /* \"#utility.yul\":235:253   */\n  0x24\n  dup3\n  add\n    /* \"#utility.yul\":228:258   */\n  mstore\n  shl(0x81, 0x31b0b73737ba1039b2ba1030b236b4b7)\n    /* \"#utility.yul\":274:292   */\n  0x44\n  dup3\n  add\n    /* \"#utility.yul\":267:313   */\n  mstore\n    /* \"#utility.yul\":330:348   */\n  0x64\n  add\n    /* \"upgrade/Proxy4.sol\":4346:4392  require(_admin!=address(0),\"cannot set admin\") */\n  mload(0x40)\n  dup1\n  swap2\n  sub\n  swap1\n  revert\ntag_8:\n    /* \"upgrade/Proxy4.sol\":4448:4454  _admin */\n  dup1\n    /* \"upgrade/Proxy4.sol\":4403:4441  StorageSlot.getAddressSlot(ADMIN_SLOT) */\n  tag_11\n    /* \"upgrade/Proxy4.sol\":1082:1122  uint(keccak256(\"eip1967.proxy.admin\"))-1 */\n  tag_12\n    /* \"upgrade/Proxy4.sol\":1121:1122  1 */\n  0x01\n    /* \"upgrade/Proxy4.sol\":1087:1119  keccak256(\"eip1967.proxy.admin\") */\n  0xb53127684a568b3173ae13b9f8a6016e243e63b6e8ee1178d6a717850b5d6104\n    /* \"upgrade/Proxy4.sol\":1082:1122  uint(keccak256(\"eip1967.proxy.admin\"))-1 */\n  tag_13\n  jump\t// in\ntag_12:\n    /* \"upgrade/Proxy4.sol\":7299:7303  slot */\n  swap1\n    /* \"upgrade/Proxy4.sol\":7170:7385  function getAddressSlot(bytes32 slot) internal pure returns (AddressSlot storage r) {... */\n  jump\n    /* \"upgrade/Proxy4.sol\":4403:4441  StorageSlot.getAddressSlot(ADMIN_SLOT) */\ntag_11:\n    /* \"upgrade/Proxy4.sol\":4403:4454  StorageSlot.getAddressSlot(ADMIN_SLOT).value=_admin */\n  dup1\n  sload\n  not(sub(shl(0xa0, 0x01), 0x01))\n  and\n  sub(shl(0xa0, 0x01), 0x01)\n  swap3\n  swap1\n  swap3\n  and\n  swap2\n  swap1\n  swap2\n  or\n  swap1\n  sstore\n  pop\n    /* \"upgrade/Proxy4.sol\":4292:4462  function _setAdmin(address _admin) private {... */\n  jump\t// out\n    /* \"#utility.yul\":359:584   */\ntag_13:\n    /* \"#utility.yul\":426:435   */\n  dup2\n  dup2\n  sub\n    /* \"#utility.yul\":447:458   */\n  dup2\n  dup2\n  gt\n    /* \"#utility.yul\":444:578   */\n  iszero\n  tag_19\n  jumpi\n    /* \"#utility.yul\":500:510   */\n  0x4e487b71\n    /* \"#utility.yul\":495:498   */\n  0xe0\n    /* \"#utility.yul\":491:511   */\n  shl\n    /* \"#utility.yul\":488:489   */\n  0x00\n    /* \"#utility.yul\":481:512   */\n  mstore\n    /* \"#utility.yul\":535:539   */\n  0x11\n    /* \"#utility.yul\":532:533   */\n  0x04\n    /* \"#utility.yul\":525:540   */\n  mstore\n    /* \"#utility.yul\":563:567   */\n  0x24\n    /* \"#utility.yul\":560:561   */\n  0x00\n    /* \"#utility.yul\":553:568   */\n  revert\n    /* \"#utility.yul\":444:578   */\ntag_19:\n    /* \"#utility.yul\":359:584   */\n  swap3\n  swap2\n  pop\n  pop\n  jump\t// out\ntag_16:\n    /* \"upgrade/Proxy4.sol\":836:5196  contract Proxy{... */\n  dataSize(sub_0)\n  dup1\n  dataOffset(sub_0)\n  0x00\n  codecopy\n  0x00\n  return\nstop\n\nsub_0: assembly {\n        /* \"upgrade/Proxy4.sol\":836:5196  contract Proxy{... */\n      mstore(0x40, 0x80)\n      jumpi(tag_1, lt(calldatasize, 0x04))\n      shr(0xe0, calldataload(0x00))\n      dup1\n      0x3659cfe6\n      eq\n      tag_3\n      jumpi\n      dup1\n      0x3ce4ac68\n      eq\n      tag_4\n      jumpi\n      dup1\n      0x552079dc\n      eq\n      tag_5\n      jumpi\n      dup1\n      0x6e9960c3\n      eq\n      tag_6\n      jumpi\n      dup1\n      0x8f283970\n      eq\n      tag_7\n      jumpi\n      0x00\n      dup1\n      revert\n    tag_1:\n      jumpi(tag_2, calldatasize)\n        /* \"upgrade/Proxy4.sol\":3520:3550  _delegate(_getImplemenation()) */\n      tag_10\n        /* \"upgrade/Proxy4.sol\":3530:3549  _getImplemenation() */\n      tag_11\n        /* \"upgrade/Proxy4.sol\":3530:3547  _getImplemenation */\n      tag_12\n        /* \"upgrade/Proxy4.sol\":3530:3549  _getImplemenation() */\n      jump\t// in\n    tag_11:\n        /* \"upgrade/Proxy4.sol\":3520:3529  _delegate */\n      tag_13\n        /* \"upgrade/Proxy4.sol\":3520:3550  _delegate(_getImplemenation()) */\n      jump\t// in\n    tag_10:\n        /* \"upgrade/Proxy4.sol\":836:5196  contract Proxy{... */\n      stop\n    tag_2:\n      0x00\n      dup1\n      revert\n        /* \"upgrade/Proxy4.sol\":4171:4284  function upgradeTo(address _implementation) external ifAdmin{... */\n    tag_3:\n      callvalue\n      dup1\n      iszero\n      tag_14\n      jumpi\n      0x00\n      dup1\n      revert\n    tag_14:\n      pop\n      tag_10\n      tag_16\n      calldatasize\n      0x04\n      tag_17\n      jump\t// in\n    tag_16:\n      tag_18\n      jump\t// in\n        /* \"upgrade/Proxy4.sol\":5086:5193  function getImplemenation() external ifAdmin returns(address) {... */\n    tag_4:\n      callvalue\n      dup1\n      iszero\n      tag_19\n      jumpi\n      0x00\n      dup1\n      revert\n    tag_19:\n      pop\n      tag_20\n      tag_21\n      jump\t// in\n    tag_20:\n      mload(0x40)\n      sub(shl(0xa0, 0x01), 0x01)\n        /* \"#utility.yul\":469:501   */\n      swap1\n      swap2\n      and\n        /* \"#utility.yul\":451:502   */\n      dup2\n      mstore\n        /* \"#utility.yul\":439:441   */\n      0x20\n        /* \"#utility.yul\":424:442   */\n      add\n        /* \"upgrade/Proxy4.sol\":5086:5193  function getImplemenation() external ifAdmin returns(address) {... */\n      mload(0x40)\n      dup1\n      swap2\n      sub\n      swap1\n      return\n        /* \"upgrade/Proxy4.sol\":3376:3474  function... */\n    tag_5:\n      tag_10\n      tag_25\n      jump\t// in\n        /* \"upgrade/Proxy4.sol\":4989:5080  function getAdmin() external ifAdmin returns(address) {... */\n    tag_6:\n      callvalue\n      dup1\n      iszero\n      tag_26\n      jumpi\n      0x00\n      dup1\n      revert\n    tag_26:\n      pop\n      tag_20\n      tag_28\n      jump\t// in\n        /* \"upgrade/Proxy4.sol\":4074:4163  function changeAdmin(address _admin) external ifAdmin{... */\n    tag_7:\n      callvalue\n      dup1\n      iszero\n      tag_30\n      jumpi\n      0x00\n      dup1\n      revert\n    tag_30:\n      pop\n      tag_10\n      tag_32\n      calldatasize\n      0x04\n      tag_17\n      jump\t// in\n    tag_32:\n      tag_33\n      jump\t// in\n        /* \"upgrade/Proxy4.sol\":4840:4977  function _getImplemenation() private view returns(address) {... */\n    tag_12:\n        /* \"upgrade/Proxy4.sol\":4890:4897  address */\n      0x00\n        /* \"upgrade/Proxy4.sol\":4917:4963  StorageSlot.getAddressSlot(IMPLEMENATION_SLOT) */\n      tag_35\n        /* \"upgrade/Proxy4.sol\":977:1026  uint(keccak256(\"eip1967.proxy.implementation\"))-1 */\n      tag_36\n        /* \"upgrade/Proxy4.sol\":1025:1026  1 */\n      0x01\n        /* \"upgrade/Proxy4.sol\":982:1023  keccak256(\"eip1967.proxy.implementation\") */\n      0x360894a13ba1a3210667c828492db98dca3e2076cc3735a920a3ca505d382bbd\n        /* \"upgrade/Proxy4.sol\":977:1026  uint(keccak256(\"eip1967.proxy.implementation\"))-1 */\n      tag_37\n      jump\t// in\n    tag_36:\n        /* \"upgrade/Proxy4.sol\":7299:7303  slot */\n      swap1\n        /* \"upgrade/Proxy4.sol\":7170:7385  function getAddressSlot(bytes32 slot) internal pure returns (AddressSlot storage r) {... */\n      jump\n        /* \"upgrade/Proxy4.sol\":4917:4963  StorageSlot.getAddressSlot(IMPLEMENATION_SLOT) */\n    tag_35:\n        /* \"upgrade/Proxy4.sol\":4917:4969  StorageSlot.getAddressSlot(IMPLEMENATION_SLOT).value */\n      sload\n      sub(shl(0xa0, 0x01), 0x01)\n      and\n      swap2\n        /* \"upgrade/Proxy4.sol\":4840:4977  function _getImplemenation() private view returns(address) {... */\n      swap1\n      pop\n      jump\t// out\n        /* \"upgrade/Proxy4.sol\":1193:3370  function _delegate(address _implementation) private {... */\n    tag_13:\n        /* \"upgrade/Proxy4.sol\":1722:1736  calldatasize() */\n      calldatasize\n        /* \"upgrade/Proxy4.sol\":1719:1720  0 */\n      0x00\n        /* \"upgrade/Proxy4.sol\":1716:1717  0 */\n      dup1\n        /* \"upgrade/Proxy4.sol\":1703:1737  calldatacopy(0, 0, calldatasize()) */\n      calldatacopy\n        /* \"upgrade/Proxy4.sol\":2362:2363  0 */\n      0x00\n        /* \"upgrade/Proxy4.sol\":2342:2343  0 */\n      dup1\n        /* \"upgrade/Proxy4.sol\":2309:2323  calldatasize() */\n      calldatasize\n        /* \"upgrade/Proxy4.sol\":2289:2290  0 */\n      0x00\n        /* \"upgrade/Proxy4.sol\":2255:2270  _implementation */\n      dup5\n        /* \"upgrade/Proxy4.sol\":2231:2236  gas() */\n      gas\n        /* \"upgrade/Proxy4.sol\":2200:2378  delegatecall(... */\n      delegatecall\n        /* \"upgrade/Proxy4.sol\":2663:2679  returndatasize() */\n      returndatasize\n        /* \"upgrade/Proxy4.sol\":2660:2661  0 */\n      0x00\n        /* \"upgrade/Proxy4.sol\":2657:2658  0 */\n      dup1\n        /* \"upgrade/Proxy4.sol\":2642:2680  returndatacopy(0, 0, returndatasize()) */\n      returndatacopy\n        /* \"upgrade/Proxy4.sol\":2738:2744  result */\n      dup1\n        /* \"upgrade/Proxy4.sol\":2758:3052  case 0 {  // 调用失败... */\n      dup1\n      iszero\n      tag_41\n      jumpi\n        /* \"upgrade/Proxy4.sol\":3320:3336  returndatasize() */\n      returndatasize\n        /* \"upgrade/Proxy4.sol\":3317:3318  0 */\n      0x00\n        /* \"upgrade/Proxy4.sol\":3310:3337  return(0, returndatasize()) */\n      return\n        /* \"upgrade/Proxy4.sol\":2758:3052  case 0 {  // 调用失败... */\n    tag_41:\n        /* \"upgrade/Proxy4.sol\":3020:3036  returndatasize() */\n      returndatasize\n        /* \"upgrade/Proxy4.sol\":3017:3018  0 */\n      0x00\n        /* \"upgrade/Proxy4.sol\":3010:3037  revert(0, returndatasize()) */\n      revert\n        /* \"upgrade/Proxy4.sol\":4171:4284  function upgradeTo(address _implementation) external ifAdmin{... */\n    tag_18:\n        /* \"upgrade/Proxy4.sol\":3612:3623  _getAdmin() */\n      tag_43\n        /* \"upgrade/Proxy4.sol\":3612:3621  _getAdmin */\n      tag_44\n        /* \"upgrade/Proxy4.sol\":3612:3623  _getAdmin() */\n      jump\t// in\n    tag_43:\n      sub(shl(0xa0, 0x01), 0x01)\n        /* \"upgrade/Proxy4.sol\":3598:3623  msg.sender == _getAdmin() */\n      and\n        /* \"upgrade/Proxy4.sol\":3598:3608  msg.sender */\n      caller\n        /* \"upgrade/Proxy4.sol\":3598:3623  msg.sender == _getAdmin() */\n      sub\n        /* \"upgrade/Proxy4.sol\":3595:3714  if(msg.sender == _getAdmin()){... */\n      tag_45\n      jumpi\n        /* \"upgrade/Proxy4.sol\":4242:4276  _setImplemenation(_implementation) */\n      tag_47\n        /* \"upgrade/Proxy4.sol\":4260:4275  _implementation */\n      dup2\n        /* \"upgrade/Proxy4.sol\":4242:4259  _setImplemenation */\n      tag_48\n        /* \"upgrade/Proxy4.sol\":4242:4276  _setImplemenation(_implementation) */\n      jump\t// in\n    tag_47:\n        /* \"upgrade/Proxy4.sol\":4171:4284  function upgradeTo(address _implementation) external ifAdmin{... */\n      pop\n      jump\t// out\n        /* \"upgrade/Proxy4.sol\":3595:3714  if(msg.sender == _getAdmin()){... */\n    tag_45:\n        /* \"upgrade/Proxy4.sol\":3672:3702  _delegate(_getImplemenation()) */\n      tag_47\n        /* \"upgrade/Proxy4.sol\":3682:3701  _getImplemenation() */\n      tag_11\n        /* \"upgrade/Proxy4.sol\":3682:3699  _getImplemenation */\n      tag_12\n        /* \"upgrade/Proxy4.sol\":3682:3701  _getImplemenation() */\n      jump\t// in\n        /* \"upgrade/Proxy4.sol\":5086:5193  function getImplemenation() external ifAdmin returns(address) {... */\n    tag_21:\n        /* \"upgrade/Proxy4.sol\":5139:5146  address */\n      0x00\n        /* \"upgrade/Proxy4.sol\":3612:3623  _getAdmin() */\n      tag_53\n        /* \"upgrade/Proxy4.sol\":3612:3621  _getAdmin */\n      tag_44\n        /* \"upgrade/Proxy4.sol\":3612:3623  _getAdmin() */\n      jump\t// in\n    tag_53:\n      sub(shl(0xa0, 0x01), 0x01)\n        /* \"upgrade/Proxy4.sol\":3598:3623  msg.sender == _getAdmin() */\n      and\n        /* \"upgrade/Proxy4.sol\":3598:3608  msg.sender */\n      caller\n        /* \"upgrade/Proxy4.sol\":3598:3623  msg.sender == _getAdmin() */\n      sub\n        /* \"upgrade/Proxy4.sol\":3595:3714  if(msg.sender == _getAdmin()){... */\n      tag_54\n      jumpi\n        /* \"upgrade/Proxy4.sol\":5166:5185  _getImplemenation() */\n      tag_56\n        /* \"upgrade/Proxy4.sol\":5166:5183  _getImplemenation */\n      tag_12\n        /* \"upgrade/Proxy4.sol\":5166:5185  _getImplemenation() */\n      jump\t// in\n    tag_56:\n        /* \"upgrade/Proxy4.sol\":5159:5185  return _getImplemenation() */\n      swap1\n      pop\n        /* \"upgrade/Proxy4.sol\":7299:7303  slot */\n      swap1\n        /* \"upgrade/Proxy4.sol\":7170:7385  function getAddressSlot(bytes32 slot) internal pure returns (AddressSlot storage r) {... */\n      jump\n        /* \"upgrade/Proxy4.sol\":3595:3714  if(msg.sender == _getAdmin()){... */\n    tag_54:\n        /* \"upgrade/Proxy4.sol\":3672:3702  _delegate(_getImplemenation()) */\n      tag_36\n        /* \"upgrade/Proxy4.sol\":3682:3701  _getImplemenation() */\n      tag_11\n        /* \"upgrade/Proxy4.sol\":3682:3699  _getImplemenation */\n      tag_12\n        /* \"upgrade/Proxy4.sol\":3682:3701  _getImplemenation() */\n      jump\t// in\n        /* \"upgrade/Proxy4.sol\":3376:3474  function... */\n    tag_25:\n        /* \"upgrade/Proxy4.sol\":3436:3466  _delegate(_getImplemenation()) */\n      tag_61\n        /* \"upgrade/Proxy4.sol\":3446:3465  _getImplemenation() */\n      tag_11\n        /* \"upgrade/Proxy4.sol\":3446:3463  _getImplemenation */\n      tag_12\n        /* \"upgrade/Proxy4.sol\":3446:3465  _getImplemenation() */\n      jump\t// in\n        /* \"upgrade/Proxy4.sol\":3436:3466  _delegate(_getImplemenation()) */\n    tag_61:\n        /* \"upgrade/Proxy4.sol\":3376:3474  function... */\n      jump\t// out\n        /* \"upgrade/Proxy4.sol\":4989:5080  function getAdmin() external ifAdmin returns(address) {... */\n    tag_28:\n        /* \"upgrade/Proxy4.sol\":5034:5041  address */\n      0x00\n        /* \"upgrade/Proxy4.sol\":3612:3623  _getAdmin() */\n      tag_64\n        /* \"upgrade/Proxy4.sol\":3612:3621  _getAdmin */\n      tag_44\n        /* \"upgrade/Proxy4.sol\":3612:3623  _getAdmin() */\n      jump\t// in\n    tag_64:\n      sub(shl(0xa0, 0x01), 0x01)\n        /* \"upgrade/Proxy4.sol\":3598:3623  msg.sender == _getAdmin() */\n      and\n        /* \"upgrade/Proxy4.sol\":3598:3608  msg.sender */\n      caller\n        /* \"upgrade/Proxy4.sol\":3598:3623  msg.sender == _getAdmin() */\n      sub\n        /* \"upgrade/Proxy4.sol\":3595:3714  if(msg.sender == _getAdmin()){... */\n      tag_54\n      jumpi\n        /* \"upgrade/Proxy4.sol\":5061:5072  _getAdmin() */\n      tag_56\n        /* \"upgrade/Proxy4.sol\":5061:5070  _getAdmin */\n      tag_44\n        /* \"upgrade/Proxy4.sol\":5061:5072  _getAdmin() */\n      jump\t// in\n        /* \"upgrade/Proxy4.sol\":4074:4163  function changeAdmin(address _admin) external ifAdmin{... */\n    tag_33:\n        /* \"upgrade/Proxy4.sol\":3612:3623  _getAdmin() */\n      tag_72\n        /* \"upgrade/Proxy4.sol\":3612:3621  _getAdmin */\n      tag_44\n        /* \"upgrade/Proxy4.sol\":3612:3623  _getAdmin() */\n      jump\t// in\n    tag_72:\n      sub(shl(0xa0, 0x01), 0x01)\n        /* \"upgrade/Proxy4.sol\":3598:3623  msg.sender == _getAdmin() */\n      and\n        /* \"upgrade/Proxy4.sol\":3598:3608  msg.sender */\n      caller\n        /* \"upgrade/Proxy4.sol\":3598:3623  msg.sender == _getAdmin() */\n      sub\n        /* \"upgrade/Proxy4.sol\":3595:3714  if(msg.sender == _getAdmin()){... */\n      tag_45\n      jumpi\n        /* \"upgrade/Proxy4.sol\":4138:4155  _setAdmin(_admin) */\n      tag_47\n        /* \"upgrade/Proxy4.sol\":4148:4154  _admin */\n      dup2\n        /* \"upgrade/Proxy4.sol\":4138:4147  _setAdmin */\n      tag_76\n        /* \"upgrade/Proxy4.sol\":4138:4155  _setAdmin(_admin) */\n      jump\t// in\n        /* \"upgrade/Proxy4.sol\":4475:4598  function _getAdmin() private  view  returns(address) {... */\n    tag_44:\n        /* \"upgrade/Proxy4.sol\":4519:4526  address */\n      0x00\n        /* \"upgrade/Proxy4.sol\":4546:4584  StorageSlot.getAddressSlot(ADMIN_SLOT) */\n      tag_35\n        /* \"upgrade/Proxy4.sol\":1082:1122  uint(keccak256(\"eip1967.proxy.admin\"))-1 */\n      tag_36\n        /* \"upgrade/Proxy4.sol\":1121:1122  1 */\n      0x01\n        /* \"upgrade/Proxy4.sol\":1087:1119  keccak256(\"eip1967.proxy.admin\") */\n      0xb53127684a568b3173ae13b9f8a6016e243e63b6e8ee1178d6a717850b5d6104\n        /* \"upgrade/Proxy4.sol\":1082:1122  uint(keccak256(\"eip1967.proxy.admin\"))-1 */\n      tag_37\n      jump\t// in\n        /* \"upgrade/Proxy4.sol\":4606:4828  function _setImplemenation(address _implemenation) private {... */\n    tag_48:\n        /* \"upgrade/Proxy4.sol\":4713:4714  0 */\n      0x00\n        /* \"upgrade/Proxy4.sol\":4684:4698  _implemenation */\n      dup2\n      sub(shl(0xa0, 0x01), 0x01)\n        /* \"upgrade/Proxy4.sol\":4684:4710  _implemenation.code.length */\n      and\n      extcodesize\n        /* \"upgrade/Proxy4.sol\":4684:4714  _implemenation.code.length > 0 */\n      gt\n        /* \"upgrade/Proxy4.sol\":4676:4742  require(_implemenation.code.length > 0,\"cannot set implemenation\") */\n      tag_85\n      jumpi\n      mload(0x40)\n      shl(0xe5, 0x461bcd)\n      dup2\n      mstore\n        /* \"#utility.yul\":945:947   */\n      0x20\n        /* \"upgrade/Proxy4.sol\":4676:4742  require(_implemenation.code.length > 0,\"cannot set implemenation\") */\n      0x04\n      dup3\n      add\n        /* \"#utility.yul\":927:948   */\n      mstore\n        /* \"#utility.yul\":984:986   */\n      0x18\n        /* \"#utility.yul\":964:982   */\n      0x24\n      dup3\n      add\n        /* \"#utility.yul\":957:987   */\n      mstore\n        /* \"#utility.yul\":1023:1049   */\n      0x63616e6e6f742073657420696d706c656d656e6174696f6e0000000000000000\n        /* \"#utility.yul\":1003:1021   */\n      0x44\n      dup3\n      add\n        /* \"#utility.yul\":996:1050   */\n      mstore\n        /* \"#utility.yul\":1067:1085   */\n      0x64\n      add\n        /* \"upgrade/Proxy4.sol\":4676:4742  require(_implemenation.code.length > 0,\"cannot set implemenation\") */\n    tag_86:\n      mload(0x40)\n      dup1\n      swap2\n      sub\n      swap1\n      revert\n    tag_85:\n        /* \"upgrade/Proxy4.sol\":4806:4820  _implemenation */\n      dup1\n        /* \"upgrade/Proxy4.sol\":4753:4799  StorageSlot.getAddressSlot(IMPLEMENATION_SLOT) */\n      tag_88\n        /* \"upgrade/Proxy4.sol\":977:1026  uint(keccak256(\"eip1967.proxy.implementation\"))-1 */\n      tag_36\n        /* \"upgrade/Proxy4.sol\":1025:1026  1 */\n      0x01\n        /* \"upgrade/Proxy4.sol\":982:1023  keccak256(\"eip1967.proxy.implementation\") */\n      0x360894a13ba1a3210667c828492db98dca3e2076cc3735a920a3ca505d382bbd\n        /* \"upgrade/Proxy4.sol\":977:1026  uint(keccak256(\"eip1967.proxy.implementation\"))-1 */\n      tag_37\n      jump\t// in\n        /* \"upgrade/Proxy4.sol\":4753:4799  StorageSlot.getAddressSlot(IMPLEMENATION_SLOT) */\n    tag_88:\n        /* \"upgrade/Proxy4.sol\":4753:4820  StorageSlot.getAddressSlot(IMPLEMENATION_SLOT).value=_implemenation */\n      dup1\n      sload\n      not(sub(shl(0xa0, 0x01), 0x01))\n      and\n      sub(shl(0xa0, 0x01), 0x01)\n      swap3\n      swap1\n      swap3\n      and\n      swap2\n      swap1\n      swap2\n      or\n      swap1\n      sstore\n      pop\n        /* \"upgrade/Proxy4.sol\":4606:4828  function _setImplemenation(address _implemenation) private {... */\n      jump\t// out\n        /* \"upgrade/Proxy4.sol\":4292:4462  function _setAdmin(address _admin) private {... */\n    tag_76:\n      sub(shl(0xa0, 0x01), 0x01)\n        /* \"upgrade/Proxy4.sol\":4354:4372  _admin!=address(0) */\n      dup2\n      and\n        /* \"upgrade/Proxy4.sol\":4346:4392  require(_admin!=address(0),\"cannot set admin\") */\n      tag_91\n      jumpi\n      mload(0x40)\n      shl(0xe5, 0x461bcd)\n      dup2\n      mstore\n        /* \"#utility.yul\":1298:1300   */\n      0x20\n        /* \"upgrade/Proxy4.sol\":4346:4392  require(_admin!=address(0),\"cannot set admin\") */\n      0x04\n      dup3\n      add\n        /* \"#utility.yul\":1280:1301   */\n      mstore\n        /* \"#utility.yul\":1337:1339   */\n      0x10\n        /* \"#utility.yul\":1317:1335   */\n      0x24\n      dup3\n      add\n        /* \"#utility.yul\":1310:1340   */\n      mstore\n      shl(0x81, 0x31b0b73737ba1039b2ba1030b236b4b7)\n        /* \"#utility.yul\":1356:1374   */\n      0x44\n      dup3\n      add\n        /* \"#utility.yul\":1349:1395   */\n      mstore\n        /* \"#utility.yul\":1412:1430   */\n      0x64\n      add\n        /* \"upgrade/Proxy4.sol\":4346:4392  require(_admin!=address(0),\"cannot set admin\") */\n      tag_86\n        /* \"#utility.yul\":1096:1436   */\n      jump\n        /* \"upgrade/Proxy4.sol\":4346:4392  require(_admin!=address(0),\"cannot set admin\") */\n    tag_91:\n        /* \"upgrade/Proxy4.sol\":4448:4454  _admin */\n      dup1\n        /* \"upgrade/Proxy4.sol\":4403:4441  StorageSlot.getAddressSlot(ADMIN_SLOT) */\n      tag_88\n        /* \"upgrade/Proxy4.sol\":1082:1122  uint(keccak256(\"eip1967.proxy.admin\"))-1 */\n      tag_36\n        /* \"upgrade/Proxy4.sol\":1121:1122  1 */\n      0x01\n        /* \"upgrade/Proxy4.sol\":1087:1119  keccak256(\"eip1967.proxy.admin\") */\n      0xb53127684a568b3173ae13b9f8a6016e243e63b6e8ee1178d6a717850b5d6104\n        /* \"upgrade/Proxy4.sol\":1082:1122  uint(keccak256(\"eip1967.proxy.admin\"))-1 */\n      tag_37\n      jump\t// in\n        /* \"#utility.yul\":14:300   */\n    tag_17:\n        /* \"#utility.yul\":73:79   */\n      0x00\n        /* \"#utility.yul\":126:128   */\n      0x20\n        /* \"#utility.yul\":114:123   */\n      dup3\n        /* \"#utility.yul\":105:112   */\n      dup5\n        /* \"#utility.yul\":101:124   */\n      sub\n        /* \"#utility.yul\":97:129   */\n      slt\n        /* \"#utility.yul\":94:146   */\n      iszero\n      tag_98\n      jumpi\n        /* \"#utility.yul\":142:143   */\n      0x00\n        /* \"#utility.yul\":139:140   */\n      dup1\n        /* \"#utility.yul\":132:144   */\n      revert\n        /* \"#utility.yul\":94:146   */\n    tag_98:\n        /* \"#utility.yul\":168:191   */\n      dup2\n      calldataload\n      sub(shl(0xa0, 0x01), 0x01)\n        /* \"#utility.yul\":220:251   */\n      dup2\n      and\n        /* \"#utility.yul\":210:252   */\n      dup2\n      eq\n        /* \"#utility.yul\":200:270   */\n      tag_99\n      jumpi\n        /* \"#utility.yul\":266:267   */\n      0x00\n        /* \"#utility.yul\":263:264   */\n      dup1\n        /* \"#utility.yul\":256:268   */\n      revert\n        /* \"#utility.yul\":200:270   */\n    tag_99:\n        /* \"#utility.yul\":289:294   */\n      swap4\n        /* \"#utility.yul\":14:300   */\n      swap3\n      pop\n      pop\n      pop\n      jump\t// out\n        /* \"#utility.yul\":513:738   */\n    tag_37:\n        /* \"#utility.yul\":580:589   */\n      dup2\n      dup2\n      sub\n        /* \"#utility.yul\":601:612   */\n      dup2\n      dup2\n      gt\n        /* \"#utility.yul\":598:732   */\n      iszero\n      tag_102\n      jumpi\n        /* \"#utility.yul\":654:664   */\n      0x4e487b71\n        /* \"#utility.yul\":649:652   */\n      0xe0\n        /* \"#utility.yul\":645:665   */\n      shl\n        /* \"#utility.yul\":642:643   */\n      0x00\n        /* \"#utility.yul\":635:666   */\n      mstore\n        /* \"#utility.yul\":689:693   */\n      0x11\n        /* \"#utility.yul\":686:687   */\n      0x04\n        /* \"#utility.yul\":679:694   */\n      mstore\n        /* \"#utility.yul\":717:721   */\n      0x24\n        /* \"#utility.yul\":714:715   */\n      0x00\n        /* \"#utility.yul\":707:722   */\n      revert\n        /* \"#utility.yul\":598:732   */\n    tag_102:\n        /* \"#utility.yul\":513:738   */\n      swap3\n      swap2\n      pop\n      pop\n      jump\t// out\n\n    auxdata: 0xa264697066735822122092fe6ef2d995ed1eaa9f37df0d23f108b0d784b74e15b7684d0c261d164d577464736f6c63430008180033\n}\n",
				"bytecode": {
					"linkReferences": {},
					"object": "608060405234801561000f575f80fd5b506100193361001e565b6100e3565b6001600160a01b03811661006b5760405162461bcd60e51b815260206004820152601060248201526f31b0b73737ba1039b2ba1030b236b4b760811b604482015260640160405180910390fd5b8061009d61009a60017fb53127684a568b3173ae13b9f8a6016e243e63b6e8ee1178d6a717850b5d61046100be565b90565b80546001600160a01b0319166001600160a01b039290921691909117905550565b818103818111156100dd57634e487b7160e01b5f52601160045260245ffd5b92915050565b6103d8806100f05f395ff3fe60806040526004361061004c575f3560e01c80633659cfe6146100675780633ce4ac6814610086578063552079dc146100b65780636e9960c3146100be5780638f283970146100d2575f80fd5b366100635761006161005c6100f1565b610132565b005b5f80fd5b348015610072575f80fd5b50610061610081366004610350565b610150565b348015610091575f80fd5b5061009a61017e565b6040516001600160a01b03909116815260200160405180910390f35b6100616101ae565b3480156100c9575f80fd5b5061009a6101bb565b3480156100dd575f80fd5b506100616100ec366004610350565b6101db565b5f61012361012060017f360894a13ba1a3210667c828492db98dca3e2076cc3735a920a3ca505d382bbd61037d565b90565b546001600160a01b0316919050565b365f80375f80365f845af43d5f803e80801561014c573d5ff35b3d5ffd5b6101586101fb565b6001600160a01b03163303610173576101708161022a565b50565b61017061005c6100f1565b5f6101876101fb565b6001600160a01b031633036101a35761019e6100f1565b905090565b61012061005c6100f1565b6101b961005c6100f1565b565b5f6101c46101fb565b6001600160a01b031633036101a35761019e6101fb565b6101e36101fb565b6001600160a01b0316330361017357610170816102d8565b5f61012361012060017fb53127684a568b3173ae13b9f8a6016e243e63b6e8ee1178d6a717850b5d610461037d565b5f816001600160a01b03163b116102885760405162461bcd60e51b815260206004820152601860248201527f63616e6e6f742073657420696d706c656d656e6174696f6e000000000000000060448201526064015b60405180910390fd5b806102b761012060017f360894a13ba1a3210667c828492db98dca3e2076cc3735a920a3ca505d382bbd61037d565b80546001600160a01b0319166001600160a01b039290921691909117905550565b6001600160a01b0381166103215760405162461bcd60e51b815260206004820152601060248201526f31b0b73737ba1039b2ba1030b236b4b760811b604482015260640161027f565b806102b761012060017fb53127684a568b3173ae13b9f8a6016e243e63b6e8ee1178d6a717850b5d610461037d565b5f60208284031215610360575f80fd5b81356001600160a01b0381168114610376575f80fd5b9392505050565b8181038181111561039c57634e487b7160e01b5f52601160045260245ffd5b9291505056fea264697066735822122092fe6ef2d995ed1eaa9f37df0d23f108b0d784b74e15b7684d0c261d164d577464736f6c63430008180033",
					"opcodes": "PUSH1 0x80 PUSH1 0x40 MSTORE CALLVALUE DUP1 ISZERO PUSH2 0xF JUMPI PUSH0 DUP1 REVERT JUMPDEST POP PUSH2 0x19 CALLER PUSH2 0x1E JUMP JUMPDEST PUSH2 0xE3 JUMP JUMPDEST PUSH1 0x1 PUSH1 0x1 PUSH1 0xA0 SHL SUB DUP2 AND PUSH2 0x6B JUMPI PUSH1 0x40 MLOAD PUSH3 0x461BCD PUSH1 0xE5 SHL DUP2 MSTORE PUSH1 0x20 PUSH1 0x4 DUP3 ADD MSTORE PUSH1 0x10 PUSH1 0x24 DUP3 ADD MSTORE PUSH16 0x31B0B73737BA1039B2BA1030B236B4B7 PUSH1 0x81 SHL PUSH1 0x44 DUP3 ADD MSTORE PUSH1 0x64 ADD PUSH1 0x40 MLOAD DUP1 SWAP2 SUB SWAP1 REVERT JUMPDEST DUP1 PUSH2 0x9D PUSH2 0x9A PUSH1 0x1 PUSH32 0xB53127684A568B3173AE13B9F8A6016E243E63B6E8EE1178D6A717850B5D6104 PUSH2 0xBE JUMP JUMPDEST SWAP1 JUMP JUMPDEST DUP1 SLOAD PUSH1 0x1 PUSH1 0x1 PUSH1 0xA0 SHL SUB NOT AND PUSH1 0x1 PUSH1 0x1 PUSH1 0xA0 SHL SUB SWAP3 SWAP1 SWAP3 AND SWAP2 SWAP1 SWAP2 OR SWAP1 SSTORE POP JUMP JUMPDEST DUP2 DUP2 SUB DUP2 DUP2 GT ISZERO PUSH2 0xDD JUMPI PUSH4 0x4E487B71 PUSH1 0xE0 SHL PUSH0 MSTORE PUSH1 0x11 PUSH1 0x4 MSTORE PUSH1 0x24 PUSH0 REVERT JUMPDEST SWAP3 SWAP2 POP POP JUMP JUMPDEST PUSH2 0x3D8 DUP1 PUSH2 0xF0 PUSH0 CODECOPY PUSH0 RETURN INVALID PUSH1 0x80 PUSH1 0x40 MSTORE PUSH1 0x4 CALLDATASIZE LT PUSH2 0x4C JUMPI PUSH0 CALLDATALOAD PUSH1 0xE0 SHR DUP1 PUSH4 0x3659CFE6 EQ PUSH2 0x67 JUMPI DUP1 PUSH4 0x3CE4AC68 EQ PUSH2 0x86 JUMPI DUP1 PUSH4 0x552079DC EQ PUSH2 0xB6 JUMPI DUP1 PUSH4 0x6E9960C3 EQ PUSH2 0xBE JUMPI DUP1 PUSH4 0x8F283970 EQ PUSH2 0xD2 JUMPI PUSH0 DUP1 REVERT JUMPDEST CALLDATASIZE PUSH2 0x63 JUMPI PUSH2 0x61 PUSH2 0x5C PUSH2 0xF1 JUMP JUMPDEST PUSH2 0x132 JUMP JUMPDEST STOP JUMPDEST PUSH0 DUP1 REVERT JUMPDEST CALLVALUE DUP1 ISZERO PUSH2 0x72 JUMPI PUSH0 DUP1 REVERT JUMPDEST POP PUSH2 0x61 PUSH2 0x81 CALLDATASIZE PUSH1 0x4 PUSH2 0x350 JUMP JUMPDEST PUSH2 0x150 JUMP JUMPDEST CALLVALUE DUP1 ISZERO PUSH2 0x91 JUMPI PUSH0 DUP1 REVERT JUMPDEST POP PUSH2 0x9A PUSH2 0x17E JUMP JUMPDEST PUSH1 0x40 MLOAD PUSH1 0x1 PUSH1 0x1 PUSH1 0xA0 SHL SUB SWAP1 SWAP2 AND DUP2 MSTORE PUSH1 0x20 ADD PUSH1 0x40 MLOAD DUP1 SWAP2 SUB SWAP1 RETURN JUMPDEST PUSH2 0x61 PUSH2 0x1AE JUMP JUMPDEST CALLVALUE DUP1 ISZERO PUSH2 0xC9 JUMPI PUSH0 DUP1 REVERT JUMPDEST POP PUSH2 0x9A PUSH2 0x1BB JUMP JUMPDEST CALLVALUE DUP1 ISZERO PUSH2 0xDD JUMPI PUSH0 DUP1 REVERT JUMPDEST POP PUSH2 0x61 PUSH2 0xEC CALLDATASIZE PUSH1 0x4 PUSH2 0x350 JUMP JUMPDEST PUSH2 0x1DB JUMP JUMPDEST PUSH0 PUSH2 0x123 PUSH2 0x120 PUSH1 0x1 PUSH32 0x360894A13BA1A3210667C828492DB98DCA3E2076CC3735A920A3CA505D382BBD PUSH2 0x37D JUMP JUMPDEST SWAP1 JUMP JUMPDEST SLOAD PUSH1 0x1 PUSH1 0x1 PUSH1 0xA0 SHL SUB AND SWAP2 SWAP1 POP JUMP JUMPDEST CALLDATASIZE PUSH0 DUP1 CALLDATACOPY PUSH0 DUP1 CALLDATASIZE PUSH0 DUP5 GAS DELEGATECALL RETURNDATASIZE PUSH0 DUP1 RETURNDATACOPY DUP1 DUP1 ISZERO PUSH2 0x14C JUMPI RETURNDATASIZE PUSH0 RETURN JUMPDEST RETURNDATASIZE PUSH0 REVERT JUMPDEST PUSH2 0x158 PUSH2 0x1FB JUMP JUMPDEST PUSH1 0x1 PUSH1 0x1 PUSH1 0xA0 SHL SUB AND CALLER SUB PUSH2 0x173 JUMPI PUSH2 0x170 DUP2 PUSH2 0x22A JUMP JUMPDEST POP JUMP JUMPDEST PUSH2 0x170 PUSH2 0x5C PUSH2 0xF1 JUMP JUMPDEST PUSH0 PUSH2 0x187 PUSH2 0x1FB JUMP JUMPDEST PUSH1 0x1 PUSH1 0x1 PUSH1 0xA0 SHL SUB AND CALLER SUB PUSH2 0x1A3 JUMPI PUSH2 0x19E PUSH2 0xF1 JUMP JUMPDEST SWAP1 POP SWAP1 JUMP JUMPDEST PUSH2 0x120 PUSH2 0x5C PUSH2 0xF1 JUMP JUMPDEST PUSH2 0x1B9 PUSH2 0x5C PUSH2 0xF1 JUMP JUMPDEST JUMP JUMPDEST PUSH0 PUSH2 0x1C4 PUSH2 0x1FB JUMP JUMPDEST PUSH1 0x1 PUSH1 0x1 PUSH1 0xA0 SHL SUB AND CALLER SUB PUSH2 0x1A3 JUMPI PUSH2 0x19E PUSH2 0x1FB JUMP JUMPDEST PUSH2 0x1E3 PUSH2 0x1FB JUMP JUMPDEST PUSH1 0x1 PUSH1 0x1 PUSH1 0xA0 SHL SUB AND CALLER SUB PUSH2 0x173 JUMPI PUSH2 0x170 DUP2 PUSH2 0x2D8 JUMP JUMPDEST PUSH0 PUSH2 0x123 PUSH2 0x120 PUSH1 0x1 PUSH32 0xB53127684A568B3173AE13B9F8A6016E243E63B6E8EE1178D6A717850B5D6104 PUSH2 0x37D JUMP JUMPDEST PUSH0 DUP2 PUSH1 0x1 PUSH1 0x1 PUSH1 0xA0 SHL SUB AND EXTCODESIZE GT PUSH2 0x288 JUMPI PUSH1 0x40 MLOAD PUSH3 0x461BCD PUSH1 0xE5 SHL DUP2 MSTORE PUSH1 0x20 PUSH1 0x4 DUP3 ADD MSTORE PUSH1 0x18 PUSH1 0x24 DUP3 ADD MSTORE PUSH32 0x63616E6E6F742073657420696D706C656D656E6174696F6E0000000000000000 PUSH1 0x44 DUP3 ADD MSTORE PUSH1 0x64 ADD JUMPDEST PUSH1 0x40 MLOAD DUP1 SWAP2 SUB SWAP1 REVERT JUMPDEST DUP1 PUSH2 0x2B7 PUSH2 0x120 PUSH1 0x1 PUSH32 0x360894A13BA1A3210667C828492DB98DCA3E2076CC3735A920A3CA505D382BBD PUSH2 0x37D JUMP JUMPDEST DUP1 SLOAD PUSH1 0x1 PUSH1 0x1 PUSH1 0xA0 SHL SUB NOT AND PUSH1 0x1 PUSH1 0x1 PUSH1 0xA0 SHL SUB SWAP3 SWAP1 SWAP3 AND SWAP2 SWAP1 SWAP2 OR SWAP1 SSTORE POP JUMP JUMPDEST PUSH1 0x1 PUSH1 0x1 PUSH1 0xA0 SHL SUB DUP2 AND PUSH2 0x321 JUMPI PUSH1 0x40 MLOAD PUSH3 0x461BCD PUSH1 0xE5 SHL DUP2 MSTORE PUSH1 0x20 PUSH1 0x4 DUP3 ADD MSTORE PUSH1 0x10 PUSH1 0x24 DUP3 ADD MSTORE PUSH16 0x31B0B73737BA1039B2BA1030B236B4B7 PUSH1 0x81 SHL PUSH1 0x44 DUP3 ADD MSTORE PUSH1 0x64 ADD PUSH2 0x27F JUMP JUMPDEST DUP1 PUSH2 0x2B7 PUSH2 0x120 PUSH1 0x1 PUSH32 0xB53127684A568B3173AE13B9F8A6016E243E63B6E8EE1178D6A717850B5D6104 PUSH2 0x37D JUMP JUMPDEST PUSH0 PUSH1 0x20 DUP3 DUP5 SUB SLT ISZERO PUSH2 0x360 JUMPI PUSH0 DUP1 REVERT JUMPDEST DUP2 CALLDATALOAD PUSH1 0x1 PUSH1 0x1 PUSH1 0xA0 SHL SUB DUP2 AND DUP2 EQ PUSH2 0x376 JUMPI PUSH0 DUP1 REVERT JUMPDEST SWAP4 SWAP3 POP POP POP JUMP JUMPDEST DUP2 DUP2 SUB DUP2 DUP2 GT ISZERO PUSH2 0x39C JUMPI PUSH4 0x4E487B71 PUSH1 0xE0 SHL PUSH0 MSTORE PUSH1 0x11 PUSH1 0x4 MSTORE PUSH1 0x24 PUSH0 REVERT JUMPDEST SWAP3 SWAP2 POP POP JUMP INVALID LOG2 PUSH5 0x6970667358 0x22 SLT KECCAK256 SWAP3 INVALID PUSH15 0xF2D995ED1EAA9F37DF0D23F108B0D7 DUP5 0xB7 0x4E ISZERO 0xB7 PUSH9 0x4D0C261D164D577464 PUSH20 0x6F6C634300081800330000000000000000000000 "
				},
				"gasEstimates": {
					"creation": {
						"codeDepositCost": "196800",
						"executionCost": "24670",
						"totalCost": "221470"
					},
					"external": {
						"changeAdmin(address)": "infinite",
						"fallback()": "infinite",
						"getAdmin()": "infinite",
						"getImplemenation()": "infinite",
						"upgradeTo(address)": "infinite"
					},
					"internal": {
						"_delegate(address)": "infinite",
						"_getAdmin()": "2227",
						"_getImplemenation()": "2227",
						"_setAdmin(address)": "infinite",
						"_setImplemenation(address)": "infinite"
					}
				},
				"methodIdentifiers": {
					"changeAdmin(address)": "8f283970",
					"fallback()": "552079dc",
					"getAdmin()": "6e9960c3",
					"getImplemenation()": "3ce4ac68",
					"upgradeTo(address)": "3659cfe6"
				}
			},
			"storageLayout": {
				"storage": [],
				"types": null
			},
			"userdoc": {
				"kind": "user",
				"methods": {},
				"version": 1
			}
		}
	}
}