{
	"upgrade/Proxy4.sol": {
		"CounterV1": {
			"abi": [
				{
					"inputs": [],
					"name": "count",
					"outputs": [
						{
							"internalType": "uint256",
							"name": "",
							"type": "uint256"
						}
					],
					"stateMutability": "view",
					"type": "function"
				},
				{
					"inputs": [],
					"name": "getAdmin",
					"outputs": [
						{
							"internalType": "address",
							"name": "",
							"type": "address"
						}
					],
					"stateMutability": "pure",
					"type": "function"
				},
				{
					"inputs": [],
					"name": "getImplemenation",
					"outputs": [
						{
							"internalType": "address",
							"name": "",
							"type": "address"
						}
					],
					"stateMutability": "pure",
					"type": "function"
				},
				{
					"inputs": [],
					"name": "inc",
					"outputs": [],
					"stateMutability": "nonpayable",
					"type": "function"
				}
			],
			"devdoc": {
				"kind": "dev",
				"methods": {},
				"version": 1
			},
			"evm": {
				"assembly": "    /* \"upgrade/Proxy4.sol\":276:659  contract CounterV1{... */\n  mstore(0x40, 0x80)\n  callvalue\n  dup1\n  iszero\n  tag_1\n  jumpi\n  0x00\n  dup1\n  revert\ntag_1:\n  pop\n  dataSize(sub_0)\n  dup1\n  dataOffset(sub_0)\n  0x00\n  codecopy\n  0x00\n  return\nstop\n\nsub_0: assembly {\n        /* \"upgrade/Proxy4.sol\":276:659  contract CounterV1{... */\n      mstore(0x40, 0x80)\n      callvalue\n      dup1\n      iszero\n      tag_1\n      jumpi\n      0x00\n      dup1\n      revert\n    tag_1:\n      pop\n      jumpi(tag_2, lt(calldatasize, 0x04))\n      shr(0xe0, calldataload(0x00))\n      dup1\n      0x06661abd\n      eq\n      tag_3\n      jumpi\n      dup1\n      0x371303c0\n      eq\n      tag_4\n      jumpi\n      dup1\n      0x3ce4ac68\n      eq\n      tag_5\n      jumpi\n      dup1\n      0x6e9960c3\n      eq\n      tag_6\n      jumpi\n    tag_2:\n      0x00\n      dup1\n      revert\n        /* \"upgrade/Proxy4.sol\":375:395  uint256 public count */\n    tag_3:\n      tag_7\n      sload(0x00)\n      dup2\n      jump\n    tag_7:\n      mload(0x40)\n        /* \"#utility.yul\":160:185   */\n      swap1\n      dup2\n      mstore\n        /* \"#utility.yul\":148:150   */\n      0x20\n        /* \"#utility.yul\":133:151   */\n      add\n        /* \"upgrade/Proxy4.sol\":375:395  uint256 public count */\n    tag_9:\n      mload(0x40)\n      dup1\n      swap2\n      sub\n      swap1\n      return\n        /* \"upgrade/Proxy4.sol\":404:460  function inc() external {... */\n    tag_4:\n      tag_11\n      tag_12\n      jump\t// in\n    tag_11:\n      stop\n        /* \"upgrade/Proxy4.sol\":561:656  function getImplemenation() external pure returns(address) {... */\n    tag_5:\n        /* \"upgrade/Proxy4.sol\":646:647  2 */\n      0x02\n        /* \"upgrade/Proxy4.sol\":561:656  function getImplemenation() external pure returns(address) {... */\n    tag_13:\n      mload(0x40)\n      sub(shl(0xa0, 0x01), 0x01)\n        /* \"#utility.yul\":360:392   */\n      swap1\n      swap2\n      and\n        /* \"#utility.yul\":342:393   */\n      dup2\n      mstore\n        /* \"#utility.yul\":330:332   */\n      0x20\n        /* \"#utility.yul\":315:333   */\n      add\n        /* \"upgrade/Proxy4.sol\":561:656  function getImplemenation() external pure returns(address) {... */\n      tag_9\n        /* \"#utility.yul\":196:399   */\n      jump\n        /* \"upgrade/Proxy4.sol\":468:555  function getAdmin() external pure returns(address) {... */\n    tag_6:\n        /* \"upgrade/Proxy4.sol\":545:546  1 */\n      0x01\n        /* \"upgrade/Proxy4.sol\":468:555  function getAdmin() external pure returns(address) {... */\n      jump(tag_13)\n        /* \"upgrade/Proxy4.sol\":404:460  function inc() external {... */\n    tag_12:\n        /* \"upgrade/Proxy4.sol\":445:450  count */\n      sload(0x00)\n        /* \"upgrade/Proxy4.sol\":445:452  count+1 */\n      tag_21\n      swap1\n        /* \"upgrade/Proxy4.sol\":451:452  1 */\n      0x01\n        /* \"upgrade/Proxy4.sol\":445:452  count+1 */\n      tag_22\n      jump\t// in\n    tag_21:\n        /* \"upgrade/Proxy4.sol\":439:444  count */\n      0x00\n        /* \"upgrade/Proxy4.sol\":439:452  count=count+1 */\n      sstore\n        /* \"upgrade/Proxy4.sol\":404:460  function inc() external {... */\n      jump\t// out\n        /* \"#utility.yul\":404:626   */\n    tag_22:\n        /* \"#utility.yul\":469:478   */\n      dup1\n      dup3\n      add\n        /* \"#utility.yul\":490:500   */\n      dup1\n      dup3\n      gt\n        /* \"#utility.yul\":487:620   */\n      iszero\n      tag_29\n      jumpi\n        /* \"#utility.yul\":542:552   */\n      0x4e487b71\n        /* \"#utility.yul\":537:540   */\n      0xe0\n        /* \"#utility.yul\":533:553   */\n      shl\n        /* \"#utility.yul\":530:531   */\n      0x00\n        /* \"#utility.yul\":523:554   */\n      mstore\n        /* \"#utility.yul\":577:581   */\n      0x11\n        /* \"#utility.yul\":574:575   */\n      0x04\n        /* \"#utility.yul\":567:582   */\n      mstore\n        /* \"#utility.yul\":605:609   */\n      0x24\n        /* \"#utility.yul\":602:603   */\n      0x00\n        /* \"#utility.yul\":595:610   */\n      revert\n        /* \"#utility.yul\":487:620   */\n    tag_29:\n        /* \"#utility.yul\":404:626   */\n      swap3\n      swap2\n      pop\n      pop\n      jump\t// out\n\n    auxdata: 0xa2646970667358221220e3a545e0ce2be4a0b172a8fe13257d8a89e9a24826e751c214a55efc7a44bdd964736f6c63430008180033\n}\n",
				"bytecode": {
					"linkReferences": {},
					"object": "608060405234801561000f575f80fd5b5060f38061001c5f395ff3fe6080604052348015600e575f80fd5b50600436106044575f3560e01c806306661abd146048578063371303c01460625780633ce4ac6814606a5780636e9960c3146084575b5f80fd5b604f5f5481565b6040519081526020015b60405180910390f35b6068608a565b005b60025b6040516001600160a01b0390911681526020016059565b6001606d565b5f5460959060016099565b5f55565b8082018082111560b757634e487b7160e01b5f52601160045260245ffd5b9291505056fea2646970667358221220e3a545e0ce2be4a0b172a8fe13257d8a89e9a24826e751c214a55efc7a44bdd964736f6c63430008180033",
					"opcodes": "PUSH1 0x80 PUSH1 0x40 MSTORE CALLVALUE DUP1 ISZERO PUSH2 0xF JUMPI PUSH0 DUP1 REVERT JUMPDEST POP PUSH1 0xF3 DUP1 PUSH2 0x1C PUSH0 CODECOPY PUSH0 RETURN INVALID PUSH1 0x80 PUSH1 0x40 MSTORE CALLVALUE DUP1 ISZERO PUSH1 0xE JUMPI PUSH0 DUP1 REVERT JUMPDEST POP PUSH1 0x4 CALLDATASIZE LT PUSH1 0x44 JUMPI PUSH0 CALLDATALOAD PUSH1 0xE0 SHR DUP1 PUSH4 0x6661ABD EQ PUSH1 0x48 JUMPI DUP1 PUSH4 0x371303C0 EQ PUSH1 0x62 JUMPI DUP1 PUSH4 0x3CE4AC68 EQ PUSH1 0x6A JUMPI DUP1 PUSH4 0x6E9960C3 EQ PUSH1 0x84 JUMPI JUMPDEST PUSH0 DUP1 REVERT JUMPDEST PUSH1 0x4F PUSH0 SLOAD DUP2 JUMP JUMPDEST PUSH1 0x40 MLOAD SWAP1 DUP2 MSTORE PUSH1 0x20 ADD JUMPDEST PUSH1 0x40 MLOAD DUP1 SWAP2 SUB SWAP1 RETURN JUMPDEST PUSH1 0x68 PUSH1 0x8A JUMP JUMPDEST STOP JUMPDEST PUSH1 0x2 JUMPDEST PUSH1 0x40 MLOAD PUSH1 0x1 PUSH1 0x1 PUSH1 0xA0 SHL SUB SWAP1 SWAP2 AND DUP2 MSTORE PUSH1 0x20 ADD PUSH1 0x59 JUMP JUMPDEST PUSH1 0x1 PUSH1 0x6D JUMP JUMPDEST PUSH0 SLOAD PUSH1 0x95 SWAP1 PUSH1 0x1 PUSH1 0x99 JUMP JUMPDEST PUSH0 SSTORE JUMP JUMPDEST DUP1 DUP3 ADD DUP1 DUP3 GT ISZERO PUSH1 0xB7 JUMPI PUSH4 0x4E487B71 PUSH1 0xE0 SHL PUSH0 MSTORE PUSH1 0x11 PUSH1 0x4 MSTORE PUSH1 0x24 PUSH0 REVERT JUMPDEST SWAP3 SWAP2 POP POP JUMP INVALID LOG2 PUSH5 0x6970667358 0x22 SLT KECCAK256 0xE3 0xA5 GASLIMIT 0xE0 0xCE 0x2B 0xE4 LOG0 0xB1 PUSH19 0xA8FE13257D8A89E9A24826E751C214A55EFC7A PREVRANDAO 0xBD 0xD9 PUSH5 0x736F6C6343 STOP ADDMOD XOR STOP CALLER "
				},
				"gasEstimates": {
					"creation": {
						"codeDepositCost": "48600",
						"executionCost": "97",
						"totalCost": "48697"
					},
					"external": {
						"count()": "2260",
						"getAdmin()": "256",
						"getImplemenation()": "223",
						"inc()": "24422"
					}
				},
				"methodIdentifiers": {
					"count()": "06661abd",
					"getAdmin()": "6e9960c3",
					"getImplemenation()": "3ce4ac68",
					"inc()": "371303c0"
				}
			},
			"storageLayout": {
				"storage": [
					{
						"astId": 3,
						"contract": "upgrade/Proxy4.sol:CounterV1",
						"label": "count",
						"offset": 0,
						"slot": "0",
						"type": "t_uint256"
					}
				],
				"types": {
					"t_uint256": {
						"encoding": "inplace",
						"label": "uint256",
						"numberOfBytes": "32"
					}
				}
			},
			"userdoc": {
				"kind": "user",
				"methods": {},
				"version": 1
			}
		}
	}
}