{
	"transparent_upgrade1/Proxy1.sol": {
		"CounterV2": {
			"abi": [
				{
					"inputs": [],
					"name": "admin",
					"outputs": [
						{
							"internalType": "address",
							"name": "",
							"type": "address"
						}
					],
					"stateMutability": "view",
					"type": "function"
				},
				{
					"inputs": [],
					"name": "count",
					"outputs": [
						{
							"internalType": "uint256",
							"name": "",
							"type": "uint256"
						}
					],
					"stateMutability": "view",
					"type": "function"
				},
				{
					"inputs": [],
					"name": "dec",
					"outputs": [],
					"stateMutability": "nonpayable",
					"type": "function"
				},
				{
					"inputs": [],
					"name": "implementation",
					"outputs": [
						{
							"internalType": "address",
							"name": "",
							"type": "address"
						}
					],
					"stateMutability": "view",
					"type": "function"
				},
				{
					"inputs": [],
					"name": "inc",
					"outputs": [],
					"stateMutability": "nonpayable",
					"type": "function"
				}
			],
			"devdoc": {
				"kind": "dev",
				"methods": {},
				"version": 1
			},
			"evm": {
				"assembly": "    /* \"transparent_upgrade1/Proxy1.sol\":531:766  contract CounterV2{... */\n  mstore(0x40, 0x80)\n  callvalue\n  dup1\n  iszero\n  tag_1\n  jumpi\n  revert(0x00, 0x00)\ntag_1:\n  pop\n  dataSize(sub_0)\n  dup1\n  dataOffset(sub_0)\n  0x00\n  codecopy\n  0x00\n  return\nstop\n\nsub_0: assembly {\n        /* \"transparent_upgrade1/Proxy1.sol\":531:766  contract CounterV2{... */\n      mstore(0x40, 0x80)\n      callvalue\n      dup1\n      iszero\n      tag_1\n      jumpi\n      revert(0x00, 0x00)\n    tag_1:\n      pop\n      jumpi(tag_2, lt(calldatasize, 0x04))\n      shr(0xe0, calldataload(0x00))\n      dup1\n      0x06661abd\n      eq\n      tag_3\n      jumpi\n      dup1\n      0x371303c0\n      eq\n      tag_4\n      jumpi\n      dup1\n      0x5c60da1b\n      eq\n      tag_5\n      jumpi\n      dup1\n      0xb3bcfa82\n      eq\n      tag_6\n      jumpi\n      dup1\n      0xf851a440\n      eq\n      tag_7\n      jumpi\n    tag_2:\n      revert(0x00, 0x00)\n        /* \"transparent_upgrade1/Proxy1.sol\":622:642  uint256 public count */\n    tag_3:\n      tag_8\n      sload(0x02)\n      dup2\n      jump\n    tag_8:\n      mload(0x40)\n        /* \"#utility.yul\":160:185   */\n      swap1\n      dup2\n      mstore\n        /* \"#utility.yul\":148:150   */\n      0x20\n        /* \"#utility.yul\":133:151   */\n      add\n        /* \"transparent_upgrade1/Proxy1.sol\":622:642  uint256 public count */\n    tag_10:\n      mload(0x40)\n      dup1\n      swap2\n      sub\n      swap1\n      return\n        /* \"transparent_upgrade1/Proxy1.sol\":651:703  function inc() external {... */\n    tag_4:\n      tag_12\n      tag_13\n      jump\t// in\n    tag_12:\n      stop\n        /* \"transparent_upgrade1/Proxy1.sol\":556:586  address public  implementation */\n    tag_5:\n      sload(0x00)\n      tag_14\n      swap1\n      sub(shl(0xa0, 0x01), 0x01)\n      and\n      dup2\n      jump\n    tag_14:\n      mload(0x40)\n      sub(shl(0xa0, 0x01), 0x01)\n        /* \"#utility.yul\":360:392   */\n      swap1\n      swap2\n      and\n        /* \"#utility.yul\":342:393   */\n      dup2\n      mstore\n        /* \"#utility.yul\":330:332   */\n      0x20\n        /* \"#utility.yul\":315:333   */\n      add\n        /* \"transparent_upgrade1/Proxy1.sol\":556:586  address public  implementation */\n      tag_10\n        /* \"#utility.yul\":196:399   */\n      jump\n        /* \"transparent_upgrade1/Proxy1.sol\":711:763  function dec() external {... */\n    tag_6:\n      tag_12\n      tag_19\n      jump\t// in\n        /* \"transparent_upgrade1/Proxy1.sol\":595:615  address public admin */\n    tag_7:\n      sload(0x01)\n      tag_14\n      swap1\n      sub(shl(0xa0, 0x01), 0x01)\n      and\n      dup2\n      jump\n        /* \"transparent_upgrade1/Proxy1.sol\":651:703  function inc() external {... */\n    tag_13:\n        /* \"transparent_upgrade1/Proxy1.sol\":694:695  1 */\n      0x01\n        /* \"transparent_upgrade1/Proxy1.sol\":686:691  count */\n      0x02\n      0x00\n        /* \"transparent_upgrade1/Proxy1.sol\":686:695  count +=1 */\n      dup3\n      dup3\n      sload\n      tag_24\n      swap2\n      swap1\n      tag_25\n      jump\t// in\n    tag_24:\n      swap1\n      swap2\n      sstore\n      pop\n      pop\n        /* \"transparent_upgrade1/Proxy1.sol\":651:703  function inc() external {... */\n      jump\t// out\n        /* \"transparent_upgrade1/Proxy1.sol\":711:763  function dec() external {... */\n    tag_19:\n        /* \"transparent_upgrade1/Proxy1.sol\":754:755  1 */\n      0x01\n        /* \"transparent_upgrade1/Proxy1.sol\":746:751  count */\n      0x02\n      0x00\n        /* \"transparent_upgrade1/Proxy1.sol\":746:755  count -=1 */\n      dup3\n      dup3\n      sload\n      tag_24\n      swap2\n      swap1\n      tag_28\n      jump\t// in\n        /* \"#utility.yul\":404:531   */\n    tag_29:\n        /* \"#utility.yul\":465:475   */\n      0x4e487b71\n        /* \"#utility.yul\":460:463   */\n      0xe0\n        /* \"#utility.yul\":456:476   */\n      shl\n        /* \"#utility.yul\":453:454   */\n      0x00\n        /* \"#utility.yul\":446:477   */\n      mstore\n        /* \"#utility.yul\":496:500   */\n      0x11\n        /* \"#utility.yul\":493:494   */\n      0x04\n        /* \"#utility.yul\":486:501   */\n      mstore\n        /* \"#utility.yul\":520:524   */\n      0x24\n        /* \"#utility.yul\":517:518   */\n      0x00\n        /* \"#utility.yul\":510:525   */\n      revert\n        /* \"#utility.yul\":536:661   */\n    tag_25:\n        /* \"#utility.yul\":601:610   */\n      dup1\n      dup3\n      add\n        /* \"#utility.yul\":622:632   */\n      dup1\n      dup3\n      gt\n        /* \"#utility.yul\":619:655   */\n      iszero\n      tag_36\n      jumpi\n        /* \"#utility.yul\":635:653   */\n      tag_36\n      tag_29\n      jump\t// in\n    tag_36:\n        /* \"#utility.yul\":536:661   */\n      swap3\n      swap2\n      pop\n      pop\n      jump\t// out\n        /* \"#utility.yul\":666:794   */\n    tag_28:\n        /* \"#utility.yul\":733:742   */\n      dup2\n      dup2\n      sub\n        /* \"#utility.yul\":754:765   */\n      dup2\n      dup2\n      gt\n        /* \"#utility.yul\":751:788   */\n      iszero\n      tag_36\n      jumpi\n        /* \"#utility.yul\":768:786   */\n      tag_36\n      tag_29\n      jump\t// in\n\n    auxdata: 0xa264697066735822122010f24eb54f9d29d6566bdfffd9e1b49f8c51475789bf7c5dd65ae5cd20414ac564736f6c634300081d0033\n}\n",
				"bytecode": {
					"linkReferences": {},
					"object": "6080604052348015600e575f5ffd5b506101658061001c5f395ff3fe608060405234801561000f575f5ffd5b5060043610610055575f3560e01c806306661abd14610059578063371303c0146100755780635c60da1b1461007f578063b3bcfa82146100a9578063f851a440146100b1575b5f5ffd5b61006260025481565b6040519081526020015b60405180910390f35b61007d6100c4565b005b5f54610091906001600160a01b031681565b6040516001600160a01b03909116815260200161006c565b61007d6100dd565b600154610091906001600160a01b031681565b600160025f8282546100d69190610103565b9091555050565b600160025f8282546100d6919061011c565b634e487b7160e01b5f52601160045260245ffd5b80820180821115610116576101166100ef565b92915050565b81810381811115610116576101166100ef56fea264697066735822122010f24eb54f9d29d6566bdfffd9e1b49f8c51475789bf7c5dd65ae5cd20414ac564736f6c634300081d0033",
					"opcodes": "PUSH1 0x80 PUSH1 0x40 MSTORE CALLVALUE DUP1 ISZERO PUSH1 0xE JUMPI PUSH0 PUSH0 REVERT JUMPDEST POP PUSH2 0x165 DUP1 PUSH2 0x1C PUSH0 CODECOPY PUSH0 RETURN INVALID PUSH1 0x80 PUSH1 0x40 MSTORE CALLVALUE DUP1 ISZERO PUSH2 0xF JUMPI PUSH0 PUSH0 REVERT JUMPDEST POP PUSH1 0x4 CALLDATASIZE LT PUSH2 0x55 JUMPI PUSH0 CALLDATALOAD PUSH1 0xE0 SHR DUP1 PUSH4 0x6661ABD EQ PUSH2 0x59 JUMPI DUP1 PUSH4 0x371303C0 EQ PUSH2 0x75 JUMPI DUP1 PUSH4 0x5C60DA1B EQ PUSH2 0x7F JUMPI DUP1 PUSH4 0xB3BCFA82 EQ PUSH2 0xA9 JUMPI DUP1 PUSH4 0xF851A440 EQ PUSH2 0xB1 JUMPI JUMPDEST PUSH0 PUSH0 REVERT JUMPDEST PUSH2 0x62 PUSH1 0x2 SLOAD DUP2 JUMP JUMPDEST PUSH1 0x40 MLOAD SWAP1 DUP2 MSTORE PUSH1 0x20 ADD JUMPDEST PUSH1 0x40 MLOAD DUP1 SWAP2 SUB SWAP1 RETURN JUMPDEST PUSH2 0x7D PUSH2 0xC4 JUMP JUMPDEST STOP JUMPDEST PUSH0 SLOAD PUSH2 0x91 SWAP1 PUSH1 0x1 PUSH1 0x1 PUSH1 0xA0 SHL SUB AND DUP2 JUMP JUMPDEST PUSH1 0x40 MLOAD PUSH1 0x1 PUSH1 0x1 PUSH1 0xA0 SHL SUB SWAP1 SWAP2 AND DUP2 MSTORE PUSH1 0x20 ADD PUSH2 0x6C JUMP JUMPDEST PUSH2 0x7D PUSH2 0xDD JUMP JUMPDEST PUSH1 0x1 SLOAD PUSH2 0x91 SWAP1 PUSH1 0x1 PUSH1 0x1 PUSH1 0xA0 SHL SUB AND DUP2 JUMP JUMPDEST PUSH1 0x1 PUSH1 0x2 PUSH0 DUP3 DUP3 SLOAD PUSH2 0xD6 SWAP2 SWAP1 PUSH2 0x103 JUMP JUMPDEST SWAP1 SWAP2 SSTORE POP POP JUMP JUMPDEST PUSH1 0x1 PUSH1 0x2 PUSH0 DUP3 DUP3 SLOAD PUSH2 0xD6 SWAP2 SWAP1 PUSH2 0x11C JUMP JUMPDEST PUSH4 0x4E487B71 PUSH1 0xE0 SHL PUSH0 MSTORE PUSH1 0x11 PUSH1 0x4 MSTORE PUSH1 0x24 PUSH0 REVERT JUMPDEST DUP1 DUP3 ADD DUP1 DUP3 GT ISZERO PUSH2 0x116 JUMPI PUSH2 0x116 PUSH2 0xEF JUMP JUMPDEST SWAP3 SWAP2 POP POP JUMP JUMPDEST DUP2 DUP2 SUB DUP2 DUP2 GT ISZERO PUSH2 0x116 JUMPI PUSH2 0x116 PUSH2 0xEF JUMP INVALID LOG2 PUSH5 0x6970667358 0x22 SLT KECCAK256 LT CALLCODE 0x4E 0xB5 0x4F SWAP14 0x29 0xD6 JUMP PUSH12 0xDFFFD9E1B49F8C51475789BF PUSH29 0x5DD65AE5CD20414AC564736F6C634300081D0033000000000000000000 "
				},
				"gasEstimates": {
					"creation": {
						"codeDepositCost": "71400",
						"executionCost": "121",
						"totalCost": "71521"
					},
					"external": {
						"admin()": "2402",
						"count()": "2261",
						"dec()": "24486",
						"implementation()": "2357",
						"inc()": "24442"
					}
				},
				"methodIdentifiers": {
					"admin()": "f851a440",
					"count()": "06661abd",
					"dec()": "b3bcfa82",
					"implementation()": "5c60da1b",
					"inc()": "371303c0"
				}
			},
			"storageLayout": {
				"storage": [
					{
						"astId": 20,
						"contract": "transparent_upgrade1/Proxy1.sol:CounterV2",
						"label": "implementation",
						"offset": 0,
						"slot": "0",
						"type": "t_address"
					},
					{
						"astId": 22,
						"contract": "transparent_upgrade1/Proxy1.sol:CounterV2",
						"label": "admin",
						"offset": 0,
						"slot": "1",
						"type": "t_address"
					},
					{
						"astId": 24,
						"contract": "transparent_upgrade1/Proxy1.sol:CounterV2",
						"label": "count",
						"offset": 0,
						"slot": "2",
						"type": "t_uint256"
					}
				],
				"types": {
					"t_address": {
						"encoding": "inplace",
						"label": "address",
						"numberOfBytes": "20"
					},
					"t_uint256": {
						"encoding": "inplace",
						"label": "uint256",
						"numberOfBytes": "32"
					}
				}
			},
			"userdoc": {
				"kind": "user",
				"methods": {},
				"version": 1
			}
		}
	}
}