{
	"upgrade/Proxy2.sol": {
		"CounterV2": {
			"abi": [
				{
					"inputs": [],
					"name": "count",
					"outputs": [
						{
							"internalType": "uint256",
							"name": "",
							"type": "uint256"
						}
					],
					"stateMutability": "view",
					"type": "function"
				},
				{
					"inputs": [],
					"name": "dec",
					"outputs": [],
					"stateMutability": "nonpayable",
					"type": "function"
				},
				{
					"inputs": [],
					"name": "inc",
					"outputs": [],
					"stateMutability": "nonpayable",
					"type": "function"
				}
			],
			"devdoc": {
				"kind": "dev",
				"methods": {},
				"version": 1
			},
			"evm": {
				"assembly": "    /* \"upgrade/Proxy2.sol\":467:638  contract CounterV2{... */\n  mstore(0x40, 0x80)\n  callvalue\n  dup1\n  iszero\n  tag_1\n  jumpi\n  revert(0x00, 0x00)\ntag_1:\n  pop\n  dataSize(sub_0)\n  dup1\n  dataOffset(sub_0)\n  0x00\n  codecopy\n  0x00\n  return\nstop\n\nsub_0: assembly {\n        /* \"upgrade/Proxy2.sol\":467:638  contract CounterV2{... */\n      mstore(0x40, 0x80)\n      callvalue\n      dup1\n      iszero\n      tag_1\n      jumpi\n      revert(0x00, 0x00)\n    tag_1:\n      pop\n      jumpi(tag_2, lt(calldatasize, 0x04))\n      shr(0xe0, calldataload(0x00))\n      dup1\n      0x06661abd\n      eq\n      tag_3\n      jumpi\n      dup1\n      0x371303c0\n      eq\n      tag_4\n      jumpi\n      dup1\n      0xb3bcfa82\n      eq\n      tag_5\n      jumpi\n    tag_2:\n      revert(0x00, 0x00)\n        /* \"upgrade/Proxy2.sol\":494:514  uint256 public count */\n    tag_3:\n      tag_6\n      sload(0x00)\n      dup2\n      jump\n    tag_6:\n      mload(0x40)\n        /* \"#utility.yul\":160:185   */\n      swap1\n      dup2\n      mstore\n        /* \"#utility.yul\":148:150   */\n      0x20\n        /* \"#utility.yul\":133:151   */\n      add\n        /* \"upgrade/Proxy2.sol\":494:514  uint256 public count */\n      mload(0x40)\n      dup1\n      swap2\n      sub\n      swap1\n      return\n        /* \"upgrade/Proxy2.sol\":523:575  function inc() external {... */\n    tag_4:\n      tag_10\n      tag_11\n      jump\t// in\n    tag_10:\n      stop\n        /* \"upgrade/Proxy2.sol\":583:635  function dec() external {... */\n    tag_5:\n      tag_10\n      tag_13\n      jump\t// in\n        /* \"upgrade/Proxy2.sol\":523:575  function inc() external {... */\n    tag_11:\n        /* \"upgrade/Proxy2.sol\":566:567  1 */\n      0x01\n        /* \"upgrade/Proxy2.sol\":558:563  count */\n      0x00\n      0x00\n        /* \"upgrade/Proxy2.sol\":558:567  count +=1 */\n      dup3\n      dup3\n      sload\n      tag_15\n      swap2\n      swap1\n      tag_16\n      jump\t// in\n    tag_15:\n      swap1\n      swap2\n      sstore\n      pop\n      pop\n        /* \"upgrade/Proxy2.sol\":523:575  function inc() external {... */\n      jump\t// out\n        /* \"upgrade/Proxy2.sol\":583:635  function dec() external {... */\n    tag_13:\n        /* \"upgrade/Proxy2.sol\":626:627  1 */\n      0x01\n        /* \"upgrade/Proxy2.sol\":618:623  count */\n      0x00\n      0x00\n        /* \"upgrade/Proxy2.sol\":618:627  count -=1 */\n      dup3\n      dup3\n      sload\n      tag_15\n      swap2\n      swap1\n      tag_19\n      jump\t// in\n        /* \"#utility.yul\":196:323   */\n    tag_20:\n        /* \"#utility.yul\":257:267   */\n      0x4e487b71\n        /* \"#utility.yul\":252:255   */\n      0xe0\n        /* \"#utility.yul\":248:268   */\n      shl\n        /* \"#utility.yul\":245:246   */\n      0x00\n        /* \"#utility.yul\":238:269   */\n      mstore\n        /* \"#utility.yul\":288:292   */\n      0x11\n        /* \"#utility.yul\":285:286   */\n      0x04\n        /* \"#utility.yul\":278:293   */\n      mstore\n        /* \"#utility.yul\":312:316   */\n      0x24\n        /* \"#utility.yul\":309:310   */\n      0x00\n        /* \"#utility.yul\":302:317   */\n      revert\n        /* \"#utility.yul\":328:453   */\n    tag_16:\n        /* \"#utility.yul\":393:402   */\n      dup1\n      dup3\n      add\n        /* \"#utility.yul\":414:424   */\n      dup1\n      dup3\n      gt\n        /* \"#utility.yul\":411:447   */\n      iszero\n      tag_26\n      jumpi\n        /* \"#utility.yul\":427:445   */\n      tag_26\n      tag_20\n      jump\t// in\n    tag_26:\n        /* \"#utility.yul\":328:453   */\n      swap3\n      swap2\n      pop\n      pop\n      jump\t// out\n        /* \"#utility.yul\":458:586   */\n    tag_19:\n        /* \"#utility.yul\":525:534   */\n      dup2\n      dup2\n      sub\n        /* \"#utility.yul\":546:557   */\n      dup2\n      dup2\n      gt\n        /* \"#utility.yul\":543:580   */\n      iszero\n      tag_26\n      jumpi\n        /* \"#utility.yul\":560:578   */\n      tag_26\n      tag_20\n      jump\t// in\n\n    auxdata: 0xa2646970667358221220b345c4cc66f829ab3ee3cc709f6d1aa9253a108cb05187b205d4c951465ba1df64736f6c634300081d0033\n}\n",
				"bytecode": {
					"linkReferences": {},
					"object": "6080604052348015600e575f5ffd5b5060fa8061001b5f395ff3fe6080604052348015600e575f5ffd5b5060043610603a575f3560e01c806306661abd14603e578063371303c0146057578063b3bcfa8214605f575b5f5ffd5b60455f5481565b60405190815260200160405180910390f35b605d6065565b005b605d607b565b60015f5f82825460749190609e565b9091555050565b60015f5f8282546074919060b4565b634e487b7160e01b5f52601160045260245ffd5b8082018082111560ae5760ae608a565b92915050565b8181038181111560ae5760ae608a56fea2646970667358221220b345c4cc66f829ab3ee3cc709f6d1aa9253a108cb05187b205d4c951465ba1df64736f6c634300081d0033",
					"opcodes": "PUSH1 0x80 PUSH1 0x40 MSTORE CALLVALUE DUP1 ISZERO PUSH1 0xE JUMPI PUSH0 PUSH0 REVERT JUMPDEST POP PUSH1 0xFA DUP1 PUSH2 0x1B PUSH0 CODECOPY PUSH0 RETURN INVALID PUSH1 0x80 PUSH1 0x40 MSTORE CALLVALUE DUP1 ISZERO PUSH1 0xE JUMPI PUSH0 PUSH0 REVERT JUMPDEST POP PUSH1 0x4 CALLDATASIZE LT PUSH1 0x3A JUMPI PUSH0 CALLDATALOAD PUSH1 0xE0 SHR DUP1 PUSH4 0x6661ABD EQ PUSH1 0x3E JUMPI DUP1 PUSH4 0x371303C0 EQ PUSH1 0x57 JUMPI DUP1 PUSH4 0xB3BCFA82 EQ PUSH1 0x5F JUMPI JUMPDEST PUSH0 PUSH0 REVERT JUMPDEST PUSH1 0x45 PUSH0 SLOAD DUP2 JUMP JUMPDEST PUSH1 0x40 MLOAD SWAP1 DUP2 MSTORE PUSH1 0x20 ADD PUSH1 0x40 MLOAD DUP1 SWAP2 SUB SWAP1 RETURN JUMPDEST PUSH1 0x5D PUSH1 0x65 JUMP JUMPDEST STOP JUMPDEST PUSH1 0x5D PUSH1 0x7B JUMP JUMPDEST PUSH1 0x1 PUSH0 PUSH0 DUP3 DUP3 SLOAD PUSH1 0x74 SWAP2 SWAP1 PUSH1 0x9E JUMP JUMPDEST SWAP1 SWAP2 SSTORE POP POP JUMP JUMPDEST PUSH1 0x1 PUSH0 PUSH0 DUP3 DUP3 SLOAD PUSH1 0x74 SWAP2 SWAP1 PUSH1 0xB4 JUMP JUMPDEST PUSH4 0x4E487B71 PUSH1 0xE0 SHL PUSH0 MSTORE PUSH1 0x11 PUSH1 0x4 MSTORE PUSH1 0x24 PUSH0 REVERT JUMPDEST DUP1 DUP3 ADD DUP1 DUP3 GT ISZERO PUSH1 0xAE JUMPI PUSH1 0xAE PUSH1 0x8A JUMP JUMPDEST SWAP3 SWAP2 POP POP JUMP JUMPDEST DUP2 DUP2 SUB DUP2 DUP2 GT ISZERO PUSH1 0xAE JUMPI PUSH1 0xAE PUSH1 0x8A JUMP INVALID LOG2 PUSH5 0x6970667358 0x22 SLT KECCAK256 0xB3 GASLIMIT 0xC4 0xCC PUSH7 0xF829AB3EE3CC70 SWAP16 PUSH14 0x1AA9253A108CB05187B205D4C951 CHAINID JUMPDEST LOG1 0xDF PUSH5 0x736F6C6343 STOP ADDMOD SAR STOP CALLER "
				},
				"gasEstimates": {
					"creation": {
						"codeDepositCost": "50000",
						"executionCost": "97",
						"totalCost": "50097"
					},
					"external": {
						"count()": "2259",
						"dec()": "24463",
						"inc()": "24441"
					}
				},
				"methodIdentifiers": {
					"count()": "06661abd",
					"dec()": "b3bcfa82",
					"inc()": "371303c0"
				}
			},
			"storageLayout": {
				"storage": [
					{
						"astId": 16,
						"contract": "upgrade/Proxy2.sol:CounterV2",
						"label": "count",
						"offset": 0,
						"slot": "0",
						"type": "t_uint256"
					}
				],
				"types": {
					"t_uint256": {
						"encoding": "inplace",
						"label": "uint256",
						"numberOfBytes": "32"
					}
				}
			},
			"userdoc": {
				"kind": "user",
				"methods": {},
				"version": 1
			}
		}
	}
}