{
	"upgrade/Proxy2.sol": {
		"Proxy": {
			"abi": [
				{
					"inputs": [],
					"stateMutability": "nonpayable",
					"type": "constructor"
				},
				{
					"stateMutability": "payable",
					"type": "fallback"
				},
				{
					"inputs": [],
					"name": "ADMIN_SLOT",
					"outputs": [
						{
							"internalType": "bytes32",
							"name": "",
							"type": "bytes32"
						}
					],
					"stateMutability": "view",
					"type": "function"
				},
				{
					"inputs": [],
					"name": "IMPLEMENATION_SLOT",
					"outputs": [
						{
							"internalType": "bytes32",
							"name": "",
							"type": "bytes32"
						}
					],
					"stateMutability": "view",
					"type": "function"
				},
				{
					"inputs": [],
					"name": "getAdmin",
					"outputs": [
						{
							"internalType": "address",
							"name": "",
							"type": "address"
						}
					],
					"stateMutability": "view",
					"type": "function"
				},
				{
					"inputs": [],
					"name": "getImplemenation",
					"outputs": [
						{
							"internalType": "address",
							"name": "",
							"type": "address"
						}
					],
					"stateMutability": "view",
					"type": "function"
				},
				{
					"inputs": [
						{
							"internalType": "address",
							"name": "_implementation",
							"type": "address"
						}
					],
					"name": "upgradeTo",
					"outputs": [],
					"stateMutability": "nonpayable",
					"type": "function"
				},
				{
					"stateMutability": "payable",
					"type": "receive"
				}
			],
			"devdoc": {
				"kind": "dev",
				"methods": {},
				"version": 1
			},
			"evm": {
				"assembly": "    /* \"upgrade/Proxy2.sol\":640:4432  contract Proxy{... */\n  mstore(0x40, 0x80)\n    /* \"upgrade/Proxy2.sol\":933:986  constructor(){... */\n  callvalue\n  dup1\n  iszero\n  tag_1\n  jumpi\n  revert(0x00, 0x00)\ntag_1:\n  pop\n    /* \"upgrade/Proxy2.sol\":957:978  _setAdmin(msg.sender) */\n  tag_4\n    /* \"upgrade/Proxy2.sol\":967:977  msg.sender */\n  caller\n    /* \"upgrade/Proxy2.sol\":957:966  _setAdmin */\n  tag_5\n    /* \"upgrade/Proxy2.sol\":957:978  _setAdmin(msg.sender) */\n  jump\t// in\ntag_4:\n    /* \"upgrade/Proxy2.sol\":640:4432  contract Proxy{... */\n  jump(tag_16)\n    /* \"upgrade/Proxy2.sol\":3530:3700  function _setAdmin(address _admin) private {... */\ntag_5:\n  sub(shl(0xa0, 0x01), 0x01)\n    /* \"upgrade/Proxy2.sol\":3592:3610  _admin!=address(0) */\n  dup2\n  and\n    /* \"upgrade/Proxy2.sol\":3584:3630  require(_admin!=address(0),\"cannot set admin\") */\n  tag_8\n  jumpi\n  mload(0x40)\n  shl(0xe5, 0x461bcd)\n  dup2\n  mstore\n    /* \"#utility.yul\":216:218   */\n  0x20\n    /* \"upgrade/Proxy2.sol\":3584:3630  require(_admin!=address(0),\"cannot set admin\") */\n  0x04\n  dup3\n  add\n    /* \"#utility.yul\":198:219   */\n  mstore\n    /* \"#utility.yul\":255:257   */\n  0x10\n    /* \"#utility.yul\":235:253   */\n  0x24\n  dup3\n  add\n    /* \"#utility.yul\":228:258   */\n  mstore\n  shl(0x81, 0x31b0b73737ba1039b2ba1030b236b4b7)\n    /* \"#utility.yul\":274:292   */\n  0x44\n  dup3\n  add\n    /* \"#utility.yul\":267:313   */\n  mstore\n    /* \"#utility.yul\":330:348   */\n  0x64\n  add\n    /* \"upgrade/Proxy2.sol\":3584:3630  require(_admin!=address(0),\"cannot set admin\") */\n  mload(0x40)\n  dup1\n  swap2\n  sub\n  swap1\n  revert\ntag_8:\n    /* \"upgrade/Proxy2.sol\":3686:3692  _admin */\n  dup1\n    /* \"upgrade/Proxy2.sol\":3641:3679  StorageSlot.getAddressSlot(ADMIN_SLOT) */\n  tag_11\n    /* \"upgrade/Proxy2.sol\":883:923  uint(keccak256(\"eip1967.proxy.admin\"))-1 */\n  tag_12\n    /* \"upgrade/Proxy2.sol\":922:923  1 */\n  0x01\n    /* \"upgrade/Proxy2.sol\":888:920  keccak256(\"eip1967.proxy.admin\") */\n  0xb53127684a568b3173ae13b9f8a6016e243e63b6e8ee1178d6a717850b5d6104\n    /* \"upgrade/Proxy2.sol\":883:923  uint(keccak256(\"eip1967.proxy.admin\"))-1 */\n  tag_13\n  jump\t// in\ntag_12:\n    /* \"upgrade/Proxy2.sol\":5187:5191  slot */\n  swap1\n    /* \"upgrade/Proxy2.sol\":5058:5273  function getAddressSlot(bytes32 slot) internal pure returns (AddressSlot storage r) {... */\n  jump\n    /* \"upgrade/Proxy2.sol\":3641:3679  StorageSlot.getAddressSlot(ADMIN_SLOT) */\ntag_11:\n    /* \"upgrade/Proxy2.sol\":3641:3692  StorageSlot.getAddressSlot(ADMIN_SLOT).value=_admin */\n  dup1\n  sload\n  not(sub(shl(0xa0, 0x01), 0x01))\n  and\n  sub(shl(0xa0, 0x01), 0x01)\n  swap3\n  swap1\n  swap3\n  and\n  swap2\n  swap1\n  swap2\n  or\n  swap1\n  sstore\n  pop\n    /* \"upgrade/Proxy2.sol\":3530:3700  function _setAdmin(address _admin) private {... */\n  jump\t// out\n    /* \"#utility.yul\":359:584   */\ntag_13:\n    /* \"#utility.yul\":426:435   */\n  dup2\n  dup2\n  sub\n    /* \"#utility.yul\":447:458   */\n  dup2\n  dup2\n  gt\n    /* \"#utility.yul\":444:578   */\n  iszero\n  tag_19\n  jumpi\n    /* \"#utility.yul\":500:510   */\n  0x4e487b71\n    /* \"#utility.yul\":495:498   */\n  0xe0\n    /* \"#utility.yul\":491:511   */\n  shl\n    /* \"#utility.yul\":488:489   */\n  0x00\n    /* \"#utility.yul\":481:512   */\n  mstore\n    /* \"#utility.yul\":535:539   */\n  0x11\n    /* \"#utility.yul\":532:533   */\n  0x04\n    /* \"#utility.yul\":525:540   */\n  mstore\n    /* \"#utility.yul\":563:567   */\n  0x24\n    /* \"#utility.yul\":560:561   */\n  0x00\n    /* \"#utility.yul\":553:568   */\n  revert\n    /* \"#utility.yul\":444:578   */\ntag_19:\n    /* \"#utility.yul\":359:584   */\n  swap3\n  swap2\n  pop\n  pop\n  jump\t// out\ntag_16:\n    /* \"upgrade/Proxy2.sol\":640:4432  contract Proxy{... */\n  dataSize(sub_0)\n  dup1\n  dataOffset(sub_0)\n  0x00\n  codecopy\n  0x00\n  return\nstop\n\nsub_0: assembly {\n        /* \"upgrade/Proxy2.sol\":640:4432  contract Proxy{... */\n      mstore(0x40, 0x80)\n      jumpi(tag_1, lt(calldatasize, 0x04))\n      shr(0xe0, calldataload(0x00))\n      dup1\n      0x3659cfe6\n      eq\n      tag_3\n      jumpi\n      dup1\n      0x3ce4ac68\n      eq\n      tag_4\n      jumpi\n      dup1\n      0x6e9960c3\n      eq\n      tag_5\n      jumpi\n      dup1\n      0x9c4b32be\n      eq\n      tag_6\n      jumpi\n      dup1\n      0xf4c20cfb\n      eq\n      tag_7\n      jumpi\n      jump(tag_2)\n    tag_1:\n      jumpi(tag_2, calldatasize)\n        /* \"upgrade/Proxy2.sol\":3307:3337  _delegate(_getImplemenation()) */\n      tag_10\n        /* \"upgrade/Proxy2.sol\":3317:3336  _getImplemenation() */\n      tag_11\n        /* \"upgrade/Proxy2.sol\":3317:3334  _getImplemenation */\n      tag_12\n        /* \"upgrade/Proxy2.sol\":3317:3336  _getImplemenation() */\n      jump\t// in\n    tag_11:\n        /* \"upgrade/Proxy2.sol\":3307:3316  _delegate */\n      tag_13\n        /* \"upgrade/Proxy2.sol\":3307:3337  _delegate(_getImplemenation()) */\n      jump\t// in\n    tag_10:\n        /* \"upgrade/Proxy2.sol\":640:4432  contract Proxy{... */\n      stop\n    tag_2:\n        /* \"upgrade/Proxy2.sol\":3223:3253  _delegate(_getImplemenation()) */\n      tag_10\n        /* \"upgrade/Proxy2.sol\":3233:3252  _getImplemenation() */\n      tag_11\n        /* \"upgrade/Proxy2.sol\":3233:3250  _getImplemenation */\n      tag_12\n        /* \"upgrade/Proxy2.sol\":3233:3252  _getImplemenation() */\n      jump\t// in\n        /* \"upgrade/Proxy2.sol\":3353:3522  function upgradeTo(address _implementation) external {... */\n    tag_3:\n      callvalue\n      dup1\n      iszero\n      tag_18\n      jumpi\n      revert(0x00, 0x00)\n    tag_18:\n      pop\n      tag_10\n      tag_20\n      calldatasize\n      0x04\n      tag_21\n      jump\t// in\n    tag_20:\n      tag_22\n      jump\t// in\n        /* \"upgrade/Proxy2.sol\":4324:4429  function getImplemenation() external  view returns(address) {... */\n    tag_4:\n      callvalue\n      dup1\n      iszero\n      tag_23\n      jumpi\n      revert(0x00, 0x00)\n    tag_23:\n      pop\n      tag_24\n      tag_25\n      jump\t// in\n    tag_24:\n      mload(0x40)\n      sub(shl(0xa0, 0x01), 0x01)\n        /* \"#utility.yul\":469:501   */\n      swap1\n      swap2\n      and\n        /* \"#utility.yul\":451:502   */\n      dup2\n      mstore\n        /* \"#utility.yul\":439:441   */\n      0x20\n        /* \"#utility.yul\":424:442   */\n      add\n        /* \"upgrade/Proxy2.sol\":4324:4429  function getImplemenation() external  view returns(address) {... */\n    tag_26:\n      mload(0x40)\n      dup1\n      swap2\n      sub\n      swap1\n      return\n        /* \"upgrade/Proxy2.sol\":4227:4318  function getAdmin() external   view  returns(address) {... */\n    tag_5:\n      callvalue\n      dup1\n      iszero\n      tag_28\n      jumpi\n      revert(0x00, 0x00)\n    tag_28:\n      pop\n      tag_24\n      tag_30\n      jump\t// in\n        /* \"upgrade/Proxy2.sol\":838:924  bytes32 public constant ADMIN_SLOT = bytes32(uint(keccak256(\"eip1967.proxy.admin\"))-1) */\n    tag_6:\n      callvalue\n      dup1\n      iszero\n      tag_32\n      jumpi\n      revert(0x00, 0x00)\n    tag_32:\n      pop\n      tag_33\n      tag_34\n      jump\t// in\n    tag_33:\n      mload(0x40)\n        /* \"#utility.yul\":659:684   */\n      swap1\n      dup2\n      mstore\n        /* \"#utility.yul\":647:649   */\n      0x20\n        /* \"#utility.yul\":632:650   */\n      add\n        /* \"upgrade/Proxy2.sol\":838:924  bytes32 public constant ADMIN_SLOT = bytes32(uint(keccak256(\"eip1967.proxy.admin\"))-1) */\n      tag_26\n        /* \"#utility.yul\":513:690   */\n      jump\n        /* \"upgrade/Proxy2.sol\":726:829  bytes32 public constant IMPLEMENATION_SLOT = bytes32(uint(keccak256(\"eip1967.proxy.implementation\"))-1) */\n    tag_7:\n      callvalue\n      dup1\n      iszero\n      tag_37\n      jumpi\n      revert(0x00, 0x00)\n    tag_37:\n      pop\n      tag_33\n      tag_39\n      jump\t// in\n        /* \"upgrade/Proxy2.sol\":4078:4215  function _getImplemenation() private view returns(address) {... */\n    tag_12:\n        /* \"upgrade/Proxy2.sol\":4128:4135  address */\n      0x00\n        /* \"upgrade/Proxy2.sol\":4155:4201  StorageSlot.getAddressSlot(IMPLEMENATION_SLOT) */\n      tag_42\n        /* \"upgrade/Proxy2.sol\":779:828  uint(keccak256(\"eip1967.proxy.implementation\"))-1 */\n      tag_43\n        /* \"upgrade/Proxy2.sol\":827:828  1 */\n      0x01\n        /* \"upgrade/Proxy2.sol\":784:825  keccak256(\"eip1967.proxy.implementation\") */\n      0x360894a13ba1a3210667c828492db98dca3e2076cc3735a920a3ca505d382bbd\n        /* \"upgrade/Proxy2.sol\":779:828  uint(keccak256(\"eip1967.proxy.implementation\"))-1 */\n      tag_44\n      jump\t// in\n    tag_43:\n        /* \"upgrade/Proxy2.sol\":5187:5191  slot */\n      swap1\n        /* \"upgrade/Proxy2.sol\":5058:5273  function getAddressSlot(bytes32 slot) internal pure returns (AddressSlot storage r) {... */\n      jump\n        /* \"upgrade/Proxy2.sol\":4155:4201  StorageSlot.getAddressSlot(IMPLEMENATION_SLOT) */\n    tag_42:\n        /* \"upgrade/Proxy2.sol\":4155:4207  StorageSlot.getAddressSlot(IMPLEMENATION_SLOT).value */\n      sload\n      sub(shl(0xa0, 0x01), 0x01)\n      and\n      swap2\n        /* \"upgrade/Proxy2.sol\":4078:4215  function _getImplemenation() private view returns(address) {... */\n      swap1\n      pop\n      jump\t// out\n        /* \"upgrade/Proxy2.sol\":994:3171  function _delegate(address _implementation) private {... */\n    tag_13:\n        /* \"upgrade/Proxy2.sol\":1523:1537  calldatasize() */\n      calldatasize\n        /* \"upgrade/Proxy2.sol\":1520:1521  0 */\n      0x00\n        /* \"upgrade/Proxy2.sol\":1517:1518  0 */\n      0x00\n        /* \"upgrade/Proxy2.sol\":1504:1538  calldatacopy(0, 0, calldatasize()) */\n      calldatacopy\n        /* \"upgrade/Proxy2.sol\":2163:2164  0 */\n      0x00\n        /* \"upgrade/Proxy2.sol\":2143:2144  0 */\n      0x00\n        /* \"upgrade/Proxy2.sol\":2110:2124  calldatasize() */\n      calldatasize\n        /* \"upgrade/Proxy2.sol\":2090:2091  0 */\n      0x00\n        /* \"upgrade/Proxy2.sol\":2056:2071  _implementation */\n      dup5\n        /* \"upgrade/Proxy2.sol\":2032:2037  gas() */\n      gas\n        /* \"upgrade/Proxy2.sol\":2001:2179  delegatecall(... */\n      delegatecall\n        /* \"upgrade/Proxy2.sol\":2464:2480  returndatasize() */\n      returndatasize\n        /* \"upgrade/Proxy2.sol\":2461:2462  0 */\n      0x00\n        /* \"upgrade/Proxy2.sol\":2458:2459  0 */\n      0x00\n        /* \"upgrade/Proxy2.sol\":2443:2481  returndatacopy(0, 0, returndatasize()) */\n      returndatacopy\n        /* \"upgrade/Proxy2.sol\":2539:2545  result */\n      dup1\n        /* \"upgrade/Proxy2.sol\":2559:2853  case 0 {  // 调用失败... */\n      dup1\n      iszero\n      tag_48\n      jumpi\n        /* \"upgrade/Proxy2.sol\":3121:3137  returndatasize() */\n      returndatasize\n        /* \"upgrade/Proxy2.sol\":3118:3119  0 */\n      0x00\n        /* \"upgrade/Proxy2.sol\":3111:3138  return(0, returndatasize()) */\n      return\n        /* \"upgrade/Proxy2.sol\":2559:2853  case 0 {  // 调用失败... */\n    tag_48:\n        /* \"upgrade/Proxy2.sol\":2821:2837  returndatasize() */\n      returndatasize\n        /* \"upgrade/Proxy2.sol\":2818:2819  0 */\n      0x00\n        /* \"upgrade/Proxy2.sol\":2811:2838  revert(0, returndatasize()) */\n      revert\n        /* \"upgrade/Proxy2.sol\":3353:3522  function upgradeTo(address _implementation) external {... */\n    tag_22:\n        /* \"upgrade/Proxy2.sol\":3439:3450  _getAdmin() */\n      tag_50\n        /* \"upgrade/Proxy2.sol\":3439:3448  _getAdmin */\n      tag_51\n        /* \"upgrade/Proxy2.sol\":3439:3450  _getAdmin() */\n      jump\t// in\n    tag_50:\n      sub(shl(0xa0, 0x01), 0x01)\n        /* \"upgrade/Proxy2.sol\":3425:3450  msg.sender == _getAdmin() */\n      and\n        /* \"upgrade/Proxy2.sol\":3425:3435  msg.sender */\n      caller\n      sub(shl(0xa0, 0x01), 0x01)\n        /* \"upgrade/Proxy2.sol\":3425:3450  msg.sender == _getAdmin() */\n      and\n      eq\n        /* \"upgrade/Proxy2.sol\":3417:3469  require(msg.sender == _getAdmin(), \"not authorized\") */\n      tag_52\n      jumpi\n      mload(0x40)\n      shl(0xe5, 0x461bcd)\n      dup2\n      mstore\n        /* \"#utility.yul\":1127:1129   */\n      0x20\n        /* \"upgrade/Proxy2.sol\":3417:3469  require(msg.sender == _getAdmin(), \"not authorized\") */\n      0x04\n      dup3\n      add\n        /* \"#utility.yul\":1109:1130   */\n      mstore\n        /* \"#utility.yul\":1166:1168   */\n      0x0e\n        /* \"#utility.yul\":1146:1164   */\n      0x24\n      dup3\n      add\n        /* \"#utility.yul\":1139:1169   */\n      mstore\n      shl(0x92, 0x1b9bdd08185d5d1a1bdc9a5e9959)\n        /* \"#utility.yul\":1185:1203   */\n      0x44\n      dup3\n      add\n        /* \"#utility.yul\":1178:1222   */\n      mstore\n        /* \"#utility.yul\":1239:1257   */\n      0x64\n      add\n        /* \"upgrade/Proxy2.sol\":3417:3469  require(msg.sender == _getAdmin(), \"not authorized\") */\n    tag_53:\n      mload(0x40)\n      dup1\n      swap2\n      sub\n      swap1\n      revert\n    tag_52:\n        /* \"upgrade/Proxy2.sol\":3480:3514  _setImplemenation(_implementation) */\n      tag_55\n        /* \"upgrade/Proxy2.sol\":3498:3513  _implementation */\n      dup2\n        /* \"upgrade/Proxy2.sol\":3480:3497  _setImplemenation */\n      tag_56\n        /* \"upgrade/Proxy2.sol\":3480:3514  _setImplemenation(_implementation) */\n      jump\t// in\n    tag_55:\n        /* \"upgrade/Proxy2.sol\":3353:3522  function upgradeTo(address _implementation) external {... */\n      pop\n      jump\t// out\n        /* \"upgrade/Proxy2.sol\":4324:4429  function getImplemenation() external  view returns(address) {... */\n    tag_25:\n        /* \"upgrade/Proxy2.sol\":4375:4382  address */\n      0x00\n        /* \"upgrade/Proxy2.sol\":4402:4421  _getImplemenation() */\n      tag_58\n        /* \"upgrade/Proxy2.sol\":4402:4419  _getImplemenation */\n      tag_12\n        /* \"upgrade/Proxy2.sol\":4402:4421  _getImplemenation() */\n      jump\t// in\n    tag_58:\n        /* \"upgrade/Proxy2.sol\":4395:4421  return _getImplemenation() */\n      swap1\n      pop\n        /* \"upgrade/Proxy2.sol\":4324:4429  function getImplemenation() external  view returns(address) {... */\n      swap1\n      jump\t// out\n        /* \"upgrade/Proxy2.sol\":4227:4318  function getAdmin() external   view  returns(address) {... */\n    tag_30:\n        /* \"upgrade/Proxy2.sol\":4272:4279  address */\n      0x00\n        /* \"upgrade/Proxy2.sol\":4299:4310  _getAdmin() */\n      tag_58\n        /* \"upgrade/Proxy2.sol\":4299:4308  _getAdmin */\n      tag_51\n        /* \"upgrade/Proxy2.sol\":4299:4310  _getAdmin() */\n      jump\t// in\n        /* \"upgrade/Proxy2.sol\":838:924  bytes32 public constant ADMIN_SLOT = bytes32(uint(keccak256(\"eip1967.proxy.admin\"))-1) */\n    tag_34:\n        /* \"upgrade/Proxy2.sol\":883:923  uint(keccak256(\"eip1967.proxy.admin\"))-1 */\n      tag_61\n        /* \"upgrade/Proxy2.sol\":922:923  1 */\n      0x01\n        /* \"upgrade/Proxy2.sol\":888:920  keccak256(\"eip1967.proxy.admin\") */\n      0xb53127684a568b3173ae13b9f8a6016e243e63b6e8ee1178d6a717850b5d6104\n        /* \"upgrade/Proxy2.sol\":883:923  uint(keccak256(\"eip1967.proxy.admin\"))-1 */\n      tag_44\n      jump\t// in\n    tag_61:\n        /* \"upgrade/Proxy2.sol\":838:924  bytes32 public constant ADMIN_SLOT = bytes32(uint(keccak256(\"eip1967.proxy.admin\"))-1) */\n      dup2\n      jump\t// out\n        /* \"upgrade/Proxy2.sol\":726:829  bytes32 public constant IMPLEMENATION_SLOT = bytes32(uint(keccak256(\"eip1967.proxy.implementation\"))-1) */\n    tag_39:\n        /* \"upgrade/Proxy2.sol\":779:828  uint(keccak256(\"eip1967.proxy.implementation\"))-1 */\n      tag_61\n        /* \"upgrade/Proxy2.sol\":827:828  1 */\n      0x01\n        /* \"upgrade/Proxy2.sol\":784:825  keccak256(\"eip1967.proxy.implementation\") */\n      0x360894a13ba1a3210667c828492db98dca3e2076cc3735a920a3ca505d382bbd\n        /* \"upgrade/Proxy2.sol\":779:828  uint(keccak256(\"eip1967.proxy.implementation\"))-1 */\n      tag_44\n      jump\t// in\n        /* \"upgrade/Proxy2.sol\":3713:3836  function _getAdmin() private  view  returns(address) {... */\n    tag_51:\n        /* \"upgrade/Proxy2.sol\":3757:3764  address */\n      0x00\n        /* \"upgrade/Proxy2.sol\":3784:3822  StorageSlot.getAddressSlot(ADMIN_SLOT) */\n      tag_42\n        /* \"upgrade/Proxy2.sol\":883:923  uint(keccak256(\"eip1967.proxy.admin\"))-1 */\n      tag_43\n        /* \"upgrade/Proxy2.sol\":922:923  1 */\n      0x01\n        /* \"upgrade/Proxy2.sol\":888:920  keccak256(\"eip1967.proxy.admin\") */\n      0xb53127684a568b3173ae13b9f8a6016e243e63b6e8ee1178d6a717850b5d6104\n        /* \"upgrade/Proxy2.sol\":883:923  uint(keccak256(\"eip1967.proxy.admin\"))-1 */\n      tag_44\n      jump\t// in\n        /* \"upgrade/Proxy2.sol\":3844:4066  function _setImplemenation(address _implemenation) private {... */\n    tag_56:\n        /* \"upgrade/Proxy2.sol\":3951:3952  0 */\n      0x00\n        /* \"upgrade/Proxy2.sol\":3922:3936  _implemenation */\n      dup2\n      sub(shl(0xa0, 0x01), 0x01)\n        /* \"upgrade/Proxy2.sol\":3922:3948  _implemenation.code.length */\n      and\n      extcodesize\n        /* \"upgrade/Proxy2.sol\":3922:3952  _implemenation.code.length > 0 */\n      gt\n        /* \"upgrade/Proxy2.sol\":3914:3980  require(_implemenation.code.length > 0,\"cannot set implemenation\") */\n      tag_68\n      jumpi\n      mload(0x40)\n      shl(0xe5, 0x461bcd)\n      dup2\n      mstore\n        /* \"#utility.yul\":1470:1472   */\n      0x20\n        /* \"upgrade/Proxy2.sol\":3914:3980  require(_implemenation.code.length > 0,\"cannot set implemenation\") */\n      0x04\n      dup3\n      add\n        /* \"#utility.yul\":1452:1473   */\n      mstore\n        /* \"#utility.yul\":1509:1511   */\n      0x18\n        /* \"#utility.yul\":1489:1507   */\n      0x24\n      dup3\n      add\n        /* \"#utility.yul\":1482:1512   */\n      mstore\n        /* \"#utility.yul\":1548:1574   */\n      0x63616e6e6f742073657420696d706c656d656e6174696f6e0000000000000000\n        /* \"#utility.yul\":1528:1546   */\n      0x44\n      dup3\n      add\n        /* \"#utility.yul\":1521:1575   */\n      mstore\n        /* \"#utility.yul\":1592:1610   */\n      0x64\n      add\n        /* \"upgrade/Proxy2.sol\":3914:3980  require(_implemenation.code.length > 0,\"cannot set implemenation\") */\n      tag_53\n        /* \"#utility.yul\":1268:1616   */\n      jump\n        /* \"upgrade/Proxy2.sol\":3914:3980  require(_implemenation.code.length > 0,\"cannot set implemenation\") */\n    tag_68:\n        /* \"upgrade/Proxy2.sol\":4044:4058  _implemenation */\n      dup1\n        /* \"upgrade/Proxy2.sol\":3991:4037  StorageSlot.getAddressSlot(IMPLEMENATION_SLOT) */\n      tag_71\n        /* \"upgrade/Proxy2.sol\":779:828  uint(keccak256(\"eip1967.proxy.implementation\"))-1 */\n      tag_43\n        /* \"upgrade/Proxy2.sol\":827:828  1 */\n      0x01\n        /* \"upgrade/Proxy2.sol\":784:825  keccak256(\"eip1967.proxy.implementation\") */\n      0x360894a13ba1a3210667c828492db98dca3e2076cc3735a920a3ca505d382bbd\n        /* \"upgrade/Proxy2.sol\":779:828  uint(keccak256(\"eip1967.proxy.implementation\"))-1 */\n      tag_44\n      jump\t// in\n        /* \"upgrade/Proxy2.sol\":3991:4037  StorageSlot.getAddressSlot(IMPLEMENATION_SLOT) */\n    tag_71:\n        /* \"upgrade/Proxy2.sol\":3991:4058  StorageSlot.getAddressSlot(IMPLEMENATION_SLOT).value=_implemenation */\n      dup1\n      sload\n      not(sub(shl(0xa0, 0x01), 0x01))\n      and\n      sub(shl(0xa0, 0x01), 0x01)\n      swap3\n      swap1\n      swap3\n      and\n      swap2\n      swap1\n      swap2\n      or\n      swap1\n      sstore\n      pop\n        /* \"upgrade/Proxy2.sol\":3844:4066  function _setImplemenation(address _implemenation) private {... */\n      jump\t// out\n        /* \"#utility.yul\":14:300   */\n    tag_21:\n        /* \"#utility.yul\":73:79   */\n      0x00\n        /* \"#utility.yul\":126:128   */\n      0x20\n        /* \"#utility.yul\":114:123   */\n      dup3\n        /* \"#utility.yul\":105:112   */\n      dup5\n        /* \"#utility.yul\":101:124   */\n      sub\n        /* \"#utility.yul\":97:129   */\n      slt\n        /* \"#utility.yul\":94:146   */\n      iszero\n      tag_75\n      jumpi\n        /* \"#utility.yul\":142:143   */\n      0x00\n        /* \"#utility.yul\":139:140   */\n      0x00\n        /* \"#utility.yul\":132:144   */\n      revert\n        /* \"#utility.yul\":94:146   */\n    tag_75:\n        /* \"#utility.yul\":168:191   */\n      dup2\n      calldataload\n      sub(shl(0xa0, 0x01), 0x01)\n        /* \"#utility.yul\":220:251   */\n      dup2\n      and\n        /* \"#utility.yul\":210:252   */\n      dup2\n      eq\n        /* \"#utility.yul\":200:270   */\n      tag_76\n      jumpi\n        /* \"#utility.yul\":266:267   */\n      0x00\n        /* \"#utility.yul\":263:264   */\n      0x00\n        /* \"#utility.yul\":256:268   */\n      revert\n        /* \"#utility.yul\":200:270   */\n    tag_76:\n        /* \"#utility.yul\":289:294   */\n      swap4\n        /* \"#utility.yul\":14:300   */\n      swap3\n      pop\n      pop\n      pop\n      jump\t// out\n        /* \"#utility.yul\":695:920   */\n    tag_44:\n        /* \"#utility.yul\":762:771   */\n      dup2\n      dup2\n      sub\n        /* \"#utility.yul\":783:794   */\n      dup2\n      dup2\n      gt\n        /* \"#utility.yul\":780:914   */\n      iszero\n      tag_80\n      jumpi\n        /* \"#utility.yul\":836:846   */\n      0x4e487b71\n        /* \"#utility.yul\":831:834   */\n      0xe0\n        /* \"#utility.yul\":827:847   */\n      shl\n        /* \"#utility.yul\":824:825   */\n      0x00\n        /* \"#utility.yul\":817:848   */\n      mstore\n        /* \"#utility.yul\":871:875   */\n      0x11\n        /* \"#utility.yul\":868:869   */\n      0x04\n        /* \"#utility.yul\":861:876   */\n      mstore\n        /* \"#utility.yul\":899:903   */\n      0x24\n        /* \"#utility.yul\":896:897   */\n      0x00\n        /* \"#utility.yul\":889:904   */\n      revert\n        /* \"#utility.yul\":780:914   */\n    tag_80:\n        /* \"#utility.yul\":695:920   */\n      swap3\n      swap2\n      pop\n      pop\n      jump\t// out\n\n    auxdata: 0xa2646970667358221220499468b29ea3c2ce07551e43dbf351521d774fd372dcafc4c7018b0822879cf764736f6c634300081d0033\n}\n",
				"bytecode": {
					"linkReferences": {},
					"object": "6080604052348015600e575f5ffd5b50601633601a565b60da565b6001600160a01b03811660665760405162461bcd60e51b815260206004820152601060248201526f31b0b73737ba1039b2ba1030b236b4b760811b604482015260640160405180910390fd5b806095609260017fb53127684a568b3173ae13b9f8a6016e243e63b6e8ee1178d6a717850b5d610460b6565b90565b80546001600160a01b0319166001600160a01b039290921691909117905550565b8181038181111560d457634e487b7160e01b5f52601160045260245ffd5b92915050565b6103a2806100e75f395ff3fe60806040526004361061004d575f3560e01c80633659cfe61461006f5780633ce4ac681461008e5780636e9960c3146100bf5780639c4b32be146100d3578063f4c20cfb146100f557610064565b366100645761006261005d610109565b61014a565b005b61006261005d610109565b34801561007a575f5ffd5b5061006261008936600461031a565b610168565b348015610099575f5ffd5b506100a26101d2565b6040516001600160a01b0390911681526020015b60405180910390f35b3480156100ca575f5ffd5b506100a26101e0565b3480156100de575f5ffd5b506100e76101e9565b6040519081526020016100b6565b348015610100575f5ffd5b506100e7610217565b5f61013b61013860017f360894a13ba1a3210667c828492db98dca3e2076cc3735a920a3ca505d382bbd610347565b90565b546001600160a01b0316919050565b365f5f375f5f365f845af43d5f5f3e808015610164573d5ff35b3d5ffd5b610170610242565b6001600160a01b0316336001600160a01b0316146101c65760405162461bcd60e51b815260206004820152600e60248201526d1b9bdd08185d5d1a1bdc9a5e995960921b60448201526064015b60405180910390fd5b6101cf81610271565b50565b5f6101db610109565b905090565b5f6101db610242565b61021460017fb53127684a568b3173ae13b9f8a6016e243e63b6e8ee1178d6a717850b5d6104610347565b81565b61021460017f360894a13ba1a3210667c828492db98dca3e2076cc3735a920a3ca505d382bbd610347565b5f61013b61013860017fb53127684a568b3173ae13b9f8a6016e243e63b6e8ee1178d6a717850b5d6104610347565b5f816001600160a01b03163b116102ca5760405162461bcd60e51b815260206004820152601860248201527f63616e6e6f742073657420696d706c656d656e6174696f6e000000000000000060448201526064016101bd565b806102f961013860017f360894a13ba1a3210667c828492db98dca3e2076cc3735a920a3ca505d382bbd610347565b80546001600160a01b0319166001600160a01b039290921691909117905550565b5f6020828403121561032a575f5ffd5b81356001600160a01b0381168114610340575f5ffd5b9392505050565b8181038181111561036657634e487b7160e01b5f52601160045260245ffd5b9291505056fea2646970667358221220499468b29ea3c2ce07551e43dbf351521d774fd372dcafc4c7018b0822879cf764736f6c634300081d0033",
					"opcodes": "PUSH1 0x80 PUSH1 0x40 MSTORE CALLVALUE DUP1 ISZERO PUSH1 0xE JUMPI PUSH0 PUSH0 REVERT JUMPDEST POP PUSH1 0x16 CALLER PUSH1 0x1A JUMP JUMPDEST PUSH1 0xDA JUMP JUMPDEST PUSH1 0x1 PUSH1 0x1 PUSH1 0xA0 SHL SUB DUP2 AND PUSH1 0x66 JUMPI PUSH1 0x40 MLOAD PUSH3 0x461BCD PUSH1 0xE5 SHL DUP2 MSTORE PUSH1 0x20 PUSH1 0x4 DUP3 ADD MSTORE PUSH1 0x10 PUSH1 0x24 DUP3 ADD MSTORE PUSH16 0x31B0B73737BA1039B2BA1030B236B4B7 PUSH1 0x81 SHL PUSH1 0x44 DUP3 ADD MSTORE PUSH1 0x64 ADD PUSH1 0x40 MLOAD DUP1 SWAP2 SUB SWAP1 REVERT JUMPDEST DUP1 PUSH1 0x95 PUSH1 0x92 PUSH1 0x1 PUSH32 0xB53127684A568B3173AE13B9F8A6016E243E63B6E8EE1178D6A717850B5D6104 PUSH1 0xB6 JUMP JUMPDEST SWAP1 JUMP JUMPDEST DUP1 SLOAD PUSH1 0x1 PUSH1 0x1 PUSH1 0xA0 SHL SUB NOT AND PUSH1 0x1 PUSH1 0x1 PUSH1 0xA0 SHL SUB SWAP3 SWAP1 SWAP3 AND SWAP2 SWAP1 SWAP2 OR SWAP1 SSTORE POP JUMP JUMPDEST DUP2 DUP2 SUB DUP2 DUP2 GT ISZERO PUSH1 0xD4 JUMPI PUSH4 0x4E487B71 PUSH1 0xE0 SHL PUSH0 MSTORE PUSH1 0x11 PUSH1 0x4 MSTORE PUSH1 0x24 PUSH0 REVERT JUMPDEST SWAP3 SWAP2 POP POP JUMP JUMPDEST PUSH2 0x3A2 DUP1 PUSH2 0xE7 PUSH0 CODECOPY PUSH0 RETURN INVALID PUSH1 0x80 PUSH1 0x40 MSTORE PUSH1 0x4 CALLDATASIZE LT PUSH2 0x4D JUMPI PUSH0 CALLDATALOAD PUSH1 0xE0 SHR DUP1 PUSH4 0x3659CFE6 EQ PUSH2 0x6F JUMPI DUP1 PUSH4 0x3CE4AC68 EQ PUSH2 0x8E JUMPI DUP1 PUSH4 0x6E9960C3 EQ PUSH2 0xBF JUMPI DUP1 PUSH4 0x9C4B32BE EQ PUSH2 0xD3 JUMPI DUP1 PUSH4 0xF4C20CFB EQ PUSH2 0xF5 JUMPI PUSH2 0x64 JUMP JUMPDEST CALLDATASIZE PUSH2 0x64 JUMPI PUSH2 0x62 PUSH2 0x5D PUSH2 0x109 JUMP JUMPDEST PUSH2 0x14A JUMP JUMPDEST STOP JUMPDEST PUSH2 0x62 PUSH2 0x5D PUSH2 0x109 JUMP JUMPDEST CALLVALUE DUP1 ISZERO PUSH2 0x7A JUMPI PUSH0 PUSH0 REVERT JUMPDEST POP PUSH2 0x62 PUSH2 0x89 CALLDATASIZE PUSH1 0x4 PUSH2 0x31A JUMP JUMPDEST PUSH2 0x168 JUMP JUMPDEST CALLVALUE DUP1 ISZERO PUSH2 0x99 JUMPI PUSH0 PUSH0 REVERT JUMPDEST POP PUSH2 0xA2 PUSH2 0x1D2 JUMP JUMPDEST PUSH1 0x40 MLOAD PUSH1 0x1 PUSH1 0x1 PUSH1 0xA0 SHL SUB SWAP1 SWAP2 AND DUP2 MSTORE PUSH1 0x20 ADD JUMPDEST PUSH1 0x40 MLOAD DUP1 SWAP2 SUB SWAP1 RETURN JUMPDEST CALLVALUE DUP1 ISZERO PUSH2 0xCA JUMPI PUSH0 PUSH0 REVERT JUMPDEST POP PUSH2 0xA2 PUSH2 0x1E0 JUMP JUMPDEST CALLVALUE DUP1 ISZERO PUSH2 0xDE JUMPI PUSH0 PUSH0 REVERT JUMPDEST POP PUSH2 0xE7 PUSH2 0x1E9 JUMP JUMPDEST PUSH1 0x40 MLOAD SWAP1 DUP2 MSTORE PUSH1 0x20 ADD PUSH2 0xB6 JUMP JUMPDEST CALLVALUE DUP1 ISZERO PUSH2 0x100 JUMPI PUSH0 PUSH0 REVERT JUMPDEST POP PUSH2 0xE7 PUSH2 0x217 JUMP JUMPDEST PUSH0 PUSH2 0x13B PUSH2 0x138 PUSH1 0x1 PUSH32 0x360894A13BA1A3210667C828492DB98DCA3E2076CC3735A920A3CA505D382BBD PUSH2 0x347 JUMP JUMPDEST SWAP1 JUMP JUMPDEST SLOAD PUSH1 0x1 PUSH1 0x1 PUSH1 0xA0 SHL SUB AND SWAP2 SWAP1 POP JUMP JUMPDEST CALLDATASIZE PUSH0 PUSH0 CALLDATACOPY PUSH0 PUSH0 CALLDATASIZE PUSH0 DUP5 GAS DELEGATECALL RETURNDATASIZE PUSH0 PUSH0 RETURNDATACOPY DUP1 DUP1 ISZERO PUSH2 0x164 JUMPI RETURNDATASIZE PUSH0 RETURN JUMPDEST RETURNDATASIZE PUSH0 REVERT JUMPDEST PUSH2 0x170 PUSH2 0x242 JUMP JUMPDEST PUSH1 0x1 PUSH1 0x1 PUSH1 0xA0 SHL SUB AND CALLER PUSH1 0x1 PUSH1 0x1 PUSH1 0xA0 SHL SUB AND EQ PUSH2 0x1C6 JUMPI PUSH1 0x40 MLOAD PUSH3 0x461BCD PUSH1 0xE5 SHL DUP2 MSTORE PUSH1 0x20 PUSH1 0x4 DUP3 ADD MSTORE PUSH1 0xE PUSH1 0x24 DUP3 ADD MSTORE PUSH14 0x1B9BDD08185D5D1A1BDC9A5E9959 PUSH1 0x92 SHL PUSH1 0x44 DUP3 ADD MSTORE PUSH1 0x64 ADD JUMPDEST PUSH1 0x40 MLOAD DUP1 SWAP2 SUB SWAP1 REVERT JUMPDEST PUSH2 0x1CF DUP2 PUSH2 0x271 JUMP JUMPDEST POP JUMP JUMPDEST PUSH0 PUSH2 0x1DB PUSH2 0x109 JUMP JUMPDEST SWAP1 POP SWAP1 JUMP JUMPDEST PUSH0 PUSH2 0x1DB PUSH2 0x242 JUMP JUMPDEST PUSH2 0x214 PUSH1 0x1 PUSH32 0xB53127684A568B3173AE13B9F8A6016E243E63B6E8EE1178D6A717850B5D6104 PUSH2 0x347 JUMP JUMPDEST DUP2 JUMP JUMPDEST PUSH2 0x214 PUSH1 0x1 PUSH32 0x360894A13BA1A3210667C828492DB98DCA3E2076CC3735A920A3CA505D382BBD PUSH2 0x347 JUMP JUMPDEST PUSH0 PUSH2 0x13B PUSH2 0x138 PUSH1 0x1 PUSH32 0xB53127684A568B3173AE13B9F8A6016E243E63B6E8EE1178D6A717850B5D6104 PUSH2 0x347 JUMP JUMPDEST PUSH0 DUP2 PUSH1 0x1 PUSH1 0x1 PUSH1 0xA0 SHL SUB AND EXTCODESIZE GT PUSH2 0x2CA JUMPI PUSH1 0x40 MLOAD PUSH3 0x461BCD PUSH1 0xE5 SHL DUP2 MSTORE PUSH1 0x20 PUSH1 0x4 DUP3 ADD MSTORE PUSH1 0x18 PUSH1 0x24 DUP3 ADD MSTORE PUSH32 0x63616E6E6F742073657420696D706C656D656E6174696F6E0000000000000000 PUSH1 0x44 DUP3 ADD MSTORE PUSH1 0x64 ADD PUSH2 0x1BD JUMP JUMPDEST DUP1 PUSH2 0x2F9 PUSH2 0x138 PUSH1 0x1 PUSH32 0x360894A13BA1A3210667C828492DB98DCA3E2076CC3735A920A3CA505D382BBD PUSH2 0x347 JUMP JUMPDEST DUP1 SLOAD PUSH1 0x1 PUSH1 0x1 PUSH1 0xA0 SHL SUB NOT AND PUSH1 0x1 PUSH1 0x1 PUSH1 0xA0 SHL SUB SWAP3 SWAP1 SWAP3 AND SWAP2 SWAP1 SWAP2 OR SWAP1 SSTORE POP JUMP JUMPDEST PUSH0 PUSH1 0x20 DUP3 DUP5 SUB SLT ISZERO PUSH2 0x32A JUMPI PUSH0 PUSH0 REVERT JUMPDEST DUP2 CALLDATALOAD PUSH1 0x1 PUSH1 0x1 PUSH1 0xA0 SHL SUB DUP2 AND DUP2 EQ PUSH2 0x340 JUMPI PUSH0 PUSH0 REVERT JUMPDEST SWAP4 SWAP3 POP POP POP JUMP JUMPDEST DUP2 DUP2 SUB DUP2 DUP2 GT ISZERO PUSH2 0x366 JUMPI PUSH4 0x4E487B71 PUSH1 0xE0 SHL PUSH0 MSTORE PUSH1 0x11 PUSH1 0x4 MSTORE PUSH1 0x24 PUSH0 REVERT JUMPDEST SWAP3 SWAP2 POP POP JUMP INVALID LOG2 PUSH5 0x6970667358 0x22 SLT KECCAK256 BLOBHASH SWAP5 PUSH9 0xB29EA3C2CE07551E43 0xDB RETURN MLOAD MSTORE SAR PUSH24 0x4FD372DCAFC4C7018B0822879CF764736F6C634300081D00 CALLER "
				},
				"gasEstimates": {
					"creation": {
						"codeDepositCost": "186000",
						"executionCost": "24664",
						"totalCost": "210664"
					},
					"external": {
						"": "infinite",
						"ADMIN_SLOT()": "322",
						"IMPLEMENATION_SLOT()": "344",
						"getAdmin()": "2484",
						"getImplemenation()": "2462",
						"upgradeTo(address)": "infinite"
					},
					"internal": {
						"_delegate(address)": "infinite",
						"_getAdmin()": "2227",
						"_getImplemenation()": "2227",
						"_setAdmin(address)": "infinite",
						"_setImplemenation(address)": "infinite"
					}
				},
				"methodIdentifiers": {
					"ADMIN_SLOT()": "9c4b32be",
					"IMPLEMENATION_SLOT()": "f4c20cfb",
					"getAdmin()": "6e9960c3",
					"getImplemenation()": "3ce4ac68",
					"upgradeTo(address)": "3659cfe6"
				}
			},
			"storageLayout": {
				"storage": [],
				"types": null
			},
			"userdoc": {
				"kind": "user",
				"methods": {},
				"version": 1
			}
		}
	}
}