{
	"upgrade/Proxy2.sol": {
		"CounterV1": {
			"abi": [
				{
					"inputs": [],
					"name": "count",
					"outputs": [
						{
							"internalType": "uint256",
							"name": "",
							"type": "uint256"
						}
					],
					"stateMutability": "view",
					"type": "function"
				},
				{
					"inputs": [],
					"name": "inc",
					"outputs": [],
					"stateMutability": "nonpayable",
					"type": "function"
				}
			],
			"devdoc": {
				"kind": "dev",
				"methods": {},
				"version": 1
			},
			"evm": {
				"assembly": "    /* \"upgrade/Proxy2.sol\":276:463  contract CounterV1{... */\n  mstore(0x40, 0x80)\n  callvalue\n  dup1\n  iszero\n  tag_1\n  jumpi\n  revert(0x00, 0x00)\ntag_1:\n  pop\n  dataSize(sub_0)\n  dup1\n  dataOffset(sub_0)\n  0x00\n  codecopy\n  0x00\n  return\nstop\n\nsub_0: assembly {\n        /* \"upgrade/Proxy2.sol\":276:463  contract CounterV1{... */\n      mstore(0x40, 0x80)\n      callvalue\n      dup1\n      iszero\n      tag_1\n      jumpi\n      revert(0x00, 0x00)\n    tag_1:\n      pop\n      jumpi(tag_2, lt(calldatasize, 0x04))\n      shr(0xe0, calldataload(0x00))\n      dup1\n      0x06661abd\n      eq\n      tag_3\n      jumpi\n      dup1\n      0x371303c0\n      eq\n      tag_4\n      jumpi\n    tag_2:\n      revert(0x00, 0x00)\n        /* \"upgrade/Proxy2.sol\":375:395  uint256 public count */\n    tag_3:\n      tag_5\n      sload(0x00)\n      dup2\n      jump\n    tag_5:\n      mload(0x40)\n        /* \"#utility.yul\":160:185   */\n      swap1\n      dup2\n      mstore\n        /* \"#utility.yul\":148:150   */\n      0x20\n        /* \"#utility.yul\":133:151   */\n      add\n        /* \"upgrade/Proxy2.sol\":375:395  uint256 public count */\n      mload(0x40)\n      dup1\n      swap2\n      sub\n      swap1\n      return\n        /* \"upgrade/Proxy2.sol\":404:460  function inc() external {... */\n    tag_4:\n      tag_9\n      tag_10\n      jump\t// in\n    tag_9:\n      stop\n    tag_10:\n        /* \"upgrade/Proxy2.sol\":445:450  count */\n      sload(0x00)\n        /* \"upgrade/Proxy2.sol\":445:452  count+1 */\n      tag_12\n      swap1\n        /* \"upgrade/Proxy2.sol\":451:452  1 */\n      0x01\n        /* \"upgrade/Proxy2.sol\":445:452  count+1 */\n      tag_13\n      jump\t// in\n    tag_12:\n        /* \"upgrade/Proxy2.sol\":439:444  count */\n      0x00\n        /* \"upgrade/Proxy2.sol\":439:452  count=count+1 */\n      sstore\n        /* \"upgrade/Proxy2.sol\":404:460  function inc() external {... */\n      jump\t// out\n        /* \"#utility.yul\":196:418   */\n    tag_13:\n        /* \"#utility.yul\":261:270   */\n      dup1\n      dup3\n      add\n        /* \"#utility.yul\":282:292   */\n      dup1\n      dup3\n      gt\n        /* \"#utility.yul\":279:412   */\n      iszero\n      tag_17\n      jumpi\n        /* \"#utility.yul\":334:344   */\n      0x4e487b71\n        /* \"#utility.yul\":329:332   */\n      0xe0\n        /* \"#utility.yul\":325:345   */\n      shl\n        /* \"#utility.yul\":322:323   */\n      0x00\n        /* \"#utility.yul\":315:346   */\n      mstore\n        /* \"#utility.yul\":369:373   */\n      0x11\n        /* \"#utility.yul\":366:367   */\n      0x04\n        /* \"#utility.yul\":359:374   */\n      mstore\n        /* \"#utility.yul\":397:401   */\n      0x24\n        /* \"#utility.yul\":394:395   */\n      0x00\n        /* \"#utility.yul\":387:402   */\n      revert\n        /* \"#utility.yul\":279:412   */\n    tag_17:\n        /* \"#utility.yul\":196:418   */\n      swap3\n      swap2\n      pop\n      pop\n      jump\t// out\n\n    auxdata: 0xa2646970667358221220b1eb09e3476f858799dac67bb8ea2ecfe8ecb5369d5a4c538f858316e7a16b7f64736f6c634300081d0033\n}\n",
				"bytecode": {
					"linkReferences": {},
					"object": "6080604052348015600e575f5ffd5b5060be80601a5f395ff3fe6080604052348015600e575f5ffd5b50600436106030575f3560e01c806306661abd146034578063371303c014604d575b5f5ffd5b603b5f5481565b60405190815260200160405180910390f35b60536055565b005b5f5460609060016064565b5f55565b80820180821115608257634e487b7160e01b5f52601160045260245ffd5b9291505056fea2646970667358221220b1eb09e3476f858799dac67bb8ea2ecfe8ecb5369d5a4c538f858316e7a16b7f64736f6c634300081d0033",
					"opcodes": "PUSH1 0x80 PUSH1 0x40 MSTORE CALLVALUE DUP1 ISZERO PUSH1 0xE JUMPI PUSH0 PUSH0 REVERT JUMPDEST POP PUSH1 0xBE DUP1 PUSH1 0x1A PUSH0 CODECOPY PUSH0 RETURN INVALID PUSH1 0x80 PUSH1 0x40 MSTORE CALLVALUE DUP1 ISZERO PUSH1 0xE JUMPI PUSH0 PUSH0 REVERT JUMPDEST POP PUSH1 0x4 CALLDATASIZE LT PUSH1 0x30 JUMPI PUSH0 CALLDATALOAD PUSH1 0xE0 SHR DUP1 PUSH4 0x6661ABD EQ PUSH1 0x34 JUMPI DUP1 PUSH4 0x371303C0 EQ PUSH1 0x4D JUMPI JUMPDEST PUSH0 PUSH0 REVERT JUMPDEST PUSH1 0x3B PUSH0 SLOAD DUP2 JUMP JUMPDEST PUSH1 0x40 MLOAD SWAP1 DUP2 MSTORE PUSH1 0x20 ADD PUSH1 0x40 MLOAD DUP1 SWAP2 SUB SWAP1 RETURN JUMPDEST PUSH1 0x53 PUSH1 0x55 JUMP JUMPDEST STOP JUMPDEST PUSH0 SLOAD PUSH1 0x60 SWAP1 PUSH1 0x1 PUSH1 0x64 JUMP JUMPDEST PUSH0 SSTORE JUMP JUMPDEST DUP1 DUP3 ADD DUP1 DUP3 GT ISZERO PUSH1 0x82 JUMPI PUSH4 0x4E487B71 PUSH1 0xE0 SHL PUSH0 MSTORE PUSH1 0x11 PUSH1 0x4 MSTORE PUSH1 0x24 PUSH0 REVERT JUMPDEST SWAP3 SWAP2 POP POP JUMP INVALID LOG2 PUSH5 0x6970667358 0x22 SLT KECCAK256 0xB1 0xEB MULMOD CALLF 0x476F DUP6 DUP8 SWAP10 0xDA 0xC6 PUSH28 0xB8EA2ECFE8ECB5369D5A4C538F858316E7A16B7F64736F6C63430008 SAR STOP CALLER "
				},
				"gasEstimates": {
					"creation": {
						"codeDepositCost": "38000",
						"executionCost": "85",
						"totalCost": "38085"
					},
					"external": {
						"count()": "2259",
						"inc()": "24422"
					}
				},
				"methodIdentifiers": {
					"count()": "06661abd",
					"inc()": "371303c0"
				}
			},
			"storageLayout": {
				"storage": [
					{
						"astId": 3,
						"contract": "upgrade/Proxy2.sol:CounterV1",
						"label": "count",
						"offset": 0,
						"slot": "0",
						"type": "t_uint256"
					}
				],
				"types": {
					"t_uint256": {
						"encoding": "inplace",
						"label": "uint256",
						"numberOfBytes": "32"
					}
				}
			},
			"userdoc": {
				"kind": "user",
				"methods": {},
				"version": 1
			}
		}
	}
}