{
	"eight/AccessControlTest.sol": {
		"AccessControlTest": {
			"abi": [
				{
					"inputs": [],
					"stateMutability": "nonpayable",
					"type": "constructor"
				},
				{
					"inputs": [],
					"name": "AccessControlBadConfirmation",
					"type": "error"
				},
				{
					"inputs": [
						{
							"internalType": "address",
							"name": "account",
							"type": "address"
						},
						{
							"internalType": "bytes32",
							"name": "neededRole",
							"type": "bytes32"
						}
					],
					"name": "AccessControlUnauthorizedAccount",
					"type": "error"
				},
				{
					"anonymous": false,
					"inputs": [
						{
							"indexed": true,
							"internalType": "bytes32",
							"name": "role",
							"type": "bytes32"
						},
						{
							"indexed": true,
							"internalType": "bytes32",
							"name": "previousAdminRole",
							"type": "bytes32"
						},
						{
							"indexed": true,
							"internalType": "bytes32",
							"name": "newAdminRole",
							"type": "bytes32"
						}
					],
					"name": "RoleAdminChanged",
					"type": "event"
				},
				{
					"anonymous": false,
					"inputs": [
						{
							"indexed": true,
							"internalType": "bytes32",
							"name": "role",
							"type": "bytes32"
						},
						{
							"indexed": true,
							"internalType": "address",
							"name": "account",
							"type": "address"
						},
						{
							"indexed": true,
							"internalType": "address",
							"name": "sender",
							"type": "address"
						}
					],
					"name": "RoleGranted",
					"type": "event"
				},
				{
					"anonymous": false,
					"inputs": [
						{
							"indexed": true,
							"internalType": "bytes32",
							"name": "role",
							"type": "bytes32"
						},
						{
							"indexed": true,
							"internalType": "address",
							"name": "account",
							"type": "address"
						},
						{
							"indexed": true,
							"internalType": "address",
							"name": "sender",
							"type": "address"
						}
					],
					"name": "RoleRevoked",
					"type": "event"
				},
				{
					"inputs": [],
					"name": "DEFAULT_ADMIN_ROLE",
					"outputs": [
						{
							"internalType": "bytes32",
							"name": "",
							"type": "bytes32"
						}
					],
					"stateMutability": "view",
					"type": "function"
				},
				{
					"inputs": [],
					"name": "ROLE_MANAGER",
					"outputs": [
						{
							"internalType": "bytes32",
							"name": "",
							"type": "bytes32"
						}
					],
					"stateMutability": "view",
					"type": "function"
				},
				{
					"inputs": [],
					"name": "ROLE_NORMAL",
					"outputs": [
						{
							"internalType": "bytes32",
							"name": "",
							"type": "bytes32"
						}
					],
					"stateMutability": "view",
					"type": "function"
				},
				{
					"inputs": [
						{
							"internalType": "bytes32",
							"name": "role",
							"type": "bytes32"
						}
					],
					"name": "getRoleAdmin",
					"outputs": [
						{
							"internalType": "bytes32",
							"name": "",
							"type": "bytes32"
						}
					],
					"stateMutability": "view",
					"type": "function"
				},
				{
					"inputs": [
						{
							"internalType": "bytes32",
							"name": "role",
							"type": "bytes32"
						},
						{
							"internalType": "address",
							"name": "account",
							"type": "address"
						}
					],
					"name": "grantRole",
					"outputs": [],
					"stateMutability": "nonpayable",
					"type": "function"
				},
				{
					"inputs": [
						{
							"internalType": "bytes32",
							"name": "role",
							"type": "bytes32"
						},
						{
							"internalType": "address",
							"name": "account",
							"type": "address"
						}
					],
					"name": "hasRole",
					"outputs": [
						{
							"internalType": "bool",
							"name": "",
							"type": "bool"
						}
					],
					"stateMutability": "view",
					"type": "function"
				},
				{
					"inputs": [],
					"name": "normalThing",
					"outputs": [],
					"stateMutability": "nonpayable",
					"type": "function"
				},
				{
					"inputs": [
						{
							"internalType": "bytes32",
							"name": "role",
							"type": "bytes32"
						},
						{
							"internalType": "address",
							"name": "callerConfirmation",
							"type": "address"
						}
					],
					"name": "renounceRole",
					"outputs": [],
					"stateMutability": "nonpayable",
					"type": "function"
				},
				{
					"inputs": [
						{
							"internalType": "bytes32",
							"name": "role",
							"type": "bytes32"
						},
						{
							"internalType": "address",
							"name": "account",
							"type": "address"
						}
					],
					"name": "revokeRole",
					"outputs": [],
					"stateMutability": "nonpayable",
					"type": "function"
				},
				{
					"inputs": [],
					"name": "setRoleAdmin",
					"outputs": [],
					"stateMutability": "nonpayable",
					"type": "function"
				},
				{
					"inputs": [],
					"name": "speciaThing",
					"outputs": [],
					"stateMutability": "nonpayable",
					"type": "function"
				},
				{
					"inputs": [
						{
							"internalType": "bytes4",
							"name": "interfaceId",
							"type": "bytes4"
						}
					],
					"name": "supportsInterface",
					"outputs": [
						{
							"internalType": "bool",
							"name": "",
							"type": "bool"
						}
					],
					"stateMutability": "view",
					"type": "function"
				}
			],
			"devdoc": {
				"errors": {
					"AccessControlBadConfirmation()": [
						{
							"details": "The caller of a function is not the expected one. NOTE: Don't confuse with {AccessControlUnauthorizedAccount}."
						}
					],
					"AccessControlUnauthorizedAccount(address,bytes32)": [
						{
							"details": "The `account` is missing a role."
						}
					]
				},
				"events": {
					"RoleAdminChanged(bytes32,bytes32,bytes32)": {
						"details": "Emitted when `newAdminRole` is set as ``role``'s admin role, replacing `previousAdminRole` `DEFAULT_ADMIN_ROLE` is the starting admin for all roles, despite {RoleAdminChanged} not being emitted to signal this."
					},
					"RoleGranted(bytes32,address,address)": {
						"details": "Emitted when `account` is granted `role`. `sender` is the account that originated the contract call. This account bears the admin role (for the granted role). Expected in cases where the role was granted using the internal {AccessControl-_grantRole}."
					},
					"RoleRevoked(bytes32,address,address)": {
						"details": "Emitted when `account` is revoked `role`. `sender` is the account that originated the contract call:   - if using `revokeRole`, it is the admin role bearer   - if using `renounceRole`, it is the role bearer (i.e. `account`)"
					}
				},
				"kind": "dev",
				"methods": {
					"getRoleAdmin(bytes32)": {
						"details": "Returns the admin role that controls `role`. See {grantRole} and {revokeRole}. To change a role's admin, use {_setRoleAdmin}."
					},
					"grantRole(bytes32,address)": {
						"details": "Grants `role` to `account`. If `account` had not been already granted `role`, emits a {RoleGranted} event. Requirements: - the caller must have ``role``'s admin role. May emit a {RoleGranted} event."
					},
					"hasRole(bytes32,address)": {
						"details": "Returns `true` if `account` has been granted `role`."
					},
					"renounceRole(bytes32,address)": {
						"details": "Revokes `role` from the calling account. Roles are often managed via {grantRole} and {revokeRole}: this function's purpose is to provide a mechanism for accounts to lose their privileges if they are compromised (such as when a trusted device is misplaced). If the calling account had been revoked `role`, emits a {RoleRevoked} event. Requirements: - the caller must be `callerConfirmation`. May emit a {RoleRevoked} event."
					},
					"revokeRole(bytes32,address)": {
						"details": "Revokes `role` from `account`. If `account` had been granted `role`, emits a {RoleRevoked} event. Requirements: - the caller must have ``role``'s admin role. May emit a {RoleRevoked} event."
					},
					"supportsInterface(bytes4)": {
						"details": "See {IERC165-supportsInterface}."
					}
				},
				"version": 1
			},
			"evm": {
				"assembly": "    /* \"eight/AccessControlTest.sol\":282:822  contract AccessControlTest is AccessControl{... */\n  mstore(0x40, 0x80)\n    /* \"eight/AccessControlTest.sol\":472:548  constructor(){... */\n  callvalue\n  dup1\n  iszero\n  tag_1\n  jumpi\n  0x00\n  dup1\n  revert\ntag_1:\n  pop\n    /* \"eight/AccessControlTest.sol\":496:540  _grantRole(DEFAULT_ADMIN_ROLE, _msgSender()) */\n  tag_4\n    /* \"@openzeppelin/contracts/access/AccessControl.sol\":2232:2236  0x00 */\n  0x00\n    /* \"@openzeppelin/contracts/utils/Context.sol\":735:745  msg.sender */\n  caller\n    /* \"eight/AccessControlTest.sol\":496:506  _grantRole */\n  tag_7\n    /* \"eight/AccessControlTest.sol\":496:540  _grantRole(DEFAULT_ADMIN_ROLE, _msgSender()) */\n  jump\t// in\ntag_4:\n  pop\n    /* \"eight/AccessControlTest.sol\":282:822  contract AccessControlTest is AccessControl{... */\n  jump(tag_8)\n    /* \"@openzeppelin/contracts/access/AccessControl.sol\":6179:6495  function _grantRole(bytes32 role, address account) internal virtual returns (bool) {... */\ntag_7:\n    /* \"@openzeppelin/contracts/access/AccessControl.sol\":6256:6260  bool */\n  0x00\n    /* \"@openzeppelin/contracts/access/AccessControl.sol\":2954:2966  _roles[role] */\n  dup3\n  dup2\n  mstore\n  0x20\n  dup2\n  dup2\n  mstore\n  0x40\n  dup1\n  dup4\n  keccak256\n  sub(shl(0xa0, 0x01), 0x01)\n    /* \"@openzeppelin/contracts/access/AccessControl.sol\":2954:2983  _roles[role].hasRole[account] */\n  dup6\n  and\n  dup5\n  mstore\n  swap1\n  swap2\n  mstore\n  dup2\n  keccak256\n  sload\n  0xff\n  and\n    /* \"@openzeppelin/contracts/access/AccessControl.sol\":6272:6489  if (!hasRole(role, account)) {... */\n  tag_13\n  jumpi\n    /* \"@openzeppelin/contracts/access/AccessControl.sol\":6315:6321  _roles */\n  0x00\n    /* \"@openzeppelin/contracts/access/AccessControl.sol\":6315:6327  _roles[role] */\n  dup4\n  dup2\n  mstore\n  0x20\n  dup2\n  dup2\n  mstore\n  0x40\n  dup1\n  dup4\n  keccak256\n  sub(shl(0xa0, 0x01), 0x01)\n    /* \"@openzeppelin/contracts/access/AccessControl.sol\":6315:6344  _roles[role].hasRole[account] */\n  dup7\n  and\n  dup5\n  mstore\n  swap1\n  swap2\n  mstore\n  swap1\n  keccak256\n    /* \"@openzeppelin/contracts/access/AccessControl.sol\":6315:6351  _roles[role].hasRole[account] = true */\n  dup1\n  sload\n  not(0xff)\n  and\n    /* \"@openzeppelin/contracts/access/AccessControl.sol\":6347:6351  true */\n  0x01\n    /* \"@openzeppelin/contracts/access/AccessControl.sol\":6315:6351  _roles[role].hasRole[account] = true */\n  or\n  swap1\n  sstore\n    /* \"@openzeppelin/contracts/access/AccessControl.sol\":6397:6409  _msgSender() */\n  tag_14\n    /* \"@openzeppelin/contracts/utils/Context.sol\":735:745  msg.sender */\n  caller\n  swap1\n    /* \"@openzeppelin/contracts/utils/Context.sol\":656:752  function _msgSender() internal view virtual returns (address) {... */\n  jump\n    /* \"@openzeppelin/contracts/access/AccessControl.sol\":6397:6409  _msgSender() */\ntag_14:\n  sub(shl(0xa0, 0x01), 0x01)\n    /* \"@openzeppelin/contracts/access/AccessControl.sol\":6370:6410  RoleGranted(role, account, _msgSender()) */\n  and\n    /* \"@openzeppelin/contracts/access/AccessControl.sol\":6388:6395  account */\n  dup3\n  sub(shl(0xa0, 0x01), 0x01)\n    /* \"@openzeppelin/contracts/access/AccessControl.sol\":6370:6410  RoleGranted(role, account, _msgSender()) */\n  and\n    /* \"@openzeppelin/contracts/access/AccessControl.sol\":6382:6386  role */\n  dup5\n    /* \"@openzeppelin/contracts/access/AccessControl.sol\":6370:6410  RoleGranted(role, account, _msgSender()) */\n  0x2f8788117e7eff1d82e926ec794901d17c78024a50270940304540a733656f0d\n  mload(0x40)\n  mload(0x40)\n  dup1\n  swap2\n  sub\n  swap1\n  log4\n  pop\n    /* \"@openzeppelin/contracts/access/AccessControl.sol\":6431:6435  true */\n  0x01\n    /* \"@openzeppelin/contracts/access/AccessControl.sol\":6424:6435  return true */\n  jump(tag_15)\n    /* \"@openzeppelin/contracts/access/AccessControl.sol\":6272:6489  if (!hasRole(role, account)) {... */\ntag_13:\n  pop\n    /* \"@openzeppelin/contracts/access/AccessControl.sol\":6473:6478  false */\n  0x00\n    /* \"@openzeppelin/contracts/access/AccessControl.sol\":6272:6489  if (!hasRole(role, account)) {... */\ntag_15:\n    /* \"@openzeppelin/contracts/access/AccessControl.sol\":6179:6495  function _grantRole(bytes32 role, address account) internal virtual returns (bool) {... */\n  swap3\n  swap2\n  pop\n  pop\n  jump\t// out\n    /* \"eight/AccessControlTest.sol\":282:822  contract AccessControlTest is AccessControl{... */\ntag_8:\n  dataSize(sub_0)\n  dup1\n  dataOffset(sub_0)\n  0x00\n  codecopy\n  0x00\n  return\nstop\n\nsub_0: assembly {\n        /* \"eight/AccessControlTest.sol\":282:822  contract AccessControlTest is AccessControl{... */\n      mstore(0x40, 0x80)\n      callvalue\n      dup1\n      iszero\n      tag_1\n      jumpi\n      0x00\n      dup1\n      revert\n    tag_1:\n      pop\n      jumpi(tag_2, lt(calldatasize, 0x04))\n      shr(0xe0, calldataload(0x00))\n      dup1\n      0x4f37bde9\n      gt\n      tag_15\n      jumpi\n      dup1\n      0x4f37bde9\n      eq\n      tag_9\n      jumpi\n      dup1\n      0x91d14854\n      eq\n      tag_10\n      jumpi\n      dup1\n      0xa217fddf\n      eq\n      tag_11\n      jumpi\n      dup1\n      0xc729dc04\n      eq\n      tag_12\n      jumpi\n      dup1\n      0xd547741f\n      eq\n      tag_13\n      jumpi\n      dup1\n      0xf5b944eb\n      eq\n      tag_14\n      jumpi\n      0x00\n      dup1\n      revert\n    tag_15:\n      dup1\n      0x01ffc9a7\n      eq\n      tag_3\n      jumpi\n      dup1\n      0x163e1d93\n      eq\n      tag_4\n      jumpi\n      dup1\n      0x248a9ca3\n      eq\n      tag_5\n      jumpi\n      dup1\n      0x2f2ff15d\n      eq\n      tag_6\n      jumpi\n      dup1\n      0x32626fa4\n      eq\n      tag_7\n      jumpi\n      dup1\n      0x36568abe\n      eq\n      tag_8\n      jumpi\n    tag_2:\n      0x00\n      dup1\n      revert\n        /* \"@openzeppelin/contracts/access/AccessControl.sol\":2565:2767  function supportsInterface(bytes4 interfaceId) public view virtual override returns (bool) {... */\n    tag_3:\n      tag_16\n      tag_17\n      calldatasize\n      0x04\n      tag_18\n      jump\t// in\n    tag_17:\n      tag_19\n      jump\t// in\n    tag_16:\n      mload(0x40)\n        /* \"#utility.yul\":470:484   */\n      swap1\n      iszero\n        /* \"#utility.yul\":463:485   */\n      iszero\n        /* \"#utility.yul\":445:486   */\n      dup2\n      mstore\n        /* \"#utility.yul\":433:435   */\n      0x20\n        /* \"#utility.yul\":418:436   */\n      add\n        /* \"@openzeppelin/contracts/access/AccessControl.sol\":2565:2767  function supportsInterface(bytes4 interfaceId) public view virtual override returns (bool) {... */\n    tag_20:\n      mload(0x40)\n      dup1\n      swap2\n      sub\n      swap1\n      return\n        /* \"eight/AccessControlTest.sol\":684:747  function normalThing() external onlyRole(ROLE_NORMAL){... */\n    tag_4:\n      tag_22\n      tag_23\n      jump\t// in\n    tag_22:\n      stop\n        /* \"@openzeppelin/contracts/access/AccessControl.sol\":3810:3930  function getRoleAdmin(bytes32 role) public view virtual returns (bytes32) {... */\n    tag_5:\n      tag_24\n      tag_25\n      calldatasize\n      0x04\n      tag_26\n      jump\t// in\n    tag_25:\n        /* \"@openzeppelin/contracts/access/AccessControl.sol\":3875:3882  bytes32 */\n      0x00\n        /* \"@openzeppelin/contracts/access/AccessControl.sol\":3901:3913  _roles[role] */\n      swap1\n      dup2\n      mstore\n      0x20\n      dup2\n      swap1\n      mstore\n      0x40\n      swap1\n      keccak256\n        /* \"@openzeppelin/contracts/access/AccessControl.sol\":3901:3923  _roles[role].adminRole */\n      0x01\n      add\n      sload\n      swap1\n        /* \"@openzeppelin/contracts/access/AccessControl.sol\":3810:3930  function getRoleAdmin(bytes32 role) public view virtual returns (bytes32) {... */\n      jump\n    tag_24:\n      mload(0x40)\n        /* \"#utility.yul\":874:899   */\n      swap1\n      dup2\n      mstore\n        /* \"#utility.yul\":862:864   */\n      0x20\n        /* \"#utility.yul\":847:865   */\n      add\n        /* \"@openzeppelin/contracts/access/AccessControl.sol\":3810:3930  function getRoleAdmin(bytes32 role) public view virtual returns (bytes32) {... */\n      tag_20\n        /* \"#utility.yul\":728:905   */\n      jump\n        /* \"@openzeppelin/contracts/access/AccessControl.sol\":4226:4362  function grantRole(bytes32 role, address account) public virtual onlyRole(getRoleAdmin(role)) {... */\n    tag_6:\n      tag_22\n      tag_31\n      calldatasize\n      0x04\n      tag_32\n      jump\t// in\n    tag_31:\n      tag_33\n      jump\t// in\n        /* \"eight/AccessControlTest.sol\":403:463  bytes32 public constant ROLE_NORMAL=keccak256(\"ROLE_NORMAL\") */\n    tag_7:\n      tag_24\n        /* \"eight/AccessControlTest.sol\":439:463  keccak256(\"ROLE_NORMAL\") */\n      0x9239fe0fd646153a83b04038454a247b09c766290904889b9cfb0fb5c868752a\n        /* \"eight/AccessControlTest.sol\":403:463  bytes32 public constant ROLE_NORMAL=keccak256(\"ROLE_NORMAL\") */\n      dup2\n      jump\n        /* \"@openzeppelin/contracts/access/AccessControl.sol\":5328:5573  function renounceRole(bytes32 role, address callerConfirmation) public virtual {... */\n    tag_8:\n      tag_22\n      tag_38\n      calldatasize\n      0x04\n      tag_32\n      jump\t// in\n    tag_38:\n      tag_39\n      jump\t// in\n        /* \"eight/AccessControlTest.sol\":755:819  function speciaThing() external onlyRole(ROLE_MANAGER){... */\n    tag_9:\n      tag_22\n      tag_41\n      jump\t// in\n        /* \"@openzeppelin/contracts/access/AccessControl.sol\":2854:2990  function hasRole(bytes32 role, address account) public view virtual returns (bool) {... */\n    tag_10:\n      tag_16\n      tag_43\n      calldatasize\n      0x04\n      tag_32\n      jump\t// in\n    tag_43:\n      tag_44\n      jump\t// in\n        /* \"@openzeppelin/contracts/access/AccessControl.sol\":2187:2236  bytes32 public constant DEFAULT_ADMIN_ROLE = 0x00 */\n    tag_11:\n      tag_24\n        /* \"@openzeppelin/contracts/access/AccessControl.sol\":2232:2236  0x00 */\n      0x00\n        /* \"@openzeppelin/contracts/access/AccessControl.sol\":2187:2236  bytes32 public constant DEFAULT_ADMIN_ROLE = 0x00 */\n      dup2\n      jump\n        /* \"eight/AccessControlTest.sol\":556:676  function setRoleAdmin() external onlyRole(DEFAULT_ADMIN_ROLE){... */\n    tag_12:\n      tag_22\n      tag_50\n      jump\t// in\n        /* \"@openzeppelin/contracts/access/AccessControl.sol\":4642:4780  function revokeRole(bytes32 role, address account) public virtual onlyRole(getRoleAdmin(role)) {... */\n    tag_13:\n      tag_22\n      tag_52\n      calldatasize\n      0x04\n      tag_32\n      jump\t// in\n    tag_52:\n      tag_53\n      jump\t// in\n        /* \"eight/AccessControlTest.sol\":332:396  bytes32 public constant ROLE_MANAGER = keccak256(\"ROLE_MANAGER\") */\n    tag_14:\n      tag_24\n        /* \"eight/AccessControlTest.sol\":371:396  keccak256(\"ROLE_MANAGER\") */\n      0xf206625bad3d9112d5609b8d356e6fbd514cd1f69980d4ce2b3e6e68e1789ace\n        /* \"eight/AccessControlTest.sol\":332:396  bytes32 public constant ROLE_MANAGER = keccak256(\"ROLE_MANAGER\") */\n      dup2\n      jump\n        /* \"@openzeppelin/contracts/access/AccessControl.sol\":2565:2767  function supportsInterface(bytes4 interfaceId) public view virtual override returns (bool) {... */\n    tag_19:\n        /* \"@openzeppelin/contracts/access/AccessControl.sol\":2650:2654  bool */\n      0x00\n      not(sub(shl(0xe0, 0x01), 0x01))\n        /* \"@openzeppelin/contracts/access/AccessControl.sol\":2673:2720  interfaceId == type(IAccessControl).interfaceId */\n      dup3\n      and\n      shl(0xe0, 0x7965db0b)\n      eq\n      dup1\n        /* \"@openzeppelin/contracts/access/AccessControl.sol\":2673:2760  interfaceId == type(IAccessControl).interfaceId || super.supportsInterface(interfaceId) */\n      tag_59\n      jumpi\n      pop\n      shl(0xe0, 0x01ffc9a7)\n      not(sub(shl(0xe0, 0x01), 0x01))\n        /* \"@openzeppelin/contracts/utils/introspection/ERC165.sol\":862:902  interfaceId == type(IERC165).interfaceId */\n      dup4\n      and\n      eq\n        /* \"@openzeppelin/contracts/access/AccessControl.sol\":2724:2760  super.supportsInterface(interfaceId) */\n    tag_59:\n        /* \"@openzeppelin/contracts/access/AccessControl.sol\":2666:2760  return interfaceId == type(IAccessControl).interfaceId || super.supportsInterface(interfaceId) */\n      swap3\n        /* \"@openzeppelin/contracts/access/AccessControl.sol\":2565:2767  function supportsInterface(bytes4 interfaceId) public view virtual override returns (bool) {... */\n      swap2\n      pop\n      pop\n      jump\t// out\n        /* \"eight/AccessControlTest.sol\":684:747  function normalThing() external onlyRole(ROLE_NORMAL){... */\n    tag_23:\n        /* \"eight/AccessControlTest.sol\":439:463  keccak256(\"ROLE_NORMAL\") */\n      0x9239fe0fd646153a83b04038454a247b09c766290904889b9cfb0fb5c868752a\n        /* \"@openzeppelin/contracts/access/AccessControl.sol\":2464:2480  _checkRole(role) */\n      tag_62\n        /* \"@openzeppelin/contracts/access/AccessControl.sol\":2475:2479  role */\n      dup2\n        /* \"@openzeppelin/contracts/access/AccessControl.sol\":2464:2474  _checkRole */\n      tag_63\n        /* \"@openzeppelin/contracts/access/AccessControl.sol\":2464:2480  _checkRole(role) */\n      jump\t// in\n    tag_62:\n        /* \"eight/AccessControlTest.sol\":684:747  function normalThing() external onlyRole(ROLE_NORMAL){... */\n      pop\n      jump\t// out\n        /* \"@openzeppelin/contracts/access/AccessControl.sol\":4226:4362  function grantRole(bytes32 role, address account) public virtual onlyRole(getRoleAdmin(role)) {... */\n    tag_33:\n        /* \"@openzeppelin/contracts/access/AccessControl.sol\":3875:3882  bytes32 */\n      0x00\n        /* \"@openzeppelin/contracts/access/AccessControl.sol\":3901:3913  _roles[role] */\n      dup3\n      dup2\n      mstore\n      0x20\n      dup2\n      swap1\n      mstore\n      0x40\n      swap1\n      keccak256\n        /* \"@openzeppelin/contracts/access/AccessControl.sol\":3901:3923  _roles[role].adminRole */\n      0x01\n      add\n      sload\n        /* \"@openzeppelin/contracts/access/AccessControl.sol\":2464:2480  _checkRole(role) */\n      tag_68\n        /* \"@openzeppelin/contracts/access/AccessControl.sol\":2475:2479  role */\n      dup2\n        /* \"@openzeppelin/contracts/access/AccessControl.sol\":2464:2474  _checkRole */\n      tag_63\n        /* \"@openzeppelin/contracts/access/AccessControl.sol\":2464:2480  _checkRole(role) */\n      jump\t// in\n    tag_68:\n        /* \"@openzeppelin/contracts/access/AccessControl.sol\":4330:4355  _grantRole(role, account) */\n      tag_70\n        /* \"@openzeppelin/contracts/access/AccessControl.sol\":4341:4345  role */\n      dup4\n        /* \"@openzeppelin/contracts/access/AccessControl.sol\":4347:4354  account */\n      dup4\n        /* \"@openzeppelin/contracts/access/AccessControl.sol\":4330:4340  _grantRole */\n      tag_71\n        /* \"@openzeppelin/contracts/access/AccessControl.sol\":4330:4355  _grantRole(role, account) */\n      jump\t// in\n    tag_70:\n      pop\n        /* \"@openzeppelin/contracts/access/AccessControl.sol\":4226:4362  function grantRole(bytes32 role, address account) public virtual onlyRole(getRoleAdmin(role)) {... */\n      pop\n      pop\n      pop\n      jump\t// out\n        /* \"@openzeppelin/contracts/access/AccessControl.sol\":5328:5573  function renounceRole(bytes32 role, address callerConfirmation) public virtual {... */\n    tag_39:\n      sub(shl(0xa0, 0x01), 0x01)\n        /* \"@openzeppelin/contracts/access/AccessControl.sol\":5421:5455  callerConfirmation != _msgSender() */\n      dup2\n      and\n        /* \"@openzeppelin/contracts/utils/Context.sol\":735:745  msg.sender */\n      caller\n        /* \"@openzeppelin/contracts/access/AccessControl.sol\":5421:5455  callerConfirmation != _msgSender() */\n      eq\n        /* \"@openzeppelin/contracts/access/AccessControl.sol\":5417:5519  if (callerConfirmation != _msgSender()) {... */\n      tag_75\n      jumpi\n        /* \"@openzeppelin/contracts/access/AccessControl.sol\":5478:5508  AccessControlBadConfirmation() */\n      mload(0x40)\n      shl(0xe1, 0x334bd919)\n      dup2\n      mstore\n      0x04\n      add\n      mload(0x40)\n      dup1\n      swap2\n      sub\n      swap1\n      revert\n        /* \"@openzeppelin/contracts/access/AccessControl.sol\":5417:5519  if (callerConfirmation != _msgSender()) {... */\n    tag_75:\n        /* \"@openzeppelin/contracts/access/AccessControl.sol\":5529:5566  _revokeRole(role, callerConfirmation) */\n      tag_76\n        /* \"@openzeppelin/contracts/access/AccessControl.sol\":5541:5545  role */\n      dup3\n        /* \"@openzeppelin/contracts/access/AccessControl.sol\":5547:5565  callerConfirmation */\n      dup3\n        /* \"@openzeppelin/contracts/access/AccessControl.sol\":5529:5540  _revokeRole */\n      tag_77\n        /* \"@openzeppelin/contracts/access/AccessControl.sol\":5529:5566  _revokeRole(role, callerConfirmation) */\n      jump\t// in\n    tag_76:\n      pop\n        /* \"@openzeppelin/contracts/access/AccessControl.sol\":5328:5573  function renounceRole(bytes32 role, address callerConfirmation) public virtual {... */\n      pop\n      pop\n      jump\t// out\n        /* \"eight/AccessControlTest.sol\":755:819  function speciaThing() external onlyRole(ROLE_MANAGER){... */\n    tag_41:\n        /* \"eight/AccessControlTest.sol\":371:396  keccak256(\"ROLE_MANAGER\") */\n      0xf206625bad3d9112d5609b8d356e6fbd514cd1f69980d4ce2b3e6e68e1789ace\n        /* \"@openzeppelin/contracts/access/AccessControl.sol\":2464:2480  _checkRole(role) */\n      tag_62\n        /* \"@openzeppelin/contracts/access/AccessControl.sol\":2475:2479  role */\n      dup2\n        /* \"@openzeppelin/contracts/access/AccessControl.sol\":2464:2474  _checkRole */\n      tag_63\n        /* \"@openzeppelin/contracts/access/AccessControl.sol\":2464:2480  _checkRole(role) */\n      jump\t// in\n        /* \"@openzeppelin/contracts/access/AccessControl.sol\":2854:2990  function hasRole(bytes32 role, address account) public view virtual returns (bool) {... */\n    tag_44:\n        /* \"@openzeppelin/contracts/access/AccessControl.sol\":2931:2935  bool */\n      0x00\n        /* \"@openzeppelin/contracts/access/AccessControl.sol\":2954:2966  _roles[role] */\n      swap2\n      dup3\n      mstore\n      0x20\n      dup3\n      dup2\n      mstore\n      0x40\n      dup1\n      dup5\n      keccak256\n      sub(shl(0xa0, 0x01), 0x01)\n        /* \"@openzeppelin/contracts/access/AccessControl.sol\":2954:2983  _roles[role].hasRole[account] */\n      swap4\n      swap1\n      swap4\n      and\n      dup5\n      mstore\n      swap2\n      swap1\n      mstore\n      swap1\n      keccak256\n      sload\n      0xff\n      and\n      swap1\n        /* \"@openzeppelin/contracts/access/AccessControl.sol\":2854:2990  function hasRole(bytes32 role, address account) public view virtual returns (bool) {... */\n      jump\t// out\n        /* \"eight/AccessControlTest.sol\":556:676  function setRoleAdmin() external onlyRole(DEFAULT_ADMIN_ROLE){... */\n    tag_50:\n        /* \"@openzeppelin/contracts/access/AccessControl.sol\":2232:2236  0x00 */\n      0x00\n        /* \"@openzeppelin/contracts/access/AccessControl.sol\":2464:2480  _checkRole(role) */\n      tag_83\n        /* \"@openzeppelin/contracts/access/AccessControl.sol\":2232:2236  0x00 */\n      dup2\n        /* \"@openzeppelin/contracts/access/AccessControl.sol\":2464:2474  _checkRole */\n      tag_63\n        /* \"@openzeppelin/contracts/access/AccessControl.sol\":2464:2480  _checkRole(role) */\n      jump\t// in\n    tag_83:\n        /* \"eight/AccessControlTest.sol\":628:668  _setRoleAdmin(ROLE_NORMAL, ROLE_MANAGER) */\n      tag_62\n        /* \"eight/AccessControlTest.sol\":439:463  keccak256(\"ROLE_NORMAL\") */\n      0x9239fe0fd646153a83b04038454a247b09c766290904889b9cfb0fb5c868752a\n        /* \"eight/AccessControlTest.sol\":371:396  keccak256(\"ROLE_MANAGER\") */\n      0xf206625bad3d9112d5609b8d356e6fbd514cd1f69980d4ce2b3e6e68e1789ace\n        /* \"eight/AccessControlTest.sol\":628:641  _setRoleAdmin */\n      tag_86\n        /* \"eight/AccessControlTest.sol\":628:668  _setRoleAdmin(ROLE_NORMAL, ROLE_MANAGER) */\n      jump\t// in\n        /* \"@openzeppelin/contracts/access/AccessControl.sol\":4642:4780  function revokeRole(bytes32 role, address account) public virtual onlyRole(getRoleAdmin(role)) {... */\n    tag_53:\n        /* \"@openzeppelin/contracts/access/AccessControl.sol\":3875:3882  bytes32 */\n      0x00\n        /* \"@openzeppelin/contracts/access/AccessControl.sol\":3901:3913  _roles[role] */\n      dup3\n      dup2\n      mstore\n      0x20\n      dup2\n      swap1\n      mstore\n      0x40\n      swap1\n      keccak256\n        /* \"@openzeppelin/contracts/access/AccessControl.sol\":3901:3923  _roles[role].adminRole */\n      0x01\n      add\n      sload\n        /* \"@openzeppelin/contracts/access/AccessControl.sol\":2464:2480  _checkRole(role) */\n      tag_89\n        /* \"@openzeppelin/contracts/access/AccessControl.sol\":2475:2479  role */\n      dup2\n        /* \"@openzeppelin/contracts/access/AccessControl.sol\":2464:2474  _checkRole */\n      tag_63\n        /* \"@openzeppelin/contracts/access/AccessControl.sol\":2464:2480  _checkRole(role) */\n      jump\t// in\n    tag_89:\n        /* \"@openzeppelin/contracts/access/AccessControl.sol\":4747:4773  _revokeRole(role, account) */\n      tag_70\n        /* \"@openzeppelin/contracts/access/AccessControl.sol\":4759:4763  role */\n      dup4\n        /* \"@openzeppelin/contracts/access/AccessControl.sol\":4765:4772  account */\n      dup4\n        /* \"@openzeppelin/contracts/access/AccessControl.sol\":4747:4758  _revokeRole */\n      tag_77\n        /* \"@openzeppelin/contracts/access/AccessControl.sol\":4747:4773  _revokeRole(role, account) */\n      jump\t// in\n        /* \"@openzeppelin/contracts/access/AccessControl.sol\":3199:3302  function _checkRole(bytes32 role) internal view virtual {... */\n    tag_63:\n        /* \"@openzeppelin/contracts/access/AccessControl.sol\":3265:3295  _checkRole(role, _msgSender()) */\n      tag_62\n        /* \"@openzeppelin/contracts/access/AccessControl.sol\":3276:3280  role */\n      dup2\n        /* \"@openzeppelin/contracts/utils/Context.sol\":735:745  msg.sender */\n      caller\n        /* \"@openzeppelin/contracts/access/AccessControl.sol\":3265:3275  _checkRole */\n      tag_96\n        /* \"@openzeppelin/contracts/access/AccessControl.sol\":3265:3295  _checkRole(role, _msgSender()) */\n      jump\t// in\n        /* \"@openzeppelin/contracts/access/AccessControl.sol\":6179:6495  function _grantRole(bytes32 role, address account) internal virtual returns (bool) {... */\n    tag_71:\n        /* \"@openzeppelin/contracts/access/AccessControl.sol\":6256:6260  bool */\n      0x00\n        /* \"@openzeppelin/contracts/access/AccessControl.sol\":6277:6299  hasRole(role, account) */\n      tag_98\n        /* \"@openzeppelin/contracts/access/AccessControl.sol\":6285:6289  role */\n      dup4\n        /* \"@openzeppelin/contracts/access/AccessControl.sol\":6291:6298  account */\n      dup4\n        /* \"@openzeppelin/contracts/access/AccessControl.sol\":6277:6284  hasRole */\n      tag_44\n        /* \"@openzeppelin/contracts/access/AccessControl.sol\":6277:6299  hasRole(role, account) */\n      jump\t// in\n    tag_98:\n        /* \"@openzeppelin/contracts/access/AccessControl.sol\":6272:6489  if (!hasRole(role, account)) {... */\n      tag_99\n      jumpi\n        /* \"@openzeppelin/contracts/access/AccessControl.sol\":6315:6321  _roles */\n      0x00\n        /* \"@openzeppelin/contracts/access/AccessControl.sol\":6315:6327  _roles[role] */\n      dup4\n      dup2\n      mstore\n      0x20\n      dup2\n      dup2\n      mstore\n      0x40\n      dup1\n      dup4\n      keccak256\n      sub(shl(0xa0, 0x01), 0x01)\n        /* \"@openzeppelin/contracts/access/AccessControl.sol\":6315:6344  _roles[role].hasRole[account] */\n      dup7\n      and\n      dup5\n      mstore\n      swap1\n      swap2\n      mstore\n      swap1\n      keccak256\n        /* \"@openzeppelin/contracts/access/AccessControl.sol\":6315:6351  _roles[role].hasRole[account] = true */\n      dup1\n      sload\n      not(0xff)\n      and\n        /* \"@openzeppelin/contracts/access/AccessControl.sol\":6347:6351  true */\n      0x01\n        /* \"@openzeppelin/contracts/access/AccessControl.sol\":6315:6351  _roles[role].hasRole[account] = true */\n      or\n      swap1\n      sstore\n        /* \"@openzeppelin/contracts/access/AccessControl.sol\":6397:6409  _msgSender() */\n      tag_100\n        /* \"@openzeppelin/contracts/utils/Context.sol\":735:745  msg.sender */\n      caller\n      swap1\n        /* \"@openzeppelin/contracts/utils/Context.sol\":656:752  function _msgSender() internal view virtual returns (address) {... */\n      jump\n        /* \"@openzeppelin/contracts/access/AccessControl.sol\":6397:6409  _msgSender() */\n    tag_100:\n      sub(shl(0xa0, 0x01), 0x01)\n        /* \"@openzeppelin/contracts/access/AccessControl.sol\":6370:6410  RoleGranted(role, account, _msgSender()) */\n      and\n        /* \"@openzeppelin/contracts/access/AccessControl.sol\":6388:6395  account */\n      dup3\n      sub(shl(0xa0, 0x01), 0x01)\n        /* \"@openzeppelin/contracts/access/AccessControl.sol\":6370:6410  RoleGranted(role, account, _msgSender()) */\n      and\n        /* \"@openzeppelin/contracts/access/AccessControl.sol\":6382:6386  role */\n      dup5\n        /* \"@openzeppelin/contracts/access/AccessControl.sol\":6370:6410  RoleGranted(role, account, _msgSender()) */\n      0x2f8788117e7eff1d82e926ec794901d17c78024a50270940304540a733656f0d\n      mload(0x40)\n      mload(0x40)\n      dup1\n      swap2\n      sub\n      swap1\n      log4\n      pop\n        /* \"@openzeppelin/contracts/access/AccessControl.sol\":6431:6435  true */\n      0x01\n        /* \"@openzeppelin/contracts/access/AccessControl.sol\":6424:6435  return true */\n      jump(tag_59)\n        /* \"@openzeppelin/contracts/access/AccessControl.sol\":6272:6489  if (!hasRole(role, account)) {... */\n    tag_99:\n      pop\n        /* \"@openzeppelin/contracts/access/AccessControl.sol\":6473:6478  false */\n      0x00\n        /* \"@openzeppelin/contracts/access/AccessControl.sol\":6466:6478  return false */\n      jump(tag_59)\n        /* \"@openzeppelin/contracts/access/AccessControl.sol\":6732:7049  function _revokeRole(bytes32 role, address account) internal virtual returns (bool) {... */\n    tag_77:\n        /* \"@openzeppelin/contracts/access/AccessControl.sol\":6810:6814  bool */\n      0x00\n        /* \"@openzeppelin/contracts/access/AccessControl.sol\":6830:6852  hasRole(role, account) */\n      tag_104\n        /* \"@openzeppelin/contracts/access/AccessControl.sol\":6838:6842  role */\n      dup4\n        /* \"@openzeppelin/contracts/access/AccessControl.sol\":6844:6851  account */\n      dup4\n        /* \"@openzeppelin/contracts/access/AccessControl.sol\":6830:6837  hasRole */\n      tag_44\n        /* \"@openzeppelin/contracts/access/AccessControl.sol\":6830:6852  hasRole(role, account) */\n      jump\t// in\n    tag_104:\n        /* \"@openzeppelin/contracts/access/AccessControl.sol\":6826:7043  if (hasRole(role, account)) {... */\n      iszero\n      tag_99\n      jumpi\n        /* \"@openzeppelin/contracts/access/AccessControl.sol\":6900:6905  false */\n      0x00\n        /* \"@openzeppelin/contracts/access/AccessControl.sol\":6868:6880  _roles[role] */\n      dup4\n      dup2\n      mstore\n      0x20\n      dup2\n      dup2\n      mstore\n      0x40\n      dup1\n      dup4\n      keccak256\n      sub(shl(0xa0, 0x01), 0x01)\n        /* \"@openzeppelin/contracts/access/AccessControl.sol\":6868:6897  _roles[role].hasRole[account] */\n      dup7\n      and\n      dup1\n      dup6\n      mstore\n      swap3\n      mstore\n      dup1\n      dup4\n      keccak256\n        /* \"@openzeppelin/contracts/access/AccessControl.sol\":6868:6905  _roles[role].hasRole[account] = false */\n      dup1\n      sload\n      not(0xff)\n      and\n      swap1\n      sstore\n        /* \"@openzeppelin/contracts/access/AccessControl.sol\":6924:6964  RoleRevoked(role, account, _msgSender()) */\n      mload\n        /* \"@openzeppelin/contracts/utils/Context.sol\":735:745  msg.sender */\n      caller\n      swap3\n        /* \"@openzeppelin/contracts/access/AccessControl.sol\":6868:6880  _roles[role] */\n      dup7\n      swap2\n        /* \"@openzeppelin/contracts/access/AccessControl.sol\":6924:6964  RoleRevoked(role, account, _msgSender()) */\n      0xf6391f5c32d9c69d2a47ea670b442974b53935d1edc7fd64eb21e047a839171b\n      swap2\n        /* \"@openzeppelin/contracts/access/AccessControl.sol\":6900:6905  false */\n      swap1\n        /* \"@openzeppelin/contracts/access/AccessControl.sol\":6924:6964  RoleRevoked(role, account, _msgSender()) */\n      log4\n      pop\n        /* \"@openzeppelin/contracts/access/AccessControl.sol\":6985:6989  true */\n      0x01\n        /* \"@openzeppelin/contracts/access/AccessControl.sol\":6978:6989  return true */\n      jump(tag_59)\n        /* \"@openzeppelin/contracts/access/AccessControl.sol\":5698:5945  function _setRoleAdmin(bytes32 role, bytes32 adminRole) internal virtual {... */\n    tag_86:\n        /* \"@openzeppelin/contracts/access/AccessControl.sol\":5781:5806  bytes32 previousAdminRole */\n      0x00\n        /* \"@openzeppelin/contracts/access/AccessControl.sol\":3901:3913  _roles[role] */\n      dup3\n      dup2\n      mstore\n      0x20\n      dup2\n      swap1\n      mstore\n      0x40\n      dup1\n      dup3\n      keccak256\n        /* \"@openzeppelin/contracts/access/AccessControl.sol\":3901:3923  _roles[role].adminRole */\n      0x01\n      add\n      dup1\n      sload\n        /* \"@openzeppelin/contracts/access/AccessControl.sol\":5837:5871  _roles[role].adminRole = adminRole */\n      swap1\n      dup5\n      swap1\n      sstore\n        /* \"@openzeppelin/contracts/access/AccessControl.sol\":5886:5938  RoleAdminChanged(role, previousAdminRole, adminRole) */\n      swap1\n      mload\n        /* \"@openzeppelin/contracts/access/AccessControl.sol\":3901:3923  _roles[role].adminRole */\n      swap1\n      swap2\n        /* \"@openzeppelin/contracts/access/AccessControl.sol\":5837:5871  _roles[role].adminRole = adminRole */\n      dup4\n      swap2\n        /* \"@openzeppelin/contracts/access/AccessControl.sol\":3901:3923  _roles[role].adminRole */\n      dup4\n      swap2\n        /* \"@openzeppelin/contracts/access/AccessControl.sol\":3901:3913  _roles[role] */\n      dup7\n      swap2\n        /* \"@openzeppelin/contracts/access/AccessControl.sol\":5886:5938  RoleAdminChanged(role, previousAdminRole, adminRole) */\n      0xbd79b86ffe0ab8e8776151514217cd7cacd52c909f66475c3af44e129f0b00ff\n      swap2\n        /* \"@openzeppelin/contracts/access/AccessControl.sol\":5781:5806  bytes32 previousAdminRole */\n      swap1\n        /* \"@openzeppelin/contracts/access/AccessControl.sol\":5886:5938  RoleAdminChanged(role, previousAdminRole, adminRole) */\n      log4\n        /* \"@openzeppelin/contracts/access/AccessControl.sol\":5771:5945  {... */\n      pop\n        /* \"@openzeppelin/contracts/access/AccessControl.sol\":5698:5945  function _setRoleAdmin(bytes32 role, bytes32 adminRole) internal virtual {... */\n      pop\n      pop\n      jump\t// out\n        /* \"@openzeppelin/contracts/access/AccessControl.sol\":3432:3629  function _checkRole(bytes32 role, address account) internal view virtual {... */\n    tag_96:\n        /* \"@openzeppelin/contracts/access/AccessControl.sol\":3520:3542  hasRole(role, account) */\n      tag_111\n        /* \"@openzeppelin/contracts/access/AccessControl.sol\":3528:3532  role */\n      dup3\n        /* \"@openzeppelin/contracts/access/AccessControl.sol\":3534:3541  account */\n      dup3\n        /* \"@openzeppelin/contracts/access/AccessControl.sol\":3520:3527  hasRole */\n      tag_44\n        /* \"@openzeppelin/contracts/access/AccessControl.sol\":3520:3542  hasRole(role, account) */\n      jump\t// in\n    tag_111:\n        /* \"@openzeppelin/contracts/access/AccessControl.sol\":3515:3623  if (!hasRole(role, account)) {... */\n      tag_112\n      jumpi\n        /* \"@openzeppelin/contracts/access/AccessControl.sol\":3565:3612  AccessControlUnauthorizedAccount(account, role) */\n      mload(0x40)\n      shl(0xe0, 0xe2517d3f)\n      dup2\n      mstore\n      sub(shl(0xa0, 0x01), 0x01)\n        /* \"#utility.yul\":1515:1547   */\n      dup3\n      and\n        /* \"@openzeppelin/contracts/access/AccessControl.sol\":3565:3612  AccessControlUnauthorizedAccount(account, role) */\n      0x04\n      dup3\n      add\n        /* \"#utility.yul\":1497:1548   */\n      mstore\n        /* \"#utility.yul\":1564:1582   */\n      0x24\n      dup2\n      add\n        /* \"#utility.yul\":1557:1591   */\n      dup4\n      swap1\n      mstore\n        /* \"#utility.yul\":1470:1488   */\n      0x44\n      add\n        /* \"@openzeppelin/contracts/access/AccessControl.sol\":3565:3612  AccessControlUnauthorizedAccount(account, role) */\n      mload(0x40)\n      dup1\n      swap2\n      sub\n      swap1\n      revert\n        /* \"@openzeppelin/contracts/access/AccessControl.sol\":3515:3623  if (!hasRole(role, account)) {... */\n    tag_112:\n        /* \"@openzeppelin/contracts/access/AccessControl.sol\":3432:3629  function _checkRole(bytes32 role, address account) internal view virtual {... */\n      pop\n      pop\n      jump\t// out\n        /* \"#utility.yul\":14:300   */\n    tag_18:\n        /* \"#utility.yul\":72:78   */\n      0x00\n        /* \"#utility.yul\":125:127   */\n      0x20\n        /* \"#utility.yul\":113:122   */\n      dup3\n        /* \"#utility.yul\":104:111   */\n      dup5\n        /* \"#utility.yul\":100:123   */\n      sub\n        /* \"#utility.yul\":96:128   */\n      slt\n        /* \"#utility.yul\":93:145   */\n      iszero\n      tag_117\n      jumpi\n        /* \"#utility.yul\":141:142   */\n      0x00\n        /* \"#utility.yul\":138:139   */\n      dup1\n        /* \"#utility.yul\":131:143   */\n      revert\n        /* \"#utility.yul\":93:145   */\n    tag_117:\n        /* \"#utility.yul\":167:190   */\n      dup2\n      calldataload\n      not(sub(shl(0xe0, 0x01), 0x01))\n        /* \"#utility.yul\":219:251   */\n      dup2\n      and\n        /* \"#utility.yul\":209:252   */\n      dup2\n      eq\n        /* \"#utility.yul\":199:270   */\n      tag_118\n      jumpi\n        /* \"#utility.yul\":266:267   */\n      0x00\n        /* \"#utility.yul\":263:264   */\n      dup1\n        /* \"#utility.yul\":256:268   */\n      revert\n        /* \"#utility.yul\":199:270   */\n    tag_118:\n        /* \"#utility.yul\":289:294   */\n      swap4\n        /* \"#utility.yul\":14:300   */\n      swap3\n      pop\n      pop\n      pop\n      jump\t// out\n        /* \"#utility.yul\":497:723   */\n    tag_26:\n        /* \"#utility.yul\":556:562   */\n      0x00\n        /* \"#utility.yul\":609:611   */\n      0x20\n        /* \"#utility.yul\":597:606   */\n      dup3\n        /* \"#utility.yul\":588:595   */\n      dup5\n        /* \"#utility.yul\":584:607   */\n      sub\n        /* \"#utility.yul\":580:612   */\n      slt\n        /* \"#utility.yul\":577:629   */\n      iszero\n      tag_121\n      jumpi\n        /* \"#utility.yul\":625:626   */\n      0x00\n        /* \"#utility.yul\":622:623   */\n      dup1\n        /* \"#utility.yul\":615:627   */\n      revert\n        /* \"#utility.yul\":577:629   */\n    tag_121:\n      pop\n        /* \"#utility.yul\":670:693   */\n      calldataload\n      swap2\n        /* \"#utility.yul\":497:723   */\n      swap1\n      pop\n      jump\t// out\n        /* \"#utility.yul\":910:1318   */\n    tag_32:\n        /* \"#utility.yul\":978:984   */\n      0x00\n        /* \"#utility.yul\":986:992   */\n      dup1\n        /* \"#utility.yul\":1039:1041   */\n      0x40\n        /* \"#utility.yul\":1027:1036   */\n      dup4\n        /* \"#utility.yul\":1018:1025   */\n      dup6\n        /* \"#utility.yul\":1014:1037   */\n      sub\n        /* \"#utility.yul\":1010:1042   */\n      slt\n        /* \"#utility.yul\":1007:1059   */\n      iszero\n      tag_124\n      jumpi\n        /* \"#utility.yul\":1055:1056   */\n      0x00\n        /* \"#utility.yul\":1052:1053   */\n      dup1\n        /* \"#utility.yul\":1045:1057   */\n      revert\n        /* \"#utility.yul\":1007:1059   */\n    tag_124:\n        /* \"#utility.yul\":1100:1123   */\n      dup3\n      calldataload\n      swap2\n      pop\n        /* \"#utility.yul\":1199:1201   */\n      0x20\n        /* \"#utility.yul\":1184:1202   */\n      dup4\n      add\n        /* \"#utility.yul\":1171:1203   */\n      calldataload\n      sub(shl(0xa0, 0x01), 0x01)\n        /* \"#utility.yul\":1234:1267   */\n      dup2\n      and\n        /* \"#utility.yul\":1222:1268   */\n      dup2\n      eq\n        /* \"#utility.yul\":1212:1286   */\n      tag_125\n      jumpi\n        /* \"#utility.yul\":1282:1283   */\n      0x00\n        /* \"#utility.yul\":1279:1280   */\n      dup1\n        /* \"#utility.yul\":1272:1284   */\n      revert\n        /* \"#utility.yul\":1212:1286   */\n    tag_125:\n        /* \"#utility.yul\":1305:1312   */\n      dup1\n        /* \"#utility.yul\":1295:1312   */\n      swap2\n      pop\n      pop\n        /* \"#utility.yul\":910:1318   */\n      swap3\n      pop\n      swap3\n      swap1\n      pop\n      jump\t// out\n\n    auxdata: 0xa2646970667358221220c76611259cffbd906e6f6503417f866c88236e1c6cc8339cee3d58122024d16864736f6c634300081a0033\n}\n",
				"bytecode": {
					"linkReferences": {},
					"object": "6080604052348015600e575f80fd5b5060175f33601c565b5060c2565b5f828152602081815260408083206001600160a01b038516845290915281205460ff1660b9575f838152602081815260408083206001600160a01b03861684529091529020805460ff1916600117905560723390565b6001600160a01b0316826001600160a01b0316847f2f8788117e7eff1d82e926ec794901d17c78024a50270940304540a733656f0d60405160405180910390a450600160bc565b505f5b92915050565b610598806100cf5f395ff3fe608060405234801561000f575f80fd5b50600436106100b1575f3560e01c80634f37bde91161006e5780634f37bde91461016457806391d148541461016c578063a217fddf1461017f578063c729dc0414610186578063d547741f1461018e578063f5b944eb146101a1575f80fd5b806301ffc9a7146100b5578063163e1d93146100dd578063248a9ca3146100e75780632f2ff15d1461011757806332626fa41461012a57806336568abe14610151575b5f80fd5b6100c86100c33660046104e4565b6101c8565b60405190151581526020015b60405180910390f35b6100e56101fe565b005b6101096100f5366004610512565b5f9081526020819052604090206001015490565b6040519081526020016100d4565b6100e5610125366004610529565b61022b565b6101097f9239fe0fd646153a83b04038454a247b09c766290904889b9cfb0fb5c868752a81565b6100e561015f366004610529565b610255565b6100e561028d565b6100c861017a366004610529565b6102b7565b6101095f81565b6100e56102df565b6100e561019c366004610529565b610333565b6101097ff206625bad3d9112d5609b8d356e6fbd514cd1f69980d4ce2b3e6e68e1789ace81565b5f6001600160e01b03198216637965db0b60e01b14806101f857506301ffc9a760e01b6001600160e01b03198316145b92915050565b7f9239fe0fd646153a83b04038454a247b09c766290904889b9cfb0fb5c868752a61022881610357565b50565b5f8281526020819052604090206001015461024581610357565b61024f8383610361565b50505050565b6001600160a01b038116331461027e5760405163334bd91960e11b815260040160405180910390fd5b61028882826103f0565b505050565b7ff206625bad3d9112d5609b8d356e6fbd514cd1f69980d4ce2b3e6e68e1789ace61022881610357565b5f918252602082815260408084206001600160a01b0393909316845291905290205460ff1690565b5f6102e981610357565b6102287f9239fe0fd646153a83b04038454a247b09c766290904889b9cfb0fb5c868752a7ff206625bad3d9112d5609b8d356e6fbd514cd1f69980d4ce2b3e6e68e1789ace610459565b5f8281526020819052604090206001015461034d81610357565b61024f83836103f0565b61022881336104a3565b5f61036c83836102b7565b6103e9575f838152602081815260408083206001600160a01b03861684529091529020805460ff191660011790556103a13390565b6001600160a01b0316826001600160a01b0316847f2f8788117e7eff1d82e926ec794901d17c78024a50270940304540a733656f0d60405160405180910390a45060016101f8565b505f6101f8565b5f6103fb83836102b7565b156103e9575f838152602081815260408083206001600160a01b0386168085529252808320805460ff1916905551339286917ff6391f5c32d9c69d2a47ea670b442974b53935d1edc7fd64eb21e047a839171b9190a45060016101f8565b5f82815260208190526040808220600101805490849055905190918391839186917fbd79b86ffe0ab8e8776151514217cd7cacd52c909f66475c3af44e129f0b00ff9190a4505050565b6104ad82826102b7565b6104e05760405163e2517d3f60e01b81526001600160a01b03821660048201526024810183905260440160405180910390fd5b5050565b5f602082840312156104f4575f80fd5b81356001600160e01b03198116811461050b575f80fd5b9392505050565b5f60208284031215610522575f80fd5b5035919050565b5f806040838503121561053a575f80fd5b8235915060208301356001600160a01b0381168114610557575f80fd5b80915050925092905056fea2646970667358221220c76611259cffbd906e6f6503417f866c88236e1c6cc8339cee3d58122024d16864736f6c634300081a0033",
					"opcodes": "PUSH1 0x80 PUSH1 0x40 MSTORE CALLVALUE DUP1 ISZERO PUSH1 0xE JUMPI PUSH0 DUP1 REVERT JUMPDEST POP PUSH1 0x17 PUSH0 CALLER PUSH1 0x1C JUMP JUMPDEST POP PUSH1 0xC2 JUMP JUMPDEST PUSH0 DUP3 DUP2 MSTORE PUSH1 0x20 DUP2 DUP2 MSTORE PUSH1 0x40 DUP1 DUP4 KECCAK256 PUSH1 0x1 PUSH1 0x1 PUSH1 0xA0 SHL SUB DUP6 AND DUP5 MSTORE SWAP1 SWAP2 MSTORE DUP2 KECCAK256 SLOAD PUSH1 0xFF AND PUSH1 0xB9 JUMPI PUSH0 DUP4 DUP2 MSTORE PUSH1 0x20 DUP2 DUP2 MSTORE PUSH1 0x40 DUP1 DUP4 KECCAK256 PUSH1 0x1 PUSH1 0x1 PUSH1 0xA0 SHL SUB DUP7 AND DUP5 MSTORE SWAP1 SWAP2 MSTORE SWAP1 KECCAK256 DUP1 SLOAD PUSH1 0xFF NOT AND PUSH1 0x1 OR SWAP1 SSTORE PUSH1 0x72 CALLER SWAP1 JUMP JUMPDEST PUSH1 0x1 PUSH1 0x1 PUSH1 0xA0 SHL SUB AND DUP3 PUSH1 0x1 PUSH1 0x1 PUSH1 0xA0 SHL SUB AND DUP5 PUSH32 0x2F8788117E7EFF1D82E926EC794901D17C78024A50270940304540A733656F0D PUSH1 0x40 MLOAD PUSH1 0x40 MLOAD DUP1 SWAP2 SUB SWAP1 LOG4 POP PUSH1 0x1 PUSH1 0xBC JUMP JUMPDEST POP PUSH0 JUMPDEST SWAP3 SWAP2 POP POP JUMP JUMPDEST PUSH2 0x598 DUP1 PUSH2 0xCF PUSH0 CODECOPY PUSH0 RETURN INVALID PUSH1 0x80 PUSH1 0x40 MSTORE CALLVALUE DUP1 ISZERO PUSH2 0xF JUMPI PUSH0 DUP1 REVERT JUMPDEST POP PUSH1 0x4 CALLDATASIZE LT PUSH2 0xB1 JUMPI PUSH0 CALLDATALOAD PUSH1 0xE0 SHR DUP1 PUSH4 0x4F37BDE9 GT PUSH2 0x6E JUMPI DUP1 PUSH4 0x4F37BDE9 EQ PUSH2 0x164 JUMPI DUP1 PUSH4 0x91D14854 EQ PUSH2 0x16C JUMPI DUP1 PUSH4 0xA217FDDF EQ PUSH2 0x17F JUMPI DUP1 PUSH4 0xC729DC04 EQ PUSH2 0x186 JUMPI DUP1 PUSH4 0xD547741F EQ PUSH2 0x18E JUMPI DUP1 PUSH4 0xF5B944EB EQ PUSH2 0x1A1 JUMPI PUSH0 DUP1 REVERT JUMPDEST DUP1 PUSH4 0x1FFC9A7 EQ PUSH2 0xB5 JUMPI DUP1 PUSH4 0x163E1D93 EQ PUSH2 0xDD JUMPI DUP1 PUSH4 0x248A9CA3 EQ PUSH2 0xE7 JUMPI DUP1 PUSH4 0x2F2FF15D EQ PUSH2 0x117 JUMPI DUP1 PUSH4 0x32626FA4 EQ PUSH2 0x12A JUMPI DUP1 PUSH4 0x36568ABE EQ PUSH2 0x151 JUMPI JUMPDEST PUSH0 DUP1 REVERT JUMPDEST PUSH2 0xC8 PUSH2 0xC3 CALLDATASIZE PUSH1 0x4 PUSH2 0x4E4 JUMP JUMPDEST PUSH2 0x1C8 JUMP JUMPDEST PUSH1 0x40 MLOAD SWAP1 ISZERO ISZERO DUP2 MSTORE PUSH1 0x20 ADD JUMPDEST PUSH1 0x40 MLOAD DUP1 SWAP2 SUB SWAP1 RETURN JUMPDEST PUSH2 0xE5 PUSH2 0x1FE JUMP JUMPDEST STOP JUMPDEST PUSH2 0x109 PUSH2 0xF5 CALLDATASIZE PUSH1 0x4 PUSH2 0x512 JUMP JUMPDEST PUSH0 SWAP1 DUP2 MSTORE PUSH1 0x20 DUP2 SWAP1 MSTORE PUSH1 0x40 SWAP1 KECCAK256 PUSH1 0x1 ADD SLOAD SWAP1 JUMP JUMPDEST PUSH1 0x40 MLOAD SWAP1 DUP2 MSTORE PUSH1 0x20 ADD PUSH2 0xD4 JUMP JUMPDEST PUSH2 0xE5 PUSH2 0x125 CALLDATASIZE PUSH1 0x4 PUSH2 0x529 JUMP JUMPDEST PUSH2 0x22B JUMP JUMPDEST PUSH2 0x109 PUSH32 0x9239FE0FD646153A83B04038454A247B09C766290904889B9CFB0FB5C868752A DUP2 JUMP JUMPDEST PUSH2 0xE5 PUSH2 0x15F CALLDATASIZE PUSH1 0x4 PUSH2 0x529 JUMP JUMPDEST PUSH2 0x255 JUMP JUMPDEST PUSH2 0xE5 PUSH2 0x28D JUMP JUMPDEST PUSH2 0xC8 PUSH2 0x17A CALLDATASIZE PUSH1 0x4 PUSH2 0x529 JUMP JUMPDEST PUSH2 0x2B7 JUMP JUMPDEST PUSH2 0x109 PUSH0 DUP2 JUMP JUMPDEST PUSH2 0xE5 PUSH2 0x2DF JUMP JUMPDEST PUSH2 0xE5 PUSH2 0x19C CALLDATASIZE PUSH1 0x4 PUSH2 0x529 JUMP JUMPDEST PUSH2 0x333 JUMP JUMPDEST PUSH2 0x109 PUSH32 0xF206625BAD3D9112D5609B8D356E6FBD514CD1F69980D4CE2B3E6E68E1789ACE DUP2 JUMP JUMPDEST PUSH0 PUSH1 0x1 PUSH1 0x1 PUSH1 0xE0 SHL SUB NOT DUP3 AND PUSH4 0x7965DB0B PUSH1 0xE0 SHL EQ DUP1 PUSH2 0x1F8 JUMPI POP PUSH4 0x1FFC9A7 PUSH1 0xE0 SHL PUSH1 0x1 PUSH1 0x1 PUSH1 0xE0 SHL SUB NOT DUP4 AND EQ JUMPDEST SWAP3 SWAP2 POP POP JUMP JUMPDEST PUSH32 0x9239FE0FD646153A83B04038454A247B09C766290904889B9CFB0FB5C868752A PUSH2 0x228 DUP2 PUSH2 0x357 JUMP JUMPDEST POP JUMP JUMPDEST PUSH0 DUP3 DUP2 MSTORE PUSH1 0x20 DUP2 SWAP1 MSTORE PUSH1 0x40 SWAP1 KECCAK256 PUSH1 0x1 ADD SLOAD PUSH2 0x245 DUP2 PUSH2 0x357 JUMP JUMPDEST PUSH2 0x24F DUP4 DUP4 PUSH2 0x361 JUMP JUMPDEST POP POP POP POP JUMP JUMPDEST PUSH1 0x1 PUSH1 0x1 PUSH1 0xA0 SHL SUB DUP2 AND CALLER EQ PUSH2 0x27E JUMPI PUSH1 0x40 MLOAD PUSH4 0x334BD919 PUSH1 0xE1 SHL DUP2 MSTORE PUSH1 0x4 ADD PUSH1 0x40 MLOAD DUP1 SWAP2 SUB SWAP1 REVERT JUMPDEST PUSH2 0x288 DUP3 DUP3 PUSH2 0x3F0 JUMP JUMPDEST POP POP POP JUMP JUMPDEST PUSH32 0xF206625BAD3D9112D5609B8D356E6FBD514CD1F69980D4CE2B3E6E68E1789ACE PUSH2 0x228 DUP2 PUSH2 0x357 JUMP JUMPDEST PUSH0 SWAP2 DUP3 MSTORE PUSH1 0x20 DUP3 DUP2 MSTORE PUSH1 0x40 DUP1 DUP5 KECCAK256 PUSH1 0x1 PUSH1 0x1 PUSH1 0xA0 SHL SUB SWAP4 SWAP1 SWAP4 AND DUP5 MSTORE SWAP2 SWAP1 MSTORE SWAP1 KECCAK256 SLOAD PUSH1 0xFF AND SWAP1 JUMP JUMPDEST PUSH0 PUSH2 0x2E9 DUP2 PUSH2 0x357 JUMP JUMPDEST PUSH2 0x228 PUSH32 0x9239FE0FD646153A83B04038454A247B09C766290904889B9CFB0FB5C868752A PUSH32 0xF206625BAD3D9112D5609B8D356E6FBD514CD1F69980D4CE2B3E6E68E1789ACE PUSH2 0x459 JUMP JUMPDEST PUSH0 DUP3 DUP2 MSTORE PUSH1 0x20 DUP2 SWAP1 MSTORE PUSH1 0x40 SWAP1 KECCAK256 PUSH1 0x1 ADD SLOAD PUSH2 0x34D DUP2 PUSH2 0x357 JUMP JUMPDEST PUSH2 0x24F DUP4 DUP4 PUSH2 0x3F0 JUMP JUMPDEST PUSH2 0x228 DUP2 CALLER PUSH2 0x4A3 JUMP JUMPDEST PUSH0 PUSH2 0x36C DUP4 DUP4 PUSH2 0x2B7 JUMP JUMPDEST PUSH2 0x3E9 JUMPI PUSH0 DUP4 DUP2 MSTORE PUSH1 0x20 DUP2 DUP2 MSTORE PUSH1 0x40 DUP1 DUP4 KECCAK256 PUSH1 0x1 PUSH1 0x1 PUSH1 0xA0 SHL SUB DUP7 AND DUP5 MSTORE SWAP1 SWAP2 MSTORE SWAP1 KECCAK256 DUP1 SLOAD PUSH1 0xFF NOT AND PUSH1 0x1 OR SWAP1 SSTORE PUSH2 0x3A1 CALLER SWAP1 JUMP JUMPDEST PUSH1 0x1 PUSH1 0x1 PUSH1 0xA0 SHL SUB AND DUP3 PUSH1 0x1 PUSH1 0x1 PUSH1 0xA0 SHL SUB AND DUP5 PUSH32 0x2F8788117E7EFF1D82E926EC794901D17C78024A50270940304540A733656F0D PUSH1 0x40 MLOAD PUSH1 0x40 MLOAD DUP1 SWAP2 SUB SWAP1 LOG4 POP PUSH1 0x1 PUSH2 0x1F8 JUMP JUMPDEST POP PUSH0 PUSH2 0x1F8 JUMP JUMPDEST PUSH0 PUSH2 0x3FB DUP4 DUP4 PUSH2 0x2B7 JUMP JUMPDEST ISZERO PUSH2 0x3E9 JUMPI PUSH0 DUP4 DUP2 MSTORE PUSH1 0x20 DUP2 DUP2 MSTORE PUSH1 0x40 DUP1 DUP4 KECCAK256 PUSH1 0x1 PUSH1 0x1 PUSH1 0xA0 SHL SUB DUP7 AND DUP1 DUP6 MSTORE SWAP3 MSTORE DUP1 DUP4 KECCAK256 DUP1 SLOAD PUSH1 0xFF NOT AND SWAP1 SSTORE MLOAD CALLER SWAP3 DUP7 SWAP2 PUSH32 0xF6391F5C32D9C69D2A47EA670B442974B53935D1EDC7FD64EB21E047A839171B SWAP2 SWAP1 LOG4 POP PUSH1 0x1 PUSH2 0x1F8 JUMP JUMPDEST PUSH0 DUP3 DUP2 MSTORE PUSH1 0x20 DUP2 SWAP1 MSTORE PUSH1 0x40 DUP1 DUP3 KECCAK256 PUSH1 0x1 ADD DUP1 SLOAD SWAP1 DUP5 SWAP1 SSTORE SWAP1 MLOAD SWAP1 SWAP2 DUP4 SWAP2 DUP4 SWAP2 DUP7 SWAP2 PUSH32 0xBD79B86FFE0AB8E8776151514217CD7CACD52C909F66475C3AF44E129F0B00FF SWAP2 SWAP1 LOG4 POP POP POP JUMP JUMPDEST PUSH2 0x4AD DUP3 DUP3 PUSH2 0x2B7 JUMP JUMPDEST PUSH2 0x4E0 JUMPI PUSH1 0x40 MLOAD PUSH4 0xE2517D3F PUSH1 0xE0 SHL DUP2 MSTORE PUSH1 0x1 PUSH1 0x1 PUSH1 0xA0 SHL SUB DUP3 AND PUSH1 0x4 DUP3 ADD MSTORE PUSH1 0x24 DUP2 ADD DUP4 SWAP1 MSTORE PUSH1 0x44 ADD PUSH1 0x40 MLOAD DUP1 SWAP2 SUB SWAP1 REVERT JUMPDEST POP POP JUMP JUMPDEST PUSH0 PUSH1 0x20 DUP3 DUP5 SUB SLT ISZERO PUSH2 0x4F4 JUMPI PUSH0 DUP1 REVERT JUMPDEST DUP2 CALLDATALOAD PUSH1 0x1 PUSH1 0x1 PUSH1 0xE0 SHL SUB NOT DUP2 AND DUP2 EQ PUSH2 0x50B JUMPI PUSH0 DUP1 REVERT JUMPDEST SWAP4 SWAP3 POP POP POP JUMP JUMPDEST PUSH0 PUSH1 0x20 DUP3 DUP5 SUB SLT ISZERO PUSH2 0x522 JUMPI PUSH0 DUP1 REVERT JUMPDEST POP CALLDATALOAD SWAP2 SWAP1 POP JUMP JUMPDEST PUSH0 DUP1 PUSH1 0x40 DUP4 DUP6 SUB SLT ISZERO PUSH2 0x53A JUMPI PUSH0 DUP1 REVERT JUMPDEST DUP3 CALLDATALOAD SWAP2 POP PUSH1 0x20 DUP4 ADD CALLDATALOAD PUSH1 0x1 PUSH1 0x1 PUSH1 0xA0 SHL SUB DUP2 AND DUP2 EQ PUSH2 0x557 JUMPI PUSH0 DUP1 REVERT JUMPDEST DUP1 SWAP2 POP POP SWAP3 POP SWAP3 SWAP1 POP JUMP INVALID LOG2 PUSH5 0x6970667358 0x22 SLT KECCAK256 0xC7 PUSH7 0x11259CFFBD906E PUSH16 0x6503417F866C88236E1C6CC8339CEE3D PC SLT KECCAK256 0x24 0xD1 PUSH9 0x64736F6C634300081A STOP CALLER "
				},
				"gasEstimates": {
					"creation": {
						"codeDepositCost": "286400",
						"executionCost": "29002",
						"totalCost": "315402"
					},
					"external": {
						"DEFAULT_ADMIN_ROLE()": "237",
						"ROLE_MANAGER()": "304",
						"ROLE_NORMAL()": "283",
						"getRoleAdmin(bytes32)": "2489",
						"grantRole(bytes32,address)": "infinite",
						"hasRole(bytes32,address)": "2640",
						"normalThing()": "infinite",
						"renounceRole(bytes32,address)": "29099",
						"revokeRole(bytes32,address)": "infinite",
						"setRoleAdmin()": "infinite",
						"speciaThing()": "infinite",
						"supportsInterface(bytes4)": "424"
					}
				},
				"methodIdentifiers": {
					"DEFAULT_ADMIN_ROLE()": "a217fddf",
					"ROLE_MANAGER()": "f5b944eb",
					"ROLE_NORMAL()": "32626fa4",
					"getRoleAdmin(bytes32)": "248a9ca3",
					"grantRole(bytes32,address)": "2f2ff15d",
					"hasRole(bytes32,address)": "91d14854",
					"normalThing()": "163e1d93",
					"renounceRole(bytes32,address)": "36568abe",
					"revokeRole(bytes32,address)": "d547741f",
					"setRoleAdmin()": "c729dc04",
					"speciaThing()": "4f37bde9",
					"supportsInterface(bytes4)": "01ffc9a7"
				}
			},
			"storageLayout": {
				"storage": [
					{
						"astId": 26,
						"contract": "eight/AccessControlTest.sol:AccessControlTest",
						"label": "_roles",
						"offset": 0,
						"slot": "0",
						"type": "t_mapping(t_bytes32,t_struct(RoleData)21_storage)"
					}
				],
				"types": {
					"t_address": {
						"encoding": "inplace",
						"label": "address",
						"numberOfBytes": "20"
					},
					"t_bool": {
						"encoding": "inplace",
						"label": "bool",
						"numberOfBytes": "1"
					},
					"t_bytes32": {
						"encoding": "inplace",
						"label": "bytes32",
						"numberOfBytes": "32"
					},
					"t_mapping(t_address,t_bool)": {
						"encoding": "mapping",
						"key": "t_address",
						"label": "mapping(address => bool)",
						"numberOfBytes": "32",
						"value": "t_bool"
					},
					"t_mapping(t_bytes32,t_struct(RoleData)21_storage)": {
						"encoding": "mapping",
						"key": "t_bytes32",
						"label": "mapping(bytes32 => struct AccessControl.RoleData)",
						"numberOfBytes": "32",
						"value": "t_struct(RoleData)21_storage"
					},
					"t_struct(RoleData)21_storage": {
						"encoding": "inplace",
						"label": "struct AccessControl.RoleData",
						"members": [
							{
								"astId": 18,
								"contract": "eight/AccessControlTest.sol:AccessControlTest",
								"label": "hasRole",
								"offset": 0,
								"slot": "0",
								"type": "t_mapping(t_address,t_bool)"
							},
							{
								"astId": 20,
								"contract": "eight/AccessControlTest.sol:AccessControlTest",
								"label": "adminRole",
								"offset": 0,
								"slot": "1",
								"type": "t_bytes32"
							}
						],
						"numberOfBytes": "64"
					}
				}
			},
			"userdoc": {
				"kind": "user",
				"methods": {},
				"version": 1
			}
		}
	}
}