{
	"data": {
		"bytecode": {
			"linkReferences": {},
			"object": "608060405234801561001057600080fd5b506104bb806100206000396000f3fe608060405234801561001057600080fd5b50600436106100575760003560e01c80634cc822151461005c57806354353f2f1461007157806366e41cb71461007957806371e5ee5f14610081578063f8a8fd6d146100a6575b600080fd5b61006f61006a3660046103ca565b6100ae565b005b61006f610194565b61006f6101e0565b61009461008f3660046103ca565b6102d1565b60405190815260200160405180910390f35b61006f6102f2565b60005481106100f85760405162461bcd60e51b81526020600482015260126024820152711a5b99195e081bdd5d081bd988189bdd5b9960721b604482015260640160405180910390fd5b805b600054610109906001906103fb565b81101561016957600061011d8260016103e3565b8154811061012d5761012d61046f565b90600052602060002001546000828154811061014b5761014b61046f565b6000918252602090912001558061016181610412565b9150506100fa565b50600080548061017b5761017b610459565b6001900381819060005260206000200160009055905550565b60408051606081018252600181526002602082015260039181018290526101be9160009190610365565b5060006001815481106101d3576101d361046f565b6000918252602082200155565b6040805160a08101825260018152600260208201526003918101919091526004606082015260056080820181905261021a91600091610365565b506000805461022b906001906103fb565b8154811061023b5761023b61046f565b9060005260206000200154600060028154811061025a5761025a61046f565b9060005260206000200181905550600080548061027957610279610459565b6001900381819060005260206000200160009055905560006002815481106102a3576102a361046f565b90600052602060002001546005146102bd576102bd61042d565b6000546004146102cf576102cf61042d565b565b600081815481106102e157600080fd5b600091825260209091200154905081565b6040805160a08101825260018152600260208201526003918101919091526004606082015260056080820181905261032c91600091610365565b5061033760026100ae565b600060028154811061034b5761034b61046f565b90600052602060002001546004146102cf576102cf61042d565b8280548282559060005260206000209081019282156103a5579160200282015b828111156103a5578251829060ff16905591602001919060010190610385565b506103b19291506103b5565b5090565b5b808211156103b157600081556001016103b6565b6000602082840312156103dc57600080fd5b5035919050565b600082198211156103f6576103f6610443565b500190565b60008282101561040d5761040d610443565b500390565b600060001982141561042657610426610443565b5060010190565b634e487b7160e01b600052600160045260246000fd5b634e487b7160e01b600052601160045260246000fd5b634e487b7160e01b600052603160045260246000fd5b634e487b7160e01b600052603260045260246000fdfea2646970667358221220fc344a245fcbaecf534131fde2d8ec9bf08e60926a1a3268989d4472120702b064736f6c63430008070033",
			"opcodes": "PUSH1 0x80 PUSH1 0x40 MSTORE CALLVALUE DUP1 ISZERO PUSH2 0x10 JUMPI PUSH1 0x0 DUP1 REVERT JUMPDEST POP PUSH2 0x4BB DUP1 PUSH2 0x20 PUSH1 0x0 CODECOPY PUSH1 0x0 RETURN INVALID PUSH1 0x80 PUSH1 0x40 MSTORE CALLVALUE DUP1 ISZERO PUSH2 0x10 JUMPI PUSH1 0x0 DUP1 REVERT JUMPDEST POP PUSH1 0x4 CALLDATASIZE LT PUSH2 0x57 JUMPI PUSH1 0x0 CALLDATALOAD PUSH1 0xE0 SHR DUP1 PUSH4 0x4CC82215 EQ PUSH2 0x5C JUMPI DUP1 PUSH4 0x54353F2F EQ PUSH2 0x71 JUMPI DUP1 PUSH4 0x66E41CB7 EQ PUSH2 0x79 JUMPI DUP1 PUSH4 0x71E5EE5F EQ PUSH2 0x81 JUMPI DUP1 PUSH4 0xF8A8FD6D EQ PUSH2 0xA6 JUMPI JUMPDEST PUSH1 0x0 DUP1 REVERT JUMPDEST PUSH2 0x6F PUSH2 0x6A CALLDATASIZE PUSH1 0x4 PUSH2 0x3CA JUMP JUMPDEST PUSH2 0xAE JUMP JUMPDEST STOP JUMPDEST PUSH2 0x6F PUSH2 0x194 JUMP JUMPDEST PUSH2 0x6F PUSH2 0x1E0 JUMP JUMPDEST PUSH2 0x94 PUSH2 0x8F CALLDATASIZE PUSH1 0x4 PUSH2 0x3CA JUMP JUMPDEST PUSH2 0x2D1 JUMP JUMPDEST PUSH1 0x40 MLOAD SWAP1 DUP2 MSTORE PUSH1 0x20 ADD PUSH1 0x40 MLOAD DUP1 SWAP2 SUB SWAP1 RETURN JUMPDEST PUSH2 0x6F PUSH2 0x2F2 JUMP JUMPDEST PUSH1 0x0 SLOAD DUP2 LT PUSH2 0xF8 JUMPI PUSH1 0x40 MLOAD PUSH3 0x461BCD PUSH1 0xE5 SHL DUP2 MSTORE PUSH1 0x20 PUSH1 0x4 DUP3 ADD MSTORE PUSH1 0x12 PUSH1 0x24 DUP3 ADD MSTORE PUSH18 0x1A5B99195E081BDD5D081BD988189BDD5B99 PUSH1 0x72 SHL PUSH1 0x44 DUP3 ADD MSTORE PUSH1 0x64 ADD PUSH1 0x40 MLOAD DUP1 SWAP2 SUB SWAP1 REVERT JUMPDEST DUP1 JUMPDEST PUSH1 0x0 SLOAD PUSH2 0x109 SWAP1 PUSH1 0x1 SWAP1 PUSH2 0x3FB JUMP JUMPDEST DUP2 LT ISZERO PUSH2 0x169 JUMPI PUSH1 0x0 PUSH2 0x11D DUP3 PUSH1 0x1 PUSH2 0x3E3 JUMP JUMPDEST DUP2 SLOAD DUP2 LT PUSH2 0x12D JUMPI PUSH2 0x12D PUSH2 0x46F JUMP JUMPDEST SWAP1 PUSH1 0x0 MSTORE PUSH1 0x20 PUSH1 0x0 KECCAK256 ADD SLOAD PUSH1 0x0 DUP3 DUP2 SLOAD DUP2 LT PUSH2 0x14B JUMPI PUSH2 0x14B PUSH2 0x46F JUMP JUMPDEST PUSH1 0x0 SWAP2 DUP3 MSTORE PUSH1 0x20 SWAP1 SWAP2 KECCAK256 ADD SSTORE DUP1 PUSH2 0x161 DUP2 PUSH2 0x412 JUMP JUMPDEST SWAP2 POP POP PUSH2 0xFA JUMP JUMPDEST POP PUSH1 0x0 DUP1 SLOAD DUP1 PUSH2 0x17B JUMPI PUSH2 0x17B PUSH2 0x459 JUMP JUMPDEST PUSH1 0x1 SWAP1 SUB DUP2 DUP2 SWAP1 PUSH1 0x0 MSTORE PUSH1 0x20 PUSH1 0x0 KECCAK256 ADD PUSH1 0x0 SWAP1 SSTORE SWAP1 SSTORE POP JUMP JUMPDEST PUSH1 0x40 DUP1 MLOAD PUSH1 0x60 DUP2 ADD DUP3 MSTORE PUSH1 0x1 DUP2 MSTORE PUSH1 0x2 PUSH1 0x20 DUP3 ADD MSTORE PUSH1 0x3 SWAP2 DUP2 ADD DUP3 SWAP1 MSTORE PUSH2 0x1BE SWAP2 PUSH1 0x0 SWAP2 SWAP1 PUSH2 0x365 JUMP JUMPDEST POP PUSH1 0x0 PUSH1 0x1 DUP2 SLOAD DUP2 LT PUSH2 0x1D3 JUMPI PUSH2 0x1D3 PUSH2 0x46F JUMP JUMPDEST PUSH1 0x0 SWAP2 DUP3 MSTORE PUSH1 0x20 DUP3 KECCAK256 ADD SSTORE JUMP JUMPDEST PUSH1 0x40 DUP1 MLOAD PUSH1 0xA0 DUP2 ADD DUP3 MSTORE PUSH1 0x1 DUP2 MSTORE PUSH1 0x2 PUSH1 0x20 DUP3 ADD MSTORE PUSH1 0x3 SWAP2 DUP2 ADD SWAP2 SWAP1 SWAP2 MSTORE PUSH1 0x4 PUSH1 0x60 DUP3 ADD MSTORE PUSH1 0x5 PUSH1 0x80 DUP3 ADD DUP2 SWAP1 MSTORE PUSH2 0x21A SWAP2 PUSH1 0x0 SWAP2 PUSH2 0x365 JUMP JUMPDEST POP PUSH1 0x0 DUP1 SLOAD PUSH2 0x22B SWAP1 PUSH1 0x1 SWAP1 PUSH2 0x3FB JUMP JUMPDEST DUP2 SLOAD DUP2 LT PUSH2 0x23B JUMPI PUSH2 0x23B PUSH2 0x46F JUMP JUMPDEST SWAP1 PUSH1 0x0 MSTORE PUSH1 0x20 PUSH1 0x0 KECCAK256 ADD SLOAD PUSH1 0x0 PUSH1 0x2 DUP2 SLOAD DUP2 LT PUSH2 0x25A JUMPI PUSH2 0x25A PUSH2 0x46F JUMP JUMPDEST SWAP1 PUSH1 0x0 MSTORE PUSH1 0x20 PUSH1 0x0 KECCAK256 ADD DUP2 SWAP1 SSTORE POP PUSH1 0x0 DUP1 SLOAD DUP1 PUSH2 0x279 JUMPI PUSH2 0x279 PUSH2 0x459 JUMP JUMPDEST PUSH1 0x1 SWAP1 SUB DUP2 DUP2 SWAP1 PUSH1 0x0 MSTORE PUSH1 0x20 PUSH1 0x0 KECCAK256 ADD PUSH1 0x0 SWAP1 SSTORE SWAP1 SSTORE PUSH1 0x0 PUSH1 0x2 DUP2 SLOAD DUP2 LT PUSH2 0x2A3 JUMPI PUSH2 0x2A3 PUSH2 0x46F JUMP JUMPDEST SWAP1 PUSH1 0x0 MSTORE PUSH1 0x20 PUSH1 0x0 KECCAK256 ADD SLOAD PUSH1 0x5 EQ PUSH2 0x2BD JUMPI PUSH2 0x2BD PUSH2 0x42D JUMP JUMPDEST PUSH1 0x0 SLOAD PUSH1 0x4 EQ PUSH2 0x2CF JUMPI PUSH2 0x2CF PUSH2 0x42D JUMP JUMPDEST JUMP JUMPDEST PUSH1 0x0 DUP2 DUP2 SLOAD DUP2 LT PUSH2 0x2E1 JUMPI PUSH1 0x0 DUP1 REVERT JUMPDEST PUSH1 0x0 SWAP2 DUP3 MSTORE PUSH1 0x20 SWAP1 SWAP2 KECCAK256 ADD SLOAD SWAP1 POP DUP2 JUMP JUMPDEST PUSH1 0x40 DUP1 MLOAD PUSH1 0xA0 DUP2 ADD DUP3 MSTORE PUSH1 0x1 DUP2 MSTORE PUSH1 0x2 PUSH1 0x20 DUP3 ADD MSTORE PUSH1 0x3 SWAP2 DUP2 ADD SWAP2 SWAP1 SWAP2 MSTORE PUSH1 0x4 PUSH1 0x60 DUP3 ADD MSTORE PUSH1 0x5 PUSH1 0x80 DUP3 ADD DUP2 SWAP1 MSTORE PUSH2 0x32C SWAP2 PUSH1 0x0 SWAP2 PUSH2 0x365 JUMP JUMPDEST POP PUSH2 0x337 PUSH1 0x2 PUSH2 0xAE JUMP JUMPDEST PUSH1 0x0 PUSH1 0x2 DUP2 SLOAD DUP2 LT PUSH2 0x34B JUMPI PUSH2 0x34B PUSH2 0x46F JUMP JUMPDEST SWAP1 PUSH1 0x0 MSTORE PUSH1 0x20 PUSH1 0x0 KECCAK256 ADD SLOAD PUSH1 0x4 EQ PUSH2 0x2CF JUMPI PUSH2 0x2CF PUSH2 0x42D JUMP JUMPDEST DUP3 DUP1 SLOAD DUP3 DUP3 SSTORE SWAP1 PUSH1 0x0 MSTORE PUSH1 0x20 PUSH1 0x0 KECCAK256 SWAP1 DUP2 ADD SWAP3 DUP3 ISZERO PUSH2 0x3A5 JUMPI SWAP2 PUSH1 0x20 MUL DUP3 ADD JUMPDEST DUP3 DUP2 GT ISZERO PUSH2 0x3A5 JUMPI DUP3 MLOAD DUP3 SWAP1 PUSH1 0xFF AND SWAP1 SSTORE SWAP2 PUSH1 0x20 ADD SWAP2 SWAP1 PUSH1 0x1 ADD SWAP1 PUSH2 0x385 JUMP JUMPDEST POP PUSH2 0x3B1 SWAP3 SWAP2 POP PUSH2 0x3B5 JUMP JUMPDEST POP SWAP1 JUMP JUMPDEST JUMPDEST DUP1 DUP3 GT ISZERO PUSH2 0x3B1 JUMPI PUSH1 0x0 DUP2 SSTORE PUSH1 0x1 ADD PUSH2 0x3B6 JUMP JUMPDEST PUSH1 0x0 PUSH1 0x20 DUP3 DUP5 SUB SLT ISZERO PUSH2 0x3DC JUMPI PUSH1 0x0 DUP1 REVERT JUMPDEST POP CALLDATALOAD SWAP2 SWAP1 POP JUMP JUMPDEST PUSH1 0x0 DUP3 NOT DUP3 GT ISZERO PUSH2 0x3F6 JUMPI PUSH2 0x3F6 PUSH2 0x443 JUMP JUMPDEST POP ADD SWAP1 JUMP JUMPDEST PUSH1 0x0 DUP3 DUP3 LT ISZERO PUSH2 0x40D JUMPI PUSH2 0x40D PUSH2 0x443 JUMP JUMPDEST POP SUB SWAP1 JUMP JUMPDEST PUSH1 0x0 PUSH1 0x0 NOT DUP3 EQ ISZERO PUSH2 0x426 JUMPI PUSH2 0x426 PUSH2 0x443 JUMP JUMPDEST POP PUSH1 0x1 ADD SWAP1 JUMP JUMPDEST PUSH4 0x4E487B71 PUSH1 0xE0 SHL PUSH1 0x0 MSTORE PUSH1 0x1 PUSH1 0x4 MSTORE PUSH1 0x24 PUSH1 0x0 REVERT JUMPDEST PUSH4 0x4E487B71 PUSH1 0xE0 SHL PUSH1 0x0 MSTORE PUSH1 0x11 PUSH1 0x4 MSTORE PUSH1 0x24 PUSH1 0x0 REVERT JUMPDEST PUSH4 0x4E487B71 PUSH1 0xE0 SHL PUSH1 0x0 MSTORE PUSH1 0x31 PUSH1 0x4 MSTORE PUSH1 0x24 PUSH1 0x0 REVERT JUMPDEST PUSH4 0x4E487B71 PUSH1 0xE0 SHL PUSH1 0x0 MSTORE PUSH1 0x32 PUSH1 0x4 MSTORE PUSH1 0x24 PUSH1 0x0 REVERT INVALID LOG2 PUSH5 0x6970667358 0x22 SLT KECCAK256 0xFC CALLVALUE 0x4A 0x24 0x5F 0xCB 0xAE 0xCF MSTORE8 COINBASE BALANCE REVERT 0xE2 0xD8 0xEC SWAP12 CREATE DUP15 PUSH1 0x92 PUSH11 0x1A3268989D4472120702B0 PUSH5 0x736F6C6343 STOP ADDMOD SMOD STOP CALLER "
		},
		"gasEstimates": {
			"creation": {
				"codeDepositCost": "242200",
				"executionCost": "281",
				"totalCost": "242481"
			},
			"external": {
				"arr(uint256)": "4607",
				"example()": "infinite",
				"remove(uint256)": "infinite",
				"test()": "infinite",
				"test2()": "infinite"
			}
		},
		"methodIdentifiers": {
			"arr(uint256)": "71e5ee5f",
			"example()": "54353f2f",
			"remove(uint256)": "4cc82215",
			"test()": "f8a8fd6d",
			"test2()": "66e41cb7"
		}
	},
	"abi": [
		{
			"inputs": [
				{
					"internalType": "uint256",
					"name": "",
					"type": "uint256"
				}
			],
			"name": "arr",
			"outputs": [
				{
					"internalType": "uint256",
					"name": "",
					"type": "uint256"
				}
			],
			"stateMutability": "view",
			"type": "function"
		},
		{
			"inputs": [],
			"name": "example",
			"outputs": [],
			"stateMutability": "nonpayable",
			"type": "function"
		},
		{
			"inputs": [
				{
					"internalType": "uint256",
					"name": "_index",
					"type": "uint256"
				}
			],
			"name": "remove",
			"outputs": [],
			"stateMutability": "nonpayable",
			"type": "function"
		},
		{
			"inputs": [],
			"name": "test",
			"outputs": [],
			"stateMutability": "nonpayable",
			"type": "function"
		},
		{
			"inputs": [],
			"name": "test2",
			"outputs": [],
			"stateMutability": "nonpayable",
			"type": "function"
		}
	]
}