{
	"data": {
		"bytecode": {
			"linkReferences": {},
			"object": "608060405234801561000f575f80fd5b5061045f8061001d5f395ff3fe608060405234801561000f575f80fd5b5060043610610055575f3560e01c80634cc822151461005957806354353f2f1461006e57806366e41cb71461007657806371e5ee5f1461007e578063f8a8fd6d146100a3575b5f80fd5b61006c610067366004610396565b6100ab565b005b61006c61017c565b61006c6101c5565b61009161008c366004610396565b6102a7565b60405190815260200160405180910390f35b61006c6102c5565b5f5481106100f45760405162461bcd60e51b81526020600482015260126024820152711a5b99195e081bdd5d081bd988189bdd5b9960721b604482015260640160405180910390fd5b805b5f54610104906001906103c1565b811015610155575f6101178260016103da565b81548110610127576101276103ed565b905f5260205f2001545f8281548110610142576101426103ed565b5f918252602090912001556001016100f6565b505f80548061016657610166610401565b600190038181905f5260205f20015f9055905550565b60408051606081018252600181526002602082015260039181018290526101a5915f9190610334565b505f6001815481106101b9576101b96103ed565b5f918252602082200155565b6040805160a0810182526001815260026020820152600391810191909152600460608201526005608082018190526101fe915f91610334565b505f805461020e906001906103c1565b8154811061021e5761021e6103ed565b905f5260205f2001545f60028154811061023a5761023a6103ed565b905f5260205f2001819055505f80548061025657610256610401565b600190038181905f5260205f20015f905590555f60028154811061027c5761027c6103ed565b905f5260205f20015460051461029457610294610415565b5f546004146102a5576102a5610415565b565b5f81815481106102b5575f80fd5b5f91825260209091200154905081565b6040805160a0810182526001815260026020820152600391810191909152600460608201526005608082018190526102fe915f91610334565b5061030960026100ab565b5f60028154811061031c5761031c6103ed565b905f5260205f2001546004146102a5576102a5610415565b828054828255905f5260205f20908101928215610372579160200282015b82811115610372578251829060ff16905591602001919060010190610352565b5061037e929150610382565b5090565b5b8082111561037e575f8155600101610383565b5f602082840312156103a6575f80fd5b5035919050565b634e487b7160e01b5f52601160045260245ffd5b818103818111156103d4576103d46103ad565b92915050565b808201808211156103d4576103d46103ad565b634e487b7160e01b5f52603260045260245ffd5b634e487b7160e01b5f52603160045260245ffd5b634e487b7160e01b5f52600160045260245ffdfea26469706673582212201cf606ef0d967aee6d570f31c45b167c11069faadec8401ccbcfae986809667364736f6c63430008170033",
			"opcodes": "PUSH1 0x80 PUSH1 0x40 MSTORE CALLVALUE DUP1 ISZERO PUSH2 0xF JUMPI PUSH0 DUP1 REVERT JUMPDEST POP PUSH2 0x45F DUP1 PUSH2 0x1D PUSH0 CODECOPY PUSH0 RETURN INVALID PUSH1 0x80 PUSH1 0x40 MSTORE CALLVALUE DUP1 ISZERO PUSH2 0xF JUMPI PUSH0 DUP1 REVERT JUMPDEST POP PUSH1 0x4 CALLDATASIZE LT PUSH2 0x55 JUMPI PUSH0 CALLDATALOAD PUSH1 0xE0 SHR DUP1 PUSH4 0x4CC82215 EQ PUSH2 0x59 JUMPI DUP1 PUSH4 0x54353F2F EQ PUSH2 0x6E JUMPI DUP1 PUSH4 0x66E41CB7 EQ PUSH2 0x76 JUMPI DUP1 PUSH4 0x71E5EE5F EQ PUSH2 0x7E JUMPI DUP1 PUSH4 0xF8A8FD6D EQ PUSH2 0xA3 JUMPI JUMPDEST PUSH0 DUP1 REVERT JUMPDEST PUSH2 0x6C PUSH2 0x67 CALLDATASIZE PUSH1 0x4 PUSH2 0x396 JUMP JUMPDEST PUSH2 0xAB JUMP JUMPDEST STOP JUMPDEST PUSH2 0x6C PUSH2 0x17C JUMP JUMPDEST PUSH2 0x6C PUSH2 0x1C5 JUMP JUMPDEST PUSH2 0x91 PUSH2 0x8C CALLDATASIZE PUSH1 0x4 PUSH2 0x396 JUMP JUMPDEST PUSH2 0x2A7 JUMP JUMPDEST PUSH1 0x40 MLOAD SWAP1 DUP2 MSTORE PUSH1 0x20 ADD PUSH1 0x40 MLOAD DUP1 SWAP2 SUB SWAP1 RETURN JUMPDEST PUSH2 0x6C PUSH2 0x2C5 JUMP JUMPDEST PUSH0 SLOAD DUP2 LT PUSH2 0xF4 JUMPI PUSH1 0x40 MLOAD PUSH3 0x461BCD PUSH1 0xE5 SHL DUP2 MSTORE PUSH1 0x20 PUSH1 0x4 DUP3 ADD MSTORE PUSH1 0x12 PUSH1 0x24 DUP3 ADD MSTORE PUSH18 0x1A5B99195E081BDD5D081BD988189BDD5B99 PUSH1 0x72 SHL PUSH1 0x44 DUP3 ADD MSTORE PUSH1 0x64 ADD PUSH1 0x40 MLOAD DUP1 SWAP2 SUB SWAP1 REVERT JUMPDEST DUP1 JUMPDEST PUSH0 SLOAD PUSH2 0x104 SWAP1 PUSH1 0x1 SWAP1 PUSH2 0x3C1 JUMP JUMPDEST DUP2 LT ISZERO PUSH2 0x155 JUMPI PUSH0 PUSH2 0x117 DUP3 PUSH1 0x1 PUSH2 0x3DA JUMP JUMPDEST DUP2 SLOAD DUP2 LT PUSH2 0x127 JUMPI PUSH2 0x127 PUSH2 0x3ED JUMP JUMPDEST SWAP1 PUSH0 MSTORE PUSH1 0x20 PUSH0 KECCAK256 ADD SLOAD PUSH0 DUP3 DUP2 SLOAD DUP2 LT PUSH2 0x142 JUMPI PUSH2 0x142 PUSH2 0x3ED JUMP JUMPDEST PUSH0 SWAP2 DUP3 MSTORE PUSH1 0x20 SWAP1 SWAP2 KECCAK256 ADD SSTORE PUSH1 0x1 ADD PUSH2 0xF6 JUMP JUMPDEST POP PUSH0 DUP1 SLOAD DUP1 PUSH2 0x166 JUMPI PUSH2 0x166 PUSH2 0x401 JUMP JUMPDEST PUSH1 0x1 SWAP1 SUB DUP2 DUP2 SWAP1 PUSH0 MSTORE PUSH1 0x20 PUSH0 KECCAK256 ADD PUSH0 SWAP1 SSTORE SWAP1 SSTORE POP JUMP JUMPDEST PUSH1 0x40 DUP1 MLOAD PUSH1 0x60 DUP2 ADD DUP3 MSTORE PUSH1 0x1 DUP2 MSTORE PUSH1 0x2 PUSH1 0x20 DUP3 ADD MSTORE PUSH1 0x3 SWAP2 DUP2 ADD DUP3 SWAP1 MSTORE PUSH2 0x1A5 SWAP2 PUSH0 SWAP2 SWAP1 PUSH2 0x334 JUMP JUMPDEST POP PUSH0 PUSH1 0x1 DUP2 SLOAD DUP2 LT PUSH2 0x1B9 JUMPI PUSH2 0x1B9 PUSH2 0x3ED JUMP JUMPDEST PUSH0 SWAP2 DUP3 MSTORE PUSH1 0x20 DUP3 KECCAK256 ADD SSTORE JUMP JUMPDEST PUSH1 0x40 DUP1 MLOAD PUSH1 0xA0 DUP2 ADD DUP3 MSTORE PUSH1 0x1 DUP2 MSTORE PUSH1 0x2 PUSH1 0x20 DUP3 ADD MSTORE PUSH1 0x3 SWAP2 DUP2 ADD SWAP2 SWAP1 SWAP2 MSTORE PUSH1 0x4 PUSH1 0x60 DUP3 ADD MSTORE PUSH1 0x5 PUSH1 0x80 DUP3 ADD DUP2 SWAP1 MSTORE PUSH2 0x1FE SWAP2 PUSH0 SWAP2 PUSH2 0x334 JUMP JUMPDEST POP PUSH0 DUP1 SLOAD PUSH2 0x20E SWAP1 PUSH1 0x1 SWAP1 PUSH2 0x3C1 JUMP JUMPDEST DUP2 SLOAD DUP2 LT PUSH2 0x21E JUMPI PUSH2 0x21E PUSH2 0x3ED JUMP JUMPDEST SWAP1 PUSH0 MSTORE PUSH1 0x20 PUSH0 KECCAK256 ADD SLOAD PUSH0 PUSH1 0x2 DUP2 SLOAD DUP2 LT PUSH2 0x23A JUMPI PUSH2 0x23A PUSH2 0x3ED JUMP JUMPDEST SWAP1 PUSH0 MSTORE PUSH1 0x20 PUSH0 KECCAK256 ADD DUP2 SWAP1 SSTORE POP PUSH0 DUP1 SLOAD DUP1 PUSH2 0x256 JUMPI PUSH2 0x256 PUSH2 0x401 JUMP JUMPDEST PUSH1 0x1 SWAP1 SUB DUP2 DUP2 SWAP1 PUSH0 MSTORE PUSH1 0x20 PUSH0 KECCAK256 ADD PUSH0 SWAP1 SSTORE SWAP1 SSTORE PUSH0 PUSH1 0x2 DUP2 SLOAD DUP2 LT PUSH2 0x27C JUMPI PUSH2 0x27C PUSH2 0x3ED JUMP JUMPDEST SWAP1 PUSH0 MSTORE PUSH1 0x20 PUSH0 KECCAK256 ADD SLOAD PUSH1 0x5 EQ PUSH2 0x294 JUMPI PUSH2 0x294 PUSH2 0x415 JUMP JUMPDEST PUSH0 SLOAD PUSH1 0x4 EQ PUSH2 0x2A5 JUMPI PUSH2 0x2A5 PUSH2 0x415 JUMP JUMPDEST JUMP JUMPDEST PUSH0 DUP2 DUP2 SLOAD DUP2 LT PUSH2 0x2B5 JUMPI PUSH0 DUP1 REVERT JUMPDEST PUSH0 SWAP2 DUP3 MSTORE PUSH1 0x20 SWAP1 SWAP2 KECCAK256 ADD SLOAD SWAP1 POP DUP2 JUMP JUMPDEST PUSH1 0x40 DUP1 MLOAD PUSH1 0xA0 DUP2 ADD DUP3 MSTORE PUSH1 0x1 DUP2 MSTORE PUSH1 0x2 PUSH1 0x20 DUP3 ADD MSTORE PUSH1 0x3 SWAP2 DUP2 ADD SWAP2 SWAP1 SWAP2 MSTORE PUSH1 0x4 PUSH1 0x60 DUP3 ADD MSTORE PUSH1 0x5 PUSH1 0x80 DUP3 ADD DUP2 SWAP1 MSTORE PUSH2 0x2FE SWAP2 PUSH0 SWAP2 PUSH2 0x334 JUMP JUMPDEST POP PUSH2 0x309 PUSH1 0x2 PUSH2 0xAB JUMP JUMPDEST PUSH0 PUSH1 0x2 DUP2 SLOAD DUP2 LT PUSH2 0x31C JUMPI PUSH2 0x31C PUSH2 0x3ED JUMP JUMPDEST SWAP1 PUSH0 MSTORE PUSH1 0x20 PUSH0 KECCAK256 ADD SLOAD PUSH1 0x4 EQ PUSH2 0x2A5 JUMPI PUSH2 0x2A5 PUSH2 0x415 JUMP JUMPDEST DUP3 DUP1 SLOAD DUP3 DUP3 SSTORE SWAP1 PUSH0 MSTORE PUSH1 0x20 PUSH0 KECCAK256 SWAP1 DUP2 ADD SWAP3 DUP3 ISZERO PUSH2 0x372 JUMPI SWAP2 PUSH1 0x20 MUL DUP3 ADD JUMPDEST DUP3 DUP2 GT ISZERO PUSH2 0x372 JUMPI DUP3 MLOAD DUP3 SWAP1 PUSH1 0xFF AND SWAP1 SSTORE SWAP2 PUSH1 0x20 ADD SWAP2 SWAP1 PUSH1 0x1 ADD SWAP1 PUSH2 0x352 JUMP JUMPDEST POP PUSH2 0x37E SWAP3 SWAP2 POP PUSH2 0x382 JUMP JUMPDEST POP SWAP1 JUMP JUMPDEST JUMPDEST DUP1 DUP3 GT ISZERO PUSH2 0x37E JUMPI PUSH0 DUP2 SSTORE PUSH1 0x1 ADD PUSH2 0x383 JUMP JUMPDEST PUSH0 PUSH1 0x20 DUP3 DUP5 SUB SLT ISZERO PUSH2 0x3A6 JUMPI PUSH0 DUP1 REVERT JUMPDEST POP CALLDATALOAD SWAP2 SWAP1 POP JUMP JUMPDEST PUSH4 0x4E487B71 PUSH1 0xE0 SHL PUSH0 MSTORE PUSH1 0x11 PUSH1 0x4 MSTORE PUSH1 0x24 PUSH0 REVERT JUMPDEST DUP2 DUP2 SUB DUP2 DUP2 GT ISZERO PUSH2 0x3D4 JUMPI PUSH2 0x3D4 PUSH2 0x3AD JUMP JUMPDEST SWAP3 SWAP2 POP POP JUMP JUMPDEST DUP1 DUP3 ADD DUP1 DUP3 GT ISZERO PUSH2 0x3D4 JUMPI PUSH2 0x3D4 PUSH2 0x3AD JUMP JUMPDEST PUSH4 0x4E487B71 PUSH1 0xE0 SHL PUSH0 MSTORE PUSH1 0x32 PUSH1 0x4 MSTORE PUSH1 0x24 PUSH0 REVERT JUMPDEST PUSH4 0x4E487B71 PUSH1 0xE0 SHL PUSH0 MSTORE PUSH1 0x31 PUSH1 0x4 MSTORE PUSH1 0x24 PUSH0 REVERT JUMPDEST PUSH4 0x4E487B71 PUSH1 0xE0 SHL PUSH0 MSTORE PUSH1 0x1 PUSH1 0x4 MSTORE PUSH1 0x24 PUSH0 REVERT INVALID LOG2 PUSH5 0x6970667358 0x22 SLT KECCAK256 SHR 0xF6 MOD 0xEF 0xD SWAP7 PUSH27 0xEE6D570F31C45B167C11069FAADEC8401CCBCFAE98680966736473 PUSH16 0x6C634300081700330000000000000000 "
		},
		"gasEstimates": {
			"creation": {
				"codeDepositCost": "223800",
				"executionCost": "261",
				"totalCost": "224061"
			},
			"external": {
				"arr(uint256)": "4603",
				"example()": "infinite",
				"remove(uint256)": "infinite",
				"test()": "infinite",
				"test2()": "infinite"
			}
		},
		"methodIdentifiers": {
			"arr(uint256)": "71e5ee5f",
			"example()": "54353f2f",
			"remove(uint256)": "4cc82215",
			"test()": "f8a8fd6d",
			"test2()": "66e41cb7"
		}
	},
	"abi": [
		{
			"inputs": [
				{
					"internalType": "uint256",
					"name": "",
					"type": "uint256"
				}
			],
			"name": "arr",
			"outputs": [
				{
					"internalType": "uint256",
					"name": "",
					"type": "uint256"
				}
			],
			"stateMutability": "view",
			"type": "function"
		},
		{
			"inputs": [],
			"name": "example",
			"outputs": [],
			"stateMutability": "nonpayable",
			"type": "function"
		},
		{
			"inputs": [
				{
					"internalType": "uint256",
					"name": "_index",
					"type": "uint256"
				}
			],
			"name": "remove",
			"outputs": [],
			"stateMutability": "nonpayable",
			"type": "function"
		},
		{
			"inputs": [],
			"name": "test",
			"outputs": [],
			"stateMutability": "nonpayable",
			"type": "function"
		},
		{
			"inputs": [],
			"name": "test2",
			"outputs": [],
			"stateMutability": "nonpayable",
			"type": "function"
		}
	]
}