{
	"data": {
		"bytecode": {
			"linkReferences": {},
			"object": "6080604052607b5f553480156012575f5ffd5b50610226806100205f395ff3fe608060405234801561000f575f5ffd5b5060043610610060575f3560e01c80632098776714610064578063246ce3f9146100795780634db529cd1461008c5780634e70b1dc1461009457806375f7286c146100ae578063b8bd717f146100c1575b5f5ffd5b6100776100723660046101a0565b6100d4565b005b6100776100873660046101a0565b610114565b610077610124565b61009c5f5481565b60405190815260200160405180910390f35b6100776100bc3660046101a0565b61013c565b6100776100cf3660046101a0565b610167565b600a81116101115760405162461bcd60e51b81526020600482015260056024820152640693c3d31360dc1b60448201526064015b60405180910390fd5b50565b805f5414610111576101116101b7565b60015f5f82825461013591906101cb565b9091555050565b600a81111561011157604051631c47337760e31b815233600482015260248101829052604401610108565b600a8111156101115760405162461bcd60e51b81526020600482015260056024820152640693c3d31360dc1b6044820152606401610108565b5f602082840312156101b0575f5ffd5b5035919050565b634e487b7160e01b5f52600160045260245ffd5b808201808211156101ea57634e487b7160e01b5f52601160045260245ffd5b9291505056fea264697066735822122021c0c44823e689cece70227511e3f017b1369b8fd5adf3c5878579236f1c1a1c64736f6c634300081d0033",
			"opcodes": "PUSH1 0x80 PUSH1 0x40 MSTORE PUSH1 0x7B PUSH0 SSTORE CALLVALUE DUP1 ISZERO PUSH1 0x12 JUMPI PUSH0 PUSH0 REVERT JUMPDEST POP PUSH2 0x226 DUP1 PUSH2 0x20 PUSH0 CODECOPY PUSH0 RETURN INVALID PUSH1 0x80 PUSH1 0x40 MSTORE CALLVALUE DUP1 ISZERO PUSH2 0xF JUMPI PUSH0 PUSH0 REVERT JUMPDEST POP PUSH1 0x4 CALLDATASIZE LT PUSH2 0x60 JUMPI PUSH0 CALLDATALOAD PUSH1 0xE0 SHR DUP1 PUSH4 0x20987767 EQ PUSH2 0x64 JUMPI DUP1 PUSH4 0x246CE3F9 EQ PUSH2 0x79 JUMPI DUP1 PUSH4 0x4DB529CD EQ PUSH2 0x8C JUMPI DUP1 PUSH4 0x4E70B1DC EQ PUSH2 0x94 JUMPI DUP1 PUSH4 0x75F7286C EQ PUSH2 0xAE JUMPI DUP1 PUSH4 0xB8BD717F EQ PUSH2 0xC1 JUMPI JUMPDEST PUSH0 PUSH0 REVERT JUMPDEST PUSH2 0x77 PUSH2 0x72 CALLDATASIZE PUSH1 0x4 PUSH2 0x1A0 JUMP JUMPDEST PUSH2 0xD4 JUMP JUMPDEST STOP JUMPDEST PUSH2 0x77 PUSH2 0x87 CALLDATASIZE PUSH1 0x4 PUSH2 0x1A0 JUMP JUMPDEST PUSH2 0x114 JUMP JUMPDEST PUSH2 0x77 PUSH2 0x124 JUMP JUMPDEST PUSH2 0x9C PUSH0 SLOAD DUP2 JUMP JUMPDEST PUSH1 0x40 MLOAD SWAP1 DUP2 MSTORE PUSH1 0x20 ADD PUSH1 0x40 MLOAD DUP1 SWAP2 SUB SWAP1 RETURN JUMPDEST PUSH2 0x77 PUSH2 0xBC CALLDATASIZE PUSH1 0x4 PUSH2 0x1A0 JUMP JUMPDEST PUSH2 0x13C JUMP JUMPDEST PUSH2 0x77 PUSH2 0xCF CALLDATASIZE PUSH1 0x4 PUSH2 0x1A0 JUMP JUMPDEST PUSH2 0x167 JUMP JUMPDEST PUSH1 0xA DUP2 GT PUSH2 0x111 JUMPI PUSH1 0x40 MLOAD PUSH3 0x461BCD PUSH1 0xE5 SHL DUP2 MSTORE PUSH1 0x20 PUSH1 0x4 DUP3 ADD MSTORE PUSH1 0x5 PUSH1 0x24 DUP3 ADD MSTORE PUSH5 0x693C3D313 PUSH1 0xDC SHL PUSH1 0x44 DUP3 ADD MSTORE PUSH1 0x64 ADD JUMPDEST PUSH1 0x40 MLOAD DUP1 SWAP2 SUB SWAP1 REVERT JUMPDEST POP JUMP JUMPDEST DUP1 PUSH0 SLOAD EQ PUSH2 0x111 JUMPI PUSH2 0x111 PUSH2 0x1B7 JUMP JUMPDEST PUSH1 0x1 PUSH0 PUSH0 DUP3 DUP3 SLOAD PUSH2 0x135 SWAP2 SWAP1 PUSH2 0x1CB JUMP JUMPDEST SWAP1 SWAP2 SSTORE POP POP JUMP JUMPDEST PUSH1 0xA DUP2 GT ISZERO PUSH2 0x111 JUMPI PUSH1 0x40 MLOAD PUSH4 0x1C473377 PUSH1 0xE3 SHL DUP2 MSTORE CALLER PUSH1 0x4 DUP3 ADD MSTORE PUSH1 0x24 DUP2 ADD DUP3 SWAP1 MSTORE PUSH1 0x44 ADD PUSH2 0x108 JUMP JUMPDEST PUSH1 0xA DUP2 GT ISZERO PUSH2 0x111 JUMPI PUSH1 0x40 MLOAD PUSH3 0x461BCD PUSH1 0xE5 SHL DUP2 MSTORE PUSH1 0x20 PUSH1 0x4 DUP3 ADD MSTORE PUSH1 0x5 PUSH1 0x24 DUP3 ADD MSTORE PUSH5 0x693C3D313 PUSH1 0xDC SHL PUSH1 0x44 DUP3 ADD MSTORE PUSH1 0x64 ADD PUSH2 0x108 JUMP JUMPDEST PUSH0 PUSH1 0x20 DUP3 DUP5 SUB SLT ISZERO PUSH2 0x1B0 JUMPI PUSH0 PUSH0 REVERT JUMPDEST POP CALLDATALOAD SWAP2 SWAP1 POP JUMP JUMPDEST PUSH4 0x4E487B71 PUSH1 0xE0 SHL PUSH0 MSTORE PUSH1 0x1 PUSH1 0x4 MSTORE PUSH1 0x24 PUSH0 REVERT JUMPDEST DUP1 DUP3 ADD DUP1 DUP3 GT ISZERO PUSH2 0x1EA JUMPI PUSH4 0x4E487B71 PUSH1 0xE0 SHL PUSH0 MSTORE PUSH1 0x11 PUSH1 0x4 MSTORE PUSH1 0x24 PUSH0 REVERT JUMPDEST SWAP3 SWAP2 POP POP JUMP INVALID LOG2 PUSH5 0x6970667358 0x22 SLT KECCAK256 0x21 0xC0 0xC4 BASEFEE 0x23 DUPN 0x89 0xCE 0xCE PUSH17 0x227511E3F017B1369B8FD5ADF3C5878579 0x23 PUSH16 0x1C1A1C64736F6C634300081D00330000 "
		},
		"gasEstimates": {
			"creation": {
				"codeDepositCost": "110000",
				"executionCost": "22262",
				"totalCost": "132262"
			},
			"external": {
				"incNum()": "24463",
				"num()": "2325",
				"testAssert(uint256)": "2374",
				"testCustomError(uint256)": "402",
				"testRequire(uint256)": "446",
				"testRevert(uint256)": "322"
			}
		},
		"methodIdentifiers": {
			"incNum()": "4db529cd",
			"num()": "4e70b1dc",
			"testAssert(uint256)": "246ce3f9",
			"testCustomError(uint256)": "75f7286c",
			"testRequire(uint256)": "b8bd717f",
			"testRevert(uint256)": "20987767"
		}
	},
	"abi": [
		{
			"inputs": [
				{
					"internalType": "address",
					"name": "caller",
					"type": "address"
				},
				{
					"internalType": "uint256",
					"name": "i",
					"type": "uint256"
				}
			],
			"name": "MyError",
			"type": "error"
		},
		{
			"inputs": [],
			"name": "incNum",
			"outputs": [],
			"stateMutability": "nonpayable",
			"type": "function"
		},
		{
			"inputs": [],
			"name": "num",
			"outputs": [
				{
					"internalType": "uint256",
					"name": "",
					"type": "uint256"
				}
			],
			"stateMutability": "view",
			"type": "function"
		},
		{
			"inputs": [
				{
					"internalType": "uint256",
					"name": "i",
					"type": "uint256"
				}
			],
			"name": "testAssert",
			"outputs": [],
			"stateMutability": "view",
			"type": "function"
		},
		{
			"inputs": [
				{
					"internalType": "uint256",
					"name": "i",
					"type": "uint256"
				}
			],
			"name": "testCustomError",
			"outputs": [],
			"stateMutability": "view",
			"type": "function"
		},
		{
			"inputs": [
				{
					"internalType": "uint256",
					"name": "i",
					"type": "uint256"
				}
			],
			"name": "testRequire",
			"outputs": [],
			"stateMutability": "pure",
			"type": "function"
		},
		{
			"inputs": [
				{
					"internalType": "uint256",
					"name": "i",
					"type": "uint256"
				}
			],
			"name": "testRevert",
			"outputs": [],
			"stateMutability": "pure",
			"type": "function"
		}
	]
}