{
	"data": {
		"bytecode": {
			"linkReferences": {},
			"object": "6080604052348015600e575f5ffd5b506101568061001c5f395ff3fe608060405234801561000f575f5ffd5b5060043610610034575f3560e01c8063188b85b414610038578063938b9ceb1461005d575b5f5ffd5b61004b6100463660046100c4565b610067565b60405190815260200160405180910390f35b610065610090565b005b5f8060015b600a8110156100895761007f81836100ef565b915060010161006c565b5092915050565b5f5b600a8110156100a357600101610092565b505f5b600a8110156100c157806100b981610108565b9150506100a6565b50565b5f602082840312156100d4575f5ffd5b5035919050565b634e487b7160e01b5f52601160045260245ffd5b80820180821115610102576101026100db565b92915050565b5f60018201610119576101196100db565b506001019056fea26469706673582212208ba47b7f71187f13611e02ee07b4c7859936791a2578a622a794cf7b453e901c64736f6c634300081d0033",
			"opcodes": "PUSH1 0x80 PUSH1 0x40 MSTORE CALLVALUE DUP1 ISZERO PUSH1 0xE JUMPI PUSH0 PUSH0 REVERT JUMPDEST POP PUSH2 0x156 DUP1 PUSH2 0x1C PUSH0 CODECOPY PUSH0 RETURN INVALID PUSH1 0x80 PUSH1 0x40 MSTORE CALLVALUE DUP1 ISZERO PUSH2 0xF JUMPI PUSH0 PUSH0 REVERT JUMPDEST POP PUSH1 0x4 CALLDATASIZE LT PUSH2 0x34 JUMPI PUSH0 CALLDATALOAD PUSH1 0xE0 SHR DUP1 PUSH4 0x188B85B4 EQ PUSH2 0x38 JUMPI DUP1 PUSH4 0x938B9CEB EQ PUSH2 0x5D JUMPI JUMPDEST PUSH0 PUSH0 REVERT JUMPDEST PUSH2 0x4B PUSH2 0x46 CALLDATASIZE PUSH1 0x4 PUSH2 0xC4 JUMP JUMPDEST PUSH2 0x67 JUMP JUMPDEST PUSH1 0x40 MLOAD SWAP1 DUP2 MSTORE PUSH1 0x20 ADD PUSH1 0x40 MLOAD DUP1 SWAP2 SUB SWAP1 RETURN JUMPDEST PUSH2 0x65 PUSH2 0x90 JUMP JUMPDEST STOP JUMPDEST PUSH0 DUP1 PUSH1 0x1 JUMPDEST PUSH1 0xA DUP2 LT ISZERO PUSH2 0x89 JUMPI PUSH2 0x7F DUP2 DUP4 PUSH2 0xEF JUMP JUMPDEST SWAP2 POP PUSH1 0x1 ADD PUSH2 0x6C JUMP JUMPDEST POP SWAP3 SWAP2 POP POP JUMP JUMPDEST PUSH0 JUMPDEST PUSH1 0xA DUP2 LT ISZERO PUSH2 0xA3 JUMPI PUSH1 0x1 ADD PUSH2 0x92 JUMP JUMPDEST POP PUSH0 JUMPDEST PUSH1 0xA DUP2 LT ISZERO PUSH2 0xC1 JUMPI DUP1 PUSH2 0xB9 DUP2 PUSH2 0x108 JUMP JUMPDEST SWAP2 POP POP PUSH2 0xA6 JUMP JUMPDEST POP JUMP JUMPDEST PUSH0 PUSH1 0x20 DUP3 DUP5 SUB SLT ISZERO PUSH2 0xD4 JUMPI PUSH0 PUSH0 REVERT JUMPDEST POP CALLDATALOAD SWAP2 SWAP1 POP JUMP JUMPDEST PUSH4 0x4E487B71 PUSH1 0xE0 SHL PUSH0 MSTORE PUSH1 0x11 PUSH1 0x4 MSTORE PUSH1 0x24 PUSH0 REVERT JUMPDEST DUP1 DUP3 ADD DUP1 DUP3 GT ISZERO PUSH2 0x102 JUMPI PUSH2 0x102 PUSH2 0xDB JUMP JUMPDEST SWAP3 SWAP2 POP POP JUMP JUMPDEST PUSH0 PUSH1 0x1 DUP3 ADD PUSH2 0x119 JUMPI PUSH2 0x119 PUSH2 0xDB JUMP JUMPDEST POP PUSH1 0x1 ADD SWAP1 JUMP INVALID LOG2 PUSH5 0x6970667358 0x22 SLT KECCAK256 DUP12 LOG4 PUSH28 0x7F71187F13611E02EE07B4C7859936791A2578A622A794CF7B453E90 SHR PUSH5 0x736F6C6343 STOP ADDMOD SAR STOP CALLER "
		},
		"gasEstimates": {
			"creation": {
				"codeDepositCost": "68400",
				"executionCost": "115",
				"totalCost": "68515"
			},
			"external": {
				"loops()": "infinite",
				"sum(uint256)": "infinite"
			}
		},
		"methodIdentifiers": {
			"loops()": "938b9ceb",
			"sum(uint256)": "188b85b4"
		}
	},
	"abi": [
		{
			"inputs": [],
			"name": "loops",
			"outputs": [],
			"stateMutability": "pure",
			"type": "function"
		},
		{
			"inputs": [
				{
					"internalType": "uint256",
					"name": "a",
					"type": "uint256"
				}
			],
			"name": "sum",
			"outputs": [
				{
					"internalType": "uint256",
					"name": "",
					"type": "uint256"
				}
			],
			"stateMutability": "pure",
			"type": "function"
		}
	]
}