{
	"data": {
		"bytecode": {
			"linkReferences": {},
			"object": "6080604052348015600e575f5ffd5b50609a80601a5f395ff3fe6080604052348015600e575f5ffd5b50600436106044575f3560e01c80633f7f3db614604857806345f907a814604a5780638688754414604a578063adb4d99014604a575b5f5ffd5b005b604080516001808252602082015281519081900390910190f3fea26469706673582212208b9e988a9f219dadbdfbabf83f91d553cc3a104774bd5c7d0339d456ee3ee52564736f6c634300081d0033",
			"opcodes": "PUSH1 0x80 PUSH1 0x40 MSTORE CALLVALUE DUP1 ISZERO PUSH1 0xE JUMPI PUSH0 PUSH0 REVERT JUMPDEST POP PUSH1 0x9A DUP1 PUSH1 0x1A PUSH0 CODECOPY PUSH0 RETURN INVALID PUSH1 0x80 PUSH1 0x40 MSTORE CALLVALUE DUP1 ISZERO PUSH1 0xE JUMPI PUSH0 PUSH0 REVERT JUMPDEST POP PUSH1 0x4 CALLDATASIZE LT PUSH1 0x44 JUMPI PUSH0 CALLDATALOAD PUSH1 0xE0 SHR DUP1 PUSH4 0x3F7F3DB6 EQ PUSH1 0x48 JUMPI DUP1 PUSH4 0x45F907A8 EQ PUSH1 0x4A JUMPI DUP1 PUSH4 0x86887544 EQ PUSH1 0x4A JUMPI DUP1 PUSH4 0xADB4D990 EQ PUSH1 0x4A JUMPI JUMPDEST PUSH0 PUSH0 REVERT JUMPDEST STOP JUMPDEST PUSH1 0x40 DUP1 MLOAD PUSH1 0x1 DUP1 DUP3 MSTORE PUSH1 0x20 DUP3 ADD MSTORE DUP2 MLOAD SWAP1 DUP2 SWAP1 SUB SWAP1 SWAP2 ADD SWAP1 RETURN INVALID LOG2 PUSH5 0x6970667358 0x22 SLT KECCAK256 DUP12 SWAP15 SWAP9 DUP11 SWAP16 0x21 SWAP14 0xAD 0xBD EXTSTATICCALL 0xAB EXTCALL EXTCODEHASH SWAP2 0xD5 MSTORE8 0xCC GASPRICE LT SELFBALANCE PUSH21 0xBD5C7D0339D456EE3EE52564736F6C634300081D00 CALLER "
		},
		"gasEstimates": {
			"creation": {
				"codeDepositCost": "30800",
				"executionCost": "79",
				"totalCost": "30879"
			},
			"external": {
				"assigned()": "235",
				"destructingAssignments()": "97",
				"named()": "191",
				"returnMany()": "213"
			}
		},
		"methodIdentifiers": {
			"assigned()": "adb4d990",
			"destructingAssignments()": "3f7f3db6",
			"named()": "45f907a8",
			"returnMany()": "86887544"
		}
	},
	"abi": [
		{
			"inputs": [],
			"name": "assigned",
			"outputs": [
				{
					"internalType": "uint256",
					"name": "x",
					"type": "uint256"
				},
				{
					"internalType": "bool",
					"name": "b",
					"type": "bool"
				}
			],
			"stateMutability": "pure",
			"type": "function"
		},
		{
			"inputs": [],
			"name": "destructingAssignments",
			"outputs": [],
			"stateMutability": "pure",
			"type": "function"
		},
		{
			"inputs": [],
			"name": "named",
			"outputs": [
				{
					"internalType": "uint256",
					"name": "x",
					"type": "uint256"
				},
				{
					"internalType": "bool",
					"name": "b",
					"type": "bool"
				}
			],
			"stateMutability": "pure",
			"type": "function"
		},
		{
			"inputs": [],
			"name": "returnMany",
			"outputs": [
				{
					"internalType": "uint256",
					"name": "",
					"type": "uint256"
				},
				{
					"internalType": "bool",
					"name": "",
					"type": "bool"
				}
			],
			"stateMutability": "pure",
			"type": "function"
		}
	]
}