{
	"data": {
		"bytecode": {
			"linkReferences": {},
			"object": "6080604052348015600e575f5ffd5b506103888061001c5f395ff3fe608060405234801561000f575f5ffd5b506004361061003f575f3560e01c8063089cf68a146100435780630fd35ba51461006c5780635dda416e1461007f575b5f5ffd5b6100566100513660046101b5565b6100a0565b6040516100639190610248565b60405180910390f35b61005661007a3660046101b5565b6100cc565b61009261008d366004610261565b6100e1565b604051908152602001610063565b606082826040516020016100b59291906102c3565b604051602081830303815290604052905092915050565b606082826040516020016100b5929190610307565b5f8383836040516020016100f793929190610323565b6040516020818303038152906040528051906020012090509392505050565b634e487b7160e01b5f52604160045260245ffd5b5f82601f830112610139575f5ffd5b813567ffffffffffffffff81111561015357610153610116565b604051601f8201601f19908116603f0116810167ffffffffffffffff8111828210171561018257610182610116565b604052818152838201602001851015610199575f5ffd5b816020850160208301375f918101602001919091529392505050565b5f5f604083850312156101c6575f5ffd5b823567ffffffffffffffff8111156101dc575f5ffd5b6101e88582860161012a565b925050602083013567ffffffffffffffff811115610204575f5ffd5b6102108582860161012a565b9150509250929050565b5f81518084528060208401602086015e5f602082860101526020601f19601f83011685010191505092915050565b602081525f61025a602083018461021a565b9392505050565b5f5f5f60608486031215610273575f5ffd5b833567ffffffffffffffff811115610289575f5ffd5b6102958682870161012a565b9350506020840135915060408401356001600160a01b03811681146102b8575f5ffd5b809150509250925092565b604081525f6102d5604083018561021a565b82810360208401526102e7818561021a565b95945050505050565b5f81518060208401855e5f93019283525090919050565b5f61031b61031583866102f0565b846102f0565b949350505050565b5f61032e82866102f0565b938452505060601b6bffffffffffffffffffffffff1916602082015260340191905056fea2646970667358221220aed55b630b582038dc56960260e8bc2707290407cc5bd014024aca058ba72f7d64736f6c634300081d0033",
			"opcodes": "PUSH1 0x80 PUSH1 0x40 MSTORE CALLVALUE DUP1 ISZERO PUSH1 0xE JUMPI PUSH0 PUSH0 REVERT JUMPDEST POP PUSH2 0x388 DUP1 PUSH2 0x1C PUSH0 CODECOPY PUSH0 RETURN INVALID PUSH1 0x80 PUSH1 0x40 MSTORE CALLVALUE DUP1 ISZERO PUSH2 0xF JUMPI PUSH0 PUSH0 REVERT JUMPDEST POP PUSH1 0x4 CALLDATASIZE LT PUSH2 0x3F JUMPI PUSH0 CALLDATALOAD PUSH1 0xE0 SHR DUP1 PUSH4 0x89CF68A EQ PUSH2 0x43 JUMPI DUP1 PUSH4 0xFD35BA5 EQ PUSH2 0x6C JUMPI DUP1 PUSH4 0x5DDA416E EQ PUSH2 0x7F JUMPI JUMPDEST PUSH0 PUSH0 REVERT JUMPDEST PUSH2 0x56 PUSH2 0x51 CALLDATASIZE PUSH1 0x4 PUSH2 0x1B5 JUMP JUMPDEST PUSH2 0xA0 JUMP JUMPDEST PUSH1 0x40 MLOAD PUSH2 0x63 SWAP2 SWAP1 PUSH2 0x248 JUMP JUMPDEST PUSH1 0x40 MLOAD DUP1 SWAP2 SUB SWAP1 RETURN JUMPDEST PUSH2 0x56 PUSH2 0x7A CALLDATASIZE PUSH1 0x4 PUSH2 0x1B5 JUMP JUMPDEST PUSH2 0xCC JUMP JUMPDEST PUSH2 0x92 PUSH2 0x8D CALLDATASIZE PUSH1 0x4 PUSH2 0x261 JUMP JUMPDEST PUSH2 0xE1 JUMP JUMPDEST PUSH1 0x40 MLOAD SWAP1 DUP2 MSTORE PUSH1 0x20 ADD PUSH2 0x63 JUMP JUMPDEST PUSH1 0x60 DUP3 DUP3 PUSH1 0x40 MLOAD PUSH1 0x20 ADD PUSH2 0xB5 SWAP3 SWAP2 SWAP1 PUSH2 0x2C3 JUMP JUMPDEST PUSH1 0x40 MLOAD PUSH1 0x20 DUP2 DUP4 SUB SUB DUP2 MSTORE SWAP1 PUSH1 0x40 MSTORE SWAP1 POP SWAP3 SWAP2 POP POP JUMP JUMPDEST PUSH1 0x60 DUP3 DUP3 PUSH1 0x40 MLOAD PUSH1 0x20 ADD PUSH2 0xB5 SWAP3 SWAP2 SWAP1 PUSH2 0x307 JUMP JUMPDEST PUSH0 DUP4 DUP4 DUP4 PUSH1 0x40 MLOAD PUSH1 0x20 ADD PUSH2 0xF7 SWAP4 SWAP3 SWAP2 SWAP1 PUSH2 0x323 JUMP JUMPDEST PUSH1 0x40 MLOAD PUSH1 0x20 DUP2 DUP4 SUB SUB DUP2 MSTORE SWAP1 PUSH1 0x40 MSTORE DUP1 MLOAD SWAP1 PUSH1 0x20 ADD KECCAK256 SWAP1 POP SWAP4 SWAP3 POP POP POP JUMP JUMPDEST PUSH4 0x4E487B71 PUSH1 0xE0 SHL PUSH0 MSTORE PUSH1 0x41 PUSH1 0x4 MSTORE PUSH1 0x24 PUSH0 REVERT JUMPDEST PUSH0 DUP3 PUSH1 0x1F DUP4 ADD SLT PUSH2 0x139 JUMPI PUSH0 PUSH0 REVERT JUMPDEST DUP2 CALLDATALOAD PUSH8 0xFFFFFFFFFFFFFFFF DUP2 GT ISZERO PUSH2 0x153 JUMPI PUSH2 0x153 PUSH2 0x116 JUMP JUMPDEST PUSH1 0x40 MLOAD PUSH1 0x1F DUP3 ADD PUSH1 0x1F NOT SWAP1 DUP2 AND PUSH1 0x3F ADD AND DUP2 ADD PUSH8 0xFFFFFFFFFFFFFFFF DUP2 GT DUP3 DUP3 LT OR ISZERO PUSH2 0x182 JUMPI PUSH2 0x182 PUSH2 0x116 JUMP JUMPDEST PUSH1 0x40 MSTORE DUP2 DUP2 MSTORE DUP4 DUP3 ADD PUSH1 0x20 ADD DUP6 LT ISZERO PUSH2 0x199 JUMPI PUSH0 PUSH0 REVERT JUMPDEST DUP2 PUSH1 0x20 DUP6 ADD PUSH1 0x20 DUP4 ADD CALLDATACOPY PUSH0 SWAP2 DUP2 ADD PUSH1 0x20 ADD SWAP2 SWAP1 SWAP2 MSTORE SWAP4 SWAP3 POP POP POP JUMP JUMPDEST PUSH0 PUSH0 PUSH1 0x40 DUP4 DUP6 SUB SLT ISZERO PUSH2 0x1C6 JUMPI PUSH0 PUSH0 REVERT JUMPDEST DUP3 CALLDATALOAD PUSH8 0xFFFFFFFFFFFFFFFF DUP2 GT ISZERO PUSH2 0x1DC JUMPI PUSH0 PUSH0 REVERT JUMPDEST PUSH2 0x1E8 DUP6 DUP3 DUP7 ADD PUSH2 0x12A JUMP JUMPDEST SWAP3 POP POP PUSH1 0x20 DUP4 ADD CALLDATALOAD PUSH8 0xFFFFFFFFFFFFFFFF DUP2 GT ISZERO PUSH2 0x204 JUMPI PUSH0 PUSH0 REVERT JUMPDEST PUSH2 0x210 DUP6 DUP3 DUP7 ADD PUSH2 0x12A JUMP JUMPDEST SWAP2 POP POP SWAP3 POP SWAP3 SWAP1 POP JUMP JUMPDEST PUSH0 DUP2 MLOAD DUP1 DUP5 MSTORE DUP1 PUSH1 0x20 DUP5 ADD PUSH1 0x20 DUP7 ADD MCOPY PUSH0 PUSH1 0x20 DUP3 DUP7 ADD ADD MSTORE PUSH1 0x20 PUSH1 0x1F NOT PUSH1 0x1F DUP4 ADD AND DUP6 ADD ADD SWAP2 POP POP SWAP3 SWAP2 POP POP JUMP JUMPDEST PUSH1 0x20 DUP2 MSTORE PUSH0 PUSH2 0x25A PUSH1 0x20 DUP4 ADD DUP5 PUSH2 0x21A JUMP JUMPDEST SWAP4 SWAP3 POP POP POP JUMP JUMPDEST PUSH0 PUSH0 PUSH0 PUSH1 0x60 DUP5 DUP7 SUB SLT ISZERO PUSH2 0x273 JUMPI PUSH0 PUSH0 REVERT JUMPDEST DUP4 CALLDATALOAD PUSH8 0xFFFFFFFFFFFFFFFF DUP2 GT ISZERO PUSH2 0x289 JUMPI PUSH0 PUSH0 REVERT JUMPDEST PUSH2 0x295 DUP7 DUP3 DUP8 ADD PUSH2 0x12A JUMP JUMPDEST SWAP4 POP POP PUSH1 0x20 DUP5 ADD CALLDATALOAD SWAP2 POP PUSH1 0x40 DUP5 ADD CALLDATALOAD PUSH1 0x1 PUSH1 0x1 PUSH1 0xA0 SHL SUB DUP2 AND DUP2 EQ PUSH2 0x2B8 JUMPI PUSH0 PUSH0 REVERT JUMPDEST DUP1 SWAP2 POP POP SWAP3 POP SWAP3 POP SWAP3 JUMP JUMPDEST PUSH1 0x40 DUP2 MSTORE PUSH0 PUSH2 0x2D5 PUSH1 0x40 DUP4 ADD DUP6 PUSH2 0x21A JUMP JUMPDEST DUP3 DUP2 SUB PUSH1 0x20 DUP5 ADD MSTORE PUSH2 0x2E7 DUP2 DUP6 PUSH2 0x21A JUMP JUMPDEST SWAP6 SWAP5 POP POP POP POP POP JUMP JUMPDEST PUSH0 DUP2 MLOAD DUP1 PUSH1 0x20 DUP5 ADD DUP6 MCOPY PUSH0 SWAP4 ADD SWAP3 DUP4 MSTORE POP SWAP1 SWAP2 SWAP1 POP JUMP JUMPDEST PUSH0 PUSH2 0x31B PUSH2 0x315 DUP4 DUP7 PUSH2 0x2F0 JUMP JUMPDEST DUP5 PUSH2 0x2F0 JUMP JUMPDEST SWAP5 SWAP4 POP POP POP POP JUMP JUMPDEST PUSH0 PUSH2 0x32E DUP3 DUP7 PUSH2 0x2F0 JUMP JUMPDEST SWAP4 DUP5 MSTORE POP POP PUSH1 0x60 SHL PUSH12 0xFFFFFFFFFFFFFFFFFFFFFFFF NOT AND PUSH1 0x20 DUP3 ADD MSTORE PUSH1 0x34 ADD SWAP2 SWAP1 POP JUMP INVALID LOG2 PUSH5 0x6970667358 0x22 SLT KECCAK256 0xAE 0xD5 JUMPDEST PUSH4 0xB582038 0xDC JUMP SWAP7 MUL PUSH1 0xE8 0xBC 0x27 SMOD 0x29 DIV SMOD 0xCC JUMPDEST 0xD0 EQ MUL BLOBBASEFEE 0xCA SDIV DUP12 0xA7 0x2F PUSH30 0x64736F6C634300081D003300000000000000000000000000000000000000 "
		},
		"gasEstimates": {
			"creation": {
				"codeDepositCost": "180800",
				"executionCost": "224",
				"totalCost": "181024"
			},
			"external": {
				"encodePackedTest(string,string)": "infinite",
				"encodeTest(string,string)": "infinite",
				"hash(string,uint256,address)": "infinite"
			}
		},
		"methodIdentifiers": {
			"encodePackedTest(string,string)": "0fd35ba5",
			"encodeTest(string,string)": "089cf68a",
			"hash(string,uint256,address)": "5dda416e"
		}
	},
	"abi": [
		{
			"inputs": [
				{
					"internalType": "string",
					"name": "text",
					"type": "string"
				},
				{
					"internalType": "string",
					"name": "text1",
					"type": "string"
				}
			],
			"name": "encodePackedTest",
			"outputs": [
				{
					"internalType": "bytes",
					"name": "",
					"type": "bytes"
				}
			],
			"stateMutability": "pure",
			"type": "function"
		},
		{
			"inputs": [
				{
					"internalType": "string",
					"name": "text",
					"type": "string"
				},
				{
					"internalType": "string",
					"name": "text1",
					"type": "string"
				}
			],
			"name": "encodeTest",
			"outputs": [
				{
					"internalType": "bytes",
					"name": "",
					"type": "bytes"
				}
			],
			"stateMutability": "pure",
			"type": "function"
		},
		{
			"inputs": [
				{
					"internalType": "string",
					"name": "text",
					"type": "string"
				},
				{
					"internalType": "uint256",
					"name": "num",
					"type": "uint256"
				},
				{
					"internalType": "address",
					"name": "addr",
					"type": "address"
				}
			],
			"name": "hash",
			"outputs": [
				{
					"internalType": "bytes32",
					"name": "",
					"type": "bytes32"
				}
			],
			"stateMutability": "pure",
			"type": "function"
		}
	]
}