{
	"data": {
		"bytecode": {
			"linkReferences": {},
			"object": "60c0604052600d60809081526c48656c6c6f2c20576f726c642160981b60a0525f9061002b90826100d5565b50348015610037575f5ffd5b5061018f565b634e487b7160e01b5f52604160045260245ffd5b600181811c9082168061006557607f821691505b60208210810361008357634e487b7160e01b5f52602260045260245ffd5b50919050565b601f8211156100d057805f5260205f20601f840160051c810160208510156100ae5750805b601f840160051c820191505b818110156100cd575f81556001016100ba565b50505b505050565b81516001600160401b038111156100ee576100ee61003d565b610102816100fc8454610051565b84610089565b6020601f821160018114610134575f831561011d5750848201515b5f19600385901b1c1916600184901b1784556100cd565b5f84815260208120601f198516915b828110156101635787850151825560209485019460019092019101610143565b508482101561018057868401515f19600387901b60f8161c191681555b50505050600190811b01905550565b61021b8061019c5f395ff3fe608060405234801561000f575f5ffd5b5060043610610034575f3560e01c8063ef5fb05b14610038578063ef690cc014610056575b5f5ffd5b61004061005e565b60405161004d9190610178565b60405180910390f35b6100406100ed565b60605f805461006c906101ad565b80601f0160208091040260200160405190810160405280929190818152602001828054610098906101ad565b80156100e35780601f106100ba576101008083540402835291602001916100e3565b820191905f5260205f20905b8154815290600101906020018083116100c657829003601f168201915b5050505050905090565b5f80546100f9906101ad565b80601f0160208091040260200160405190810160405280929190818152602001828054610125906101ad565b80156101705780601f1061014757610100808354040283529160200191610170565b820191905f5260205f20905b81548152906001019060200180831161015357829003601f168201915b505050505081565b602081525f82518060208401528060208501604085015e5f604082850101526040601f19601f83011684010191505092915050565b600181811c908216806101c157607f821691505b6020821081036101df57634e487b7160e01b5f52602260045260245ffd5b5091905056fea2646970667358221220267ec7f9ba4aaad992cda2d29233c63b64e0e725aee5cb48954b81a4bb22594064736f6c634300081d0033",
			"opcodes": "PUSH1 0xC0 PUSH1 0x40 MSTORE PUSH1 0xD PUSH1 0x80 SWAP1 DUP2 MSTORE PUSH13 0x48656C6C6F2C20576F726C6421 PUSH1 0x98 SHL PUSH1 0xA0 MSTORE PUSH0 SWAP1 PUSH2 0x2B SWAP1 DUP3 PUSH2 0xD5 JUMP JUMPDEST POP CALLVALUE DUP1 ISZERO PUSH2 0x37 JUMPI PUSH0 PUSH0 REVERT JUMPDEST POP PUSH2 0x18F JUMP JUMPDEST PUSH4 0x4E487B71 PUSH1 0xE0 SHL PUSH0 MSTORE PUSH1 0x41 PUSH1 0x4 MSTORE PUSH1 0x24 PUSH0 REVERT JUMPDEST PUSH1 0x1 DUP2 DUP2 SHR SWAP1 DUP3 AND DUP1 PUSH2 0x65 JUMPI PUSH1 0x7F DUP3 AND SWAP2 POP JUMPDEST PUSH1 0x20 DUP3 LT DUP2 SUB PUSH2 0x83 JUMPI PUSH4 0x4E487B71 PUSH1 0xE0 SHL PUSH0 MSTORE PUSH1 0x22 PUSH1 0x4 MSTORE PUSH1 0x24 PUSH0 REVERT JUMPDEST POP SWAP2 SWAP1 POP JUMP JUMPDEST PUSH1 0x1F DUP3 GT ISZERO PUSH2 0xD0 JUMPI DUP1 PUSH0 MSTORE PUSH1 0x20 PUSH0 KECCAK256 PUSH1 0x1F DUP5 ADD PUSH1 0x5 SHR DUP2 ADD PUSH1 0x20 DUP6 LT ISZERO PUSH2 0xAE JUMPI POP DUP1 JUMPDEST PUSH1 0x1F DUP5 ADD PUSH1 0x5 SHR DUP3 ADD SWAP2 POP JUMPDEST DUP2 DUP2 LT ISZERO PUSH2 0xCD JUMPI PUSH0 DUP2 SSTORE PUSH1 0x1 ADD PUSH2 0xBA JUMP JUMPDEST POP POP JUMPDEST POP POP POP JUMP JUMPDEST DUP2 MLOAD PUSH1 0x1 PUSH1 0x1 PUSH1 0x40 SHL SUB DUP2 GT ISZERO PUSH2 0xEE JUMPI PUSH2 0xEE PUSH2 0x3D JUMP JUMPDEST PUSH2 0x102 DUP2 PUSH2 0xFC DUP5 SLOAD PUSH2 0x51 JUMP JUMPDEST DUP5 PUSH2 0x89 JUMP JUMPDEST PUSH1 0x20 PUSH1 0x1F DUP3 GT PUSH1 0x1 DUP2 EQ PUSH2 0x134 JUMPI PUSH0 DUP4 ISZERO PUSH2 0x11D JUMPI POP DUP5 DUP3 ADD MLOAD JUMPDEST PUSH0 NOT PUSH1 0x3 DUP6 SWAP1 SHL SHR NOT AND PUSH1 0x1 DUP5 SWAP1 SHL OR DUP5 SSTORE PUSH2 0xCD JUMP JUMPDEST PUSH0 DUP5 DUP2 MSTORE PUSH1 0x20 DUP2 KECCAK256 PUSH1 0x1F NOT DUP6 AND SWAP2 JUMPDEST DUP3 DUP2 LT ISZERO PUSH2 0x163 JUMPI DUP8 DUP6 ADD MLOAD DUP3 SSTORE PUSH1 0x20 SWAP5 DUP6 ADD SWAP5 PUSH1 0x1 SWAP1 SWAP3 ADD SWAP2 ADD PUSH2 0x143 JUMP JUMPDEST POP DUP5 DUP3 LT ISZERO PUSH2 0x180 JUMPI DUP7 DUP5 ADD MLOAD PUSH0 NOT PUSH1 0x3 DUP8 SWAP1 SHL PUSH1 0xF8 AND SHR NOT AND DUP2 SSTORE JUMPDEST POP POP POP POP PUSH1 0x1 SWAP1 DUP2 SHL ADD SWAP1 SSTORE POP JUMP JUMPDEST PUSH2 0x21B DUP1 PUSH2 0x19C PUSH0 CODECOPY PUSH0 RETURN INVALID PUSH1 0x80 PUSH1 0x40 MSTORE CALLVALUE DUP1 ISZERO PUSH2 0xF JUMPI PUSH0 PUSH0 REVERT JUMPDEST POP PUSH1 0x4 CALLDATASIZE LT PUSH2 0x34 JUMPI PUSH0 CALLDATALOAD PUSH1 0xE0 SHR DUP1 PUSH4 0xEF5FB05B EQ PUSH2 0x38 JUMPI DUP1 PUSH4 0xEF690CC0 EQ PUSH2 0x56 JUMPI JUMPDEST PUSH0 PUSH0 REVERT JUMPDEST PUSH2 0x40 PUSH2 0x5E JUMP JUMPDEST PUSH1 0x40 MLOAD PUSH2 0x4D SWAP2 SWAP1 PUSH2 0x178 JUMP JUMPDEST PUSH1 0x40 MLOAD DUP1 SWAP2 SUB SWAP1 RETURN JUMPDEST PUSH2 0x40 PUSH2 0xED JUMP JUMPDEST PUSH1 0x60 PUSH0 DUP1 SLOAD PUSH2 0x6C SWAP1 PUSH2 0x1AD JUMP JUMPDEST DUP1 PUSH1 0x1F ADD PUSH1 0x20 DUP1 SWAP2 DIV MUL PUSH1 0x20 ADD PUSH1 0x40 MLOAD SWAP1 DUP2 ADD PUSH1 0x40 MSTORE DUP1 SWAP3 SWAP2 SWAP1 DUP2 DUP2 MSTORE PUSH1 0x20 ADD DUP3 DUP1 SLOAD PUSH2 0x98 SWAP1 PUSH2 0x1AD JUMP JUMPDEST DUP1 ISZERO PUSH2 0xE3 JUMPI DUP1 PUSH1 0x1F LT PUSH2 0xBA JUMPI PUSH2 0x100 DUP1 DUP4 SLOAD DIV MUL DUP4 MSTORE SWAP2 PUSH1 0x20 ADD SWAP2 PUSH2 0xE3 JUMP JUMPDEST DUP3 ADD SWAP2 SWAP1 PUSH0 MSTORE PUSH1 0x20 PUSH0 KECCAK256 SWAP1 JUMPDEST DUP2 SLOAD DUP2 MSTORE SWAP1 PUSH1 0x1 ADD SWAP1 PUSH1 0x20 ADD DUP1 DUP4 GT PUSH2 0xC6 JUMPI DUP3 SWAP1 SUB PUSH1 0x1F AND DUP3 ADD SWAP2 JUMPDEST POP POP POP POP POP SWAP1 POP SWAP1 JUMP JUMPDEST PUSH0 DUP1 SLOAD PUSH2 0xF9 SWAP1 PUSH2 0x1AD JUMP JUMPDEST DUP1 PUSH1 0x1F ADD PUSH1 0x20 DUP1 SWAP2 DIV MUL PUSH1 0x20 ADD PUSH1 0x40 MLOAD SWAP1 DUP2 ADD PUSH1 0x40 MSTORE DUP1 SWAP3 SWAP2 SWAP1 DUP2 DUP2 MSTORE PUSH1 0x20 ADD DUP3 DUP1 SLOAD PUSH2 0x125 SWAP1 PUSH2 0x1AD JUMP JUMPDEST DUP1 ISZERO PUSH2 0x170 JUMPI DUP1 PUSH1 0x1F LT PUSH2 0x147 JUMPI PUSH2 0x100 DUP1 DUP4 SLOAD DIV MUL DUP4 MSTORE SWAP2 PUSH1 0x20 ADD SWAP2 PUSH2 0x170 JUMP JUMPDEST DUP3 ADD SWAP2 SWAP1 PUSH0 MSTORE PUSH1 0x20 PUSH0 KECCAK256 SWAP1 JUMPDEST DUP2 SLOAD DUP2 MSTORE SWAP1 PUSH1 0x1 ADD SWAP1 PUSH1 0x20 ADD DUP1 DUP4 GT PUSH2 0x153 JUMPI DUP3 SWAP1 SUB PUSH1 0x1F AND DUP3 ADD SWAP2 JUMPDEST POP POP POP POP POP DUP2 JUMP JUMPDEST PUSH1 0x20 DUP2 MSTORE PUSH0 DUP3 MLOAD DUP1 PUSH1 0x20 DUP5 ADD MSTORE DUP1 PUSH1 0x20 DUP6 ADD PUSH1 0x40 DUP6 ADD MCOPY PUSH0 PUSH1 0x40 DUP3 DUP6 ADD ADD MSTORE PUSH1 0x40 PUSH1 0x1F NOT PUSH1 0x1F DUP4 ADD AND DUP5 ADD ADD SWAP2 POP POP SWAP3 SWAP2 POP POP JUMP JUMPDEST PUSH1 0x1 DUP2 DUP2 SHR SWAP1 DUP3 AND DUP1 PUSH2 0x1C1 JUMPI PUSH1 0x7F DUP3 AND SWAP2 POP JUMPDEST PUSH1 0x20 DUP3 LT DUP2 SUB PUSH2 0x1DF JUMPI PUSH4 0x4E487B71 PUSH1 0xE0 SHL PUSH0 MSTORE PUSH1 0x22 PUSH1 0x4 MSTORE PUSH1 0x24 PUSH0 REVERT JUMPDEST POP SWAP2 SWAP1 POP JUMP INVALID LOG2 PUSH5 0x6970667358 0x22 SLT KECCAK256 0x26 PUSH31 0xC7F9BA4AAAD992CDA2D29233C63B64E0E725AEE5CB48954B81A4BB22594064 PUSH20 0x6F6C634300081D00330000000000000000000000 "
		},
		"gasEstimates": {
			"creation": {
				"codeDepositCost": "107800",
				"executionCost": "infinite",
				"totalCost": "infinite"
			},
			"external": {
				"greeting()": "infinite",
				"sayHello()": "infinite"
			}
		},
		"methodIdentifiers": {
			"greeting()": "ef690cc0",
			"sayHello()": "ef5fb05b"
		}
	},
	"abi": [
		{
			"inputs": [],
			"name": "greeting",
			"outputs": [
				{
					"internalType": "string",
					"name": "",
					"type": "string"
				}
			],
			"stateMutability": "view",
			"type": "function"
		},
		{
			"inputs": [],
			"name": "sayHello",
			"outputs": [
				{
					"internalType": "string",
					"name": "",
					"type": "string"
				}
			],
			"stateMutability": "view",
			"type": "function"
		}
	]
}