{
	"data": {
		"bytecode": {
			"linkReferences": {},
			"object": "60c060405233608081905260a052348015610018575f80fd5b5060805160a05160d26100365f395f603801525f607a015260d25ff3fe6080604052348015600e575f80fd5b50600436106030575f3560e01c80638da5cb5b146034578063fe5740cd146076575b5f80fd5b605a7f000000000000000000000000000000000000000000000000000000000000000081565b6040516001600160a01b03909116815260200160405180910390f35b605a7f00000000000000000000000000000000000000000000000000000000000000008156fea264697066735822122013ecfad2d4115acbb468b6ac4ede3918951928f8b6df41030e8d160c0013227664736f6c63430008180033",
			"opcodes": "PUSH1 0xC0 PUSH1 0x40 MSTORE CALLER PUSH1 0x80 DUP2 SWAP1 MSTORE PUSH1 0xA0 MSTORE CALLVALUE DUP1 ISZERO PUSH2 0x18 JUMPI PUSH0 DUP1 REVERT JUMPDEST POP PUSH1 0x80 MLOAD PUSH1 0xA0 MLOAD PUSH1 0xD2 PUSH2 0x36 PUSH0 CODECOPY PUSH0 PUSH1 0x38 ADD MSTORE PUSH0 PUSH1 0x7A ADD MSTORE PUSH1 0xD2 PUSH0 RETURN INVALID PUSH1 0x80 PUSH1 0x40 MSTORE CALLVALUE DUP1 ISZERO PUSH1 0xE JUMPI PUSH0 DUP1 REVERT JUMPDEST POP PUSH1 0x4 CALLDATASIZE LT PUSH1 0x30 JUMPI PUSH0 CALLDATALOAD PUSH1 0xE0 SHR DUP1 PUSH4 0x8DA5CB5B EQ PUSH1 0x34 JUMPI DUP1 PUSH4 0xFE5740CD EQ PUSH1 0x76 JUMPI JUMPDEST PUSH0 DUP1 REVERT JUMPDEST PUSH1 0x5A PUSH32 0x0 DUP2 JUMP JUMPDEST PUSH1 0x40 MLOAD PUSH1 0x1 PUSH1 0x1 PUSH1 0xA0 SHL SUB SWAP1 SWAP2 AND DUP2 MSTORE PUSH1 0x20 ADD PUSH1 0x40 MLOAD DUP1 SWAP2 SUB SWAP1 RETURN JUMPDEST PUSH1 0x5A PUSH32 0x0 DUP2 JUMP INVALID LOG2 PUSH5 0x6970667358 0x22 SLT KECCAK256 SGT 0xEC STATICCALL 0xD2 0xD4 GT GAS 0xCB 0xB4 PUSH9 0xB6AC4EDE3918951928 0xF8 0xB6 0xDF COINBASE SUB 0xE DUP14 AND 0xC STOP SGT 0x22 PUSH23 0x64736F6C63430008180033000000000000000000000000 "
		},
		"gasEstimates": {
			"creation": {
				"codeDepositCost": "42000",
				"executionCost": "infinite",
				"totalCost": "infinite"
			},
			"external": {
				"immutable_owner()": "infinite",
				"owner()": "infinite"
			}
		},
		"methodIdentifiers": {
			"immutable_owner()": "fe5740cd",
			"owner()": "8da5cb5b"
		}
	},
	"abi": [
		{
			"inputs": [],
			"name": "immutable_owner",
			"outputs": [
				{
					"internalType": "address",
					"name": "",
					"type": "address"
				}
			],
			"stateMutability": "view",
			"type": "function"
		},
		{
			"inputs": [],
			"name": "owner",
			"outputs": [
				{
					"internalType": "address",
					"name": "",
					"type": "address"
				}
			],
			"stateMutability": "view",
			"type": "function"
		}
	]
}