{
	"data": {
		"bytecode": {
			"linkReferences": {},
			"object": "6080604052348015600e575f5ffd5b505f80546001600160a01b0319163317905560bc80602b5f395ff3fe608060405260043610602f575f3560e01c806312065fe01460335780638da5cb5b146051578063d0e30db0146084575b5f5ffd5b348015603d575f5ffd5b506040514781526020015b60405180910390f35b348015605b575f5ffd5b505f54606d906001600160a01b031681565b6040516001600160a01b0390911681526020016048565b00fea26469706673582212207d09b501c4206a8de0c56414054f7269c8c6b4d41f2d33ad6f52c50daf31e98064736f6c634300081d0033",
			"opcodes": "PUSH1 0x80 PUSH1 0x40 MSTORE CALLVALUE DUP1 ISZERO PUSH1 0xE JUMPI PUSH0 PUSH0 REVERT JUMPDEST POP PUSH0 DUP1 SLOAD PUSH1 0x1 PUSH1 0x1 PUSH1 0xA0 SHL SUB NOT AND CALLER OR SWAP1 SSTORE PUSH1 0xBC DUP1 PUSH1 0x2B PUSH0 CODECOPY PUSH0 RETURN INVALID PUSH1 0x80 PUSH1 0x40 MSTORE PUSH1 0x4 CALLDATASIZE LT PUSH1 0x2F JUMPI PUSH0 CALLDATALOAD PUSH1 0xE0 SHR DUP1 PUSH4 0x12065FE0 EQ PUSH1 0x33 JUMPI DUP1 PUSH4 0x8DA5CB5B EQ PUSH1 0x51 JUMPI DUP1 PUSH4 0xD0E30DB0 EQ PUSH1 0x84 JUMPI JUMPDEST PUSH0 PUSH0 REVERT JUMPDEST CALLVALUE DUP1 ISZERO PUSH1 0x3D JUMPI PUSH0 PUSH0 REVERT JUMPDEST POP PUSH1 0x40 MLOAD SELFBALANCE DUP2 MSTORE PUSH1 0x20 ADD JUMPDEST PUSH1 0x40 MLOAD DUP1 SWAP2 SUB SWAP1 RETURN JUMPDEST CALLVALUE DUP1 ISZERO PUSH1 0x5B JUMPI PUSH0 PUSH0 REVERT JUMPDEST POP PUSH0 SLOAD PUSH1 0x6D SWAP1 PUSH1 0x1 PUSH1 0x1 PUSH1 0xA0 SHL SUB AND DUP2 JUMP JUMPDEST PUSH1 0x40 MLOAD PUSH1 0x1 PUSH1 0x1 PUSH1 0xA0 SHL SUB SWAP1 SWAP2 AND DUP2 MSTORE PUSH1 0x20 ADD PUSH1 0x48 JUMP JUMPDEST STOP INVALID LOG2 PUSH5 0x6970667358 0x22 SLT KECCAK256 PUSH30 0x9B501C4206A8DE0C56414054F7269C8C6B4D41F2D33AD6F52C50DAF31E9 DUP1 PUSH5 0x736F6C6343 STOP ADDMOD SAR STOP CALLER "
		},
		"gasEstimates": {
			"creation": {
				"codeDepositCost": "37600",
				"executionCost": "24319",
				"totalCost": "61919"
			},
			"external": {
				"deposit()": "117",
				"getBalance()": "145",
				"owner()": "2335"
			}
		},
		"methodIdentifiers": {
			"deposit()": "d0e30db0",
			"getBalance()": "12065fe0",
			"owner()": "8da5cb5b"
		}
	},
	"abi": [
		{
			"inputs": [],
			"stateMutability": "nonpayable",
			"type": "constructor"
		},
		{
			"inputs": [],
			"name": "deposit",
			"outputs": [],
			"stateMutability": "payable",
			"type": "function"
		},
		{
			"inputs": [],
			"name": "getBalance",
			"outputs": [
				{
					"internalType": "uint256",
					"name": "",
					"type": "uint256"
				}
			],
			"stateMutability": "view",
			"type": "function"
		},
		{
			"inputs": [],
			"name": "owner",
			"outputs": [
				{
					"internalType": "address payable",
					"name": "",
					"type": "address"
				}
			],
			"stateMutability": "view",
			"type": "function"
		}
	]
}