{
	"data": {
		"bytecode": {
			"linkReferences": {},
			"object": "6080604052607b6001553480156013575f80fd5b5061015c806100215f395ff3fe608060405260043610610054575f3560e01c80630c55699c146100585780633fa4f2451461007f5780634018d9aa146100945780635197c7aa146100b5578063cdc23076146100c8578063d6c7a3be146100f9575b5f80fd5b348015610063575f80fd5b5061006c5f5481565b6040519081526020015b60405180910390f35b34801561008a575f80fd5b5061006c60015481565b34801561009f575f80fd5b5061006c6100ae36600461010f565b5f81905590565b3480156100c0575f80fd5b505f5461006c565b6100e46100d636600461010f565b5f8190553460018190559091565b60408051928352602083019190915201610076565b348015610104575f80fd5b505f546001546100e4565b5f6020828403121561011f575f80fd5b503591905056fea26469706673582212207d6d652cedb434507aebb415359edf4f41e5d37bb1fd4012043df7c51b54a84764736f6c634300081a0033",
			"opcodes": "PUSH1 0x80 PUSH1 0x40 MSTORE PUSH1 0x7B PUSH1 0x1 SSTORE CALLVALUE DUP1 ISZERO PUSH1 0x13 JUMPI PUSH0 DUP1 REVERT JUMPDEST POP PUSH2 0x15C DUP1 PUSH2 0x21 PUSH0 CODECOPY PUSH0 RETURN INVALID PUSH1 0x80 PUSH1 0x40 MSTORE PUSH1 0x4 CALLDATASIZE LT PUSH2 0x54 JUMPI PUSH0 CALLDATALOAD PUSH1 0xE0 SHR DUP1 PUSH4 0xC55699C EQ PUSH2 0x58 JUMPI DUP1 PUSH4 0x3FA4F245 EQ PUSH2 0x7F JUMPI DUP1 PUSH4 0x4018D9AA EQ PUSH2 0x94 JUMPI DUP1 PUSH4 0x5197C7AA EQ PUSH2 0xB5 JUMPI DUP1 PUSH4 0xCDC23076 EQ PUSH2 0xC8 JUMPI DUP1 PUSH4 0xD6C7A3BE EQ PUSH2 0xF9 JUMPI JUMPDEST PUSH0 DUP1 REVERT JUMPDEST CALLVALUE DUP1 ISZERO PUSH2 0x63 JUMPI PUSH0 DUP1 REVERT JUMPDEST POP PUSH2 0x6C PUSH0 SLOAD DUP2 JUMP JUMPDEST PUSH1 0x40 MLOAD SWAP1 DUP2 MSTORE PUSH1 0x20 ADD JUMPDEST PUSH1 0x40 MLOAD DUP1 SWAP2 SUB SWAP1 RETURN JUMPDEST CALLVALUE DUP1 ISZERO PUSH2 0x8A JUMPI PUSH0 DUP1 REVERT JUMPDEST POP PUSH2 0x6C PUSH1 0x1 SLOAD DUP2 JUMP JUMPDEST CALLVALUE DUP1 ISZERO PUSH2 0x9F JUMPI PUSH0 DUP1 REVERT JUMPDEST POP PUSH2 0x6C PUSH2 0xAE CALLDATASIZE PUSH1 0x4 PUSH2 0x10F JUMP JUMPDEST PUSH0 DUP2 SWAP1 SSTORE SWAP1 JUMP JUMPDEST CALLVALUE DUP1 ISZERO PUSH2 0xC0 JUMPI PUSH0 DUP1 REVERT JUMPDEST POP PUSH0 SLOAD PUSH2 0x6C JUMP JUMPDEST PUSH2 0xE4 PUSH2 0xD6 CALLDATASIZE PUSH1 0x4 PUSH2 0x10F JUMP JUMPDEST PUSH0 DUP2 SWAP1 SSTORE CALLVALUE PUSH1 0x1 DUP2 SWAP1 SSTORE SWAP1 SWAP2 JUMP JUMPDEST PUSH1 0x40 DUP1 MLOAD SWAP3 DUP4 MSTORE PUSH1 0x20 DUP4 ADD SWAP2 SWAP1 SWAP2 MSTORE ADD PUSH2 0x76 JUMP JUMPDEST CALLVALUE DUP1 ISZERO PUSH2 0x104 JUMPI PUSH0 DUP1 REVERT JUMPDEST POP PUSH0 SLOAD PUSH1 0x1 SLOAD PUSH2 0xE4 JUMP JUMPDEST PUSH0 PUSH1 0x20 DUP3 DUP5 SUB SLT ISZERO PUSH2 0x11F JUMPI PUSH0 DUP1 REVERT JUMPDEST POP CALLDATALOAD SWAP2 SWAP1 POP JUMP INVALID LOG2 PUSH5 0x6970667358 0x22 SLT KECCAK256 PUSH30 0x6D652CEDB434507AEBB415359EDF4F41E5D37BB1FD4012043DF7C51B54A8 SELFBALANCE PUSH5 0x736F6C6343 STOP ADDMOD BYTE STOP CALLER "
		},
		"gasEstimates": {
			"creation": {
				"codeDepositCost": "69600",
				"executionCost": "22221",
				"totalCost": "91821"
			},
			"external": {
				"getX()": "2323",
				"getXandValue()": "4505",
				"setX(uint256)": "22386",
				"setXandSendEther(uint256)": "44555",
				"value()": "2283",
				"x()": "2260"
			}
		},
		"methodIdentifiers": {
			"getX()": "5197c7aa",
			"getXandValue()": "d6c7a3be",
			"setX(uint256)": "4018d9aa",
			"setXandSendEther(uint256)": "cdc23076",
			"value()": "3fa4f245",
			"x()": "0c55699c"
		}
	},
	"abi": [
		{
			"inputs": [],
			"name": "getX",
			"outputs": [
				{
					"internalType": "uint256",
					"name": "",
					"type": "uint256"
				}
			],
			"stateMutability": "view",
			"type": "function"
		},
		{
			"inputs": [],
			"name": "getXandValue",
			"outputs": [
				{
					"internalType": "uint256",
					"name": "",
					"type": "uint256"
				},
				{
					"internalType": "uint256",
					"name": "",
					"type": "uint256"
				}
			],
			"stateMutability": "view",
			"type": "function"
		},
		{
			"inputs": [
				{
					"internalType": "uint256",
					"name": "_x",
					"type": "uint256"
				}
			],
			"name": "setX",
			"outputs": [
				{
					"internalType": "uint256",
					"name": "",
					"type": "uint256"
				}
			],
			"stateMutability": "nonpayable",
			"type": "function"
		},
		{
			"inputs": [
				{
					"internalType": "uint256",
					"name": "_x",
					"type": "uint256"
				}
			],
			"name": "setXandSendEther",
			"outputs": [
				{
					"internalType": "uint256",
					"name": "",
					"type": "uint256"
				},
				{
					"internalType": "uint256",
					"name": "",
					"type": "uint256"
				}
			],
			"stateMutability": "payable",
			"type": "function"
		},
		{
			"inputs": [],
			"name": "value",
			"outputs": [
				{
					"internalType": "uint256",
					"name": "",
					"type": "uint256"
				}
			],
			"stateMutability": "view",
			"type": "function"
		},
		{
			"inputs": [],
			"name": "x",
			"outputs": [
				{
					"internalType": "uint256",
					"name": "",
					"type": "uint256"
				}
			],
			"stateMutability": "view",
			"type": "function"
		}
	]
}