{
	"data": {
		"bytecode": {
			"linkReferences": {},
			"object": "6080604052348015600e575f80fd5b506104758061001c5f395ff3fe608060405234801561000f575f80fd5b506004361061004a575f3560e01c806319045a251461004e578063873e15401461007e578063b446f3b2146100a1578063fa540801146100c2575b5f80fd5b61006161005c366004610313565b6100d5565b6040516001600160a01b0390911681526020015b60405180910390f35b61009161008c366004610357565b61014f565b6040519015158152602001610075565b6100b46100af3660046103d8565b610190565b604051908152602001610075565b6100b46100d0366004610412565b6101bf565b5f805f806100e2856101f9565b604080515f8152602081018083528b905260ff8316918101919091526060810184905260808101839052929550909350915060019060a0016020604051602081039080840390855afa15801561013a573d5f803e3d5ffd5b5050604051601f190151979650505050505050565b5f8061015a84610190565b90505f610166826101bf565b9050856001600160a01b031661017c82866100d5565b6001600160a01b0316149695505050505050565b5f816040516020016101a29190610429565b604051602081830303815290604052805190602001209050919050565b6040517f19457468657265756d205369676e6564204d6573736167653a0a3332000000006020820152603c81018290525f90605c016101a2565b5f805f83516041146102515760405162461bcd60e51b815260206004820152601860248201527f696e76616c6964207369676e6174757265206c656e6774680000000000000000604482015260640160405180910390fd5b5050506020810151604082015160609092015190925f9190911a90565b634e487b7160e01b5f52604160045260245ffd5b5f82601f830112610291575f80fd5b8135602083015f8067ffffffffffffffff8411156102b1576102b161026e565b50604051601f19601f85018116603f0116810181811067ffffffffffffffff821117156102e0576102e061026e565b6040528381529050808284018710156102f7575f80fd5b838360208301375f602085830101528094505050505092915050565b5f8060408385031215610324575f80fd5b82359150602083013567ffffffffffffffff811115610341575f80fd5b61034d85828601610282565b9150509250929050565b5f805f60608486031215610369575f80fd5b83356001600160a01b038116811461037f575f80fd5b9250602084013567ffffffffffffffff81111561039a575f80fd5b6103a686828701610282565b925050604084013567ffffffffffffffff8111156103c2575f80fd5b6103ce86828701610282565b9150509250925092565b5f602082840312156103e8575f80fd5b813567ffffffffffffffff8111156103fe575f80fd5b61040a84828501610282565b949350505050565b5f60208284031215610422575f80fd5b5035919050565b5f82518060208501845e5f92019182525091905056fea2646970667358221220c6c0502848e2fa7653f74403f4bf145f1fd71e3c65dbf8e4a7dcdaec178497df64736f6c634300081a0033",
			"opcodes": "PUSH1 0x80 PUSH1 0x40 MSTORE CALLVALUE DUP1 ISZERO PUSH1 0xE JUMPI PUSH0 DUP1 REVERT JUMPDEST POP PUSH2 0x475 DUP1 PUSH2 0x1C PUSH0 CODECOPY PUSH0 RETURN INVALID PUSH1 0x80 PUSH1 0x40 MSTORE CALLVALUE DUP1 ISZERO PUSH2 0xF JUMPI PUSH0 DUP1 REVERT JUMPDEST POP PUSH1 0x4 CALLDATASIZE LT PUSH2 0x4A JUMPI PUSH0 CALLDATALOAD PUSH1 0xE0 SHR DUP1 PUSH4 0x19045A25 EQ PUSH2 0x4E JUMPI DUP1 PUSH4 0x873E1540 EQ PUSH2 0x7E JUMPI DUP1 PUSH4 0xB446F3B2 EQ PUSH2 0xA1 JUMPI DUP1 PUSH4 0xFA540801 EQ PUSH2 0xC2 JUMPI JUMPDEST PUSH0 DUP1 REVERT JUMPDEST PUSH2 0x61 PUSH2 0x5C CALLDATASIZE PUSH1 0x4 PUSH2 0x313 JUMP JUMPDEST PUSH2 0xD5 JUMP JUMPDEST PUSH1 0x40 MLOAD PUSH1 0x1 PUSH1 0x1 PUSH1 0xA0 SHL SUB SWAP1 SWAP2 AND DUP2 MSTORE PUSH1 0x20 ADD JUMPDEST PUSH1 0x40 MLOAD DUP1 SWAP2 SUB SWAP1 RETURN JUMPDEST PUSH2 0x91 PUSH2 0x8C CALLDATASIZE PUSH1 0x4 PUSH2 0x357 JUMP JUMPDEST PUSH2 0x14F JUMP JUMPDEST PUSH1 0x40 MLOAD SWAP1 ISZERO ISZERO DUP2 MSTORE PUSH1 0x20 ADD PUSH2 0x75 JUMP JUMPDEST PUSH2 0xB4 PUSH2 0xAF CALLDATASIZE PUSH1 0x4 PUSH2 0x3D8 JUMP JUMPDEST PUSH2 0x190 JUMP JUMPDEST PUSH1 0x40 MLOAD SWAP1 DUP2 MSTORE PUSH1 0x20 ADD PUSH2 0x75 JUMP JUMPDEST PUSH2 0xB4 PUSH2 0xD0 CALLDATASIZE PUSH1 0x4 PUSH2 0x412 JUMP JUMPDEST PUSH2 0x1BF JUMP JUMPDEST PUSH0 DUP1 PUSH0 DUP1 PUSH2 0xE2 DUP6 PUSH2 0x1F9 JUMP JUMPDEST PUSH1 0x40 DUP1 MLOAD PUSH0 DUP2 MSTORE PUSH1 0x20 DUP2 ADD DUP1 DUP4 MSTORE DUP12 SWAP1 MSTORE PUSH1 0xFF DUP4 AND SWAP2 DUP2 ADD SWAP2 SWAP1 SWAP2 MSTORE PUSH1 0x60 DUP2 ADD DUP5 SWAP1 MSTORE PUSH1 0x80 DUP2 ADD DUP4 SWAP1 MSTORE SWAP3 SWAP6 POP SWAP1 SWAP4 POP SWAP2 POP PUSH1 0x1 SWAP1 PUSH1 0xA0 ADD PUSH1 0x20 PUSH1 0x40 MLOAD PUSH1 0x20 DUP2 SUB SWAP1 DUP1 DUP5 SUB SWAP1 DUP6 GAS STATICCALL ISZERO DUP1 ISZERO PUSH2 0x13A JUMPI RETURNDATASIZE PUSH0 DUP1 RETURNDATACOPY RETURNDATASIZE PUSH0 REVERT JUMPDEST POP POP PUSH1 0x40 MLOAD PUSH1 0x1F NOT ADD MLOAD SWAP8 SWAP7 POP POP POP POP POP POP POP JUMP JUMPDEST PUSH0 DUP1 PUSH2 0x15A DUP5 PUSH2 0x190 JUMP JUMPDEST SWAP1 POP PUSH0 PUSH2 0x166 DUP3 PUSH2 0x1BF JUMP JUMPDEST SWAP1 POP DUP6 PUSH1 0x1 PUSH1 0x1 PUSH1 0xA0 SHL SUB AND PUSH2 0x17C DUP3 DUP7 PUSH2 0xD5 JUMP JUMPDEST PUSH1 0x1 PUSH1 0x1 PUSH1 0xA0 SHL SUB AND EQ SWAP7 SWAP6 POP POP POP POP POP POP JUMP JUMPDEST PUSH0 DUP2 PUSH1 0x40 MLOAD PUSH1 0x20 ADD PUSH2 0x1A2 SWAP2 SWAP1 PUSH2 0x429 JUMP JUMPDEST PUSH1 0x40 MLOAD PUSH1 0x20 DUP2 DUP4 SUB SUB DUP2 MSTORE SWAP1 PUSH1 0x40 MSTORE DUP1 MLOAD SWAP1 PUSH1 0x20 ADD KECCAK256 SWAP1 POP SWAP2 SWAP1 POP JUMP JUMPDEST PUSH1 0x40 MLOAD PUSH32 0x19457468657265756D205369676E6564204D6573736167653A0A333200000000 PUSH1 0x20 DUP3 ADD MSTORE PUSH1 0x3C DUP2 ADD DUP3 SWAP1 MSTORE PUSH0 SWAP1 PUSH1 0x5C ADD PUSH2 0x1A2 JUMP JUMPDEST PUSH0 DUP1 PUSH0 DUP4 MLOAD PUSH1 0x41 EQ PUSH2 0x251 JUMPI PUSH1 0x40 MLOAD PUSH3 0x461BCD PUSH1 0xE5 SHL DUP2 MSTORE PUSH1 0x20 PUSH1 0x4 DUP3 ADD MSTORE PUSH1 0x18 PUSH1 0x24 DUP3 ADD MSTORE PUSH32 0x696E76616C6964207369676E6174757265206C656E6774680000000000000000 PUSH1 0x44 DUP3 ADD MSTORE PUSH1 0x64 ADD PUSH1 0x40 MLOAD DUP1 SWAP2 SUB SWAP1 REVERT JUMPDEST POP POP POP PUSH1 0x20 DUP2 ADD MLOAD PUSH1 0x40 DUP3 ADD MLOAD PUSH1 0x60 SWAP1 SWAP3 ADD MLOAD SWAP1 SWAP3 PUSH0 SWAP2 SWAP1 SWAP2 BYTE SWAP1 JUMP JUMPDEST PUSH4 0x4E487B71 PUSH1 0xE0 SHL PUSH0 MSTORE PUSH1 0x41 PUSH1 0x4 MSTORE PUSH1 0x24 PUSH0 REVERT JUMPDEST PUSH0 DUP3 PUSH1 0x1F DUP4 ADD SLT PUSH2 0x291 JUMPI PUSH0 DUP1 REVERT JUMPDEST DUP2 CALLDATALOAD PUSH1 0x20 DUP4 ADD PUSH0 DUP1 PUSH8 0xFFFFFFFFFFFFFFFF DUP5 GT ISZERO PUSH2 0x2B1 JUMPI PUSH2 0x2B1 PUSH2 0x26E JUMP JUMPDEST POP PUSH1 0x40 MLOAD PUSH1 0x1F NOT PUSH1 0x1F DUP6 ADD DUP2 AND PUSH1 0x3F ADD AND DUP2 ADD DUP2 DUP2 LT PUSH8 0xFFFFFFFFFFFFFFFF DUP3 GT OR ISZERO PUSH2 0x2E0 JUMPI PUSH2 0x2E0 PUSH2 0x26E JUMP JUMPDEST PUSH1 0x40 MSTORE DUP4 DUP2 MSTORE SWAP1 POP DUP1 DUP3 DUP5 ADD DUP8 LT ISZERO PUSH2 0x2F7 JUMPI PUSH0 DUP1 REVERT JUMPDEST DUP4 DUP4 PUSH1 0x20 DUP4 ADD CALLDATACOPY PUSH0 PUSH1 0x20 DUP6 DUP4 ADD ADD MSTORE DUP1 SWAP5 POP POP POP POP POP SWAP3 SWAP2 POP POP JUMP JUMPDEST PUSH0 DUP1 PUSH1 0x40 DUP4 DUP6 SUB SLT ISZERO PUSH2 0x324 JUMPI PUSH0 DUP1 REVERT JUMPDEST DUP3 CALLDATALOAD SWAP2 POP PUSH1 0x20 DUP4 ADD CALLDATALOAD PUSH8 0xFFFFFFFFFFFFFFFF DUP2 GT ISZERO PUSH2 0x341 JUMPI PUSH0 DUP1 REVERT JUMPDEST PUSH2 0x34D DUP6 DUP3 DUP7 ADD PUSH2 0x282 JUMP JUMPDEST SWAP2 POP POP SWAP3 POP SWAP3 SWAP1 POP JUMP JUMPDEST PUSH0 DUP1 PUSH0 PUSH1 0x60 DUP5 DUP7 SUB SLT ISZERO PUSH2 0x369 JUMPI PUSH0 DUP1 REVERT JUMPDEST DUP4 CALLDATALOAD PUSH1 0x1 PUSH1 0x1 PUSH1 0xA0 SHL SUB DUP2 AND DUP2 EQ PUSH2 0x37F JUMPI PUSH0 DUP1 REVERT JUMPDEST SWAP3 POP PUSH1 0x20 DUP5 ADD CALLDATALOAD PUSH8 0xFFFFFFFFFFFFFFFF DUP2 GT ISZERO PUSH2 0x39A JUMPI PUSH0 DUP1 REVERT JUMPDEST PUSH2 0x3A6 DUP7 DUP3 DUP8 ADD PUSH2 0x282 JUMP JUMPDEST SWAP3 POP POP PUSH1 0x40 DUP5 ADD CALLDATALOAD PUSH8 0xFFFFFFFFFFFFFFFF DUP2 GT ISZERO PUSH2 0x3C2 JUMPI PUSH0 DUP1 REVERT JUMPDEST PUSH2 0x3CE DUP7 DUP3 DUP8 ADD PUSH2 0x282 JUMP JUMPDEST SWAP2 POP POP SWAP3 POP SWAP3 POP SWAP3 JUMP JUMPDEST PUSH0 PUSH1 0x20 DUP3 DUP5 SUB SLT ISZERO PUSH2 0x3E8 JUMPI PUSH0 DUP1 REVERT JUMPDEST DUP2 CALLDATALOAD PUSH8 0xFFFFFFFFFFFFFFFF DUP2 GT ISZERO PUSH2 0x3FE JUMPI PUSH0 DUP1 REVERT JUMPDEST PUSH2 0x40A DUP5 DUP3 DUP6 ADD PUSH2 0x282 JUMP JUMPDEST SWAP5 SWAP4 POP POP POP POP JUMP JUMPDEST PUSH0 PUSH1 0x20 DUP3 DUP5 SUB SLT ISZERO PUSH2 0x422 JUMPI PUSH0 DUP1 REVERT JUMPDEST POP CALLDATALOAD SWAP2 SWAP1 POP JUMP JUMPDEST PUSH0 DUP3 MLOAD DUP1 PUSH1 0x20 DUP6 ADD DUP5 MCOPY PUSH0 SWAP3 ADD SWAP2 DUP3 MSTORE POP SWAP2 SWAP1 POP JUMP INVALID LOG2 PUSH5 0x6970667358 0x22 SLT KECCAK256 0xC6 0xC0 POP 0x28 BASEFEE 0xE2 STATICCALL PUSH23 0x53F74403F4BF145F1FD71E3C65DBF8E4A7DCDAEC178497 0xDF PUSH5 0x736F6C6343 STOP ADDMOD BYTE STOP CALLER "
		},
		"gasEstimates": {
			"creation": {
				"codeDepositCost": "228200",
				"executionCost": "267",
				"totalCost": "228467"
			},
			"external": {
				"getEthSignedMessageHash(bytes32)": "497",
				"getMessageHash(string)": "infinite",
				"recover(bytes32,bytes)": "infinite",
				"verigy(address,string,bytes)": "infinite"
			},
			"internal": {
				"_split(bytes memory)": "infinite"
			}
		},
		"methodIdentifiers": {
			"getEthSignedMessageHash(bytes32)": "fa540801",
			"getMessageHash(string)": "b446f3b2",
			"recover(bytes32,bytes)": "19045a25",
			"verigy(address,string,bytes)": "873e1540"
		}
	},
	"abi": [
		{
			"inputs": [
				{
					"internalType": "bytes32",
					"name": "_messageHash",
					"type": "bytes32"
				}
			],
			"name": "getEthSignedMessageHash",
			"outputs": [
				{
					"internalType": "bytes32",
					"name": "",
					"type": "bytes32"
				}
			],
			"stateMutability": "pure",
			"type": "function"
		},
		{
			"inputs": [
				{
					"internalType": "string",
					"name": "_message",
					"type": "string"
				}
			],
			"name": "getMessageHash",
			"outputs": [
				{
					"internalType": "bytes32",
					"name": "",
					"type": "bytes32"
				}
			],
			"stateMutability": "pure",
			"type": "function"
		},
		{
			"inputs": [
				{
					"internalType": "bytes32",
					"name": "_ethSignedMessageHash",
					"type": "bytes32"
				},
				{
					"internalType": "bytes",
					"name": "_sig",
					"type": "bytes"
				}
			],
			"name": "recover",
			"outputs": [
				{
					"internalType": "address",
					"name": "",
					"type": "address"
				}
			],
			"stateMutability": "pure",
			"type": "function"
		},
		{
			"inputs": [
				{
					"internalType": "address",
					"name": "_signer",
					"type": "address"
				},
				{
					"internalType": "string",
					"name": "_message",
					"type": "string"
				},
				{
					"internalType": "bytes",
					"name": "_sig",
					"type": "bytes"
				}
			],
			"name": "verigy",
			"outputs": [
				{
					"internalType": "bool",
					"name": "",
					"type": "bool"
				}
			],
			"stateMutability": "pure",
			"type": "function"
		}
	]
}